{
  "_format": "hh-sol-artifact-1",
  "contractName": "CygnusDAOReserves",
  "sourceName": "contracts/cygnus-token/CygnusDAOReserves.sol",
  "abi": [
    {
      "inputs": [
        {
          "internalType": "contract IHangar18",
          "name": "_hangar18",
          "type": "address"
        },
        {
          "internalType": "address",
          "name": "_daoPositions",
          "type": "address"
        },
        {
          "internalType": "uint256",
          "name": "_weight",
          "type": "uint256"
        }
      ],
      "stateMutability": "nonpayable",
      "type": "constructor"
    },
    {
      "inputs": [
        {
          "internalType": "address",
          "name": "admin",
          "type": "address"
        },
        {
          "internalType": "address",
          "name": "sender",
          "type": "address"
        }
      ],
      "name": "CygnusDAOReserves__MsgSenderNotAdmin",
      "type": "error"
    },
    {
      "inputs": [
        {
          "internalType": "uint256",
          "name": "shuttleId",
          "type": "uint256"
        }
      ],
      "name": "CygnusDAOReserves__ShuttleAlreadyInitialized",
      "type": "error"
    },
    {
      "inputs": [
        {
          "internalType": "uint256",
          "name": "shuttleId",
          "type": "uint256"
        }
      ],
      "name": "CygnusDAOReserves__ShuttleDoesntExist",
      "type": "error"
    },
    {
      "inputs": [
        {
          "internalType": "uint256",
          "name": "weight",
          "type": "uint256"
        }
      ],
      "name": "CygnusDAOReserves__WeightNotAllowed",
      "type": "error"
    },
    {
      "inputs": [],
      "name": "ReentrantCall",
      "type": "error"
    },
    {
      "anonymous": false,
      "inputs": [
        {
          "indexed": true,
          "internalType": "address",
          "name": "vaultToken",
          "type": "address"
        },
        {
          "indexed": true,
          "internalType": "address",
          "name": "positions",
          "type": "address"
        },
        {
          "indexed": false,
          "internalType": "uint256",
          "name": "shares",
          "type": "uint256"
        }
      ],
      "name": "FundDAOReserves",
      "type": "event"
    },
    {
      "anonymous": false,
      "inputs": [
        {
          "indexed": false,
          "internalType": "uint256",
          "name": "totalShuttles",
          "type": "uint256"
        },
        {
          "indexed": false,
          "internalType": "address",
          "name": "positions",
          "type": "address"
        },
        {
          "indexed": false,
          "internalType": "uint256",
          "name": "shares",
          "type": "uint256"
        }
      ],
      "name": "FundDAOReservesAll",
      "type": "event"
    },
    {
      "anonymous": false,
      "inputs": [
        {
          "indexed": true,
          "internalType": "address",
          "name": "vaultToken",
          "type": "address"
        },
        {
          "indexed": true,
          "internalType": "address",
          "name": "positions",
          "type": "address"
        },
        {
          "indexed": true,
          "internalType": "address",
          "name": "vault",
          "type": "address"
        },
        {
          "indexed": false,
          "internalType": "uint256",
          "name": "shares",
          "type": "uint256"
        },
        {
          "indexed": false,
          "internalType": "uint256",
          "name": "assets",
          "type": "uint256"
        }
      ],
      "name": "FundX1Vault",
      "type": "event"
    },
    {
      "anonymous": false,
      "inputs": [
        {
          "indexed": false,
          "internalType": "uint256",
          "name": "totalShuttles",
          "type": "uint256"
        },
        {
          "indexed": false,
          "internalType": "address",
          "name": "vault",
          "type": "address"
        },
        {
          "indexed": false,
          "internalType": "uint256",
          "name": "shares",
          "type": "uint256"
        },
        {
          "indexed": false,
          "internalType": "uint256",
          "name": "assets",
          "type": "uint256"
        }
      ],
      "name": "FundX1VaultAll",
      "type": "event"
    },
    {
      "anonymous": false,
      "inputs": [
        {
          "components": [
            {
              "internalType": "bool",
              "name": "initialized",
              "type": "bool"
            },
            {
              "internalType": "uint256",
              "name": "shuttleId",
              "type": "uint256"
            },
            {
              "internalType": "address",
              "name": "borrowable",
              "type": "address"
            },
            {
              "internalType": "address",
              "name": "collateral",
              "type": "address"
            }
          ],
          "indexed": false,
          "internalType": "struct ICygnusDAOReserves.Shuttle",
          "name": "shuttle",
          "type": "tuple"
        }
      ],
      "name": "NewShuttleAdded",
      "type": "event"
    },
    {
      "anonymous": false,
      "inputs": [
        {
          "indexed": false,
          "internalType": "uint256",
          "name": "oldWeight",
          "type": "uint256"
        },
        {
          "indexed": false,
          "internalType": "uint256",
          "name": "newWeight",
          "type": "uint256"
        }
      ],
      "name": "NewX1VaultWeight",
      "type": "event"
    },
    {
      "inputs": [
        {
          "internalType": "uint256",
          "name": "shuttleId",
          "type": "uint256"
        }
      ],
      "name": "addShuttle",
      "outputs": [],
      "stateMutability": "nonpayable",
      "type": "function"
    },
    {
      "inputs": [
        {
          "internalType": "uint256",
          "name": "",
          "type": "uint256"
        }
      ],
      "name": "allShuttles",
      "outputs": [
        {
          "internalType": "bool",
          "name": "initialized",
          "type": "bool"
        },
        {
          "internalType": "uint256",
          "name": "shuttleId",
          "type": "uint256"
        },
        {
          "internalType": "address",
          "name": "borrowable",
          "type": "address"
        },
        {
          "internalType": "address",
          "name": "collateral",
          "type": "address"
        }
      ],
      "stateMutability": "view",
      "type": "function"
    },
    {
      "inputs": [],
      "name": "allShuttlesLength",
      "outputs": [
        {
          "internalType": "uint256",
          "name": "",
          "type": "uint256"
        }
      ],
      "stateMutability": "view",
      "type": "function"
    },
    {
      "inputs": [],
      "name": "cygnusX1Vault",
      "outputs": [
        {
          "internalType": "address",
          "name": "",
          "type": "address"
        }
      ],
      "stateMutability": "view",
      "type": "function"
    },
    {
      "inputs": [],
      "name": "daoPositionsWeight",
      "outputs": [
        {
          "internalType": "uint256",
          "name": "",
          "type": "uint256"
        }
      ],
      "stateMutability": "view",
      "type": "function"
    },
    {
      "inputs": [],
      "name": "daoReserves",
      "outputs": [
        {
          "internalType": "address",
          "name": "",
          "type": "address"
        }
      ],
      "stateMutability": "view",
      "type": "function"
    },
    {
      "inputs": [
        {
          "internalType": "uint256",
          "name": "shuttleId",
          "type": "uint256"
        }
      ],
      "name": "fundDAOPositionsCygLP",
      "outputs": [
        {
          "internalType": "uint256",
          "name": "shares",
          "type": "uint256"
        }
      ],
      "stateMutability": "nonpayable",
      "type": "function"
    },
    {
      "inputs": [],
      "name": "fundDAOPositionsCygLPAll",
      "outputs": [
        {
          "internalType": "uint256",
          "name": "shares",
          "type": "uint256"
        }
      ],
      "stateMutability": "nonpayable",
      "type": "function"
    },
    {
      "inputs": [
        {
          "internalType": "uint256",
          "name": "shuttleId",
          "type": "uint256"
        }
      ],
      "name": "fundX1VaultUSD",
      "outputs": [
        {
          "internalType": "uint256",
          "name": "shares",
          "type": "uint256"
        },
        {
          "internalType": "uint256",
          "name": "assets",
          "type": "uint256"
        }
      ],
      "stateMutability": "nonpayable",
      "type": "function"
    },
    {
      "inputs": [],
      "name": "fundX1VaultUSDAll",
      "outputs": [
        {
          "internalType": "uint256",
          "name": "shares",
          "type": "uint256"
        },
        {
          "internalType": "uint256",
          "name": "assets",
          "type": "uint256"
        }
      ],
      "stateMutability": "nonpayable",
      "type": "function"
    },
    {
      "inputs": [
        {
          "internalType": "uint256",
          "name": "",
          "type": "uint256"
        }
      ],
      "name": "getShuttle",
      "outputs": [
        {
          "internalType": "bool",
          "name": "initialized",
          "type": "bool"
        },
        {
          "internalType": "uint256",
          "name": "shuttleId",
          "type": "uint256"
        },
        {
          "internalType": "address",
          "name": "borrowable",
          "type": "address"
        },
        {
          "internalType": "address",
          "name": "collateral",
          "type": "address"
        }
      ],
      "stateMutability": "view",
      "type": "function"
    },
    {
      "inputs": [],
      "name": "hangar18",
      "outputs": [
        {
          "internalType": "contract IHangar18",
          "name": "",
          "type": "address"
        }
      ],
      "stateMutability": "view",
      "type": "function"
    },
    {
      "inputs": [
        {
          "internalType": "uint256",
          "name": "weight",
          "type": "uint256"
        }
      ],
      "name": "setX1VaultWeight",
      "outputs": [],
      "stateMutability": "nonpayable",
      "type": "function"
    },
    {
      "inputs": [
        {
          "internalType": "address",
          "name": "token",
          "type": "address"
        },
        {
          "internalType": "bool",
          "name": "toDAO",
          "type": "bool"
        }
      ],
      "name": "sweepToken",
      "outputs": [],
      "stateMutability": "nonpayable",
      "type": "function"
    },
    {
      "inputs": [],
      "name": "usd",
      "outputs": [
        {
          "internalType": "address",
          "name": "",
          "type": "address"
        }
      ],
      "stateMutability": "view",
      "type": "function"
    },
    {
      "inputs": [],
      "name": "x1VaultWeight",
      "outputs": [
        {
          "internalType": "uint256",
          "name": "",
          "type": "uint256"
        }
      ],
      "stateMutability": "view",
      "type": "function"
    }
  ],
  "bytecode": "0x610100604090808252346200023d576060816200170c803803809162000026828562000242565b8339810103126200023d578051906001600160a01b0382168083036200023d57602084620000568285016200027c565b93015191600093600160ff19865416178555670de0b6b3a764000095868511620002255760805260c05285516318e7df3d60e31b81528281600481855afa9081156200021b579083918691620001d5575b5060e052865163d63a6ccd60e01b815291829060049082905afa918215620001cb57849262000189575b505060a0528060045582039182116200017557506003555161147a90816200029282396080518181816101cb01528181610502015261135b015260a05181818161023a015261115c015260c051818181610149015281816103900152818161041401528181610ce701528181610eab01528181610edf01528181611111015261118b015260e0518181816102a901528181610bf4015281816110ee015261113b0152f35b634e487b7160e01b81526011600452602490fd5b90809250813d8311620001c3575b620001a3818362000242565b81010312620001bf57620001b7906200027c565b3880620000d1565b8280fd5b503d62000197565b86513d86823e3d90fd5b82819392503d831162000213575b620001ef818362000242565b810103126200020f576004916200020784926200027c565b9092620000a7565b8480fd5b503d620001e3565b87513d87823e3d90fd5b8751635984873560e01b815260048101869052602490fd5b600080fd5b601f909101601f19168101906001600160401b038211908210176200026657604052565b634e487b7160e01b600052604160045260246000fd5b51906001600160a01b03821682036200023d5756fe608060408181526004908136101561001657600080fd5b600092833560e01c90816316dc4de614610dde575080631ad4c8c314610d485780634f4addd114610d0b5780635b068af814610c9c5780637aa7247314610b315780637ccf374b14610a445780638840cc1d146109b95780638f6c58e41461097d5780639bbbbb02146108aa578063a2aec2131461086d578063ada58d4314610467578063b7cd5cb4146102cd578063c73ef9e81461025e578063d63a6ccd146101ef578063e8a24e1d146101805763facf0941146100d457600080fd5b34610178577ffffffffffffffffffffffffffffffffffffffffffffffffffffffffffffffffc36011261017c573573ffffffffffffffffffffffffffffffffffffffff8116810361017c5760243580151581036101785761016e91610137611316565b610141308261144b565b9115610171577f000000000000000000000000000000000000000000000000000000000000000090611408565b80f35b3390611408565b8280fd5b5080fd5b83823461017c57817ffffffffffffffffffffffffffffffffffffffffffffffffffffffffffffffffc36011261017c576020905173ffffffffffffffffffffffffffffffffffffffff7f0000000000000000000000000000000000000000000000000000000000000000168152f35b83823461017c57817ffffffffffffffffffffffffffffffffffffffffffffffffffffffffffffffffc36011261017c576020905173ffffffffffffffffffffffffffffffffffffffff7f0000000000000000000000000000000000000000000000000000000000000000168152f35b83823461017c57817ffffffffffffffffffffffffffffffffffffffffffffffffffffffffffffffffc36011261017c576020905173ffffffffffffffffffffffffffffffffffffffff7f0000000000000000000000000000000000000000000000000000000000000000168152f35b5082903461017c57817ffffffffffffffffffffffffffffffffffffffffffffffffffffffffffffffffc36011261017c5781549260ff84161561044057507fffffffffffffffffffffffffffffffffffffffffffffffffffffffffffffff0080931682558160025461033f6002611236565b82905b8282106103c65750506020947f108a965b373d0981109fedaf413102492c0a2af803f7eaa69b7437399751db796060600193865190815273ffffffffffffffffffffffffffffffffffffffff7f000000000000000000000000000000000000000000000000000000000000000016898201528787820152a182541617905551908152f35b909460019073ffffffffffffffffffffffffffffffffffffffff60606103ec89866112dc565b51015116906103fb308361144b565b91828061040e575b505001950190610342565b610439917f000000000000000000000000000000000000000000000000000000000000000090611408565b8982610403565b90517f37ed32e8000000000000000000000000000000000000000000000000000000008152fd5b5082903461017c57602090817ffffffffffffffffffffffffffffffffffffffffffffffffffffffffffffffffc360112610178578335916104a6611316565b8284526001815260ff828520541661083e578151917f1ad4c8c3000000000000000000000000000000000000000000000000000000008352838684015273ffffffffffffffffffffffffffffffffffffffff9260a081602481877f0000000000000000000000000000000000000000000000000000000000000000165afa92831561083457868792889561079e575b501561076f57825195610549608088610f7b565b6001875281870190808252868589019416845286606089019616865288526001825261060987858a208151151560ff7fffffffffffffffffffffffffffffffffffffffffffffffffffffffffffffff0083541691161781556020820151600182015560028101906060600373ffffffffffffffffffffffffffffffffffffffff9283604087015116947fffffffffffffffffffffffff00000000000000000000000000000000000000009586825416179055019301511690825416179055565b600254680100000000000000008110156107435780600161062f92016002556002610f30565b6107185792869492608097926106fa8a7f93a552e45a0701b212caf117ace04723a5f4137663aaa23c07cdd9dc0db05a019b99978151151560ff7fffffffffffffffffffffffffffffffffffffffffffffffffffffffffffffff0083541691161781556020820151600182015560028101906060600373ffffffffffffffffffffffffffffffffffffffff9283604087015116947fffffffffffffffffffffffff00000000000000000000000000000000000000009586825416179055019301511690825416179055565b8451975115158852519087015251169084015251166060820152a180f35b602489808c7f4e487b7100000000000000000000000000000000000000000000000000000000825252fd5b60248960418c7f4e487b7100000000000000000000000000000000000000000000000000000000835252fd5b602488878551917f6a5f6b7c000000000000000000000000000000000000000000000000000000008352820152fd5b925050925060a0813d821161082c575b816107bb60a09383610f7b565b8101031261082857805192831515840361082457808201516affffffffffffffffffffff811603610824576107f18383016112f0565b936080610800606085016112f0565b9301516bffffffffffffffffffffffff8116036108205793919389610535565b8780fd5b8680fd5b8580fd5b3d91506107ae565b82513d88823e3d90fd5b602485848451917fde9c1a69000000000000000000000000000000000000000000000000000000008352820152fd5b83823461017c57817ffffffffffffffffffffffffffffffffffffffffffffffffffffffffffffffffc36011261017c576020906003549051908152f35b50823461097a5760207ffffffffffffffffffffffffffffffffffffffffffffffffffffffffffffffffc36011261097a5780549060ff82161561095257600190847fffffffffffffffffffffffffffffffffffffffffffffffffffffffffffffff0080941682553581528160205261093d73ffffffffffffffffffffffffffffffffffffffff6002868420015416610feb565b92909382541617905582519182526020820152f35b5050517f37ed32e8000000000000000000000000000000000000000000000000000000008152fd5b80fd5b50903461017857827ffffffffffffffffffffffffffffffffffffffffffffffffffffffffffffffffc3601126101785760209250549051908152f35b5090346101785760207ffffffffffffffffffffffffffffffffffffffffffffffffffffffffffffffffc3601126101785735825260016020818152928290208054918101546002820154600390920154935160ff909316151583529382019390935273ffffffffffffffffffffffffffffffffffffffff928316604082015291166060820152608090f35b5082903461017c5760207ffffffffffffffffffffffffffffffffffffffffffffffffffffffffffffffffc36011261017c578235610a80611316565b670de0b6b3a764000090818111610b0257845491818655818103908111610ad6577fcdf0e2499be1cf2f4acff51a3c1b2e66af5d59c4d540bb5a36d9800d254a5c8094955060035582519182526020820152a180f35b6024856011887f4e487b7100000000000000000000000000000000000000000000000000000000835252fd5b846024918451917f59848735000000000000000000000000000000000000000000000000000000008352820152fd5b5091903461017c57817ffffffffffffffffffffffffffffffffffffffffffffffffffffffffffffffffc36011261017c5781549060ff821615610c7557507fffffffffffffffffffffffffffffffffffffffffffffffffffffffffffffff008091168255818091600254610ba56002611236565b83905b828210610c37575050907fe29bc683c6472cac8ea38dbefc8cf71cf2e047d9cf51d0044f070025c1fc9d266080600193885190815273ffffffffffffffffffffffffffffffffffffffff7f00000000000000000000000000000000000000000000000000000000000000001660208201528789820152866060820152a182541617905582519182526020820152f35b909495600190610c6973ffffffffffffffffffffffffffffffffffffffff8a610c608a876112dc565b51015116610feb565b91019701950190610ba8565b83517f37ed32e8000000000000000000000000000000000000000000000000000000008152fd5b83823461017c57817ffffffffffffffffffffffffffffffffffffffffffffffffffffffffffffffffc36011261017c576020905173ffffffffffffffffffffffffffffffffffffffff7f0000000000000000000000000000000000000000000000000000000000000000168152f35b83823461017c57817ffffffffffffffffffffffffffffffffffffffffffffffffffffffffffffffffc36011261017c576020906002549051908152f35b5091903461017c5760207ffffffffffffffffffffffffffffffffffffffffffffffffffffffffffffffffc36011261017c57359060025482101561097a5750610d92906002610f30565b50805460018201546002830154600390930154935160ff90921615158252602082015273ffffffffffffffffffffffffffffffffffffffff918216604082015291166060820152608090f35b929390503461097a5760207ffffffffffffffffffffffffffffffffffffffffffffffffffffffffffffffffc36011261097a5780549260ff841615610f0957506020937fffffffffffffffffffffffffffffffffffffffffffffffffffffffffffffff00809416825535815260018452600173ffffffffffffffffffffffffffffffffffffffff9384600385852001541694610e7a308761144b565b9586610ed9575b7fb39a15ac1082534c5f6687437f0fd4ba55c34a96fd7231c683045c7d9f7bd115888751938985527f00000000000000000000000000000000000000000000000000000000000000001693a382541617905551908152f35b610f04877f000000000000000000000000000000000000000000000000000000000000000083611408565b610e81565b807f37ed32e800000000000000000000000000000000000000000000000000000000869252fd5b8054821015610f4c5760005260206000209060021b0190600090565b7f4e487b7100000000000000000000000000000000000000000000000000000000600052603260045260246000fd5b90601f7fffffffffffffffffffffffffffffffffffffffffffffffffffffffffffffffe0910116810190811067ffffffffffffffff821117610fbc57604052565b7f4e487b7100000000000000000000000000000000000000000000000000000000600052604160045260246000fd5b90610ff6308361144b565b90600454807fffffffffffffffffffffffffffffffffffffffffffffffffffffffffffffffff048311810261122857670de0b6b3a7640000908302048083038381116111f957809473ffffffffffffffffffffffffffffffffffffffff92838216916040517fba0876520000000000000000000000000000000000000000000000000000000081528260048201523060248201523060448201526020816064816000885af19283156111ed5785916000946111b7575b50839803611185575b505080611135575b60405192835260208301527fade3bf209346b6d1156694638e3b8e94ecfddd117c76c53c26ea59898129a1c56040847f000000000000000000000000000000000000000000000000000000000000000016947f00000000000000000000000000000000000000000000000000000000000000001693a4565b611180817f00000000000000000000000000000000000000000000000000000000000000007f0000000000000000000000000000000000000000000000000000000000000000611408565b6110bd565b6111b0917f000000000000000000000000000000000000000000000000000000000000000090611408565b38836110b5565b9150926020823d82116111e5575b816111d260209383610f7b565b8101031261097a575084905192386110ac565b3d91506111c5565b6040513d6000823e3d90fd5b7f4e487b7100000000000000000000000000000000000000000000000000000000600052601160045260246000fd5b63bac65e5b6000526004601cfd5b90815467ffffffffffffffff8111610fbc57604092835193602090611260828560051b0187610f7b565b8386526000928352818320908287015b85851061127f57505050505050565b6004846001928451611292608082610f7b565b60ff87541615158152848701548382015273ffffffffffffffffffffffffffffffffffffffff80600289015416878301526003880154166060820152815201930194019391611270565b8051821015610f4c5760209160051b010190565b519073ffffffffffffffffffffffffffffffffffffffff8216820361131157565b600080fd5b6040517ff851a44000000000000000000000000000000000000000000000000000000000815273ffffffffffffffffffffffffffffffffffffffff90602081600481857f0000000000000000000000000000000000000000000000000000000000000000165afa9081156111ed576000916113cf575b50168033036113985750565b604490604051907f30a76f5f0000000000000000000000000000000000000000000000000000000082526004820152336024820152fd5b906020823d8211611400575b816113e860209383610f7b565b8101031261097a57506113fa906112f0565b3861138c565b3d91506113db565b601692602092601a52603a52604460009384809369a9059cbb00000000000082525af13d15600183511417161561143e57603a52565b6390b8ec1890526004601cfd5b6024601c6020939284936370a0823160005284525afa601f3d1116602051029056fea164736f6c6343000811000a",
  "linkReferences": {},
  "deployedLinkReferences": {}
}