{
  "_format": "hh-sol-artifact-1",
  "contractName": "CygnusDAOReserves",
  "sourceName": "contracts/cygnus-token/CygnusDAOReserves.sol",
  "abi": [
    {
      "inputs": [
        {
          "internalType": "contract IHangar18",
          "name": "_hangar18",
          "type": "address"
        }
      ],
      "stateMutability": "nonpayable",
      "type": "constructor"
    },
    {
      "inputs": [
        {
          "internalType": "uint256",
          "name": "time",
          "type": "uint256"
        },
        {
          "internalType": "uint256",
          "name": "claimAt",
          "type": "uint256"
        }
      ],
      "name": "CygnusDAOReserves__CantClaimCygYet",
      "type": "error"
    },
    {
      "inputs": [],
      "name": "CygnusDAOReserves__CantRedeemAddressZero",
      "type": "error"
    },
    {
      "inputs": [
        {
          "internalType": "address",
          "name": "admin",
          "type": "address"
        },
        {
          "internalType": "address",
          "name": "sender",
          "type": "address"
        }
      ],
      "name": "CygnusDAOReserves__MsgSenderNotAdmin",
      "type": "error"
    },
    {
      "inputs": [],
      "name": "CygnusDAOReserves__MsgSenderNotHangar",
      "type": "error"
    },
    {
      "inputs": [
        {
          "internalType": "uint256",
          "name": "amount",
          "type": "uint256"
        },
        {
          "internalType": "uint256",
          "name": "balance",
          "type": "uint256"
        }
      ],
      "name": "CygnusDAOReserves__NotEnoughCyg",
      "type": "error"
    },
    {
      "inputs": [],
      "name": "CygnusDAOReserves__SafeCantBeZero",
      "type": "error"
    },
    {
      "inputs": [
        {
          "internalType": "uint256",
          "name": "shuttleId",
          "type": "uint256"
        }
      ],
      "name": "CygnusDAOReserves__ShuttleAlreadyInitialized",
      "type": "error"
    },
    {
      "inputs": [
        {
          "internalType": "uint256",
          "name": "shuttleId",
          "type": "uint256"
        }
      ],
      "name": "CygnusDAOReserves__ShuttleDoesntExist",
      "type": "error"
    },
    {
      "inputs": [
        {
          "internalType": "uint256",
          "name": "weight",
          "type": "uint256"
        }
      ],
      "name": "CygnusDAOReserves__WeightNotAllowed",
      "type": "error"
    },
    {
      "inputs": [],
      "name": "CygnusDAOReserves__X1VaultCantBeZero",
      "type": "error"
    },
    {
      "inputs": [],
      "name": "ReentrantCall",
      "type": "error"
    },
    {
      "anonymous": false,
      "inputs": [
        {
          "indexed": false,
          "internalType": "uint256",
          "name": "amount",
          "type": "uint256"
        },
        {
          "indexed": false,
          "internalType": "address",
          "name": "to",
          "type": "address"
        }
      ],
      "name": "ClaimCygToken",
      "type": "event"
    },
    {
      "anonymous": false,
      "inputs": [
        {
          "indexed": false,
          "internalType": "address",
          "name": "token",
          "type": "address"
        }
      ],
      "name": "CygTokenAdded",
      "type": "event"
    },
    {
      "anonymous": false,
      "inputs": [
        {
          "indexed": true,
          "internalType": "address",
          "name": "vaultToken",
          "type": "address"
        },
        {
          "indexed": true,
          "internalType": "address",
          "name": "positions",
          "type": "address"
        },
        {
          "indexed": false,
          "internalType": "uint256",
          "name": "shares",
          "type": "uint256"
        }
      ],
      "name": "FundDAOReserves",
      "type": "event"
    },
    {
      "anonymous": false,
      "inputs": [
        {
          "indexed": false,
          "internalType": "uint256",
          "name": "totalShuttles",
          "type": "uint256"
        },
        {
          "indexed": false,
          "internalType": "address",
          "name": "positions",
          "type": "address"
        },
        {
          "indexed": false,
          "internalType": "uint256",
          "name": "shares",
          "type": "uint256"
        }
      ],
      "name": "FundDAOReservesAll",
      "type": "event"
    },
    {
      "anonymous": false,
      "inputs": [
        {
          "indexed": true,
          "internalType": "address",
          "name": "vaultToken",
          "type": "address"
        },
        {
          "indexed": true,
          "internalType": "address",
          "name": "positions",
          "type": "address"
        },
        {
          "indexed": true,
          "internalType": "address",
          "name": "vault",
          "type": "address"
        },
        {
          "indexed": false,
          "internalType": "uint256",
          "name": "shares",
          "type": "uint256"
        },
        {
          "indexed": false,
          "internalType": "uint256",
          "name": "assets",
          "type": "uint256"
        }
      ],
      "name": "FundX1Vault",
      "type": "event"
    },
    {
      "anonymous": false,
      "inputs": [
        {
          "indexed": false,
          "internalType": "uint256",
          "name": "totalShuttles",
          "type": "uint256"
        },
        {
          "indexed": false,
          "internalType": "address",
          "name": "vault",
          "type": "address"
        },
        {
          "indexed": false,
          "internalType": "uint256",
          "name": "shares",
          "type": "uint256"
        },
        {
          "indexed": false,
          "internalType": "uint256",
          "name": "assets",
          "type": "uint256"
        }
      ],
      "name": "FundX1VaultAll",
      "type": "event"
    },
    {
      "anonymous": false,
      "inputs": [
        {
          "indexed": false,
          "internalType": "address",
          "name": "oldSafe",
          "type": "address"
        },
        {
          "indexed": false,
          "internalType": "address",
          "name": "newSafe",
          "type": "address"
        }
      ],
      "name": "NewDAOSafe",
      "type": "event"
    },
    {
      "anonymous": false,
      "inputs": [
        {
          "components": [
            {
              "internalType": "bool",
              "name": "initialized",
              "type": "bool"
            },
            {
              "internalType": "uint256",
              "name": "shuttleId",
              "type": "uint256"
            },
            {
              "internalType": "address",
              "name": "borrowable",
              "type": "address"
            },
            {
              "internalType": "address",
              "name": "collateral",
              "type": "address"
            }
          ],
          "indexed": false,
          "internalType": "struct ICygnusDAOReserves.Shuttle",
          "name": "shuttle",
          "type": "tuple"
        }
      ],
      "name": "NewShuttleAdded",
      "type": "event"
    },
    {
      "anonymous": false,
      "inputs": [
        {
          "indexed": false,
          "internalType": "address",
          "name": "oldVault",
          "type": "address"
        },
        {
          "indexed": false,
          "internalType": "address",
          "name": "newVault",
          "type": "address"
        }
      ],
      "name": "NewX1Vault",
      "type": "event"
    },
    {
      "anonymous": false,
      "inputs": [
        {
          "indexed": false,
          "internalType": "uint256",
          "name": "oldWeight",
          "type": "uint256"
        },
        {
          "indexed": false,
          "internalType": "uint256",
          "name": "newWeight",
          "type": "uint256"
        }
      ],
      "name": "NewX1VaultWeight",
      "type": "event"
    },
    {
      "anonymous": false,
      "inputs": [
        {
          "indexed": false,
          "internalType": "address",
          "name": "token",
          "type": "address"
        },
        {
          "indexed": false,
          "internalType": "uint256",
          "name": "balance",
          "type": "uint256"
        }
      ],
      "name": "SweepToken",
      "type": "event"
    },
    {
      "anonymous": false,
      "inputs": [
        {
          "indexed": false,
          "internalType": "bool",
          "name": "_privateBanker",
          "type": "bool"
        }
      ],
      "name": "SwitchPrivateBanker",
      "type": "event"
    },
    {
      "stateMutability": "payable",
      "type": "fallback"
    },
    {
      "inputs": [
        {
          "internalType": "uint256",
          "name": "shuttleId",
          "type": "uint256"
        },
        {
          "internalType": "address",
          "name": "borrowable",
          "type": "address"
        },
        {
          "internalType": "address",
          "name": "collateral",
          "type": "address"
        }
      ],
      "name": "addShuttle",
      "outputs": [],
      "stateMutability": "nonpayable",
      "type": "function"
    },
    {
      "inputs": [
        {
          "internalType": "uint256",
          "name": "",
          "type": "uint256"
        }
      ],
      "name": "allShuttles",
      "outputs": [
        {
          "internalType": "bool",
          "name": "initialized",
          "type": "bool"
        },
        {
          "internalType": "uint256",
          "name": "shuttleId",
          "type": "uint256"
        },
        {
          "internalType": "address",
          "name": "borrowable",
          "type": "address"
        },
        {
          "internalType": "address",
          "name": "collateral",
          "type": "address"
        }
      ],
      "stateMutability": "view",
      "type": "function"
    },
    {
      "inputs": [],
      "name": "allShuttlesLength",
      "outputs": [
        {
          "internalType": "uint256",
          "name": "",
          "type": "uint256"
        }
      ],
      "stateMutability": "view",
      "type": "function"
    },
    {
      "inputs": [
        {
          "internalType": "uint256",
          "name": "amount",
          "type": "uint256"
        },
        {
          "internalType": "address",
          "name": "to",
          "type": "address"
        }
      ],
      "name": "claimCygTokenDAO",
      "outputs": [],
      "stateMutability": "nonpayable",
      "type": "function"
    },
    {
      "inputs": [],
      "name": "cygToken",
      "outputs": [
        {
          "internalType": "address",
          "name": "",
          "type": "address"
        }
      ],
      "stateMutability": "view",
      "type": "function"
    },
    {
      "inputs": [],
      "name": "cygTokenBalance",
      "outputs": [
        {
          "internalType": "uint256",
          "name": "",
          "type": "uint256"
        }
      ],
      "stateMutability": "view",
      "type": "function"
    },
    {
      "inputs": [],
      "name": "cygnusDAOSafe",
      "outputs": [
        {
          "internalType": "address",
          "name": "",
          "type": "address"
        }
      ],
      "stateMutability": "view",
      "type": "function"
    },
    {
      "inputs": [],
      "name": "cygnusX1Vault",
      "outputs": [
        {
          "internalType": "address",
          "name": "",
          "type": "address"
        }
      ],
      "stateMutability": "view",
      "type": "function"
    },
    {
      "inputs": [],
      "name": "daoLock",
      "outputs": [
        {
          "internalType": "uint256",
          "name": "",
          "type": "uint256"
        }
      ],
      "stateMutability": "view",
      "type": "function"
    },
    {
      "inputs": [],
      "name": "daoWeight",
      "outputs": [
        {
          "internalType": "uint256",
          "name": "",
          "type": "uint256"
        }
      ],
      "stateMutability": "view",
      "type": "function"
    },
    {
      "inputs": [
        {
          "internalType": "uint256",
          "name": "shuttleId",
          "type": "uint256"
        }
      ],
      "name": "fundDAOPositionsCygLP",
      "outputs": [
        {
          "internalType": "uint256",
          "name": "daoShares",
          "type": "uint256"
        }
      ],
      "stateMutability": "nonpayable",
      "type": "function"
    },
    {
      "inputs": [],
      "name": "fundDAOPositionsCygLPAll",
      "outputs": [
        {
          "internalType": "uint256",
          "name": "daoShares",
          "type": "uint256"
        }
      ],
      "stateMutability": "nonpayable",
      "type": "function"
    },
    {
      "inputs": [
        {
          "internalType": "uint256",
          "name": "shuttleId",
          "type": "uint256"
        }
      ],
      "name": "fundX1VaultUSD",
      "outputs": [
        {
          "internalType": "uint256",
          "name": "daoShares",
          "type": "uint256"
        },
        {
          "internalType": "uint256",
          "name": "x1Assets",
          "type": "uint256"
        }
      ],
      "stateMutability": "nonpayable",
      "type": "function"
    },
    {
      "inputs": [],
      "name": "fundX1VaultUSDAll",
      "outputs": [
        {
          "internalType": "uint256",
          "name": "daoShares",
          "type": "uint256"
        },
        {
          "internalType": "uint256",
          "name": "x1Assets",
          "type": "uint256"
        }
      ],
      "stateMutability": "nonpayable",
      "type": "function"
    },
    {
      "inputs": [],
      "name": "hangar18",
      "outputs": [
        {
          "internalType": "contract IHangar18",
          "name": "",
          "type": "address"
        }
      ],
      "stateMutability": "view",
      "type": "function"
    },
    {
      "inputs": [],
      "name": "name",
      "outputs": [
        {
          "internalType": "string",
          "name": "",
          "type": "string"
        }
      ],
      "stateMutability": "view",
      "type": "function"
    },
    {
      "inputs": [],
      "name": "privateBanker",
      "outputs": [
        {
          "internalType": "bool",
          "name": "",
          "type": "bool"
        }
      ],
      "stateMutability": "view",
      "type": "function"
    },
    {
      "inputs": [
        {
          "internalType": "address",
          "name": "_token",
          "type": "address"
        }
      ],
      "name": "setCYGToken",
      "outputs": [],
      "stateMutability": "nonpayable",
      "type": "function"
    },
    {
      "inputs": [
        {
          "internalType": "address",
          "name": "_newSafe",
          "type": "address"
        }
      ],
      "name": "setCygnusDAOSafe",
      "outputs": [],
      "stateMutability": "nonpayable",
      "type": "function"
    },
    {
      "inputs": [
        {
          "internalType": "address",
          "name": "_x1Vault",
          "type": "address"
        }
      ],
      "name": "setCygnusX1Vault",
      "outputs": [],
      "stateMutability": "nonpayable",
      "type": "function"
    },
    {
      "inputs": [
        {
          "internalType": "uint256",
          "name": "weight",
          "type": "uint256"
        }
      ],
      "name": "setX1VaultWeight",
      "outputs": [],
      "stateMutability": "nonpayable",
      "type": "function"
    },
    {
      "inputs": [],
      "name": "sweepNative",
      "outputs": [],
      "stateMutability": "nonpayable",
      "type": "function"
    },
    {
      "inputs": [
        {
          "internalType": "address",
          "name": "token",
          "type": "address"
        }
      ],
      "name": "sweepToken",
      "outputs": [],
      "stateMutability": "nonpayable",
      "type": "function"
    },
    {
      "inputs": [],
      "name": "switchPrivateBanker",
      "outputs": [],
      "stateMutability": "nonpayable",
      "type": "function"
    },
    {
      "inputs": [],
      "name": "usd",
      "outputs": [
        {
          "internalType": "address",
          "name": "",
          "type": "address"
        }
      ],
      "stateMutability": "view",
      "type": "function"
    },
    {
      "inputs": [],
      "name": "x1VaultWeight",
      "outputs": [
        {
          "internalType": "uint256",
          "name": "",
          "type": "uint256"
        }
      ],
      "stateMutability": "view",
      "type": "function"
    },
    {
      "stateMutability": "payable",
      "type": "receive"
    }
  ],
  "bytecode": "0x60c08060405234620001ea578062001ca78038038091620000218285620001ef565b8339602092839181010312620001ea57516001600160a01b038082169291838103620001ea5760019360ff19916000958084885416178755600254938185811c95168015620001df575b87861014620001cb579086939291601f86116200019c575b6004955060287f4379676e75733a2044414f20526573657276657300000000000000000000000001600255600954161760095560a0526040519283809263d63a6ccd60e01b82525afa9283156200019157849362000149575b505050608052670de0b6b3a7640000600655806005556276a700420190814211620001355750600855604051611a7d90816200022a823960805181610249015260a05181818161019601528181610953015261152a0152f35b634e487b7160e01b81526011600452602490fd5b9080929350813d831162000189575b620001648183620001ef565b8101031262000185575190811681036200018157388080620000dc565b5080fd5b8280fd5b503d62000158565b6040513d86823e3d90fd5b60028952601f858a20960160051c8601955b868110620001bd575062000083565b8981558895508201620001ae565b634e487b7160e01b88526022600452602488fd5b94607f16946200006b565b600080fd5b601f909101601f19168101906001600160401b038211908210176200021357604052565b634e487b7160e01b600052604160045260246000fdfe608060408181526004918236101561001f575b505050361561001d57005b005b600092833560e01c91826306fdde031461127457508163088906101461116c57816316dc4de6146110575781631ad4c8c314610fc55781631be1956014610f65578163326749d814610e39578163412b6d6314610de657816346866de314610d4d57816346bfbc5a14610cea5781634f4addd114610cad5781634f57368614610c5a5781636f6626f314610c1d578163728bba3314610b1257816378d837ca146108ed5781637aa724731461078a5781637ccf374b1461069c5781638f6c58e41461065f5781639bbbbb0214610536578163ab803a76146104ad578163b2f041ee14610470578163b7cd5cb41461031f578163be364cd1146102c2578163c73ef9e81461026d57508063d63a6ccd146101ff578063e58fb2ee146101be5763e8a24e1d1461014d5780610012565b346101ba57817ffffffffffffffffffffffffffffffffffffffffffffffffffffffffffffffffc3601126101ba576020905173ffffffffffffffffffffffffffffffffffffffff7f0000000000000000000000000000000000000000000000000000000000000000168152f35b5080fd5b50346101ba57817ffffffffffffffffffffffffffffffffffffffffffffffffffffffffffffffffc3601126101ba5760209060ff6009541690519015158152f35b50346101ba57817ffffffffffffffffffffffffffffffffffffffffffffffffffffffffffffffffc3601126101ba576020905173ffffffffffffffffffffffffffffffffffffffff7f0000000000000000000000000000000000000000000000000000000000000000168152f35b8284346102bf57807ffffffffffffffffffffffffffffffffffffffffffffffffffffffffffffffffc3601126102bf575073ffffffffffffffffffffffffffffffffffffffff60209254169051908152f35b80fd5b5050346101ba57817ffffffffffffffffffffffffffffffffffffffffffffffffffffffffffffffffc3601126101ba5760209061031873ffffffffffffffffffffffffffffffffffffffff600754163090611a4e565b9051908152f35b8383346101ba57817ffffffffffffffffffffffffffffffffffffffffffffffffffffffffffffffffc3601126101ba5781549260ff84161561044957507fffffffffffffffffffffffffffffffffffffffffffffffffffffffffffffff0080931682558160ff6009541661043c575b600180549461039c82611806565b83905b8782106104025750507f108a965b373d0981109fedaf413102492c0a2af803f7eaa69b7437399751db79606060209773ffffffffffffffffffffffffffffffffffffffff600354168751918252898201528787820152a182541617905551908152f35b9095839061043373ffffffffffffffffffffffffffffffffffffffff606061042a8b876118ac565b510151166118c0565b0196019061039f565b6104446114e5565b61038e565b90517f37ed32e8000000000000000000000000000000000000000000000000000000008152fd5b5050346101ba57817ffffffffffffffffffffffffffffffffffffffffffffffffffffffffffffffffc3601126101ba576020906005549051908152f35b8383346101ba57817ffffffffffffffffffffffffffffffffffffffffffffffffffffffffffffffffc3601126101ba576104e56114e5565b478061051e575b907ff4a44a7f605c4971a27bcecb448108e6328b7fad34fab5bff4f69377294b826d918151908482526020820152a180f35b8280808084335af16104ec578363b12d13eb8452601cfd5b90503461065b5760207ffffffffffffffffffffffffffffffffffffffffffffffffffffffffffffffffc36011261065b5782549260ff841615610633576001600293947fffffffffffffffffffffffffffffffffffffffffffffffffffffffffffffff00809116835560ff60095416610626575b6105b584358361149a565b5073ffffffffffffffffffffffffffffffffffffffff9586910154166105da816115fd565b9590968060035416915416917fade3bf209346b6d1156694638e3b8e94ecfddd117c76c53c26ea59898129a1c58980518a8152896020820152a482541617905582519182526020820152f35b61062e6114e5565b6105aa565b5090517f37ed32e8000000000000000000000000000000000000000000000000000000008152fd5b8280fd5b5050346101ba57817ffffffffffffffffffffffffffffffffffffffffffffffffffffffffffffffffc3601126101ba576020906006549051908152f35b8383346101ba5760207ffffffffffffffffffffffffffffffffffffffffffffffffffffffffffffffffc3601126101ba5782356106d76114e5565b670de0b6b3a76400009081811161075b57600654918160065581810390811161072f577fcdf0e2499be1cf2f4acff51a3c1b2e66af5d59c4d540bb5a36d9800d254a5c8094955060055582519182526020820152a180f35b6024856011887f4e487b7100000000000000000000000000000000000000000000000000000000835252fd5b846024918451917f59848735000000000000000000000000000000000000000000000000000000008352820152fd5b905082346102bf57807ffffffffffffffffffffffffffffffffffffffffffffffffffffffffffffffffc3601126102bf5780549060ff8216156108c5577fffffffffffffffffffffffffffffffffffffffffffffffffffffffffffffff0080921681558092819260ff600954166108b8575b60019182549061080b84611806565b85905b83821061087b5750507fe29bc683c6472cac8ea38dbefc8cf71cf2e047d9cf51d0044f070025c1fc9d269173ffffffffffffffffffffffffffffffffffffffff6080925416895191825260208201528789820152866060820152a182541617905582519182526020820152f35b90969785906108ac73ffffffffffffffffffffffffffffffffffffffff8c6108a38c876118ac565b510151166115fd565b9101990197019061080e565b6108c06114e5565b6107fc565b8284517f37ed32e8000000000000000000000000000000000000000000000000000000008152fd5b8383346101ba5760607ffffffffffffffffffffffffffffffffffffffffffffffffffffffffffffffffc3601126101ba576024359073ffffffffffffffffffffffffffffffffffffffff90818316809303610b0e5760443590828216809203610b0a57827f0000000000000000000000000000000000000000000000000000000000000000163303610ae25780519361098760808661142a565b60019485815260208101908835825283810192835260608101948552865468010000000000000000811015610ab65780886109c5920189558861149a565b919091610a8b5792869492608097927f93a552e45a0701b212caf117ace04723a5f4137663aaa23c07cdd9dc0db05a01999795511515977fffffffffffffffffffffffffffffffffffffffffffffffffffffffffffffff0082541660ff8a161782558251908201556003600282019185855116927fffffffffffffffffffffffff0000000000000000000000000000000000000000938482541617905501908487511690825416179055835196875251602087015251169084015251166060820152a180f35b602489808c7f4e487b7100000000000000000000000000000000000000000000000000000000825252fd5b60248960418c7f4e487b7100000000000000000000000000000000000000000000000000000000835252fd5b8590517fbe7ab223000000000000000000000000000000000000000000000000000000008152fd5b8480fd5b8380fd5b8383346101ba5760207ffffffffffffffffffffffffffffffffffffffffffffffffffffffffffffffffc3601126101ba5782359273ffffffffffffffffffffffffffffffffffffffff9182851691828603610b0a57610b6f6114e5565b8215610bf65750600380547fffffffffffffffffffffffff0000000000000000000000000000000000000000811690931790555173ffffffffffffffffffffffffffffffffffffffff929091168216815292166020830152907f1ac7fff95e2a50ab5ec15d8cbfd2cf9ed10257cd022bbec16129e78496f7feba9080604081015b0390a180f35b90517f9e39ee29000000000000000000000000000000000000000000000000000000008152fd5b5050346101ba57817ffffffffffffffffffffffffffffffffffffffffffffffffffffffffffffffffc3601126101ba576020906008549051908152f35b5050346101ba57817ffffffffffffffffffffffffffffffffffffffffffffffffffffffffffffffffc3601126101ba5760209073ffffffffffffffffffffffffffffffffffffffff600754169051908152f35b5050346101ba57817ffffffffffffffffffffffffffffffffffffffffffffffffffffffffffffffffc3601126101ba576020906001549051908152f35b8390346101ba5760207ffffffffffffffffffffffffffffffffffffffffffffffffffffffffffffffffc3601126101ba573573ffffffffffffffffffffffffffffffffffffffff811681036101ba57610d4a90610d456114e5565b6118f9565b80f35b5050346101ba57817ffffffffffffffffffffffffffffffffffffffffffffffffffffffffffffffffc3601126101ba5760207f42065481224f945b66d417f15b8a593ed2b49464f94fd3071c345a483cd364b191610da96114e5565b6009549060ff821615917fffffffffffffffffffffffffffffffffffffffffffffffffffffffffffffff0060ff841691161760095551908152a180f35b5050346101ba57817ffffffffffffffffffffffffffffffffffffffffffffffffffffffffffffffffc3601126101ba5760209073ffffffffffffffffffffffffffffffffffffffff600354169051908152f35b8383346101ba57807ffffffffffffffffffffffffffffffffffffffffffffffffffffffffffffffffc3601126101ba5782356024359373ffffffffffffffffffffffffffffffffffffffff9081861691828703610f6157610e986114e5565b600854804210610f2b57506007541690610eb23083611a4e565b808511610ef6575050827fb4f44619fae7e18c058b157a3f2e33f47b66d0e2c42e2db2345371371735809b9596610ee892611a0b565b82519182526020820152a180f35b60449250848651927fd22a00510000000000000000000000000000000000000000000000000000000084528301526024820152fd5b826044918751917f6912df6a00000000000000000000000000000000000000000000000000000000835242908301526024820152fd5b8580fd5b8390346101ba5760207ffffffffffffffffffffffffffffffffffffffffffffffffffffffffffffffffc3601126101ba573573ffffffffffffffffffffffffffffffffffffffff811681036101ba57610d4a90610fc06114e5565b611978565b90503461065b5760207ffffffffffffffffffffffffffffffffffffffffffffffffffffffffffffffffc36011261065b5735916001548310156102bf5750611010608092600161149a565b509060ff8254169160018101549173ffffffffffffffffffffffffffffffffffffffff60038160028501541693015416928151941515855260208501528301526060820152f35b8284346102bf5760207ffffffffffffffffffffffffffffffffffffffffffffffffffffffffffffffffc3601126102bf57805460ff81161561114457906001600393926110d86020967fffffffffffffffffffffffffffffffffffffffffffffffffffffffffffffff00809316855560ff60095416611137575b358361149a565b5073ffffffffffffffffffffffffffffffffffffffff9586910154166110fd816118c0565b9560035416907fb39a15ac1082534c5f6687437f0fd4ba55c34a96fd7231c683045c7d9f7bd115888751898152a382541617905551908152f35b61113f6114e5565b6110d1565b5050517f37ed32e8000000000000000000000000000000000000000000000000000000008152fd5b8383346101ba5760207ffffffffffffffffffffffffffffffffffffffffffffffffffffffffffffffffc3601126101ba5773ffffffffffffffffffffffffffffffffffffffff90833582811691828203610b0a576111c86114e5565b821561124c5785547fffffffffffffffffffffffff00000000000000000000000000000000000000008116909317909555935173ffffffffffffffffffffffffffffffffffffffff929091168216815292166020830152907fee536cbb080de2a8340fafaee947799b653dff18ad502b7f85dec917aa90dd88908060408101610bf0565b8590517f555681a5000000000000000000000000000000000000000000000000000000008152fd5b915092346102bf57807ffffffffffffffffffffffffffffffffffffffffffffffffffffffffffffffffc3601126102bf5780600254600181811c918181168015611420575b60209889851082146113f457509183918995938895865290816000146113b45750600114611358575b50506112f4925095939295038261142a565b82519382859384528251928382860152825b84811061134257505050828201840152601f017fffffffffffffffffffffffffffffffffffffffffffffffffffffffffffffffe0168101030190f35b8181018301518882018801528795508201611306565b600286527f405787fa12a823e0f2b7631cc41b3ba8828b3321ca811111fa75cd3aa3bb5ace9492508591905b81831061139c5750889450508201016112f4386112e2565b85548884018501529485019487945091830191611384565b90506112f49593507fffffffffffffffffffffffffffffffffffffffffffffffffffffffffffffff0091501682840152151560051b8201018692386112e2565b8660226024927f4e487b7100000000000000000000000000000000000000000000000000000000835252fd5b92607f16926112b9565b90601f7fffffffffffffffffffffffffffffffffffffffffffffffffffffffffffffffe0910116810190811067ffffffffffffffff82111761146b57604052565b7f4e487b7100000000000000000000000000000000000000000000000000000000600052604160045260246000fd5b80548210156114b65760005260206000209060021b0190600090565b7f4e487b7100000000000000000000000000000000000000000000000000000000600052603260045260246000fd5b6040517ff851a44000000000000000000000000000000000000000000000000000000000815273ffffffffffffffffffffffffffffffffffffffff90602081600481857f0000000000000000000000000000000000000000000000000000000000000000165afa9081156115f1576000916115b7575b5090811633036115685750565b6040517f30a76f5f00000000000000000000000000000000000000000000000000000000815273ffffffffffffffffffffffffffffffffffffffff919091166004820152336024820152604490fd5b6020813d82116115e9575b816115cf6020938361142a565b810103126101ba57519082821682036102bf57503861155b565b3d91506115c2565b6040513d6000823e3d90fd5b906000906000928373ffffffffffffffffffffffffffffffffffffffff918281169586156117dc57863b1561065b576040517ffff6cae90000000000000000000000000000000000000000000000000000000081528381600481838c5af180156117d1579084916117bf575b50506116753083611a4e565b600654807fffffffffffffffffffffffffffffffffffffffffffffffffffffffffffffffff04821181026117b257670de0b6b3a764000090820204918282039482861161178557508498836116e1575b5050036116d157505050565b6116df926003541690611a0b565b565b819298506020906064886004541660405194859384927fba08765200000000000000000000000000000000000000000000000000000000845289600485015260248401523060448401525af1918215611779578092611745575b50509538806116c5565b9091506020823d8211611771575b816117606020938361142a565b810103126102bf575051388061173b565b3d9150611753565b604051903d90823e3d90fd5b807f4e487b7100000000000000000000000000000000000000000000000000000000602492526011600452fd5b63bac65e5b83526004601cfd5b6117c9925061142a565b818238611669565b6040513d86823e3d90fd5b60046040517f5e2b2a53000000000000000000000000000000000000000000000000000000008152fd5b90815467ffffffffffffffff811161146b57604092835193602090611830828560051b018761142a565b8386526000928352818320908287015b85851061184f57505050505050565b600484600192845161186260808261142a565b60ff87541615158152848701548382015273ffffffffffffffffffffffffffffffffffffffff80600289015416878301526003880154166060820152815201930194019391611840565b80518210156114b65760209160051b010190565b906118cb3083611a4e565b9182806118d6575050565b6116df9173ffffffffffffffffffffffffffffffffffffffff6003541690611a0b565b6007549073ffffffffffffffffffffffffffffffffffffffff90818316611973577f9ef3a7e4c0fb35b248d2c9abf2c719f4c6167ce66b765d4c64e1e4aa1716bf35926020927fffffffffffffffffffffffff000000000000000000000000000000000000000092169182911617600755604051908152a1565b505050565b60075473ffffffffffffffffffffffffffffffffffffffff828116929116828114908115611a02575b506119fe577ff4a44a7f605c4971a27bcecb448108e6328b7fad34fab5bff4f69377294b826d916040916119d53082611a4e565b9081806119ec575b505082519182526020820152a1565b6119f7913390611a0b565b38816119dd565b5050565b905015386119a1565b601692602092601a52603a52604460009384809369a9059cbb00000000000082525af13d156001835114171615611a4157603a52565b6390b8ec1890526004601cfd5b6024601c6020939284936370a0823160005284525afa601f3d1116602051029056fea164736f6c6343000811000a",
  "linkReferences": {},
  "deployedLinkReferences": {}
}