{
  "_format": "hh-sol-artifact-1",
  "contractName": "CygnusDAOReserves",
  "sourceName": "contracts/cygnus-token/CygnusDAOReserves.sol",
  "abi": [
    {
      "inputs": [
        {
          "internalType": "contract IHangar18",
          "name": "_hangar18",
          "type": "address"
        },
        {
          "internalType": "address",
          "name": "_daoPositions",
          "type": "address"
        },
        {
          "internalType": "uint256",
          "name": "_weight",
          "type": "uint256"
        }
      ],
      "stateMutability": "nonpayable",
      "type": "constructor"
    },
    {
      "inputs": [
        {
          "internalType": "address",
          "name": "admin",
          "type": "address"
        },
        {
          "internalType": "address",
          "name": "sender",
          "type": "address"
        }
      ],
      "name": "CygnusDAOReserves__MsgSenderNotAdmin",
      "type": "error"
    },
    {
      "inputs": [
        {
          "internalType": "uint256",
          "name": "shuttleId",
          "type": "uint256"
        }
      ],
      "name": "CygnusDAOReserves__ShuttleAlreadyInitialized",
      "type": "error"
    },
    {
      "inputs": [
        {
          "internalType": "uint256",
          "name": "shuttleId",
          "type": "uint256"
        }
      ],
      "name": "CygnusDAOReserves__ShuttleDoesntExist",
      "type": "error"
    },
    {
      "inputs": [
        {
          "internalType": "uint256",
          "name": "weight",
          "type": "uint256"
        }
      ],
      "name": "CygnusDAOReserves__WeightNotAllowed",
      "type": "error"
    },
    {
      "inputs": [],
      "name": "ReentrantCall",
      "type": "error"
    },
    {
      "anonymous": false,
      "inputs": [
        {
          "indexed": true,
          "internalType": "address",
          "name": "vaultToken",
          "type": "address"
        },
        {
          "indexed": true,
          "internalType": "address",
          "name": "positions",
          "type": "address"
        },
        {
          "indexed": false,
          "internalType": "uint256",
          "name": "shares",
          "type": "uint256"
        }
      ],
      "name": "FundDAOReserves",
      "type": "event"
    },
    {
      "anonymous": false,
      "inputs": [
        {
          "indexed": false,
          "internalType": "uint256",
          "name": "totalShuttles",
          "type": "uint256"
        },
        {
          "indexed": false,
          "internalType": "address",
          "name": "positions",
          "type": "address"
        },
        {
          "indexed": false,
          "internalType": "uint256",
          "name": "shares",
          "type": "uint256"
        }
      ],
      "name": "FundDAOReservesAll",
      "type": "event"
    },
    {
      "anonymous": false,
      "inputs": [
        {
          "indexed": true,
          "internalType": "address",
          "name": "vaultToken",
          "type": "address"
        },
        {
          "indexed": true,
          "internalType": "address",
          "name": "positions",
          "type": "address"
        },
        {
          "indexed": true,
          "internalType": "address",
          "name": "vault",
          "type": "address"
        },
        {
          "indexed": false,
          "internalType": "uint256",
          "name": "shares",
          "type": "uint256"
        },
        {
          "indexed": false,
          "internalType": "uint256",
          "name": "assets",
          "type": "uint256"
        }
      ],
      "name": "FundX1Vault",
      "type": "event"
    },
    {
      "anonymous": false,
      "inputs": [
        {
          "indexed": false,
          "internalType": "uint256",
          "name": "totalShuttles",
          "type": "uint256"
        },
        {
          "indexed": false,
          "internalType": "address",
          "name": "vault",
          "type": "address"
        },
        {
          "indexed": false,
          "internalType": "uint256",
          "name": "shares",
          "type": "uint256"
        },
        {
          "indexed": false,
          "internalType": "uint256",
          "name": "assets",
          "type": "uint256"
        }
      ],
      "name": "FundX1VaultAll",
      "type": "event"
    },
    {
      "anonymous": false,
      "inputs": [
        {
          "components": [
            {
              "internalType": "bool",
              "name": "initialized",
              "type": "bool"
            },
            {
              "internalType": "uint256",
              "name": "shuttleId",
              "type": "uint256"
            },
            {
              "internalType": "address",
              "name": "borrowable",
              "type": "address"
            },
            {
              "internalType": "address",
              "name": "collateral",
              "type": "address"
            }
          ],
          "indexed": false,
          "internalType": "struct ICygnusDAOReserves.Shuttle",
          "name": "shuttle",
          "type": "tuple"
        }
      ],
      "name": "NewShuttleAdded",
      "type": "event"
    },
    {
      "anonymous": false,
      "inputs": [
        {
          "indexed": false,
          "internalType": "uint256",
          "name": "oldWeight",
          "type": "uint256"
        },
        {
          "indexed": false,
          "internalType": "uint256",
          "name": "newWeight",
          "type": "uint256"
        }
      ],
      "name": "NewX1VaultWeight",
      "type": "event"
    },
    {
      "inputs": [
        {
          "internalType": "uint256",
          "name": "shuttleId",
          "type": "uint256"
        }
      ],
      "name": "addShuttle",
      "outputs": [],
      "stateMutability": "nonpayable",
      "type": "function"
    },
    {
      "inputs": [
        {
          "internalType": "uint256",
          "name": "",
          "type": "uint256"
        }
      ],
      "name": "allShuttles",
      "outputs": [
        {
          "internalType": "bool",
          "name": "initialized",
          "type": "bool"
        },
        {
          "internalType": "uint256",
          "name": "shuttleId",
          "type": "uint256"
        },
        {
          "internalType": "address",
          "name": "borrowable",
          "type": "address"
        },
        {
          "internalType": "address",
          "name": "collateral",
          "type": "address"
        }
      ],
      "stateMutability": "view",
      "type": "function"
    },
    {
      "inputs": [],
      "name": "allShuttlesLength",
      "outputs": [
        {
          "internalType": "uint256",
          "name": "",
          "type": "uint256"
        }
      ],
      "stateMutability": "view",
      "type": "function"
    },
    {
      "inputs": [],
      "name": "cygnusX1Vault",
      "outputs": [
        {
          "internalType": "address",
          "name": "",
          "type": "address"
        }
      ],
      "stateMutability": "view",
      "type": "function"
    },
    {
      "inputs": [],
      "name": "daoReserves",
      "outputs": [
        {
          "internalType": "address",
          "name": "",
          "type": "address"
        }
      ],
      "stateMutability": "view",
      "type": "function"
    },
    {
      "inputs": [],
      "name": "daoWeight",
      "outputs": [
        {
          "internalType": "uint256",
          "name": "",
          "type": "uint256"
        }
      ],
      "stateMutability": "view",
      "type": "function"
    },
    {
      "inputs": [
        {
          "internalType": "uint256",
          "name": "shuttleId",
          "type": "uint256"
        }
      ],
      "name": "fundDAOPositionsCygLP",
      "outputs": [
        {
          "internalType": "uint256",
          "name": "shares",
          "type": "uint256"
        }
      ],
      "stateMutability": "nonpayable",
      "type": "function"
    },
    {
      "inputs": [],
      "name": "fundDAOPositionsCygLPAll",
      "outputs": [
        {
          "internalType": "uint256",
          "name": "shares",
          "type": "uint256"
        }
      ],
      "stateMutability": "nonpayable",
      "type": "function"
    },
    {
      "inputs": [
        {
          "internalType": "uint256",
          "name": "shuttleId",
          "type": "uint256"
        }
      ],
      "name": "fundX1VaultUSD",
      "outputs": [
        {
          "internalType": "uint256",
          "name": "shares",
          "type": "uint256"
        },
        {
          "internalType": "uint256",
          "name": "assets",
          "type": "uint256"
        }
      ],
      "stateMutability": "nonpayable",
      "type": "function"
    },
    {
      "inputs": [],
      "name": "fundX1VaultUSDAll",
      "outputs": [
        {
          "internalType": "uint256",
          "name": "shares",
          "type": "uint256"
        },
        {
          "internalType": "uint256",
          "name": "assets",
          "type": "uint256"
        }
      ],
      "stateMutability": "nonpayable",
      "type": "function"
    },
    {
      "inputs": [
        {
          "internalType": "uint256",
          "name": "",
          "type": "uint256"
        }
      ],
      "name": "getShuttle",
      "outputs": [
        {
          "internalType": "bool",
          "name": "initialized",
          "type": "bool"
        },
        {
          "internalType": "uint256",
          "name": "shuttleId",
          "type": "uint256"
        },
        {
          "internalType": "address",
          "name": "borrowable",
          "type": "address"
        },
        {
          "internalType": "address",
          "name": "collateral",
          "type": "address"
        }
      ],
      "stateMutability": "view",
      "type": "function"
    },
    {
      "inputs": [],
      "name": "hangar18",
      "outputs": [
        {
          "internalType": "contract IHangar18",
          "name": "",
          "type": "address"
        }
      ],
      "stateMutability": "view",
      "type": "function"
    },
    {
      "inputs": [
        {
          "internalType": "uint256",
          "name": "weight",
          "type": "uint256"
        }
      ],
      "name": "setX1VaultWeight",
      "outputs": [],
      "stateMutability": "nonpayable",
      "type": "function"
    },
    {
      "inputs": [],
      "name": "usd",
      "outputs": [
        {
          "internalType": "address",
          "name": "",
          "type": "address"
        }
      ],
      "stateMutability": "view",
      "type": "function"
    },
    {
      "inputs": [],
      "name": "x1VaultWeight",
      "outputs": [
        {
          "internalType": "uint256",
          "name": "",
          "type": "uint256"
        }
      ],
      "stateMutability": "view",
      "type": "function"
    }
  ],
  "bytecode": "0x610100604090808252346200022f576060816200163d803803809162000026828562000234565b8339810103126200022f578051906001600160a01b0382168083036200022f57602084620000568285016200026e565b93015191600093600160ff19865416178555670de0b6b3a764000095868511620002175760805260c05285516318e7df3d60e31b81528281600481855afa9081156200020d579083918691620001c7575b5060e052865163d63a6ccd60e01b815291829060049082905afa918215620001bd5784926200017b575b505060a052806004558203918211620001675750600355516113b9908162000284823960805181818161011301528181610487015261128e015260a05181610185015260c0518181816102d90152818161035d01528181610c3201528181610df401528181610e28015281816110050152611031015260e0518181816101f301528181610b3f01528181610fe101526110a90152f35b634e487b7160e01b81526011600452602490fd5b90809250813d8311620001b5575b62000195818362000234565b81010312620001b157620001a9906200026e565b3880620000d1565b8280fd5b503d62000189565b86513d86823e3d90fd5b82819392503d831162000205575b620001e1818362000234565b810103126200020157600491620001f984926200026e565b9092620000a7565b8480fd5b503d620001d5565b87513d87823e3d90fd5b8751635984873560e01b815260048101869052602490fd5b600080fd5b601f909101601f19168101906001600160401b038211908210176200025857604052565b634e487b7160e01b600052604160045260246000fd5b51906001600160a01b03821682036200022f5756fe608060408181526004918236101561001657600080fd5b600092833560e01c91826316dc4de614610d29575081631ad4c8c314610c935781634f4addd114610c565781635b068af814610be75781637aa7247314610a7c5781637ccf374b146109905781638840cc1d146109055781638f6c58e4146108c95781639bbbbb02146107f6578163ada58d43146103ed578163b2f041ee146103b0578163b7cd5cb41461021757508063c73ef9e8146101a9578063d63a6ccd1461013b5763e8a24e1d146100ca57600080fd5b3461013757817ffffffffffffffffffffffffffffffffffffffffffffffffffffffffffffffffc360112610137576020905173ffffffffffffffffffffffffffffffffffffffff7f0000000000000000000000000000000000000000000000000000000000000000168152f35b5080fd5b503461013757817ffffffffffffffffffffffffffffffffffffffffffffffffffffffffffffffffc360112610137576020905173ffffffffffffffffffffffffffffffffffffffff7f0000000000000000000000000000000000000000000000000000000000000000168152f35b503461013757817ffffffffffffffffffffffffffffffffffffffffffffffffffffffffffffffffc360112610137576020905173ffffffffffffffffffffffffffffffffffffffff7f0000000000000000000000000000000000000000000000000000000000000000168152f35b83833461013757817ffffffffffffffffffffffffffffffffffffffffffffffffffffffffffffffffc3601126101375781549260ff84161561038957507fffffffffffffffffffffffffffffffffffffffffffffffffffffffffffffff008093168255816002546102886002611169565b82905b82821061030f5750506020947f108a965b373d0981109fedaf413102492c0a2af803f7eaa69b7437399751db796060600193865190815273ffffffffffffffffffffffffffffffffffffffff7f000000000000000000000000000000000000000000000000000000000000000016898201528787820152a182541617905551908152f35b909460019073ffffffffffffffffffffffffffffffffffffffff6060610335898661120f565b5101511690610344308361138a565b918280610357575b50500195019061028b565b610382917f000000000000000000000000000000000000000000000000000000000000000090611347565b898261034c565b90517f37ed32e8000000000000000000000000000000000000000000000000000000008152fd5b50503461013757817ffffffffffffffffffffffffffffffffffffffffffffffffffffffffffffffffc360112610137576020906003549051908152f35b83833461013757602090817ffffffffffffffffffffffffffffffffffffffffffffffffffffffffffffffffc3601126107f25783359161042b611249565b8284526001815260ff82852054166107c3578151917f1ad4c8c3000000000000000000000000000000000000000000000000000000008352838684015273ffffffffffffffffffffffffffffffffffffffff9260a081602481877f0000000000000000000000000000000000000000000000000000000000000000165afa9283156107b9578687928895610723575b50156106f4578251956104ce608088610ec4565b6001875281870190808252868589019416845286606089019616865288526001825261058e87858a208151151560ff7fffffffffffffffffffffffffffffffffffffffffffffffffffffffffffffff0083541691161781556020820151600182015560028101906060600373ffffffffffffffffffffffffffffffffffffffff9283604087015116947fffffffffffffffffffffffff00000000000000000000000000000000000000009586825416179055019301511690825416179055565b600254680100000000000000008110156106c8578060016105b492016002556002610e79565b61069d57928694926080979261067f8a7f93a552e45a0701b212caf117ace04723a5f4137663aaa23c07cdd9dc0db05a019b99978151151560ff7fffffffffffffffffffffffffffffffffffffffffffffffffffffffffffffff0083541691161781556020820151600182015560028101906060600373ffffffffffffffffffffffffffffffffffffffff9283604087015116947fffffffffffffffffffffffff00000000000000000000000000000000000000009586825416179055019301511690825416179055565b8451975115158852519087015251169084015251166060820152a180f35b602489808c7f4e487b7100000000000000000000000000000000000000000000000000000000825252fd5b60248960418c7f4e487b7100000000000000000000000000000000000000000000000000000000835252fd5b602488878551917f6a5f6b7c000000000000000000000000000000000000000000000000000000008352820152fd5b925050925060a0813d82116107b1575b8161074060a09383610ec4565b810103126107ad5780519283151584036107a957808201516affffffffffffffffffffff8116036107a957610776838301611223565b93608061078560608501611223565b9301516bffffffffffffffffffffffff8116036107a557939193896104ba565b8780fd5b8680fd5b8580fd5b3d9150610733565b82513d88823e3d90fd5b602485848451917fde9c1a69000000000000000000000000000000000000000000000000000000008352820152fd5b8280fd5b8284346108c65760207ffffffffffffffffffffffffffffffffffffffffffffffffffffffffffffffffc3601126108c65780549060ff82161561089e57600190847fffffffffffffffffffffffffffffffffffffffffffffffffffffffffffffff0080941682553581528160205261088973ffffffffffffffffffffffffffffffffffffffff6002868420015416610f34565b92909382541617905582519182526020820152f35b5050517f37ed32e8000000000000000000000000000000000000000000000000000000008152fd5b80fd5b9050346107f257827ffffffffffffffffffffffffffffffffffffffffffffffffffffffffffffffffc3601126107f25760209250549051908152f35b9050346107f25760207ffffffffffffffffffffffffffffffffffffffffffffffffffffffffffffffffc3601126107f25735825260016020818152928290208054918101546002820154600390920154935160ff909316151583529382019390935273ffffffffffffffffffffffffffffffffffffffff928316604082015291166060820152608090f35b8383346101375760207ffffffffffffffffffffffffffffffffffffffffffffffffffffffffffffffffc3601126101375782356109cb611249565b670de0b6b3a764000090818111610a4d57845491818655818103908111610a21577fcdf0e2499be1cf2f4acff51a3c1b2e66af5d59c4d540bb5a36d9800d254a5c8094955060035582519182526020820152a180f35b6024856011887f4e487b7100000000000000000000000000000000000000000000000000000000835252fd5b846024918451917f59848735000000000000000000000000000000000000000000000000000000008352820152fd5b8391503461013757817ffffffffffffffffffffffffffffffffffffffffffffffffffffffffffffffffc3601126101375781549060ff821615610bc057507fffffffffffffffffffffffffffffffffffffffffffffffffffffffffffffff008091168255818091600254610af06002611169565b83905b828210610b82575050907fe29bc683c6472cac8ea38dbefc8cf71cf2e047d9cf51d0044f070025c1fc9d266080600193885190815273ffffffffffffffffffffffffffffffffffffffff7f00000000000000000000000000000000000000000000000000000000000000001660208201528789820152866060820152a182541617905582519182526020820152f35b909495600190610bb473ffffffffffffffffffffffffffffffffffffffff8a610bab8a8761120f565b51015116610f34565b91019701950190610af3565b83517f37ed32e8000000000000000000000000000000000000000000000000000000008152fd5b50503461013757817ffffffffffffffffffffffffffffffffffffffffffffffffffffffffffffffffc360112610137576020905173ffffffffffffffffffffffffffffffffffffffff7f0000000000000000000000000000000000000000000000000000000000000000168152f35b50503461013757817ffffffffffffffffffffffffffffffffffffffffffffffffffffffffffffffffc360112610137576020906002549051908152f35b839150346101375760207ffffffffffffffffffffffffffffffffffffffffffffffffffffffffffffffffc3601126101375735906002548210156108c65750610cdd906002610e79565b50805460018201546002830154600390930154935160ff90921615158252602082015273ffffffffffffffffffffffffffffffffffffffff918216604082015291166060820152608090f35b8385346108c65760207ffffffffffffffffffffffffffffffffffffffffffffffffffffffffffffffffc3601126108c65780549260ff841615610e5257506020937fffffffffffffffffffffffffffffffffffffffffffffffffffffffffffffff00809416825535815260018452600173ffffffffffffffffffffffffffffffffffffffff9384600385852001541694610dc3308761138a565b9586610e22575b7fb39a15ac1082534c5f6687437f0fd4ba55c34a96fd7231c683045c7d9f7bd115888751938985527f00000000000000000000000000000000000000000000000000000000000000001693a382541617905551908152f35b610e4d877f000000000000000000000000000000000000000000000000000000000000000083611347565b610dca565b807f37ed32e800000000000000000000000000000000000000000000000000000000869252fd5b8054821015610e955760005260206000209060021b0190600090565b7f4e487b7100000000000000000000000000000000000000000000000000000000600052603260045260246000fd5b90601f7fffffffffffffffffffffffffffffffffffffffffffffffffffffffffffffffe0910116810190811067ffffffffffffffff821117610f0557604052565b7f4e487b7100000000000000000000000000000000000000000000000000000000600052604160045260246000fd5b6000918291610f43308261138a565b90600454807fffffffffffffffffffffffffffffffffffffffffffffffffffffffffffffffff048311810261115c57670de0b6b3a7640000908302048083039280841161112f5783968261105b575b500361102b575b60405191825283602083015273ffffffffffffffffffffffffffffffffffffffff917fade3bf209346b6d1156694638e3b8e94ecfddd117c76c53c26ea59898129a1c56040847f00000000000000000000000000000000000000000000000000000000000000001694807f000000000000000000000000000000000000000000000000000000000000000016941692a4565b611056827f000000000000000000000000000000000000000000000000000000000000000083611347565b610f99565b9095506040517fba0876520000000000000000000000000000000000000000000000000000000081528260048201526020816064818573ffffffffffffffffffffffffffffffffffffffff807f000000000000000000000000000000000000000000000000000000000000000016602484015230604484015289165af19182156111235780926110ef575b50509438610f92565b9091506020823d821161111b575b8161110a60209383610ec4565b810103126108c657505138806110e6565b3d91506110fd565b604051903d90823e3d90fd5b6024877f4e487b710000000000000000000000000000000000000000000000000000000081526011600452fd5b63bac65e5b86526004601cfd5b90815467ffffffffffffffff8111610f0557604092835193602090611193828560051b0187610ec4565b8386526000928352818320908287015b8585106111b257505050505050565b60048460019284516111c5608082610ec4565b60ff87541615158152848701548382015273ffffffffffffffffffffffffffffffffffffffff806002890154168783015260038801541660608201528152019301940193916111a3565b8051821015610e955760209160051b010190565b519073ffffffffffffffffffffffffffffffffffffffff8216820361124457565b600080fd5b6040517ff851a44000000000000000000000000000000000000000000000000000000000815273ffffffffffffffffffffffffffffffffffffffff90602081600481857f0000000000000000000000000000000000000000000000000000000000000000165afa90811561133b57600091611302575b50168033036112cb5750565b604490604051907f30a76f5f0000000000000000000000000000000000000000000000000000000082526004820152336024820152fd5b906020823d8211611333575b8161131b60209383610ec4565b810103126108c6575061132d90611223565b386112bf565b3d915061130e565b6040513d6000823e3d90fd5b601692602092601a52603a52604460009384809369a9059cbb00000000000082525af13d15600183511417161561137d57603a52565b6390b8ec1890526004601cfd5b6024601c6020939284936370a0823160005284525afa601f3d1116602051029056fea164736f6c6343000811000a",
  "linkReferences": {},
  "deployedLinkReferences": {}
}