{"contracts/cygnus-token/CygnusDAOReserves.sol":{"CygnusDAOReserves":{"abi":[{"inputs":[{"internalType":"contract IHangar18","name":"_hangar18","type":"address"},{"internalType":"address","name":"_daoPositions","type":"address"},{"internalType":"uint256","name":"_weight","type":"uint256"}],"stateMutability":"nonpayable","type":"constructor"},{"inputs":[{"internalType":"address","name":"admin","type":"address"},{"internalType":"address","name":"sender","type":"address"}],"name":"CygnusDAOReserves__MsgSenderNotAdmin","type":"error"},{"inputs":[{"internalType":"uint256","name":"shuttleId","type":"uint256"}],"name":"CygnusDAOReserves__ShuttleAlreadyInitialized","type":"error"},{"inputs":[{"internalType":"uint256","name":"shuttleId","type":"uint256"}],"name":"CygnusDAOReserves__ShuttleDoesntExist","type":"error"},{"inputs":[{"internalType":"uint256","name":"weight","type":"uint256"}],"name":"CygnusDAOReserves__WeightNotAllowed","type":"error"},{"inputs":[],"name":"ReentrantCall","type":"error"},{"anonymous":false,"inputs":[{"indexed":true,"internalType":"address","name":"vaultToken","type":"address"},{"indexed":true,"internalType":"address","name":"positions","type":"address"},{"indexed":false,"internalType":"uint256","name":"shares","type":"uint256"}],"name":"FundDAOReserves","type":"event"},{"anonymous":false,"inputs":[{"indexed":false,"internalType":"uint256","name":"totalShuttles","type":"uint256"},{"indexed":false,"internalType":"address","name":"positions","type":"address"},{"indexed":false,"internalType":"uint256","name":"shares","type":"uint256"}],"name":"FundDAOReservesAll","type":"event"},{"anonymous":false,"inputs":[{"indexed":true,"internalType":"address","name":"vaultToken","type":"address"},{"indexed":true,"internalType":"address","name":"positions","type":"address"},{"indexed":true,"internalType":"address","name":"vault","type":"address"},{"indexed":false,"internalType":"uint256","name":"shares","type":"uint256"},{"indexed":false,"internalType":"uint256","name":"assets","type":"uint256"}],"name":"FundX1Vault","type":"event"},{"anonymous":false,"inputs":[{"indexed":false,"internalType":"uint256","name":"totalShuttles","type":"uint256"},{"indexed":false,"internalType":"address","name":"vault","type":"address"},{"indexed":false,"internalType":"uint256","name":"shares","type":"uint256"},{"indexed":false,"internalType":"uint256","name":"assets","type":"uint256"}],"name":"FundX1VaultAll","type":"event"},{"anonymous":false,"inputs":[{"components":[{"internalType":"bool","name":"initialized","type":"bool"},{"internalType":"uint256","name":"shuttleId","type":"uint256"},{"internalType":"address","name":"borrowable","type":"address"},{"internalType":"address","name":"collateral","type":"address"}],"indexed":false,"internalType":"struct ICygnusDAOReserves.Shuttle","name":"shuttle","type":"tuple"}],"name":"NewShuttleAdded","type":"event"},{"anonymous":false,"inputs":[{"indexed":false,"internalType":"uint256","name":"oldWeight","type":"uint256"},{"indexed":false,"internalType":"uint256","name":"newWeight","type":"uint256"}],"name":"NewX1VaultWeight","type":"event"},{"inputs":[{"internalType":"uint256","name":"shuttleId","type":"uint256"}],"name":"addShuttle","outputs":[],"stateMutability":"nonpayable","type":"function"},{"inputs":[{"internalType":"uint256","name":"","type":"uint256"}],"name":"allShuttles","outputs":[{"internalType":"bool","name":"initialized","type":"bool"},{"internalType":"uint256","name":"shuttleId","type":"uint256"},{"internalType":"address","name":"borrowable","type":"address"},{"internalType":"address","name":"collateral","type":"address"}],"stateMutability":"view","type":"function"},{"inputs":[],"name":"allShuttlesLength","outputs":[{"internalType":"uint256","name":"","type":"uint256"}],"stateMutability":"view","type":"function"},{"inputs":[],"name":"cygnusX1Vault","outputs":[{"internalType":"address","name":"","type":"address"}],"stateMutability":"view","type":"function"},{"inputs":[],"name":"daoReserves","outputs":[{"internalType":"address","name":"","type":"address"}],"stateMutability":"view","type":"function"},{"inputs":[],"name":"daoWeight","outputs":[{"internalType":"uint256","name":"","type":"uint256"}],"stateMutability":"view","type":"function"},{"inputs":[{"internalType":"uint256","name":"shuttleId","type":"uint256"}],"name":"fundDAOPositionsCygLP","outputs":[{"internalType":"uint256","name":"shares","type":"uint256"}],"stateMutability":"nonpayable","type":"function"},{"inputs":[],"name":"fundDAOPositionsCygLPAll","outputs":[{"internalType":"uint256","name":"shares","type":"uint256"}],"stateMutability":"nonpayable","type":"function"},{"inputs":[{"internalType":"uint256","name":"shuttleId","type":"uint256"}],"name":"fundX1VaultUSD","outputs":[{"internalType":"uint256","name":"shares","type":"uint256"},{"internalType":"uint256","name":"assets","type":"uint256"}],"stateMutability":"nonpayable","type":"function"},{"inputs":[],"name":"fundX1VaultUSDAll","outputs":[{"internalType":"uint256","name":"shares","type":"uint256"},{"internalType":"uint256","name":"assets","type":"uint256"}],"stateMutability":"nonpayable","type":"function"},{"inputs":[{"internalType":"uint256","name":"","type":"uint256"}],"name":"getShuttle","outputs":[{"internalType":"bool","name":"initialized","type":"bool"},{"internalType":"uint256","name":"shuttleId","type":"uint256"},{"internalType":"address","name":"borrowable","type":"address"},{"internalType":"address","name":"collateral","type":"address"}],"stateMutability":"view","type":"function"},{"inputs":[],"name":"hangar18","outputs":[{"internalType":"contract IHangar18","name":"","type":"address"}],"stateMutability":"view","type":"function"},{"inputs":[{"internalType":"uint256","name":"weight","type":"uint256"}],"name":"setX1VaultWeight","outputs":[],"stateMutability":"nonpayable","type":"function"},{"inputs":[],"name":"usd","outputs":[{"internalType":"address","name":"","type":"address"}],"stateMutability":"view","type":"function"},{"inputs":[],"name":"x1VaultWeight","outputs":[{"internalType":"uint256","name":"","type":"uint256"}],"stateMutability":"view","type":"function"}],"evm":{"bytecode":{"linkReferences":{},"object":"610100604090808252346200022f576060816200163d803803809162000026828562000234565b8339810103126200022f578051906001600160a01b0382168083036200022f57602084620000568285016200026e565b93015191600093600160ff19865416178555670de0b6b3a764000095868511620002175760805260c05285516318e7df3d60e31b81528281600481855afa9081156200020d579083918691620001c7575b5060e052865163d63a6ccd60e01b815291829060049082905afa918215620001bd5784926200017b575b505060a052806004558203918211620001675750600355516113b9908162000284823960805181818161011301528181610487015261128e015260a05181610185015260c0518181816102d90152818161035d01528181610c3201528181610df401528181610e28015281816110050152611031015260e0518181816101f301528181610b3f01528181610fe101526110a90152f35b634e487b7160e01b81526011600452602490fd5b90809250813d8311620001b5575b62000195818362000234565b81010312620001b157620001a9906200026e565b3880620000d1565b8280fd5b503d62000189565b86513d86823e3d90fd5b82819392503d831162000205575b620001e1818362000234565b810103126200020157600491620001f984926200026e565b9092620000a7565b8480fd5b503d620001d5565b87513d87823e3d90fd5b8751635984873560e01b815260048101869052602490fd5b600080fd5b601f909101601f19168101906001600160401b038211908210176200025857604052565b634e487b7160e01b600052604160045260246000fd5b51906001600160a01b03821682036200022f5756fe608060408181526004918236101561001657600080fd5b600092833560e01c91826316dc4de614610d29575081631ad4c8c314610c935781634f4addd114610c565781635b068af814610be75781637aa7247314610a7c5781637ccf374b146109905781638840cc1d146109055781638f6c58e4146108c95781639bbbbb02146107f6578163ada58d43146103ed578163b2f041ee146103b0578163b7cd5cb41461021757508063c73ef9e8146101a9578063d63a6ccd1461013b5763e8a24e1d146100ca57600080fd5b3461013757817ffffffffffffffffffffffffffffffffffffffffffffffffffffffffffffffffc360112610137576020905173ffffffffffffffffffffffffffffffffffffffff7f0000000000000000000000000000000000000000000000000000000000000000168152f35b5080fd5b503461013757817ffffffffffffffffffffffffffffffffffffffffffffffffffffffffffffffffc360112610137576020905173ffffffffffffffffffffffffffffffffffffffff7f0000000000000000000000000000000000000000000000000000000000000000168152f35b503461013757817ffffffffffffffffffffffffffffffffffffffffffffffffffffffffffffffffc360112610137576020905173ffffffffffffffffffffffffffffffffffffffff7f0000000000000000000000000000000000000000000000000000000000000000168152f35b83833461013757817ffffffffffffffffffffffffffffffffffffffffffffffffffffffffffffffffc3601126101375781549260ff84161561038957507fffffffffffffffffffffffffffffffffffffffffffffffffffffffffffffff008093168255816002546102886002611169565b82905b82821061030f5750506020947f108a965b373d0981109fedaf413102492c0a2af803f7eaa69b7437399751db796060600193865190815273ffffffffffffffffffffffffffffffffffffffff7f000000000000000000000000000000000000000000000000000000000000000016898201528787820152a182541617905551908152f35b909460019073ffffffffffffffffffffffffffffffffffffffff6060610335898661120f565b5101511690610344308361138a565b918280610357575b50500195019061028b565b610382917f000000000000000000000000000000000000000000000000000000000000000090611347565b898261034c565b90517f37ed32e8000000000000000000000000000000000000000000000000000000008152fd5b50503461013757817ffffffffffffffffffffffffffffffffffffffffffffffffffffffffffffffffc360112610137576020906003549051908152f35b83833461013757602090817ffffffffffffffffffffffffffffffffffffffffffffffffffffffffffffffffc3601126107f25783359161042b611249565b8284526001815260ff82852054166107c3578151917f1ad4c8c3000000000000000000000000000000000000000000000000000000008352838684015273ffffffffffffffffffffffffffffffffffffffff9260a081602481877f0000000000000000000000000000000000000000000000000000000000000000165afa9283156107b9578687928895610723575b50156106f4578251956104ce608088610ec4565b6001875281870190808252868589019416845286606089019616865288526001825261058e87858a208151151560ff7fffffffffffffffffffffffffffffffffffffffffffffffffffffffffffffff0083541691161781556020820151600182015560028101906060600373ffffffffffffffffffffffffffffffffffffffff9283604087015116947fffffffffffffffffffffffff00000000000000000000000000000000000000009586825416179055019301511690825416179055565b600254680100000000000000008110156106c8578060016105b492016002556002610e79565b61069d57928694926080979261067f8a7f93a552e45a0701b212caf117ace04723a5f4137663aaa23c07cdd9dc0db05a019b99978151151560ff7fffffffffffffffffffffffffffffffffffffffffffffffffffffffffffffff0083541691161781556020820151600182015560028101906060600373ffffffffffffffffffffffffffffffffffffffff9283604087015116947fffffffffffffffffffffffff00000000000000000000000000000000000000009586825416179055019301511690825416179055565b8451975115158852519087015251169084015251166060820152a180f35b602489808c7f4e487b7100000000000000000000000000000000000000000000000000000000825252fd5b60248960418c7f4e487b7100000000000000000000000000000000000000000000000000000000835252fd5b602488878551917f6a5f6b7c000000000000000000000000000000000000000000000000000000008352820152fd5b925050925060a0813d82116107b1575b8161074060a09383610ec4565b810103126107ad5780519283151584036107a957808201516affffffffffffffffffffff8116036107a957610776838301611223565b93608061078560608501611223565b9301516bffffffffffffffffffffffff8116036107a557939193896104ba565b8780fd5b8680fd5b8580fd5b3d9150610733565b82513d88823e3d90fd5b602485848451917fde9c1a69000000000000000000000000000000000000000000000000000000008352820152fd5b8280fd5b8284346108c65760207ffffffffffffffffffffffffffffffffffffffffffffffffffffffffffffffffc3601126108c65780549060ff82161561089e57600190847fffffffffffffffffffffffffffffffffffffffffffffffffffffffffffffff0080941682553581528160205261088973ffffffffffffffffffffffffffffffffffffffff6002868420015416610f34565b92909382541617905582519182526020820152f35b5050517f37ed32e8000000000000000000000000000000000000000000000000000000008152fd5b80fd5b9050346107f257827ffffffffffffffffffffffffffffffffffffffffffffffffffffffffffffffffc3601126107f25760209250549051908152f35b9050346107f25760207ffffffffffffffffffffffffffffffffffffffffffffffffffffffffffffffffc3601126107f25735825260016020818152928290208054918101546002820154600390920154935160ff909316151583529382019390935273ffffffffffffffffffffffffffffffffffffffff928316604082015291166060820152608090f35b8383346101375760207ffffffffffffffffffffffffffffffffffffffffffffffffffffffffffffffffc3601126101375782356109cb611249565b670de0b6b3a764000090818111610a4d57845491818655818103908111610a21577fcdf0e2499be1cf2f4acff51a3c1b2e66af5d59c4d540bb5a36d9800d254a5c8094955060035582519182526020820152a180f35b6024856011887f4e487b7100000000000000000000000000000000000000000000000000000000835252fd5b846024918451917f59848735000000000000000000000000000000000000000000000000000000008352820152fd5b8391503461013757817ffffffffffffffffffffffffffffffffffffffffffffffffffffffffffffffffc3601126101375781549060ff821615610bc057507fffffffffffffffffffffffffffffffffffffffffffffffffffffffffffffff008091168255818091600254610af06002611169565b83905b828210610b82575050907fe29bc683c6472cac8ea38dbefc8cf71cf2e047d9cf51d0044f070025c1fc9d266080600193885190815273ffffffffffffffffffffffffffffffffffffffff7f00000000000000000000000000000000000000000000000000000000000000001660208201528789820152866060820152a182541617905582519182526020820152f35b909495600190610bb473ffffffffffffffffffffffffffffffffffffffff8a610bab8a8761120f565b51015116610f34565b91019701950190610af3565b83517f37ed32e8000000000000000000000000000000000000000000000000000000008152fd5b50503461013757817ffffffffffffffffffffffffffffffffffffffffffffffffffffffffffffffffc360112610137576020905173ffffffffffffffffffffffffffffffffffffffff7f0000000000000000000000000000000000000000000000000000000000000000168152f35b50503461013757817ffffffffffffffffffffffffffffffffffffffffffffffffffffffffffffffffc360112610137576020906002549051908152f35b839150346101375760207ffffffffffffffffffffffffffffffffffffffffffffffffffffffffffffffffc3601126101375735906002548210156108c65750610cdd906002610e79565b50805460018201546002830154600390930154935160ff90921615158252602082015273ffffffffffffffffffffffffffffffffffffffff918216604082015291166060820152608090f35b8385346108c65760207ffffffffffffffffffffffffffffffffffffffffffffffffffffffffffffffffc3601126108c65780549260ff841615610e5257506020937fffffffffffffffffffffffffffffffffffffffffffffffffffffffffffffff00809416825535815260018452600173ffffffffffffffffffffffffffffffffffffffff9384600385852001541694610dc3308761138a565b9586610e22575b7fb39a15ac1082534c5f6687437f0fd4ba55c34a96fd7231c683045c7d9f7bd115888751938985527f00000000000000000000000000000000000000000000000000000000000000001693a382541617905551908152f35b610e4d877f000000000000000000000000000000000000000000000000000000000000000083611347565b610dca565b807f37ed32e800000000000000000000000000000000000000000000000000000000869252fd5b8054821015610e955760005260206000209060021b0190600090565b7f4e487b7100000000000000000000000000000000000000000000000000000000600052603260045260246000fd5b90601f7fffffffffffffffffffffffffffffffffffffffffffffffffffffffffffffffe0910116810190811067ffffffffffffffff821117610f0557604052565b7f4e487b7100000000000000000000000000000000000000000000000000000000600052604160045260246000fd5b6000918291610f43308261138a565b90600454807fffffffffffffffffffffffffffffffffffffffffffffffffffffffffffffffff048311810261115c57670de0b6b3a7640000908302048083039280841161112f5783968261105b575b500361102b575b60405191825283602083015273ffffffffffffffffffffffffffffffffffffffff917fade3bf209346b6d1156694638e3b8e94ecfddd117c76c53c26ea59898129a1c56040847f00000000000000000000000000000000000000000000000000000000000000001694807f000000000000000000000000000000000000000000000000000000000000000016941692a4565b611056827f000000000000000000000000000000000000000000000000000000000000000083611347565b610f99565b9095506040517fba0876520000000000000000000000000000000000000000000000000000000081528260048201526020816064818573ffffffffffffffffffffffffffffffffffffffff807f000000000000000000000000000000000000000000000000000000000000000016602484015230604484015289165af19182156111235780926110ef575b50509438610f92565b9091506020823d821161111b575b8161110a60209383610ec4565b810103126108c657505138806110e6565b3d91506110fd565b604051903d90823e3d90fd5b6024877f4e487b710000000000000000000000000000000000000000000000000000000081526011600452fd5b63bac65e5b86526004601cfd5b90815467ffffffffffffffff8111610f0557604092835193602090611193828560051b0187610ec4565b8386526000928352818320908287015b8585106111b257505050505050565b60048460019284516111c5608082610ec4565b60ff87541615158152848701548382015273ffffffffffffffffffffffffffffffffffffffff806002890154168783015260038801541660608201528152019301940193916111a3565b8051821015610e955760209160051b010190565b519073ffffffffffffffffffffffffffffffffffffffff8216820361124457565b600080fd5b6040517ff851a44000000000000000000000000000000000000000000000000000000000815273ffffffffffffffffffffffffffffffffffffffff90602081600481857f0000000000000000000000000000000000000000000000000000000000000000165afa90811561133b57600091611302575b50168033036112cb5750565b604490604051907f30a76f5f0000000000000000000000000000000000000000000000000000000082526004820152336024820152fd5b906020823d8211611333575b8161131b60209383610ec4565b810103126108c6575061132d90611223565b386112bf565b3d915061130e565b6040513d6000823e3d90fd5b601692602092601a52603a52604460009384809369a9059cbb00000000000082525af13d15600183511417161561137d57603a52565b6390b8ec1890526004601cfd5b6024601c6020939284936370a0823160005284525afa601f3d1116602051029056fea164736f6c6343000811000a","opcodes":"PUSH2 0x100 PUSH1 0x40 SWAP1 DUP1 DUP3 MSTORE CALLVALUE PUSH3 0x22F JUMPI PUSH1 0x60 DUP2 PUSH3 0x163D DUP1 CODESIZE SUB DUP1 SWAP2 PUSH3 0x26 DUP3 DUP6 PUSH3 0x234 JUMP JUMPDEST DUP4 CODECOPY DUP2 ADD SUB SLT PUSH3 0x22F JUMPI DUP1 MLOAD SWAP1 PUSH1 0x1 PUSH1 0x1 PUSH1 0xA0 SHL SUB DUP3 AND DUP1 DUP4 SUB PUSH3 0x22F JUMPI PUSH1 0x20 DUP5 PUSH3 0x56 DUP3 DUP6 ADD PUSH3 0x26E JUMP JUMPDEST SWAP4 ADD MLOAD SWAP2 PUSH1 0x0 SWAP4 PUSH1 0x1 PUSH1 0xFF NOT DUP7 SLOAD AND OR DUP6 SSTORE PUSH8 0xDE0B6B3A7640000 SWAP6 DUP7 DUP6 GT PUSH3 0x217 JUMPI PUSH1 0x80 MSTORE PUSH1 0xC0 MSTORE DUP6 MLOAD PUSH4 0x18E7DF3D PUSH1 0xE3 SHL DUP2 MSTORE DUP3 DUP2 PUSH1 0x4 DUP2 DUP6 GAS STATICCALL SWAP1 DUP2 ISZERO PUSH3 0x20D JUMPI SWAP1 DUP4 SWAP2 DUP7 SWAP2 PUSH3 0x1C7 JUMPI JUMPDEST POP PUSH1 0xE0 MSTORE DUP7 MLOAD PUSH4 0xD63A6CCD PUSH1 0xE0 SHL DUP2 MSTORE SWAP2 DUP3 SWAP1 PUSH1 0x4 SWAP1 DUP3 SWAP1 GAS STATICCALL SWAP2 DUP3 ISZERO PUSH3 0x1BD JUMPI DUP5 SWAP3 PUSH3 0x17B JUMPI JUMPDEST POP POP PUSH1 0xA0 MSTORE DUP1 PUSH1 0x4 SSTORE DUP3 SUB SWAP2 DUP3 GT PUSH3 0x167 JUMPI POP PUSH1 0x3 SSTORE MLOAD PUSH2 0x13B9 SWAP1 DUP2 PUSH3 0x284 DUP3 CODECOPY PUSH1 0x80 MLOAD DUP2 DUP2 DUP2 PUSH2 0x113 ADD MSTORE DUP2 DUP2 PUSH2 0x487 ADD MSTORE PUSH2 0x128E ADD MSTORE PUSH1 0xA0 MLOAD DUP2 PUSH2 0x185 ADD MSTORE PUSH1 0xC0 MLOAD DUP2 DUP2 DUP2 PUSH2 0x2D9 ADD MSTORE DUP2 DUP2 PUSH2 0x35D ADD MSTORE DUP2 DUP2 PUSH2 0xC32 ADD MSTORE DUP2 DUP2 PUSH2 0xDF4 ADD MSTORE DUP2 DUP2 PUSH2 0xE28 ADD MSTORE DUP2 DUP2 PUSH2 0x1005 ADD MSTORE PUSH2 0x1031 ADD MSTORE PUSH1 0xE0 MLOAD DUP2 DUP2 DUP2 PUSH2 0x1F3 ADD MSTORE DUP2 DUP2 PUSH2 0xB3F ADD MSTORE DUP2 DUP2 PUSH2 0xFE1 ADD MSTORE PUSH2 0x10A9 ADD MSTORE RETURN JUMPDEST PUSH4 0x4E487B71 PUSH1 0xE0 SHL DUP2 MSTORE PUSH1 0x11 PUSH1 0x4 MSTORE PUSH1 0x24 SWAP1 REVERT JUMPDEST SWAP1 DUP1 SWAP3 POP DUP2 RETURNDATASIZE DUP4 GT PUSH3 0x1B5 JUMPI JUMPDEST PUSH3 0x195 DUP2 DUP4 PUSH3 0x234 JUMP JUMPDEST DUP2 ADD SUB SLT PUSH3 0x1B1 JUMPI PUSH3 0x1A9 SWAP1 PUSH3 0x26E JUMP JUMPDEST CODESIZE DUP1 PUSH3 0xD1 JUMP JUMPDEST DUP3 DUP1 REVERT JUMPDEST POP RETURNDATASIZE PUSH3 0x189 JUMP JUMPDEST DUP7 MLOAD RETURNDATASIZE DUP7 DUP3 RETURNDATACOPY RETURNDATASIZE SWAP1 REVERT JUMPDEST DUP3 DUP2 SWAP4 SWAP3 POP RETURNDATASIZE DUP4 GT PUSH3 0x205 JUMPI JUMPDEST PUSH3 0x1E1 DUP2 DUP4 PUSH3 0x234 JUMP JUMPDEST DUP2 ADD SUB SLT PUSH3 0x201 JUMPI PUSH1 0x4 SWAP2 PUSH3 0x1F9 DUP5 SWAP3 PUSH3 0x26E JUMP JUMPDEST SWAP1 SWAP3 PUSH3 0xA7 JUMP JUMPDEST DUP5 DUP1 REVERT JUMPDEST POP RETURNDATASIZE PUSH3 0x1D5 JUMP JUMPDEST DUP8 MLOAD RETURNDATASIZE DUP8 DUP3 RETURNDATACOPY RETURNDATASIZE SWAP1 REVERT JUMPDEST DUP8 MLOAD PUSH4 0x59848735 PUSH1 0xE0 SHL DUP2 MSTORE PUSH1 0x4 DUP2 ADD DUP7 SWAP1 MSTORE PUSH1 0x24 SWAP1 REVERT JUMPDEST PUSH1 0x0 DUP1 REVERT JUMPDEST PUSH1 0x1F SWAP1 SWAP2 ADD PUSH1 0x1F NOT AND DUP2 ADD SWAP1 PUSH1 0x1 PUSH1 0x1 PUSH1 0x40 SHL SUB DUP3 GT SWAP1 DUP3 LT OR PUSH3 0x258 JUMPI PUSH1 0x40 MSTORE JUMP JUMPDEST PUSH4 0x4E487B71 PUSH1 0xE0 SHL PUSH1 0x0 MSTORE PUSH1 0x41 PUSH1 0x4 MSTORE PUSH1 0x24 PUSH1 0x0 REVERT JUMPDEST MLOAD SWAP1 PUSH1 0x1 PUSH1 0x1 PUSH1 0xA0 SHL SUB DUP3 AND DUP3 SUB PUSH3 0x22F JUMPI JUMP INVALID PUSH1 0x80 PUSH1 0x40 DUP2 DUP2 MSTORE PUSH1 0x4 SWAP2 DUP3 CALLDATASIZE LT ISZERO PUSH2 0x16 JUMPI PUSH1 0x0 DUP1 REVERT JUMPDEST PUSH1 0x0 SWAP3 DUP4 CALLDATALOAD PUSH1 0xE0 SHR SWAP2 DUP3 PUSH4 0x16DC4DE6 EQ PUSH2 0xD29 JUMPI POP DUP2 PUSH4 0x1AD4C8C3 EQ PUSH2 0xC93 JUMPI DUP2 PUSH4 0x4F4ADDD1 EQ PUSH2 0xC56 JUMPI DUP2 PUSH4 0x5B068AF8 EQ PUSH2 0xBE7 JUMPI DUP2 PUSH4 0x7AA72473 EQ PUSH2 0xA7C JUMPI DUP2 PUSH4 0x7CCF374B EQ PUSH2 0x990 JUMPI DUP2 PUSH4 0x8840CC1D EQ PUSH2 0x905 JUMPI DUP2 PUSH4 0x8F6C58E4 EQ PUSH2 0x8C9 JUMPI DUP2 PUSH4 0x9BBBBB02 EQ PUSH2 0x7F6 JUMPI DUP2 PUSH4 0xADA58D43 EQ PUSH2 0x3ED JUMPI DUP2 PUSH4 0xB2F041EE EQ PUSH2 0x3B0 JUMPI DUP2 PUSH4 0xB7CD5CB4 EQ PUSH2 0x217 JUMPI POP DUP1 PUSH4 0xC73EF9E8 EQ PUSH2 0x1A9 JUMPI DUP1 PUSH4 0xD63A6CCD EQ PUSH2 0x13B JUMPI PUSH4 0xE8A24E1D EQ PUSH2 0xCA JUMPI PUSH1 0x0 DUP1 REVERT JUMPDEST CALLVALUE PUSH2 0x137 JUMPI DUP2 PUSH32 0xFFFFFFFFFFFFFFFFFFFFFFFFFFFFFFFFFFFFFFFFFFFFFFFFFFFFFFFFFFFFFFFC CALLDATASIZE ADD SLT PUSH2 0x137 JUMPI PUSH1 0x20 SWAP1 MLOAD PUSH20 0xFFFFFFFFFFFFFFFFFFFFFFFFFFFFFFFFFFFFFFFF PUSH32 0x0 AND DUP2 MSTORE RETURN JUMPDEST POP DUP1 REVERT JUMPDEST POP CALLVALUE PUSH2 0x137 JUMPI DUP2 PUSH32 0xFFFFFFFFFFFFFFFFFFFFFFFFFFFFFFFFFFFFFFFFFFFFFFFFFFFFFFFFFFFFFFFC CALLDATASIZE ADD SLT PUSH2 0x137 JUMPI PUSH1 0x20 SWAP1 MLOAD PUSH20 0xFFFFFFFFFFFFFFFFFFFFFFFFFFFFFFFFFFFFFFFF PUSH32 0x0 AND DUP2 MSTORE RETURN JUMPDEST POP CALLVALUE PUSH2 0x137 JUMPI DUP2 PUSH32 0xFFFFFFFFFFFFFFFFFFFFFFFFFFFFFFFFFFFFFFFFFFFFFFFFFFFFFFFFFFFFFFFC CALLDATASIZE ADD SLT PUSH2 0x137 JUMPI PUSH1 0x20 SWAP1 MLOAD PUSH20 0xFFFFFFFFFFFFFFFFFFFFFFFFFFFFFFFFFFFFFFFF PUSH32 0x0 AND DUP2 MSTORE RETURN JUMPDEST DUP4 DUP4 CALLVALUE PUSH2 0x137 JUMPI DUP2 PUSH32 0xFFFFFFFFFFFFFFFFFFFFFFFFFFFFFFFFFFFFFFFFFFFFFFFFFFFFFFFFFFFFFFFC CALLDATASIZE ADD SLT PUSH2 0x137 JUMPI DUP2 SLOAD SWAP3 PUSH1 0xFF DUP5 AND ISZERO PUSH2 0x389 JUMPI POP PUSH32 0xFFFFFFFFFFFFFFFFFFFFFFFFFFFFFFFFFFFFFFFFFFFFFFFFFFFFFFFFFFFFFF00 DUP1 SWAP4 AND DUP3 SSTORE DUP2 PUSH1 0x2 SLOAD PUSH2 0x288 PUSH1 0x2 PUSH2 0x1169 JUMP JUMPDEST DUP3 SWAP1 JUMPDEST DUP3 DUP3 LT PUSH2 0x30F JUMPI POP POP PUSH1 0x20 SWAP5 PUSH32 0x108A965B373D0981109FEDAF413102492C0A2AF803F7EAA69B7437399751DB79 PUSH1 0x60 PUSH1 0x1 SWAP4 DUP7 MLOAD SWAP1 DUP2 MSTORE PUSH20 0xFFFFFFFFFFFFFFFFFFFFFFFFFFFFFFFFFFFFFFFF PUSH32 0x0 AND DUP10 DUP3 ADD MSTORE DUP8 DUP8 DUP3 ADD MSTORE LOG1 DUP3 SLOAD AND OR SWAP1 SSTORE MLOAD SWAP1 DUP2 MSTORE RETURN JUMPDEST SWAP1 SWAP5 PUSH1 0x1 SWAP1 PUSH20 0xFFFFFFFFFFFFFFFFFFFFFFFFFFFFFFFFFFFFFFFF PUSH1 0x60 PUSH2 0x335 DUP10 DUP7 PUSH2 0x120F JUMP JUMPDEST MLOAD ADD MLOAD AND SWAP1 PUSH2 0x344 ADDRESS DUP4 PUSH2 0x138A JUMP JUMPDEST SWAP2 DUP3 DUP1 PUSH2 0x357 JUMPI JUMPDEST POP POP ADD SWAP6 ADD SWAP1 PUSH2 0x28B JUMP JUMPDEST PUSH2 0x382 SWAP2 PUSH32 0x0 SWAP1 PUSH2 0x1347 JUMP JUMPDEST DUP10 DUP3 PUSH2 0x34C JUMP JUMPDEST SWAP1 MLOAD PUSH32 0x37ED32E800000000000000000000000000000000000000000000000000000000 DUP2 MSTORE REVERT JUMPDEST POP POP CALLVALUE PUSH2 0x137 JUMPI DUP2 PUSH32 0xFFFFFFFFFFFFFFFFFFFFFFFFFFFFFFFFFFFFFFFFFFFFFFFFFFFFFFFFFFFFFFFC CALLDATASIZE ADD SLT PUSH2 0x137 JUMPI PUSH1 0x20 SWAP1 PUSH1 0x3 SLOAD SWAP1 MLOAD SWAP1 DUP2 MSTORE RETURN JUMPDEST DUP4 DUP4 CALLVALUE PUSH2 0x137 JUMPI PUSH1 0x20 SWAP1 DUP2 PUSH32 0xFFFFFFFFFFFFFFFFFFFFFFFFFFFFFFFFFFFFFFFFFFFFFFFFFFFFFFFFFFFFFFFC CALLDATASIZE ADD SLT PUSH2 0x7F2 JUMPI DUP4 CALLDATALOAD SWAP2 PUSH2 0x42B PUSH2 0x1249 JUMP JUMPDEST DUP3 DUP5 MSTORE PUSH1 0x1 DUP2 MSTORE PUSH1 0xFF DUP3 DUP6 KECCAK256 SLOAD AND PUSH2 0x7C3 JUMPI DUP2 MLOAD SWAP2 PUSH32 0x1AD4C8C300000000000000000000000000000000000000000000000000000000 DUP4 MSTORE DUP4 DUP7 DUP5 ADD MSTORE PUSH20 0xFFFFFFFFFFFFFFFFFFFFFFFFFFFFFFFFFFFFFFFF SWAP3 PUSH1 0xA0 DUP2 PUSH1 0x24 DUP2 DUP8 PUSH32 0x0 AND GAS STATICCALL SWAP3 DUP4 ISZERO PUSH2 0x7B9 JUMPI DUP7 DUP8 SWAP3 DUP9 SWAP6 PUSH2 0x723 JUMPI JUMPDEST POP ISZERO PUSH2 0x6F4 JUMPI DUP3 MLOAD SWAP6 PUSH2 0x4CE PUSH1 0x80 DUP9 PUSH2 0xEC4 JUMP JUMPDEST PUSH1 0x1 DUP8 MSTORE DUP2 DUP8 ADD SWAP1 DUP1 DUP3 MSTORE DUP7 DUP6 DUP10 ADD SWAP5 AND DUP5 MSTORE DUP7 PUSH1 0x60 DUP10 ADD SWAP7 AND DUP7 MSTORE DUP9 MSTORE PUSH1 0x1 DUP3 MSTORE PUSH2 0x58E DUP8 DUP6 DUP11 KECCAK256 DUP2 MLOAD ISZERO ISZERO PUSH1 0xFF PUSH32 0xFFFFFFFFFFFFFFFFFFFFFFFFFFFFFFFFFFFFFFFFFFFFFFFFFFFFFFFFFFFFFF00 DUP4 SLOAD AND SWAP2 AND OR DUP2 SSTORE PUSH1 0x20 DUP3 ADD MLOAD PUSH1 0x1 DUP3 ADD SSTORE PUSH1 0x2 DUP2 ADD SWAP1 PUSH1 0x60 PUSH1 0x3 PUSH20 0xFFFFFFFFFFFFFFFFFFFFFFFFFFFFFFFFFFFFFFFF SWAP3 DUP4 PUSH1 0x40 DUP8 ADD MLOAD AND SWAP5 PUSH32 0xFFFFFFFFFFFFFFFFFFFFFFFF0000000000000000000000000000000000000000 SWAP6 DUP7 DUP3 SLOAD AND OR SWAP1 SSTORE ADD SWAP4 ADD MLOAD AND SWAP1 DUP3 SLOAD AND OR SWAP1 SSTORE JUMP JUMPDEST PUSH1 0x2 SLOAD PUSH9 0x10000000000000000 DUP2 LT ISZERO PUSH2 0x6C8 JUMPI DUP1 PUSH1 0x1 PUSH2 0x5B4 SWAP3 ADD PUSH1 0x2 SSTORE PUSH1 0x2 PUSH2 0xE79 JUMP JUMPDEST PUSH2 0x69D JUMPI SWAP3 DUP7 SWAP5 SWAP3 PUSH1 0x80 SWAP8 SWAP3 PUSH2 0x67F DUP11 PUSH32 0x93A552E45A0701B212CAF117ACE04723A5F4137663AAA23C07CDD9DC0DB05A01 SWAP12 SWAP10 SWAP8 DUP2 MLOAD ISZERO ISZERO PUSH1 0xFF PUSH32 0xFFFFFFFFFFFFFFFFFFFFFFFFFFFFFFFFFFFFFFFFFFFFFFFFFFFFFFFFFFFFFF00 DUP4 SLOAD AND SWAP2 AND OR DUP2 SSTORE PUSH1 0x20 DUP3 ADD MLOAD PUSH1 0x1 DUP3 ADD SSTORE PUSH1 0x2 DUP2 ADD SWAP1 PUSH1 0x60 PUSH1 0x3 PUSH20 0xFFFFFFFFFFFFFFFFFFFFFFFFFFFFFFFFFFFFFFFF SWAP3 DUP4 PUSH1 0x40 DUP8 ADD MLOAD AND SWAP5 PUSH32 0xFFFFFFFFFFFFFFFFFFFFFFFF0000000000000000000000000000000000000000 SWAP6 DUP7 DUP3 SLOAD AND OR SWAP1 SSTORE ADD SWAP4 ADD MLOAD AND SWAP1 DUP3 SLOAD AND OR SWAP1 SSTORE JUMP JUMPDEST DUP5 MLOAD SWAP8 MLOAD ISZERO ISZERO DUP9 MSTORE MLOAD SWAP1 DUP8 ADD MSTORE MLOAD AND SWAP1 DUP5 ADD MSTORE MLOAD AND PUSH1 0x60 DUP3 ADD MSTORE LOG1 DUP1 RETURN JUMPDEST PUSH1 0x24 DUP10 DUP1 DUP13 PUSH32 0x4E487B7100000000000000000000000000000000000000000000000000000000 DUP3 MSTORE MSTORE REVERT JUMPDEST PUSH1 0x24 DUP10 PUSH1 0x41 DUP13 PUSH32 0x4E487B7100000000000000000000000000000000000000000000000000000000 DUP4 MSTORE MSTORE REVERT JUMPDEST PUSH1 0x24 DUP9 DUP8 DUP6 MLOAD SWAP2 PUSH32 0x6A5F6B7C00000000000000000000000000000000000000000000000000000000 DUP4 MSTORE DUP3 ADD MSTORE REVERT JUMPDEST SWAP3 POP POP SWAP3 POP PUSH1 0xA0 DUP2 RETURNDATASIZE DUP3 GT PUSH2 0x7B1 JUMPI JUMPDEST DUP2 PUSH2 0x740 PUSH1 0xA0 SWAP4 DUP4 PUSH2 0xEC4 JUMP JUMPDEST DUP2 ADD SUB SLT PUSH2 0x7AD JUMPI DUP1 MLOAD SWAP3 DUP4 ISZERO ISZERO DUP5 SUB PUSH2 0x7A9 JUMPI DUP1 DUP3 ADD MLOAD PUSH11 0xFFFFFFFFFFFFFFFFFFFFFF DUP2 AND SUB PUSH2 0x7A9 JUMPI PUSH2 0x776 DUP4 DUP4 ADD PUSH2 0x1223 JUMP JUMPDEST SWAP4 PUSH1 0x80 PUSH2 0x785 PUSH1 0x60 DUP6 ADD PUSH2 0x1223 JUMP JUMPDEST SWAP4 ADD MLOAD PUSH12 0xFFFFFFFFFFFFFFFFFFFFFFFF DUP2 AND SUB PUSH2 0x7A5 JUMPI SWAP4 SWAP2 SWAP4 DUP10 PUSH2 0x4BA JUMP JUMPDEST DUP8 DUP1 REVERT JUMPDEST DUP7 DUP1 REVERT JUMPDEST DUP6 DUP1 REVERT JUMPDEST RETURNDATASIZE SWAP2 POP PUSH2 0x733 JUMP JUMPDEST DUP3 MLOAD RETURNDATASIZE DUP9 DUP3 RETURNDATACOPY RETURNDATASIZE SWAP1 REVERT JUMPDEST PUSH1 0x24 DUP6 DUP5 DUP5 MLOAD SWAP2 PUSH32 0xDE9C1A6900000000000000000000000000000000000000000000000000000000 DUP4 MSTORE DUP3 ADD MSTORE REVERT JUMPDEST DUP3 DUP1 REVERT JUMPDEST DUP3 DUP5 CALLVALUE PUSH2 0x8C6 JUMPI PUSH1 0x20 PUSH32 0xFFFFFFFFFFFFFFFFFFFFFFFFFFFFFFFFFFFFFFFFFFFFFFFFFFFFFFFFFFFFFFFC CALLDATASIZE ADD SLT PUSH2 0x8C6 JUMPI DUP1 SLOAD SWAP1 PUSH1 0xFF DUP3 AND ISZERO PUSH2 0x89E JUMPI PUSH1 0x1 SWAP1 DUP5 PUSH32 0xFFFFFFFFFFFFFFFFFFFFFFFFFFFFFFFFFFFFFFFFFFFFFFFFFFFFFFFFFFFFFF00 DUP1 SWAP5 AND DUP3 SSTORE CALLDATALOAD DUP2 MSTORE DUP2 PUSH1 0x20 MSTORE PUSH2 0x889 PUSH20 0xFFFFFFFFFFFFFFFFFFFFFFFFFFFFFFFFFFFFFFFF PUSH1 0x2 DUP7 DUP5 KECCAK256 ADD SLOAD AND PUSH2 0xF34 JUMP JUMPDEST SWAP3 SWAP1 SWAP4 DUP3 SLOAD AND OR SWAP1 SSTORE DUP3 MLOAD SWAP2 DUP3 MSTORE PUSH1 0x20 DUP3 ADD MSTORE RETURN JUMPDEST POP POP MLOAD PUSH32 0x37ED32E800000000000000000000000000000000000000000000000000000000 DUP2 MSTORE REVERT JUMPDEST DUP1 REVERT JUMPDEST SWAP1 POP CALLVALUE PUSH2 0x7F2 JUMPI DUP3 PUSH32 0xFFFFFFFFFFFFFFFFFFFFFFFFFFFFFFFFFFFFFFFFFFFFFFFFFFFFFFFFFFFFFFFC CALLDATASIZE ADD SLT PUSH2 0x7F2 JUMPI PUSH1 0x20 SWAP3 POP SLOAD SWAP1 MLOAD SWAP1 DUP2 MSTORE RETURN JUMPDEST SWAP1 POP CALLVALUE PUSH2 0x7F2 JUMPI PUSH1 0x20 PUSH32 0xFFFFFFFFFFFFFFFFFFFFFFFFFFFFFFFFFFFFFFFFFFFFFFFFFFFFFFFFFFFFFFFC CALLDATASIZE ADD SLT PUSH2 0x7F2 JUMPI CALLDATALOAD DUP3 MSTORE PUSH1 0x1 PUSH1 0x20 DUP2 DUP2 MSTORE SWAP3 DUP3 SWAP1 KECCAK256 DUP1 SLOAD SWAP2 DUP2 ADD SLOAD PUSH1 0x2 DUP3 ADD SLOAD PUSH1 0x3 SWAP1 SWAP3 ADD SLOAD SWAP4 MLOAD PUSH1 0xFF SWAP1 SWAP4 AND ISZERO ISZERO DUP4 MSTORE SWAP4 DUP3 ADD SWAP4 SWAP1 SWAP4 MSTORE PUSH20 0xFFFFFFFFFFFFFFFFFFFFFFFFFFFFFFFFFFFFFFFF SWAP3 DUP4 AND PUSH1 0x40 DUP3 ADD MSTORE SWAP2 AND PUSH1 0x60 DUP3 ADD MSTORE PUSH1 0x80 SWAP1 RETURN JUMPDEST DUP4 DUP4 CALLVALUE PUSH2 0x137 JUMPI PUSH1 0x20 PUSH32 0xFFFFFFFFFFFFFFFFFFFFFFFFFFFFFFFFFFFFFFFFFFFFFFFFFFFFFFFFFFFFFFFC CALLDATASIZE ADD SLT PUSH2 0x137 JUMPI DUP3 CALLDATALOAD PUSH2 0x9CB PUSH2 0x1249 JUMP JUMPDEST PUSH8 0xDE0B6B3A7640000 SWAP1 DUP2 DUP2 GT PUSH2 0xA4D JUMPI DUP5 SLOAD SWAP2 DUP2 DUP7 SSTORE DUP2 DUP2 SUB SWAP1 DUP2 GT PUSH2 0xA21 JUMPI PUSH32 0xCDF0E2499BE1CF2F4ACFF51A3C1B2E66AF5D59C4D540BB5A36D9800D254A5C80 SWAP5 SWAP6 POP PUSH1 0x3 SSTORE DUP3 MLOAD SWAP2 DUP3 MSTORE PUSH1 0x20 DUP3 ADD MSTORE LOG1 DUP1 RETURN JUMPDEST PUSH1 0x24 DUP6 PUSH1 0x11 DUP9 PUSH32 0x4E487B7100000000000000000000000000000000000000000000000000000000 DUP4 MSTORE MSTORE REVERT JUMPDEST DUP5 PUSH1 0x24 SWAP2 DUP5 MLOAD SWAP2 PUSH32 0x5984873500000000000000000000000000000000000000000000000000000000 DUP4 MSTORE DUP3 ADD MSTORE REVERT JUMPDEST DUP4 SWAP2 POP CALLVALUE PUSH2 0x137 JUMPI DUP2 PUSH32 0xFFFFFFFFFFFFFFFFFFFFFFFFFFFFFFFFFFFFFFFFFFFFFFFFFFFFFFFFFFFFFFFC CALLDATASIZE ADD SLT PUSH2 0x137 JUMPI DUP2 SLOAD SWAP1 PUSH1 0xFF DUP3 AND ISZERO PUSH2 0xBC0 JUMPI POP PUSH32 0xFFFFFFFFFFFFFFFFFFFFFFFFFFFFFFFFFFFFFFFFFFFFFFFFFFFFFFFFFFFFFF00 DUP1 SWAP2 AND DUP3 SSTORE DUP2 DUP1 SWAP2 PUSH1 0x2 SLOAD PUSH2 0xAF0 PUSH1 0x2 PUSH2 0x1169 JUMP JUMPDEST DUP4 SWAP1 JUMPDEST DUP3 DUP3 LT PUSH2 0xB82 JUMPI POP POP SWAP1 PUSH32 0xE29BC683C6472CAC8EA38DBEFC8CF71CF2E047D9CF51D0044F070025C1FC9D26 PUSH1 0x80 PUSH1 0x1 SWAP4 DUP9 MLOAD SWAP1 DUP2 MSTORE PUSH20 0xFFFFFFFFFFFFFFFFFFFFFFFFFFFFFFFFFFFFFFFF PUSH32 0x0 AND PUSH1 0x20 DUP3 ADD MSTORE DUP8 DUP10 DUP3 ADD MSTORE DUP7 PUSH1 0x60 DUP3 ADD MSTORE LOG1 DUP3 SLOAD AND OR SWAP1 SSTORE DUP3 MLOAD SWAP2 DUP3 MSTORE PUSH1 0x20 DUP3 ADD MSTORE RETURN JUMPDEST SWAP1 SWAP5 SWAP6 PUSH1 0x1 SWAP1 PUSH2 0xBB4 PUSH20 0xFFFFFFFFFFFFFFFFFFFFFFFFFFFFFFFFFFFFFFFF DUP11 PUSH2 0xBAB DUP11 DUP8 PUSH2 0x120F JUMP JUMPDEST MLOAD ADD MLOAD AND PUSH2 0xF34 JUMP JUMPDEST SWAP2 ADD SWAP8 ADD SWAP6 ADD SWAP1 PUSH2 0xAF3 JUMP JUMPDEST DUP4 MLOAD PUSH32 0x37ED32E800000000000000000000000000000000000000000000000000000000 DUP2 MSTORE REVERT JUMPDEST POP POP CALLVALUE PUSH2 0x137 JUMPI DUP2 PUSH32 0xFFFFFFFFFFFFFFFFFFFFFFFFFFFFFFFFFFFFFFFFFFFFFFFFFFFFFFFFFFFFFFFC CALLDATASIZE ADD SLT PUSH2 0x137 JUMPI PUSH1 0x20 SWAP1 MLOAD PUSH20 0xFFFFFFFFFFFFFFFFFFFFFFFFFFFFFFFFFFFFFFFF PUSH32 0x0 AND DUP2 MSTORE RETURN JUMPDEST POP POP CALLVALUE PUSH2 0x137 JUMPI DUP2 PUSH32 0xFFFFFFFFFFFFFFFFFFFFFFFFFFFFFFFFFFFFFFFFFFFFFFFFFFFFFFFFFFFFFFFC CALLDATASIZE ADD SLT PUSH2 0x137 JUMPI PUSH1 0x20 SWAP1 PUSH1 0x2 SLOAD SWAP1 MLOAD SWAP1 DUP2 MSTORE RETURN JUMPDEST DUP4 SWAP2 POP CALLVALUE PUSH2 0x137 JUMPI PUSH1 0x20 PUSH32 0xFFFFFFFFFFFFFFFFFFFFFFFFFFFFFFFFFFFFFFFFFFFFFFFFFFFFFFFFFFFFFFFC CALLDATASIZE ADD SLT PUSH2 0x137 JUMPI CALLDATALOAD SWAP1 PUSH1 0x2 SLOAD DUP3 LT ISZERO PUSH2 0x8C6 JUMPI POP PUSH2 0xCDD SWAP1 PUSH1 0x2 PUSH2 0xE79 JUMP JUMPDEST POP DUP1 SLOAD PUSH1 0x1 DUP3 ADD SLOAD PUSH1 0x2 DUP4 ADD SLOAD PUSH1 0x3 SWAP1 SWAP4 ADD SLOAD SWAP4 MLOAD PUSH1 0xFF SWAP1 SWAP3 AND ISZERO ISZERO DUP3 MSTORE PUSH1 0x20 DUP3 ADD MSTORE PUSH20 0xFFFFFFFFFFFFFFFFFFFFFFFFFFFFFFFFFFFFFFFF SWAP2 DUP3 AND PUSH1 0x40 DUP3 ADD MSTORE SWAP2 AND PUSH1 0x60 DUP3 ADD MSTORE PUSH1 0x80 SWAP1 RETURN JUMPDEST DUP4 DUP6 CALLVALUE PUSH2 0x8C6 JUMPI PUSH1 0x20 PUSH32 0xFFFFFFFFFFFFFFFFFFFFFFFFFFFFFFFFFFFFFFFFFFFFFFFFFFFFFFFFFFFFFFFC CALLDATASIZE ADD SLT PUSH2 0x8C6 JUMPI DUP1 SLOAD SWAP3 PUSH1 0xFF DUP5 AND ISZERO PUSH2 0xE52 JUMPI POP PUSH1 0x20 SWAP4 PUSH32 0xFFFFFFFFFFFFFFFFFFFFFFFFFFFFFFFFFFFFFFFFFFFFFFFFFFFFFFFFFFFFFF00 DUP1 SWAP5 AND DUP3 SSTORE CALLDATALOAD DUP2 MSTORE PUSH1 0x1 DUP5 MSTORE PUSH1 0x1 PUSH20 0xFFFFFFFFFFFFFFFFFFFFFFFFFFFFFFFFFFFFFFFF SWAP4 DUP5 PUSH1 0x3 DUP6 DUP6 KECCAK256 ADD SLOAD AND SWAP5 PUSH2 0xDC3 ADDRESS DUP8 PUSH2 0x138A JUMP JUMPDEST SWAP6 DUP7 PUSH2 0xE22 JUMPI JUMPDEST PUSH32 0xB39A15AC1082534C5F6687437F0FD4BA55C34A96FD7231C683045C7D9F7BD115 DUP9 DUP8 MLOAD SWAP4 DUP10 DUP6 MSTORE PUSH32 0x0 AND SWAP4 LOG3 DUP3 SLOAD AND OR SWAP1 SSTORE MLOAD SWAP1 DUP2 MSTORE RETURN JUMPDEST PUSH2 0xE4D DUP8 PUSH32 0x0 DUP4 PUSH2 0x1347 JUMP JUMPDEST PUSH2 0xDCA JUMP JUMPDEST DUP1 PUSH32 0x37ED32E800000000000000000000000000000000000000000000000000000000 DUP7 SWAP3 MSTORE REVERT JUMPDEST DUP1 SLOAD DUP3 LT ISZERO PUSH2 0xE95 JUMPI PUSH1 0x0 MSTORE PUSH1 0x20 PUSH1 0x0 KECCAK256 SWAP1 PUSH1 0x2 SHL ADD SWAP1 PUSH1 0x0 SWAP1 JUMP JUMPDEST PUSH32 0x4E487B7100000000000000000000000000000000000000000000000000000000 PUSH1 0x0 MSTORE PUSH1 0x32 PUSH1 0x4 MSTORE PUSH1 0x24 PUSH1 0x0 REVERT JUMPDEST SWAP1 PUSH1 0x1F PUSH32 0xFFFFFFFFFFFFFFFFFFFFFFFFFFFFFFFFFFFFFFFFFFFFFFFFFFFFFFFFFFFFFFE0 SWAP2 ADD AND DUP2 ADD SWAP1 DUP2 LT PUSH8 0xFFFFFFFFFFFFFFFF DUP3 GT OR PUSH2 0xF05 JUMPI PUSH1 0x40 MSTORE JUMP JUMPDEST PUSH32 0x4E487B7100000000000000000000000000000000000000000000000000000000 PUSH1 0x0 MSTORE PUSH1 0x41 PUSH1 0x4 MSTORE PUSH1 0x24 PUSH1 0x0 REVERT JUMPDEST PUSH1 0x0 SWAP2 DUP3 SWAP2 PUSH2 0xF43 ADDRESS DUP3 PUSH2 0x138A JUMP JUMPDEST SWAP1 PUSH1 0x4 SLOAD DUP1 PUSH32 0xFFFFFFFFFFFFFFFFFFFFFFFFFFFFFFFFFFFFFFFFFFFFFFFFFFFFFFFFFFFFFFFF DIV DUP4 GT DUP2 MUL PUSH2 0x115C JUMPI PUSH8 0xDE0B6B3A7640000 SWAP1 DUP4 MUL DIV DUP1 DUP4 SUB SWAP3 DUP1 DUP5 GT PUSH2 0x112F JUMPI DUP4 SWAP7 DUP3 PUSH2 0x105B JUMPI JUMPDEST POP SUB PUSH2 0x102B JUMPI JUMPDEST PUSH1 0x40 MLOAD SWAP2 DUP3 MSTORE DUP4 PUSH1 0x20 DUP4 ADD MSTORE PUSH20 0xFFFFFFFFFFFFFFFFFFFFFFFFFFFFFFFFFFFFFFFF SWAP2 PUSH32 0xADE3BF209346B6D1156694638E3B8E94ECFDDD117C76C53C26EA59898129A1C5 PUSH1 0x40 DUP5 PUSH32 0x0 AND SWAP5 DUP1 PUSH32 0x0 AND SWAP5 AND SWAP3 LOG4 JUMP JUMPDEST PUSH2 0x1056 DUP3 PUSH32 0x0 DUP4 PUSH2 0x1347 JUMP JUMPDEST PUSH2 0xF99 JUMP JUMPDEST SWAP1 SWAP6 POP PUSH1 0x40 MLOAD PUSH32 0xBA08765200000000000000000000000000000000000000000000000000000000 DUP2 MSTORE DUP3 PUSH1 0x4 DUP3 ADD MSTORE PUSH1 0x20 DUP2 PUSH1 0x64 DUP2 DUP6 PUSH20 0xFFFFFFFFFFFFFFFFFFFFFFFFFFFFFFFFFFFFFFFF DUP1 PUSH32 0x0 AND PUSH1 0x24 DUP5 ADD MSTORE ADDRESS PUSH1 0x44 DUP5 ADD MSTORE DUP10 AND GAS CALL SWAP2 DUP3 ISZERO PUSH2 0x1123 JUMPI DUP1 SWAP3 PUSH2 0x10EF JUMPI JUMPDEST POP POP SWAP5 CODESIZE PUSH2 0xF92 JUMP JUMPDEST SWAP1 SWAP2 POP PUSH1 0x20 DUP3 RETURNDATASIZE DUP3 GT PUSH2 0x111B JUMPI JUMPDEST DUP2 PUSH2 0x110A PUSH1 0x20 SWAP4 DUP4 PUSH2 0xEC4 JUMP JUMPDEST DUP2 ADD SUB SLT PUSH2 0x8C6 JUMPI POP MLOAD CODESIZE DUP1 PUSH2 0x10E6 JUMP JUMPDEST RETURNDATASIZE SWAP2 POP PUSH2 0x10FD JUMP JUMPDEST PUSH1 0x40 MLOAD SWAP1 RETURNDATASIZE SWAP1 DUP3 RETURNDATACOPY RETURNDATASIZE SWAP1 REVERT JUMPDEST PUSH1 0x24 DUP8 PUSH32 0x4E487B7100000000000000000000000000000000000000000000000000000000 DUP2 MSTORE PUSH1 0x11 PUSH1 0x4 MSTORE REVERT JUMPDEST PUSH4 0xBAC65E5B DUP7 MSTORE PUSH1 0x4 PUSH1 0x1C REVERT JUMPDEST SWAP1 DUP2 SLOAD PUSH8 0xFFFFFFFFFFFFFFFF DUP2 GT PUSH2 0xF05 JUMPI PUSH1 0x40 SWAP3 DUP4 MLOAD SWAP4 PUSH1 0x20 SWAP1 PUSH2 0x1193 DUP3 DUP6 PUSH1 0x5 SHL ADD DUP8 PUSH2 0xEC4 JUMP JUMPDEST DUP4 DUP7 MSTORE PUSH1 0x0 SWAP3 DUP4 MSTORE DUP2 DUP4 KECCAK256 SWAP1 DUP3 DUP8 ADD JUMPDEST DUP6 DUP6 LT PUSH2 0x11B2 JUMPI POP POP POP POP POP POP JUMP JUMPDEST PUSH1 0x4 DUP5 PUSH1 0x1 SWAP3 DUP5 MLOAD PUSH2 0x11C5 PUSH1 0x80 DUP3 PUSH2 0xEC4 JUMP JUMPDEST PUSH1 0xFF DUP8 SLOAD AND ISZERO ISZERO DUP2 MSTORE DUP5 DUP8 ADD SLOAD DUP4 DUP3 ADD MSTORE PUSH20 0xFFFFFFFFFFFFFFFFFFFFFFFFFFFFFFFFFFFFFFFF DUP1 PUSH1 0x2 DUP10 ADD SLOAD AND DUP8 DUP4 ADD MSTORE PUSH1 0x3 DUP9 ADD SLOAD AND PUSH1 0x60 DUP3 ADD MSTORE DUP2 MSTORE ADD SWAP4 ADD SWAP5 ADD SWAP4 SWAP2 PUSH2 0x11A3 JUMP JUMPDEST DUP1 MLOAD DUP3 LT ISZERO PUSH2 0xE95 JUMPI PUSH1 0x20 SWAP2 PUSH1 0x5 SHL ADD ADD SWAP1 JUMP JUMPDEST MLOAD SWAP1 PUSH20 0xFFFFFFFFFFFFFFFFFFFFFFFFFFFFFFFFFFFFFFFF DUP3 AND DUP3 SUB PUSH2 0x1244 JUMPI JUMP JUMPDEST PUSH1 0x0 DUP1 REVERT JUMPDEST PUSH1 0x40 MLOAD PUSH32 0xF851A44000000000000000000000000000000000000000000000000000000000 DUP2 MSTORE PUSH20 0xFFFFFFFFFFFFFFFFFFFFFFFFFFFFFFFFFFFFFFFF SWAP1 PUSH1 0x20 DUP2 PUSH1 0x4 DUP2 DUP6 PUSH32 0x0 AND GAS STATICCALL SWAP1 DUP2 ISZERO PUSH2 0x133B JUMPI PUSH1 0x0 SWAP2 PUSH2 0x1302 JUMPI JUMPDEST POP AND DUP1 CALLER SUB PUSH2 0x12CB JUMPI POP JUMP JUMPDEST PUSH1 0x44 SWAP1 PUSH1 0x40 MLOAD SWAP1 PUSH32 0x30A76F5F00000000000000000000000000000000000000000000000000000000 DUP3 MSTORE PUSH1 0x4 DUP3 ADD MSTORE CALLER PUSH1 0x24 DUP3 ADD MSTORE REVERT JUMPDEST SWAP1 PUSH1 0x20 DUP3 RETURNDATASIZE DUP3 GT PUSH2 0x1333 JUMPI JUMPDEST DUP2 PUSH2 0x131B PUSH1 0x20 SWAP4 DUP4 PUSH2 0xEC4 JUMP JUMPDEST DUP2 ADD SUB SLT PUSH2 0x8C6 JUMPI POP PUSH2 0x132D SWAP1 PUSH2 0x1223 JUMP JUMPDEST CODESIZE PUSH2 0x12BF JUMP JUMPDEST RETURNDATASIZE SWAP2 POP PUSH2 0x130E JUMP JUMPDEST PUSH1 0x40 MLOAD RETURNDATASIZE PUSH1 0x0 DUP3 RETURNDATACOPY RETURNDATASIZE SWAP1 REVERT JUMPDEST PUSH1 0x16 SWAP3 PUSH1 0x20 SWAP3 PUSH1 0x1A MSTORE PUSH1 0x3A MSTORE PUSH1 0x44 PUSH1 0x0 SWAP4 DUP5 DUP1 SWAP4 PUSH10 0xA9059CBB000000000000 DUP3 MSTORE GAS CALL RETURNDATASIZE ISZERO PUSH1 0x1 DUP4 MLOAD EQ OR AND ISZERO PUSH2 0x137D JUMPI PUSH1 0x3A MSTORE JUMP JUMPDEST PUSH4 0x90B8EC18 SWAP1 MSTORE PUSH1 0x4 PUSH1 0x1C REVERT JUMPDEST PUSH1 0x24 PUSH1 0x1C PUSH1 0x20 SWAP4 SWAP3 DUP5 SWAP4 PUSH4 0x70A08231 PUSH1 0x0 MSTORE DUP5 MSTORE GAS STATICCALL PUSH1 0x1F RETURNDATASIZE GT AND PUSH1 0x20 MLOAD MUL SWAP1 JUMP INVALID LOG1 PUSH5 0x736F6C6343 STOP ADDMOD GT STOP EXP "},"methodIdentifiers":{"addShuttle(uint256)":"ada58d43","allShuttles(uint256)":"1ad4c8c3","allShuttlesLength()":"4f4addd1","cygnusX1Vault()":"c73ef9e8","daoReserves()":"5b068af8","daoWeight()":"b2f041ee","fundDAOPositionsCygLP(uint256)":"16dc4de6","fundDAOPositionsCygLPAll()":"b7cd5cb4","fundX1VaultUSD(uint256)":"9bbbbb02","fundX1VaultUSDAll()":"7aa72473","getShuttle(uint256)":"8840cc1d","hangar18()":"e8a24e1d","setX1VaultWeight(uint256)":"7ccf374b","usd()":"d63a6ccd","x1VaultWeight()":"8f6c58e4"}}}}}