{"contracts/cygnus-token/CygnusComplexRewarder.sol":{"CygnusComplexRewarder":{"abi":[{"inputs":[{"internalType":"contract IHangar18","name":"_hangar18","type":"address"},{"internalType":"address","name":"_rewardToken","type":"address"},{"internalType":"uint256","name":"_totalRewards","type":"uint256"}],"stateMutability":"nonpayable","type":"constructor"},{"inputs":[{"internalType":"address","name":"token","type":"address"},{"internalType":"address","name":"underlying","type":"address"}],"name":"CygnusComplexRewarder__CantSweepUnderlying","type":"error"},{"inputs":[{"internalType":"uint256","name":"max","type":"uint256"},{"internalType":"uint256","name":"value","type":"uint256"}],"name":"CygnusComplexRewarder__CygPerBlockExceedsLimit","type":"error"},{"inputs":[],"name":"CygnusComplexRewarder__InvalidTotalWeight","type":"error"},{"inputs":[{"internalType":"address","name":"admin","type":"address"},{"internalType":"address","name":"sender","type":"address"}],"name":"CygnusComplexRewarder__MsgSenderNotAdmin","type":"error"},{"inputs":[{"internalType":"address","name":"borrowable","type":"address"},{"internalType":"address","name":"sender","type":"address"}],"name":"CygnusComplexRewarder__MsgSenderNotBorrowable","type":"error"},{"inputs":[{"internalType":"address","name":"sender","type":"address"},{"internalType":"address","name":"origin","type":"address"}],"name":"CygnusComplexRewarder__OnlyEOAAllowed","type":"error"},{"inputs":[{"internalType":"uint256","name":"shuttleId","type":"uint256"},{"internalType":"address","name":"borrowable","type":"address"}],"name":"CygnusComplexRewarder__ShuttleAlreadyInitialized","type":"error"},{"inputs":[{"internalType":"uint256","name":"shuttleId","type":"uint256"},{"internalType":"address","name":"borrowable","type":"address"}],"name":"CygnusComplexRewarder__ShuttleNotInitialized","type":"error"},{"inputs":[],"name":"ReentrantCall","type":"error"},{"anonymous":false,"inputs":[{"indexed":false,"internalType":"uint256","name":"shuttlesLength","type":"uint256"},{"indexed":false,"internalType":"address","name":"sender","type":"address"},{"indexed":false,"internalType":"uint256","name":"epoch","type":"uint256"}],"name":"AccelerateTheUniverse","type":"event"},{"anonymous":false,"inputs":[{"indexed":true,"internalType":"address","name":"borrowable","type":"address"},{"indexed":true,"internalType":"uint256","name":"epoch","type":"uint256"},{"indexed":false,"internalType":"address","name":"sender","type":"address"},{"indexed":false,"internalType":"uint256","name":"reward","type":"uint256"}],"name":"CollectReward","type":"event"},{"anonymous":false,"inputs":[{"indexed":false,"internalType":"uint256","name":"lastRewardRate","type":"uint256"},{"indexed":false,"internalType":"uint256","name":"newRewardRate","type":"uint256"}],"name":"NewCygPerBlock","type":"event"},{"anonymous":false,"inputs":[{"indexed":false,"internalType":"uint256","name":"previousEpoch","type":"uint256"},{"indexed":false,"internalType":"uint256","name":"newEpoch","type":"uint256"},{"indexed":false,"internalType":"uint256","name":"_oldCygPerBlock","type":"uint256"},{"indexed":false,"internalType":"uint256","name":"_newCygPerBlock","type":"uint256"}],"name":"NewEpoch","type":"event"},{"anonymous":false,"inputs":[{"indexed":true,"internalType":"uint256","name":"shuttleId","type":"uint256"},{"indexed":false,"internalType":"address","name":"borrowable","type":"address"},{"indexed":false,"internalType":"uint256","name":"oldAllocPoint","type":"uint256"},{"indexed":false,"internalType":"uint256","name":"newAllocPoint","type":"uint256"}],"name":"NewShuttleAllocPoint","type":"event"},{"anonymous":false,"inputs":[{"indexed":true,"internalType":"uint256","name":"shuttleId","type":"uint256"},{"indexed":true,"internalType":"address","name":"borrowable","type":"address"},{"indexed":false,"internalType":"uint256","name":"allocPoints","type":"uint256"}],"name":"NewShuttleReward","type":"event"},{"anonymous":false,"inputs":[{"indexed":true,"internalType":"uint256","name":"shuttleId","type":"uint256"},{"indexed":false,"internalType":"address","name":"borrowable","type":"address"},{"indexed":false,"internalType":"uint256","name":"oldAllocPoint","type":"uint256"},{"indexed":false,"internalType":"uint256","name":"currentEpoch","type":"uint256"}],"name":"RemoveShuttleReward","type":"event"},{"anonymous":false,"inputs":[{"indexed":false,"internalType":"address","name":"sender","type":"address"},{"indexed":false,"internalType":"uint256","name":"_birth","type":"uint256"},{"indexed":false,"internalType":"uint256","name":"_death","type":"uint256"},{"indexed":false,"internalType":"uint256","name":"timestamp","type":"uint256"}],"name":"Supernova","type":"event"},{"anonymous":false,"inputs":[{"indexed":true,"internalType":"address","name":"token","type":"address"},{"indexed":true,"internalType":"address","name":"sender","type":"address"},{"indexed":false,"internalType":"uint256","name":"amount","type":"uint256"},{"indexed":false,"internalType":"uint256","name":"currentEpoch","type":"uint256"}],"name":"SweepToken","type":"event"},{"anonymous":false,"inputs":[{"indexed":true,"internalType":"address","name":"borrowable","type":"address"},{"indexed":true,"internalType":"address","name":"account","type":"address"},{"indexed":false,"internalType":"uint256","name":"balance","type":"uint256"},{"indexed":false,"internalType":"uint256","name":"adjustmentFactor","type":"uint256"},{"indexed":false,"internalType":"enum ICygnusComplexRewarder.Position","name":"position","type":"uint8"}],"name":"TrackRewards","type":"event"},{"anonymous":false,"inputs":[{"indexed":true,"internalType":"address","name":"borrowable","type":"address"},{"indexed":false,"internalType":"uint256","name":"lastRewardTime","type":"uint256"},{"indexed":false,"internalType":"uint256","name":"totalShares","type":"uint256"},{"indexed":false,"internalType":"uint256","name":"accRewardPerShare","type":"uint256"}],"name":"UpdateShuttle","type":"event"},{"inputs":[],"name":"ACC_PRECISION","outputs":[{"internalType":"uint256","name":"","type":"uint256"}],"stateMutability":"view","type":"function"},{"inputs":[],"name":"BLOCKS_PER_EPOCH","outputs":[{"internalType":"uint256","name":"","type":"uint256"}],"stateMutability":"view","type":"function"},{"inputs":[],"name":"BLOCKS_PER_YEAR","outputs":[{"internalType":"uint256","name":"","type":"uint256"}],"stateMutability":"view","type":"function"},{"inputs":[],"name":"DURATION","outputs":[{"internalType":"uint256","name":"","type":"uint256"}],"stateMutability":"view","type":"function"},{"inputs":[],"name":"MAX_CYG_PER_BLOCK","outputs":[{"internalType":"uint256","name":"","type":"uint256"}],"stateMutability":"view","type":"function"},{"inputs":[],"name":"REDUCTION_FACTOR_PER_EPOCH","outputs":[{"internalType":"uint256","name":"","type":"uint256"}],"stateMutability":"view","type":"function"},{"inputs":[],"name":"SHARES_PRECISION","outputs":[{"internalType":"uint256","name":"","type":"uint256"}],"stateMutability":"view","type":"function"},{"inputs":[],"name":"TOTAL_EPOCHS","outputs":[{"internalType":"uint256","name":"","type":"uint256"}],"stateMutability":"view","type":"function"},{"inputs":[],"name":"accelerateTheUniverse","outputs":[],"stateMutability":"nonpayable","type":"function"},{"inputs":[{"internalType":"uint256","name":"shuttleId","type":"uint256"},{"internalType":"uint256","name":"allocPoint","type":"uint256"}],"name":"adjustShuttleRewards","outputs":[],"stateMutability":"nonpayable","type":"function"},{"inputs":[],"name":"advanceEpoch","outputs":[],"stateMutability":"nonpayable","type":"function"},{"inputs":[{"internalType":"uint256","name":"","type":"uint256"}],"name":"allShuttles","outputs":[{"internalType":"address","name":"","type":"address"}],"stateMutability":"view","type":"function"},{"inputs":[],"name":"birth","outputs":[{"internalType":"uint256","name":"","type":"uint256"}],"stateMutability":"view","type":"function"},{"inputs":[],"name":"blocksThisEpoch","outputs":[{"internalType":"uint256","name":"","type":"uint256"}],"stateMutability":"view","type":"function"},{"inputs":[],"name":"blocksUntilNextEpoch","outputs":[{"internalType":"uint256","name":"","type":"uint256"}],"stateMutability":"view","type":"function"},{"inputs":[],"name":"blocksUntilSupernova","outputs":[{"internalType":"uint256","name":"","type":"uint256"}],"stateMutability":"view","type":"function"},{"inputs":[],"name":"borrowRewardsWeight","outputs":[{"internalType":"uint256","name":"","type":"uint256"}],"stateMutability":"view","type":"function"},{"inputs":[{"internalType":"uint256","name":"epoch","type":"uint256"}],"name":"calculateCygPerBlock","outputs":[{"internalType":"uint256","name":"rewardRate","type":"uint256"}],"stateMutability":"view","type":"function"},{"inputs":[{"internalType":"uint256","name":"epoch","type":"uint256"}],"name":"calculateEpochRewards","outputs":[{"internalType":"uint256","name":"rewards","type":"uint256"}],"stateMutability":"view","type":"function"},{"inputs":[{"internalType":"address","name":"borrowable","type":"address"},{"internalType":"enum ICygnusComplexRewarder.Position","name":"position","type":"uint8"},{"internalType":"address","name":"to","type":"address"}],"name":"collect","outputs":[],"stateMutability":"nonpayable","type":"function"},{"inputs":[{"internalType":"enum ICygnusComplexRewarder.Position","name":"position","type":"uint8"},{"internalType":"address","name":"to","type":"address"}],"name":"collectCygAll","outputs":[],"stateMutability":"nonpayable","type":"function"},{"inputs":[],"name":"currentEpochRewards","outputs":[{"internalType":"uint256","name":"","type":"uint256"}],"stateMutability":"view","type":"function"},{"inputs":[],"name":"cygPerBlock","outputs":[{"internalType":"uint256","name":"","type":"uint256"}],"stateMutability":"view","type":"function"},{"inputs":[],"name":"cygToken","outputs":[{"internalType":"address","name":"","type":"address"}],"stateMutability":"view","type":"function"},{"inputs":[],"name":"death","outputs":[{"internalType":"uint256","name":"","type":"uint256"}],"stateMutability":"view","type":"function"},{"inputs":[],"name":"doomSwitch","outputs":[{"internalType":"bool","name":"","type":"bool"}],"stateMutability":"view","type":"function"},{"inputs":[{"internalType":"uint256","name":"epoch","type":"uint256"}],"name":"emissionsCurve","outputs":[{"internalType":"uint256","name":"","type":"uint256"}],"stateMutability":"pure","type":"function"},{"inputs":[],"name":"epochProgression","outputs":[{"internalType":"uint256","name":"","type":"uint256"}],"stateMutability":"view","type":"function"},{"inputs":[],"name":"epochRewardsPacing","outputs":[{"internalType":"uint256","name":"","type":"uint256"}],"stateMutability":"view","type":"function"},{"inputs":[],"name":"getBlockTimestamp","outputs":[{"internalType":"uint256","name":"","type":"uint256"}],"stateMutability":"view","type":"function"},{"inputs":[],"name":"getCurrentEpoch","outputs":[{"internalType":"uint256","name":"currentEpoch","type":"uint256"}],"stateMutability":"view","type":"function"},{"inputs":[{"internalType":"uint256","name":"","type":"uint256"}],"name":"getEpochInfo","outputs":[{"internalType":"uint256","name":"epoch","type":"uint256"},{"internalType":"uint256","name":"cygPerBlock","type":"uint256"},{"internalType":"uint256","name":"totalRewards","type":"uint256"},{"internalType":"uint256","name":"totalClaimed","type":"uint256"},{"internalType":"uint256","name":"start","type":"uint256"},{"internalType":"uint256","name":"end","type":"uint256"}],"stateMutability":"view","type":"function"},{"inputs":[],"name":"getRewardWeights","outputs":[{"internalType":"uint256","name":"borrowers","type":"uint256"},{"internalType":"uint256","name":"lenders","type":"uint256"}],"stateMutability":"view","type":"function"},{"inputs":[{"internalType":"address","name":"","type":"address"},{"internalType":"enum ICygnusComplexRewarder.Position","name":"","type":"uint8"}],"name":"getShuttleInfo","outputs":[{"internalType":"bool","name":"active","type":"bool"},{"internalType":"uint256","name":"shuttleId","type":"uint256"},{"internalType":"uint256","name":"totalShares","type":"uint256"},{"internalType":"uint256","name":"accRewardPerShare","type":"uint256"},{"internalType":"uint256","name":"lastRewardTime","type":"uint256"},{"internalType":"uint256","name":"allocPoint","type":"uint256"},{"internalType":"address","name":"bonusRewarder","type":"address"}],"stateMutability":"view","type":"function"},{"inputs":[{"internalType":"address","name":"","type":"address"},{"internalType":"enum ICygnusComplexRewarder.Position","name":"","type":"uint8"},{"internalType":"address","name":"","type":"address"}],"name":"getUserInfo","outputs":[{"internalType":"uint256","name":"shares","type":"uint256"},{"internalType":"int256","name":"rewardDebt","type":"int256"}],"stateMutability":"view","type":"function"},{"inputs":[],"name":"hangar18","outputs":[{"internalType":"contract IHangar18","name":"","type":"address"}],"stateMutability":"view","type":"function"},{"inputs":[{"internalType":"uint256","name":"shuttleId","type":"uint256"},{"internalType":"uint256","name":"allocPoint","type":"uint256"}],"name":"initializeShuttleRewards","outputs":[],"stateMutability":"nonpayable","type":"function"},{"inputs":[],"name":"lastEpochTime","outputs":[{"internalType":"uint256","name":"","type":"uint256"}],"stateMutability":"view","type":"function"},{"inputs":[],"name":"name","outputs":[{"internalType":"string","name":"","type":"string"}],"stateMutability":"view","type":"function"},{"inputs":[],"name":"nextEpochRewards","outputs":[{"internalType":"uint256","name":"","type":"uint256"}],"stateMutability":"view","type":"function"},{"inputs":[{"internalType":"address","name":"borrowable","type":"address"},{"internalType":"enum ICygnusComplexRewarder.Position","name":"position","type":"uint8"},{"internalType":"address","name":"borrower","type":"address"}],"name":"pendingCyg","outputs":[{"internalType":"uint256","name":"pending","type":"uint256"}],"stateMutability":"view","type":"function"},{"inputs":[],"name":"previousEpochRewards","outputs":[{"internalType":"uint256","name":"","type":"uint256"}],"stateMutability":"view","type":"function"},{"inputs":[{"internalType":"uint256","name":"shuttleId","type":"uint256"},{"internalType":"address","name":"bonusRewarder","type":"address"}],"name":"setBonusRewarder","outputs":[],"stateMutability":"nonpayable","type":"function"},{"inputs":[{"internalType":"uint256","name":"_cygPerBlock","type":"uint256"}],"name":"setCygPerBlock","outputs":[],"stateMutability":"nonpayable","type":"function"},{"inputs":[],"name":"setDoomSwitch","outputs":[],"stateMutability":"nonpayable","type":"function"},{"inputs":[{"internalType":"uint256","name":"_borrowRewardsWeight","type":"uint256"}],"name":"setRewardWeights","outputs":[],"stateMutability":"nonpayable","type":"function"},{"inputs":[],"name":"shuttlesLength","outputs":[{"internalType":"uint256","name":"","type":"uint256"}],"stateMutability":"view","type":"function"},{"inputs":[],"name":"supernova","outputs":[],"stateMutability":"nonpayable","type":"function"},{"inputs":[{"internalType":"address","name":"token","type":"address"}],"name":"sweepToken","outputs":[],"stateMutability":"nonpayable","type":"function"},{"inputs":[],"name":"totalAllocPoint","outputs":[{"internalType":"uint256","name":"","type":"uint256"}],"stateMutability":"view","type":"function"},{"inputs":[],"name":"totalCygClaimed","outputs":[{"internalType":"uint256","name":"claimed","type":"uint256"}],"stateMutability":"view","type":"function"},{"inputs":[],"name":"totalCygRewards","outputs":[{"internalType":"uint256","name":"","type":"uint256"}],"stateMutability":"view","type":"function"},{"inputs":[],"name":"totalProgression","outputs":[{"internalType":"uint256","name":"","type":"uint256"}],"stateMutability":"view","type":"function"},{"inputs":[{"internalType":"address","name":"account","type":"address"},{"internalType":"uint256","name":"balance","type":"uint256"},{"internalType":"uint256","name":"adjustmentFactor","type":"uint256"},{"internalType":"enum ICygnusComplexRewarder.Position","name":"position","type":"uint8"}],"name":"trackRewards","outputs":[],"stateMutability":"nonpayable","type":"function"},{"inputs":[{"internalType":"address","name":"borrowable","type":"address"}],"name":"updateShuttle","outputs":[],"stateMutability":"nonpayable","type":"function"},{"inputs":[],"name":"version","outputs":[{"internalType":"string","name":"","type":"string"}],"stateMutability":"view","type":"function"}],"evm":{"bytecode":{"linkReferences":{},"object":"60406101208152346200043f576200369a908138039182620000218162000444565b93849283396060938491810103126200043f578051926001600160a01b039182851685036200043f57602081015192831683036200043f578301519360016000938160ff19865416178555670b1a2bc2ec50000060085561010096875284928593865b80156200025357505062140cd0809404918260055567069789fbbc4f800080841162000236575060e052608052426007554260a052630784ce004201804211620002225760c0528242019182421162000222578382029382850414821517156200022257608094927fcc53a96dddb8d3b8710c4932d9e90652a4eaef0bf4c37a13dc4d806e1b54cb4d9694926005926200011f60c062000444565b94878652602086019283528a8601908152868601918883528987019342855260a0880195865289805260026020528c8a20975188555190870155516002860155516003850155516004840155519101556005549085519280845280602085015286840152820152a1516131f39182620004a783396080518281816104d80152818161070201528181610cb501528181610f86015281816128100152612fd7015260a0518281816105ab015281816108b40152818161246f015261286f015260c05182818161112d015281816111fd015281816124400152612895015260e0518281816117ff01528181611ca80152612c1a01525181818161060b01526125a40152f35b634e487b7160e01b86526011600452602486fd5b604490848a519163c3af7cc760e01b835260048301526024820152fd5b909450885194808603958611620002ff57818703958787116200042b57670de0b6b3a76400009689905b808210620003d057505086670de0b6b3a764000003670de0b6b3a76400008111620003bc5786908a986658d15e1762800093848102600019868309958482881083018089039814918882111594099682881190039682039562000313575b50505050505050858101809111620002ff57620002f9909162000480565b62000084565b634e487b7160e01b88526011600452602488fd5b909192939495969b506200038b57506200037e57670de0b6b3a763ffff190181168091046002808260030218808302820302808302820302808302820302808302820302808302820302809202900302928782808d03040102910417029438808080808080620002db565b63ae47f7028b526004601cfd5b935050909250670de0b6b3a764000014620003af57049438808080808080620002db565b63ae47f70289526004601cfd5b634e487b7160e01b8a52601160045260248afd5b9097670d87e55590018000907812eb73eae4c8b0077db7b119a3928413fff44d230654ac05ac811182026200041e576200041791670de0b6b3a76400009102049862000480565b906200027d565b63bac65e5b8c526004601cfd5b634e487b7160e01b89526011600452602489fd5b600080fd5b6040519190601f01601f191682016001600160401b038111838210176200046a57604052565b634e487b7160e01b600052604160045260246000fd5b6000198114620004905760010190565b634e487b7160e01b600052601160045260246000fdfe6040608081526004908136101561001557600080fd5b6000803560e01c806301bac4c6146120e557806304d4e9bd1461208f57806306fdde03146120205780630bfc4af914611fc6578063135022c214611f4a57806317caf6f114611f0d5780631ad4c8c314611e9e5780631bafed5214611e265780631be0528914611de95780631be1956014611c055780631d5e8e5014611a465780631f3adc0f14611a0a57806328419d62146119ca57806332fcd9661461197c5780633cf80e6c146118fe5780634a91f2b1146118785780634f3d90b1146118235780634f573686146117b45780634fcc55751461173b5780635104517f146116c75780635303654f1461160957806353cde488146115cc5780635493b5d61461158f57806354fd4d501461151c57806358322a8e146114535780635ccb14ac146113ca5780635d8beace1461135b5780635de7fcd0146113155780635f15c3c9146112db57806361480eec146112665780636673fd97146112205780636fa42261146111c757806372e127cb1461118a578063796b89b9146111515780637c4941ec146110f457806389c614b8146110b75780638ecf3b4514610eb257806393c3677b14610bed5780639d3bbe6e14610b255780639e81b63414610ae5578063abfdf70a14610aa8578063ac9462f514610a69578063b97dd9e214610a2e578063bb014b8214610918578063c1f1e5ae146108d7578063c81ba8f01461087e578063cb87f7f31461066b578063d37db1d21461062e578063d4f7286b146105d5578063d797c4c31461056b578063e6c5b8ea146104fc578063e8a24e1d1461048d578063f126d9641461044b578063f2b128a414610359578063f6503e6c146102ce5763fd59c2991461028857600080fd5b346102cb5760207ffffffffffffffffffffffffffffffffffffffffffffffffffffffffffffffffc3601126102cb57506102c46020923561259c565b9051908152f35b80fd5b5090346103555760207ffffffffffffffffffffffffffffffffffffffffffffffffffffffffffffffffc36011261035557610309833561259c565b9162140cd092838102938185041490151715610329576020838351908152f35b806011857f4e487b71000000000000000000000000000000000000000000000000000000006024945252fd5b5080fd5b5091903461044757827ffffffffffffffffffffffffffffffffffffffffffffffffffffffffffffffffc3601126104475782549160ff8316156104205750907f43604600d5d5b743877b9625896fea0414a17136bbe657753a96dc6f80ede1b960606001937fffffffffffffffffffffffffffffffffffffffffffffffffffffffffffffff0080941686556103ec612eec565b6103f4612637565b6103fc6129d9565b84549061040761243e565b908051928352336020840152820152a182541617815580f35b90517f37ed32e8000000000000000000000000000000000000000000000000000000008152fd5b8280fd5b50903461035557817ffffffffffffffffffffffffffffffffffffffffffffffffffffffffffffffffc3601126103555760209060ff6009541690519015158152f35b50903461035557817ffffffffffffffffffffffffffffffffffffffffffffffffffffffffffffffffc360112610355576020905173ffffffffffffffffffffffffffffffffffffffff7f0000000000000000000000000000000000000000000000000000000000000000168152f35b5082346103555760807ffffffffffffffffffffffffffffffffffffffffffffffffffffffffffffffffc360112610355573573ffffffffffffffffffffffffffffffffffffffff8116810361035557606435600281101561044757610568916044359060243590612d2e565b80f35b50903461035557817ffffffffffffffffffffffffffffffffffffffffffffffffffffffffffffffffc360112610355576020906102c4630784ce006105d07f000000000000000000000000000000000000000000000000000000000000000042612431565b6130e7565b50903461035557817ffffffffffffffffffffffffffffffffffffffffffffffffffffffffffffffffc36011261035557602090517f00000000000000000000000000000000000000000000000000000000000000008152f35b50903461035557817ffffffffffffffffffffffffffffffffffffffffffffffffffffffffffffffffc36011261035557602090516301e133808152f35b50913461044757817ffffffffffffffffffffffffffffffffffffffffffffffffffffffffffffffffc36011261044757803591602435906106aa612637565b6106b26129d9565b6106ba612f93565b80517f1ad4c8c3000000000000000000000000000000000000000000000000000000008152848482015273ffffffffffffffffffffffffffffffffffffffff60a082602481847f0000000000000000000000000000000000000000000000000000000000000000165afa91821561087457879261083f575b50811693848752600360205261074b6001848920612328565b9160ff835416156107ee5750509183916060937f9436a68f01cf8a4f756c053a98d6d88cdbd763a2d8ad77273779d054e2b82eef9588526003602052600561079589848120612328565b9101906107db6107ad6005845493019283549061258f565b926107c3866107be86600654612431565b61258f565b6006556107d26008548761309e565b80915585612431565b905581519384526020840152820152a280f35b83517f316e864300000000000000000000000000000000000000000000000000000000815291820187815273ffffffffffffffffffffffffffffffffffffffff909116602082015281906040010390fd5b61086191925060a03d811161086d575b61085981836121af565b810190612f2c565b50509150509038610732565b503d61084f565b83513d89823e3d90fd5b50903461035557817ffffffffffffffffffffffffffffffffffffffffffffffffffffffffffffffffc36011261035557602090517f00000000000000000000000000000000000000000000000000000000000000008152f35b50903461035557817ffffffffffffffffffffffffffffffffffffffffffffffffffffffffffffffffc360112610355576020905167069789fbbc4f80008152f35b5091903461044757807ffffffffffffffffffffffffffffffffffffffffffffffffffffffffffffffffc360112610447578135916002831015610a2a5760243573ffffffffffffffffffffffffffffffffffffffff918282168203610a265785549360ff851615610a005750507fffffffffffffffffffffffffffffffffffffffffffffffffffffffffffffff0080931685556109b3612637565b6109bb6129d9565b6001936109c785612960565b9283519386885b8681106109e15789828982541617815580f35b6109f88686866109f185886129c5565b5116612b65565b0187906109ce565b517f37ed32e8000000000000000000000000000000000000000000000000000000008152fd5b8580fd5b8380fd5b50903461035557817ffffffffffffffffffffffffffffffffffffffffffffffffffffffffffffffffc360112610355576020906102c461243e565b50903461035557817ffffffffffffffffffffffffffffffffffffffffffffffffffffffffffffffffc360112610355576020906102c460075442612431565b50903461035557817ffffffffffffffffffffffffffffffffffffffffffffffffffffffffffffffffc360112610355576020906008549051908152f35b50903461035557817ffffffffffffffffffffffffffffffffffffffffffffffffffffffffffffffffc36011261035557610309610b2061243e565b61259c565b5091903461044757807ffffffffffffffffffffffffffffffffffffffffffffffffffffffffffffffffc36011261044757813573ffffffffffffffffffffffffffffffffffffffff90818116809103610be957602435906002821015610a2657908386610b9b9360e09852600360205220612328565b9060ff82541693600183015493600284015490600385015492850154936006600587015496015416958151971515885260208801528601526060850152608084015260a083015260c0820152f35b8480fd5b50913461044757817ffffffffffffffffffffffffffffffffffffffffffffffffffffffffffffffffc36011261044757825490803560243560ff841615610e8a577fffffffffffffffffffffffffffffffffffffffffffffffffffffffffffffff008094168655610c5c612637565b610c646129d9565b610c6c612f93565b8451947f1ad4c8c3000000000000000000000000000000000000000000000000000000008652828487015273ffffffffffffffffffffffffffffffffffffffff60a087602481847f0000000000000000000000000000000000000000000000000000000000000000165afa968715610e80578897610e5b575b50808716948589526003602052600197610d0189858c20612328565b908960ff835416151514610e095750868a5260036020526005610d6b81610d2a8d888120612328565b93610d378960065461258f565b6006558c8c8254161781558c8c865416178555898d820155898d860155610d606008548a61309e565b918291015587612431565b91015587549068010000000000000000821015610ddd5750917f68bea3f037520d478c14fd27a27947249aade51810b62999af0776bbd0097b96939186610db9858b602097018c558b61236f565b909283549160031b90811b9283911b1691191617905551908152a382541617815580f35b8960416024927f4e487b7100000000000000000000000000000000000000000000000000000000835252fd5b84517fc5b4745600000000000000000000000000000000000000000000000000000000815280840188815273ffffffffffffffffffffffffffffffffffffffff90921660208301529081906040010390fd5b610e7491975060a03d811161086d5761085981836121af565b50509150509538610ce5565b82513d8a823e3d90fd5b8285517f37ed32e8000000000000000000000000000000000000000000000000000000008152fd5b50823461035557827ffffffffffffffffffffffffffffffffffffffffffffffffffffffffffffffffc3601126103555780356024359073ffffffffffffffffffffffffffffffffffffffff92838316809303610be95784549360ff85161561108f577fffffffffffffffffffffffffffffffffffffffffffffffffffffffffffffff008095168655610f42612637565b610f4a6129d9565b610f52612f93565b8651907f1ad4c8c3000000000000000000000000000000000000000000000000000000008252838383015260a082602481847f0000000000000000000000000000000000000000000000000000000000000000165afa918215611085578792611060575b50811686526003602052610fcd6001888820612328565b9660ff88541615611011576006880180547fffffffffffffffffffffffff000000000000000000000000000000000000000016861790558654861660011787558680f35b517f316e864300000000000000000000000000000000000000000000000000000000815291820192835273ffffffffffffffffffffffffffffffffffffffff1660208301529081906040010390fd5b61107991925060a03d811161086d5761085981836121af565b50509150509088610fb6565b88513d89823e3d90fd5b5085517f37ed32e8000000000000000000000000000000000000000000000000000000008152fd5b50903461035557817ffffffffffffffffffffffffffffffffffffffffffffffffffffffffffffffffc360112610355576020906007549051908152f35b50903461035557817ffffffffffffffffffffffffffffffffffffffffffffffffffffffffffffffffc360112610355576020906102c4427f0000000000000000000000000000000000000000000000000000000000000000612431565b50903461035557817ffffffffffffffffffffffffffffffffffffffffffffffffffffffffffffffffc3601126103555760209051428152f35b50346102cb5760207ffffffffffffffffffffffffffffffffffffffffffffffffffffffffffffffffc3601126102cb57506102c4602092356124ca565b50903461035557817ffffffffffffffffffffffffffffffffffffffffffffffffffffffffffffffffc36011261035557602090517f00000000000000000000000000000000000000000000000000000000000000008152f35b50903461035557817ffffffffffffffffffffffffffffffffffffffffffffffffffffffffffffffffc360112610355576020906102c462140cd06105d060075442612431565b50346102cb57807ffffffffffffffffffffffffffffffffffffffffffffffffffffffffffffffffc3601126102cb5761129d612637565b6112a56129d9565b6112ad612f93565b60017fffffffffffffffffffffffffffffffffffffffffffffffffffffffffffffff00600954161760095580f35b50903461035557817ffffffffffffffffffffffffffffffffffffffffffffffffffffffffffffffffc360112610355576020905160608152f35b50903461035557817ffffffffffffffffffffffffffffffffffffffffffffffffffffffffffffffffc36011261035557602090516c010000000000000000000000008152f35b5091346104475761136c36826122f5565b9285929192549460ff861615610a0057866001876113c18888887fffffffffffffffffffffffffffffffffffffffffffffffffffffffffffffff0080951687556113b4612637565b6113bc6129d9565b612b65565b82541617815580f35b5091346104475760207ffffffffffffffffffffffffffffffffffffffffffffffffffffffffffffffffc36011261044757803591611406612637565b61140e6129d9565b611416612f93565b670de0b6b3a7640000831161142d57505060085580f35b517fa23de17f000000000000000000000000000000000000000000000000000000008152fd5b50346102cb57807ffffffffffffffffffffffffffffffffffffffffffffffffffffffffffffffffc3601126102cb5761148a61243e565b8061149c575060209250905b51908152f35b7fffffffffffffffffffffffffffffffffffffffffffffffffffffffffffffffff81019081116114f0576114cf9061259c565b9062140cd09182810292818404149015171561032957506020925090611496565b6024826011867f4e487b7100000000000000000000000000000000000000000000000000000000835252fd5b50903461035557817ffffffffffffffffffffffffffffffffffffffffffffffffffffffffffffffffc3601126103555761158b9061155a600561221f565b907f312e302e3000000000000000000000000000000000000000000000000000000060208301525191829182612269565b0390f35b50903461035557817ffffffffffffffffffffffffffffffffffffffffffffffffffffffffffffffffc360112610355576020906005549051908152f35b50903461035557817ffffffffffffffffffffffffffffffffffffffffffffffffffffffffffffffffc360112610355576020906001549051908152f35b5091346104475760207ffffffffffffffffffffffffffffffffffffffffffffffffffffffffffffffffc3601126104475780359073ffffffffffffffffffffffffffffffffffffffff82168203610a2a5783549260ff841615610a0057846001856116bd83877fffffffffffffffffffffffffffffffffffffffffffffffffffffffffffffff00809416825561169d612eec565b6116a5612637565b6116ad6129d9565b6116b78582612a44565b50612a44565b5082541617815580f35b50903461035557817ffffffffffffffffffffffffffffffffffffffffffffffffffffffffffffffffc360112610355576102c460209261173561171362140cd06105d060075442612431565b61171b61243e565b83526002865260038560028186200154942001549261309e565b906130e7565b50903461035557817ffffffffffffffffffffffffffffffffffffffffffffffffffffffffffffffffc36011261035557819061177561243e565b83905b8082111561178a576020848451908152f35b90926117a86117ae918587526002602052600385882001549061258f565b9361249d565b90611778565b50903461035557817ffffffffffffffffffffffffffffffffffffffffffffffffffffffffffffffffc360112610355576020905173ffffffffffffffffffffffffffffffffffffffff7f0000000000000000000000000000000000000000000000000000000000000000168152f35b50903461035557817ffffffffffffffffffffffffffffffffffffffffffffffffffffffffffffffffc3601126103555761185f60075442612431565b9162140cd0928303928311610329576020838351908152f35b50913461044757827ffffffffffffffffffffffffffffffffffffffffffffffffffffffffffffffffc3601126104475782549160ff831615610a0057836001847fffffffffffffffffffffffffffffffffffffffffffffffffffffffffffffff0080911683556118e6612eec565b6118ee612637565b6118f66129d9565b6113c16127ae565b50913461044757827ffffffffffffffffffffffffffffffffffffffffffffffffffffffffffffffffc3601126104475782549160ff831615610a0057836001847fffffffffffffffffffffffffffffffffffffffffffffffffffffffffffffff00809116835561196c612eec565b611974612637565b6113c16129d9565b50903461035557817ffffffffffffffffffffffffffffffffffffffffffffffffffffffffffffffffc3601126103555760209051740100000000000000000000000000000000000000008152f35b50903461035557817ffffffffffffffffffffffffffffffffffffffffffffffffffffffffffffffffc36011261035557602090516658d15e176280008152f35b50903461035557817ffffffffffffffffffffffffffffffffffffffffffffffffffffffffffffffffc360112610355576020905162140cd08152f35b50913461044757611a5736826122f5565b929173ffffffffffffffffffffffffffffffffffffffff80911692838752602096600388528387822090611a8a91612328565b95875193611a9960e0866121af565b875460ff161515855260018801548a86015260028801549589860196875260038901549760608701988952858a015496608081019788528360058c01549b60a083019c8d5260060154169060c001528452848b5289842090611afa91612328565b91168252885286812095875196611b1189896121af565b805488526001015495898801968752519451935180421180611bfc575b611b4f575b89896102c489611b448a8d516123b6565b60a01c90519061261e565b611b8091611b6f611b66611b77939a999a42612431565b600554906123b6565b9051906123b6565b600654906123f8565b918260a01b92808404740100000000000000000000000000000000000000001490151715611bd0575050611b4492611bc06102c4969593611bc6936123f8565b9061258f565b9181943880611b33565b9060116024927f4e487b7100000000000000000000000000000000000000000000000000000000835252fd5b50841515611b2e565b50823461035557602090817ffffffffffffffffffffffffffffffffffffffffffffffffffffffffffffffffc3601126104475780359073ffffffffffffffffffffffffffffffffffffffff9283831691828403610a265785549460ff861615611dc1577fffffffffffffffffffffffffffffffffffffffffffffffffffffffffffffff008096168755611c96612637565b611c9e6129d9565b611ca6612f93565b7f00000000000000000000000000000000000000000000000000000000000000009081168414611d6c57506370a0823186523082528186604460168284806024601c8c5afa601f3d11168551029833601a5289603a5269a9059cbb00000000000082525af13d156001885114171615611d61575084957fee2522ca264e96c7cef76269664e2a4cea70ad76b78ee5b01d0587798a0a72d691600196603a52611d4c61243e565b9082519586528501523393a382541617815580f35b6390b8ec188652601cfd5b87517fef52f72d00000000000000000000000000000000000000000000000000000000815273ffffffffffffffffffffffffffffffffffffffff80871693820193845290911660208301529081906040010390fd5b5086517f37ed32e8000000000000000000000000000000000000000000000000000000008152fd5b50903461035557817ffffffffffffffffffffffffffffffffffffffffffffffffffffffffffffffffc3601126103555760209051630784ce008152f35b50903461035557817ffffffffffffffffffffffffffffffffffffffffffffffffffffffffffffffffc36011261035557611e5e61243e565b60018101809111611e72576103099061259c565b6024836011867f4e487b7100000000000000000000000000000000000000000000000000000000835252fd5b5091346104475760207ffffffffffffffffffffffffffffffffffffffffffffffffffffffffffffffffc3601126104475735916001548310156102cb575073ffffffffffffffffffffffffffffffffffffffff611efe602093600161236f565b92905490519260031b1c168152f35b50903461035557817ffffffffffffffffffffffffffffffffffffffffffffffffffffffffffffffffc360112610355576020906006549051908152f35b509190346104475760207ffffffffffffffffffffffffffffffffffffffffffffffffffffffffffffffffc360112610447578060c09383358152600260205220805492600182015492600283015490600560038501549385015494015494815196875260208701528501526060840152608083015260a0820152f35b50913461044757916120058293611fdd36826122f5565b93919273ffffffffffffffffffffffffffffffffffffffff8094168652602052858520612328565b91168252602052206001815491015482519182526020820152f35b50903461035557817ffffffffffffffffffffffffffffffffffffffffffffffffffffffffffffffffc3601126103555761158b9061205e601b61221f565b907f4379676e757344414f3a20436f6d706c6578205265776172646572000000000060208301525191829182612269565b50823461035557817ffffffffffffffffffffffffffffffffffffffffffffffffffffffffffffffffc3601126103555760085491670de0b6b3a764000091838303928311611bd057505082519182526020820152f35b5091346104475760207ffffffffffffffffffffffffffffffffffffffffffffffffffffffffffffffffc36011261044757803590612121612637565b6121296129d9565b612131612f93565b67069789fbbc4f800080831161217b57847f3ea86743bc8b6977a0693f6611ad7256d6ec1e3f996c6cba22e146152959ddff8585600554908060055582519182526020820152a180f35b916044928451927fc3af7cc70000000000000000000000000000000000000000000000000000000084528301526024820152fd5b90601f7fffffffffffffffffffffffffffffffffffffffffffffffffffffffffffffffe0910116810190811067ffffffffffffffff8211176121f057604052565b7f4e487b7100000000000000000000000000000000000000000000000000000000600052604160045260246000fd5b9067ffffffffffffffff82116121f0576040519161226560207fffffffffffffffffffffffffffffffffffffffffffffffffffffffffffffffe0601f84011601846121af565b8252565b60208082528251818301819052939260005b8581106122bb575050507fffffffffffffffffffffffffffffffffffffffffffffffffffffffffffffffe0601f8460006040809697860101520116010190565b81810183015184820160400152820161227b565b359073ffffffffffffffffffffffffffffffffffffffff821682036122f057565b600080fd5b908160609103126122f057612309816122cf565b91602082013560028110156122f05760406123259193016122cf565b90565b90600281101561234057600052602052604060002090565b7f4e487b7100000000000000000000000000000000000000000000000000000000600052602160045260246000fd5b80548210156123875760005260206000200190600090565b7f4e487b7100000000000000000000000000000000000000000000000000000000600052603260045260246000fd5b818102929181159184041417156123c957565b7f4e487b7100000000000000000000000000000000000000000000000000000000600052601160045260246000fd5b8115612402570490565b7f4e487b7100000000000000000000000000000000000000000000000000000000600052601260045260246000fd5b919082039182116123c957565b7f00000000000000000000000000000000000000000000000000000000000000004210156124985762140cd06124947f000000000000000000000000000000000000000000000000000000000000000042612431565b0490565b606090565b7fffffffffffffffffffffffffffffffffffffffffffffffffffffffffffffffff81146123c95760010190565b606003606081116123c957670de0b6b3a764000060009182905b808210612538575050670de0b6b3a76400000390670de0b6b3a7640000821161250b575090565b807f4e487b7100000000000000000000000000000000000000000000000000000000602492526011600452fd5b9091670d87e55590018000907812eb73eae4c8b0077db7b119a3928413fff44d230654ac05ac811182026125825761257c91670de0b6b3a76400009102049261249d565b906124e4565b63bac65e5b85526004601cfd5b919082018092116123c957565b6000908190827f00000000000000000000000000000000000000000000000000000000000000005b828211156125d95750505062140cd091500490565b9091925061261461260e6126076125f08785612431565b6658d15e17628000612601876124ca565b9161312a565b809661258f565b9261249d565b90939291936125c4565b818103929160001380158285131691841216176123c957565b61264a60075462140cd091829142612431565b046126525750565b61265a61243e565b60608110156127835760055461266f8261259c565b6005554260075560009282845260026020526040842042600482015581420180421161275657600582015583815560055480600183015582810292818404149015171561272957600201557fffffffffffffffffffffffffffffffffffffffffffffffffffffffffffffffff82019282841161250b5750916080917fcc53a96dddb8d3b8710c4932d9e90652a4eaef0bf4c37a13dc4d806e1b54cb4d9360055491604051938452602084015260408301526060820152a15b565b6024857f4e487b710000000000000000000000000000000000000000000000000000000081526011600452fd5b6024867f4e487b710000000000000000000000000000000000000000000000000000000081526011600452fd5b50506127276127ae565b519073ffffffffffffffffffffffffffffffffffffffff821682036122f057565b6127b661243e565b906060821061295c575060ff600954161561292d576040517ff851a44000000000000000000000000000000000000000000000000000000000815273ffffffffffffffffffffffffffffffffffffffff91602082600481867f0000000000000000000000000000000000000000000000000000000000000000165afa918215612921576000926128c2575b5060807f3448d68e439b81df30dbd68606f415f65c9eabaaef0aca1ffc0368cc3954c6dc91604051903382527f000000000000000000000000000000000000000000000000000000000000000060208301527f000000000000000000000000000000000000000000000000000000000000000060408301526060820152a116ff5b90916020823d8211612919575b816128dc602093836121af565b810103126102cb575060806129117f3448d68e439b81df30dbd68606f415f65c9eabaaef0aca1ffc0368cc3954c6dc9261278d565b929150612841565b3d91506128cf565b6040513d6000823e3d90fd5b7f4e487b7100000000000000000000000000000000000000000000000000000000600052600160045260246000fd5b9050565b9060405191828154918282526020928383019160005283600020936000905b82821061299557505050612727925003836121af565b855473ffffffffffffffffffffffffffffffffffffffff168452600195860195889550938101939091019061297f565b80518210156123875760209160051b010190565b60018054906129e781612960565b90600091825b8481106129fb575050505050565b612a3f90612a398573ffffffffffffffffffffffffffffffffffffffff612a2e8782612a27878a6129c5565b5116612a44565b50612a2784876129c5565b5061249d565b6129ed565b73ffffffffffffffffffffffffffffffffffffffff612a759193929316928360005260036020526040600020612328565b91600483018054804211612a8857505050565b60028501549081612ad6575b506060907f76e5c786dd7c9c1cd87203f33dbc49d953ff07b99de74baa864f04a0e3b6aa1c9242905560038601546040519142835260208301526040820152a2565b611b77612aeb612af6926005549042036123b6565b6005880154906123b6565b908160a01b918083047401000000000000000000000000000000000000000014901517156123c9577f76e5c786dd7c9c1cd87203f33dbc49d953ff07b99de74baa864f04a0e3b6aa1c92612b4c826060946123f8565b612b5b6003890191825461258f565b9055925090612a94565b9190612b718184612a44565b9073ffffffffffffffffffffffffffffffffffffffff809416926000908482526004602052612ba4604093848420612328565b3383526020526001612bc08484209560038754910154906123b6565b60a01c940193612bd185548261261e565b948515612d085755612be161243e565b958683526002602052600384842001612bfb86825461258f565b90558683526002602052600384842001546002858520015410610447577f00000000000000000000000000000000000000000000000000000000000000001690813b156104475783517f40c10f1900000000000000000000000000000000000000000000000000000000815273ffffffffffffffffffffffffffffffffffffffff91909116600482015260248101859052919081908390604490829084905af18015612cfc5791612ce793917fbc96baf3023d0b9ea3a899e000f15d5f0f7a8b064774c1eed6b4cc63fcbd1b199593612cec575b50505133815260208101919091529081906040820190565b0390a3565b612cf5916121af565b3880612ccf565b508251903d90823e3d90fd5b5050505050505050565b919091600083820193841291129080158216911516176123c957565b73ffffffffffffffffffffffffffffffffffffffff169290918315612ee657612d578233612a44565b906000913383526004602052612d708460408520612328565b8684526020526040832090612d93836c010000000000000000000000008861312a565b612d9e83548261261e565b92600383015491828502927f8000000000000000000000000000000000000000000000000000000000000000811488871216612eb9578584051485151715612e8c5791612e1074010000000000000000000000000000000000000000600184600296612e1b9896550192058254612d12565b905501918254612d12565b905560405193845260208401526002821015612e5f575060408201527f9776a1047fd3e7459fcc529a4fcc441af3c74bab1415fbdb0d2e70990f545e3f60603392a3565b807f4e487b7100000000000000000000000000000000000000000000000000000000602492526021600452fd5b6024877f4e487b710000000000000000000000000000000000000000000000000000000081526011600452fd5b6024887f4e487b710000000000000000000000000000000000000000000000000000000081526011600452fd5b50505050565b323303612ef557565b6040517f3e1eb266000000000000000000000000000000000000000000000000000000008152336004820152326024820152604490fd5b908160a09103126122f057805180151581036122f0579160208201516affffffffffffffffffffff811681036122f05791612f696040820161278d565b916080612f786060840161278d565b9201516bffffffffffffffffffffffff811681036122f05790565b6040517ff851a44000000000000000000000000000000000000000000000000000000000815273ffffffffffffffffffffffffffffffffffffffff602082600481847f0000000000000000000000000000000000000000000000000000000000000000165afa91821561292157600092613063575b50811633036130145750565b6040517f5113afbd00000000000000000000000000000000000000000000000000000000815273ffffffffffffffffffffffffffffffffffffffff919091166004820152336024820152604490fd5b90916020823d8211613096575b8161307d602093836121af565b810103126102cb575061308f9061278d565b9038613008565b3d9150613070565b90807fffffffffffffffffffffffffffffffffffffffffffffffffffffffffffffffff04821181026130d957670de0b6b3a764000091020490565b63bac65e5b6000526004601cfd5b670de0b6b3a7640000907812725dd1d243aba0e75fe645cc4873f9e65afe688c928e1f21811182021583021561311c57020490565b637c5f487d6000526004601cfd5b91600092828102927fffffffffffffffffffffffffffffffffffffffffffffffffffffffffffffffff81830991848310850180840393146131ca57828411156131bd57908391099060018386038416808080960460028082600302188083028203028083028203028083028203028083028203028083028203028092029003029703040190848311900302920304170290565b63ae47f70286526004601cfd5b5050509182156131d957500490565b63ae47f70290526004601cfdfea164736f6c6343000811000a","opcodes":"PUSH1 0x40 PUSH2 0x120 DUP2 MSTORE CALLVALUE PUSH3 0x43F JUMPI PUSH3 0x369A SWAP1 DUP2 CODESIZE SUB SWAP2 DUP3 PUSH3 0x21 DUP2 PUSH3 0x444 JUMP JUMPDEST SWAP4 DUP5 SWAP3 DUP4 CODECOPY PUSH1 0x60 SWAP4 DUP5 SWAP2 DUP2 ADD SUB SLT PUSH3 0x43F JUMPI DUP1 MLOAD SWAP3 PUSH1 0x1 PUSH1 0x1 PUSH1 0xA0 SHL SUB SWAP2 DUP3 DUP6 AND DUP6 SUB PUSH3 0x43F JUMPI PUSH1 0x20 DUP2 ADD MLOAD SWAP3 DUP4 AND DUP4 SUB PUSH3 0x43F JUMPI DUP4 ADD MLOAD SWAP4 PUSH1 0x1 PUSH1 0x0 SWAP4 DUP2 PUSH1 0xFF NOT DUP7 SLOAD AND OR DUP6 SSTORE PUSH8 0xB1A2BC2EC500000 PUSH1 0x8 SSTORE PUSH2 0x100 SWAP7 DUP8 MSTORE DUP5 SWAP3 DUP6 SWAP4 DUP7 JUMPDEST DUP1 ISZERO PUSH3 0x253 JUMPI POP POP PUSH3 0x140CD0 DUP1 SWAP5 DIV SWAP2 DUP3 PUSH1 0x5 SSTORE PUSH8 0x69789FBBC4F8000 DUP1 DUP5 GT PUSH3 0x236 JUMPI POP PUSH1 0xE0 MSTORE PUSH1 0x80 MSTORE TIMESTAMP PUSH1 0x7 SSTORE TIMESTAMP PUSH1 0xA0 MSTORE PUSH4 0x784CE00 TIMESTAMP ADD DUP1 TIMESTAMP GT PUSH3 0x222 JUMPI PUSH1 0xC0 MSTORE DUP3 TIMESTAMP ADD SWAP2 DUP3 TIMESTAMP GT PUSH3 0x222 JUMPI DUP4 DUP3 MUL SWAP4 DUP3 DUP6 DIV EQ DUP3 ISZERO OR ISZERO PUSH3 0x222 JUMPI PUSH1 0x80 SWAP5 SWAP3 PUSH32 0xCC53A96DDDB8D3B8710C4932D9E90652A4EAEF0BF4C37A13DC4D806E1B54CB4D SWAP7 SWAP5 SWAP3 PUSH1 0x5 SWAP3 PUSH3 0x11F PUSH1 0xC0 PUSH3 0x444 JUMP JUMPDEST SWAP5 DUP8 DUP7 MSTORE PUSH1 0x20 DUP7 ADD SWAP3 DUP4 MSTORE DUP11 DUP7 ADD SWAP1 DUP2 MSTORE DUP7 DUP7 ADD SWAP2 DUP9 DUP4 MSTORE DUP10 DUP8 ADD SWAP4 TIMESTAMP DUP6 MSTORE PUSH1 0xA0 DUP9 ADD SWAP6 DUP7 MSTORE DUP10 DUP1 MSTORE PUSH1 0x2 PUSH1 0x20 MSTORE DUP13 DUP11 KECCAK256 SWAP8 MLOAD DUP9 SSTORE MLOAD SWAP1 DUP8 ADD SSTORE MLOAD PUSH1 0x2 DUP7 ADD SSTORE MLOAD PUSH1 0x3 DUP6 ADD SSTORE MLOAD PUSH1 0x4 DUP5 ADD SSTORE MLOAD SWAP2 ADD SSTORE PUSH1 0x5 SLOAD SWAP1 DUP6 MLOAD SWAP3 DUP1 DUP5 MSTORE DUP1 PUSH1 0x20 DUP6 ADD MSTORE DUP7 DUP5 ADD MSTORE DUP3 ADD MSTORE LOG1 MLOAD PUSH2 0x31F3 SWAP2 DUP3 PUSH3 0x4A7 DUP4 CODECOPY PUSH1 0x80 MLOAD DUP3 DUP2 DUP2 PUSH2 0x4D8 ADD MSTORE DUP2 DUP2 PUSH2 0x702 ADD MSTORE DUP2 DUP2 PUSH2 0xCB5 ADD MSTORE DUP2 DUP2 PUSH2 0xF86 ADD MSTORE DUP2 DUP2 PUSH2 0x2810 ADD MSTORE PUSH2 0x2FD7 ADD MSTORE PUSH1 0xA0 MLOAD DUP3 DUP2 DUP2 PUSH2 0x5AB ADD MSTORE DUP2 DUP2 PUSH2 0x8B4 ADD MSTORE DUP2 DUP2 PUSH2 0x246F ADD MSTORE PUSH2 0x286F ADD MSTORE PUSH1 0xC0 MLOAD DUP3 DUP2 DUP2 PUSH2 0x112D ADD MSTORE DUP2 DUP2 PUSH2 0x11FD ADD MSTORE DUP2 DUP2 PUSH2 0x2440 ADD MSTORE PUSH2 0x2895 ADD MSTORE PUSH1 0xE0 MLOAD DUP3 DUP2 DUP2 PUSH2 0x17FF ADD MSTORE DUP2 DUP2 PUSH2 0x1CA8 ADD MSTORE PUSH2 0x2C1A ADD MSTORE MLOAD DUP2 DUP2 DUP2 PUSH2 0x60B ADD MSTORE PUSH2 0x25A4 ADD MSTORE RETURN JUMPDEST PUSH4 0x4E487B71 PUSH1 0xE0 SHL DUP7 MSTORE PUSH1 0x11 PUSH1 0x4 MSTORE PUSH1 0x24 DUP7 REVERT JUMPDEST PUSH1 0x44 SWAP1 DUP5 DUP11 MLOAD SWAP2 PUSH4 0xC3AF7CC7 PUSH1 0xE0 SHL DUP4 MSTORE PUSH1 0x4 DUP4 ADD MSTORE PUSH1 0x24 DUP3 ADD MSTORE REVERT JUMPDEST SWAP1 SWAP5 POP DUP9 MLOAD SWAP5 DUP1 DUP7 SUB SWAP6 DUP7 GT PUSH3 0x2FF JUMPI DUP2 DUP8 SUB SWAP6 DUP8 DUP8 GT PUSH3 0x42B JUMPI PUSH8 0xDE0B6B3A7640000 SWAP7 DUP10 SWAP1 JUMPDEST DUP1 DUP3 LT PUSH3 0x3D0 JUMPI POP POP DUP7 PUSH8 0xDE0B6B3A7640000 SUB PUSH8 0xDE0B6B3A7640000 DUP2 GT PUSH3 0x3BC JUMPI DUP7 SWAP1 DUP11 SWAP9 PUSH7 0x58D15E17628000 SWAP4 DUP5 DUP2 MUL PUSH1 0x0 NOT DUP7 DUP4 MULMOD SWAP6 DUP5 DUP3 DUP9 LT DUP4 ADD DUP1 DUP10 SUB SWAP9 EQ SWAP2 DUP9 DUP3 GT ISZERO SWAP5 MULMOD SWAP7 DUP3 DUP9 GT SWAP1 SUB SWAP7 DUP3 SUB SWAP6 PUSH3 0x313 JUMPI JUMPDEST POP POP POP POP POP POP POP DUP6 DUP2 ADD DUP1 SWAP2 GT PUSH3 0x2FF JUMPI PUSH3 0x2F9 SWAP1 SWAP2 PUSH3 0x480 JUMP JUMPDEST PUSH3 0x84 JUMP JUMPDEST PUSH4 0x4E487B71 PUSH1 0xE0 SHL DUP9 MSTORE PUSH1 0x11 PUSH1 0x4 MSTORE PUSH1 0x24 DUP9 REVERT JUMPDEST SWAP1 SWAP2 SWAP3 SWAP4 SWAP5 SWAP6 SWAP7 SWAP12 POP PUSH3 0x38B JUMPI POP PUSH3 0x37E JUMPI PUSH8 0xDE0B6B3A763FFFF NOT ADD DUP2 AND DUP1 SWAP2 DIV PUSH1 0x2 DUP1 DUP3 PUSH1 0x3 MUL XOR DUP1 DUP4 MUL DUP3 SUB MUL DUP1 DUP4 MUL DUP3 SUB MUL DUP1 DUP4 MUL DUP3 SUB MUL DUP1 DUP4 MUL DUP3 SUB MUL DUP1 DUP4 MUL DUP3 SUB MUL DUP1 SWAP3 MUL SWAP1 SUB MUL SWAP3 DUP8 DUP3 DUP1 DUP14 SUB DIV ADD MUL SWAP2 DIV OR MUL SWAP5 CODESIZE DUP1 DUP1 DUP1 DUP1 DUP1 DUP1 PUSH3 0x2DB JUMP JUMPDEST PUSH4 0xAE47F702 DUP12 MSTORE PUSH1 0x4 PUSH1 0x1C REVERT JUMPDEST SWAP4 POP POP SWAP1 SWAP3 POP PUSH8 0xDE0B6B3A7640000 EQ PUSH3 0x3AF JUMPI DIV SWAP5 CODESIZE DUP1 DUP1 DUP1 DUP1 DUP1 DUP1 PUSH3 0x2DB JUMP JUMPDEST PUSH4 0xAE47F702 DUP10 MSTORE PUSH1 0x4 PUSH1 0x1C REVERT JUMPDEST PUSH4 0x4E487B71 PUSH1 0xE0 SHL DUP11 MSTORE PUSH1 0x11 PUSH1 0x4 MSTORE PUSH1 0x24 DUP11 REVERT JUMPDEST SWAP1 SWAP8 PUSH8 0xD87E55590018000 SWAP1 PUSH25 0x12EB73EAE4C8B0077DB7B119A3928413FFF44D230654AC05AC DUP2 GT DUP3 MUL PUSH3 0x41E JUMPI PUSH3 0x417 SWAP2 PUSH8 0xDE0B6B3A7640000 SWAP2 MUL DIV SWAP9 PUSH3 0x480 JUMP JUMPDEST SWAP1 PUSH3 0x27D JUMP JUMPDEST PUSH4 0xBAC65E5B DUP13 MSTORE PUSH1 0x4 PUSH1 0x1C REVERT JUMPDEST PUSH4 0x4E487B71 PUSH1 0xE0 SHL DUP10 MSTORE PUSH1 0x11 PUSH1 0x4 MSTORE PUSH1 0x24 DUP10 REVERT JUMPDEST PUSH1 0x0 DUP1 REVERT JUMPDEST PUSH1 0x40 MLOAD SWAP2 SWAP1 PUSH1 0x1F ADD PUSH1 0x1F NOT AND DUP3 ADD PUSH1 0x1 PUSH1 0x1 PUSH1 0x40 SHL SUB DUP2 GT DUP4 DUP3 LT OR PUSH3 0x46A JUMPI PUSH1 0x40 MSTORE JUMP JUMPDEST PUSH4 0x4E487B71 PUSH1 0xE0 SHL PUSH1 0x0 MSTORE PUSH1 0x41 PUSH1 0x4 MSTORE PUSH1 0x24 PUSH1 0x0 REVERT JUMPDEST PUSH1 0x0 NOT DUP2 EQ PUSH3 0x490 JUMPI PUSH1 0x1 ADD SWAP1 JUMP JUMPDEST PUSH4 0x4E487B71 PUSH1 0xE0 SHL PUSH1 0x0 MSTORE PUSH1 0x11 PUSH1 0x4 MSTORE PUSH1 0x24 PUSH1 0x0 REVERT INVALID PUSH1 0x40 PUSH1 0x80 DUP2 MSTORE PUSH1 0x4 SWAP1 DUP2 CALLDATASIZE LT ISZERO PUSH2 0x15 JUMPI PUSH1 0x0 DUP1 REVERT JUMPDEST PUSH1 0x0 DUP1 CALLDATALOAD PUSH1 0xE0 SHR DUP1 PUSH4 0x1BAC4C6 EQ PUSH2 0x20E5 JUMPI DUP1 PUSH4 0x4D4E9BD EQ PUSH2 0x208F JUMPI DUP1 PUSH4 0x6FDDE03 EQ PUSH2 0x2020 JUMPI DUP1 PUSH4 0xBFC4AF9 EQ PUSH2 0x1FC6 JUMPI DUP1 PUSH4 0x135022C2 EQ PUSH2 0x1F4A JUMPI DUP1 PUSH4 0x17CAF6F1 EQ PUSH2 0x1F0D JUMPI DUP1 PUSH4 0x1AD4C8C3 EQ PUSH2 0x1E9E JUMPI DUP1 PUSH4 0x1BAFED52 EQ PUSH2 0x1E26 JUMPI DUP1 PUSH4 0x1BE05289 EQ PUSH2 0x1DE9 JUMPI DUP1 PUSH4 0x1BE19560 EQ PUSH2 0x1C05 JUMPI DUP1 PUSH4 0x1D5E8E50 EQ PUSH2 0x1A46 JUMPI DUP1 PUSH4 0x1F3ADC0F EQ PUSH2 0x1A0A JUMPI DUP1 PUSH4 0x28419D62 EQ PUSH2 0x19CA JUMPI DUP1 PUSH4 0x32FCD966 EQ PUSH2 0x197C JUMPI DUP1 PUSH4 0x3CF80E6C EQ PUSH2 0x18FE JUMPI DUP1 PUSH4 0x4A91F2B1 EQ PUSH2 0x1878 JUMPI DUP1 PUSH4 0x4F3D90B1 EQ PUSH2 0x1823 JUMPI DUP1 PUSH4 0x4F573686 EQ PUSH2 0x17B4 JUMPI DUP1 PUSH4 0x4FCC5575 EQ PUSH2 0x173B JUMPI DUP1 PUSH4 0x5104517F EQ PUSH2 0x16C7 JUMPI DUP1 PUSH4 0x5303654F EQ PUSH2 0x1609 JUMPI DUP1 PUSH4 0x53CDE488 EQ PUSH2 0x15CC JUMPI DUP1 PUSH4 0x5493B5D6 EQ PUSH2 0x158F JUMPI DUP1 PUSH4 0x54FD4D50 EQ PUSH2 0x151C JUMPI DUP1 PUSH4 0x58322A8E EQ PUSH2 0x1453 JUMPI DUP1 PUSH4 0x5CCB14AC EQ PUSH2 0x13CA JUMPI DUP1 PUSH4 0x5D8BEACE EQ PUSH2 0x135B JUMPI DUP1 PUSH4 0x5DE7FCD0 EQ PUSH2 0x1315 JUMPI DUP1 PUSH4 0x5F15C3C9 EQ PUSH2 0x12DB JUMPI DUP1 PUSH4 0x61480EEC EQ PUSH2 0x1266 JUMPI DUP1 PUSH4 0x6673FD97 EQ PUSH2 0x1220 JUMPI DUP1 PUSH4 0x6FA42261 EQ PUSH2 0x11C7 JUMPI DUP1 PUSH4 0x72E127CB EQ PUSH2 0x118A JUMPI DUP1 PUSH4 0x796B89B9 EQ PUSH2 0x1151 JUMPI DUP1 PUSH4 0x7C4941EC EQ PUSH2 0x10F4 JUMPI DUP1 PUSH4 0x89C614B8 EQ PUSH2 0x10B7 JUMPI DUP1 PUSH4 0x8ECF3B45 EQ PUSH2 0xEB2 JUMPI DUP1 PUSH4 0x93C3677B EQ PUSH2 0xBED JUMPI DUP1 PUSH4 0x9D3BBE6E EQ PUSH2 0xB25 JUMPI DUP1 PUSH4 0x9E81B634 EQ PUSH2 0xAE5 JUMPI DUP1 PUSH4 0xABFDF70A EQ PUSH2 0xAA8 JUMPI DUP1 PUSH4 0xAC9462F5 EQ PUSH2 0xA69 JUMPI DUP1 PUSH4 0xB97DD9E2 EQ PUSH2 0xA2E JUMPI DUP1 PUSH4 0xBB014B82 EQ PUSH2 0x918 JUMPI DUP1 PUSH4 0xC1F1E5AE EQ PUSH2 0x8D7 JUMPI DUP1 PUSH4 0xC81BA8F0 EQ PUSH2 0x87E JUMPI DUP1 PUSH4 0xCB87F7F3 EQ PUSH2 0x66B JUMPI DUP1 PUSH4 0xD37DB1D2 EQ PUSH2 0x62E JUMPI DUP1 PUSH4 0xD4F7286B EQ PUSH2 0x5D5 JUMPI DUP1 PUSH4 0xD797C4C3 EQ PUSH2 0x56B JUMPI DUP1 PUSH4 0xE6C5B8EA EQ PUSH2 0x4FC JUMPI DUP1 PUSH4 0xE8A24E1D EQ PUSH2 0x48D JUMPI DUP1 PUSH4 0xF126D964 EQ PUSH2 0x44B JUMPI DUP1 PUSH4 0xF2B128A4 EQ PUSH2 0x359 JUMPI DUP1 PUSH4 0xF6503E6C EQ PUSH2 0x2CE JUMPI PUSH4 0xFD59C299 EQ PUSH2 0x288 JUMPI PUSH1 0x0 DUP1 REVERT JUMPDEST CALLVALUE PUSH2 0x2CB JUMPI PUSH1 0x20 PUSH32 0xFFFFFFFFFFFFFFFFFFFFFFFFFFFFFFFFFFFFFFFFFFFFFFFFFFFFFFFFFFFFFFFC CALLDATASIZE ADD SLT PUSH2 0x2CB JUMPI POP PUSH2 0x2C4 PUSH1 0x20 SWAP3 CALLDATALOAD PUSH2 0x259C JUMP JUMPDEST SWAP1 MLOAD SWAP1 DUP2 MSTORE RETURN JUMPDEST DUP1 REVERT JUMPDEST POP SWAP1 CALLVALUE PUSH2 0x355 JUMPI PUSH1 0x20 PUSH32 0xFFFFFFFFFFFFFFFFFFFFFFFFFFFFFFFFFFFFFFFFFFFFFFFFFFFFFFFFFFFFFFFC CALLDATASIZE ADD SLT PUSH2 0x355 JUMPI PUSH2 0x309 DUP4 CALLDATALOAD PUSH2 0x259C JUMP JUMPDEST SWAP2 PUSH3 0x140CD0 SWAP3 DUP4 DUP2 MUL SWAP4 DUP2 DUP6 DIV EQ SWAP1 ISZERO OR ISZERO PUSH2 0x329 JUMPI PUSH1 0x20 DUP4 DUP4 MLOAD SWAP1 DUP2 MSTORE RETURN JUMPDEST DUP1 PUSH1 0x11 DUP6 PUSH32 0x4E487B7100000000000000000000000000000000000000000000000000000000 PUSH1 0x24 SWAP5 MSTORE MSTORE REVERT JUMPDEST POP DUP1 REVERT JUMPDEST POP SWAP2 SWAP1 CALLVALUE PUSH2 0x447 JUMPI DUP3 PUSH32 0xFFFFFFFFFFFFFFFFFFFFFFFFFFFFFFFFFFFFFFFFFFFFFFFFFFFFFFFFFFFFFFFC CALLDATASIZE ADD SLT PUSH2 0x447 JUMPI DUP3 SLOAD SWAP2 PUSH1 0xFF DUP4 AND ISZERO PUSH2 0x420 JUMPI POP SWAP1 PUSH32 0x43604600D5D5B743877B9625896FEA0414A17136BBE657753A96DC6F80EDE1B9 PUSH1 0x60 PUSH1 0x1 SWAP4 PUSH32 0xFFFFFFFFFFFFFFFFFFFFFFFFFFFFFFFFFFFFFFFFFFFFFFFFFFFFFFFFFFFFFF00 DUP1 SWAP5 AND DUP7 SSTORE PUSH2 0x3EC PUSH2 0x2EEC JUMP JUMPDEST PUSH2 0x3F4 PUSH2 0x2637 JUMP JUMPDEST PUSH2 0x3FC PUSH2 0x29D9 JUMP JUMPDEST DUP5 SLOAD SWAP1 PUSH2 0x407 PUSH2 0x243E JUMP JUMPDEST SWAP1 DUP1 MLOAD SWAP3 DUP4 MSTORE CALLER PUSH1 0x20 DUP5 ADD MSTORE DUP3 ADD MSTORE LOG1 DUP3 SLOAD AND OR DUP2 SSTORE DUP1 RETURN JUMPDEST SWAP1 MLOAD PUSH32 0x37ED32E800000000000000000000000000000000000000000000000000000000 DUP2 MSTORE REVERT JUMPDEST DUP3 DUP1 REVERT JUMPDEST POP SWAP1 CALLVALUE PUSH2 0x355 JUMPI DUP2 PUSH32 0xFFFFFFFFFFFFFFFFFFFFFFFFFFFFFFFFFFFFFFFFFFFFFFFFFFFFFFFFFFFFFFFC CALLDATASIZE ADD SLT PUSH2 0x355 JUMPI PUSH1 0x20 SWAP1 PUSH1 0xFF PUSH1 0x9 SLOAD AND SWAP1 MLOAD SWAP1 ISZERO ISZERO DUP2 MSTORE RETURN JUMPDEST POP SWAP1 CALLVALUE PUSH2 0x355 JUMPI DUP2 PUSH32 0xFFFFFFFFFFFFFFFFFFFFFFFFFFFFFFFFFFFFFFFFFFFFFFFFFFFFFFFFFFFFFFFC CALLDATASIZE ADD SLT PUSH2 0x355 JUMPI PUSH1 0x20 SWAP1 MLOAD PUSH20 0xFFFFFFFFFFFFFFFFFFFFFFFFFFFFFFFFFFFFFFFF PUSH32 0x0 AND DUP2 MSTORE RETURN JUMPDEST POP DUP3 CALLVALUE PUSH2 0x355 JUMPI PUSH1 0x80 PUSH32 0xFFFFFFFFFFFFFFFFFFFFFFFFFFFFFFFFFFFFFFFFFFFFFFFFFFFFFFFFFFFFFFFC CALLDATASIZE ADD SLT PUSH2 0x355 JUMPI CALLDATALOAD PUSH20 0xFFFFFFFFFFFFFFFFFFFFFFFFFFFFFFFFFFFFFFFF DUP2 AND DUP2 SUB PUSH2 0x355 JUMPI PUSH1 0x64 CALLDATALOAD PUSH1 0x2 DUP2 LT ISZERO PUSH2 0x447 JUMPI PUSH2 0x568 SWAP2 PUSH1 0x44 CALLDATALOAD SWAP1 PUSH1 0x24 CALLDATALOAD SWAP1 PUSH2 0x2D2E JUMP JUMPDEST DUP1 RETURN JUMPDEST POP SWAP1 CALLVALUE PUSH2 0x355 JUMPI DUP2 PUSH32 0xFFFFFFFFFFFFFFFFFFFFFFFFFFFFFFFFFFFFFFFFFFFFFFFFFFFFFFFFFFFFFFFC CALLDATASIZE ADD SLT PUSH2 0x355 JUMPI PUSH1 0x20 SWAP1 PUSH2 0x2C4 PUSH4 0x784CE00 PUSH2 0x5D0 PUSH32 0x0 TIMESTAMP PUSH2 0x2431 JUMP JUMPDEST PUSH2 0x30E7 JUMP JUMPDEST POP SWAP1 CALLVALUE PUSH2 0x355 JUMPI DUP2 PUSH32 0xFFFFFFFFFFFFFFFFFFFFFFFFFFFFFFFFFFFFFFFFFFFFFFFFFFFFFFFFFFFFFFFC CALLDATASIZE ADD SLT PUSH2 0x355 JUMPI PUSH1 0x20 SWAP1 MLOAD PUSH32 0x0 DUP2 MSTORE RETURN JUMPDEST POP SWAP1 CALLVALUE PUSH2 0x355 JUMPI DUP2 PUSH32 0xFFFFFFFFFFFFFFFFFFFFFFFFFFFFFFFFFFFFFFFFFFFFFFFFFFFFFFFFFFFFFFFC CALLDATASIZE ADD SLT PUSH2 0x355 JUMPI PUSH1 0x20 SWAP1 MLOAD PUSH4 0x1E13380 DUP2 MSTORE RETURN JUMPDEST POP SWAP2 CALLVALUE PUSH2 0x447 JUMPI DUP2 PUSH32 0xFFFFFFFFFFFFFFFFFFFFFFFFFFFFFFFFFFFFFFFFFFFFFFFFFFFFFFFFFFFFFFFC CALLDATASIZE ADD SLT PUSH2 0x447 JUMPI DUP1 CALLDATALOAD SWAP2 PUSH1 0x24 CALLDATALOAD SWAP1 PUSH2 0x6AA PUSH2 0x2637 JUMP JUMPDEST PUSH2 0x6B2 PUSH2 0x29D9 JUMP JUMPDEST PUSH2 0x6BA PUSH2 0x2F93 JUMP JUMPDEST DUP1 MLOAD PUSH32 0x1AD4C8C300000000000000000000000000000000000000000000000000000000 DUP2 MSTORE DUP5 DUP5 DUP3 ADD MSTORE PUSH20 0xFFFFFFFFFFFFFFFFFFFFFFFFFFFFFFFFFFFFFFFF PUSH1 0xA0 DUP3 PUSH1 0x24 DUP2 DUP5 PUSH32 0x0 AND GAS STATICCALL SWAP2 DUP3 ISZERO PUSH2 0x874 JUMPI DUP8 SWAP3 PUSH2 0x83F JUMPI JUMPDEST POP DUP2 AND SWAP4 DUP5 DUP8 MSTORE PUSH1 0x3 PUSH1 0x20 MSTORE PUSH2 0x74B PUSH1 0x1 DUP5 DUP10 KECCAK256 PUSH2 0x2328 JUMP JUMPDEST SWAP2 PUSH1 0xFF DUP4 SLOAD AND ISZERO PUSH2 0x7EE JUMPI POP POP SWAP2 DUP4 SWAP2 PUSH1 0x60 SWAP4 PUSH32 0x9436A68F01CF8A4F756C053A98D6D88CDBD763A2D8AD77273779D054E2B82EEF SWAP6 DUP9 MSTORE PUSH1 0x3 PUSH1 0x20 MSTORE PUSH1 0x5 PUSH2 0x795 DUP10 DUP5 DUP2 KECCAK256 PUSH2 0x2328 JUMP JUMPDEST SWAP2 ADD SWAP1 PUSH2 0x7DB PUSH2 0x7AD PUSH1 0x5 DUP5 SLOAD SWAP4 ADD SWAP3 DUP4 SLOAD SWAP1 PUSH2 0x258F JUMP JUMPDEST SWAP3 PUSH2 0x7C3 DUP7 PUSH2 0x7BE DUP7 PUSH1 0x6 SLOAD PUSH2 0x2431 JUMP JUMPDEST PUSH2 0x258F JUMP JUMPDEST PUSH1 0x6 SSTORE PUSH2 0x7D2 PUSH1 0x8 SLOAD DUP8 PUSH2 0x309E JUMP JUMPDEST DUP1 SWAP2 SSTORE DUP6 PUSH2 0x2431 JUMP JUMPDEST SWAP1 SSTORE DUP2 MLOAD SWAP4 DUP5 MSTORE PUSH1 0x20 DUP5 ADD MSTORE DUP3 ADD MSTORE LOG2 DUP1 RETURN JUMPDEST DUP4 MLOAD PUSH32 0x316E864300000000000000000000000000000000000000000000000000000000 DUP2 MSTORE SWAP2 DUP3 ADD DUP8 DUP2 MSTORE PUSH20 0xFFFFFFFFFFFFFFFFFFFFFFFFFFFFFFFFFFFFFFFF SWAP1 SWAP2 AND PUSH1 0x20 DUP3 ADD MSTORE DUP2 SWAP1 PUSH1 0x40 ADD SUB SWAP1 REVERT JUMPDEST PUSH2 0x861 SWAP2 SWAP3 POP PUSH1 0xA0 RETURNDATASIZE DUP2 GT PUSH2 0x86D JUMPI JUMPDEST PUSH2 0x859 DUP2 DUP4 PUSH2 0x21AF JUMP JUMPDEST DUP2 ADD SWAP1 PUSH2 0x2F2C JUMP JUMPDEST POP POP SWAP2 POP POP SWAP1 CODESIZE PUSH2 0x732 JUMP JUMPDEST POP RETURNDATASIZE PUSH2 0x84F JUMP JUMPDEST DUP4 MLOAD RETURNDATASIZE DUP10 DUP3 RETURNDATACOPY RETURNDATASIZE SWAP1 REVERT JUMPDEST POP SWAP1 CALLVALUE PUSH2 0x355 JUMPI DUP2 PUSH32 0xFFFFFFFFFFFFFFFFFFFFFFFFFFFFFFFFFFFFFFFFFFFFFFFFFFFFFFFFFFFFFFFC CALLDATASIZE ADD SLT PUSH2 0x355 JUMPI PUSH1 0x20 SWAP1 MLOAD PUSH32 0x0 DUP2 MSTORE RETURN JUMPDEST POP SWAP1 CALLVALUE PUSH2 0x355 JUMPI DUP2 PUSH32 0xFFFFFFFFFFFFFFFFFFFFFFFFFFFFFFFFFFFFFFFFFFFFFFFFFFFFFFFFFFFFFFFC CALLDATASIZE ADD SLT PUSH2 0x355 JUMPI PUSH1 0x20 SWAP1 MLOAD PUSH8 0x69789FBBC4F8000 DUP2 MSTORE RETURN JUMPDEST POP SWAP2 SWAP1 CALLVALUE PUSH2 0x447 JUMPI DUP1 PUSH32 0xFFFFFFFFFFFFFFFFFFFFFFFFFFFFFFFFFFFFFFFFFFFFFFFFFFFFFFFFFFFFFFFC CALLDATASIZE ADD SLT PUSH2 0x447 JUMPI DUP2 CALLDATALOAD SWAP2 PUSH1 0x2 DUP4 LT ISZERO PUSH2 0xA2A JUMPI PUSH1 0x24 CALLDATALOAD PUSH20 0xFFFFFFFFFFFFFFFFFFFFFFFFFFFFFFFFFFFFFFFF SWAP2 DUP3 DUP3 AND DUP3 SUB PUSH2 0xA26 JUMPI DUP6 SLOAD SWAP4 PUSH1 0xFF DUP6 AND ISZERO PUSH2 0xA00 JUMPI POP POP PUSH32 0xFFFFFFFFFFFFFFFFFFFFFFFFFFFFFFFFFFFFFFFFFFFFFFFFFFFFFFFFFFFFFF00 DUP1 SWAP4 AND DUP6 SSTORE PUSH2 0x9B3 PUSH2 0x2637 JUMP JUMPDEST PUSH2 0x9BB PUSH2 0x29D9 JUMP JUMPDEST PUSH1 0x1 SWAP4 PUSH2 0x9C7 DUP6 PUSH2 0x2960 JUMP JUMPDEST SWAP3 DUP4 MLOAD SWAP4 DUP7 DUP9 JUMPDEST DUP7 DUP2 LT PUSH2 0x9E1 JUMPI DUP10 DUP3 DUP10 DUP3 SLOAD AND OR DUP2 SSTORE DUP1 RETURN JUMPDEST PUSH2 0x9F8 DUP7 DUP7 DUP7 PUSH2 0x9F1 DUP6 DUP9 PUSH2 0x29C5 JUMP JUMPDEST MLOAD AND PUSH2 0x2B65 JUMP JUMPDEST ADD DUP8 SWAP1 PUSH2 0x9CE JUMP JUMPDEST MLOAD PUSH32 0x37ED32E800000000000000000000000000000000000000000000000000000000 DUP2 MSTORE REVERT JUMPDEST DUP6 DUP1 REVERT JUMPDEST DUP4 DUP1 REVERT JUMPDEST POP SWAP1 CALLVALUE PUSH2 0x355 JUMPI DUP2 PUSH32 0xFFFFFFFFFFFFFFFFFFFFFFFFFFFFFFFFFFFFFFFFFFFFFFFFFFFFFFFFFFFFFFFC CALLDATASIZE ADD SLT PUSH2 0x355 JUMPI PUSH1 0x20 SWAP1 PUSH2 0x2C4 PUSH2 0x243E JUMP JUMPDEST POP SWAP1 CALLVALUE PUSH2 0x355 JUMPI DUP2 PUSH32 0xFFFFFFFFFFFFFFFFFFFFFFFFFFFFFFFFFFFFFFFFFFFFFFFFFFFFFFFFFFFFFFFC CALLDATASIZE ADD SLT PUSH2 0x355 JUMPI PUSH1 0x20 SWAP1 PUSH2 0x2C4 PUSH1 0x7 SLOAD TIMESTAMP PUSH2 0x2431 JUMP JUMPDEST POP SWAP1 CALLVALUE PUSH2 0x355 JUMPI DUP2 PUSH32 0xFFFFFFFFFFFFFFFFFFFFFFFFFFFFFFFFFFFFFFFFFFFFFFFFFFFFFFFFFFFFFFFC CALLDATASIZE ADD SLT PUSH2 0x355 JUMPI PUSH1 0x20 SWAP1 PUSH1 0x8 SLOAD SWAP1 MLOAD SWAP1 DUP2 MSTORE RETURN JUMPDEST POP SWAP1 CALLVALUE PUSH2 0x355 JUMPI DUP2 PUSH32 0xFFFFFFFFFFFFFFFFFFFFFFFFFFFFFFFFFFFFFFFFFFFFFFFFFFFFFFFFFFFFFFFC CALLDATASIZE ADD SLT PUSH2 0x355 JUMPI PUSH2 0x309 PUSH2 0xB20 PUSH2 0x243E JUMP JUMPDEST PUSH2 0x259C JUMP JUMPDEST POP SWAP2 SWAP1 CALLVALUE PUSH2 0x447 JUMPI DUP1 PUSH32 0xFFFFFFFFFFFFFFFFFFFFFFFFFFFFFFFFFFFFFFFFFFFFFFFFFFFFFFFFFFFFFFFC CALLDATASIZE ADD SLT PUSH2 0x447 JUMPI DUP2 CALLDATALOAD PUSH20 0xFFFFFFFFFFFFFFFFFFFFFFFFFFFFFFFFFFFFFFFF SWAP1 DUP2 DUP2 AND DUP1 SWAP2 SUB PUSH2 0xBE9 JUMPI PUSH1 0x24 CALLDATALOAD SWAP1 PUSH1 0x2 DUP3 LT ISZERO PUSH2 0xA26 JUMPI SWAP1 DUP4 DUP7 PUSH2 0xB9B SWAP4 PUSH1 0xE0 SWAP9 MSTORE PUSH1 0x3 PUSH1 0x20 MSTORE KECCAK256 PUSH2 0x2328 JUMP JUMPDEST SWAP1 PUSH1 0xFF DUP3 SLOAD AND SWAP4 PUSH1 0x1 DUP4 ADD SLOAD SWAP4 PUSH1 0x2 DUP5 ADD SLOAD SWAP1 PUSH1 0x3 DUP6 ADD SLOAD SWAP3 DUP6 ADD SLOAD SWAP4 PUSH1 0x6 PUSH1 0x5 DUP8 ADD SLOAD SWAP7 ADD SLOAD AND SWAP6 DUP2 MLOAD SWAP8 ISZERO ISZERO DUP9 MSTORE PUSH1 0x20 DUP9 ADD MSTORE DUP7 ADD MSTORE PUSH1 0x60 DUP6 ADD MSTORE PUSH1 0x80 DUP5 ADD MSTORE PUSH1 0xA0 DUP4 ADD MSTORE PUSH1 0xC0 DUP3 ADD MSTORE RETURN JUMPDEST DUP5 DUP1 REVERT JUMPDEST POP SWAP2 CALLVALUE PUSH2 0x447 JUMPI DUP2 PUSH32 0xFFFFFFFFFFFFFFFFFFFFFFFFFFFFFFFFFFFFFFFFFFFFFFFFFFFFFFFFFFFFFFFC CALLDATASIZE ADD SLT PUSH2 0x447 JUMPI DUP3 SLOAD SWAP1 DUP1 CALLDATALOAD PUSH1 0x24 CALLDATALOAD PUSH1 0xFF DUP5 AND ISZERO PUSH2 0xE8A JUMPI PUSH32 0xFFFFFFFFFFFFFFFFFFFFFFFFFFFFFFFFFFFFFFFFFFFFFFFFFFFFFFFFFFFFFF00 DUP1 SWAP5 AND DUP7 SSTORE PUSH2 0xC5C PUSH2 0x2637 JUMP JUMPDEST PUSH2 0xC64 PUSH2 0x29D9 JUMP JUMPDEST PUSH2 0xC6C PUSH2 0x2F93 JUMP JUMPDEST DUP5 MLOAD SWAP5 PUSH32 0x1AD4C8C300000000000000000000000000000000000000000000000000000000 DUP7 MSTORE DUP3 DUP5 DUP8 ADD MSTORE PUSH20 0xFFFFFFFFFFFFFFFFFFFFFFFFFFFFFFFFFFFFFFFF PUSH1 0xA0 DUP8 PUSH1 0x24 DUP2 DUP5 PUSH32 0x0 AND GAS STATICCALL SWAP7 DUP8 ISZERO PUSH2 0xE80 JUMPI DUP9 SWAP8 PUSH2 0xE5B JUMPI JUMPDEST POP DUP1 DUP8 AND SWAP5 DUP6 DUP10 MSTORE PUSH1 0x3 PUSH1 0x20 MSTORE PUSH1 0x1 SWAP8 PUSH2 0xD01 DUP10 DUP6 DUP13 KECCAK256 PUSH2 0x2328 JUMP JUMPDEST SWAP1 DUP10 PUSH1 0xFF DUP4 SLOAD AND ISZERO ISZERO EQ PUSH2 0xE09 JUMPI POP DUP7 DUP11 MSTORE PUSH1 0x3 PUSH1 0x20 MSTORE PUSH1 0x5 PUSH2 0xD6B DUP2 PUSH2 0xD2A DUP14 DUP9 DUP2 KECCAK256 PUSH2 0x2328 JUMP JUMPDEST SWAP4 PUSH2 0xD37 DUP10 PUSH1 0x6 SLOAD PUSH2 0x258F JUMP JUMPDEST PUSH1 0x6 SSTORE DUP13 DUP13 DUP3 SLOAD AND OR DUP2 SSTORE DUP13 DUP13 DUP7 SLOAD AND OR DUP6 SSTORE DUP10 DUP14 DUP3 ADD SSTORE DUP10 DUP14 DUP7 ADD SSTORE PUSH2 0xD60 PUSH1 0x8 SLOAD DUP11 PUSH2 0x309E JUMP JUMPDEST SWAP2 DUP3 SWAP2 ADD SSTORE DUP8 PUSH2 0x2431 JUMP JUMPDEST SWAP2 ADD SSTORE DUP8 SLOAD SWAP1 PUSH9 0x10000000000000000 DUP3 LT ISZERO PUSH2 0xDDD JUMPI POP SWAP2 PUSH32 0x68BEA3F037520D478C14FD27A27947249AADE51810B62999AF0776BBD0097B96 SWAP4 SWAP2 DUP7 PUSH2 0xDB9 DUP6 DUP12 PUSH1 0x20 SWAP8 ADD DUP13 SSTORE DUP12 PUSH2 0x236F JUMP JUMPDEST SWAP1 SWAP3 DUP4 SLOAD SWAP2 PUSH1 0x3 SHL SWAP1 DUP2 SHL SWAP3 DUP4 SWAP2 SHL AND SWAP2 NOT AND OR SWAP1 SSTORE MLOAD SWAP1 DUP2 MSTORE LOG3 DUP3 SLOAD AND OR DUP2 SSTORE DUP1 RETURN JUMPDEST DUP10 PUSH1 0x41 PUSH1 0x24 SWAP3 PUSH32 0x4E487B7100000000000000000000000000000000000000000000000000000000 DUP4 MSTORE MSTORE REVERT JUMPDEST DUP5 MLOAD PUSH32 0xC5B4745600000000000000000000000000000000000000000000000000000000 DUP2 MSTORE DUP1 DUP5 ADD DUP9 DUP2 MSTORE PUSH20 0xFFFFFFFFFFFFFFFFFFFFFFFFFFFFFFFFFFFFFFFF SWAP1 SWAP3 AND PUSH1 0x20 DUP4 ADD MSTORE SWAP1 DUP2 SWAP1 PUSH1 0x40 ADD SUB SWAP1 REVERT JUMPDEST PUSH2 0xE74 SWAP2 SWAP8 POP PUSH1 0xA0 RETURNDATASIZE DUP2 GT PUSH2 0x86D JUMPI PUSH2 0x859 DUP2 DUP4 PUSH2 0x21AF JUMP JUMPDEST POP POP SWAP2 POP POP SWAP6 CODESIZE PUSH2 0xCE5 JUMP JUMPDEST DUP3 MLOAD RETURNDATASIZE DUP11 DUP3 RETURNDATACOPY RETURNDATASIZE SWAP1 REVERT JUMPDEST DUP3 DUP6 MLOAD PUSH32 0x37ED32E800000000000000000000000000000000000000000000000000000000 DUP2 MSTORE REVERT JUMPDEST POP DUP3 CALLVALUE PUSH2 0x355 JUMPI DUP3 PUSH32 0xFFFFFFFFFFFFFFFFFFFFFFFFFFFFFFFFFFFFFFFFFFFFFFFFFFFFFFFFFFFFFFFC CALLDATASIZE ADD SLT PUSH2 0x355 JUMPI DUP1 CALLDATALOAD PUSH1 0x24 CALLDATALOAD SWAP1 PUSH20 0xFFFFFFFFFFFFFFFFFFFFFFFFFFFFFFFFFFFFFFFF SWAP3 DUP4 DUP4 AND DUP1 SWAP4 SUB PUSH2 0xBE9 JUMPI DUP5 SLOAD SWAP4 PUSH1 0xFF DUP6 AND ISZERO PUSH2 0x108F JUMPI PUSH32 0xFFFFFFFFFFFFFFFFFFFFFFFFFFFFFFFFFFFFFFFFFFFFFFFFFFFFFFFFFFFFFF00 DUP1 SWAP6 AND DUP7 SSTORE PUSH2 0xF42 PUSH2 0x2637 JUMP JUMPDEST PUSH2 0xF4A PUSH2 0x29D9 JUMP JUMPDEST PUSH2 0xF52 PUSH2 0x2F93 JUMP JUMPDEST DUP7 MLOAD SWAP1 PUSH32 0x1AD4C8C300000000000000000000000000000000000000000000000000000000 DUP3 MSTORE DUP4 DUP4 DUP4 ADD MSTORE PUSH1 0xA0 DUP3 PUSH1 0x24 DUP2 DUP5 PUSH32 0x0 AND GAS STATICCALL SWAP2 DUP3 ISZERO PUSH2 0x1085 JUMPI DUP8 SWAP3 PUSH2 0x1060 JUMPI JUMPDEST POP DUP2 AND DUP7 MSTORE PUSH1 0x3 PUSH1 0x20 MSTORE PUSH2 0xFCD PUSH1 0x1 DUP9 DUP9 KECCAK256 PUSH2 0x2328 JUMP JUMPDEST SWAP7 PUSH1 0xFF DUP9 SLOAD AND ISZERO PUSH2 0x1011 JUMPI PUSH1 0x6 DUP9 ADD DUP1 SLOAD PUSH32 0xFFFFFFFFFFFFFFFFFFFFFFFF0000000000000000000000000000000000000000 AND DUP7 OR SWAP1 SSTORE DUP7 SLOAD DUP7 AND PUSH1 0x1 OR DUP8 SSTORE DUP7 DUP1 RETURN JUMPDEST MLOAD PUSH32 0x316E864300000000000000000000000000000000000000000000000000000000 DUP2 MSTORE SWAP2 DUP3 ADD SWAP3 DUP4 MSTORE PUSH20 0xFFFFFFFFFFFFFFFFFFFFFFFFFFFFFFFFFFFFFFFF AND PUSH1 0x20 DUP4 ADD MSTORE SWAP1 DUP2 SWAP1 PUSH1 0x40 ADD SUB SWAP1 REVERT JUMPDEST PUSH2 0x1079 SWAP2 SWAP3 POP PUSH1 0xA0 RETURNDATASIZE DUP2 GT PUSH2 0x86D JUMPI PUSH2 0x859 DUP2 DUP4 PUSH2 0x21AF JUMP JUMPDEST POP POP SWAP2 POP POP SWAP1 DUP9 PUSH2 0xFB6 JUMP JUMPDEST DUP9 MLOAD RETURNDATASIZE DUP10 DUP3 RETURNDATACOPY RETURNDATASIZE SWAP1 REVERT JUMPDEST POP DUP6 MLOAD PUSH32 0x37ED32E800000000000000000000000000000000000000000000000000000000 DUP2 MSTORE REVERT JUMPDEST POP SWAP1 CALLVALUE PUSH2 0x355 JUMPI DUP2 PUSH32 0xFFFFFFFFFFFFFFFFFFFFFFFFFFFFFFFFFFFFFFFFFFFFFFFFFFFFFFFFFFFFFFFC CALLDATASIZE ADD SLT PUSH2 0x355 JUMPI PUSH1 0x20 SWAP1 PUSH1 0x7 SLOAD SWAP1 MLOAD SWAP1 DUP2 MSTORE RETURN JUMPDEST POP SWAP1 CALLVALUE PUSH2 0x355 JUMPI DUP2 PUSH32 0xFFFFFFFFFFFFFFFFFFFFFFFFFFFFFFFFFFFFFFFFFFFFFFFFFFFFFFFFFFFFFFFC CALLDATASIZE ADD SLT PUSH2 0x355 JUMPI PUSH1 0x20 SWAP1 PUSH2 0x2C4 TIMESTAMP PUSH32 0x0 PUSH2 0x2431 JUMP JUMPDEST POP SWAP1 CALLVALUE PUSH2 0x355 JUMPI DUP2 PUSH32 0xFFFFFFFFFFFFFFFFFFFFFFFFFFFFFFFFFFFFFFFFFFFFFFFFFFFFFFFFFFFFFFFC CALLDATASIZE ADD SLT PUSH2 0x355 JUMPI PUSH1 0x20 SWAP1 MLOAD TIMESTAMP DUP2 MSTORE RETURN JUMPDEST POP CALLVALUE PUSH2 0x2CB JUMPI PUSH1 0x20 PUSH32 0xFFFFFFFFFFFFFFFFFFFFFFFFFFFFFFFFFFFFFFFFFFFFFFFFFFFFFFFFFFFFFFFC CALLDATASIZE ADD SLT PUSH2 0x2CB JUMPI POP PUSH2 0x2C4 PUSH1 0x20 SWAP3 CALLDATALOAD PUSH2 0x24CA JUMP JUMPDEST POP SWAP1 CALLVALUE PUSH2 0x355 JUMPI DUP2 PUSH32 0xFFFFFFFFFFFFFFFFFFFFFFFFFFFFFFFFFFFFFFFFFFFFFFFFFFFFFFFFFFFFFFFC CALLDATASIZE ADD SLT PUSH2 0x355 JUMPI PUSH1 0x20 SWAP1 MLOAD PUSH32 0x0 DUP2 MSTORE RETURN JUMPDEST POP SWAP1 CALLVALUE PUSH2 0x355 JUMPI DUP2 PUSH32 0xFFFFFFFFFFFFFFFFFFFFFFFFFFFFFFFFFFFFFFFFFFFFFFFFFFFFFFFFFFFFFFFC CALLDATASIZE ADD SLT PUSH2 0x355 JUMPI PUSH1 0x20 SWAP1 PUSH2 0x2C4 PUSH3 0x140CD0 PUSH2 0x5D0 PUSH1 0x7 SLOAD TIMESTAMP PUSH2 0x2431 JUMP JUMPDEST POP CALLVALUE PUSH2 0x2CB JUMPI DUP1 PUSH32 0xFFFFFFFFFFFFFFFFFFFFFFFFFFFFFFFFFFFFFFFFFFFFFFFFFFFFFFFFFFFFFFFC CALLDATASIZE ADD SLT PUSH2 0x2CB JUMPI PUSH2 0x129D PUSH2 0x2637 JUMP JUMPDEST PUSH2 0x12A5 PUSH2 0x29D9 JUMP JUMPDEST PUSH2 0x12AD PUSH2 0x2F93 JUMP JUMPDEST PUSH1 0x1 PUSH32 0xFFFFFFFFFFFFFFFFFFFFFFFFFFFFFFFFFFFFFFFFFFFFFFFFFFFFFFFFFFFFFF00 PUSH1 0x9 SLOAD AND OR PUSH1 0x9 SSTORE DUP1 RETURN JUMPDEST POP SWAP1 CALLVALUE PUSH2 0x355 JUMPI DUP2 PUSH32 0xFFFFFFFFFFFFFFFFFFFFFFFFFFFFFFFFFFFFFFFFFFFFFFFFFFFFFFFFFFFFFFFC CALLDATASIZE ADD SLT PUSH2 0x355 JUMPI PUSH1 0x20 SWAP1 MLOAD PUSH1 0x60 DUP2 MSTORE RETURN JUMPDEST POP SWAP1 CALLVALUE PUSH2 0x355 JUMPI DUP2 PUSH32 0xFFFFFFFFFFFFFFFFFFFFFFFFFFFFFFFFFFFFFFFFFFFFFFFFFFFFFFFFFFFFFFFC CALLDATASIZE ADD SLT PUSH2 0x355 JUMPI PUSH1 0x20 SWAP1 MLOAD PUSH13 0x1000000000000000000000000 DUP2 MSTORE RETURN JUMPDEST POP SWAP2 CALLVALUE PUSH2 0x447 JUMPI PUSH2 0x136C CALLDATASIZE DUP3 PUSH2 0x22F5 JUMP JUMPDEST SWAP3 DUP6 SWAP3 SWAP2 SWAP3 SLOAD SWAP5 PUSH1 0xFF DUP7 AND ISZERO PUSH2 0xA00 JUMPI DUP7 PUSH1 0x1 DUP8 PUSH2 0x13C1 DUP9 DUP9 DUP9 PUSH32 0xFFFFFFFFFFFFFFFFFFFFFFFFFFFFFFFFFFFFFFFFFFFFFFFFFFFFFFFFFFFFFF00 DUP1 SWAP6 AND DUP8 SSTORE PUSH2 0x13B4 PUSH2 0x2637 JUMP JUMPDEST PUSH2 0x13BC PUSH2 0x29D9 JUMP JUMPDEST PUSH2 0x2B65 JUMP JUMPDEST DUP3 SLOAD AND OR DUP2 SSTORE DUP1 RETURN JUMPDEST POP SWAP2 CALLVALUE PUSH2 0x447 JUMPI PUSH1 0x20 PUSH32 0xFFFFFFFFFFFFFFFFFFFFFFFFFFFFFFFFFFFFFFFFFFFFFFFFFFFFFFFFFFFFFFFC CALLDATASIZE ADD SLT PUSH2 0x447 JUMPI DUP1 CALLDATALOAD SWAP2 PUSH2 0x1406 PUSH2 0x2637 JUMP JUMPDEST PUSH2 0x140E PUSH2 0x29D9 JUMP JUMPDEST PUSH2 0x1416 PUSH2 0x2F93 JUMP JUMPDEST PUSH8 0xDE0B6B3A7640000 DUP4 GT PUSH2 0x142D JUMPI POP POP PUSH1 0x8 SSTORE DUP1 RETURN JUMPDEST MLOAD PUSH32 0xA23DE17F00000000000000000000000000000000000000000000000000000000 DUP2 MSTORE REVERT JUMPDEST POP CALLVALUE PUSH2 0x2CB JUMPI DUP1 PUSH32 0xFFFFFFFFFFFFFFFFFFFFFFFFFFFFFFFFFFFFFFFFFFFFFFFFFFFFFFFFFFFFFFFC CALLDATASIZE ADD SLT PUSH2 0x2CB JUMPI PUSH2 0x148A PUSH2 0x243E JUMP JUMPDEST DUP1 PUSH2 0x149C JUMPI POP PUSH1 0x20 SWAP3 POP SWAP1 JUMPDEST MLOAD SWAP1 DUP2 MSTORE RETURN JUMPDEST PUSH32 0xFFFFFFFFFFFFFFFFFFFFFFFFFFFFFFFFFFFFFFFFFFFFFFFFFFFFFFFFFFFFFFFF DUP2 ADD SWAP1 DUP2 GT PUSH2 0x14F0 JUMPI PUSH2 0x14CF SWAP1 PUSH2 0x259C JUMP JUMPDEST SWAP1 PUSH3 0x140CD0 SWAP2 DUP3 DUP2 MUL SWAP3 DUP2 DUP5 DIV EQ SWAP1 ISZERO OR ISZERO PUSH2 0x329 JUMPI POP PUSH1 0x20 SWAP3 POP SWAP1 PUSH2 0x1496 JUMP JUMPDEST PUSH1 0x24 DUP3 PUSH1 0x11 DUP7 PUSH32 0x4E487B7100000000000000000000000000000000000000000000000000000000 DUP4 MSTORE MSTORE REVERT JUMPDEST POP SWAP1 CALLVALUE PUSH2 0x355 JUMPI DUP2 PUSH32 0xFFFFFFFFFFFFFFFFFFFFFFFFFFFFFFFFFFFFFFFFFFFFFFFFFFFFFFFFFFFFFFFC CALLDATASIZE ADD SLT PUSH2 0x355 JUMPI PUSH2 0x158B SWAP1 PUSH2 0x155A PUSH1 0x5 PUSH2 0x221F JUMP JUMPDEST SWAP1 PUSH32 0x312E302E30000000000000000000000000000000000000000000000000000000 PUSH1 0x20 DUP4 ADD MSTORE MLOAD SWAP2 DUP3 SWAP2 DUP3 PUSH2 0x2269 JUMP JUMPDEST SUB SWAP1 RETURN JUMPDEST POP SWAP1 CALLVALUE PUSH2 0x355 JUMPI DUP2 PUSH32 0xFFFFFFFFFFFFFFFFFFFFFFFFFFFFFFFFFFFFFFFFFFFFFFFFFFFFFFFFFFFFFFFC CALLDATASIZE ADD SLT PUSH2 0x355 JUMPI PUSH1 0x20 SWAP1 PUSH1 0x5 SLOAD SWAP1 MLOAD SWAP1 DUP2 MSTORE RETURN JUMPDEST POP SWAP1 CALLVALUE PUSH2 0x355 JUMPI DUP2 PUSH32 0xFFFFFFFFFFFFFFFFFFFFFFFFFFFFFFFFFFFFFFFFFFFFFFFFFFFFFFFFFFFFFFFC CALLDATASIZE ADD SLT PUSH2 0x355 JUMPI PUSH1 0x20 SWAP1 PUSH1 0x1 SLOAD SWAP1 MLOAD SWAP1 DUP2 MSTORE RETURN JUMPDEST POP SWAP2 CALLVALUE PUSH2 0x447 JUMPI PUSH1 0x20 PUSH32 0xFFFFFFFFFFFFFFFFFFFFFFFFFFFFFFFFFFFFFFFFFFFFFFFFFFFFFFFFFFFFFFFC CALLDATASIZE ADD SLT PUSH2 0x447 JUMPI DUP1 CALLDATALOAD SWAP1 PUSH20 0xFFFFFFFFFFFFFFFFFFFFFFFFFFFFFFFFFFFFFFFF DUP3 AND DUP3 SUB PUSH2 0xA2A JUMPI DUP4 SLOAD SWAP3 PUSH1 0xFF DUP5 AND ISZERO PUSH2 0xA00 JUMPI DUP5 PUSH1 0x1 DUP6 PUSH2 0x16BD DUP4 DUP8 PUSH32 0xFFFFFFFFFFFFFFFFFFFFFFFFFFFFFFFFFFFFFFFFFFFFFFFFFFFFFFFFFFFFFF00 DUP1 SWAP5 AND DUP3 SSTORE PUSH2 0x169D PUSH2 0x2EEC JUMP JUMPDEST PUSH2 0x16A5 PUSH2 0x2637 JUMP JUMPDEST PUSH2 0x16AD PUSH2 0x29D9 JUMP JUMPDEST PUSH2 0x16B7 DUP6 DUP3 PUSH2 0x2A44 JUMP JUMPDEST POP PUSH2 0x2A44 JUMP JUMPDEST POP DUP3 SLOAD AND OR DUP2 SSTORE DUP1 RETURN JUMPDEST POP SWAP1 CALLVALUE PUSH2 0x355 JUMPI DUP2 PUSH32 0xFFFFFFFFFFFFFFFFFFFFFFFFFFFFFFFFFFFFFFFFFFFFFFFFFFFFFFFFFFFFFFFC CALLDATASIZE ADD SLT PUSH2 0x355 JUMPI PUSH2 0x2C4 PUSH1 0x20 SWAP3 PUSH2 0x1735 PUSH2 0x1713 PUSH3 0x140CD0 PUSH2 0x5D0 PUSH1 0x7 SLOAD TIMESTAMP PUSH2 0x2431 JUMP JUMPDEST PUSH2 0x171B PUSH2 0x243E JUMP JUMPDEST DUP4 MSTORE PUSH1 0x2 DUP7 MSTORE PUSH1 0x3 DUP6 PUSH1 0x2 DUP2 DUP7 KECCAK256 ADD SLOAD SWAP5 KECCAK256 ADD SLOAD SWAP3 PUSH2 0x309E JUMP JUMPDEST SWAP1 PUSH2 0x30E7 JUMP JUMPDEST POP SWAP1 CALLVALUE PUSH2 0x355 JUMPI DUP2 PUSH32 0xFFFFFFFFFFFFFFFFFFFFFFFFFFFFFFFFFFFFFFFFFFFFFFFFFFFFFFFFFFFFFFFC CALLDATASIZE ADD SLT PUSH2 0x355 JUMPI DUP2 SWAP1 PUSH2 0x1775 PUSH2 0x243E JUMP JUMPDEST DUP4 SWAP1 JUMPDEST DUP1 DUP3 GT ISZERO PUSH2 0x178A JUMPI PUSH1 0x20 DUP5 DUP5 MLOAD SWAP1 DUP2 MSTORE RETURN JUMPDEST SWAP1 SWAP3 PUSH2 0x17A8 PUSH2 0x17AE SWAP2 DUP6 DUP8 MSTORE PUSH1 0x2 PUSH1 0x20 MSTORE PUSH1 0x3 DUP6 DUP9 KECCAK256 ADD SLOAD SWAP1 PUSH2 0x258F JUMP JUMPDEST SWAP4 PUSH2 0x249D JUMP JUMPDEST SWAP1 PUSH2 0x1778 JUMP JUMPDEST POP SWAP1 CALLVALUE PUSH2 0x355 JUMPI DUP2 PUSH32 0xFFFFFFFFFFFFFFFFFFFFFFFFFFFFFFFFFFFFFFFFFFFFFFFFFFFFFFFFFFFFFFFC CALLDATASIZE ADD SLT PUSH2 0x355 JUMPI PUSH1 0x20 SWAP1 MLOAD PUSH20 0xFFFFFFFFFFFFFFFFFFFFFFFFFFFFFFFFFFFFFFFF PUSH32 0x0 AND DUP2 MSTORE RETURN JUMPDEST POP SWAP1 CALLVALUE PUSH2 0x355 JUMPI DUP2 PUSH32 0xFFFFFFFFFFFFFFFFFFFFFFFFFFFFFFFFFFFFFFFFFFFFFFFFFFFFFFFFFFFFFFFC CALLDATASIZE ADD SLT PUSH2 0x355 JUMPI PUSH2 0x185F PUSH1 0x7 SLOAD TIMESTAMP PUSH2 0x2431 JUMP JUMPDEST SWAP2 PUSH3 0x140CD0 SWAP3 DUP4 SUB SWAP3 DUP4 GT PUSH2 0x329 JUMPI PUSH1 0x20 DUP4 DUP4 MLOAD SWAP1 DUP2 MSTORE RETURN JUMPDEST POP SWAP2 CALLVALUE PUSH2 0x447 JUMPI DUP3 PUSH32 0xFFFFFFFFFFFFFFFFFFFFFFFFFFFFFFFFFFFFFFFFFFFFFFFFFFFFFFFFFFFFFFFC CALLDATASIZE ADD SLT PUSH2 0x447 JUMPI DUP3 SLOAD SWAP2 PUSH1 0xFF DUP4 AND ISZERO PUSH2 0xA00 JUMPI DUP4 PUSH1 0x1 DUP5 PUSH32 0xFFFFFFFFFFFFFFFFFFFFFFFFFFFFFFFFFFFFFFFFFFFFFFFFFFFFFFFFFFFFFF00 DUP1 SWAP2 AND DUP4 SSTORE PUSH2 0x18E6 PUSH2 0x2EEC JUMP JUMPDEST PUSH2 0x18EE PUSH2 0x2637 JUMP JUMPDEST PUSH2 0x18F6 PUSH2 0x29D9 JUMP JUMPDEST PUSH2 0x13C1 PUSH2 0x27AE JUMP JUMPDEST POP SWAP2 CALLVALUE PUSH2 0x447 JUMPI DUP3 PUSH32 0xFFFFFFFFFFFFFFFFFFFFFFFFFFFFFFFFFFFFFFFFFFFFFFFFFFFFFFFFFFFFFFFC CALLDATASIZE ADD SLT PUSH2 0x447 JUMPI DUP3 SLOAD SWAP2 PUSH1 0xFF DUP4 AND ISZERO PUSH2 0xA00 JUMPI DUP4 PUSH1 0x1 DUP5 PUSH32 0xFFFFFFFFFFFFFFFFFFFFFFFFFFFFFFFFFFFFFFFFFFFFFFFFFFFFFFFFFFFFFF00 DUP1 SWAP2 AND DUP4 SSTORE PUSH2 0x196C PUSH2 0x2EEC JUMP JUMPDEST PUSH2 0x1974 PUSH2 0x2637 JUMP JUMPDEST PUSH2 0x13C1 PUSH2 0x29D9 JUMP JUMPDEST POP SWAP1 CALLVALUE PUSH2 0x355 JUMPI DUP2 PUSH32 0xFFFFFFFFFFFFFFFFFFFFFFFFFFFFFFFFFFFFFFFFFFFFFFFFFFFFFFFFFFFFFFFC CALLDATASIZE ADD SLT PUSH2 0x355 JUMPI PUSH1 0x20 SWAP1 MLOAD PUSH21 0x10000000000000000000000000000000000000000 DUP2 MSTORE RETURN JUMPDEST POP SWAP1 CALLVALUE PUSH2 0x355 JUMPI DUP2 PUSH32 0xFFFFFFFFFFFFFFFFFFFFFFFFFFFFFFFFFFFFFFFFFFFFFFFFFFFFFFFFFFFFFFFC CALLDATASIZE ADD SLT PUSH2 0x355 JUMPI PUSH1 0x20 SWAP1 MLOAD PUSH7 0x58D15E17628000 DUP2 MSTORE RETURN JUMPDEST POP SWAP1 CALLVALUE PUSH2 0x355 JUMPI DUP2 PUSH32 0xFFFFFFFFFFFFFFFFFFFFFFFFFFFFFFFFFFFFFFFFFFFFFFFFFFFFFFFFFFFFFFFC CALLDATASIZE ADD SLT PUSH2 0x355 JUMPI PUSH1 0x20 SWAP1 MLOAD PUSH3 0x140CD0 DUP2 MSTORE RETURN JUMPDEST POP SWAP2 CALLVALUE PUSH2 0x447 JUMPI PUSH2 0x1A57 CALLDATASIZE DUP3 PUSH2 0x22F5 JUMP JUMPDEST SWAP3 SWAP2 PUSH20 0xFFFFFFFFFFFFFFFFFFFFFFFFFFFFFFFFFFFFFFFF DUP1 SWAP2 AND SWAP3 DUP4 DUP8 MSTORE PUSH1 0x20 SWAP7 PUSH1 0x3 DUP9 MSTORE DUP4 DUP8 DUP3 KECCAK256 SWAP1 PUSH2 0x1A8A SWAP2 PUSH2 0x2328 JUMP JUMPDEST SWAP6 DUP8 MLOAD SWAP4 PUSH2 0x1A99 PUSH1 0xE0 DUP7 PUSH2 0x21AF JUMP JUMPDEST DUP8 SLOAD PUSH1 0xFF AND ISZERO ISZERO DUP6 MSTORE PUSH1 0x1 DUP9 ADD SLOAD DUP11 DUP7 ADD MSTORE PUSH1 0x2 DUP9 ADD SLOAD SWAP6 DUP10 DUP7 ADD SWAP7 DUP8 MSTORE PUSH1 0x3 DUP10 ADD SLOAD SWAP8 PUSH1 0x60 DUP8 ADD SWAP9 DUP10 MSTORE DUP6 DUP11 ADD SLOAD SWAP7 PUSH1 0x80 DUP2 ADD SWAP8 DUP9 MSTORE DUP4 PUSH1 0x5 DUP13 ADD SLOAD SWAP12 PUSH1 0xA0 DUP4 ADD SWAP13 DUP14 MSTORE PUSH1 0x6 ADD SLOAD AND SWAP1 PUSH1 0xC0 ADD MSTORE DUP5 MSTORE DUP5 DUP12 MSTORE DUP10 DUP5 KECCAK256 SWAP1 PUSH2 0x1AFA SWAP2 PUSH2 0x2328 JUMP JUMPDEST SWAP2 AND DUP3 MSTORE DUP9 MSTORE DUP7 DUP2 KECCAK256 SWAP6 DUP8 MLOAD SWAP7 PUSH2 0x1B11 DUP10 DUP10 PUSH2 0x21AF JUMP JUMPDEST DUP1 SLOAD DUP9 MSTORE PUSH1 0x1 ADD SLOAD SWAP6 DUP10 DUP9 ADD SWAP7 DUP8 MSTORE MLOAD SWAP5 MLOAD SWAP4 MLOAD DUP1 TIMESTAMP GT DUP1 PUSH2 0x1BFC JUMPI JUMPDEST PUSH2 0x1B4F JUMPI JUMPDEST DUP10 DUP10 PUSH2 0x2C4 DUP10 PUSH2 0x1B44 DUP11 DUP14 MLOAD PUSH2 0x23B6 JUMP JUMPDEST PUSH1 0xA0 SHR SWAP1 MLOAD SWAP1 PUSH2 0x261E JUMP JUMPDEST PUSH2 0x1B80 SWAP2 PUSH2 0x1B6F PUSH2 0x1B66 PUSH2 0x1B77 SWAP4 SWAP11 SWAP10 SWAP11 TIMESTAMP PUSH2 0x2431 JUMP JUMPDEST PUSH1 0x5 SLOAD SWAP1 PUSH2 0x23B6 JUMP JUMPDEST SWAP1 MLOAD SWAP1 PUSH2 0x23B6 JUMP JUMPDEST PUSH1 0x6 SLOAD SWAP1 PUSH2 0x23F8 JUMP JUMPDEST SWAP2 DUP3 PUSH1 0xA0 SHL SWAP3 DUP1 DUP5 DIV PUSH21 0x10000000000000000000000000000000000000000 EQ SWAP1 ISZERO OR ISZERO PUSH2 0x1BD0 JUMPI POP POP PUSH2 0x1B44 SWAP3 PUSH2 0x1BC0 PUSH2 0x2C4 SWAP7 SWAP6 SWAP4 PUSH2 0x1BC6 SWAP4 PUSH2 0x23F8 JUMP JUMPDEST SWAP1 PUSH2 0x258F JUMP JUMPDEST SWAP2 DUP2 SWAP5 CODESIZE DUP1 PUSH2 0x1B33 JUMP JUMPDEST SWAP1 PUSH1 0x11 PUSH1 0x24 SWAP3 PUSH32 0x4E487B7100000000000000000000000000000000000000000000000000000000 DUP4 MSTORE MSTORE REVERT JUMPDEST POP DUP5 ISZERO ISZERO PUSH2 0x1B2E JUMP JUMPDEST POP DUP3 CALLVALUE PUSH2 0x355 JUMPI PUSH1 0x20 SWAP1 DUP2 PUSH32 0xFFFFFFFFFFFFFFFFFFFFFFFFFFFFFFFFFFFFFFFFFFFFFFFFFFFFFFFFFFFFFFFC CALLDATASIZE ADD SLT PUSH2 0x447 JUMPI DUP1 CALLDATALOAD SWAP1 PUSH20 0xFFFFFFFFFFFFFFFFFFFFFFFFFFFFFFFFFFFFFFFF SWAP3 DUP4 DUP4 AND SWAP2 DUP3 DUP5 SUB PUSH2 0xA26 JUMPI DUP6 SLOAD SWAP5 PUSH1 0xFF DUP7 AND ISZERO PUSH2 0x1DC1 JUMPI PUSH32 0xFFFFFFFFFFFFFFFFFFFFFFFFFFFFFFFFFFFFFFFFFFFFFFFFFFFFFFFFFFFFFF00 DUP1 SWAP7 AND DUP8 SSTORE PUSH2 0x1C96 PUSH2 0x2637 JUMP JUMPDEST PUSH2 0x1C9E PUSH2 0x29D9 JUMP JUMPDEST PUSH2 0x1CA6 PUSH2 0x2F93 JUMP JUMPDEST PUSH32 0x0 SWAP1 DUP2 AND DUP5 EQ PUSH2 0x1D6C JUMPI POP PUSH4 0x70A08231 DUP7 MSTORE ADDRESS DUP3 MSTORE DUP2 DUP7 PUSH1 0x44 PUSH1 0x16 DUP3 DUP5 DUP1 PUSH1 0x24 PUSH1 0x1C DUP13 GAS STATICCALL PUSH1 0x1F RETURNDATASIZE GT AND DUP6 MLOAD MUL SWAP9 CALLER PUSH1 0x1A MSTORE DUP10 PUSH1 0x3A MSTORE PUSH10 0xA9059CBB000000000000 DUP3 MSTORE GAS CALL RETURNDATASIZE ISZERO PUSH1 0x1 DUP9 MLOAD EQ OR AND ISZERO PUSH2 0x1D61 JUMPI POP DUP5 SWAP6 PUSH32 0xEE2522CA264E96C7CEF76269664E2A4CEA70AD76B78EE5B01D0587798A0A72D6 SWAP2 PUSH1 0x1 SWAP7 PUSH1 0x3A MSTORE PUSH2 0x1D4C PUSH2 0x243E JUMP JUMPDEST SWAP1 DUP3 MLOAD SWAP6 DUP7 MSTORE DUP6 ADD MSTORE CALLER SWAP4 LOG3 DUP3 SLOAD AND OR DUP2 SSTORE DUP1 RETURN JUMPDEST PUSH4 0x90B8EC18 DUP7 MSTORE PUSH1 0x1C REVERT JUMPDEST DUP8 MLOAD PUSH32 0xEF52F72D00000000000000000000000000000000000000000000000000000000 DUP2 MSTORE PUSH20 0xFFFFFFFFFFFFFFFFFFFFFFFFFFFFFFFFFFFFFFFF DUP1 DUP8 AND SWAP4 DUP3 ADD SWAP4 DUP5 MSTORE SWAP1 SWAP2 AND PUSH1 0x20 DUP4 ADD MSTORE SWAP1 DUP2 SWAP1 PUSH1 0x40 ADD SUB SWAP1 REVERT JUMPDEST POP DUP7 MLOAD PUSH32 0x37ED32E800000000000000000000000000000000000000000000000000000000 DUP2 MSTORE REVERT JUMPDEST POP SWAP1 CALLVALUE PUSH2 0x355 JUMPI DUP2 PUSH32 0xFFFFFFFFFFFFFFFFFFFFFFFFFFFFFFFFFFFFFFFFFFFFFFFFFFFFFFFFFFFFFFFC CALLDATASIZE ADD SLT PUSH2 0x355 JUMPI PUSH1 0x20 SWAP1 MLOAD PUSH4 0x784CE00 DUP2 MSTORE RETURN JUMPDEST POP SWAP1 CALLVALUE PUSH2 0x355 JUMPI DUP2 PUSH32 0xFFFFFFFFFFFFFFFFFFFFFFFFFFFFFFFFFFFFFFFFFFFFFFFFFFFFFFFFFFFFFFFC CALLDATASIZE ADD SLT PUSH2 0x355 JUMPI PUSH2 0x1E5E PUSH2 0x243E JUMP JUMPDEST PUSH1 0x1 DUP2 ADD DUP1 SWAP2 GT PUSH2 0x1E72 JUMPI PUSH2 0x309 SWAP1 PUSH2 0x259C JUMP JUMPDEST PUSH1 0x24 DUP4 PUSH1 0x11 DUP7 PUSH32 0x4E487B7100000000000000000000000000000000000000000000000000000000 DUP4 MSTORE MSTORE REVERT JUMPDEST POP SWAP2 CALLVALUE PUSH2 0x447 JUMPI PUSH1 0x20 PUSH32 0xFFFFFFFFFFFFFFFFFFFFFFFFFFFFFFFFFFFFFFFFFFFFFFFFFFFFFFFFFFFFFFFC CALLDATASIZE ADD SLT PUSH2 0x447 JUMPI CALLDATALOAD SWAP2 PUSH1 0x1 SLOAD DUP4 LT ISZERO PUSH2 0x2CB JUMPI POP PUSH20 0xFFFFFFFFFFFFFFFFFFFFFFFFFFFFFFFFFFFFFFFF PUSH2 0x1EFE PUSH1 0x20 SWAP4 PUSH1 0x1 PUSH2 0x236F JUMP JUMPDEST SWAP3 SWAP1 SLOAD SWAP1 MLOAD SWAP3 PUSH1 0x3 SHL SHR AND DUP2 MSTORE RETURN JUMPDEST POP SWAP1 CALLVALUE PUSH2 0x355 JUMPI DUP2 PUSH32 0xFFFFFFFFFFFFFFFFFFFFFFFFFFFFFFFFFFFFFFFFFFFFFFFFFFFFFFFFFFFFFFFC CALLDATASIZE ADD SLT PUSH2 0x355 JUMPI PUSH1 0x20 SWAP1 PUSH1 0x6 SLOAD SWAP1 MLOAD SWAP1 DUP2 MSTORE RETURN JUMPDEST POP SWAP2 SWAP1 CALLVALUE PUSH2 0x447 JUMPI PUSH1 0x20 PUSH32 0xFFFFFFFFFFFFFFFFFFFFFFFFFFFFFFFFFFFFFFFFFFFFFFFFFFFFFFFFFFFFFFFC CALLDATASIZE ADD SLT PUSH2 0x447 JUMPI DUP1 PUSH1 0xC0 SWAP4 DUP4 CALLDATALOAD DUP2 MSTORE PUSH1 0x2 PUSH1 0x20 MSTORE KECCAK256 DUP1 SLOAD SWAP3 PUSH1 0x1 DUP3 ADD SLOAD SWAP3 PUSH1 0x2 DUP4 ADD SLOAD SWAP1 PUSH1 0x5 PUSH1 0x3 DUP6 ADD SLOAD SWAP4 DUP6 ADD SLOAD SWAP5 ADD SLOAD SWAP5 DUP2 MLOAD SWAP7 DUP8 MSTORE PUSH1 0x20 DUP8 ADD MSTORE DUP6 ADD MSTORE PUSH1 0x60 DUP5 ADD MSTORE PUSH1 0x80 DUP4 ADD MSTORE PUSH1 0xA0 DUP3 ADD MSTORE RETURN JUMPDEST POP SWAP2 CALLVALUE PUSH2 0x447 JUMPI SWAP2 PUSH2 0x2005 DUP3 SWAP4 PUSH2 0x1FDD CALLDATASIZE DUP3 PUSH2 0x22F5 JUMP JUMPDEST SWAP4 SWAP2 SWAP3 PUSH20 0xFFFFFFFFFFFFFFFFFFFFFFFFFFFFFFFFFFFFFFFF DUP1 SWAP5 AND DUP7 MSTORE PUSH1 0x20 MSTORE DUP6 DUP6 KECCAK256 PUSH2 0x2328 JUMP JUMPDEST SWAP2 AND DUP3 MSTORE PUSH1 0x20 MSTORE KECCAK256 PUSH1 0x1 DUP2 SLOAD SWAP2 ADD SLOAD DUP3 MLOAD SWAP2 DUP3 MSTORE PUSH1 0x20 DUP3 ADD MSTORE RETURN JUMPDEST POP SWAP1 CALLVALUE PUSH2 0x355 JUMPI DUP2 PUSH32 0xFFFFFFFFFFFFFFFFFFFFFFFFFFFFFFFFFFFFFFFFFFFFFFFFFFFFFFFFFFFFFFFC CALLDATASIZE ADD SLT PUSH2 0x355 JUMPI PUSH2 0x158B SWAP1 PUSH2 0x205E PUSH1 0x1B PUSH2 0x221F JUMP JUMPDEST SWAP1 PUSH32 0x4379676E757344414F3A20436F6D706C65782052657761726465720000000000 PUSH1 0x20 DUP4 ADD MSTORE MLOAD SWAP2 DUP3 SWAP2 DUP3 PUSH2 0x2269 JUMP JUMPDEST POP DUP3 CALLVALUE PUSH2 0x355 JUMPI DUP2 PUSH32 0xFFFFFFFFFFFFFFFFFFFFFFFFFFFFFFFFFFFFFFFFFFFFFFFFFFFFFFFFFFFFFFFC CALLDATASIZE ADD SLT PUSH2 0x355 JUMPI PUSH1 0x8 SLOAD SWAP2 PUSH8 0xDE0B6B3A7640000 SWAP2 DUP4 DUP4 SUB SWAP3 DUP4 GT PUSH2 0x1BD0 JUMPI POP POP DUP3 MLOAD SWAP2 DUP3 MSTORE PUSH1 0x20 DUP3 ADD MSTORE RETURN JUMPDEST POP SWAP2 CALLVALUE PUSH2 0x447 JUMPI PUSH1 0x20 PUSH32 0xFFFFFFFFFFFFFFFFFFFFFFFFFFFFFFFFFFFFFFFFFFFFFFFFFFFFFFFFFFFFFFFC CALLDATASIZE ADD SLT PUSH2 0x447 JUMPI DUP1 CALLDATALOAD SWAP1 PUSH2 0x2121 PUSH2 0x2637 JUMP JUMPDEST PUSH2 0x2129 PUSH2 0x29D9 JUMP JUMPDEST PUSH2 0x2131 PUSH2 0x2F93 JUMP JUMPDEST PUSH8 0x69789FBBC4F8000 DUP1 DUP4 GT PUSH2 0x217B JUMPI DUP5 PUSH32 0x3EA86743BC8B6977A0693F6611AD7256D6EC1E3F996C6CBA22E146152959DDFF DUP6 DUP6 PUSH1 0x5 SLOAD SWAP1 DUP1 PUSH1 0x5 SSTORE DUP3 MLOAD SWAP2 DUP3 MSTORE PUSH1 0x20 DUP3 ADD MSTORE LOG1 DUP1 RETURN JUMPDEST SWAP2 PUSH1 0x44 SWAP3 DUP5 MLOAD SWAP3 PUSH32 0xC3AF7CC700000000000000000000000000000000000000000000000000000000 DUP5 MSTORE DUP4 ADD MSTORE PUSH1 0x24 DUP3 ADD MSTORE REVERT JUMPDEST SWAP1 PUSH1 0x1F PUSH32 0xFFFFFFFFFFFFFFFFFFFFFFFFFFFFFFFFFFFFFFFFFFFFFFFFFFFFFFFFFFFFFFE0 SWAP2 ADD AND DUP2 ADD SWAP1 DUP2 LT PUSH8 0xFFFFFFFFFFFFFFFF DUP3 GT OR PUSH2 0x21F0 JUMPI PUSH1 0x40 MSTORE JUMP JUMPDEST PUSH32 0x4E487B7100000000000000000000000000000000000000000000000000000000 PUSH1 0x0 MSTORE PUSH1 0x41 PUSH1 0x4 MSTORE PUSH1 0x24 PUSH1 0x0 REVERT JUMPDEST SWAP1 PUSH8 0xFFFFFFFFFFFFFFFF DUP3 GT PUSH2 0x21F0 JUMPI PUSH1 0x40 MLOAD SWAP2 PUSH2 0x2265 PUSH1 0x20 PUSH32 0xFFFFFFFFFFFFFFFFFFFFFFFFFFFFFFFFFFFFFFFFFFFFFFFFFFFFFFFFFFFFFFE0 PUSH1 0x1F DUP5 ADD AND ADD DUP5 PUSH2 0x21AF JUMP JUMPDEST DUP3 MSTORE JUMP JUMPDEST PUSH1 0x20 DUP1 DUP3 MSTORE DUP3 MLOAD DUP2 DUP4 ADD DUP2 SWAP1 MSTORE SWAP4 SWAP3 PUSH1 0x0 JUMPDEST DUP6 DUP2 LT PUSH2 0x22BB JUMPI POP POP POP PUSH32 0xFFFFFFFFFFFFFFFFFFFFFFFFFFFFFFFFFFFFFFFFFFFFFFFFFFFFFFFFFFFFFFE0 PUSH1 0x1F DUP5 PUSH1 0x0 PUSH1 0x40 DUP1 SWAP7 SWAP8 DUP7 ADD ADD MSTORE ADD AND ADD ADD SWAP1 JUMP JUMPDEST DUP2 DUP2 ADD DUP4 ADD MLOAD DUP5 DUP3 ADD PUSH1 0x40 ADD MSTORE DUP3 ADD PUSH2 0x227B JUMP JUMPDEST CALLDATALOAD SWAP1 PUSH20 0xFFFFFFFFFFFFFFFFFFFFFFFFFFFFFFFFFFFFFFFF DUP3 AND DUP3 SUB PUSH2 0x22F0 JUMPI JUMP JUMPDEST PUSH1 0x0 DUP1 REVERT JUMPDEST SWAP1 DUP2 PUSH1 0x60 SWAP2 SUB SLT PUSH2 0x22F0 JUMPI PUSH2 0x2309 DUP2 PUSH2 0x22CF JUMP JUMPDEST SWAP2 PUSH1 0x20 DUP3 ADD CALLDATALOAD PUSH1 0x2 DUP2 LT ISZERO PUSH2 0x22F0 JUMPI PUSH1 0x40 PUSH2 0x2325 SWAP2 SWAP4 ADD PUSH2 0x22CF JUMP JUMPDEST SWAP1 JUMP JUMPDEST SWAP1 PUSH1 0x2 DUP2 LT ISZERO PUSH2 0x2340 JUMPI PUSH1 0x0 MSTORE PUSH1 0x20 MSTORE PUSH1 0x40 PUSH1 0x0 KECCAK256 SWAP1 JUMP JUMPDEST PUSH32 0x4E487B7100000000000000000000000000000000000000000000000000000000 PUSH1 0x0 MSTORE PUSH1 0x21 PUSH1 0x4 MSTORE PUSH1 0x24 PUSH1 0x0 REVERT JUMPDEST DUP1 SLOAD DUP3 LT ISZERO PUSH2 0x2387 JUMPI PUSH1 0x0 MSTORE PUSH1 0x20 PUSH1 0x0 KECCAK256 ADD SWAP1 PUSH1 0x0 SWAP1 JUMP JUMPDEST PUSH32 0x4E487B7100000000000000000000000000000000000000000000000000000000 PUSH1 0x0 MSTORE PUSH1 0x32 PUSH1 0x4 MSTORE PUSH1 0x24 PUSH1 0x0 REVERT JUMPDEST DUP2 DUP2 MUL SWAP3 SWAP2 DUP2 ISZERO SWAP2 DUP5 DIV EQ OR ISZERO PUSH2 0x23C9 JUMPI JUMP JUMPDEST PUSH32 0x4E487B7100000000000000000000000000000000000000000000000000000000 PUSH1 0x0 MSTORE PUSH1 0x11 PUSH1 0x4 MSTORE PUSH1 0x24 PUSH1 0x0 REVERT JUMPDEST DUP2 ISZERO PUSH2 0x2402 JUMPI DIV SWAP1 JUMP JUMPDEST PUSH32 0x4E487B7100000000000000000000000000000000000000000000000000000000 PUSH1 0x0 MSTORE PUSH1 0x12 PUSH1 0x4 MSTORE PUSH1 0x24 PUSH1 0x0 REVERT JUMPDEST SWAP2 SWAP1 DUP3 SUB SWAP2 DUP3 GT PUSH2 0x23C9 JUMPI JUMP JUMPDEST PUSH32 0x0 TIMESTAMP LT ISZERO PUSH2 0x2498 JUMPI PUSH3 0x140CD0 PUSH2 0x2494 PUSH32 0x0 TIMESTAMP PUSH2 0x2431 JUMP JUMPDEST DIV SWAP1 JUMP JUMPDEST PUSH1 0x60 SWAP1 JUMP JUMPDEST PUSH32 0xFFFFFFFFFFFFFFFFFFFFFFFFFFFFFFFFFFFFFFFFFFFFFFFFFFFFFFFFFFFFFFFF DUP2 EQ PUSH2 0x23C9 JUMPI PUSH1 0x1 ADD SWAP1 JUMP JUMPDEST PUSH1 0x60 SUB PUSH1 0x60 DUP2 GT PUSH2 0x23C9 JUMPI PUSH8 0xDE0B6B3A7640000 PUSH1 0x0 SWAP2 DUP3 SWAP1 JUMPDEST DUP1 DUP3 LT PUSH2 0x2538 JUMPI POP POP PUSH8 0xDE0B6B3A7640000 SUB SWAP1 PUSH8 0xDE0B6B3A7640000 DUP3 GT PUSH2 0x250B JUMPI POP SWAP1 JUMP JUMPDEST DUP1 PUSH32 0x4E487B7100000000000000000000000000000000000000000000000000000000 PUSH1 0x24 SWAP3 MSTORE PUSH1 0x11 PUSH1 0x4 MSTORE REVERT JUMPDEST SWAP1 SWAP2 PUSH8 0xD87E55590018000 SWAP1 PUSH25 0x12EB73EAE4C8B0077DB7B119A3928413FFF44D230654AC05AC DUP2 GT DUP3 MUL PUSH2 0x2582 JUMPI PUSH2 0x257C SWAP2 PUSH8 0xDE0B6B3A7640000 SWAP2 MUL DIV SWAP3 PUSH2 0x249D JUMP JUMPDEST SWAP1 PUSH2 0x24E4 JUMP JUMPDEST PUSH4 0xBAC65E5B DUP6 MSTORE PUSH1 0x4 PUSH1 0x1C REVERT JUMPDEST SWAP2 SWAP1 DUP3 ADD DUP1 SWAP3 GT PUSH2 0x23C9 JUMPI JUMP JUMPDEST PUSH1 0x0 SWAP1 DUP2 SWAP1 DUP3 PUSH32 0x0 JUMPDEST DUP3 DUP3 GT ISZERO PUSH2 0x25D9 JUMPI POP POP POP PUSH3 0x140CD0 SWAP2 POP DIV SWAP1 JUMP JUMPDEST SWAP1 SWAP2 SWAP3 POP PUSH2 0x2614 PUSH2 0x260E PUSH2 0x2607 PUSH2 0x25F0 DUP8 DUP6 PUSH2 0x2431 JUMP JUMPDEST PUSH7 0x58D15E17628000 PUSH2 0x2601 DUP8 PUSH2 0x24CA JUMP JUMPDEST SWAP2 PUSH2 0x312A JUMP JUMPDEST DUP1 SWAP7 PUSH2 0x258F JUMP JUMPDEST SWAP3 PUSH2 0x249D JUMP JUMPDEST SWAP1 SWAP4 SWAP3 SWAP2 SWAP4 PUSH2 0x25C4 JUMP JUMPDEST DUP2 DUP2 SUB SWAP3 SWAP2 PUSH1 0x0 SGT DUP1 ISZERO DUP3 DUP6 SGT AND SWAP2 DUP5 SLT AND OR PUSH2 0x23C9 JUMPI JUMP JUMPDEST PUSH2 0x264A PUSH1 0x7 SLOAD PUSH3 0x140CD0 SWAP2 DUP3 SWAP2 TIMESTAMP PUSH2 0x2431 JUMP JUMPDEST DIV PUSH2 0x2652 JUMPI POP JUMP JUMPDEST PUSH2 0x265A PUSH2 0x243E JUMP JUMPDEST PUSH1 0x60 DUP2 LT ISZERO PUSH2 0x2783 JUMPI PUSH1 0x5 SLOAD PUSH2 0x266F DUP3 PUSH2 0x259C JUMP JUMPDEST PUSH1 0x5 SSTORE TIMESTAMP PUSH1 0x7 SSTORE PUSH1 0x0 SWAP3 DUP3 DUP5 MSTORE PUSH1 0x2 PUSH1 0x20 MSTORE PUSH1 0x40 DUP5 KECCAK256 TIMESTAMP PUSH1 0x4 DUP3 ADD SSTORE DUP2 TIMESTAMP ADD DUP1 TIMESTAMP GT PUSH2 0x2756 JUMPI PUSH1 0x5 DUP3 ADD SSTORE DUP4 DUP2 SSTORE PUSH1 0x5 SLOAD DUP1 PUSH1 0x1 DUP4 ADD SSTORE DUP3 DUP2 MUL SWAP3 DUP2 DUP5 DIV EQ SWAP1 ISZERO OR ISZERO PUSH2 0x2729 JUMPI PUSH1 0x2 ADD SSTORE PUSH32 0xFFFFFFFFFFFFFFFFFFFFFFFFFFFFFFFFFFFFFFFFFFFFFFFFFFFFFFFFFFFFFFFF DUP3 ADD SWAP3 DUP3 DUP5 GT PUSH2 0x250B JUMPI POP SWAP2 PUSH1 0x80 SWAP2 PUSH32 0xCC53A96DDDB8D3B8710C4932D9E90652A4EAEF0BF4C37A13DC4D806E1B54CB4D SWAP4 PUSH1 0x5 SLOAD SWAP2 PUSH1 0x40 MLOAD SWAP4 DUP5 MSTORE PUSH1 0x20 DUP5 ADD MSTORE PUSH1 0x40 DUP4 ADD MSTORE PUSH1 0x60 DUP3 ADD MSTORE LOG1 JUMPDEST JUMP JUMPDEST PUSH1 0x24 DUP6 PUSH32 0x4E487B7100000000000000000000000000000000000000000000000000000000 DUP2 MSTORE PUSH1 0x11 PUSH1 0x4 MSTORE REVERT JUMPDEST PUSH1 0x24 DUP7 PUSH32 0x4E487B7100000000000000000000000000000000000000000000000000000000 DUP2 MSTORE PUSH1 0x11 PUSH1 0x4 MSTORE REVERT JUMPDEST POP POP PUSH2 0x2727 PUSH2 0x27AE JUMP JUMPDEST MLOAD SWAP1 PUSH20 0xFFFFFFFFFFFFFFFFFFFFFFFFFFFFFFFFFFFFFFFF DUP3 AND DUP3 SUB PUSH2 0x22F0 JUMPI JUMP JUMPDEST PUSH2 0x27B6 PUSH2 0x243E JUMP JUMPDEST SWAP1 PUSH1 0x60 DUP3 LT PUSH2 0x295C JUMPI POP PUSH1 0xFF PUSH1 0x9 SLOAD AND ISZERO PUSH2 0x292D JUMPI PUSH1 0x40 MLOAD PUSH32 0xF851A44000000000000000000000000000000000000000000000000000000000 DUP2 MSTORE PUSH20 0xFFFFFFFFFFFFFFFFFFFFFFFFFFFFFFFFFFFFFFFF SWAP2 PUSH1 0x20 DUP3 PUSH1 0x4 DUP2 DUP7 PUSH32 0x0 AND GAS STATICCALL SWAP2 DUP3 ISZERO PUSH2 0x2921 JUMPI PUSH1 0x0 SWAP3 PUSH2 0x28C2 JUMPI JUMPDEST POP PUSH1 0x80 PUSH32 0x3448D68E439B81DF30DBD68606F415F65C9EABAAEF0ACA1FFC0368CC3954C6DC SWAP2 PUSH1 0x40 MLOAD SWAP1 CALLER DUP3 MSTORE PUSH32 0x0 PUSH1 0x20 DUP4 ADD MSTORE PUSH32 0x0 PUSH1 0x40 DUP4 ADD MSTORE PUSH1 0x60 DUP3 ADD MSTORE LOG1 AND SELFDESTRUCT JUMPDEST SWAP1 SWAP2 PUSH1 0x20 DUP3 RETURNDATASIZE DUP3 GT PUSH2 0x2919 JUMPI JUMPDEST DUP2 PUSH2 0x28DC PUSH1 0x20 SWAP4 DUP4 PUSH2 0x21AF JUMP JUMPDEST DUP2 ADD SUB SLT PUSH2 0x2CB JUMPI POP PUSH1 0x80 PUSH2 0x2911 PUSH32 0x3448D68E439B81DF30DBD68606F415F65C9EABAAEF0ACA1FFC0368CC3954C6DC SWAP3 PUSH2 0x278D JUMP JUMPDEST SWAP3 SWAP2 POP PUSH2 0x2841 JUMP JUMPDEST RETURNDATASIZE SWAP2 POP PUSH2 0x28CF JUMP JUMPDEST PUSH1 0x40 MLOAD RETURNDATASIZE PUSH1 0x0 DUP3 RETURNDATACOPY RETURNDATASIZE SWAP1 REVERT JUMPDEST PUSH32 0x4E487B7100000000000000000000000000000000000000000000000000000000 PUSH1 0x0 MSTORE PUSH1 0x1 PUSH1 0x4 MSTORE PUSH1 0x24 PUSH1 0x0 REVERT JUMPDEST SWAP1 POP JUMP JUMPDEST SWAP1 PUSH1 0x40 MLOAD SWAP2 DUP3 DUP2 SLOAD SWAP2 DUP3 DUP3 MSTORE PUSH1 0x20 SWAP3 DUP4 DUP4 ADD SWAP2 PUSH1 0x0 MSTORE DUP4 PUSH1 0x0 KECCAK256 SWAP4 PUSH1 0x0 SWAP1 JUMPDEST DUP3 DUP3 LT PUSH2 0x2995 JUMPI POP POP POP PUSH2 0x2727 SWAP3 POP SUB DUP4 PUSH2 0x21AF JUMP JUMPDEST DUP6 SLOAD PUSH20 0xFFFFFFFFFFFFFFFFFFFFFFFFFFFFFFFFFFFFFFFF AND DUP5 MSTORE PUSH1 0x1 SWAP6 DUP7 ADD SWAP6 DUP9 SWAP6 POP SWAP4 DUP2 ADD SWAP4 SWAP1 SWAP2 ADD SWAP1 PUSH2 0x297F JUMP JUMPDEST DUP1 MLOAD DUP3 LT ISZERO PUSH2 0x2387 JUMPI PUSH1 0x20 SWAP2 PUSH1 0x5 SHL ADD ADD SWAP1 JUMP JUMPDEST PUSH1 0x1 DUP1 SLOAD SWAP1 PUSH2 0x29E7 DUP2 PUSH2 0x2960 JUMP JUMPDEST SWAP1 PUSH1 0x0 SWAP2 DUP3 JUMPDEST DUP5 DUP2 LT PUSH2 0x29FB JUMPI POP POP POP POP POP JUMP JUMPDEST PUSH2 0x2A3F SWAP1 PUSH2 0x2A39 DUP6 PUSH20 0xFFFFFFFFFFFFFFFFFFFFFFFFFFFFFFFFFFFFFFFF PUSH2 0x2A2E DUP8 DUP3 PUSH2 0x2A27 DUP8 DUP11 PUSH2 0x29C5 JUMP JUMPDEST MLOAD AND PUSH2 0x2A44 JUMP JUMPDEST POP PUSH2 0x2A27 DUP5 DUP8 PUSH2 0x29C5 JUMP JUMPDEST POP PUSH2 0x249D JUMP JUMPDEST PUSH2 0x29ED JUMP JUMPDEST PUSH20 0xFFFFFFFFFFFFFFFFFFFFFFFFFFFFFFFFFFFFFFFF PUSH2 0x2A75 SWAP2 SWAP4 SWAP3 SWAP4 AND SWAP3 DUP4 PUSH1 0x0 MSTORE PUSH1 0x3 PUSH1 0x20 MSTORE PUSH1 0x40 PUSH1 0x0 KECCAK256 PUSH2 0x2328 JUMP JUMPDEST SWAP2 PUSH1 0x4 DUP4 ADD DUP1 SLOAD DUP1 TIMESTAMP GT PUSH2 0x2A88 JUMPI POP POP POP JUMP JUMPDEST PUSH1 0x2 DUP6 ADD SLOAD SWAP1 DUP2 PUSH2 0x2AD6 JUMPI JUMPDEST POP PUSH1 0x60 SWAP1 PUSH32 0x76E5C786DD7C9C1CD87203F33DBC49D953FF07B99DE74BAA864F04A0E3B6AA1C SWAP3 TIMESTAMP SWAP1 SSTORE PUSH1 0x3 DUP7 ADD SLOAD PUSH1 0x40 MLOAD SWAP2 TIMESTAMP DUP4 MSTORE PUSH1 0x20 DUP4 ADD MSTORE PUSH1 0x40 DUP3 ADD MSTORE LOG2 JUMP JUMPDEST PUSH2 0x1B77 PUSH2 0x2AEB PUSH2 0x2AF6 SWAP3 PUSH1 0x5 SLOAD SWAP1 TIMESTAMP SUB PUSH2 0x23B6 JUMP JUMPDEST PUSH1 0x5 DUP9 ADD SLOAD SWAP1 PUSH2 0x23B6 JUMP JUMPDEST SWAP1 DUP2 PUSH1 0xA0 SHL SWAP2 DUP1 DUP4 DIV PUSH21 0x10000000000000000000000000000000000000000 EQ SWAP1 ISZERO OR ISZERO PUSH2 0x23C9 JUMPI PUSH32 0x76E5C786DD7C9C1CD87203F33DBC49D953FF07B99DE74BAA864F04A0E3B6AA1C SWAP3 PUSH2 0x2B4C DUP3 PUSH1 0x60 SWAP5 PUSH2 0x23F8 JUMP JUMPDEST PUSH2 0x2B5B PUSH1 0x3 DUP10 ADD SWAP2 DUP3 SLOAD PUSH2 0x258F JUMP JUMPDEST SWAP1 SSTORE SWAP3 POP SWAP1 PUSH2 0x2A94 JUMP JUMPDEST SWAP2 SWAP1 PUSH2 0x2B71 DUP2 DUP5 PUSH2 0x2A44 JUMP JUMPDEST SWAP1 PUSH20 0xFFFFFFFFFFFFFFFFFFFFFFFFFFFFFFFFFFFFFFFF DUP1 SWAP5 AND SWAP3 PUSH1 0x0 SWAP1 DUP5 DUP3 MSTORE PUSH1 0x4 PUSH1 0x20 MSTORE PUSH2 0x2BA4 PUSH1 0x40 SWAP4 DUP5 DUP5 KECCAK256 PUSH2 0x2328 JUMP JUMPDEST CALLER DUP4 MSTORE PUSH1 0x20 MSTORE PUSH1 0x1 PUSH2 0x2BC0 DUP5 DUP5 KECCAK256 SWAP6 PUSH1 0x3 DUP8 SLOAD SWAP2 ADD SLOAD SWAP1 PUSH2 0x23B6 JUMP JUMPDEST PUSH1 0xA0 SHR SWAP5 ADD SWAP4 PUSH2 0x2BD1 DUP6 SLOAD DUP3 PUSH2 0x261E JUMP JUMPDEST SWAP5 DUP6 ISZERO PUSH2 0x2D08 JUMPI SSTORE PUSH2 0x2BE1 PUSH2 0x243E JUMP JUMPDEST SWAP6 DUP7 DUP4 MSTORE PUSH1 0x2 PUSH1 0x20 MSTORE PUSH1 0x3 DUP5 DUP5 KECCAK256 ADD PUSH2 0x2BFB DUP7 DUP3 SLOAD PUSH2 0x258F JUMP JUMPDEST SWAP1 SSTORE DUP7 DUP4 MSTORE PUSH1 0x2 PUSH1 0x20 MSTORE PUSH1 0x3 DUP5 DUP5 KECCAK256 ADD SLOAD PUSH1 0x2 DUP6 DUP6 KECCAK256 ADD SLOAD LT PUSH2 0x447 JUMPI PUSH32 0x0 AND SWAP1 DUP2 EXTCODESIZE ISZERO PUSH2 0x447 JUMPI DUP4 MLOAD PUSH32 0x40C10F1900000000000000000000000000000000000000000000000000000000 DUP2 MSTORE PUSH20 0xFFFFFFFFFFFFFFFFFFFFFFFFFFFFFFFFFFFFFFFF SWAP2 SWAP1 SWAP2 AND PUSH1 0x4 DUP3 ADD MSTORE PUSH1 0x24 DUP2 ADD DUP6 SWAP1 MSTORE SWAP2 SWAP1 DUP2 SWAP1 DUP4 SWAP1 PUSH1 0x44 SWAP1 DUP3 SWAP1 DUP5 SWAP1 GAS CALL DUP1 ISZERO PUSH2 0x2CFC JUMPI SWAP2 PUSH2 0x2CE7 SWAP4 SWAP2 PUSH32 0xBC96BAF3023D0B9EA3A899E000F15D5F0F7A8B064774C1EED6B4CC63FCBD1B19 SWAP6 SWAP4 PUSH2 0x2CEC JUMPI JUMPDEST POP POP MLOAD CALLER DUP2 MSTORE PUSH1 0x20 DUP2 ADD SWAP2 SWAP1 SWAP2 MSTORE SWAP1 DUP2 SWAP1 PUSH1 0x40 DUP3 ADD SWAP1 JUMP JUMPDEST SUB SWAP1 LOG3 JUMP JUMPDEST PUSH2 0x2CF5 SWAP2 PUSH2 0x21AF JUMP JUMPDEST CODESIZE DUP1 PUSH2 0x2CCF JUMP JUMPDEST POP DUP3 MLOAD SWAP1 RETURNDATASIZE SWAP1 DUP3 RETURNDATACOPY RETURNDATASIZE SWAP1 REVERT JUMPDEST POP POP POP POP POP POP POP POP JUMP JUMPDEST SWAP2 SWAP1 SWAP2 PUSH1 0x0 DUP4 DUP3 ADD SWAP4 DUP5 SLT SWAP2 SLT SWAP1 DUP1 ISZERO DUP3 AND SWAP2 ISZERO AND OR PUSH2 0x23C9 JUMPI JUMP JUMPDEST PUSH20 0xFFFFFFFFFFFFFFFFFFFFFFFFFFFFFFFFFFFFFFFF AND SWAP3 SWAP1 SWAP2 DUP4 ISZERO PUSH2 0x2EE6 JUMPI PUSH2 0x2D57 DUP3 CALLER PUSH2 0x2A44 JUMP JUMPDEST SWAP1 PUSH1 0x0 SWAP2 CALLER DUP4 MSTORE PUSH1 0x4 PUSH1 0x20 MSTORE PUSH2 0x2D70 DUP5 PUSH1 0x40 DUP6 KECCAK256 PUSH2 0x2328 JUMP JUMPDEST DUP7 DUP5 MSTORE PUSH1 0x20 MSTORE PUSH1 0x40 DUP4 KECCAK256 SWAP1 PUSH2 0x2D93 DUP4 PUSH13 0x1000000000000000000000000 DUP9 PUSH2 0x312A JUMP JUMPDEST PUSH2 0x2D9E DUP4 SLOAD DUP3 PUSH2 0x261E JUMP JUMPDEST SWAP3 PUSH1 0x3 DUP4 ADD SLOAD SWAP2 DUP3 DUP6 MUL SWAP3 PUSH32 0x8000000000000000000000000000000000000000000000000000000000000000 DUP2 EQ DUP9 DUP8 SLT AND PUSH2 0x2EB9 JUMPI DUP6 DUP5 SDIV EQ DUP6 ISZERO OR ISZERO PUSH2 0x2E8C JUMPI SWAP2 PUSH2 0x2E10 PUSH21 0x10000000000000000000000000000000000000000 PUSH1 0x1 DUP5 PUSH1 0x2 SWAP7 PUSH2 0x2E1B SWAP9 SWAP7 SSTORE ADD SWAP3 SDIV DUP3 SLOAD PUSH2 0x2D12 JUMP JUMPDEST SWAP1 SSTORE ADD SWAP2 DUP3 SLOAD PUSH2 0x2D12 JUMP JUMPDEST SWAP1 SSTORE PUSH1 0x40 MLOAD SWAP4 DUP5 MSTORE PUSH1 0x20 DUP5 ADD MSTORE PUSH1 0x2 DUP3 LT ISZERO PUSH2 0x2E5F JUMPI POP PUSH1 0x40 DUP3 ADD MSTORE PUSH32 0x9776A1047FD3E7459FCC529A4FCC441AF3C74BAB1415FBDB0D2E70990F545E3F PUSH1 0x60 CALLER SWAP3 LOG3 JUMP JUMPDEST DUP1 PUSH32 0x4E487B7100000000000000000000000000000000000000000000000000000000 PUSH1 0x24 SWAP3 MSTORE PUSH1 0x21 PUSH1 0x4 MSTORE REVERT JUMPDEST PUSH1 0x24 DUP8 PUSH32 0x4E487B7100000000000000000000000000000000000000000000000000000000 DUP2 MSTORE PUSH1 0x11 PUSH1 0x4 MSTORE REVERT JUMPDEST PUSH1 0x24 DUP9 PUSH32 0x4E487B7100000000000000000000000000000000000000000000000000000000 DUP2 MSTORE PUSH1 0x11 PUSH1 0x4 MSTORE REVERT JUMPDEST POP POP POP POP JUMP JUMPDEST ORIGIN CALLER SUB PUSH2 0x2EF5 JUMPI JUMP JUMPDEST PUSH1 0x40 MLOAD PUSH32 0x3E1EB26600000000000000000000000000000000000000000000000000000000 DUP2 MSTORE CALLER PUSH1 0x4 DUP3 ADD MSTORE ORIGIN PUSH1 0x24 DUP3 ADD MSTORE PUSH1 0x44 SWAP1 REVERT JUMPDEST SWAP1 DUP2 PUSH1 0xA0 SWAP2 SUB SLT PUSH2 0x22F0 JUMPI DUP1 MLOAD DUP1 ISZERO ISZERO DUP2 SUB PUSH2 0x22F0 JUMPI SWAP2 PUSH1 0x20 DUP3 ADD MLOAD PUSH11 0xFFFFFFFFFFFFFFFFFFFFFF DUP2 AND DUP2 SUB PUSH2 0x22F0 JUMPI SWAP2 PUSH2 0x2F69 PUSH1 0x40 DUP3 ADD PUSH2 0x278D JUMP JUMPDEST SWAP2 PUSH1 0x80 PUSH2 0x2F78 PUSH1 0x60 DUP5 ADD PUSH2 0x278D JUMP JUMPDEST SWAP3 ADD MLOAD PUSH12 0xFFFFFFFFFFFFFFFFFFFFFFFF DUP2 AND DUP2 SUB PUSH2 0x22F0 JUMPI SWAP1 JUMP JUMPDEST PUSH1 0x40 MLOAD PUSH32 0xF851A44000000000000000000000000000000000000000000000000000000000 DUP2 MSTORE PUSH20 0xFFFFFFFFFFFFFFFFFFFFFFFFFFFFFFFFFFFFFFFF PUSH1 0x20 DUP3 PUSH1 0x4 DUP2 DUP5 PUSH32 0x0 AND GAS STATICCALL SWAP2 DUP3 ISZERO PUSH2 0x2921 JUMPI PUSH1 0x0 SWAP3 PUSH2 0x3063 JUMPI JUMPDEST POP DUP2 AND CALLER SUB PUSH2 0x3014 JUMPI POP JUMP JUMPDEST PUSH1 0x40 MLOAD PUSH32 0x5113AFBD00000000000000000000000000000000000000000000000000000000 DUP2 MSTORE PUSH20 0xFFFFFFFFFFFFFFFFFFFFFFFFFFFFFFFFFFFFFFFF SWAP2 SWAP1 SWAP2 AND PUSH1 0x4 DUP3 ADD MSTORE CALLER PUSH1 0x24 DUP3 ADD MSTORE PUSH1 0x44 SWAP1 REVERT JUMPDEST SWAP1 SWAP2 PUSH1 0x20 DUP3 RETURNDATASIZE DUP3 GT PUSH2 0x3096 JUMPI JUMPDEST DUP2 PUSH2 0x307D PUSH1 0x20 SWAP4 DUP4 PUSH2 0x21AF JUMP JUMPDEST DUP2 ADD SUB SLT PUSH2 0x2CB JUMPI POP PUSH2 0x308F SWAP1 PUSH2 0x278D JUMP JUMPDEST SWAP1 CODESIZE PUSH2 0x3008 JUMP JUMPDEST RETURNDATASIZE SWAP2 POP PUSH2 0x3070 JUMP JUMPDEST SWAP1 DUP1 PUSH32 0xFFFFFFFFFFFFFFFFFFFFFFFFFFFFFFFFFFFFFFFFFFFFFFFFFFFFFFFFFFFFFFFF DIV DUP3 GT DUP2 MUL PUSH2 0x30D9 JUMPI PUSH8 0xDE0B6B3A7640000 SWAP2 MUL DIV SWAP1 JUMP JUMPDEST PUSH4 0xBAC65E5B PUSH1 0x0 MSTORE PUSH1 0x4 PUSH1 0x1C REVERT JUMPDEST PUSH8 0xDE0B6B3A7640000 SWAP1 PUSH25 0x12725DD1D243ABA0E75FE645CC4873F9E65AFE688C928E1F21 DUP2 GT DUP3 MUL ISZERO DUP4 MUL ISZERO PUSH2 0x311C JUMPI MUL DIV SWAP1 JUMP JUMPDEST PUSH4 0x7C5F487D PUSH1 0x0 MSTORE PUSH1 0x4 PUSH1 0x1C REVERT JUMPDEST SWAP2 PUSH1 0x0 SWAP3 DUP3 DUP2 MUL SWAP3 PUSH32 0xFFFFFFFFFFFFFFFFFFFFFFFFFFFFFFFFFFFFFFFFFFFFFFFFFFFFFFFFFFFFFFFF DUP2 DUP4 MULMOD SWAP2 DUP5 DUP4 LT DUP6 ADD DUP1 DUP5 SUB SWAP4 EQ PUSH2 0x31CA JUMPI DUP3 DUP5 GT ISZERO PUSH2 0x31BD JUMPI SWAP1 DUP4 SWAP2 MULMOD SWAP1 PUSH1 0x1 DUP4 DUP7 SUB DUP5 AND DUP1 DUP1 DUP1 SWAP7 DIV PUSH1 0x2 DUP1 DUP3 PUSH1 0x3 MUL XOR DUP1 DUP4 MUL DUP3 SUB MUL DUP1 DUP4 MUL DUP3 SUB MUL DUP1 DUP4 MUL DUP3 SUB MUL DUP1 DUP4 MUL DUP3 SUB MUL DUP1 DUP4 MUL DUP3 SUB MUL DUP1 SWAP3 MUL SWAP1 SUB MUL SWAP8 SUB DIV ADD SWAP1 DUP5 DUP4 GT SWAP1 SUB MUL SWAP3 SUB DIV OR MUL SWAP1 JUMP JUMPDEST PUSH4 0xAE47F702 DUP7 MSTORE PUSH1 0x4 PUSH1 0x1C REVERT JUMPDEST POP POP POP SWAP2 DUP3 ISZERO PUSH2 0x31D9 JUMPI POP DIV SWAP1 JUMP JUMPDEST PUSH4 0xAE47F702 SWAP1 MSTORE PUSH1 0x4 PUSH1 0x1C REVERT INVALID LOG1 PUSH5 0x736F6C6343 STOP ADDMOD GT STOP EXP "},"methodIdentifiers":{"ACC_PRECISION()":"32fcd966","BLOCKS_PER_EPOCH()":"1f3adc0f","BLOCKS_PER_YEAR()":"d37db1d2","DURATION()":"1be05289","MAX_CYG_PER_BLOCK()":"c1f1e5ae","REDUCTION_FACTOR_PER_EPOCH()":"28419d62","SHARES_PRECISION()":"5de7fcd0","TOTAL_EPOCHS()":"5f15c3c9","accelerateTheUniverse()":"f2b128a4","adjustShuttleRewards(uint256,uint256)":"cb87f7f3","advanceEpoch()":"3cf80e6c","allShuttles(uint256)":"1ad4c8c3","birth()":"c81ba8f0","blocksThisEpoch()":"ac9462f5","blocksUntilNextEpoch()":"4f3d90b1","blocksUntilSupernova()":"7c4941ec","borrowRewardsWeight()":"abfdf70a","calculateCygPerBlock(uint256)":"fd59c299","calculateEpochRewards(uint256)":"f6503e6c","collect(address,uint8,address)":"5d8beace","collectCygAll(uint8,address)":"bb014b82","currentEpochRewards()":"9e81b634","cygPerBlock()":"5493b5d6","cygToken()":"4f573686","death()":"6fa42261","doomSwitch()":"f126d964","emissionsCurve(uint256)":"72e127cb","epochProgression()":"6673fd97","epochRewardsPacing()":"5104517f","getBlockTimestamp()":"796b89b9","getCurrentEpoch()":"b97dd9e2","getEpochInfo(uint256)":"135022c2","getRewardWeights()":"04d4e9bd","getShuttleInfo(address,uint8)":"9d3bbe6e","getUserInfo(address,uint8,address)":"0bfc4af9","hangar18()":"e8a24e1d","initializeShuttleRewards(uint256,uint256)":"93c3677b","lastEpochTime()":"89c614b8","name()":"06fdde03","nextEpochRewards()":"1bafed52","pendingCyg(address,uint8,address)":"1d5e8e50","previousEpochRewards()":"58322a8e","setBonusRewarder(uint256,address)":"8ecf3b45","setCygPerBlock(uint256)":"01bac4c6","setDoomSwitch()":"61480eec","setRewardWeights(uint256)":"5ccb14ac","shuttlesLength()":"53cde488","supernova()":"4a91f2b1","sweepToken(address)":"1be19560","totalAllocPoint()":"17caf6f1","totalCygClaimed()":"4fcc5575","totalCygRewards()":"d4f7286b","totalProgression()":"d797c4c3","trackRewards(address,uint256,uint256,uint8)":"e6c5b8ea","updateShuttle(address)":"5303654f","version()":"54fd4d50"}}}}}