{"contracts/cygnus-token/CygnusComplexRewarder.sol":{"CygnusComplexRewarder":{"abi":[{"inputs":[{"internalType":"contract IHangar18","name":"_hangar18","type":"address"},{"internalType":"address","name":"_rewardToken","type":"address"},{"internalType":"uint256","name":"_totalRewards","type":"uint256"}],"stateMutability":"nonpayable","type":"constructor"},{"inputs":[{"internalType":"address","name":"token","type":"address"},{"internalType":"address","name":"underlying","type":"address"}],"name":"CygnusComplexRewarder__CantSweepUnderlying","type":"error"},{"inputs":[{"internalType":"uint256","name":"max","type":"uint256"},{"internalType":"uint256","name":"value","type":"uint256"}],"name":"CygnusComplexRewarder__CygPerBlockExceedsLimit","type":"error"},{"inputs":[{"internalType":"address","name":"admin","type":"address"},{"internalType":"address","name":"sender","type":"address"}],"name":"CygnusComplexRewarder__MsgSenderNotAdmin","type":"error"},{"inputs":[{"internalType":"address","name":"borrowable","type":"address"},{"internalType":"address","name":"sender","type":"address"}],"name":"CygnusComplexRewarder__MsgSenderNotBorrowable","type":"error"},{"inputs":[{"internalType":"address","name":"sender","type":"address"},{"internalType":"address","name":"origin","type":"address"}],"name":"CygnusComplexRewarder__OnlyEOAAllowed","type":"error"},{"inputs":[{"internalType":"uint256","name":"shuttleId","type":"uint256"},{"internalType":"address","name":"borrowable","type":"address"}],"name":"CygnusComplexRewarder__ShuttleAlreadyInitialized","type":"error"},{"inputs":[{"internalType":"uint256","name":"shuttleId","type":"uint256"},{"internalType":"address","name":"borrowable","type":"address"}],"name":"CygnusComplexRewarder__ShuttleNotInitialized","type":"error"},{"inputs":[],"name":"ReentrantCall","type":"error"},{"anonymous":false,"inputs":[{"indexed":false,"internalType":"uint256","name":"shuttlesLength","type":"uint256"},{"indexed":false,"internalType":"address","name":"sender","type":"address"},{"indexed":false,"internalType":"uint256","name":"epoch","type":"uint256"}],"name":"AccelerateTheUniverse","type":"event"},{"anonymous":false,"inputs":[{"indexed":true,"internalType":"address","name":"borrowable","type":"address"},{"indexed":true,"internalType":"uint256","name":"epoch","type":"uint256"},{"indexed":false,"internalType":"address","name":"sender","type":"address"},{"indexed":false,"internalType":"uint256","name":"reward","type":"uint256"}],"name":"CollectReward","type":"event"},{"anonymous":false,"inputs":[{"indexed":false,"internalType":"uint256","name":"lastRewardRate","type":"uint256"},{"indexed":false,"internalType":"uint256","name":"newRewardRate","type":"uint256"}],"name":"NewCygPerBlock","type":"event"},{"anonymous":false,"inputs":[{"indexed":false,"internalType":"uint256","name":"previousEpoch","type":"uint256"},{"indexed":false,"internalType":"uint256","name":"newEpoch","type":"uint256"},{"indexed":false,"internalType":"uint256","name":"_oldCygPerBlock","type":"uint256"},{"indexed":false,"internalType":"uint256","name":"_newCygPerBlock","type":"uint256"}],"name":"NewEpoch","type":"event"},{"anonymous":false,"inputs":[{"indexed":true,"internalType":"uint256","name":"shuttleId","type":"uint256"},{"indexed":false,"internalType":"address","name":"borrowable","type":"address"},{"indexed":false,"internalType":"uint256","name":"oldAllocPoint","type":"uint256"},{"indexed":false,"internalType":"uint256","name":"newAllocPoint","type":"uint256"}],"name":"NewShuttleAllocPoint","type":"event"},{"anonymous":false,"inputs":[{"indexed":true,"internalType":"uint256","name":"shuttleId","type":"uint256"},{"indexed":true,"internalType":"address","name":"borrowable","type":"address"},{"indexed":false,"internalType":"uint256","name":"allocPoints","type":"uint256"}],"name":"NewShuttleReward","type":"event"},{"anonymous":false,"inputs":[{"indexed":true,"internalType":"uint256","name":"shuttleId","type":"uint256"},{"indexed":false,"internalType":"address","name":"borrowable","type":"address"},{"indexed":false,"internalType":"uint256","name":"oldAllocPoint","type":"uint256"},{"indexed":false,"internalType":"uint256","name":"currentEpoch","type":"uint256"}],"name":"RemoveShuttleReward","type":"event"},{"anonymous":false,"inputs":[{"indexed":false,"internalType":"address","name":"sender","type":"address"},{"indexed":false,"internalType":"uint256","name":"_birth","type":"uint256"},{"indexed":false,"internalType":"uint256","name":"_death","type":"uint256"},{"indexed":false,"internalType":"uint256","name":"timestamp","type":"uint256"}],"name":"Supernova","type":"event"},{"anonymous":false,"inputs":[{"indexed":true,"internalType":"address","name":"token","type":"address"},{"indexed":true,"internalType":"address","name":"sender","type":"address"},{"indexed":false,"internalType":"uint256","name":"amount","type":"uint256"},{"indexed":false,"internalType":"uint256","name":"currentEpoch","type":"uint256"}],"name":"SweepToken","type":"event"},{"anonymous":false,"inputs":[{"indexed":true,"internalType":"address","name":"borrowable","type":"address"},{"indexed":true,"internalType":"address","name":"borrower","type":"address"},{"indexed":false,"internalType":"uint256","name":"borrowBalance","type":"uint256"},{"indexed":false,"internalType":"uint256","name":"borrowIndex","type":"uint256"}],"name":"TrackShuttle","type":"event"},{"anonymous":false,"inputs":[{"indexed":true,"internalType":"address","name":"borrowable","type":"address"},{"indexed":false,"internalType":"uint256","name":"lastRewardTime","type":"uint256"},{"indexed":false,"internalType":"uint256","name":"totalShares","type":"uint256"},{"indexed":false,"internalType":"uint256","name":"accRewardPerShare","type":"uint256"}],"name":"UpdateShuttle","type":"event"},{"inputs":[],"name":"ACC_PRECISION","outputs":[{"internalType":"uint256","name":"","type":"uint256"}],"stateMutability":"view","type":"function"},{"inputs":[],"name":"BLOCKS_PER_EPOCH","outputs":[{"internalType":"uint256","name":"","type":"uint256"}],"stateMutability":"view","type":"function"},{"inputs":[],"name":"BLOCKS_PER_YEAR","outputs":[{"internalType":"uint256","name":"","type":"uint256"}],"stateMutability":"view","type":"function"},{"inputs":[],"name":"DURATION","outputs":[{"internalType":"uint256","name":"","type":"uint256"}],"stateMutability":"view","type":"function"},{"inputs":[],"name":"MAX_CYG_PER_BLOCK","outputs":[{"internalType":"uint256","name":"","type":"uint256"}],"stateMutability":"view","type":"function"},{"inputs":[],"name":"REDUCTION_FACTOR_PER_EPOCH","outputs":[{"internalType":"uint256","name":"","type":"uint256"}],"stateMutability":"view","type":"function"},{"inputs":[],"name":"SHARES_PRECISION","outputs":[{"internalType":"uint256","name":"","type":"uint256"}],"stateMutability":"view","type":"function"},{"inputs":[],"name":"TOTAL_EPOCHS","outputs":[{"internalType":"uint256","name":"","type":"uint256"}],"stateMutability":"view","type":"function"},{"inputs":[],"name":"accelerateTheUniverse","outputs":[],"stateMutability":"nonpayable","type":"function"},{"inputs":[{"internalType":"uint256","name":"shuttleId","type":"uint256"},{"internalType":"uint256","name":"allocPoint","type":"uint256"}],"name":"adjustShuttleRewards","outputs":[],"stateMutability":"nonpayable","type":"function"},{"inputs":[],"name":"advanceEpoch","outputs":[],"stateMutability":"nonpayable","type":"function"},{"inputs":[{"internalType":"uint256","name":"","type":"uint256"}],"name":"allShuttles","outputs":[{"internalType":"address","name":"","type":"address"}],"stateMutability":"view","type":"function"},{"inputs":[],"name":"birth","outputs":[{"internalType":"uint256","name":"","type":"uint256"}],"stateMutability":"view","type":"function"},{"inputs":[],"name":"blocksThisEpoch","outputs":[{"internalType":"uint256","name":"","type":"uint256"}],"stateMutability":"view","type":"function"},{"inputs":[],"name":"blocksUntilNextEpoch","outputs":[{"internalType":"uint256","name":"","type":"uint256"}],"stateMutability":"view","type":"function"},{"inputs":[],"name":"blocksUntilSupernova","outputs":[{"internalType":"uint256","name":"","type":"uint256"}],"stateMutability":"view","type":"function"},{"inputs":[{"internalType":"uint256","name":"epoch","type":"uint256"}],"name":"calculateCygPerBlock","outputs":[{"internalType":"uint256","name":"rewardRate","type":"uint256"}],"stateMutability":"view","type":"function"},{"inputs":[{"internalType":"uint256","name":"epoch","type":"uint256"}],"name":"calculateEpochRewards","outputs":[{"internalType":"uint256","name":"rewards","type":"uint256"}],"stateMutability":"view","type":"function"},{"inputs":[{"internalType":"address","name":"borrowable","type":"address"},{"internalType":"address","name":"to","type":"address"}],"name":"collect","outputs":[],"stateMutability":"nonpayable","type":"function"},{"inputs":[{"internalType":"address","name":"to","type":"address"}],"name":"collectAll","outputs":[],"stateMutability":"nonpayable","type":"function"},{"inputs":[],"name":"currentEpochRewards","outputs":[{"internalType":"uint256","name":"","type":"uint256"}],"stateMutability":"view","type":"function"},{"inputs":[],"name":"cygPerBlock","outputs":[{"internalType":"uint256","name":"","type":"uint256"}],"stateMutability":"view","type":"function"},{"inputs":[],"name":"cygToken","outputs":[{"internalType":"address","name":"","type":"address"}],"stateMutability":"view","type":"function"},{"inputs":[],"name":"death","outputs":[{"internalType":"uint256","name":"","type":"uint256"}],"stateMutability":"view","type":"function"},{"inputs":[],"name":"dripDAOCyg","outputs":[],"stateMutability":"nonpayable","type":"function"},{"inputs":[{"internalType":"uint256","name":"epoch","type":"uint256"}],"name":"emissionsCurve","outputs":[{"internalType":"uint256","name":"","type":"uint256"}],"stateMutability":"pure","type":"function"},{"inputs":[],"name":"epochProgression","outputs":[{"internalType":"uint256","name":"","type":"uint256"}],"stateMutability":"view","type":"function"},{"inputs":[],"name":"epochRewardsPacing","outputs":[{"internalType":"uint256","name":"","type":"uint256"}],"stateMutability":"view","type":"function"},{"inputs":[],"name":"getBlockTimestamp","outputs":[{"internalType":"uint256","name":"","type":"uint256"}],"stateMutability":"view","type":"function"},{"inputs":[],"name":"getCurrentEpoch","outputs":[{"internalType":"uint256","name":"currentEpoch","type":"uint256"}],"stateMutability":"view","type":"function"},{"inputs":[{"internalType":"uint256","name":"","type":"uint256"}],"name":"getEpochInfo","outputs":[{"internalType":"uint256","name":"epoch","type":"uint256"},{"internalType":"uint256","name":"cygPerBlock","type":"uint256"},{"internalType":"uint256","name":"totalRewards","type":"uint256"},{"internalType":"uint256","name":"totalClaimed","type":"uint256"},{"internalType":"uint256","name":"start","type":"uint256"},{"internalType":"uint256","name":"end","type":"uint256"}],"stateMutability":"view","type":"function"},{"inputs":[{"internalType":"address","name":"","type":"address"}],"name":"getShuttleInfo","outputs":[{"internalType":"bool","name":"active","type":"bool"},{"internalType":"uint256","name":"shuttleId","type":"uint256"},{"internalType":"uint256","name":"totalShares","type":"uint256"},{"internalType":"uint256","name":"accRewardPerShare","type":"uint256"},{"internalType":"uint256","name":"lastRewardTime","type":"uint256"},{"internalType":"uint256","name":"allocPoint","type":"uint256"}],"stateMutability":"view","type":"function"},{"inputs":[{"internalType":"address","name":"","type":"address"},{"internalType":"address","name":"","type":"address"}],"name":"getUserInfo","outputs":[{"internalType":"uint256","name":"shares","type":"uint256"},{"internalType":"int256","name":"rewardDebt","type":"int256"}],"stateMutability":"view","type":"function"},{"inputs":[],"name":"hangar18","outputs":[{"internalType":"contract IHangar18","name":"","type":"address"}],"stateMutability":"view","type":"function"},{"inputs":[{"internalType":"uint256","name":"shuttleId","type":"uint256"},{"internalType":"uint256","name":"allocPoint","type":"uint256"}],"name":"initializeShuttleRewards","outputs":[],"stateMutability":"nonpayable","type":"function"},{"inputs":[],"name":"lastEpochTime","outputs":[{"internalType":"uint256","name":"","type":"uint256"}],"stateMutability":"view","type":"function"},{"inputs":[],"name":"name","outputs":[{"internalType":"string","name":"","type":"string"}],"stateMutability":"view","type":"function"},{"inputs":[],"name":"nextEpochRewards","outputs":[{"internalType":"uint256","name":"","type":"uint256"}],"stateMutability":"view","type":"function"},{"inputs":[{"internalType":"address","name":"borrowable","type":"address"},{"internalType":"address","name":"borrower","type":"address"}],"name":"pendingCyg","outputs":[{"internalType":"uint256","name":"pending","type":"uint256"}],"stateMutability":"view","type":"function"},{"inputs":[],"name":"previousEpochRewards","outputs":[{"internalType":"uint256","name":"","type":"uint256"}],"stateMutability":"view","type":"function"},{"inputs":[{"internalType":"uint256","name":"_cygPerBlock","type":"uint256"}],"name":"setCygPerBlock","outputs":[],"stateMutability":"nonpayable","type":"function"},{"inputs":[],"name":"shuttlesLength","outputs":[{"internalType":"uint256","name":"","type":"uint256"}],"stateMutability":"view","type":"function"},{"inputs":[],"name":"supernova","outputs":[],"stateMutability":"nonpayable","type":"function"},{"inputs":[{"internalType":"address","name":"token","type":"address"}],"name":"sweepToken","outputs":[],"stateMutability":"nonpayable","type":"function"},{"inputs":[],"name":"totalAllocPoint","outputs":[{"internalType":"uint256","name":"","type":"uint256"}],"stateMutability":"view","type":"function"},{"inputs":[],"name":"totalCygClaimed","outputs":[{"internalType":"uint256","name":"claimed","type":"uint256"}],"stateMutability":"view","type":"function"},{"inputs":[],"name":"totalCygRewards","outputs":[{"internalType":"uint256","name":"","type":"uint256"}],"stateMutability":"view","type":"function"},{"inputs":[],"name":"totalProgression","outputs":[{"internalType":"uint256","name":"","type":"uint256"}],"stateMutability":"view","type":"function"},{"inputs":[{"internalType":"address","name":"borrower","type":"address"},{"internalType":"uint256","name":"borrowBalance","type":"uint256"},{"internalType":"uint256","name":"borrowIndex","type":"uint256"}],"name":"trackBorrower","outputs":[],"stateMutability":"nonpayable","type":"function"},{"inputs":[{"internalType":"address","name":"borrowable","type":"address"}],"name":"updateShuttle","outputs":[],"stateMutability":"nonpayable","type":"function"},{"inputs":[],"name":"version","outputs":[{"internalType":"string","name":"","type":"string"}],"stateMutability":"view","type":"function"}],"evm":{"bytecode":{"linkReferences":{},"object":"60406101208152346200042c57620031179060608238039283620000238162000431565b9485928339810103126200042c578151916001600160a01b039081841684036200042c57602081015191821682036200042c578201519260016000928160ff1985541617845561010095865283928493855b80156200023e575050622819a0809404918260055567069789fbbc4f800080841162000221575060e052608052426007554260a052630784ce0042018042116200020d5760c052824201918242116200020d578382029382850414821517156200020d577fcc53a96dddb8d3b8710c4932d9e90652a4eaef0bf4c37a13dc4d806e1b54cb4d9492608094926005926200010f60c062000431565b948686526020860192835289860190815260608601918783528887019342855260a0880195865288805260026020528b892097518855519087015551600286015551600385015551600484015551910155600554845191808352806020840152858301526060820152a151612c8391826200049483396080518281816104e60152818161096b01528181610d90015281816125360152612a6d015260a0518281816106ee01528181610b050152818161219f0152612591015260c051828181611189015281816112590152818161217001526125b7015260e051828181611713015281816119e5015261292b01525181818161084b01526122d40152f35b634e487b7160e01b85526011600452602485fd5b6044908489519163c3af7cc760e01b835260048301526024820152fd5b909450875194808603958611620002ec576030958287039687116200041857670de0b6b3a76400009688905b808210620003bd57505086670de0b6b3a764000003670de0b6b3a76400008111620003a957869089986658d15e1762800093848102600019868309958482881083018089039814918882111594099682881190039682039562000300575b50505050505050858101809111620002ec57620002e690916200046d565b62000075565b634e487b7160e01b87526011600452602487fd5b909192939495969b506200037857506200036b57670de0b6b3a763ffff190181168091046002808260030218808302820302808302820302808302820302808302820302808302820302809202900302928782808c03040102910417029438808080808080620002c8565b63ae47f7028a526004601cfd5b935050909250670de0b6b3a7640000146200039c57049438808080808080620002c8565b63ae47f70288526004601cfd5b634e487b7160e01b89526011600452602489fd5b9097670d87e55590018000907812eb73eae4c8b0077db7b119a3928413fff44d230654ac05ac811182026200040b576200040491670de0b6b3a7640000910204986200046d565b906200026a565b63bac65e5b8b526004601cfd5b634e487b7160e01b88526011600452602488fd5b600080fd5b6040519190601f01601f191682016001600160401b038111838210176200045757604052565b634e487b7160e01b600052604160045260246000fd5b60001981146200047d5760010190565b634e487b7160e01b600052601160045260246000fdfe608060408181526004918236101561001657600080fd5b600090813560e01c90816301bac4c614611e5c5750806304b3182e14611de657806306fdde0314611d77578063135022c214611cfb578063151e510e14611c5b57806317caf6f114611c1e5780631ad4c8c314611baf5780631bafed5214611b375780631be0528914611afa5780631be195601461194a5780631f3adc0f1461190e57806328419d62146118ce57806332fcd966146118805780633cf80e6c1461180a5780634a91f2b11461178c5780634f3d90b1146117375780634f573686146116c85780634fcc55751461164f5780635104517f1461159d5780635303654f146114f857806353cde488146114bb5780635493b5d61461147e57806354fd4d501461140b57806358322a8e146113425780635de7fcd0146112fc5780635f15c3c9146112c25780636673fd971461127c5780636fa422611461122357806372e127cb146111e6578063796b89b9146111ad5780637c4941ec1461115057806382ebcd3214610f8357806389c614b814610f4657806393c3677b14610cd05780639e81b63414610c90578063a12ef25e14610be3578063ac9462f514610ba4578063b97dd9e214610b69578063c1f1e5ae14610b28578063c81ba8f014610acf578063cb87f7f3146108ab578063d37db1d21461086e578063d4f7286b14610815578063d657c9e714610718578063d797c4c3146106ae578063d98320d51461050a578063e8a24e1d1461049b578063f2801fe714610418578063f2b128a414610326578063f6503e6c1461029b5763fd59c2991461025557600080fd5b346102985760207ffffffffffffffffffffffffffffffffffffffffffffffffffffffffffffffffc3601126102985750610291602092356122cc565b9051908152f35b80fd5b5090346103225760207ffffffffffffffffffffffffffffffffffffffffffffffffffffffffffffffffc360112610322576102d683356122cc565b91622819a0928381029381850414901517156102f6576020838351908152f35b806011857f4e487b71000000000000000000000000000000000000000000000000000000006024945252fd5b5080fd5b5091903461041457827ffffffffffffffffffffffffffffffffffffffffffffffffffffffffffffffffc3601126104145782549160ff8316156103ed5750907f43604600d5d5b743877b9625896fea0414a17136bbe657753a96dc6f80ede1b960606001937fffffffffffffffffffffffffffffffffffffffffffffffffffffffffffffff0080941686556103b9612367565b6103c16126c8565b8454906103cc61216e565b908051928352336020840152820152a16103e46126c8565b82541617815580f35b90517f37ed32e8000000000000000000000000000000000000000000000000000000008152fd5b8280fd5b503461029857817ffffffffffffffffffffffffffffffffffffffffffffffffffffffffffffffffc3601126102985782359273ffffffffffffffffffffffffffffffffffffffff90818516809503610414576024359182168092036104145783948352602052828220908252602052206001815491015482519182526020820152f35b50903461032257817ffffffffffffffffffffffffffffffffffffffffffffffffffffffffffffffffc360112610322576020905173ffffffffffffffffffffffffffffffffffffffff7f0000000000000000000000000000000000000000000000000000000000000000168152f35b5090346103225760607ffffffffffffffffffffffffffffffffffffffffffffffffffffffffffffffffc3601126103225782359073ffffffffffffffffffffffffffffffffffffffff8216809203610414576024359060443561056c3361271c565b3386528660205282862085875260205282862090610598836c0100000000000000000000000087612b77565b6105a383548261234e565b92600383015491828502927f800000000000000000000000000000000000000000000000000000000000000081148b871216610682578584051485151715610656579261064492610639740100000000000000000000000000000000000000006001857f0480311339e24867c20766d1e5f3a5c61350017b8692491973d84cf032d60f359b9a9998600297550192058254612966565b905501918254612966565b9055815193845260208401523392a380f35b60248a60118d7f4e487b7100000000000000000000000000000000000000000000000000000000835252fd5b60248b60118e7f4e487b7100000000000000000000000000000000000000000000000000000000835252fd5b50903461032257817ffffffffffffffffffffffffffffffffffffffffffffffffffffffffffffffffc36011261032257602090610291630784ce006107137f000000000000000000000000000000000000000000000000000000000000000042612161565b612b34565b509190346104145760207ffffffffffffffffffffffffffffffffffffffffffffffffffffffffffffffffc3601126104145781359173ffffffffffffffffffffffffffffffffffffffff9081841684036108115784549260ff8416156107eb5750507fffffffffffffffffffffffffffffffffffffffffffffffffffffffffffffff0080921684556107a8612367565b6001926107b48461264f565b9182519285875b8581106107cd578882886103e46126c8565b6107e385856107dc84876126b4565b5116612831565b0186906107bb565b517f37ed32e8000000000000000000000000000000000000000000000000000000008152fd5b8480fd5b50903461032257817ffffffffffffffffffffffffffffffffffffffffffffffffffffffffffffffffc36011261032257602090517f00000000000000000000000000000000000000000000000000000000000000008152f35b50903461032257817ffffffffffffffffffffffffffffffffffffffffffffffffffffffffffffffffc36011261032257602090516301e133808152f35b50903461032257807ffffffffffffffffffffffffffffffffffffffffffffffffffffffffffffffffc3601126103225782359260243583549260ff841615610aa7577fffffffffffffffffffffffffffffffffffffffffffffffffffffffffffffff00809416855561091b612367565b610923612a29565b80517f1ad4c8c3000000000000000000000000000000000000000000000000000000008152868482015273ffffffffffffffffffffffffffffffffffffffff60a082602481847f0000000000000000000000000000000000000000000000000000000000000000165afa918215610a9d578792610a68575b5081169384875260036020528287209160ff83541615610a1757876001888b7f9436a68f01cf8a4f756c053a98d6d88cdbd763a2d8ad77273779d054e2b82eef60608b8b8b60058c01828154916109fd826109f885600654612161565b6122bf565b6006555581519384526020840152820152a26103e46126c8565b83517f316e864300000000000000000000000000000000000000000000000000000000815291820189815273ffffffffffffffffffffffffffffffffffffffff909116602082015281906040010390fd5b610a8a91925060a03d8111610a96575b610a828183611f7f565b8101906129c2565b5050915050903861099b565b503d610a78565b83513d89823e3d90fd5b9050517f37ed32e8000000000000000000000000000000000000000000000000000000008152fd5b50903461032257817ffffffffffffffffffffffffffffffffffffffffffffffffffffffffffffffffc36011261032257602090517f00000000000000000000000000000000000000000000000000000000000000008152f35b50903461032257817ffffffffffffffffffffffffffffffffffffffffffffffffffffffffffffffffc360112610322576020905167069789fbbc4f80008152f35b50903461032257817ffffffffffffffffffffffffffffffffffffffffffffffffffffffffffffffffc3601126103225760209061029161216e565b50903461032257817ffffffffffffffffffffffffffffffffffffffffffffffffffffffffffffffffc3601126103225760209061029160075442612161565b50913461041457817ffffffffffffffffffffffffffffffffffffffffffffffffffffffffffffffffc36011261041457803573ffffffffffffffffffffffffffffffffffffffff9182821682036108115760243592831683036108115784549360ff8516156107eb5785600186610c8887877fffffffffffffffffffffffffffffffffffffffffffffffffffffffffffffff008094168655610c83612367565b612831565b6103e46126c8565b50903461032257817ffffffffffffffffffffffffffffffffffffffffffffffffffffffffffffffffc360112610322576102d6610ccb61216e565b6122cc565b50913461041457817ffffffffffffffffffffffffffffffffffffffffffffffffffffffffffffffffc36011261041457825490803560243560ff841615610f1e577fffffffffffffffffffffffffffffffffffffffffffffffffffffffffffffff008094168655610d3f612367565b610d47612a29565b8451947f1ad4c8c3000000000000000000000000000000000000000000000000000000008652828487015273ffffffffffffffffffffffffffffffffffffffff60a087602481847f0000000000000000000000000000000000000000000000000000000000000000165afa968715610f14578897610eef575b508087169485895260036020528289206001988960ff835416151514610e9d575060058591610df1836006546122bf565b6006558a8a825416178155878b820155015587549068010000000000000000821015610e715750917f68bea3f037520d478c14fd27a27947249aade51810b62999af0776bbd0097b96939186610e4e858b602097018c558b61209f565b909283549160031b90811b9283911b1691191617905551908152a36103e46126c8565b8960416024927f4e487b7100000000000000000000000000000000000000000000000000000000835252fd5b84517fc5b4745600000000000000000000000000000000000000000000000000000000815280840188815273ffffffffffffffffffffffffffffffffffffffff90921660208301529081906040010390fd5b610f0891975060a03d8111610a9657610a828183611f7f565b50509150509538610dc0565b82513d8a823e3d90fd5b8285517f37ed32e8000000000000000000000000000000000000000000000000000000008152fd5b50903461032257817ffffffffffffffffffffffffffffffffffffffffffffffffffffffffffffffffc360112610322576020906007549051908152f35b503461029857817ffffffffffffffffffffffffffffffffffffffffffffffffffffffffffffffffc36011261029857823573ffffffffffffffffffffffffffffffffffffffff80821680920361041457602435908116809103610414578183526020946003865284842090855194610ffc60c087611f7f565b60ff835416151586526001830154888701526002830154938787019485526003840154956060880196875260a06005858701549660808b01978852015498019788528252828952878220908252885286812095600188519761105e8a8a611f7f565b80548952015495898801968752519451935180421180611147575b61109a575b89896102918961108f8a8d516120e6565b60a01c90519061234e565b6110cb916110ba6110b16110c2939a999a42612161565b600554906120e6565b9051906120e6565b60065490612128565b918260a01b9280840474010000000000000000000000000000000000000000149015171561111b57505061108f9261110b61029196959361111193612128565b906122bf565b918194388061107e565b9060116024927f4e487b7100000000000000000000000000000000000000000000000000000000835252fd5b50841515611079565b50903461032257817ffffffffffffffffffffffffffffffffffffffffffffffffffffffffffffffffc36011261032257602090610291427f0000000000000000000000000000000000000000000000000000000000000000612161565b50903461032257817ffffffffffffffffffffffffffffffffffffffffffffffffffffffffffffffffc3601126103225760209051428152f35b50346102985760207ffffffffffffffffffffffffffffffffffffffffffffffffffffffffffffffffc3601126102985750610291602092356121fa565b50903461032257817ffffffffffffffffffffffffffffffffffffffffffffffffffffffffffffffffc36011261032257602090517f00000000000000000000000000000000000000000000000000000000000000008152f35b50903461032257817ffffffffffffffffffffffffffffffffffffffffffffffffffffffffffffffffc36011261032257602090610291622819a061071360075442612161565b50903461032257817ffffffffffffffffffffffffffffffffffffffffffffffffffffffffffffffffc360112610322576020905160308152f35b50903461032257817ffffffffffffffffffffffffffffffffffffffffffffffffffffffffffffffffc36011261032257602090516c010000000000000000000000008152f35b503461029857807ffffffffffffffffffffffffffffffffffffffffffffffffffffffffffffffffc3601126102985761137961216e565b8061138b575060209250905b51908152f35b7fffffffffffffffffffffffffffffffffffffffffffffffffffffffffffffffff81019081116113df576113be906122cc565b90622819a0918281029281840414901517156102f657506020925090611385565b6024826011867f4e487b7100000000000000000000000000000000000000000000000000000000835252fd5b50903461032257817ffffffffffffffffffffffffffffffffffffffffffffffffffffffffffffffffc3601126103225761147a906114496005611fef565b907f312e302e3000000000000000000000000000000000000000000000000000000060208301525191829182612039565b0390f35b50903461032257817ffffffffffffffffffffffffffffffffffffffffffffffffffffffffffffffffc360112610322576020906005549051908152f35b50903461032257817ffffffffffffffffffffffffffffffffffffffffffffffffffffffffffffffffc360112610322576020906001549051908152f35b5091346104145760207ffffffffffffffffffffffffffffffffffffffffffffffffffffffffffffffffc3601126104145780359073ffffffffffffffffffffffffffffffffffffffff821682036115995783549260ff8416156107eb5784600185611590867fffffffffffffffffffffffffffffffffffffffffffffffffffffffffffffff00809316855561158b612367565b61271c565b506103e46126c8565b8380fd5b50913461041457827ffffffffffffffffffffffffffffffffffffffffffffffffffffffffffffffffc360112610414576115e0622819a061071360075442612161565b906115e961216e565b8452600260205260028385200154906003848620015494837fffffffffffffffffffffffffffffffffffffffffffffffffffffffffffffffff048311840261164457602085610291670de0b6b3a76400008688020489612b34565b63bac65e5b9052601cfd5b50903461032257817ffffffffffffffffffffffffffffffffffffffffffffffffffffffffffffffffc36011261032257819061168961216e565b83905b8082111561169e576020848451908152f35b90926116bc6116c291858752600260205260038588200154906122bf565b936121cd565b9061168c565b50903461032257817ffffffffffffffffffffffffffffffffffffffffffffffffffffffffffffffffc360112610322576020905173ffffffffffffffffffffffffffffffffffffffff7f0000000000000000000000000000000000000000000000000000000000000000168152f35b50903461032257817ffffffffffffffffffffffffffffffffffffffffffffffffffffffffffffffffc3601126103225761177360075442612161565b91622819a09283039283116102f6576020838351908152f35b50913461041457827ffffffffffffffffffffffffffffffffffffffffffffffffffffffffffffffffc3601126104145782549160ff8316156107eb57836001847fffffffffffffffffffffffffffffffffffffffffffffffffffffffffffffff0080911683556117fa612982565b611802612367565b610c886124e3565b50913461041457827ffffffffffffffffffffffffffffffffffffffffffffffffffffffffffffffffc3601126104145782549160ff8316156107eb57836001847fffffffffffffffffffffffffffffffffffffffffffffffffffffffffffffff008091168355611878612982565b610c88612367565b50903461032257817ffffffffffffffffffffffffffffffffffffffffffffffffffffffffffffffffc3601126103225760209051740100000000000000000000000000000000000000008152f35b50903461032257817ffffffffffffffffffffffffffffffffffffffffffffffffffffffffffffffffc36011261032257602090516658d15e176280008152f35b50903461032257817ffffffffffffffffffffffffffffffffffffffffffffffffffffffffffffffffc3601126103225760209051622819a08152f35b50823461032257602090817ffffffffffffffffffffffffffffffffffffffffffffffffffffffffffffffffc3601126104145780359373ffffffffffffffffffffffffffffffffffffffff9283861692838703611af65785549460ff861615611ace577fffffffffffffffffffffffffffffffffffffffffffffffffffffffffffffff0080961687556119db612367565b6119e3612a29565b7f00000000000000000000000000000000000000000000000000000000000000009081168514611a7957866001878a887fee2522ca264e96c7cef76269664e2a4cea70ad76b78ee5b01d0587798a0a72d689896370a082318852308152611a5d81806024601c895afa601f3d111682510280963390612c33565b611a6561216e565b9082519586528501523393a36103e46126c8565b83517fef52f72d00000000000000000000000000000000000000000000000000000000815273ffffffffffffffffffffffffffffffffffffffff808a1693820193845290911660208301529081906040010390fd5b5082517f37ed32e8000000000000000000000000000000000000000000000000000000008152fd5b8580fd5b50903461032257817ffffffffffffffffffffffffffffffffffffffffffffffffffffffffffffffffc3601126103225760209051630784ce008152f35b50903461032257817ffffffffffffffffffffffffffffffffffffffffffffffffffffffffffffffffc36011261032257611b6f61216e565b60018101809111611b83576102d6906122cc565b6024836011867f4e487b7100000000000000000000000000000000000000000000000000000000835252fd5b5091346104145760207ffffffffffffffffffffffffffffffffffffffffffffffffffffffffffffffffc360112610414573591600154831015610298575073ffffffffffffffffffffffffffffffffffffffff611c0f602093600161209f565b92905490519260031b1c168152f35b50903461032257817ffffffffffffffffffffffffffffffffffffffffffffffffffffffffffffffffc360112610322576020906006549051908152f35b509190346104145760207ffffffffffffffffffffffffffffffffffffffffffffffffffffffffffffffffc36011261041457813573ffffffffffffffffffffffffffffffffffffffff81168091036115995783829160c0955260036020522060ff815416926001820154926002830154906005600385015493850154940154948151961515875260208701528501526060840152608083015260a0820152f35b509190346104145760207ffffffffffffffffffffffffffffffffffffffffffffffffffffffffffffffffc360112610414578060c09383358152600260205220805492600182015492600283015490600560038501549385015494015494815196875260208701528501526060840152608083015260a0820152f35b50903461032257817ffffffffffffffffffffffffffffffffffffffffffffffffffffffffffffffffc3601126103225761147a90611db5601b611fef565b907f4379676e757344414f3a20436f6d706c6578205265776172646572000000000060208301525191829182612039565b50913461041457827ffffffffffffffffffffffffffffffffffffffffffffffffffffffffffffffffc3601126104145782549160ff8316156107eb57836001847fffffffffffffffffffffffffffffffffffffffffffffffffffffffffffffff008091168355611e54612367565b610c88612a29565b905083346104145760207ffffffffffffffffffffffffffffffffffffffffffffffffffffffffffffffffc3601126104145780359083549260ff841615611f5a57507fffffffffffffffffffffffffffffffffffffffffffffffffffffffffffffff008093168455611ecc612367565b611ed4612a29565b67069789fbbc4f8000808311611f2657846001857f3ea86743bc8b6977a0693f6611ad7256d6ec1e3f996c6cba22e146152959ddff8987600554908060055582519182526020820152a16103e46126c8565b916044928651927fc3af7cc70000000000000000000000000000000000000000000000000000000084528301526024820152fd5b7f37ed32e8000000000000000000000000000000000000000000000000000000008152fd5b90601f7fffffffffffffffffffffffffffffffffffffffffffffffffffffffffffffffe0910116810190811067ffffffffffffffff821117611fc057604052565b7f4e487b7100000000000000000000000000000000000000000000000000000000600052604160045260246000fd5b9067ffffffffffffffff8211611fc0576040519161203560207fffffffffffffffffffffffffffffffffffffffffffffffffffffffffffffffe0601f8401160184611f7f565b8252565b60208082528251818301819052939260005b85811061208b575050507fffffffffffffffffffffffffffffffffffffffffffffffffffffffffffffffe0601f8460006040809697860101520116010190565b81810183015184820160400152820161204b565b80548210156120b75760005260206000200190600090565b7f4e487b7100000000000000000000000000000000000000000000000000000000600052603260045260246000fd5b818102929181159184041417156120f957565b7f4e487b7100000000000000000000000000000000000000000000000000000000600052601160045260246000fd5b8115612132570490565b7f4e487b7100000000000000000000000000000000000000000000000000000000600052601260045260246000fd5b919082039182116120f957565b7f00000000000000000000000000000000000000000000000000000000000000004210156121c857622819a06121c47f000000000000000000000000000000000000000000000000000000000000000042612161565b0490565b603090565b7fffffffffffffffffffffffffffffffffffffffffffffffffffffffffffffffff81146120f95760010190565b603003603081116120f957670de0b6b3a764000060009182905b808210612268575050670de0b6b3a76400000390670de0b6b3a7640000821161223b575090565b807f4e487b7100000000000000000000000000000000000000000000000000000000602492526011600452fd5b9091670d87e55590018000907812eb73eae4c8b0077db7b119a3928413fff44d230654ac05ac811182026122b2576122ac91670de0b6b3a7640000910204926121cd565b90612214565b63bac65e5b85526004601cfd5b919082018092116120f957565b6000908190827f00000000000000000000000000000000000000000000000000000000000000005b8282111561230957505050622819a091500490565b9091925061234461233e6123376123208785612161565b6658d15e17628000612331876121fa565b91612b77565b80966122bf565b926121cd565b90939291936122f4565b818103929160001380158285131691841216176120f957565b61237a600754622819a091829142612161565b046123825750565b61238a61216e565b60308110156124b35760055461239f826122cc565b6005554260075560009282845260026020526040842042600482015581420180421161248657600582015583815560055480600183015582810292818404149015171561245957600201557fffffffffffffffffffffffffffffffffffffffffffffffffffffffffffffffff82019282841161223b5750916080917fcc53a96dddb8d3b8710c4932d9e90652a4eaef0bf4c37a13dc4d806e1b54cb4d9360055491604051938452602084015260408301526060820152a15b565b6024857f4e487b710000000000000000000000000000000000000000000000000000000081526011600452fd5b6024867f4e487b710000000000000000000000000000000000000000000000000000000081526011600452fd5b50506124576124e3565b519073ffffffffffffffffffffffffffffffffffffffff821682036124de57565b600080fd5b6124eb61216e565b6030811061264c576040517ff851a44000000000000000000000000000000000000000000000000000000000815260208160048173ffffffffffffffffffffffffffffffffffffffff7f0000000000000000000000000000000000000000000000000000000000000000165afa8015612640576125e3575b5060807f3448d68e439b81df30dbd68606f415f65c9eabaaef0aca1ffc0368cc3954c6dc91604051903382527f000000000000000000000000000000000000000000000000000000000000000060208301527f000000000000000000000000000000000000000000000000000000000000000060408301526060820152a1565b6020813d8211612638575b816125fb60209383611f7f565b810103126124de577f3448d68e439b81df30dbd68606f415f65c9eabaaef0aca1ffc0368cc3954c6dc916126306080926124bd565b509150612563565b3d91506125ee565b6040513d6000823e3d90fd5b50565b9060405191828154918282526020928383019160005283600020936000905b8282106126845750505061245792500383611f7f565b855473ffffffffffffffffffffffffffffffffffffffff168452600195860195889550938101939091019061266e565b80518210156120b75760209160051b010190565b6001546126d5600161264f565b60005b8281106126e457505050565b8061271173ffffffffffffffffffffffffffffffffffffffff61270a61271794866126b4565b511661271c565b506121cd565b6126d8565b73ffffffffffffffffffffffffffffffffffffffff169081600052600360205260406000209160048301805480421161275457505050565b600285015490816127a2575b506060907f76e5c786dd7c9c1cd87203f33dbc49d953ff07b99de74baa864f04a0e3b6aa1c9242905560038601546040519142835260208301526040820152a2565b6110c26127b76127c2926005549042036120e6565b6005880154906120e6565b908160a01b918083047401000000000000000000000000000000000000000014901517156120f9577f76e5c786dd7c9c1cd87203f33dbc49d953ff07b99de74baa864f04a0e3b6aa1c9261281882606094612128565b612827600389019182546122bf565b9055925090612760565b61283a8161271c565b9173ffffffffffffffffffffffffffffffffffffffff604092835161286060c082611f7f565b60ff865416151581526001860154602082015260028601548582015260a06005600388015497606084019889526004810154608085015201549101521691600093838552600460205281852033865260205260016128c58387209283549051906120e6565b60a01c9101906128d682548261234e565b91821561295d577fbc96baf3023d0b9ea3a899e000f15d5f0f7a8b064774c1eed6b4cc63fcbd1b199461294f9284925560038561291161216e565b998a8152600260205220016129278382546122bf565b90557f0000000000000000000000000000000000000000000000000000000000000000612c33565b8151903382526020820152a3565b50505050505050565b919091600083820193841291129080158216911516176120f957565b32330361298b57565b6040517f3e1eb266000000000000000000000000000000000000000000000000000000008152336004820152326024820152604490fd5b908160a09103126124de57805180151581036124de579160208201516affffffffffffffffffffff811681036124de57916129ff604082016124bd565b916080612a0e606084016124bd565b9201516bffffffffffffffffffffffff811681036124de5790565b6040517ff851a44000000000000000000000000000000000000000000000000000000000815273ffffffffffffffffffffffffffffffffffffffff602082600481847f0000000000000000000000000000000000000000000000000000000000000000165afa91821561264057600092612af9575b5081163303612aaa5750565b6040517f5113afbd00000000000000000000000000000000000000000000000000000000815273ffffffffffffffffffffffffffffffffffffffff919091166004820152336024820152604490fd5b90916020823d8211612b2c575b81612b1360209383611f7f565b810103126102985750612b25906124bd565b9038612a9e565b3d9150612b06565b670de0b6b3a7640000907812725dd1d243aba0e75fe645cc4873f9e65afe688c928e1f218111820215830215612b6957020490565b637c5f487d6000526004601cfd5b91600092828102927fffffffffffffffffffffffffffffffffffffffffffffffffffffffffffffffff8183099184831085018084039314612c175782841115612c0a57908391099060018386038416808080960460028082600302188083028203028083028203028083028203028083028203028083028203028092029003029703040190848311900302920304170290565b63ae47f70286526004601cfd5b505050918215612c2657500490565b63ae47f70290526004601cfd5b601692602092601a52603a52604460009384809369a9059cbb00000000000082525af13d156001835114171615612c6957603a52565b6390b8ec1890526004601cfdfea164736f6c6343000811000a","opcodes":"PUSH1 0x40 PUSH2 0x120 DUP2 MSTORE CALLVALUE PUSH3 0x42C JUMPI PUSH3 0x3117 SWAP1 PUSH1 0x60 DUP3 CODESIZE SUB SWAP3 DUP4 PUSH3 0x23 DUP2 PUSH3 0x431 JUMP JUMPDEST SWAP5 DUP6 SWAP3 DUP4 CODECOPY DUP2 ADD SUB SLT PUSH3 0x42C JUMPI DUP2 MLOAD SWAP2 PUSH1 0x1 PUSH1 0x1 PUSH1 0xA0 SHL SUB SWAP1 DUP2 DUP5 AND DUP5 SUB PUSH3 0x42C JUMPI PUSH1 0x20 DUP2 ADD MLOAD SWAP2 DUP3 AND DUP3 SUB PUSH3 0x42C JUMPI DUP3 ADD MLOAD SWAP3 PUSH1 0x1 PUSH1 0x0 SWAP3 DUP2 PUSH1 0xFF NOT DUP6 SLOAD AND OR DUP5 SSTORE PUSH2 0x100 SWAP6 DUP7 MSTORE DUP4 SWAP3 DUP5 SWAP4 DUP6 JUMPDEST DUP1 ISZERO PUSH3 0x23E JUMPI POP POP PUSH3 0x2819A0 DUP1 SWAP5 DIV SWAP2 DUP3 PUSH1 0x5 SSTORE PUSH8 0x69789FBBC4F8000 DUP1 DUP5 GT PUSH3 0x221 JUMPI POP PUSH1 0xE0 MSTORE PUSH1 0x80 MSTORE TIMESTAMP PUSH1 0x7 SSTORE TIMESTAMP PUSH1 0xA0 MSTORE PUSH4 0x784CE00 TIMESTAMP ADD DUP1 TIMESTAMP GT PUSH3 0x20D JUMPI PUSH1 0xC0 MSTORE DUP3 TIMESTAMP ADD SWAP2 DUP3 TIMESTAMP GT PUSH3 0x20D JUMPI DUP4 DUP3 MUL SWAP4 DUP3 DUP6 DIV EQ DUP3 ISZERO OR ISZERO PUSH3 0x20D JUMPI PUSH32 0xCC53A96DDDB8D3B8710C4932D9E90652A4EAEF0BF4C37A13DC4D806E1B54CB4D SWAP5 SWAP3 PUSH1 0x80 SWAP5 SWAP3 PUSH1 0x5 SWAP3 PUSH3 0x10F PUSH1 0xC0 PUSH3 0x431 JUMP JUMPDEST SWAP5 DUP7 DUP7 MSTORE PUSH1 0x20 DUP7 ADD SWAP3 DUP4 MSTORE DUP10 DUP7 ADD SWAP1 DUP2 MSTORE PUSH1 0x60 DUP7 ADD SWAP2 DUP8 DUP4 MSTORE DUP9 DUP8 ADD SWAP4 TIMESTAMP DUP6 MSTORE PUSH1 0xA0 DUP9 ADD SWAP6 DUP7 MSTORE DUP9 DUP1 MSTORE PUSH1 0x2 PUSH1 0x20 MSTORE DUP12 DUP10 KECCAK256 SWAP8 MLOAD DUP9 SSTORE MLOAD SWAP1 DUP8 ADD SSTORE MLOAD PUSH1 0x2 DUP7 ADD SSTORE MLOAD PUSH1 0x3 DUP6 ADD SSTORE MLOAD PUSH1 0x4 DUP5 ADD SSTORE MLOAD SWAP2 ADD SSTORE PUSH1 0x5 SLOAD DUP5 MLOAD SWAP2 DUP1 DUP4 MSTORE DUP1 PUSH1 0x20 DUP5 ADD MSTORE DUP6 DUP4 ADD MSTORE PUSH1 0x60 DUP3 ADD MSTORE LOG1 MLOAD PUSH2 0x2C83 SWAP2 DUP3 PUSH3 0x494 DUP4 CODECOPY PUSH1 0x80 MLOAD DUP3 DUP2 DUP2 PUSH2 0x4E6 ADD MSTORE DUP2 DUP2 PUSH2 0x96B ADD MSTORE DUP2 DUP2 PUSH2 0xD90 ADD MSTORE DUP2 DUP2 PUSH2 0x2536 ADD MSTORE PUSH2 0x2A6D ADD MSTORE PUSH1 0xA0 MLOAD DUP3 DUP2 DUP2 PUSH2 0x6EE ADD MSTORE DUP2 DUP2 PUSH2 0xB05 ADD MSTORE DUP2 DUP2 PUSH2 0x219F ADD MSTORE PUSH2 0x2591 ADD MSTORE PUSH1 0xC0 MLOAD DUP3 DUP2 DUP2 PUSH2 0x1189 ADD MSTORE DUP2 DUP2 PUSH2 0x1259 ADD MSTORE DUP2 DUP2 PUSH2 0x2170 ADD MSTORE PUSH2 0x25B7 ADD MSTORE PUSH1 0xE0 MLOAD DUP3 DUP2 DUP2 PUSH2 0x1713 ADD MSTORE DUP2 DUP2 PUSH2 0x19E5 ADD MSTORE PUSH2 0x292B ADD MSTORE MLOAD DUP2 DUP2 DUP2 PUSH2 0x84B ADD MSTORE PUSH2 0x22D4 ADD MSTORE RETURN JUMPDEST PUSH4 0x4E487B71 PUSH1 0xE0 SHL DUP6 MSTORE PUSH1 0x11 PUSH1 0x4 MSTORE PUSH1 0x24 DUP6 REVERT JUMPDEST PUSH1 0x44 SWAP1 DUP5 DUP10 MLOAD SWAP2 PUSH4 0xC3AF7CC7 PUSH1 0xE0 SHL DUP4 MSTORE PUSH1 0x4 DUP4 ADD MSTORE PUSH1 0x24 DUP3 ADD MSTORE REVERT JUMPDEST SWAP1 SWAP5 POP DUP8 MLOAD SWAP5 DUP1 DUP7 SUB SWAP6 DUP7 GT PUSH3 0x2EC JUMPI PUSH1 0x30 SWAP6 DUP3 DUP8 SUB SWAP7 DUP8 GT PUSH3 0x418 JUMPI PUSH8 0xDE0B6B3A7640000 SWAP7 DUP9 SWAP1 JUMPDEST DUP1 DUP3 LT PUSH3 0x3BD JUMPI POP POP DUP7 PUSH8 0xDE0B6B3A7640000 SUB PUSH8 0xDE0B6B3A7640000 DUP2 GT PUSH3 0x3A9 JUMPI DUP7 SWAP1 DUP10 SWAP9 PUSH7 0x58D15E17628000 SWAP4 DUP5 DUP2 MUL PUSH1 0x0 NOT DUP7 DUP4 MULMOD SWAP6 DUP5 DUP3 DUP9 LT DUP4 ADD DUP1 DUP10 SUB SWAP9 EQ SWAP2 DUP9 DUP3 GT ISZERO SWAP5 MULMOD SWAP7 DUP3 DUP9 GT SWAP1 SUB SWAP7 DUP3 SUB SWAP6 PUSH3 0x300 JUMPI JUMPDEST POP POP POP POP POP POP POP DUP6 DUP2 ADD DUP1 SWAP2 GT PUSH3 0x2EC JUMPI PUSH3 0x2E6 SWAP1 SWAP2 PUSH3 0x46D JUMP JUMPDEST PUSH3 0x75 JUMP JUMPDEST PUSH4 0x4E487B71 PUSH1 0xE0 SHL DUP8 MSTORE PUSH1 0x11 PUSH1 0x4 MSTORE PUSH1 0x24 DUP8 REVERT JUMPDEST SWAP1 SWAP2 SWAP3 SWAP4 SWAP5 SWAP6 SWAP7 SWAP12 POP PUSH3 0x378 JUMPI POP PUSH3 0x36B JUMPI PUSH8 0xDE0B6B3A763FFFF NOT ADD DUP2 AND DUP1 SWAP2 DIV PUSH1 0x2 DUP1 DUP3 PUSH1 0x3 MUL XOR DUP1 DUP4 MUL DUP3 SUB MUL DUP1 DUP4 MUL DUP3 SUB MUL DUP1 DUP4 MUL DUP3 SUB MUL DUP1 DUP4 MUL DUP3 SUB MUL DUP1 DUP4 MUL DUP3 SUB MUL DUP1 SWAP3 MUL SWAP1 SUB MUL SWAP3 DUP8 DUP3 DUP1 DUP13 SUB DIV ADD MUL SWAP2 DIV OR MUL SWAP5 CODESIZE DUP1 DUP1 DUP1 DUP1 DUP1 DUP1 PUSH3 0x2C8 JUMP JUMPDEST PUSH4 0xAE47F702 DUP11 MSTORE PUSH1 0x4 PUSH1 0x1C REVERT JUMPDEST SWAP4 POP POP SWAP1 SWAP3 POP PUSH8 0xDE0B6B3A7640000 EQ PUSH3 0x39C JUMPI DIV SWAP5 CODESIZE DUP1 DUP1 DUP1 DUP1 DUP1 DUP1 PUSH3 0x2C8 JUMP JUMPDEST PUSH4 0xAE47F702 DUP9 MSTORE PUSH1 0x4 PUSH1 0x1C REVERT JUMPDEST PUSH4 0x4E487B71 PUSH1 0xE0 SHL DUP10 MSTORE PUSH1 0x11 PUSH1 0x4 MSTORE PUSH1 0x24 DUP10 REVERT JUMPDEST SWAP1 SWAP8 PUSH8 0xD87E55590018000 SWAP1 PUSH25 0x12EB73EAE4C8B0077DB7B119A3928413FFF44D230654AC05AC DUP2 GT DUP3 MUL PUSH3 0x40B JUMPI PUSH3 0x404 SWAP2 PUSH8 0xDE0B6B3A7640000 SWAP2 MUL DIV SWAP9 PUSH3 0x46D JUMP JUMPDEST SWAP1 PUSH3 0x26A JUMP JUMPDEST PUSH4 0xBAC65E5B DUP12 MSTORE PUSH1 0x4 PUSH1 0x1C REVERT JUMPDEST PUSH4 0x4E487B71 PUSH1 0xE0 SHL DUP9 MSTORE PUSH1 0x11 PUSH1 0x4 MSTORE PUSH1 0x24 DUP9 REVERT JUMPDEST PUSH1 0x0 DUP1 REVERT JUMPDEST PUSH1 0x40 MLOAD SWAP2 SWAP1 PUSH1 0x1F ADD PUSH1 0x1F NOT AND DUP3 ADD PUSH1 0x1 PUSH1 0x1 PUSH1 0x40 SHL SUB DUP2 GT DUP4 DUP3 LT OR PUSH3 0x457 JUMPI PUSH1 0x40 MSTORE JUMP JUMPDEST PUSH4 0x4E487B71 PUSH1 0xE0 SHL PUSH1 0x0 MSTORE PUSH1 0x41 PUSH1 0x4 MSTORE PUSH1 0x24 PUSH1 0x0 REVERT JUMPDEST PUSH1 0x0 NOT DUP2 EQ PUSH3 0x47D JUMPI PUSH1 0x1 ADD SWAP1 JUMP JUMPDEST PUSH4 0x4E487B71 PUSH1 0xE0 SHL PUSH1 0x0 MSTORE PUSH1 0x11 PUSH1 0x4 MSTORE PUSH1 0x24 PUSH1 0x0 REVERT INVALID PUSH1 0x80 PUSH1 0x40 DUP2 DUP2 MSTORE PUSH1 0x4 SWAP2 DUP3 CALLDATASIZE LT ISZERO PUSH2 0x16 JUMPI PUSH1 0x0 DUP1 REVERT JUMPDEST PUSH1 0x0 SWAP1 DUP2 CALLDATALOAD PUSH1 0xE0 SHR SWAP1 DUP2 PUSH4 0x1BAC4C6 EQ PUSH2 0x1E5C JUMPI POP DUP1 PUSH4 0x4B3182E EQ PUSH2 0x1DE6 JUMPI DUP1 PUSH4 0x6FDDE03 EQ PUSH2 0x1D77 JUMPI DUP1 PUSH4 0x135022C2 EQ PUSH2 0x1CFB JUMPI DUP1 PUSH4 0x151E510E EQ PUSH2 0x1C5B JUMPI DUP1 PUSH4 0x17CAF6F1 EQ PUSH2 0x1C1E JUMPI DUP1 PUSH4 0x1AD4C8C3 EQ PUSH2 0x1BAF JUMPI DUP1 PUSH4 0x1BAFED52 EQ PUSH2 0x1B37 JUMPI DUP1 PUSH4 0x1BE05289 EQ PUSH2 0x1AFA JUMPI DUP1 PUSH4 0x1BE19560 EQ PUSH2 0x194A JUMPI DUP1 PUSH4 0x1F3ADC0F EQ PUSH2 0x190E JUMPI DUP1 PUSH4 0x28419D62 EQ PUSH2 0x18CE JUMPI DUP1 PUSH4 0x32FCD966 EQ PUSH2 0x1880 JUMPI DUP1 PUSH4 0x3CF80E6C EQ PUSH2 0x180A JUMPI DUP1 PUSH4 0x4A91F2B1 EQ PUSH2 0x178C JUMPI DUP1 PUSH4 0x4F3D90B1 EQ PUSH2 0x1737 JUMPI DUP1 PUSH4 0x4F573686 EQ PUSH2 0x16C8 JUMPI DUP1 PUSH4 0x4FCC5575 EQ PUSH2 0x164F JUMPI DUP1 PUSH4 0x5104517F EQ PUSH2 0x159D JUMPI DUP1 PUSH4 0x5303654F EQ PUSH2 0x14F8 JUMPI DUP1 PUSH4 0x53CDE488 EQ PUSH2 0x14BB JUMPI DUP1 PUSH4 0x5493B5D6 EQ PUSH2 0x147E JUMPI DUP1 PUSH4 0x54FD4D50 EQ PUSH2 0x140B JUMPI DUP1 PUSH4 0x58322A8E EQ PUSH2 0x1342 JUMPI DUP1 PUSH4 0x5DE7FCD0 EQ PUSH2 0x12FC JUMPI DUP1 PUSH4 0x5F15C3C9 EQ PUSH2 0x12C2 JUMPI DUP1 PUSH4 0x6673FD97 EQ PUSH2 0x127C JUMPI DUP1 PUSH4 0x6FA42261 EQ PUSH2 0x1223 JUMPI DUP1 PUSH4 0x72E127CB EQ PUSH2 0x11E6 JUMPI DUP1 PUSH4 0x796B89B9 EQ PUSH2 0x11AD JUMPI DUP1 PUSH4 0x7C4941EC EQ PUSH2 0x1150 JUMPI DUP1 PUSH4 0x82EBCD32 EQ PUSH2 0xF83 JUMPI DUP1 PUSH4 0x89C614B8 EQ PUSH2 0xF46 JUMPI DUP1 PUSH4 0x93C3677B EQ PUSH2 0xCD0 JUMPI DUP1 PUSH4 0x9E81B634 EQ PUSH2 0xC90 JUMPI DUP1 PUSH4 0xA12EF25E EQ PUSH2 0xBE3 JUMPI DUP1 PUSH4 0xAC9462F5 EQ PUSH2 0xBA4 JUMPI DUP1 PUSH4 0xB97DD9E2 EQ PUSH2 0xB69 JUMPI DUP1 PUSH4 0xC1F1E5AE EQ PUSH2 0xB28 JUMPI DUP1 PUSH4 0xC81BA8F0 EQ PUSH2 0xACF JUMPI DUP1 PUSH4 0xCB87F7F3 EQ PUSH2 0x8AB JUMPI DUP1 PUSH4 0xD37DB1D2 EQ PUSH2 0x86E JUMPI DUP1 PUSH4 0xD4F7286B EQ PUSH2 0x815 JUMPI DUP1 PUSH4 0xD657C9E7 EQ PUSH2 0x718 JUMPI DUP1 PUSH4 0xD797C4C3 EQ PUSH2 0x6AE JUMPI DUP1 PUSH4 0xD98320D5 EQ PUSH2 0x50A JUMPI DUP1 PUSH4 0xE8A24E1D EQ PUSH2 0x49B JUMPI DUP1 PUSH4 0xF2801FE7 EQ PUSH2 0x418 JUMPI DUP1 PUSH4 0xF2B128A4 EQ PUSH2 0x326 JUMPI DUP1 PUSH4 0xF6503E6C EQ PUSH2 0x29B JUMPI PUSH4 0xFD59C299 EQ PUSH2 0x255 JUMPI PUSH1 0x0 DUP1 REVERT JUMPDEST CALLVALUE PUSH2 0x298 JUMPI PUSH1 0x20 PUSH32 0xFFFFFFFFFFFFFFFFFFFFFFFFFFFFFFFFFFFFFFFFFFFFFFFFFFFFFFFFFFFFFFFC CALLDATASIZE ADD SLT PUSH2 0x298 JUMPI POP PUSH2 0x291 PUSH1 0x20 SWAP3 CALLDATALOAD PUSH2 0x22CC JUMP JUMPDEST SWAP1 MLOAD SWAP1 DUP2 MSTORE RETURN JUMPDEST DUP1 REVERT JUMPDEST POP SWAP1 CALLVALUE PUSH2 0x322 JUMPI PUSH1 0x20 PUSH32 0xFFFFFFFFFFFFFFFFFFFFFFFFFFFFFFFFFFFFFFFFFFFFFFFFFFFFFFFFFFFFFFFC CALLDATASIZE ADD SLT PUSH2 0x322 JUMPI PUSH2 0x2D6 DUP4 CALLDATALOAD PUSH2 0x22CC JUMP JUMPDEST SWAP2 PUSH3 0x2819A0 SWAP3 DUP4 DUP2 MUL SWAP4 DUP2 DUP6 DIV EQ SWAP1 ISZERO OR ISZERO PUSH2 0x2F6 JUMPI PUSH1 0x20 DUP4 DUP4 MLOAD SWAP1 DUP2 MSTORE RETURN JUMPDEST DUP1 PUSH1 0x11 DUP6 PUSH32 0x4E487B7100000000000000000000000000000000000000000000000000000000 PUSH1 0x24 SWAP5 MSTORE MSTORE REVERT JUMPDEST POP DUP1 REVERT JUMPDEST POP SWAP2 SWAP1 CALLVALUE PUSH2 0x414 JUMPI DUP3 PUSH32 0xFFFFFFFFFFFFFFFFFFFFFFFFFFFFFFFFFFFFFFFFFFFFFFFFFFFFFFFFFFFFFFFC CALLDATASIZE ADD SLT PUSH2 0x414 JUMPI DUP3 SLOAD SWAP2 PUSH1 0xFF DUP4 AND ISZERO PUSH2 0x3ED JUMPI POP SWAP1 PUSH32 0x43604600D5D5B743877B9625896FEA0414A17136BBE657753A96DC6F80EDE1B9 PUSH1 0x60 PUSH1 0x1 SWAP4 PUSH32 0xFFFFFFFFFFFFFFFFFFFFFFFFFFFFFFFFFFFFFFFFFFFFFFFFFFFFFFFFFFFFFF00 DUP1 SWAP5 AND DUP7 SSTORE PUSH2 0x3B9 PUSH2 0x2367 JUMP JUMPDEST PUSH2 0x3C1 PUSH2 0x26C8 JUMP JUMPDEST DUP5 SLOAD SWAP1 PUSH2 0x3CC PUSH2 0x216E JUMP JUMPDEST SWAP1 DUP1 MLOAD SWAP3 DUP4 MSTORE CALLER PUSH1 0x20 DUP5 ADD MSTORE DUP3 ADD MSTORE LOG1 PUSH2 0x3E4 PUSH2 0x26C8 JUMP JUMPDEST DUP3 SLOAD AND OR DUP2 SSTORE DUP1 RETURN JUMPDEST SWAP1 MLOAD PUSH32 0x37ED32E800000000000000000000000000000000000000000000000000000000 DUP2 MSTORE REVERT JUMPDEST DUP3 DUP1 REVERT JUMPDEST POP CALLVALUE PUSH2 0x298 JUMPI DUP2 PUSH32 0xFFFFFFFFFFFFFFFFFFFFFFFFFFFFFFFFFFFFFFFFFFFFFFFFFFFFFFFFFFFFFFFC CALLDATASIZE ADD SLT PUSH2 0x298 JUMPI DUP3 CALLDATALOAD SWAP3 PUSH20 0xFFFFFFFFFFFFFFFFFFFFFFFFFFFFFFFFFFFFFFFF SWAP1 DUP2 DUP6 AND DUP1 SWAP6 SUB PUSH2 0x414 JUMPI PUSH1 0x24 CALLDATALOAD SWAP2 DUP3 AND DUP1 SWAP3 SUB PUSH2 0x414 JUMPI DUP4 SWAP5 DUP4 MSTORE PUSH1 0x20 MSTORE DUP3 DUP3 KECCAK256 SWAP1 DUP3 MSTORE PUSH1 0x20 MSTORE KECCAK256 PUSH1 0x1 DUP2 SLOAD SWAP2 ADD SLOAD DUP3 MLOAD SWAP2 DUP3 MSTORE PUSH1 0x20 DUP3 ADD MSTORE RETURN JUMPDEST POP SWAP1 CALLVALUE PUSH2 0x322 JUMPI DUP2 PUSH32 0xFFFFFFFFFFFFFFFFFFFFFFFFFFFFFFFFFFFFFFFFFFFFFFFFFFFFFFFFFFFFFFFC CALLDATASIZE ADD SLT PUSH2 0x322 JUMPI PUSH1 0x20 SWAP1 MLOAD PUSH20 0xFFFFFFFFFFFFFFFFFFFFFFFFFFFFFFFFFFFFFFFF PUSH32 0x0 AND DUP2 MSTORE RETURN JUMPDEST POP SWAP1 CALLVALUE PUSH2 0x322 JUMPI PUSH1 0x60 PUSH32 0xFFFFFFFFFFFFFFFFFFFFFFFFFFFFFFFFFFFFFFFFFFFFFFFFFFFFFFFFFFFFFFFC CALLDATASIZE ADD SLT PUSH2 0x322 JUMPI DUP3 CALLDATALOAD SWAP1 PUSH20 0xFFFFFFFFFFFFFFFFFFFFFFFFFFFFFFFFFFFFFFFF DUP3 AND DUP1 SWAP3 SUB PUSH2 0x414 JUMPI PUSH1 0x24 CALLDATALOAD SWAP1 PUSH1 0x44 CALLDATALOAD PUSH2 0x56C CALLER PUSH2 0x271C JUMP JUMPDEST CALLER DUP7 MSTORE DUP7 PUSH1 0x20 MSTORE DUP3 DUP7 KECCAK256 DUP6 DUP8 MSTORE PUSH1 0x20 MSTORE DUP3 DUP7 KECCAK256 SWAP1 PUSH2 0x598 DUP4 PUSH13 0x1000000000000000000000000 DUP8 PUSH2 0x2B77 JUMP JUMPDEST PUSH2 0x5A3 DUP4 SLOAD DUP3 PUSH2 0x234E JUMP JUMPDEST SWAP3 PUSH1 0x3 DUP4 ADD SLOAD SWAP2 DUP3 DUP6 MUL SWAP3 PUSH32 0x8000000000000000000000000000000000000000000000000000000000000000 DUP2 EQ DUP12 DUP8 SLT AND PUSH2 0x682 JUMPI DUP6 DUP5 SDIV EQ DUP6 ISZERO OR ISZERO PUSH2 0x656 JUMPI SWAP3 PUSH2 0x644 SWAP3 PUSH2 0x639 PUSH21 0x10000000000000000000000000000000000000000 PUSH1 0x1 DUP6 PUSH32 0x480311339E24867C20766D1E5F3A5C61350017B8692491973D84CF032D60F35 SWAP12 SWAP11 SWAP10 SWAP9 PUSH1 0x2 SWAP8 SSTORE ADD SWAP3 SDIV DUP3 SLOAD PUSH2 0x2966 JUMP JUMPDEST SWAP1 SSTORE ADD SWAP2 DUP3 SLOAD PUSH2 0x2966 JUMP JUMPDEST SWAP1 SSTORE DUP2 MLOAD SWAP4 DUP5 MSTORE PUSH1 0x20 DUP5 ADD MSTORE CALLER SWAP3 LOG3 DUP1 RETURN JUMPDEST PUSH1 0x24 DUP11 PUSH1 0x11 DUP14 PUSH32 0x4E487B7100000000000000000000000000000000000000000000000000000000 DUP4 MSTORE MSTORE REVERT JUMPDEST PUSH1 0x24 DUP12 PUSH1 0x11 DUP15 PUSH32 0x4E487B7100000000000000000000000000000000000000000000000000000000 DUP4 MSTORE MSTORE REVERT JUMPDEST POP SWAP1 CALLVALUE PUSH2 0x322 JUMPI DUP2 PUSH32 0xFFFFFFFFFFFFFFFFFFFFFFFFFFFFFFFFFFFFFFFFFFFFFFFFFFFFFFFFFFFFFFFC CALLDATASIZE ADD SLT PUSH2 0x322 JUMPI PUSH1 0x20 SWAP1 PUSH2 0x291 PUSH4 0x784CE00 PUSH2 0x713 PUSH32 0x0 TIMESTAMP PUSH2 0x2161 JUMP JUMPDEST PUSH2 0x2B34 JUMP JUMPDEST POP SWAP2 SWAP1 CALLVALUE PUSH2 0x414 JUMPI PUSH1 0x20 PUSH32 0xFFFFFFFFFFFFFFFFFFFFFFFFFFFFFFFFFFFFFFFFFFFFFFFFFFFFFFFFFFFFFFFC CALLDATASIZE ADD SLT PUSH2 0x414 JUMPI DUP2 CALLDATALOAD SWAP2 PUSH20 0xFFFFFFFFFFFFFFFFFFFFFFFFFFFFFFFFFFFFFFFF SWAP1 DUP2 DUP5 AND DUP5 SUB PUSH2 0x811 JUMPI DUP5 SLOAD SWAP3 PUSH1 0xFF DUP5 AND ISZERO PUSH2 0x7EB JUMPI POP POP PUSH32 0xFFFFFFFFFFFFFFFFFFFFFFFFFFFFFFFFFFFFFFFFFFFFFFFFFFFFFFFFFFFFFF00 DUP1 SWAP3 AND DUP5 SSTORE PUSH2 0x7A8 PUSH2 0x2367 JUMP JUMPDEST PUSH1 0x1 SWAP3 PUSH2 0x7B4 DUP5 PUSH2 0x264F JUMP JUMPDEST SWAP2 DUP3 MLOAD SWAP3 DUP6 DUP8 JUMPDEST DUP6 DUP2 LT PUSH2 0x7CD JUMPI DUP9 DUP3 DUP9 PUSH2 0x3E4 PUSH2 0x26C8 JUMP JUMPDEST PUSH2 0x7E3 DUP6 DUP6 PUSH2 0x7DC DUP5 DUP8 PUSH2 0x26B4 JUMP JUMPDEST MLOAD AND PUSH2 0x2831 JUMP JUMPDEST ADD DUP7 SWAP1 PUSH2 0x7BB JUMP JUMPDEST MLOAD PUSH32 0x37ED32E800000000000000000000000000000000000000000000000000000000 DUP2 MSTORE REVERT JUMPDEST DUP5 DUP1 REVERT JUMPDEST POP SWAP1 CALLVALUE PUSH2 0x322 JUMPI DUP2 PUSH32 0xFFFFFFFFFFFFFFFFFFFFFFFFFFFFFFFFFFFFFFFFFFFFFFFFFFFFFFFFFFFFFFFC CALLDATASIZE ADD SLT PUSH2 0x322 JUMPI PUSH1 0x20 SWAP1 MLOAD PUSH32 0x0 DUP2 MSTORE RETURN JUMPDEST POP SWAP1 CALLVALUE PUSH2 0x322 JUMPI DUP2 PUSH32 0xFFFFFFFFFFFFFFFFFFFFFFFFFFFFFFFFFFFFFFFFFFFFFFFFFFFFFFFFFFFFFFFC CALLDATASIZE ADD SLT PUSH2 0x322 JUMPI PUSH1 0x20 SWAP1 MLOAD PUSH4 0x1E13380 DUP2 MSTORE RETURN JUMPDEST POP SWAP1 CALLVALUE PUSH2 0x322 JUMPI DUP1 PUSH32 0xFFFFFFFFFFFFFFFFFFFFFFFFFFFFFFFFFFFFFFFFFFFFFFFFFFFFFFFFFFFFFFFC CALLDATASIZE ADD SLT PUSH2 0x322 JUMPI DUP3 CALLDATALOAD SWAP3 PUSH1 0x24 CALLDATALOAD DUP4 SLOAD SWAP3 PUSH1 0xFF DUP5 AND ISZERO PUSH2 0xAA7 JUMPI PUSH32 0xFFFFFFFFFFFFFFFFFFFFFFFFFFFFFFFFFFFFFFFFFFFFFFFFFFFFFFFFFFFFFF00 DUP1 SWAP5 AND DUP6 SSTORE PUSH2 0x91B PUSH2 0x2367 JUMP JUMPDEST PUSH2 0x923 PUSH2 0x2A29 JUMP JUMPDEST DUP1 MLOAD PUSH32 0x1AD4C8C300000000000000000000000000000000000000000000000000000000 DUP2 MSTORE DUP7 DUP5 DUP3 ADD MSTORE PUSH20 0xFFFFFFFFFFFFFFFFFFFFFFFFFFFFFFFFFFFFFFFF PUSH1 0xA0 DUP3 PUSH1 0x24 DUP2 DUP5 PUSH32 0x0 AND GAS STATICCALL SWAP2 DUP3 ISZERO PUSH2 0xA9D JUMPI DUP8 SWAP3 PUSH2 0xA68 JUMPI JUMPDEST POP DUP2 AND SWAP4 DUP5 DUP8 MSTORE PUSH1 0x3 PUSH1 0x20 MSTORE DUP3 DUP8 KECCAK256 SWAP2 PUSH1 0xFF DUP4 SLOAD AND ISZERO PUSH2 0xA17 JUMPI DUP8 PUSH1 0x1 DUP9 DUP12 PUSH32 0x9436A68F01CF8A4F756C053A98D6D88CDBD763A2D8AD77273779D054E2B82EEF PUSH1 0x60 DUP12 DUP12 DUP12 PUSH1 0x5 DUP13 ADD DUP3 DUP2 SLOAD SWAP2 PUSH2 0x9FD DUP3 PUSH2 0x9F8 DUP6 PUSH1 0x6 SLOAD PUSH2 0x2161 JUMP JUMPDEST PUSH2 0x22BF JUMP JUMPDEST PUSH1 0x6 SSTORE SSTORE DUP2 MLOAD SWAP4 DUP5 MSTORE PUSH1 0x20 DUP5 ADD MSTORE DUP3 ADD MSTORE LOG2 PUSH2 0x3E4 PUSH2 0x26C8 JUMP JUMPDEST DUP4 MLOAD PUSH32 0x316E864300000000000000000000000000000000000000000000000000000000 DUP2 MSTORE SWAP2 DUP3 ADD DUP10 DUP2 MSTORE PUSH20 0xFFFFFFFFFFFFFFFFFFFFFFFFFFFFFFFFFFFFFFFF SWAP1 SWAP2 AND PUSH1 0x20 DUP3 ADD MSTORE DUP2 SWAP1 PUSH1 0x40 ADD SUB SWAP1 REVERT JUMPDEST PUSH2 0xA8A SWAP2 SWAP3 POP PUSH1 0xA0 RETURNDATASIZE DUP2 GT PUSH2 0xA96 JUMPI JUMPDEST PUSH2 0xA82 DUP2 DUP4 PUSH2 0x1F7F JUMP JUMPDEST DUP2 ADD SWAP1 PUSH2 0x29C2 JUMP JUMPDEST POP POP SWAP2 POP POP SWAP1 CODESIZE PUSH2 0x99B JUMP JUMPDEST POP RETURNDATASIZE PUSH2 0xA78 JUMP JUMPDEST DUP4 MLOAD RETURNDATASIZE DUP10 DUP3 RETURNDATACOPY RETURNDATASIZE SWAP1 REVERT JUMPDEST SWAP1 POP MLOAD PUSH32 0x37ED32E800000000000000000000000000000000000000000000000000000000 DUP2 MSTORE REVERT JUMPDEST POP SWAP1 CALLVALUE PUSH2 0x322 JUMPI DUP2 PUSH32 0xFFFFFFFFFFFFFFFFFFFFFFFFFFFFFFFFFFFFFFFFFFFFFFFFFFFFFFFFFFFFFFFC CALLDATASIZE ADD SLT PUSH2 0x322 JUMPI PUSH1 0x20 SWAP1 MLOAD PUSH32 0x0 DUP2 MSTORE RETURN JUMPDEST POP SWAP1 CALLVALUE PUSH2 0x322 JUMPI DUP2 PUSH32 0xFFFFFFFFFFFFFFFFFFFFFFFFFFFFFFFFFFFFFFFFFFFFFFFFFFFFFFFFFFFFFFFC CALLDATASIZE ADD SLT PUSH2 0x322 JUMPI PUSH1 0x20 SWAP1 MLOAD PUSH8 0x69789FBBC4F8000 DUP2 MSTORE RETURN JUMPDEST POP SWAP1 CALLVALUE PUSH2 0x322 JUMPI DUP2 PUSH32 0xFFFFFFFFFFFFFFFFFFFFFFFFFFFFFFFFFFFFFFFFFFFFFFFFFFFFFFFFFFFFFFFC CALLDATASIZE ADD SLT PUSH2 0x322 JUMPI PUSH1 0x20 SWAP1 PUSH2 0x291 PUSH2 0x216E JUMP JUMPDEST POP SWAP1 CALLVALUE PUSH2 0x322 JUMPI DUP2 PUSH32 0xFFFFFFFFFFFFFFFFFFFFFFFFFFFFFFFFFFFFFFFFFFFFFFFFFFFFFFFFFFFFFFFC CALLDATASIZE ADD SLT PUSH2 0x322 JUMPI PUSH1 0x20 SWAP1 PUSH2 0x291 PUSH1 0x7 SLOAD TIMESTAMP PUSH2 0x2161 JUMP JUMPDEST POP SWAP2 CALLVALUE PUSH2 0x414 JUMPI DUP2 PUSH32 0xFFFFFFFFFFFFFFFFFFFFFFFFFFFFFFFFFFFFFFFFFFFFFFFFFFFFFFFFFFFFFFFC CALLDATASIZE ADD SLT PUSH2 0x414 JUMPI DUP1 CALLDATALOAD PUSH20 0xFFFFFFFFFFFFFFFFFFFFFFFFFFFFFFFFFFFFFFFF SWAP2 DUP3 DUP3 AND DUP3 SUB PUSH2 0x811 JUMPI PUSH1 0x24 CALLDATALOAD SWAP3 DUP4 AND DUP4 SUB PUSH2 0x811 JUMPI DUP5 SLOAD SWAP4 PUSH1 0xFF DUP6 AND ISZERO PUSH2 0x7EB JUMPI DUP6 PUSH1 0x1 DUP7 PUSH2 0xC88 DUP8 DUP8 PUSH32 0xFFFFFFFFFFFFFFFFFFFFFFFFFFFFFFFFFFFFFFFFFFFFFFFFFFFFFFFFFFFFFF00 DUP1 SWAP5 AND DUP7 SSTORE PUSH2 0xC83 PUSH2 0x2367 JUMP JUMPDEST PUSH2 0x2831 JUMP JUMPDEST PUSH2 0x3E4 PUSH2 0x26C8 JUMP JUMPDEST POP SWAP1 CALLVALUE PUSH2 0x322 JUMPI DUP2 PUSH32 0xFFFFFFFFFFFFFFFFFFFFFFFFFFFFFFFFFFFFFFFFFFFFFFFFFFFFFFFFFFFFFFFC CALLDATASIZE ADD SLT PUSH2 0x322 JUMPI PUSH2 0x2D6 PUSH2 0xCCB PUSH2 0x216E JUMP JUMPDEST PUSH2 0x22CC JUMP JUMPDEST POP SWAP2 CALLVALUE PUSH2 0x414 JUMPI DUP2 PUSH32 0xFFFFFFFFFFFFFFFFFFFFFFFFFFFFFFFFFFFFFFFFFFFFFFFFFFFFFFFFFFFFFFFC CALLDATASIZE ADD SLT PUSH2 0x414 JUMPI DUP3 SLOAD SWAP1 DUP1 CALLDATALOAD PUSH1 0x24 CALLDATALOAD PUSH1 0xFF DUP5 AND ISZERO PUSH2 0xF1E JUMPI PUSH32 0xFFFFFFFFFFFFFFFFFFFFFFFFFFFFFFFFFFFFFFFFFFFFFFFFFFFFFFFFFFFFFF00 DUP1 SWAP5 AND DUP7 SSTORE PUSH2 0xD3F PUSH2 0x2367 JUMP JUMPDEST PUSH2 0xD47 PUSH2 0x2A29 JUMP JUMPDEST DUP5 MLOAD SWAP5 PUSH32 0x1AD4C8C300000000000000000000000000000000000000000000000000000000 DUP7 MSTORE DUP3 DUP5 DUP8 ADD MSTORE PUSH20 0xFFFFFFFFFFFFFFFFFFFFFFFFFFFFFFFFFFFFFFFF PUSH1 0xA0 DUP8 PUSH1 0x24 DUP2 DUP5 PUSH32 0x0 AND GAS STATICCALL SWAP7 DUP8 ISZERO PUSH2 0xF14 JUMPI DUP9 SWAP8 PUSH2 0xEEF JUMPI JUMPDEST POP DUP1 DUP8 AND SWAP5 DUP6 DUP10 MSTORE PUSH1 0x3 PUSH1 0x20 MSTORE DUP3 DUP10 KECCAK256 PUSH1 0x1 SWAP9 DUP10 PUSH1 0xFF DUP4 SLOAD AND ISZERO ISZERO EQ PUSH2 0xE9D JUMPI POP PUSH1 0x5 DUP6 SWAP2 PUSH2 0xDF1 DUP4 PUSH1 0x6 SLOAD PUSH2 0x22BF JUMP JUMPDEST PUSH1 0x6 SSTORE DUP11 DUP11 DUP3 SLOAD AND OR DUP2 SSTORE DUP8 DUP12 DUP3 ADD SSTORE ADD SSTORE DUP8 SLOAD SWAP1 PUSH9 0x10000000000000000 DUP3 LT ISZERO PUSH2 0xE71 JUMPI POP SWAP2 PUSH32 0x68BEA3F037520D478C14FD27A27947249AADE51810B62999AF0776BBD0097B96 SWAP4 SWAP2 DUP7 PUSH2 0xE4E DUP6 DUP12 PUSH1 0x20 SWAP8 ADD DUP13 SSTORE DUP12 PUSH2 0x209F JUMP JUMPDEST SWAP1 SWAP3 DUP4 SLOAD SWAP2 PUSH1 0x3 SHL SWAP1 DUP2 SHL SWAP3 DUP4 SWAP2 SHL AND SWAP2 NOT AND OR SWAP1 SSTORE MLOAD SWAP1 DUP2 MSTORE LOG3 PUSH2 0x3E4 PUSH2 0x26C8 JUMP JUMPDEST DUP10 PUSH1 0x41 PUSH1 0x24 SWAP3 PUSH32 0x4E487B7100000000000000000000000000000000000000000000000000000000 DUP4 MSTORE MSTORE REVERT JUMPDEST DUP5 MLOAD PUSH32 0xC5B4745600000000000000000000000000000000000000000000000000000000 DUP2 MSTORE DUP1 DUP5 ADD DUP9 DUP2 MSTORE PUSH20 0xFFFFFFFFFFFFFFFFFFFFFFFFFFFFFFFFFFFFFFFF SWAP1 SWAP3 AND PUSH1 0x20 DUP4 ADD MSTORE SWAP1 DUP2 SWAP1 PUSH1 0x40 ADD SUB SWAP1 REVERT JUMPDEST PUSH2 0xF08 SWAP2 SWAP8 POP PUSH1 0xA0 RETURNDATASIZE DUP2 GT PUSH2 0xA96 JUMPI PUSH2 0xA82 DUP2 DUP4 PUSH2 0x1F7F JUMP JUMPDEST POP POP SWAP2 POP POP SWAP6 CODESIZE PUSH2 0xDC0 JUMP JUMPDEST DUP3 MLOAD RETURNDATASIZE DUP11 DUP3 RETURNDATACOPY RETURNDATASIZE SWAP1 REVERT JUMPDEST DUP3 DUP6 MLOAD PUSH32 0x37ED32E800000000000000000000000000000000000000000000000000000000 DUP2 MSTORE REVERT JUMPDEST POP SWAP1 CALLVALUE PUSH2 0x322 JUMPI DUP2 PUSH32 0xFFFFFFFFFFFFFFFFFFFFFFFFFFFFFFFFFFFFFFFFFFFFFFFFFFFFFFFFFFFFFFFC CALLDATASIZE ADD SLT PUSH2 0x322 JUMPI PUSH1 0x20 SWAP1 PUSH1 0x7 SLOAD SWAP1 MLOAD SWAP1 DUP2 MSTORE RETURN JUMPDEST POP CALLVALUE PUSH2 0x298 JUMPI DUP2 PUSH32 0xFFFFFFFFFFFFFFFFFFFFFFFFFFFFFFFFFFFFFFFFFFFFFFFFFFFFFFFFFFFFFFFC CALLDATASIZE ADD SLT PUSH2 0x298 JUMPI DUP3 CALLDATALOAD PUSH20 0xFFFFFFFFFFFFFFFFFFFFFFFFFFFFFFFFFFFFFFFF DUP1 DUP3 AND DUP1 SWAP3 SUB PUSH2 0x414 JUMPI PUSH1 0x24 CALLDATALOAD SWAP1 DUP2 AND DUP1 SWAP2 SUB PUSH2 0x414 JUMPI DUP2 DUP4 MSTORE PUSH1 0x20 SWAP5 PUSH1 0x3 DUP7 MSTORE DUP5 DUP5 KECCAK256 SWAP1 DUP6 MLOAD SWAP5 PUSH2 0xFFC PUSH1 0xC0 DUP8 PUSH2 0x1F7F JUMP JUMPDEST PUSH1 0xFF DUP4 SLOAD AND ISZERO ISZERO DUP7 MSTORE PUSH1 0x1 DUP4 ADD SLOAD DUP9 DUP8 ADD MSTORE PUSH1 0x2 DUP4 ADD SLOAD SWAP4 DUP8 DUP8 ADD SWAP5 DUP6 MSTORE PUSH1 0x3 DUP5 ADD SLOAD SWAP6 PUSH1 0x60 DUP9 ADD SWAP7 DUP8 MSTORE PUSH1 0xA0 PUSH1 0x5 DUP6 DUP8 ADD SLOAD SWAP7 PUSH1 0x80 DUP12 ADD SWAP8 DUP9 MSTORE ADD SLOAD SWAP9 ADD SWAP8 DUP9 MSTORE DUP3 MSTORE DUP3 DUP10 MSTORE DUP8 DUP3 KECCAK256 SWAP1 DUP3 MSTORE DUP9 MSTORE DUP7 DUP2 KECCAK256 SWAP6 PUSH1 0x1 DUP9 MLOAD SWAP8 PUSH2 0x105E DUP11 DUP11 PUSH2 0x1F7F JUMP JUMPDEST DUP1 SLOAD DUP10 MSTORE ADD SLOAD SWAP6 DUP10 DUP9 ADD SWAP7 DUP8 MSTORE MLOAD SWAP5 MLOAD SWAP4 MLOAD DUP1 TIMESTAMP GT DUP1 PUSH2 0x1147 JUMPI JUMPDEST PUSH2 0x109A JUMPI JUMPDEST DUP10 DUP10 PUSH2 0x291 DUP10 PUSH2 0x108F DUP11 DUP14 MLOAD PUSH2 0x20E6 JUMP JUMPDEST PUSH1 0xA0 SHR SWAP1 MLOAD SWAP1 PUSH2 0x234E JUMP JUMPDEST PUSH2 0x10CB SWAP2 PUSH2 0x10BA PUSH2 0x10B1 PUSH2 0x10C2 SWAP4 SWAP11 SWAP10 SWAP11 TIMESTAMP PUSH2 0x2161 JUMP JUMPDEST PUSH1 0x5 SLOAD SWAP1 PUSH2 0x20E6 JUMP JUMPDEST SWAP1 MLOAD SWAP1 PUSH2 0x20E6 JUMP JUMPDEST PUSH1 0x6 SLOAD SWAP1 PUSH2 0x2128 JUMP JUMPDEST SWAP2 DUP3 PUSH1 0xA0 SHL SWAP3 DUP1 DUP5 DIV PUSH21 0x10000000000000000000000000000000000000000 EQ SWAP1 ISZERO OR ISZERO PUSH2 0x111B JUMPI POP POP PUSH2 0x108F SWAP3 PUSH2 0x110B PUSH2 0x291 SWAP7 SWAP6 SWAP4 PUSH2 0x1111 SWAP4 PUSH2 0x2128 JUMP JUMPDEST SWAP1 PUSH2 0x22BF JUMP JUMPDEST SWAP2 DUP2 SWAP5 CODESIZE DUP1 PUSH2 0x107E JUMP JUMPDEST SWAP1 PUSH1 0x11 PUSH1 0x24 SWAP3 PUSH32 0x4E487B7100000000000000000000000000000000000000000000000000000000 DUP4 MSTORE MSTORE REVERT JUMPDEST POP DUP5 ISZERO ISZERO PUSH2 0x1079 JUMP JUMPDEST POP SWAP1 CALLVALUE PUSH2 0x322 JUMPI DUP2 PUSH32 0xFFFFFFFFFFFFFFFFFFFFFFFFFFFFFFFFFFFFFFFFFFFFFFFFFFFFFFFFFFFFFFFC CALLDATASIZE ADD SLT PUSH2 0x322 JUMPI PUSH1 0x20 SWAP1 PUSH2 0x291 TIMESTAMP PUSH32 0x0 PUSH2 0x2161 JUMP JUMPDEST POP SWAP1 CALLVALUE PUSH2 0x322 JUMPI DUP2 PUSH32 0xFFFFFFFFFFFFFFFFFFFFFFFFFFFFFFFFFFFFFFFFFFFFFFFFFFFFFFFFFFFFFFFC CALLDATASIZE ADD SLT PUSH2 0x322 JUMPI PUSH1 0x20 SWAP1 MLOAD TIMESTAMP DUP2 MSTORE RETURN JUMPDEST POP CALLVALUE PUSH2 0x298 JUMPI PUSH1 0x20 PUSH32 0xFFFFFFFFFFFFFFFFFFFFFFFFFFFFFFFFFFFFFFFFFFFFFFFFFFFFFFFFFFFFFFFC CALLDATASIZE ADD SLT PUSH2 0x298 JUMPI POP PUSH2 0x291 PUSH1 0x20 SWAP3 CALLDATALOAD PUSH2 0x21FA JUMP JUMPDEST POP SWAP1 CALLVALUE PUSH2 0x322 JUMPI DUP2 PUSH32 0xFFFFFFFFFFFFFFFFFFFFFFFFFFFFFFFFFFFFFFFFFFFFFFFFFFFFFFFFFFFFFFFC CALLDATASIZE ADD SLT PUSH2 0x322 JUMPI PUSH1 0x20 SWAP1 MLOAD PUSH32 0x0 DUP2 MSTORE RETURN JUMPDEST POP SWAP1 CALLVALUE PUSH2 0x322 JUMPI DUP2 PUSH32 0xFFFFFFFFFFFFFFFFFFFFFFFFFFFFFFFFFFFFFFFFFFFFFFFFFFFFFFFFFFFFFFFC CALLDATASIZE ADD SLT PUSH2 0x322 JUMPI PUSH1 0x20 SWAP1 PUSH2 0x291 PUSH3 0x2819A0 PUSH2 0x713 PUSH1 0x7 SLOAD TIMESTAMP PUSH2 0x2161 JUMP JUMPDEST POP SWAP1 CALLVALUE PUSH2 0x322 JUMPI DUP2 PUSH32 0xFFFFFFFFFFFFFFFFFFFFFFFFFFFFFFFFFFFFFFFFFFFFFFFFFFFFFFFFFFFFFFFC CALLDATASIZE ADD SLT PUSH2 0x322 JUMPI PUSH1 0x20 SWAP1 MLOAD PUSH1 0x30 DUP2 MSTORE RETURN JUMPDEST POP SWAP1 CALLVALUE PUSH2 0x322 JUMPI DUP2 PUSH32 0xFFFFFFFFFFFFFFFFFFFFFFFFFFFFFFFFFFFFFFFFFFFFFFFFFFFFFFFFFFFFFFFC CALLDATASIZE ADD SLT PUSH2 0x322 JUMPI PUSH1 0x20 SWAP1 MLOAD PUSH13 0x1000000000000000000000000 DUP2 MSTORE RETURN JUMPDEST POP CALLVALUE PUSH2 0x298 JUMPI DUP1 PUSH32 0xFFFFFFFFFFFFFFFFFFFFFFFFFFFFFFFFFFFFFFFFFFFFFFFFFFFFFFFFFFFFFFFC CALLDATASIZE ADD SLT PUSH2 0x298 JUMPI PUSH2 0x1379 PUSH2 0x216E JUMP JUMPDEST DUP1 PUSH2 0x138B JUMPI POP PUSH1 0x20 SWAP3 POP SWAP1 JUMPDEST MLOAD SWAP1 DUP2 MSTORE RETURN JUMPDEST PUSH32 0xFFFFFFFFFFFFFFFFFFFFFFFFFFFFFFFFFFFFFFFFFFFFFFFFFFFFFFFFFFFFFFFF DUP2 ADD SWAP1 DUP2 GT PUSH2 0x13DF JUMPI PUSH2 0x13BE SWAP1 PUSH2 0x22CC JUMP JUMPDEST SWAP1 PUSH3 0x2819A0 SWAP2 DUP3 DUP2 MUL SWAP3 DUP2 DUP5 DIV EQ SWAP1 ISZERO OR ISZERO PUSH2 0x2F6 JUMPI POP PUSH1 0x20 SWAP3 POP SWAP1 PUSH2 0x1385 JUMP JUMPDEST PUSH1 0x24 DUP3 PUSH1 0x11 DUP7 PUSH32 0x4E487B7100000000000000000000000000000000000000000000000000000000 DUP4 MSTORE MSTORE REVERT JUMPDEST POP SWAP1 CALLVALUE PUSH2 0x322 JUMPI DUP2 PUSH32 0xFFFFFFFFFFFFFFFFFFFFFFFFFFFFFFFFFFFFFFFFFFFFFFFFFFFFFFFFFFFFFFFC CALLDATASIZE ADD SLT PUSH2 0x322 JUMPI PUSH2 0x147A SWAP1 PUSH2 0x1449 PUSH1 0x5 PUSH2 0x1FEF JUMP JUMPDEST SWAP1 PUSH32 0x312E302E30000000000000000000000000000000000000000000000000000000 PUSH1 0x20 DUP4 ADD MSTORE MLOAD SWAP2 DUP3 SWAP2 DUP3 PUSH2 0x2039 JUMP JUMPDEST SUB SWAP1 RETURN JUMPDEST POP SWAP1 CALLVALUE PUSH2 0x322 JUMPI DUP2 PUSH32 0xFFFFFFFFFFFFFFFFFFFFFFFFFFFFFFFFFFFFFFFFFFFFFFFFFFFFFFFFFFFFFFFC CALLDATASIZE ADD SLT PUSH2 0x322 JUMPI PUSH1 0x20 SWAP1 PUSH1 0x5 SLOAD SWAP1 MLOAD SWAP1 DUP2 MSTORE RETURN JUMPDEST POP SWAP1 CALLVALUE PUSH2 0x322 JUMPI DUP2 PUSH32 0xFFFFFFFFFFFFFFFFFFFFFFFFFFFFFFFFFFFFFFFFFFFFFFFFFFFFFFFFFFFFFFFC CALLDATASIZE ADD SLT PUSH2 0x322 JUMPI PUSH1 0x20 SWAP1 PUSH1 0x1 SLOAD SWAP1 MLOAD SWAP1 DUP2 MSTORE RETURN JUMPDEST POP SWAP2 CALLVALUE PUSH2 0x414 JUMPI PUSH1 0x20 PUSH32 0xFFFFFFFFFFFFFFFFFFFFFFFFFFFFFFFFFFFFFFFFFFFFFFFFFFFFFFFFFFFFFFFC CALLDATASIZE ADD SLT PUSH2 0x414 JUMPI DUP1 CALLDATALOAD SWAP1 PUSH20 0xFFFFFFFFFFFFFFFFFFFFFFFFFFFFFFFFFFFFFFFF DUP3 AND DUP3 SUB PUSH2 0x1599 JUMPI DUP4 SLOAD SWAP3 PUSH1 0xFF DUP5 AND ISZERO PUSH2 0x7EB JUMPI DUP5 PUSH1 0x1 DUP6 PUSH2 0x1590 DUP7 PUSH32 0xFFFFFFFFFFFFFFFFFFFFFFFFFFFFFFFFFFFFFFFFFFFFFFFFFFFFFFFFFFFFFF00 DUP1 SWAP4 AND DUP6 SSTORE PUSH2 0x158B PUSH2 0x2367 JUMP JUMPDEST PUSH2 0x271C JUMP JUMPDEST POP PUSH2 0x3E4 PUSH2 0x26C8 JUMP JUMPDEST DUP4 DUP1 REVERT JUMPDEST POP SWAP2 CALLVALUE PUSH2 0x414 JUMPI DUP3 PUSH32 0xFFFFFFFFFFFFFFFFFFFFFFFFFFFFFFFFFFFFFFFFFFFFFFFFFFFFFFFFFFFFFFFC CALLDATASIZE ADD SLT PUSH2 0x414 JUMPI PUSH2 0x15E0 PUSH3 0x2819A0 PUSH2 0x713 PUSH1 0x7 SLOAD TIMESTAMP PUSH2 0x2161 JUMP JUMPDEST SWAP1 PUSH2 0x15E9 PUSH2 0x216E JUMP JUMPDEST DUP5 MSTORE PUSH1 0x2 PUSH1 0x20 MSTORE PUSH1 0x2 DUP4 DUP6 KECCAK256 ADD SLOAD SWAP1 PUSH1 0x3 DUP5 DUP7 KECCAK256 ADD SLOAD SWAP5 DUP4 PUSH32 0xFFFFFFFFFFFFFFFFFFFFFFFFFFFFFFFFFFFFFFFFFFFFFFFFFFFFFFFFFFFFFFFF DIV DUP4 GT DUP5 MUL PUSH2 0x1644 JUMPI PUSH1 0x20 DUP6 PUSH2 0x291 PUSH8 0xDE0B6B3A7640000 DUP7 DUP9 MUL DIV DUP10 PUSH2 0x2B34 JUMP JUMPDEST PUSH4 0xBAC65E5B SWAP1 MSTORE PUSH1 0x1C REVERT JUMPDEST POP SWAP1 CALLVALUE PUSH2 0x322 JUMPI DUP2 PUSH32 0xFFFFFFFFFFFFFFFFFFFFFFFFFFFFFFFFFFFFFFFFFFFFFFFFFFFFFFFFFFFFFFFC CALLDATASIZE ADD SLT PUSH2 0x322 JUMPI DUP2 SWAP1 PUSH2 0x1689 PUSH2 0x216E JUMP JUMPDEST DUP4 SWAP1 JUMPDEST DUP1 DUP3 GT ISZERO PUSH2 0x169E JUMPI PUSH1 0x20 DUP5 DUP5 MLOAD SWAP1 DUP2 MSTORE RETURN JUMPDEST SWAP1 SWAP3 PUSH2 0x16BC PUSH2 0x16C2 SWAP2 DUP6 DUP8 MSTORE PUSH1 0x2 PUSH1 0x20 MSTORE PUSH1 0x3 DUP6 DUP9 KECCAK256 ADD SLOAD SWAP1 PUSH2 0x22BF JUMP JUMPDEST SWAP4 PUSH2 0x21CD JUMP JUMPDEST SWAP1 PUSH2 0x168C JUMP JUMPDEST POP SWAP1 CALLVALUE PUSH2 0x322 JUMPI DUP2 PUSH32 0xFFFFFFFFFFFFFFFFFFFFFFFFFFFFFFFFFFFFFFFFFFFFFFFFFFFFFFFFFFFFFFFC CALLDATASIZE ADD SLT PUSH2 0x322 JUMPI PUSH1 0x20 SWAP1 MLOAD PUSH20 0xFFFFFFFFFFFFFFFFFFFFFFFFFFFFFFFFFFFFFFFF PUSH32 0x0 AND DUP2 MSTORE RETURN JUMPDEST POP SWAP1 CALLVALUE PUSH2 0x322 JUMPI DUP2 PUSH32 0xFFFFFFFFFFFFFFFFFFFFFFFFFFFFFFFFFFFFFFFFFFFFFFFFFFFFFFFFFFFFFFFC CALLDATASIZE ADD SLT PUSH2 0x322 JUMPI PUSH2 0x1773 PUSH1 0x7 SLOAD TIMESTAMP PUSH2 0x2161 JUMP JUMPDEST SWAP2 PUSH3 0x2819A0 SWAP3 DUP4 SUB SWAP3 DUP4 GT PUSH2 0x2F6 JUMPI PUSH1 0x20 DUP4 DUP4 MLOAD SWAP1 DUP2 MSTORE RETURN JUMPDEST POP SWAP2 CALLVALUE PUSH2 0x414 JUMPI DUP3 PUSH32 0xFFFFFFFFFFFFFFFFFFFFFFFFFFFFFFFFFFFFFFFFFFFFFFFFFFFFFFFFFFFFFFFC CALLDATASIZE ADD SLT PUSH2 0x414 JUMPI DUP3 SLOAD SWAP2 PUSH1 0xFF DUP4 AND ISZERO PUSH2 0x7EB JUMPI DUP4 PUSH1 0x1 DUP5 PUSH32 0xFFFFFFFFFFFFFFFFFFFFFFFFFFFFFFFFFFFFFFFFFFFFFFFFFFFFFFFFFFFFFF00 DUP1 SWAP2 AND DUP4 SSTORE PUSH2 0x17FA PUSH2 0x2982 JUMP JUMPDEST PUSH2 0x1802 PUSH2 0x2367 JUMP JUMPDEST PUSH2 0xC88 PUSH2 0x24E3 JUMP JUMPDEST POP SWAP2 CALLVALUE PUSH2 0x414 JUMPI DUP3 PUSH32 0xFFFFFFFFFFFFFFFFFFFFFFFFFFFFFFFFFFFFFFFFFFFFFFFFFFFFFFFFFFFFFFFC CALLDATASIZE ADD SLT PUSH2 0x414 JUMPI DUP3 SLOAD SWAP2 PUSH1 0xFF DUP4 AND ISZERO PUSH2 0x7EB JUMPI DUP4 PUSH1 0x1 DUP5 PUSH32 0xFFFFFFFFFFFFFFFFFFFFFFFFFFFFFFFFFFFFFFFFFFFFFFFFFFFFFFFFFFFFFF00 DUP1 SWAP2 AND DUP4 SSTORE PUSH2 0x1878 PUSH2 0x2982 JUMP JUMPDEST PUSH2 0xC88 PUSH2 0x2367 JUMP JUMPDEST POP SWAP1 CALLVALUE PUSH2 0x322 JUMPI DUP2 PUSH32 0xFFFFFFFFFFFFFFFFFFFFFFFFFFFFFFFFFFFFFFFFFFFFFFFFFFFFFFFFFFFFFFFC CALLDATASIZE ADD SLT PUSH2 0x322 JUMPI PUSH1 0x20 SWAP1 MLOAD PUSH21 0x10000000000000000000000000000000000000000 DUP2 MSTORE RETURN JUMPDEST POP SWAP1 CALLVALUE PUSH2 0x322 JUMPI DUP2 PUSH32 0xFFFFFFFFFFFFFFFFFFFFFFFFFFFFFFFFFFFFFFFFFFFFFFFFFFFFFFFFFFFFFFFC CALLDATASIZE ADD SLT PUSH2 0x322 JUMPI PUSH1 0x20 SWAP1 MLOAD PUSH7 0x58D15E17628000 DUP2 MSTORE RETURN JUMPDEST POP SWAP1 CALLVALUE PUSH2 0x322 JUMPI DUP2 PUSH32 0xFFFFFFFFFFFFFFFFFFFFFFFFFFFFFFFFFFFFFFFFFFFFFFFFFFFFFFFFFFFFFFFC CALLDATASIZE ADD SLT PUSH2 0x322 JUMPI PUSH1 0x20 SWAP1 MLOAD PUSH3 0x2819A0 DUP2 MSTORE RETURN JUMPDEST POP DUP3 CALLVALUE PUSH2 0x322 JUMPI PUSH1 0x20 SWAP1 DUP2 PUSH32 0xFFFFFFFFFFFFFFFFFFFFFFFFFFFFFFFFFFFFFFFFFFFFFFFFFFFFFFFFFFFFFFFC CALLDATASIZE ADD SLT PUSH2 0x414 JUMPI DUP1 CALLDATALOAD SWAP4 PUSH20 0xFFFFFFFFFFFFFFFFFFFFFFFFFFFFFFFFFFFFFFFF SWAP3 DUP4 DUP7 AND SWAP3 DUP4 DUP8 SUB PUSH2 0x1AF6 JUMPI DUP6 SLOAD SWAP5 PUSH1 0xFF DUP7 AND ISZERO PUSH2 0x1ACE JUMPI PUSH32 0xFFFFFFFFFFFFFFFFFFFFFFFFFFFFFFFFFFFFFFFFFFFFFFFFFFFFFFFFFFFFFF00 DUP1 SWAP7 AND DUP8 SSTORE PUSH2 0x19DB PUSH2 0x2367 JUMP JUMPDEST PUSH2 0x19E3 PUSH2 0x2A29 JUMP JUMPDEST PUSH32 0x0 SWAP1 DUP2 AND DUP6 EQ PUSH2 0x1A79 JUMPI DUP7 PUSH1 0x1 DUP8 DUP11 DUP9 PUSH32 0xEE2522CA264E96C7CEF76269664E2A4CEA70AD76B78EE5B01D0587798A0A72D6 DUP10 DUP10 PUSH4 0x70A08231 DUP9 MSTORE ADDRESS DUP2 MSTORE PUSH2 0x1A5D DUP2 DUP1 PUSH1 0x24 PUSH1 0x1C DUP10 GAS STATICCALL PUSH1 0x1F RETURNDATASIZE GT AND DUP3 MLOAD MUL DUP1 SWAP7 CALLER SWAP1 PUSH2 0x2C33 JUMP JUMPDEST PUSH2 0x1A65 PUSH2 0x216E JUMP JUMPDEST SWAP1 DUP3 MLOAD SWAP6 DUP7 MSTORE DUP6 ADD MSTORE CALLER SWAP4 LOG3 PUSH2 0x3E4 PUSH2 0x26C8 JUMP JUMPDEST DUP4 MLOAD PUSH32 0xEF52F72D00000000000000000000000000000000000000000000000000000000 DUP2 MSTORE PUSH20 0xFFFFFFFFFFFFFFFFFFFFFFFFFFFFFFFFFFFFFFFF DUP1 DUP11 AND SWAP4 DUP3 ADD SWAP4 DUP5 MSTORE SWAP1 SWAP2 AND PUSH1 0x20 DUP4 ADD MSTORE SWAP1 DUP2 SWAP1 PUSH1 0x40 ADD SUB SWAP1 REVERT JUMPDEST POP DUP3 MLOAD PUSH32 0x37ED32E800000000000000000000000000000000000000000000000000000000 DUP2 MSTORE REVERT JUMPDEST DUP6 DUP1 REVERT JUMPDEST POP SWAP1 CALLVALUE PUSH2 0x322 JUMPI DUP2 PUSH32 0xFFFFFFFFFFFFFFFFFFFFFFFFFFFFFFFFFFFFFFFFFFFFFFFFFFFFFFFFFFFFFFFC CALLDATASIZE ADD SLT PUSH2 0x322 JUMPI PUSH1 0x20 SWAP1 MLOAD PUSH4 0x784CE00 DUP2 MSTORE RETURN JUMPDEST POP SWAP1 CALLVALUE PUSH2 0x322 JUMPI DUP2 PUSH32 0xFFFFFFFFFFFFFFFFFFFFFFFFFFFFFFFFFFFFFFFFFFFFFFFFFFFFFFFFFFFFFFFC CALLDATASIZE ADD SLT PUSH2 0x322 JUMPI PUSH2 0x1B6F PUSH2 0x216E JUMP JUMPDEST PUSH1 0x1 DUP2 ADD DUP1 SWAP2 GT PUSH2 0x1B83 JUMPI PUSH2 0x2D6 SWAP1 PUSH2 0x22CC JUMP JUMPDEST PUSH1 0x24 DUP4 PUSH1 0x11 DUP7 PUSH32 0x4E487B7100000000000000000000000000000000000000000000000000000000 DUP4 MSTORE MSTORE REVERT JUMPDEST POP SWAP2 CALLVALUE PUSH2 0x414 JUMPI PUSH1 0x20 PUSH32 0xFFFFFFFFFFFFFFFFFFFFFFFFFFFFFFFFFFFFFFFFFFFFFFFFFFFFFFFFFFFFFFFC CALLDATASIZE ADD SLT PUSH2 0x414 JUMPI CALLDATALOAD SWAP2 PUSH1 0x1 SLOAD DUP4 LT ISZERO PUSH2 0x298 JUMPI POP PUSH20 0xFFFFFFFFFFFFFFFFFFFFFFFFFFFFFFFFFFFFFFFF PUSH2 0x1C0F PUSH1 0x20 SWAP4 PUSH1 0x1 PUSH2 0x209F JUMP JUMPDEST SWAP3 SWAP1 SLOAD SWAP1 MLOAD SWAP3 PUSH1 0x3 SHL SHR AND DUP2 MSTORE RETURN JUMPDEST POP SWAP1 CALLVALUE PUSH2 0x322 JUMPI DUP2 PUSH32 0xFFFFFFFFFFFFFFFFFFFFFFFFFFFFFFFFFFFFFFFFFFFFFFFFFFFFFFFFFFFFFFFC CALLDATASIZE ADD SLT PUSH2 0x322 JUMPI PUSH1 0x20 SWAP1 PUSH1 0x6 SLOAD SWAP1 MLOAD SWAP1 DUP2 MSTORE RETURN JUMPDEST POP SWAP2 SWAP1 CALLVALUE PUSH2 0x414 JUMPI PUSH1 0x20 PUSH32 0xFFFFFFFFFFFFFFFFFFFFFFFFFFFFFFFFFFFFFFFFFFFFFFFFFFFFFFFFFFFFFFFC CALLDATASIZE ADD SLT PUSH2 0x414 JUMPI DUP2 CALLDATALOAD PUSH20 0xFFFFFFFFFFFFFFFFFFFFFFFFFFFFFFFFFFFFFFFF DUP2 AND DUP1 SWAP2 SUB PUSH2 0x1599 JUMPI DUP4 DUP3 SWAP2 PUSH1 0xC0 SWAP6 MSTORE PUSH1 0x3 PUSH1 0x20 MSTORE KECCAK256 PUSH1 0xFF DUP2 SLOAD AND SWAP3 PUSH1 0x1 DUP3 ADD SLOAD SWAP3 PUSH1 0x2 DUP4 ADD SLOAD SWAP1 PUSH1 0x5 PUSH1 0x3 DUP6 ADD SLOAD SWAP4 DUP6 ADD SLOAD SWAP5 ADD SLOAD SWAP5 DUP2 MLOAD SWAP7 ISZERO ISZERO DUP8 MSTORE PUSH1 0x20 DUP8 ADD MSTORE DUP6 ADD MSTORE PUSH1 0x60 DUP5 ADD MSTORE PUSH1 0x80 DUP4 ADD MSTORE PUSH1 0xA0 DUP3 ADD MSTORE RETURN JUMPDEST POP SWAP2 SWAP1 CALLVALUE PUSH2 0x414 JUMPI PUSH1 0x20 PUSH32 0xFFFFFFFFFFFFFFFFFFFFFFFFFFFFFFFFFFFFFFFFFFFFFFFFFFFFFFFFFFFFFFFC CALLDATASIZE ADD SLT PUSH2 0x414 JUMPI DUP1 PUSH1 0xC0 SWAP4 DUP4 CALLDATALOAD DUP2 MSTORE PUSH1 0x2 PUSH1 0x20 MSTORE KECCAK256 DUP1 SLOAD SWAP3 PUSH1 0x1 DUP3 ADD SLOAD SWAP3 PUSH1 0x2 DUP4 ADD SLOAD SWAP1 PUSH1 0x5 PUSH1 0x3 DUP6 ADD SLOAD SWAP4 DUP6 ADD SLOAD SWAP5 ADD SLOAD SWAP5 DUP2 MLOAD SWAP7 DUP8 MSTORE PUSH1 0x20 DUP8 ADD MSTORE DUP6 ADD MSTORE PUSH1 0x60 DUP5 ADD MSTORE PUSH1 0x80 DUP4 ADD MSTORE PUSH1 0xA0 DUP3 ADD MSTORE RETURN JUMPDEST POP SWAP1 CALLVALUE PUSH2 0x322 JUMPI DUP2 PUSH32 0xFFFFFFFFFFFFFFFFFFFFFFFFFFFFFFFFFFFFFFFFFFFFFFFFFFFFFFFFFFFFFFFC CALLDATASIZE ADD SLT PUSH2 0x322 JUMPI PUSH2 0x147A SWAP1 PUSH2 0x1DB5 PUSH1 0x1B PUSH2 0x1FEF JUMP JUMPDEST SWAP1 PUSH32 0x4379676E757344414F3A20436F6D706C65782052657761726465720000000000 PUSH1 0x20 DUP4 ADD MSTORE MLOAD SWAP2 DUP3 SWAP2 DUP3 PUSH2 0x2039 JUMP JUMPDEST POP SWAP2 CALLVALUE PUSH2 0x414 JUMPI DUP3 PUSH32 0xFFFFFFFFFFFFFFFFFFFFFFFFFFFFFFFFFFFFFFFFFFFFFFFFFFFFFFFFFFFFFFFC CALLDATASIZE ADD SLT PUSH2 0x414 JUMPI DUP3 SLOAD SWAP2 PUSH1 0xFF DUP4 AND ISZERO PUSH2 0x7EB JUMPI DUP4 PUSH1 0x1 DUP5 PUSH32 0xFFFFFFFFFFFFFFFFFFFFFFFFFFFFFFFFFFFFFFFFFFFFFFFFFFFFFFFFFFFFFF00 DUP1 SWAP2 AND DUP4 SSTORE PUSH2 0x1E54 PUSH2 0x2367 JUMP JUMPDEST PUSH2 0xC88 PUSH2 0x2A29 JUMP JUMPDEST SWAP1 POP DUP4 CALLVALUE PUSH2 0x414 JUMPI PUSH1 0x20 PUSH32 0xFFFFFFFFFFFFFFFFFFFFFFFFFFFFFFFFFFFFFFFFFFFFFFFFFFFFFFFFFFFFFFFC CALLDATASIZE ADD SLT PUSH2 0x414 JUMPI DUP1 CALLDATALOAD SWAP1 DUP4 SLOAD SWAP3 PUSH1 0xFF DUP5 AND ISZERO PUSH2 0x1F5A JUMPI POP PUSH32 0xFFFFFFFFFFFFFFFFFFFFFFFFFFFFFFFFFFFFFFFFFFFFFFFFFFFFFFFFFFFFFF00 DUP1 SWAP4 AND DUP5 SSTORE PUSH2 0x1ECC PUSH2 0x2367 JUMP JUMPDEST PUSH2 0x1ED4 PUSH2 0x2A29 JUMP JUMPDEST PUSH8 0x69789FBBC4F8000 DUP1 DUP4 GT PUSH2 0x1F26 JUMPI DUP5 PUSH1 0x1 DUP6 PUSH32 0x3EA86743BC8B6977A0693F6611AD7256D6EC1E3F996C6CBA22E146152959DDFF DUP10 DUP8 PUSH1 0x5 SLOAD SWAP1 DUP1 PUSH1 0x5 SSTORE DUP3 MLOAD SWAP2 DUP3 MSTORE PUSH1 0x20 DUP3 ADD MSTORE LOG1 PUSH2 0x3E4 PUSH2 0x26C8 JUMP JUMPDEST SWAP2 PUSH1 0x44 SWAP3 DUP7 MLOAD SWAP3 PUSH32 0xC3AF7CC700000000000000000000000000000000000000000000000000000000 DUP5 MSTORE DUP4 ADD MSTORE PUSH1 0x24 DUP3 ADD MSTORE REVERT JUMPDEST PUSH32 0x37ED32E800000000000000000000000000000000000000000000000000000000 DUP2 MSTORE REVERT JUMPDEST SWAP1 PUSH1 0x1F PUSH32 0xFFFFFFFFFFFFFFFFFFFFFFFFFFFFFFFFFFFFFFFFFFFFFFFFFFFFFFFFFFFFFFE0 SWAP2 ADD AND DUP2 ADD SWAP1 DUP2 LT PUSH8 0xFFFFFFFFFFFFFFFF DUP3 GT OR PUSH2 0x1FC0 JUMPI PUSH1 0x40 MSTORE JUMP JUMPDEST PUSH32 0x4E487B7100000000000000000000000000000000000000000000000000000000 PUSH1 0x0 MSTORE PUSH1 0x41 PUSH1 0x4 MSTORE PUSH1 0x24 PUSH1 0x0 REVERT JUMPDEST SWAP1 PUSH8 0xFFFFFFFFFFFFFFFF DUP3 GT PUSH2 0x1FC0 JUMPI PUSH1 0x40 MLOAD SWAP2 PUSH2 0x2035 PUSH1 0x20 PUSH32 0xFFFFFFFFFFFFFFFFFFFFFFFFFFFFFFFFFFFFFFFFFFFFFFFFFFFFFFFFFFFFFFE0 PUSH1 0x1F DUP5 ADD AND ADD DUP5 PUSH2 0x1F7F JUMP JUMPDEST DUP3 MSTORE JUMP JUMPDEST PUSH1 0x20 DUP1 DUP3 MSTORE DUP3 MLOAD DUP2 DUP4 ADD DUP2 SWAP1 MSTORE SWAP4 SWAP3 PUSH1 0x0 JUMPDEST DUP6 DUP2 LT PUSH2 0x208B JUMPI POP POP POP PUSH32 0xFFFFFFFFFFFFFFFFFFFFFFFFFFFFFFFFFFFFFFFFFFFFFFFFFFFFFFFFFFFFFFE0 PUSH1 0x1F DUP5 PUSH1 0x0 PUSH1 0x40 DUP1 SWAP7 SWAP8 DUP7 ADD ADD MSTORE ADD AND ADD ADD SWAP1 JUMP JUMPDEST DUP2 DUP2 ADD DUP4 ADD MLOAD DUP5 DUP3 ADD PUSH1 0x40 ADD MSTORE DUP3 ADD PUSH2 0x204B JUMP JUMPDEST DUP1 SLOAD DUP3 LT ISZERO PUSH2 0x20B7 JUMPI PUSH1 0x0 MSTORE PUSH1 0x20 PUSH1 0x0 KECCAK256 ADD SWAP1 PUSH1 0x0 SWAP1 JUMP JUMPDEST PUSH32 0x4E487B7100000000000000000000000000000000000000000000000000000000 PUSH1 0x0 MSTORE PUSH1 0x32 PUSH1 0x4 MSTORE PUSH1 0x24 PUSH1 0x0 REVERT JUMPDEST DUP2 DUP2 MUL SWAP3 SWAP2 DUP2 ISZERO SWAP2 DUP5 DIV EQ OR ISZERO PUSH2 0x20F9 JUMPI JUMP JUMPDEST PUSH32 0x4E487B7100000000000000000000000000000000000000000000000000000000 PUSH1 0x0 MSTORE PUSH1 0x11 PUSH1 0x4 MSTORE PUSH1 0x24 PUSH1 0x0 REVERT JUMPDEST DUP2 ISZERO PUSH2 0x2132 JUMPI DIV SWAP1 JUMP JUMPDEST PUSH32 0x4E487B7100000000000000000000000000000000000000000000000000000000 PUSH1 0x0 MSTORE PUSH1 0x12 PUSH1 0x4 MSTORE PUSH1 0x24 PUSH1 0x0 REVERT JUMPDEST SWAP2 SWAP1 DUP3 SUB SWAP2 DUP3 GT PUSH2 0x20F9 JUMPI JUMP JUMPDEST PUSH32 0x0 TIMESTAMP LT ISZERO PUSH2 0x21C8 JUMPI PUSH3 0x2819A0 PUSH2 0x21C4 PUSH32 0x0 TIMESTAMP PUSH2 0x2161 JUMP JUMPDEST DIV SWAP1 JUMP JUMPDEST PUSH1 0x30 SWAP1 JUMP JUMPDEST PUSH32 0xFFFFFFFFFFFFFFFFFFFFFFFFFFFFFFFFFFFFFFFFFFFFFFFFFFFFFFFFFFFFFFFF DUP2 EQ PUSH2 0x20F9 JUMPI PUSH1 0x1 ADD SWAP1 JUMP JUMPDEST PUSH1 0x30 SUB PUSH1 0x30 DUP2 GT PUSH2 0x20F9 JUMPI PUSH8 0xDE0B6B3A7640000 PUSH1 0x0 SWAP2 DUP3 SWAP1 JUMPDEST DUP1 DUP3 LT PUSH2 0x2268 JUMPI POP POP PUSH8 0xDE0B6B3A7640000 SUB SWAP1 PUSH8 0xDE0B6B3A7640000 DUP3 GT PUSH2 0x223B JUMPI POP SWAP1 JUMP JUMPDEST DUP1 PUSH32 0x4E487B7100000000000000000000000000000000000000000000000000000000 PUSH1 0x24 SWAP3 MSTORE PUSH1 0x11 PUSH1 0x4 MSTORE REVERT JUMPDEST SWAP1 SWAP2 PUSH8 0xD87E55590018000 SWAP1 PUSH25 0x12EB73EAE4C8B0077DB7B119A3928413FFF44D230654AC05AC DUP2 GT DUP3 MUL PUSH2 0x22B2 JUMPI PUSH2 0x22AC SWAP2 PUSH8 0xDE0B6B3A7640000 SWAP2 MUL DIV SWAP3 PUSH2 0x21CD JUMP JUMPDEST SWAP1 PUSH2 0x2214 JUMP JUMPDEST PUSH4 0xBAC65E5B DUP6 MSTORE PUSH1 0x4 PUSH1 0x1C REVERT JUMPDEST SWAP2 SWAP1 DUP3 ADD DUP1 SWAP3 GT PUSH2 0x20F9 JUMPI JUMP JUMPDEST PUSH1 0x0 SWAP1 DUP2 SWAP1 DUP3 PUSH32 0x0 JUMPDEST DUP3 DUP3 GT ISZERO PUSH2 0x2309 JUMPI POP POP POP PUSH3 0x2819A0 SWAP2 POP DIV SWAP1 JUMP JUMPDEST SWAP1 SWAP2 SWAP3 POP PUSH2 0x2344 PUSH2 0x233E PUSH2 0x2337 PUSH2 0x2320 DUP8 DUP6 PUSH2 0x2161 JUMP JUMPDEST PUSH7 0x58D15E17628000 PUSH2 0x2331 DUP8 PUSH2 0x21FA JUMP JUMPDEST SWAP2 PUSH2 0x2B77 JUMP JUMPDEST DUP1 SWAP7 PUSH2 0x22BF JUMP JUMPDEST SWAP3 PUSH2 0x21CD JUMP JUMPDEST SWAP1 SWAP4 SWAP3 SWAP2 SWAP4 PUSH2 0x22F4 JUMP JUMPDEST DUP2 DUP2 SUB SWAP3 SWAP2 PUSH1 0x0 SGT DUP1 ISZERO DUP3 DUP6 SGT AND SWAP2 DUP5 SLT AND OR PUSH2 0x20F9 JUMPI JUMP JUMPDEST PUSH2 0x237A PUSH1 0x7 SLOAD PUSH3 0x2819A0 SWAP2 DUP3 SWAP2 TIMESTAMP PUSH2 0x2161 JUMP JUMPDEST DIV PUSH2 0x2382 JUMPI POP JUMP JUMPDEST PUSH2 0x238A PUSH2 0x216E JUMP JUMPDEST PUSH1 0x30 DUP2 LT ISZERO PUSH2 0x24B3 JUMPI PUSH1 0x5 SLOAD PUSH2 0x239F DUP3 PUSH2 0x22CC JUMP JUMPDEST PUSH1 0x5 SSTORE TIMESTAMP PUSH1 0x7 SSTORE PUSH1 0x0 SWAP3 DUP3 DUP5 MSTORE PUSH1 0x2 PUSH1 0x20 MSTORE PUSH1 0x40 DUP5 KECCAK256 TIMESTAMP PUSH1 0x4 DUP3 ADD SSTORE DUP2 TIMESTAMP ADD DUP1 TIMESTAMP GT PUSH2 0x2486 JUMPI PUSH1 0x5 DUP3 ADD SSTORE DUP4 DUP2 SSTORE PUSH1 0x5 SLOAD DUP1 PUSH1 0x1 DUP4 ADD SSTORE DUP3 DUP2 MUL SWAP3 DUP2 DUP5 DIV EQ SWAP1 ISZERO OR ISZERO PUSH2 0x2459 JUMPI PUSH1 0x2 ADD SSTORE PUSH32 0xFFFFFFFFFFFFFFFFFFFFFFFFFFFFFFFFFFFFFFFFFFFFFFFFFFFFFFFFFFFFFFFF DUP3 ADD SWAP3 DUP3 DUP5 GT PUSH2 0x223B JUMPI POP SWAP2 PUSH1 0x80 SWAP2 PUSH32 0xCC53A96DDDB8D3B8710C4932D9E90652A4EAEF0BF4C37A13DC4D806E1B54CB4D SWAP4 PUSH1 0x5 SLOAD SWAP2 PUSH1 0x40 MLOAD SWAP4 DUP5 MSTORE PUSH1 0x20 DUP5 ADD MSTORE PUSH1 0x40 DUP4 ADD MSTORE PUSH1 0x60 DUP3 ADD MSTORE LOG1 JUMPDEST JUMP JUMPDEST PUSH1 0x24 DUP6 PUSH32 0x4E487B7100000000000000000000000000000000000000000000000000000000 DUP2 MSTORE PUSH1 0x11 PUSH1 0x4 MSTORE REVERT JUMPDEST PUSH1 0x24 DUP7 PUSH32 0x4E487B7100000000000000000000000000000000000000000000000000000000 DUP2 MSTORE PUSH1 0x11 PUSH1 0x4 MSTORE REVERT JUMPDEST POP POP PUSH2 0x2457 PUSH2 0x24E3 JUMP JUMPDEST MLOAD SWAP1 PUSH20 0xFFFFFFFFFFFFFFFFFFFFFFFFFFFFFFFFFFFFFFFF DUP3 AND DUP3 SUB PUSH2 0x24DE JUMPI JUMP JUMPDEST PUSH1 0x0 DUP1 REVERT JUMPDEST PUSH2 0x24EB PUSH2 0x216E JUMP JUMPDEST PUSH1 0x30 DUP2 LT PUSH2 0x264C JUMPI PUSH1 0x40 MLOAD PUSH32 0xF851A44000000000000000000000000000000000000000000000000000000000 DUP2 MSTORE PUSH1 0x20 DUP2 PUSH1 0x4 DUP2 PUSH20 0xFFFFFFFFFFFFFFFFFFFFFFFFFFFFFFFFFFFFFFFF PUSH32 0x0 AND GAS STATICCALL DUP1 ISZERO PUSH2 0x2640 JUMPI PUSH2 0x25E3 JUMPI JUMPDEST POP PUSH1 0x80 PUSH32 0x3448D68E439B81DF30DBD68606F415F65C9EABAAEF0ACA1FFC0368CC3954C6DC SWAP2 PUSH1 0x40 MLOAD SWAP1 CALLER DUP3 MSTORE PUSH32 0x0 PUSH1 0x20 DUP4 ADD MSTORE PUSH32 0x0 PUSH1 0x40 DUP4 ADD MSTORE PUSH1 0x60 DUP3 ADD MSTORE LOG1 JUMP JUMPDEST PUSH1 0x20 DUP2 RETURNDATASIZE DUP3 GT PUSH2 0x2638 JUMPI JUMPDEST DUP2 PUSH2 0x25FB PUSH1 0x20 SWAP4 DUP4 PUSH2 0x1F7F JUMP JUMPDEST DUP2 ADD SUB SLT PUSH2 0x24DE JUMPI PUSH32 0x3448D68E439B81DF30DBD68606F415F65C9EABAAEF0ACA1FFC0368CC3954C6DC SWAP2 PUSH2 0x2630 PUSH1 0x80 SWAP3 PUSH2 0x24BD JUMP JUMPDEST POP SWAP2 POP PUSH2 0x2563 JUMP JUMPDEST RETURNDATASIZE SWAP2 POP PUSH2 0x25EE JUMP JUMPDEST PUSH1 0x40 MLOAD RETURNDATASIZE PUSH1 0x0 DUP3 RETURNDATACOPY RETURNDATASIZE SWAP1 REVERT JUMPDEST POP JUMP JUMPDEST SWAP1 PUSH1 0x40 MLOAD SWAP2 DUP3 DUP2 SLOAD SWAP2 DUP3 DUP3 MSTORE PUSH1 0x20 SWAP3 DUP4 DUP4 ADD SWAP2 PUSH1 0x0 MSTORE DUP4 PUSH1 0x0 KECCAK256 SWAP4 PUSH1 0x0 SWAP1 JUMPDEST DUP3 DUP3 LT PUSH2 0x2684 JUMPI POP POP POP PUSH2 0x2457 SWAP3 POP SUB DUP4 PUSH2 0x1F7F JUMP JUMPDEST DUP6 SLOAD PUSH20 0xFFFFFFFFFFFFFFFFFFFFFFFFFFFFFFFFFFFFFFFF AND DUP5 MSTORE PUSH1 0x1 SWAP6 DUP7 ADD SWAP6 DUP9 SWAP6 POP SWAP4 DUP2 ADD SWAP4 SWAP1 SWAP2 ADD SWAP1 PUSH2 0x266E JUMP JUMPDEST DUP1 MLOAD DUP3 LT ISZERO PUSH2 0x20B7 JUMPI PUSH1 0x20 SWAP2 PUSH1 0x5 SHL ADD ADD SWAP1 JUMP JUMPDEST PUSH1 0x1 SLOAD PUSH2 0x26D5 PUSH1 0x1 PUSH2 0x264F JUMP JUMPDEST PUSH1 0x0 JUMPDEST DUP3 DUP2 LT PUSH2 0x26E4 JUMPI POP POP POP JUMP JUMPDEST DUP1 PUSH2 0x2711 PUSH20 0xFFFFFFFFFFFFFFFFFFFFFFFFFFFFFFFFFFFFFFFF PUSH2 0x270A PUSH2 0x2717 SWAP5 DUP7 PUSH2 0x26B4 JUMP JUMPDEST MLOAD AND PUSH2 0x271C JUMP JUMPDEST POP PUSH2 0x21CD JUMP JUMPDEST PUSH2 0x26D8 JUMP JUMPDEST PUSH20 0xFFFFFFFFFFFFFFFFFFFFFFFFFFFFFFFFFFFFFFFF AND SWAP1 DUP2 PUSH1 0x0 MSTORE PUSH1 0x3 PUSH1 0x20 MSTORE PUSH1 0x40 PUSH1 0x0 KECCAK256 SWAP2 PUSH1 0x4 DUP4 ADD DUP1 SLOAD DUP1 TIMESTAMP GT PUSH2 0x2754 JUMPI POP POP POP JUMP JUMPDEST PUSH1 0x2 DUP6 ADD SLOAD SWAP1 DUP2 PUSH2 0x27A2 JUMPI JUMPDEST POP PUSH1 0x60 SWAP1 PUSH32 0x76E5C786DD7C9C1CD87203F33DBC49D953FF07B99DE74BAA864F04A0E3B6AA1C SWAP3 TIMESTAMP SWAP1 SSTORE PUSH1 0x3 DUP7 ADD SLOAD PUSH1 0x40 MLOAD SWAP2 TIMESTAMP DUP4 MSTORE PUSH1 0x20 DUP4 ADD MSTORE PUSH1 0x40 DUP3 ADD MSTORE LOG2 JUMP JUMPDEST PUSH2 0x10C2 PUSH2 0x27B7 PUSH2 0x27C2 SWAP3 PUSH1 0x5 SLOAD SWAP1 TIMESTAMP SUB PUSH2 0x20E6 JUMP JUMPDEST PUSH1 0x5 DUP9 ADD SLOAD SWAP1 PUSH2 0x20E6 JUMP JUMPDEST SWAP1 DUP2 PUSH1 0xA0 SHL SWAP2 DUP1 DUP4 DIV PUSH21 0x10000000000000000000000000000000000000000 EQ SWAP1 ISZERO OR ISZERO PUSH2 0x20F9 JUMPI PUSH32 0x76E5C786DD7C9C1CD87203F33DBC49D953FF07B99DE74BAA864F04A0E3B6AA1C SWAP3 PUSH2 0x2818 DUP3 PUSH1 0x60 SWAP5 PUSH2 0x2128 JUMP JUMPDEST PUSH2 0x2827 PUSH1 0x3 DUP10 ADD SWAP2 DUP3 SLOAD PUSH2 0x22BF JUMP JUMPDEST SWAP1 SSTORE SWAP3 POP SWAP1 PUSH2 0x2760 JUMP JUMPDEST PUSH2 0x283A DUP2 PUSH2 0x271C JUMP JUMPDEST SWAP2 PUSH20 0xFFFFFFFFFFFFFFFFFFFFFFFFFFFFFFFFFFFFFFFF PUSH1 0x40 SWAP3 DUP4 MLOAD PUSH2 0x2860 PUSH1 0xC0 DUP3 PUSH2 0x1F7F JUMP JUMPDEST PUSH1 0xFF DUP7 SLOAD AND ISZERO ISZERO DUP2 MSTORE PUSH1 0x1 DUP7 ADD SLOAD PUSH1 0x20 DUP3 ADD MSTORE PUSH1 0x2 DUP7 ADD SLOAD DUP6 DUP3 ADD MSTORE PUSH1 0xA0 PUSH1 0x5 PUSH1 0x3 DUP9 ADD SLOAD SWAP8 PUSH1 0x60 DUP5 ADD SWAP9 DUP10 MSTORE PUSH1 0x4 DUP2 ADD SLOAD PUSH1 0x80 DUP6 ADD MSTORE ADD SLOAD SWAP2 ADD MSTORE AND SWAP2 PUSH1 0x0 SWAP4 DUP4 DUP6 MSTORE PUSH1 0x4 PUSH1 0x20 MSTORE DUP2 DUP6 KECCAK256 CALLER DUP7 MSTORE PUSH1 0x20 MSTORE PUSH1 0x1 PUSH2 0x28C5 DUP4 DUP8 KECCAK256 SWAP3 DUP4 SLOAD SWAP1 MLOAD SWAP1 PUSH2 0x20E6 JUMP JUMPDEST PUSH1 0xA0 SHR SWAP2 ADD SWAP1 PUSH2 0x28D6 DUP3 SLOAD DUP3 PUSH2 0x234E JUMP JUMPDEST SWAP2 DUP3 ISZERO PUSH2 0x295D JUMPI PUSH32 0xBC96BAF3023D0B9EA3A899E000F15D5F0F7A8B064774C1EED6B4CC63FCBD1B19 SWAP5 PUSH2 0x294F SWAP3 DUP5 SWAP3 SSTORE PUSH1 0x3 DUP6 PUSH2 0x2911 PUSH2 0x216E JUMP JUMPDEST SWAP10 DUP11 DUP2 MSTORE PUSH1 0x2 PUSH1 0x20 MSTORE KECCAK256 ADD PUSH2 0x2927 DUP4 DUP3 SLOAD PUSH2 0x22BF JUMP JUMPDEST SWAP1 SSTORE PUSH32 0x0 PUSH2 0x2C33 JUMP JUMPDEST DUP2 MLOAD SWAP1 CALLER DUP3 MSTORE PUSH1 0x20 DUP3 ADD MSTORE LOG3 JUMP JUMPDEST POP POP POP POP POP POP POP JUMP JUMPDEST SWAP2 SWAP1 SWAP2 PUSH1 0x0 DUP4 DUP3 ADD SWAP4 DUP5 SLT SWAP2 SLT SWAP1 DUP1 ISZERO DUP3 AND SWAP2 ISZERO AND OR PUSH2 0x20F9 JUMPI JUMP JUMPDEST ORIGIN CALLER SUB PUSH2 0x298B JUMPI JUMP JUMPDEST PUSH1 0x40 MLOAD PUSH32 0x3E1EB26600000000000000000000000000000000000000000000000000000000 DUP2 MSTORE CALLER PUSH1 0x4 DUP3 ADD MSTORE ORIGIN PUSH1 0x24 DUP3 ADD MSTORE PUSH1 0x44 SWAP1 REVERT JUMPDEST SWAP1 DUP2 PUSH1 0xA0 SWAP2 SUB SLT PUSH2 0x24DE JUMPI DUP1 MLOAD DUP1 ISZERO ISZERO DUP2 SUB PUSH2 0x24DE JUMPI SWAP2 PUSH1 0x20 DUP3 ADD MLOAD PUSH11 0xFFFFFFFFFFFFFFFFFFFFFF DUP2 AND DUP2 SUB PUSH2 0x24DE JUMPI SWAP2 PUSH2 0x29FF PUSH1 0x40 DUP3 ADD PUSH2 0x24BD JUMP JUMPDEST SWAP2 PUSH1 0x80 PUSH2 0x2A0E PUSH1 0x60 DUP5 ADD PUSH2 0x24BD JUMP JUMPDEST SWAP3 ADD MLOAD PUSH12 0xFFFFFFFFFFFFFFFFFFFFFFFF DUP2 AND DUP2 SUB PUSH2 0x24DE JUMPI SWAP1 JUMP JUMPDEST PUSH1 0x40 MLOAD PUSH32 0xF851A44000000000000000000000000000000000000000000000000000000000 DUP2 MSTORE PUSH20 0xFFFFFFFFFFFFFFFFFFFFFFFFFFFFFFFFFFFFFFFF PUSH1 0x20 DUP3 PUSH1 0x4 DUP2 DUP5 PUSH32 0x0 AND GAS STATICCALL SWAP2 DUP3 ISZERO PUSH2 0x2640 JUMPI PUSH1 0x0 SWAP3 PUSH2 0x2AF9 JUMPI JUMPDEST POP DUP2 AND CALLER SUB PUSH2 0x2AAA JUMPI POP JUMP JUMPDEST PUSH1 0x40 MLOAD PUSH32 0x5113AFBD00000000000000000000000000000000000000000000000000000000 DUP2 MSTORE PUSH20 0xFFFFFFFFFFFFFFFFFFFFFFFFFFFFFFFFFFFFFFFF SWAP2 SWAP1 SWAP2 AND PUSH1 0x4 DUP3 ADD MSTORE CALLER PUSH1 0x24 DUP3 ADD MSTORE PUSH1 0x44 SWAP1 REVERT JUMPDEST SWAP1 SWAP2 PUSH1 0x20 DUP3 RETURNDATASIZE DUP3 GT PUSH2 0x2B2C JUMPI JUMPDEST DUP2 PUSH2 0x2B13 PUSH1 0x20 SWAP4 DUP4 PUSH2 0x1F7F JUMP JUMPDEST DUP2 ADD SUB SLT PUSH2 0x298 JUMPI POP PUSH2 0x2B25 SWAP1 PUSH2 0x24BD JUMP JUMPDEST SWAP1 CODESIZE PUSH2 0x2A9E JUMP JUMPDEST RETURNDATASIZE SWAP2 POP PUSH2 0x2B06 JUMP JUMPDEST PUSH8 0xDE0B6B3A7640000 SWAP1 PUSH25 0x12725DD1D243ABA0E75FE645CC4873F9E65AFE688C928E1F21 DUP2 GT DUP3 MUL ISZERO DUP4 MUL ISZERO PUSH2 0x2B69 JUMPI MUL DIV SWAP1 JUMP JUMPDEST PUSH4 0x7C5F487D PUSH1 0x0 MSTORE PUSH1 0x4 PUSH1 0x1C REVERT JUMPDEST SWAP2 PUSH1 0x0 SWAP3 DUP3 DUP2 MUL SWAP3 PUSH32 0xFFFFFFFFFFFFFFFFFFFFFFFFFFFFFFFFFFFFFFFFFFFFFFFFFFFFFFFFFFFFFFFF DUP2 DUP4 MULMOD SWAP2 DUP5 DUP4 LT DUP6 ADD DUP1 DUP5 SUB SWAP4 EQ PUSH2 0x2C17 JUMPI DUP3 DUP5 GT ISZERO PUSH2 0x2C0A JUMPI SWAP1 DUP4 SWAP2 MULMOD SWAP1 PUSH1 0x1 DUP4 DUP7 SUB DUP5 AND DUP1 DUP1 DUP1 SWAP7 DIV PUSH1 0x2 DUP1 DUP3 PUSH1 0x3 MUL XOR DUP1 DUP4 MUL DUP3 SUB MUL DUP1 DUP4 MUL DUP3 SUB MUL DUP1 DUP4 MUL DUP3 SUB MUL DUP1 DUP4 MUL DUP3 SUB MUL DUP1 DUP4 MUL DUP3 SUB MUL DUP1 SWAP3 MUL SWAP1 SUB MUL SWAP8 SUB DIV ADD SWAP1 DUP5 DUP4 GT SWAP1 SUB MUL SWAP3 SUB DIV OR MUL SWAP1 JUMP JUMPDEST PUSH4 0xAE47F702 DUP7 MSTORE PUSH1 0x4 PUSH1 0x1C REVERT JUMPDEST POP POP POP SWAP2 DUP3 ISZERO PUSH2 0x2C26 JUMPI POP DIV SWAP1 JUMP JUMPDEST PUSH4 0xAE47F702 SWAP1 MSTORE PUSH1 0x4 PUSH1 0x1C REVERT JUMPDEST PUSH1 0x16 SWAP3 PUSH1 0x20 SWAP3 PUSH1 0x1A MSTORE PUSH1 0x3A MSTORE PUSH1 0x44 PUSH1 0x0 SWAP4 DUP5 DUP1 SWAP4 PUSH10 0xA9059CBB000000000000 DUP3 MSTORE GAS CALL RETURNDATASIZE ISZERO PUSH1 0x1 DUP4 MLOAD EQ OR AND ISZERO PUSH2 0x2C69 JUMPI PUSH1 0x3A MSTORE JUMP JUMPDEST PUSH4 0x90B8EC18 SWAP1 MSTORE PUSH1 0x4 PUSH1 0x1C REVERT INVALID LOG1 PUSH5 0x736F6C6343 STOP ADDMOD GT STOP EXP "},"methodIdentifiers":{"ACC_PRECISION()":"32fcd966","BLOCKS_PER_EPOCH()":"1f3adc0f","BLOCKS_PER_YEAR()":"d37db1d2","DURATION()":"1be05289","MAX_CYG_PER_BLOCK()":"c1f1e5ae","REDUCTION_FACTOR_PER_EPOCH()":"28419d62","SHARES_PRECISION()":"5de7fcd0","TOTAL_EPOCHS()":"5f15c3c9","accelerateTheUniverse()":"f2b128a4","adjustShuttleRewards(uint256,uint256)":"cb87f7f3","advanceEpoch()":"3cf80e6c","allShuttles(uint256)":"1ad4c8c3","birth()":"c81ba8f0","blocksThisEpoch()":"ac9462f5","blocksUntilNextEpoch()":"4f3d90b1","blocksUntilSupernova()":"7c4941ec","calculateCygPerBlock(uint256)":"fd59c299","calculateEpochRewards(uint256)":"f6503e6c","collect(address,address)":"a12ef25e","collectAll(address)":"d657c9e7","currentEpochRewards()":"9e81b634","cygPerBlock()":"5493b5d6","cygToken()":"4f573686","death()":"6fa42261","dripDAOCyg()":"04b3182e","emissionsCurve(uint256)":"72e127cb","epochProgression()":"6673fd97","epochRewardsPacing()":"5104517f","getBlockTimestamp()":"796b89b9","getCurrentEpoch()":"b97dd9e2","getEpochInfo(uint256)":"135022c2","getShuttleInfo(address)":"151e510e","getUserInfo(address,address)":"f2801fe7","hangar18()":"e8a24e1d","initializeShuttleRewards(uint256,uint256)":"93c3677b","lastEpochTime()":"89c614b8","name()":"06fdde03","nextEpochRewards()":"1bafed52","pendingCyg(address,address)":"82ebcd32","previousEpochRewards()":"58322a8e","setCygPerBlock(uint256)":"01bac4c6","shuttlesLength()":"53cde488","supernova()":"4a91f2b1","sweepToken(address)":"1be19560","totalAllocPoint()":"17caf6f1","totalCygClaimed()":"4fcc5575","totalCygRewards()":"d4f7286b","totalProgression()":"d797c4c3","trackBorrower(address,uint256,uint256)":"d98320d5","updateShuttle(address)":"5303654f","version()":"54fd4d50"}}}}}