{"contracts/cygnus-token/CygnusTokenVesting.sol":{"TokenVesting":{"abi":[{"inputs":[{"internalType":"address","name":"token_","type":"address"}],"stateMutability":"nonpayable","type":"constructor"},{"inputs":[],"name":"ReentrantCall","type":"error"},{"anonymous":false,"inputs":[{"indexed":true,"internalType":"address","name":"user","type":"address"},{"indexed":true,"internalType":"address","name":"newOwner","type":"address"}],"name":"OwnershipTransferred","type":"event"},{"stateMutability":"payable","type":"fallback"},{"inputs":[{"internalType":"address","name":"holder","type":"address"}],"name":"computeNextVestingScheduleIdForHolder","outputs":[{"internalType":"bytes32","name":"","type":"bytes32"}],"stateMutability":"view","type":"function"},{"inputs":[{"internalType":"bytes32","name":"vestingScheduleId","type":"bytes32"}],"name":"computeReleasableAmount","outputs":[{"internalType":"uint256","name":"","type":"uint256"}],"stateMutability":"view","type":"function"},{"inputs":[{"internalType":"address","name":"holder","type":"address"},{"internalType":"uint256","name":"index","type":"uint256"}],"name":"computeVestingScheduleIdForAddressAndIndex","outputs":[{"internalType":"bytes32","name":"","type":"bytes32"}],"stateMutability":"pure","type":"function"},{"inputs":[{"internalType":"address","name":"_beneficiary","type":"address"},{"internalType":"uint256","name":"_start","type":"uint256"},{"internalType":"uint256","name":"_cliff","type":"uint256"},{"internalType":"uint256","name":"_duration","type":"uint256"},{"internalType":"uint256","name":"_slicePeriodSeconds","type":"uint256"},{"internalType":"bool","name":"_revocable","type":"bool"},{"internalType":"uint256","name":"_amount","type":"uint256"}],"name":"createVestingSchedule","outputs":[],"stateMutability":"nonpayable","type":"function"},{"inputs":[{"internalType":"address","name":"holder","type":"address"}],"name":"getLastVestingScheduleForHolder","outputs":[{"components":[{"internalType":"bool","name":"initialized","type":"bool"},{"internalType":"address","name":"beneficiary","type":"address"},{"internalType":"uint256","name":"cliff","type":"uint256"},{"internalType":"uint256","name":"start","type":"uint256"},{"internalType":"uint256","name":"duration","type":"uint256"},{"internalType":"uint256","name":"slicePeriodSeconds","type":"uint256"},{"internalType":"bool","name":"revocable","type":"bool"},{"internalType":"uint256","name":"amountTotal","type":"uint256"},{"internalType":"uint256","name":"released","type":"uint256"},{"internalType":"bool","name":"revoked","type":"bool"}],"internalType":"struct TokenVesting.VestingSchedule","name":"","type":"tuple"}],"stateMutability":"view","type":"function"},{"inputs":[],"name":"getToken","outputs":[{"internalType":"address","name":"","type":"address"}],"stateMutability":"view","type":"function"},{"inputs":[{"internalType":"uint256","name":"index","type":"uint256"}],"name":"getVestingIdAtIndex","outputs":[{"internalType":"bytes32","name":"","type":"bytes32"}],"stateMutability":"view","type":"function"},{"inputs":[{"internalType":"bytes32","name":"vestingScheduleId","type":"bytes32"}],"name":"getVestingSchedule","outputs":[{"components":[{"internalType":"bool","name":"initialized","type":"bool"},{"internalType":"address","name":"beneficiary","type":"address"},{"internalType":"uint256","name":"cliff","type":"uint256"},{"internalType":"uint256","name":"start","type":"uint256"},{"internalType":"uint256","name":"duration","type":"uint256"},{"internalType":"uint256","name":"slicePeriodSeconds","type":"uint256"},{"internalType":"bool","name":"revocable","type":"bool"},{"internalType":"uint256","name":"amountTotal","type":"uint256"},{"internalType":"uint256","name":"released","type":"uint256"},{"internalType":"bool","name":"revoked","type":"bool"}],"internalType":"struct TokenVesting.VestingSchedule","name":"","type":"tuple"}],"stateMutability":"view","type":"function"},{"inputs":[{"internalType":"address","name":"holder","type":"address"},{"internalType":"uint256","name":"index","type":"uint256"}],"name":"getVestingScheduleByAddressAndIndex","outputs":[{"components":[{"internalType":"bool","name":"initialized","type":"bool"},{"internalType":"address","name":"beneficiary","type":"address"},{"internalType":"uint256","name":"cliff","type":"uint256"},{"internalType":"uint256","name":"start","type":"uint256"},{"internalType":"uint256","name":"duration","type":"uint256"},{"internalType":"uint256","name":"slicePeriodSeconds","type":"uint256"},{"internalType":"bool","name":"revocable","type":"bool"},{"internalType":"uint256","name":"amountTotal","type":"uint256"},{"internalType":"uint256","name":"released","type":"uint256"},{"internalType":"bool","name":"revoked","type":"bool"}],"internalType":"struct TokenVesting.VestingSchedule","name":"","type":"tuple"}],"stateMutability":"view","type":"function"},{"inputs":[],"name":"getVestingSchedulesCount","outputs":[{"internalType":"uint256","name":"","type":"uint256"}],"stateMutability":"view","type":"function"},{"inputs":[{"internalType":"address","name":"_beneficiary","type":"address"}],"name":"getVestingSchedulesCountByBeneficiary","outputs":[{"internalType":"uint256","name":"","type":"uint256"}],"stateMutability":"view","type":"function"},{"inputs":[],"name":"getVestingSchedulesTotalAmount","outputs":[{"internalType":"uint256","name":"","type":"uint256"}],"stateMutability":"view","type":"function"},{"inputs":[],"name":"getWithdrawableAmount","outputs":[{"internalType":"uint256","name":"","type":"uint256"}],"stateMutability":"view","type":"function"},{"inputs":[],"name":"owner","outputs":[{"internalType":"address","name":"","type":"address"}],"stateMutability":"view","type":"function"},{"inputs":[{"internalType":"bytes32","name":"vestingScheduleId","type":"bytes32"},{"internalType":"uint256","name":"amount","type":"uint256"}],"name":"release","outputs":[],"stateMutability":"nonpayable","type":"function"},{"inputs":[{"internalType":"bytes32","name":"vestingScheduleId","type":"bytes32"}],"name":"revoke","outputs":[],"stateMutability":"nonpayable","type":"function"},{"inputs":[{"internalType":"address","name":"newOwner","type":"address"}],"name":"transferOwnership","outputs":[],"stateMutability":"nonpayable","type":"function"},{"inputs":[{"internalType":"uint256","name":"amount","type":"uint256"}],"name":"withdraw","outputs":[],"stateMutability":"nonpayable","type":"function"},{"stateMutability":"payable","type":"receive"}],"evm":{"bytecode":{"linkReferences":{},"object":"60a0346100d357601f611abe38819003918201601f19168301916001600160401b038311848410176100d8578084926020946040528339810103126100d357516001600160a01b038116908190036100d3576000908154916040519233827f8be0079c531659141344cd1fd0a4f28419497f9722a3daafe3b4186f6b6457e08180a36001600160a81b0319163360ff60a01b191617600160a01b17815581156100d057506080526119cf90816100ef823960805181818161061a01528181610e0301528181610ef601526117c50152f35b80fd5b600080fd5b634e487b7160e01b600052604160045260246000fdfe608060409080825260049081361015610020575b505050361561001e57005b005b600090813560e01c90816313083617146114d95750806317e289e914610f1a57806321df0da714610eab5780632e1a7d4d14610d4a57806348deb47114610d0d5780635a7bb69a14610ca857806366afd8ef14610a405780637e913dc6146109645780638af104da146109045780638da5cb5b146108b357806390be10cc146108785780639ef346b414610838578063b75c7dc614610463578063ea1bb3d5146103fa578063f2fde38b14610347578063f51321d714610245578063f7c469f0146101ce5763f9079b370361001357346101cb5760207ffffffffffffffffffffffffffffffffffffffffffffffffffffffffffffffffc3601126101cb57508035906001548210156101485760208361013a846001611624565b91905490519160031b1c8152f35b60849060208451917f08c379a0000000000000000000000000000000000000000000000000000000008352820152602160248201527f546f6b656e56657374696e673a20696e646578206f7574206f6620626f756e6460448201527f73000000000000000000000000000000000000000000000000000000000000006064820152fd5b80fd5b509190346102415760207ffffffffffffffffffffffffffffffffffffffffffffffffffffffffffffffffc3601126102415780359073ffffffffffffffffffffffffffffffffffffffff821680830361023d5784526020908152928290205461023691611842565b9051908152f35b8480fd5b8280fd5b5091903461024157817ffffffffffffffffffffffffffffffffffffffffffffffffffffffffffffffffc36011261024157359173ffffffffffffffffffffffffffffffffffffffff831683036101cb57506102b76102b2610343936102a861170c565b5060243590611842565b61175b565b90519182918291909161014081019280511515825273ffffffffffffffffffffffffffffffffffffffff602082015116602083015260408101516040830152606081015160608301526080810151608083015260a081015160a083015260c0810151151560c083015260e081015160e08301526101008082015190830152610120809101511515910152565b0390f35b5090346103f65760207ffffffffffffffffffffffffffffffffffffffffffffffffffffffffffffffffc3601126103f6573573ffffffffffffffffffffffffffffffffffffffff808216809203610241577fffffffffffffffffffffffff000000000000000000000000000000000000000082916103ca85549182163314611513565b16178255337f8be0079c531659141344cd1fd0a4f28419497f9722a3daafe3b4186f6b6457e08380a380f35b5080fd5b509190346102415760207ffffffffffffffffffffffffffffffffffffffffffffffffffffffffffffffffc36011261024157358252600260205260ff8183205416156103f65760ff60088284200154166103f65761023661045e826020942061166b565b6118d9565b50913461024157602091827ffffffffffffffffffffffffffffffffffffffffffffffffffffffffffffffffc3601126108345780359084549273ffffffffffffffffffffffffffffffffffffffff908185163314926104c184611513565b8488526002875260ff9687838a2054161561078357876008848b2001541661078357828920978060058a015416156107b3576104ff61045e8a61166b565b9687610558575b8a60088b61052861052060068301546007840154906116ff565b6003546116ff565b6003550160017fffffffffffffffffffffffffffffffffffffffffffffffffffffffffffffff0082541617905580f35b818960a01c161561078b577fffffffffffffffffffffff00ffffffffffffffffffffffffffffffffffffffff8099168b558a526002825280848b20541615610787576008848b20015416610783578289209284845460081c169586331490811561077b575b50156106d457866105d061045e8661166b565b106106535750505092600895949261063f926007740100000000000000000000000000000000000000009601610607848254611578565b9055610615836003546116ff565b6003557f00000000000000000000000000000000000000000000000000000000000000001661197f565b845416178355903880808080808080610506565b6084935051917f08c379a0000000000000000000000000000000000000000000000000000000008352820152603d60248201527f546f6b656e56657374696e673a2063616e6e6f742072656c6561736520746f6b60448201527f656e732c206e6f7420656e6f7567682076657374656420746f6b656e730000006064820152fd5b60a4935051917f08c379a0000000000000000000000000000000000000000000000000000000008352820152604260248201527f546f6b656e56657374696e673a206f6e6c792062656e6566696369617279206160448201527f6e64206f776e65722063616e2072656c656173652076657374656420746f6b6560648201527f6e730000000000000000000000000000000000000000000000000000000000006084820152fd5b9050386105bd565b8880fd5b8980fd5b8385517f37ed32e8000000000000000000000000000000000000000000000000000000008152fd5b5060849251917f08c379a0000000000000000000000000000000000000000000000000000000008352820152602660248201527f546f6b656e56657374696e673a2076657374696e67206973206e6f742072657660448201527f6f6361626c6500000000000000000000000000000000000000000000000000006064820152fd5b8380fd5b508290346101cb5760207ffffffffffffffffffffffffffffffffffffffffffffffffffffffffffffffffc3601126101cb57506102b7610343923561175b565b5082346103f657817ffffffffffffffffffffffffffffffffffffffffffffffffffffffffffffffffc3601126103f65760209061023661177c565b5082346103f657817ffffffffffffffffffffffffffffffffffffffffffffffffffffffffffffffffc3601126103f65773ffffffffffffffffffffffffffffffffffffffff60209254169051908152f35b5091903461024157817ffffffffffffffffffffffffffffffffffffffffffffffffffffffffffffffffc36011261024157359173ffffffffffffffffffffffffffffffffffffffff831683036101cb575061023660209260243590611842565b508290346101cb5760207ffffffffffffffffffffffffffffffffffffffffffffffffffffffffffffffffc3601126101cb57823573ffffffffffffffffffffffffffffffffffffffff8116808203610241576109be61170c565b5082528360205282822054907fffffffffffffffffffffffffffffffffffffffffffffffffffffffffffffffff8201918211610a1457928092610a076102b79361034396611842565b815260026020522061166b565b6024836011877f4e487b7100000000000000000000000000000000000000000000000000000000835252fd5b5090346103f657827ffffffffffffffffffffffffffffffffffffffffffffffffffffffffffffffffc3601126103f657602435825460ff8160a01c1615610c80577fffffffffffffffffffffff00ffffffffffffffffffffffffffffffffffffffff92838216855580358552600260205260ff86862054161561023d5760ff600887872001541661023d5785852073ffffffffffffffffffffffffffffffffffffffff9182825460081c169383853314918215610c73575b505015610bca5784610b0c61045e8461166b565b10610b47575091740100000000000000000000000000000000000000009493916007610b3e9401610607848254611578565b82541617815580f35b60849060208951917f08c379a0000000000000000000000000000000000000000000000000000000008352820152603d60248201527f546f6b656e56657374696e673a2063616e6e6f742072656c6561736520746f6b60448201527f656e732c206e6f7420656e6f7567682076657374656420746f6b656e730000006064820152fd5b60a49060208951917f08c379a0000000000000000000000000000000000000000000000000000000008352820152604260248201527f546f6b656e56657374696e673a206f6e6c792062656e6566696369617279206160448201527f6e64206f776e65722063616e2072656c656173652076657374656420746f6b6560648201527f6e730000000000000000000000000000000000000000000000000000000000006084820152fd5b9091501633148338610af8565b8285517f37ed32e8000000000000000000000000000000000000000000000000000000008152fd5b509190346102415760207ffffffffffffffffffffffffffffffffffffffffffffffffffffffffffffffffc36011261024157803573ffffffffffffffffffffffffffffffffffffffff8116809103610834579282916020948252845220549051908152f35b5082346103f657817ffffffffffffffffffffffffffffffffffffffffffffffffffffffffffffffffc3601126103f6576020906003549051908152f35b5090346103f65760207ffffffffffffffffffffffffffffffffffffffffffffffffffffffffffffffffc3601126103f6578035825460ff8160a01c1615610c80577fffffffffffffffffffffff00ffffffffffffffffffffffffffffffffffffffff928382168555610dd473ffffffffffffffffffffffffffffffffffffffff8093163314611513565b82610ddd61177c565b10610e285750740100000000000000000000000000000000000000009291610b3e9133907f00000000000000000000000000000000000000000000000000000000000000001661197f565b60849060208751917f08c379a0000000000000000000000000000000000000000000000000000000008352820152602b60248201527f546f6b656e56657374696e673a206e6f7420656e6f756768207769746864726160448201527f7761626c652066756e64730000000000000000000000000000000000000000006064820152fd5b5082346103f657817ffffffffffffffffffffffffffffffffffffffffffffffffffffffffffffffffc3601126103f6576020905173ffffffffffffffffffffffffffffffffffffffff7f0000000000000000000000000000000000000000000000000000000000000000168152f35b5091346102415760e07ffffffffffffffffffffffffffffffffffffffffffffffffffffffffffffffffc3601126102415773ffffffffffffffffffffffffffffffffffffffff918035838116908181036114d557602490868235916044978835916064908135906084359260a435948515158096036114d157610fa49060c4359854163314611513565b86610fad61177c565b106114295782156113a757861561134f5760019c8d85106112ce5786841061124d575050928c928b928d96958b86528c60205284862054610fed91611842565b98610ff98a9782611578565b978551986110096101408b6115b4565b818a528d60208b01908152878b0191825260608b0193845260808b0194855260a08b0195865260c08b0196875260e08b01978c89526101008c0199808b526101208d019b818d5281526002602052209a511515611091908c9060ff7fffffffffffffffffffffffffffffffffffffffffffffffffffffffffffffff0083541691151516179055565b518a549060081b74ffffffffffffffffffffffffffffffffffffffff0016907fffffffffffffffffffffff0000000000000000000000000000000000000000ff16178a555190890155516002880155516003870155518a8601555115156005850190611127919060ff7fffffffffffffffffffffffffffffffffffffffffffffffffffffffffffffff0083541691151516179055565b516006840155516007830155511515906008019061116f919060ff7fffffffffffffffffffffffffffffffffffffffffffffffffffffffffffffff0083541691151516179055565b6003549061117c91611578565b6003558554680100000000000000008110156112225780876111a19201885587611624565b819291549060031b7fffffffffffffffffffffffffffffffffffffffffffffffffffffffffffffffff811b9283911b1691191617905581865282602052838620549485018095116111f85750845260205282205580f35b856011847f4e487b7100000000000000000000000000000000000000000000000000000000835252fd5b82886041877f4e487b7100000000000000000000000000000000000000000000000000000000835252fd5b8b7f3d20636c69666600000000000000000000000000000000000000000000000000838f60849460278f60207f546f6b656e56657374696e673a206475726174696f6e206d757374206265203e9451977f08c379a0000000000000000000000000000000000000000000000000000000008952880152860152840152820152fd5b8b7f206d757374206265203e3d203100000000000000000000000000000000000000838f608494602d8f60207f546f6b656e56657374696e673a20736c696365506572696f645365636f6e64739451977f08c379a0000000000000000000000000000000000000000000000000000000008952880152860152840152820152fd5b8b517f08c379a00000000000000000000000000000000000000000000000000000000081526020818d01819052818b01527f546f6b656e56657374696e673a20616d6f756e74206d757374206265203e2030818f0152fd5b8a7f20300000000000000000000000000000000000000000000000000000000000006084928f8f9060228e60207f546f6b656e56657374696e673a206475726174696f6e206d757374206265203e9451977f08c379a0000000000000000000000000000000000000000000000000000000008952880152860152840152820152fd5b8a7f696e67207363686564756c652062656361757365206e6f74207375666669636960a4928f8f90604a8e60207f546f6b656e56657374696e673a2063616e6e6f742063726561746520766573749451977f08c379a00000000000000000000000000000000000000000000000000000000089528801528601528401528201527f656e7420746f6b656e73000000000000000000000000000000000000000000006084820152fd5b8780fd5b8580fd5b9050346103f657817ffffffffffffffffffffffffffffffffffffffffffffffffffffffffffffffffc3601126103f6576020906001548152f35b1561151a57565b60646040517f08c379a000000000000000000000000000000000000000000000000000000000815260206004820152600c60248201527f554e415554484f52495a454400000000000000000000000000000000000000006044820152fd5b9190820180921161158557565b7f4e487b7100000000000000000000000000000000000000000000000000000000600052601160045260246000fd5b90601f7fffffffffffffffffffffffffffffffffffffffffffffffffffffffffffffffe0910116810190811067ffffffffffffffff8211176115f557604052565b7f4e487b7100000000000000000000000000000000000000000000000000000000600052604160045260246000fd5b805482101561163c5760005260206000200190600090565b7f4e487b7100000000000000000000000000000000000000000000000000000000600052603260045260246000fd5b9060405161167b610140826115b4565b61012060ff6008839573ffffffffffffffffffffffffffffffffffffffff815484811615158752831c166020860152600181015460408601526002810154606086015260038101546080860152600481015460a086015282600582015416151560c0860152600681015460e086015260078101546101008601520154161515910152565b9190820391821161158557565b6040519061171c610140836115b4565b816101206000918281528260208201528260408201528260608201528260808201528260a08201528260c08201528260e0820152826101008201520152565b61176361170c565b506000526002602052611779604060002061166b565b90565b6040517f70a0823100000000000000000000000000000000000000000000000000000000815230600482015260208160248173ffffffffffffffffffffffffffffffffffffffff7f0000000000000000000000000000000000000000000000000000000000000000165afa801561183657600090611803575b6117799150600354906116ff565b6020823d821161182e575b8161181b602093836115b4565b810103126101cb575061177990516117f5565b3d915061180e565b6040513d6000823e3d90fd5b90604051907fffffffffffffffffffffffffffffffffffffffff000000000000000000000000602083019360601b1683526034820152603481526118876054826115b4565b51902090565b8115611897570490565b7f4e487b7100000000000000000000000000000000000000000000000000000000600052601260045260246000fd5b8181029291811591840414171561158557565b604081015142108015611971575b156118f25750600090565b606081019081519161190a6080830193845190611578565b42106119275750611779915061010060e0820151910151906116ff565b611968611779936119606119566119426101009551426116ff565b61195160a0880151809261188d565b6118c6565b60e08601516118c6565b90519061188d565b910151906116ff565b5061012081015115156118e7565b601692602092601a52603a52604460009384809369a9059cbb00000000000082525af13d1560018351141716156119b557603a52565b6390b8ec1890526004601cfdfea164736f6c6343000811000a","opcodes":"PUSH1 0xA0 CALLVALUE PUSH2 0xD3 JUMPI PUSH1 0x1F PUSH2 0x1ABE CODESIZE DUP2 SWAP1 SUB SWAP2 DUP3 ADD PUSH1 0x1F NOT AND DUP4 ADD SWAP2 PUSH1 0x1 PUSH1 0x1 PUSH1 0x40 SHL SUB DUP4 GT DUP5 DUP5 LT OR PUSH2 0xD8 JUMPI DUP1 DUP5 SWAP3 PUSH1 0x20 SWAP5 PUSH1 0x40 MSTORE DUP4 CODECOPY DUP2 ADD SUB SLT PUSH2 0xD3 JUMPI MLOAD PUSH1 0x1 PUSH1 0x1 PUSH1 0xA0 SHL SUB DUP2 AND SWAP1 DUP2 SWAP1 SUB PUSH2 0xD3 JUMPI PUSH1 0x0 SWAP1 DUP2 SLOAD SWAP2 PUSH1 0x40 MLOAD SWAP3 CALLER DUP3 PUSH32 0x8BE0079C531659141344CD1FD0A4F28419497F9722A3DAAFE3B4186F6B6457E0 DUP2 DUP1 LOG3 PUSH1 0x1 PUSH1 0x1 PUSH1 0xA8 SHL SUB NOT AND CALLER PUSH1 0xFF PUSH1 0xA0 SHL NOT AND OR PUSH1 0x1 PUSH1 0xA0 SHL OR DUP2 SSTORE DUP2 ISZERO PUSH2 0xD0 JUMPI POP PUSH1 0x80 MSTORE PUSH2 0x19CF SWAP1 DUP2 PUSH2 0xEF DUP3 CODECOPY PUSH1 0x80 MLOAD DUP2 DUP2 DUP2 PUSH2 0x61A ADD MSTORE DUP2 DUP2 PUSH2 0xE03 ADD MSTORE DUP2 DUP2 PUSH2 0xEF6 ADD MSTORE PUSH2 0x17C5 ADD MSTORE RETURN JUMPDEST DUP1 REVERT JUMPDEST PUSH1 0x0 DUP1 REVERT JUMPDEST PUSH4 0x4E487B71 PUSH1 0xE0 SHL PUSH1 0x0 MSTORE PUSH1 0x41 PUSH1 0x4 MSTORE PUSH1 0x24 PUSH1 0x0 REVERT INVALID PUSH1 0x80 PUSH1 0x40 SWAP1 DUP1 DUP3 MSTORE PUSH1 0x4 SWAP1 DUP2 CALLDATASIZE LT ISZERO PUSH2 0x20 JUMPI JUMPDEST POP POP POP CALLDATASIZE ISZERO PUSH2 0x1E JUMPI STOP JUMPDEST STOP JUMPDEST PUSH1 0x0 SWAP1 DUP2 CALLDATALOAD PUSH1 0xE0 SHR SWAP1 DUP2 PUSH4 0x13083617 EQ PUSH2 0x14D9 JUMPI POP DUP1 PUSH4 0x17E289E9 EQ PUSH2 0xF1A JUMPI DUP1 PUSH4 0x21DF0DA7 EQ PUSH2 0xEAB JUMPI DUP1 PUSH4 0x2E1A7D4D EQ PUSH2 0xD4A JUMPI DUP1 PUSH4 0x48DEB471 EQ PUSH2 0xD0D JUMPI DUP1 PUSH4 0x5A7BB69A EQ PUSH2 0xCA8 JUMPI DUP1 PUSH4 0x66AFD8EF EQ PUSH2 0xA40 JUMPI DUP1 PUSH4 0x7E913DC6 EQ PUSH2 0x964 JUMPI DUP1 PUSH4 0x8AF104DA EQ PUSH2 0x904 JUMPI DUP1 PUSH4 0x8DA5CB5B EQ PUSH2 0x8B3 JUMPI DUP1 PUSH4 0x90BE10CC EQ PUSH2 0x878 JUMPI DUP1 PUSH4 0x9EF346B4 EQ PUSH2 0x838 JUMPI DUP1 PUSH4 0xB75C7DC6 EQ PUSH2 0x463 JUMPI DUP1 PUSH4 0xEA1BB3D5 EQ PUSH2 0x3FA JUMPI DUP1 PUSH4 0xF2FDE38B EQ PUSH2 0x347 JUMPI DUP1 PUSH4 0xF51321D7 EQ PUSH2 0x245 JUMPI DUP1 PUSH4 0xF7C469F0 EQ PUSH2 0x1CE JUMPI PUSH4 0xF9079B37 SUB PUSH2 0x13 JUMPI CALLVALUE PUSH2 0x1CB JUMPI PUSH1 0x20 PUSH32 0xFFFFFFFFFFFFFFFFFFFFFFFFFFFFFFFFFFFFFFFFFFFFFFFFFFFFFFFFFFFFFFFC CALLDATASIZE ADD SLT PUSH2 0x1CB JUMPI POP DUP1 CALLDATALOAD SWAP1 PUSH1 0x1 SLOAD DUP3 LT ISZERO PUSH2 0x148 JUMPI PUSH1 0x20 DUP4 PUSH2 0x13A DUP5 PUSH1 0x1 PUSH2 0x1624 JUMP JUMPDEST SWAP2 SWAP1 SLOAD SWAP1 MLOAD SWAP2 PUSH1 0x3 SHL SHR DUP2 MSTORE RETURN JUMPDEST PUSH1 0x84 SWAP1 PUSH1 0x20 DUP5 MLOAD SWAP2 PUSH32 0x8C379A000000000000000000000000000000000000000000000000000000000 DUP4 MSTORE DUP3 ADD MSTORE PUSH1 0x21 PUSH1 0x24 DUP3 ADD MSTORE PUSH32 0x546F6B656E56657374696E673A20696E646578206F7574206F6620626F756E64 PUSH1 0x44 DUP3 ADD MSTORE PUSH32 0x7300000000000000000000000000000000000000000000000000000000000000 PUSH1 0x64 DUP3 ADD MSTORE REVERT JUMPDEST DUP1 REVERT JUMPDEST POP SWAP2 SWAP1 CALLVALUE PUSH2 0x241 JUMPI PUSH1 0x20 PUSH32 0xFFFFFFFFFFFFFFFFFFFFFFFFFFFFFFFFFFFFFFFFFFFFFFFFFFFFFFFFFFFFFFFC CALLDATASIZE ADD SLT PUSH2 0x241 JUMPI DUP1 CALLDATALOAD SWAP1 PUSH20 0xFFFFFFFFFFFFFFFFFFFFFFFFFFFFFFFFFFFFFFFF DUP3 AND DUP1 DUP4 SUB PUSH2 0x23D JUMPI DUP5 MSTORE PUSH1 0x20 SWAP1 DUP2 MSTORE SWAP3 DUP3 SWAP1 KECCAK256 SLOAD PUSH2 0x236 SWAP2 PUSH2 0x1842 JUMP JUMPDEST SWAP1 MLOAD SWAP1 DUP2 MSTORE RETURN JUMPDEST DUP5 DUP1 REVERT JUMPDEST DUP3 DUP1 REVERT JUMPDEST POP SWAP2 SWAP1 CALLVALUE PUSH2 0x241 JUMPI DUP2 PUSH32 0xFFFFFFFFFFFFFFFFFFFFFFFFFFFFFFFFFFFFFFFFFFFFFFFFFFFFFFFFFFFFFFFC CALLDATASIZE ADD SLT PUSH2 0x241 JUMPI CALLDATALOAD SWAP2 PUSH20 0xFFFFFFFFFFFFFFFFFFFFFFFFFFFFFFFFFFFFFFFF DUP4 AND DUP4 SUB PUSH2 0x1CB JUMPI POP PUSH2 0x2B7 PUSH2 0x2B2 PUSH2 0x343 SWAP4 PUSH2 0x2A8 PUSH2 0x170C JUMP JUMPDEST POP PUSH1 0x24 CALLDATALOAD SWAP1 PUSH2 0x1842 JUMP JUMPDEST PUSH2 0x175B JUMP JUMPDEST SWAP1 MLOAD SWAP2 DUP3 SWAP2 DUP3 SWAP2 SWAP1 SWAP2 PUSH2 0x140 DUP2 ADD SWAP3 DUP1 MLOAD ISZERO ISZERO DUP3 MSTORE PUSH20 0xFFFFFFFFFFFFFFFFFFFFFFFFFFFFFFFFFFFFFFFF PUSH1 0x20 DUP3 ADD MLOAD AND PUSH1 0x20 DUP4 ADD MSTORE PUSH1 0x40 DUP2 ADD MLOAD PUSH1 0x40 DUP4 ADD MSTORE PUSH1 0x60 DUP2 ADD MLOAD PUSH1 0x60 DUP4 ADD MSTORE PUSH1 0x80 DUP2 ADD MLOAD PUSH1 0x80 DUP4 ADD MSTORE PUSH1 0xA0 DUP2 ADD MLOAD PUSH1 0xA0 DUP4 ADD MSTORE PUSH1 0xC0 DUP2 ADD MLOAD ISZERO ISZERO PUSH1 0xC0 DUP4 ADD MSTORE PUSH1 0xE0 DUP2 ADD MLOAD PUSH1 0xE0 DUP4 ADD MSTORE PUSH2 0x100 DUP1 DUP3 ADD MLOAD SWAP1 DUP4 ADD MSTORE PUSH2 0x120 DUP1 SWAP2 ADD MLOAD ISZERO ISZERO SWAP2 ADD MSTORE JUMP JUMPDEST SUB SWAP1 RETURN JUMPDEST POP SWAP1 CALLVALUE PUSH2 0x3F6 JUMPI PUSH1 0x20 PUSH32 0xFFFFFFFFFFFFFFFFFFFFFFFFFFFFFFFFFFFFFFFFFFFFFFFFFFFFFFFFFFFFFFFC CALLDATASIZE ADD SLT PUSH2 0x3F6 JUMPI CALLDATALOAD PUSH20 0xFFFFFFFFFFFFFFFFFFFFFFFFFFFFFFFFFFFFFFFF DUP1 DUP3 AND DUP1 SWAP3 SUB PUSH2 0x241 JUMPI PUSH32 0xFFFFFFFFFFFFFFFFFFFFFFFF0000000000000000000000000000000000000000 DUP3 SWAP2 PUSH2 0x3CA DUP6 SLOAD SWAP2 DUP3 AND CALLER EQ PUSH2 0x1513 JUMP JUMPDEST AND OR DUP3 SSTORE CALLER PUSH32 0x8BE0079C531659141344CD1FD0A4F28419497F9722A3DAAFE3B4186F6B6457E0 DUP4 DUP1 LOG3 DUP1 RETURN JUMPDEST POP DUP1 REVERT JUMPDEST POP SWAP2 SWAP1 CALLVALUE PUSH2 0x241 JUMPI PUSH1 0x20 PUSH32 0xFFFFFFFFFFFFFFFFFFFFFFFFFFFFFFFFFFFFFFFFFFFFFFFFFFFFFFFFFFFFFFFC CALLDATASIZE ADD SLT PUSH2 0x241 JUMPI CALLDATALOAD DUP3 MSTORE PUSH1 0x2 PUSH1 0x20 MSTORE PUSH1 0xFF DUP2 DUP4 KECCAK256 SLOAD AND ISZERO PUSH2 0x3F6 JUMPI PUSH1 0xFF PUSH1 0x8 DUP3 DUP5 KECCAK256 ADD SLOAD AND PUSH2 0x3F6 JUMPI PUSH2 0x236 PUSH2 0x45E DUP3 PUSH1 0x20 SWAP5 KECCAK256 PUSH2 0x166B JUMP JUMPDEST PUSH2 0x18D9 JUMP JUMPDEST POP SWAP2 CALLVALUE PUSH2 0x241 JUMPI PUSH1 0x20 SWAP2 DUP3 PUSH32 0xFFFFFFFFFFFFFFFFFFFFFFFFFFFFFFFFFFFFFFFFFFFFFFFFFFFFFFFFFFFFFFFC CALLDATASIZE ADD SLT PUSH2 0x834 JUMPI DUP1 CALLDATALOAD SWAP1 DUP5 SLOAD SWAP3 PUSH20 0xFFFFFFFFFFFFFFFFFFFFFFFFFFFFFFFFFFFFFFFF SWAP1 DUP2 DUP6 AND CALLER EQ SWAP3 PUSH2 0x4C1 DUP5 PUSH2 0x1513 JUMP JUMPDEST DUP5 DUP9 MSTORE PUSH1 0x2 DUP8 MSTORE PUSH1 0xFF SWAP7 DUP8 DUP4 DUP11 KECCAK256 SLOAD AND ISZERO PUSH2 0x783 JUMPI DUP8 PUSH1 0x8 DUP5 DUP12 KECCAK256 ADD SLOAD AND PUSH2 0x783 JUMPI DUP3 DUP10 KECCAK256 SWAP8 DUP1 PUSH1 0x5 DUP11 ADD SLOAD AND ISZERO PUSH2 0x7B3 JUMPI PUSH2 0x4FF PUSH2 0x45E DUP11 PUSH2 0x166B JUMP JUMPDEST SWAP7 DUP8 PUSH2 0x558 JUMPI JUMPDEST DUP11 PUSH1 0x8 DUP12 PUSH2 0x528 PUSH2 0x520 PUSH1 0x6 DUP4 ADD SLOAD PUSH1 0x7 DUP5 ADD SLOAD SWAP1 PUSH2 0x16FF JUMP JUMPDEST PUSH1 0x3 SLOAD PUSH2 0x16FF JUMP JUMPDEST PUSH1 0x3 SSTORE ADD PUSH1 0x1 PUSH32 0xFFFFFFFFFFFFFFFFFFFFFFFFFFFFFFFFFFFFFFFFFFFFFFFFFFFFFFFFFFFFFF00 DUP3 SLOAD AND OR SWAP1 SSTORE DUP1 RETURN JUMPDEST DUP2 DUP10 PUSH1 0xA0 SHR AND ISZERO PUSH2 0x78B JUMPI PUSH32 0xFFFFFFFFFFFFFFFFFFFFFF00FFFFFFFFFFFFFFFFFFFFFFFFFFFFFFFFFFFFFFFF DUP1 SWAP10 AND DUP12 SSTORE DUP11 MSTORE PUSH1 0x2 DUP3 MSTORE DUP1 DUP5 DUP12 KECCAK256 SLOAD AND ISZERO PUSH2 0x787 JUMPI PUSH1 0x8 DUP5 DUP12 KECCAK256 ADD SLOAD AND PUSH2 0x783 JUMPI DUP3 DUP10 KECCAK256 SWAP3 DUP5 DUP5 SLOAD PUSH1 0x8 SHR AND SWAP6 DUP7 CALLER EQ SWAP1 DUP2 ISZERO PUSH2 0x77B JUMPI JUMPDEST POP ISZERO PUSH2 0x6D4 JUMPI DUP7 PUSH2 0x5D0 PUSH2 0x45E DUP7 PUSH2 0x166B JUMP JUMPDEST LT PUSH2 0x653 JUMPI POP POP POP SWAP3 PUSH1 0x8 SWAP6 SWAP5 SWAP3 PUSH2 0x63F SWAP3 PUSH1 0x7 PUSH21 0x10000000000000000000000000000000000000000 SWAP7 ADD PUSH2 0x607 DUP5 DUP3 SLOAD PUSH2 0x1578 JUMP JUMPDEST SWAP1 SSTORE PUSH2 0x615 DUP4 PUSH1 0x3 SLOAD PUSH2 0x16FF JUMP JUMPDEST PUSH1 0x3 SSTORE PUSH32 0x0 AND PUSH2 0x197F JUMP JUMPDEST DUP5 SLOAD AND OR DUP4 SSTORE SWAP1 CODESIZE DUP1 DUP1 DUP1 DUP1 DUP1 DUP1 DUP1 PUSH2 0x506 JUMP JUMPDEST PUSH1 0x84 SWAP4 POP MLOAD SWAP2 PUSH32 0x8C379A000000000000000000000000000000000000000000000000000000000 DUP4 MSTORE DUP3 ADD MSTORE PUSH1 0x3D PUSH1 0x24 DUP3 ADD MSTORE PUSH32 0x546F6B656E56657374696E673A2063616E6E6F742072656C6561736520746F6B PUSH1 0x44 DUP3 ADD MSTORE PUSH32 0x656E732C206E6F7420656E6F7567682076657374656420746F6B656E73000000 PUSH1 0x64 DUP3 ADD MSTORE REVERT JUMPDEST PUSH1 0xA4 SWAP4 POP MLOAD SWAP2 PUSH32 0x8C379A000000000000000000000000000000000000000000000000000000000 DUP4 MSTORE DUP3 ADD MSTORE PUSH1 0x42 PUSH1 0x24 DUP3 ADD MSTORE PUSH32 0x546F6B656E56657374696E673A206F6E6C792062656E65666963696172792061 PUSH1 0x44 DUP3 ADD MSTORE PUSH32 0x6E64206F776E65722063616E2072656C656173652076657374656420746F6B65 PUSH1 0x64 DUP3 ADD MSTORE PUSH32 0x6E73000000000000000000000000000000000000000000000000000000000000 PUSH1 0x84 DUP3 ADD MSTORE REVERT JUMPDEST SWAP1 POP CODESIZE PUSH2 0x5BD JUMP JUMPDEST DUP9 DUP1 REVERT JUMPDEST DUP10 DUP1 REVERT JUMPDEST DUP4 DUP6 MLOAD PUSH32 0x37ED32E800000000000000000000000000000000000000000000000000000000 DUP2 MSTORE REVERT JUMPDEST POP PUSH1 0x84 SWAP3 MLOAD SWAP2 PUSH32 0x8C379A000000000000000000000000000000000000000000000000000000000 DUP4 MSTORE DUP3 ADD MSTORE PUSH1 0x26 PUSH1 0x24 DUP3 ADD MSTORE PUSH32 0x546F6B656E56657374696E673A2076657374696E67206973206E6F7420726576 PUSH1 0x44 DUP3 ADD MSTORE PUSH32 0x6F6361626C650000000000000000000000000000000000000000000000000000 PUSH1 0x64 DUP3 ADD MSTORE REVERT JUMPDEST DUP4 DUP1 REVERT JUMPDEST POP DUP3 SWAP1 CALLVALUE PUSH2 0x1CB JUMPI PUSH1 0x20 PUSH32 0xFFFFFFFFFFFFFFFFFFFFFFFFFFFFFFFFFFFFFFFFFFFFFFFFFFFFFFFFFFFFFFFC CALLDATASIZE ADD SLT PUSH2 0x1CB JUMPI POP PUSH2 0x2B7 PUSH2 0x343 SWAP3 CALLDATALOAD PUSH2 0x175B JUMP JUMPDEST POP DUP3 CALLVALUE PUSH2 0x3F6 JUMPI DUP2 PUSH32 0xFFFFFFFFFFFFFFFFFFFFFFFFFFFFFFFFFFFFFFFFFFFFFFFFFFFFFFFFFFFFFFFC CALLDATASIZE ADD SLT PUSH2 0x3F6 JUMPI PUSH1 0x20 SWAP1 PUSH2 0x236 PUSH2 0x177C JUMP JUMPDEST POP DUP3 CALLVALUE PUSH2 0x3F6 JUMPI DUP2 PUSH32 0xFFFFFFFFFFFFFFFFFFFFFFFFFFFFFFFFFFFFFFFFFFFFFFFFFFFFFFFFFFFFFFFC CALLDATASIZE ADD SLT PUSH2 0x3F6 JUMPI PUSH20 0xFFFFFFFFFFFFFFFFFFFFFFFFFFFFFFFFFFFFFFFF PUSH1 0x20 SWAP3 SLOAD AND SWAP1 MLOAD SWAP1 DUP2 MSTORE RETURN JUMPDEST POP SWAP2 SWAP1 CALLVALUE PUSH2 0x241 JUMPI DUP2 PUSH32 0xFFFFFFFFFFFFFFFFFFFFFFFFFFFFFFFFFFFFFFFFFFFFFFFFFFFFFFFFFFFFFFFC CALLDATASIZE ADD SLT PUSH2 0x241 JUMPI CALLDATALOAD SWAP2 PUSH20 0xFFFFFFFFFFFFFFFFFFFFFFFFFFFFFFFFFFFFFFFF DUP4 AND DUP4 SUB PUSH2 0x1CB JUMPI POP PUSH2 0x236 PUSH1 0x20 SWAP3 PUSH1 0x24 CALLDATALOAD SWAP1 PUSH2 0x1842 JUMP JUMPDEST POP DUP3 SWAP1 CALLVALUE PUSH2 0x1CB JUMPI PUSH1 0x20 PUSH32 0xFFFFFFFFFFFFFFFFFFFFFFFFFFFFFFFFFFFFFFFFFFFFFFFFFFFFFFFFFFFFFFFC CALLDATASIZE ADD SLT PUSH2 0x1CB JUMPI DUP3 CALLDATALOAD PUSH20 0xFFFFFFFFFFFFFFFFFFFFFFFFFFFFFFFFFFFFFFFF DUP2 AND DUP1 DUP3 SUB PUSH2 0x241 JUMPI PUSH2 0x9BE PUSH2 0x170C JUMP JUMPDEST POP DUP3 MSTORE DUP4 PUSH1 0x20 MSTORE DUP3 DUP3 KECCAK256 SLOAD SWAP1 PUSH32 0xFFFFFFFFFFFFFFFFFFFFFFFFFFFFFFFFFFFFFFFFFFFFFFFFFFFFFFFFFFFFFFFF DUP3 ADD SWAP2 DUP3 GT PUSH2 0xA14 JUMPI SWAP3 DUP1 SWAP3 PUSH2 0xA07 PUSH2 0x2B7 SWAP4 PUSH2 0x343 SWAP7 PUSH2 0x1842 JUMP JUMPDEST DUP2 MSTORE PUSH1 0x2 PUSH1 0x20 MSTORE KECCAK256 PUSH2 0x166B JUMP JUMPDEST PUSH1 0x24 DUP4 PUSH1 0x11 DUP8 PUSH32 0x4E487B7100000000000000000000000000000000000000000000000000000000 DUP4 MSTORE MSTORE REVERT JUMPDEST POP SWAP1 CALLVALUE PUSH2 0x3F6 JUMPI DUP3 PUSH32 0xFFFFFFFFFFFFFFFFFFFFFFFFFFFFFFFFFFFFFFFFFFFFFFFFFFFFFFFFFFFFFFFC CALLDATASIZE ADD SLT PUSH2 0x3F6 JUMPI PUSH1 0x24 CALLDATALOAD DUP3 SLOAD PUSH1 0xFF DUP2 PUSH1 0xA0 SHR AND ISZERO PUSH2 0xC80 JUMPI PUSH32 0xFFFFFFFFFFFFFFFFFFFFFF00FFFFFFFFFFFFFFFFFFFFFFFFFFFFFFFFFFFFFFFF SWAP3 DUP4 DUP3 AND DUP6 SSTORE DUP1 CALLDATALOAD DUP6 MSTORE PUSH1 0x2 PUSH1 0x20 MSTORE PUSH1 0xFF DUP7 DUP7 KECCAK256 SLOAD AND ISZERO PUSH2 0x23D JUMPI PUSH1 0xFF PUSH1 0x8 DUP8 DUP8 KECCAK256 ADD SLOAD AND PUSH2 0x23D JUMPI DUP6 DUP6 KECCAK256 PUSH20 0xFFFFFFFFFFFFFFFFFFFFFFFFFFFFFFFFFFFFFFFF SWAP2 DUP3 DUP3 SLOAD PUSH1 0x8 SHR AND SWAP4 DUP4 DUP6 CALLER EQ SWAP2 DUP3 ISZERO PUSH2 0xC73 JUMPI JUMPDEST POP POP ISZERO PUSH2 0xBCA JUMPI DUP5 PUSH2 0xB0C PUSH2 0x45E DUP5 PUSH2 0x166B JUMP JUMPDEST LT PUSH2 0xB47 JUMPI POP SWAP2 PUSH21 0x10000000000000000000000000000000000000000 SWAP5 SWAP4 SWAP2 PUSH1 0x7 PUSH2 0xB3E SWAP5 ADD PUSH2 0x607 DUP5 DUP3 SLOAD PUSH2 0x1578 JUMP JUMPDEST DUP3 SLOAD AND OR DUP2 SSTORE DUP1 RETURN JUMPDEST PUSH1 0x84 SWAP1 PUSH1 0x20 DUP10 MLOAD SWAP2 PUSH32 0x8C379A000000000000000000000000000000000000000000000000000000000 DUP4 MSTORE DUP3 ADD MSTORE PUSH1 0x3D PUSH1 0x24 DUP3 ADD MSTORE PUSH32 0x546F6B656E56657374696E673A2063616E6E6F742072656C6561736520746F6B PUSH1 0x44 DUP3 ADD MSTORE PUSH32 0x656E732C206E6F7420656E6F7567682076657374656420746F6B656E73000000 PUSH1 0x64 DUP3 ADD MSTORE REVERT JUMPDEST PUSH1 0xA4 SWAP1 PUSH1 0x20 DUP10 MLOAD SWAP2 PUSH32 0x8C379A000000000000000000000000000000000000000000000000000000000 DUP4 MSTORE DUP3 ADD MSTORE PUSH1 0x42 PUSH1 0x24 DUP3 ADD MSTORE PUSH32 0x546F6B656E56657374696E673A206F6E6C792062656E65666963696172792061 PUSH1 0x44 DUP3 ADD MSTORE PUSH32 0x6E64206F776E65722063616E2072656C656173652076657374656420746F6B65 PUSH1 0x64 DUP3 ADD MSTORE PUSH32 0x6E73000000000000000000000000000000000000000000000000000000000000 PUSH1 0x84 DUP3 ADD MSTORE REVERT JUMPDEST SWAP1 SWAP2 POP AND CALLER EQ DUP4 CODESIZE PUSH2 0xAF8 JUMP JUMPDEST DUP3 DUP6 MLOAD PUSH32 0x37ED32E800000000000000000000000000000000000000000000000000000000 DUP2 MSTORE REVERT JUMPDEST POP SWAP2 SWAP1 CALLVALUE PUSH2 0x241 JUMPI PUSH1 0x20 PUSH32 0xFFFFFFFFFFFFFFFFFFFFFFFFFFFFFFFFFFFFFFFFFFFFFFFFFFFFFFFFFFFFFFFC CALLDATASIZE ADD SLT PUSH2 0x241 JUMPI DUP1 CALLDATALOAD PUSH20 0xFFFFFFFFFFFFFFFFFFFFFFFFFFFFFFFFFFFFFFFF DUP2 AND DUP1 SWAP2 SUB PUSH2 0x834 JUMPI SWAP3 DUP3 SWAP2 PUSH1 0x20 SWAP5 DUP3 MSTORE DUP5 MSTORE KECCAK256 SLOAD SWAP1 MLOAD SWAP1 DUP2 MSTORE RETURN JUMPDEST POP DUP3 CALLVALUE PUSH2 0x3F6 JUMPI DUP2 PUSH32 0xFFFFFFFFFFFFFFFFFFFFFFFFFFFFFFFFFFFFFFFFFFFFFFFFFFFFFFFFFFFFFFFC CALLDATASIZE ADD SLT PUSH2 0x3F6 JUMPI PUSH1 0x20 SWAP1 PUSH1 0x3 SLOAD SWAP1 MLOAD SWAP1 DUP2 MSTORE RETURN JUMPDEST POP SWAP1 CALLVALUE PUSH2 0x3F6 JUMPI PUSH1 0x20 PUSH32 0xFFFFFFFFFFFFFFFFFFFFFFFFFFFFFFFFFFFFFFFFFFFFFFFFFFFFFFFFFFFFFFFC CALLDATASIZE ADD SLT PUSH2 0x3F6 JUMPI DUP1 CALLDATALOAD DUP3 SLOAD PUSH1 0xFF DUP2 PUSH1 0xA0 SHR AND ISZERO PUSH2 0xC80 JUMPI PUSH32 0xFFFFFFFFFFFFFFFFFFFFFF00FFFFFFFFFFFFFFFFFFFFFFFFFFFFFFFFFFFFFFFF SWAP3 DUP4 DUP3 AND DUP6 SSTORE PUSH2 0xDD4 PUSH20 0xFFFFFFFFFFFFFFFFFFFFFFFFFFFFFFFFFFFFFFFF DUP1 SWAP4 AND CALLER EQ PUSH2 0x1513 JUMP JUMPDEST DUP3 PUSH2 0xDDD PUSH2 0x177C JUMP JUMPDEST LT PUSH2 0xE28 JUMPI POP PUSH21 0x10000000000000000000000000000000000000000 SWAP3 SWAP2 PUSH2 0xB3E SWAP2 CALLER SWAP1 PUSH32 0x0 AND PUSH2 0x197F JUMP JUMPDEST PUSH1 0x84 SWAP1 PUSH1 0x20 DUP8 MLOAD SWAP2 PUSH32 0x8C379A000000000000000000000000000000000000000000000000000000000 DUP4 MSTORE DUP3 ADD MSTORE PUSH1 0x2B PUSH1 0x24 DUP3 ADD MSTORE PUSH32 0x546F6B656E56657374696E673A206E6F7420656E6F7567682077697468647261 PUSH1 0x44 DUP3 ADD MSTORE PUSH32 0x7761626C652066756E6473000000000000000000000000000000000000000000 PUSH1 0x64 DUP3 ADD MSTORE REVERT JUMPDEST POP DUP3 CALLVALUE PUSH2 0x3F6 JUMPI DUP2 PUSH32 0xFFFFFFFFFFFFFFFFFFFFFFFFFFFFFFFFFFFFFFFFFFFFFFFFFFFFFFFFFFFFFFFC CALLDATASIZE ADD SLT PUSH2 0x3F6 JUMPI PUSH1 0x20 SWAP1 MLOAD PUSH20 0xFFFFFFFFFFFFFFFFFFFFFFFFFFFFFFFFFFFFFFFF PUSH32 0x0 AND DUP2 MSTORE RETURN JUMPDEST POP SWAP2 CALLVALUE PUSH2 0x241 JUMPI PUSH1 0xE0 PUSH32 0xFFFFFFFFFFFFFFFFFFFFFFFFFFFFFFFFFFFFFFFFFFFFFFFFFFFFFFFFFFFFFFFC CALLDATASIZE ADD SLT PUSH2 0x241 JUMPI PUSH20 0xFFFFFFFFFFFFFFFFFFFFFFFFFFFFFFFFFFFFFFFF SWAP2 DUP1 CALLDATALOAD DUP4 DUP2 AND SWAP1 DUP2 DUP2 SUB PUSH2 0x14D5 JUMPI PUSH1 0x24 SWAP1 DUP7 DUP3 CALLDATALOAD SWAP2 PUSH1 0x44 SWAP8 DUP9 CALLDATALOAD SWAP2 PUSH1 0x64 SWAP1 DUP2 CALLDATALOAD SWAP1 PUSH1 0x84 CALLDATALOAD SWAP3 PUSH1 0xA4 CALLDATALOAD SWAP5 DUP6 ISZERO ISZERO DUP1 SWAP7 SUB PUSH2 0x14D1 JUMPI PUSH2 0xFA4 SWAP1 PUSH1 0xC4 CALLDATALOAD SWAP9 SLOAD AND CALLER EQ PUSH2 0x1513 JUMP JUMPDEST DUP7 PUSH2 0xFAD PUSH2 0x177C JUMP JUMPDEST LT PUSH2 0x1429 JUMPI DUP3 ISZERO PUSH2 0x13A7 JUMPI DUP7 ISZERO PUSH2 0x134F JUMPI PUSH1 0x1 SWAP13 DUP14 DUP6 LT PUSH2 0x12CE JUMPI DUP7 DUP5 LT PUSH2 0x124D JUMPI POP POP SWAP3 DUP13 SWAP3 DUP12 SWAP3 DUP14 SWAP7 SWAP6 DUP12 DUP7 MSTORE DUP13 PUSH1 0x20 MSTORE DUP5 DUP7 KECCAK256 SLOAD PUSH2 0xFED SWAP2 PUSH2 0x1842 JUMP JUMPDEST SWAP9 PUSH2 0xFF9 DUP11 SWAP8 DUP3 PUSH2 0x1578 JUMP JUMPDEST SWAP8 DUP6 MLOAD SWAP9 PUSH2 0x1009 PUSH2 0x140 DUP12 PUSH2 0x15B4 JUMP JUMPDEST DUP2 DUP11 MSTORE DUP14 PUSH1 0x20 DUP12 ADD SWAP1 DUP2 MSTORE DUP8 DUP12 ADD SWAP2 DUP3 MSTORE PUSH1 0x60 DUP12 ADD SWAP4 DUP5 MSTORE PUSH1 0x80 DUP12 ADD SWAP5 DUP6 MSTORE PUSH1 0xA0 DUP12 ADD SWAP6 DUP7 MSTORE PUSH1 0xC0 DUP12 ADD SWAP7 DUP8 MSTORE PUSH1 0xE0 DUP12 ADD SWAP8 DUP13 DUP10 MSTORE PUSH2 0x100 DUP13 ADD SWAP10 DUP1 DUP12 MSTORE PUSH2 0x120 DUP14 ADD SWAP12 DUP2 DUP14 MSTORE DUP2 MSTORE PUSH1 0x2 PUSH1 0x20 MSTORE KECCAK256 SWAP11 MLOAD ISZERO ISZERO PUSH2 0x1091 SWAP1 DUP13 SWAP1 PUSH1 0xFF PUSH32 0xFFFFFFFFFFFFFFFFFFFFFFFFFFFFFFFFFFFFFFFFFFFFFFFFFFFFFFFFFFFFFF00 DUP4 SLOAD AND SWAP2 ISZERO ISZERO AND OR SWAP1 SSTORE JUMP JUMPDEST MLOAD DUP11 SLOAD SWAP1 PUSH1 0x8 SHL PUSH21 0xFFFFFFFFFFFFFFFFFFFFFFFFFFFFFFFFFFFFFFFF00 AND SWAP1 PUSH32 0xFFFFFFFFFFFFFFFFFFFFFF0000000000000000000000000000000000000000FF AND OR DUP11 SSTORE MLOAD SWAP1 DUP10 ADD SSTORE MLOAD PUSH1 0x2 DUP9 ADD SSTORE MLOAD PUSH1 0x3 DUP8 ADD SSTORE MLOAD DUP11 DUP7 ADD SSTORE MLOAD ISZERO ISZERO PUSH1 0x5 DUP6 ADD SWAP1 PUSH2 0x1127 SWAP2 SWAP1 PUSH1 0xFF PUSH32 0xFFFFFFFFFFFFFFFFFFFFFFFFFFFFFFFFFFFFFFFFFFFFFFFFFFFFFFFFFFFFFF00 DUP4 SLOAD AND SWAP2 ISZERO ISZERO AND OR SWAP1 SSTORE JUMP JUMPDEST MLOAD PUSH1 0x6 DUP5 ADD SSTORE MLOAD PUSH1 0x7 DUP4 ADD SSTORE MLOAD ISZERO ISZERO SWAP1 PUSH1 0x8 ADD SWAP1 PUSH2 0x116F SWAP2 SWAP1 PUSH1 0xFF PUSH32 0xFFFFFFFFFFFFFFFFFFFFFFFFFFFFFFFFFFFFFFFFFFFFFFFFFFFFFFFFFFFFFF00 DUP4 SLOAD AND SWAP2 ISZERO ISZERO AND OR SWAP1 SSTORE JUMP JUMPDEST PUSH1 0x3 SLOAD SWAP1 PUSH2 0x117C SWAP2 PUSH2 0x1578 JUMP JUMPDEST PUSH1 0x3 SSTORE DUP6 SLOAD PUSH9 0x10000000000000000 DUP2 LT ISZERO PUSH2 0x1222 JUMPI DUP1 DUP8 PUSH2 0x11A1 SWAP3 ADD DUP9 SSTORE DUP8 PUSH2 0x1624 JUMP JUMPDEST DUP2 SWAP3 SWAP2 SLOAD SWAP1 PUSH1 0x3 SHL PUSH32 0xFFFFFFFFFFFFFFFFFFFFFFFFFFFFFFFFFFFFFFFFFFFFFFFFFFFFFFFFFFFFFFFF DUP2 SHL SWAP3 DUP4 SWAP2 SHL AND SWAP2 NOT AND OR SWAP1 SSTORE DUP2 DUP7 MSTORE DUP3 PUSH1 0x20 MSTORE DUP4 DUP7 KECCAK256 SLOAD SWAP5 DUP6 ADD DUP1 SWAP6 GT PUSH2 0x11F8 JUMPI POP DUP5 MSTORE PUSH1 0x20 MSTORE DUP3 KECCAK256 SSTORE DUP1 RETURN JUMPDEST DUP6 PUSH1 0x11 DUP5 PUSH32 0x4E487B7100000000000000000000000000000000000000000000000000000000 DUP4 MSTORE MSTORE REVERT JUMPDEST DUP3 DUP9 PUSH1 0x41 DUP8 PUSH32 0x4E487B7100000000000000000000000000000000000000000000000000000000 DUP4 MSTORE MSTORE REVERT JUMPDEST DUP12 PUSH32 0x3D20636C69666600000000000000000000000000000000000000000000000000 DUP4 DUP16 PUSH1 0x84 SWAP5 PUSH1 0x27 DUP16 PUSH1 0x20 PUSH32 0x546F6B656E56657374696E673A206475726174696F6E206D757374206265203E SWAP5 MLOAD SWAP8 PUSH32 0x8C379A000000000000000000000000000000000000000000000000000000000 DUP10 MSTORE DUP9 ADD MSTORE DUP7 ADD MSTORE DUP5 ADD MSTORE DUP3 ADD MSTORE REVERT JUMPDEST DUP12 PUSH32 0x206D757374206265203E3D203100000000000000000000000000000000000000 DUP4 DUP16 PUSH1 0x84 SWAP5 PUSH1 0x2D DUP16 PUSH1 0x20 PUSH32 0x546F6B656E56657374696E673A20736C696365506572696F645365636F6E6473 SWAP5 MLOAD SWAP8 PUSH32 0x8C379A000000000000000000000000000000000000000000000000000000000 DUP10 MSTORE DUP9 ADD MSTORE DUP7 ADD MSTORE DUP5 ADD MSTORE DUP3 ADD MSTORE REVERT JUMPDEST DUP12 MLOAD PUSH32 0x8C379A000000000000000000000000000000000000000000000000000000000 DUP2 MSTORE PUSH1 0x20 DUP2 DUP14 ADD DUP2 SWAP1 MSTORE DUP2 DUP12 ADD MSTORE PUSH32 0x546F6B656E56657374696E673A20616D6F756E74206D757374206265203E2030 DUP2 DUP16 ADD MSTORE REVERT JUMPDEST DUP11 PUSH32 0x2030000000000000000000000000000000000000000000000000000000000000 PUSH1 0x84 SWAP3 DUP16 DUP16 SWAP1 PUSH1 0x22 DUP15 PUSH1 0x20 PUSH32 0x546F6B656E56657374696E673A206475726174696F6E206D757374206265203E SWAP5 MLOAD SWAP8 PUSH32 0x8C379A000000000000000000000000000000000000000000000000000000000 DUP10 MSTORE DUP9 ADD MSTORE DUP7 ADD MSTORE DUP5 ADD MSTORE DUP3 ADD MSTORE REVERT JUMPDEST DUP11 PUSH32 0x696E67207363686564756C652062656361757365206E6F742073756666696369 PUSH1 0xA4 SWAP3 DUP16 DUP16 SWAP1 PUSH1 0x4A DUP15 PUSH1 0x20 PUSH32 0x546F6B656E56657374696E673A2063616E6E6F74206372656174652076657374 SWAP5 MLOAD SWAP8 PUSH32 0x8C379A000000000000000000000000000000000000000000000000000000000 DUP10 MSTORE DUP9 ADD MSTORE DUP7 ADD MSTORE DUP5 ADD MSTORE DUP3 ADD MSTORE PUSH32 0x656E7420746F6B656E7300000000000000000000000000000000000000000000 PUSH1 0x84 DUP3 ADD MSTORE REVERT JUMPDEST DUP8 DUP1 REVERT JUMPDEST DUP6 DUP1 REVERT JUMPDEST SWAP1 POP CALLVALUE PUSH2 0x3F6 JUMPI DUP2 PUSH32 0xFFFFFFFFFFFFFFFFFFFFFFFFFFFFFFFFFFFFFFFFFFFFFFFFFFFFFFFFFFFFFFFC CALLDATASIZE ADD SLT PUSH2 0x3F6 JUMPI PUSH1 0x20 SWAP1 PUSH1 0x1 SLOAD DUP2 MSTORE RETURN JUMPDEST ISZERO PUSH2 0x151A JUMPI JUMP JUMPDEST PUSH1 0x64 PUSH1 0x40 MLOAD PUSH32 0x8C379A000000000000000000000000000000000000000000000000000000000 DUP2 MSTORE PUSH1 0x20 PUSH1 0x4 DUP3 ADD MSTORE PUSH1 0xC PUSH1 0x24 DUP3 ADD MSTORE PUSH32 0x554E415554484F52495A45440000000000000000000000000000000000000000 PUSH1 0x44 DUP3 ADD MSTORE REVERT JUMPDEST SWAP2 SWAP1 DUP3 ADD DUP1 SWAP3 GT PUSH2 0x1585 JUMPI JUMP JUMPDEST PUSH32 0x4E487B7100000000000000000000000000000000000000000000000000000000 PUSH1 0x0 MSTORE PUSH1 0x11 PUSH1 0x4 MSTORE PUSH1 0x24 PUSH1 0x0 REVERT JUMPDEST SWAP1 PUSH1 0x1F PUSH32 0xFFFFFFFFFFFFFFFFFFFFFFFFFFFFFFFFFFFFFFFFFFFFFFFFFFFFFFFFFFFFFFE0 SWAP2 ADD AND DUP2 ADD SWAP1 DUP2 LT PUSH8 0xFFFFFFFFFFFFFFFF DUP3 GT OR PUSH2 0x15F5 JUMPI PUSH1 0x40 MSTORE JUMP JUMPDEST PUSH32 0x4E487B7100000000000000000000000000000000000000000000000000000000 PUSH1 0x0 MSTORE PUSH1 0x41 PUSH1 0x4 MSTORE PUSH1 0x24 PUSH1 0x0 REVERT JUMPDEST DUP1 SLOAD DUP3 LT ISZERO PUSH2 0x163C JUMPI PUSH1 0x0 MSTORE PUSH1 0x20 PUSH1 0x0 KECCAK256 ADD SWAP1 PUSH1 0x0 SWAP1 JUMP JUMPDEST PUSH32 0x4E487B7100000000000000000000000000000000000000000000000000000000 PUSH1 0x0 MSTORE PUSH1 0x32 PUSH1 0x4 MSTORE PUSH1 0x24 PUSH1 0x0 REVERT JUMPDEST SWAP1 PUSH1 0x40 MLOAD PUSH2 0x167B PUSH2 0x140 DUP3 PUSH2 0x15B4 JUMP JUMPDEST PUSH2 0x120 PUSH1 0xFF PUSH1 0x8 DUP4 SWAP6 PUSH20 0xFFFFFFFFFFFFFFFFFFFFFFFFFFFFFFFFFFFFFFFF DUP2 SLOAD DUP5 DUP2 AND ISZERO ISZERO DUP8 MSTORE DUP4 SHR AND PUSH1 0x20 DUP7 ADD MSTORE PUSH1 0x1 DUP2 ADD SLOAD PUSH1 0x40 DUP7 ADD MSTORE PUSH1 0x2 DUP2 ADD SLOAD PUSH1 0x60 DUP7 ADD MSTORE PUSH1 0x3 DUP2 ADD SLOAD PUSH1 0x80 DUP7 ADD MSTORE PUSH1 0x4 DUP2 ADD SLOAD PUSH1 0xA0 DUP7 ADD MSTORE DUP3 PUSH1 0x5 DUP3 ADD SLOAD AND ISZERO ISZERO PUSH1 0xC0 DUP7 ADD MSTORE PUSH1 0x6 DUP2 ADD SLOAD PUSH1 0xE0 DUP7 ADD MSTORE PUSH1 0x7 DUP2 ADD SLOAD PUSH2 0x100 DUP7 ADD MSTORE ADD SLOAD AND ISZERO ISZERO SWAP2 ADD MSTORE JUMP JUMPDEST SWAP2 SWAP1 DUP3 SUB SWAP2 DUP3 GT PUSH2 0x1585 JUMPI JUMP JUMPDEST PUSH1 0x40 MLOAD SWAP1 PUSH2 0x171C PUSH2 0x140 DUP4 PUSH2 0x15B4 JUMP JUMPDEST DUP2 PUSH2 0x120 PUSH1 0x0 SWAP2 DUP3 DUP2 MSTORE DUP3 PUSH1 0x20 DUP3 ADD MSTORE DUP3 PUSH1 0x40 DUP3 ADD MSTORE DUP3 PUSH1 0x60 DUP3 ADD MSTORE DUP3 PUSH1 0x80 DUP3 ADD MSTORE DUP3 PUSH1 0xA0 DUP3 ADD MSTORE DUP3 PUSH1 0xC0 DUP3 ADD MSTORE DUP3 PUSH1 0xE0 DUP3 ADD MSTORE DUP3 PUSH2 0x100 DUP3 ADD MSTORE ADD MSTORE JUMP JUMPDEST PUSH2 0x1763 PUSH2 0x170C JUMP JUMPDEST POP PUSH1 0x0 MSTORE PUSH1 0x2 PUSH1 0x20 MSTORE PUSH2 0x1779 PUSH1 0x40 PUSH1 0x0 KECCAK256 PUSH2 0x166B JUMP JUMPDEST SWAP1 JUMP JUMPDEST PUSH1 0x40 MLOAD PUSH32 0x70A0823100000000000000000000000000000000000000000000000000000000 DUP2 MSTORE ADDRESS PUSH1 0x4 DUP3 ADD MSTORE PUSH1 0x20 DUP2 PUSH1 0x24 DUP2 PUSH20 0xFFFFFFFFFFFFFFFFFFFFFFFFFFFFFFFFFFFFFFFF PUSH32 0x0 AND GAS STATICCALL DUP1 ISZERO PUSH2 0x1836 JUMPI PUSH1 0x0 SWAP1 PUSH2 0x1803 JUMPI JUMPDEST PUSH2 0x1779 SWAP2 POP PUSH1 0x3 SLOAD SWAP1 PUSH2 0x16FF JUMP JUMPDEST PUSH1 0x20 DUP3 RETURNDATASIZE DUP3 GT PUSH2 0x182E JUMPI JUMPDEST DUP2 PUSH2 0x181B PUSH1 0x20 SWAP4 DUP4 PUSH2 0x15B4 JUMP JUMPDEST DUP2 ADD SUB SLT PUSH2 0x1CB JUMPI POP PUSH2 0x1779 SWAP1 MLOAD PUSH2 0x17F5 JUMP JUMPDEST RETURNDATASIZE SWAP2 POP PUSH2 0x180E JUMP JUMPDEST PUSH1 0x40 MLOAD RETURNDATASIZE PUSH1 0x0 DUP3 RETURNDATACOPY RETURNDATASIZE SWAP1 REVERT JUMPDEST SWAP1 PUSH1 0x40 MLOAD SWAP1 PUSH32 0xFFFFFFFFFFFFFFFFFFFFFFFFFFFFFFFFFFFFFFFF000000000000000000000000 PUSH1 0x20 DUP4 ADD SWAP4 PUSH1 0x60 SHL AND DUP4 MSTORE PUSH1 0x34 DUP3 ADD MSTORE PUSH1 0x34 DUP2 MSTORE PUSH2 0x1887 PUSH1 0x54 DUP3 PUSH2 0x15B4 JUMP JUMPDEST MLOAD SWAP1 KECCAK256 SWAP1 JUMP JUMPDEST DUP2 ISZERO PUSH2 0x1897 JUMPI DIV SWAP1 JUMP JUMPDEST PUSH32 0x4E487B7100000000000000000000000000000000000000000000000000000000 PUSH1 0x0 MSTORE PUSH1 0x12 PUSH1 0x4 MSTORE PUSH1 0x24 PUSH1 0x0 REVERT JUMPDEST DUP2 DUP2 MUL SWAP3 SWAP2 DUP2 ISZERO SWAP2 DUP5 DIV EQ OR ISZERO PUSH2 0x1585 JUMPI JUMP JUMPDEST PUSH1 0x40 DUP2 ADD MLOAD TIMESTAMP LT DUP1 ISZERO PUSH2 0x1971 JUMPI JUMPDEST ISZERO PUSH2 0x18F2 JUMPI POP PUSH1 0x0 SWAP1 JUMP JUMPDEST PUSH1 0x60 DUP2 ADD SWAP1 DUP2 MLOAD SWAP2 PUSH2 0x190A PUSH1 0x80 DUP4 ADD SWAP4 DUP5 MLOAD SWAP1 PUSH2 0x1578 JUMP JUMPDEST TIMESTAMP LT PUSH2 0x1927 JUMPI POP PUSH2 0x1779 SWAP2 POP PUSH2 0x100 PUSH1 0xE0 DUP3 ADD MLOAD SWAP2 ADD MLOAD SWAP1 PUSH2 0x16FF JUMP JUMPDEST PUSH2 0x1968 PUSH2 0x1779 SWAP4 PUSH2 0x1960 PUSH2 0x1956 PUSH2 0x1942 PUSH2 0x100 SWAP6 MLOAD TIMESTAMP PUSH2 0x16FF JUMP JUMPDEST PUSH2 0x1951 PUSH1 0xA0 DUP9 ADD MLOAD DUP1 SWAP3 PUSH2 0x188D JUMP JUMPDEST PUSH2 0x18C6 JUMP JUMPDEST PUSH1 0xE0 DUP7 ADD MLOAD PUSH2 0x18C6 JUMP JUMPDEST SWAP1 MLOAD SWAP1 PUSH2 0x188D JUMP JUMPDEST SWAP2 ADD MLOAD SWAP1 PUSH2 0x16FF JUMP JUMPDEST POP PUSH2 0x120 DUP2 ADD MLOAD ISZERO ISZERO PUSH2 0x18E7 JUMP JUMPDEST PUSH1 0x16 SWAP3 PUSH1 0x20 SWAP3 PUSH1 0x1A MSTORE PUSH1 0x3A MSTORE PUSH1 0x44 PUSH1 0x0 SWAP4 DUP5 DUP1 SWAP4 PUSH10 0xA9059CBB000000000000 DUP3 MSTORE GAS CALL RETURNDATASIZE ISZERO PUSH1 0x1 DUP4 MLOAD EQ OR AND ISZERO PUSH2 0x19B5 JUMPI PUSH1 0x3A MSTORE JUMP JUMPDEST PUSH4 0x90B8EC18 SWAP1 MSTORE PUSH1 0x4 PUSH1 0x1C REVERT INVALID LOG1 PUSH5 0x736F6C6343 STOP ADDMOD GT STOP EXP "},"methodIdentifiers":{"computeNextVestingScheduleIdForHolder(address)":"f7c469f0","computeReleasableAmount(bytes32)":"ea1bb3d5","computeVestingScheduleIdForAddressAndIndex(address,uint256)":"8af104da","createVestingSchedule(address,uint256,uint256,uint256,uint256,bool,uint256)":"17e289e9","getLastVestingScheduleForHolder(address)":"7e913dc6","getToken()":"21df0da7","getVestingIdAtIndex(uint256)":"f9079b37","getVestingSchedule(bytes32)":"9ef346b4","getVestingScheduleByAddressAndIndex(address,uint256)":"f51321d7","getVestingSchedulesCount()":"13083617","getVestingSchedulesCountByBeneficiary(address)":"5a7bb69a","getVestingSchedulesTotalAmount()":"48deb471","getWithdrawableAmount()":"90be10cc","owner()":"8da5cb5b","release(bytes32,uint256)":"66afd8ef","revoke(bytes32)":"b75c7dc6","transferOwnership(address)":"f2fde38b","withdraw(uint256)":"2e1a7d4d"}}}}}