{"contracts/cygnus-token/CygnusDAOReserves.sol":{"CygnusDAOReserves":{"abi":[{"inputs":[{"internalType":"contract IHangar18","name":"_hangar18","type":"address"},{"internalType":"address","name":"_daoPositions","type":"address"},{"internalType":"uint256","name":"_weight","type":"uint256"}],"stateMutability":"nonpayable","type":"constructor"},{"inputs":[{"internalType":"address","name":"admin","type":"address"},{"internalType":"address","name":"sender","type":"address"}],"name":"CygnusDAOReserves__MsgSenderNotAdmin","type":"error"},{"inputs":[{"internalType":"uint256","name":"shuttleId","type":"uint256"}],"name":"CygnusDAOReserves__ShuttleAlreadyInitialized","type":"error"},{"inputs":[{"internalType":"uint256","name":"shuttleId","type":"uint256"}],"name":"CygnusDAOReserves__ShuttleDoesntExist","type":"error"},{"inputs":[{"internalType":"uint256","name":"weight","type":"uint256"}],"name":"CygnusDAOReserves__WeightNotAllowed","type":"error"},{"inputs":[],"name":"ReentrantCall","type":"error"},{"anonymous":false,"inputs":[{"indexed":true,"internalType":"address","name":"vaultToken","type":"address"},{"indexed":true,"internalType":"address","name":"positions","type":"address"},{"indexed":false,"internalType":"uint256","name":"shares","type":"uint256"}],"name":"FundDAOReserves","type":"event"},{"anonymous":false,"inputs":[{"indexed":false,"internalType":"uint256","name":"totalShuttles","type":"uint256"},{"indexed":false,"internalType":"address","name":"positions","type":"address"},{"indexed":false,"internalType":"uint256","name":"shares","type":"uint256"}],"name":"FundDAOReservesAll","type":"event"},{"anonymous":false,"inputs":[{"indexed":true,"internalType":"address","name":"vaultToken","type":"address"},{"indexed":true,"internalType":"address","name":"positions","type":"address"},{"indexed":true,"internalType":"address","name":"vault","type":"address"},{"indexed":false,"internalType":"uint256","name":"shares","type":"uint256"},{"indexed":false,"internalType":"uint256","name":"assets","type":"uint256"}],"name":"FundX1Vault","type":"event"},{"anonymous":false,"inputs":[{"indexed":false,"internalType":"uint256","name":"totalShuttles","type":"uint256"},{"indexed":false,"internalType":"address","name":"vault","type":"address"},{"indexed":false,"internalType":"uint256","name":"shares","type":"uint256"},{"indexed":false,"internalType":"uint256","name":"assets","type":"uint256"}],"name":"FundX1VaultAll","type":"event"},{"anonymous":false,"inputs":[{"components":[{"internalType":"bool","name":"initialized","type":"bool"},{"internalType":"uint256","name":"shuttleId","type":"uint256"},{"internalType":"address","name":"borrowable","type":"address"},{"internalType":"address","name":"collateral","type":"address"}],"indexed":false,"internalType":"struct ICygnusDAOReserves.Shuttle","name":"shuttle","type":"tuple"}],"name":"NewShuttleAdded","type":"event"},{"anonymous":false,"inputs":[{"indexed":false,"internalType":"uint256","name":"oldWeight","type":"uint256"},{"indexed":false,"internalType":"uint256","name":"newWeight","type":"uint256"}],"name":"NewX1VaultWeight","type":"event"},{"inputs":[{"internalType":"uint256","name":"shuttleId","type":"uint256"}],"name":"addShuttle","outputs":[],"stateMutability":"nonpayable","type":"function"},{"inputs":[{"internalType":"uint256","name":"","type":"uint256"}],"name":"allShuttles","outputs":[{"internalType":"bool","name":"initialized","type":"bool"},{"internalType":"uint256","name":"shuttleId","type":"uint256"},{"internalType":"address","name":"borrowable","type":"address"},{"internalType":"address","name":"collateral","type":"address"}],"stateMutability":"view","type":"function"},{"inputs":[],"name":"allShuttlesLength","outputs":[{"internalType":"uint256","name":"","type":"uint256"}],"stateMutability":"view","type":"function"},{"inputs":[],"name":"cygnusX1Vault","outputs":[{"internalType":"address","name":"","type":"address"}],"stateMutability":"view","type":"function"},{"inputs":[],"name":"daoPositionsWeight","outputs":[{"internalType":"uint256","name":"","type":"uint256"}],"stateMutability":"view","type":"function"},{"inputs":[],"name":"daoReserves","outputs":[{"internalType":"address","name":"","type":"address"}],"stateMutability":"view","type":"function"},{"inputs":[{"internalType":"uint256","name":"shuttleId","type":"uint256"}],"name":"fundDAOPositionsCygLP","outputs":[{"internalType":"uint256","name":"shares","type":"uint256"}],"stateMutability":"nonpayable","type":"function"},{"inputs":[],"name":"fundDAOPositionsCygLPAll","outputs":[{"internalType":"uint256","name":"shares","type":"uint256"}],"stateMutability":"nonpayable","type":"function"},{"inputs":[{"internalType":"uint256","name":"shuttleId","type":"uint256"}],"name":"fundX1VaultUSD","outputs":[{"internalType":"uint256","name":"shares","type":"uint256"},{"internalType":"uint256","name":"assets","type":"uint256"}],"stateMutability":"nonpayable","type":"function"},{"inputs":[],"name":"fundX1VaultUSDAll","outputs":[{"internalType":"uint256","name":"shares","type":"uint256"},{"internalType":"uint256","name":"assets","type":"uint256"}],"stateMutability":"nonpayable","type":"function"},{"inputs":[{"internalType":"uint256","name":"","type":"uint256"}],"name":"getShuttle","outputs":[{"internalType":"bool","name":"initialized","type":"bool"},{"internalType":"uint256","name":"shuttleId","type":"uint256"},{"internalType":"address","name":"borrowable","type":"address"},{"internalType":"address","name":"collateral","type":"address"}],"stateMutability":"view","type":"function"},{"inputs":[],"name":"hangar18","outputs":[{"internalType":"contract IHangar18","name":"","type":"address"}],"stateMutability":"view","type":"function"},{"inputs":[{"internalType":"uint256","name":"weight","type":"uint256"}],"name":"setX1VaultWeight","outputs":[],"stateMutability":"nonpayable","type":"function"},{"inputs":[{"internalType":"address","name":"token","type":"address"},{"internalType":"bool","name":"toDAO","type":"bool"}],"name":"sweepToken","outputs":[],"stateMutability":"nonpayable","type":"function"},{"inputs":[],"name":"usd","outputs":[{"internalType":"address","name":"","type":"address"}],"stateMutability":"view","type":"function"},{"inputs":[],"name":"x1VaultWeight","outputs":[{"internalType":"uint256","name":"","type":"uint256"}],"stateMutability":"view","type":"function"}],"evm":{"bytecode":{"linkReferences":{},"object":"610100604090808252346200023d576060816200170c803803809162000026828562000242565b8339810103126200023d578051906001600160a01b0382168083036200023d57602084620000568285016200027c565b93015191600093600160ff19865416178555670de0b6b3a764000095868511620002255760805260c05285516318e7df3d60e31b81528281600481855afa9081156200021b579083918691620001d5575b5060e052865163d63a6ccd60e01b815291829060049082905afa918215620001cb57849262000189575b505060a0528060045582039182116200017557506003555161147a90816200029282396080518181816101cb01528181610502015261135b015260a05181818161023a015261115c015260c051818181610149015281816103900152818161041401528181610ce701528181610eab01528181610edf01528181611111015261118b015260e0518181816102a901528181610bf4015281816110ee015261113b0152f35b634e487b7160e01b81526011600452602490fd5b90809250813d8311620001c3575b620001a3818362000242565b81010312620001bf57620001b7906200027c565b3880620000d1565b8280fd5b503d62000197565b86513d86823e3d90fd5b82819392503d831162000213575b620001ef818362000242565b810103126200020f576004916200020784926200027c565b9092620000a7565b8480fd5b503d620001e3565b87513d87823e3d90fd5b8751635984873560e01b815260048101869052602490fd5b600080fd5b601f909101601f19168101906001600160401b038211908210176200026657604052565b634e487b7160e01b600052604160045260246000fd5b51906001600160a01b03821682036200023d5756fe608060408181526004908136101561001657600080fd5b600092833560e01c90816316dc4de614610dde575080631ad4c8c314610d485780634f4addd114610d0b5780635b068af814610c9c5780637aa7247314610b315780637ccf374b14610a445780638840cc1d146109b95780638f6c58e41461097d5780639bbbbb02146108aa578063a2aec2131461086d578063ada58d4314610467578063b7cd5cb4146102cd578063c73ef9e81461025e578063d63a6ccd146101ef578063e8a24e1d146101805763facf0941146100d457600080fd5b34610178577ffffffffffffffffffffffffffffffffffffffffffffffffffffffffffffffffc36011261017c573573ffffffffffffffffffffffffffffffffffffffff8116810361017c5760243580151581036101785761016e91610137611316565b610141308261144b565b9115610171577f000000000000000000000000000000000000000000000000000000000000000090611408565b80f35b3390611408565b8280fd5b5080fd5b83823461017c57817ffffffffffffffffffffffffffffffffffffffffffffffffffffffffffffffffc36011261017c576020905173ffffffffffffffffffffffffffffffffffffffff7f0000000000000000000000000000000000000000000000000000000000000000168152f35b83823461017c57817ffffffffffffffffffffffffffffffffffffffffffffffffffffffffffffffffc36011261017c576020905173ffffffffffffffffffffffffffffffffffffffff7f0000000000000000000000000000000000000000000000000000000000000000168152f35b83823461017c57817ffffffffffffffffffffffffffffffffffffffffffffffffffffffffffffffffc36011261017c576020905173ffffffffffffffffffffffffffffffffffffffff7f0000000000000000000000000000000000000000000000000000000000000000168152f35b5082903461017c57817ffffffffffffffffffffffffffffffffffffffffffffffffffffffffffffffffc36011261017c5781549260ff84161561044057507fffffffffffffffffffffffffffffffffffffffffffffffffffffffffffffff0080931682558160025461033f6002611236565b82905b8282106103c65750506020947f108a965b373d0981109fedaf413102492c0a2af803f7eaa69b7437399751db796060600193865190815273ffffffffffffffffffffffffffffffffffffffff7f000000000000000000000000000000000000000000000000000000000000000016898201528787820152a182541617905551908152f35b909460019073ffffffffffffffffffffffffffffffffffffffff60606103ec89866112dc565b51015116906103fb308361144b565b91828061040e575b505001950190610342565b610439917f000000000000000000000000000000000000000000000000000000000000000090611408565b8982610403565b90517f37ed32e8000000000000000000000000000000000000000000000000000000008152fd5b5082903461017c57602090817ffffffffffffffffffffffffffffffffffffffffffffffffffffffffffffffffc360112610178578335916104a6611316565b8284526001815260ff828520541661083e578151917f1ad4c8c3000000000000000000000000000000000000000000000000000000008352838684015273ffffffffffffffffffffffffffffffffffffffff9260a081602481877f0000000000000000000000000000000000000000000000000000000000000000165afa92831561083457868792889561079e575b501561076f57825195610549608088610f7b565b6001875281870190808252868589019416845286606089019616865288526001825261060987858a208151151560ff7fffffffffffffffffffffffffffffffffffffffffffffffffffffffffffffff0083541691161781556020820151600182015560028101906060600373ffffffffffffffffffffffffffffffffffffffff9283604087015116947fffffffffffffffffffffffff00000000000000000000000000000000000000009586825416179055019301511690825416179055565b600254680100000000000000008110156107435780600161062f92016002556002610f30565b6107185792869492608097926106fa8a7f93a552e45a0701b212caf117ace04723a5f4137663aaa23c07cdd9dc0db05a019b99978151151560ff7fffffffffffffffffffffffffffffffffffffffffffffffffffffffffffffff0083541691161781556020820151600182015560028101906060600373ffffffffffffffffffffffffffffffffffffffff9283604087015116947fffffffffffffffffffffffff00000000000000000000000000000000000000009586825416179055019301511690825416179055565b8451975115158852519087015251169084015251166060820152a180f35b602489808c7f4e487b7100000000000000000000000000000000000000000000000000000000825252fd5b60248960418c7f4e487b7100000000000000000000000000000000000000000000000000000000835252fd5b602488878551917f6a5f6b7c000000000000000000000000000000000000000000000000000000008352820152fd5b925050925060a0813d821161082c575b816107bb60a09383610f7b565b8101031261082857805192831515840361082457808201516affffffffffffffffffffff811603610824576107f18383016112f0565b936080610800606085016112f0565b9301516bffffffffffffffffffffffff8116036108205793919389610535565b8780fd5b8680fd5b8580fd5b3d91506107ae565b82513d88823e3d90fd5b602485848451917fde9c1a69000000000000000000000000000000000000000000000000000000008352820152fd5b83823461017c57817ffffffffffffffffffffffffffffffffffffffffffffffffffffffffffffffffc36011261017c576020906003549051908152f35b50823461097a5760207ffffffffffffffffffffffffffffffffffffffffffffffffffffffffffffffffc36011261097a5780549060ff82161561095257600190847fffffffffffffffffffffffffffffffffffffffffffffffffffffffffffffff0080941682553581528160205261093d73ffffffffffffffffffffffffffffffffffffffff6002868420015416610feb565b92909382541617905582519182526020820152f35b5050517f37ed32e8000000000000000000000000000000000000000000000000000000008152fd5b80fd5b50903461017857827ffffffffffffffffffffffffffffffffffffffffffffffffffffffffffffffffc3601126101785760209250549051908152f35b5090346101785760207ffffffffffffffffffffffffffffffffffffffffffffffffffffffffffffffffc3601126101785735825260016020818152928290208054918101546002820154600390920154935160ff909316151583529382019390935273ffffffffffffffffffffffffffffffffffffffff928316604082015291166060820152608090f35b5082903461017c5760207ffffffffffffffffffffffffffffffffffffffffffffffffffffffffffffffffc36011261017c578235610a80611316565b670de0b6b3a764000090818111610b0257845491818655818103908111610ad6577fcdf0e2499be1cf2f4acff51a3c1b2e66af5d59c4d540bb5a36d9800d254a5c8094955060035582519182526020820152a180f35b6024856011887f4e487b7100000000000000000000000000000000000000000000000000000000835252fd5b846024918451917f59848735000000000000000000000000000000000000000000000000000000008352820152fd5b5091903461017c57817ffffffffffffffffffffffffffffffffffffffffffffffffffffffffffffffffc36011261017c5781549060ff821615610c7557507fffffffffffffffffffffffffffffffffffffffffffffffffffffffffffffff008091168255818091600254610ba56002611236565b83905b828210610c37575050907fe29bc683c6472cac8ea38dbefc8cf71cf2e047d9cf51d0044f070025c1fc9d266080600193885190815273ffffffffffffffffffffffffffffffffffffffff7f00000000000000000000000000000000000000000000000000000000000000001660208201528789820152866060820152a182541617905582519182526020820152f35b909495600190610c6973ffffffffffffffffffffffffffffffffffffffff8a610c608a876112dc565b51015116610feb565b91019701950190610ba8565b83517f37ed32e8000000000000000000000000000000000000000000000000000000008152fd5b83823461017c57817ffffffffffffffffffffffffffffffffffffffffffffffffffffffffffffffffc36011261017c576020905173ffffffffffffffffffffffffffffffffffffffff7f0000000000000000000000000000000000000000000000000000000000000000168152f35b83823461017c57817ffffffffffffffffffffffffffffffffffffffffffffffffffffffffffffffffc36011261017c576020906002549051908152f35b5091903461017c5760207ffffffffffffffffffffffffffffffffffffffffffffffffffffffffffffffffc36011261017c57359060025482101561097a5750610d92906002610f30565b50805460018201546002830154600390930154935160ff90921615158252602082015273ffffffffffffffffffffffffffffffffffffffff918216604082015291166060820152608090f35b929390503461097a5760207ffffffffffffffffffffffffffffffffffffffffffffffffffffffffffffffffc36011261097a5780549260ff841615610f0957506020937fffffffffffffffffffffffffffffffffffffffffffffffffffffffffffffff00809416825535815260018452600173ffffffffffffffffffffffffffffffffffffffff9384600385852001541694610e7a308761144b565b9586610ed9575b7fb39a15ac1082534c5f6687437f0fd4ba55c34a96fd7231c683045c7d9f7bd115888751938985527f00000000000000000000000000000000000000000000000000000000000000001693a382541617905551908152f35b610f04877f000000000000000000000000000000000000000000000000000000000000000083611408565b610e81565b807f37ed32e800000000000000000000000000000000000000000000000000000000869252fd5b8054821015610f4c5760005260206000209060021b0190600090565b7f4e487b7100000000000000000000000000000000000000000000000000000000600052603260045260246000fd5b90601f7fffffffffffffffffffffffffffffffffffffffffffffffffffffffffffffffe0910116810190811067ffffffffffffffff821117610fbc57604052565b7f4e487b7100000000000000000000000000000000000000000000000000000000600052604160045260246000fd5b90610ff6308361144b565b90600454807fffffffffffffffffffffffffffffffffffffffffffffffffffffffffffffffff048311810261122857670de0b6b3a7640000908302048083038381116111f957809473ffffffffffffffffffffffffffffffffffffffff92838216916040517fba0876520000000000000000000000000000000000000000000000000000000081528260048201523060248201523060448201526020816064816000885af19283156111ed5785916000946111b7575b50839803611185575b505080611135575b60405192835260208301527fade3bf209346b6d1156694638e3b8e94ecfddd117c76c53c26ea59898129a1c56040847f000000000000000000000000000000000000000000000000000000000000000016947f00000000000000000000000000000000000000000000000000000000000000001693a4565b611180817f00000000000000000000000000000000000000000000000000000000000000007f0000000000000000000000000000000000000000000000000000000000000000611408565b6110bd565b6111b0917f000000000000000000000000000000000000000000000000000000000000000090611408565b38836110b5565b9150926020823d82116111e5575b816111d260209383610f7b565b8101031261097a575084905192386110ac565b3d91506111c5565b6040513d6000823e3d90fd5b7f4e487b7100000000000000000000000000000000000000000000000000000000600052601160045260246000fd5b63bac65e5b6000526004601cfd5b90815467ffffffffffffffff8111610fbc57604092835193602090611260828560051b0187610f7b565b8386526000928352818320908287015b85851061127f57505050505050565b6004846001928451611292608082610f7b565b60ff87541615158152848701548382015273ffffffffffffffffffffffffffffffffffffffff80600289015416878301526003880154166060820152815201930194019391611270565b8051821015610f4c5760209160051b010190565b519073ffffffffffffffffffffffffffffffffffffffff8216820361131157565b600080fd5b6040517ff851a44000000000000000000000000000000000000000000000000000000000815273ffffffffffffffffffffffffffffffffffffffff90602081600481857f0000000000000000000000000000000000000000000000000000000000000000165afa9081156111ed576000916113cf575b50168033036113985750565b604490604051907f30a76f5f0000000000000000000000000000000000000000000000000000000082526004820152336024820152fd5b906020823d8211611400575b816113e860209383610f7b565b8101031261097a57506113fa906112f0565b3861138c565b3d91506113db565b601692602092601a52603a52604460009384809369a9059cbb00000000000082525af13d15600183511417161561143e57603a52565b6390b8ec1890526004601cfd5b6024601c6020939284936370a0823160005284525afa601f3d1116602051029056fea164736f6c6343000811000a","opcodes":"PUSH2 0x100 PUSH1 0x40 SWAP1 DUP1 DUP3 MSTORE CALLVALUE PUSH3 0x23D JUMPI PUSH1 0x60 DUP2 PUSH3 0x170C DUP1 CODESIZE SUB DUP1 SWAP2 PUSH3 0x26 DUP3 DUP6 PUSH3 0x242 JUMP JUMPDEST DUP4 CODECOPY DUP2 ADD SUB SLT PUSH3 0x23D JUMPI DUP1 MLOAD SWAP1 PUSH1 0x1 PUSH1 0x1 PUSH1 0xA0 SHL SUB DUP3 AND DUP1 DUP4 SUB PUSH3 0x23D JUMPI PUSH1 0x20 DUP5 PUSH3 0x56 DUP3 DUP6 ADD PUSH3 0x27C JUMP JUMPDEST SWAP4 ADD MLOAD SWAP2 PUSH1 0x0 SWAP4 PUSH1 0x1 PUSH1 0xFF NOT DUP7 SLOAD AND OR DUP6 SSTORE PUSH8 0xDE0B6B3A7640000 SWAP6 DUP7 DUP6 GT PUSH3 0x225 JUMPI PUSH1 0x80 MSTORE PUSH1 0xC0 MSTORE DUP6 MLOAD PUSH4 0x18E7DF3D PUSH1 0xE3 SHL DUP2 MSTORE DUP3 DUP2 PUSH1 0x4 DUP2 DUP6 GAS STATICCALL SWAP1 DUP2 ISZERO PUSH3 0x21B JUMPI SWAP1 DUP4 SWAP2 DUP7 SWAP2 PUSH3 0x1D5 JUMPI JUMPDEST POP PUSH1 0xE0 MSTORE DUP7 MLOAD PUSH4 0xD63A6CCD PUSH1 0xE0 SHL DUP2 MSTORE SWAP2 DUP3 SWAP1 PUSH1 0x4 SWAP1 DUP3 SWAP1 GAS STATICCALL SWAP2 DUP3 ISZERO PUSH3 0x1CB JUMPI DUP5 SWAP3 PUSH3 0x189 JUMPI JUMPDEST POP POP PUSH1 0xA0 MSTORE DUP1 PUSH1 0x4 SSTORE DUP3 SUB SWAP2 DUP3 GT PUSH3 0x175 JUMPI POP PUSH1 0x3 SSTORE MLOAD PUSH2 0x147A SWAP1 DUP2 PUSH3 0x292 DUP3 CODECOPY PUSH1 0x80 MLOAD DUP2 DUP2 DUP2 PUSH2 0x1CB ADD MSTORE DUP2 DUP2 PUSH2 0x502 ADD MSTORE PUSH2 0x135B ADD MSTORE PUSH1 0xA0 MLOAD DUP2 DUP2 DUP2 PUSH2 0x23A ADD MSTORE PUSH2 0x115C ADD MSTORE PUSH1 0xC0 MLOAD DUP2 DUP2 DUP2 PUSH2 0x149 ADD MSTORE DUP2 DUP2 PUSH2 0x390 ADD MSTORE DUP2 DUP2 PUSH2 0x414 ADD MSTORE DUP2 DUP2 PUSH2 0xCE7 ADD MSTORE DUP2 DUP2 PUSH2 0xEAB ADD MSTORE DUP2 DUP2 PUSH2 0xEDF ADD MSTORE DUP2 DUP2 PUSH2 0x1111 ADD MSTORE PUSH2 0x118B ADD MSTORE PUSH1 0xE0 MLOAD DUP2 DUP2 DUP2 PUSH2 0x2A9 ADD MSTORE DUP2 DUP2 PUSH2 0xBF4 ADD MSTORE DUP2 DUP2 PUSH2 0x10EE ADD MSTORE PUSH2 0x113B ADD MSTORE RETURN JUMPDEST PUSH4 0x4E487B71 PUSH1 0xE0 SHL DUP2 MSTORE PUSH1 0x11 PUSH1 0x4 MSTORE PUSH1 0x24 SWAP1 REVERT JUMPDEST SWAP1 DUP1 SWAP3 POP DUP2 RETURNDATASIZE DUP4 GT PUSH3 0x1C3 JUMPI JUMPDEST PUSH3 0x1A3 DUP2 DUP4 PUSH3 0x242 JUMP JUMPDEST DUP2 ADD SUB SLT PUSH3 0x1BF JUMPI PUSH3 0x1B7 SWAP1 PUSH3 0x27C JUMP JUMPDEST CODESIZE DUP1 PUSH3 0xD1 JUMP JUMPDEST DUP3 DUP1 REVERT JUMPDEST POP RETURNDATASIZE PUSH3 0x197 JUMP JUMPDEST DUP7 MLOAD RETURNDATASIZE DUP7 DUP3 RETURNDATACOPY RETURNDATASIZE SWAP1 REVERT JUMPDEST DUP3 DUP2 SWAP4 SWAP3 POP RETURNDATASIZE DUP4 GT PUSH3 0x213 JUMPI JUMPDEST PUSH3 0x1EF DUP2 DUP4 PUSH3 0x242 JUMP JUMPDEST DUP2 ADD SUB SLT PUSH3 0x20F JUMPI PUSH1 0x4 SWAP2 PUSH3 0x207 DUP5 SWAP3 PUSH3 0x27C JUMP JUMPDEST SWAP1 SWAP3 PUSH3 0xA7 JUMP JUMPDEST DUP5 DUP1 REVERT JUMPDEST POP RETURNDATASIZE PUSH3 0x1E3 JUMP JUMPDEST DUP8 MLOAD RETURNDATASIZE DUP8 DUP3 RETURNDATACOPY RETURNDATASIZE SWAP1 REVERT JUMPDEST DUP8 MLOAD PUSH4 0x59848735 PUSH1 0xE0 SHL DUP2 MSTORE PUSH1 0x4 DUP2 ADD DUP7 SWAP1 MSTORE PUSH1 0x24 SWAP1 REVERT JUMPDEST PUSH1 0x0 DUP1 REVERT JUMPDEST PUSH1 0x1F SWAP1 SWAP2 ADD PUSH1 0x1F NOT AND DUP2 ADD SWAP1 PUSH1 0x1 PUSH1 0x1 PUSH1 0x40 SHL SUB DUP3 GT SWAP1 DUP3 LT OR PUSH3 0x266 JUMPI PUSH1 0x40 MSTORE JUMP JUMPDEST PUSH4 0x4E487B71 PUSH1 0xE0 SHL PUSH1 0x0 MSTORE PUSH1 0x41 PUSH1 0x4 MSTORE PUSH1 0x24 PUSH1 0x0 REVERT JUMPDEST MLOAD SWAP1 PUSH1 0x1 PUSH1 0x1 PUSH1 0xA0 SHL SUB DUP3 AND DUP3 SUB PUSH3 0x23D JUMPI JUMP INVALID PUSH1 0x80 PUSH1 0x40 DUP2 DUP2 MSTORE PUSH1 0x4 SWAP1 DUP2 CALLDATASIZE LT ISZERO PUSH2 0x16 JUMPI PUSH1 0x0 DUP1 REVERT JUMPDEST PUSH1 0x0 SWAP3 DUP4 CALLDATALOAD PUSH1 0xE0 SHR SWAP1 DUP2 PUSH4 0x16DC4DE6 EQ PUSH2 0xDDE JUMPI POP DUP1 PUSH4 0x1AD4C8C3 EQ PUSH2 0xD48 JUMPI DUP1 PUSH4 0x4F4ADDD1 EQ PUSH2 0xD0B JUMPI DUP1 PUSH4 0x5B068AF8 EQ PUSH2 0xC9C JUMPI DUP1 PUSH4 0x7AA72473 EQ PUSH2 0xB31 JUMPI DUP1 PUSH4 0x7CCF374B EQ PUSH2 0xA44 JUMPI DUP1 PUSH4 0x8840CC1D EQ PUSH2 0x9B9 JUMPI DUP1 PUSH4 0x8F6C58E4 EQ PUSH2 0x97D JUMPI DUP1 PUSH4 0x9BBBBB02 EQ PUSH2 0x8AA JUMPI DUP1 PUSH4 0xA2AEC213 EQ PUSH2 0x86D JUMPI DUP1 PUSH4 0xADA58D43 EQ PUSH2 0x467 JUMPI DUP1 PUSH4 0xB7CD5CB4 EQ PUSH2 0x2CD JUMPI DUP1 PUSH4 0xC73EF9E8 EQ PUSH2 0x25E JUMPI DUP1 PUSH4 0xD63A6CCD EQ PUSH2 0x1EF JUMPI DUP1 PUSH4 0xE8A24E1D EQ PUSH2 0x180 JUMPI PUSH4 0xFACF0941 EQ PUSH2 0xD4 JUMPI PUSH1 0x0 DUP1 REVERT JUMPDEST CALLVALUE PUSH2 0x178 JUMPI PUSH32 0xFFFFFFFFFFFFFFFFFFFFFFFFFFFFFFFFFFFFFFFFFFFFFFFFFFFFFFFFFFFFFFFC CALLDATASIZE ADD SLT PUSH2 0x17C JUMPI CALLDATALOAD PUSH20 0xFFFFFFFFFFFFFFFFFFFFFFFFFFFFFFFFFFFFFFFF DUP2 AND DUP2 SUB PUSH2 0x17C JUMPI PUSH1 0x24 CALLDATALOAD DUP1 ISZERO ISZERO DUP2 SUB PUSH2 0x178 JUMPI PUSH2 0x16E SWAP2 PUSH2 0x137 PUSH2 0x1316 JUMP JUMPDEST PUSH2 0x141 ADDRESS DUP3 PUSH2 0x144B JUMP JUMPDEST SWAP2 ISZERO PUSH2 0x171 JUMPI PUSH32 0x0 SWAP1 PUSH2 0x1408 JUMP JUMPDEST DUP1 RETURN JUMPDEST CALLER SWAP1 PUSH2 0x1408 JUMP JUMPDEST DUP3 DUP1 REVERT JUMPDEST POP DUP1 REVERT JUMPDEST DUP4 DUP3 CALLVALUE PUSH2 0x17C JUMPI DUP2 PUSH32 0xFFFFFFFFFFFFFFFFFFFFFFFFFFFFFFFFFFFFFFFFFFFFFFFFFFFFFFFFFFFFFFFC CALLDATASIZE ADD SLT PUSH2 0x17C JUMPI PUSH1 0x20 SWAP1 MLOAD PUSH20 0xFFFFFFFFFFFFFFFFFFFFFFFFFFFFFFFFFFFFFFFF PUSH32 0x0 AND DUP2 MSTORE RETURN JUMPDEST DUP4 DUP3 CALLVALUE PUSH2 0x17C JUMPI DUP2 PUSH32 0xFFFFFFFFFFFFFFFFFFFFFFFFFFFFFFFFFFFFFFFFFFFFFFFFFFFFFFFFFFFFFFFC CALLDATASIZE ADD SLT PUSH2 0x17C JUMPI PUSH1 0x20 SWAP1 MLOAD PUSH20 0xFFFFFFFFFFFFFFFFFFFFFFFFFFFFFFFFFFFFFFFF PUSH32 0x0 AND DUP2 MSTORE RETURN JUMPDEST DUP4 DUP3 CALLVALUE PUSH2 0x17C JUMPI DUP2 PUSH32 0xFFFFFFFFFFFFFFFFFFFFFFFFFFFFFFFFFFFFFFFFFFFFFFFFFFFFFFFFFFFFFFFC CALLDATASIZE ADD SLT PUSH2 0x17C JUMPI PUSH1 0x20 SWAP1 MLOAD PUSH20 0xFFFFFFFFFFFFFFFFFFFFFFFFFFFFFFFFFFFFFFFF PUSH32 0x0 AND DUP2 MSTORE RETURN JUMPDEST POP DUP3 SWAP1 CALLVALUE PUSH2 0x17C JUMPI DUP2 PUSH32 0xFFFFFFFFFFFFFFFFFFFFFFFFFFFFFFFFFFFFFFFFFFFFFFFFFFFFFFFFFFFFFFFC CALLDATASIZE ADD SLT PUSH2 0x17C JUMPI DUP2 SLOAD SWAP3 PUSH1 0xFF DUP5 AND ISZERO PUSH2 0x440 JUMPI POP PUSH32 0xFFFFFFFFFFFFFFFFFFFFFFFFFFFFFFFFFFFFFFFFFFFFFFFFFFFFFFFFFFFFFF00 DUP1 SWAP4 AND DUP3 SSTORE DUP2 PUSH1 0x2 SLOAD PUSH2 0x33F PUSH1 0x2 PUSH2 0x1236 JUMP JUMPDEST DUP3 SWAP1 JUMPDEST DUP3 DUP3 LT PUSH2 0x3C6 JUMPI POP POP PUSH1 0x20 SWAP5 PUSH32 0x108A965B373D0981109FEDAF413102492C0A2AF803F7EAA69B7437399751DB79 PUSH1 0x60 PUSH1 0x1 SWAP4 DUP7 MLOAD SWAP1 DUP2 MSTORE PUSH20 0xFFFFFFFFFFFFFFFFFFFFFFFFFFFFFFFFFFFFFFFF PUSH32 0x0 AND DUP10 DUP3 ADD MSTORE DUP8 DUP8 DUP3 ADD MSTORE LOG1 DUP3 SLOAD AND OR SWAP1 SSTORE MLOAD SWAP1 DUP2 MSTORE RETURN JUMPDEST SWAP1 SWAP5 PUSH1 0x1 SWAP1 PUSH20 0xFFFFFFFFFFFFFFFFFFFFFFFFFFFFFFFFFFFFFFFF PUSH1 0x60 PUSH2 0x3EC DUP10 DUP7 PUSH2 0x12DC JUMP JUMPDEST MLOAD ADD MLOAD AND SWAP1 PUSH2 0x3FB ADDRESS DUP4 PUSH2 0x144B JUMP JUMPDEST SWAP2 DUP3 DUP1 PUSH2 0x40E JUMPI JUMPDEST POP POP ADD SWAP6 ADD SWAP1 PUSH2 0x342 JUMP JUMPDEST PUSH2 0x439 SWAP2 PUSH32 0x0 SWAP1 PUSH2 0x1408 JUMP JUMPDEST DUP10 DUP3 PUSH2 0x403 JUMP JUMPDEST SWAP1 MLOAD PUSH32 0x37ED32E800000000000000000000000000000000000000000000000000000000 DUP2 MSTORE REVERT JUMPDEST POP DUP3 SWAP1 CALLVALUE PUSH2 0x17C JUMPI PUSH1 0x20 SWAP1 DUP2 PUSH32 0xFFFFFFFFFFFFFFFFFFFFFFFFFFFFFFFFFFFFFFFFFFFFFFFFFFFFFFFFFFFFFFFC CALLDATASIZE ADD SLT PUSH2 0x178 JUMPI DUP4 CALLDATALOAD SWAP2 PUSH2 0x4A6 PUSH2 0x1316 JUMP JUMPDEST DUP3 DUP5 MSTORE PUSH1 0x1 DUP2 MSTORE PUSH1 0xFF DUP3 DUP6 KECCAK256 SLOAD AND PUSH2 0x83E JUMPI DUP2 MLOAD SWAP2 PUSH32 0x1AD4C8C300000000000000000000000000000000000000000000000000000000 DUP4 MSTORE DUP4 DUP7 DUP5 ADD MSTORE PUSH20 0xFFFFFFFFFFFFFFFFFFFFFFFFFFFFFFFFFFFFFFFF SWAP3 PUSH1 0xA0 DUP2 PUSH1 0x24 DUP2 DUP8 PUSH32 0x0 AND GAS STATICCALL SWAP3 DUP4 ISZERO PUSH2 0x834 JUMPI DUP7 DUP8 SWAP3 DUP9 SWAP6 PUSH2 0x79E JUMPI JUMPDEST POP ISZERO PUSH2 0x76F JUMPI DUP3 MLOAD SWAP6 PUSH2 0x549 PUSH1 0x80 DUP9 PUSH2 0xF7B JUMP JUMPDEST PUSH1 0x1 DUP8 MSTORE DUP2 DUP8 ADD SWAP1 DUP1 DUP3 MSTORE DUP7 DUP6 DUP10 ADD SWAP5 AND DUP5 MSTORE DUP7 PUSH1 0x60 DUP10 ADD SWAP7 AND DUP7 MSTORE DUP9 MSTORE PUSH1 0x1 DUP3 MSTORE PUSH2 0x609 DUP8 DUP6 DUP11 KECCAK256 DUP2 MLOAD ISZERO ISZERO PUSH1 0xFF PUSH32 0xFFFFFFFFFFFFFFFFFFFFFFFFFFFFFFFFFFFFFFFFFFFFFFFFFFFFFFFFFFFFFF00 DUP4 SLOAD AND SWAP2 AND OR DUP2 SSTORE PUSH1 0x20 DUP3 ADD MLOAD PUSH1 0x1 DUP3 ADD SSTORE PUSH1 0x2 DUP2 ADD SWAP1 PUSH1 0x60 PUSH1 0x3 PUSH20 0xFFFFFFFFFFFFFFFFFFFFFFFFFFFFFFFFFFFFFFFF SWAP3 DUP4 PUSH1 0x40 DUP8 ADD MLOAD AND SWAP5 PUSH32 0xFFFFFFFFFFFFFFFFFFFFFFFF0000000000000000000000000000000000000000 SWAP6 DUP7 DUP3 SLOAD AND OR SWAP1 SSTORE ADD SWAP4 ADD MLOAD AND SWAP1 DUP3 SLOAD AND OR SWAP1 SSTORE JUMP JUMPDEST PUSH1 0x2 SLOAD PUSH9 0x10000000000000000 DUP2 LT ISZERO PUSH2 0x743 JUMPI DUP1 PUSH1 0x1 PUSH2 0x62F SWAP3 ADD PUSH1 0x2 SSTORE PUSH1 0x2 PUSH2 0xF30 JUMP JUMPDEST PUSH2 0x718 JUMPI SWAP3 DUP7 SWAP5 SWAP3 PUSH1 0x80 SWAP8 SWAP3 PUSH2 0x6FA DUP11 PUSH32 0x93A552E45A0701B212CAF117ACE04723A5F4137663AAA23C07CDD9DC0DB05A01 SWAP12 SWAP10 SWAP8 DUP2 MLOAD ISZERO ISZERO PUSH1 0xFF PUSH32 0xFFFFFFFFFFFFFFFFFFFFFFFFFFFFFFFFFFFFFFFFFFFFFFFFFFFFFFFFFFFFFF00 DUP4 SLOAD AND SWAP2 AND OR DUP2 SSTORE PUSH1 0x20 DUP3 ADD MLOAD PUSH1 0x1 DUP3 ADD SSTORE PUSH1 0x2 DUP2 ADD SWAP1 PUSH1 0x60 PUSH1 0x3 PUSH20 0xFFFFFFFFFFFFFFFFFFFFFFFFFFFFFFFFFFFFFFFF SWAP3 DUP4 PUSH1 0x40 DUP8 ADD MLOAD AND SWAP5 PUSH32 0xFFFFFFFFFFFFFFFFFFFFFFFF0000000000000000000000000000000000000000 SWAP6 DUP7 DUP3 SLOAD AND OR SWAP1 SSTORE ADD SWAP4 ADD MLOAD AND SWAP1 DUP3 SLOAD AND OR SWAP1 SSTORE JUMP JUMPDEST DUP5 MLOAD SWAP8 MLOAD ISZERO ISZERO DUP9 MSTORE MLOAD SWAP1 DUP8 ADD MSTORE MLOAD AND SWAP1 DUP5 ADD MSTORE MLOAD AND PUSH1 0x60 DUP3 ADD MSTORE LOG1 DUP1 RETURN JUMPDEST PUSH1 0x24 DUP10 DUP1 DUP13 PUSH32 0x4E487B7100000000000000000000000000000000000000000000000000000000 DUP3 MSTORE MSTORE REVERT JUMPDEST PUSH1 0x24 DUP10 PUSH1 0x41 DUP13 PUSH32 0x4E487B7100000000000000000000000000000000000000000000000000000000 DUP4 MSTORE MSTORE REVERT JUMPDEST PUSH1 0x24 DUP9 DUP8 DUP6 MLOAD SWAP2 PUSH32 0x6A5F6B7C00000000000000000000000000000000000000000000000000000000 DUP4 MSTORE DUP3 ADD MSTORE REVERT JUMPDEST SWAP3 POP POP SWAP3 POP PUSH1 0xA0 DUP2 RETURNDATASIZE DUP3 GT PUSH2 0x82C JUMPI JUMPDEST DUP2 PUSH2 0x7BB PUSH1 0xA0 SWAP4 DUP4 PUSH2 0xF7B JUMP JUMPDEST DUP2 ADD SUB SLT PUSH2 0x828 JUMPI DUP1 MLOAD SWAP3 DUP4 ISZERO ISZERO DUP5 SUB PUSH2 0x824 JUMPI DUP1 DUP3 ADD MLOAD PUSH11 0xFFFFFFFFFFFFFFFFFFFFFF DUP2 AND SUB PUSH2 0x824 JUMPI PUSH2 0x7F1 DUP4 DUP4 ADD PUSH2 0x12F0 JUMP JUMPDEST SWAP4 PUSH1 0x80 PUSH2 0x800 PUSH1 0x60 DUP6 ADD PUSH2 0x12F0 JUMP JUMPDEST SWAP4 ADD MLOAD PUSH12 0xFFFFFFFFFFFFFFFFFFFFFFFF DUP2 AND SUB PUSH2 0x820 JUMPI SWAP4 SWAP2 SWAP4 DUP10 PUSH2 0x535 JUMP JUMPDEST DUP8 DUP1 REVERT JUMPDEST DUP7 DUP1 REVERT JUMPDEST DUP6 DUP1 REVERT JUMPDEST RETURNDATASIZE SWAP2 POP PUSH2 0x7AE JUMP JUMPDEST DUP3 MLOAD RETURNDATASIZE DUP9 DUP3 RETURNDATACOPY RETURNDATASIZE SWAP1 REVERT JUMPDEST PUSH1 0x24 DUP6 DUP5 DUP5 MLOAD SWAP2 PUSH32 0xDE9C1A6900000000000000000000000000000000000000000000000000000000 DUP4 MSTORE DUP3 ADD MSTORE REVERT JUMPDEST DUP4 DUP3 CALLVALUE PUSH2 0x17C JUMPI DUP2 PUSH32 0xFFFFFFFFFFFFFFFFFFFFFFFFFFFFFFFFFFFFFFFFFFFFFFFFFFFFFFFFFFFFFFFC CALLDATASIZE ADD SLT PUSH2 0x17C JUMPI PUSH1 0x20 SWAP1 PUSH1 0x3 SLOAD SWAP1 MLOAD SWAP1 DUP2 MSTORE RETURN JUMPDEST POP DUP3 CALLVALUE PUSH2 0x97A JUMPI PUSH1 0x20 PUSH32 0xFFFFFFFFFFFFFFFFFFFFFFFFFFFFFFFFFFFFFFFFFFFFFFFFFFFFFFFFFFFFFFFC CALLDATASIZE ADD SLT PUSH2 0x97A JUMPI DUP1 SLOAD SWAP1 PUSH1 0xFF DUP3 AND ISZERO PUSH2 0x952 JUMPI PUSH1 0x1 SWAP1 DUP5 PUSH32 0xFFFFFFFFFFFFFFFFFFFFFFFFFFFFFFFFFFFFFFFFFFFFFFFFFFFFFFFFFFFFFF00 DUP1 SWAP5 AND DUP3 SSTORE CALLDATALOAD DUP2 MSTORE DUP2 PUSH1 0x20 MSTORE PUSH2 0x93D PUSH20 0xFFFFFFFFFFFFFFFFFFFFFFFFFFFFFFFFFFFFFFFF PUSH1 0x2 DUP7 DUP5 KECCAK256 ADD SLOAD AND PUSH2 0xFEB JUMP JUMPDEST SWAP3 SWAP1 SWAP4 DUP3 SLOAD AND OR SWAP1 SSTORE DUP3 MLOAD SWAP2 DUP3 MSTORE PUSH1 0x20 DUP3 ADD MSTORE RETURN JUMPDEST POP POP MLOAD PUSH32 0x37ED32E800000000000000000000000000000000000000000000000000000000 DUP2 MSTORE REVERT JUMPDEST DUP1 REVERT JUMPDEST POP SWAP1 CALLVALUE PUSH2 0x178 JUMPI DUP3 PUSH32 0xFFFFFFFFFFFFFFFFFFFFFFFFFFFFFFFFFFFFFFFFFFFFFFFFFFFFFFFFFFFFFFFC CALLDATASIZE ADD SLT PUSH2 0x178 JUMPI PUSH1 0x20 SWAP3 POP SLOAD SWAP1 MLOAD SWAP1 DUP2 MSTORE RETURN JUMPDEST POP SWAP1 CALLVALUE PUSH2 0x178 JUMPI PUSH1 0x20 PUSH32 0xFFFFFFFFFFFFFFFFFFFFFFFFFFFFFFFFFFFFFFFFFFFFFFFFFFFFFFFFFFFFFFFC CALLDATASIZE ADD SLT PUSH2 0x178 JUMPI CALLDATALOAD DUP3 MSTORE PUSH1 0x1 PUSH1 0x20 DUP2 DUP2 MSTORE SWAP3 DUP3 SWAP1 KECCAK256 DUP1 SLOAD SWAP2 DUP2 ADD SLOAD PUSH1 0x2 DUP3 ADD SLOAD PUSH1 0x3 SWAP1 SWAP3 ADD SLOAD SWAP4 MLOAD PUSH1 0xFF SWAP1 SWAP4 AND ISZERO ISZERO DUP4 MSTORE SWAP4 DUP3 ADD SWAP4 SWAP1 SWAP4 MSTORE PUSH20 0xFFFFFFFFFFFFFFFFFFFFFFFFFFFFFFFFFFFFFFFF SWAP3 DUP4 AND PUSH1 0x40 DUP3 ADD MSTORE SWAP2 AND PUSH1 0x60 DUP3 ADD MSTORE PUSH1 0x80 SWAP1 RETURN JUMPDEST POP DUP3 SWAP1 CALLVALUE PUSH2 0x17C JUMPI PUSH1 0x20 PUSH32 0xFFFFFFFFFFFFFFFFFFFFFFFFFFFFFFFFFFFFFFFFFFFFFFFFFFFFFFFFFFFFFFFC CALLDATASIZE ADD SLT PUSH2 0x17C JUMPI DUP3 CALLDATALOAD PUSH2 0xA80 PUSH2 0x1316 JUMP JUMPDEST PUSH8 0xDE0B6B3A7640000 SWAP1 DUP2 DUP2 GT PUSH2 0xB02 JUMPI DUP5 SLOAD SWAP2 DUP2 DUP7 SSTORE DUP2 DUP2 SUB SWAP1 DUP2 GT PUSH2 0xAD6 JUMPI PUSH32 0xCDF0E2499BE1CF2F4ACFF51A3C1B2E66AF5D59C4D540BB5A36D9800D254A5C80 SWAP5 SWAP6 POP PUSH1 0x3 SSTORE DUP3 MLOAD SWAP2 DUP3 MSTORE PUSH1 0x20 DUP3 ADD MSTORE LOG1 DUP1 RETURN JUMPDEST PUSH1 0x24 DUP6 PUSH1 0x11 DUP9 PUSH32 0x4E487B7100000000000000000000000000000000000000000000000000000000 DUP4 MSTORE MSTORE REVERT JUMPDEST DUP5 PUSH1 0x24 SWAP2 DUP5 MLOAD SWAP2 PUSH32 0x5984873500000000000000000000000000000000000000000000000000000000 DUP4 MSTORE DUP3 ADD MSTORE REVERT JUMPDEST POP SWAP2 SWAP1 CALLVALUE PUSH2 0x17C JUMPI DUP2 PUSH32 0xFFFFFFFFFFFFFFFFFFFFFFFFFFFFFFFFFFFFFFFFFFFFFFFFFFFFFFFFFFFFFFFC CALLDATASIZE ADD SLT PUSH2 0x17C JUMPI DUP2 SLOAD SWAP1 PUSH1 0xFF DUP3 AND ISZERO PUSH2 0xC75 JUMPI POP PUSH32 0xFFFFFFFFFFFFFFFFFFFFFFFFFFFFFFFFFFFFFFFFFFFFFFFFFFFFFFFFFFFFFF00 DUP1 SWAP2 AND DUP3 SSTORE DUP2 DUP1 SWAP2 PUSH1 0x2 SLOAD PUSH2 0xBA5 PUSH1 0x2 PUSH2 0x1236 JUMP JUMPDEST DUP4 SWAP1 JUMPDEST DUP3 DUP3 LT PUSH2 0xC37 JUMPI POP POP SWAP1 PUSH32 0xE29BC683C6472CAC8EA38DBEFC8CF71CF2E047D9CF51D0044F070025C1FC9D26 PUSH1 0x80 PUSH1 0x1 SWAP4 DUP9 MLOAD SWAP1 DUP2 MSTORE PUSH20 0xFFFFFFFFFFFFFFFFFFFFFFFFFFFFFFFFFFFFFFFF PUSH32 0x0 AND PUSH1 0x20 DUP3 ADD MSTORE DUP8 DUP10 DUP3 ADD MSTORE DUP7 PUSH1 0x60 DUP3 ADD MSTORE LOG1 DUP3 SLOAD AND OR SWAP1 SSTORE DUP3 MLOAD SWAP2 DUP3 MSTORE PUSH1 0x20 DUP3 ADD MSTORE RETURN JUMPDEST SWAP1 SWAP5 SWAP6 PUSH1 0x1 SWAP1 PUSH2 0xC69 PUSH20 0xFFFFFFFFFFFFFFFFFFFFFFFFFFFFFFFFFFFFFFFF DUP11 PUSH2 0xC60 DUP11 DUP8 PUSH2 0x12DC JUMP JUMPDEST MLOAD ADD MLOAD AND PUSH2 0xFEB JUMP JUMPDEST SWAP2 ADD SWAP8 ADD SWAP6 ADD SWAP1 PUSH2 0xBA8 JUMP JUMPDEST DUP4 MLOAD PUSH32 0x37ED32E800000000000000000000000000000000000000000000000000000000 DUP2 MSTORE REVERT JUMPDEST DUP4 DUP3 CALLVALUE PUSH2 0x17C JUMPI DUP2 PUSH32 0xFFFFFFFFFFFFFFFFFFFFFFFFFFFFFFFFFFFFFFFFFFFFFFFFFFFFFFFFFFFFFFFC CALLDATASIZE ADD SLT PUSH2 0x17C JUMPI PUSH1 0x20 SWAP1 MLOAD PUSH20 0xFFFFFFFFFFFFFFFFFFFFFFFFFFFFFFFFFFFFFFFF PUSH32 0x0 AND DUP2 MSTORE RETURN JUMPDEST DUP4 DUP3 CALLVALUE PUSH2 0x17C JUMPI DUP2 PUSH32 0xFFFFFFFFFFFFFFFFFFFFFFFFFFFFFFFFFFFFFFFFFFFFFFFFFFFFFFFFFFFFFFFC CALLDATASIZE ADD SLT PUSH2 0x17C JUMPI PUSH1 0x20 SWAP1 PUSH1 0x2 SLOAD SWAP1 MLOAD SWAP1 DUP2 MSTORE RETURN JUMPDEST POP SWAP2 SWAP1 CALLVALUE PUSH2 0x17C JUMPI PUSH1 0x20 PUSH32 0xFFFFFFFFFFFFFFFFFFFFFFFFFFFFFFFFFFFFFFFFFFFFFFFFFFFFFFFFFFFFFFFC CALLDATASIZE ADD SLT PUSH2 0x17C JUMPI CALLDATALOAD SWAP1 PUSH1 0x2 SLOAD DUP3 LT ISZERO PUSH2 0x97A JUMPI POP PUSH2 0xD92 SWAP1 PUSH1 0x2 PUSH2 0xF30 JUMP JUMPDEST POP DUP1 SLOAD PUSH1 0x1 DUP3 ADD SLOAD PUSH1 0x2 DUP4 ADD SLOAD PUSH1 0x3 SWAP1 SWAP4 ADD SLOAD SWAP4 MLOAD PUSH1 0xFF SWAP1 SWAP3 AND ISZERO ISZERO DUP3 MSTORE PUSH1 0x20 DUP3 ADD MSTORE PUSH20 0xFFFFFFFFFFFFFFFFFFFFFFFFFFFFFFFFFFFFFFFF SWAP2 DUP3 AND PUSH1 0x40 DUP3 ADD MSTORE SWAP2 AND PUSH1 0x60 DUP3 ADD MSTORE PUSH1 0x80 SWAP1 RETURN JUMPDEST SWAP3 SWAP4 SWAP1 POP CALLVALUE PUSH2 0x97A JUMPI PUSH1 0x20 PUSH32 0xFFFFFFFFFFFFFFFFFFFFFFFFFFFFFFFFFFFFFFFFFFFFFFFFFFFFFFFFFFFFFFFC CALLDATASIZE ADD SLT PUSH2 0x97A JUMPI DUP1 SLOAD SWAP3 PUSH1 0xFF DUP5 AND ISZERO PUSH2 0xF09 JUMPI POP PUSH1 0x20 SWAP4 PUSH32 0xFFFFFFFFFFFFFFFFFFFFFFFFFFFFFFFFFFFFFFFFFFFFFFFFFFFFFFFFFFFFFF00 DUP1 SWAP5 AND DUP3 SSTORE CALLDATALOAD DUP2 MSTORE PUSH1 0x1 DUP5 MSTORE PUSH1 0x1 PUSH20 0xFFFFFFFFFFFFFFFFFFFFFFFFFFFFFFFFFFFFFFFF SWAP4 DUP5 PUSH1 0x3 DUP6 DUP6 KECCAK256 ADD SLOAD AND SWAP5 PUSH2 0xE7A ADDRESS DUP8 PUSH2 0x144B JUMP JUMPDEST SWAP6 DUP7 PUSH2 0xED9 JUMPI JUMPDEST PUSH32 0xB39A15AC1082534C5F6687437F0FD4BA55C34A96FD7231C683045C7D9F7BD115 DUP9 DUP8 MLOAD SWAP4 DUP10 DUP6 MSTORE PUSH32 0x0 AND SWAP4 LOG3 DUP3 SLOAD AND OR SWAP1 SSTORE MLOAD SWAP1 DUP2 MSTORE RETURN JUMPDEST PUSH2 0xF04 DUP8 PUSH32 0x0 DUP4 PUSH2 0x1408 JUMP JUMPDEST PUSH2 0xE81 JUMP JUMPDEST DUP1 PUSH32 0x37ED32E800000000000000000000000000000000000000000000000000000000 DUP7 SWAP3 MSTORE REVERT JUMPDEST DUP1 SLOAD DUP3 LT ISZERO PUSH2 0xF4C JUMPI PUSH1 0x0 MSTORE PUSH1 0x20 PUSH1 0x0 KECCAK256 SWAP1 PUSH1 0x2 SHL ADD SWAP1 PUSH1 0x0 SWAP1 JUMP JUMPDEST PUSH32 0x4E487B7100000000000000000000000000000000000000000000000000000000 PUSH1 0x0 MSTORE PUSH1 0x32 PUSH1 0x4 MSTORE PUSH1 0x24 PUSH1 0x0 REVERT JUMPDEST SWAP1 PUSH1 0x1F PUSH32 0xFFFFFFFFFFFFFFFFFFFFFFFFFFFFFFFFFFFFFFFFFFFFFFFFFFFFFFFFFFFFFFE0 SWAP2 ADD AND DUP2 ADD SWAP1 DUP2 LT PUSH8 0xFFFFFFFFFFFFFFFF DUP3 GT OR PUSH2 0xFBC JUMPI PUSH1 0x40 MSTORE JUMP JUMPDEST PUSH32 0x4E487B7100000000000000000000000000000000000000000000000000000000 PUSH1 0x0 MSTORE PUSH1 0x41 PUSH1 0x4 MSTORE PUSH1 0x24 PUSH1 0x0 REVERT JUMPDEST SWAP1 PUSH2 0xFF6 ADDRESS DUP4 PUSH2 0x144B JUMP JUMPDEST SWAP1 PUSH1 0x4 SLOAD DUP1 PUSH32 0xFFFFFFFFFFFFFFFFFFFFFFFFFFFFFFFFFFFFFFFFFFFFFFFFFFFFFFFFFFFFFFFF DIV DUP4 GT DUP2 MUL PUSH2 0x1228 JUMPI PUSH8 0xDE0B6B3A7640000 SWAP1 DUP4 MUL DIV DUP1 DUP4 SUB DUP4 DUP2 GT PUSH2 0x11F9 JUMPI DUP1 SWAP5 PUSH20 0xFFFFFFFFFFFFFFFFFFFFFFFFFFFFFFFFFFFFFFFF SWAP3 DUP4 DUP3 AND SWAP2 PUSH1 0x40 MLOAD PUSH32 0xBA08765200000000000000000000000000000000000000000000000000000000 DUP2 MSTORE DUP3 PUSH1 0x4 DUP3 ADD MSTORE ADDRESS PUSH1 0x24 DUP3 ADD MSTORE ADDRESS PUSH1 0x44 DUP3 ADD MSTORE PUSH1 0x20 DUP2 PUSH1 0x64 DUP2 PUSH1 0x0 DUP9 GAS CALL SWAP3 DUP4 ISZERO PUSH2 0x11ED JUMPI DUP6 SWAP2 PUSH1 0x0 SWAP5 PUSH2 0x11B7 JUMPI JUMPDEST POP DUP4 SWAP9 SUB PUSH2 0x1185 JUMPI JUMPDEST POP POP DUP1 PUSH2 0x1135 JUMPI JUMPDEST PUSH1 0x40 MLOAD SWAP3 DUP4 MSTORE PUSH1 0x20 DUP4 ADD MSTORE PUSH32 0xADE3BF209346B6D1156694638E3B8E94ECFDDD117C76C53C26EA59898129A1C5 PUSH1 0x40 DUP5 PUSH32 0x0 AND SWAP5 PUSH32 0x0 AND SWAP4 LOG4 JUMP JUMPDEST PUSH2 0x1180 DUP2 PUSH32 0x0 PUSH32 0x0 PUSH2 0x1408 JUMP JUMPDEST PUSH2 0x10BD JUMP JUMPDEST PUSH2 0x11B0 SWAP2 PUSH32 0x0 SWAP1 PUSH2 0x1408 JUMP JUMPDEST CODESIZE DUP4 PUSH2 0x10B5 JUMP JUMPDEST SWAP2 POP SWAP3 PUSH1 0x20 DUP3 RETURNDATASIZE DUP3 GT PUSH2 0x11E5 JUMPI JUMPDEST DUP2 PUSH2 0x11D2 PUSH1 0x20 SWAP4 DUP4 PUSH2 0xF7B JUMP JUMPDEST DUP2 ADD SUB SLT PUSH2 0x97A JUMPI POP DUP5 SWAP1 MLOAD SWAP3 CODESIZE PUSH2 0x10AC JUMP JUMPDEST RETURNDATASIZE SWAP2 POP PUSH2 0x11C5 JUMP JUMPDEST PUSH1 0x40 MLOAD RETURNDATASIZE PUSH1 0x0 DUP3 RETURNDATACOPY RETURNDATASIZE SWAP1 REVERT JUMPDEST PUSH32 0x4E487B7100000000000000000000000000000000000000000000000000000000 PUSH1 0x0 MSTORE PUSH1 0x11 PUSH1 0x4 MSTORE PUSH1 0x24 PUSH1 0x0 REVERT JUMPDEST PUSH4 0xBAC65E5B PUSH1 0x0 MSTORE PUSH1 0x4 PUSH1 0x1C REVERT JUMPDEST SWAP1 DUP2 SLOAD PUSH8 0xFFFFFFFFFFFFFFFF DUP2 GT PUSH2 0xFBC JUMPI PUSH1 0x40 SWAP3 DUP4 MLOAD SWAP4 PUSH1 0x20 SWAP1 PUSH2 0x1260 DUP3 DUP6 PUSH1 0x5 SHL ADD DUP8 PUSH2 0xF7B JUMP JUMPDEST DUP4 DUP7 MSTORE PUSH1 0x0 SWAP3 DUP4 MSTORE DUP2 DUP4 KECCAK256 SWAP1 DUP3 DUP8 ADD JUMPDEST DUP6 DUP6 LT PUSH2 0x127F JUMPI POP POP POP POP POP POP JUMP JUMPDEST PUSH1 0x4 DUP5 PUSH1 0x1 SWAP3 DUP5 MLOAD PUSH2 0x1292 PUSH1 0x80 DUP3 PUSH2 0xF7B JUMP JUMPDEST PUSH1 0xFF DUP8 SLOAD AND ISZERO ISZERO DUP2 MSTORE DUP5 DUP8 ADD SLOAD DUP4 DUP3 ADD MSTORE PUSH20 0xFFFFFFFFFFFFFFFFFFFFFFFFFFFFFFFFFFFFFFFF DUP1 PUSH1 0x2 DUP10 ADD SLOAD AND DUP8 DUP4 ADD MSTORE PUSH1 0x3 DUP9 ADD SLOAD AND PUSH1 0x60 DUP3 ADD MSTORE DUP2 MSTORE ADD SWAP4 ADD SWAP5 ADD SWAP4 SWAP2 PUSH2 0x1270 JUMP JUMPDEST DUP1 MLOAD DUP3 LT ISZERO PUSH2 0xF4C JUMPI PUSH1 0x20 SWAP2 PUSH1 0x5 SHL ADD ADD SWAP1 JUMP JUMPDEST MLOAD SWAP1 PUSH20 0xFFFFFFFFFFFFFFFFFFFFFFFFFFFFFFFFFFFFFFFF DUP3 AND DUP3 SUB PUSH2 0x1311 JUMPI JUMP JUMPDEST PUSH1 0x0 DUP1 REVERT JUMPDEST PUSH1 0x40 MLOAD PUSH32 0xF851A44000000000000000000000000000000000000000000000000000000000 DUP2 MSTORE PUSH20 0xFFFFFFFFFFFFFFFFFFFFFFFFFFFFFFFFFFFFFFFF SWAP1 PUSH1 0x20 DUP2 PUSH1 0x4 DUP2 DUP6 PUSH32 0x0 AND GAS STATICCALL SWAP1 DUP2 ISZERO PUSH2 0x11ED JUMPI PUSH1 0x0 SWAP2 PUSH2 0x13CF JUMPI JUMPDEST POP AND DUP1 CALLER SUB PUSH2 0x1398 JUMPI POP JUMP JUMPDEST PUSH1 0x44 SWAP1 PUSH1 0x40 MLOAD SWAP1 PUSH32 0x30A76F5F00000000000000000000000000000000000000000000000000000000 DUP3 MSTORE PUSH1 0x4 DUP3 ADD MSTORE CALLER PUSH1 0x24 DUP3 ADD MSTORE REVERT JUMPDEST SWAP1 PUSH1 0x20 DUP3 RETURNDATASIZE DUP3 GT PUSH2 0x1400 JUMPI JUMPDEST DUP2 PUSH2 0x13E8 PUSH1 0x20 SWAP4 DUP4 PUSH2 0xF7B JUMP JUMPDEST DUP2 ADD SUB SLT PUSH2 0x97A JUMPI POP PUSH2 0x13FA SWAP1 PUSH2 0x12F0 JUMP JUMPDEST CODESIZE PUSH2 0x138C JUMP JUMPDEST RETURNDATASIZE SWAP2 POP PUSH2 0x13DB JUMP JUMPDEST PUSH1 0x16 SWAP3 PUSH1 0x20 SWAP3 PUSH1 0x1A MSTORE PUSH1 0x3A MSTORE PUSH1 0x44 PUSH1 0x0 SWAP4 DUP5 DUP1 SWAP4 PUSH10 0xA9059CBB000000000000 DUP3 MSTORE GAS CALL RETURNDATASIZE ISZERO PUSH1 0x1 DUP4 MLOAD EQ OR AND ISZERO PUSH2 0x143E JUMPI PUSH1 0x3A MSTORE JUMP JUMPDEST PUSH4 0x90B8EC18 SWAP1 MSTORE PUSH1 0x4 PUSH1 0x1C REVERT JUMPDEST PUSH1 0x24 PUSH1 0x1C PUSH1 0x20 SWAP4 SWAP3 DUP5 SWAP4 PUSH4 0x70A08231 PUSH1 0x0 MSTORE DUP5 MSTORE GAS STATICCALL PUSH1 0x1F RETURNDATASIZE GT AND PUSH1 0x20 MLOAD MUL SWAP1 JUMP INVALID LOG1 PUSH5 0x736F6C6343 STOP ADDMOD GT STOP EXP "},"methodIdentifiers":{"addShuttle(uint256)":"ada58d43","allShuttles(uint256)":"1ad4c8c3","allShuttlesLength()":"4f4addd1","cygnusX1Vault()":"c73ef9e8","daoPositionsWeight()":"a2aec213","daoReserves()":"5b068af8","fundDAOPositionsCygLP(uint256)":"16dc4de6","fundDAOPositionsCygLPAll()":"b7cd5cb4","fundX1VaultUSD(uint256)":"9bbbbb02","fundX1VaultUSDAll()":"7aa72473","getShuttle(uint256)":"8840cc1d","hangar18()":"e8a24e1d","setX1VaultWeight(uint256)":"7ccf374b","sweepToken(address,bool)":"facf0941","usd()":"d63a6ccd","x1VaultWeight()":"8f6c58e4"}}}}}