{"contracts/cygnus-token/CygnusToken.sol":{"CygnusERC20":{"abi":[{"inputs":[],"stateMutability":"nonpayable","type":"constructor"},{"inputs":[],"name":"AllowanceOverflow","type":"error"},{"inputs":[],"name":"AllowanceUnderflow","type":"error"},{"inputs":[],"name":"InsufficientAllowance","type":"error"},{"inputs":[],"name":"InsufficientBalance","type":"error"},{"inputs":[],"name":"InvalidPermit","type":"error"},{"inputs":[],"name":"PermitExpired","type":"error"},{"inputs":[],"name":"TotalSupplyOverflow","type":"error"},{"anonymous":false,"inputs":[{"indexed":true,"internalType":"address","name":"owner","type":"address"},{"indexed":true,"internalType":"address","name":"spender","type":"address"},{"indexed":false,"internalType":"uint256","name":"amount","type":"uint256"}],"name":"Approval","type":"event"},{"anonymous":false,"inputs":[{"indexed":true,"internalType":"address","name":"from","type":"address"},{"indexed":true,"internalType":"address","name":"to","type":"address"},{"indexed":false,"internalType":"uint256","name":"amount","type":"uint256"}],"name":"Transfer","type":"event"},{"inputs":[],"name":"DOMAIN_SEPARATOR","outputs":[{"internalType":"bytes32","name":"result","type":"bytes32"}],"stateMutability":"view","type":"function"},{"inputs":[{"internalType":"address","name":"owner","type":"address"},{"internalType":"address","name":"spender","type":"address"}],"name":"allowance","outputs":[{"internalType":"uint256","name":"result","type":"uint256"}],"stateMutability":"view","type":"function"},{"inputs":[{"internalType":"address","name":"spender","type":"address"},{"internalType":"uint256","name":"amount","type":"uint256"}],"name":"approve","outputs":[{"internalType":"bool","name":"","type":"bool"}],"stateMutability":"nonpayable","type":"function"},{"inputs":[{"internalType":"address","name":"owner","type":"address"}],"name":"balanceOf","outputs":[{"internalType":"uint256","name":"result","type":"uint256"}],"stateMutability":"view","type":"function"},{"inputs":[],"name":"decimals","outputs":[{"internalType":"uint8","name":"","type":"uint8"}],"stateMutability":"view","type":"function"},{"inputs":[{"internalType":"address","name":"spender","type":"address"},{"internalType":"uint256","name":"difference","type":"uint256"}],"name":"decreaseAllowance","outputs":[{"internalType":"bool","name":"","type":"bool"}],"stateMutability":"nonpayable","type":"function"},{"inputs":[{"internalType":"address","name":"spender","type":"address"},{"internalType":"uint256","name":"difference","type":"uint256"}],"name":"increaseAllowance","outputs":[{"internalType":"bool","name":"","type":"bool"}],"stateMutability":"nonpayable","type":"function"},{"inputs":[],"name":"name","outputs":[{"internalType":"string","name":"","type":"string"}],"stateMutability":"pure","type":"function"},{"inputs":[{"internalType":"address","name":"owner","type":"address"}],"name":"nonces","outputs":[{"internalType":"uint256","name":"result","type":"uint256"}],"stateMutability":"view","type":"function"},{"inputs":[{"internalType":"address","name":"owner","type":"address"},{"internalType":"address","name":"spender","type":"address"},{"internalType":"uint256","name":"value","type":"uint256"},{"internalType":"uint256","name":"deadline","type":"uint256"},{"internalType":"uint8","name":"v","type":"uint8"},{"internalType":"bytes32","name":"r","type":"bytes32"},{"internalType":"bytes32","name":"s","type":"bytes32"}],"name":"permit","outputs":[],"stateMutability":"nonpayable","type":"function"},{"inputs":[],"name":"symbol","outputs":[{"internalType":"string","name":"","type":"string"}],"stateMutability":"pure","type":"function"},{"inputs":[],"name":"totalSupply","outputs":[{"internalType":"uint256","name":"result","type":"uint256"}],"stateMutability":"view","type":"function"},{"inputs":[{"internalType":"address","name":"to","type":"address"},{"internalType":"uint256","name":"amount","type":"uint256"}],"name":"transfer","outputs":[{"internalType":"bool","name":"","type":"bool"}],"stateMutability":"nonpayable","type":"function"},{"inputs":[{"internalType":"address","name":"from","type":"address"},{"internalType":"address","name":"to","type":"address"},{"internalType":"uint256","name":"amount","type":"uint256"}],"name":"transferFrom","outputs":[{"internalType":"bool","name":"","type":"bool"}],"stateMutability":"nonpayable","type":"function"}],"evm":{"bytecode":{"linkReferences":{},"object":"6080806040523461001657610aad908161001c8239f35b600080fdfe6040608081526004908136101561001557600080fd5b600091823560e01c806306fdde03146108b2578063095ea7b31461081457806318160ddd146107cf57806323b872dd146106aa578063313ce567146106705780633644e5151461062e578063395093511461057657806370a08231146105105780637ecebe00146104aa57806395d89b4114610437578063a457c2d71461037e578063a9059cbb146102bb578063d505accf146101385763dd62ed3e146100bb57600080fd5b3461013457817ffffffffffffffffffffffffffffffffffffffffffffffffffffffffffffffffc360112610134573573ffffffffffffffffffffffffffffffffffffffff808216820361013057602435908116810361013057926020938452637f5e9f20600c52526034600c20549051908152f35b8380fd5b8280fd5b509190346102b75760e07ffffffffffffffffffffffffffffffffffffffffffffffffffffffffffffffffc3601126102b757823573ffffffffffffffffffffffffffffffffffffffff918282168092036101305760243592831680930361013057604435606435906084359260ff841684036102b3576101b6610a08565b9381518442116102a75760c0906338377508600c52878a5260209687600c20968754976001890190557f6e71edae12b1b97f4d1f60370fef10105fa2faae0126114a169c64845d6126c9835289898401528a868401526060830197878952608084015260a08301526119018b5287522082526042601e20885260ff16845260a435815260c435606052838060808960015afa50843d510361029b57777f5e9f200000000000000000000000000000000000000000861790526034602c20557f8c5be1e5ebec7d5bd14f71427d1e84f3dd0314c0f7b2291e5b200ac8c7c3b9259190a380f35b8763ddafbaef8852601cfd5b89631a15a3cc8a52601cfd5b8680fd5b5080fd5b50913461037b57817ffffffffffffffffffffffffffffffffffffffffffffffffffffffffffffffffc36011261037b57823573ffffffffffffffffffffffffffffffffffffffff811681036102b757602435916387a211a2600c5233815260209485600c2090815490818611610370575084900390555282600c208181540190558252600c5160601c337fddf252ad1be2c89b69c2b068fc378daa952ba7f163c4a11628f55a4df523b3ef8480a35160018152f35b63f4d678b88452601cfd5b80fd5b50913461037b57817ffffffffffffffffffffffffffffffffffffffffffffffffffffffffffffffffc36011261037b57823573ffffffffffffffffffffffffffffffffffffffff811681036102b75760243590602052637f5e9f20600c523382526034600c2090815481811061042b5760209550038091558152602c5160601c907f8c5be1e5ebec7d5bd14f71427d1e84f3dd0314c0f7b2291e5b200ac8c7c3b925843392a35160018152f35b85638301ab388552601cfd5b5050346102b757817ffffffffffffffffffffffffffffffffffffffffffffffffffffffffffffffffc3601126102b7576104a6906104756003610983565b907f43594700000000000000000000000000000000000000000000000000000000006020830152519182918261091d565b0390f35b50346101345760207ffffffffffffffffffffffffffffffffffffffffffffffffffffffffffffffffc360112610134573573ffffffffffffffffffffffffffffffffffffffff81168103610134576020926338377508600c525281600c20549051908152f35b50346101345760207ffffffffffffffffffffffffffffffffffffffffffffffffffffffffffffffffc360112610134573573ffffffffffffffffffffffffffffffffffffffff81168103610134576020926387a211a2600c525281600c20549051908152f35b50913461037b57817ffffffffffffffffffffffffffffffffffffffffffffffffffffffffffffffffc36011261037b57823573ffffffffffffffffffffffffffffffffffffffff811681036102b757602052637f5e9f20600c523381526034600c20928354906024358201918210610623575080602094558152602c5160601c907f8c5be1e5ebec7d5bd14f71427d1e84f3dd0314c0f7b2291e5b200ac8c7c3b925843392a35160018152f35b63f90670668352601cfd5b5050346102b757817ffffffffffffffffffffffffffffffffffffffffffffffffffffffffffffffffc3601126102b757602090610669610a08565b9051908152f35b5050346102b757817ffffffffffffffffffffffffffffffffffffffffffffffffffffffffffffffffc3601126102b7576020905160128152f35b50913461037b5760607ffffffffffffffffffffffffffffffffffffffffffffffffffffffffffffffffc36011261037b5773ffffffffffffffffffffffffffffffffffffffff83358181169291838203610134576024359081168103610134576044359160601b92602096338852600c94637f5e9f20811786526034862080547fffffffffffffffffffffffffffffffffffffffffffffffffffffffffffffffff81036107ac575b50506387a211a217855287852090815490818611610370575084900390555284822081815401905584525160601c907fddf252ad1be2c89b69c2b068fc378daa952ba7f163c4a11628f55a4df523b3ef8480a35160018152f35b8087116107c35786900390556387a211a238610752565b836313be252b8652601cfd5b5050346102b757817ffffffffffffffffffffffffffffffffffffffffffffffffffffffffffffffffc3601126102b7576020906805345cdf77eb68f44c549051908152f35b503461013457817ffffffffffffffffffffffffffffffffffffffffffffffffffffffffffffffffc360112610134573573ffffffffffffffffffffffffffffffffffffffff811681036101345791602092602435908452637f5e9f20600c52338252806034600c20558152602c5160601c907f8c5be1e5ebec7d5bd14f71427d1e84f3dd0314c0f7b2291e5b200ac8c7c3b925843392a35160018152f35b5050346102b757817ffffffffffffffffffffffffffffffffffffffffffffffffffffffffffffffffc3601126102b7576104a6906108f06009610983565b907f4379676e757344414f0000000000000000000000000000000000000000000000602083015251918291825b60208082528251818301819052939260005b85811061096f575050507fffffffffffffffffffffffffffffffffffffffffffffffffffffffffffffffe0601f8460006040809697860101520116010190565b81810183015184820160400152820161092f565b9067ffffffffffffffff918281116109d957604051927fffffffffffffffffffffffffffffffffffffffffffffffffffffffffffffffe0603f81601f8501160116840190848210908211176109d9576040528252565b7f4e487b7100000000000000000000000000000000000000000000000000000000600052604160045260246000fd5b60a0604051610a176009610983565b60208101907f4379676e757344414f000000000000000000000000000000000000000000000082525190207f8b73c3c69bb8fe3d512ecc4cf759cc79239f7b179b0ffacaa9a75d522b39400f825260208201527fc89efdaa54c0f20c7adf612882df0950f5a951637e0307cdcb4c672f298b8bc66040820152466060820152306080820152209056fea164736f6c6343000811000a","opcodes":"PUSH1 0x80 DUP1 PUSH1 0x40 MSTORE CALLVALUE PUSH2 0x16 JUMPI PUSH2 0xAAD SWAP1 DUP2 PUSH2 0x1C DUP3 CODECOPY RETURN JUMPDEST PUSH1 0x0 DUP1 REVERT INVALID PUSH1 0x40 PUSH1 0x80 DUP2 MSTORE PUSH1 0x4 SWAP1 DUP2 CALLDATASIZE LT ISZERO PUSH2 0x15 JUMPI PUSH1 0x0 DUP1 REVERT JUMPDEST PUSH1 0x0 SWAP2 DUP3 CALLDATALOAD PUSH1 0xE0 SHR DUP1 PUSH4 0x6FDDE03 EQ PUSH2 0x8B2 JUMPI DUP1 PUSH4 0x95EA7B3 EQ PUSH2 0x814 JUMPI DUP1 PUSH4 0x18160DDD EQ PUSH2 0x7CF JUMPI DUP1 PUSH4 0x23B872DD EQ PUSH2 0x6AA JUMPI DUP1 PUSH4 0x313CE567 EQ PUSH2 0x670 JUMPI DUP1 PUSH4 0x3644E515 EQ PUSH2 0x62E JUMPI DUP1 PUSH4 0x39509351 EQ PUSH2 0x576 JUMPI DUP1 PUSH4 0x70A08231 EQ PUSH2 0x510 JUMPI DUP1 PUSH4 0x7ECEBE00 EQ PUSH2 0x4AA JUMPI DUP1 PUSH4 0x95D89B41 EQ PUSH2 0x437 JUMPI DUP1 PUSH4 0xA457C2D7 EQ PUSH2 0x37E JUMPI DUP1 PUSH4 0xA9059CBB EQ PUSH2 0x2BB JUMPI DUP1 PUSH4 0xD505ACCF EQ PUSH2 0x138 JUMPI PUSH4 0xDD62ED3E EQ PUSH2 0xBB JUMPI PUSH1 0x0 DUP1 REVERT JUMPDEST CALLVALUE PUSH2 0x134 JUMPI DUP2 PUSH32 0xFFFFFFFFFFFFFFFFFFFFFFFFFFFFFFFFFFFFFFFFFFFFFFFFFFFFFFFFFFFFFFFC CALLDATASIZE ADD SLT PUSH2 0x134 JUMPI CALLDATALOAD PUSH20 0xFFFFFFFFFFFFFFFFFFFFFFFFFFFFFFFFFFFFFFFF DUP1 DUP3 AND DUP3 SUB PUSH2 0x130 JUMPI PUSH1 0x24 CALLDATALOAD SWAP1 DUP2 AND DUP2 SUB PUSH2 0x130 JUMPI SWAP3 PUSH1 0x20 SWAP4 DUP5 MSTORE PUSH4 0x7F5E9F20 PUSH1 0xC MSTORE MSTORE PUSH1 0x34 PUSH1 0xC KECCAK256 SLOAD SWAP1 MLOAD SWAP1 DUP2 MSTORE RETURN JUMPDEST DUP4 DUP1 REVERT JUMPDEST DUP3 DUP1 REVERT JUMPDEST POP SWAP2 SWAP1 CALLVALUE PUSH2 0x2B7 JUMPI PUSH1 0xE0 PUSH32 0xFFFFFFFFFFFFFFFFFFFFFFFFFFFFFFFFFFFFFFFFFFFFFFFFFFFFFFFFFFFFFFFC CALLDATASIZE ADD SLT PUSH2 0x2B7 JUMPI DUP3 CALLDATALOAD PUSH20 0xFFFFFFFFFFFFFFFFFFFFFFFFFFFFFFFFFFFFFFFF SWAP2 DUP3 DUP3 AND DUP1 SWAP3 SUB PUSH2 0x130 JUMPI PUSH1 0x24 CALLDATALOAD SWAP3 DUP4 AND DUP1 SWAP4 SUB PUSH2 0x130 JUMPI PUSH1 0x44 CALLDATALOAD PUSH1 0x64 CALLDATALOAD SWAP1 PUSH1 0x84 CALLDATALOAD SWAP3 PUSH1 0xFF DUP5 AND DUP5 SUB PUSH2 0x2B3 JUMPI PUSH2 0x1B6 PUSH2 0xA08 JUMP JUMPDEST SWAP4 DUP2 MLOAD DUP5 TIMESTAMP GT PUSH2 0x2A7 JUMPI PUSH1 0xC0 SWAP1 PUSH4 0x38377508 PUSH1 0xC MSTORE DUP8 DUP11 MSTORE PUSH1 0x20 SWAP7 DUP8 PUSH1 0xC KECCAK256 SWAP7 DUP8 SLOAD SWAP8 PUSH1 0x1 DUP10 ADD SWAP1 SSTORE PUSH32 0x6E71EDAE12B1B97F4D1F60370FEF10105FA2FAAE0126114A169C64845D6126C9 DUP4 MSTORE DUP10 DUP10 DUP5 ADD MSTORE DUP11 DUP7 DUP5 ADD MSTORE PUSH1 0x60 DUP4 ADD SWAP8 DUP8 DUP10 MSTORE PUSH1 0x80 DUP5 ADD MSTORE PUSH1 0xA0 DUP4 ADD MSTORE PUSH2 0x1901 DUP12 MSTORE DUP8 MSTORE KECCAK256 DUP3 MSTORE PUSH1 0x42 PUSH1 0x1E KECCAK256 DUP9 MSTORE PUSH1 0xFF AND DUP5 MSTORE PUSH1 0xA4 CALLDATALOAD DUP2 MSTORE PUSH1 0xC4 CALLDATALOAD PUSH1 0x60 MSTORE DUP4 DUP1 PUSH1 0x80 DUP10 PUSH1 0x1 GAS STATICCALL POP DUP5 RETURNDATASIZE MLOAD SUB PUSH2 0x29B JUMPI PUSH24 0x7F5E9F200000000000000000000000000000000000000000 DUP7 OR SWAP1 MSTORE PUSH1 0x34 PUSH1 0x2C KECCAK256 SSTORE PUSH32 0x8C5BE1E5EBEC7D5BD14F71427D1E84F3DD0314C0F7B2291E5B200AC8C7C3B925 SWAP2 SWAP1 LOG3 DUP1 RETURN JUMPDEST DUP8 PUSH4 0xDDAFBAEF DUP9 MSTORE PUSH1 0x1C REVERT JUMPDEST DUP10 PUSH4 0x1A15A3CC DUP11 MSTORE PUSH1 0x1C REVERT JUMPDEST DUP7 DUP1 REVERT JUMPDEST POP DUP1 REVERT JUMPDEST POP SWAP2 CALLVALUE PUSH2 0x37B JUMPI DUP2 PUSH32 0xFFFFFFFFFFFFFFFFFFFFFFFFFFFFFFFFFFFFFFFFFFFFFFFFFFFFFFFFFFFFFFFC CALLDATASIZE ADD SLT PUSH2 0x37B JUMPI DUP3 CALLDATALOAD PUSH20 0xFFFFFFFFFFFFFFFFFFFFFFFFFFFFFFFFFFFFFFFF DUP2 AND DUP2 SUB PUSH2 0x2B7 JUMPI PUSH1 0x24 CALLDATALOAD SWAP2 PUSH4 0x87A211A2 PUSH1 0xC MSTORE CALLER DUP2 MSTORE PUSH1 0x20 SWAP5 DUP6 PUSH1 0xC KECCAK256 SWAP1 DUP2 SLOAD SWAP1 DUP2 DUP7 GT PUSH2 0x370 JUMPI POP DUP5 SWAP1 SUB SWAP1 SSTORE MSTORE DUP3 PUSH1 0xC KECCAK256 DUP2 DUP2 SLOAD ADD SWAP1 SSTORE DUP3 MSTORE PUSH1 0xC MLOAD PUSH1 0x60 SHR CALLER PUSH32 0xDDF252AD1BE2C89B69C2B068FC378DAA952BA7F163C4A11628F55A4DF523B3EF DUP5 DUP1 LOG3 MLOAD PUSH1 0x1 DUP2 MSTORE RETURN JUMPDEST PUSH4 0xF4D678B8 DUP5 MSTORE PUSH1 0x1C REVERT JUMPDEST DUP1 REVERT JUMPDEST POP SWAP2 CALLVALUE PUSH2 0x37B JUMPI DUP2 PUSH32 0xFFFFFFFFFFFFFFFFFFFFFFFFFFFFFFFFFFFFFFFFFFFFFFFFFFFFFFFFFFFFFFFC CALLDATASIZE ADD SLT PUSH2 0x37B JUMPI DUP3 CALLDATALOAD PUSH20 0xFFFFFFFFFFFFFFFFFFFFFFFFFFFFFFFFFFFFFFFF DUP2 AND DUP2 SUB PUSH2 0x2B7 JUMPI PUSH1 0x24 CALLDATALOAD SWAP1 PUSH1 0x20 MSTORE PUSH4 0x7F5E9F20 PUSH1 0xC MSTORE CALLER DUP3 MSTORE PUSH1 0x34 PUSH1 0xC KECCAK256 SWAP1 DUP2 SLOAD DUP2 DUP2 LT PUSH2 0x42B JUMPI PUSH1 0x20 SWAP6 POP SUB DUP1 SWAP2 SSTORE DUP2 MSTORE PUSH1 0x2C MLOAD PUSH1 0x60 SHR SWAP1 PUSH32 0x8C5BE1E5EBEC7D5BD14F71427D1E84F3DD0314C0F7B2291E5B200AC8C7C3B925 DUP5 CALLER SWAP3 LOG3 MLOAD PUSH1 0x1 DUP2 MSTORE RETURN JUMPDEST DUP6 PUSH4 0x8301AB38 DUP6 MSTORE PUSH1 0x1C REVERT JUMPDEST POP POP CALLVALUE PUSH2 0x2B7 JUMPI DUP2 PUSH32 0xFFFFFFFFFFFFFFFFFFFFFFFFFFFFFFFFFFFFFFFFFFFFFFFFFFFFFFFFFFFFFFFC CALLDATASIZE ADD SLT PUSH2 0x2B7 JUMPI PUSH2 0x4A6 SWAP1 PUSH2 0x475 PUSH1 0x3 PUSH2 0x983 JUMP JUMPDEST SWAP1 PUSH32 0x4359470000000000000000000000000000000000000000000000000000000000 PUSH1 0x20 DUP4 ADD MSTORE MLOAD SWAP2 DUP3 SWAP2 DUP3 PUSH2 0x91D JUMP JUMPDEST SUB SWAP1 RETURN JUMPDEST POP CALLVALUE PUSH2 0x134 JUMPI PUSH1 0x20 PUSH32 0xFFFFFFFFFFFFFFFFFFFFFFFFFFFFFFFFFFFFFFFFFFFFFFFFFFFFFFFFFFFFFFFC CALLDATASIZE ADD SLT PUSH2 0x134 JUMPI CALLDATALOAD PUSH20 0xFFFFFFFFFFFFFFFFFFFFFFFFFFFFFFFFFFFFFFFF DUP2 AND DUP2 SUB PUSH2 0x134 JUMPI PUSH1 0x20 SWAP3 PUSH4 0x38377508 PUSH1 0xC MSTORE MSTORE DUP2 PUSH1 0xC KECCAK256 SLOAD SWAP1 MLOAD SWAP1 DUP2 MSTORE RETURN JUMPDEST POP CALLVALUE PUSH2 0x134 JUMPI PUSH1 0x20 PUSH32 0xFFFFFFFFFFFFFFFFFFFFFFFFFFFFFFFFFFFFFFFFFFFFFFFFFFFFFFFFFFFFFFFC CALLDATASIZE ADD SLT PUSH2 0x134 JUMPI CALLDATALOAD PUSH20 0xFFFFFFFFFFFFFFFFFFFFFFFFFFFFFFFFFFFFFFFF DUP2 AND DUP2 SUB PUSH2 0x134 JUMPI PUSH1 0x20 SWAP3 PUSH4 0x87A211A2 PUSH1 0xC MSTORE MSTORE DUP2 PUSH1 0xC KECCAK256 SLOAD SWAP1 MLOAD SWAP1 DUP2 MSTORE RETURN JUMPDEST POP SWAP2 CALLVALUE PUSH2 0x37B JUMPI DUP2 PUSH32 0xFFFFFFFFFFFFFFFFFFFFFFFFFFFFFFFFFFFFFFFFFFFFFFFFFFFFFFFFFFFFFFFC CALLDATASIZE ADD SLT PUSH2 0x37B JUMPI DUP3 CALLDATALOAD PUSH20 0xFFFFFFFFFFFFFFFFFFFFFFFFFFFFFFFFFFFFFFFF DUP2 AND DUP2 SUB PUSH2 0x2B7 JUMPI PUSH1 0x20 MSTORE PUSH4 0x7F5E9F20 PUSH1 0xC MSTORE CALLER DUP2 MSTORE PUSH1 0x34 PUSH1 0xC KECCAK256 SWAP3 DUP4 SLOAD SWAP1 PUSH1 0x24 CALLDATALOAD DUP3 ADD SWAP2 DUP3 LT PUSH2 0x623 JUMPI POP DUP1 PUSH1 0x20 SWAP5 SSTORE DUP2 MSTORE PUSH1 0x2C MLOAD PUSH1 0x60 SHR SWAP1 PUSH32 0x8C5BE1E5EBEC7D5BD14F71427D1E84F3DD0314C0F7B2291E5B200AC8C7C3B925 DUP5 CALLER SWAP3 LOG3 MLOAD PUSH1 0x1 DUP2 MSTORE RETURN JUMPDEST PUSH4 0xF9067066 DUP4 MSTORE PUSH1 0x1C REVERT JUMPDEST POP POP CALLVALUE PUSH2 0x2B7 JUMPI DUP2 PUSH32 0xFFFFFFFFFFFFFFFFFFFFFFFFFFFFFFFFFFFFFFFFFFFFFFFFFFFFFFFFFFFFFFFC CALLDATASIZE ADD SLT PUSH2 0x2B7 JUMPI PUSH1 0x20 SWAP1 PUSH2 0x669 PUSH2 0xA08 JUMP JUMPDEST SWAP1 MLOAD SWAP1 DUP2 MSTORE RETURN JUMPDEST POP POP CALLVALUE PUSH2 0x2B7 JUMPI DUP2 PUSH32 0xFFFFFFFFFFFFFFFFFFFFFFFFFFFFFFFFFFFFFFFFFFFFFFFFFFFFFFFFFFFFFFFC CALLDATASIZE ADD SLT PUSH2 0x2B7 JUMPI PUSH1 0x20 SWAP1 MLOAD PUSH1 0x12 DUP2 MSTORE RETURN JUMPDEST POP SWAP2 CALLVALUE PUSH2 0x37B JUMPI PUSH1 0x60 PUSH32 0xFFFFFFFFFFFFFFFFFFFFFFFFFFFFFFFFFFFFFFFFFFFFFFFFFFFFFFFFFFFFFFFC CALLDATASIZE ADD SLT PUSH2 0x37B JUMPI PUSH20 0xFFFFFFFFFFFFFFFFFFFFFFFFFFFFFFFFFFFFFFFF DUP4 CALLDATALOAD DUP2 DUP2 AND SWAP3 SWAP2 DUP4 DUP3 SUB PUSH2 0x134 JUMPI PUSH1 0x24 CALLDATALOAD SWAP1 DUP2 AND DUP2 SUB PUSH2 0x134 JUMPI PUSH1 0x44 CALLDATALOAD SWAP2 PUSH1 0x60 SHL SWAP3 PUSH1 0x20 SWAP7 CALLER DUP9 MSTORE PUSH1 0xC SWAP5 PUSH4 0x7F5E9F20 DUP2 OR DUP7 MSTORE PUSH1 0x34 DUP7 KECCAK256 DUP1 SLOAD PUSH32 0xFFFFFFFFFFFFFFFFFFFFFFFFFFFFFFFFFFFFFFFFFFFFFFFFFFFFFFFFFFFFFFFF DUP2 SUB PUSH2 0x7AC JUMPI JUMPDEST POP POP PUSH4 0x87A211A2 OR DUP6 MSTORE DUP8 DUP6 KECCAK256 SWAP1 DUP2 SLOAD SWAP1 DUP2 DUP7 GT PUSH2 0x370 JUMPI POP DUP5 SWAP1 SUB SWAP1 SSTORE MSTORE DUP5 DUP3 KECCAK256 DUP2 DUP2 SLOAD ADD SWAP1 SSTORE DUP5 MSTORE MLOAD PUSH1 0x60 SHR SWAP1 PUSH32 0xDDF252AD1BE2C89B69C2B068FC378DAA952BA7F163C4A11628F55A4DF523B3EF DUP5 DUP1 LOG3 MLOAD PUSH1 0x1 DUP2 MSTORE RETURN JUMPDEST DUP1 DUP8 GT PUSH2 0x7C3 JUMPI DUP7 SWAP1 SUB SWAP1 SSTORE PUSH4 0x87A211A2 CODESIZE PUSH2 0x752 JUMP JUMPDEST DUP4 PUSH4 0x13BE252B DUP7 MSTORE PUSH1 0x1C REVERT JUMPDEST POP POP CALLVALUE PUSH2 0x2B7 JUMPI DUP2 PUSH32 0xFFFFFFFFFFFFFFFFFFFFFFFFFFFFFFFFFFFFFFFFFFFFFFFFFFFFFFFFFFFFFFFC CALLDATASIZE ADD SLT PUSH2 0x2B7 JUMPI PUSH1 0x20 SWAP1 PUSH9 0x5345CDF77EB68F44C SLOAD SWAP1 MLOAD SWAP1 DUP2 MSTORE RETURN JUMPDEST POP CALLVALUE PUSH2 0x134 JUMPI DUP2 PUSH32 0xFFFFFFFFFFFFFFFFFFFFFFFFFFFFFFFFFFFFFFFFFFFFFFFFFFFFFFFFFFFFFFFC CALLDATASIZE ADD SLT PUSH2 0x134 JUMPI CALLDATALOAD PUSH20 0xFFFFFFFFFFFFFFFFFFFFFFFFFFFFFFFFFFFFFFFF DUP2 AND DUP2 SUB PUSH2 0x134 JUMPI SWAP2 PUSH1 0x20 SWAP3 PUSH1 0x24 CALLDATALOAD SWAP1 DUP5 MSTORE PUSH4 0x7F5E9F20 PUSH1 0xC MSTORE CALLER DUP3 MSTORE DUP1 PUSH1 0x34 PUSH1 0xC KECCAK256 SSTORE DUP2 MSTORE PUSH1 0x2C MLOAD PUSH1 0x60 SHR SWAP1 PUSH32 0x8C5BE1E5EBEC7D5BD14F71427D1E84F3DD0314C0F7B2291E5B200AC8C7C3B925 DUP5 CALLER SWAP3 LOG3 MLOAD PUSH1 0x1 DUP2 MSTORE RETURN JUMPDEST POP POP CALLVALUE PUSH2 0x2B7 JUMPI DUP2 PUSH32 0xFFFFFFFFFFFFFFFFFFFFFFFFFFFFFFFFFFFFFFFFFFFFFFFFFFFFFFFFFFFFFFFC CALLDATASIZE ADD SLT PUSH2 0x2B7 JUMPI PUSH2 0x4A6 SWAP1 PUSH2 0x8F0 PUSH1 0x9 PUSH2 0x983 JUMP JUMPDEST SWAP1 PUSH32 0x4379676E757344414F0000000000000000000000000000000000000000000000 PUSH1 0x20 DUP4 ADD MSTORE MLOAD SWAP2 DUP3 SWAP2 DUP3 JUMPDEST PUSH1 0x20 DUP1 DUP3 MSTORE DUP3 MLOAD DUP2 DUP4 ADD DUP2 SWAP1 MSTORE SWAP4 SWAP3 PUSH1 0x0 JUMPDEST DUP6 DUP2 LT PUSH2 0x96F JUMPI POP POP POP PUSH32 0xFFFFFFFFFFFFFFFFFFFFFFFFFFFFFFFFFFFFFFFFFFFFFFFFFFFFFFFFFFFFFFE0 PUSH1 0x1F DUP5 PUSH1 0x0 PUSH1 0x40 DUP1 SWAP7 SWAP8 DUP7 ADD ADD MSTORE ADD AND ADD ADD SWAP1 JUMP JUMPDEST DUP2 DUP2 ADD DUP4 ADD MLOAD DUP5 DUP3 ADD PUSH1 0x40 ADD MSTORE DUP3 ADD PUSH2 0x92F JUMP JUMPDEST SWAP1 PUSH8 0xFFFFFFFFFFFFFFFF SWAP2 DUP3 DUP2 GT PUSH2 0x9D9 JUMPI PUSH1 0x40 MLOAD SWAP3 PUSH32 0xFFFFFFFFFFFFFFFFFFFFFFFFFFFFFFFFFFFFFFFFFFFFFFFFFFFFFFFFFFFFFFE0 PUSH1 0x3F DUP2 PUSH1 0x1F DUP6 ADD AND ADD AND DUP5 ADD SWAP1 DUP5 DUP3 LT SWAP1 DUP3 GT OR PUSH2 0x9D9 JUMPI PUSH1 0x40 MSTORE DUP3 MSTORE JUMP JUMPDEST PUSH32 0x4E487B7100000000000000000000000000000000000000000000000000000000 PUSH1 0x0 MSTORE PUSH1 0x41 PUSH1 0x4 MSTORE PUSH1 0x24 PUSH1 0x0 REVERT JUMPDEST PUSH1 0xA0 PUSH1 0x40 MLOAD PUSH2 0xA17 PUSH1 0x9 PUSH2 0x983 JUMP JUMPDEST PUSH1 0x20 DUP2 ADD SWAP1 PUSH32 0x4379676E757344414F0000000000000000000000000000000000000000000000 DUP3 MSTORE MLOAD SWAP1 KECCAK256 PUSH32 0x8B73C3C69BB8FE3D512ECC4CF759CC79239F7B179B0FFACAA9A75D522B39400F DUP3 MSTORE PUSH1 0x20 DUP3 ADD MSTORE PUSH32 0xC89EFDAA54C0F20C7ADF612882DF0950F5A951637E0307CDCB4C672F298B8BC6 PUSH1 0x40 DUP3 ADD MSTORE CHAINID PUSH1 0x60 DUP3 ADD MSTORE ADDRESS PUSH1 0x80 DUP3 ADD MSTORE KECCAK256 SWAP1 JUMP INVALID LOG1 PUSH5 0x736F6C6343 STOP ADDMOD GT STOP EXP "},"methodIdentifiers":{"DOMAIN_SEPARATOR()":"3644e515","allowance(address,address)":"dd62ed3e","approve(address,uint256)":"095ea7b3","balanceOf(address)":"70a08231","decimals()":"313ce567","decreaseAllowance(address,uint256)":"a457c2d7","increaseAllowance(address,uint256)":"39509351","name()":"06fdde03","nonces(address)":"7ecebe00","permit(address,address,uint256,uint256,uint8,bytes32,bytes32)":"d505accf","symbol()":"95d89b41","totalSupply()":"18160ddd","transfer(address,uint256)":"a9059cbb","transferFrom(address,address,uint256)":"23b872dd"}}}}}