{"contracts/cygnus-token/CygnusComplexRewarder.sol":{"CygnusComplexRewarder":{"abi":[{"inputs":[{"internalType":"contract IHangar18","name":"_hangar18","type":"address"},{"internalType":"address","name":"_rewardToken","type":"address"},{"internalType":"uint256","name":"_totalRewards","type":"uint256"}],"stateMutability":"nonpayable","type":"constructor"},{"inputs":[{"internalType":"address","name":"token","type":"address"},{"internalType":"address","name":"underlying","type":"address"}],"name":"CygnusComplexRewarder__CantSweepUnderlying","type":"error"},{"inputs":[{"internalType":"uint256","name":"max","type":"uint256"},{"internalType":"uint256","name":"value","type":"uint256"}],"name":"CygnusComplexRewarder__CygPerBlockExceedsLimit","type":"error"},{"inputs":[{"internalType":"address","name":"admin","type":"address"},{"internalType":"address","name":"sender","type":"address"}],"name":"CygnusComplexRewarder__MsgSenderNotAdmin","type":"error"},{"inputs":[{"internalType":"address","name":"borrowable","type":"address"},{"internalType":"address","name":"sender","type":"address"}],"name":"CygnusComplexRewarder__MsgSenderNotBorrowable","type":"error"},{"inputs":[{"internalType":"address","name":"sender","type":"address"},{"internalType":"address","name":"origin","type":"address"}],"name":"CygnusComplexRewarder__OnlyEOAAllowed","type":"error"},{"inputs":[{"internalType":"uint256","name":"shuttleId","type":"uint256"},{"internalType":"address","name":"borrowable","type":"address"}],"name":"CygnusComplexRewarder__ShuttleAlreadyInitialized","type":"error"},{"inputs":[{"internalType":"uint256","name":"shuttleId","type":"uint256"},{"internalType":"address","name":"borrowable","type":"address"}],"name":"CygnusComplexRewarder__ShuttleNotInitialized","type":"error"},{"inputs":[{"internalType":"uint256","name":"prod1","type":"uint256"}],"name":"PRBMath__MulDivFixedPointOverflow","type":"error"},{"inputs":[{"internalType":"uint256","name":"prod1","type":"uint256"},{"internalType":"uint256","name":"denominator","type":"uint256"}],"name":"PRBMath__MulDivOverflow","type":"error"},{"inputs":[],"name":"ReentrantCall","type":"error"},{"anonymous":false,"inputs":[{"indexed":false,"internalType":"uint256","name":"shuttlesLength","type":"uint256"},{"indexed":false,"internalType":"address","name":"sender","type":"address"},{"indexed":false,"internalType":"uint256","name":"epoch","type":"uint256"}],"name":"AccelerateTheUniverse","type":"event"},{"anonymous":false,"inputs":[{"indexed":true,"internalType":"address","name":"borrowable","type":"address"},{"indexed":false,"internalType":"address","name":"sender","type":"address"},{"indexed":false,"internalType":"uint256","name":"reward","type":"uint256"}],"name":"CollectReward","type":"event"},{"anonymous":false,"inputs":[{"indexed":false,"internalType":"uint256","name":"lastRewardRate","type":"uint256"},{"indexed":false,"internalType":"uint256","name":"newRewardRate","type":"uint256"}],"name":"NewCygPerBlock","type":"event"},{"anonymous":false,"inputs":[{"indexed":false,"internalType":"uint256","name":"previousEpoch","type":"uint256"},{"indexed":false,"internalType":"uint256","name":"newEpoch","type":"uint256"},{"indexed":false,"internalType":"uint256","name":"_oldCygPerBlock","type":"uint256"},{"indexed":false,"internalType":"uint256","name":"_newCygPerBlock","type":"uint256"}],"name":"NewEpoch","type":"event"},{"anonymous":false,"inputs":[{"indexed":true,"internalType":"uint256","name":"shuttleId","type":"uint256"},{"indexed":false,"internalType":"address","name":"borrowable","type":"address"},{"indexed":false,"internalType":"uint256","name":"oldAllocPoint","type":"uint256"},{"indexed":false,"internalType":"uint256","name":"newAllocPoint","type":"uint256"}],"name":"NewShuttleAllocPoint","type":"event"},{"anonymous":false,"inputs":[{"indexed":true,"internalType":"uint256","name":"shuttleId","type":"uint256"},{"indexed":true,"internalType":"address","name":"borrowable","type":"address"},{"indexed":false,"internalType":"uint256","name":"allocPoints","type":"uint256"}],"name":"NewShuttleReward","type":"event"},{"anonymous":false,"inputs":[{"indexed":true,"internalType":"uint256","name":"shuttleId","type":"uint256"},{"indexed":false,"internalType":"address","name":"borrowable","type":"address"},{"indexed":false,"internalType":"uint256","name":"oldAllocPoint","type":"uint256"},{"indexed":false,"internalType":"uint256","name":"currentEpoch","type":"uint256"}],"name":"RemoveShuttleReward","type":"event"},{"anonymous":false,"inputs":[{"indexed":false,"internalType":"address","name":"sender","type":"address"},{"indexed":false,"internalType":"uint256","name":"_birth","type":"uint256"},{"indexed":false,"internalType":"uint256","name":"_death","type":"uint256"},{"indexed":false,"internalType":"uint256","name":"timestamp","type":"uint256"}],"name":"Supernova","type":"event"},{"anonymous":false,"inputs":[{"indexed":true,"internalType":"address","name":"token","type":"address"},{"indexed":true,"internalType":"address","name":"sender","type":"address"},{"indexed":false,"internalType":"uint256","name":"amount","type":"uint256"},{"indexed":false,"internalType":"uint256","name":"currentEpoch","type":"uint256"}],"name":"SweepToken","type":"event"},{"anonymous":false,"inputs":[{"indexed":true,"internalType":"address","name":"borrowable","type":"address"},{"indexed":true,"internalType":"address","name":"borrower","type":"address"},{"indexed":false,"internalType":"uint256","name":"borrowBalance","type":"uint256"},{"indexed":false,"internalType":"uint256","name":"borrowIndex","type":"uint256"}],"name":"TrackShuttle","type":"event"},{"anonymous":false,"inputs":[{"indexed":true,"internalType":"address","name":"borrowable","type":"address"},{"indexed":false,"internalType":"uint256","name":"lastRewardTime","type":"uint256"},{"indexed":false,"internalType":"uint256","name":"totalShares","type":"uint256"},{"indexed":false,"internalType":"uint256","name":"accRewardPerShare","type":"uint256"}],"name":"UpdateShuttle","type":"event"},{"inputs":[],"name":"ACC_PRECISION","outputs":[{"internalType":"uint256","name":"","type":"uint256"}],"stateMutability":"view","type":"function"},{"inputs":[],"name":"BLOCKS_PER_EPOCH","outputs":[{"internalType":"uint256","name":"","type":"uint256"}],"stateMutability":"view","type":"function"},{"inputs":[],"name":"BLOCKS_PER_YEAR","outputs":[{"internalType":"uint256","name":"","type":"uint256"}],"stateMutability":"view","type":"function"},{"inputs":[],"name":"DURATION","outputs":[{"internalType":"uint256","name":"","type":"uint256"}],"stateMutability":"view","type":"function"},{"inputs":[],"name":"MAX_CYG_PER_BLOCK","outputs":[{"internalType":"uint256","name":"","type":"uint256"}],"stateMutability":"view","type":"function"},{"inputs":[],"name":"REDUCTION_FACTOR_PER_EPOCH","outputs":[{"internalType":"uint256","name":"","type":"uint256"}],"stateMutability":"view","type":"function"},{"inputs":[],"name":"SHARES_PRECISION","outputs":[{"internalType":"uint256","name":"","type":"uint256"}],"stateMutability":"view","type":"function"},{"inputs":[],"name":"TOTAL_EPOCHS","outputs":[{"internalType":"uint256","name":"","type":"uint256"}],"stateMutability":"view","type":"function"},{"inputs":[],"name":"accelerateTheUniverse","outputs":[],"stateMutability":"nonpayable","type":"function"},{"inputs":[{"internalType":"uint256","name":"shuttleId","type":"uint256"},{"internalType":"uint256","name":"allocPoint","type":"uint256"}],"name":"adjustShuttleRewards","outputs":[],"stateMutability":"nonpayable","type":"function"},{"inputs":[],"name":"advanceEpoch","outputs":[],"stateMutability":"nonpayable","type":"function"},{"inputs":[{"internalType":"uint256","name":"","type":"uint256"}],"name":"allShuttles","outputs":[{"internalType":"address","name":"","type":"address"}],"stateMutability":"view","type":"function"},{"inputs":[],"name":"birth","outputs":[{"internalType":"uint256","name":"","type":"uint256"}],"stateMutability":"view","type":"function"},{"inputs":[{"internalType":"uint256","name":"epoch","type":"uint256"}],"name":"calculateCygPerBlock","outputs":[{"internalType":"uint256","name":"rewardRate","type":"uint256"}],"stateMutability":"view","type":"function"},{"inputs":[{"internalType":"uint256","name":"epoch","type":"uint256"}],"name":"calculateEpochRewards","outputs":[{"internalType":"uint256","name":"rewards","type":"uint256"}],"stateMutability":"view","type":"function"},{"inputs":[{"internalType":"address","name":"borrowable","type":"address"},{"internalType":"address","name":"to","type":"address"}],"name":"collect","outputs":[],"stateMutability":"nonpayable","type":"function"},{"inputs":[],"name":"currentEpochRewards","outputs":[{"internalType":"uint256","name":"","type":"uint256"}],"stateMutability":"view","type":"function"},{"inputs":[],"name":"cygPerBlock","outputs":[{"internalType":"uint256","name":"","type":"uint256"}],"stateMutability":"view","type":"function"},{"inputs":[],"name":"cygToken","outputs":[{"internalType":"address","name":"","type":"address"}],"stateMutability":"view","type":"function"},{"inputs":[],"name":"death","outputs":[{"internalType":"uint256","name":"","type":"uint256"}],"stateMutability":"view","type":"function"},{"inputs":[],"name":"distanceThisEpoch","outputs":[{"internalType":"uint256","name":"","type":"uint256"}],"stateMutability":"view","type":"function"},{"inputs":[],"name":"distanceUntilNextEpoch","outputs":[{"internalType":"uint256","name":"","type":"uint256"}],"stateMutability":"view","type":"function"},{"inputs":[],"name":"distanceUntilSupernova","outputs":[{"internalType":"uint256","name":"","type":"uint256"}],"stateMutability":"view","type":"function"},{"inputs":[{"internalType":"uint256","name":"epoch","type":"uint256"}],"name":"emissionsCurve","outputs":[{"internalType":"uint256","name":"","type":"uint256"}],"stateMutability":"pure","type":"function"},{"inputs":[],"name":"epochProgression","outputs":[{"internalType":"uint256","name":"","type":"uint256"}],"stateMutability":"view","type":"function"},{"inputs":[],"name":"epochRewardsPacing","outputs":[{"internalType":"uint256","name":"","type":"uint256"}],"stateMutability":"view","type":"function"},{"inputs":[],"name":"getBlockTimestamp","outputs":[{"internalType":"uint256","name":"","type":"uint256"}],"stateMutability":"view","type":"function"},{"inputs":[],"name":"getCurrentEpoch","outputs":[{"internalType":"uint256","name":"currentEpoch","type":"uint256"}],"stateMutability":"view","type":"function"},{"inputs":[{"internalType":"uint256","name":"","type":"uint256"}],"name":"getEpochInfo","outputs":[{"internalType":"uint256","name":"epoch","type":"uint256"},{"internalType":"uint256","name":"rewardRate","type":"uint256"},{"internalType":"uint256","name":"totalRewards","type":"uint256"},{"internalType":"uint256","name":"totalClaimed","type":"uint256"},{"internalType":"uint256","name":"start","type":"uint256"},{"internalType":"uint256","name":"end","type":"uint256"}],"stateMutability":"view","type":"function"},{"inputs":[{"internalType":"address","name":"","type":"address"}],"name":"getShuttleInfo","outputs":[{"internalType":"bool","name":"active","type":"bool"},{"internalType":"uint256","name":"shuttleId","type":"uint256"},{"internalType":"uint256","name":"totalShares","type":"uint256"},{"internalType":"uint256","name":"accRewardPerShare","type":"uint256"},{"internalType":"uint256","name":"lastRewardTime","type":"uint256"},{"internalType":"uint256","name":"allocPoint","type":"uint256"}],"stateMutability":"view","type":"function"},{"inputs":[{"internalType":"address","name":"","type":"address"},{"internalType":"address","name":"","type":"address"}],"name":"getUserInfo","outputs":[{"internalType":"uint256","name":"shares","type":"uint256"},{"internalType":"int256","name":"rewardDebt","type":"int256"}],"stateMutability":"view","type":"function"},{"inputs":[],"name":"hangar18","outputs":[{"internalType":"contract IHangar18","name":"","type":"address"}],"stateMutability":"view","type":"function"},{"inputs":[{"internalType":"uint256","name":"shuttleId","type":"uint256"},{"internalType":"uint256","name":"allocPoint","type":"uint256"}],"name":"initializeShuttleRewards","outputs":[],"stateMutability":"nonpayable","type":"function"},{"inputs":[],"name":"lastEpochTime","outputs":[{"internalType":"uint256","name":"","type":"uint256"}],"stateMutability":"view","type":"function"},{"inputs":[],"name":"name","outputs":[{"internalType":"string","name":"","type":"string"}],"stateMutability":"view","type":"function"},{"inputs":[],"name":"nextEpochRewards","outputs":[{"internalType":"uint256","name":"","type":"uint256"}],"stateMutability":"view","type":"function"},{"inputs":[{"internalType":"address","name":"borrowable","type":"address"},{"internalType":"address","name":"borrower","type":"address"}],"name":"pendingCyg","outputs":[{"internalType":"uint256","name":"pending","type":"uint256"}],"stateMutability":"view","type":"function"},{"inputs":[{"internalType":"uint256","name":"_cygPerBlock","type":"uint256"}],"name":"setCygPerBlock","outputs":[],"stateMutability":"nonpayable","type":"function"},{"inputs":[],"name":"shuttlesLength","outputs":[{"internalType":"uint256","name":"","type":"uint256"}],"stateMutability":"view","type":"function"},{"inputs":[],"name":"supernova","outputs":[],"stateMutability":"nonpayable","type":"function"},{"inputs":[{"internalType":"address","name":"token","type":"address"}],"name":"sweepToken","outputs":[],"stateMutability":"nonpayable","type":"function"},{"inputs":[],"name":"totalAllocPoint","outputs":[{"internalType":"uint256","name":"","type":"uint256"}],"stateMutability":"view","type":"function"},{"inputs":[],"name":"totalCygClaimed","outputs":[{"internalType":"uint256","name":"claimed","type":"uint256"}],"stateMutability":"view","type":"function"},{"inputs":[],"name":"totalCygRewards","outputs":[{"internalType":"uint256","name":"","type":"uint256"}],"stateMutability":"view","type":"function"},{"inputs":[],"name":"totalProgression","outputs":[{"internalType":"uint256","name":"","type":"uint256"}],"stateMutability":"view","type":"function"},{"inputs":[{"internalType":"uint256","name":"shuttleId","type":"uint256"},{"internalType":"address","name":"borrower","type":"address"},{"internalType":"uint256","name":"borrowBalance","type":"uint256"},{"internalType":"uint256","name":"borrowIndex","type":"uint256"}],"name":"trackBorrower","outputs":[],"stateMutability":"nonpayable","type":"function"},{"inputs":[{"internalType":"address","name":"borrowable","type":"address"}],"name":"updateShuttle","outputs":[],"stateMutability":"nonpayable","type":"function"},{"inputs":[],"name":"version","outputs":[{"internalType":"string","name":"","type":"string"}],"stateMutability":"view","type":"function"}],"evm":{"bytecode":{"linkReferences":{},"object":"6101006040523480156200001257600080fd5b5060405162002cff38038062002cff8339810160408190526200003591620005ef565b6000805460ff1916600117815560088290556200005290620002b7565b600581905567069789fbbc4f800010156200009a5760055460405163c3af7cc760e01b815267069789fbbc4f8000600482015260248101919091526044015b60405180910390fd5b6001600160601b0319606083811b821660e05284901b1660805242600781905560a0819052620000d06301e13380600462000672565b620000dc908262000636565b60c0908152604080519182018152600082526005546020830152810160306200010b6301e13380600462000672565b62000117919062000651565b60055462000126919062000672565b8152600060208201526040810183905260600160306200014c6301e13380600462000672565b62000158919062000651565b62000164908462000636565b905260008080526002602090815282517fac33ff75c19e70fe83507db0d683fd3465c996598dc972688b7ace676c89077b558201517fac33ff75c19e70fe83507db0d683fd3465c996598dc972688b7ace676c89077c556040828101517fac33ff75c19e70fe83507db0d683fd3465c996598dc972688b7ace676c89077d5560608301517fac33ff75c19e70fe83507db0d683fd3465c996598dc972688b7ace676c89077e5560808301517fac33ff75c19e70fe83507db0d683fd3465c996598dc972688b7ace676c89077f5560a0909201517fac33ff75c19e70fe83507db0d683fd3465c996598dc972688b7ace676c8907805560055491517fcc53a96dddb8d3b8710c4932d9e90652a4eaef0bf4c37a13dc4d806e1b54cb4d92620002a592918291829193845260208401929092526040830152606082015260800190565b60405180910390a150505050620006fb565b60008080805b8481116200033d5762000318620002d48262000371565b6200030466c3663566a5800086600854620002f0919062000694565b6200040660201b62001a091790919060201c565b6200042660201b62001a1c1790919060201c565b915062000326828462000636565b9250806200033481620006ae565b915050620002bd565b506030620003516301e13380600462000672565b6200035d919062000651565b62000369908262000651565b949350505050565b6000806200038f66c3663566a58000670de0b6b3a764000062000694565b90506000620003a084603062000694565b9050670de0b6b3a764000060005b82811015620003e857620003d184836200040660201b62001a091790919060201c565b915080620003df81620006ae565b915050620003ae565b50620003fd81670de0b6b3a764000062000694565b95945050505050565b60006200041f83836200044860201b62001a311760201c565b9392505050565b60006200041f83670de0b6b3a7640000846200050f60201b62001af41760201c565b60008080600019848609848602925082811083820303915050670de0b6b3a764000081106200048e5760405163698d9a0160e11b81526004810182905260240162000091565b600080670de0b6b3a76400008688099150506706f05b59d3b1ffff811182620004ca5780670de0b6b3a764000085040194505050505062000509565b620400008285030493909111909103600160ee1b02919091177faccb18165bd6fe31ae1cf318dc5b51eee0e1ba569b88cd74c1773b91fac10669020190505b92915050565b6000808060001985870985870292508281108382030391505080600014156200055b578382816200055057634e487b7160e01b600052601260045260246000fd5b04925050506200041f565b8381106200058757604051631dcf306360e21b8152600481018290526024810185905260440162000091565b600084868809600260036001881981018916988990049182028318808302840302808302840302808302840302808302840302808302840302918202909203026000889003889004909101858311909403939093029303949094049190911702949350505050565b60008060006060848603121562000604578283fd5b83516200061181620006e2565b60208501519093506200062481620006e2565b80925050604084015190509250925092565b600082198211156200064c576200064c620006cc565b500190565b6000826200066d57634e487b7160e01b81526012600452602481fd5b500490565b60008160001904831182151516156200068f576200068f620006cc565b500290565b600082821015620006a957620006a9620006cc565b500390565b6000600019821415620006c557620006c5620006cc565b5060010190565b634e487b7160e01b600052601160045260246000fd5b6001600160a01b0381168114620006f857600080fd5b50565b60805160601c60a05160c05160e05160601c6125626200079d60003960008181610512015281816108d70152818161092e015261131d0152600081816105ac0152818161139a0152818161141e0152611e9f015260008181610670015281816113e7015281816117ba0152611e790152600081816106ce01528181610dd0015281816110610152818161149801528181611cf70152611de101526125626000f3fe608060405234801561001057600080fd5b50600436106103205760003560e01c80636fa42261116101a7578063c1f1e5ae116100ee578063d797c4c311610097578063f2b128a411610071578063f2b128a414610737578063f6503e6c1461073f578063fd59c2991461075257600080fd5b8063d797c4c3146106c1578063e8a24e1d146106c9578063f2801fe7146106f057600080fd5b8063cb87f7f3116100c8578063cb87f7f31461069a578063d37db1d2146106ad578063d4f7286b146106b857600080fd5b8063c1f1e5ae1461065c578063c81ba8f01461066b578063c9863ffc1461069257600080fd5b80638d5b9b3a116101505780639e81b6341161012a5780639e81b63414610639578063a12ef25e14610641578063b97dd9e21461065457600080fd5b80638d5b9b3a1461061657806393c3677b1461061e5780639ce8fdc31461063157600080fd5b806382ebcd321161018157806382ebcd32146105e75780638443dfc4146105fa57806389c614b81461060d57600080fd5b80636fa42261146105a757806372e127cb146105ce578063796b89b9146105e157600080fd5b80633cf80e6c1161026b57806353cde488116102145780635de7fcd0116101ee5780635de7fcd01461058c5780635f15c3c9146105975780636673fd971461059f57600080fd5b806353cde488146105575780635493b5d61461055f57806354fd4d501461056857600080fd5b80634fcc5575116102455780634fcc5575146105345780635104517f1461053c5780635303654f1461054457600080fd5b80633cf80e6c146104fd5780634a91f2b1146105055780634f5736861461050d57600080fd5b80631bafed52116102cd5780631f3adc0f116102a75780631f3adc0f146104dc57806328419d62146104e457806332fcd966146104f257600080fd5b80631bafed52146104b95780631be05289146104c15780631be19560146104c957600080fd5b8063151e510e116102fe578063151e510e146103fe57806317caf6f1146104775780631ad4c8c31461048e57600080fd5b806301bac4c61461032557806306fdde031461033a578063135022c21461038c575b600080fd5b610338610333366004612275565b610765565b005b6103766040518060400160405280601481526020017f43594720436f6d706c657820526577617264657200000000000000000000000081525081565b60405161038391906122ea565b60405180910390f35b6103d161039a366004612275565b6002602081905260009182526040909120805460018201549282015460038301546004840154600590940154929493919290919086565b604080519687526020870195909552938501929092526060840152608083015260a082015260c001610383565b61044861040c36600461216e565b600360208190526000918252604090912080546001820154600283015493830154600484015460059094015460ff909316949193919290919086565b6040805196151587526020870195909552938501929092526060840152608083015260a082015260c001610383565b61048060065481565b604051908152602001610383565b6104a161049c366004612275565b61083b565b6040516001600160a01b039091168152602001610383565b610480610865565b610480610886565b6103386104d736600461216e565b610898565b6104806109dc565b61048066c3663566a5800081565b610480600160a01b81565b6103386109f7565b610338610a4b565b6104a17f000000000000000000000000000000000000000000000000000000000000000081565b610480610a90565b610480610adc565b61033861055236600461216e565b610b54565b600154610480565b61048060055481565b610376604051806040016040528060058152602001640312e302e360dc1b81525081565b610480600160601b81565b610480603081565b610480610b9b565b6104807f000000000000000000000000000000000000000000000000000000000000000081565b6104806105dc366004612275565b610bb6565b42610480565b6104806105f53660046121a6565b610c31565b61033861060836600461228d565b610d82565b61048060075481565b610480610fd0565b61033861062c3660046122c9565b61100b565b61048061120b565b610480611217565b61033861064f3660046121a6565b61122d565b610480611395565b61048067069789fbbc4f800081565b6104807f000000000000000000000000000000000000000000000000000000000000000081565b610480611416565b6103386106a83660046122c9565b611442565b6104806301e1338081565b61048060085481565b6104806117a4565b6104a17f000000000000000000000000000000000000000000000000000000000000000081565b6107226106fe3660046121a6565b60046020908152600092835260408084209091529082529020805460019091015482565b60408051928352602083019190915201610383565b6103386117df565b61048061074d366004612275565b61192a565b610480610760366004612275565b611989565b60005460ff16610788576040516306fda65d60e31b815260040160405180910390fd5b6000805460ff1916905561079a611bcf565b6107a2611cf3565b67069789fbbc4f80008111156107e15760405163c3af7cc760e01b815267069789fbbc4f80006004820152602481018290526044015b60405180910390fd5b600580549082905560408051828152602081018490527f3ea86743bc8b6977a0693f6611ad7256d6ec1e3f996c6cba22e146152959ddff910160405180910390a15061082b611dc5565b506000805460ff19166001179055565b6001818154811061084b57600080fd5b6000918252602090912001546001600160a01b0316905081565b600080610870611395565b905061088061074d82600161237e565b91505090565b6108956301e13380600461245b565b81565b60005460ff166108bb576040516306fda65d60e31b815260040160405180910390fd5b6000805460ff191690556108cd611bcf565b6108d5611cf3565b7f00000000000000000000000000000000000000000000000000000000000000006001600160a01b0316816001600160a01b0316141561095b5760405163ef52f72d60e01b81526001600160a01b0380831660048301527f00000000000000000000000000000000000000000000000000000000000000001660248201526044016107d8565b60006109706001600160a01b03831630611f05565b90506109866001600160a01b0383163383611f2e565b336001600160a01b0383167fee2522ca264e96c7cef76269664e2a4cea70ad76b78ee5b01d0587798a0a72d6836109bb611395565b6040805192835260208301919091520160405180910390a35061082b611dc5565b60306109ed6301e13380600461245b565b61089591906123c4565b60005460ff16610a1a576040516306fda65d60e31b815260040160405180910390fd5b6000805460ff19169055610a2c611f77565b610a34611bcf565b610a3c611dc5565b6000805460ff19166001179055565b60005460ff16610a6e576040516306fda65d60e31b815260040160405180910390fd5b6000805460ff19169055610a80611f77565b610a88611bcf565b610a34611dc5565b600080610a9b611395565b905060005b818111610ad757600081815260026020526040902060030154610ac3908461237e565b925080610acf816124d0565b915050610aa0565b505090565b600080610b126030610af36301e13380600461245b565b610afd91906123c4565b600754425b610b0c91906124b9565b90611a1c565b90506000610b1e611395565b60008181526002602081905260409091209081015460039091015491925090610b4b84610b0c8385611a1c565b94505050505090565b60005460ff16610b77576040516306fda65d60e31b815260040160405180910390fd5b6000805460ff19169055610b89611bcf565b610b9281611fa1565b5061082b611dc5565b6000610bb16030610af36301e13380600461245b565b905090565b600080610bd266c3663566a58000670de0b6b3a76400006124b9565b90506000610be18460306124b9565b9050670de0b6b3a764000060005b82811015610c1557610c018285611a09565b915080610c0d816124d0565b915050610bef565b50610c2881670de0b6b3a76400006124b9565b95945050505050565b6001600160a01b038281166000818152600360208181526040808420815160c081018352815460ff16151581526001808301548286015260028301548285019081529583015460608301908152600480850154608085015260059094015460a08401529787529184528286209789168652968352818520825180840190935280548352015491810191909152925190519193929184429050846080015181118015610cdb57508115155b15610d4a576000856080015182610cf291906124b9565b905060006006548760a0015160055484610d0c919061245b565b610d16919061245b565b610d2091906123c4565b905083610d31600160a01b8361245b565b610d3b91906123c4565b610d45908661237e565b945050505b60208401518451600160a01b90610d6290869061245b565b610d6c91906123c4565b610d76919061247a565b98975050505050505050565b60005460ff16610da5576040516306fda65d60e31b815260040160405180910390fd5b6000805460ff19169055610db7611bcf565b604051631ad4c8c360e01b8152600481018590526000907f00000000000000000000000000000000000000000000000000000000000000006001600160a01b031690631ad4c8c39060240160a06040518083038186803b158015610e1a57600080fd5b505afa158015610e2e573d6000803e3d6000fd5b505050506040513d601f19601f82011682018060405250810190610e5291906121de565b505092505050806001600160a01b0316610e693390565b6001600160a01b031614610ea15760405163741d1af960e01b81526001600160a01b03821660048201523360248201526044016107d8565b6000610eac82611fa1565b6001600160a01b038084166000908152600460209081526040808320938a16835292905290812091925084610ee5600160601b8861245b565b610eef91906123c4565b8254909150600090610f01908361247a565b90506000600160a01b856060015183610f1a91906123d8565b610f249190612396565b8385556001850154909150610f3a90829061233d565b60018501556040850151610f4f90839061233d565b6001600160a01b038781166000818152600360209081526040918290206002019490945580518c81529384018b9052918c169290917f0480311339e24867c20766d1e5f3a5c61350017b8692491973d84cf032d60f35910160405180910390a3505050505050610fbd611dc5565b50506000805460ff191660011790555050565b6000600754610fdc4290565b610fe691906124b9565b6030610ff76301e13380600461245b565b61100191906123c4565b610bb191906124b9565b60005460ff1661102e576040516306fda65d60e31b815260040160405180910390fd5b6000805460ff19169055611040611bcf565b611048611cf3565b604051631ad4c8c360e01b8152600481018390526000907f00000000000000000000000000000000000000000000000000000000000000006001600160a01b031690631ad4c8c39060240160a06040518083038186803b1580156110ab57600080fd5b505afa1580156110bf573d6000803e3d6000fd5b505050506040513d601f19601f820116820180604052508101906110e391906121de565b50506001600160a01b03811660009081526003602052604090208054919450925060ff16151560011415905061113e576040516362da3a2b60e11b8152600481018590526001600160a01b03831660248201526044016107d8565b8260066000828254611150919061237e565b90915550508054600160ff199091168117825580820185905560058201849055805480820182556000919091527fb10e2d527612073b26eecdfd717e6a320cf44b4afac2b0732d9fcbe2b7fa0cf60180546001600160a01b0319166001600160a01b03841690811790915560405184815285907f68bea3f037520d478c14fd27a27947249aade51810b62999af0776bbd0097b969060200160405180910390a350506111fa611dc5565b50506000805460ff19166001179055565b60006007546110014290565b600080611222611395565b90506108808161192a565b60005460ff16611250576040516306fda65d60e31b815260040160405180910390fd5b6000805460ff19169055611262611bcf565b600061126d83611fa1565b6001600160a01b03841660009081526004602090815260408083203384529091528120606083015181549394509092600160a01b916112ab9161245b565b6112b591906123c4565b905060008260010154826112c9919061247a565b60018401839055905080156113465760006112e2611395565b90508160026000838152602001908152602001600020600301600082825461130a919061237e565b9091555061134490506001600160a01b037f0000000000000000000000000000000000000000000000000000000000000000168784611f2e565b505b604080513381526020810183905281516001600160a01b038916927f56cc9cf62f5a3a4367575119e524522956236e34a9a06eab7fcf9880b76b81cc928290030190a2505050506111fa611dc5565b6000427f000000000000000000000000000000000000000000000000000000000000000081106113c757603091505090565b60306113d86301e13380600461245b565b6113e291906123c4565b61140c7f0000000000000000000000000000000000000000000000000000000000000000836124b9565b61088091906123c4565b6000610bb1427f00000000000000000000000000000000000000000000000000000000000000006124b9565b60005460ff16611465576040516306fda65d60e31b815260040160405180910390fd5b6000805460ff19169055611477611bcf565b61147f611cf3565b604051631ad4c8c360e01b8152600481018390526000907f00000000000000000000000000000000000000000000000000000000000000006001600160a01b031690631ad4c8c39060240160a06040518083038186803b1580156114e257600080fd5b505afa1580156114f6573d6000803e3d6000fd5b505050506040513d601f19601f8201168201806040525081019061151a91906121de565b50506001600160a01b03811660009081526003602052604090208054919450925060ff16151590506115715760405163316e864360e01b8152600481018590526001600160a01b03831660248201526044016107d8565b600581015460065484906115869083906124b9565b611590919061237e565b6006558361174657815460ff1916825560006115ab60015490565b90506000600180548060200260200160405190810160405280929190818152602001828054801561160557602002820191906000526020600020905b81546001600160a01b031681526001909101906020018083116115e7575b5050505050905060005b828110156117425781818151811061163757634e487b7160e01b600052603260045260246000fd5b60200260200101516001600160a01b0316866001600160a01b0316141561173057600161166481856124b9565b8154811061168257634e487b7160e01b600052603260045260246000fd5b600091825260209091200154600180546001600160a01b0390921691839081106116bc57634e487b7160e01b600052603260045260246000fd5b9060005260206000200160006101000a8154816001600160a01b0302191690836001600160a01b03160217905550600180548061170957634e487b7160e01b600052603160045260246000fd5b600082815260209020810160001990810180546001600160a01b0319169055019055611742565b8061173a816124d0565b91505061160f565b5050505b60058201849055604080516001600160a01b03851681526020810183905290810185905285907f9436a68f01cf8a4f756c053a98d6d88cdbd763a2d8ad77273779d054e2b82eef9060600160405180910390a25050506111fa611dc5565b6000610bb16117b86301e13380600461245b565b7f000000000000000000000000000000000000000000000000000000000000000042610b02565b60005460ff16611802576040516306fda65d60e31b815260040160405180910390fd5b6000805460ff19169055611814611bcf565b600061181f60015490565b90506000600180548060200260200160405190810160405280929190818152602001828054801561187957602002820191906000526020600020905b81546001600160a01b0316815260019091019060200180831161185b575b5050505050905060005b828110156118ce576118bb8282815181106118ae57634e487b7160e01b600052603260045260246000fd5b6020026020010151611fa1565b50806118c6816124d0565b915050611883565b507f43604600d5d5b743877b9625896fea0414a17136bbe657753a96dc6f80ede1b982336118fa611395565b604080519384526001600160a01b0390921660208401529082015260600160405180910390a15050610a3c611dc5565b60008060005b8381116119825761196261194382610bb6565b610b0c66c3663566a580008560085461195c91906124b9565b90611a09565b925061196e838361237e565b91508061197a816124d0565b915050611930565b5050919050565b60008080805b8481116119db576119bb6119a282610bb6565b610b0c66c3663566a580008660085461195c91906124b9565b91506119c7828461237e565b9250806119d3816124d0565b91505061198f565b5060306119ed6301e13380600461245b565b6119f791906123c4565b611a0190826123c4565b949350505050565b6000611a158383611a31565b9392505050565b6000611a1583670de0b6b3a764000084611af4565b60008080600019848609848602925082811083820303915050670de0b6b3a76400008110611a755760405163698d9a0160e11b8152600481018290526024016107d8565b600080670de0b6b3a76400008688099150506706f05b59d3b1ffff811182611aaf5780670de0b6b3a7640000850401945050505050611aee565b620400008285030493909111909103600160ee1b02919091177faccb18165bd6fe31ae1cf318dc5b51eee0e1ba569b88cd74c1773b91fac10669020190505b92915050565b600080806000198587098587029250828110838203039150508060001415611b3d57838281611b3357634e487b7160e01b600052601260045260246000fd5b0492505050611a15565b838110611b6757604051631dcf306360e21b815260048101829052602481018590526044016107d8565b600084868809600260036001881981018916988990049182028318808302840302808302840302808302840302808302840302808302840302918202909203026000889003889004909101858311909403939093029303949094049190911702949350505050565b6007544290600090611be190836124b9565b905060006030611bf66301e13380600461245b565b611c0091906123c4565b611c0a90836123c4565b90508015611cee576000611c1c611395565b90506030811015611cec57600554611c3382611989565b600555600785905560008281526002602052604090206004808201879055603090611c63906301e133809061245b565b611c6d91906123c4565b611c77908761237e565b600580830191909155838255546001820155611c928361192a565b60028201557fcc53a96dddb8d3b8710c4932d9e90652a4eaef0bf4c37a13dc4d806e1b54cb4d611cc36001856124b9565b60055460408051928352602083018790528201859052606082015260800160405180910390a150505b505b505050565b60007f00000000000000000000000000000000000000000000000000000000000000006001600160a01b031663f851a4406040518163ffffffff1660e01b815260040160206040518083038186803b158015611d4e57600080fd5b505afa158015611d62573d6000803e3d6000fd5b505050506040513d601f19601f82011682018060405250810190611d86919061218a565b9050336001600160a01b03821614611dc257604051635113afbd60e01b81526001600160a01b03821660048201523360248201526044016107d8565b50565b6000611dcf611395565b90506030811015611ddd5750565b60007f00000000000000000000000000000000000000000000000000000000000000006001600160a01b031663f851a4406040518163ffffffff1660e01b815260040160206040518083038186803b158015611e3857600080fd5b505afa158015611e4c573d6000803e3d6000fd5b505050506040513d601f19601f82011682018060405250810190611e70919061218a565b604080513381527f000000000000000000000000000000000000000000000000000000000000000060208201527f0000000000000000000000000000000000000000000000000000000000000000818301526060810185905290519192507f3448d68e439b81df30dbd68606f415f65c9eabaaef0aca1ffc0368cc3954c6dc919081900360800190a1806001600160a01b0316ff5b60006370a08231600052816020526020806024601c865afa601f3d111660205102905092915050565b81601a5280603a5269a9059cbb00000000000060005260206000604460166000875af13d156001600051141716611f6d576390b8ec186000526004601cfd5b6000603a52505050565b333214611f9f57604051631f0f593360e11b81523360048201523260248201526044016107d8565b565b611fdc6040518060c0016040528060001515815260200160008152602001600081526020016000815260200160008152602001600081525090565b506001600160a01b038116600090815260036020818152604092839020835160c081018552815460ff161515815260018201549281019290925260028101549382019390935290820154606082015260048201546080820181905260059092015460a082015290429081111561216857604082015180156120c957600083608001518361206991906124b9565b905060006006548560a0015160055484612083919061245b565b61208d919061245b565b61209791906123c4565b9050826120a8600160a01b8361245b565b6120b291906123c4565b85606001516120c1919061237e565b606086015250505b608083018281526001600160a01b0385166000818152600360208181526040928390208851815460ff19169015151781558189015160018201558389015160028201556060808a01519382018490559551600482015560a089015160059091015582518781529081018690529182015290917f76e5c786dd7c9c1cd87203f33dbc49d953ff07b99de74baa864f04a0e3b6aa1c910160405180910390a2505b50919050565b60006020828403121561217f578081fd5b8135611a1581612517565b60006020828403121561219b578081fd5b8151611a1581612517565b600080604083850312156121b8578081fd5b82356121c381612517565b915060208301356121d381612517565b809150509250929050565b600080600080600060a086880312156121f5578081fd5b85518015158114612204578182fd5b60208701519095506affffffffffffffffffffff81168114612224578182fd5b604087015190945061223581612517565b606087015190935061224681612517565b60808701519092506bffffffffffffffffffffffff81168114612267578182fd5b809150509295509295909350565b600060208284031215612286578081fd5b5035919050565b600080600080608085870312156122a2578384fd5b8435935060208501356122b481612517565b93969395505050506040820135916060013590565b600080604083850312156122db578182fd5b50508035926020909101359150565b6000602080835283518082850152825b81811015612316578581018301518582016040015282016122fa565b818111156123275783604083870101525b50601f01601f1916929092016040019392505050565b600080821280156001600160ff1b038490038513161561235f5761235f6124eb565b600160ff1b8390038412811615612378576123786124eb565b50500190565b60008219821115612391576123916124eb565b500190565b6000826123a5576123a5612501565b600160ff1b8214600019841416156123bf576123bf6124eb565b500590565b6000826123d3576123d3612501565b500490565b60006001600160ff1b03818413828413808216868404861116156123fe576123fe6124eb565b600160ff1b8487128281168783058912161561241c5761241c6124eb565b858712925087820587128484161615612437576124376124eb565b8785058712818416161561244d5761244d6124eb565b505050929093029392505050565b6000816000190483118215151615612475576124756124eb565b500290565b60008083128015600160ff1b850184121615612498576124986124eb565b6001600160ff1b03840183138116156124b3576124b36124eb565b50500390565b6000828210156124cb576124cb6124eb565b500390565b60006000198214156124e4576124e46124eb565b5060010190565b634e487b7160e01b600052601160045260246000fd5b634e487b7160e01b600052601260045260246000fd5b6001600160a01b0381168114611dc257600080fdfea26469706673582212201818c650d4b48bed59a6663e8197c4101a5f79304da7bf461cedfbd5b209b0d364736f6c63430008040033","opcodes":"PUSH2 0x100 PUSH1 0x40 MSTORE CALLVALUE DUP1 ISZERO PUSH3 0x12 JUMPI PUSH1 0x0 DUP1 REVERT JUMPDEST POP PUSH1 0x40 MLOAD PUSH3 0x2CFF CODESIZE SUB DUP1 PUSH3 0x2CFF DUP4 CODECOPY DUP2 ADD PUSH1 0x40 DUP2 SWAP1 MSTORE PUSH3 0x35 SWAP2 PUSH3 0x5EF JUMP JUMPDEST PUSH1 0x0 DUP1 SLOAD PUSH1 0xFF NOT AND PUSH1 0x1 OR DUP2 SSTORE PUSH1 0x8 DUP3 SWAP1 SSTORE PUSH3 0x52 SWAP1 PUSH3 0x2B7 JUMP JUMPDEST PUSH1 0x5 DUP2 SWAP1 SSTORE PUSH8 0x69789FBBC4F8000 LT ISZERO PUSH3 0x9A JUMPI PUSH1 0x5 SLOAD PUSH1 0x40 MLOAD PUSH4 0xC3AF7CC7 PUSH1 0xE0 SHL DUP2 MSTORE PUSH8 0x69789FBBC4F8000 PUSH1 0x4 DUP3 ADD MSTORE PUSH1 0x24 DUP2 ADD SWAP2 SWAP1 SWAP2 MSTORE PUSH1 0x44 ADD JUMPDEST PUSH1 0x40 MLOAD DUP1 SWAP2 SUB SWAP1 REVERT JUMPDEST PUSH1 0x1 PUSH1 0x1 PUSH1 0x60 SHL SUB NOT PUSH1 0x60 DUP4 DUP2 SHL DUP3 AND PUSH1 0xE0 MSTORE DUP5 SWAP1 SHL AND PUSH1 0x80 MSTORE TIMESTAMP PUSH1 0x7 DUP2 SWAP1 SSTORE PUSH1 0xA0 DUP2 SWAP1 MSTORE PUSH3 0xD0 PUSH4 0x1E13380 PUSH1 0x4 PUSH3 0x672 JUMP JUMPDEST PUSH3 0xDC SWAP1 DUP3 PUSH3 0x636 JUMP JUMPDEST PUSH1 0xC0 SWAP1 DUP2 MSTORE PUSH1 0x40 DUP1 MLOAD SWAP2 DUP3 ADD DUP2 MSTORE PUSH1 0x0 DUP3 MSTORE PUSH1 0x5 SLOAD PUSH1 0x20 DUP4 ADD MSTORE DUP2 ADD PUSH1 0x30 PUSH3 0x10B PUSH4 0x1E13380 PUSH1 0x4 PUSH3 0x672 JUMP JUMPDEST PUSH3 0x117 SWAP2 SWAP1 PUSH3 0x651 JUMP JUMPDEST PUSH1 0x5 SLOAD PUSH3 0x126 SWAP2 SWAP1 PUSH3 0x672 JUMP JUMPDEST DUP2 MSTORE PUSH1 0x0 PUSH1 0x20 DUP3 ADD MSTORE PUSH1 0x40 DUP2 ADD DUP4 SWAP1 MSTORE PUSH1 0x60 ADD PUSH1 0x30 PUSH3 0x14C PUSH4 0x1E13380 PUSH1 0x4 PUSH3 0x672 JUMP JUMPDEST PUSH3 0x158 SWAP2 SWAP1 PUSH3 0x651 JUMP JUMPDEST PUSH3 0x164 SWAP1 DUP5 PUSH3 0x636 JUMP JUMPDEST SWAP1 MSTORE PUSH1 0x0 DUP1 DUP1 MSTORE PUSH1 0x2 PUSH1 0x20 SWAP1 DUP2 MSTORE DUP3 MLOAD PUSH32 0xAC33FF75C19E70FE83507DB0D683FD3465C996598DC972688B7ACE676C89077B SSTORE DUP3 ADD MLOAD PUSH32 0xAC33FF75C19E70FE83507DB0D683FD3465C996598DC972688B7ACE676C89077C SSTORE PUSH1 0x40 DUP3 DUP2 ADD MLOAD PUSH32 0xAC33FF75C19E70FE83507DB0D683FD3465C996598DC972688B7ACE676C89077D SSTORE PUSH1 0x60 DUP4 ADD MLOAD PUSH32 0xAC33FF75C19E70FE83507DB0D683FD3465C996598DC972688B7ACE676C89077E SSTORE PUSH1 0x80 DUP4 ADD MLOAD PUSH32 0xAC33FF75C19E70FE83507DB0D683FD3465C996598DC972688B7ACE676C89077F SSTORE PUSH1 0xA0 SWAP1 SWAP3 ADD MLOAD PUSH32 0xAC33FF75C19E70FE83507DB0D683FD3465C996598DC972688B7ACE676C890780 SSTORE PUSH1 0x5 SLOAD SWAP2 MLOAD PUSH32 0xCC53A96DDDB8D3B8710C4932D9E90652A4EAEF0BF4C37A13DC4D806E1B54CB4D SWAP3 PUSH3 0x2A5 SWAP3 SWAP2 DUP3 SWAP2 DUP3 SWAP2 SWAP4 DUP5 MSTORE PUSH1 0x20 DUP5 ADD SWAP3 SWAP1 SWAP3 MSTORE PUSH1 0x40 DUP4 ADD MSTORE PUSH1 0x60 DUP3 ADD MSTORE PUSH1 0x80 ADD SWAP1 JUMP JUMPDEST PUSH1 0x40 MLOAD DUP1 SWAP2 SUB SWAP1 LOG1 POP POP POP POP PUSH3 0x6FB JUMP JUMPDEST PUSH1 0x0 DUP1 DUP1 DUP1 JUMPDEST DUP5 DUP2 GT PUSH3 0x33D JUMPI PUSH3 0x318 PUSH3 0x2D4 DUP3 PUSH3 0x371 JUMP JUMPDEST PUSH3 0x304 PUSH7 0xC3663566A58000 DUP7 PUSH1 0x8 SLOAD PUSH3 0x2F0 SWAP2 SWAP1 PUSH3 0x694 JUMP JUMPDEST PUSH3 0x406 PUSH1 0x20 SHL PUSH3 0x1A09 OR SWAP1 SWAP2 SWAP1 PUSH1 0x20 SHR JUMP JUMPDEST PUSH3 0x426 PUSH1 0x20 SHL PUSH3 0x1A1C OR SWAP1 SWAP2 SWAP1 PUSH1 0x20 SHR JUMP JUMPDEST SWAP2 POP PUSH3 0x326 DUP3 DUP5 PUSH3 0x636 JUMP JUMPDEST SWAP3 POP DUP1 PUSH3 0x334 DUP2 PUSH3 0x6AE JUMP JUMPDEST SWAP2 POP POP PUSH3 0x2BD JUMP JUMPDEST POP PUSH1 0x30 PUSH3 0x351 PUSH4 0x1E13380 PUSH1 0x4 PUSH3 0x672 JUMP JUMPDEST PUSH3 0x35D SWAP2 SWAP1 PUSH3 0x651 JUMP JUMPDEST PUSH3 0x369 SWAP1 DUP3 PUSH3 0x651 JUMP JUMPDEST SWAP5 SWAP4 POP POP POP POP JUMP JUMPDEST PUSH1 0x0 DUP1 PUSH3 0x38F PUSH7 0xC3663566A58000 PUSH8 0xDE0B6B3A7640000 PUSH3 0x694 JUMP JUMPDEST SWAP1 POP PUSH1 0x0 PUSH3 0x3A0 DUP5 PUSH1 0x30 PUSH3 0x694 JUMP JUMPDEST SWAP1 POP PUSH8 0xDE0B6B3A7640000 PUSH1 0x0 JUMPDEST DUP3 DUP2 LT ISZERO PUSH3 0x3E8 JUMPI PUSH3 0x3D1 DUP5 DUP4 PUSH3 0x406 PUSH1 0x20 SHL PUSH3 0x1A09 OR SWAP1 SWAP2 SWAP1 PUSH1 0x20 SHR JUMP JUMPDEST SWAP2 POP DUP1 PUSH3 0x3DF DUP2 PUSH3 0x6AE JUMP JUMPDEST SWAP2 POP POP PUSH3 0x3AE JUMP JUMPDEST POP PUSH3 0x3FD DUP2 PUSH8 0xDE0B6B3A7640000 PUSH3 0x694 JUMP JUMPDEST SWAP6 SWAP5 POP POP POP POP POP JUMP JUMPDEST PUSH1 0x0 PUSH3 0x41F DUP4 DUP4 PUSH3 0x448 PUSH1 0x20 SHL PUSH3 0x1A31 OR PUSH1 0x20 SHR JUMP JUMPDEST SWAP4 SWAP3 POP POP POP JUMP JUMPDEST PUSH1 0x0 PUSH3 0x41F DUP4 PUSH8 0xDE0B6B3A7640000 DUP5 PUSH3 0x50F PUSH1 0x20 SHL PUSH3 0x1AF4 OR PUSH1 0x20 SHR JUMP JUMPDEST PUSH1 0x0 DUP1 DUP1 PUSH1 0x0 NOT DUP5 DUP7 MULMOD DUP5 DUP7 MUL SWAP3 POP DUP3 DUP2 LT DUP4 DUP3 SUB SUB SWAP2 POP POP PUSH8 0xDE0B6B3A7640000 DUP2 LT PUSH3 0x48E JUMPI PUSH1 0x40 MLOAD PUSH4 0x698D9A01 PUSH1 0xE1 SHL DUP2 MSTORE PUSH1 0x4 DUP2 ADD DUP3 SWAP1 MSTORE PUSH1 0x24 ADD PUSH3 0x91 JUMP JUMPDEST PUSH1 0x0 DUP1 PUSH8 0xDE0B6B3A7640000 DUP7 DUP9 MULMOD SWAP2 POP POP PUSH8 0x6F05B59D3B1FFFF DUP2 GT DUP3 PUSH3 0x4CA JUMPI DUP1 PUSH8 0xDE0B6B3A7640000 DUP6 DIV ADD SWAP5 POP POP POP POP POP PUSH3 0x509 JUMP JUMPDEST PUSH3 0x40000 DUP3 DUP6 SUB DIV SWAP4 SWAP1 SWAP2 GT SWAP1 SWAP2 SUB PUSH1 0x1 PUSH1 0xEE SHL MUL SWAP2 SWAP1 SWAP2 OR PUSH32 0xACCB18165BD6FE31AE1CF318DC5B51EEE0E1BA569B88CD74C1773B91FAC10669 MUL ADD SWAP1 POP JUMPDEST SWAP3 SWAP2 POP POP JUMP JUMPDEST PUSH1 0x0 DUP1 DUP1 PUSH1 0x0 NOT DUP6 DUP8 MULMOD DUP6 DUP8 MUL SWAP3 POP DUP3 DUP2 LT DUP4 DUP3 SUB SUB SWAP2 POP POP DUP1 PUSH1 0x0 EQ ISZERO PUSH3 0x55B JUMPI DUP4 DUP3 DUP2 PUSH3 0x550 JUMPI PUSH4 0x4E487B71 PUSH1 0xE0 SHL PUSH1 0x0 MSTORE PUSH1 0x12 PUSH1 0x4 MSTORE PUSH1 0x24 PUSH1 0x0 REVERT JUMPDEST DIV SWAP3 POP POP POP PUSH3 0x41F JUMP JUMPDEST DUP4 DUP2 LT PUSH3 0x587 JUMPI PUSH1 0x40 MLOAD PUSH4 0x1DCF3063 PUSH1 0xE2 SHL DUP2 MSTORE PUSH1 0x4 DUP2 ADD DUP3 SWAP1 MSTORE PUSH1 0x24 DUP2 ADD DUP6 SWAP1 MSTORE PUSH1 0x44 ADD PUSH3 0x91 JUMP JUMPDEST PUSH1 0x0 DUP5 DUP7 DUP9 MULMOD PUSH1 0x2 PUSH1 0x3 PUSH1 0x1 DUP9 NOT DUP2 ADD DUP10 AND SWAP9 DUP10 SWAP1 DIV SWAP2 DUP3 MUL DUP4 XOR DUP1 DUP4 MUL DUP5 SUB MUL DUP1 DUP4 MUL DUP5 SUB MUL DUP1 DUP4 MUL DUP5 SUB MUL DUP1 DUP4 MUL DUP5 SUB MUL DUP1 DUP4 MUL DUP5 SUB MUL SWAP2 DUP3 MUL SWAP1 SWAP3 SUB MUL PUSH1 0x0 DUP9 SWAP1 SUB DUP9 SWAP1 DIV SWAP1 SWAP2 ADD DUP6 DUP4 GT SWAP1 SWAP5 SUB SWAP4 SWAP1 SWAP4 MUL SWAP4 SUB SWAP5 SWAP1 SWAP5 DIV SWAP2 SWAP1 SWAP2 OR MUL SWAP5 SWAP4 POP POP POP POP JUMP JUMPDEST PUSH1 0x0 DUP1 PUSH1 0x0 PUSH1 0x60 DUP5 DUP7 SUB SLT ISZERO PUSH3 0x604 JUMPI DUP3 DUP4 REVERT JUMPDEST DUP4 MLOAD PUSH3 0x611 DUP2 PUSH3 0x6E2 JUMP JUMPDEST PUSH1 0x20 DUP6 ADD MLOAD SWAP1 SWAP4 POP PUSH3 0x624 DUP2 PUSH3 0x6E2 JUMP JUMPDEST DUP1 SWAP3 POP POP PUSH1 0x40 DUP5 ADD MLOAD SWAP1 POP SWAP3 POP SWAP3 POP SWAP3 JUMP JUMPDEST PUSH1 0x0 DUP3 NOT DUP3 GT ISZERO PUSH3 0x64C JUMPI PUSH3 0x64C PUSH3 0x6CC JUMP JUMPDEST POP ADD SWAP1 JUMP JUMPDEST PUSH1 0x0 DUP3 PUSH3 0x66D JUMPI PUSH4 0x4E487B71 PUSH1 0xE0 SHL DUP2 MSTORE PUSH1 0x12 PUSH1 0x4 MSTORE PUSH1 0x24 DUP2 REVERT JUMPDEST POP DIV SWAP1 JUMP JUMPDEST PUSH1 0x0 DUP2 PUSH1 0x0 NOT DIV DUP4 GT DUP3 ISZERO ISZERO AND ISZERO PUSH3 0x68F JUMPI PUSH3 0x68F PUSH3 0x6CC JUMP JUMPDEST POP MUL SWAP1 JUMP JUMPDEST PUSH1 0x0 DUP3 DUP3 LT ISZERO PUSH3 0x6A9 JUMPI PUSH3 0x6A9 PUSH3 0x6CC JUMP JUMPDEST POP SUB SWAP1 JUMP JUMPDEST PUSH1 0x0 PUSH1 0x0 NOT DUP3 EQ ISZERO PUSH3 0x6C5 JUMPI PUSH3 0x6C5 PUSH3 0x6CC JUMP JUMPDEST POP PUSH1 0x1 ADD SWAP1 JUMP JUMPDEST PUSH4 0x4E487B71 PUSH1 0xE0 SHL PUSH1 0x0 MSTORE PUSH1 0x11 PUSH1 0x4 MSTORE PUSH1 0x24 PUSH1 0x0 REVERT JUMPDEST PUSH1 0x1 PUSH1 0x1 PUSH1 0xA0 SHL SUB DUP2 AND DUP2 EQ PUSH3 0x6F8 JUMPI PUSH1 0x0 DUP1 REVERT JUMPDEST POP JUMP JUMPDEST PUSH1 0x80 MLOAD PUSH1 0x60 SHR PUSH1 0xA0 MLOAD PUSH1 0xC0 MLOAD PUSH1 0xE0 MLOAD PUSH1 0x60 SHR PUSH2 0x2562 PUSH3 0x79D PUSH1 0x0 CODECOPY PUSH1 0x0 DUP2 DUP2 PUSH2 0x512 ADD MSTORE DUP2 DUP2 PUSH2 0x8D7 ADD MSTORE DUP2 DUP2 PUSH2 0x92E ADD MSTORE PUSH2 0x131D ADD MSTORE PUSH1 0x0 DUP2 DUP2 PUSH2 0x5AC ADD MSTORE DUP2 DUP2 PUSH2 0x139A ADD MSTORE DUP2 DUP2 PUSH2 0x141E ADD MSTORE PUSH2 0x1E9F ADD MSTORE PUSH1 0x0 DUP2 DUP2 PUSH2 0x670 ADD MSTORE DUP2 DUP2 PUSH2 0x13E7 ADD MSTORE DUP2 DUP2 PUSH2 0x17BA ADD MSTORE PUSH2 0x1E79 ADD MSTORE PUSH1 0x0 DUP2 DUP2 PUSH2 0x6CE ADD MSTORE DUP2 DUP2 PUSH2 0xDD0 ADD MSTORE DUP2 DUP2 PUSH2 0x1061 ADD MSTORE DUP2 DUP2 PUSH2 0x1498 ADD MSTORE DUP2 DUP2 PUSH2 0x1CF7 ADD MSTORE PUSH2 0x1DE1 ADD MSTORE PUSH2 0x2562 PUSH1 0x0 RETURN INVALID PUSH1 0x80 PUSH1 0x40 MSTORE CALLVALUE DUP1 ISZERO PUSH2 0x10 JUMPI PUSH1 0x0 DUP1 REVERT JUMPDEST POP PUSH1 0x4 CALLDATASIZE LT PUSH2 0x320 JUMPI PUSH1 0x0 CALLDATALOAD PUSH1 0xE0 SHR DUP1 PUSH4 0x6FA42261 GT PUSH2 0x1A7 JUMPI DUP1 PUSH4 0xC1F1E5AE GT PUSH2 0xEE JUMPI DUP1 PUSH4 0xD797C4C3 GT PUSH2 0x97 JUMPI DUP1 PUSH4 0xF2B128A4 GT PUSH2 0x71 JUMPI DUP1 PUSH4 0xF2B128A4 EQ PUSH2 0x737 JUMPI DUP1 PUSH4 0xF6503E6C EQ PUSH2 0x73F JUMPI DUP1 PUSH4 0xFD59C299 EQ PUSH2 0x752 JUMPI PUSH1 0x0 DUP1 REVERT JUMPDEST DUP1 PUSH4 0xD797C4C3 EQ PUSH2 0x6C1 JUMPI DUP1 PUSH4 0xE8A24E1D EQ PUSH2 0x6C9 JUMPI DUP1 PUSH4 0xF2801FE7 EQ PUSH2 0x6F0 JUMPI PUSH1 0x0 DUP1 REVERT JUMPDEST DUP1 PUSH4 0xCB87F7F3 GT PUSH2 0xC8 JUMPI DUP1 PUSH4 0xCB87F7F3 EQ PUSH2 0x69A JUMPI DUP1 PUSH4 0xD37DB1D2 EQ PUSH2 0x6AD JUMPI DUP1 PUSH4 0xD4F7286B EQ PUSH2 0x6B8 JUMPI PUSH1 0x0 DUP1 REVERT JUMPDEST DUP1 PUSH4 0xC1F1E5AE EQ PUSH2 0x65C JUMPI DUP1 PUSH4 0xC81BA8F0 EQ PUSH2 0x66B JUMPI DUP1 PUSH4 0xC9863FFC EQ PUSH2 0x692 JUMPI PUSH1 0x0 DUP1 REVERT JUMPDEST DUP1 PUSH4 0x8D5B9B3A GT PUSH2 0x150 JUMPI DUP1 PUSH4 0x9E81B634 GT PUSH2 0x12A JUMPI DUP1 PUSH4 0x9E81B634 EQ PUSH2 0x639 JUMPI DUP1 PUSH4 0xA12EF25E EQ PUSH2 0x641 JUMPI DUP1 PUSH4 0xB97DD9E2 EQ PUSH2 0x654 JUMPI PUSH1 0x0 DUP1 REVERT JUMPDEST DUP1 PUSH4 0x8D5B9B3A EQ PUSH2 0x616 JUMPI DUP1 PUSH4 0x93C3677B EQ PUSH2 0x61E JUMPI DUP1 PUSH4 0x9CE8FDC3 EQ PUSH2 0x631 JUMPI PUSH1 0x0 DUP1 REVERT JUMPDEST DUP1 PUSH4 0x82EBCD32 GT PUSH2 0x181 JUMPI DUP1 PUSH4 0x82EBCD32 EQ PUSH2 0x5E7 JUMPI DUP1 PUSH4 0x8443DFC4 EQ PUSH2 0x5FA JUMPI DUP1 PUSH4 0x89C614B8 EQ PUSH2 0x60D JUMPI PUSH1 0x0 DUP1 REVERT JUMPDEST DUP1 PUSH4 0x6FA42261 EQ PUSH2 0x5A7 JUMPI DUP1 PUSH4 0x72E127CB EQ PUSH2 0x5CE JUMPI DUP1 PUSH4 0x796B89B9 EQ PUSH2 0x5E1 JUMPI PUSH1 0x0 DUP1 REVERT JUMPDEST DUP1 PUSH4 0x3CF80E6C GT PUSH2 0x26B JUMPI DUP1 PUSH4 0x53CDE488 GT PUSH2 0x214 JUMPI DUP1 PUSH4 0x5DE7FCD0 GT PUSH2 0x1EE JUMPI DUP1 PUSH4 0x5DE7FCD0 EQ PUSH2 0x58C JUMPI DUP1 PUSH4 0x5F15C3C9 EQ PUSH2 0x597 JUMPI DUP1 PUSH4 0x6673FD97 EQ PUSH2 0x59F JUMPI PUSH1 0x0 DUP1 REVERT JUMPDEST DUP1 PUSH4 0x53CDE488 EQ PUSH2 0x557 JUMPI DUP1 PUSH4 0x5493B5D6 EQ PUSH2 0x55F JUMPI DUP1 PUSH4 0x54FD4D50 EQ PUSH2 0x568 JUMPI PUSH1 0x0 DUP1 REVERT JUMPDEST DUP1 PUSH4 0x4FCC5575 GT PUSH2 0x245 JUMPI DUP1 PUSH4 0x4FCC5575 EQ PUSH2 0x534 JUMPI DUP1 PUSH4 0x5104517F EQ PUSH2 0x53C JUMPI DUP1 PUSH4 0x5303654F EQ PUSH2 0x544 JUMPI PUSH1 0x0 DUP1 REVERT JUMPDEST DUP1 PUSH4 0x3CF80E6C EQ PUSH2 0x4FD JUMPI DUP1 PUSH4 0x4A91F2B1 EQ PUSH2 0x505 JUMPI DUP1 PUSH4 0x4F573686 EQ PUSH2 0x50D JUMPI PUSH1 0x0 DUP1 REVERT JUMPDEST DUP1 PUSH4 0x1BAFED52 GT PUSH2 0x2CD JUMPI DUP1 PUSH4 0x1F3ADC0F GT PUSH2 0x2A7 JUMPI DUP1 PUSH4 0x1F3ADC0F EQ PUSH2 0x4DC JUMPI DUP1 PUSH4 0x28419D62 EQ PUSH2 0x4E4 JUMPI DUP1 PUSH4 0x32FCD966 EQ PUSH2 0x4F2 JUMPI PUSH1 0x0 DUP1 REVERT JUMPDEST DUP1 PUSH4 0x1BAFED52 EQ PUSH2 0x4B9 JUMPI DUP1 PUSH4 0x1BE05289 EQ PUSH2 0x4C1 JUMPI DUP1 PUSH4 0x1BE19560 EQ PUSH2 0x4C9 JUMPI PUSH1 0x0 DUP1 REVERT JUMPDEST DUP1 PUSH4 0x151E510E GT PUSH2 0x2FE JUMPI DUP1 PUSH4 0x151E510E EQ PUSH2 0x3FE JUMPI DUP1 PUSH4 0x17CAF6F1 EQ PUSH2 0x477 JUMPI DUP1 PUSH4 0x1AD4C8C3 EQ PUSH2 0x48E JUMPI PUSH1 0x0 DUP1 REVERT JUMPDEST DUP1 PUSH4 0x1BAC4C6 EQ PUSH2 0x325 JUMPI DUP1 PUSH4 0x6FDDE03 EQ PUSH2 0x33A JUMPI DUP1 PUSH4 0x135022C2 EQ PUSH2 0x38C JUMPI JUMPDEST PUSH1 0x0 DUP1 REVERT JUMPDEST PUSH2 0x338 PUSH2 0x333 CALLDATASIZE PUSH1 0x4 PUSH2 0x2275 JUMP JUMPDEST PUSH2 0x765 JUMP JUMPDEST STOP JUMPDEST PUSH2 0x376 PUSH1 0x40 MLOAD DUP1 PUSH1 0x40 ADD PUSH1 0x40 MSTORE DUP1 PUSH1 0x14 DUP2 MSTORE PUSH1 0x20 ADD PUSH32 0x43594720436F6D706C6578205265776172646572000000000000000000000000 DUP2 MSTORE POP DUP2 JUMP JUMPDEST PUSH1 0x40 MLOAD PUSH2 0x383 SWAP2 SWAP1 PUSH2 0x22EA JUMP JUMPDEST PUSH1 0x40 MLOAD DUP1 SWAP2 SUB SWAP1 RETURN JUMPDEST PUSH2 0x3D1 PUSH2 0x39A CALLDATASIZE PUSH1 0x4 PUSH2 0x2275 JUMP JUMPDEST PUSH1 0x2 PUSH1 0x20 DUP2 SWAP1 MSTORE PUSH1 0x0 SWAP2 DUP3 MSTORE PUSH1 0x40 SWAP1 SWAP2 KECCAK256 DUP1 SLOAD PUSH1 0x1 DUP3 ADD SLOAD SWAP3 DUP3 ADD SLOAD PUSH1 0x3 DUP4 ADD SLOAD PUSH1 0x4 DUP5 ADD SLOAD PUSH1 0x5 SWAP1 SWAP5 ADD SLOAD SWAP3 SWAP5 SWAP4 SWAP2 SWAP3 SWAP1 SWAP2 SWAP1 DUP7 JUMP JUMPDEST PUSH1 0x40 DUP1 MLOAD SWAP7 DUP8 MSTORE PUSH1 0x20 DUP8 ADD SWAP6 SWAP1 SWAP6 MSTORE SWAP4 DUP6 ADD SWAP3 SWAP1 SWAP3 MSTORE PUSH1 0x60 DUP5 ADD MSTORE PUSH1 0x80 DUP4 ADD MSTORE PUSH1 0xA0 DUP3 ADD MSTORE PUSH1 0xC0 ADD PUSH2 0x383 JUMP JUMPDEST PUSH2 0x448 PUSH2 0x40C CALLDATASIZE PUSH1 0x4 PUSH2 0x216E JUMP JUMPDEST PUSH1 0x3 PUSH1 0x20 DUP2 SWAP1 MSTORE PUSH1 0x0 SWAP2 DUP3 MSTORE PUSH1 0x40 SWAP1 SWAP2 KECCAK256 DUP1 SLOAD PUSH1 0x1 DUP3 ADD SLOAD PUSH1 0x2 DUP4 ADD SLOAD SWAP4 DUP4 ADD SLOAD PUSH1 0x4 DUP5 ADD SLOAD PUSH1 0x5 SWAP1 SWAP5 ADD SLOAD PUSH1 0xFF SWAP1 SWAP4 AND SWAP5 SWAP2 SWAP4 SWAP2 SWAP3 SWAP1 SWAP2 SWAP1 DUP7 JUMP JUMPDEST PUSH1 0x40 DUP1 MLOAD SWAP7 ISZERO ISZERO DUP8 MSTORE PUSH1 0x20 DUP8 ADD SWAP6 SWAP1 SWAP6 MSTORE SWAP4 DUP6 ADD SWAP3 SWAP1 SWAP3 MSTORE PUSH1 0x60 DUP5 ADD MSTORE PUSH1 0x80 DUP4 ADD MSTORE PUSH1 0xA0 DUP3 ADD MSTORE PUSH1 0xC0 ADD PUSH2 0x383 JUMP JUMPDEST PUSH2 0x480 PUSH1 0x6 SLOAD DUP2 JUMP JUMPDEST PUSH1 0x40 MLOAD SWAP1 DUP2 MSTORE PUSH1 0x20 ADD PUSH2 0x383 JUMP JUMPDEST PUSH2 0x4A1 PUSH2 0x49C CALLDATASIZE PUSH1 0x4 PUSH2 0x2275 JUMP JUMPDEST PUSH2 0x83B JUMP JUMPDEST PUSH1 0x40 MLOAD PUSH1 0x1 PUSH1 0x1 PUSH1 0xA0 SHL SUB SWAP1 SWAP2 AND DUP2 MSTORE PUSH1 0x20 ADD PUSH2 0x383 JUMP JUMPDEST PUSH2 0x480 PUSH2 0x865 JUMP JUMPDEST PUSH2 0x480 PUSH2 0x886 JUMP JUMPDEST PUSH2 0x338 PUSH2 0x4D7 CALLDATASIZE PUSH1 0x4 PUSH2 0x216E JUMP JUMPDEST PUSH2 0x898 JUMP JUMPDEST PUSH2 0x480 PUSH2 0x9DC JUMP JUMPDEST PUSH2 0x480 PUSH7 0xC3663566A58000 DUP2 JUMP JUMPDEST PUSH2 0x480 PUSH1 0x1 PUSH1 0xA0 SHL DUP2 JUMP JUMPDEST PUSH2 0x338 PUSH2 0x9F7 JUMP JUMPDEST PUSH2 0x338 PUSH2 0xA4B JUMP JUMPDEST PUSH2 0x4A1 PUSH32 0x0 DUP2 JUMP JUMPDEST PUSH2 0x480 PUSH2 0xA90 JUMP JUMPDEST PUSH2 0x480 PUSH2 0xADC JUMP JUMPDEST PUSH2 0x338 PUSH2 0x552 CALLDATASIZE PUSH1 0x4 PUSH2 0x216E JUMP JUMPDEST PUSH2 0xB54 JUMP JUMPDEST PUSH1 0x1 SLOAD PUSH2 0x480 JUMP JUMPDEST PUSH2 0x480 PUSH1 0x5 SLOAD DUP2 JUMP JUMPDEST PUSH2 0x376 PUSH1 0x40 MLOAD DUP1 PUSH1 0x40 ADD PUSH1 0x40 MSTORE DUP1 PUSH1 0x5 DUP2 MSTORE PUSH1 0x20 ADD PUSH5 0x312E302E3 PUSH1 0xDC SHL DUP2 MSTORE POP DUP2 JUMP JUMPDEST PUSH2 0x480 PUSH1 0x1 PUSH1 0x60 SHL DUP2 JUMP JUMPDEST PUSH2 0x480 PUSH1 0x30 DUP2 JUMP JUMPDEST PUSH2 0x480 PUSH2 0xB9B JUMP JUMPDEST PUSH2 0x480 PUSH32 0x0 DUP2 JUMP JUMPDEST PUSH2 0x480 PUSH2 0x5DC CALLDATASIZE PUSH1 0x4 PUSH2 0x2275 JUMP JUMPDEST PUSH2 0xBB6 JUMP JUMPDEST TIMESTAMP PUSH2 0x480 JUMP JUMPDEST PUSH2 0x480 PUSH2 0x5F5 CALLDATASIZE PUSH1 0x4 PUSH2 0x21A6 JUMP JUMPDEST PUSH2 0xC31 JUMP JUMPDEST PUSH2 0x338 PUSH2 0x608 CALLDATASIZE PUSH1 0x4 PUSH2 0x228D JUMP JUMPDEST PUSH2 0xD82 JUMP JUMPDEST PUSH2 0x480 PUSH1 0x7 SLOAD DUP2 JUMP JUMPDEST PUSH2 0x480 PUSH2 0xFD0 JUMP JUMPDEST PUSH2 0x338 PUSH2 0x62C CALLDATASIZE PUSH1 0x4 PUSH2 0x22C9 JUMP JUMPDEST PUSH2 0x100B JUMP JUMPDEST PUSH2 0x480 PUSH2 0x120B JUMP JUMPDEST PUSH2 0x480 PUSH2 0x1217 JUMP JUMPDEST PUSH2 0x338 PUSH2 0x64F CALLDATASIZE PUSH1 0x4 PUSH2 0x21A6 JUMP JUMPDEST PUSH2 0x122D JUMP JUMPDEST PUSH2 0x480 PUSH2 0x1395 JUMP JUMPDEST PUSH2 0x480 PUSH8 0x69789FBBC4F8000 DUP2 JUMP JUMPDEST PUSH2 0x480 PUSH32 0x0 DUP2 JUMP JUMPDEST PUSH2 0x480 PUSH2 0x1416 JUMP JUMPDEST PUSH2 0x338 PUSH2 0x6A8 CALLDATASIZE PUSH1 0x4 PUSH2 0x22C9 JUMP JUMPDEST PUSH2 0x1442 JUMP JUMPDEST PUSH2 0x480 PUSH4 0x1E13380 DUP2 JUMP JUMPDEST PUSH2 0x480 PUSH1 0x8 SLOAD DUP2 JUMP JUMPDEST PUSH2 0x480 PUSH2 0x17A4 JUMP JUMPDEST PUSH2 0x4A1 PUSH32 0x0 DUP2 JUMP JUMPDEST PUSH2 0x722 PUSH2 0x6FE CALLDATASIZE PUSH1 0x4 PUSH2 0x21A6 JUMP JUMPDEST PUSH1 0x4 PUSH1 0x20 SWAP1 DUP2 MSTORE PUSH1 0x0 SWAP3 DUP4 MSTORE PUSH1 0x40 DUP1 DUP5 KECCAK256 SWAP1 SWAP2 MSTORE SWAP1 DUP3 MSTORE SWAP1 KECCAK256 DUP1 SLOAD PUSH1 0x1 SWAP1 SWAP2 ADD SLOAD DUP3 JUMP JUMPDEST PUSH1 0x40 DUP1 MLOAD SWAP3 DUP4 MSTORE PUSH1 0x20 DUP4 ADD SWAP2 SWAP1 SWAP2 MSTORE ADD PUSH2 0x383 JUMP JUMPDEST PUSH2 0x338 PUSH2 0x17DF JUMP JUMPDEST PUSH2 0x480 PUSH2 0x74D CALLDATASIZE PUSH1 0x4 PUSH2 0x2275 JUMP JUMPDEST PUSH2 0x192A JUMP JUMPDEST PUSH2 0x480 PUSH2 0x760 CALLDATASIZE PUSH1 0x4 PUSH2 0x2275 JUMP JUMPDEST PUSH2 0x1989 JUMP JUMPDEST PUSH1 0x0 SLOAD PUSH1 0xFF AND PUSH2 0x788 JUMPI PUSH1 0x40 MLOAD PUSH4 0x6FDA65D PUSH1 0xE3 SHL DUP2 MSTORE PUSH1 0x4 ADD PUSH1 0x40 MLOAD DUP1 SWAP2 SUB SWAP1 REVERT JUMPDEST PUSH1 0x0 DUP1 SLOAD PUSH1 0xFF NOT AND SWAP1 SSTORE PUSH2 0x79A PUSH2 0x1BCF JUMP JUMPDEST PUSH2 0x7A2 PUSH2 0x1CF3 JUMP JUMPDEST PUSH8 0x69789FBBC4F8000 DUP2 GT ISZERO PUSH2 0x7E1 JUMPI PUSH1 0x40 MLOAD PUSH4 0xC3AF7CC7 PUSH1 0xE0 SHL DUP2 MSTORE PUSH8 0x69789FBBC4F8000 PUSH1 0x4 DUP3 ADD MSTORE PUSH1 0x24 DUP2 ADD DUP3 SWAP1 MSTORE PUSH1 0x44 ADD JUMPDEST PUSH1 0x40 MLOAD DUP1 SWAP2 SUB SWAP1 REVERT JUMPDEST PUSH1 0x5 DUP1 SLOAD SWAP1 DUP3 SWAP1 SSTORE PUSH1 0x40 DUP1 MLOAD DUP3 DUP2 MSTORE PUSH1 0x20 DUP2 ADD DUP5 SWAP1 MSTORE PUSH32 0x3EA86743BC8B6977A0693F6611AD7256D6EC1E3F996C6CBA22E146152959DDFF SWAP2 ADD PUSH1 0x40 MLOAD DUP1 SWAP2 SUB SWAP1 LOG1 POP PUSH2 0x82B PUSH2 0x1DC5 JUMP JUMPDEST POP PUSH1 0x0 DUP1 SLOAD PUSH1 0xFF NOT AND PUSH1 0x1 OR SWAP1 SSTORE JUMP JUMPDEST PUSH1 0x1 DUP2 DUP2 SLOAD DUP2 LT PUSH2 0x84B JUMPI PUSH1 0x0 DUP1 REVERT JUMPDEST PUSH1 0x0 SWAP2 DUP3 MSTORE PUSH1 0x20 SWAP1 SWAP2 KECCAK256 ADD SLOAD PUSH1 0x1 PUSH1 0x1 PUSH1 0xA0 SHL SUB AND SWAP1 POP DUP2 JUMP JUMPDEST PUSH1 0x0 DUP1 PUSH2 0x870 PUSH2 0x1395 JUMP JUMPDEST SWAP1 POP PUSH2 0x880 PUSH2 0x74D DUP3 PUSH1 0x1 PUSH2 0x237E JUMP JUMPDEST SWAP2 POP POP SWAP1 JUMP JUMPDEST PUSH2 0x895 PUSH4 0x1E13380 PUSH1 0x4 PUSH2 0x245B JUMP JUMPDEST DUP2 JUMP JUMPDEST PUSH1 0x0 SLOAD PUSH1 0xFF AND PUSH2 0x8BB JUMPI PUSH1 0x40 MLOAD PUSH4 0x6FDA65D PUSH1 0xE3 SHL DUP2 MSTORE PUSH1 0x4 ADD PUSH1 0x40 MLOAD DUP1 SWAP2 SUB SWAP1 REVERT JUMPDEST PUSH1 0x0 DUP1 SLOAD PUSH1 0xFF NOT AND SWAP1 SSTORE PUSH2 0x8CD PUSH2 0x1BCF JUMP JUMPDEST PUSH2 0x8D5 PUSH2 0x1CF3 JUMP JUMPDEST PUSH32 0x0 PUSH1 0x1 PUSH1 0x1 PUSH1 0xA0 SHL SUB AND DUP2 PUSH1 0x1 PUSH1 0x1 PUSH1 0xA0 SHL SUB AND EQ ISZERO PUSH2 0x95B JUMPI PUSH1 0x40 MLOAD PUSH4 0xEF52F72D PUSH1 0xE0 SHL DUP2 MSTORE PUSH1 0x1 PUSH1 0x1 PUSH1 0xA0 SHL SUB DUP1 DUP4 AND PUSH1 0x4 DUP4 ADD MSTORE PUSH32 0x0 AND PUSH1 0x24 DUP3 ADD MSTORE PUSH1 0x44 ADD PUSH2 0x7D8 JUMP JUMPDEST PUSH1 0x0 PUSH2 0x970 PUSH1 0x1 PUSH1 0x1 PUSH1 0xA0 SHL SUB DUP4 AND ADDRESS PUSH2 0x1F05 JUMP JUMPDEST SWAP1 POP PUSH2 0x986 PUSH1 0x1 PUSH1 0x1 PUSH1 0xA0 SHL SUB DUP4 AND CALLER DUP4 PUSH2 0x1F2E JUMP JUMPDEST CALLER PUSH1 0x1 PUSH1 0x1 PUSH1 0xA0 SHL SUB DUP4 AND PUSH32 0xEE2522CA264E96C7CEF76269664E2A4CEA70AD76B78EE5B01D0587798A0A72D6 DUP4 PUSH2 0x9BB PUSH2 0x1395 JUMP JUMPDEST PUSH1 0x40 DUP1 MLOAD SWAP3 DUP4 MSTORE PUSH1 0x20 DUP4 ADD SWAP2 SWAP1 SWAP2 MSTORE ADD PUSH1 0x40 MLOAD DUP1 SWAP2 SUB SWAP1 LOG3 POP PUSH2 0x82B PUSH2 0x1DC5 JUMP JUMPDEST PUSH1 0x30 PUSH2 0x9ED PUSH4 0x1E13380 PUSH1 0x4 PUSH2 0x245B JUMP JUMPDEST PUSH2 0x895 SWAP2 SWAP1 PUSH2 0x23C4 JUMP JUMPDEST PUSH1 0x0 SLOAD PUSH1 0xFF AND PUSH2 0xA1A JUMPI PUSH1 0x40 MLOAD PUSH4 0x6FDA65D PUSH1 0xE3 SHL DUP2 MSTORE PUSH1 0x4 ADD PUSH1 0x40 MLOAD DUP1 SWAP2 SUB SWAP1 REVERT JUMPDEST PUSH1 0x0 DUP1 SLOAD PUSH1 0xFF NOT AND SWAP1 SSTORE PUSH2 0xA2C PUSH2 0x1F77 JUMP JUMPDEST PUSH2 0xA34 PUSH2 0x1BCF JUMP JUMPDEST PUSH2 0xA3C PUSH2 0x1DC5 JUMP JUMPDEST PUSH1 0x0 DUP1 SLOAD PUSH1 0xFF NOT AND PUSH1 0x1 OR SWAP1 SSTORE JUMP JUMPDEST PUSH1 0x0 SLOAD PUSH1 0xFF AND PUSH2 0xA6E JUMPI PUSH1 0x40 MLOAD PUSH4 0x6FDA65D PUSH1 0xE3 SHL DUP2 MSTORE PUSH1 0x4 ADD PUSH1 0x40 MLOAD DUP1 SWAP2 SUB SWAP1 REVERT JUMPDEST PUSH1 0x0 DUP1 SLOAD PUSH1 0xFF NOT AND SWAP1 SSTORE PUSH2 0xA80 PUSH2 0x1F77 JUMP JUMPDEST PUSH2 0xA88 PUSH2 0x1BCF JUMP JUMPDEST PUSH2 0xA34 PUSH2 0x1DC5 JUMP JUMPDEST PUSH1 0x0 DUP1 PUSH2 0xA9B PUSH2 0x1395 JUMP JUMPDEST SWAP1 POP PUSH1 0x0 JUMPDEST DUP2 DUP2 GT PUSH2 0xAD7 JUMPI PUSH1 0x0 DUP2 DUP2 MSTORE PUSH1 0x2 PUSH1 0x20 MSTORE PUSH1 0x40 SWAP1 KECCAK256 PUSH1 0x3 ADD SLOAD PUSH2 0xAC3 SWAP1 DUP5 PUSH2 0x237E JUMP JUMPDEST SWAP3 POP DUP1 PUSH2 0xACF DUP2 PUSH2 0x24D0 JUMP JUMPDEST SWAP2 POP POP PUSH2 0xAA0 JUMP JUMPDEST POP POP SWAP1 JUMP JUMPDEST PUSH1 0x0 DUP1 PUSH2 0xB12 PUSH1 0x30 PUSH2 0xAF3 PUSH4 0x1E13380 PUSH1 0x4 PUSH2 0x245B JUMP JUMPDEST PUSH2 0xAFD SWAP2 SWAP1 PUSH2 0x23C4 JUMP JUMPDEST PUSH1 0x7 SLOAD TIMESTAMP JUMPDEST PUSH2 0xB0C SWAP2 SWAP1 PUSH2 0x24B9 JUMP JUMPDEST SWAP1 PUSH2 0x1A1C JUMP JUMPDEST SWAP1 POP PUSH1 0x0 PUSH2 0xB1E PUSH2 0x1395 JUMP JUMPDEST PUSH1 0x0 DUP2 DUP2 MSTORE PUSH1 0x2 PUSH1 0x20 DUP2 SWAP1 MSTORE PUSH1 0x40 SWAP1 SWAP2 KECCAK256 SWAP1 DUP2 ADD SLOAD PUSH1 0x3 SWAP1 SWAP2 ADD SLOAD SWAP2 SWAP3 POP SWAP1 PUSH2 0xB4B DUP5 PUSH2 0xB0C DUP4 DUP6 PUSH2 0x1A1C JUMP JUMPDEST SWAP5 POP POP POP POP POP SWAP1 JUMP JUMPDEST PUSH1 0x0 SLOAD PUSH1 0xFF AND PUSH2 0xB77 JUMPI PUSH1 0x40 MLOAD PUSH4 0x6FDA65D PUSH1 0xE3 SHL DUP2 MSTORE PUSH1 0x4 ADD PUSH1 0x40 MLOAD DUP1 SWAP2 SUB SWAP1 REVERT JUMPDEST PUSH1 0x0 DUP1 SLOAD PUSH1 0xFF NOT AND SWAP1 SSTORE PUSH2 0xB89 PUSH2 0x1BCF JUMP JUMPDEST PUSH2 0xB92 DUP2 PUSH2 0x1FA1 JUMP JUMPDEST POP PUSH2 0x82B PUSH2 0x1DC5 JUMP JUMPDEST PUSH1 0x0 PUSH2 0xBB1 PUSH1 0x30 PUSH2 0xAF3 PUSH4 0x1E13380 PUSH1 0x4 PUSH2 0x245B JUMP JUMPDEST SWAP1 POP SWAP1 JUMP JUMPDEST PUSH1 0x0 DUP1 PUSH2 0xBD2 PUSH7 0xC3663566A58000 PUSH8 0xDE0B6B3A7640000 PUSH2 0x24B9 JUMP JUMPDEST SWAP1 POP PUSH1 0x0 PUSH2 0xBE1 DUP5 PUSH1 0x30 PUSH2 0x24B9 JUMP JUMPDEST SWAP1 POP PUSH8 0xDE0B6B3A7640000 PUSH1 0x0 JUMPDEST DUP3 DUP2 LT ISZERO PUSH2 0xC15 JUMPI PUSH2 0xC01 DUP3 DUP6 PUSH2 0x1A09 JUMP JUMPDEST SWAP2 POP DUP1 PUSH2 0xC0D DUP2 PUSH2 0x24D0 JUMP JUMPDEST SWAP2 POP POP PUSH2 0xBEF JUMP JUMPDEST POP PUSH2 0xC28 DUP2 PUSH8 0xDE0B6B3A7640000 PUSH2 0x24B9 JUMP JUMPDEST SWAP6 SWAP5 POP POP POP POP POP JUMP JUMPDEST PUSH1 0x1 PUSH1 0x1 PUSH1 0xA0 SHL SUB DUP3 DUP2 AND PUSH1 0x0 DUP2 DUP2 MSTORE PUSH1 0x3 PUSH1 0x20 DUP2 DUP2 MSTORE PUSH1 0x40 DUP1 DUP5 KECCAK256 DUP2 MLOAD PUSH1 0xC0 DUP2 ADD DUP4 MSTORE DUP2 SLOAD PUSH1 0xFF AND ISZERO ISZERO DUP2 MSTORE PUSH1 0x1 DUP1 DUP4 ADD SLOAD DUP3 DUP7 ADD MSTORE PUSH1 0x2 DUP4 ADD SLOAD DUP3 DUP6 ADD SWAP1 DUP2 MSTORE SWAP6 DUP4 ADD SLOAD PUSH1 0x60 DUP4 ADD SWAP1 DUP2 MSTORE PUSH1 0x4 DUP1 DUP6 ADD SLOAD PUSH1 0x80 DUP6 ADD MSTORE PUSH1 0x5 SWAP1 SWAP5 ADD SLOAD PUSH1 0xA0 DUP5 ADD MSTORE SWAP8 DUP8 MSTORE SWAP2 DUP5 MSTORE DUP3 DUP7 KECCAK256 SWAP8 DUP10 AND DUP7 MSTORE SWAP7 DUP4 MSTORE DUP2 DUP6 KECCAK256 DUP3 MLOAD DUP1 DUP5 ADD SWAP1 SWAP4 MSTORE DUP1 SLOAD DUP4 MSTORE ADD SLOAD SWAP2 DUP2 ADD SWAP2 SWAP1 SWAP2 MSTORE SWAP3 MLOAD SWAP1 MLOAD SWAP2 SWAP4 SWAP3 SWAP2 DUP5 TIMESTAMP SWAP1 POP DUP5 PUSH1 0x80 ADD MLOAD DUP2 GT DUP1 ISZERO PUSH2 0xCDB JUMPI POP DUP2 ISZERO ISZERO JUMPDEST ISZERO PUSH2 0xD4A JUMPI PUSH1 0x0 DUP6 PUSH1 0x80 ADD MLOAD DUP3 PUSH2 0xCF2 SWAP2 SWAP1 PUSH2 0x24B9 JUMP JUMPDEST SWAP1 POP PUSH1 0x0 PUSH1 0x6 SLOAD DUP8 PUSH1 0xA0 ADD MLOAD PUSH1 0x5 SLOAD DUP5 PUSH2 0xD0C SWAP2 SWAP1 PUSH2 0x245B JUMP JUMPDEST PUSH2 0xD16 SWAP2 SWAP1 PUSH2 0x245B JUMP JUMPDEST PUSH2 0xD20 SWAP2 SWAP1 PUSH2 0x23C4 JUMP JUMPDEST SWAP1 POP DUP4 PUSH2 0xD31 PUSH1 0x1 PUSH1 0xA0 SHL DUP4 PUSH2 0x245B JUMP JUMPDEST PUSH2 0xD3B SWAP2 SWAP1 PUSH2 0x23C4 JUMP JUMPDEST PUSH2 0xD45 SWAP1 DUP7 PUSH2 0x237E JUMP JUMPDEST SWAP5 POP POP POP JUMPDEST PUSH1 0x20 DUP5 ADD MLOAD DUP5 MLOAD PUSH1 0x1 PUSH1 0xA0 SHL SWAP1 PUSH2 0xD62 SWAP1 DUP7 SWAP1 PUSH2 0x245B JUMP JUMPDEST PUSH2 0xD6C SWAP2 SWAP1 PUSH2 0x23C4 JUMP JUMPDEST PUSH2 0xD76 SWAP2 SWAP1 PUSH2 0x247A JUMP JUMPDEST SWAP9 SWAP8 POP POP POP POP POP POP POP POP JUMP JUMPDEST PUSH1 0x0 SLOAD PUSH1 0xFF AND PUSH2 0xDA5 JUMPI PUSH1 0x40 MLOAD PUSH4 0x6FDA65D PUSH1 0xE3 SHL DUP2 MSTORE PUSH1 0x4 ADD PUSH1 0x40 MLOAD DUP1 SWAP2 SUB SWAP1 REVERT JUMPDEST PUSH1 0x0 DUP1 SLOAD PUSH1 0xFF NOT AND SWAP1 SSTORE PUSH2 0xDB7 PUSH2 0x1BCF JUMP JUMPDEST PUSH1 0x40 MLOAD PUSH4 0x1AD4C8C3 PUSH1 0xE0 SHL DUP2 MSTORE PUSH1 0x4 DUP2 ADD DUP6 SWAP1 MSTORE PUSH1 0x0 SWAP1 PUSH32 0x0 PUSH1 0x1 PUSH1 0x1 PUSH1 0xA0 SHL SUB AND SWAP1 PUSH4 0x1AD4C8C3 SWAP1 PUSH1 0x24 ADD PUSH1 0xA0 PUSH1 0x40 MLOAD DUP1 DUP4 SUB DUP2 DUP7 DUP1 EXTCODESIZE ISZERO DUP1 ISZERO PUSH2 0xE1A JUMPI PUSH1 0x0 DUP1 REVERT JUMPDEST POP GAS STATICCALL ISZERO DUP1 ISZERO PUSH2 0xE2E JUMPI RETURNDATASIZE PUSH1 0x0 DUP1 RETURNDATACOPY RETURNDATASIZE PUSH1 0x0 REVERT JUMPDEST POP POP POP POP PUSH1 0x40 MLOAD RETURNDATASIZE PUSH1 0x1F NOT PUSH1 0x1F DUP3 ADD AND DUP3 ADD DUP1 PUSH1 0x40 MSTORE POP DUP2 ADD SWAP1 PUSH2 0xE52 SWAP2 SWAP1 PUSH2 0x21DE JUMP JUMPDEST POP POP SWAP3 POP POP POP DUP1 PUSH1 0x1 PUSH1 0x1 PUSH1 0xA0 SHL SUB AND PUSH2 0xE69 CALLER SWAP1 JUMP JUMPDEST PUSH1 0x1 PUSH1 0x1 PUSH1 0xA0 SHL SUB AND EQ PUSH2 0xEA1 JUMPI PUSH1 0x40 MLOAD PUSH4 0x741D1AF9 PUSH1 0xE0 SHL DUP2 MSTORE PUSH1 0x1 PUSH1 0x1 PUSH1 0xA0 SHL SUB DUP3 AND PUSH1 0x4 DUP3 ADD MSTORE CALLER PUSH1 0x24 DUP3 ADD MSTORE PUSH1 0x44 ADD PUSH2 0x7D8 JUMP JUMPDEST PUSH1 0x0 PUSH2 0xEAC DUP3 PUSH2 0x1FA1 JUMP JUMPDEST PUSH1 0x1 PUSH1 0x1 PUSH1 0xA0 SHL SUB DUP1 DUP5 AND PUSH1 0x0 SWAP1 DUP2 MSTORE PUSH1 0x4 PUSH1 0x20 SWAP1 DUP2 MSTORE PUSH1 0x40 DUP1 DUP4 KECCAK256 SWAP4 DUP11 AND DUP4 MSTORE SWAP3 SWAP1 MSTORE SWAP1 DUP2 KECCAK256 SWAP2 SWAP3 POP DUP5 PUSH2 0xEE5 PUSH1 0x1 PUSH1 0x60 SHL DUP9 PUSH2 0x245B JUMP JUMPDEST PUSH2 0xEEF SWAP2 SWAP1 PUSH2 0x23C4 JUMP JUMPDEST DUP3 SLOAD SWAP1 SWAP2 POP PUSH1 0x0 SWAP1 PUSH2 0xF01 SWAP1 DUP4 PUSH2 0x247A JUMP JUMPDEST SWAP1 POP PUSH1 0x0 PUSH1 0x1 PUSH1 0xA0 SHL DUP6 PUSH1 0x60 ADD MLOAD DUP4 PUSH2 0xF1A SWAP2 SWAP1 PUSH2 0x23D8 JUMP JUMPDEST PUSH2 0xF24 SWAP2 SWAP1 PUSH2 0x2396 JUMP JUMPDEST DUP4 DUP6 SSTORE PUSH1 0x1 DUP6 ADD SLOAD SWAP1 SWAP2 POP PUSH2 0xF3A SWAP1 DUP3 SWAP1 PUSH2 0x233D JUMP JUMPDEST PUSH1 0x1 DUP6 ADD SSTORE PUSH1 0x40 DUP6 ADD MLOAD PUSH2 0xF4F SWAP1 DUP4 SWAP1 PUSH2 0x233D JUMP JUMPDEST PUSH1 0x1 PUSH1 0x1 PUSH1 0xA0 SHL SUB DUP8 DUP2 AND PUSH1 0x0 DUP2 DUP2 MSTORE PUSH1 0x3 PUSH1 0x20 SWAP1 DUP2 MSTORE PUSH1 0x40 SWAP2 DUP3 SWAP1 KECCAK256 PUSH1 0x2 ADD SWAP5 SWAP1 SWAP5 SSTORE DUP1 MLOAD DUP13 DUP2 MSTORE SWAP4 DUP5 ADD DUP12 SWAP1 MSTORE SWAP2 DUP13 AND SWAP3 SWAP1 SWAP2 PUSH32 0x480311339E24867C20766D1E5F3A5C61350017B8692491973D84CF032D60F35 SWAP2 ADD PUSH1 0x40 MLOAD DUP1 SWAP2 SUB SWAP1 LOG3 POP POP POP POP POP POP PUSH2 0xFBD PUSH2 0x1DC5 JUMP JUMPDEST POP POP PUSH1 0x0 DUP1 SLOAD PUSH1 0xFF NOT AND PUSH1 0x1 OR SWAP1 SSTORE POP POP JUMP JUMPDEST PUSH1 0x0 PUSH1 0x7 SLOAD PUSH2 0xFDC TIMESTAMP SWAP1 JUMP JUMPDEST PUSH2 0xFE6 SWAP2 SWAP1 PUSH2 0x24B9 JUMP JUMPDEST PUSH1 0x30 PUSH2 0xFF7 PUSH4 0x1E13380 PUSH1 0x4 PUSH2 0x245B JUMP JUMPDEST PUSH2 0x1001 SWAP2 SWAP1 PUSH2 0x23C4 JUMP JUMPDEST PUSH2 0xBB1 SWAP2 SWAP1 PUSH2 0x24B9 JUMP JUMPDEST PUSH1 0x0 SLOAD PUSH1 0xFF AND PUSH2 0x102E JUMPI PUSH1 0x40 MLOAD PUSH4 0x6FDA65D PUSH1 0xE3 SHL DUP2 MSTORE PUSH1 0x4 ADD PUSH1 0x40 MLOAD DUP1 SWAP2 SUB SWAP1 REVERT JUMPDEST PUSH1 0x0 DUP1 SLOAD PUSH1 0xFF NOT AND SWAP1 SSTORE PUSH2 0x1040 PUSH2 0x1BCF JUMP JUMPDEST PUSH2 0x1048 PUSH2 0x1CF3 JUMP JUMPDEST PUSH1 0x40 MLOAD PUSH4 0x1AD4C8C3 PUSH1 0xE0 SHL DUP2 MSTORE PUSH1 0x4 DUP2 ADD DUP4 SWAP1 MSTORE PUSH1 0x0 SWAP1 PUSH32 0x0 PUSH1 0x1 PUSH1 0x1 PUSH1 0xA0 SHL SUB AND SWAP1 PUSH4 0x1AD4C8C3 SWAP1 PUSH1 0x24 ADD PUSH1 0xA0 PUSH1 0x40 MLOAD DUP1 DUP4 SUB DUP2 DUP7 DUP1 EXTCODESIZE ISZERO DUP1 ISZERO PUSH2 0x10AB JUMPI PUSH1 0x0 DUP1 REVERT JUMPDEST POP GAS STATICCALL ISZERO DUP1 ISZERO PUSH2 0x10BF JUMPI RETURNDATASIZE PUSH1 0x0 DUP1 RETURNDATACOPY RETURNDATASIZE PUSH1 0x0 REVERT JUMPDEST POP POP POP POP PUSH1 0x40 MLOAD RETURNDATASIZE PUSH1 0x1F NOT PUSH1 0x1F DUP3 ADD AND DUP3 ADD DUP1 PUSH1 0x40 MSTORE POP DUP2 ADD SWAP1 PUSH2 0x10E3 SWAP2 SWAP1 PUSH2 0x21DE JUMP JUMPDEST POP POP PUSH1 0x1 PUSH1 0x1 PUSH1 0xA0 SHL SUB DUP2 AND PUSH1 0x0 SWAP1 DUP2 MSTORE PUSH1 0x3 PUSH1 0x20 MSTORE PUSH1 0x40 SWAP1 KECCAK256 DUP1 SLOAD SWAP2 SWAP5 POP SWAP3 POP PUSH1 0xFF AND ISZERO ISZERO PUSH1 0x1 EQ ISZERO SWAP1 POP PUSH2 0x113E JUMPI PUSH1 0x40 MLOAD PUSH4 0x62DA3A2B PUSH1 0xE1 SHL DUP2 MSTORE PUSH1 0x4 DUP2 ADD DUP6 SWAP1 MSTORE PUSH1 0x1 PUSH1 0x1 PUSH1 0xA0 SHL SUB DUP4 AND PUSH1 0x24 DUP3 ADD MSTORE PUSH1 0x44 ADD PUSH2 0x7D8 JUMP JUMPDEST DUP3 PUSH1 0x6 PUSH1 0x0 DUP3 DUP3 SLOAD PUSH2 0x1150 SWAP2 SWAP1 PUSH2 0x237E JUMP JUMPDEST SWAP1 SWAP2 SSTORE POP POP DUP1 SLOAD PUSH1 0x1 PUSH1 0xFF NOT SWAP1 SWAP2 AND DUP2 OR DUP3 SSTORE DUP1 DUP3 ADD DUP6 SWAP1 SSTORE PUSH1 0x5 DUP3 ADD DUP5 SWAP1 SSTORE DUP1 SLOAD DUP1 DUP3 ADD DUP3 SSTORE PUSH1 0x0 SWAP2 SWAP1 SWAP2 MSTORE PUSH32 0xB10E2D527612073B26EECDFD717E6A320CF44B4AFAC2B0732D9FCBE2B7FA0CF6 ADD DUP1 SLOAD PUSH1 0x1 PUSH1 0x1 PUSH1 0xA0 SHL SUB NOT AND PUSH1 0x1 PUSH1 0x1 PUSH1 0xA0 SHL SUB DUP5 AND SWAP1 DUP2 OR SWAP1 SWAP2 SSTORE PUSH1 0x40 MLOAD DUP5 DUP2 MSTORE DUP6 SWAP1 PUSH32 0x68BEA3F037520D478C14FD27A27947249AADE51810B62999AF0776BBD0097B96 SWAP1 PUSH1 0x20 ADD PUSH1 0x40 MLOAD DUP1 SWAP2 SUB SWAP1 LOG3 POP POP PUSH2 0x11FA PUSH2 0x1DC5 JUMP JUMPDEST POP POP PUSH1 0x0 DUP1 SLOAD PUSH1 0xFF NOT AND PUSH1 0x1 OR SWAP1 SSTORE JUMP JUMPDEST PUSH1 0x0 PUSH1 0x7 SLOAD PUSH2 0x1001 TIMESTAMP SWAP1 JUMP JUMPDEST PUSH1 0x0 DUP1 PUSH2 0x1222 PUSH2 0x1395 JUMP JUMPDEST SWAP1 POP PUSH2 0x880 DUP2 PUSH2 0x192A JUMP JUMPDEST PUSH1 0x0 SLOAD PUSH1 0xFF AND PUSH2 0x1250 JUMPI PUSH1 0x40 MLOAD PUSH4 0x6FDA65D PUSH1 0xE3 SHL DUP2 MSTORE PUSH1 0x4 ADD PUSH1 0x40 MLOAD DUP1 SWAP2 SUB SWAP1 REVERT JUMPDEST PUSH1 0x0 DUP1 SLOAD PUSH1 0xFF NOT AND SWAP1 SSTORE PUSH2 0x1262 PUSH2 0x1BCF JUMP JUMPDEST PUSH1 0x0 PUSH2 0x126D DUP4 PUSH2 0x1FA1 JUMP JUMPDEST PUSH1 0x1 PUSH1 0x1 PUSH1 0xA0 SHL SUB DUP5 AND PUSH1 0x0 SWAP1 DUP2 MSTORE PUSH1 0x4 PUSH1 0x20 SWAP1 DUP2 MSTORE PUSH1 0x40 DUP1 DUP4 KECCAK256 CALLER DUP5 MSTORE SWAP1 SWAP2 MSTORE DUP2 KECCAK256 PUSH1 0x60 DUP4 ADD MLOAD DUP2 SLOAD SWAP4 SWAP5 POP SWAP1 SWAP3 PUSH1 0x1 PUSH1 0xA0 SHL SWAP2 PUSH2 0x12AB SWAP2 PUSH2 0x245B JUMP JUMPDEST PUSH2 0x12B5 SWAP2 SWAP1 PUSH2 0x23C4 JUMP JUMPDEST SWAP1 POP PUSH1 0x0 DUP3 PUSH1 0x1 ADD SLOAD DUP3 PUSH2 0x12C9 SWAP2 SWAP1 PUSH2 0x247A JUMP JUMPDEST PUSH1 0x1 DUP5 ADD DUP4 SWAP1 SSTORE SWAP1 POP DUP1 ISZERO PUSH2 0x1346 JUMPI PUSH1 0x0 PUSH2 0x12E2 PUSH2 0x1395 JUMP JUMPDEST SWAP1 POP DUP2 PUSH1 0x2 PUSH1 0x0 DUP4 DUP2 MSTORE PUSH1 0x20 ADD SWAP1 DUP2 MSTORE PUSH1 0x20 ADD PUSH1 0x0 KECCAK256 PUSH1 0x3 ADD PUSH1 0x0 DUP3 DUP3 SLOAD PUSH2 0x130A SWAP2 SWAP1 PUSH2 0x237E JUMP JUMPDEST SWAP1 SWAP2 SSTORE POP PUSH2 0x1344 SWAP1 POP PUSH1 0x1 PUSH1 0x1 PUSH1 0xA0 SHL SUB PUSH32 0x0 AND DUP8 DUP5 PUSH2 0x1F2E JUMP JUMPDEST POP JUMPDEST PUSH1 0x40 DUP1 MLOAD CALLER DUP2 MSTORE PUSH1 0x20 DUP2 ADD DUP4 SWAP1 MSTORE DUP2 MLOAD PUSH1 0x1 PUSH1 0x1 PUSH1 0xA0 SHL SUB DUP10 AND SWAP3 PUSH32 0x56CC9CF62F5A3A4367575119E524522956236E34A9A06EAB7FCF9880B76B81CC SWAP3 DUP3 SWAP1 SUB ADD SWAP1 LOG2 POP POP POP POP PUSH2 0x11FA PUSH2 0x1DC5 JUMP JUMPDEST PUSH1 0x0 TIMESTAMP PUSH32 0x0 DUP2 LT PUSH2 0x13C7 JUMPI PUSH1 0x30 SWAP2 POP POP SWAP1 JUMP JUMPDEST PUSH1 0x30 PUSH2 0x13D8 PUSH4 0x1E13380 PUSH1 0x4 PUSH2 0x245B JUMP JUMPDEST PUSH2 0x13E2 SWAP2 SWAP1 PUSH2 0x23C4 JUMP JUMPDEST PUSH2 0x140C PUSH32 0x0 DUP4 PUSH2 0x24B9 JUMP JUMPDEST PUSH2 0x880 SWAP2 SWAP1 PUSH2 0x23C4 JUMP JUMPDEST PUSH1 0x0 PUSH2 0xBB1 TIMESTAMP PUSH32 0x0 PUSH2 0x24B9 JUMP JUMPDEST PUSH1 0x0 SLOAD PUSH1 0xFF AND PUSH2 0x1465 JUMPI PUSH1 0x40 MLOAD PUSH4 0x6FDA65D PUSH1 0xE3 SHL DUP2 MSTORE PUSH1 0x4 ADD PUSH1 0x40 MLOAD DUP1 SWAP2 SUB SWAP1 REVERT JUMPDEST PUSH1 0x0 DUP1 SLOAD PUSH1 0xFF NOT AND SWAP1 SSTORE PUSH2 0x1477 PUSH2 0x1BCF JUMP JUMPDEST PUSH2 0x147F PUSH2 0x1CF3 JUMP JUMPDEST PUSH1 0x40 MLOAD PUSH4 0x1AD4C8C3 PUSH1 0xE0 SHL DUP2 MSTORE PUSH1 0x4 DUP2 ADD DUP4 SWAP1 MSTORE PUSH1 0x0 SWAP1 PUSH32 0x0 PUSH1 0x1 PUSH1 0x1 PUSH1 0xA0 SHL SUB AND SWAP1 PUSH4 0x1AD4C8C3 SWAP1 PUSH1 0x24 ADD PUSH1 0xA0 PUSH1 0x40 MLOAD DUP1 DUP4 SUB DUP2 DUP7 DUP1 EXTCODESIZE ISZERO DUP1 ISZERO PUSH2 0x14E2 JUMPI PUSH1 0x0 DUP1 REVERT JUMPDEST POP GAS STATICCALL ISZERO DUP1 ISZERO PUSH2 0x14F6 JUMPI RETURNDATASIZE PUSH1 0x0 DUP1 RETURNDATACOPY RETURNDATASIZE PUSH1 0x0 REVERT JUMPDEST POP POP POP POP PUSH1 0x40 MLOAD RETURNDATASIZE PUSH1 0x1F NOT PUSH1 0x1F DUP3 ADD AND DUP3 ADD DUP1 PUSH1 0x40 MSTORE POP DUP2 ADD SWAP1 PUSH2 0x151A SWAP2 SWAP1 PUSH2 0x21DE JUMP JUMPDEST POP POP PUSH1 0x1 PUSH1 0x1 PUSH1 0xA0 SHL SUB DUP2 AND PUSH1 0x0 SWAP1 DUP2 MSTORE PUSH1 0x3 PUSH1 0x20 MSTORE PUSH1 0x40 SWAP1 KECCAK256 DUP1 SLOAD SWAP2 SWAP5 POP SWAP3 POP PUSH1 0xFF AND ISZERO ISZERO SWAP1 POP PUSH2 0x1571 JUMPI PUSH1 0x40 MLOAD PUSH4 0x316E8643 PUSH1 0xE0 SHL DUP2 MSTORE PUSH1 0x4 DUP2 ADD DUP6 SWAP1 MSTORE PUSH1 0x1 PUSH1 0x1 PUSH1 0xA0 SHL SUB DUP4 AND PUSH1 0x24 DUP3 ADD MSTORE PUSH1 0x44 ADD PUSH2 0x7D8 JUMP JUMPDEST PUSH1 0x5 DUP2 ADD SLOAD PUSH1 0x6 SLOAD DUP5 SWAP1 PUSH2 0x1586 SWAP1 DUP4 SWAP1 PUSH2 0x24B9 JUMP JUMPDEST PUSH2 0x1590 SWAP2 SWAP1 PUSH2 0x237E JUMP JUMPDEST PUSH1 0x6 SSTORE DUP4 PUSH2 0x1746 JUMPI DUP2 SLOAD PUSH1 0xFF NOT AND DUP3 SSTORE PUSH1 0x0 PUSH2 0x15AB PUSH1 0x1 SLOAD SWAP1 JUMP JUMPDEST SWAP1 POP PUSH1 0x0 PUSH1 0x1 DUP1 SLOAD DUP1 PUSH1 0x20 MUL PUSH1 0x20 ADD PUSH1 0x40 MLOAD SWAP1 DUP2 ADD PUSH1 0x40 MSTORE DUP1 SWAP3 SWAP2 SWAP1 DUP2 DUP2 MSTORE PUSH1 0x20 ADD DUP3 DUP1 SLOAD DUP1 ISZERO PUSH2 0x1605 JUMPI PUSH1 0x20 MUL DUP3 ADD SWAP2 SWAP1 PUSH1 0x0 MSTORE PUSH1 0x20 PUSH1 0x0 KECCAK256 SWAP1 JUMPDEST DUP2 SLOAD PUSH1 0x1 PUSH1 0x1 PUSH1 0xA0 SHL SUB AND DUP2 MSTORE PUSH1 0x1 SWAP1 SWAP2 ADD SWAP1 PUSH1 0x20 ADD DUP1 DUP4 GT PUSH2 0x15E7 JUMPI JUMPDEST POP POP POP POP POP SWAP1 POP PUSH1 0x0 JUMPDEST DUP3 DUP2 LT ISZERO PUSH2 0x1742 JUMPI DUP2 DUP2 DUP2 MLOAD DUP2 LT PUSH2 0x1637 JUMPI PUSH4 0x4E487B71 PUSH1 0xE0 SHL PUSH1 0x0 MSTORE PUSH1 0x32 PUSH1 0x4 MSTORE PUSH1 0x24 PUSH1 0x0 REVERT JUMPDEST PUSH1 0x20 MUL PUSH1 0x20 ADD ADD MLOAD PUSH1 0x1 PUSH1 0x1 PUSH1 0xA0 SHL SUB AND DUP7 PUSH1 0x1 PUSH1 0x1 PUSH1 0xA0 SHL SUB AND EQ ISZERO PUSH2 0x1730 JUMPI PUSH1 0x1 PUSH2 0x1664 DUP2 DUP6 PUSH2 0x24B9 JUMP JUMPDEST DUP2 SLOAD DUP2 LT PUSH2 0x1682 JUMPI PUSH4 0x4E487B71 PUSH1 0xE0 SHL PUSH1 0x0 MSTORE PUSH1 0x32 PUSH1 0x4 MSTORE PUSH1 0x24 PUSH1 0x0 REVERT JUMPDEST PUSH1 0x0 SWAP2 DUP3 MSTORE PUSH1 0x20 SWAP1 SWAP2 KECCAK256 ADD SLOAD PUSH1 0x1 DUP1 SLOAD PUSH1 0x1 PUSH1 0x1 PUSH1 0xA0 SHL SUB SWAP1 SWAP3 AND SWAP2 DUP4 SWAP1 DUP2 LT PUSH2 0x16BC JUMPI PUSH4 0x4E487B71 PUSH1 0xE0 SHL PUSH1 0x0 MSTORE PUSH1 0x32 PUSH1 0x4 MSTORE PUSH1 0x24 PUSH1 0x0 REVERT JUMPDEST SWAP1 PUSH1 0x0 MSTORE PUSH1 0x20 PUSH1 0x0 KECCAK256 ADD PUSH1 0x0 PUSH2 0x100 EXP DUP2 SLOAD DUP2 PUSH1 0x1 PUSH1 0x1 PUSH1 0xA0 SHL SUB MUL NOT AND SWAP1 DUP4 PUSH1 0x1 PUSH1 0x1 PUSH1 0xA0 SHL SUB AND MUL OR SWAP1 SSTORE POP PUSH1 0x1 DUP1 SLOAD DUP1 PUSH2 0x1709 JUMPI PUSH4 0x4E487B71 PUSH1 0xE0 SHL PUSH1 0x0 MSTORE PUSH1 0x31 PUSH1 0x4 MSTORE PUSH1 0x24 PUSH1 0x0 REVERT JUMPDEST PUSH1 0x0 DUP3 DUP2 MSTORE PUSH1 0x20 SWAP1 KECCAK256 DUP2 ADD PUSH1 0x0 NOT SWAP1 DUP2 ADD DUP1 SLOAD PUSH1 0x1 PUSH1 0x1 PUSH1 0xA0 SHL SUB NOT AND SWAP1 SSTORE ADD SWAP1 SSTORE PUSH2 0x1742 JUMP JUMPDEST DUP1 PUSH2 0x173A DUP2 PUSH2 0x24D0 JUMP JUMPDEST SWAP2 POP POP PUSH2 0x160F JUMP JUMPDEST POP POP POP JUMPDEST PUSH1 0x5 DUP3 ADD DUP5 SWAP1 SSTORE PUSH1 0x40 DUP1 MLOAD PUSH1 0x1 PUSH1 0x1 PUSH1 0xA0 SHL SUB DUP6 AND DUP2 MSTORE PUSH1 0x20 DUP2 ADD DUP4 SWAP1 MSTORE SWAP1 DUP2 ADD DUP6 SWAP1 MSTORE DUP6 SWAP1 PUSH32 0x9436A68F01CF8A4F756C053A98D6D88CDBD763A2D8AD77273779D054E2B82EEF SWAP1 PUSH1 0x60 ADD PUSH1 0x40 MLOAD DUP1 SWAP2 SUB SWAP1 LOG2 POP POP POP PUSH2 0x11FA PUSH2 0x1DC5 JUMP JUMPDEST PUSH1 0x0 PUSH2 0xBB1 PUSH2 0x17B8 PUSH4 0x1E13380 PUSH1 0x4 PUSH2 0x245B JUMP JUMPDEST PUSH32 0x0 TIMESTAMP PUSH2 0xB02 JUMP JUMPDEST PUSH1 0x0 SLOAD PUSH1 0xFF AND PUSH2 0x1802 JUMPI PUSH1 0x40 MLOAD PUSH4 0x6FDA65D PUSH1 0xE3 SHL DUP2 MSTORE PUSH1 0x4 ADD PUSH1 0x40 MLOAD DUP1 SWAP2 SUB SWAP1 REVERT JUMPDEST PUSH1 0x0 DUP1 SLOAD PUSH1 0xFF NOT AND SWAP1 SSTORE PUSH2 0x1814 PUSH2 0x1BCF JUMP JUMPDEST PUSH1 0x0 PUSH2 0x181F PUSH1 0x1 SLOAD SWAP1 JUMP JUMPDEST SWAP1 POP PUSH1 0x0 PUSH1 0x1 DUP1 SLOAD DUP1 PUSH1 0x20 MUL PUSH1 0x20 ADD PUSH1 0x40 MLOAD SWAP1 DUP2 ADD PUSH1 0x40 MSTORE DUP1 SWAP3 SWAP2 SWAP1 DUP2 DUP2 MSTORE PUSH1 0x20 ADD DUP3 DUP1 SLOAD DUP1 ISZERO PUSH2 0x1879 JUMPI PUSH1 0x20 MUL DUP3 ADD SWAP2 SWAP1 PUSH1 0x0 MSTORE PUSH1 0x20 PUSH1 0x0 KECCAK256 SWAP1 JUMPDEST DUP2 SLOAD PUSH1 0x1 PUSH1 0x1 PUSH1 0xA0 SHL SUB AND DUP2 MSTORE PUSH1 0x1 SWAP1 SWAP2 ADD SWAP1 PUSH1 0x20 ADD DUP1 DUP4 GT PUSH2 0x185B JUMPI JUMPDEST POP POP POP POP POP SWAP1 POP PUSH1 0x0 JUMPDEST DUP3 DUP2 LT ISZERO PUSH2 0x18CE JUMPI PUSH2 0x18BB DUP3 DUP3 DUP2 MLOAD DUP2 LT PUSH2 0x18AE JUMPI PUSH4 0x4E487B71 PUSH1 0xE0 SHL PUSH1 0x0 MSTORE PUSH1 0x32 PUSH1 0x4 MSTORE PUSH1 0x24 PUSH1 0x0 REVERT JUMPDEST PUSH1 0x20 MUL PUSH1 0x20 ADD ADD MLOAD PUSH2 0x1FA1 JUMP JUMPDEST POP DUP1 PUSH2 0x18C6 DUP2 PUSH2 0x24D0 JUMP JUMPDEST SWAP2 POP POP PUSH2 0x1883 JUMP JUMPDEST POP PUSH32 0x43604600D5D5B743877B9625896FEA0414A17136BBE657753A96DC6F80EDE1B9 DUP3 CALLER PUSH2 0x18FA PUSH2 0x1395 JUMP JUMPDEST PUSH1 0x40 DUP1 MLOAD SWAP4 DUP5 MSTORE PUSH1 0x1 PUSH1 0x1 PUSH1 0xA0 SHL SUB SWAP1 SWAP3 AND PUSH1 0x20 DUP5 ADD MSTORE SWAP1 DUP3 ADD MSTORE PUSH1 0x60 ADD PUSH1 0x40 MLOAD DUP1 SWAP2 SUB SWAP1 LOG1 POP POP PUSH2 0xA3C PUSH2 0x1DC5 JUMP JUMPDEST PUSH1 0x0 DUP1 PUSH1 0x0 JUMPDEST DUP4 DUP2 GT PUSH2 0x1982 JUMPI PUSH2 0x1962 PUSH2 0x1943 DUP3 PUSH2 0xBB6 JUMP JUMPDEST PUSH2 0xB0C PUSH7 0xC3663566A58000 DUP6 PUSH1 0x8 SLOAD PUSH2 0x195C SWAP2 SWAP1 PUSH2 0x24B9 JUMP JUMPDEST SWAP1 PUSH2 0x1A09 JUMP JUMPDEST SWAP3 POP PUSH2 0x196E DUP4 DUP4 PUSH2 0x237E JUMP JUMPDEST SWAP2 POP DUP1 PUSH2 0x197A DUP2 PUSH2 0x24D0 JUMP JUMPDEST SWAP2 POP POP PUSH2 0x1930 JUMP JUMPDEST POP POP SWAP2 SWAP1 POP JUMP JUMPDEST PUSH1 0x0 DUP1 DUP1 DUP1 JUMPDEST DUP5 DUP2 GT PUSH2 0x19DB JUMPI PUSH2 0x19BB PUSH2 0x19A2 DUP3 PUSH2 0xBB6 JUMP JUMPDEST PUSH2 0xB0C PUSH7 0xC3663566A58000 DUP7 PUSH1 0x8 SLOAD PUSH2 0x195C SWAP2 SWAP1 PUSH2 0x24B9 JUMP JUMPDEST SWAP2 POP PUSH2 0x19C7 DUP3 DUP5 PUSH2 0x237E JUMP JUMPDEST SWAP3 POP DUP1 PUSH2 0x19D3 DUP2 PUSH2 0x24D0 JUMP JUMPDEST SWAP2 POP POP PUSH2 0x198F JUMP JUMPDEST POP PUSH1 0x30 PUSH2 0x19ED PUSH4 0x1E13380 PUSH1 0x4 PUSH2 0x245B JUMP JUMPDEST PUSH2 0x19F7 SWAP2 SWAP1 PUSH2 0x23C4 JUMP JUMPDEST PUSH2 0x1A01 SWAP1 DUP3 PUSH2 0x23C4 JUMP JUMPDEST SWAP5 SWAP4 POP POP POP POP JUMP JUMPDEST PUSH1 0x0 PUSH2 0x1A15 DUP4 DUP4 PUSH2 0x1A31 JUMP JUMPDEST SWAP4 SWAP3 POP POP POP JUMP JUMPDEST PUSH1 0x0 PUSH2 0x1A15 DUP4 PUSH8 0xDE0B6B3A7640000 DUP5 PUSH2 0x1AF4 JUMP JUMPDEST PUSH1 0x0 DUP1 DUP1 PUSH1 0x0 NOT DUP5 DUP7 MULMOD DUP5 DUP7 MUL SWAP3 POP DUP3 DUP2 LT DUP4 DUP3 SUB SUB SWAP2 POP POP PUSH8 0xDE0B6B3A7640000 DUP2 LT PUSH2 0x1A75 JUMPI PUSH1 0x40 MLOAD PUSH4 0x698D9A01 PUSH1 0xE1 SHL DUP2 MSTORE PUSH1 0x4 DUP2 ADD DUP3 SWAP1 MSTORE PUSH1 0x24 ADD PUSH2 0x7D8 JUMP JUMPDEST PUSH1 0x0 DUP1 PUSH8 0xDE0B6B3A7640000 DUP7 DUP9 MULMOD SWAP2 POP POP PUSH8 0x6F05B59D3B1FFFF DUP2 GT DUP3 PUSH2 0x1AAF JUMPI DUP1 PUSH8 0xDE0B6B3A7640000 DUP6 DIV ADD SWAP5 POP POP POP POP POP PUSH2 0x1AEE JUMP JUMPDEST PUSH3 0x40000 DUP3 DUP6 SUB DIV SWAP4 SWAP1 SWAP2 GT SWAP1 SWAP2 SUB PUSH1 0x1 PUSH1 0xEE SHL MUL SWAP2 SWAP1 SWAP2 OR PUSH32 0xACCB18165BD6FE31AE1CF318DC5B51EEE0E1BA569B88CD74C1773B91FAC10669 MUL ADD SWAP1 POP JUMPDEST SWAP3 SWAP2 POP POP JUMP JUMPDEST PUSH1 0x0 DUP1 DUP1 PUSH1 0x0 NOT DUP6 DUP8 MULMOD DUP6 DUP8 MUL SWAP3 POP DUP3 DUP2 LT DUP4 DUP3 SUB SUB SWAP2 POP POP DUP1 PUSH1 0x0 EQ ISZERO PUSH2 0x1B3D JUMPI DUP4 DUP3 DUP2 PUSH2 0x1B33 JUMPI PUSH4 0x4E487B71 PUSH1 0xE0 SHL PUSH1 0x0 MSTORE PUSH1 0x12 PUSH1 0x4 MSTORE PUSH1 0x24 PUSH1 0x0 REVERT JUMPDEST DIV SWAP3 POP POP POP PUSH2 0x1A15 JUMP JUMPDEST DUP4 DUP2 LT PUSH2 0x1B67 JUMPI PUSH1 0x40 MLOAD PUSH4 0x1DCF3063 PUSH1 0xE2 SHL DUP2 MSTORE PUSH1 0x4 DUP2 ADD DUP3 SWAP1 MSTORE PUSH1 0x24 DUP2 ADD DUP6 SWAP1 MSTORE PUSH1 0x44 ADD PUSH2 0x7D8 JUMP JUMPDEST PUSH1 0x0 DUP5 DUP7 DUP9 MULMOD PUSH1 0x2 PUSH1 0x3 PUSH1 0x1 DUP9 NOT DUP2 ADD DUP10 AND SWAP9 DUP10 SWAP1 DIV SWAP2 DUP3 MUL DUP4 XOR DUP1 DUP4 MUL DUP5 SUB MUL DUP1 DUP4 MUL DUP5 SUB MUL DUP1 DUP4 MUL DUP5 SUB MUL DUP1 DUP4 MUL DUP5 SUB MUL DUP1 DUP4 MUL DUP5 SUB MUL SWAP2 DUP3 MUL SWAP1 SWAP3 SUB MUL PUSH1 0x0 DUP9 SWAP1 SUB DUP9 SWAP1 DIV SWAP1 SWAP2 ADD DUP6 DUP4 GT SWAP1 SWAP5 SUB SWAP4 SWAP1 SWAP4 MUL SWAP4 SUB SWAP5 SWAP1 SWAP5 DIV SWAP2 SWAP1 SWAP2 OR MUL SWAP5 SWAP4 POP POP POP POP JUMP JUMPDEST PUSH1 0x7 SLOAD TIMESTAMP SWAP1 PUSH1 0x0 SWAP1 PUSH2 0x1BE1 SWAP1 DUP4 PUSH2 0x24B9 JUMP JUMPDEST SWAP1 POP PUSH1 0x0 PUSH1 0x30 PUSH2 0x1BF6 PUSH4 0x1E13380 PUSH1 0x4 PUSH2 0x245B JUMP JUMPDEST PUSH2 0x1C00 SWAP2 SWAP1 PUSH2 0x23C4 JUMP JUMPDEST PUSH2 0x1C0A SWAP1 DUP4 PUSH2 0x23C4 JUMP JUMPDEST SWAP1 POP DUP1 ISZERO PUSH2 0x1CEE JUMPI PUSH1 0x0 PUSH2 0x1C1C PUSH2 0x1395 JUMP JUMPDEST SWAP1 POP PUSH1 0x30 DUP2 LT ISZERO PUSH2 0x1CEC JUMPI PUSH1 0x5 SLOAD PUSH2 0x1C33 DUP3 PUSH2 0x1989 JUMP JUMPDEST PUSH1 0x5 SSTORE PUSH1 0x7 DUP6 SWAP1 SSTORE PUSH1 0x0 DUP3 DUP2 MSTORE PUSH1 0x2 PUSH1 0x20 MSTORE PUSH1 0x40 SWAP1 KECCAK256 PUSH1 0x4 DUP1 DUP3 ADD DUP8 SWAP1 SSTORE PUSH1 0x30 SWAP1 PUSH2 0x1C63 SWAP1 PUSH4 0x1E13380 SWAP1 PUSH2 0x245B JUMP JUMPDEST PUSH2 0x1C6D SWAP2 SWAP1 PUSH2 0x23C4 JUMP JUMPDEST PUSH2 0x1C77 SWAP1 DUP8 PUSH2 0x237E JUMP JUMPDEST PUSH1 0x5 DUP1 DUP4 ADD SWAP2 SWAP1 SWAP2 SSTORE DUP4 DUP3 SSTORE SLOAD PUSH1 0x1 DUP3 ADD SSTORE PUSH2 0x1C92 DUP4 PUSH2 0x192A JUMP JUMPDEST PUSH1 0x2 DUP3 ADD SSTORE PUSH32 0xCC53A96DDDB8D3B8710C4932D9E90652A4EAEF0BF4C37A13DC4D806E1B54CB4D PUSH2 0x1CC3 PUSH1 0x1 DUP6 PUSH2 0x24B9 JUMP JUMPDEST PUSH1 0x5 SLOAD PUSH1 0x40 DUP1 MLOAD SWAP3 DUP4 MSTORE PUSH1 0x20 DUP4 ADD DUP8 SWAP1 MSTORE DUP3 ADD DUP6 SWAP1 MSTORE PUSH1 0x60 DUP3 ADD MSTORE PUSH1 0x80 ADD PUSH1 0x40 MLOAD DUP1 SWAP2 SUB SWAP1 LOG1 POP POP JUMPDEST POP JUMPDEST POP POP POP JUMP JUMPDEST PUSH1 0x0 PUSH32 0x0 PUSH1 0x1 PUSH1 0x1 PUSH1 0xA0 SHL SUB AND PUSH4 0xF851A440 PUSH1 0x40 MLOAD DUP2 PUSH4 0xFFFFFFFF AND PUSH1 0xE0 SHL DUP2 MSTORE PUSH1 0x4 ADD PUSH1 0x20 PUSH1 0x40 MLOAD DUP1 DUP4 SUB DUP2 DUP7 DUP1 EXTCODESIZE ISZERO DUP1 ISZERO PUSH2 0x1D4E JUMPI PUSH1 0x0 DUP1 REVERT JUMPDEST POP GAS STATICCALL ISZERO DUP1 ISZERO PUSH2 0x1D62 JUMPI RETURNDATASIZE PUSH1 0x0 DUP1 RETURNDATACOPY RETURNDATASIZE PUSH1 0x0 REVERT JUMPDEST POP POP POP POP PUSH1 0x40 MLOAD RETURNDATASIZE PUSH1 0x1F NOT PUSH1 0x1F DUP3 ADD AND DUP3 ADD DUP1 PUSH1 0x40 MSTORE POP DUP2 ADD SWAP1 PUSH2 0x1D86 SWAP2 SWAP1 PUSH2 0x218A JUMP JUMPDEST SWAP1 POP CALLER PUSH1 0x1 PUSH1 0x1 PUSH1 0xA0 SHL SUB DUP3 AND EQ PUSH2 0x1DC2 JUMPI PUSH1 0x40 MLOAD PUSH4 0x5113AFBD PUSH1 0xE0 SHL DUP2 MSTORE PUSH1 0x1 PUSH1 0x1 PUSH1 0xA0 SHL SUB DUP3 AND PUSH1 0x4 DUP3 ADD MSTORE CALLER PUSH1 0x24 DUP3 ADD MSTORE PUSH1 0x44 ADD PUSH2 0x7D8 JUMP JUMPDEST POP JUMP JUMPDEST PUSH1 0x0 PUSH2 0x1DCF PUSH2 0x1395 JUMP JUMPDEST SWAP1 POP PUSH1 0x30 DUP2 LT ISZERO PUSH2 0x1DDD JUMPI POP JUMP JUMPDEST PUSH1 0x0 PUSH32 0x0 PUSH1 0x1 PUSH1 0x1 PUSH1 0xA0 SHL SUB AND PUSH4 0xF851A440 PUSH1 0x40 MLOAD DUP2 PUSH4 0xFFFFFFFF AND PUSH1 0xE0 SHL DUP2 MSTORE PUSH1 0x4 ADD PUSH1 0x20 PUSH1 0x40 MLOAD DUP1 DUP4 SUB DUP2 DUP7 DUP1 EXTCODESIZE ISZERO DUP1 ISZERO PUSH2 0x1E38 JUMPI PUSH1 0x0 DUP1 REVERT JUMPDEST POP GAS STATICCALL ISZERO DUP1 ISZERO PUSH2 0x1E4C JUMPI RETURNDATASIZE PUSH1 0x0 DUP1 RETURNDATACOPY RETURNDATASIZE PUSH1 0x0 REVERT JUMPDEST POP POP POP POP PUSH1 0x40 MLOAD RETURNDATASIZE PUSH1 0x1F NOT PUSH1 0x1F DUP3 ADD AND DUP3 ADD DUP1 PUSH1 0x40 MSTORE POP DUP2 ADD SWAP1 PUSH2 0x1E70 SWAP2 SWAP1 PUSH2 0x218A JUMP JUMPDEST PUSH1 0x40 DUP1 MLOAD CALLER DUP2 MSTORE PUSH32 0x0 PUSH1 0x20 DUP3 ADD MSTORE PUSH32 0x0 DUP2 DUP4 ADD MSTORE PUSH1 0x60 DUP2 ADD DUP6 SWAP1 MSTORE SWAP1 MLOAD SWAP2 SWAP3 POP PUSH32 0x3448D68E439B81DF30DBD68606F415F65C9EABAAEF0ACA1FFC0368CC3954C6DC SWAP2 SWAP1 DUP2 SWAP1 SUB PUSH1 0x80 ADD SWAP1 LOG1 DUP1 PUSH1 0x1 PUSH1 0x1 PUSH1 0xA0 SHL SUB AND SELFDESTRUCT JUMPDEST PUSH1 0x0 PUSH4 0x70A08231 PUSH1 0x0 MSTORE DUP2 PUSH1 0x20 MSTORE PUSH1 0x20 DUP1 PUSH1 0x24 PUSH1 0x1C DUP7 GAS STATICCALL PUSH1 0x1F RETURNDATASIZE GT AND PUSH1 0x20 MLOAD MUL SWAP1 POP SWAP3 SWAP2 POP POP JUMP JUMPDEST DUP2 PUSH1 0x1A MSTORE DUP1 PUSH1 0x3A MSTORE PUSH10 0xA9059CBB000000000000 PUSH1 0x0 MSTORE PUSH1 0x20 PUSH1 0x0 PUSH1 0x44 PUSH1 0x16 PUSH1 0x0 DUP8 GAS CALL RETURNDATASIZE ISZERO PUSH1 0x1 PUSH1 0x0 MLOAD EQ OR AND PUSH2 0x1F6D JUMPI PUSH4 0x90B8EC18 PUSH1 0x0 MSTORE PUSH1 0x4 PUSH1 0x1C REVERT JUMPDEST PUSH1 0x0 PUSH1 0x3A MSTORE POP POP POP JUMP JUMPDEST CALLER ORIGIN EQ PUSH2 0x1F9F JUMPI PUSH1 0x40 MLOAD PUSH4 0x1F0F5933 PUSH1 0xE1 SHL DUP2 MSTORE CALLER PUSH1 0x4 DUP3 ADD MSTORE ORIGIN PUSH1 0x24 DUP3 ADD MSTORE PUSH1 0x44 ADD PUSH2 0x7D8 JUMP JUMPDEST JUMP JUMPDEST PUSH2 0x1FDC PUSH1 0x40 MLOAD DUP1 PUSH1 0xC0 ADD PUSH1 0x40 MSTORE DUP1 PUSH1 0x0 ISZERO ISZERO DUP2 MSTORE PUSH1 0x20 ADD PUSH1 0x0 DUP2 MSTORE PUSH1 0x20 ADD PUSH1 0x0 DUP2 MSTORE PUSH1 0x20 ADD PUSH1 0x0 DUP2 MSTORE PUSH1 0x20 ADD PUSH1 0x0 DUP2 MSTORE PUSH1 0x20 ADD PUSH1 0x0 DUP2 MSTORE POP SWAP1 JUMP JUMPDEST POP PUSH1 0x1 PUSH1 0x1 PUSH1 0xA0 SHL SUB DUP2 AND PUSH1 0x0 SWAP1 DUP2 MSTORE PUSH1 0x3 PUSH1 0x20 DUP2 DUP2 MSTORE PUSH1 0x40 SWAP3 DUP4 SWAP1 KECCAK256 DUP4 MLOAD PUSH1 0xC0 DUP2 ADD DUP6 MSTORE DUP2 SLOAD PUSH1 0xFF AND ISZERO ISZERO DUP2 MSTORE PUSH1 0x1 DUP3 ADD SLOAD SWAP3 DUP2 ADD SWAP3 SWAP1 SWAP3 MSTORE PUSH1 0x2 DUP2 ADD SLOAD SWAP4 DUP3 ADD SWAP4 SWAP1 SWAP4 MSTORE SWAP1 DUP3 ADD SLOAD PUSH1 0x60 DUP3 ADD MSTORE PUSH1 0x4 DUP3 ADD SLOAD PUSH1 0x80 DUP3 ADD DUP2 SWAP1 MSTORE PUSH1 0x5 SWAP1 SWAP3 ADD SLOAD PUSH1 0xA0 DUP3 ADD MSTORE SWAP1 TIMESTAMP SWAP1 DUP2 GT ISZERO PUSH2 0x2168 JUMPI PUSH1 0x40 DUP3 ADD MLOAD DUP1 ISZERO PUSH2 0x20C9 JUMPI PUSH1 0x0 DUP4 PUSH1 0x80 ADD MLOAD DUP4 PUSH2 0x2069 SWAP2 SWAP1 PUSH2 0x24B9 JUMP JUMPDEST SWAP1 POP PUSH1 0x0 PUSH1 0x6 SLOAD DUP6 PUSH1 0xA0 ADD MLOAD PUSH1 0x5 SLOAD DUP5 PUSH2 0x2083 SWAP2 SWAP1 PUSH2 0x245B JUMP JUMPDEST PUSH2 0x208D SWAP2 SWAP1 PUSH2 0x245B JUMP JUMPDEST PUSH2 0x2097 SWAP2 SWAP1 PUSH2 0x23C4 JUMP JUMPDEST SWAP1 POP DUP3 PUSH2 0x20A8 PUSH1 0x1 PUSH1 0xA0 SHL DUP4 PUSH2 0x245B JUMP JUMPDEST PUSH2 0x20B2 SWAP2 SWAP1 PUSH2 0x23C4 JUMP JUMPDEST DUP6 PUSH1 0x60 ADD MLOAD PUSH2 0x20C1 SWAP2 SWAP1 PUSH2 0x237E JUMP JUMPDEST PUSH1 0x60 DUP7 ADD MSTORE POP POP JUMPDEST PUSH1 0x80 DUP4 ADD DUP3 DUP2 MSTORE PUSH1 0x1 PUSH1 0x1 PUSH1 0xA0 SHL SUB DUP6 AND PUSH1 0x0 DUP2 DUP2 MSTORE PUSH1 0x3 PUSH1 0x20 DUP2 DUP2 MSTORE PUSH1 0x40 SWAP3 DUP4 SWAP1 KECCAK256 DUP9 MLOAD DUP2 SLOAD PUSH1 0xFF NOT AND SWAP1 ISZERO ISZERO OR DUP2 SSTORE DUP2 DUP10 ADD MLOAD PUSH1 0x1 DUP3 ADD SSTORE DUP4 DUP10 ADD MLOAD PUSH1 0x2 DUP3 ADD SSTORE PUSH1 0x60 DUP1 DUP11 ADD MLOAD SWAP4 DUP3 ADD DUP5 SWAP1 SSTORE SWAP6 MLOAD PUSH1 0x4 DUP3 ADD SSTORE PUSH1 0xA0 DUP10 ADD MLOAD PUSH1 0x5 SWAP1 SWAP2 ADD SSTORE DUP3 MLOAD DUP8 DUP2 MSTORE SWAP1 DUP2 ADD DUP7 SWAP1 MSTORE SWAP2 DUP3 ADD MSTORE SWAP1 SWAP2 PUSH32 0x76E5C786DD7C9C1CD87203F33DBC49D953FF07B99DE74BAA864F04A0E3B6AA1C SWAP2 ADD PUSH1 0x40 MLOAD DUP1 SWAP2 SUB SWAP1 LOG2 POP JUMPDEST POP SWAP2 SWAP1 POP JUMP JUMPDEST PUSH1 0x0 PUSH1 0x20 DUP3 DUP5 SUB SLT ISZERO PUSH2 0x217F JUMPI DUP1 DUP2 REVERT JUMPDEST DUP2 CALLDATALOAD PUSH2 0x1A15 DUP2 PUSH2 0x2517 JUMP JUMPDEST PUSH1 0x0 PUSH1 0x20 DUP3 DUP5 SUB SLT ISZERO PUSH2 0x219B JUMPI DUP1 DUP2 REVERT JUMPDEST DUP2 MLOAD PUSH2 0x1A15 DUP2 PUSH2 0x2517 JUMP JUMPDEST PUSH1 0x0 DUP1 PUSH1 0x40 DUP4 DUP6 SUB SLT ISZERO PUSH2 0x21B8 JUMPI DUP1 DUP2 REVERT JUMPDEST DUP3 CALLDATALOAD PUSH2 0x21C3 DUP2 PUSH2 0x2517 JUMP JUMPDEST SWAP2 POP PUSH1 0x20 DUP4 ADD CALLDATALOAD PUSH2 0x21D3 DUP2 PUSH2 0x2517 JUMP JUMPDEST DUP1 SWAP2 POP POP SWAP3 POP SWAP3 SWAP1 POP JUMP JUMPDEST PUSH1 0x0 DUP1 PUSH1 0x0 DUP1 PUSH1 0x0 PUSH1 0xA0 DUP7 DUP9 SUB SLT ISZERO PUSH2 0x21F5 JUMPI DUP1 DUP2 REVERT JUMPDEST DUP6 MLOAD DUP1 ISZERO ISZERO DUP2 EQ PUSH2 0x2204 JUMPI DUP2 DUP3 REVERT JUMPDEST PUSH1 0x20 DUP8 ADD MLOAD SWAP1 SWAP6 POP PUSH11 0xFFFFFFFFFFFFFFFFFFFFFF DUP2 AND DUP2 EQ PUSH2 0x2224 JUMPI DUP2 DUP3 REVERT JUMPDEST PUSH1 0x40 DUP8 ADD MLOAD SWAP1 SWAP5 POP PUSH2 0x2235 DUP2 PUSH2 0x2517 JUMP JUMPDEST PUSH1 0x60 DUP8 ADD MLOAD SWAP1 SWAP4 POP PUSH2 0x2246 DUP2 PUSH2 0x2517 JUMP JUMPDEST PUSH1 0x80 DUP8 ADD MLOAD SWAP1 SWAP3 POP PUSH12 0xFFFFFFFFFFFFFFFFFFFFFFFF DUP2 AND DUP2 EQ PUSH2 0x2267 JUMPI DUP2 DUP3 REVERT JUMPDEST DUP1 SWAP2 POP POP SWAP3 SWAP6 POP SWAP3 SWAP6 SWAP1 SWAP4 POP JUMP JUMPDEST PUSH1 0x0 PUSH1 0x20 DUP3 DUP5 SUB SLT ISZERO PUSH2 0x2286 JUMPI DUP1 DUP2 REVERT JUMPDEST POP CALLDATALOAD SWAP2 SWAP1 POP JUMP JUMPDEST PUSH1 0x0 DUP1 PUSH1 0x0 DUP1 PUSH1 0x80 DUP6 DUP8 SUB SLT ISZERO PUSH2 0x22A2 JUMPI DUP4 DUP5 REVERT JUMPDEST DUP5 CALLDATALOAD SWAP4 POP PUSH1 0x20 DUP6 ADD CALLDATALOAD PUSH2 0x22B4 DUP2 PUSH2 0x2517 JUMP JUMPDEST SWAP4 SWAP7 SWAP4 SWAP6 POP POP POP POP PUSH1 0x40 DUP3 ADD CALLDATALOAD SWAP2 PUSH1 0x60 ADD CALLDATALOAD SWAP1 JUMP JUMPDEST PUSH1 0x0 DUP1 PUSH1 0x40 DUP4 DUP6 SUB SLT ISZERO PUSH2 0x22DB JUMPI DUP2 DUP3 REVERT JUMPDEST POP POP DUP1 CALLDATALOAD SWAP3 PUSH1 0x20 SWAP1 SWAP2 ADD CALLDATALOAD SWAP2 POP JUMP JUMPDEST PUSH1 0x0 PUSH1 0x20 DUP1 DUP4 MSTORE DUP4 MLOAD DUP1 DUP3 DUP6 ADD MSTORE DUP3 JUMPDEST DUP2 DUP2 LT ISZERO PUSH2 0x2316 JUMPI DUP6 DUP2 ADD DUP4 ADD MLOAD DUP6 DUP3 ADD PUSH1 0x40 ADD MSTORE DUP3 ADD PUSH2 0x22FA JUMP JUMPDEST DUP2 DUP2 GT ISZERO PUSH2 0x2327 JUMPI DUP4 PUSH1 0x40 DUP4 DUP8 ADD ADD MSTORE JUMPDEST POP PUSH1 0x1F ADD PUSH1 0x1F NOT AND SWAP3 SWAP1 SWAP3 ADD PUSH1 0x40 ADD SWAP4 SWAP3 POP POP POP JUMP JUMPDEST PUSH1 0x0 DUP1 DUP3 SLT DUP1 ISZERO PUSH1 0x1 PUSH1 0x1 PUSH1 0xFF SHL SUB DUP5 SWAP1 SUB DUP6 SGT AND ISZERO PUSH2 0x235F JUMPI PUSH2 0x235F PUSH2 0x24EB JUMP JUMPDEST PUSH1 0x1 PUSH1 0xFF SHL DUP4 SWAP1 SUB DUP5 SLT DUP2 AND ISZERO PUSH2 0x2378 JUMPI PUSH2 0x2378 PUSH2 0x24EB JUMP JUMPDEST POP POP ADD SWAP1 JUMP JUMPDEST PUSH1 0x0 DUP3 NOT DUP3 GT ISZERO PUSH2 0x2391 JUMPI PUSH2 0x2391 PUSH2 0x24EB JUMP JUMPDEST POP ADD SWAP1 JUMP JUMPDEST PUSH1 0x0 DUP3 PUSH2 0x23A5 JUMPI PUSH2 0x23A5 PUSH2 0x2501 JUMP JUMPDEST PUSH1 0x1 PUSH1 0xFF SHL DUP3 EQ PUSH1 0x0 NOT DUP5 EQ AND ISZERO PUSH2 0x23BF JUMPI PUSH2 0x23BF PUSH2 0x24EB JUMP JUMPDEST POP SDIV SWAP1 JUMP JUMPDEST PUSH1 0x0 DUP3 PUSH2 0x23D3 JUMPI PUSH2 0x23D3 PUSH2 0x2501 JUMP JUMPDEST POP DIV SWAP1 JUMP JUMPDEST PUSH1 0x0 PUSH1 0x1 PUSH1 0x1 PUSH1 0xFF SHL SUB DUP2 DUP5 SGT DUP3 DUP5 SGT DUP1 DUP3 AND DUP7 DUP5 DIV DUP7 GT AND ISZERO PUSH2 0x23FE JUMPI PUSH2 0x23FE PUSH2 0x24EB JUMP JUMPDEST PUSH1 0x1 PUSH1 0xFF SHL DUP5 DUP8 SLT DUP3 DUP2 AND DUP8 DUP4 SDIV DUP10 SLT AND ISZERO PUSH2 0x241C JUMPI PUSH2 0x241C PUSH2 0x24EB JUMP JUMPDEST DUP6 DUP8 SLT SWAP3 POP DUP8 DUP3 SDIV DUP8 SLT DUP5 DUP5 AND AND ISZERO PUSH2 0x2437 JUMPI PUSH2 0x2437 PUSH2 0x24EB JUMP JUMPDEST DUP8 DUP6 SDIV DUP8 SLT DUP2 DUP5 AND AND ISZERO PUSH2 0x244D JUMPI PUSH2 0x244D PUSH2 0x24EB JUMP JUMPDEST POP POP POP SWAP3 SWAP1 SWAP4 MUL SWAP4 SWAP3 POP POP POP JUMP JUMPDEST PUSH1 0x0 DUP2 PUSH1 0x0 NOT DIV DUP4 GT DUP3 ISZERO ISZERO AND ISZERO PUSH2 0x2475 JUMPI PUSH2 0x2475 PUSH2 0x24EB JUMP JUMPDEST POP MUL SWAP1 JUMP JUMPDEST PUSH1 0x0 DUP1 DUP4 SLT DUP1 ISZERO PUSH1 0x1 PUSH1 0xFF SHL DUP6 ADD DUP5 SLT AND ISZERO PUSH2 0x2498 JUMPI PUSH2 0x2498 PUSH2 0x24EB JUMP JUMPDEST PUSH1 0x1 PUSH1 0x1 PUSH1 0xFF SHL SUB DUP5 ADD DUP4 SGT DUP2 AND ISZERO PUSH2 0x24B3 JUMPI PUSH2 0x24B3 PUSH2 0x24EB JUMP JUMPDEST POP POP SUB SWAP1 JUMP JUMPDEST PUSH1 0x0 DUP3 DUP3 LT ISZERO PUSH2 0x24CB JUMPI PUSH2 0x24CB PUSH2 0x24EB JUMP JUMPDEST POP SUB SWAP1 JUMP JUMPDEST PUSH1 0x0 PUSH1 0x0 NOT DUP3 EQ ISZERO PUSH2 0x24E4 JUMPI PUSH2 0x24E4 PUSH2 0x24EB JUMP JUMPDEST POP PUSH1 0x1 ADD SWAP1 JUMP JUMPDEST PUSH4 0x4E487B71 PUSH1 0xE0 SHL PUSH1 0x0 MSTORE PUSH1 0x11 PUSH1 0x4 MSTORE PUSH1 0x24 PUSH1 0x0 REVERT JUMPDEST PUSH4 0x4E487B71 PUSH1 0xE0 SHL PUSH1 0x0 MSTORE PUSH1 0x12 PUSH1 0x4 MSTORE PUSH1 0x24 PUSH1 0x0 REVERT JUMPDEST PUSH1 0x1 PUSH1 0x1 PUSH1 0xA0 SHL SUB DUP2 AND DUP2 EQ PUSH2 0x1DC2 JUMPI PUSH1 0x0 DUP1 REVERT INVALID LOG2 PUSH5 0x6970667358 0x22 SLT KECCAK256 XOR XOR 0xC6 POP 0xD4 0xB4 DUP12 0xED MSIZE 0xA6 PUSH7 0x3E8197C4101A5F PUSH26 0x304DA7BF461CEDFBD5B209B0D364736F6C634300080400330000 "},"methodIdentifiers":{"ACC_PRECISION()":"32fcd966","BLOCKS_PER_EPOCH()":"1f3adc0f","BLOCKS_PER_YEAR()":"d37db1d2","DURATION()":"1be05289","MAX_CYG_PER_BLOCK()":"c1f1e5ae","REDUCTION_FACTOR_PER_EPOCH()":"28419d62","SHARES_PRECISION()":"5de7fcd0","TOTAL_EPOCHS()":"5f15c3c9","accelerateTheUniverse()":"f2b128a4","adjustShuttleRewards(uint256,uint256)":"cb87f7f3","advanceEpoch()":"3cf80e6c","allShuttles(uint256)":"1ad4c8c3","birth()":"c81ba8f0","calculateCygPerBlock(uint256)":"fd59c299","calculateEpochRewards(uint256)":"f6503e6c","collect(address,address)":"a12ef25e","currentEpochRewards()":"9e81b634","cygPerBlock()":"5493b5d6","cygToken()":"4f573686","death()":"6fa42261","distanceThisEpoch()":"9ce8fdc3","distanceUntilNextEpoch()":"8d5b9b3a","distanceUntilSupernova()":"c9863ffc","emissionsCurve(uint256)":"72e127cb","epochProgression()":"6673fd97","epochRewardsPacing()":"5104517f","getBlockTimestamp()":"796b89b9","getCurrentEpoch()":"b97dd9e2","getEpochInfo(uint256)":"135022c2","getShuttleInfo(address)":"151e510e","getUserInfo(address,address)":"f2801fe7","hangar18()":"e8a24e1d","initializeShuttleRewards(uint256,uint256)":"93c3677b","lastEpochTime()":"89c614b8","name()":"06fdde03","nextEpochRewards()":"1bafed52","pendingCyg(address,address)":"82ebcd32","setCygPerBlock(uint256)":"01bac4c6","shuttlesLength()":"53cde488","supernova()":"4a91f2b1","sweepToken(address)":"1be19560","totalAllocPoint()":"17caf6f1","totalCygClaimed()":"4fcc5575","totalCygRewards()":"d4f7286b","totalProgression()":"d797c4c3","trackBorrower(uint256,address,uint256,uint256)":"8443dfc4","updateShuttle(address)":"5303654f","version()":"54fd4d50"}}}}}