{"contracts/cygnus-token/PillarsOfCreation.sol":{"PillarsOfCreation":{"abi":[{"inputs":[{"internalType":"contract IHangar18","name":"_hangar18","type":"address"},{"internalType":"address","name":"_rewardToken","type":"address"},{"internalType":"uint256","name":"_totalRewards","type":"uint256"}],"stateMutability":"nonpayable","type":"constructor"},{"inputs":[{"internalType":"address","name":"token","type":"address"},{"internalType":"address","name":"underlying","type":"address"}],"name":"PillarsOfCreation__CantSweepUnderlying","type":"error"},{"inputs":[{"internalType":"uint256","name":"max","type":"uint256"},{"internalType":"uint256","name":"value","type":"uint256"}],"name":"PillarsOfCreation__CygPerBlockExceedsLimit","type":"error"},{"inputs":[],"name":"PillarsOfCreation__InvalidTotalWeight","type":"error"},{"inputs":[{"internalType":"address","name":"admin","type":"address"},{"internalType":"address","name":"sender","type":"address"}],"name":"PillarsOfCreation__MsgSenderNotAdmin","type":"error"},{"inputs":[{"internalType":"address","name":"borrowable","type":"address"},{"internalType":"address","name":"sender","type":"address"}],"name":"PillarsOfCreation__MsgSenderNotBorrowable","type":"error"},{"inputs":[{"internalType":"address","name":"sender","type":"address"},{"internalType":"address","name":"origin","type":"address"}],"name":"PillarsOfCreation__OnlyEOAAllowed","type":"error"},{"inputs":[{"internalType":"uint256","name":"shuttleId","type":"uint256"},{"internalType":"address","name":"borrowable","type":"address"}],"name":"PillarsOfCreation__ShuttleAlreadyInitialized","type":"error"},{"inputs":[{"internalType":"uint256","name":"shuttleId","type":"uint256"},{"internalType":"address","name":"borrowable","type":"address"}],"name":"PillarsOfCreation__ShuttleNotInitialized","type":"error"},{"inputs":[],"name":"ReentrantCall","type":"error"},{"anonymous":false,"inputs":[{"indexed":false,"internalType":"uint256","name":"shuttlesLength","type":"uint256"},{"indexed":false,"internalType":"address","name":"sender","type":"address"},{"indexed":false,"internalType":"uint256","name":"epoch","type":"uint256"}],"name":"AccelerateTheUniverse","type":"event"},{"anonymous":false,"inputs":[{"indexed":true,"internalType":"address","name":"borrowable","type":"address"},{"indexed":true,"internalType":"uint256","name":"epoch","type":"uint256"},{"indexed":false,"internalType":"address","name":"sender","type":"address"},{"indexed":false,"internalType":"uint256","name":"reward","type":"uint256"}],"name":"CollectReward","type":"event"},{"anonymous":false,"inputs":[{"indexed":false,"internalType":"uint256","name":"lastRewardRate","type":"uint256"},{"indexed":false,"internalType":"uint256","name":"newRewardRate","type":"uint256"}],"name":"NewCygPerBlock","type":"event"},{"anonymous":false,"inputs":[{"indexed":false,"internalType":"uint256","name":"previousEpoch","type":"uint256"},{"indexed":false,"internalType":"uint256","name":"newEpoch","type":"uint256"},{"indexed":false,"internalType":"uint256","name":"_oldCygPerBlock","type":"uint256"},{"indexed":false,"internalType":"uint256","name":"_newCygPerBlock","type":"uint256"}],"name":"NewEpoch","type":"event"},{"anonymous":false,"inputs":[{"indexed":true,"internalType":"uint256","name":"shuttleId","type":"uint256"},{"indexed":false,"internalType":"address","name":"borrowable","type":"address"},{"indexed":false,"internalType":"uint256","name":"oldAllocPoint","type":"uint256"},{"indexed":false,"internalType":"uint256","name":"newAllocPoint","type":"uint256"}],"name":"NewShuttleAllocPoint","type":"event"},{"anonymous":false,"inputs":[{"indexed":true,"internalType":"uint256","name":"shuttleId","type":"uint256"},{"indexed":true,"internalType":"address","name":"borrowable","type":"address"},{"indexed":false,"internalType":"uint256","name":"allocPoints","type":"uint256"}],"name":"NewShuttleReward","type":"event"},{"anonymous":false,"inputs":[{"indexed":true,"internalType":"uint256","name":"shuttleId","type":"uint256"},{"indexed":false,"internalType":"address","name":"borrowable","type":"address"},{"indexed":false,"internalType":"uint256","name":"oldAllocPoint","type":"uint256"},{"indexed":false,"internalType":"uint256","name":"currentEpoch","type":"uint256"}],"name":"RemoveShuttleReward","type":"event"},{"anonymous":false,"inputs":[{"indexed":false,"internalType":"address","name":"sender","type":"address"},{"indexed":false,"internalType":"uint256","name":"_birth","type":"uint256"},{"indexed":false,"internalType":"uint256","name":"_death","type":"uint256"},{"indexed":false,"internalType":"uint256","name":"timestamp","type":"uint256"}],"name":"Supernova","type":"event"},{"anonymous":false,"inputs":[{"indexed":true,"internalType":"address","name":"token","type":"address"},{"indexed":true,"internalType":"address","name":"sender","type":"address"},{"indexed":false,"internalType":"uint256","name":"amount","type":"uint256"},{"indexed":false,"internalType":"uint256","name":"currentEpoch","type":"uint256"}],"name":"SweepToken","type":"event"},{"anonymous":false,"inputs":[{"indexed":true,"internalType":"address","name":"borrowable","type":"address"},{"indexed":true,"internalType":"address","name":"account","type":"address"},{"indexed":false,"internalType":"uint256","name":"balance","type":"uint256"},{"indexed":false,"internalType":"uint256","name":"adjustmentFactor","type":"uint256"},{"indexed":false,"internalType":"enum IPillarsOfCreation.Position","name":"position","type":"uint8"}],"name":"TrackRewards","type":"event"},{"anonymous":false,"inputs":[{"indexed":true,"internalType":"address","name":"borrowable","type":"address"},{"indexed":false,"internalType":"uint256","name":"lastRewardTime","type":"uint256"},{"indexed":false,"internalType":"uint256","name":"totalShares","type":"uint256"},{"indexed":false,"internalType":"uint256","name":"accRewardPerShare","type":"uint256"}],"name":"UpdateShuttle","type":"event"},{"inputs":[],"name":"ACC_PRECISION","outputs":[{"internalType":"uint256","name":"","type":"uint256"}],"stateMutability":"view","type":"function"},{"inputs":[],"name":"BLOCKS_PER_EPOCH","outputs":[{"internalType":"uint256","name":"","type":"uint256"}],"stateMutability":"view","type":"function"},{"inputs":[],"name":"BLOCKS_PER_YEAR","outputs":[{"internalType":"uint256","name":"","type":"uint256"}],"stateMutability":"view","type":"function"},{"inputs":[],"name":"DURATION","outputs":[{"internalType":"uint256","name":"","type":"uint256"}],"stateMutability":"view","type":"function"},{"inputs":[],"name":"MAX_CYG_PER_BLOCK","outputs":[{"internalType":"uint256","name":"","type":"uint256"}],"stateMutability":"view","type":"function"},{"inputs":[],"name":"REDUCTION_FACTOR_PER_EPOCH","outputs":[{"internalType":"uint256","name":"","type":"uint256"}],"stateMutability":"view","type":"function"},{"inputs":[],"name":"SHARES_PRECISION","outputs":[{"internalType":"uint256","name":"","type":"uint256"}],"stateMutability":"view","type":"function"},{"inputs":[],"name":"TOTAL_EPOCHS","outputs":[{"internalType":"uint256","name":"","type":"uint256"}],"stateMutability":"view","type":"function"},{"inputs":[],"name":"accelerateTheUniverse","outputs":[],"stateMutability":"nonpayable","type":"function"},{"inputs":[{"internalType":"uint256","name":"shuttleId","type":"uint256"},{"internalType":"uint256","name":"allocPoint","type":"uint256"}],"name":"adjustShuttleRewards","outputs":[],"stateMutability":"nonpayable","type":"function"},{"inputs":[{"internalType":"uint256","name":"","type":"uint256"}],"name":"allShuttles","outputs":[{"internalType":"address","name":"","type":"address"}],"stateMutability":"view","type":"function"},{"inputs":[],"name":"birth","outputs":[{"internalType":"uint256","name":"","type":"uint256"}],"stateMutability":"view","type":"function"},{"inputs":[],"name":"blocksThisEpoch","outputs":[{"internalType":"uint256","name":"","type":"uint256"}],"stateMutability":"view","type":"function"},{"inputs":[],"name":"blocksUntilNextEpoch","outputs":[{"internalType":"uint256","name":"","type":"uint256"}],"stateMutability":"view","type":"function"},{"inputs":[],"name":"blocksUntilSupernova","outputs":[{"internalType":"uint256","name":"","type":"uint256"}],"stateMutability":"view","type":"function"},{"inputs":[],"name":"borrowRewardsWeight","outputs":[{"internalType":"uint256","name":"","type":"uint256"}],"stateMutability":"view","type":"function"},{"inputs":[{"internalType":"uint256","name":"epoch","type":"uint256"}],"name":"calculateCygPerBlock","outputs":[{"internalType":"uint256","name":"rewardRate","type":"uint256"}],"stateMutability":"view","type":"function"},{"inputs":[{"internalType":"uint256","name":"epoch","type":"uint256"}],"name":"calculateEpochRewards","outputs":[{"internalType":"uint256","name":"rewards","type":"uint256"}],"stateMutability":"view","type":"function"},{"inputs":[{"internalType":"address","name":"borrowable","type":"address"},{"internalType":"enum IPillarsOfCreation.Position","name":"position","type":"uint8"},{"internalType":"address","name":"to","type":"address"}],"name":"collect","outputs":[],"stateMutability":"nonpayable","type":"function"},{"inputs":[{"internalType":"enum IPillarsOfCreation.Position","name":"position","type":"uint8"},{"internalType":"address","name":"to","type":"address"}],"name":"collectAll","outputs":[],"stateMutability":"nonpayable","type":"function"},{"inputs":[],"name":"currentEpochRewards","outputs":[{"internalType":"uint256","name":"","type":"uint256"}],"stateMutability":"view","type":"function"},{"inputs":[],"name":"cygPerBlock","outputs":[{"internalType":"uint256","name":"","type":"uint256"}],"stateMutability":"view","type":"function"},{"inputs":[],"name":"cygToken","outputs":[{"internalType":"address","name":"","type":"address"}],"stateMutability":"view","type":"function"},{"inputs":[],"name":"daoReserves","outputs":[{"internalType":"address","name":"","type":"address"}],"stateMutability":"view","type":"function"},{"inputs":[],"name":"death","outputs":[{"internalType":"uint256","name":"","type":"uint256"}],"stateMutability":"view","type":"function"},{"inputs":[],"name":"doomSwitch","outputs":[{"internalType":"bool","name":"","type":"bool"}],"stateMutability":"view","type":"function"},{"inputs":[{"internalType":"uint256","name":"epoch","type":"uint256"}],"name":"emissionsCurve","outputs":[{"internalType":"uint256","name":"","type":"uint256"}],"stateMutability":"pure","type":"function"},{"inputs":[],"name":"epochProgression","outputs":[{"internalType":"uint256","name":"","type":"uint256"}],"stateMutability":"view","type":"function"},{"inputs":[],"name":"epochRewardsPacing","outputs":[{"internalType":"uint256","name":"","type":"uint256"}],"stateMutability":"view","type":"function"},{"inputs":[],"name":"getBlockTimestamp","outputs":[{"internalType":"uint256","name":"","type":"uint256"}],"stateMutability":"view","type":"function"},{"inputs":[],"name":"getCurrentEpoch","outputs":[{"internalType":"uint256","name":"currentEpoch","type":"uint256"}],"stateMutability":"view","type":"function"},{"inputs":[{"internalType":"uint256","name":"","type":"uint256"}],"name":"getEpochInfo","outputs":[{"internalType":"uint256","name":"epoch","type":"uint256"},{"internalType":"uint256","name":"cygPerBlock","type":"uint256"},{"internalType":"uint256","name":"totalRewards","type":"uint256"},{"internalType":"uint256","name":"totalClaimed","type":"uint256"},{"internalType":"uint256","name":"start","type":"uint256"},{"internalType":"uint256","name":"end","type":"uint256"}],"stateMutability":"view","type":"function"},{"inputs":[],"name":"getRewardWeights","outputs":[{"internalType":"uint256","name":"borrowers","type":"uint256"},{"internalType":"uint256","name":"lenders","type":"uint256"}],"stateMutability":"view","type":"function"},{"inputs":[{"internalType":"address","name":"","type":"address"},{"internalType":"enum IPillarsOfCreation.Position","name":"","type":"uint8"}],"name":"getShuttleInfo","outputs":[{"internalType":"bool","name":"active","type":"bool"},{"internalType":"uint256","name":"shuttleId","type":"uint256"},{"internalType":"uint256","name":"totalShares","type":"uint256"},{"internalType":"uint256","name":"accRewardPerShare","type":"uint256"},{"internalType":"uint256","name":"lastRewardTime","type":"uint256"},{"internalType":"uint256","name":"allocPoint","type":"uint256"},{"internalType":"address","name":"bonusRewarder","type":"address"}],"stateMutability":"view","type":"function"},{"inputs":[{"internalType":"address","name":"","type":"address"},{"internalType":"enum IPillarsOfCreation.Position","name":"","type":"uint8"},{"internalType":"address","name":"","type":"address"}],"name":"getUserInfo","outputs":[{"internalType":"uint256","name":"shares","type":"uint256"},{"internalType":"int256","name":"rewardDebt","type":"int256"}],"stateMutability":"view","type":"function"},{"inputs":[],"name":"hangar18","outputs":[{"internalType":"contract IHangar18","name":"","type":"address"}],"stateMutability":"view","type":"function"},{"inputs":[{"internalType":"uint256","name":"shuttleId","type":"uint256"},{"internalType":"uint256","name":"allocPoint","type":"uint256"}],"name":"initializeShuttleRewards","outputs":[],"stateMutability":"nonpayable","type":"function"},{"inputs":[],"name":"lastEpochTime","outputs":[{"internalType":"uint256","name":"","type":"uint256"}],"stateMutability":"view","type":"function"},{"inputs":[],"name":"name","outputs":[{"internalType":"string","name":"","type":"string"}],"stateMutability":"view","type":"function"},{"inputs":[],"name":"nextEpochRewards","outputs":[{"internalType":"uint256","name":"","type":"uint256"}],"stateMutability":"view","type":"function"},{"inputs":[{"internalType":"address","name":"borrowable","type":"address"},{"internalType":"enum IPillarsOfCreation.Position","name":"position","type":"uint8"},{"internalType":"address","name":"borrower","type":"address"}],"name":"pendingCyg","outputs":[{"internalType":"uint256","name":"pending","type":"uint256"}],"stateMutability":"view","type":"function"},{"inputs":[],"name":"previousEpochRewards","outputs":[{"internalType":"uint256","name":"","type":"uint256"}],"stateMutability":"view","type":"function"},{"inputs":[{"internalType":"uint256","name":"shuttleId","type":"uint256"},{"internalType":"address","name":"bonusRewarder","type":"address"}],"name":"setBonusRewarder","outputs":[],"stateMutability":"nonpayable","type":"function"},{"inputs":[{"internalType":"uint256","name":"_cygPerBlock","type":"uint256"}],"name":"setCygPerBlock","outputs":[],"stateMutability":"nonpayable","type":"function"},{"inputs":[],"name":"setDoomSwitch","outputs":[],"stateMutability":"nonpayable","type":"function"},{"inputs":[{"internalType":"uint256","name":"_borrowRewardsWeight","type":"uint256"}],"name":"setRewardWeights","outputs":[],"stateMutability":"nonpayable","type":"function"},{"inputs":[],"name":"shuttlesLength","outputs":[{"internalType":"uint256","name":"","type":"uint256"}],"stateMutability":"view","type":"function"},{"inputs":[],"name":"supernova","outputs":[],"stateMutability":"nonpayable","type":"function"},{"inputs":[{"internalType":"address","name":"token","type":"address"}],"name":"sweepToken","outputs":[],"stateMutability":"nonpayable","type":"function"},{"inputs":[],"name":"totalAllocPoint","outputs":[{"internalType":"uint256","name":"","type":"uint256"}],"stateMutability":"view","type":"function"},{"inputs":[],"name":"totalCygClaimed","outputs":[{"internalType":"uint256","name":"claimed","type":"uint256"}],"stateMutability":"view","type":"function"},{"inputs":[],"name":"totalCygRewards","outputs":[{"internalType":"uint256","name":"","type":"uint256"}],"stateMutability":"view","type":"function"},{"inputs":[],"name":"totalProgression","outputs":[{"internalType":"uint256","name":"","type":"uint256"}],"stateMutability":"view","type":"function"},{"inputs":[{"internalType":"address","name":"account","type":"address"},{"internalType":"uint256","name":"balance","type":"uint256"},{"internalType":"uint256","name":"adjustmentFactor","type":"uint256"},{"internalType":"enum IPillarsOfCreation.Position","name":"position","type":"uint8"}],"name":"trackRewards","outputs":[],"stateMutability":"nonpayable","type":"function"},{"inputs":[{"internalType":"address","name":"borrowable","type":"address"}],"name":"updateShuttle","outputs":[],"stateMutability":"nonpayable","type":"function"},{"inputs":[],"name":"version","outputs":[{"internalType":"string","name":"","type":"string"}],"stateMutability":"view","type":"function"}],"evm":{"bytecode":{"linkReferences":{},"object":"610140604081815234620004cd578190620036558038038091620000248286620004d2565b8439606092839181010312620004cd578251916001600160a01b038316808403620004cd57602091836200005a8488016200050c565b9601519460016000938160ff19865416178555670b1a2bc2ec50000060085561010097885284928593865b8015620002e157505062140cd0809404998a60055567069789fbbc4f8000808c11620002c4575060e0526080528651630b60d15f60e31b81529798908690899060049082905afa978815620002ba57859862000277575b50610120978852426007554260a052630784ce004201804211620002635760c05282420191824211620002635783820293828504148215171562000263577fcc53a96dddb8d3b8710c4932d9e90652a4eaef0bf4c37a13dc4d806e1b54cb4d96949260809694926005928a51946200015660c087620004d2565b8786528886019283528b8601908152868601918883528a87019342855260a0880195865289805260028b528d8a2097518855519087015551600286015551600385015551600484015551910155600554918087519481865285015286840152820152a1519061310d92836200054884396080518381816104d80152818161081801528181610c8701528181610f0e015281816127580152612ef1015260a0518381816106c1015281816109ca015281816123b701526127b7015260c051838181611084015281816111540152818161238801526127dd015260e0518381816117c501528181611bf00152612afc01525182818161072101526124ec0152518181816113f50152612dde0152f35b634e487b7160e01b86526011600452602486fd5b9097508581813d8311620002b2575b620002928183620004d2565b81010312620002ae57620002a6906200050c565b9638620000dc565b8480fd5b503d62000286565b87513d87823e3d90fd5b6044908c8b5191631109f6e360e31b835260048301526024820152fd5b9094508951948086039586116200038d5781870395878711620004b957670de0b6b3a76400009689905b8082106200045e57505086670de0b6b3a764000003670de0b6b3a764000081116200044a5786908a986658d15e17628000938481026000198683099584828810830180890398149188821115940996828811900396820395620003a1575b505050505050508581018091116200038d5762000387909162000521565b62000085565b634e487b7160e01b88526011600452602488fd5b909192939495969b506200041957506200040c57670de0b6b3a763ffff190181168091046002808260030218808302820302808302820302808302820302808302820302808302820302809202900302928782808d0304010291041702943880808080808062000369565b63ae47f7028b526004601cfd5b935050909250670de0b6b3a7640000146200043d5704943880808080808062000369565b63ae47f70289526004601cfd5b634e487b7160e01b8a52601160045260248afd5b9097670d87e55590018000907812eb73eae4c8b0077db7b119a3928413fff44d230654ac05ac81118202620004ac57620004a591670de0b6b3a76400009102049862000521565b906200030b565b63bac65e5b8c526004601cfd5b634e487b7160e01b89526011600452602489fd5b600080fd5b601f909101601f19168101906001600160401b03821190821017620004f657604052565b634e487b7160e01b600052604160045260246000fd5b51906001600160a01b0382168203620004cd57565b6000198114620005315760010190565b634e487b7160e01b600052601160045260246000fdfe6040608081526004908136101561001557600080fd5b6000803560e01c806301bac4c61461202d57806304d4e9bd14611fd757806306fdde0314611f685780630bfc4af914611f0e578063135022c214611e9257806317caf6f114611e555780631ad4c8c314611de65780631bafed5214611d6e5780631be0528914611d315780631be1956014611b4d5780631d5e8e501461198e5780631f3adc0f1461195257806328419d621461191257806332fcd966146118c45780634a91f2b11461183e5780634f3d90b1146117e95780634f5736861461177a5780634fcc5575146117015780635104517f1461168d5780635303654f146115cf57806353cde488146115925780635493b5d61461155557806354fd4d50146114e257806358322a8e146114195780635b068af8146113aa5780635ccb14ac146113215780635d8beace146112b25780635de7fcd01461126c5780635f15c3c91461123257806361480eec146111bd5780636673fd97146111775780636fa422611461111e57806372e127cb146110e1578063796b89b9146110a85780637c4941ec1461104b57806389c614b81461100e5780638ecf3b4514610e6c57806393c3677b14610bed5780639d3bbe6e14610b255780639e81b63414610ae5578063abfdf70a14610aa8578063ac9462f514610a69578063b97dd9e214610a2e578063c1f1e5ae146109ed578063c81ba8f014610994578063cb87f7f314610781578063d37db1d214610744578063d4f7286b146106eb578063d797c4c314610681578063ddeaab1f1461056b578063e6c5b8ea146104fc578063e8a24e1d1461048d578063f126d9641461044b578063f2b128a414610359578063f6503e6c146102ce5763fd59c2991461028857600080fd5b346102cb5760207ffffffffffffffffffffffffffffffffffffffffffffffffffffffffffffffffc3601126102cb57506102c4602092356124e4565b9051908152f35b80fd5b5090346103555760207ffffffffffffffffffffffffffffffffffffffffffffffffffffffffffffffffc3601126103555761030983356124e4565b9162140cd092838102938185041490151715610329576020838351908152f35b806011857f4e487b71000000000000000000000000000000000000000000000000000000006024945252fd5b5080fd5b5091903461044757827ffffffffffffffffffffffffffffffffffffffffffffffffffffffffffffffffc3601126104475782549160ff8316156104205750907f43604600d5d5b743877b9625896fea0414a17136bbe657753a96dc6f80ede1b960606001937fffffffffffffffffffffffffffffffffffffffffffffffffffffffffffffff0080941686556103ec612e06565b6103f461257f565b6103fc612921565b845490610407612386565b908051928352336020840152820152a182541617815580f35b90517f37ed32e8000000000000000000000000000000000000000000000000000000008152fd5b8280fd5b50903461035557817ffffffffffffffffffffffffffffffffffffffffffffffffffffffffffffffffc3601126103555760209060ff6009541690519015158152f35b50903461035557817ffffffffffffffffffffffffffffffffffffffffffffffffffffffffffffffffc360112610355576020905173ffffffffffffffffffffffffffffffffffffffff7f0000000000000000000000000000000000000000000000000000000000000000168152f35b5082346103555760807ffffffffffffffffffffffffffffffffffffffffffffffffffffffffffffffffc360112610355573573ffffffffffffffffffffffffffffffffffffffff8116810361035557606435600281101561044757610568916044359060243590612c10565b80f35b5091903461044757807ffffffffffffffffffffffffffffffffffffffffffffffffffffffffffffffffc36011261044757813591600283101561067d5760243573ffffffffffffffffffffffffffffffffffffffff9182821682036106795785549360ff8516156106535750507fffffffffffffffffffffffffffffffffffffffffffffffffffffffffffffff00809316855561060661257f565b61060e612921565b60019361061a856128a8565b9283519386885b8681106106345789828982541617815580f35b61064b868686610644858861290d565b5116612a47565b018790610621565b517f37ed32e8000000000000000000000000000000000000000000000000000000008152fd5b8580fd5b8380fd5b50903461035557817ffffffffffffffffffffffffffffffffffffffffffffffffffffffffffffffffc360112610355576020906102c4630784ce006106e67f000000000000000000000000000000000000000000000000000000000000000042612379565b613001565b50903461035557817ffffffffffffffffffffffffffffffffffffffffffffffffffffffffffffffffc36011261035557602090517f00000000000000000000000000000000000000000000000000000000000000008152f35b50903461035557817ffffffffffffffffffffffffffffffffffffffffffffffffffffffffffffffffc36011261035557602090516301e133808152f35b50913461044757817ffffffffffffffffffffffffffffffffffffffffffffffffffffffffffffffffc36011261044757803591602435906107c061257f565b6107c8612921565b6107d0612ead565b80517f1ad4c8c3000000000000000000000000000000000000000000000000000000008152848482015273ffffffffffffffffffffffffffffffffffffffff60a082602481847f0000000000000000000000000000000000000000000000000000000000000000165afa91821561098a578792610955575b5081169384875260036020526108616001848920612270565b9160ff835416156109045750509183916060937f9436a68f01cf8a4f756c053a98d6d88cdbd763a2d8ad77273779d054e2b82eef958852600360205260056108ab89848120612270565b9101906108f16108c3600584549301928354906124d7565b926108d9866108d486600654612379565b6124d7565b6006556108e860085487612fb8565b80915585612379565b905581519384526020840152820152a280f35b83517fd80f594800000000000000000000000000000000000000000000000000000000815291820187815273ffffffffffffffffffffffffffffffffffffffff909116602082015281906040010390fd5b61097791925060a03d8111610983575b61096f81836120f7565b810190612e46565b50509150509038610848565b503d610965565b83513d89823e3d90fd5b50903461035557817ffffffffffffffffffffffffffffffffffffffffffffffffffffffffffffffffc36011261035557602090517f00000000000000000000000000000000000000000000000000000000000000008152f35b50903461035557817ffffffffffffffffffffffffffffffffffffffffffffffffffffffffffffffffc360112610355576020905167069789fbbc4f80008152f35b50903461035557817ffffffffffffffffffffffffffffffffffffffffffffffffffffffffffffffffc360112610355576020906102c4612386565b50903461035557817ffffffffffffffffffffffffffffffffffffffffffffffffffffffffffffffffc360112610355576020906102c460075442612379565b50903461035557817ffffffffffffffffffffffffffffffffffffffffffffffffffffffffffffffffc360112610355576020906008549051908152f35b50903461035557817ffffffffffffffffffffffffffffffffffffffffffffffffffffffffffffffffc36011261035557610309610b20612386565b6124e4565b5091903461044757807ffffffffffffffffffffffffffffffffffffffffffffffffffffffffffffffffc36011261044757813573ffffffffffffffffffffffffffffffffffffffff90818116809103610be95760243590600282101561067957908386610b9b9360e09852600360205220612270565b9060ff82541693600183015493600284015490600385015492850154936006600587015496015416958151971515885260208801528601526060850152608084015260a083015260c0820152f35b8480fd5b5091903461044757807ffffffffffffffffffffffffffffffffffffffffffffffffffffffffffffffffc3601126104475781359060243590610c2d61257f565b610c35612921565b610c3d612ead565b8051937f1ad4c8c3000000000000000000000000000000000000000000000000000000008552838186015273ffffffffffffffffffffffffffffffffffffffff9060a086602481857f0000000000000000000000000000000000000000000000000000000000000000165afa95861561098a578796610e47575b50818616958688526003602052600190610cd382868b20612270565b908260ff835416151514610df5575087895260036020526005610d5d81610cfc8c898120612270565b93610d098a6006546124d7565b600655857fffffffffffffffffffffffffffffffffffffffffffffffffffffffffffffff0081818454161783558654161785558a868201558a86860155610d526008548b612fb8565b918291015588612379565b91015580549168010000000000000000831015610dc957509186610dab83857f68bea3f037520d478c14fd27a27947249aade51810b62999af0776bbd0097b969896602098960181556122b7565b909283549160031b90811b9283911b1691191617905551908152a380f35b8860416024927f4e487b7100000000000000000000000000000000000000000000000000000000835252fd5b85517fda3d911500000000000000000000000000000000000000000000000000000000815280850189815273ffffffffffffffffffffffffffffffffffffffff90921660208301529081906040010390fd5b610e6091965060a03d81116109835761096f81836120f7565b50509150509438610cb7565b5091903461044757807ffffffffffffffffffffffffffffffffffffffffffffffffffffffffffffffffc3601126104475781356024359273ffffffffffffffffffffffffffffffffffffffff80851680950361067957610eca61257f565b610ed2612921565b610eda612ead565b8351907f1ad4c8c3000000000000000000000000000000000000000000000000000000008252838383015260a082602481847f0000000000000000000000000000000000000000000000000000000000000000165afa918215611004578792610fdf575b50811686526003602052610f556001858820612270565b9360ff85541615610f90576006850180547fffffffffffffffffffffffff000000000000000000000000000000000000000016871790558680f35b517fd80f594800000000000000000000000000000000000000000000000000000000815291820192835273ffffffffffffffffffffffffffffffffffffffff1660208301529081906040010390fd5b610ff891925060a03d81116109835761096f81836120f7565b50509150509038610f3e565b85513d89823e3d90fd5b50903461035557817ffffffffffffffffffffffffffffffffffffffffffffffffffffffffffffffffc360112610355576020906007549051908152f35b50903461035557817ffffffffffffffffffffffffffffffffffffffffffffffffffffffffffffffffc360112610355576020906102c4427f0000000000000000000000000000000000000000000000000000000000000000612379565b50903461035557817ffffffffffffffffffffffffffffffffffffffffffffffffffffffffffffffffc3601126103555760209051428152f35b50346102cb5760207ffffffffffffffffffffffffffffffffffffffffffffffffffffffffffffffffc3601126102cb57506102c460209235612412565b50903461035557817ffffffffffffffffffffffffffffffffffffffffffffffffffffffffffffffffc36011261035557602090517f00000000000000000000000000000000000000000000000000000000000000008152f35b50903461035557817ffffffffffffffffffffffffffffffffffffffffffffffffffffffffffffffffc360112610355576020906102c462140cd06106e660075442612379565b50346102cb57807ffffffffffffffffffffffffffffffffffffffffffffffffffffffffffffffffc3601126102cb576111f461257f565b6111fc612921565b611204612ead565b60017fffffffffffffffffffffffffffffffffffffffffffffffffffffffffffffff00600954161760095580f35b50903461035557817ffffffffffffffffffffffffffffffffffffffffffffffffffffffffffffffffc360112610355576020905160608152f35b50903461035557817ffffffffffffffffffffffffffffffffffffffffffffffffffffffffffffffffc36011261035557602090516c010000000000000000000000008152f35b509134610447576112c3368261223d565b9285929192549460ff86161561065357866001876113188888887fffffffffffffffffffffffffffffffffffffffffffffffffffffffffffffff00809516875561130b61257f565b611313612921565b612a47565b82541617815580f35b5091346104475760207ffffffffffffffffffffffffffffffffffffffffffffffffffffffffffffffffc3601126104475780359161135d61257f565b611365612921565b61136d612ead565b670de0b6b3a7640000831161138457505060085580f35b517f431c6793000000000000000000000000000000000000000000000000000000008152fd5b50903461035557817ffffffffffffffffffffffffffffffffffffffffffffffffffffffffffffffffc360112610355576020905173ffffffffffffffffffffffffffffffffffffffff7f0000000000000000000000000000000000000000000000000000000000000000168152f35b50346102cb57807ffffffffffffffffffffffffffffffffffffffffffffffffffffffffffffffffc3601126102cb57611450612386565b80611462575060209250905b51908152f35b7fffffffffffffffffffffffffffffffffffffffffffffffffffffffffffffffff81019081116114b657611495906124e4565b9062140cd0918281029281840414901517156103295750602092509061145c565b6024826011867f4e487b7100000000000000000000000000000000000000000000000000000000835252fd5b50903461035557817ffffffffffffffffffffffffffffffffffffffffffffffffffffffffffffffffc36011261035557611551906115206005612167565b907f312e302e30000000000000000000000000000000000000000000000000000000602083015251918291826121b1565b0390f35b50903461035557817ffffffffffffffffffffffffffffffffffffffffffffffffffffffffffffffffc360112610355576020906005549051908152f35b50903461035557817ffffffffffffffffffffffffffffffffffffffffffffffffffffffffffffffffc360112610355576020906001549051908152f35b5091346104475760207ffffffffffffffffffffffffffffffffffffffffffffffffffffffffffffffffc3601126104475780359073ffffffffffffffffffffffffffffffffffffffff8216820361067d5783549260ff841615610653578460018561168383877fffffffffffffffffffffffffffffffffffffffffffffffffffffffffffffff008094168255611663612e06565b61166b61257f565b611673612921565b61167d858261298c565b5061298c565b5082541617815580f35b50903461035557817ffffffffffffffffffffffffffffffffffffffffffffffffffffffffffffffffc360112610355576102c46020926116fb6116d962140cd06106e660075442612379565b6116e1612386565b835260028652600385600281862001549420015492612fb8565b90613001565b50903461035557817ffffffffffffffffffffffffffffffffffffffffffffffffffffffffffffffffc36011261035557819061173b612386565b83905b80821115611750576020848451908152f35b909261176e61177491858752600260205260038588200154906124d7565b936123e5565b9061173e565b50903461035557817ffffffffffffffffffffffffffffffffffffffffffffffffffffffffffffffffc360112610355576020905173ffffffffffffffffffffffffffffffffffffffff7f0000000000000000000000000000000000000000000000000000000000000000168152f35b50903461035557817ffffffffffffffffffffffffffffffffffffffffffffffffffffffffffffffffc3601126103555761182560075442612379565b9162140cd0928303928311610329576020838351908152f35b50913461044757827ffffffffffffffffffffffffffffffffffffffffffffffffffffffffffffffffc3601126104475782549160ff83161561065357836001847fffffffffffffffffffffffffffffffffffffffffffffffffffffffffffffff0080911683556118ac612e06565b6118b461257f565b6118bc612921565b6113186126f6565b50903461035557817ffffffffffffffffffffffffffffffffffffffffffffffffffffffffffffffffc3601126103555760209051740100000000000000000000000000000000000000008152f35b50903461035557817ffffffffffffffffffffffffffffffffffffffffffffffffffffffffffffffffc36011261035557602090516658d15e176280008152f35b50903461035557817ffffffffffffffffffffffffffffffffffffffffffffffffffffffffffffffffc360112610355576020905162140cd08152f35b5091346104475761199f368261223d565b929173ffffffffffffffffffffffffffffffffffffffff809116928387526020966003885283878220906119d291612270565b958751936119e160e0866120f7565b875460ff161515855260018801548a86015260028801549589860196875260038901549760608701988952858a015496608081019788528360058c01549b60a083019c8d5260060154169060c001528452848b5289842090611a4291612270565b91168252885286812095875196611a5989896120f7565b805488526001015495898801968752519451935180421180611b44575b611a97575b89896102c489611a8c8a8d516122fe565b60a01c905190612566565b611ac891611ab7611aae611abf939a999a42612379565b600554906122fe565b9051906122fe565b60065490612340565b918260a01b92808404740100000000000000000000000000000000000000001490151715611b18575050611a8c92611b086102c4969593611b0e93612340565b906124d7565b9181943880611a7b565b9060116024927f4e487b7100000000000000000000000000000000000000000000000000000000835252fd5b50841515611a76565b50823461035557602090817ffffffffffffffffffffffffffffffffffffffffffffffffffffffffffffffffc3601126104475780359073ffffffffffffffffffffffffffffffffffffffff92838316918284036106795785549460ff861615611d09577fffffffffffffffffffffffffffffffffffffffffffffffffffffffffffffff008096168755611bde61257f565b611be6612921565b611bee612ead565b7f00000000000000000000000000000000000000000000000000000000000000009081168414611cb457506370a0823186523082528186604460168284806024601c8c5afa601f3d11168551029833601a5289603a5269a9059cbb00000000000082525af13d156001885114171615611ca9575084957fee2522ca264e96c7cef76269664e2a4cea70ad76b78ee5b01d0587798a0a72d691600196603a52611c94612386565b9082519586528501523393a382541617815580f35b6390b8ec188652601cfd5b87517f6fcbe79c00000000000000000000000000000000000000000000000000000000815273ffffffffffffffffffffffffffffffffffffffff80871693820193845290911660208301529081906040010390fd5b5086517f37ed32e8000000000000000000000000000000000000000000000000000000008152fd5b50903461035557817ffffffffffffffffffffffffffffffffffffffffffffffffffffffffffffffffc3601126103555760209051630784ce008152f35b50903461035557817ffffffffffffffffffffffffffffffffffffffffffffffffffffffffffffffffc36011261035557611da6612386565b60018101809111611dba57610309906124e4565b6024836011867f4e487b7100000000000000000000000000000000000000000000000000000000835252fd5b5091346104475760207ffffffffffffffffffffffffffffffffffffffffffffffffffffffffffffffffc3601126104475735916001548310156102cb575073ffffffffffffffffffffffffffffffffffffffff611e4660209360016122b7565b92905490519260031b1c168152f35b50903461035557817ffffffffffffffffffffffffffffffffffffffffffffffffffffffffffffffffc360112610355576020906006549051908152f35b509190346104475760207ffffffffffffffffffffffffffffffffffffffffffffffffffffffffffffffffc360112610447578060c09383358152600260205220805492600182015492600283015490600560038501549385015494015494815196875260208701528501526060840152608083015260a0820152f35b5091346104475791611f4d8293611f25368261223d565b93919273ffffffffffffffffffffffffffffffffffffffff8094168652602052858520612270565b91168252602052206001815491015482519182526020820152f35b50903461035557817ffffffffffffffffffffffffffffffffffffffffffffffffffffffffffffffffc3601126103555761155190611fa6601d612167565b907f4379676e75733a2050696c6c617273206f66204372656174696f6e2023000000602083015251918291826121b1565b50823461035557817ffffffffffffffffffffffffffffffffffffffffffffffffffffffffffffffffc3601126103555760085491670de0b6b3a764000091838303928311611b1857505082519182526020820152f35b5091346104475760207ffffffffffffffffffffffffffffffffffffffffffffffffffffffffffffffffc3601126104475780359061206961257f565b612071612921565b612079612ead565b67069789fbbc4f80008083116120c357847f3ea86743bc8b6977a0693f6611ad7256d6ec1e3f996c6cba22e146152959ddff8585600554908060055582519182526020820152a180f35b916044928451927f884fb7180000000000000000000000000000000000000000000000000000000084528301526024820152fd5b90601f7fffffffffffffffffffffffffffffffffffffffffffffffffffffffffffffffe0910116810190811067ffffffffffffffff82111761213857604052565b7f4e487b7100000000000000000000000000000000000000000000000000000000600052604160045260246000fd5b9067ffffffffffffffff821161213857604051916121ad60207fffffffffffffffffffffffffffffffffffffffffffffffffffffffffffffffe0601f84011601846120f7565b8252565b60208082528251818301819052939260005b858110612203575050507fffffffffffffffffffffffffffffffffffffffffffffffffffffffffffffffe0601f8460006040809697860101520116010190565b8181018301518482016040015282016121c3565b359073ffffffffffffffffffffffffffffffffffffffff8216820361223857565b600080fd5b908160609103126122385761225181612217565b916020820135600281101561223857604061226d919301612217565b90565b90600281101561228857600052602052604060002090565b7f4e487b7100000000000000000000000000000000000000000000000000000000600052602160045260246000fd5b80548210156122cf5760005260206000200190600090565b7f4e487b7100000000000000000000000000000000000000000000000000000000600052603260045260246000fd5b8181029291811591840414171561231157565b7f4e487b7100000000000000000000000000000000000000000000000000000000600052601160045260246000fd5b811561234a570490565b7f4e487b7100000000000000000000000000000000000000000000000000000000600052601260045260246000fd5b9190820391821161231157565b7f00000000000000000000000000000000000000000000000000000000000000004210156123e05762140cd06123dc7f000000000000000000000000000000000000000000000000000000000000000042612379565b0490565b606090565b7fffffffffffffffffffffffffffffffffffffffffffffffffffffffffffffffff81146123115760010190565b6060036060811161231157670de0b6b3a764000060009182905b808210612480575050670de0b6b3a76400000390670de0b6b3a76400008211612453575090565b807f4e487b7100000000000000000000000000000000000000000000000000000000602492526011600452fd5b9091670d87e55590018000907812eb73eae4c8b0077db7b119a3928413fff44d230654ac05ac811182026124ca576124c491670de0b6b3a7640000910204926123e5565b9061242c565b63bac65e5b85526004601cfd5b9190820180921161231157565b6000908190827f00000000000000000000000000000000000000000000000000000000000000005b828211156125215750505062140cd091500490565b9091925061255c61255661254f6125388785612379565b6658d15e1762800061254987612412565b91613044565b80966124d7565b926123e5565b909392919361250c565b8181039291600013801582851316918412161761231157565b61259260075462140cd091829142612379565b0461259a5750565b6125a2612386565b60608110156126cb576005546125b7826124e4565b6005554260075560009282845260026020526040842042600482015581420180421161269e57600582015583815560055480600183015582810292818404149015171561267157600201557fffffffffffffffffffffffffffffffffffffffffffffffffffffffffffffffff8201928284116124535750916080917fcc53a96dddb8d3b8710c4932d9e90652a4eaef0bf4c37a13dc4d806e1b54cb4d9360055491604051938452602084015260408301526060820152a15b565b6024857f4e487b710000000000000000000000000000000000000000000000000000000081526011600452fd5b6024867f4e487b710000000000000000000000000000000000000000000000000000000081526011600452fd5b505061266f6126f6565b519073ffffffffffffffffffffffffffffffffffffffff8216820361223857565b6126fe612386565b90606082106128a4575060ff6009541615612875576040517ff851a44000000000000000000000000000000000000000000000000000000000815273ffffffffffffffffffffffffffffffffffffffff91602082600481867f0000000000000000000000000000000000000000000000000000000000000000165afa9182156128695760009261280a575b5060807f3448d68e439b81df30dbd68606f415f65c9eabaaef0aca1ffc0368cc3954c6dc91604051903382527f000000000000000000000000000000000000000000000000000000000000000060208301527f000000000000000000000000000000000000000000000000000000000000000060408301526060820152a116ff5b90916020823d8211612861575b81612824602093836120f7565b810103126102cb575060806128597f3448d68e439b81df30dbd68606f415f65c9eabaaef0aca1ffc0368cc3954c6dc926126d5565b929150612789565b3d9150612817565b6040513d6000823e3d90fd5b7f4e487b7100000000000000000000000000000000000000000000000000000000600052600160045260246000fd5b9050565b9060405191828154918282526020928383019160005283600020936000905b8282106128dd5750505061266f925003836120f7565b855473ffffffffffffffffffffffffffffffffffffffff16845260019586019588955093810193909101906128c7565b80518210156122cf5760209160051b010190565b600180549061292f816128a8565b90600091825b848110612943575050505050565b612987906129818573ffffffffffffffffffffffffffffffffffffffff612976878261296f878a61290d565b511661298c565b5061296f848761290d565b506123e5565b612935565b9073ffffffffffffffffffffffffffffffffffffffff6129b9921660005260036020526040600020612270565b906004820180548042116129cb575050565b600284015490816129de575b5050429055565b611abf6129f36129fe926005549042036122fe565b6005870154906122fe565b908160a01b9180830474010000000000000000000000000000000000000000149015171561231157612a2f91612340565b612a3e600385019182546124d7565b905538806129d7565b9190612a53818461298c565b9073ffffffffffffffffffffffffffffffffffffffff809416926000908482526004602052612a86604093848420612270565b3383526020526001612aa28484209560038754910154906122fe565b60a01c940193612ab3855482612566565b948515612bea5755612ac3612386565b958683526002602052600384842001612add8682546124d7565b90558683526002602052600384842001546002858520015410610447577f00000000000000000000000000000000000000000000000000000000000000001690813b156104475783517f40c10f1900000000000000000000000000000000000000000000000000000000815273ffffffffffffffffffffffffffffffffffffffff91909116600482015260248101859052919081908390604490829084905af18015612bde5791612bc993917fbc96baf3023d0b9ea3a899e000f15d5f0f7a8b064774c1eed6b4cc63fcbd1b199593612bce575b50505133815260208101919091529081906040820190565b0390a3565b612bd7916120f7565b3880612bb1565b508251903d90823e3d90fd5b5050505050505050565b9190916000838201938412911290801582169115161761231157565b92909173ffffffffffffffffffffffffffffffffffffffff809416938415908115612dda575b50612dd457612c45823361298c565b906000913383526004602052612c5e8460408520612270565b8684526020526040832090612c81836c0100000000000000000000000088613044565b612c8c835482612566565b92600383015491828502927f8000000000000000000000000000000000000000000000000000000000000000811488871216612da7578584051485151715612d7a5791612cfe74010000000000000000000000000000000000000000600184600296612d099896550192058254612bf4565b905501918254612bf4565b905560405193845260208401526002821015612d4d575060408201527f9776a1047fd3e7459fcc529a4fcc441af3c74bab1415fbdb0d2e70990f545e3f60603392a3565b807f4e487b7100000000000000000000000000000000000000000000000000000000602492526021600452fd5b6024877f4e487b710000000000000000000000000000000000000000000000000000000081526011600452fd5b6024887f4e487b710000000000000000000000000000000000000000000000000000000081526011600452fd5b50505050565b90507f000000000000000000000000000000000000000000000000000000000000000016841438612c36565b323303612e0f57565b6040517f5d915989000000000000000000000000000000000000000000000000000000008152336004820152326024820152604490fd5b908160a09103126122385780518015158103612238579160208201516affffffffffffffffffffff811681036122385791612e83604082016126d5565b916080612e92606084016126d5565b9201516bffffffffffffffffffffffff811681036122385790565b6040517ff851a44000000000000000000000000000000000000000000000000000000000815273ffffffffffffffffffffffffffffffffffffffff602082600481847f0000000000000000000000000000000000000000000000000000000000000000165afa91821561286957600092612f7d575b5081163303612f2e5750565b6040517f2a02a24a00000000000000000000000000000000000000000000000000000000815273ffffffffffffffffffffffffffffffffffffffff919091166004820152336024820152604490fd5b90916020823d8211612fb0575b81612f97602093836120f7565b810103126102cb5750612fa9906126d5565b9038612f22565b3d9150612f8a565b90807fffffffffffffffffffffffffffffffffffffffffffffffffffffffffffffffff0482118102612ff357670de0b6b3a764000091020490565b63bac65e5b6000526004601cfd5b670de0b6b3a7640000907812725dd1d243aba0e75fe645cc4873f9e65afe688c928e1f21811182021583021561303657020490565b637c5f487d6000526004601cfd5b91600092828102927fffffffffffffffffffffffffffffffffffffffffffffffffffffffffffffffff81830991848310850180840393146130e457828411156130d757908391099060018386038416808080960460028082600302188083028203028083028203028083028203028083028203028083028203028092029003029703040190848311900302920304170290565b63ae47f70286526004601cfd5b5050509182156130f357500490565b63ae47f70290526004601cfdfea164736f6c6343000811000a","opcodes":"PUSH2 0x140 PUSH1 0x40 DUP2 DUP2 MSTORE CALLVALUE PUSH3 0x4CD JUMPI DUP2 SWAP1 PUSH3 0x3655 DUP1 CODESIZE SUB DUP1 SWAP2 PUSH3 0x24 DUP3 DUP7 PUSH3 0x4D2 JUMP JUMPDEST DUP5 CODECOPY PUSH1 0x60 SWAP3 DUP4 SWAP2 DUP2 ADD SUB SLT PUSH3 0x4CD JUMPI DUP3 MLOAD SWAP2 PUSH1 0x1 PUSH1 0x1 PUSH1 0xA0 SHL SUB DUP4 AND DUP1 DUP5 SUB PUSH3 0x4CD JUMPI PUSH1 0x20 SWAP2 DUP4 PUSH3 0x5A DUP5 DUP9 ADD PUSH3 0x50C JUMP JUMPDEST SWAP7 ADD MLOAD SWAP5 PUSH1 0x1 PUSH1 0x0 SWAP4 DUP2 PUSH1 0xFF NOT DUP7 SLOAD AND OR DUP6 SSTORE PUSH8 0xB1A2BC2EC500000 PUSH1 0x8 SSTORE PUSH2 0x100 SWAP8 DUP9 MSTORE DUP5 SWAP3 DUP6 SWAP4 DUP7 JUMPDEST DUP1 ISZERO PUSH3 0x2E1 JUMPI POP POP PUSH3 0x140CD0 DUP1 SWAP5 DIV SWAP10 DUP11 PUSH1 0x5 SSTORE PUSH8 0x69789FBBC4F8000 DUP1 DUP13 GT PUSH3 0x2C4 JUMPI POP PUSH1 0xE0 MSTORE PUSH1 0x80 MSTORE DUP7 MLOAD PUSH4 0xB60D15F PUSH1 0xE3 SHL DUP2 MSTORE SWAP8 SWAP9 SWAP1 DUP7 SWAP1 DUP10 SWAP1 PUSH1 0x4 SWAP1 DUP3 SWAP1 GAS STATICCALL SWAP8 DUP9 ISZERO PUSH3 0x2BA JUMPI DUP6 SWAP9 PUSH3 0x277 JUMPI JUMPDEST POP PUSH2 0x120 SWAP8 DUP9 MSTORE TIMESTAMP PUSH1 0x7 SSTORE TIMESTAMP PUSH1 0xA0 MSTORE PUSH4 0x784CE00 TIMESTAMP ADD DUP1 TIMESTAMP GT PUSH3 0x263 JUMPI PUSH1 0xC0 MSTORE DUP3 TIMESTAMP ADD SWAP2 DUP3 TIMESTAMP GT PUSH3 0x263 JUMPI DUP4 DUP3 MUL SWAP4 DUP3 DUP6 DIV EQ DUP3 ISZERO OR ISZERO PUSH3 0x263 JUMPI PUSH32 0xCC53A96DDDB8D3B8710C4932D9E90652A4EAEF0BF4C37A13DC4D806E1B54CB4D SWAP7 SWAP5 SWAP3 PUSH1 0x80 SWAP7 SWAP5 SWAP3 PUSH1 0x5 SWAP3 DUP11 MLOAD SWAP5 PUSH3 0x156 PUSH1 0xC0 DUP8 PUSH3 0x4D2 JUMP JUMPDEST DUP8 DUP7 MSTORE DUP9 DUP7 ADD SWAP3 DUP4 MSTORE DUP12 DUP7 ADD SWAP1 DUP2 MSTORE DUP7 DUP7 ADD SWAP2 DUP9 DUP4 MSTORE DUP11 DUP8 ADD SWAP4 TIMESTAMP DUP6 MSTORE PUSH1 0xA0 DUP9 ADD SWAP6 DUP7 MSTORE DUP10 DUP1 MSTORE PUSH1 0x2 DUP12 MSTORE DUP14 DUP11 KECCAK256 SWAP8 MLOAD DUP9 SSTORE MLOAD SWAP1 DUP8 ADD SSTORE MLOAD PUSH1 0x2 DUP7 ADD SSTORE MLOAD PUSH1 0x3 DUP6 ADD SSTORE MLOAD PUSH1 0x4 DUP5 ADD SSTORE MLOAD SWAP2 ADD SSTORE PUSH1 0x5 SLOAD SWAP2 DUP1 DUP8 MLOAD SWAP5 DUP2 DUP7 MSTORE DUP6 ADD MSTORE DUP7 DUP5 ADD MSTORE DUP3 ADD MSTORE LOG1 MLOAD SWAP1 PUSH2 0x310D SWAP3 DUP4 PUSH3 0x548 DUP5 CODECOPY PUSH1 0x80 MLOAD DUP4 DUP2 DUP2 PUSH2 0x4D8 ADD MSTORE DUP2 DUP2 PUSH2 0x818 ADD MSTORE DUP2 DUP2 PUSH2 0xC87 ADD MSTORE DUP2 DUP2 PUSH2 0xF0E ADD MSTORE DUP2 DUP2 PUSH2 0x2758 ADD MSTORE PUSH2 0x2EF1 ADD MSTORE PUSH1 0xA0 MLOAD DUP4 DUP2 DUP2 PUSH2 0x6C1 ADD MSTORE DUP2 DUP2 PUSH2 0x9CA ADD MSTORE DUP2 DUP2 PUSH2 0x23B7 ADD MSTORE PUSH2 0x27B7 ADD MSTORE PUSH1 0xC0 MLOAD DUP4 DUP2 DUP2 PUSH2 0x1084 ADD MSTORE DUP2 DUP2 PUSH2 0x1154 ADD MSTORE DUP2 DUP2 PUSH2 0x2388 ADD MSTORE PUSH2 0x27DD ADD MSTORE PUSH1 0xE0 MLOAD DUP4 DUP2 DUP2 PUSH2 0x17C5 ADD MSTORE DUP2 DUP2 PUSH2 0x1BF0 ADD MSTORE PUSH2 0x2AFC ADD MSTORE MLOAD DUP3 DUP2 DUP2 PUSH2 0x721 ADD MSTORE PUSH2 0x24EC ADD MSTORE MLOAD DUP2 DUP2 DUP2 PUSH2 0x13F5 ADD MSTORE PUSH2 0x2DDE ADD MSTORE RETURN JUMPDEST PUSH4 0x4E487B71 PUSH1 0xE0 SHL DUP7 MSTORE PUSH1 0x11 PUSH1 0x4 MSTORE PUSH1 0x24 DUP7 REVERT JUMPDEST SWAP1 SWAP8 POP DUP6 DUP2 DUP2 RETURNDATASIZE DUP4 GT PUSH3 0x2B2 JUMPI JUMPDEST PUSH3 0x292 DUP2 DUP4 PUSH3 0x4D2 JUMP JUMPDEST DUP2 ADD SUB SLT PUSH3 0x2AE JUMPI PUSH3 0x2A6 SWAP1 PUSH3 0x50C JUMP JUMPDEST SWAP7 CODESIZE PUSH3 0xDC JUMP JUMPDEST DUP5 DUP1 REVERT JUMPDEST POP RETURNDATASIZE PUSH3 0x286 JUMP JUMPDEST DUP8 MLOAD RETURNDATASIZE DUP8 DUP3 RETURNDATACOPY RETURNDATASIZE SWAP1 REVERT JUMPDEST PUSH1 0x44 SWAP1 DUP13 DUP12 MLOAD SWAP2 PUSH4 0x1109F6E3 PUSH1 0xE3 SHL DUP4 MSTORE PUSH1 0x4 DUP4 ADD MSTORE PUSH1 0x24 DUP3 ADD MSTORE REVERT JUMPDEST SWAP1 SWAP5 POP DUP10 MLOAD SWAP5 DUP1 DUP7 SUB SWAP6 DUP7 GT PUSH3 0x38D JUMPI DUP2 DUP8 SUB SWAP6 DUP8 DUP8 GT PUSH3 0x4B9 JUMPI PUSH8 0xDE0B6B3A7640000 SWAP7 DUP10 SWAP1 JUMPDEST DUP1 DUP3 LT PUSH3 0x45E JUMPI POP POP DUP7 PUSH8 0xDE0B6B3A7640000 SUB PUSH8 0xDE0B6B3A7640000 DUP2 GT PUSH3 0x44A JUMPI DUP7 SWAP1 DUP11 SWAP9 PUSH7 0x58D15E17628000 SWAP4 DUP5 DUP2 MUL PUSH1 0x0 NOT DUP7 DUP4 MULMOD SWAP6 DUP5 DUP3 DUP9 LT DUP4 ADD DUP1 DUP10 SUB SWAP9 EQ SWAP2 DUP9 DUP3 GT ISZERO SWAP5 MULMOD SWAP7 DUP3 DUP9 GT SWAP1 SUB SWAP7 DUP3 SUB SWAP6 PUSH3 0x3A1 JUMPI JUMPDEST POP POP POP POP POP POP POP DUP6 DUP2 ADD DUP1 SWAP2 GT PUSH3 0x38D JUMPI PUSH3 0x387 SWAP1 SWAP2 PUSH3 0x521 JUMP JUMPDEST PUSH3 0x85 JUMP JUMPDEST PUSH4 0x4E487B71 PUSH1 0xE0 SHL DUP9 MSTORE PUSH1 0x11 PUSH1 0x4 MSTORE PUSH1 0x24 DUP9 REVERT JUMPDEST SWAP1 SWAP2 SWAP3 SWAP4 SWAP5 SWAP6 SWAP7 SWAP12 POP PUSH3 0x419 JUMPI POP PUSH3 0x40C JUMPI PUSH8 0xDE0B6B3A763FFFF NOT ADD DUP2 AND DUP1 SWAP2 DIV PUSH1 0x2 DUP1 DUP3 PUSH1 0x3 MUL XOR DUP1 DUP4 MUL DUP3 SUB MUL DUP1 DUP4 MUL DUP3 SUB MUL DUP1 DUP4 MUL DUP3 SUB MUL DUP1 DUP4 MUL DUP3 SUB MUL DUP1 DUP4 MUL DUP3 SUB MUL DUP1 SWAP3 MUL SWAP1 SUB MUL SWAP3 DUP8 DUP3 DUP1 DUP14 SUB DIV ADD MUL SWAP2 DIV OR MUL SWAP5 CODESIZE DUP1 DUP1 DUP1 DUP1 DUP1 DUP1 PUSH3 0x369 JUMP JUMPDEST PUSH4 0xAE47F702 DUP12 MSTORE PUSH1 0x4 PUSH1 0x1C REVERT JUMPDEST SWAP4 POP POP SWAP1 SWAP3 POP PUSH8 0xDE0B6B3A7640000 EQ PUSH3 0x43D JUMPI DIV SWAP5 CODESIZE DUP1 DUP1 DUP1 DUP1 DUP1 DUP1 PUSH3 0x369 JUMP JUMPDEST PUSH4 0xAE47F702 DUP10 MSTORE PUSH1 0x4 PUSH1 0x1C REVERT JUMPDEST PUSH4 0x4E487B71 PUSH1 0xE0 SHL DUP11 MSTORE PUSH1 0x11 PUSH1 0x4 MSTORE PUSH1 0x24 DUP11 REVERT JUMPDEST SWAP1 SWAP8 PUSH8 0xD87E55590018000 SWAP1 PUSH25 0x12EB73EAE4C8B0077DB7B119A3928413FFF44D230654AC05AC DUP2 GT DUP3 MUL PUSH3 0x4AC JUMPI PUSH3 0x4A5 SWAP2 PUSH8 0xDE0B6B3A7640000 SWAP2 MUL DIV SWAP9 PUSH3 0x521 JUMP JUMPDEST SWAP1 PUSH3 0x30B JUMP JUMPDEST PUSH4 0xBAC65E5B DUP13 MSTORE PUSH1 0x4 PUSH1 0x1C REVERT JUMPDEST PUSH4 0x4E487B71 PUSH1 0xE0 SHL DUP10 MSTORE PUSH1 0x11 PUSH1 0x4 MSTORE PUSH1 0x24 DUP10 REVERT JUMPDEST PUSH1 0x0 DUP1 REVERT JUMPDEST PUSH1 0x1F SWAP1 SWAP2 ADD PUSH1 0x1F NOT AND DUP2 ADD SWAP1 PUSH1 0x1 PUSH1 0x1 PUSH1 0x40 SHL SUB DUP3 GT SWAP1 DUP3 LT OR PUSH3 0x4F6 JUMPI PUSH1 0x40 MSTORE JUMP JUMPDEST PUSH4 0x4E487B71 PUSH1 0xE0 SHL PUSH1 0x0 MSTORE PUSH1 0x41 PUSH1 0x4 MSTORE PUSH1 0x24 PUSH1 0x0 REVERT JUMPDEST MLOAD SWAP1 PUSH1 0x1 PUSH1 0x1 PUSH1 0xA0 SHL SUB DUP3 AND DUP3 SUB PUSH3 0x4CD JUMPI JUMP JUMPDEST PUSH1 0x0 NOT DUP2 EQ PUSH3 0x531 JUMPI PUSH1 0x1 ADD SWAP1 JUMP JUMPDEST PUSH4 0x4E487B71 PUSH1 0xE0 SHL PUSH1 0x0 MSTORE PUSH1 0x11 PUSH1 0x4 MSTORE PUSH1 0x24 PUSH1 0x0 REVERT INVALID PUSH1 0x40 PUSH1 0x80 DUP2 MSTORE PUSH1 0x4 SWAP1 DUP2 CALLDATASIZE LT ISZERO PUSH2 0x15 JUMPI PUSH1 0x0 DUP1 REVERT JUMPDEST PUSH1 0x0 DUP1 CALLDATALOAD PUSH1 0xE0 SHR DUP1 PUSH4 0x1BAC4C6 EQ PUSH2 0x202D JUMPI DUP1 PUSH4 0x4D4E9BD EQ PUSH2 0x1FD7 JUMPI DUP1 PUSH4 0x6FDDE03 EQ PUSH2 0x1F68 JUMPI DUP1 PUSH4 0xBFC4AF9 EQ PUSH2 0x1F0E JUMPI DUP1 PUSH4 0x135022C2 EQ PUSH2 0x1E92 JUMPI DUP1 PUSH4 0x17CAF6F1 EQ PUSH2 0x1E55 JUMPI DUP1 PUSH4 0x1AD4C8C3 EQ PUSH2 0x1DE6 JUMPI DUP1 PUSH4 0x1BAFED52 EQ PUSH2 0x1D6E JUMPI DUP1 PUSH4 0x1BE05289 EQ PUSH2 0x1D31 JUMPI DUP1 PUSH4 0x1BE19560 EQ PUSH2 0x1B4D JUMPI DUP1 PUSH4 0x1D5E8E50 EQ PUSH2 0x198E JUMPI DUP1 PUSH4 0x1F3ADC0F EQ PUSH2 0x1952 JUMPI DUP1 PUSH4 0x28419D62 EQ PUSH2 0x1912 JUMPI DUP1 PUSH4 0x32FCD966 EQ PUSH2 0x18C4 JUMPI DUP1 PUSH4 0x4A91F2B1 EQ PUSH2 0x183E JUMPI DUP1 PUSH4 0x4F3D90B1 EQ PUSH2 0x17E9 JUMPI DUP1 PUSH4 0x4F573686 EQ PUSH2 0x177A JUMPI DUP1 PUSH4 0x4FCC5575 EQ PUSH2 0x1701 JUMPI DUP1 PUSH4 0x5104517F EQ PUSH2 0x168D JUMPI DUP1 PUSH4 0x5303654F EQ PUSH2 0x15CF JUMPI DUP1 PUSH4 0x53CDE488 EQ PUSH2 0x1592 JUMPI DUP1 PUSH4 0x5493B5D6 EQ PUSH2 0x1555 JUMPI DUP1 PUSH4 0x54FD4D50 EQ PUSH2 0x14E2 JUMPI DUP1 PUSH4 0x58322A8E EQ PUSH2 0x1419 JUMPI DUP1 PUSH4 0x5B068AF8 EQ PUSH2 0x13AA JUMPI DUP1 PUSH4 0x5CCB14AC EQ PUSH2 0x1321 JUMPI DUP1 PUSH4 0x5D8BEACE EQ PUSH2 0x12B2 JUMPI DUP1 PUSH4 0x5DE7FCD0 EQ PUSH2 0x126C JUMPI DUP1 PUSH4 0x5F15C3C9 EQ PUSH2 0x1232 JUMPI DUP1 PUSH4 0x61480EEC EQ PUSH2 0x11BD JUMPI DUP1 PUSH4 0x6673FD97 EQ PUSH2 0x1177 JUMPI DUP1 PUSH4 0x6FA42261 EQ PUSH2 0x111E JUMPI DUP1 PUSH4 0x72E127CB EQ PUSH2 0x10E1 JUMPI DUP1 PUSH4 0x796B89B9 EQ PUSH2 0x10A8 JUMPI DUP1 PUSH4 0x7C4941EC EQ PUSH2 0x104B JUMPI DUP1 PUSH4 0x89C614B8 EQ PUSH2 0x100E JUMPI DUP1 PUSH4 0x8ECF3B45 EQ PUSH2 0xE6C JUMPI DUP1 PUSH4 0x93C3677B EQ PUSH2 0xBED JUMPI DUP1 PUSH4 0x9D3BBE6E EQ PUSH2 0xB25 JUMPI DUP1 PUSH4 0x9E81B634 EQ PUSH2 0xAE5 JUMPI DUP1 PUSH4 0xABFDF70A EQ PUSH2 0xAA8 JUMPI DUP1 PUSH4 0xAC9462F5 EQ PUSH2 0xA69 JUMPI DUP1 PUSH4 0xB97DD9E2 EQ PUSH2 0xA2E JUMPI DUP1 PUSH4 0xC1F1E5AE EQ PUSH2 0x9ED JUMPI DUP1 PUSH4 0xC81BA8F0 EQ PUSH2 0x994 JUMPI DUP1 PUSH4 0xCB87F7F3 EQ PUSH2 0x781 JUMPI DUP1 PUSH4 0xD37DB1D2 EQ PUSH2 0x744 JUMPI DUP1 PUSH4 0xD4F7286B EQ PUSH2 0x6EB JUMPI DUP1 PUSH4 0xD797C4C3 EQ PUSH2 0x681 JUMPI DUP1 PUSH4 0xDDEAAB1F EQ PUSH2 0x56B JUMPI DUP1 PUSH4 0xE6C5B8EA EQ PUSH2 0x4FC JUMPI DUP1 PUSH4 0xE8A24E1D EQ PUSH2 0x48D JUMPI DUP1 PUSH4 0xF126D964 EQ PUSH2 0x44B JUMPI DUP1 PUSH4 0xF2B128A4 EQ PUSH2 0x359 JUMPI DUP1 PUSH4 0xF6503E6C EQ PUSH2 0x2CE JUMPI PUSH4 0xFD59C299 EQ PUSH2 0x288 JUMPI PUSH1 0x0 DUP1 REVERT JUMPDEST CALLVALUE PUSH2 0x2CB JUMPI PUSH1 0x20 PUSH32 0xFFFFFFFFFFFFFFFFFFFFFFFFFFFFFFFFFFFFFFFFFFFFFFFFFFFFFFFFFFFFFFFC CALLDATASIZE ADD SLT PUSH2 0x2CB JUMPI POP PUSH2 0x2C4 PUSH1 0x20 SWAP3 CALLDATALOAD PUSH2 0x24E4 JUMP JUMPDEST SWAP1 MLOAD SWAP1 DUP2 MSTORE RETURN JUMPDEST DUP1 REVERT JUMPDEST POP SWAP1 CALLVALUE PUSH2 0x355 JUMPI PUSH1 0x20 PUSH32 0xFFFFFFFFFFFFFFFFFFFFFFFFFFFFFFFFFFFFFFFFFFFFFFFFFFFFFFFFFFFFFFFC CALLDATASIZE ADD SLT PUSH2 0x355 JUMPI PUSH2 0x309 DUP4 CALLDATALOAD PUSH2 0x24E4 JUMP JUMPDEST SWAP2 PUSH3 0x140CD0 SWAP3 DUP4 DUP2 MUL SWAP4 DUP2 DUP6 DIV EQ SWAP1 ISZERO OR ISZERO PUSH2 0x329 JUMPI PUSH1 0x20 DUP4 DUP4 MLOAD SWAP1 DUP2 MSTORE RETURN JUMPDEST DUP1 PUSH1 0x11 DUP6 PUSH32 0x4E487B7100000000000000000000000000000000000000000000000000000000 PUSH1 0x24 SWAP5 MSTORE MSTORE REVERT JUMPDEST POP DUP1 REVERT JUMPDEST POP SWAP2 SWAP1 CALLVALUE PUSH2 0x447 JUMPI DUP3 PUSH32 0xFFFFFFFFFFFFFFFFFFFFFFFFFFFFFFFFFFFFFFFFFFFFFFFFFFFFFFFFFFFFFFFC CALLDATASIZE ADD SLT PUSH2 0x447 JUMPI DUP3 SLOAD SWAP2 PUSH1 0xFF DUP4 AND ISZERO PUSH2 0x420 JUMPI POP SWAP1 PUSH32 0x43604600D5D5B743877B9625896FEA0414A17136BBE657753A96DC6F80EDE1B9 PUSH1 0x60 PUSH1 0x1 SWAP4 PUSH32 0xFFFFFFFFFFFFFFFFFFFFFFFFFFFFFFFFFFFFFFFFFFFFFFFFFFFFFFFFFFFFFF00 DUP1 SWAP5 AND DUP7 SSTORE PUSH2 0x3EC PUSH2 0x2E06 JUMP JUMPDEST PUSH2 0x3F4 PUSH2 0x257F JUMP JUMPDEST PUSH2 0x3FC PUSH2 0x2921 JUMP JUMPDEST DUP5 SLOAD SWAP1 PUSH2 0x407 PUSH2 0x2386 JUMP JUMPDEST SWAP1 DUP1 MLOAD SWAP3 DUP4 MSTORE CALLER PUSH1 0x20 DUP5 ADD MSTORE DUP3 ADD MSTORE LOG1 DUP3 SLOAD AND OR DUP2 SSTORE DUP1 RETURN JUMPDEST SWAP1 MLOAD PUSH32 0x37ED32E800000000000000000000000000000000000000000000000000000000 DUP2 MSTORE REVERT JUMPDEST DUP3 DUP1 REVERT JUMPDEST POP SWAP1 CALLVALUE PUSH2 0x355 JUMPI DUP2 PUSH32 0xFFFFFFFFFFFFFFFFFFFFFFFFFFFFFFFFFFFFFFFFFFFFFFFFFFFFFFFFFFFFFFFC CALLDATASIZE ADD SLT PUSH2 0x355 JUMPI PUSH1 0x20 SWAP1 PUSH1 0xFF PUSH1 0x9 SLOAD AND SWAP1 MLOAD SWAP1 ISZERO ISZERO DUP2 MSTORE RETURN JUMPDEST POP SWAP1 CALLVALUE PUSH2 0x355 JUMPI DUP2 PUSH32 0xFFFFFFFFFFFFFFFFFFFFFFFFFFFFFFFFFFFFFFFFFFFFFFFFFFFFFFFFFFFFFFFC CALLDATASIZE ADD SLT PUSH2 0x355 JUMPI PUSH1 0x20 SWAP1 MLOAD PUSH20 0xFFFFFFFFFFFFFFFFFFFFFFFFFFFFFFFFFFFFFFFF PUSH32 0x0 AND DUP2 MSTORE RETURN JUMPDEST POP DUP3 CALLVALUE PUSH2 0x355 JUMPI PUSH1 0x80 PUSH32 0xFFFFFFFFFFFFFFFFFFFFFFFFFFFFFFFFFFFFFFFFFFFFFFFFFFFFFFFFFFFFFFFC CALLDATASIZE ADD SLT PUSH2 0x355 JUMPI CALLDATALOAD PUSH20 0xFFFFFFFFFFFFFFFFFFFFFFFFFFFFFFFFFFFFFFFF DUP2 AND DUP2 SUB PUSH2 0x355 JUMPI PUSH1 0x64 CALLDATALOAD PUSH1 0x2 DUP2 LT ISZERO PUSH2 0x447 JUMPI PUSH2 0x568 SWAP2 PUSH1 0x44 CALLDATALOAD SWAP1 PUSH1 0x24 CALLDATALOAD SWAP1 PUSH2 0x2C10 JUMP JUMPDEST DUP1 RETURN JUMPDEST POP SWAP2 SWAP1 CALLVALUE PUSH2 0x447 JUMPI DUP1 PUSH32 0xFFFFFFFFFFFFFFFFFFFFFFFFFFFFFFFFFFFFFFFFFFFFFFFFFFFFFFFFFFFFFFFC CALLDATASIZE ADD SLT PUSH2 0x447 JUMPI DUP2 CALLDATALOAD SWAP2 PUSH1 0x2 DUP4 LT ISZERO PUSH2 0x67D JUMPI PUSH1 0x24 CALLDATALOAD PUSH20 0xFFFFFFFFFFFFFFFFFFFFFFFFFFFFFFFFFFFFFFFF SWAP2 DUP3 DUP3 AND DUP3 SUB PUSH2 0x679 JUMPI DUP6 SLOAD SWAP4 PUSH1 0xFF DUP6 AND ISZERO PUSH2 0x653 JUMPI POP POP PUSH32 0xFFFFFFFFFFFFFFFFFFFFFFFFFFFFFFFFFFFFFFFFFFFFFFFFFFFFFFFFFFFFFF00 DUP1 SWAP4 AND DUP6 SSTORE PUSH2 0x606 PUSH2 0x257F JUMP JUMPDEST PUSH2 0x60E PUSH2 0x2921 JUMP JUMPDEST PUSH1 0x1 SWAP4 PUSH2 0x61A DUP6 PUSH2 0x28A8 JUMP JUMPDEST SWAP3 DUP4 MLOAD SWAP4 DUP7 DUP9 JUMPDEST DUP7 DUP2 LT PUSH2 0x634 JUMPI DUP10 DUP3 DUP10 DUP3 SLOAD AND OR DUP2 SSTORE DUP1 RETURN JUMPDEST PUSH2 0x64B DUP7 DUP7 DUP7 PUSH2 0x644 DUP6 DUP9 PUSH2 0x290D JUMP JUMPDEST MLOAD AND PUSH2 0x2A47 JUMP JUMPDEST ADD DUP8 SWAP1 PUSH2 0x621 JUMP JUMPDEST MLOAD PUSH32 0x37ED32E800000000000000000000000000000000000000000000000000000000 DUP2 MSTORE REVERT JUMPDEST DUP6 DUP1 REVERT JUMPDEST DUP4 DUP1 REVERT JUMPDEST POP SWAP1 CALLVALUE PUSH2 0x355 JUMPI DUP2 PUSH32 0xFFFFFFFFFFFFFFFFFFFFFFFFFFFFFFFFFFFFFFFFFFFFFFFFFFFFFFFFFFFFFFFC CALLDATASIZE ADD SLT PUSH2 0x355 JUMPI PUSH1 0x20 SWAP1 PUSH2 0x2C4 PUSH4 0x784CE00 PUSH2 0x6E6 PUSH32 0x0 TIMESTAMP PUSH2 0x2379 JUMP JUMPDEST PUSH2 0x3001 JUMP JUMPDEST POP SWAP1 CALLVALUE PUSH2 0x355 JUMPI DUP2 PUSH32 0xFFFFFFFFFFFFFFFFFFFFFFFFFFFFFFFFFFFFFFFFFFFFFFFFFFFFFFFFFFFFFFFC CALLDATASIZE ADD SLT PUSH2 0x355 JUMPI PUSH1 0x20 SWAP1 MLOAD PUSH32 0x0 DUP2 MSTORE RETURN JUMPDEST POP SWAP1 CALLVALUE PUSH2 0x355 JUMPI DUP2 PUSH32 0xFFFFFFFFFFFFFFFFFFFFFFFFFFFFFFFFFFFFFFFFFFFFFFFFFFFFFFFFFFFFFFFC CALLDATASIZE ADD SLT PUSH2 0x355 JUMPI PUSH1 0x20 SWAP1 MLOAD PUSH4 0x1E13380 DUP2 MSTORE RETURN JUMPDEST POP SWAP2 CALLVALUE PUSH2 0x447 JUMPI DUP2 PUSH32 0xFFFFFFFFFFFFFFFFFFFFFFFFFFFFFFFFFFFFFFFFFFFFFFFFFFFFFFFFFFFFFFFC CALLDATASIZE ADD SLT PUSH2 0x447 JUMPI DUP1 CALLDATALOAD SWAP2 PUSH1 0x24 CALLDATALOAD SWAP1 PUSH2 0x7C0 PUSH2 0x257F JUMP JUMPDEST PUSH2 0x7C8 PUSH2 0x2921 JUMP JUMPDEST PUSH2 0x7D0 PUSH2 0x2EAD JUMP JUMPDEST DUP1 MLOAD PUSH32 0x1AD4C8C300000000000000000000000000000000000000000000000000000000 DUP2 MSTORE DUP5 DUP5 DUP3 ADD MSTORE PUSH20 0xFFFFFFFFFFFFFFFFFFFFFFFFFFFFFFFFFFFFFFFF PUSH1 0xA0 DUP3 PUSH1 0x24 DUP2 DUP5 PUSH32 0x0 AND GAS STATICCALL SWAP2 DUP3 ISZERO PUSH2 0x98A JUMPI DUP8 SWAP3 PUSH2 0x955 JUMPI JUMPDEST POP DUP2 AND SWAP4 DUP5 DUP8 MSTORE PUSH1 0x3 PUSH1 0x20 MSTORE PUSH2 0x861 PUSH1 0x1 DUP5 DUP10 KECCAK256 PUSH2 0x2270 JUMP JUMPDEST SWAP2 PUSH1 0xFF DUP4 SLOAD AND ISZERO PUSH2 0x904 JUMPI POP POP SWAP2 DUP4 SWAP2 PUSH1 0x60 SWAP4 PUSH32 0x9436A68F01CF8A4F756C053A98D6D88CDBD763A2D8AD77273779D054E2B82EEF SWAP6 DUP9 MSTORE PUSH1 0x3 PUSH1 0x20 MSTORE PUSH1 0x5 PUSH2 0x8AB DUP10 DUP5 DUP2 KECCAK256 PUSH2 0x2270 JUMP JUMPDEST SWAP2 ADD SWAP1 PUSH2 0x8F1 PUSH2 0x8C3 PUSH1 0x5 DUP5 SLOAD SWAP4 ADD SWAP3 DUP4 SLOAD SWAP1 PUSH2 0x24D7 JUMP JUMPDEST SWAP3 PUSH2 0x8D9 DUP7 PUSH2 0x8D4 DUP7 PUSH1 0x6 SLOAD PUSH2 0x2379 JUMP JUMPDEST PUSH2 0x24D7 JUMP JUMPDEST PUSH1 0x6 SSTORE PUSH2 0x8E8 PUSH1 0x8 SLOAD DUP8 PUSH2 0x2FB8 JUMP JUMPDEST DUP1 SWAP2 SSTORE DUP6 PUSH2 0x2379 JUMP JUMPDEST SWAP1 SSTORE DUP2 MLOAD SWAP4 DUP5 MSTORE PUSH1 0x20 DUP5 ADD MSTORE DUP3 ADD MSTORE LOG2 DUP1 RETURN JUMPDEST DUP4 MLOAD PUSH32 0xD80F594800000000000000000000000000000000000000000000000000000000 DUP2 MSTORE SWAP2 DUP3 ADD DUP8 DUP2 MSTORE PUSH20 0xFFFFFFFFFFFFFFFFFFFFFFFFFFFFFFFFFFFFFFFF SWAP1 SWAP2 AND PUSH1 0x20 DUP3 ADD MSTORE DUP2 SWAP1 PUSH1 0x40 ADD SUB SWAP1 REVERT JUMPDEST PUSH2 0x977 SWAP2 SWAP3 POP PUSH1 0xA0 RETURNDATASIZE DUP2 GT PUSH2 0x983 JUMPI JUMPDEST PUSH2 0x96F DUP2 DUP4 PUSH2 0x20F7 JUMP JUMPDEST DUP2 ADD SWAP1 PUSH2 0x2E46 JUMP JUMPDEST POP POP SWAP2 POP POP SWAP1 CODESIZE PUSH2 0x848 JUMP JUMPDEST POP RETURNDATASIZE PUSH2 0x965 JUMP JUMPDEST DUP4 MLOAD RETURNDATASIZE DUP10 DUP3 RETURNDATACOPY RETURNDATASIZE SWAP1 REVERT JUMPDEST POP SWAP1 CALLVALUE PUSH2 0x355 JUMPI DUP2 PUSH32 0xFFFFFFFFFFFFFFFFFFFFFFFFFFFFFFFFFFFFFFFFFFFFFFFFFFFFFFFFFFFFFFFC CALLDATASIZE ADD SLT PUSH2 0x355 JUMPI PUSH1 0x20 SWAP1 MLOAD PUSH32 0x0 DUP2 MSTORE RETURN JUMPDEST POP SWAP1 CALLVALUE PUSH2 0x355 JUMPI DUP2 PUSH32 0xFFFFFFFFFFFFFFFFFFFFFFFFFFFFFFFFFFFFFFFFFFFFFFFFFFFFFFFFFFFFFFFC CALLDATASIZE ADD SLT PUSH2 0x355 JUMPI PUSH1 0x20 SWAP1 MLOAD PUSH8 0x69789FBBC4F8000 DUP2 MSTORE RETURN JUMPDEST POP SWAP1 CALLVALUE PUSH2 0x355 JUMPI DUP2 PUSH32 0xFFFFFFFFFFFFFFFFFFFFFFFFFFFFFFFFFFFFFFFFFFFFFFFFFFFFFFFFFFFFFFFC CALLDATASIZE ADD SLT PUSH2 0x355 JUMPI PUSH1 0x20 SWAP1 PUSH2 0x2C4 PUSH2 0x2386 JUMP JUMPDEST POP SWAP1 CALLVALUE PUSH2 0x355 JUMPI DUP2 PUSH32 0xFFFFFFFFFFFFFFFFFFFFFFFFFFFFFFFFFFFFFFFFFFFFFFFFFFFFFFFFFFFFFFFC CALLDATASIZE ADD SLT PUSH2 0x355 JUMPI PUSH1 0x20 SWAP1 PUSH2 0x2C4 PUSH1 0x7 SLOAD TIMESTAMP PUSH2 0x2379 JUMP JUMPDEST POP SWAP1 CALLVALUE PUSH2 0x355 JUMPI DUP2 PUSH32 0xFFFFFFFFFFFFFFFFFFFFFFFFFFFFFFFFFFFFFFFFFFFFFFFFFFFFFFFFFFFFFFFC CALLDATASIZE ADD SLT PUSH2 0x355 JUMPI PUSH1 0x20 SWAP1 PUSH1 0x8 SLOAD SWAP1 MLOAD SWAP1 DUP2 MSTORE RETURN JUMPDEST POP SWAP1 CALLVALUE PUSH2 0x355 JUMPI DUP2 PUSH32 0xFFFFFFFFFFFFFFFFFFFFFFFFFFFFFFFFFFFFFFFFFFFFFFFFFFFFFFFFFFFFFFFC CALLDATASIZE ADD SLT PUSH2 0x355 JUMPI PUSH2 0x309 PUSH2 0xB20 PUSH2 0x2386 JUMP JUMPDEST PUSH2 0x24E4 JUMP JUMPDEST POP SWAP2 SWAP1 CALLVALUE PUSH2 0x447 JUMPI DUP1 PUSH32 0xFFFFFFFFFFFFFFFFFFFFFFFFFFFFFFFFFFFFFFFFFFFFFFFFFFFFFFFFFFFFFFFC CALLDATASIZE ADD SLT PUSH2 0x447 JUMPI DUP2 CALLDATALOAD PUSH20 0xFFFFFFFFFFFFFFFFFFFFFFFFFFFFFFFFFFFFFFFF SWAP1 DUP2 DUP2 AND DUP1 SWAP2 SUB PUSH2 0xBE9 JUMPI PUSH1 0x24 CALLDATALOAD SWAP1 PUSH1 0x2 DUP3 LT ISZERO PUSH2 0x679 JUMPI SWAP1 DUP4 DUP7 PUSH2 0xB9B SWAP4 PUSH1 0xE0 SWAP9 MSTORE PUSH1 0x3 PUSH1 0x20 MSTORE KECCAK256 PUSH2 0x2270 JUMP JUMPDEST SWAP1 PUSH1 0xFF DUP3 SLOAD AND SWAP4 PUSH1 0x1 DUP4 ADD SLOAD SWAP4 PUSH1 0x2 DUP5 ADD SLOAD SWAP1 PUSH1 0x3 DUP6 ADD SLOAD SWAP3 DUP6 ADD SLOAD SWAP4 PUSH1 0x6 PUSH1 0x5 DUP8 ADD SLOAD SWAP7 ADD SLOAD AND SWAP6 DUP2 MLOAD SWAP8 ISZERO ISZERO DUP9 MSTORE PUSH1 0x20 DUP9 ADD MSTORE DUP7 ADD MSTORE PUSH1 0x60 DUP6 ADD MSTORE PUSH1 0x80 DUP5 ADD MSTORE PUSH1 0xA0 DUP4 ADD MSTORE PUSH1 0xC0 DUP3 ADD MSTORE RETURN JUMPDEST DUP5 DUP1 REVERT JUMPDEST POP SWAP2 SWAP1 CALLVALUE PUSH2 0x447 JUMPI DUP1 PUSH32 0xFFFFFFFFFFFFFFFFFFFFFFFFFFFFFFFFFFFFFFFFFFFFFFFFFFFFFFFFFFFFFFFC CALLDATASIZE ADD SLT PUSH2 0x447 JUMPI DUP2 CALLDATALOAD SWAP1 PUSH1 0x24 CALLDATALOAD SWAP1 PUSH2 0xC2D PUSH2 0x257F JUMP JUMPDEST PUSH2 0xC35 PUSH2 0x2921 JUMP JUMPDEST PUSH2 0xC3D PUSH2 0x2EAD JUMP JUMPDEST DUP1 MLOAD SWAP4 PUSH32 0x1AD4C8C300000000000000000000000000000000000000000000000000000000 DUP6 MSTORE DUP4 DUP2 DUP7 ADD MSTORE PUSH20 0xFFFFFFFFFFFFFFFFFFFFFFFFFFFFFFFFFFFFFFFF SWAP1 PUSH1 0xA0 DUP7 PUSH1 0x24 DUP2 DUP6 PUSH32 0x0 AND GAS STATICCALL SWAP6 DUP7 ISZERO PUSH2 0x98A JUMPI DUP8 SWAP7 PUSH2 0xE47 JUMPI JUMPDEST POP DUP2 DUP7 AND SWAP6 DUP7 DUP9 MSTORE PUSH1 0x3 PUSH1 0x20 MSTORE PUSH1 0x1 SWAP1 PUSH2 0xCD3 DUP3 DUP7 DUP12 KECCAK256 PUSH2 0x2270 JUMP JUMPDEST SWAP1 DUP3 PUSH1 0xFF DUP4 SLOAD AND ISZERO ISZERO EQ PUSH2 0xDF5 JUMPI POP DUP8 DUP10 MSTORE PUSH1 0x3 PUSH1 0x20 MSTORE PUSH1 0x5 PUSH2 0xD5D DUP2 PUSH2 0xCFC DUP13 DUP10 DUP2 KECCAK256 PUSH2 0x2270 JUMP JUMPDEST SWAP4 PUSH2 0xD09 DUP11 PUSH1 0x6 SLOAD PUSH2 0x24D7 JUMP JUMPDEST PUSH1 0x6 SSTORE DUP6 PUSH32 0xFFFFFFFFFFFFFFFFFFFFFFFFFFFFFFFFFFFFFFFFFFFFFFFFFFFFFFFFFFFFFF00 DUP2 DUP2 DUP5 SLOAD AND OR DUP4 SSTORE DUP7 SLOAD AND OR DUP6 SSTORE DUP11 DUP7 DUP3 ADD SSTORE DUP11 DUP7 DUP7 ADD SSTORE PUSH2 0xD52 PUSH1 0x8 SLOAD DUP12 PUSH2 0x2FB8 JUMP JUMPDEST SWAP2 DUP3 SWAP2 ADD SSTORE DUP9 PUSH2 0x2379 JUMP JUMPDEST SWAP2 ADD SSTORE DUP1 SLOAD SWAP2 PUSH9 0x10000000000000000 DUP4 LT ISZERO PUSH2 0xDC9 JUMPI POP SWAP2 DUP7 PUSH2 0xDAB DUP4 DUP6 PUSH32 0x68BEA3F037520D478C14FD27A27947249AADE51810B62999AF0776BBD0097B96 SWAP9 SWAP7 PUSH1 0x20 SWAP9 SWAP7 ADD DUP2 SSTORE PUSH2 0x22B7 JUMP JUMPDEST SWAP1 SWAP3 DUP4 SLOAD SWAP2 PUSH1 0x3 SHL SWAP1 DUP2 SHL SWAP3 DUP4 SWAP2 SHL AND SWAP2 NOT AND OR SWAP1 SSTORE MLOAD SWAP1 DUP2 MSTORE LOG3 DUP1 RETURN JUMPDEST DUP9 PUSH1 0x41 PUSH1 0x24 SWAP3 PUSH32 0x4E487B7100000000000000000000000000000000000000000000000000000000 DUP4 MSTORE MSTORE REVERT JUMPDEST DUP6 MLOAD PUSH32 0xDA3D911500000000000000000000000000000000000000000000000000000000 DUP2 MSTORE DUP1 DUP6 ADD DUP10 DUP2 MSTORE PUSH20 0xFFFFFFFFFFFFFFFFFFFFFFFFFFFFFFFFFFFFFFFF SWAP1 SWAP3 AND PUSH1 0x20 DUP4 ADD MSTORE SWAP1 DUP2 SWAP1 PUSH1 0x40 ADD SUB SWAP1 REVERT JUMPDEST PUSH2 0xE60 SWAP2 SWAP7 POP PUSH1 0xA0 RETURNDATASIZE DUP2 GT PUSH2 0x983 JUMPI PUSH2 0x96F DUP2 DUP4 PUSH2 0x20F7 JUMP JUMPDEST POP POP SWAP2 POP POP SWAP5 CODESIZE PUSH2 0xCB7 JUMP JUMPDEST POP SWAP2 SWAP1 CALLVALUE PUSH2 0x447 JUMPI DUP1 PUSH32 0xFFFFFFFFFFFFFFFFFFFFFFFFFFFFFFFFFFFFFFFFFFFFFFFFFFFFFFFFFFFFFFFC CALLDATASIZE ADD SLT PUSH2 0x447 JUMPI DUP2 CALLDATALOAD PUSH1 0x24 CALLDATALOAD SWAP3 PUSH20 0xFFFFFFFFFFFFFFFFFFFFFFFFFFFFFFFFFFFFFFFF DUP1 DUP6 AND DUP1 SWAP6 SUB PUSH2 0x679 JUMPI PUSH2 0xECA PUSH2 0x257F JUMP JUMPDEST PUSH2 0xED2 PUSH2 0x2921 JUMP JUMPDEST PUSH2 0xEDA PUSH2 0x2EAD JUMP JUMPDEST DUP4 MLOAD SWAP1 PUSH32 0x1AD4C8C300000000000000000000000000000000000000000000000000000000 DUP3 MSTORE DUP4 DUP4 DUP4 ADD MSTORE PUSH1 0xA0 DUP3 PUSH1 0x24 DUP2 DUP5 PUSH32 0x0 AND GAS STATICCALL SWAP2 DUP3 ISZERO PUSH2 0x1004 JUMPI DUP8 SWAP3 PUSH2 0xFDF JUMPI JUMPDEST POP DUP2 AND DUP7 MSTORE PUSH1 0x3 PUSH1 0x20 MSTORE PUSH2 0xF55 PUSH1 0x1 DUP6 DUP9 KECCAK256 PUSH2 0x2270 JUMP JUMPDEST SWAP4 PUSH1 0xFF DUP6 SLOAD AND ISZERO PUSH2 0xF90 JUMPI PUSH1 0x6 DUP6 ADD DUP1 SLOAD PUSH32 0xFFFFFFFFFFFFFFFFFFFFFFFF0000000000000000000000000000000000000000 AND DUP8 OR SWAP1 SSTORE DUP7 DUP1 RETURN JUMPDEST MLOAD PUSH32 0xD80F594800000000000000000000000000000000000000000000000000000000 DUP2 MSTORE SWAP2 DUP3 ADD SWAP3 DUP4 MSTORE PUSH20 0xFFFFFFFFFFFFFFFFFFFFFFFFFFFFFFFFFFFFFFFF AND PUSH1 0x20 DUP4 ADD MSTORE SWAP1 DUP2 SWAP1 PUSH1 0x40 ADD SUB SWAP1 REVERT JUMPDEST PUSH2 0xFF8 SWAP2 SWAP3 POP PUSH1 0xA0 RETURNDATASIZE DUP2 GT PUSH2 0x983 JUMPI PUSH2 0x96F DUP2 DUP4 PUSH2 0x20F7 JUMP JUMPDEST POP POP SWAP2 POP POP SWAP1 CODESIZE PUSH2 0xF3E JUMP JUMPDEST DUP6 MLOAD RETURNDATASIZE DUP10 DUP3 RETURNDATACOPY RETURNDATASIZE SWAP1 REVERT JUMPDEST POP SWAP1 CALLVALUE PUSH2 0x355 JUMPI DUP2 PUSH32 0xFFFFFFFFFFFFFFFFFFFFFFFFFFFFFFFFFFFFFFFFFFFFFFFFFFFFFFFFFFFFFFFC CALLDATASIZE ADD SLT PUSH2 0x355 JUMPI PUSH1 0x20 SWAP1 PUSH1 0x7 SLOAD SWAP1 MLOAD SWAP1 DUP2 MSTORE RETURN JUMPDEST POP SWAP1 CALLVALUE PUSH2 0x355 JUMPI DUP2 PUSH32 0xFFFFFFFFFFFFFFFFFFFFFFFFFFFFFFFFFFFFFFFFFFFFFFFFFFFFFFFFFFFFFFFC CALLDATASIZE ADD SLT PUSH2 0x355 JUMPI PUSH1 0x20 SWAP1 PUSH2 0x2C4 TIMESTAMP PUSH32 0x0 PUSH2 0x2379 JUMP JUMPDEST POP SWAP1 CALLVALUE PUSH2 0x355 JUMPI DUP2 PUSH32 0xFFFFFFFFFFFFFFFFFFFFFFFFFFFFFFFFFFFFFFFFFFFFFFFFFFFFFFFFFFFFFFFC CALLDATASIZE ADD SLT PUSH2 0x355 JUMPI PUSH1 0x20 SWAP1 MLOAD TIMESTAMP DUP2 MSTORE RETURN JUMPDEST POP CALLVALUE PUSH2 0x2CB JUMPI PUSH1 0x20 PUSH32 0xFFFFFFFFFFFFFFFFFFFFFFFFFFFFFFFFFFFFFFFFFFFFFFFFFFFFFFFFFFFFFFFC CALLDATASIZE ADD SLT PUSH2 0x2CB JUMPI POP PUSH2 0x2C4 PUSH1 0x20 SWAP3 CALLDATALOAD PUSH2 0x2412 JUMP JUMPDEST POP SWAP1 CALLVALUE PUSH2 0x355 JUMPI DUP2 PUSH32 0xFFFFFFFFFFFFFFFFFFFFFFFFFFFFFFFFFFFFFFFFFFFFFFFFFFFFFFFFFFFFFFFC CALLDATASIZE ADD SLT PUSH2 0x355 JUMPI PUSH1 0x20 SWAP1 MLOAD PUSH32 0x0 DUP2 MSTORE RETURN JUMPDEST POP SWAP1 CALLVALUE PUSH2 0x355 JUMPI DUP2 PUSH32 0xFFFFFFFFFFFFFFFFFFFFFFFFFFFFFFFFFFFFFFFFFFFFFFFFFFFFFFFFFFFFFFFC CALLDATASIZE ADD SLT PUSH2 0x355 JUMPI PUSH1 0x20 SWAP1 PUSH2 0x2C4 PUSH3 0x140CD0 PUSH2 0x6E6 PUSH1 0x7 SLOAD TIMESTAMP PUSH2 0x2379 JUMP JUMPDEST POP CALLVALUE PUSH2 0x2CB JUMPI DUP1 PUSH32 0xFFFFFFFFFFFFFFFFFFFFFFFFFFFFFFFFFFFFFFFFFFFFFFFFFFFFFFFFFFFFFFFC CALLDATASIZE ADD SLT PUSH2 0x2CB JUMPI PUSH2 0x11F4 PUSH2 0x257F JUMP JUMPDEST PUSH2 0x11FC PUSH2 0x2921 JUMP JUMPDEST PUSH2 0x1204 PUSH2 0x2EAD JUMP JUMPDEST PUSH1 0x1 PUSH32 0xFFFFFFFFFFFFFFFFFFFFFFFFFFFFFFFFFFFFFFFFFFFFFFFFFFFFFFFFFFFFFF00 PUSH1 0x9 SLOAD AND OR PUSH1 0x9 SSTORE DUP1 RETURN JUMPDEST POP SWAP1 CALLVALUE PUSH2 0x355 JUMPI DUP2 PUSH32 0xFFFFFFFFFFFFFFFFFFFFFFFFFFFFFFFFFFFFFFFFFFFFFFFFFFFFFFFFFFFFFFFC CALLDATASIZE ADD SLT PUSH2 0x355 JUMPI PUSH1 0x20 SWAP1 MLOAD PUSH1 0x60 DUP2 MSTORE RETURN JUMPDEST POP SWAP1 CALLVALUE PUSH2 0x355 JUMPI DUP2 PUSH32 0xFFFFFFFFFFFFFFFFFFFFFFFFFFFFFFFFFFFFFFFFFFFFFFFFFFFFFFFFFFFFFFFC CALLDATASIZE ADD SLT PUSH2 0x355 JUMPI PUSH1 0x20 SWAP1 MLOAD PUSH13 0x1000000000000000000000000 DUP2 MSTORE RETURN JUMPDEST POP SWAP2 CALLVALUE PUSH2 0x447 JUMPI PUSH2 0x12C3 CALLDATASIZE DUP3 PUSH2 0x223D JUMP JUMPDEST SWAP3 DUP6 SWAP3 SWAP2 SWAP3 SLOAD SWAP5 PUSH1 0xFF DUP7 AND ISZERO PUSH2 0x653 JUMPI DUP7 PUSH1 0x1 DUP8 PUSH2 0x1318 DUP9 DUP9 DUP9 PUSH32 0xFFFFFFFFFFFFFFFFFFFFFFFFFFFFFFFFFFFFFFFFFFFFFFFFFFFFFFFFFFFFFF00 DUP1 SWAP6 AND DUP8 SSTORE PUSH2 0x130B PUSH2 0x257F JUMP JUMPDEST PUSH2 0x1313 PUSH2 0x2921 JUMP JUMPDEST PUSH2 0x2A47 JUMP JUMPDEST DUP3 SLOAD AND OR DUP2 SSTORE DUP1 RETURN JUMPDEST POP SWAP2 CALLVALUE PUSH2 0x447 JUMPI PUSH1 0x20 PUSH32 0xFFFFFFFFFFFFFFFFFFFFFFFFFFFFFFFFFFFFFFFFFFFFFFFFFFFFFFFFFFFFFFFC CALLDATASIZE ADD SLT PUSH2 0x447 JUMPI DUP1 CALLDATALOAD SWAP2 PUSH2 0x135D PUSH2 0x257F JUMP JUMPDEST PUSH2 0x1365 PUSH2 0x2921 JUMP JUMPDEST PUSH2 0x136D PUSH2 0x2EAD JUMP JUMPDEST PUSH8 0xDE0B6B3A7640000 DUP4 GT PUSH2 0x1384 JUMPI POP POP PUSH1 0x8 SSTORE DUP1 RETURN JUMPDEST MLOAD PUSH32 0x431C679300000000000000000000000000000000000000000000000000000000 DUP2 MSTORE REVERT JUMPDEST POP SWAP1 CALLVALUE PUSH2 0x355 JUMPI DUP2 PUSH32 0xFFFFFFFFFFFFFFFFFFFFFFFFFFFFFFFFFFFFFFFFFFFFFFFFFFFFFFFFFFFFFFFC CALLDATASIZE ADD SLT PUSH2 0x355 JUMPI PUSH1 0x20 SWAP1 MLOAD PUSH20 0xFFFFFFFFFFFFFFFFFFFFFFFFFFFFFFFFFFFFFFFF PUSH32 0x0 AND DUP2 MSTORE RETURN JUMPDEST POP CALLVALUE PUSH2 0x2CB JUMPI DUP1 PUSH32 0xFFFFFFFFFFFFFFFFFFFFFFFFFFFFFFFFFFFFFFFFFFFFFFFFFFFFFFFFFFFFFFFC CALLDATASIZE ADD SLT PUSH2 0x2CB JUMPI PUSH2 0x1450 PUSH2 0x2386 JUMP JUMPDEST DUP1 PUSH2 0x1462 JUMPI POP PUSH1 0x20 SWAP3 POP SWAP1 JUMPDEST MLOAD SWAP1 DUP2 MSTORE RETURN JUMPDEST PUSH32 0xFFFFFFFFFFFFFFFFFFFFFFFFFFFFFFFFFFFFFFFFFFFFFFFFFFFFFFFFFFFFFFFF DUP2 ADD SWAP1 DUP2 GT PUSH2 0x14B6 JUMPI PUSH2 0x1495 SWAP1 PUSH2 0x24E4 JUMP JUMPDEST SWAP1 PUSH3 0x140CD0 SWAP2 DUP3 DUP2 MUL SWAP3 DUP2 DUP5 DIV EQ SWAP1 ISZERO OR ISZERO PUSH2 0x329 JUMPI POP PUSH1 0x20 SWAP3 POP SWAP1 PUSH2 0x145C JUMP JUMPDEST PUSH1 0x24 DUP3 PUSH1 0x11 DUP7 PUSH32 0x4E487B7100000000000000000000000000000000000000000000000000000000 DUP4 MSTORE MSTORE REVERT JUMPDEST POP SWAP1 CALLVALUE PUSH2 0x355 JUMPI DUP2 PUSH32 0xFFFFFFFFFFFFFFFFFFFFFFFFFFFFFFFFFFFFFFFFFFFFFFFFFFFFFFFFFFFFFFFC CALLDATASIZE ADD SLT PUSH2 0x355 JUMPI PUSH2 0x1551 SWAP1 PUSH2 0x1520 PUSH1 0x5 PUSH2 0x2167 JUMP JUMPDEST SWAP1 PUSH32 0x312E302E30000000000000000000000000000000000000000000000000000000 PUSH1 0x20 DUP4 ADD MSTORE MLOAD SWAP2 DUP3 SWAP2 DUP3 PUSH2 0x21B1 JUMP JUMPDEST SUB SWAP1 RETURN JUMPDEST POP SWAP1 CALLVALUE PUSH2 0x355 JUMPI DUP2 PUSH32 0xFFFFFFFFFFFFFFFFFFFFFFFFFFFFFFFFFFFFFFFFFFFFFFFFFFFFFFFFFFFFFFFC CALLDATASIZE ADD SLT PUSH2 0x355 JUMPI PUSH1 0x20 SWAP1 PUSH1 0x5 SLOAD SWAP1 MLOAD SWAP1 DUP2 MSTORE RETURN JUMPDEST POP SWAP1 CALLVALUE PUSH2 0x355 JUMPI DUP2 PUSH32 0xFFFFFFFFFFFFFFFFFFFFFFFFFFFFFFFFFFFFFFFFFFFFFFFFFFFFFFFFFFFFFFFC CALLDATASIZE ADD SLT PUSH2 0x355 JUMPI PUSH1 0x20 SWAP1 PUSH1 0x1 SLOAD SWAP1 MLOAD SWAP1 DUP2 MSTORE RETURN JUMPDEST POP SWAP2 CALLVALUE PUSH2 0x447 JUMPI PUSH1 0x20 PUSH32 0xFFFFFFFFFFFFFFFFFFFFFFFFFFFFFFFFFFFFFFFFFFFFFFFFFFFFFFFFFFFFFFFC CALLDATASIZE ADD SLT PUSH2 0x447 JUMPI DUP1 CALLDATALOAD SWAP1 PUSH20 0xFFFFFFFFFFFFFFFFFFFFFFFFFFFFFFFFFFFFFFFF DUP3 AND DUP3 SUB PUSH2 0x67D JUMPI DUP4 SLOAD SWAP3 PUSH1 0xFF DUP5 AND ISZERO PUSH2 0x653 JUMPI DUP5 PUSH1 0x1 DUP6 PUSH2 0x1683 DUP4 DUP8 PUSH32 0xFFFFFFFFFFFFFFFFFFFFFFFFFFFFFFFFFFFFFFFFFFFFFFFFFFFFFFFFFFFFFF00 DUP1 SWAP5 AND DUP3 SSTORE PUSH2 0x1663 PUSH2 0x2E06 JUMP JUMPDEST PUSH2 0x166B PUSH2 0x257F JUMP JUMPDEST PUSH2 0x1673 PUSH2 0x2921 JUMP JUMPDEST PUSH2 0x167D DUP6 DUP3 PUSH2 0x298C JUMP JUMPDEST POP PUSH2 0x298C JUMP JUMPDEST POP DUP3 SLOAD AND OR DUP2 SSTORE DUP1 RETURN JUMPDEST POP SWAP1 CALLVALUE PUSH2 0x355 JUMPI DUP2 PUSH32 0xFFFFFFFFFFFFFFFFFFFFFFFFFFFFFFFFFFFFFFFFFFFFFFFFFFFFFFFFFFFFFFFC CALLDATASIZE ADD SLT PUSH2 0x355 JUMPI PUSH2 0x2C4 PUSH1 0x20 SWAP3 PUSH2 0x16FB PUSH2 0x16D9 PUSH3 0x140CD0 PUSH2 0x6E6 PUSH1 0x7 SLOAD TIMESTAMP PUSH2 0x2379 JUMP JUMPDEST PUSH2 0x16E1 PUSH2 0x2386 JUMP JUMPDEST DUP4 MSTORE PUSH1 0x2 DUP7 MSTORE PUSH1 0x3 DUP6 PUSH1 0x2 DUP2 DUP7 KECCAK256 ADD SLOAD SWAP5 KECCAK256 ADD SLOAD SWAP3 PUSH2 0x2FB8 JUMP JUMPDEST SWAP1 PUSH2 0x3001 JUMP JUMPDEST POP SWAP1 CALLVALUE PUSH2 0x355 JUMPI DUP2 PUSH32 0xFFFFFFFFFFFFFFFFFFFFFFFFFFFFFFFFFFFFFFFFFFFFFFFFFFFFFFFFFFFFFFFC CALLDATASIZE ADD SLT PUSH2 0x355 JUMPI DUP2 SWAP1 PUSH2 0x173B PUSH2 0x2386 JUMP JUMPDEST DUP4 SWAP1 JUMPDEST DUP1 DUP3 GT ISZERO PUSH2 0x1750 JUMPI PUSH1 0x20 DUP5 DUP5 MLOAD SWAP1 DUP2 MSTORE RETURN JUMPDEST SWAP1 SWAP3 PUSH2 0x176E PUSH2 0x1774 SWAP2 DUP6 DUP8 MSTORE PUSH1 0x2 PUSH1 0x20 MSTORE PUSH1 0x3 DUP6 DUP9 KECCAK256 ADD SLOAD SWAP1 PUSH2 0x24D7 JUMP JUMPDEST SWAP4 PUSH2 0x23E5 JUMP JUMPDEST SWAP1 PUSH2 0x173E JUMP JUMPDEST POP SWAP1 CALLVALUE PUSH2 0x355 JUMPI DUP2 PUSH32 0xFFFFFFFFFFFFFFFFFFFFFFFFFFFFFFFFFFFFFFFFFFFFFFFFFFFFFFFFFFFFFFFC CALLDATASIZE ADD SLT PUSH2 0x355 JUMPI PUSH1 0x20 SWAP1 MLOAD PUSH20 0xFFFFFFFFFFFFFFFFFFFFFFFFFFFFFFFFFFFFFFFF PUSH32 0x0 AND DUP2 MSTORE RETURN JUMPDEST POP SWAP1 CALLVALUE PUSH2 0x355 JUMPI DUP2 PUSH32 0xFFFFFFFFFFFFFFFFFFFFFFFFFFFFFFFFFFFFFFFFFFFFFFFFFFFFFFFFFFFFFFFC CALLDATASIZE ADD SLT PUSH2 0x355 JUMPI PUSH2 0x1825 PUSH1 0x7 SLOAD TIMESTAMP PUSH2 0x2379 JUMP JUMPDEST SWAP2 PUSH3 0x140CD0 SWAP3 DUP4 SUB SWAP3 DUP4 GT PUSH2 0x329 JUMPI PUSH1 0x20 DUP4 DUP4 MLOAD SWAP1 DUP2 MSTORE RETURN JUMPDEST POP SWAP2 CALLVALUE PUSH2 0x447 JUMPI DUP3 PUSH32 0xFFFFFFFFFFFFFFFFFFFFFFFFFFFFFFFFFFFFFFFFFFFFFFFFFFFFFFFFFFFFFFFC CALLDATASIZE ADD SLT PUSH2 0x447 JUMPI DUP3 SLOAD SWAP2 PUSH1 0xFF DUP4 AND ISZERO PUSH2 0x653 JUMPI DUP4 PUSH1 0x1 DUP5 PUSH32 0xFFFFFFFFFFFFFFFFFFFFFFFFFFFFFFFFFFFFFFFFFFFFFFFFFFFFFFFFFFFFFF00 DUP1 SWAP2 AND DUP4 SSTORE PUSH2 0x18AC PUSH2 0x2E06 JUMP JUMPDEST PUSH2 0x18B4 PUSH2 0x257F JUMP JUMPDEST PUSH2 0x18BC PUSH2 0x2921 JUMP JUMPDEST PUSH2 0x1318 PUSH2 0x26F6 JUMP JUMPDEST POP SWAP1 CALLVALUE PUSH2 0x355 JUMPI DUP2 PUSH32 0xFFFFFFFFFFFFFFFFFFFFFFFFFFFFFFFFFFFFFFFFFFFFFFFFFFFFFFFFFFFFFFFC CALLDATASIZE ADD SLT PUSH2 0x355 JUMPI PUSH1 0x20 SWAP1 MLOAD PUSH21 0x10000000000000000000000000000000000000000 DUP2 MSTORE RETURN JUMPDEST POP SWAP1 CALLVALUE PUSH2 0x355 JUMPI DUP2 PUSH32 0xFFFFFFFFFFFFFFFFFFFFFFFFFFFFFFFFFFFFFFFFFFFFFFFFFFFFFFFFFFFFFFFC CALLDATASIZE ADD SLT PUSH2 0x355 JUMPI PUSH1 0x20 SWAP1 MLOAD PUSH7 0x58D15E17628000 DUP2 MSTORE RETURN JUMPDEST POP SWAP1 CALLVALUE PUSH2 0x355 JUMPI DUP2 PUSH32 0xFFFFFFFFFFFFFFFFFFFFFFFFFFFFFFFFFFFFFFFFFFFFFFFFFFFFFFFFFFFFFFFC CALLDATASIZE ADD SLT PUSH2 0x355 JUMPI PUSH1 0x20 SWAP1 MLOAD PUSH3 0x140CD0 DUP2 MSTORE RETURN JUMPDEST POP SWAP2 CALLVALUE PUSH2 0x447 JUMPI PUSH2 0x199F CALLDATASIZE DUP3 PUSH2 0x223D JUMP JUMPDEST SWAP3 SWAP2 PUSH20 0xFFFFFFFFFFFFFFFFFFFFFFFFFFFFFFFFFFFFFFFF DUP1 SWAP2 AND SWAP3 DUP4 DUP8 MSTORE PUSH1 0x20 SWAP7 PUSH1 0x3 DUP9 MSTORE DUP4 DUP8 DUP3 KECCAK256 SWAP1 PUSH2 0x19D2 SWAP2 PUSH2 0x2270 JUMP JUMPDEST SWAP6 DUP8 MLOAD SWAP4 PUSH2 0x19E1 PUSH1 0xE0 DUP7 PUSH2 0x20F7 JUMP JUMPDEST DUP8 SLOAD PUSH1 0xFF AND ISZERO ISZERO DUP6 MSTORE PUSH1 0x1 DUP9 ADD SLOAD DUP11 DUP7 ADD MSTORE PUSH1 0x2 DUP9 ADD SLOAD SWAP6 DUP10 DUP7 ADD SWAP7 DUP8 MSTORE PUSH1 0x3 DUP10 ADD SLOAD SWAP8 PUSH1 0x60 DUP8 ADD SWAP9 DUP10 MSTORE DUP6 DUP11 ADD SLOAD SWAP7 PUSH1 0x80 DUP2 ADD SWAP8 DUP9 MSTORE DUP4 PUSH1 0x5 DUP13 ADD SLOAD SWAP12 PUSH1 0xA0 DUP4 ADD SWAP13 DUP14 MSTORE PUSH1 0x6 ADD SLOAD AND SWAP1 PUSH1 0xC0 ADD MSTORE DUP5 MSTORE DUP5 DUP12 MSTORE DUP10 DUP5 KECCAK256 SWAP1 PUSH2 0x1A42 SWAP2 PUSH2 0x2270 JUMP JUMPDEST SWAP2 AND DUP3 MSTORE DUP9 MSTORE DUP7 DUP2 KECCAK256 SWAP6 DUP8 MLOAD SWAP7 PUSH2 0x1A59 DUP10 DUP10 PUSH2 0x20F7 JUMP JUMPDEST DUP1 SLOAD DUP9 MSTORE PUSH1 0x1 ADD SLOAD SWAP6 DUP10 DUP9 ADD SWAP7 DUP8 MSTORE MLOAD SWAP5 MLOAD SWAP4 MLOAD DUP1 TIMESTAMP GT DUP1 PUSH2 0x1B44 JUMPI JUMPDEST PUSH2 0x1A97 JUMPI JUMPDEST DUP10 DUP10 PUSH2 0x2C4 DUP10 PUSH2 0x1A8C DUP11 DUP14 MLOAD PUSH2 0x22FE JUMP JUMPDEST PUSH1 0xA0 SHR SWAP1 MLOAD SWAP1 PUSH2 0x2566 JUMP JUMPDEST PUSH2 0x1AC8 SWAP2 PUSH2 0x1AB7 PUSH2 0x1AAE PUSH2 0x1ABF SWAP4 SWAP11 SWAP10 SWAP11 TIMESTAMP PUSH2 0x2379 JUMP JUMPDEST PUSH1 0x5 SLOAD SWAP1 PUSH2 0x22FE JUMP JUMPDEST SWAP1 MLOAD SWAP1 PUSH2 0x22FE JUMP JUMPDEST PUSH1 0x6 SLOAD SWAP1 PUSH2 0x2340 JUMP JUMPDEST SWAP2 DUP3 PUSH1 0xA0 SHL SWAP3 DUP1 DUP5 DIV PUSH21 0x10000000000000000000000000000000000000000 EQ SWAP1 ISZERO OR ISZERO PUSH2 0x1B18 JUMPI POP POP PUSH2 0x1A8C SWAP3 PUSH2 0x1B08 PUSH2 0x2C4 SWAP7 SWAP6 SWAP4 PUSH2 0x1B0E SWAP4 PUSH2 0x2340 JUMP JUMPDEST SWAP1 PUSH2 0x24D7 JUMP JUMPDEST SWAP2 DUP2 SWAP5 CODESIZE DUP1 PUSH2 0x1A7B JUMP JUMPDEST SWAP1 PUSH1 0x11 PUSH1 0x24 SWAP3 PUSH32 0x4E487B7100000000000000000000000000000000000000000000000000000000 DUP4 MSTORE MSTORE REVERT JUMPDEST POP DUP5 ISZERO ISZERO PUSH2 0x1A76 JUMP JUMPDEST POP DUP3 CALLVALUE PUSH2 0x355 JUMPI PUSH1 0x20 SWAP1 DUP2 PUSH32 0xFFFFFFFFFFFFFFFFFFFFFFFFFFFFFFFFFFFFFFFFFFFFFFFFFFFFFFFFFFFFFFFC CALLDATASIZE ADD SLT PUSH2 0x447 JUMPI DUP1 CALLDATALOAD SWAP1 PUSH20 0xFFFFFFFFFFFFFFFFFFFFFFFFFFFFFFFFFFFFFFFF SWAP3 DUP4 DUP4 AND SWAP2 DUP3 DUP5 SUB PUSH2 0x679 JUMPI DUP6 SLOAD SWAP5 PUSH1 0xFF DUP7 AND ISZERO PUSH2 0x1D09 JUMPI PUSH32 0xFFFFFFFFFFFFFFFFFFFFFFFFFFFFFFFFFFFFFFFFFFFFFFFFFFFFFFFFFFFFFF00 DUP1 SWAP7 AND DUP8 SSTORE PUSH2 0x1BDE PUSH2 0x257F JUMP JUMPDEST PUSH2 0x1BE6 PUSH2 0x2921 JUMP JUMPDEST PUSH2 0x1BEE PUSH2 0x2EAD JUMP JUMPDEST PUSH32 0x0 SWAP1 DUP2 AND DUP5 EQ PUSH2 0x1CB4 JUMPI POP PUSH4 0x70A08231 DUP7 MSTORE ADDRESS DUP3 MSTORE DUP2 DUP7 PUSH1 0x44 PUSH1 0x16 DUP3 DUP5 DUP1 PUSH1 0x24 PUSH1 0x1C DUP13 GAS STATICCALL PUSH1 0x1F RETURNDATASIZE GT AND DUP6 MLOAD MUL SWAP9 CALLER PUSH1 0x1A MSTORE DUP10 PUSH1 0x3A MSTORE PUSH10 0xA9059CBB000000000000 DUP3 MSTORE GAS CALL RETURNDATASIZE ISZERO PUSH1 0x1 DUP9 MLOAD EQ OR AND ISZERO PUSH2 0x1CA9 JUMPI POP DUP5 SWAP6 PUSH32 0xEE2522CA264E96C7CEF76269664E2A4CEA70AD76B78EE5B01D0587798A0A72D6 SWAP2 PUSH1 0x1 SWAP7 PUSH1 0x3A MSTORE PUSH2 0x1C94 PUSH2 0x2386 JUMP JUMPDEST SWAP1 DUP3 MLOAD SWAP6 DUP7 MSTORE DUP6 ADD MSTORE CALLER SWAP4 LOG3 DUP3 SLOAD AND OR DUP2 SSTORE DUP1 RETURN JUMPDEST PUSH4 0x90B8EC18 DUP7 MSTORE PUSH1 0x1C REVERT JUMPDEST DUP8 MLOAD PUSH32 0x6FCBE79C00000000000000000000000000000000000000000000000000000000 DUP2 MSTORE PUSH20 0xFFFFFFFFFFFFFFFFFFFFFFFFFFFFFFFFFFFFFFFF DUP1 DUP8 AND SWAP4 DUP3 ADD SWAP4 DUP5 MSTORE SWAP1 SWAP2 AND PUSH1 0x20 DUP4 ADD MSTORE SWAP1 DUP2 SWAP1 PUSH1 0x40 ADD SUB SWAP1 REVERT JUMPDEST POP DUP7 MLOAD PUSH32 0x37ED32E800000000000000000000000000000000000000000000000000000000 DUP2 MSTORE REVERT JUMPDEST POP SWAP1 CALLVALUE PUSH2 0x355 JUMPI DUP2 PUSH32 0xFFFFFFFFFFFFFFFFFFFFFFFFFFFFFFFFFFFFFFFFFFFFFFFFFFFFFFFFFFFFFFFC CALLDATASIZE ADD SLT PUSH2 0x355 JUMPI PUSH1 0x20 SWAP1 MLOAD PUSH4 0x784CE00 DUP2 MSTORE RETURN JUMPDEST POP SWAP1 CALLVALUE PUSH2 0x355 JUMPI DUP2 PUSH32 0xFFFFFFFFFFFFFFFFFFFFFFFFFFFFFFFFFFFFFFFFFFFFFFFFFFFFFFFFFFFFFFFC CALLDATASIZE ADD SLT PUSH2 0x355 JUMPI PUSH2 0x1DA6 PUSH2 0x2386 JUMP JUMPDEST PUSH1 0x1 DUP2 ADD DUP1 SWAP2 GT PUSH2 0x1DBA JUMPI PUSH2 0x309 SWAP1 PUSH2 0x24E4 JUMP JUMPDEST PUSH1 0x24 DUP4 PUSH1 0x11 DUP7 PUSH32 0x4E487B7100000000000000000000000000000000000000000000000000000000 DUP4 MSTORE MSTORE REVERT JUMPDEST POP SWAP2 CALLVALUE PUSH2 0x447 JUMPI PUSH1 0x20 PUSH32 0xFFFFFFFFFFFFFFFFFFFFFFFFFFFFFFFFFFFFFFFFFFFFFFFFFFFFFFFFFFFFFFFC CALLDATASIZE ADD SLT PUSH2 0x447 JUMPI CALLDATALOAD SWAP2 PUSH1 0x1 SLOAD DUP4 LT ISZERO PUSH2 0x2CB JUMPI POP PUSH20 0xFFFFFFFFFFFFFFFFFFFFFFFFFFFFFFFFFFFFFFFF PUSH2 0x1E46 PUSH1 0x20 SWAP4 PUSH1 0x1 PUSH2 0x22B7 JUMP JUMPDEST SWAP3 SWAP1 SLOAD SWAP1 MLOAD SWAP3 PUSH1 0x3 SHL SHR AND DUP2 MSTORE RETURN JUMPDEST POP SWAP1 CALLVALUE PUSH2 0x355 JUMPI DUP2 PUSH32 0xFFFFFFFFFFFFFFFFFFFFFFFFFFFFFFFFFFFFFFFFFFFFFFFFFFFFFFFFFFFFFFFC CALLDATASIZE ADD SLT PUSH2 0x355 JUMPI PUSH1 0x20 SWAP1 PUSH1 0x6 SLOAD SWAP1 MLOAD SWAP1 DUP2 MSTORE RETURN JUMPDEST POP SWAP2 SWAP1 CALLVALUE PUSH2 0x447 JUMPI PUSH1 0x20 PUSH32 0xFFFFFFFFFFFFFFFFFFFFFFFFFFFFFFFFFFFFFFFFFFFFFFFFFFFFFFFFFFFFFFFC CALLDATASIZE ADD SLT PUSH2 0x447 JUMPI DUP1 PUSH1 0xC0 SWAP4 DUP4 CALLDATALOAD DUP2 MSTORE PUSH1 0x2 PUSH1 0x20 MSTORE KECCAK256 DUP1 SLOAD SWAP3 PUSH1 0x1 DUP3 ADD SLOAD SWAP3 PUSH1 0x2 DUP4 ADD SLOAD SWAP1 PUSH1 0x5 PUSH1 0x3 DUP6 ADD SLOAD SWAP4 DUP6 ADD SLOAD SWAP5 ADD SLOAD SWAP5 DUP2 MLOAD SWAP7 DUP8 MSTORE PUSH1 0x20 DUP8 ADD MSTORE DUP6 ADD MSTORE PUSH1 0x60 DUP5 ADD MSTORE PUSH1 0x80 DUP4 ADD MSTORE PUSH1 0xA0 DUP3 ADD MSTORE RETURN JUMPDEST POP SWAP2 CALLVALUE PUSH2 0x447 JUMPI SWAP2 PUSH2 0x1F4D DUP3 SWAP4 PUSH2 0x1F25 CALLDATASIZE DUP3 PUSH2 0x223D JUMP JUMPDEST SWAP4 SWAP2 SWAP3 PUSH20 0xFFFFFFFFFFFFFFFFFFFFFFFFFFFFFFFFFFFFFFFF DUP1 SWAP5 AND DUP7 MSTORE PUSH1 0x20 MSTORE DUP6 DUP6 KECCAK256 PUSH2 0x2270 JUMP JUMPDEST SWAP2 AND DUP3 MSTORE PUSH1 0x20 MSTORE KECCAK256 PUSH1 0x1 DUP2 SLOAD SWAP2 ADD SLOAD DUP3 MLOAD SWAP2 DUP3 MSTORE PUSH1 0x20 DUP3 ADD MSTORE RETURN JUMPDEST POP SWAP1 CALLVALUE PUSH2 0x355 JUMPI DUP2 PUSH32 0xFFFFFFFFFFFFFFFFFFFFFFFFFFFFFFFFFFFFFFFFFFFFFFFFFFFFFFFFFFFFFFFC CALLDATASIZE ADD SLT PUSH2 0x355 JUMPI PUSH2 0x1551 SWAP1 PUSH2 0x1FA6 PUSH1 0x1D PUSH2 0x2167 JUMP JUMPDEST SWAP1 PUSH32 0x4379676E75733A2050696C6C617273206F66204372656174696F6E2023000000 PUSH1 0x20 DUP4 ADD MSTORE MLOAD SWAP2 DUP3 SWAP2 DUP3 PUSH2 0x21B1 JUMP JUMPDEST POP DUP3 CALLVALUE PUSH2 0x355 JUMPI DUP2 PUSH32 0xFFFFFFFFFFFFFFFFFFFFFFFFFFFFFFFFFFFFFFFFFFFFFFFFFFFFFFFFFFFFFFFC CALLDATASIZE ADD SLT PUSH2 0x355 JUMPI PUSH1 0x8 SLOAD SWAP2 PUSH8 0xDE0B6B3A7640000 SWAP2 DUP4 DUP4 SUB SWAP3 DUP4 GT PUSH2 0x1B18 JUMPI POP POP DUP3 MLOAD SWAP2 DUP3 MSTORE PUSH1 0x20 DUP3 ADD MSTORE RETURN JUMPDEST POP SWAP2 CALLVALUE PUSH2 0x447 JUMPI PUSH1 0x20 PUSH32 0xFFFFFFFFFFFFFFFFFFFFFFFFFFFFFFFFFFFFFFFFFFFFFFFFFFFFFFFFFFFFFFFC CALLDATASIZE ADD SLT PUSH2 0x447 JUMPI DUP1 CALLDATALOAD SWAP1 PUSH2 0x2069 PUSH2 0x257F JUMP JUMPDEST PUSH2 0x2071 PUSH2 0x2921 JUMP JUMPDEST PUSH2 0x2079 PUSH2 0x2EAD JUMP JUMPDEST PUSH8 0x69789FBBC4F8000 DUP1 DUP4 GT PUSH2 0x20C3 JUMPI DUP5 PUSH32 0x3EA86743BC8B6977A0693F6611AD7256D6EC1E3F996C6CBA22E146152959DDFF DUP6 DUP6 PUSH1 0x5 SLOAD SWAP1 DUP1 PUSH1 0x5 SSTORE DUP3 MLOAD SWAP2 DUP3 MSTORE PUSH1 0x20 DUP3 ADD MSTORE LOG1 DUP1 RETURN JUMPDEST SWAP2 PUSH1 0x44 SWAP3 DUP5 MLOAD SWAP3 PUSH32 0x884FB71800000000000000000000000000000000000000000000000000000000 DUP5 MSTORE DUP4 ADD MSTORE PUSH1 0x24 DUP3 ADD MSTORE REVERT JUMPDEST SWAP1 PUSH1 0x1F PUSH32 0xFFFFFFFFFFFFFFFFFFFFFFFFFFFFFFFFFFFFFFFFFFFFFFFFFFFFFFFFFFFFFFE0 SWAP2 ADD AND DUP2 ADD SWAP1 DUP2 LT PUSH8 0xFFFFFFFFFFFFFFFF DUP3 GT OR PUSH2 0x2138 JUMPI PUSH1 0x40 MSTORE JUMP JUMPDEST PUSH32 0x4E487B7100000000000000000000000000000000000000000000000000000000 PUSH1 0x0 MSTORE PUSH1 0x41 PUSH1 0x4 MSTORE PUSH1 0x24 PUSH1 0x0 REVERT JUMPDEST SWAP1 PUSH8 0xFFFFFFFFFFFFFFFF DUP3 GT PUSH2 0x2138 JUMPI PUSH1 0x40 MLOAD SWAP2 PUSH2 0x21AD PUSH1 0x20 PUSH32 0xFFFFFFFFFFFFFFFFFFFFFFFFFFFFFFFFFFFFFFFFFFFFFFFFFFFFFFFFFFFFFFE0 PUSH1 0x1F DUP5 ADD AND ADD DUP5 PUSH2 0x20F7 JUMP JUMPDEST DUP3 MSTORE JUMP JUMPDEST PUSH1 0x20 DUP1 DUP3 MSTORE DUP3 MLOAD DUP2 DUP4 ADD DUP2 SWAP1 MSTORE SWAP4 SWAP3 PUSH1 0x0 JUMPDEST DUP6 DUP2 LT PUSH2 0x2203 JUMPI POP POP POP PUSH32 0xFFFFFFFFFFFFFFFFFFFFFFFFFFFFFFFFFFFFFFFFFFFFFFFFFFFFFFFFFFFFFFE0 PUSH1 0x1F DUP5 PUSH1 0x0 PUSH1 0x40 DUP1 SWAP7 SWAP8 DUP7 ADD ADD MSTORE ADD AND ADD ADD SWAP1 JUMP JUMPDEST DUP2 DUP2 ADD DUP4 ADD MLOAD DUP5 DUP3 ADD PUSH1 0x40 ADD MSTORE DUP3 ADD PUSH2 0x21C3 JUMP JUMPDEST CALLDATALOAD SWAP1 PUSH20 0xFFFFFFFFFFFFFFFFFFFFFFFFFFFFFFFFFFFFFFFF DUP3 AND DUP3 SUB PUSH2 0x2238 JUMPI JUMP JUMPDEST PUSH1 0x0 DUP1 REVERT JUMPDEST SWAP1 DUP2 PUSH1 0x60 SWAP2 SUB SLT PUSH2 0x2238 JUMPI PUSH2 0x2251 DUP2 PUSH2 0x2217 JUMP JUMPDEST SWAP2 PUSH1 0x20 DUP3 ADD CALLDATALOAD PUSH1 0x2 DUP2 LT ISZERO PUSH2 0x2238 JUMPI PUSH1 0x40 PUSH2 0x226D SWAP2 SWAP4 ADD PUSH2 0x2217 JUMP JUMPDEST SWAP1 JUMP JUMPDEST SWAP1 PUSH1 0x2 DUP2 LT ISZERO PUSH2 0x2288 JUMPI PUSH1 0x0 MSTORE PUSH1 0x20 MSTORE PUSH1 0x40 PUSH1 0x0 KECCAK256 SWAP1 JUMP JUMPDEST PUSH32 0x4E487B7100000000000000000000000000000000000000000000000000000000 PUSH1 0x0 MSTORE PUSH1 0x21 PUSH1 0x4 MSTORE PUSH1 0x24 PUSH1 0x0 REVERT JUMPDEST DUP1 SLOAD DUP3 LT ISZERO PUSH2 0x22CF JUMPI PUSH1 0x0 MSTORE PUSH1 0x20 PUSH1 0x0 KECCAK256 ADD SWAP1 PUSH1 0x0 SWAP1 JUMP JUMPDEST PUSH32 0x4E487B7100000000000000000000000000000000000000000000000000000000 PUSH1 0x0 MSTORE PUSH1 0x32 PUSH1 0x4 MSTORE PUSH1 0x24 PUSH1 0x0 REVERT JUMPDEST DUP2 DUP2 MUL SWAP3 SWAP2 DUP2 ISZERO SWAP2 DUP5 DIV EQ OR ISZERO PUSH2 0x2311 JUMPI JUMP JUMPDEST PUSH32 0x4E487B7100000000000000000000000000000000000000000000000000000000 PUSH1 0x0 MSTORE PUSH1 0x11 PUSH1 0x4 MSTORE PUSH1 0x24 PUSH1 0x0 REVERT JUMPDEST DUP2 ISZERO PUSH2 0x234A JUMPI DIV SWAP1 JUMP JUMPDEST PUSH32 0x4E487B7100000000000000000000000000000000000000000000000000000000 PUSH1 0x0 MSTORE PUSH1 0x12 PUSH1 0x4 MSTORE PUSH1 0x24 PUSH1 0x0 REVERT JUMPDEST SWAP2 SWAP1 DUP3 SUB SWAP2 DUP3 GT PUSH2 0x2311 JUMPI JUMP JUMPDEST PUSH32 0x0 TIMESTAMP LT ISZERO PUSH2 0x23E0 JUMPI PUSH3 0x140CD0 PUSH2 0x23DC PUSH32 0x0 TIMESTAMP PUSH2 0x2379 JUMP JUMPDEST DIV SWAP1 JUMP JUMPDEST PUSH1 0x60 SWAP1 JUMP JUMPDEST PUSH32 0xFFFFFFFFFFFFFFFFFFFFFFFFFFFFFFFFFFFFFFFFFFFFFFFFFFFFFFFFFFFFFFFF DUP2 EQ PUSH2 0x2311 JUMPI PUSH1 0x1 ADD SWAP1 JUMP JUMPDEST PUSH1 0x60 SUB PUSH1 0x60 DUP2 GT PUSH2 0x2311 JUMPI PUSH8 0xDE0B6B3A7640000 PUSH1 0x0 SWAP2 DUP3 SWAP1 JUMPDEST DUP1 DUP3 LT PUSH2 0x2480 JUMPI POP POP PUSH8 0xDE0B6B3A7640000 SUB SWAP1 PUSH8 0xDE0B6B3A7640000 DUP3 GT PUSH2 0x2453 JUMPI POP SWAP1 JUMP JUMPDEST DUP1 PUSH32 0x4E487B7100000000000000000000000000000000000000000000000000000000 PUSH1 0x24 SWAP3 MSTORE PUSH1 0x11 PUSH1 0x4 MSTORE REVERT JUMPDEST SWAP1 SWAP2 PUSH8 0xD87E55590018000 SWAP1 PUSH25 0x12EB73EAE4C8B0077DB7B119A3928413FFF44D230654AC05AC DUP2 GT DUP3 MUL PUSH2 0x24CA JUMPI PUSH2 0x24C4 SWAP2 PUSH8 0xDE0B6B3A7640000 SWAP2 MUL DIV SWAP3 PUSH2 0x23E5 JUMP JUMPDEST SWAP1 PUSH2 0x242C JUMP JUMPDEST PUSH4 0xBAC65E5B DUP6 MSTORE PUSH1 0x4 PUSH1 0x1C REVERT JUMPDEST SWAP2 SWAP1 DUP3 ADD DUP1 SWAP3 GT PUSH2 0x2311 JUMPI JUMP JUMPDEST PUSH1 0x0 SWAP1 DUP2 SWAP1 DUP3 PUSH32 0x0 JUMPDEST DUP3 DUP3 GT ISZERO PUSH2 0x2521 JUMPI POP POP POP PUSH3 0x140CD0 SWAP2 POP DIV SWAP1 JUMP JUMPDEST SWAP1 SWAP2 SWAP3 POP PUSH2 0x255C PUSH2 0x2556 PUSH2 0x254F PUSH2 0x2538 DUP8 DUP6 PUSH2 0x2379 JUMP JUMPDEST PUSH7 0x58D15E17628000 PUSH2 0x2549 DUP8 PUSH2 0x2412 JUMP JUMPDEST SWAP2 PUSH2 0x3044 JUMP JUMPDEST DUP1 SWAP7 PUSH2 0x24D7 JUMP JUMPDEST SWAP3 PUSH2 0x23E5 JUMP JUMPDEST SWAP1 SWAP4 SWAP3 SWAP2 SWAP4 PUSH2 0x250C JUMP JUMPDEST DUP2 DUP2 SUB SWAP3 SWAP2 PUSH1 0x0 SGT DUP1 ISZERO DUP3 DUP6 SGT AND SWAP2 DUP5 SLT AND OR PUSH2 0x2311 JUMPI JUMP JUMPDEST PUSH2 0x2592 PUSH1 0x7 SLOAD PUSH3 0x140CD0 SWAP2 DUP3 SWAP2 TIMESTAMP PUSH2 0x2379 JUMP JUMPDEST DIV PUSH2 0x259A JUMPI POP JUMP JUMPDEST PUSH2 0x25A2 PUSH2 0x2386 JUMP JUMPDEST PUSH1 0x60 DUP2 LT ISZERO PUSH2 0x26CB JUMPI PUSH1 0x5 SLOAD PUSH2 0x25B7 DUP3 PUSH2 0x24E4 JUMP JUMPDEST PUSH1 0x5 SSTORE TIMESTAMP PUSH1 0x7 SSTORE PUSH1 0x0 SWAP3 DUP3 DUP5 MSTORE PUSH1 0x2 PUSH1 0x20 MSTORE PUSH1 0x40 DUP5 KECCAK256 TIMESTAMP PUSH1 0x4 DUP3 ADD SSTORE DUP2 TIMESTAMP ADD DUP1 TIMESTAMP GT PUSH2 0x269E JUMPI PUSH1 0x5 DUP3 ADD SSTORE DUP4 DUP2 SSTORE PUSH1 0x5 SLOAD DUP1 PUSH1 0x1 DUP4 ADD SSTORE DUP3 DUP2 MUL SWAP3 DUP2 DUP5 DIV EQ SWAP1 ISZERO OR ISZERO PUSH2 0x2671 JUMPI PUSH1 0x2 ADD SSTORE PUSH32 0xFFFFFFFFFFFFFFFFFFFFFFFFFFFFFFFFFFFFFFFFFFFFFFFFFFFFFFFFFFFFFFFF DUP3 ADD SWAP3 DUP3 DUP5 GT PUSH2 0x2453 JUMPI POP SWAP2 PUSH1 0x80 SWAP2 PUSH32 0xCC53A96DDDB8D3B8710C4932D9E90652A4EAEF0BF4C37A13DC4D806E1B54CB4D SWAP4 PUSH1 0x5 SLOAD SWAP2 PUSH1 0x40 MLOAD SWAP4 DUP5 MSTORE PUSH1 0x20 DUP5 ADD MSTORE PUSH1 0x40 DUP4 ADD MSTORE PUSH1 0x60 DUP3 ADD MSTORE LOG1 JUMPDEST JUMP JUMPDEST PUSH1 0x24 DUP6 PUSH32 0x4E487B7100000000000000000000000000000000000000000000000000000000 DUP2 MSTORE PUSH1 0x11 PUSH1 0x4 MSTORE REVERT JUMPDEST PUSH1 0x24 DUP7 PUSH32 0x4E487B7100000000000000000000000000000000000000000000000000000000 DUP2 MSTORE PUSH1 0x11 PUSH1 0x4 MSTORE REVERT JUMPDEST POP POP PUSH2 0x266F PUSH2 0x26F6 JUMP JUMPDEST MLOAD SWAP1 PUSH20 0xFFFFFFFFFFFFFFFFFFFFFFFFFFFFFFFFFFFFFFFF DUP3 AND DUP3 SUB PUSH2 0x2238 JUMPI JUMP JUMPDEST PUSH2 0x26FE PUSH2 0x2386 JUMP JUMPDEST SWAP1 PUSH1 0x60 DUP3 LT PUSH2 0x28A4 JUMPI POP PUSH1 0xFF PUSH1 0x9 SLOAD AND ISZERO PUSH2 0x2875 JUMPI PUSH1 0x40 MLOAD PUSH32 0xF851A44000000000000000000000000000000000000000000000000000000000 DUP2 MSTORE PUSH20 0xFFFFFFFFFFFFFFFFFFFFFFFFFFFFFFFFFFFFFFFF SWAP2 PUSH1 0x20 DUP3 PUSH1 0x4 DUP2 DUP7 PUSH32 0x0 AND GAS STATICCALL SWAP2 DUP3 ISZERO PUSH2 0x2869 JUMPI PUSH1 0x0 SWAP3 PUSH2 0x280A JUMPI JUMPDEST POP PUSH1 0x80 PUSH32 0x3448D68E439B81DF30DBD68606F415F65C9EABAAEF0ACA1FFC0368CC3954C6DC SWAP2 PUSH1 0x40 MLOAD SWAP1 CALLER DUP3 MSTORE PUSH32 0x0 PUSH1 0x20 DUP4 ADD MSTORE PUSH32 0x0 PUSH1 0x40 DUP4 ADD MSTORE PUSH1 0x60 DUP3 ADD MSTORE LOG1 AND SELFDESTRUCT JUMPDEST SWAP1 SWAP2 PUSH1 0x20 DUP3 RETURNDATASIZE DUP3 GT PUSH2 0x2861 JUMPI JUMPDEST DUP2 PUSH2 0x2824 PUSH1 0x20 SWAP4 DUP4 PUSH2 0x20F7 JUMP JUMPDEST DUP2 ADD SUB SLT PUSH2 0x2CB JUMPI POP PUSH1 0x80 PUSH2 0x2859 PUSH32 0x3448D68E439B81DF30DBD68606F415F65C9EABAAEF0ACA1FFC0368CC3954C6DC SWAP3 PUSH2 0x26D5 JUMP JUMPDEST SWAP3 SWAP2 POP PUSH2 0x2789 JUMP JUMPDEST RETURNDATASIZE SWAP2 POP PUSH2 0x2817 JUMP JUMPDEST PUSH1 0x40 MLOAD RETURNDATASIZE PUSH1 0x0 DUP3 RETURNDATACOPY RETURNDATASIZE SWAP1 REVERT JUMPDEST PUSH32 0x4E487B7100000000000000000000000000000000000000000000000000000000 PUSH1 0x0 MSTORE PUSH1 0x1 PUSH1 0x4 MSTORE PUSH1 0x24 PUSH1 0x0 REVERT JUMPDEST SWAP1 POP JUMP JUMPDEST SWAP1 PUSH1 0x40 MLOAD SWAP2 DUP3 DUP2 SLOAD SWAP2 DUP3 DUP3 MSTORE PUSH1 0x20 SWAP3 DUP4 DUP4 ADD SWAP2 PUSH1 0x0 MSTORE DUP4 PUSH1 0x0 KECCAK256 SWAP4 PUSH1 0x0 SWAP1 JUMPDEST DUP3 DUP3 LT PUSH2 0x28DD JUMPI POP POP POP PUSH2 0x266F SWAP3 POP SUB DUP4 PUSH2 0x20F7 JUMP JUMPDEST DUP6 SLOAD PUSH20 0xFFFFFFFFFFFFFFFFFFFFFFFFFFFFFFFFFFFFFFFF AND DUP5 MSTORE PUSH1 0x1 SWAP6 DUP7 ADD SWAP6 DUP9 SWAP6 POP SWAP4 DUP2 ADD SWAP4 SWAP1 SWAP2 ADD SWAP1 PUSH2 0x28C7 JUMP JUMPDEST DUP1 MLOAD DUP3 LT ISZERO PUSH2 0x22CF JUMPI PUSH1 0x20 SWAP2 PUSH1 0x5 SHL ADD ADD SWAP1 JUMP JUMPDEST PUSH1 0x1 DUP1 SLOAD SWAP1 PUSH2 0x292F DUP2 PUSH2 0x28A8 JUMP JUMPDEST SWAP1 PUSH1 0x0 SWAP2 DUP3 JUMPDEST DUP5 DUP2 LT PUSH2 0x2943 JUMPI POP POP POP POP POP JUMP JUMPDEST PUSH2 0x2987 SWAP1 PUSH2 0x2981 DUP6 PUSH20 0xFFFFFFFFFFFFFFFFFFFFFFFFFFFFFFFFFFFFFFFF PUSH2 0x2976 DUP8 DUP3 PUSH2 0x296F DUP8 DUP11 PUSH2 0x290D JUMP JUMPDEST MLOAD AND PUSH2 0x298C JUMP JUMPDEST POP PUSH2 0x296F DUP5 DUP8 PUSH2 0x290D JUMP JUMPDEST POP PUSH2 0x23E5 JUMP JUMPDEST PUSH2 0x2935 JUMP JUMPDEST SWAP1 PUSH20 0xFFFFFFFFFFFFFFFFFFFFFFFFFFFFFFFFFFFFFFFF PUSH2 0x29B9 SWAP3 AND PUSH1 0x0 MSTORE PUSH1 0x3 PUSH1 0x20 MSTORE PUSH1 0x40 PUSH1 0x0 KECCAK256 PUSH2 0x2270 JUMP JUMPDEST SWAP1 PUSH1 0x4 DUP3 ADD DUP1 SLOAD DUP1 TIMESTAMP GT PUSH2 0x29CB JUMPI POP POP JUMP JUMPDEST PUSH1 0x2 DUP5 ADD SLOAD SWAP1 DUP2 PUSH2 0x29DE JUMPI JUMPDEST POP POP TIMESTAMP SWAP1 SSTORE JUMP JUMPDEST PUSH2 0x1ABF PUSH2 0x29F3 PUSH2 0x29FE SWAP3 PUSH1 0x5 SLOAD SWAP1 TIMESTAMP SUB PUSH2 0x22FE JUMP JUMPDEST PUSH1 0x5 DUP8 ADD SLOAD SWAP1 PUSH2 0x22FE JUMP JUMPDEST SWAP1 DUP2 PUSH1 0xA0 SHL SWAP2 DUP1 DUP4 DIV PUSH21 0x10000000000000000000000000000000000000000 EQ SWAP1 ISZERO OR ISZERO PUSH2 0x2311 JUMPI PUSH2 0x2A2F SWAP2 PUSH2 0x2340 JUMP JUMPDEST PUSH2 0x2A3E PUSH1 0x3 DUP6 ADD SWAP2 DUP3 SLOAD PUSH2 0x24D7 JUMP JUMPDEST SWAP1 SSTORE CODESIZE DUP1 PUSH2 0x29D7 JUMP JUMPDEST SWAP2 SWAP1 PUSH2 0x2A53 DUP2 DUP5 PUSH2 0x298C JUMP JUMPDEST SWAP1 PUSH20 0xFFFFFFFFFFFFFFFFFFFFFFFFFFFFFFFFFFFFFFFF DUP1 SWAP5 AND SWAP3 PUSH1 0x0 SWAP1 DUP5 DUP3 MSTORE PUSH1 0x4 PUSH1 0x20 MSTORE PUSH2 0x2A86 PUSH1 0x40 SWAP4 DUP5 DUP5 KECCAK256 PUSH2 0x2270 JUMP JUMPDEST CALLER DUP4 MSTORE PUSH1 0x20 MSTORE PUSH1 0x1 PUSH2 0x2AA2 DUP5 DUP5 KECCAK256 SWAP6 PUSH1 0x3 DUP8 SLOAD SWAP2 ADD SLOAD SWAP1 PUSH2 0x22FE JUMP JUMPDEST PUSH1 0xA0 SHR SWAP5 ADD SWAP4 PUSH2 0x2AB3 DUP6 SLOAD DUP3 PUSH2 0x2566 JUMP JUMPDEST SWAP5 DUP6 ISZERO PUSH2 0x2BEA JUMPI SSTORE PUSH2 0x2AC3 PUSH2 0x2386 JUMP JUMPDEST SWAP6 DUP7 DUP4 MSTORE PUSH1 0x2 PUSH1 0x20 MSTORE PUSH1 0x3 DUP5 DUP5 KECCAK256 ADD PUSH2 0x2ADD DUP7 DUP3 SLOAD PUSH2 0x24D7 JUMP JUMPDEST SWAP1 SSTORE DUP7 DUP4 MSTORE PUSH1 0x2 PUSH1 0x20 MSTORE PUSH1 0x3 DUP5 DUP5 KECCAK256 ADD SLOAD PUSH1 0x2 DUP6 DUP6 KECCAK256 ADD SLOAD LT PUSH2 0x447 JUMPI PUSH32 0x0 AND SWAP1 DUP2 EXTCODESIZE ISZERO PUSH2 0x447 JUMPI DUP4 MLOAD PUSH32 0x40C10F1900000000000000000000000000000000000000000000000000000000 DUP2 MSTORE PUSH20 0xFFFFFFFFFFFFFFFFFFFFFFFFFFFFFFFFFFFFFFFF SWAP2 SWAP1 SWAP2 AND PUSH1 0x4 DUP3 ADD MSTORE PUSH1 0x24 DUP2 ADD DUP6 SWAP1 MSTORE SWAP2 SWAP1 DUP2 SWAP1 DUP4 SWAP1 PUSH1 0x44 SWAP1 DUP3 SWAP1 DUP5 SWAP1 GAS CALL DUP1 ISZERO PUSH2 0x2BDE JUMPI SWAP2 PUSH2 0x2BC9 SWAP4 SWAP2 PUSH32 0xBC96BAF3023D0B9EA3A899E000F15D5F0F7A8B064774C1EED6B4CC63FCBD1B19 SWAP6 SWAP4 PUSH2 0x2BCE JUMPI JUMPDEST POP POP MLOAD CALLER DUP2 MSTORE PUSH1 0x20 DUP2 ADD SWAP2 SWAP1 SWAP2 MSTORE SWAP1 DUP2 SWAP1 PUSH1 0x40 DUP3 ADD SWAP1 JUMP JUMPDEST SUB SWAP1 LOG3 JUMP JUMPDEST PUSH2 0x2BD7 SWAP2 PUSH2 0x20F7 JUMP JUMPDEST CODESIZE DUP1 PUSH2 0x2BB1 JUMP JUMPDEST POP DUP3 MLOAD SWAP1 RETURNDATASIZE SWAP1 DUP3 RETURNDATACOPY RETURNDATASIZE SWAP1 REVERT JUMPDEST POP POP POP POP POP POP POP POP JUMP JUMPDEST SWAP2 SWAP1 SWAP2 PUSH1 0x0 DUP4 DUP3 ADD SWAP4 DUP5 SLT SWAP2 SLT SWAP1 DUP1 ISZERO DUP3 AND SWAP2 ISZERO AND OR PUSH2 0x2311 JUMPI JUMP JUMPDEST SWAP3 SWAP1 SWAP2 PUSH20 0xFFFFFFFFFFFFFFFFFFFFFFFFFFFFFFFFFFFFFFFF DUP1 SWAP5 AND SWAP4 DUP5 ISZERO SWAP1 DUP2 ISZERO PUSH2 0x2DDA JUMPI JUMPDEST POP PUSH2 0x2DD4 JUMPI PUSH2 0x2C45 DUP3 CALLER PUSH2 0x298C JUMP JUMPDEST SWAP1 PUSH1 0x0 SWAP2 CALLER DUP4 MSTORE PUSH1 0x4 PUSH1 0x20 MSTORE PUSH2 0x2C5E DUP5 PUSH1 0x40 DUP6 KECCAK256 PUSH2 0x2270 JUMP JUMPDEST DUP7 DUP5 MSTORE PUSH1 0x20 MSTORE PUSH1 0x40 DUP4 KECCAK256 SWAP1 PUSH2 0x2C81 DUP4 PUSH13 0x1000000000000000000000000 DUP9 PUSH2 0x3044 JUMP JUMPDEST PUSH2 0x2C8C DUP4 SLOAD DUP3 PUSH2 0x2566 JUMP JUMPDEST SWAP3 PUSH1 0x3 DUP4 ADD SLOAD SWAP2 DUP3 DUP6 MUL SWAP3 PUSH32 0x8000000000000000000000000000000000000000000000000000000000000000 DUP2 EQ DUP9 DUP8 SLT AND PUSH2 0x2DA7 JUMPI DUP6 DUP5 SDIV EQ DUP6 ISZERO OR ISZERO PUSH2 0x2D7A JUMPI SWAP2 PUSH2 0x2CFE PUSH21 0x10000000000000000000000000000000000000000 PUSH1 0x1 DUP5 PUSH1 0x2 SWAP7 PUSH2 0x2D09 SWAP9 SWAP7 SSTORE ADD SWAP3 SDIV DUP3 SLOAD PUSH2 0x2BF4 JUMP JUMPDEST SWAP1 SSTORE ADD SWAP2 DUP3 SLOAD PUSH2 0x2BF4 JUMP JUMPDEST SWAP1 SSTORE PUSH1 0x40 MLOAD SWAP4 DUP5 MSTORE PUSH1 0x20 DUP5 ADD MSTORE PUSH1 0x2 DUP3 LT ISZERO PUSH2 0x2D4D JUMPI POP PUSH1 0x40 DUP3 ADD MSTORE PUSH32 0x9776A1047FD3E7459FCC529A4FCC441AF3C74BAB1415FBDB0D2E70990F545E3F PUSH1 0x60 CALLER SWAP3 LOG3 JUMP JUMPDEST DUP1 PUSH32 0x4E487B7100000000000000000000000000000000000000000000000000000000 PUSH1 0x24 SWAP3 MSTORE PUSH1 0x21 PUSH1 0x4 MSTORE REVERT JUMPDEST PUSH1 0x24 DUP8 PUSH32 0x4E487B7100000000000000000000000000000000000000000000000000000000 DUP2 MSTORE PUSH1 0x11 PUSH1 0x4 MSTORE REVERT JUMPDEST PUSH1 0x24 DUP9 PUSH32 0x4E487B7100000000000000000000000000000000000000000000000000000000 DUP2 MSTORE PUSH1 0x11 PUSH1 0x4 MSTORE REVERT JUMPDEST POP POP POP POP JUMP JUMPDEST SWAP1 POP PUSH32 0x0 AND DUP5 EQ CODESIZE PUSH2 0x2C36 JUMP JUMPDEST ORIGIN CALLER SUB PUSH2 0x2E0F JUMPI JUMP JUMPDEST PUSH1 0x40 MLOAD PUSH32 0x5D91598900000000000000000000000000000000000000000000000000000000 DUP2 MSTORE CALLER PUSH1 0x4 DUP3 ADD MSTORE ORIGIN PUSH1 0x24 DUP3 ADD MSTORE PUSH1 0x44 SWAP1 REVERT JUMPDEST SWAP1 DUP2 PUSH1 0xA0 SWAP2 SUB SLT PUSH2 0x2238 JUMPI DUP1 MLOAD DUP1 ISZERO ISZERO DUP2 SUB PUSH2 0x2238 JUMPI SWAP2 PUSH1 0x20 DUP3 ADD MLOAD PUSH11 0xFFFFFFFFFFFFFFFFFFFFFF DUP2 AND DUP2 SUB PUSH2 0x2238 JUMPI SWAP2 PUSH2 0x2E83 PUSH1 0x40 DUP3 ADD PUSH2 0x26D5 JUMP JUMPDEST SWAP2 PUSH1 0x80 PUSH2 0x2E92 PUSH1 0x60 DUP5 ADD PUSH2 0x26D5 JUMP JUMPDEST SWAP3 ADD MLOAD PUSH12 0xFFFFFFFFFFFFFFFFFFFFFFFF DUP2 AND DUP2 SUB PUSH2 0x2238 JUMPI SWAP1 JUMP JUMPDEST PUSH1 0x40 MLOAD PUSH32 0xF851A44000000000000000000000000000000000000000000000000000000000 DUP2 MSTORE PUSH20 0xFFFFFFFFFFFFFFFFFFFFFFFFFFFFFFFFFFFFFFFF PUSH1 0x20 DUP3 PUSH1 0x4 DUP2 DUP5 PUSH32 0x0 AND GAS STATICCALL SWAP2 DUP3 ISZERO PUSH2 0x2869 JUMPI PUSH1 0x0 SWAP3 PUSH2 0x2F7D JUMPI JUMPDEST POP DUP2 AND CALLER SUB PUSH2 0x2F2E JUMPI POP JUMP JUMPDEST PUSH1 0x40 MLOAD PUSH32 0x2A02A24A00000000000000000000000000000000000000000000000000000000 DUP2 MSTORE PUSH20 0xFFFFFFFFFFFFFFFFFFFFFFFFFFFFFFFFFFFFFFFF SWAP2 SWAP1 SWAP2 AND PUSH1 0x4 DUP3 ADD MSTORE CALLER PUSH1 0x24 DUP3 ADD MSTORE PUSH1 0x44 SWAP1 REVERT JUMPDEST SWAP1 SWAP2 PUSH1 0x20 DUP3 RETURNDATASIZE DUP3 GT PUSH2 0x2FB0 JUMPI JUMPDEST DUP2 PUSH2 0x2F97 PUSH1 0x20 SWAP4 DUP4 PUSH2 0x20F7 JUMP JUMPDEST DUP2 ADD SUB SLT PUSH2 0x2CB JUMPI POP PUSH2 0x2FA9 SWAP1 PUSH2 0x26D5 JUMP JUMPDEST SWAP1 CODESIZE PUSH2 0x2F22 JUMP JUMPDEST RETURNDATASIZE SWAP2 POP PUSH2 0x2F8A JUMP JUMPDEST SWAP1 DUP1 PUSH32 0xFFFFFFFFFFFFFFFFFFFFFFFFFFFFFFFFFFFFFFFFFFFFFFFFFFFFFFFFFFFFFFFF DIV DUP3 GT DUP2 MUL PUSH2 0x2FF3 JUMPI PUSH8 0xDE0B6B3A7640000 SWAP2 MUL DIV SWAP1 JUMP JUMPDEST PUSH4 0xBAC65E5B PUSH1 0x0 MSTORE PUSH1 0x4 PUSH1 0x1C REVERT JUMPDEST PUSH8 0xDE0B6B3A7640000 SWAP1 PUSH25 0x12725DD1D243ABA0E75FE645CC4873F9E65AFE688C928E1F21 DUP2 GT DUP3 MUL ISZERO DUP4 MUL ISZERO PUSH2 0x3036 JUMPI MUL DIV SWAP1 JUMP JUMPDEST PUSH4 0x7C5F487D PUSH1 0x0 MSTORE PUSH1 0x4 PUSH1 0x1C REVERT JUMPDEST SWAP2 PUSH1 0x0 SWAP3 DUP3 DUP2 MUL SWAP3 PUSH32 0xFFFFFFFFFFFFFFFFFFFFFFFFFFFFFFFFFFFFFFFFFFFFFFFFFFFFFFFFFFFFFFFF DUP2 DUP4 MULMOD SWAP2 DUP5 DUP4 LT DUP6 ADD DUP1 DUP5 SUB SWAP4 EQ PUSH2 0x30E4 JUMPI DUP3 DUP5 GT ISZERO PUSH2 0x30D7 JUMPI SWAP1 DUP4 SWAP2 MULMOD SWAP1 PUSH1 0x1 DUP4 DUP7 SUB DUP5 AND DUP1 DUP1 DUP1 SWAP7 DIV PUSH1 0x2 DUP1 DUP3 PUSH1 0x3 MUL XOR DUP1 DUP4 MUL DUP3 SUB MUL DUP1 DUP4 MUL DUP3 SUB MUL DUP1 DUP4 MUL DUP3 SUB MUL DUP1 DUP4 MUL DUP3 SUB MUL DUP1 DUP4 MUL DUP3 SUB MUL DUP1 SWAP3 MUL SWAP1 SUB MUL SWAP8 SUB DIV ADD SWAP1 DUP5 DUP4 GT SWAP1 SUB MUL SWAP3 SUB DIV OR MUL SWAP1 JUMP JUMPDEST PUSH4 0xAE47F702 DUP7 MSTORE PUSH1 0x4 PUSH1 0x1C REVERT JUMPDEST POP POP POP SWAP2 DUP3 ISZERO PUSH2 0x30F3 JUMPI POP DIV SWAP1 JUMP JUMPDEST PUSH4 0xAE47F702 SWAP1 MSTORE PUSH1 0x4 PUSH1 0x1C REVERT INVALID LOG1 PUSH5 0x736F6C6343 STOP ADDMOD GT STOP EXP "},"methodIdentifiers":{"ACC_PRECISION()":"32fcd966","BLOCKS_PER_EPOCH()":"1f3adc0f","BLOCKS_PER_YEAR()":"d37db1d2","DURATION()":"1be05289","MAX_CYG_PER_BLOCK()":"c1f1e5ae","REDUCTION_FACTOR_PER_EPOCH()":"28419d62","SHARES_PRECISION()":"5de7fcd0","TOTAL_EPOCHS()":"5f15c3c9","accelerateTheUniverse()":"f2b128a4","adjustShuttleRewards(uint256,uint256)":"cb87f7f3","allShuttles(uint256)":"1ad4c8c3","birth()":"c81ba8f0","blocksThisEpoch()":"ac9462f5","blocksUntilNextEpoch()":"4f3d90b1","blocksUntilSupernova()":"7c4941ec","borrowRewardsWeight()":"abfdf70a","calculateCygPerBlock(uint256)":"fd59c299","calculateEpochRewards(uint256)":"f6503e6c","collect(address,uint8,address)":"5d8beace","collectAll(uint8,address)":"ddeaab1f","currentEpochRewards()":"9e81b634","cygPerBlock()":"5493b5d6","cygToken()":"4f573686","daoReserves()":"5b068af8","death()":"6fa42261","doomSwitch()":"f126d964","emissionsCurve(uint256)":"72e127cb","epochProgression()":"6673fd97","epochRewardsPacing()":"5104517f","getBlockTimestamp()":"796b89b9","getCurrentEpoch()":"b97dd9e2","getEpochInfo(uint256)":"135022c2","getRewardWeights()":"04d4e9bd","getShuttleInfo(address,uint8)":"9d3bbe6e","getUserInfo(address,uint8,address)":"0bfc4af9","hangar18()":"e8a24e1d","initializeShuttleRewards(uint256,uint256)":"93c3677b","lastEpochTime()":"89c614b8","name()":"06fdde03","nextEpochRewards()":"1bafed52","pendingCyg(address,uint8,address)":"1d5e8e50","previousEpochRewards()":"58322a8e","setBonusRewarder(uint256,address)":"8ecf3b45","setCygPerBlock(uint256)":"01bac4c6","setDoomSwitch()":"61480eec","setRewardWeights(uint256)":"5ccb14ac","shuttlesLength()":"53cde488","supernova()":"4a91f2b1","sweepToken(address)":"1be19560","totalAllocPoint()":"17caf6f1","totalCygClaimed()":"4fcc5575","totalCygRewards()":"d4f7286b","totalProgression()":"d797c4c3","trackRewards(address,uint256,uint256,uint8)":"e6c5b8ea","updateShuttle(address)":"5303654f","version()":"54fd4d50"}}}}}