{"contracts/cygnus-token/PillarsOfCreation.sol":{"PillarsOfCreation":{"abi":[{"inputs":[{"internalType":"contract IHangar18","name":"_hangar18","type":"address"},{"internalType":"address","name":"_rewardToken","type":"address"},{"internalType":"uint256","name":"_totalCygRewardsBorrows","type":"uint256"},{"internalType":"uint256","name":"_totalCygRewardsDAO","type":"uint256"}],"stateMutability":"nonpayable","type":"constructor"},{"inputs":[],"name":"PillarsOfCreation__CantConvertUint256","type":"error"},{"inputs":[],"name":"PillarsOfCreation__InvalidTotalWeight","type":"error"},{"inputs":[],"name":"PillarsOfCreation__MsgSenderNotAdmin","type":"error"},{"inputs":[],"name":"PillarsOfCreation__OnlyArtificer","type":"error"},{"inputs":[],"name":"PillarsOfCreation__PillarsAlreadyInitialized","type":"error"},{"inputs":[],"name":"PillarsOfCreation__ShuttleAlreadyInitialized","type":"error"},{"inputs":[],"name":"PillarsOfCreation__ShuttleNotInitialized","type":"error"},{"inputs":[],"name":"ReentrantCall","type":"error"},{"anonymous":false,"inputs":[{"indexed":false,"internalType":"uint256","name":"shuttlesLength","type":"uint256"},{"indexed":false,"internalType":"address","name":"sender","type":"address"},{"indexed":false,"internalType":"uint256","name":"epoch","type":"uint256"}],"name":"AccelerateTheUniverse","type":"event"},{"anonymous":false,"inputs":[{"indexed":true,"internalType":"address","name":"borrowable","type":"address"},{"indexed":true,"internalType":"address","name":"collateral","type":"address"},{"indexed":false,"internalType":"address","name":"receiver","type":"address"},{"indexed":false,"internalType":"uint256","name":"reward","type":"uint256"}],"name":"Collect","type":"event"},{"anonymous":false,"inputs":[{"indexed":false,"internalType":"uint256","name":"totalPools","type":"uint256"},{"indexed":false,"internalType":"uint256","name":"reward","type":"uint256"}],"name":"CollectAll","type":"event"},{"anonymous":false,"inputs":[{"indexed":false,"internalType":"uint256","name":"totalPools","type":"uint256"},{"indexed":false,"internalType":"uint256","name":"reward","type":"uint256"},{"indexed":false,"internalType":"bool","name":"borrowRewards","type":"bool"}],"name":"CollectAllSingle","type":"event"},{"anonymous":false,"inputs":[{"indexed":false,"internalType":"address","name":"receiver","type":"address"},{"indexed":false,"internalType":"uint256","name":"amount","type":"uint256"}],"name":"CygnusDAODrip","type":"event"},{"anonymous":false,"inputs":[{"indexed":false,"internalType":"uint256","name":"time","type":"uint256"},{"indexed":false,"internalType":"address","name":"sender","type":"address"},{"indexed":false,"internalType":"bool","name":"doomswitch","type":"bool"}],"name":"DoomSwitchSet","type":"event"},{"anonymous":false,"inputs":[{"indexed":false,"internalType":"uint256","name":"birth","type":"uint256"},{"indexed":false,"internalType":"uint256","name":"death","type":"uint256"},{"indexed":false,"internalType":"uint256","name":"_cygPerBlockRewards","type":"uint256"},{"indexed":false,"internalType":"uint256","name":"_cygPerBlockDAO","type":"uint256"}],"name":"InitializePillars","type":"event"},{"anonymous":false,"inputs":[{"indexed":false,"internalType":"address","name":"oldArtificer","type":"address"},{"indexed":false,"internalType":"address","name":"newArtificer","type":"address"}],"name":"NewArtificer","type":"event"},{"anonymous":false,"inputs":[{"indexed":false,"internalType":"address","name":"borrowable","type":"address"},{"indexed":false,"internalType":"address","name":"collateral","type":"address"},{"indexed":false,"internalType":"contract IBonusRewarder","name":"bonusRewarder","type":"address"}],"name":"NewBonusRewarder","type":"event"},{"anonymous":false,"inputs":[{"indexed":false,"internalType":"uint256","name":"lastRewardRate","type":"uint256"},{"indexed":false,"internalType":"uint256","name":"newRewardRate","type":"uint256"}],"name":"NewCygPerBlock","type":"event"},{"anonymous":false,"inputs":[{"indexed":false,"internalType":"uint256","name":"previousEpoch","type":"uint256"},{"indexed":false,"internalType":"uint256","name":"newEpoch","type":"uint256"},{"indexed":false,"internalType":"uint256","name":"_oldCygPerBlock","type":"uint256"},{"indexed":false,"internalType":"uint256","name":"_newCygPerBlock","type":"uint256"}],"name":"NewEpoch","type":"event"},{"anonymous":false,"inputs":[{"indexed":false,"internalType":"address","name":"borrowable","type":"address"},{"indexed":false,"internalType":"address","name":"collateral","type":"address"},{"indexed":false,"internalType":"uint256","name":"oldAllocPoint","type":"uint256"},{"indexed":false,"internalType":"uint256","name":"newAllocPoint","type":"uint256"}],"name":"NewShuttleAllocPoint","type":"event"},{"anonymous":false,"inputs":[{"indexed":false,"internalType":"address","name":"borrowable","type":"address"},{"indexed":false,"internalType":"address","name":"collateral","type":"address"},{"indexed":false,"internalType":"uint256","name":"totalAlloc","type":"uint256"},{"indexed":false,"internalType":"uint256","name":"alloc","type":"uint256"}],"name":"NewShuttleRewards","type":"event"},{"anonymous":false,"inputs":[{"indexed":false,"internalType":"address","name":"borrowable","type":"address"},{"indexed":false,"internalType":"address","name":"collateral","type":"address"}],"name":"RemoveBonusRewarder","type":"event"},{"anonymous":false,"inputs":[{"indexed":false,"internalType":"address","name":"sender","type":"address"},{"indexed":false,"internalType":"uint256","name":"_birth","type":"uint256"},{"indexed":false,"internalType":"uint256","name":"_death","type":"uint256"},{"indexed":false,"internalType":"uint256","name":"timestamp","type":"uint256"}],"name":"Supernova","type":"event"},{"anonymous":false,"inputs":[{"indexed":true,"internalType":"address","name":"token","type":"address"},{"indexed":true,"internalType":"address","name":"sender","type":"address"},{"indexed":false,"internalType":"uint256","name":"amount","type":"uint256"},{"indexed":false,"internalType":"uint256","name":"currentEpoch","type":"uint256"}],"name":"SweepToken","type":"event"},{"anonymous":false,"inputs":[{"indexed":true,"internalType":"address","name":"borrowable","type":"address"},{"indexed":true,"internalType":"address","name":"account","type":"address"},{"indexed":false,"internalType":"uint256","name":"balance","type":"uint256"},{"indexed":false,"internalType":"address","name":"collateral","type":"address"}],"name":"TrackRewards","type":"event"},{"anonymous":false,"inputs":[{"indexed":true,"internalType":"address","name":"borrowable","type":"address"},{"indexed":true,"internalType":"address","name":"collateral","type":"address"},{"indexed":false,"internalType":"address","name":"sender","type":"address"},{"indexed":false,"internalType":"uint256","name":"lastRewardTime","type":"uint256"},{"indexed":false,"internalType":"uint256","name":"epoch","type":"uint256"}],"name":"UpdateShuttle","type":"event"},{"stateMutability":"payable","type":"fallback"},{"inputs":[],"name":"BLOCKS_PER_EPOCH","outputs":[{"internalType":"uint256","name":"","type":"uint256"}],"stateMutability":"view","type":"function"},{"inputs":[],"name":"DURATION","outputs":[{"internalType":"uint256","name":"","type":"uint256"}],"stateMutability":"view","type":"function"},{"inputs":[],"name":"REDUCTION_FACTOR_PER_EPOCH","outputs":[{"internalType":"uint256","name":"","type":"uint256"}],"stateMutability":"view","type":"function"},{"inputs":[],"name":"SECONDS_PER_YEAR","outputs":[{"internalType":"uint256","name":"","type":"uint256"}],"stateMutability":"view","type":"function"},{"inputs":[],"name":"TOTAL_EPOCHS","outputs":[{"internalType":"uint256","name":"","type":"uint256"}],"stateMutability":"view","type":"function"},{"inputs":[],"name":"accelerateTheUniverse","outputs":[],"stateMutability":"nonpayable","type":"function"},{"inputs":[{"internalType":"address","name":"borrowable","type":"address"},{"internalType":"uint256","name":"allocPoint","type":"uint256"},{"internalType":"bool","name":"borrowRewards","type":"bool"}],"name":"adjustRewards","outputs":[],"stateMutability":"nonpayable","type":"function"},{"inputs":[],"name":"advanceEpoch","outputs":[],"stateMutability":"nonpayable","type":"function"},{"inputs":[{"internalType":"uint256","name":"pillarsId","type":"uint256"}],"name":"allShuttles","outputs":[{"components":[{"internalType":"bool","name":"active","type":"bool"},{"internalType":"uint256","name":"shuttleId","type":"uint256"},{"internalType":"address","name":"borrowable","type":"address"},{"internalType":"address","name":"collateral","type":"address"},{"internalType":"uint256","name":"totalShares","type":"uint256"},{"internalType":"uint256","name":"accRewardPerShare","type":"uint256"},{"internalType":"uint256","name":"lastRewardTime","type":"uint256"},{"internalType":"uint256","name":"allocPoint","type":"uint256"},{"internalType":"contract IBonusRewarder","name":"bonusRewarder","type":"address"},{"internalType":"uint256","name":"pillarsId","type":"uint256"}],"internalType":"struct IPillarsOfCreation.ShuttleInfo","name":"","type":"tuple"}],"stateMutability":"view","type":"function"},{"inputs":[],"name":"artificer","outputs":[{"internalType":"address","name":"","type":"address"}],"stateMutability":"view","type":"function"},{"inputs":[],"name":"artificerEnabled","outputs":[{"internalType":"bool","name":"","type":"bool"}],"stateMutability":"view","type":"function"},{"inputs":[],"name":"birth","outputs":[{"internalType":"uint256","name":"","type":"uint256"}],"stateMutability":"view","type":"function"},{"inputs":[],"name":"blocksThisEpoch","outputs":[{"internalType":"uint256","name":"","type":"uint256"}],"stateMutability":"view","type":"function"},{"inputs":[{"internalType":"uint256","name":"epoch","type":"uint256"},{"internalType":"uint256","name":"totalRewards","type":"uint256"}],"name":"calculateCygPerBlock","outputs":[{"internalType":"uint256","name":"rewardRate","type":"uint256"}],"stateMutability":"pure","type":"function"},{"inputs":[{"internalType":"uint256","name":"epoch","type":"uint256"},{"internalType":"uint256","name":"totalRewards","type":"uint256"}],"name":"calculateEpochRewards","outputs":[{"internalType":"uint256","name":"rewards","type":"uint256"}],"stateMutability":"pure","type":"function"},{"inputs":[{"internalType":"address","name":"borrowable","type":"address"},{"internalType":"bool","name":"borrowRewards","type":"bool"},{"internalType":"address","name":"to","type":"address"}],"name":"collect","outputs":[{"internalType":"uint256","name":"cygAmount","type":"uint256"}],"stateMutability":"nonpayable","type":"function"},{"inputs":[{"internalType":"address","name":"to","type":"address"}],"name":"collectAll","outputs":[{"internalType":"uint256","name":"cygAmount","type":"uint256"}],"stateMutability":"nonpayable","type":"function"},{"inputs":[{"internalType":"address","name":"to","type":"address"},{"internalType":"bool","name":"borrowRewards","type":"bool"}],"name":"collectAllSingle","outputs":[{"internalType":"uint256","name":"cygAmount","type":"uint256"}],"stateMutability":"nonpayable","type":"function"},{"inputs":[],"name":"currentEpochRewards","outputs":[{"internalType":"uint256","name":"","type":"uint256"}],"stateMutability":"view","type":"function"},{"inputs":[],"name":"currentEpochRewardsDAO","outputs":[{"internalType":"uint256","name":"","type":"uint256"}],"stateMutability":"view","type":"function"},{"inputs":[],"name":"cygPerBlockDAO","outputs":[{"internalType":"uint256","name":"","type":"uint256"}],"stateMutability":"view","type":"function"},{"inputs":[],"name":"cygPerBlockRewards","outputs":[{"internalType":"uint256","name":"","type":"uint256"}],"stateMutability":"view","type":"function"},{"inputs":[],"name":"cygToken","outputs":[{"internalType":"address","name":"","type":"address"}],"stateMutability":"view","type":"function"},{"inputs":[],"name":"dateCurrentEpochStart","outputs":[{"internalType":"uint256","name":"year","type":"uint256"},{"internalType":"uint256","name":"month","type":"uint256"},{"internalType":"uint256","name":"day","type":"uint256"},{"internalType":"uint256","name":"hour","type":"uint256"},{"internalType":"uint256","name":"minute","type":"uint256"},{"internalType":"uint256","name":"second","type":"uint256"}],"stateMutability":"view","type":"function"},{"inputs":[{"internalType":"uint256","name":"_epoch","type":"uint256"}],"name":"dateEpochEnd","outputs":[{"internalType":"uint256","name":"year","type":"uint256"},{"internalType":"uint256","name":"month","type":"uint256"},{"internalType":"uint256","name":"day","type":"uint256"},{"internalType":"uint256","name":"hour","type":"uint256"},{"internalType":"uint256","name":"minute","type":"uint256"},{"internalType":"uint256","name":"second","type":"uint256"}],"stateMutability":"view","type":"function"},{"inputs":[{"internalType":"uint256","name":"_epoch","type":"uint256"}],"name":"dateEpochStart","outputs":[{"internalType":"uint256","name":"year","type":"uint256"},{"internalType":"uint256","name":"month","type":"uint256"},{"internalType":"uint256","name":"day","type":"uint256"},{"internalType":"uint256","name":"hour","type":"uint256"},{"internalType":"uint256","name":"minute","type":"uint256"},{"internalType":"uint256","name":"second","type":"uint256"}],"stateMutability":"view","type":"function"},{"inputs":[],"name":"dateLastEpochStart","outputs":[{"internalType":"uint256","name":"year","type":"uint256"},{"internalType":"uint256","name":"month","type":"uint256"},{"internalType":"uint256","name":"day","type":"uint256"},{"internalType":"uint256","name":"hour","type":"uint256"},{"internalType":"uint256","name":"minute","type":"uint256"},{"internalType":"uint256","name":"second","type":"uint256"}],"stateMutability":"view","type":"function"},{"inputs":[],"name":"dateNextEpochStart","outputs":[{"internalType":"uint256","name":"year","type":"uint256"},{"internalType":"uint256","name":"month","type":"uint256"},{"internalType":"uint256","name":"day","type":"uint256"},{"internalType":"uint256","name":"hour","type":"uint256"},{"internalType":"uint256","name":"minute","type":"uint256"},{"internalType":"uint256","name":"second","type":"uint256"}],"stateMutability":"view","type":"function"},{"inputs":[],"name":"dateSupernova","outputs":[{"internalType":"uint256","name":"year","type":"uint256"},{"internalType":"uint256","name":"month","type":"uint256"},{"internalType":"uint256","name":"day","type":"uint256"},{"internalType":"uint256","name":"hour","type":"uint256"},{"internalType":"uint256","name":"minute","type":"uint256"},{"internalType":"uint256","name":"second","type":"uint256"}],"stateMutability":"view","type":"function"},{"inputs":[],"name":"daysPassedThisEpoch","outputs":[{"internalType":"uint256","name":"","type":"uint256"}],"stateMutability":"view","type":"function"},{"inputs":[],"name":"daysUntilNextEpoch","outputs":[{"internalType":"uint256","name":"","type":"uint256"}],"stateMutability":"view","type":"function"},{"inputs":[],"name":"daysUntilSupernova","outputs":[{"internalType":"uint256","name":"","type":"uint256"}],"stateMutability":"view","type":"function"},{"inputs":[],"name":"death","outputs":[{"internalType":"uint256","name":"","type":"uint256"}],"stateMutability":"view","type":"function"},{"inputs":[{"internalType":"uint256","name":"fromTimestamp","type":"uint256"},{"internalType":"uint256","name":"toTimestamp","type":"uint256"}],"name":"diffDays","outputs":[{"internalType":"uint256","name":"result","type":"uint256"}],"stateMutability":"pure","type":"function"},{"inputs":[],"name":"doomswitch","outputs":[{"internalType":"bool","name":"","type":"bool"}],"stateMutability":"view","type":"function"},{"inputs":[],"name":"dripCygDAO","outputs":[],"stateMutability":"nonpayable","type":"function"},{"inputs":[{"internalType":"uint256","name":"epoch","type":"uint256"}],"name":"emissionsCurve","outputs":[{"internalType":"uint256","name":"","type":"uint256"}],"stateMutability":"pure","type":"function"},{"inputs":[],"name":"epochProgression","outputs":[{"internalType":"uint256","name":"","type":"uint256"}],"stateMutability":"view","type":"function"},{"inputs":[],"name":"epochRewardsPacing","outputs":[{"internalType":"uint256","name":"","type":"uint256"}],"stateMutability":"view","type":"function"},{"inputs":[],"name":"getBlockTimestamp","outputs":[{"internalType":"uint256","name":"","type":"uint256"}],"stateMutability":"view","type":"function"},{"inputs":[],"name":"getCurrentEpoch","outputs":[{"internalType":"uint256","name":"","type":"uint256"}],"stateMutability":"view","type":"function"},{"inputs":[{"internalType":"uint256","name":"","type":"uint256"}],"name":"getEpochInfo","outputs":[{"internalType":"uint256","name":"epoch","type":"uint256"},{"internalType":"uint256","name":"cygPerBlock","type":"uint256"},{"internalType":"uint256","name":"totalRewards","type":"uint256"},{"internalType":"uint256","name":"totalClaimed","type":"uint256"},{"internalType":"uint256","name":"start","type":"uint256"},{"internalType":"uint256","name":"end","type":"uint256"}],"stateMutability":"view","type":"function"},{"inputs":[{"internalType":"uint256","name":"shuttleId","type":"uint256"}],"name":"getShuttleById","outputs":[{"components":[{"internalType":"bool","name":"active","type":"bool"},{"internalType":"uint256","name":"shuttleId","type":"uint256"},{"internalType":"address","name":"borrowable","type":"address"},{"internalType":"address","name":"collateral","type":"address"},{"internalType":"uint256","name":"totalShares","type":"uint256"},{"internalType":"uint256","name":"accRewardPerShare","type":"uint256"},{"internalType":"uint256","name":"lastRewardTime","type":"uint256"},{"internalType":"uint256","name":"allocPoint","type":"uint256"},{"internalType":"contract IBonusRewarder","name":"bonusRewarder","type":"address"},{"internalType":"uint256","name":"pillarsId","type":"uint256"}],"internalType":"struct IPillarsOfCreation.ShuttleInfo","name":"lenders","type":"tuple"},{"components":[{"internalType":"bool","name":"active","type":"bool"},{"internalType":"uint256","name":"shuttleId","type":"uint256"},{"internalType":"address","name":"borrowable","type":"address"},{"internalType":"address","name":"collateral","type":"address"},{"internalType":"uint256","name":"totalShares","type":"uint256"},{"internalType":"uint256","name":"accRewardPerShare","type":"uint256"},{"internalType":"uint256","name":"lastRewardTime","type":"uint256"},{"internalType":"uint256","name":"allocPoint","type":"uint256"},{"internalType":"contract IBonusRewarder","name":"bonusRewarder","type":"address"},{"internalType":"uint256","name":"pillarsId","type":"uint256"}],"internalType":"struct IPillarsOfCreation.ShuttleInfo","name":"borrowers","type":"tuple"}],"stateMutability":"view","type":"function"},{"inputs":[{"internalType":"address","name":"","type":"address"},{"internalType":"address","name":"","type":"address"}],"name":"getShuttleInfo","outputs":[{"internalType":"bool","name":"active","type":"bool"},{"internalType":"uint256","name":"shuttleId","type":"uint256"},{"internalType":"address","name":"borrowable","type":"address"},{"internalType":"address","name":"collateral","type":"address"},{"internalType":"uint256","name":"totalShares","type":"uint256"},{"internalType":"uint256","name":"accRewardPerShare","type":"uint256"},{"internalType":"uint256","name":"lastRewardTime","type":"uint256"},{"internalType":"uint256","name":"allocPoint","type":"uint256"},{"internalType":"contract IBonusRewarder","name":"bonusRewarder","type":"address"},{"internalType":"uint256","name":"pillarsId","type":"uint256"}],"stateMutability":"view","type":"function"},{"inputs":[{"internalType":"address","name":"","type":"address"},{"internalType":"address","name":"","type":"address"},{"internalType":"address","name":"","type":"address"}],"name":"getUserInfo","outputs":[{"internalType":"uint256","name":"shares","type":"uint256"},{"internalType":"int256","name":"rewardDebt","type":"int256"}],"stateMutability":"view","type":"function"},{"inputs":[],"name":"hangar18","outputs":[{"internalType":"contract IHangar18","name":"","type":"address"}],"stateMutability":"view","type":"function"},{"inputs":[],"name":"initializePillars","outputs":[],"stateMutability":"nonpayable","type":"function"},{"inputs":[],"name":"lastDripDAO","outputs":[{"internalType":"uint256","name":"","type":"uint256"}],"stateMutability":"view","type":"function"},{"inputs":[],"name":"lastEpochTime","outputs":[{"internalType":"uint256","name":"","type":"uint256"}],"stateMutability":"view","type":"function"},{"inputs":[],"name":"name","outputs":[{"internalType":"string","name":"","type":"string"}],"stateMutability":"view","type":"function"},{"inputs":[],"name":"nextEpochRewards","outputs":[{"internalType":"uint256","name":"","type":"uint256"}],"stateMutability":"view","type":"function"},{"inputs":[{"internalType":"address","name":"borrowable","type":"address"},{"internalType":"address","name":"collateral","type":"address"},{"internalType":"address","name":"account","type":"address"}],"name":"pendingBonusReward","outputs":[{"internalType":"address","name":"token","type":"address"},{"internalType":"uint256","name":"amount","type":"uint256"}],"stateMutability":"view","type":"function"},{"inputs":[{"internalType":"address","name":"borrowable","type":"address"},{"internalType":"address","name":"account","type":"address"},{"internalType":"bool","name":"borrowRewards","type":"bool"}],"name":"pendingCyg","outputs":[{"internalType":"uint256","name":"pending","type":"uint256"}],"stateMutability":"view","type":"function"},{"inputs":[{"internalType":"address","name":"account","type":"address"}],"name":"pendingCygAll","outputs":[{"internalType":"uint256","name":"pending","type":"uint256"}],"stateMutability":"view","type":"function"},{"inputs":[],"name":"pendingCygDAO","outputs":[{"internalType":"uint256","name":"pending","type":"uint256"}],"stateMutability":"view","type":"function"},{"inputs":[{"internalType":"address","name":"account","type":"address"},{"internalType":"bool","name":"borrowRewards","type":"bool"}],"name":"pendingCygSingle","outputs":[{"internalType":"uint256","name":"pending","type":"uint256"}],"stateMutability":"view","type":"function"},{"inputs":[],"name":"previousEpochRewards","outputs":[{"internalType":"uint256","name":"","type":"uint256"}],"stateMutability":"view","type":"function"},{"inputs":[{"internalType":"address","name":"borrowable","type":"address"},{"internalType":"bool","name":"borrowRewards","type":"bool"}],"name":"removeBonusRewarder","outputs":[],"stateMutability":"nonpayable","type":"function"},{"inputs":[{"internalType":"address","name":"_artificer","type":"address"}],"name":"setArtificer","outputs":[],"stateMutability":"nonpayable","type":"function"},{"inputs":[{"internalType":"address","name":"borrowable","type":"address"},{"internalType":"bool","name":"borrowRewards","type":"bool"},{"internalType":"contract IBonusRewarder","name":"bonusRewarder","type":"address"}],"name":"setBonusRewarder","outputs":[],"stateMutability":"nonpayable","type":"function"},{"inputs":[],"name":"setDoomswitch","outputs":[],"stateMutability":"nonpayable","type":"function"},{"inputs":[{"internalType":"address","name":"borrowable","type":"address"},{"internalType":"uint256","name":"allocPoint","type":"uint256"},{"internalType":"bool","name":"borrowRewards","type":"bool"}],"name":"setShuttleRewards","outputs":[],"stateMutability":"nonpayable","type":"function"},{"inputs":[],"name":"shuttlesLength","outputs":[{"internalType":"uint256","name":"","type":"uint256"}],"stateMutability":"view","type":"function"},{"inputs":[],"name":"supernova","outputs":[],"stateMutability":"nonpayable","type":"function"},{"inputs":[],"name":"sweepNative","outputs":[],"stateMutability":"nonpayable","type":"function"},{"inputs":[{"internalType":"address","name":"token","type":"address"}],"name":"sweepToken","outputs":[],"stateMutability":"nonpayable","type":"function"},{"inputs":[{"internalType":"uint256","name":"timestamp","type":"uint256"}],"name":"timestampToDateTime","outputs":[{"internalType":"uint256","name":"year","type":"uint256"},{"internalType":"uint256","name":"month","type":"uint256"},{"internalType":"uint256","name":"day","type":"uint256"},{"internalType":"uint256","name":"hour","type":"uint256"},{"internalType":"uint256","name":"minute","type":"uint256"},{"internalType":"uint256","name":"second","type":"uint256"}],"stateMutability":"pure","type":"function"},{"inputs":[],"name":"totalAllocPoint","outputs":[{"internalType":"uint256","name":"","type":"uint256"}],"stateMutability":"view","type":"function"},{"inputs":[],"name":"totalCygClaimed","outputs":[{"internalType":"uint256","name":"claimed","type":"uint256"}],"stateMutability":"view","type":"function"},{"inputs":[],"name":"totalCygDAO","outputs":[{"internalType":"uint256","name":"","type":"uint256"}],"stateMutability":"view","type":"function"},{"inputs":[],"name":"totalCygRewards","outputs":[{"internalType":"uint256","name":"","type":"uint256"}],"stateMutability":"view","type":"function"},{"inputs":[],"name":"totalProgression","outputs":[{"internalType":"uint256","name":"","type":"uint256"}],"stateMutability":"view","type":"function"},{"inputs":[{"internalType":"address","name":"account","type":"address"},{"internalType":"uint256","name":"balance","type":"uint256"},{"internalType":"address","name":"collateral","type":"address"}],"name":"trackRewards","outputs":[],"stateMutability":"nonpayable","type":"function"},{"inputs":[],"name":"untilNextEpoch","outputs":[{"internalType":"uint256","name":"","type":"uint256"}],"stateMutability":"view","type":"function"},{"inputs":[],"name":"untilSupernova","outputs":[{"internalType":"uint256","name":"","type":"uint256"}],"stateMutability":"view","type":"function"},{"inputs":[{"internalType":"address","name":"borrowable","type":"address"},{"internalType":"bool","name":"borrowRewards","type":"bool"}],"name":"updateShuttle","outputs":[],"stateMutability":"nonpayable","type":"function"},{"inputs":[],"name":"version","outputs":[{"internalType":"string","name":"","type":"string"}],"stateMutability":"view","type":"function"},{"stateMutability":"payable","type":"receive"}],"evm":{"bytecode":{"linkReferences":{},"object":"61010034620001bc57601f62004dab38819003918201601f19168301916001600160401b03831184841017620001c157808492608094604052833981010312620001bc578051906001600160a01b03908183168303620001bc5760208101519182168203620001bc576060604082015191015190600160008160ff19825416178155600654908282811c92168015620001b1575b60208310146200019d57601f821162000170575b50507f4379676e75733a2050696c6c617273206f66204372656174696f6e00000000366006555060c05260e05260a052608052604051614bd39081620001d882396080518181816105ea01528181612535015281816141cf015281816148420152614a59015260a051818181612426015281816146600152614876015260c051818181610a45015281816112430152818161136d015281816120610152818161316e0152614341015260e05181818161139b015281816124810152818161334a01526143e10152f35b60068152601f60208220920160051c8201915b828110620001925750620000a7565b818155830162000183565b634e487b7160e01b81526022600452602490fd5b91607f169162000093565b600080fd5b634e487b7160e01b600052604160045260246000fdfe608060409080825260049182361015610020575b505050361561001e57005b005b600091823560e01c90816306fdde031461356f575080630bc675981461353057806310843823146133f8578063135022c21461336d57806317635d9d1461331557806317caf6f1146132d95780631aa46ba1146132975780631ad4c8c3146131bf5780631bafed521461312b5780631be05289146130ef5780631be1956014612fc95780631c59a85e14612f8d5780631ca56c7d14612dae5780631f3adc0f14612d7357806323f83a0114612d3257806328419d6214612cf357806334ef642e14612bf2578063375b5e7714612a9a5780633cf80e6c14612a2c5780633f610512146129f057806343d6dc94146129b6578063444fd7a01461296f57806344a2ea721461293357806347989b95146128f75780634a91f2b1146128815780634aa64029146127475780634b2d7aa8146124a65780634b53d71d1461244a5780634f573686146123dc5780634fcc55751461236a5780635013f1411461222f5780635104517f1461218257806353cde4881461214657806354fd4d50146120d357806358322a8e14611fec5780635e18ebab14611f805780635f15c3c914611f475780636673fd9714611f025780636870962914611e165780636933ecc214611d2f578063697dbb5614611cc35780636fa4226114611c87578063717462ab14611b925780637212df811461182e57806372e127cb146117f05780637873ced8146116d9578063796b89b9146116a157806382cb43811461164f57806385786968146115b457806389c614b8146115785780638d71bef41461132a5780638f9c87f0146112d65780639acaf956146112885780639e81b6341461120c578063a1d50e801461110b578063ab803a761461106a578063ac9462f51461102c578063acd22cf014610fe8578063aeeab13b14610e2a578063b6b8eb9e14610d6e578063b97dd9e214610d32578063c2c42cde14610cb0578063c4eb01cf14610c3a578063c60cd3ac14610bf0578063c81ba8f014610bb4578063c9d3462214610b68578063ccd4620f14610a68578063d4f7286b14610a10578063d657c9e71461089f578063d797c4c31461084d578063dcec95721461074b578063e5fc02051461064a578063e6a69ab81461060e578063e8a24e1d146105a0578063ea1c1690146104a4578063f2b128a4146103fb5763f458a2df0361001357346103f757817ffffffffffffffffffffffffffffffffffffffffffffffffffffffffffffffffc3601126103f7576103b2600d5442613811565b91621281fb9283039283116103cb576020838351908152f35b806011857f4e487b71000000000000000000000000000000000000000000000000000000006024945252fd5b5080fd5b5082346104a057827ffffffffffffffffffffffffffffffffffffffffffffffffffffffffffffffffc3601126104a05782549160ff83161561047a57836001847fffffffffffffffffffffffffffffffffffffffffffffffffffffffffffffff008091168355610469614301565b61047161473e565b82541617815580f35b517f37ed32e8000000000000000000000000000000000000000000000000000000008152fd5b8280fd5b5091903461059d5760207ffffffffffffffffffffffffffffffffffffffffffffffffffffffffffffffffc36011261059d5750356201518090818104620afa6c019262023ab1938481069361016d948562023ab082146105b48304618eac84048401030304956064870490878060021c9102010390039586600502600201609990049160098311600c028303600301950692610e10968785069551988998603c880697603c900496049461f4ff0261030101600b1c9003600101926003881092046101900201019461059995879260a094919796959260c0850198855260208501526040840152606083015260808201520152565b0390f35b80fd5b50346103f757817ffffffffffffffffffffffffffffffffffffffffffffffffffffffffffffffffc3601126103f7576020905173ffffffffffffffffffffffffffffffffffffffff7f0000000000000000000000000000000000000000000000000000000000000000168152f35b50346103f757817ffffffffffffffffffffffffffffffffffffffffffffffffffffffffffffffffc3601126103f757602090516301e133808152f35b5091903461059d5760207ffffffffffffffffffffffffffffffffffffffffffffffffffffffffffffffffc36011261059d5782908235815260036020522001546201518090818104620afa6c019262023ab1938481069361016d948562023ab082146105b48304618eac84048401030304956064870490878060021c9102010390039586600502600201609990049160098311600c028303600301950692610e10968785069551988998603c880697603c900496049461f4ff0261030101600b1c9003600101926003881092046101900201019461059995879260a094919796959260c0850198855260208501526040840152606083015260808201520152565b5082346104a05760207ffffffffffffffffffffffffffffffffffffffffffffffffffffffffffffffffc3601126104a057918192358152600360205220600501546201518090818104620afa6c019262023ab1938481069361016d948562023ab082146105b48304618eac84048401030304956064870490878060021c9102010390039586600502600201609990049160098311600c028303600301950692610e10968785069551988998603c880697603c900496049461f4ff0261030101600b1c9003600101926003881092046101900201019461059995879260a094919796959260c0850198855260208501526040840152606083015260808201520152565b50346103f757817ffffffffffffffffffffffffffffffffffffffffffffffffffffffffffffffffc3601126103f757602090610898630b47350061089360075442613811565b614b83565b9051908152f35b50346103f75760207ffffffffffffffffffffffffffffffffffffffffffffffffffffffffffffffffc3601126103f75773ffffffffffffffffffffffffffffffffffffffff91833583811681036103f75781549460ff8616156109e957507fffffffffffffffffffffffffffffffffffffffffffffffffffffffffffffff00809516825561092b614301565b81936109376002613d9e565b9081519284925b8484106109a357505050506020947fdf85ecf2c1f25d03947aee9e045c694ded04d6478ea5c1a77f869bdc38cf4f7684600193845486526003895260038287200161098a898254613b8f565b905581519081528789820152a182541617905551908152f35b909192966109df6001916109d9858b8860606109cf828f6109c4868d613e2c565b51015116938a613e2c565b510151169061451f565b90613b8f565b970192919061093e565b83517f37ed32e8000000000000000000000000000000000000000000000000000000008152fd5b50346103f757817ffffffffffffffffffffffffffffffffffffffffffffffffffffffffffffffffc3601126103f757602090517f00000000000000000000000000000000000000000000000000000000000000008152f35b5091346103f757827ffffffffffffffffffffffffffffffffffffffffffffffffffffffffffffffffc3601126103f757359173ffffffffffffffffffffffffffffffffffffffff91828416840361059d5760243592831594851585036104a0579382919294610ad76002613d9e565b91825193945b848610610aee576020888851908152f35b909192939496816060610b018a88613e2c565b510151168380610b60575b610b4c578980610b57575b610b4c57610b42916109d986610b3c93868c610b338f8d613e2c565b51015116613bb5565b97613dff565b9493929190610add565b5096610b4290613dff565b50801515610b17565b508015610b0c565b50903461059d57817ffffffffffffffffffffffffffffffffffffffffffffffffffffffffffffffffc36011261059d575062015180610bac60209335602435613811565b049051908152f35b50346103f757817ffffffffffffffffffffffffffffffffffffffffffffffffffffffffffffffffc3601126103f7576020906007549051908152f35b50346103f757817ffffffffffffffffffffffffffffffffffffffffffffffffffffffffffffffffc3601126103f757602090610898610c31600c5442613811565b600a5490613796565b5082346104a057827ffffffffffffffffffffffffffffffffffffffffffffffffffffffffffffffffc3601126104a05782549160ff83161561047a57836001847fffffffffffffffffffffffffffffffffffffffffffffffffffffffffffffff008091168355610ca8614301565b6104716147e4565b5082346104a05760607ffffffffffffffffffffffffffffffffffffffffffffffffffffffffffffffffc3601126104a0573573ffffffffffffffffffffffffffffffffffffffff92838216820361059d57602435938416840361059d5760443590811515820361059d57509281610d2c60209561089894613cf7565b90613bb5565b50346103f757817ffffffffffffffffffffffffffffffffffffffffffffffffffffffffffffffffc3601126103f7576020906001549051908152f35b5091346103f75760207ffffffffffffffffffffffffffffffffffffffffffffffffffffffffffffffffc3601126103f757359073ffffffffffffffffffffffffffffffffffffffff9182811681036103f75791908092610dce6002613d9e565b805192935b838510610de4576020868851908152f35b9091929394610e1b610e21916109d986858b610e008c8a613e2c565b51015116866060610e118d8b613e2c565b5101511690613bb5565b95613dff565b93929190610dd3565b50346103f757807ffffffffffffffffffffffffffffffffffffffffffffffffffffffffffffffffc3601126103f75782359173ffffffffffffffffffffffffffffffffffffffff9384841684036103f757602435801595861590818303610fe45784549360ff851615610fbd575095917fffffffffffffffffffffffffffffffffffffffffffffffffffffffffffffff008094168555610ec8614301565b8496610ed46002613d9e565b80519487935b868510610f445760208b8b8b60018c7fbec2d90b2168161ac2f11f2f25bad501ebb354c5d35b22d76edbe5e46fc12b4760608e8e8554875260038a52600388882001610f278a8254613b8f565b90558751918252888a83015287820152a182541617905551908152f35b9091929399846060610f568d87613e2c565b510151168280610fb5575b610fa1578c80610fac575b610fa157610f98916109d985610f92938f8f610f898c928c613e2c565b5101511661451f565b9a613dff565b93929190610eda565b5099610f9890613dff565b50801515610f6c565b508015610f61565b86517f37ed32e8000000000000000000000000000000000000000000000000000000008152fd5b8480fd5b50346103f757817ffffffffffffffffffffffffffffffffffffffffffffffffffffffffffffffffc3601126103f75760209060ff600e5460a01c1690519015158152f35b50346103f757817ffffffffffffffffffffffffffffffffffffffffffffffffffffffffffffffffc3601126103f757602090610898600d5442613811565b50818391346103f757817ffffffffffffffffffffffffffffffffffffffffffffffffffffffffffffffffc3601126103f7576110a4614301565b6110ac614a14565b4792836110ea575b507fee2522ca264e96c7cef76269664e2a4cea70ad76b78ee5b01d0587798a0a72d690600154815194855260208501523393a380f35b909180808086335af115611100579083916110b4565b63b12d13eb8452601cfd5b5091903461059d57807ffffffffffffffffffffffffffffffffffffffffffffffffffffffffffffffffc36011261059d578290600154815260036020522001546201518090818104620afa6c019262023ab1938481069361016d948562023ab082146105b48304618eac84048401030304956064870490878060021c9102010390039586600502600201609990049160098311600c028303600301950692610e10968785069551988998603c880697603c900496049461f4ff0261030101600b1c9003600101926003881092046101900201019461059995879260a094919796959260c0850198855260208501526040840152606083015260808201520152565b50346103f757817ffffffffffffffffffffffffffffffffffffffffffffffffffffffffffffffffc3601126103f7576112686001547f0000000000000000000000000000000000000000000000000000000000000000906138dd565b91621281fb928381029381850414901517156103cb576020838351908152f35b5082346104a057827ffffffffffffffffffffffffffffffffffffffffffffffffffffffffffffffffc3601126104a057610bac62015180918360209560015481526003875220015442613811565b50346103f757817ffffffffffffffffffffffffffffffffffffffffffffffffffffffffffffffffc3601126103f75760209073ffffffffffffffffffffffffffffffffffffffff600e541615159051908152f35b50346103f757817ffffffffffffffffffffffffffffffffffffffffffffffffffffffffffffffffc3601126103f757611361614a14565b600754611550576113927f0000000000000000000000000000000000000000000000000000000000000000836138dd565b806009556113c07f0000000000000000000000000000000000000000000000000000000000000000846138dd565b600a5542600755630b47350042018042116115245760085542600d5542600c55621281fb90814201908142116114f8578281029281840414811517156114f8579160058492876080957fcc53a96dddb8d3b8710c4932d9e90652a4eaef0bf4c37a13dc4d806e1b54cb4d97519461143860c0876136c0565b8986526020860191825286860190815260608601908a82528887019242845260a088019586528b80526003602052888c20975188555160018801555160028701555160038601555190840155519101556007547fd7a8441131dba8c179c7d21c199a44cb69087afcb1bbe88df97ca5d3d1b7e678600854600954926114dc600a54858751948594859094939260609260808301968352602083015260408201520152565b0390a1848251928184528160208501528301526060820152a180f35b6024856011887f4e487b7100000000000000000000000000000000000000000000000000000000835252fd5b6024846011877f4e487b7100000000000000000000000000000000000000000000000000000000835252fd5b9050517fe6a87c82000000000000000000000000000000000000000000000000000000008152fd5b50346103f757817ffffffffffffffffffffffffffffffffffffffffffffffffffffffffffffffffc3601126103f757602090600d549051908152f35b5082346104a05760607ffffffffffffffffffffffffffffffffffffffffffffffffffffffffffffffffc3601126104a057359173ffffffffffffffffffffffffffffffffffffffff8084168094036103f7576024358181168091036104a0576044359182168092036104a057839483526005602052838320908352602052828220908252602052206001815491015482519182526020820152f35b50346103f757817ffffffffffffffffffffffffffffffffffffffffffffffffffffffffffffffffc3601126103f75760209073ffffffffffffffffffffffffffffffffffffffff600e54169051908152f35b50346103f757817ffffffffffffffffffffffffffffffffffffffffffffffffffffffffffffffffc3601126103f75760209051428152f35b5091346103f757827ffffffffffffffffffffffffffffffffffffffffffffffffffffffffffffffffc3601126103f75773ffffffffffffffffffffffffffffffffffffffff92813584811690818103610fe45760243580151581036117ec5785549460ff8616156117c55750600195967f9eab47b9475f8019b0adf8933aba0de094f031b718d7c4cda4a736d22f68bb00926117a76117a06060947fffffffffffffffffffffffffffffffffffffffffffffffffffffffffffffff00809a168c5583613cf7565b8092614245565b5087548651963388524260208901528701521693a382541617815580f35b84517f37ed32e8000000000000000000000000000000000000000000000000000000008152fd5b8580fd5b50903461059d5760207ffffffffffffffffffffffffffffffffffffffffffffffffffffffffffffffffc36011261059d57506108986020923561381e565b50346103f75760607ffffffffffffffffffffffffffffffffffffffffffffffffffffffffffffffffc3601126103f757823573ffffffffffffffffffffffffffffffffffffffff9182821690818303610fe457602435916044358015158103611b8e576118ab9061189d614301565b6118a56149be565b85613cf7565b948187526020918883528388209082881691828a5284528489209060ff825416611b66576118db87600b54613b8f565b600b557fffffffffffffffffffffffffffffffffffffffffffffffffffffffffffffff00936001858454161783556007830188815560028401948d887fffffffffffffffffffffffff00000000000000000000000000000000000000009580878a54161789556003880193878554161784558b51928380927f5f77f8910000000000000000000000000000000000000000000000000000000082525afa988915611b5a578e99611b26575b50506001850197885560025495600986019680885568010000000000000000811015611af9578060016119be92016002556002613a8c565b999099611acd57917fdc011fc76c60958a7fab8d152e889b6ac9e6825ae755f7b366e275ce0385110c9e9f9187969594938b9a9998611a499e9d9c03611a4f575b5050505050505050505050600b549051948594859092606092959493608083019673ffffffffffffffffffffffffffffffffffffffff809216845216602083015260408201520152565b0390a180f35b60099960ff808a54161515918d54169116178b555460018b01558460028b01915416868254161790558360038a019154168582541617905580850154908801556005840154600588015560068401546006880155546007870155600880870193015416908254161790555491015538808080808080808080806119ff565b8f8f806024927f4e487b7100000000000000000000000000000000000000000000000000000000825252fd5b8f8f60416024927f4e487b7100000000000000000000000000000000000000000000000000000000835252fd5b9080929950813d8311611b53575b611b3e81836136c0565b81010312611b4f5751963880611986565b8c80fd5b503d611b34565b8e8b51903d90823e3d90fd5b8a86517f21559a02000000000000000000000000000000000000000000000000000000008152fd5b8680fd5b50903461059d57807ffffffffffffffffffffffffffffffffffffffffffffffffffffffffffffffffc36011261059d57506008546201518090818104620afa6c019262023ab1938481069361016d948562023ab082146105b48304618eac84048401030304956064870490878060021c9102010390039586600502600201609990049160098311600c028303600301950692610e10968785069551988998603c880697603c900496049461f4ff0261030101600b1c9003600101926003881092046101900201019461059995879260a094919796959260c0850198855260208501526040840152606083015260808201520152565b50346103f757817ffffffffffffffffffffffffffffffffffffffffffffffffffffffffffffffffc3601126103f7576020906008549051908152f35b8284346103f75760607ffffffffffffffffffffffffffffffffffffffffffffffffffffffffffffffffc3601126103f7573573ffffffffffffffffffffffffffffffffffffffff80821682036104a05760443590811681036104a057611d2c9160243590613f79565b80f35b5082346104a05760207ffffffffffffffffffffffffffffffffffffffffffffffffffffffffffffffffc3601126104a057359073ffffffffffffffffffffffffffffffffffffffff9081831690818403610fe4577f2c9ff116977c5d1586a6849036dd6d48801ca839d7e67544f7ea263e1935109e93611a4991611db1614301565b611db9614a14565b600e54937fffffffffffffffffffffffff0000000000000000000000000000000000000000851617600e5551938493168390602090939293604083019473ffffffffffffffffffffffffffffffffffffffff809216845216910152565b5082346104a057817ffffffffffffffffffffffffffffffffffffffffffffffffffffffffffffffffc3601126104a057803573ffffffffffffffffffffffffffffffffffffffff90818116809103610fe457602435908282168092036117ec5794849161014096825284602052828220908252602052209060ff825416936001830154938260028501541690836003860154169085015490600586015492600687015494600960078901549760088a0154169801549881519a15158b5260208b01528901526060880152608087015260a086015260c085015260e0840152610100830152610120820152f35b50346103f757817ffffffffffffffffffffffffffffffffffffffffffffffffffffffffffffffffc3601126103f757602090610898621281fb610893600d5442613811565b50346103f757817ffffffffffffffffffffffffffffffffffffffffffffffffffffffffffffffffc3601126103f75760209051609c8152f35b50346103f757817ffffffffffffffffffffffffffffffffffffffffffffffffffffffffffffffffc3601126103f75761059990611fbb613e73565b9551948552602085019390935260408401919091526060830152608082015260a081019190915290819060c0820190565b50903461059d57807ffffffffffffffffffffffffffffffffffffffffffffffffffffffffffffffffc36011261059d5760015480612031575060209250905b51908152f35b7fffffffffffffffffffffffffffffffffffffffffffffffffffffffffffffffff81019081116120a757612086907f0000000000000000000000000000000000000000000000000000000000000000906138dd565b90621281fb918281029281840414901517156103cb5750602092509061202b565b6024826011867f4e487b7100000000000000000000000000000000000000000000000000000000835252fd5b50346103f757817ffffffffffffffffffffffffffffffffffffffffffffffffffffffffffffffffc3601126103f75780516105999161211281836136c0565b600582527f322e302e3000000000000000000000000000000000000000000000000000000060208301525191829182613730565b50346103f757817ffffffffffffffffffffffffffffffffffffffffffffffffffffffffffffffffc3601126103f7576020906002549051908152f35b5082346104a057827ffffffffffffffffffffffffffffffffffffffffffffffffffffffffffffffffc3601126104a0576121c5621281fb610893600d5442613811565b906001548452600360205260028385200154906003848620015494837fffffffffffffffffffffffffffffffffffffffffffffffffffffffffffffffff048311840261222457602085610898670de0b6b3a76400008688020489614b83565b63bac65e5b9052601cfd5b50346103f75760607ffffffffffffffffffffffffffffffffffffffffffffffffffffffffffffffffc3601126103f75782359173ffffffffffffffffffffffffffffffffffffffff8084168085036104a05760243591821515830361236657604435928184168403610fe45784549760ff891615610fbd5750917f1c4f94f28cc9152354d4b98b8614b28c6c828a98d88228fa9577c7b9475e120c849261231460019661230d60209c977fffffffffffffffffffffffffffffffffffffffffffffffffffffffffffffff008099168b55612307614301565b8c613cf7565b809b61451f565b988654885260038b5260038989200161232e8b8254613b8f565b9055885173ffffffffffffffffffffffffffffffffffffffff959095168552602085018a90521692604090a382541617905551908152f35b8380fd5b50346103f757817ffffffffffffffffffffffffffffffffffffffffffffffffffffffffffffffffc3601126103f757819060015483905b808211156123b3576020848451908152f35b90926123d06123d691858752600380602052858820015490613b8f565b93613dff565b906123a1565b50346103f757817ffffffffffffffffffffffffffffffffffffffffffffffffffffffffffffffffc3601126103f7576020905173ffffffffffffffffffffffffffffffffffffffff7f0000000000000000000000000000000000000000000000000000000000000000168152f35b50346103f757817ffffffffffffffffffffffffffffffffffffffffffffffffffffffffffffffffc3601126103f7576112686001547f0000000000000000000000000000000000000000000000000000000000000000906138dd565b508290346104a0576020807ffffffffffffffffffffffffffffffffffffffffffffffffffffffffffffffffc360112612366576124e1613a3d565b506124ea613a3d565b508151907f1ad4c8c300000000000000000000000000000000000000000000000000000000825283358483015273ffffffffffffffffffffffffffffffffffffffff60a083602481847f0000000000000000000000000000000000000000000000000000000000000000165afa92831561273d57869087946126b9575b509361028096819461262c94846125aa956126b79916998a85528083528585208580528352612597868620613ad7565b9a85528252848420921683525220613ad7565b915180948051151582526020810151602083015273ffffffffffffffffffffffffffffffffffffffff8060408301511660408401528060608301511660608401526080820151608084015260a082015160a084015260c082015160c084015260e082015160e08401526101009081830151169083015261012080910151910152565b805115156101408401526020810151610160840152604081015173ffffffffffffffffffffffffffffffffffffffff908116610180850152606082015181166101a085015260808201516101c085015260a08201516101e085015260c082015161020085015260e0820151610220850152610100820151166102408401526101200151610260830152565bf35b93505060a0833d8211612735575b816126d460a093836136c0565b810103126117ec578251801515036117ec57818301516affffffffffffffffffffff8116036117ec57612708848401613b69565b608061271660608601613b69565b9401516bffffffffffffffffffffffff811603611b8e57610280612567565b3d91506126c7565b84513d88823e3d90fd5b5091346103f757827ffffffffffffffffffffffffffffffffffffffffffffffffffffffffffffffffc3601126103f757803573ffffffffffffffffffffffffffffffffffffffff9182821692838303610fe45760243580151581036117ec576127c0906127b2614301565b6127ba6149be565b84613cf7565b9385528160205285852090841685526020528484209060ff8254161561285a575060080180547fffffffffffffffffffffffff0000000000000000000000000000000000000000169055925173ffffffffffffffffffffffffffffffffffffffff938416815292166020830152907f187f609dc1b45f615ecf16c1fcde5d69c367a25598a0cf014c8daa1285d204f0908060408101611a49565b85517f520f832f000000000000000000000000000000000000000000000000000000008152fd5b5082346104a057827ffffffffffffffffffffffffffffffffffffffffffffffffffffffffffffffffc3601126104a05782549160ff83161561047a57836001847fffffffffffffffffffffffffffffffffffffffffffffffffffffffffffffff0080911683556128ef614301565b6104716149a4565b50346103f757807ffffffffffffffffffffffffffffffffffffffffffffffffffffffffffffffffc3601126103f75761126860243584356138dd565b50346103f757817ffffffffffffffffffffffffffffffffffffffffffffffffffffffffffffffffc3601126103f7576020906009549051908152f35b823461059d57807ffffffffffffffffffffffffffffffffffffffffffffffffffffffffffffffffc36011261059d576129a6614301565b6129ae614a14565b611d2c614af7565b50346103f757817ffffffffffffffffffffffffffffffffffffffffffffffffffffffffffffffffc3601126103f757602090610898613e40565b50346103f757817ffffffffffffffffffffffffffffffffffffffffffffffffffffffffffffffffc3601126103f757602090600c549051908152f35b5082346104a057827ffffffffffffffffffffffffffffffffffffffffffffffffffffffffffffffffc3601126104a05782549160ff83161561047a57836001847fffffffffffffffffffffffffffffffffffffffffffffffffffffffffffffff008091168355610471614301565b50346103f75760607ffffffffffffffffffffffffffffffffffffffffffffffffffffffffffffffffc3601126103f757823573ffffffffffffffffffffffffffffffffffffffff938482168092036123665760243594808616809603610fe457604435908082168092036117ec579160649184938695885282602052858820898952602052610100612b2d878a20613ad7565b01511690855198899586947fb75942c0000000000000000000000000000000000000000000000000000000008652850152602484015260448301525afa928315612be757828094612ba4575b50505173ffffffffffffffffffffffffffffffffffffffff9190911681526020810191909152604090f35b91935091508282813d8311612be0575b612bbe81836136c0565b8101031261059d57506105996020612bd583613b69565b920151929038612b79565b503d612bb4565b5051903d90823e3d90fd5b50346103f757817ffffffffffffffffffffffffffffffffffffffffffffffffffffffffffffffffc3601126103f75780916001548152600360205220600501546201518090818104620afa6c019262023ab1938481069361016d948562023ab082146105b48304618eac84048401030304956064870490878060021c9102010390039586600502600201609990049160098311600c028303600301950692610e10968785069551988998603c880697603c900496049461f4ff0261030101600b1c9003600101926003881092046101900201019461059995879260a094919796959260c0850198855260208501526040840152606083015260808201520152565b50346103f757817ffffffffffffffffffffffffffffffffffffffffffffffffffffffffffffffffc3601126103f75760209051662386f26fc100008152f35b50903461059d57817ffffffffffffffffffffffffffffffffffffffffffffffffffffffffffffffffc36011261059d575061089860209260243590356138dd565b50346103f757817ffffffffffffffffffffffffffffffffffffffffffffffffffffffffffffffffc3601126103f75760209051621281fb8152f35b50346103f75760607ffffffffffffffffffffffffffffffffffffffffffffffffffffffffffffffffc3601126103f757823573ffffffffffffffffffffffffffffffffffffffff9384821692838303610fe457602435956044358015158103611b8e57612e19614301565b612e216149be565b15612f865781517fd8dfeb450000000000000000000000000000000000000000000000000000000081526020818581895afa908115612f7c578791612f43575b50945b86528260205281862090851686526020528085209160ff83541615612f1c575094817f565fcece9a598bb08d13f5964b75addeb6c15f8401114d49b330dada02ef648c9596826007612ede600982611a4998019584875497612ed182612ecc8b600b54613811565b613b8f565b600b555501546002613a8c565b50015551948594859092606092959493608083019673ffffffffffffffffffffffffffffffffffffffff809216845216602083015260408201520152565b90517f520f832f000000000000000000000000000000000000000000000000000000008152fd5b90506020813d8211612f74575b81612f5d602093836136c0565b81010312611b8e57612f6e90613b69565b38612e61565b3d9150612f50565b83513d89823e3d90fd5b8594612e64565b50346103f757817ffffffffffffffffffffffffffffffffffffffffffffffffffffffffffffffffc3601126103f757602090600a549051908152f35b5082346104a057602091827ffffffffffffffffffffffffffffffffffffffffffffffffffffffffffffffffc3601126123665781359273ffffffffffffffffffffffffffffffffffffffff8416928385036117ec57613026614301565b61302e614a14565b6370a0823186523082528582806024601c895afa601f3d11168351029586613089575b505050907fee2522ca264e96c7cef76269664e2a4cea70ad76b78ee5b01d0587798a0a72d6916001549082519586528501523393a380f35b906044601682869433601a528a603a5269a9059cbb00000000000082525af13d1560018851141716156130e45750603a8590527fee2522ca264e96c7cef76269664e2a4cea70ad76b78ee5b01d0587798a0a72d68587613051565b6390b8ec188652601cfd5b50346103f757817ffffffffffffffffffffffffffffffffffffffffffffffffffffffffffffffffc3601126103f75760209051630b4735008152f35b50346103f757817ffffffffffffffffffffffffffffffffffffffffffffffffffffffffffffffffc3601126103f7576001546001810180911161319357611268907f0000000000000000000000000000000000000000000000000000000000000000906138dd565b6024836011867f4e487b7100000000000000000000000000000000000000000000000000000000835252fd5b50903461059d5760207ffffffffffffffffffffffffffffffffffffffffffffffffffffffffffffffffc36011261059d57506126b761321561320f61014094613206613a3d565b50356002613a8c565b50613ad7565b915180928051151582526020810151602083015273ffffffffffffffffffffffffffffffffffffffff8060408301511660408401528060608301511660608401526080820151608084015260a082015160a084015260c082015160c084015260e082015160e08401526101009081830151169083015261012080910151910152565b50346103f757817ffffffffffffffffffffffffffffffffffffffffffffffffffffffffffffffffc3601126103f75760209062015180610bac42600854613811565b50346103f757817ffffffffffffffffffffffffffffffffffffffffffffffffffffffffffffffffc3601126103f757602090600b549051908152f35b50346103f757817ffffffffffffffffffffffffffffffffffffffffffffffffffffffffffffffffc3601126103f757602090517f00000000000000000000000000000000000000000000000000000000000000008152f35b50903461059d5760207ffffffffffffffffffffffffffffffffffffffffffffffffffffffffffffffffc36011261059d5781610599918435815260036020522091825492600181015494600282015460056003840154928401549301549351968796879260a094919796959260c0850198855260208501526040840152606083015260808201520152565b508290346104a05760607ffffffffffffffffffffffffffffffffffffffffffffffffffffffffffffffffc3601126104a05781359073ffffffffffffffffffffffffffffffffffffffff808316938484036117ec57602435938415158503611b8e576044359483861680960361352c5761348191613474614301565b61347c6149be565b613cf7565b91858752816020528387209216918287526020528286209060ff82541615613505575060080180547fffffffffffffffffffffffff00000000000000000000000000000000000000001684179055815193845260208401528201527f755d52111eed94748d2bb23652ca518a2fb5ae59c7ccc52b553930263dd1a8fe90606090a180f35b83517f520f832f000000000000000000000000000000000000000000000000000000008152fd5b8780fd5b50346103f757817ffffffffffffffffffffffffffffffffffffffffffffffffffffffffffffffffc3601126103f7576020906108986008544290613811565b929390503461236657837ffffffffffffffffffffffffffffffffffffffffffffffffffffffffffffffffc36011261236657600654600181811c91869082811680156136b6575b602095868610821461368a575084885290811561364a57506001146135f1575b61059986866135e7828b03836136c0565b5191829182613730565b929550600683527ff652222313e28459528d920b65115c16c04f3efc82aaedc97be59f3f377c0d3f5b8284106136375750505082610599946135e79282010194386135d6565b805486850188015292860192810161361a565b7fffffffffffffffffffffffffffffffffffffffffffffffffffffffffffffff001687860152505050151560051b83010192506135e782610599386135d6565b8360226024927f4e487b7100000000000000000000000000000000000000000000000000000000835252fd5b93607f16936135b6565b90601f7fffffffffffffffffffffffffffffffffffffffffffffffffffffffffffffffe0910116810190811067ffffffffffffffff82111761370157604052565b7f4e487b7100000000000000000000000000000000000000000000000000000000600052604160045260246000fd5b60208082528251818301819052939260005b858110613782575050507fffffffffffffffffffffffffffffffffffffffffffffffffffffffffffffffe0601f8460006040809697860101520116010190565b818101830151848201604001528201613742565b818102929181159184041417156137a957565b7f4e487b7100000000000000000000000000000000000000000000000000000000600052601160045260246000fd5b81156137e2570490565b7f4e487b7100000000000000000000000000000000000000000000000000000000600052601260045260246000fd5b919082039182116137a957565b609c03609c81116137a957670de0b6b3a764000060009182905b80821061388c575050670de0b6b3a76400000390670de0b6b3a7640000821161385f575090565b807f4e487b7100000000000000000000000000000000000000000000000000000000602492526011600452fd5b9091670dbd2fc137a30000907812a21131081afaf01ad7d1536eab728fd168d79abc89b12c5f811182026138d057670de0b6b3a76400009102049160010190613838565b63bac65e5b85526004601cfd5b906000916138ea8361381e565b83908085038116908181049160019586938483808b030401906002808260030218808302820302808302820302808302820302808302820302808302820302809202900302946139a6575b50505050509190835b81851061395257505050621281fb91500490565b909192670dbd2fc137a30000907812a21131081afaf01ad7d1536eab728fd168d79abc89b12c5f811182026139995794840194670de0b6b3a764000091020492919061393e565b63bac65e5b83526004601cfd5b909192939450662386f26fc1000093848302947fffffffffffffffffffffffffffffffffffffffffffffffffffffffffffffffff8185099386851087018086039514613a185784831115613a0b57099184831190030292030417023880808080613935565b63ae47f7028b526004601cfd5b505094505050508115613a3057043880808080613935565b63ae47f70285526004601cfd5b60405190613a4d610140836136c0565b816101206000918281528260208201528260408201528260608201528260808201528260a08201528260c08201528260e0820152826101008201520152565b8054821015613aa857600052600a602060002091020190600090565b7f4e487b7100000000000000000000000000000000000000000000000000000000600052603260045260246000fd5b90604051613ae7610140826136c0565b6101206009829460ff815416151584526001810154602085015273ffffffffffffffffffffffffffffffffffffffff80600283015416604086015280600383015416606086015260048201546080860152600582015460a0860152600682015460c0860152600782015460e08601526008820154166101008501520154910152565b519073ffffffffffffffffffffffffffffffffffffffff82168203613b8a57565b600080fd5b919082018092116137a957565b818103929160001380158285131691841216176137a957565b909173ffffffffffffffffffffffffffffffffffffffff80921660009181835260209360048552604095818786209116908186528652613bf6878620613ad7565b9385526005865286852090855285528584209116835283526001848320613c1f865196876136c0565b80548652015492840192835260a08101519160808201519160c081015180421180613cee575b613c73575b50505050613c6769d3c21bcecceda100000091613c709451613796565b04905190613b9c565b90565b613ca79160e0613c95613c8c613c9e949a999a42613811565b60095490613796565b91015190613796565b600b54906137d8565b9069d3c21bcecceda10000009182810292818404149015171561385f575092613ce669d3c21bcecceda1000000936109d9613c6794613c7098976137d8565b928195613c4a565b50831515613c45565b9060009015613d995750602073ffffffffffffffffffffffffffffffffffffffff916004604051809481937fd8dfeb45000000000000000000000000000000000000000000000000000000008352165afa908115613d8d57600091613d5a575090565b906020823d8211613d85575b81613d73602093836136c0565b8101031261059d5750613c7090613b69565b3d9150613d66565b6040513d6000823e3d90fd5b905090565b90815467ffffffffffffffff811161370157604051926020613dc5818460051b01866136c0565b82855260009182528082208186015b848410613de2575050505050565b600a83600192613df185613ad7565b815201920193019290613dd4565b7fffffffffffffffffffffffffffffffffffffffffffffffffffffffffffffffff81146137a95760010190565b8051821015613aa85760209160051b010190565b600154609b8114613e6d57600052600360205262015180613e6942600560406000200154613811565b0490565b50600090565b6001548015613f48577fffffffffffffffffffffffffffffffffffffffffffffffffffffffffffffffff81019081116137a9576000526003602052600460406000200154906201518091620afa6c838204019162023ab19182840692600161016d948562023ab082146105b48304618eac84048401030304956064870490878060021c91020103900361030161f4ff60996002846005020104986003600c60098c11028b03019a8b970698610190610e10976003898d069a10930402010199980201600b1c900301930491603c808304920690565b50600090600090600090600090600090600090565b919091600083820193841291129080158216911516176137a957565b92919073ffffffffffffffffffffffffffffffffffffffff809416918215801561419f575b61419857613fac8133614245565b90600095338752600560205260409281848920931692838952602052838820868952602052838820613fdf815487613b9c565b90600583015490818302917f800000000000000000000000000000000000000000000000000000000000000081148c85121661416b57838305148315171561413e579061404469d3c21bcecceda10000006001848b6008989796550192058254613f5d565b905561405560048301918254613f5d565b905501541680614096575b507feac61de046affca7fe9ad670a0122f505f4d6f907f7863e84ca5ca89028b17879293949550815193845260208401523392a3565b8087913b156103f757819060c48551809481937f250939ce0000000000000000000000000000000000000000000000000000000083523360048401528760248401528a60448401528a60648401528160848401528960a48401525af18015612f7c57967feac61de046affca7fe9ad670a0122f505f4d6f907f7863e84ca5ca89028b17879495969761412e575b508695949350614060565b614137916136c0565b3880614123565b60248b7f4e487b710000000000000000000000000000000000000000000000000000000081526011600452fd5b60248c7f4e487b710000000000000000000000000000000000000000000000000000000081526011600452fd5b5050509050565b506040517f5b068af8000000000000000000000000000000000000000000000000000000008152602081600481897f0000000000000000000000000000000000000000000000000000000000000000165afa8015613d8d57869160009161420a575b50168314613f9e565b91506020823d821161423d575b81614224602093836136c0565b8101031261059d57506142378691613b69565b38614201565b3d9150614217565b919073ffffffffffffffffffffffffffffffffffffffff80600094168452600460205260408420911683526020526040822091600683019081549081421161428c57505050565b600485015491826142a0575b505050429055565b613c9e6142b56142c092600954904203613796565b600788015490613796565b9069d3c21bcecceda10000009182810292818404149015171561385f5750906142e8916137d8565b6142f760058501918254613b8f565b9055388080614298565b614314600d54621281fb91829142613811565b0461431c5750565b9060015460018101908181116137a957609c8210156144945742600d556009546143667f0000000000000000000000000000000000000000000000000000000000000000846138dd565b6009556000948386526003602052604086209042600483015580420180421161446757600583015584825560095480600184015581810291818304149015171561443a57956003827fcc53a96dddb8d3b8710c4932d9e90652a4eaef0bf4c37a13dc4d806e1b54cb4d979860026144349695015501556144067f0000000000000000000000000000000000000000000000000000000000000000856138dd565b600a558360015560095490604051948594859094939260609260808301968352602083015260408201520152565b0390a15b565b6024877f4e487b710000000000000000000000000000000000000000000000000000000081526011600452fd5b6024887f4e487b710000000000000000000000000000000000000000000000000000000081526011600452fd5b505090506144385b60ff600e5460a01c16156144f0577f3448d68e439b81df30dbd68606f415f65c9eabaaef0aca1ffc0368cc3954c6dc60806007546008546001549060405192338452602084015260408301526060820152a1565b7f4e487b7100000000000000000000000000000000000000000000000000000000600052600160045260246000fd5b929161452b8285614245565b9360009273ffffffffffffffffffffffffffffffffffffffff8092168085526005602052604092808487209316928387526020528386203387526020528386209069d3c21bcecceda1000000614587835460058c015490613796565b0460018301996145988b5483613b9c565b9189831261471557908391839c558261465d575b600801541692836145c3575b505050505050505050565b5491833b15614659579288959492869260c49589519a8b9889977f250939ce00000000000000000000000000000000000000000000000000000000895260048901526024880152336044880152166064860152608485015260a48401525af1908115614650575061463b575b808080808080806145b8565b6146468280926136c0565b61059d578061462f565b513d84823e3d90fd5b8880fd5b907f000000000000000000000000000000000000000000000000000000000000000016803b156147115787517f40c10f1900000000000000000000000000000000000000000000000000000000815273ffffffffffffffffffffffffffffffffffffffff8a16600482015260248101849052908a908290604490829084905af18015614707576146f0575b5082906145ac565b896146ff85939b6008936136c0565b9991506146e8565b88513d8c823e3d90fd5b8980fd5b600488517f7a043e83000000000000000000000000000000000000000000000000000000008152fd5b6147486002613d9e565b80519060005b82811061479a57505060607f43604600d5d5b743877b9625896fea0414a17136bbe657753a96dc6f80ede1b9916147836147e4565b6001546040519182523360208301526040820152a1565b6001906147dd73ffffffffffffffffffffffffffffffffffffffff8060406147c28588613e2c565b510151169060606147d38588613e2c565b5101511690614245565b500161474e565b6147f3610c31600c5442613811565b80156149a15742600c55604051907f5b068af800000000000000000000000000000000000000000000000000000000825273ffffffffffffffffffffffffffffffffffffffff602083600481847f0000000000000000000000000000000000000000000000000000000000000000165afa928315613d8d57600093614966575b507f00000000000000000000000000000000000000000000000000000000000000001691823b15613b8a576040517f40c10f1900000000000000000000000000000000000000000000000000000000815273ffffffffffffffffffffffffffffffffffffffff8216600482015260248101839052926000908490604490829084905af1928315613d8d577f8c7c728114c112045e2034993bddd9085d8389598519c107b239314593fe87a593614955575b506040805173ffffffffffffffffffffffffffffffffffffffff909216825260208201929092529081908101614434565b6000614960916136c0565b38614924565b90926020823d8211614999575b81614980602093836136c0565b8101031261059d575061499290613b69565b9138614873565b3d9150614973565b50565b6149ac61473e565b609c600154106144385761443861449c565b600e5473ffffffffffffffffffffffffffffffffffffffff168015614a0f5733036149e557565b60046040517fde192719000000000000000000000000000000000000000000000000000000008152fd5b506144385b6040517ff851a44000000000000000000000000000000000000000000000000000000000815273ffffffffffffffffffffffffffffffffffffffff90602081600481857f0000000000000000000000000000000000000000000000000000000000000000165afa908115613d8d57600091614abe575b50163303614a9457565b60046040517f6ef4c9a4000000000000000000000000000000000000000000000000000000008152fd5b906020823d8211614aef575b81614ad7602093836136c0565b8101031261059d5750614ae990613b69565b38614a8a565b3d9150614aca565b600e5460ff8160a01c166149a1576060740100000000000000000000000000000000000000007fffffffffffffffffffffff00ffffffffffffffffffffffffffffffffffffffff7f1b3587203e8359719df4287c466107760e0f3ed9b52697df913d0a18877eca2b93161780600e5560ff6040519142835233602084015260a01c1615156040820152a1565b670de0b6b3a7640000907812725dd1d243aba0e75fe645cc4873f9e65afe688c928e1f218111820215830215614bb857020490565b637c5f487d6000526004601cfdfea164736f6c6343000811000a","opcodes":"PUSH2 0x100 CALLVALUE PUSH3 0x1BC JUMPI PUSH1 0x1F PUSH3 0x4DAB CODESIZE DUP2 SWAP1 SUB SWAP2 DUP3 ADD PUSH1 0x1F NOT AND DUP4 ADD SWAP2 PUSH1 0x1 PUSH1 0x1 PUSH1 0x40 SHL SUB DUP4 GT DUP5 DUP5 LT OR PUSH3 0x1C1 JUMPI DUP1 DUP5 SWAP3 PUSH1 0x80 SWAP5 PUSH1 0x40 MSTORE DUP4 CODECOPY DUP2 ADD SUB SLT PUSH3 0x1BC JUMPI DUP1 MLOAD SWAP1 PUSH1 0x1 PUSH1 0x1 PUSH1 0xA0 SHL SUB SWAP1 DUP2 DUP4 AND DUP4 SUB PUSH3 0x1BC JUMPI PUSH1 0x20 DUP2 ADD MLOAD SWAP2 DUP3 AND DUP3 SUB PUSH3 0x1BC JUMPI PUSH1 0x60 PUSH1 0x40 DUP3 ADD MLOAD SWAP2 ADD MLOAD SWAP1 PUSH1 0x1 PUSH1 0x0 DUP2 PUSH1 0xFF NOT DUP3 SLOAD AND OR DUP2 SSTORE PUSH1 0x6 SLOAD SWAP1 DUP3 DUP3 DUP2 SHR SWAP3 AND DUP1 ISZERO PUSH3 0x1B1 JUMPI JUMPDEST PUSH1 0x20 DUP4 LT EQ PUSH3 0x19D JUMPI PUSH1 0x1F DUP3 GT PUSH3 0x170 JUMPI JUMPDEST POP POP PUSH32 0x4379676E75733A2050696C6C617273206F66204372656174696F6E0000000036 PUSH1 0x6 SSTORE POP PUSH1 0xC0 MSTORE PUSH1 0xE0 MSTORE PUSH1 0xA0 MSTORE PUSH1 0x80 MSTORE PUSH1 0x40 MLOAD PUSH2 0x4BD3 SWAP1 DUP2 PUSH3 0x1D8 DUP3 CODECOPY PUSH1 0x80 MLOAD DUP2 DUP2 DUP2 PUSH2 0x5EA ADD MSTORE DUP2 DUP2 PUSH2 0x2535 ADD MSTORE DUP2 DUP2 PUSH2 0x41CF ADD MSTORE DUP2 DUP2 PUSH2 0x4842 ADD MSTORE PUSH2 0x4A59 ADD MSTORE PUSH1 0xA0 MLOAD DUP2 DUP2 DUP2 PUSH2 0x2426 ADD MSTORE DUP2 DUP2 PUSH2 0x4660 ADD MSTORE PUSH2 0x4876 ADD MSTORE PUSH1 0xC0 MLOAD DUP2 DUP2 DUP2 PUSH2 0xA45 ADD MSTORE DUP2 DUP2 PUSH2 0x1243 ADD MSTORE DUP2 DUP2 PUSH2 0x136D ADD MSTORE DUP2 DUP2 PUSH2 0x2061 ADD MSTORE DUP2 DUP2 PUSH2 0x316E ADD MSTORE PUSH2 0x4341 ADD MSTORE PUSH1 0xE0 MLOAD DUP2 DUP2 DUP2 PUSH2 0x139B ADD MSTORE DUP2 DUP2 PUSH2 0x2481 ADD MSTORE DUP2 DUP2 PUSH2 0x334A ADD MSTORE PUSH2 0x43E1 ADD MSTORE RETURN JUMPDEST PUSH1 0x6 DUP2 MSTORE PUSH1 0x1F PUSH1 0x20 DUP3 KECCAK256 SWAP3 ADD PUSH1 0x5 SHR DUP3 ADD SWAP2 JUMPDEST DUP3 DUP2 LT PUSH3 0x192 JUMPI POP PUSH3 0xA7 JUMP JUMPDEST DUP2 DUP2 SSTORE DUP4 ADD PUSH3 0x183 JUMP JUMPDEST PUSH4 0x4E487B71 PUSH1 0xE0 SHL DUP2 MSTORE PUSH1 0x22 PUSH1 0x4 MSTORE PUSH1 0x24 SWAP1 REVERT JUMPDEST SWAP2 PUSH1 0x7F AND SWAP2 PUSH3 0x93 JUMP JUMPDEST PUSH1 0x0 DUP1 REVERT JUMPDEST PUSH4 0x4E487B71 PUSH1 0xE0 SHL PUSH1 0x0 MSTORE PUSH1 0x41 PUSH1 0x4 MSTORE PUSH1 0x24 PUSH1 0x0 REVERT INVALID PUSH1 0x80 PUSH1 0x40 SWAP1 DUP1 DUP3 MSTORE PUSH1 0x4 SWAP2 DUP3 CALLDATASIZE LT ISZERO PUSH2 0x20 JUMPI JUMPDEST POP POP POP CALLDATASIZE ISZERO PUSH2 0x1E JUMPI STOP JUMPDEST STOP JUMPDEST PUSH1 0x0 SWAP2 DUP3 CALLDATALOAD PUSH1 0xE0 SHR SWAP1 DUP2 PUSH4 0x6FDDE03 EQ PUSH2 0x356F JUMPI POP DUP1 PUSH4 0xBC67598 EQ PUSH2 0x3530 JUMPI DUP1 PUSH4 0x10843823 EQ PUSH2 0x33F8 JUMPI DUP1 PUSH4 0x135022C2 EQ PUSH2 0x336D JUMPI DUP1 PUSH4 0x17635D9D EQ PUSH2 0x3315 JUMPI DUP1 PUSH4 0x17CAF6F1 EQ PUSH2 0x32D9 JUMPI DUP1 PUSH4 0x1AA46BA1 EQ PUSH2 0x3297 JUMPI DUP1 PUSH4 0x1AD4C8C3 EQ PUSH2 0x31BF JUMPI DUP1 PUSH4 0x1BAFED52 EQ PUSH2 0x312B JUMPI DUP1 PUSH4 0x1BE05289 EQ PUSH2 0x30EF JUMPI DUP1 PUSH4 0x1BE19560 EQ PUSH2 0x2FC9 JUMPI DUP1 PUSH4 0x1C59A85E EQ PUSH2 0x2F8D JUMPI DUP1 PUSH4 0x1CA56C7D EQ PUSH2 0x2DAE JUMPI DUP1 PUSH4 0x1F3ADC0F EQ PUSH2 0x2D73 JUMPI DUP1 PUSH4 0x23F83A01 EQ PUSH2 0x2D32 JUMPI DUP1 PUSH4 0x28419D62 EQ PUSH2 0x2CF3 JUMPI DUP1 PUSH4 0x34EF642E EQ PUSH2 0x2BF2 JUMPI DUP1 PUSH4 0x375B5E77 EQ PUSH2 0x2A9A JUMPI DUP1 PUSH4 0x3CF80E6C EQ PUSH2 0x2A2C JUMPI DUP1 PUSH4 0x3F610512 EQ PUSH2 0x29F0 JUMPI DUP1 PUSH4 0x43D6DC94 EQ PUSH2 0x29B6 JUMPI DUP1 PUSH4 0x444FD7A0 EQ PUSH2 0x296F JUMPI DUP1 PUSH4 0x44A2EA72 EQ PUSH2 0x2933 JUMPI DUP1 PUSH4 0x47989B95 EQ PUSH2 0x28F7 JUMPI DUP1 PUSH4 0x4A91F2B1 EQ PUSH2 0x2881 JUMPI DUP1 PUSH4 0x4AA64029 EQ PUSH2 0x2747 JUMPI DUP1 PUSH4 0x4B2D7AA8 EQ PUSH2 0x24A6 JUMPI DUP1 PUSH4 0x4B53D71D EQ PUSH2 0x244A JUMPI DUP1 PUSH4 0x4F573686 EQ PUSH2 0x23DC JUMPI DUP1 PUSH4 0x4FCC5575 EQ PUSH2 0x236A JUMPI DUP1 PUSH4 0x5013F141 EQ PUSH2 0x222F JUMPI DUP1 PUSH4 0x5104517F EQ PUSH2 0x2182 JUMPI DUP1 PUSH4 0x53CDE488 EQ PUSH2 0x2146 JUMPI DUP1 PUSH4 0x54FD4D50 EQ PUSH2 0x20D3 JUMPI DUP1 PUSH4 0x58322A8E EQ PUSH2 0x1FEC JUMPI DUP1 PUSH4 0x5E18EBAB EQ PUSH2 0x1F80 JUMPI DUP1 PUSH4 0x5F15C3C9 EQ PUSH2 0x1F47 JUMPI DUP1 PUSH4 0x6673FD97 EQ PUSH2 0x1F02 JUMPI DUP1 PUSH4 0x68709629 EQ PUSH2 0x1E16 JUMPI DUP1 PUSH4 0x6933ECC2 EQ PUSH2 0x1D2F JUMPI DUP1 PUSH4 0x697DBB56 EQ PUSH2 0x1CC3 JUMPI DUP1 PUSH4 0x6FA42261 EQ PUSH2 0x1C87 JUMPI DUP1 PUSH4 0x717462AB EQ PUSH2 0x1B92 JUMPI DUP1 PUSH4 0x7212DF81 EQ PUSH2 0x182E JUMPI DUP1 PUSH4 0x72E127CB EQ PUSH2 0x17F0 JUMPI DUP1 PUSH4 0x7873CED8 EQ PUSH2 0x16D9 JUMPI DUP1 PUSH4 0x796B89B9 EQ PUSH2 0x16A1 JUMPI DUP1 PUSH4 0x82CB4381 EQ PUSH2 0x164F JUMPI DUP1 PUSH4 0x85786968 EQ PUSH2 0x15B4 JUMPI DUP1 PUSH4 0x89C614B8 EQ PUSH2 0x1578 JUMPI DUP1 PUSH4 0x8D71BEF4 EQ PUSH2 0x132A JUMPI DUP1 PUSH4 0x8F9C87F0 EQ PUSH2 0x12D6 JUMPI DUP1 PUSH4 0x9ACAF956 EQ PUSH2 0x1288 JUMPI DUP1 PUSH4 0x9E81B634 EQ PUSH2 0x120C JUMPI DUP1 PUSH4 0xA1D50E80 EQ PUSH2 0x110B JUMPI DUP1 PUSH4 0xAB803A76 EQ PUSH2 0x106A JUMPI DUP1 PUSH4 0xAC9462F5 EQ PUSH2 0x102C JUMPI DUP1 PUSH4 0xACD22CF0 EQ PUSH2 0xFE8 JUMPI DUP1 PUSH4 0xAEEAB13B EQ PUSH2 0xE2A JUMPI DUP1 PUSH4 0xB6B8EB9E EQ PUSH2 0xD6E JUMPI DUP1 PUSH4 0xB97DD9E2 EQ PUSH2 0xD32 JUMPI DUP1 PUSH4 0xC2C42CDE EQ PUSH2 0xCB0 JUMPI DUP1 PUSH4 0xC4EB01CF EQ PUSH2 0xC3A JUMPI DUP1 PUSH4 0xC60CD3AC EQ PUSH2 0xBF0 JUMPI DUP1 PUSH4 0xC81BA8F0 EQ PUSH2 0xBB4 JUMPI DUP1 PUSH4 0xC9D34622 EQ PUSH2 0xB68 JUMPI DUP1 PUSH4 0xCCD4620F EQ PUSH2 0xA68 JUMPI DUP1 PUSH4 0xD4F7286B EQ PUSH2 0xA10 JUMPI DUP1 PUSH4 0xD657C9E7 EQ PUSH2 0x89F JUMPI DUP1 PUSH4 0xD797C4C3 EQ PUSH2 0x84D JUMPI DUP1 PUSH4 0xDCEC9572 EQ PUSH2 0x74B JUMPI DUP1 PUSH4 0xE5FC0205 EQ PUSH2 0x64A JUMPI DUP1 PUSH4 0xE6A69AB8 EQ PUSH2 0x60E JUMPI DUP1 PUSH4 0xE8A24E1D EQ PUSH2 0x5A0 JUMPI DUP1 PUSH4 0xEA1C1690 EQ PUSH2 0x4A4 JUMPI DUP1 PUSH4 0xF2B128A4 EQ PUSH2 0x3FB JUMPI PUSH4 0xF458A2DF SUB PUSH2 0x13 JUMPI CALLVALUE PUSH2 0x3F7 JUMPI DUP2 PUSH32 0xFFFFFFFFFFFFFFFFFFFFFFFFFFFFFFFFFFFFFFFFFFFFFFFFFFFFFFFFFFFFFFFC CALLDATASIZE ADD SLT PUSH2 0x3F7 JUMPI PUSH2 0x3B2 PUSH1 0xD SLOAD TIMESTAMP PUSH2 0x3811 JUMP JUMPDEST SWAP2 PUSH3 0x1281FB SWAP3 DUP4 SUB SWAP3 DUP4 GT PUSH2 0x3CB JUMPI PUSH1 0x20 DUP4 DUP4 MLOAD SWAP1 DUP2 MSTORE RETURN JUMPDEST DUP1 PUSH1 0x11 DUP6 PUSH32 0x4E487B7100000000000000000000000000000000000000000000000000000000 PUSH1 0x24 SWAP5 MSTORE MSTORE REVERT JUMPDEST POP DUP1 REVERT JUMPDEST POP DUP3 CALLVALUE PUSH2 0x4A0 JUMPI DUP3 PUSH32 0xFFFFFFFFFFFFFFFFFFFFFFFFFFFFFFFFFFFFFFFFFFFFFFFFFFFFFFFFFFFFFFFC CALLDATASIZE ADD SLT PUSH2 0x4A0 JUMPI DUP3 SLOAD SWAP2 PUSH1 0xFF DUP4 AND ISZERO PUSH2 0x47A JUMPI DUP4 PUSH1 0x1 DUP5 PUSH32 0xFFFFFFFFFFFFFFFFFFFFFFFFFFFFFFFFFFFFFFFFFFFFFFFFFFFFFFFFFFFFFF00 DUP1 SWAP2 AND DUP4 SSTORE PUSH2 0x469 PUSH2 0x4301 JUMP JUMPDEST PUSH2 0x471 PUSH2 0x473E JUMP JUMPDEST DUP3 SLOAD AND OR DUP2 SSTORE DUP1 RETURN JUMPDEST MLOAD PUSH32 0x37ED32E800000000000000000000000000000000000000000000000000000000 DUP2 MSTORE REVERT JUMPDEST DUP3 DUP1 REVERT JUMPDEST POP SWAP2 SWAP1 CALLVALUE PUSH2 0x59D JUMPI PUSH1 0x20 PUSH32 0xFFFFFFFFFFFFFFFFFFFFFFFFFFFFFFFFFFFFFFFFFFFFFFFFFFFFFFFFFFFFFFFC CALLDATASIZE ADD SLT PUSH2 0x59D JUMPI POP CALLDATALOAD PUSH3 0x15180 SWAP1 DUP2 DUP2 DIV PUSH3 0xAFA6C ADD SWAP3 PUSH3 0x23AB1 SWAP4 DUP5 DUP2 MOD SWAP4 PUSH2 0x16D SWAP5 DUP6 PUSH3 0x23AB0 DUP3 EQ PUSH2 0x5B4 DUP4 DIV PUSH2 0x8EAC DUP5 DIV DUP5 ADD SUB SUB DIV SWAP6 PUSH1 0x64 DUP8 DIV SWAP1 DUP8 DUP1 PUSH1 0x2 SHR SWAP2 MUL ADD SUB SWAP1 SUB SWAP6 DUP7 PUSH1 0x5 MUL PUSH1 0x2 ADD PUSH1 0x99 SWAP1 DIV SWAP2 PUSH1 0x9 DUP4 GT PUSH1 0xC MUL DUP4 SUB PUSH1 0x3 ADD SWAP6 MOD SWAP3 PUSH2 0xE10 SWAP7 DUP8 DUP6 MOD SWAP6 MLOAD SWAP9 DUP10 SWAP9 PUSH1 0x3C DUP9 MOD SWAP8 PUSH1 0x3C SWAP1 DIV SWAP7 DIV SWAP5 PUSH2 0xF4FF MUL PUSH2 0x301 ADD PUSH1 0xB SHR SWAP1 SUB PUSH1 0x1 ADD SWAP3 PUSH1 0x3 DUP9 LT SWAP3 DIV PUSH2 0x190 MUL ADD ADD SWAP5 PUSH2 0x599 SWAP6 DUP8 SWAP3 PUSH1 0xA0 SWAP5 SWAP2 SWAP8 SWAP7 SWAP6 SWAP3 PUSH1 0xC0 DUP6 ADD SWAP9 DUP6 MSTORE PUSH1 0x20 DUP6 ADD MSTORE PUSH1 0x40 DUP5 ADD MSTORE PUSH1 0x60 DUP4 ADD MSTORE PUSH1 0x80 DUP3 ADD MSTORE ADD MSTORE JUMP JUMPDEST SUB SWAP1 RETURN JUMPDEST DUP1 REVERT JUMPDEST POP CALLVALUE PUSH2 0x3F7 JUMPI DUP2 PUSH32 0xFFFFFFFFFFFFFFFFFFFFFFFFFFFFFFFFFFFFFFFFFFFFFFFFFFFFFFFFFFFFFFFC CALLDATASIZE ADD SLT PUSH2 0x3F7 JUMPI PUSH1 0x20 SWAP1 MLOAD PUSH20 0xFFFFFFFFFFFFFFFFFFFFFFFFFFFFFFFFFFFFFFFF PUSH32 0x0 AND DUP2 MSTORE RETURN JUMPDEST POP CALLVALUE PUSH2 0x3F7 JUMPI DUP2 PUSH32 0xFFFFFFFFFFFFFFFFFFFFFFFFFFFFFFFFFFFFFFFFFFFFFFFFFFFFFFFFFFFFFFFC CALLDATASIZE ADD SLT PUSH2 0x3F7 JUMPI PUSH1 0x20 SWAP1 MLOAD PUSH4 0x1E13380 DUP2 MSTORE RETURN JUMPDEST POP SWAP2 SWAP1 CALLVALUE PUSH2 0x59D JUMPI PUSH1 0x20 PUSH32 0xFFFFFFFFFFFFFFFFFFFFFFFFFFFFFFFFFFFFFFFFFFFFFFFFFFFFFFFFFFFFFFFC CALLDATASIZE ADD SLT PUSH2 0x59D JUMPI DUP3 SWAP1 DUP3 CALLDATALOAD DUP2 MSTORE PUSH1 0x3 PUSH1 0x20 MSTORE KECCAK256 ADD SLOAD PUSH3 0x15180 SWAP1 DUP2 DUP2 DIV PUSH3 0xAFA6C ADD SWAP3 PUSH3 0x23AB1 SWAP4 DUP5 DUP2 MOD SWAP4 PUSH2 0x16D SWAP5 DUP6 PUSH3 0x23AB0 DUP3 EQ PUSH2 0x5B4 DUP4 DIV PUSH2 0x8EAC DUP5 DIV DUP5 ADD SUB SUB DIV SWAP6 PUSH1 0x64 DUP8 DIV SWAP1 DUP8 DUP1 PUSH1 0x2 SHR SWAP2 MUL ADD SUB SWAP1 SUB SWAP6 DUP7 PUSH1 0x5 MUL PUSH1 0x2 ADD PUSH1 0x99 SWAP1 DIV SWAP2 PUSH1 0x9 DUP4 GT PUSH1 0xC MUL DUP4 SUB PUSH1 0x3 ADD SWAP6 MOD SWAP3 PUSH2 0xE10 SWAP7 DUP8 DUP6 MOD SWAP6 MLOAD SWAP9 DUP10 SWAP9 PUSH1 0x3C DUP9 MOD SWAP8 PUSH1 0x3C SWAP1 DIV SWAP7 DIV SWAP5 PUSH2 0xF4FF MUL PUSH2 0x301 ADD PUSH1 0xB SHR SWAP1 SUB PUSH1 0x1 ADD SWAP3 PUSH1 0x3 DUP9 LT SWAP3 DIV PUSH2 0x190 MUL ADD ADD SWAP5 PUSH2 0x599 SWAP6 DUP8 SWAP3 PUSH1 0xA0 SWAP5 SWAP2 SWAP8 SWAP7 SWAP6 SWAP3 PUSH1 0xC0 DUP6 ADD SWAP9 DUP6 MSTORE PUSH1 0x20 DUP6 ADD MSTORE PUSH1 0x40 DUP5 ADD MSTORE PUSH1 0x60 DUP4 ADD MSTORE PUSH1 0x80 DUP3 ADD MSTORE ADD MSTORE JUMP JUMPDEST POP DUP3 CALLVALUE PUSH2 0x4A0 JUMPI PUSH1 0x20 PUSH32 0xFFFFFFFFFFFFFFFFFFFFFFFFFFFFFFFFFFFFFFFFFFFFFFFFFFFFFFFFFFFFFFFC CALLDATASIZE ADD SLT PUSH2 0x4A0 JUMPI SWAP2 DUP2 SWAP3 CALLDATALOAD DUP2 MSTORE PUSH1 0x3 PUSH1 0x20 MSTORE KECCAK256 PUSH1 0x5 ADD SLOAD PUSH3 0x15180 SWAP1 DUP2 DUP2 DIV PUSH3 0xAFA6C ADD SWAP3 PUSH3 0x23AB1 SWAP4 DUP5 DUP2 MOD SWAP4 PUSH2 0x16D SWAP5 DUP6 PUSH3 0x23AB0 DUP3 EQ PUSH2 0x5B4 DUP4 DIV PUSH2 0x8EAC DUP5 DIV DUP5 ADD SUB SUB DIV SWAP6 PUSH1 0x64 DUP8 DIV SWAP1 DUP8 DUP1 PUSH1 0x2 SHR SWAP2 MUL ADD SUB SWAP1 SUB SWAP6 DUP7 PUSH1 0x5 MUL PUSH1 0x2 ADD PUSH1 0x99 SWAP1 DIV SWAP2 PUSH1 0x9 DUP4 GT PUSH1 0xC MUL DUP4 SUB PUSH1 0x3 ADD SWAP6 MOD SWAP3 PUSH2 0xE10 SWAP7 DUP8 DUP6 MOD SWAP6 MLOAD SWAP9 DUP10 SWAP9 PUSH1 0x3C DUP9 MOD SWAP8 PUSH1 0x3C SWAP1 DIV SWAP7 DIV SWAP5 PUSH2 0xF4FF MUL PUSH2 0x301 ADD PUSH1 0xB SHR SWAP1 SUB PUSH1 0x1 ADD SWAP3 PUSH1 0x3 DUP9 LT SWAP3 DIV PUSH2 0x190 MUL ADD ADD SWAP5 PUSH2 0x599 SWAP6 DUP8 SWAP3 PUSH1 0xA0 SWAP5 SWAP2 SWAP8 SWAP7 SWAP6 SWAP3 PUSH1 0xC0 DUP6 ADD SWAP9 DUP6 MSTORE PUSH1 0x20 DUP6 ADD MSTORE PUSH1 0x40 DUP5 ADD MSTORE PUSH1 0x60 DUP4 ADD MSTORE PUSH1 0x80 DUP3 ADD MSTORE ADD MSTORE JUMP JUMPDEST POP CALLVALUE PUSH2 0x3F7 JUMPI DUP2 PUSH32 0xFFFFFFFFFFFFFFFFFFFFFFFFFFFFFFFFFFFFFFFFFFFFFFFFFFFFFFFFFFFFFFFC CALLDATASIZE ADD SLT PUSH2 0x3F7 JUMPI PUSH1 0x20 SWAP1 PUSH2 0x898 PUSH4 0xB473500 PUSH2 0x893 PUSH1 0x7 SLOAD TIMESTAMP PUSH2 0x3811 JUMP JUMPDEST PUSH2 0x4B83 JUMP JUMPDEST SWAP1 MLOAD SWAP1 DUP2 MSTORE RETURN JUMPDEST POP CALLVALUE PUSH2 0x3F7 JUMPI PUSH1 0x20 PUSH32 0xFFFFFFFFFFFFFFFFFFFFFFFFFFFFFFFFFFFFFFFFFFFFFFFFFFFFFFFFFFFFFFFC CALLDATASIZE ADD SLT PUSH2 0x3F7 JUMPI PUSH20 0xFFFFFFFFFFFFFFFFFFFFFFFFFFFFFFFFFFFFFFFF SWAP2 DUP4 CALLDATALOAD DUP4 DUP2 AND DUP2 SUB PUSH2 0x3F7 JUMPI DUP2 SLOAD SWAP5 PUSH1 0xFF DUP7 AND ISZERO PUSH2 0x9E9 JUMPI POP PUSH32 0xFFFFFFFFFFFFFFFFFFFFFFFFFFFFFFFFFFFFFFFFFFFFFFFFFFFFFFFFFFFFFF00 DUP1 SWAP6 AND DUP3 SSTORE PUSH2 0x92B PUSH2 0x4301 JUMP JUMPDEST DUP2 SWAP4 PUSH2 0x937 PUSH1 0x2 PUSH2 0x3D9E JUMP JUMPDEST SWAP1 DUP2 MLOAD SWAP3 DUP5 SWAP3 JUMPDEST DUP5 DUP5 LT PUSH2 0x9A3 JUMPI POP POP POP POP PUSH1 0x20 SWAP5 PUSH32 0xDF85ECF2C1F25D03947AEE9E045C694DED04D6478EA5C1A77F869BDC38CF4F76 DUP5 PUSH1 0x1 SWAP4 DUP5 SLOAD DUP7 MSTORE PUSH1 0x3 DUP10 MSTORE PUSH1 0x3 DUP3 DUP8 KECCAK256 ADD PUSH2 0x98A DUP10 DUP3 SLOAD PUSH2 0x3B8F JUMP JUMPDEST SWAP1 SSTORE DUP2 MLOAD SWAP1 DUP2 MSTORE DUP8 DUP10 DUP3 ADD MSTORE LOG1 DUP3 SLOAD AND OR SWAP1 SSTORE MLOAD SWAP1 DUP2 MSTORE RETURN JUMPDEST SWAP1 SWAP2 SWAP3 SWAP7 PUSH2 0x9DF PUSH1 0x1 SWAP2 PUSH2 0x9D9 DUP6 DUP12 DUP9 PUSH1 0x60 PUSH2 0x9CF DUP3 DUP16 PUSH2 0x9C4 DUP7 DUP14 PUSH2 0x3E2C JUMP JUMPDEST MLOAD ADD MLOAD AND SWAP4 DUP11 PUSH2 0x3E2C JUMP JUMPDEST MLOAD ADD MLOAD AND SWAP1 PUSH2 0x451F JUMP JUMPDEST SWAP1 PUSH2 0x3B8F JUMP JUMPDEST SWAP8 ADD SWAP3 SWAP2 SWAP1 PUSH2 0x93E JUMP JUMPDEST DUP4 MLOAD PUSH32 0x37ED32E800000000000000000000000000000000000000000000000000000000 DUP2 MSTORE REVERT JUMPDEST POP CALLVALUE PUSH2 0x3F7 JUMPI DUP2 PUSH32 0xFFFFFFFFFFFFFFFFFFFFFFFFFFFFFFFFFFFFFFFFFFFFFFFFFFFFFFFFFFFFFFFC CALLDATASIZE ADD SLT PUSH2 0x3F7 JUMPI PUSH1 0x20 SWAP1 MLOAD PUSH32 0x0 DUP2 MSTORE RETURN JUMPDEST POP SWAP2 CALLVALUE PUSH2 0x3F7 JUMPI DUP3 PUSH32 0xFFFFFFFFFFFFFFFFFFFFFFFFFFFFFFFFFFFFFFFFFFFFFFFFFFFFFFFFFFFFFFFC CALLDATASIZE ADD SLT PUSH2 0x3F7 JUMPI CALLDATALOAD SWAP2 PUSH20 0xFFFFFFFFFFFFFFFFFFFFFFFFFFFFFFFFFFFFFFFF SWAP2 DUP3 DUP5 AND DUP5 SUB PUSH2 0x59D JUMPI PUSH1 0x24 CALLDATALOAD SWAP3 DUP4 ISZERO SWAP5 DUP6 ISZERO DUP6 SUB PUSH2 0x4A0 JUMPI SWAP4 DUP3 SWAP2 SWAP3 SWAP5 PUSH2 0xAD7 PUSH1 0x2 PUSH2 0x3D9E JUMP JUMPDEST SWAP2 DUP3 MLOAD SWAP4 SWAP5 JUMPDEST DUP5 DUP7 LT PUSH2 0xAEE JUMPI PUSH1 0x20 DUP9 DUP9 MLOAD SWAP1 DUP2 MSTORE RETURN JUMPDEST SWAP1 SWAP2 SWAP3 SWAP4 SWAP5 SWAP7 DUP2 PUSH1 0x60 PUSH2 0xB01 DUP11 DUP9 PUSH2 0x3E2C JUMP JUMPDEST MLOAD ADD MLOAD AND DUP4 DUP1 PUSH2 0xB60 JUMPI JUMPDEST PUSH2 0xB4C JUMPI DUP10 DUP1 PUSH2 0xB57 JUMPI JUMPDEST PUSH2 0xB4C JUMPI PUSH2 0xB42 SWAP2 PUSH2 0x9D9 DUP7 PUSH2 0xB3C SWAP4 DUP7 DUP13 PUSH2 0xB33 DUP16 DUP14 PUSH2 0x3E2C JUMP JUMPDEST MLOAD ADD MLOAD AND PUSH2 0x3BB5 JUMP JUMPDEST SWAP8 PUSH2 0x3DFF JUMP JUMPDEST SWAP5 SWAP4 SWAP3 SWAP2 SWAP1 PUSH2 0xADD JUMP JUMPDEST POP SWAP7 PUSH2 0xB42 SWAP1 PUSH2 0x3DFF JUMP JUMPDEST POP DUP1 ISZERO ISZERO PUSH2 0xB17 JUMP JUMPDEST POP DUP1 ISZERO PUSH2 0xB0C JUMP JUMPDEST POP SWAP1 CALLVALUE PUSH2 0x59D JUMPI DUP2 PUSH32 0xFFFFFFFFFFFFFFFFFFFFFFFFFFFFFFFFFFFFFFFFFFFFFFFFFFFFFFFFFFFFFFFC CALLDATASIZE ADD SLT PUSH2 0x59D JUMPI POP PUSH3 0x15180 PUSH2 0xBAC PUSH1 0x20 SWAP4 CALLDATALOAD PUSH1 0x24 CALLDATALOAD PUSH2 0x3811 JUMP JUMPDEST DIV SWAP1 MLOAD SWAP1 DUP2 MSTORE RETURN JUMPDEST POP CALLVALUE PUSH2 0x3F7 JUMPI DUP2 PUSH32 0xFFFFFFFFFFFFFFFFFFFFFFFFFFFFFFFFFFFFFFFFFFFFFFFFFFFFFFFFFFFFFFFC CALLDATASIZE ADD SLT PUSH2 0x3F7 JUMPI PUSH1 0x20 SWAP1 PUSH1 0x7 SLOAD SWAP1 MLOAD SWAP1 DUP2 MSTORE RETURN JUMPDEST POP CALLVALUE PUSH2 0x3F7 JUMPI DUP2 PUSH32 0xFFFFFFFFFFFFFFFFFFFFFFFFFFFFFFFFFFFFFFFFFFFFFFFFFFFFFFFFFFFFFFFC CALLDATASIZE ADD SLT PUSH2 0x3F7 JUMPI PUSH1 0x20 SWAP1 PUSH2 0x898 PUSH2 0xC31 PUSH1 0xC SLOAD TIMESTAMP PUSH2 0x3811 JUMP JUMPDEST PUSH1 0xA SLOAD SWAP1 PUSH2 0x3796 JUMP JUMPDEST POP DUP3 CALLVALUE PUSH2 0x4A0 JUMPI DUP3 PUSH32 0xFFFFFFFFFFFFFFFFFFFFFFFFFFFFFFFFFFFFFFFFFFFFFFFFFFFFFFFFFFFFFFFC CALLDATASIZE ADD SLT PUSH2 0x4A0 JUMPI DUP3 SLOAD SWAP2 PUSH1 0xFF DUP4 AND ISZERO PUSH2 0x47A JUMPI DUP4 PUSH1 0x1 DUP5 PUSH32 0xFFFFFFFFFFFFFFFFFFFFFFFFFFFFFFFFFFFFFFFFFFFFFFFFFFFFFFFFFFFFFF00 DUP1 SWAP2 AND DUP4 SSTORE PUSH2 0xCA8 PUSH2 0x4301 JUMP JUMPDEST PUSH2 0x471 PUSH2 0x47E4 JUMP JUMPDEST POP DUP3 CALLVALUE PUSH2 0x4A0 JUMPI PUSH1 0x60 PUSH32 0xFFFFFFFFFFFFFFFFFFFFFFFFFFFFFFFFFFFFFFFFFFFFFFFFFFFFFFFFFFFFFFFC CALLDATASIZE ADD SLT PUSH2 0x4A0 JUMPI CALLDATALOAD PUSH20 0xFFFFFFFFFFFFFFFFFFFFFFFFFFFFFFFFFFFFFFFF SWAP3 DUP4 DUP3 AND DUP3 SUB PUSH2 0x59D JUMPI PUSH1 0x24 CALLDATALOAD SWAP4 DUP5 AND DUP5 SUB PUSH2 0x59D JUMPI PUSH1 0x44 CALLDATALOAD SWAP1 DUP2 ISZERO ISZERO DUP3 SUB PUSH2 0x59D JUMPI POP SWAP3 DUP2 PUSH2 0xD2C PUSH1 0x20 SWAP6 PUSH2 0x898 SWAP5 PUSH2 0x3CF7 JUMP JUMPDEST SWAP1 PUSH2 0x3BB5 JUMP JUMPDEST POP CALLVALUE PUSH2 0x3F7 JUMPI DUP2 PUSH32 0xFFFFFFFFFFFFFFFFFFFFFFFFFFFFFFFFFFFFFFFFFFFFFFFFFFFFFFFFFFFFFFFC CALLDATASIZE ADD SLT PUSH2 0x3F7 JUMPI PUSH1 0x20 SWAP1 PUSH1 0x1 SLOAD SWAP1 MLOAD SWAP1 DUP2 MSTORE RETURN JUMPDEST POP SWAP2 CALLVALUE PUSH2 0x3F7 JUMPI PUSH1 0x20 PUSH32 0xFFFFFFFFFFFFFFFFFFFFFFFFFFFFFFFFFFFFFFFFFFFFFFFFFFFFFFFFFFFFFFFC CALLDATASIZE ADD SLT PUSH2 0x3F7 JUMPI CALLDATALOAD SWAP1 PUSH20 0xFFFFFFFFFFFFFFFFFFFFFFFFFFFFFFFFFFFFFFFF SWAP2 DUP3 DUP2 AND DUP2 SUB PUSH2 0x3F7 JUMPI SWAP2 SWAP1 DUP1 SWAP3 PUSH2 0xDCE PUSH1 0x2 PUSH2 0x3D9E JUMP JUMPDEST DUP1 MLOAD SWAP3 SWAP4 JUMPDEST DUP4 DUP6 LT PUSH2 0xDE4 JUMPI PUSH1 0x20 DUP7 DUP9 MLOAD SWAP1 DUP2 MSTORE RETURN JUMPDEST SWAP1 SWAP2 SWAP3 SWAP4 SWAP5 PUSH2 0xE1B PUSH2 0xE21 SWAP2 PUSH2 0x9D9 DUP7 DUP6 DUP12 PUSH2 0xE00 DUP13 DUP11 PUSH2 0x3E2C JUMP JUMPDEST MLOAD ADD MLOAD AND DUP7 PUSH1 0x60 PUSH2 0xE11 DUP14 DUP12 PUSH2 0x3E2C JUMP JUMPDEST MLOAD ADD MLOAD AND SWAP1 PUSH2 0x3BB5 JUMP JUMPDEST SWAP6 PUSH2 0x3DFF JUMP JUMPDEST SWAP4 SWAP3 SWAP2 SWAP1 PUSH2 0xDD3 JUMP JUMPDEST POP CALLVALUE PUSH2 0x3F7 JUMPI DUP1 PUSH32 0xFFFFFFFFFFFFFFFFFFFFFFFFFFFFFFFFFFFFFFFFFFFFFFFFFFFFFFFFFFFFFFFC CALLDATASIZE ADD SLT PUSH2 0x3F7 JUMPI DUP3 CALLDATALOAD SWAP2 PUSH20 0xFFFFFFFFFFFFFFFFFFFFFFFFFFFFFFFFFFFFFFFF SWAP4 DUP5 DUP5 AND DUP5 SUB PUSH2 0x3F7 JUMPI PUSH1 0x24 CALLDATALOAD DUP1 ISZERO SWAP6 DUP7 ISZERO SWAP1 DUP2 DUP4 SUB PUSH2 0xFE4 JUMPI DUP5 SLOAD SWAP4 PUSH1 0xFF DUP6 AND ISZERO PUSH2 0xFBD JUMPI POP SWAP6 SWAP2 PUSH32 0xFFFFFFFFFFFFFFFFFFFFFFFFFFFFFFFFFFFFFFFFFFFFFFFFFFFFFFFFFFFFFF00 DUP1 SWAP5 AND DUP6 SSTORE PUSH2 0xEC8 PUSH2 0x4301 JUMP JUMPDEST DUP5 SWAP7 PUSH2 0xED4 PUSH1 0x2 PUSH2 0x3D9E JUMP JUMPDEST DUP1 MLOAD SWAP5 DUP8 SWAP4 JUMPDEST DUP7 DUP6 LT PUSH2 0xF44 JUMPI PUSH1 0x20 DUP12 DUP12 DUP12 PUSH1 0x1 DUP13 PUSH32 0xBEC2D90B2168161AC2F11F2F25BAD501EBB354C5D35B22D76EDBE5E46FC12B47 PUSH1 0x60 DUP15 DUP15 DUP6 SLOAD DUP8 MSTORE PUSH1 0x3 DUP11 MSTORE PUSH1 0x3 DUP9 DUP9 KECCAK256 ADD PUSH2 0xF27 DUP11 DUP3 SLOAD PUSH2 0x3B8F JUMP JUMPDEST SWAP1 SSTORE DUP8 MLOAD SWAP2 DUP3 MSTORE DUP9 DUP11 DUP4 ADD MSTORE DUP8 DUP3 ADD MSTORE LOG1 DUP3 SLOAD AND OR SWAP1 SSTORE MLOAD SWAP1 DUP2 MSTORE RETURN JUMPDEST SWAP1 SWAP2 SWAP3 SWAP4 SWAP10 DUP5 PUSH1 0x60 PUSH2 0xF56 DUP14 DUP8 PUSH2 0x3E2C JUMP JUMPDEST MLOAD ADD MLOAD AND DUP3 DUP1 PUSH2 0xFB5 JUMPI JUMPDEST PUSH2 0xFA1 JUMPI DUP13 DUP1 PUSH2 0xFAC JUMPI JUMPDEST PUSH2 0xFA1 JUMPI PUSH2 0xF98 SWAP2 PUSH2 0x9D9 DUP6 PUSH2 0xF92 SWAP4 DUP16 DUP16 PUSH2 0xF89 DUP13 SWAP3 DUP13 PUSH2 0x3E2C JUMP JUMPDEST MLOAD ADD MLOAD AND PUSH2 0x451F JUMP JUMPDEST SWAP11 PUSH2 0x3DFF JUMP JUMPDEST SWAP4 SWAP3 SWAP2 SWAP1 PUSH2 0xEDA JUMP JUMPDEST POP SWAP10 PUSH2 0xF98 SWAP1 PUSH2 0x3DFF JUMP JUMPDEST POP DUP1 ISZERO ISZERO PUSH2 0xF6C JUMP JUMPDEST POP DUP1 ISZERO PUSH2 0xF61 JUMP JUMPDEST DUP7 MLOAD PUSH32 0x37ED32E800000000000000000000000000000000000000000000000000000000 DUP2 MSTORE REVERT JUMPDEST DUP5 DUP1 REVERT JUMPDEST POP CALLVALUE PUSH2 0x3F7 JUMPI DUP2 PUSH32 0xFFFFFFFFFFFFFFFFFFFFFFFFFFFFFFFFFFFFFFFFFFFFFFFFFFFFFFFFFFFFFFFC CALLDATASIZE ADD SLT PUSH2 0x3F7 JUMPI PUSH1 0x20 SWAP1 PUSH1 0xFF PUSH1 0xE SLOAD PUSH1 0xA0 SHR AND SWAP1 MLOAD SWAP1 ISZERO ISZERO DUP2 MSTORE RETURN JUMPDEST POP CALLVALUE PUSH2 0x3F7 JUMPI DUP2 PUSH32 0xFFFFFFFFFFFFFFFFFFFFFFFFFFFFFFFFFFFFFFFFFFFFFFFFFFFFFFFFFFFFFFFC CALLDATASIZE ADD SLT PUSH2 0x3F7 JUMPI PUSH1 0x20 SWAP1 PUSH2 0x898 PUSH1 0xD SLOAD TIMESTAMP PUSH2 0x3811 JUMP JUMPDEST POP DUP2 DUP4 SWAP2 CALLVALUE PUSH2 0x3F7 JUMPI DUP2 PUSH32 0xFFFFFFFFFFFFFFFFFFFFFFFFFFFFFFFFFFFFFFFFFFFFFFFFFFFFFFFFFFFFFFFC CALLDATASIZE ADD SLT PUSH2 0x3F7 JUMPI PUSH2 0x10A4 PUSH2 0x4301 JUMP JUMPDEST PUSH2 0x10AC PUSH2 0x4A14 JUMP JUMPDEST SELFBALANCE SWAP3 DUP4 PUSH2 0x10EA JUMPI JUMPDEST POP PUSH32 0xEE2522CA264E96C7CEF76269664E2A4CEA70AD76B78EE5B01D0587798A0A72D6 SWAP1 PUSH1 0x1 SLOAD DUP2 MLOAD SWAP5 DUP6 MSTORE PUSH1 0x20 DUP6 ADD MSTORE CALLER SWAP4 LOG3 DUP1 RETURN JUMPDEST SWAP1 SWAP2 DUP1 DUP1 DUP1 DUP7 CALLER GAS CALL ISZERO PUSH2 0x1100 JUMPI SWAP1 DUP4 SWAP2 PUSH2 0x10B4 JUMP JUMPDEST PUSH4 0xB12D13EB DUP5 MSTORE PUSH1 0x1C REVERT JUMPDEST POP SWAP2 SWAP1 CALLVALUE PUSH2 0x59D JUMPI DUP1 PUSH32 0xFFFFFFFFFFFFFFFFFFFFFFFFFFFFFFFFFFFFFFFFFFFFFFFFFFFFFFFFFFFFFFFC CALLDATASIZE ADD SLT PUSH2 0x59D JUMPI DUP3 SWAP1 PUSH1 0x1 SLOAD DUP2 MSTORE PUSH1 0x3 PUSH1 0x20 MSTORE KECCAK256 ADD SLOAD PUSH3 0x15180 SWAP1 DUP2 DUP2 DIV PUSH3 0xAFA6C ADD SWAP3 PUSH3 0x23AB1 SWAP4 DUP5 DUP2 MOD SWAP4 PUSH2 0x16D SWAP5 DUP6 PUSH3 0x23AB0 DUP3 EQ PUSH2 0x5B4 DUP4 DIV PUSH2 0x8EAC DUP5 DIV DUP5 ADD SUB SUB DIV SWAP6 PUSH1 0x64 DUP8 DIV SWAP1 DUP8 DUP1 PUSH1 0x2 SHR SWAP2 MUL ADD SUB SWAP1 SUB SWAP6 DUP7 PUSH1 0x5 MUL PUSH1 0x2 ADD PUSH1 0x99 SWAP1 DIV SWAP2 PUSH1 0x9 DUP4 GT PUSH1 0xC MUL DUP4 SUB PUSH1 0x3 ADD SWAP6 MOD SWAP3 PUSH2 0xE10 SWAP7 DUP8 DUP6 MOD SWAP6 MLOAD SWAP9 DUP10 SWAP9 PUSH1 0x3C DUP9 MOD SWAP8 PUSH1 0x3C SWAP1 DIV SWAP7 DIV SWAP5 PUSH2 0xF4FF MUL PUSH2 0x301 ADD PUSH1 0xB SHR SWAP1 SUB PUSH1 0x1 ADD SWAP3 PUSH1 0x3 DUP9 LT SWAP3 DIV PUSH2 0x190 MUL ADD ADD SWAP5 PUSH2 0x599 SWAP6 DUP8 SWAP3 PUSH1 0xA0 SWAP5 SWAP2 SWAP8 SWAP7 SWAP6 SWAP3 PUSH1 0xC0 DUP6 ADD SWAP9 DUP6 MSTORE PUSH1 0x20 DUP6 ADD MSTORE PUSH1 0x40 DUP5 ADD MSTORE PUSH1 0x60 DUP4 ADD MSTORE PUSH1 0x80 DUP3 ADD MSTORE ADD MSTORE JUMP JUMPDEST POP CALLVALUE PUSH2 0x3F7 JUMPI DUP2 PUSH32 0xFFFFFFFFFFFFFFFFFFFFFFFFFFFFFFFFFFFFFFFFFFFFFFFFFFFFFFFFFFFFFFFC CALLDATASIZE ADD SLT PUSH2 0x3F7 JUMPI PUSH2 0x1268 PUSH1 0x1 SLOAD PUSH32 0x0 SWAP1 PUSH2 0x38DD JUMP JUMPDEST SWAP2 PUSH3 0x1281FB SWAP3 DUP4 DUP2 MUL SWAP4 DUP2 DUP6 DIV EQ SWAP1 ISZERO OR ISZERO PUSH2 0x3CB JUMPI PUSH1 0x20 DUP4 DUP4 MLOAD SWAP1 DUP2 MSTORE RETURN JUMPDEST POP DUP3 CALLVALUE PUSH2 0x4A0 JUMPI DUP3 PUSH32 0xFFFFFFFFFFFFFFFFFFFFFFFFFFFFFFFFFFFFFFFFFFFFFFFFFFFFFFFFFFFFFFFC CALLDATASIZE ADD SLT PUSH2 0x4A0 JUMPI PUSH2 0xBAC PUSH3 0x15180 SWAP2 DUP4 PUSH1 0x20 SWAP6 PUSH1 0x1 SLOAD DUP2 MSTORE PUSH1 0x3 DUP8 MSTORE KECCAK256 ADD SLOAD TIMESTAMP PUSH2 0x3811 JUMP JUMPDEST POP CALLVALUE PUSH2 0x3F7 JUMPI DUP2 PUSH32 0xFFFFFFFFFFFFFFFFFFFFFFFFFFFFFFFFFFFFFFFFFFFFFFFFFFFFFFFFFFFFFFFC CALLDATASIZE ADD SLT PUSH2 0x3F7 JUMPI PUSH1 0x20 SWAP1 PUSH20 0xFFFFFFFFFFFFFFFFFFFFFFFFFFFFFFFFFFFFFFFF PUSH1 0xE SLOAD AND ISZERO ISZERO SWAP1 MLOAD SWAP1 DUP2 MSTORE RETURN JUMPDEST POP CALLVALUE PUSH2 0x3F7 JUMPI DUP2 PUSH32 0xFFFFFFFFFFFFFFFFFFFFFFFFFFFFFFFFFFFFFFFFFFFFFFFFFFFFFFFFFFFFFFFC CALLDATASIZE ADD SLT PUSH2 0x3F7 JUMPI PUSH2 0x1361 PUSH2 0x4A14 JUMP JUMPDEST PUSH1 0x7 SLOAD PUSH2 0x1550 JUMPI PUSH2 0x1392 PUSH32 0x0 DUP4 PUSH2 0x38DD JUMP JUMPDEST DUP1 PUSH1 0x9 SSTORE PUSH2 0x13C0 PUSH32 0x0 DUP5 PUSH2 0x38DD JUMP JUMPDEST PUSH1 0xA SSTORE TIMESTAMP PUSH1 0x7 SSTORE PUSH4 0xB473500 TIMESTAMP ADD DUP1 TIMESTAMP GT PUSH2 0x1524 JUMPI PUSH1 0x8 SSTORE TIMESTAMP PUSH1 0xD SSTORE TIMESTAMP PUSH1 0xC SSTORE PUSH3 0x1281FB SWAP1 DUP2 TIMESTAMP ADD SWAP1 DUP2 TIMESTAMP GT PUSH2 0x14F8 JUMPI DUP3 DUP2 MUL SWAP3 DUP2 DUP5 DIV EQ DUP2 ISZERO OR ISZERO PUSH2 0x14F8 JUMPI SWAP2 PUSH1 0x5 DUP5 SWAP3 DUP8 PUSH1 0x80 SWAP6 PUSH32 0xCC53A96DDDB8D3B8710C4932D9E90652A4EAEF0BF4C37A13DC4D806E1B54CB4D SWAP8 MLOAD SWAP5 PUSH2 0x1438 PUSH1 0xC0 DUP8 PUSH2 0x36C0 JUMP JUMPDEST DUP10 DUP7 MSTORE PUSH1 0x20 DUP7 ADD SWAP2 DUP3 MSTORE DUP7 DUP7 ADD SWAP1 DUP2 MSTORE PUSH1 0x60 DUP7 ADD SWAP1 DUP11 DUP3 MSTORE DUP9 DUP8 ADD SWAP3 TIMESTAMP DUP5 MSTORE PUSH1 0xA0 DUP9 ADD SWAP6 DUP7 MSTORE DUP12 DUP1 MSTORE PUSH1 0x3 PUSH1 0x20 MSTORE DUP9 DUP13 KECCAK256 SWAP8 MLOAD DUP9 SSTORE MLOAD PUSH1 0x1 DUP9 ADD SSTORE MLOAD PUSH1 0x2 DUP8 ADD SSTORE MLOAD PUSH1 0x3 DUP7 ADD SSTORE MLOAD SWAP1 DUP5 ADD SSTORE MLOAD SWAP2 ADD SSTORE PUSH1 0x7 SLOAD PUSH32 0xD7A8441131DBA8C179C7D21C199A44CB69087AFCB1BBE88DF97CA5D3D1B7E678 PUSH1 0x8 SLOAD PUSH1 0x9 SLOAD SWAP3 PUSH2 0x14DC PUSH1 0xA SLOAD DUP6 DUP8 MLOAD SWAP5 DUP6 SWAP5 DUP6 SWAP1 SWAP5 SWAP4 SWAP3 PUSH1 0x60 SWAP3 PUSH1 0x80 DUP4 ADD SWAP7 DUP4 MSTORE PUSH1 0x20 DUP4 ADD MSTORE PUSH1 0x40 DUP3 ADD MSTORE ADD MSTORE JUMP JUMPDEST SUB SWAP1 LOG1 DUP5 DUP3 MLOAD SWAP3 DUP2 DUP5 MSTORE DUP2 PUSH1 0x20 DUP6 ADD MSTORE DUP4 ADD MSTORE PUSH1 0x60 DUP3 ADD MSTORE LOG1 DUP1 RETURN JUMPDEST PUSH1 0x24 DUP6 PUSH1 0x11 DUP9 PUSH32 0x4E487B7100000000000000000000000000000000000000000000000000000000 DUP4 MSTORE MSTORE REVERT JUMPDEST PUSH1 0x24 DUP5 PUSH1 0x11 DUP8 PUSH32 0x4E487B7100000000000000000000000000000000000000000000000000000000 DUP4 MSTORE MSTORE REVERT JUMPDEST SWAP1 POP MLOAD PUSH32 0xE6A87C8200000000000000000000000000000000000000000000000000000000 DUP2 MSTORE REVERT JUMPDEST POP CALLVALUE PUSH2 0x3F7 JUMPI DUP2 PUSH32 0xFFFFFFFFFFFFFFFFFFFFFFFFFFFFFFFFFFFFFFFFFFFFFFFFFFFFFFFFFFFFFFFC CALLDATASIZE ADD SLT PUSH2 0x3F7 JUMPI PUSH1 0x20 SWAP1 PUSH1 0xD SLOAD SWAP1 MLOAD SWAP1 DUP2 MSTORE RETURN JUMPDEST POP DUP3 CALLVALUE PUSH2 0x4A0 JUMPI PUSH1 0x60 PUSH32 0xFFFFFFFFFFFFFFFFFFFFFFFFFFFFFFFFFFFFFFFFFFFFFFFFFFFFFFFFFFFFFFFC CALLDATASIZE ADD SLT PUSH2 0x4A0 JUMPI CALLDATALOAD SWAP2 PUSH20 0xFFFFFFFFFFFFFFFFFFFFFFFFFFFFFFFFFFFFFFFF DUP1 DUP5 AND DUP1 SWAP5 SUB PUSH2 0x3F7 JUMPI PUSH1 0x24 CALLDATALOAD DUP2 DUP2 AND DUP1 SWAP2 SUB PUSH2 0x4A0 JUMPI PUSH1 0x44 CALLDATALOAD SWAP2 DUP3 AND DUP1 SWAP3 SUB PUSH2 0x4A0 JUMPI DUP4 SWAP5 DUP4 MSTORE PUSH1 0x5 PUSH1 0x20 MSTORE DUP4 DUP4 KECCAK256 SWAP1 DUP4 MSTORE PUSH1 0x20 MSTORE DUP3 DUP3 KECCAK256 SWAP1 DUP3 MSTORE PUSH1 0x20 MSTORE KECCAK256 PUSH1 0x1 DUP2 SLOAD SWAP2 ADD SLOAD DUP3 MLOAD SWAP2 DUP3 MSTORE PUSH1 0x20 DUP3 ADD MSTORE RETURN JUMPDEST POP CALLVALUE PUSH2 0x3F7 JUMPI DUP2 PUSH32 0xFFFFFFFFFFFFFFFFFFFFFFFFFFFFFFFFFFFFFFFFFFFFFFFFFFFFFFFFFFFFFFFC CALLDATASIZE ADD SLT PUSH2 0x3F7 JUMPI PUSH1 0x20 SWAP1 PUSH20 0xFFFFFFFFFFFFFFFFFFFFFFFFFFFFFFFFFFFFFFFF PUSH1 0xE SLOAD AND SWAP1 MLOAD SWAP1 DUP2 MSTORE RETURN JUMPDEST POP CALLVALUE PUSH2 0x3F7 JUMPI DUP2 PUSH32 0xFFFFFFFFFFFFFFFFFFFFFFFFFFFFFFFFFFFFFFFFFFFFFFFFFFFFFFFFFFFFFFFC CALLDATASIZE ADD SLT PUSH2 0x3F7 JUMPI PUSH1 0x20 SWAP1 MLOAD TIMESTAMP DUP2 MSTORE RETURN JUMPDEST POP SWAP2 CALLVALUE PUSH2 0x3F7 JUMPI DUP3 PUSH32 0xFFFFFFFFFFFFFFFFFFFFFFFFFFFFFFFFFFFFFFFFFFFFFFFFFFFFFFFFFFFFFFFC CALLDATASIZE ADD SLT PUSH2 0x3F7 JUMPI PUSH20 0xFFFFFFFFFFFFFFFFFFFFFFFFFFFFFFFFFFFFFFFF SWAP3 DUP2 CALLDATALOAD DUP5 DUP2 AND SWAP1 DUP2 DUP2 SUB PUSH2 0xFE4 JUMPI PUSH1 0x24 CALLDATALOAD DUP1 ISZERO ISZERO DUP2 SUB PUSH2 0x17EC JUMPI DUP6 SLOAD SWAP5 PUSH1 0xFF DUP7 AND ISZERO PUSH2 0x17C5 JUMPI POP PUSH1 0x1 SWAP6 SWAP7 PUSH32 0x9EAB47B9475F8019B0ADF8933ABA0DE094F031B718D7C4CDA4A736D22F68BB00 SWAP3 PUSH2 0x17A7 PUSH2 0x17A0 PUSH1 0x60 SWAP5 PUSH32 0xFFFFFFFFFFFFFFFFFFFFFFFFFFFFFFFFFFFFFFFFFFFFFFFFFFFFFFFFFFFFFF00 DUP1 SWAP11 AND DUP13 SSTORE DUP4 PUSH2 0x3CF7 JUMP JUMPDEST DUP1 SWAP3 PUSH2 0x4245 JUMP JUMPDEST POP DUP8 SLOAD DUP7 MLOAD SWAP7 CALLER DUP9 MSTORE TIMESTAMP PUSH1 0x20 DUP10 ADD MSTORE DUP8 ADD MSTORE AND SWAP4 LOG3 DUP3 SLOAD AND OR DUP2 SSTORE DUP1 RETURN JUMPDEST DUP5 MLOAD PUSH32 0x37ED32E800000000000000000000000000000000000000000000000000000000 DUP2 MSTORE REVERT JUMPDEST DUP6 DUP1 REVERT JUMPDEST POP SWAP1 CALLVALUE PUSH2 0x59D JUMPI PUSH1 0x20 PUSH32 0xFFFFFFFFFFFFFFFFFFFFFFFFFFFFFFFFFFFFFFFFFFFFFFFFFFFFFFFFFFFFFFFC CALLDATASIZE ADD SLT PUSH2 0x59D JUMPI POP PUSH2 0x898 PUSH1 0x20 SWAP3 CALLDATALOAD PUSH2 0x381E JUMP JUMPDEST POP CALLVALUE PUSH2 0x3F7 JUMPI PUSH1 0x60 PUSH32 0xFFFFFFFFFFFFFFFFFFFFFFFFFFFFFFFFFFFFFFFFFFFFFFFFFFFFFFFFFFFFFFFC CALLDATASIZE ADD SLT PUSH2 0x3F7 JUMPI DUP3 CALLDATALOAD PUSH20 0xFFFFFFFFFFFFFFFFFFFFFFFFFFFFFFFFFFFFFFFF SWAP2 DUP3 DUP3 AND SWAP1 DUP2 DUP4 SUB PUSH2 0xFE4 JUMPI PUSH1 0x24 CALLDATALOAD SWAP2 PUSH1 0x44 CALLDATALOAD DUP1 ISZERO ISZERO DUP2 SUB PUSH2 0x1B8E JUMPI PUSH2 0x18AB SWAP1 PUSH2 0x189D PUSH2 0x4301 JUMP JUMPDEST PUSH2 0x18A5 PUSH2 0x49BE JUMP JUMPDEST DUP6 PUSH2 0x3CF7 JUMP JUMPDEST SWAP5 DUP2 DUP8 MSTORE PUSH1 0x20 SWAP2 DUP9 DUP4 MSTORE DUP4 DUP9 KECCAK256 SWAP1 DUP3 DUP9 AND SWAP2 DUP3 DUP11 MSTORE DUP5 MSTORE DUP5 DUP10 KECCAK256 SWAP1 PUSH1 0xFF DUP3 SLOAD AND PUSH2 0x1B66 JUMPI PUSH2 0x18DB DUP8 PUSH1 0xB SLOAD PUSH2 0x3B8F JUMP JUMPDEST PUSH1 0xB SSTORE PUSH32 0xFFFFFFFFFFFFFFFFFFFFFFFFFFFFFFFFFFFFFFFFFFFFFFFFFFFFFFFFFFFFFF00 SWAP4 PUSH1 0x1 DUP6 DUP5 SLOAD AND OR DUP4 SSTORE PUSH1 0x7 DUP4 ADD DUP9 DUP2 SSTORE PUSH1 0x2 DUP5 ADD SWAP5 DUP14 DUP9 PUSH32 0xFFFFFFFFFFFFFFFFFFFFFFFF0000000000000000000000000000000000000000 SWAP6 DUP1 DUP8 DUP11 SLOAD AND OR DUP10 SSTORE PUSH1 0x3 DUP9 ADD SWAP4 DUP8 DUP6 SLOAD AND OR DUP5 SSTORE DUP12 MLOAD SWAP3 DUP4 DUP1 SWAP3 PUSH32 0x5F77F89100000000000000000000000000000000000000000000000000000000 DUP3 MSTORE GAS STATICCALL SWAP9 DUP10 ISZERO PUSH2 0x1B5A JUMPI DUP15 SWAP10 PUSH2 0x1B26 JUMPI JUMPDEST POP POP PUSH1 0x1 DUP6 ADD SWAP8 DUP9 SSTORE PUSH1 0x2 SLOAD SWAP6 PUSH1 0x9 DUP7 ADD SWAP7 DUP1 DUP9 SSTORE PUSH9 0x10000000000000000 DUP2 LT ISZERO PUSH2 0x1AF9 JUMPI DUP1 PUSH1 0x1 PUSH2 0x19BE SWAP3 ADD PUSH1 0x2 SSTORE PUSH1 0x2 PUSH2 0x3A8C JUMP JUMPDEST SWAP10 SWAP1 SWAP10 PUSH2 0x1ACD JUMPI SWAP2 PUSH32 0xDC011FC76C60958A7FAB8D152E889B6AC9E6825AE755F7B366E275CE0385110C SWAP15 SWAP16 SWAP2 DUP8 SWAP7 SWAP6 SWAP5 SWAP4 DUP12 SWAP11 SWAP10 SWAP9 PUSH2 0x1A49 SWAP15 SWAP14 SWAP13 SUB PUSH2 0x1A4F JUMPI JUMPDEST POP POP POP POP POP POP POP POP POP POP POP PUSH1 0xB SLOAD SWAP1 MLOAD SWAP5 DUP6 SWAP5 DUP6 SWAP1 SWAP3 PUSH1 0x60 SWAP3 SWAP6 SWAP5 SWAP4 PUSH1 0x80 DUP4 ADD SWAP7 PUSH20 0xFFFFFFFFFFFFFFFFFFFFFFFFFFFFFFFFFFFFFFFF DUP1 SWAP3 AND DUP5 MSTORE AND PUSH1 0x20 DUP4 ADD MSTORE PUSH1 0x40 DUP3 ADD MSTORE ADD MSTORE JUMP JUMPDEST SUB SWAP1 LOG1 DUP1 RETURN JUMPDEST PUSH1 0x9 SWAP10 PUSH1 0xFF DUP1 DUP11 SLOAD AND ISZERO ISZERO SWAP2 DUP14 SLOAD AND SWAP2 AND OR DUP12 SSTORE SLOAD PUSH1 0x1 DUP12 ADD SSTORE DUP5 PUSH1 0x2 DUP12 ADD SWAP2 SLOAD AND DUP7 DUP3 SLOAD AND OR SWAP1 SSTORE DUP4 PUSH1 0x3 DUP11 ADD SWAP2 SLOAD AND DUP6 DUP3 SLOAD AND OR SWAP1 SSTORE DUP1 DUP6 ADD SLOAD SWAP1 DUP9 ADD SSTORE PUSH1 0x5 DUP5 ADD SLOAD PUSH1 0x5 DUP9 ADD SSTORE PUSH1 0x6 DUP5 ADD SLOAD PUSH1 0x6 DUP9 ADD SSTORE SLOAD PUSH1 0x7 DUP8 ADD SSTORE PUSH1 0x8 DUP1 DUP8 ADD SWAP4 ADD SLOAD AND SWAP1 DUP3 SLOAD AND OR SWAP1 SSTORE SLOAD SWAP2 ADD SSTORE CODESIZE DUP1 DUP1 DUP1 DUP1 DUP1 DUP1 DUP1 DUP1 DUP1 DUP1 PUSH2 0x19FF JUMP JUMPDEST DUP16 DUP16 DUP1 PUSH1 0x24 SWAP3 PUSH32 0x4E487B7100000000000000000000000000000000000000000000000000000000 DUP3 MSTORE MSTORE REVERT JUMPDEST DUP16 DUP16 PUSH1 0x41 PUSH1 0x24 SWAP3 PUSH32 0x4E487B7100000000000000000000000000000000000000000000000000000000 DUP4 MSTORE MSTORE REVERT JUMPDEST SWAP1 DUP1 SWAP3 SWAP10 POP DUP2 RETURNDATASIZE DUP4 GT PUSH2 0x1B53 JUMPI JUMPDEST PUSH2 0x1B3E DUP2 DUP4 PUSH2 0x36C0 JUMP JUMPDEST DUP2 ADD SUB SLT PUSH2 0x1B4F JUMPI MLOAD SWAP7 CODESIZE DUP1 PUSH2 0x1986 JUMP JUMPDEST DUP13 DUP1 REVERT JUMPDEST POP RETURNDATASIZE PUSH2 0x1B34 JUMP JUMPDEST DUP15 DUP12 MLOAD SWAP1 RETURNDATASIZE SWAP1 DUP3 RETURNDATACOPY RETURNDATASIZE SWAP1 REVERT JUMPDEST DUP11 DUP7 MLOAD PUSH32 0x21559A0200000000000000000000000000000000000000000000000000000000 DUP2 MSTORE REVERT JUMPDEST DUP7 DUP1 REVERT JUMPDEST POP SWAP1 CALLVALUE PUSH2 0x59D JUMPI DUP1 PUSH32 0xFFFFFFFFFFFFFFFFFFFFFFFFFFFFFFFFFFFFFFFFFFFFFFFFFFFFFFFFFFFFFFFC CALLDATASIZE ADD SLT PUSH2 0x59D JUMPI POP PUSH1 0x8 SLOAD PUSH3 0x15180 SWAP1 DUP2 DUP2 DIV PUSH3 0xAFA6C ADD SWAP3 PUSH3 0x23AB1 SWAP4 DUP5 DUP2 MOD SWAP4 PUSH2 0x16D SWAP5 DUP6 PUSH3 0x23AB0 DUP3 EQ PUSH2 0x5B4 DUP4 DIV PUSH2 0x8EAC DUP5 DIV DUP5 ADD SUB SUB DIV SWAP6 PUSH1 0x64 DUP8 DIV SWAP1 DUP8 DUP1 PUSH1 0x2 SHR SWAP2 MUL ADD SUB SWAP1 SUB SWAP6 DUP7 PUSH1 0x5 MUL PUSH1 0x2 ADD PUSH1 0x99 SWAP1 DIV SWAP2 PUSH1 0x9 DUP4 GT PUSH1 0xC MUL DUP4 SUB PUSH1 0x3 ADD SWAP6 MOD SWAP3 PUSH2 0xE10 SWAP7 DUP8 DUP6 MOD SWAP6 MLOAD SWAP9 DUP10 SWAP9 PUSH1 0x3C DUP9 MOD SWAP8 PUSH1 0x3C SWAP1 DIV SWAP7 DIV SWAP5 PUSH2 0xF4FF MUL PUSH2 0x301 ADD PUSH1 0xB SHR SWAP1 SUB PUSH1 0x1 ADD SWAP3 PUSH1 0x3 DUP9 LT SWAP3 DIV PUSH2 0x190 MUL ADD ADD SWAP5 PUSH2 0x599 SWAP6 DUP8 SWAP3 PUSH1 0xA0 SWAP5 SWAP2 SWAP8 SWAP7 SWAP6 SWAP3 PUSH1 0xC0 DUP6 ADD SWAP9 DUP6 MSTORE PUSH1 0x20 DUP6 ADD MSTORE PUSH1 0x40 DUP5 ADD MSTORE PUSH1 0x60 DUP4 ADD MSTORE PUSH1 0x80 DUP3 ADD MSTORE ADD MSTORE JUMP JUMPDEST POP CALLVALUE PUSH2 0x3F7 JUMPI DUP2 PUSH32 0xFFFFFFFFFFFFFFFFFFFFFFFFFFFFFFFFFFFFFFFFFFFFFFFFFFFFFFFFFFFFFFFC CALLDATASIZE ADD SLT PUSH2 0x3F7 JUMPI PUSH1 0x20 SWAP1 PUSH1 0x8 SLOAD SWAP1 MLOAD SWAP1 DUP2 MSTORE RETURN JUMPDEST DUP3 DUP5 CALLVALUE PUSH2 0x3F7 JUMPI PUSH1 0x60 PUSH32 0xFFFFFFFFFFFFFFFFFFFFFFFFFFFFFFFFFFFFFFFFFFFFFFFFFFFFFFFFFFFFFFFC CALLDATASIZE ADD SLT PUSH2 0x3F7 JUMPI CALLDATALOAD PUSH20 0xFFFFFFFFFFFFFFFFFFFFFFFFFFFFFFFFFFFFFFFF DUP1 DUP3 AND DUP3 SUB PUSH2 0x4A0 JUMPI PUSH1 0x44 CALLDATALOAD SWAP1 DUP2 AND DUP2 SUB PUSH2 0x4A0 JUMPI PUSH2 0x1D2C SWAP2 PUSH1 0x24 CALLDATALOAD SWAP1 PUSH2 0x3F79 JUMP JUMPDEST DUP1 RETURN JUMPDEST POP DUP3 CALLVALUE PUSH2 0x4A0 JUMPI PUSH1 0x20 PUSH32 0xFFFFFFFFFFFFFFFFFFFFFFFFFFFFFFFFFFFFFFFFFFFFFFFFFFFFFFFFFFFFFFFC CALLDATASIZE ADD SLT PUSH2 0x4A0 JUMPI CALLDATALOAD SWAP1 PUSH20 0xFFFFFFFFFFFFFFFFFFFFFFFFFFFFFFFFFFFFFFFF SWAP1 DUP2 DUP4 AND SWAP1 DUP2 DUP5 SUB PUSH2 0xFE4 JUMPI PUSH32 0x2C9FF116977C5D1586A6849036DD6D48801CA839D7E67544F7EA263E1935109E SWAP4 PUSH2 0x1A49 SWAP2 PUSH2 0x1DB1 PUSH2 0x4301 JUMP JUMPDEST PUSH2 0x1DB9 PUSH2 0x4A14 JUMP JUMPDEST PUSH1 0xE SLOAD SWAP4 PUSH32 0xFFFFFFFFFFFFFFFFFFFFFFFF0000000000000000000000000000000000000000 DUP6 AND OR PUSH1 0xE SSTORE MLOAD SWAP4 DUP5 SWAP4 AND DUP4 SWAP1 PUSH1 0x20 SWAP1 SWAP4 SWAP3 SWAP4 PUSH1 0x40 DUP4 ADD SWAP5 PUSH20 0xFFFFFFFFFFFFFFFFFFFFFFFFFFFFFFFFFFFFFFFF DUP1 SWAP3 AND DUP5 MSTORE AND SWAP2 ADD MSTORE JUMP JUMPDEST POP DUP3 CALLVALUE PUSH2 0x4A0 JUMPI DUP2 PUSH32 0xFFFFFFFFFFFFFFFFFFFFFFFFFFFFFFFFFFFFFFFFFFFFFFFFFFFFFFFFFFFFFFFC CALLDATASIZE ADD SLT PUSH2 0x4A0 JUMPI DUP1 CALLDATALOAD PUSH20 0xFFFFFFFFFFFFFFFFFFFFFFFFFFFFFFFFFFFFFFFF SWAP1 DUP2 DUP2 AND DUP1 SWAP2 SUB PUSH2 0xFE4 JUMPI PUSH1 0x24 CALLDATALOAD SWAP1 DUP3 DUP3 AND DUP1 SWAP3 SUB PUSH2 0x17EC JUMPI SWAP5 DUP5 SWAP2 PUSH2 0x140 SWAP7 DUP3 MSTORE DUP5 PUSH1 0x20 MSTORE DUP3 DUP3 KECCAK256 SWAP1 DUP3 MSTORE PUSH1 0x20 MSTORE KECCAK256 SWAP1 PUSH1 0xFF DUP3 SLOAD AND SWAP4 PUSH1 0x1 DUP4 ADD SLOAD SWAP4 DUP3 PUSH1 0x2 DUP6 ADD SLOAD AND SWAP1 DUP4 PUSH1 0x3 DUP7 ADD SLOAD AND SWAP1 DUP6 ADD SLOAD SWAP1 PUSH1 0x5 DUP7 ADD SLOAD SWAP3 PUSH1 0x6 DUP8 ADD SLOAD SWAP5 PUSH1 0x9 PUSH1 0x7 DUP10 ADD SLOAD SWAP8 PUSH1 0x8 DUP11 ADD SLOAD AND SWAP9 ADD SLOAD SWAP9 DUP2 MLOAD SWAP11 ISZERO ISZERO DUP12 MSTORE PUSH1 0x20 DUP12 ADD MSTORE DUP10 ADD MSTORE PUSH1 0x60 DUP9 ADD MSTORE PUSH1 0x80 DUP8 ADD MSTORE PUSH1 0xA0 DUP7 ADD MSTORE PUSH1 0xC0 DUP6 ADD MSTORE PUSH1 0xE0 DUP5 ADD MSTORE PUSH2 0x100 DUP4 ADD MSTORE PUSH2 0x120 DUP3 ADD MSTORE RETURN JUMPDEST POP CALLVALUE PUSH2 0x3F7 JUMPI DUP2 PUSH32 0xFFFFFFFFFFFFFFFFFFFFFFFFFFFFFFFFFFFFFFFFFFFFFFFFFFFFFFFFFFFFFFFC CALLDATASIZE ADD SLT PUSH2 0x3F7 JUMPI PUSH1 0x20 SWAP1 PUSH2 0x898 PUSH3 0x1281FB PUSH2 0x893 PUSH1 0xD SLOAD TIMESTAMP PUSH2 0x3811 JUMP JUMPDEST POP CALLVALUE PUSH2 0x3F7 JUMPI DUP2 PUSH32 0xFFFFFFFFFFFFFFFFFFFFFFFFFFFFFFFFFFFFFFFFFFFFFFFFFFFFFFFFFFFFFFFC CALLDATASIZE ADD SLT PUSH2 0x3F7 JUMPI PUSH1 0x20 SWAP1 MLOAD PUSH1 0x9C DUP2 MSTORE RETURN JUMPDEST POP CALLVALUE PUSH2 0x3F7 JUMPI DUP2 PUSH32 0xFFFFFFFFFFFFFFFFFFFFFFFFFFFFFFFFFFFFFFFFFFFFFFFFFFFFFFFFFFFFFFFC CALLDATASIZE ADD SLT PUSH2 0x3F7 JUMPI PUSH2 0x599 SWAP1 PUSH2 0x1FBB PUSH2 0x3E73 JUMP JUMPDEST SWAP6 MLOAD SWAP5 DUP6 MSTORE PUSH1 0x20 DUP6 ADD SWAP4 SWAP1 SWAP4 MSTORE PUSH1 0x40 DUP5 ADD SWAP2 SWAP1 SWAP2 MSTORE PUSH1 0x60 DUP4 ADD MSTORE PUSH1 0x80 DUP3 ADD MSTORE PUSH1 0xA0 DUP2 ADD SWAP2 SWAP1 SWAP2 MSTORE SWAP1 DUP2 SWAP1 PUSH1 0xC0 DUP3 ADD SWAP1 JUMP JUMPDEST POP SWAP1 CALLVALUE PUSH2 0x59D JUMPI DUP1 PUSH32 0xFFFFFFFFFFFFFFFFFFFFFFFFFFFFFFFFFFFFFFFFFFFFFFFFFFFFFFFFFFFFFFFC CALLDATASIZE ADD SLT PUSH2 0x59D JUMPI PUSH1 0x1 SLOAD DUP1 PUSH2 0x2031 JUMPI POP PUSH1 0x20 SWAP3 POP SWAP1 JUMPDEST MLOAD SWAP1 DUP2 MSTORE RETURN JUMPDEST PUSH32 0xFFFFFFFFFFFFFFFFFFFFFFFFFFFFFFFFFFFFFFFFFFFFFFFFFFFFFFFFFFFFFFFF DUP2 ADD SWAP1 DUP2 GT PUSH2 0x20A7 JUMPI PUSH2 0x2086 SWAP1 PUSH32 0x0 SWAP1 PUSH2 0x38DD JUMP JUMPDEST SWAP1 PUSH3 0x1281FB SWAP2 DUP3 DUP2 MUL SWAP3 DUP2 DUP5 DIV EQ SWAP1 ISZERO OR ISZERO PUSH2 0x3CB JUMPI POP PUSH1 0x20 SWAP3 POP SWAP1 PUSH2 0x202B JUMP JUMPDEST PUSH1 0x24 DUP3 PUSH1 0x11 DUP7 PUSH32 0x4E487B7100000000000000000000000000000000000000000000000000000000 DUP4 MSTORE MSTORE REVERT JUMPDEST POP CALLVALUE PUSH2 0x3F7 JUMPI DUP2 PUSH32 0xFFFFFFFFFFFFFFFFFFFFFFFFFFFFFFFFFFFFFFFFFFFFFFFFFFFFFFFFFFFFFFFC CALLDATASIZE ADD SLT PUSH2 0x3F7 JUMPI DUP1 MLOAD PUSH2 0x599 SWAP2 PUSH2 0x2112 DUP2 DUP4 PUSH2 0x36C0 JUMP JUMPDEST PUSH1 0x5 DUP3 MSTORE PUSH32 0x322E302E30000000000000000000000000000000000000000000000000000000 PUSH1 0x20 DUP4 ADD MSTORE MLOAD SWAP2 DUP3 SWAP2 DUP3 PUSH2 0x3730 JUMP JUMPDEST POP CALLVALUE PUSH2 0x3F7 JUMPI DUP2 PUSH32 0xFFFFFFFFFFFFFFFFFFFFFFFFFFFFFFFFFFFFFFFFFFFFFFFFFFFFFFFFFFFFFFFC CALLDATASIZE ADD SLT PUSH2 0x3F7 JUMPI PUSH1 0x20 SWAP1 PUSH1 0x2 SLOAD SWAP1 MLOAD SWAP1 DUP2 MSTORE RETURN JUMPDEST POP DUP3 CALLVALUE PUSH2 0x4A0 JUMPI DUP3 PUSH32 0xFFFFFFFFFFFFFFFFFFFFFFFFFFFFFFFFFFFFFFFFFFFFFFFFFFFFFFFFFFFFFFFC CALLDATASIZE ADD SLT PUSH2 0x4A0 JUMPI PUSH2 0x21C5 PUSH3 0x1281FB PUSH2 0x893 PUSH1 0xD SLOAD TIMESTAMP PUSH2 0x3811 JUMP JUMPDEST SWAP1 PUSH1 0x1 SLOAD DUP5 MSTORE PUSH1 0x3 PUSH1 0x20 MSTORE PUSH1 0x2 DUP4 DUP6 KECCAK256 ADD SLOAD SWAP1 PUSH1 0x3 DUP5 DUP7 KECCAK256 ADD SLOAD SWAP5 DUP4 PUSH32 0xFFFFFFFFFFFFFFFFFFFFFFFFFFFFFFFFFFFFFFFFFFFFFFFFFFFFFFFFFFFFFFFF DIV DUP4 GT DUP5 MUL PUSH2 0x2224 JUMPI PUSH1 0x20 DUP6 PUSH2 0x898 PUSH8 0xDE0B6B3A7640000 DUP7 DUP9 MUL DIV DUP10 PUSH2 0x4B83 JUMP JUMPDEST PUSH4 0xBAC65E5B SWAP1 MSTORE PUSH1 0x1C REVERT JUMPDEST POP CALLVALUE PUSH2 0x3F7 JUMPI PUSH1 0x60 PUSH32 0xFFFFFFFFFFFFFFFFFFFFFFFFFFFFFFFFFFFFFFFFFFFFFFFFFFFFFFFFFFFFFFFC CALLDATASIZE ADD SLT PUSH2 0x3F7 JUMPI DUP3 CALLDATALOAD SWAP2 PUSH20 0xFFFFFFFFFFFFFFFFFFFFFFFFFFFFFFFFFFFFFFFF DUP1 DUP5 AND DUP1 DUP6 SUB PUSH2 0x4A0 JUMPI PUSH1 0x24 CALLDATALOAD SWAP2 DUP3 ISZERO ISZERO DUP4 SUB PUSH2 0x2366 JUMPI PUSH1 0x44 CALLDATALOAD SWAP3 DUP2 DUP5 AND DUP5 SUB PUSH2 0xFE4 JUMPI DUP5 SLOAD SWAP8 PUSH1 0xFF DUP10 AND ISZERO PUSH2 0xFBD JUMPI POP SWAP2 PUSH32 0x1C4F94F28CC9152354D4B98B8614B28C6C828A98D88228FA9577C7B9475E120C DUP5 SWAP3 PUSH2 0x2314 PUSH1 0x1 SWAP7 PUSH2 0x230D PUSH1 0x20 SWAP13 SWAP8 PUSH32 0xFFFFFFFFFFFFFFFFFFFFFFFFFFFFFFFFFFFFFFFFFFFFFFFFFFFFFFFFFFFFFF00 DUP1 SWAP10 AND DUP12 SSTORE PUSH2 0x2307 PUSH2 0x4301 JUMP JUMPDEST DUP13 PUSH2 0x3CF7 JUMP JUMPDEST DUP1 SWAP12 PUSH2 0x451F JUMP JUMPDEST SWAP9 DUP7 SLOAD DUP9 MSTORE PUSH1 0x3 DUP12 MSTORE PUSH1 0x3 DUP10 DUP10 KECCAK256 ADD PUSH2 0x232E DUP12 DUP3 SLOAD PUSH2 0x3B8F JUMP JUMPDEST SWAP1 SSTORE DUP9 MLOAD PUSH20 0xFFFFFFFFFFFFFFFFFFFFFFFFFFFFFFFFFFFFFFFF SWAP6 SWAP1 SWAP6 AND DUP6 MSTORE PUSH1 0x20 DUP6 ADD DUP11 SWAP1 MSTORE AND SWAP3 PUSH1 0x40 SWAP1 LOG3 DUP3 SLOAD AND OR SWAP1 SSTORE MLOAD SWAP1 DUP2 MSTORE RETURN JUMPDEST DUP4 DUP1 REVERT JUMPDEST POP CALLVALUE PUSH2 0x3F7 JUMPI DUP2 PUSH32 0xFFFFFFFFFFFFFFFFFFFFFFFFFFFFFFFFFFFFFFFFFFFFFFFFFFFFFFFFFFFFFFFC CALLDATASIZE ADD SLT PUSH2 0x3F7 JUMPI DUP2 SWAP1 PUSH1 0x1 SLOAD DUP4 SWAP1 JUMPDEST DUP1 DUP3 GT ISZERO PUSH2 0x23B3 JUMPI PUSH1 0x20 DUP5 DUP5 MLOAD SWAP1 DUP2 MSTORE RETURN JUMPDEST SWAP1 SWAP3 PUSH2 0x23D0 PUSH2 0x23D6 SWAP2 DUP6 DUP8 MSTORE PUSH1 0x3 DUP1 PUSH1 0x20 MSTORE DUP6 DUP9 KECCAK256 ADD SLOAD SWAP1 PUSH2 0x3B8F JUMP JUMPDEST SWAP4 PUSH2 0x3DFF JUMP JUMPDEST SWAP1 PUSH2 0x23A1 JUMP JUMPDEST POP CALLVALUE PUSH2 0x3F7 JUMPI DUP2 PUSH32 0xFFFFFFFFFFFFFFFFFFFFFFFFFFFFFFFFFFFFFFFFFFFFFFFFFFFFFFFFFFFFFFFC CALLDATASIZE ADD SLT PUSH2 0x3F7 JUMPI PUSH1 0x20 SWAP1 MLOAD PUSH20 0xFFFFFFFFFFFFFFFFFFFFFFFFFFFFFFFFFFFFFFFF PUSH32 0x0 AND DUP2 MSTORE RETURN JUMPDEST POP CALLVALUE PUSH2 0x3F7 JUMPI DUP2 PUSH32 0xFFFFFFFFFFFFFFFFFFFFFFFFFFFFFFFFFFFFFFFFFFFFFFFFFFFFFFFFFFFFFFFC CALLDATASIZE ADD SLT PUSH2 0x3F7 JUMPI PUSH2 0x1268 PUSH1 0x1 SLOAD PUSH32 0x0 SWAP1 PUSH2 0x38DD JUMP JUMPDEST POP DUP3 SWAP1 CALLVALUE PUSH2 0x4A0 JUMPI PUSH1 0x20 DUP1 PUSH32 0xFFFFFFFFFFFFFFFFFFFFFFFFFFFFFFFFFFFFFFFFFFFFFFFFFFFFFFFFFFFFFFFC CALLDATASIZE ADD SLT PUSH2 0x2366 JUMPI PUSH2 0x24E1 PUSH2 0x3A3D JUMP JUMPDEST POP PUSH2 0x24EA PUSH2 0x3A3D JUMP JUMPDEST POP DUP2 MLOAD SWAP1 PUSH32 0x1AD4C8C300000000000000000000000000000000000000000000000000000000 DUP3 MSTORE DUP4 CALLDATALOAD DUP5 DUP4 ADD MSTORE PUSH20 0xFFFFFFFFFFFFFFFFFFFFFFFFFFFFFFFFFFFFFFFF PUSH1 0xA0 DUP4 PUSH1 0x24 DUP2 DUP5 PUSH32 0x0 AND GAS STATICCALL SWAP3 DUP4 ISZERO PUSH2 0x273D JUMPI DUP7 SWAP1 DUP8 SWAP5 PUSH2 0x26B9 JUMPI JUMPDEST POP SWAP4 PUSH2 0x280 SWAP7 DUP2 SWAP5 PUSH2 0x262C SWAP5 DUP5 PUSH2 0x25AA SWAP6 PUSH2 0x26B7 SWAP10 AND SWAP10 DUP11 DUP6 MSTORE DUP1 DUP4 MSTORE DUP6 DUP6 KECCAK256 DUP6 DUP1 MSTORE DUP4 MSTORE PUSH2 0x2597 DUP7 DUP7 KECCAK256 PUSH2 0x3AD7 JUMP JUMPDEST SWAP11 DUP6 MSTORE DUP3 MSTORE DUP5 DUP5 KECCAK256 SWAP3 AND DUP4 MSTORE MSTORE KECCAK256 PUSH2 0x3AD7 JUMP JUMPDEST SWAP2 MLOAD DUP1 SWAP5 DUP1 MLOAD ISZERO ISZERO DUP3 MSTORE PUSH1 0x20 DUP2 ADD MLOAD PUSH1 0x20 DUP4 ADD MSTORE PUSH20 0xFFFFFFFFFFFFFFFFFFFFFFFFFFFFFFFFFFFFFFFF DUP1 PUSH1 0x40 DUP4 ADD MLOAD AND PUSH1 0x40 DUP5 ADD MSTORE DUP1 PUSH1 0x60 DUP4 ADD MLOAD AND PUSH1 0x60 DUP5 ADD MSTORE PUSH1 0x80 DUP3 ADD MLOAD PUSH1 0x80 DUP5 ADD MSTORE PUSH1 0xA0 DUP3 ADD MLOAD PUSH1 0xA0 DUP5 ADD MSTORE PUSH1 0xC0 DUP3 ADD MLOAD PUSH1 0xC0 DUP5 ADD MSTORE PUSH1 0xE0 DUP3 ADD MLOAD PUSH1 0xE0 DUP5 ADD MSTORE PUSH2 0x100 SWAP1 DUP2 DUP4 ADD MLOAD AND SWAP1 DUP4 ADD MSTORE PUSH2 0x120 DUP1 SWAP2 ADD MLOAD SWAP2 ADD MSTORE JUMP JUMPDEST DUP1 MLOAD ISZERO ISZERO PUSH2 0x140 DUP5 ADD MSTORE PUSH1 0x20 DUP2 ADD MLOAD PUSH2 0x160 DUP5 ADD MSTORE PUSH1 0x40 DUP2 ADD MLOAD PUSH20 0xFFFFFFFFFFFFFFFFFFFFFFFFFFFFFFFFFFFFFFFF SWAP1 DUP2 AND PUSH2 0x180 DUP6 ADD MSTORE PUSH1 0x60 DUP3 ADD MLOAD DUP2 AND PUSH2 0x1A0 DUP6 ADD MSTORE PUSH1 0x80 DUP3 ADD MLOAD PUSH2 0x1C0 DUP6 ADD MSTORE PUSH1 0xA0 DUP3 ADD MLOAD PUSH2 0x1E0 DUP6 ADD MSTORE PUSH1 0xC0 DUP3 ADD MLOAD PUSH2 0x200 DUP6 ADD MSTORE PUSH1 0xE0 DUP3 ADD MLOAD PUSH2 0x220 DUP6 ADD MSTORE PUSH2 0x100 DUP3 ADD MLOAD AND PUSH2 0x240 DUP5 ADD MSTORE PUSH2 0x120 ADD MLOAD PUSH2 0x260 DUP4 ADD MSTORE JUMP JUMPDEST RETURN JUMPDEST SWAP4 POP POP PUSH1 0xA0 DUP4 RETURNDATASIZE DUP3 GT PUSH2 0x2735 JUMPI JUMPDEST DUP2 PUSH2 0x26D4 PUSH1 0xA0 SWAP4 DUP4 PUSH2 0x36C0 JUMP JUMPDEST DUP2 ADD SUB SLT PUSH2 0x17EC JUMPI DUP3 MLOAD DUP1 ISZERO ISZERO SUB PUSH2 0x17EC JUMPI DUP2 DUP4 ADD MLOAD PUSH11 0xFFFFFFFFFFFFFFFFFFFFFF DUP2 AND SUB PUSH2 0x17EC JUMPI PUSH2 0x2708 DUP5 DUP5 ADD PUSH2 0x3B69 JUMP JUMPDEST PUSH1 0x80 PUSH2 0x2716 PUSH1 0x60 DUP7 ADD PUSH2 0x3B69 JUMP JUMPDEST SWAP5 ADD MLOAD PUSH12 0xFFFFFFFFFFFFFFFFFFFFFFFF DUP2 AND SUB PUSH2 0x1B8E JUMPI PUSH2 0x280 PUSH2 0x2567 JUMP JUMPDEST RETURNDATASIZE SWAP2 POP PUSH2 0x26C7 JUMP JUMPDEST DUP5 MLOAD RETURNDATASIZE DUP9 DUP3 RETURNDATACOPY RETURNDATASIZE SWAP1 REVERT JUMPDEST POP SWAP2 CALLVALUE PUSH2 0x3F7 JUMPI DUP3 PUSH32 0xFFFFFFFFFFFFFFFFFFFFFFFFFFFFFFFFFFFFFFFFFFFFFFFFFFFFFFFFFFFFFFFC CALLDATASIZE ADD SLT PUSH2 0x3F7 JUMPI DUP1 CALLDATALOAD PUSH20 0xFFFFFFFFFFFFFFFFFFFFFFFFFFFFFFFFFFFFFFFF SWAP2 DUP3 DUP3 AND SWAP3 DUP4 DUP4 SUB PUSH2 0xFE4 JUMPI PUSH1 0x24 CALLDATALOAD DUP1 ISZERO ISZERO DUP2 SUB PUSH2 0x17EC JUMPI PUSH2 0x27C0 SWAP1 PUSH2 0x27B2 PUSH2 0x4301 JUMP JUMPDEST PUSH2 0x27BA PUSH2 0x49BE JUMP JUMPDEST DUP5 PUSH2 0x3CF7 JUMP JUMPDEST SWAP4 DUP6 MSTORE DUP2 PUSH1 0x20 MSTORE DUP6 DUP6 KECCAK256 SWAP1 DUP5 AND DUP6 MSTORE PUSH1 0x20 MSTORE DUP5 DUP5 KECCAK256 SWAP1 PUSH1 0xFF DUP3 SLOAD AND ISZERO PUSH2 0x285A JUMPI POP PUSH1 0x8 ADD DUP1 SLOAD PUSH32 0xFFFFFFFFFFFFFFFFFFFFFFFF0000000000000000000000000000000000000000 AND SWAP1 SSTORE SWAP3 MLOAD PUSH20 0xFFFFFFFFFFFFFFFFFFFFFFFFFFFFFFFFFFFFFFFF SWAP4 DUP5 AND DUP2 MSTORE SWAP3 AND PUSH1 0x20 DUP4 ADD MSTORE SWAP1 PUSH32 0x187F609DC1B45F615ECF16C1FCDE5D69C367A25598A0CF014C8DAA1285D204F0 SWAP1 DUP1 PUSH1 0x40 DUP2 ADD PUSH2 0x1A49 JUMP JUMPDEST DUP6 MLOAD PUSH32 0x520F832F00000000000000000000000000000000000000000000000000000000 DUP2 MSTORE REVERT JUMPDEST POP DUP3 CALLVALUE PUSH2 0x4A0 JUMPI DUP3 PUSH32 0xFFFFFFFFFFFFFFFFFFFFFFFFFFFFFFFFFFFFFFFFFFFFFFFFFFFFFFFFFFFFFFFC CALLDATASIZE ADD SLT PUSH2 0x4A0 JUMPI DUP3 SLOAD SWAP2 PUSH1 0xFF DUP4 AND ISZERO PUSH2 0x47A JUMPI DUP4 PUSH1 0x1 DUP5 PUSH32 0xFFFFFFFFFFFFFFFFFFFFFFFFFFFFFFFFFFFFFFFFFFFFFFFFFFFFFFFFFFFFFF00 DUP1 SWAP2 AND DUP4 SSTORE PUSH2 0x28EF PUSH2 0x4301 JUMP JUMPDEST PUSH2 0x471 PUSH2 0x49A4 JUMP JUMPDEST POP CALLVALUE PUSH2 0x3F7 JUMPI DUP1 PUSH32 0xFFFFFFFFFFFFFFFFFFFFFFFFFFFFFFFFFFFFFFFFFFFFFFFFFFFFFFFFFFFFFFFC CALLDATASIZE ADD SLT PUSH2 0x3F7 JUMPI PUSH2 0x1268 PUSH1 0x24 CALLDATALOAD DUP5 CALLDATALOAD PUSH2 0x38DD JUMP JUMPDEST POP CALLVALUE PUSH2 0x3F7 JUMPI DUP2 PUSH32 0xFFFFFFFFFFFFFFFFFFFFFFFFFFFFFFFFFFFFFFFFFFFFFFFFFFFFFFFFFFFFFFFC CALLDATASIZE ADD SLT PUSH2 0x3F7 JUMPI PUSH1 0x20 SWAP1 PUSH1 0x9 SLOAD SWAP1 MLOAD SWAP1 DUP2 MSTORE RETURN JUMPDEST DUP3 CALLVALUE PUSH2 0x59D JUMPI DUP1 PUSH32 0xFFFFFFFFFFFFFFFFFFFFFFFFFFFFFFFFFFFFFFFFFFFFFFFFFFFFFFFFFFFFFFFC CALLDATASIZE ADD SLT PUSH2 0x59D JUMPI PUSH2 0x29A6 PUSH2 0x4301 JUMP JUMPDEST PUSH2 0x29AE PUSH2 0x4A14 JUMP JUMPDEST PUSH2 0x1D2C PUSH2 0x4AF7 JUMP JUMPDEST POP CALLVALUE PUSH2 0x3F7 JUMPI DUP2 PUSH32 0xFFFFFFFFFFFFFFFFFFFFFFFFFFFFFFFFFFFFFFFFFFFFFFFFFFFFFFFFFFFFFFFC CALLDATASIZE ADD SLT PUSH2 0x3F7 JUMPI PUSH1 0x20 SWAP1 PUSH2 0x898 PUSH2 0x3E40 JUMP JUMPDEST POP CALLVALUE PUSH2 0x3F7 JUMPI DUP2 PUSH32 0xFFFFFFFFFFFFFFFFFFFFFFFFFFFFFFFFFFFFFFFFFFFFFFFFFFFFFFFFFFFFFFFC CALLDATASIZE ADD SLT PUSH2 0x3F7 JUMPI PUSH1 0x20 SWAP1 PUSH1 0xC SLOAD SWAP1 MLOAD SWAP1 DUP2 MSTORE RETURN JUMPDEST POP DUP3 CALLVALUE PUSH2 0x4A0 JUMPI DUP3 PUSH32 0xFFFFFFFFFFFFFFFFFFFFFFFFFFFFFFFFFFFFFFFFFFFFFFFFFFFFFFFFFFFFFFFC CALLDATASIZE ADD SLT PUSH2 0x4A0 JUMPI DUP3 SLOAD SWAP2 PUSH1 0xFF DUP4 AND ISZERO PUSH2 0x47A JUMPI DUP4 PUSH1 0x1 DUP5 PUSH32 0xFFFFFFFFFFFFFFFFFFFFFFFFFFFFFFFFFFFFFFFFFFFFFFFFFFFFFFFFFFFFFF00 DUP1 SWAP2 AND DUP4 SSTORE PUSH2 0x471 PUSH2 0x4301 JUMP JUMPDEST POP CALLVALUE PUSH2 0x3F7 JUMPI PUSH1 0x60 PUSH32 0xFFFFFFFFFFFFFFFFFFFFFFFFFFFFFFFFFFFFFFFFFFFFFFFFFFFFFFFFFFFFFFFC CALLDATASIZE ADD SLT PUSH2 0x3F7 JUMPI DUP3 CALLDATALOAD PUSH20 0xFFFFFFFFFFFFFFFFFFFFFFFFFFFFFFFFFFFFFFFF SWAP4 DUP5 DUP3 AND DUP1 SWAP3 SUB PUSH2 0x2366 JUMPI PUSH1 0x24 CALLDATALOAD SWAP5 DUP1 DUP7 AND DUP1 SWAP7 SUB PUSH2 0xFE4 JUMPI PUSH1 0x44 CALLDATALOAD SWAP1 DUP1 DUP3 AND DUP1 SWAP3 SUB PUSH2 0x17EC JUMPI SWAP2 PUSH1 0x64 SWAP2 DUP5 SWAP4 DUP7 SWAP6 DUP9 MSTORE DUP3 PUSH1 0x20 MSTORE DUP6 DUP9 KECCAK256 DUP10 DUP10 MSTORE PUSH1 0x20 MSTORE PUSH2 0x100 PUSH2 0x2B2D DUP8 DUP11 KECCAK256 PUSH2 0x3AD7 JUMP JUMPDEST ADD MLOAD AND SWAP1 DUP6 MLOAD SWAP9 DUP10 SWAP6 DUP7 SWAP5 PUSH32 0xB75942C000000000000000000000000000000000000000000000000000000000 DUP7 MSTORE DUP6 ADD MSTORE PUSH1 0x24 DUP5 ADD MSTORE PUSH1 0x44 DUP4 ADD MSTORE GAS STATICCALL SWAP3 DUP4 ISZERO PUSH2 0x2BE7 JUMPI DUP3 DUP1 SWAP5 PUSH2 0x2BA4 JUMPI JUMPDEST POP POP MLOAD PUSH20 0xFFFFFFFFFFFFFFFFFFFFFFFFFFFFFFFFFFFFFFFF SWAP2 SWAP1 SWAP2 AND DUP2 MSTORE PUSH1 0x20 DUP2 ADD SWAP2 SWAP1 SWAP2 MSTORE PUSH1 0x40 SWAP1 RETURN JUMPDEST SWAP2 SWAP4 POP SWAP2 POP DUP3 DUP3 DUP2 RETURNDATASIZE DUP4 GT PUSH2 0x2BE0 JUMPI JUMPDEST PUSH2 0x2BBE DUP2 DUP4 PUSH2 0x36C0 JUMP JUMPDEST DUP2 ADD SUB SLT PUSH2 0x59D JUMPI POP PUSH2 0x599 PUSH1 0x20 PUSH2 0x2BD5 DUP4 PUSH2 0x3B69 JUMP JUMPDEST SWAP3 ADD MLOAD SWAP3 SWAP1 CODESIZE PUSH2 0x2B79 JUMP JUMPDEST POP RETURNDATASIZE PUSH2 0x2BB4 JUMP JUMPDEST POP MLOAD SWAP1 RETURNDATASIZE SWAP1 DUP3 RETURNDATACOPY RETURNDATASIZE SWAP1 REVERT JUMPDEST POP CALLVALUE PUSH2 0x3F7 JUMPI DUP2 PUSH32 0xFFFFFFFFFFFFFFFFFFFFFFFFFFFFFFFFFFFFFFFFFFFFFFFFFFFFFFFFFFFFFFFC CALLDATASIZE ADD SLT PUSH2 0x3F7 JUMPI DUP1 SWAP2 PUSH1 0x1 SLOAD DUP2 MSTORE PUSH1 0x3 PUSH1 0x20 MSTORE KECCAK256 PUSH1 0x5 ADD SLOAD PUSH3 0x15180 SWAP1 DUP2 DUP2 DIV PUSH3 0xAFA6C ADD SWAP3 PUSH3 0x23AB1 SWAP4 DUP5 DUP2 MOD SWAP4 PUSH2 0x16D SWAP5 DUP6 PUSH3 0x23AB0 DUP3 EQ PUSH2 0x5B4 DUP4 DIV PUSH2 0x8EAC DUP5 DIV DUP5 ADD SUB SUB DIV SWAP6 PUSH1 0x64 DUP8 DIV SWAP1 DUP8 DUP1 PUSH1 0x2 SHR SWAP2 MUL ADD SUB SWAP1 SUB SWAP6 DUP7 PUSH1 0x5 MUL PUSH1 0x2 ADD PUSH1 0x99 SWAP1 DIV SWAP2 PUSH1 0x9 DUP4 GT PUSH1 0xC MUL DUP4 SUB PUSH1 0x3 ADD SWAP6 MOD SWAP3 PUSH2 0xE10 SWAP7 DUP8 DUP6 MOD SWAP6 MLOAD SWAP9 DUP10 SWAP9 PUSH1 0x3C DUP9 MOD SWAP8 PUSH1 0x3C SWAP1 DIV SWAP7 DIV SWAP5 PUSH2 0xF4FF MUL PUSH2 0x301 ADD PUSH1 0xB SHR SWAP1 SUB PUSH1 0x1 ADD SWAP3 PUSH1 0x3 DUP9 LT SWAP3 DIV PUSH2 0x190 MUL ADD ADD SWAP5 PUSH2 0x599 SWAP6 DUP8 SWAP3 PUSH1 0xA0 SWAP5 SWAP2 SWAP8 SWAP7 SWAP6 SWAP3 PUSH1 0xC0 DUP6 ADD SWAP9 DUP6 MSTORE PUSH1 0x20 DUP6 ADD MSTORE PUSH1 0x40 DUP5 ADD MSTORE PUSH1 0x60 DUP4 ADD MSTORE PUSH1 0x80 DUP3 ADD MSTORE ADD MSTORE JUMP JUMPDEST POP CALLVALUE PUSH2 0x3F7 JUMPI DUP2 PUSH32 0xFFFFFFFFFFFFFFFFFFFFFFFFFFFFFFFFFFFFFFFFFFFFFFFFFFFFFFFFFFFFFFFC CALLDATASIZE ADD SLT PUSH2 0x3F7 JUMPI PUSH1 0x20 SWAP1 MLOAD PUSH7 0x2386F26FC10000 DUP2 MSTORE RETURN JUMPDEST POP SWAP1 CALLVALUE PUSH2 0x59D JUMPI DUP2 PUSH32 0xFFFFFFFFFFFFFFFFFFFFFFFFFFFFFFFFFFFFFFFFFFFFFFFFFFFFFFFFFFFFFFFC CALLDATASIZE ADD SLT PUSH2 0x59D JUMPI POP PUSH2 0x898 PUSH1 0x20 SWAP3 PUSH1 0x24 CALLDATALOAD SWAP1 CALLDATALOAD PUSH2 0x38DD JUMP JUMPDEST POP CALLVALUE PUSH2 0x3F7 JUMPI DUP2 PUSH32 0xFFFFFFFFFFFFFFFFFFFFFFFFFFFFFFFFFFFFFFFFFFFFFFFFFFFFFFFFFFFFFFFC CALLDATASIZE ADD SLT PUSH2 0x3F7 JUMPI PUSH1 0x20 SWAP1 MLOAD PUSH3 0x1281FB DUP2 MSTORE RETURN JUMPDEST POP CALLVALUE PUSH2 0x3F7 JUMPI PUSH1 0x60 PUSH32 0xFFFFFFFFFFFFFFFFFFFFFFFFFFFFFFFFFFFFFFFFFFFFFFFFFFFFFFFFFFFFFFFC CALLDATASIZE ADD SLT PUSH2 0x3F7 JUMPI DUP3 CALLDATALOAD PUSH20 0xFFFFFFFFFFFFFFFFFFFFFFFFFFFFFFFFFFFFFFFF SWAP4 DUP5 DUP3 AND SWAP3 DUP4 DUP4 SUB PUSH2 0xFE4 JUMPI PUSH1 0x24 CALLDATALOAD SWAP6 PUSH1 0x44 CALLDATALOAD DUP1 ISZERO ISZERO DUP2 SUB PUSH2 0x1B8E JUMPI PUSH2 0x2E19 PUSH2 0x4301 JUMP JUMPDEST PUSH2 0x2E21 PUSH2 0x49BE JUMP JUMPDEST ISZERO PUSH2 0x2F86 JUMPI DUP2 MLOAD PUSH32 0xD8DFEB4500000000000000000000000000000000000000000000000000000000 DUP2 MSTORE PUSH1 0x20 DUP2 DUP6 DUP2 DUP10 GAS STATICCALL SWAP1 DUP2 ISZERO PUSH2 0x2F7C JUMPI DUP8 SWAP2 PUSH2 0x2F43 JUMPI JUMPDEST POP SWAP5 JUMPDEST DUP7 MSTORE DUP3 PUSH1 0x20 MSTORE DUP2 DUP7 KECCAK256 SWAP1 DUP6 AND DUP7 MSTORE PUSH1 0x20 MSTORE DUP1 DUP6 KECCAK256 SWAP2 PUSH1 0xFF DUP4 SLOAD AND ISZERO PUSH2 0x2F1C JUMPI POP SWAP5 DUP2 PUSH32 0x565FCECE9A598BB08D13F5964B75ADDEB6C15F8401114D49B330DADA02EF648C SWAP6 SWAP7 DUP3 PUSH1 0x7 PUSH2 0x2EDE PUSH1 0x9 DUP3 PUSH2 0x1A49 SWAP9 ADD SWAP6 DUP5 DUP8 SLOAD SWAP8 PUSH2 0x2ED1 DUP3 PUSH2 0x2ECC DUP12 PUSH1 0xB SLOAD PUSH2 0x3811 JUMP JUMPDEST PUSH2 0x3B8F JUMP JUMPDEST PUSH1 0xB SSTORE SSTORE ADD SLOAD PUSH1 0x2 PUSH2 0x3A8C JUMP JUMPDEST POP ADD SSTORE MLOAD SWAP5 DUP6 SWAP5 DUP6 SWAP1 SWAP3 PUSH1 0x60 SWAP3 SWAP6 SWAP5 SWAP4 PUSH1 0x80 DUP4 ADD SWAP7 PUSH20 0xFFFFFFFFFFFFFFFFFFFFFFFFFFFFFFFFFFFFFFFF DUP1 SWAP3 AND DUP5 MSTORE AND PUSH1 0x20 DUP4 ADD MSTORE PUSH1 0x40 DUP3 ADD MSTORE ADD MSTORE JUMP JUMPDEST SWAP1 MLOAD PUSH32 0x520F832F00000000000000000000000000000000000000000000000000000000 DUP2 MSTORE REVERT JUMPDEST SWAP1 POP PUSH1 0x20 DUP2 RETURNDATASIZE DUP3 GT PUSH2 0x2F74 JUMPI JUMPDEST DUP2 PUSH2 0x2F5D PUSH1 0x20 SWAP4 DUP4 PUSH2 0x36C0 JUMP JUMPDEST DUP2 ADD SUB SLT PUSH2 0x1B8E JUMPI PUSH2 0x2F6E SWAP1 PUSH2 0x3B69 JUMP JUMPDEST CODESIZE PUSH2 0x2E61 JUMP JUMPDEST RETURNDATASIZE SWAP2 POP PUSH2 0x2F50 JUMP JUMPDEST DUP4 MLOAD RETURNDATASIZE DUP10 DUP3 RETURNDATACOPY RETURNDATASIZE SWAP1 REVERT JUMPDEST DUP6 SWAP5 PUSH2 0x2E64 JUMP JUMPDEST POP CALLVALUE PUSH2 0x3F7 JUMPI DUP2 PUSH32 0xFFFFFFFFFFFFFFFFFFFFFFFFFFFFFFFFFFFFFFFFFFFFFFFFFFFFFFFFFFFFFFFC CALLDATASIZE ADD SLT PUSH2 0x3F7 JUMPI PUSH1 0x20 SWAP1 PUSH1 0xA SLOAD SWAP1 MLOAD SWAP1 DUP2 MSTORE RETURN JUMPDEST POP DUP3 CALLVALUE PUSH2 0x4A0 JUMPI PUSH1 0x20 SWAP2 DUP3 PUSH32 0xFFFFFFFFFFFFFFFFFFFFFFFFFFFFFFFFFFFFFFFFFFFFFFFFFFFFFFFFFFFFFFFC CALLDATASIZE ADD SLT PUSH2 0x2366 JUMPI DUP2 CALLDATALOAD SWAP3 PUSH20 0xFFFFFFFFFFFFFFFFFFFFFFFFFFFFFFFFFFFFFFFF DUP5 AND SWAP3 DUP4 DUP6 SUB PUSH2 0x17EC JUMPI PUSH2 0x3026 PUSH2 0x4301 JUMP JUMPDEST PUSH2 0x302E PUSH2 0x4A14 JUMP JUMPDEST PUSH4 0x70A08231 DUP7 MSTORE ADDRESS DUP3 MSTORE DUP6 DUP3 DUP1 PUSH1 0x24 PUSH1 0x1C DUP10 GAS STATICCALL PUSH1 0x1F RETURNDATASIZE GT AND DUP4 MLOAD MUL SWAP6 DUP7 PUSH2 0x3089 JUMPI JUMPDEST POP POP POP SWAP1 PUSH32 0xEE2522CA264E96C7CEF76269664E2A4CEA70AD76B78EE5B01D0587798A0A72D6 SWAP2 PUSH1 0x1 SLOAD SWAP1 DUP3 MLOAD SWAP6 DUP7 MSTORE DUP6 ADD MSTORE CALLER SWAP4 LOG3 DUP1 RETURN JUMPDEST SWAP1 PUSH1 0x44 PUSH1 0x16 DUP3 DUP7 SWAP5 CALLER PUSH1 0x1A MSTORE DUP11 PUSH1 0x3A MSTORE PUSH10 0xA9059CBB000000000000 DUP3 MSTORE GAS CALL RETURNDATASIZE ISZERO PUSH1 0x1 DUP9 MLOAD EQ OR AND ISZERO PUSH2 0x30E4 JUMPI POP PUSH1 0x3A DUP6 SWAP1 MSTORE PUSH32 0xEE2522CA264E96C7CEF76269664E2A4CEA70AD76B78EE5B01D0587798A0A72D6 DUP6 DUP8 PUSH2 0x3051 JUMP JUMPDEST PUSH4 0x90B8EC18 DUP7 MSTORE PUSH1 0x1C REVERT JUMPDEST POP CALLVALUE PUSH2 0x3F7 JUMPI DUP2 PUSH32 0xFFFFFFFFFFFFFFFFFFFFFFFFFFFFFFFFFFFFFFFFFFFFFFFFFFFFFFFFFFFFFFFC CALLDATASIZE ADD SLT PUSH2 0x3F7 JUMPI PUSH1 0x20 SWAP1 MLOAD PUSH4 0xB473500 DUP2 MSTORE RETURN JUMPDEST POP CALLVALUE PUSH2 0x3F7 JUMPI DUP2 PUSH32 0xFFFFFFFFFFFFFFFFFFFFFFFFFFFFFFFFFFFFFFFFFFFFFFFFFFFFFFFFFFFFFFFC CALLDATASIZE ADD SLT PUSH2 0x3F7 JUMPI PUSH1 0x1 SLOAD PUSH1 0x1 DUP2 ADD DUP1 SWAP2 GT PUSH2 0x3193 JUMPI PUSH2 0x1268 SWAP1 PUSH32 0x0 SWAP1 PUSH2 0x38DD JUMP JUMPDEST PUSH1 0x24 DUP4 PUSH1 0x11 DUP7 PUSH32 0x4E487B7100000000000000000000000000000000000000000000000000000000 DUP4 MSTORE MSTORE REVERT JUMPDEST POP SWAP1 CALLVALUE PUSH2 0x59D JUMPI PUSH1 0x20 PUSH32 0xFFFFFFFFFFFFFFFFFFFFFFFFFFFFFFFFFFFFFFFFFFFFFFFFFFFFFFFFFFFFFFFC CALLDATASIZE ADD SLT PUSH2 0x59D JUMPI POP PUSH2 0x26B7 PUSH2 0x3215 PUSH2 0x320F PUSH2 0x140 SWAP5 PUSH2 0x3206 PUSH2 0x3A3D JUMP JUMPDEST POP CALLDATALOAD PUSH1 0x2 PUSH2 0x3A8C JUMP JUMPDEST POP PUSH2 0x3AD7 JUMP JUMPDEST SWAP2 MLOAD DUP1 SWAP3 DUP1 MLOAD ISZERO ISZERO DUP3 MSTORE PUSH1 0x20 DUP2 ADD MLOAD PUSH1 0x20 DUP4 ADD MSTORE PUSH20 0xFFFFFFFFFFFFFFFFFFFFFFFFFFFFFFFFFFFFFFFF DUP1 PUSH1 0x40 DUP4 ADD MLOAD AND PUSH1 0x40 DUP5 ADD MSTORE DUP1 PUSH1 0x60 DUP4 ADD MLOAD AND PUSH1 0x60 DUP5 ADD MSTORE PUSH1 0x80 DUP3 ADD MLOAD PUSH1 0x80 DUP5 ADD MSTORE PUSH1 0xA0 DUP3 ADD MLOAD PUSH1 0xA0 DUP5 ADD MSTORE PUSH1 0xC0 DUP3 ADD MLOAD PUSH1 0xC0 DUP5 ADD MSTORE PUSH1 0xE0 DUP3 ADD MLOAD PUSH1 0xE0 DUP5 ADD MSTORE PUSH2 0x100 SWAP1 DUP2 DUP4 ADD MLOAD AND SWAP1 DUP4 ADD MSTORE PUSH2 0x120 DUP1 SWAP2 ADD MLOAD SWAP2 ADD MSTORE JUMP JUMPDEST POP CALLVALUE PUSH2 0x3F7 JUMPI DUP2 PUSH32 0xFFFFFFFFFFFFFFFFFFFFFFFFFFFFFFFFFFFFFFFFFFFFFFFFFFFFFFFFFFFFFFFC CALLDATASIZE ADD SLT PUSH2 0x3F7 JUMPI PUSH1 0x20 SWAP1 PUSH3 0x15180 PUSH2 0xBAC TIMESTAMP PUSH1 0x8 SLOAD PUSH2 0x3811 JUMP JUMPDEST POP CALLVALUE PUSH2 0x3F7 JUMPI DUP2 PUSH32 0xFFFFFFFFFFFFFFFFFFFFFFFFFFFFFFFFFFFFFFFFFFFFFFFFFFFFFFFFFFFFFFFC CALLDATASIZE ADD SLT PUSH2 0x3F7 JUMPI PUSH1 0x20 SWAP1 PUSH1 0xB SLOAD SWAP1 MLOAD SWAP1 DUP2 MSTORE RETURN JUMPDEST POP CALLVALUE PUSH2 0x3F7 JUMPI DUP2 PUSH32 0xFFFFFFFFFFFFFFFFFFFFFFFFFFFFFFFFFFFFFFFFFFFFFFFFFFFFFFFFFFFFFFFC CALLDATASIZE ADD SLT PUSH2 0x3F7 JUMPI PUSH1 0x20 SWAP1 MLOAD PUSH32 0x0 DUP2 MSTORE RETURN JUMPDEST POP SWAP1 CALLVALUE PUSH2 0x59D JUMPI PUSH1 0x20 PUSH32 0xFFFFFFFFFFFFFFFFFFFFFFFFFFFFFFFFFFFFFFFFFFFFFFFFFFFFFFFFFFFFFFFC CALLDATASIZE ADD SLT PUSH2 0x59D JUMPI DUP2 PUSH2 0x599 SWAP2 DUP5 CALLDATALOAD DUP2 MSTORE PUSH1 0x3 PUSH1 0x20 MSTORE KECCAK256 SWAP2 DUP3 SLOAD SWAP3 PUSH1 0x1 DUP2 ADD SLOAD SWAP5 PUSH1 0x2 DUP3 ADD SLOAD PUSH1 0x5 PUSH1 0x3 DUP5 ADD SLOAD SWAP3 DUP5 ADD SLOAD SWAP4 ADD SLOAD SWAP4 MLOAD SWAP7 DUP8 SWAP7 DUP8 SWAP3 PUSH1 0xA0 SWAP5 SWAP2 SWAP8 SWAP7 SWAP6 SWAP3 PUSH1 0xC0 DUP6 ADD SWAP9 DUP6 MSTORE PUSH1 0x20 DUP6 ADD MSTORE PUSH1 0x40 DUP5 ADD MSTORE PUSH1 0x60 DUP4 ADD MSTORE PUSH1 0x80 DUP3 ADD MSTORE ADD MSTORE JUMP JUMPDEST POP DUP3 SWAP1 CALLVALUE PUSH2 0x4A0 JUMPI PUSH1 0x60 PUSH32 0xFFFFFFFFFFFFFFFFFFFFFFFFFFFFFFFFFFFFFFFFFFFFFFFFFFFFFFFFFFFFFFFC CALLDATASIZE ADD SLT PUSH2 0x4A0 JUMPI DUP2 CALLDATALOAD SWAP1 PUSH20 0xFFFFFFFFFFFFFFFFFFFFFFFFFFFFFFFFFFFFFFFF DUP1 DUP4 AND SWAP4 DUP5 DUP5 SUB PUSH2 0x17EC JUMPI PUSH1 0x24 CALLDATALOAD SWAP4 DUP5 ISZERO ISZERO DUP6 SUB PUSH2 0x1B8E JUMPI PUSH1 0x44 CALLDATALOAD SWAP5 DUP4 DUP7 AND DUP1 SWAP7 SUB PUSH2 0x352C JUMPI PUSH2 0x3481 SWAP2 PUSH2 0x3474 PUSH2 0x4301 JUMP JUMPDEST PUSH2 0x347C PUSH2 0x49BE JUMP JUMPDEST PUSH2 0x3CF7 JUMP JUMPDEST SWAP2 DUP6 DUP8 MSTORE DUP2 PUSH1 0x20 MSTORE DUP4 DUP8 KECCAK256 SWAP3 AND SWAP2 DUP3 DUP8 MSTORE PUSH1 0x20 MSTORE DUP3 DUP7 KECCAK256 SWAP1 PUSH1 0xFF DUP3 SLOAD AND ISZERO PUSH2 0x3505 JUMPI POP PUSH1 0x8 ADD DUP1 SLOAD PUSH32 0xFFFFFFFFFFFFFFFFFFFFFFFF0000000000000000000000000000000000000000 AND DUP5 OR SWAP1 SSTORE DUP2 MLOAD SWAP4 DUP5 MSTORE PUSH1 0x20 DUP5 ADD MSTORE DUP3 ADD MSTORE PUSH32 0x755D52111EED94748D2BB23652CA518A2FB5AE59C7CCC52B553930263DD1A8FE SWAP1 PUSH1 0x60 SWAP1 LOG1 DUP1 RETURN JUMPDEST DUP4 MLOAD PUSH32 0x520F832F00000000000000000000000000000000000000000000000000000000 DUP2 MSTORE REVERT JUMPDEST DUP8 DUP1 REVERT JUMPDEST POP CALLVALUE PUSH2 0x3F7 JUMPI DUP2 PUSH32 0xFFFFFFFFFFFFFFFFFFFFFFFFFFFFFFFFFFFFFFFFFFFFFFFFFFFFFFFFFFFFFFFC CALLDATASIZE ADD SLT PUSH2 0x3F7 JUMPI PUSH1 0x20 SWAP1 PUSH2 0x898 PUSH1 0x8 SLOAD TIMESTAMP SWAP1 PUSH2 0x3811 JUMP JUMPDEST SWAP3 SWAP4 SWAP1 POP CALLVALUE PUSH2 0x2366 JUMPI DUP4 PUSH32 0xFFFFFFFFFFFFFFFFFFFFFFFFFFFFFFFFFFFFFFFFFFFFFFFFFFFFFFFFFFFFFFFC CALLDATASIZE ADD SLT PUSH2 0x2366 JUMPI PUSH1 0x6 SLOAD PUSH1 0x1 DUP2 DUP2 SHR SWAP2 DUP7 SWAP1 DUP3 DUP2 AND DUP1 ISZERO PUSH2 0x36B6 JUMPI JUMPDEST PUSH1 0x20 SWAP6 DUP7 DUP7 LT DUP3 EQ PUSH2 0x368A JUMPI POP DUP5 DUP9 MSTORE SWAP1 DUP2 ISZERO PUSH2 0x364A JUMPI POP PUSH1 0x1 EQ PUSH2 0x35F1 JUMPI JUMPDEST PUSH2 0x599 DUP7 DUP7 PUSH2 0x35E7 DUP3 DUP12 SUB DUP4 PUSH2 0x36C0 JUMP JUMPDEST MLOAD SWAP2 DUP3 SWAP2 DUP3 PUSH2 0x3730 JUMP JUMPDEST SWAP3 SWAP6 POP PUSH1 0x6 DUP4 MSTORE PUSH32 0xF652222313E28459528D920B65115C16C04F3EFC82AAEDC97BE59F3F377C0D3F JUMPDEST DUP3 DUP5 LT PUSH2 0x3637 JUMPI POP POP POP DUP3 PUSH2 0x599 SWAP5 PUSH2 0x35E7 SWAP3 DUP3 ADD ADD SWAP5 CODESIZE PUSH2 0x35D6 JUMP JUMPDEST DUP1 SLOAD DUP7 DUP6 ADD DUP9 ADD MSTORE SWAP3 DUP7 ADD SWAP3 DUP2 ADD PUSH2 0x361A JUMP JUMPDEST PUSH32 0xFFFFFFFFFFFFFFFFFFFFFFFFFFFFFFFFFFFFFFFFFFFFFFFFFFFFFFFFFFFFFF00 AND DUP8 DUP7 ADD MSTORE POP POP POP ISZERO ISZERO PUSH1 0x5 SHL DUP4 ADD ADD SWAP3 POP PUSH2 0x35E7 DUP3 PUSH2 0x599 CODESIZE PUSH2 0x35D6 JUMP JUMPDEST DUP4 PUSH1 0x22 PUSH1 0x24 SWAP3 PUSH32 0x4E487B7100000000000000000000000000000000000000000000000000000000 DUP4 MSTORE MSTORE REVERT JUMPDEST SWAP4 PUSH1 0x7F AND SWAP4 PUSH2 0x35B6 JUMP JUMPDEST SWAP1 PUSH1 0x1F PUSH32 0xFFFFFFFFFFFFFFFFFFFFFFFFFFFFFFFFFFFFFFFFFFFFFFFFFFFFFFFFFFFFFFE0 SWAP2 ADD AND DUP2 ADD SWAP1 DUP2 LT PUSH8 0xFFFFFFFFFFFFFFFF DUP3 GT OR PUSH2 0x3701 JUMPI PUSH1 0x40 MSTORE JUMP JUMPDEST PUSH32 0x4E487B7100000000000000000000000000000000000000000000000000000000 PUSH1 0x0 MSTORE PUSH1 0x41 PUSH1 0x4 MSTORE PUSH1 0x24 PUSH1 0x0 REVERT JUMPDEST PUSH1 0x20 DUP1 DUP3 MSTORE DUP3 MLOAD DUP2 DUP4 ADD DUP2 SWAP1 MSTORE SWAP4 SWAP3 PUSH1 0x0 JUMPDEST DUP6 DUP2 LT PUSH2 0x3782 JUMPI POP POP POP PUSH32 0xFFFFFFFFFFFFFFFFFFFFFFFFFFFFFFFFFFFFFFFFFFFFFFFFFFFFFFFFFFFFFFE0 PUSH1 0x1F DUP5 PUSH1 0x0 PUSH1 0x40 DUP1 SWAP7 SWAP8 DUP7 ADD ADD MSTORE ADD AND ADD ADD SWAP1 JUMP JUMPDEST DUP2 DUP2 ADD DUP4 ADD MLOAD DUP5 DUP3 ADD PUSH1 0x40 ADD MSTORE DUP3 ADD PUSH2 0x3742 JUMP JUMPDEST DUP2 DUP2 MUL SWAP3 SWAP2 DUP2 ISZERO SWAP2 DUP5 DIV EQ OR ISZERO PUSH2 0x37A9 JUMPI JUMP JUMPDEST PUSH32 0x4E487B7100000000000000000000000000000000000000000000000000000000 PUSH1 0x0 MSTORE PUSH1 0x11 PUSH1 0x4 MSTORE PUSH1 0x24 PUSH1 0x0 REVERT JUMPDEST DUP2 ISZERO PUSH2 0x37E2 JUMPI DIV SWAP1 JUMP JUMPDEST PUSH32 0x4E487B7100000000000000000000000000000000000000000000000000000000 PUSH1 0x0 MSTORE PUSH1 0x12 PUSH1 0x4 MSTORE PUSH1 0x24 PUSH1 0x0 REVERT JUMPDEST SWAP2 SWAP1 DUP3 SUB SWAP2 DUP3 GT PUSH2 0x37A9 JUMPI JUMP JUMPDEST PUSH1 0x9C SUB PUSH1 0x9C DUP2 GT PUSH2 0x37A9 JUMPI PUSH8 0xDE0B6B3A7640000 PUSH1 0x0 SWAP2 DUP3 SWAP1 JUMPDEST DUP1 DUP3 LT PUSH2 0x388C JUMPI POP POP PUSH8 0xDE0B6B3A7640000 SUB SWAP1 PUSH8 0xDE0B6B3A7640000 DUP3 GT PUSH2 0x385F JUMPI POP SWAP1 JUMP JUMPDEST DUP1 PUSH32 0x4E487B7100000000000000000000000000000000000000000000000000000000 PUSH1 0x24 SWAP3 MSTORE PUSH1 0x11 PUSH1 0x4 MSTORE REVERT JUMPDEST SWAP1 SWAP2 PUSH8 0xDBD2FC137A30000 SWAP1 PUSH25 0x12A21131081AFAF01AD7D1536EAB728FD168D79ABC89B12C5F DUP2 GT DUP3 MUL PUSH2 0x38D0 JUMPI PUSH8 0xDE0B6B3A7640000 SWAP2 MUL DIV SWAP2 PUSH1 0x1 ADD SWAP1 PUSH2 0x3838 JUMP JUMPDEST PUSH4 0xBAC65E5B DUP6 MSTORE PUSH1 0x4 PUSH1 0x1C REVERT JUMPDEST SWAP1 PUSH1 0x0 SWAP2 PUSH2 0x38EA DUP4 PUSH2 0x381E JUMP JUMPDEST DUP4 SWAP1 DUP1 DUP6 SUB DUP2 AND SWAP1 DUP2 DUP2 DIV SWAP2 PUSH1 0x1 SWAP6 DUP7 SWAP4 DUP5 DUP4 DUP1 DUP12 SUB DIV ADD SWAP1 PUSH1 0x2 DUP1 DUP3 PUSH1 0x3 MUL XOR DUP1 DUP4 MUL DUP3 SUB MUL DUP1 DUP4 MUL DUP3 SUB MUL DUP1 DUP4 MUL DUP3 SUB MUL DUP1 DUP4 MUL DUP3 SUB MUL DUP1 DUP4 MUL DUP3 SUB MUL DUP1 SWAP3 MUL SWAP1 SUB MUL SWAP5 PUSH2 0x39A6 JUMPI JUMPDEST POP POP POP POP POP SWAP2 SWAP1 DUP4 JUMPDEST DUP2 DUP6 LT PUSH2 0x3952 JUMPI POP POP POP PUSH3 0x1281FB SWAP2 POP DIV SWAP1 JUMP JUMPDEST SWAP1 SWAP2 SWAP3 PUSH8 0xDBD2FC137A30000 SWAP1 PUSH25 0x12A21131081AFAF01AD7D1536EAB728FD168D79ABC89B12C5F DUP2 GT DUP3 MUL PUSH2 0x3999 JUMPI SWAP5 DUP5 ADD SWAP5 PUSH8 0xDE0B6B3A7640000 SWAP2 MUL DIV SWAP3 SWAP2 SWAP1 PUSH2 0x393E JUMP JUMPDEST PUSH4 0xBAC65E5B DUP4 MSTORE PUSH1 0x4 PUSH1 0x1C REVERT JUMPDEST SWAP1 SWAP2 SWAP3 SWAP4 SWAP5 POP PUSH7 0x2386F26FC10000 SWAP4 DUP5 DUP4 MUL SWAP5 PUSH32 0xFFFFFFFFFFFFFFFFFFFFFFFFFFFFFFFFFFFFFFFFFFFFFFFFFFFFFFFFFFFFFFFF DUP2 DUP6 MULMOD SWAP4 DUP7 DUP6 LT DUP8 ADD DUP1 DUP7 SUB SWAP6 EQ PUSH2 0x3A18 JUMPI DUP5 DUP4 GT ISZERO PUSH2 0x3A0B JUMPI MULMOD SWAP2 DUP5 DUP4 GT SWAP1 SUB MUL SWAP3 SUB DIV OR MUL CODESIZE DUP1 DUP1 DUP1 DUP1 PUSH2 0x3935 JUMP JUMPDEST PUSH4 0xAE47F702 DUP12 MSTORE PUSH1 0x4 PUSH1 0x1C REVERT JUMPDEST POP POP SWAP5 POP POP POP POP DUP2 ISZERO PUSH2 0x3A30 JUMPI DIV CODESIZE DUP1 DUP1 DUP1 DUP1 PUSH2 0x3935 JUMP JUMPDEST PUSH4 0xAE47F702 DUP6 MSTORE PUSH1 0x4 PUSH1 0x1C REVERT JUMPDEST PUSH1 0x40 MLOAD SWAP1 PUSH2 0x3A4D PUSH2 0x140 DUP4 PUSH2 0x36C0 JUMP JUMPDEST DUP2 PUSH2 0x120 PUSH1 0x0 SWAP2 DUP3 DUP2 MSTORE DUP3 PUSH1 0x20 DUP3 ADD MSTORE DUP3 PUSH1 0x40 DUP3 ADD MSTORE DUP3 PUSH1 0x60 DUP3 ADD MSTORE DUP3 PUSH1 0x80 DUP3 ADD MSTORE DUP3 PUSH1 0xA0 DUP3 ADD MSTORE DUP3 PUSH1 0xC0 DUP3 ADD MSTORE DUP3 PUSH1 0xE0 DUP3 ADD MSTORE DUP3 PUSH2 0x100 DUP3 ADD MSTORE ADD MSTORE JUMP JUMPDEST DUP1 SLOAD DUP3 LT ISZERO PUSH2 0x3AA8 JUMPI PUSH1 0x0 MSTORE PUSH1 0xA PUSH1 0x20 PUSH1 0x0 KECCAK256 SWAP2 MUL ADD SWAP1 PUSH1 0x0 SWAP1 JUMP JUMPDEST PUSH32 0x4E487B7100000000000000000000000000000000000000000000000000000000 PUSH1 0x0 MSTORE PUSH1 0x32 PUSH1 0x4 MSTORE PUSH1 0x24 PUSH1 0x0 REVERT JUMPDEST SWAP1 PUSH1 0x40 MLOAD PUSH2 0x3AE7 PUSH2 0x140 DUP3 PUSH2 0x36C0 JUMP JUMPDEST PUSH2 0x120 PUSH1 0x9 DUP3 SWAP5 PUSH1 0xFF DUP2 SLOAD AND ISZERO ISZERO DUP5 MSTORE PUSH1 0x1 DUP2 ADD SLOAD PUSH1 0x20 DUP6 ADD MSTORE PUSH20 0xFFFFFFFFFFFFFFFFFFFFFFFFFFFFFFFFFFFFFFFF DUP1 PUSH1 0x2 DUP4 ADD SLOAD AND PUSH1 0x40 DUP7 ADD MSTORE DUP1 PUSH1 0x3 DUP4 ADD SLOAD AND PUSH1 0x60 DUP7 ADD MSTORE PUSH1 0x4 DUP3 ADD SLOAD PUSH1 0x80 DUP7 ADD MSTORE PUSH1 0x5 DUP3 ADD SLOAD PUSH1 0xA0 DUP7 ADD MSTORE PUSH1 0x6 DUP3 ADD SLOAD PUSH1 0xC0 DUP7 ADD MSTORE PUSH1 0x7 DUP3 ADD SLOAD PUSH1 0xE0 DUP7 ADD MSTORE PUSH1 0x8 DUP3 ADD SLOAD AND PUSH2 0x100 DUP6 ADD MSTORE ADD SLOAD SWAP2 ADD MSTORE JUMP JUMPDEST MLOAD SWAP1 PUSH20 0xFFFFFFFFFFFFFFFFFFFFFFFFFFFFFFFFFFFFFFFF DUP3 AND DUP3 SUB PUSH2 0x3B8A JUMPI JUMP JUMPDEST PUSH1 0x0 DUP1 REVERT JUMPDEST SWAP2 SWAP1 DUP3 ADD DUP1 SWAP3 GT PUSH2 0x37A9 JUMPI JUMP JUMPDEST DUP2 DUP2 SUB SWAP3 SWAP2 PUSH1 0x0 SGT DUP1 ISZERO DUP3 DUP6 SGT AND SWAP2 DUP5 SLT AND OR PUSH2 0x37A9 JUMPI JUMP JUMPDEST SWAP1 SWAP2 PUSH20 0xFFFFFFFFFFFFFFFFFFFFFFFFFFFFFFFFFFFFFFFF DUP1 SWAP3 AND PUSH1 0x0 SWAP2 DUP2 DUP4 MSTORE PUSH1 0x20 SWAP4 PUSH1 0x4 DUP6 MSTORE PUSH1 0x40 SWAP6 DUP2 DUP8 DUP7 KECCAK256 SWAP2 AND SWAP1 DUP2 DUP7 MSTORE DUP7 MSTORE PUSH2 0x3BF6 DUP8 DUP7 KECCAK256 PUSH2 0x3AD7 JUMP JUMPDEST SWAP4 DUP6 MSTORE PUSH1 0x5 DUP7 MSTORE DUP7 DUP6 KECCAK256 SWAP1 DUP6 MSTORE DUP6 MSTORE DUP6 DUP5 KECCAK256 SWAP2 AND DUP4 MSTORE DUP4 MSTORE PUSH1 0x1 DUP5 DUP4 KECCAK256 PUSH2 0x3C1F DUP7 MLOAD SWAP7 DUP8 PUSH2 0x36C0 JUMP JUMPDEST DUP1 SLOAD DUP7 MSTORE ADD SLOAD SWAP3 DUP5 ADD SWAP3 DUP4 MSTORE PUSH1 0xA0 DUP2 ADD MLOAD SWAP2 PUSH1 0x80 DUP3 ADD MLOAD SWAP2 PUSH1 0xC0 DUP2 ADD MLOAD DUP1 TIMESTAMP GT DUP1 PUSH2 0x3CEE JUMPI JUMPDEST PUSH2 0x3C73 JUMPI JUMPDEST POP POP POP POP PUSH2 0x3C67 PUSH10 0xD3C21BCECCEDA1000000 SWAP2 PUSH2 0x3C70 SWAP5 MLOAD PUSH2 0x3796 JUMP JUMPDEST DIV SWAP1 MLOAD SWAP1 PUSH2 0x3B9C JUMP JUMPDEST SWAP1 JUMP JUMPDEST PUSH2 0x3CA7 SWAP2 PUSH1 0xE0 PUSH2 0x3C95 PUSH2 0x3C8C PUSH2 0x3C9E SWAP5 SWAP11 SWAP10 SWAP11 TIMESTAMP PUSH2 0x3811 JUMP JUMPDEST PUSH1 0x9 SLOAD SWAP1 PUSH2 0x3796 JUMP JUMPDEST SWAP2 ADD MLOAD SWAP1 PUSH2 0x3796 JUMP JUMPDEST PUSH1 0xB SLOAD SWAP1 PUSH2 0x37D8 JUMP JUMPDEST SWAP1 PUSH10 0xD3C21BCECCEDA1000000 SWAP2 DUP3 DUP2 MUL SWAP3 DUP2 DUP5 DIV EQ SWAP1 ISZERO OR ISZERO PUSH2 0x385F JUMPI POP SWAP3 PUSH2 0x3CE6 PUSH10 0xD3C21BCECCEDA1000000 SWAP4 PUSH2 0x9D9 PUSH2 0x3C67 SWAP5 PUSH2 0x3C70 SWAP9 SWAP8 PUSH2 0x37D8 JUMP JUMPDEST SWAP3 DUP2 SWAP6 PUSH2 0x3C4A JUMP JUMPDEST POP DUP4 ISZERO ISZERO PUSH2 0x3C45 JUMP JUMPDEST SWAP1 PUSH1 0x0 SWAP1 ISZERO PUSH2 0x3D99 JUMPI POP PUSH1 0x20 PUSH20 0xFFFFFFFFFFFFFFFFFFFFFFFFFFFFFFFFFFFFFFFF SWAP2 PUSH1 0x4 PUSH1 0x40 MLOAD DUP1 SWAP5 DUP2 SWAP4 PUSH32 0xD8DFEB4500000000000000000000000000000000000000000000000000000000 DUP4 MSTORE AND GAS STATICCALL SWAP1 DUP2 ISZERO PUSH2 0x3D8D JUMPI PUSH1 0x0 SWAP2 PUSH2 0x3D5A JUMPI POP SWAP1 JUMP JUMPDEST SWAP1 PUSH1 0x20 DUP3 RETURNDATASIZE DUP3 GT PUSH2 0x3D85 JUMPI JUMPDEST DUP2 PUSH2 0x3D73 PUSH1 0x20 SWAP4 DUP4 PUSH2 0x36C0 JUMP JUMPDEST DUP2 ADD SUB SLT PUSH2 0x59D JUMPI POP PUSH2 0x3C70 SWAP1 PUSH2 0x3B69 JUMP JUMPDEST RETURNDATASIZE SWAP2 POP PUSH2 0x3D66 JUMP JUMPDEST PUSH1 0x40 MLOAD RETURNDATASIZE PUSH1 0x0 DUP3 RETURNDATACOPY RETURNDATASIZE SWAP1 REVERT JUMPDEST SWAP1 POP SWAP1 JUMP JUMPDEST SWAP1 DUP2 SLOAD PUSH8 0xFFFFFFFFFFFFFFFF DUP2 GT PUSH2 0x3701 JUMPI PUSH1 0x40 MLOAD SWAP3 PUSH1 0x20 PUSH2 0x3DC5 DUP2 DUP5 PUSH1 0x5 SHL ADD DUP7 PUSH2 0x36C0 JUMP JUMPDEST DUP3 DUP6 MSTORE PUSH1 0x0 SWAP2 DUP3 MSTORE DUP1 DUP3 KECCAK256 DUP2 DUP7 ADD JUMPDEST DUP5 DUP5 LT PUSH2 0x3DE2 JUMPI POP POP POP POP POP JUMP JUMPDEST PUSH1 0xA DUP4 PUSH1 0x1 SWAP3 PUSH2 0x3DF1 DUP6 PUSH2 0x3AD7 JUMP JUMPDEST DUP2 MSTORE ADD SWAP3 ADD SWAP4 ADD SWAP3 SWAP1 PUSH2 0x3DD4 JUMP JUMPDEST PUSH32 0xFFFFFFFFFFFFFFFFFFFFFFFFFFFFFFFFFFFFFFFFFFFFFFFFFFFFFFFFFFFFFFFF DUP2 EQ PUSH2 0x37A9 JUMPI PUSH1 0x1 ADD SWAP1 JUMP JUMPDEST DUP1 MLOAD DUP3 LT ISZERO PUSH2 0x3AA8 JUMPI PUSH1 0x20 SWAP2 PUSH1 0x5 SHL ADD ADD SWAP1 JUMP JUMPDEST PUSH1 0x1 SLOAD PUSH1 0x9B DUP2 EQ PUSH2 0x3E6D JUMPI PUSH1 0x0 MSTORE PUSH1 0x3 PUSH1 0x20 MSTORE PUSH3 0x15180 PUSH2 0x3E69 TIMESTAMP PUSH1 0x5 PUSH1 0x40 PUSH1 0x0 KECCAK256 ADD SLOAD PUSH2 0x3811 JUMP JUMPDEST DIV SWAP1 JUMP JUMPDEST POP PUSH1 0x0 SWAP1 JUMP JUMPDEST PUSH1 0x1 SLOAD DUP1 ISZERO PUSH2 0x3F48 JUMPI PUSH32 0xFFFFFFFFFFFFFFFFFFFFFFFFFFFFFFFFFFFFFFFFFFFFFFFFFFFFFFFFFFFFFFFF DUP2 ADD SWAP1 DUP2 GT PUSH2 0x37A9 JUMPI PUSH1 0x0 MSTORE PUSH1 0x3 PUSH1 0x20 MSTORE PUSH1 0x4 PUSH1 0x40 PUSH1 0x0 KECCAK256 ADD SLOAD SWAP1 PUSH3 0x15180 SWAP2 PUSH3 0xAFA6C DUP4 DUP3 DIV ADD SWAP2 PUSH3 0x23AB1 SWAP2 DUP3 DUP5 MOD SWAP3 PUSH1 0x1 PUSH2 0x16D SWAP5 DUP6 PUSH3 0x23AB0 DUP3 EQ PUSH2 0x5B4 DUP4 DIV PUSH2 0x8EAC DUP5 DIV DUP5 ADD SUB SUB DIV SWAP6 PUSH1 0x64 DUP8 DIV SWAP1 DUP8 DUP1 PUSH1 0x2 SHR SWAP2 MUL ADD SUB SWAP1 SUB PUSH2 0x301 PUSH2 0xF4FF PUSH1 0x99 PUSH1 0x2 DUP5 PUSH1 0x5 MUL ADD DIV SWAP9 PUSH1 0x3 PUSH1 0xC PUSH1 0x9 DUP13 GT MUL DUP12 SUB ADD SWAP11 DUP12 SWAP8 MOD SWAP9 PUSH2 0x190 PUSH2 0xE10 SWAP8 PUSH1 0x3 DUP10 DUP14 MOD SWAP11 LT SWAP4 DIV MUL ADD ADD SWAP10 SWAP9 MUL ADD PUSH1 0xB SHR SWAP1 SUB ADD SWAP4 DIV SWAP2 PUSH1 0x3C DUP1 DUP4 DIV SWAP3 MOD SWAP1 JUMP JUMPDEST POP PUSH1 0x0 SWAP1 PUSH1 0x0 SWAP1 PUSH1 0x0 SWAP1 PUSH1 0x0 SWAP1 PUSH1 0x0 SWAP1 PUSH1 0x0 SWAP1 JUMP JUMPDEST SWAP2 SWAP1 SWAP2 PUSH1 0x0 DUP4 DUP3 ADD SWAP4 DUP5 SLT SWAP2 SLT SWAP1 DUP1 ISZERO DUP3 AND SWAP2 ISZERO AND OR PUSH2 0x37A9 JUMPI JUMP JUMPDEST SWAP3 SWAP2 SWAP1 PUSH20 0xFFFFFFFFFFFFFFFFFFFFFFFFFFFFFFFFFFFFFFFF DUP1 SWAP5 AND SWAP2 DUP3 ISZERO DUP1 ISZERO PUSH2 0x419F JUMPI JUMPDEST PUSH2 0x4198 JUMPI PUSH2 0x3FAC DUP2 CALLER PUSH2 0x4245 JUMP JUMPDEST SWAP1 PUSH1 0x0 SWAP6 CALLER DUP8 MSTORE PUSH1 0x5 PUSH1 0x20 MSTORE PUSH1 0x40 SWAP3 DUP2 DUP5 DUP10 KECCAK256 SWAP4 AND SWAP3 DUP4 DUP10 MSTORE PUSH1 0x20 MSTORE DUP4 DUP9 KECCAK256 DUP7 DUP10 MSTORE PUSH1 0x20 MSTORE DUP4 DUP9 KECCAK256 PUSH2 0x3FDF DUP2 SLOAD DUP8 PUSH2 0x3B9C JUMP JUMPDEST SWAP1 PUSH1 0x5 DUP4 ADD SLOAD SWAP1 DUP2 DUP4 MUL SWAP2 PUSH32 0x8000000000000000000000000000000000000000000000000000000000000000 DUP2 EQ DUP13 DUP6 SLT AND PUSH2 0x416B JUMPI DUP4 DUP4 SDIV EQ DUP4 ISZERO OR ISZERO PUSH2 0x413E JUMPI SWAP1 PUSH2 0x4044 PUSH10 0xD3C21BCECCEDA1000000 PUSH1 0x1 DUP5 DUP12 PUSH1 0x8 SWAP9 SWAP8 SWAP7 SSTORE ADD SWAP3 SDIV DUP3 SLOAD PUSH2 0x3F5D JUMP JUMPDEST SWAP1 SSTORE PUSH2 0x4055 PUSH1 0x4 DUP4 ADD SWAP2 DUP3 SLOAD PUSH2 0x3F5D JUMP JUMPDEST SWAP1 SSTORE ADD SLOAD AND DUP1 PUSH2 0x4096 JUMPI JUMPDEST POP PUSH32 0xEAC61DE046AFFCA7FE9AD670A0122F505F4D6F907F7863E84CA5CA89028B1787 SWAP3 SWAP4 SWAP5 SWAP6 POP DUP2 MLOAD SWAP4 DUP5 MSTORE PUSH1 0x20 DUP5 ADD MSTORE CALLER SWAP3 LOG3 JUMP JUMPDEST DUP1 DUP8 SWAP2 EXTCODESIZE ISZERO PUSH2 0x3F7 JUMPI DUP2 SWAP1 PUSH1 0xC4 DUP6 MLOAD DUP1 SWAP5 DUP2 SWAP4 PUSH32 0x250939CE00000000000000000000000000000000000000000000000000000000 DUP4 MSTORE CALLER PUSH1 0x4 DUP5 ADD MSTORE DUP8 PUSH1 0x24 DUP5 ADD MSTORE DUP11 PUSH1 0x44 DUP5 ADD MSTORE DUP11 PUSH1 0x64 DUP5 ADD MSTORE DUP2 PUSH1 0x84 DUP5 ADD MSTORE DUP10 PUSH1 0xA4 DUP5 ADD MSTORE GAS CALL DUP1 ISZERO PUSH2 0x2F7C JUMPI SWAP7 PUSH32 0xEAC61DE046AFFCA7FE9AD670A0122F505F4D6F907F7863E84CA5CA89028B1787 SWAP5 SWAP6 SWAP7 SWAP8 PUSH2 0x412E JUMPI JUMPDEST POP DUP7 SWAP6 SWAP5 SWAP4 POP PUSH2 0x4060 JUMP JUMPDEST PUSH2 0x4137 SWAP2 PUSH2 0x36C0 JUMP JUMPDEST CODESIZE DUP1 PUSH2 0x4123 JUMP JUMPDEST PUSH1 0x24 DUP12 PUSH32 0x4E487B7100000000000000000000000000000000000000000000000000000000 DUP2 MSTORE PUSH1 0x11 PUSH1 0x4 MSTORE REVERT JUMPDEST PUSH1 0x24 DUP13 PUSH32 0x4E487B7100000000000000000000000000000000000000000000000000000000 DUP2 MSTORE PUSH1 0x11 PUSH1 0x4 MSTORE REVERT JUMPDEST POP POP POP SWAP1 POP JUMP JUMPDEST POP PUSH1 0x40 MLOAD PUSH32 0x5B068AF800000000000000000000000000000000000000000000000000000000 DUP2 MSTORE PUSH1 0x20 DUP2 PUSH1 0x4 DUP2 DUP10 PUSH32 0x0 AND GAS STATICCALL DUP1 ISZERO PUSH2 0x3D8D JUMPI DUP7 SWAP2 PUSH1 0x0 SWAP2 PUSH2 0x420A JUMPI JUMPDEST POP AND DUP4 EQ PUSH2 0x3F9E JUMP JUMPDEST SWAP2 POP PUSH1 0x20 DUP3 RETURNDATASIZE DUP3 GT PUSH2 0x423D JUMPI JUMPDEST DUP2 PUSH2 0x4224 PUSH1 0x20 SWAP4 DUP4 PUSH2 0x36C0 JUMP JUMPDEST DUP2 ADD SUB SLT PUSH2 0x59D JUMPI POP PUSH2 0x4237 DUP7 SWAP2 PUSH2 0x3B69 JUMP JUMPDEST CODESIZE PUSH2 0x4201 JUMP JUMPDEST RETURNDATASIZE SWAP2 POP PUSH2 0x4217 JUMP JUMPDEST SWAP2 SWAP1 PUSH20 0xFFFFFFFFFFFFFFFFFFFFFFFFFFFFFFFFFFFFFFFF DUP1 PUSH1 0x0 SWAP5 AND DUP5 MSTORE PUSH1 0x4 PUSH1 0x20 MSTORE PUSH1 0x40 DUP5 KECCAK256 SWAP2 AND DUP4 MSTORE PUSH1 0x20 MSTORE PUSH1 0x40 DUP3 KECCAK256 SWAP2 PUSH1 0x6 DUP4 ADD SWAP1 DUP2 SLOAD SWAP1 DUP2 TIMESTAMP GT PUSH2 0x428C JUMPI POP POP POP JUMP JUMPDEST PUSH1 0x4 DUP6 ADD SLOAD SWAP2 DUP3 PUSH2 0x42A0 JUMPI JUMPDEST POP POP POP TIMESTAMP SWAP1 SSTORE JUMP JUMPDEST PUSH2 0x3C9E PUSH2 0x42B5 PUSH2 0x42C0 SWAP3 PUSH1 0x9 SLOAD SWAP1 TIMESTAMP SUB PUSH2 0x3796 JUMP JUMPDEST PUSH1 0x7 DUP9 ADD SLOAD SWAP1 PUSH2 0x3796 JUMP JUMPDEST SWAP1 PUSH10 0xD3C21BCECCEDA1000000 SWAP2 DUP3 DUP2 MUL SWAP3 DUP2 DUP5 DIV EQ SWAP1 ISZERO OR ISZERO PUSH2 0x385F JUMPI POP SWAP1 PUSH2 0x42E8 SWAP2 PUSH2 0x37D8 JUMP JUMPDEST PUSH2 0x42F7 PUSH1 0x5 DUP6 ADD SWAP2 DUP3 SLOAD PUSH2 0x3B8F JUMP JUMPDEST SWAP1 SSTORE CODESIZE DUP1 DUP1 PUSH2 0x4298 JUMP JUMPDEST PUSH2 0x4314 PUSH1 0xD SLOAD PUSH3 0x1281FB SWAP2 DUP3 SWAP2 TIMESTAMP PUSH2 0x3811 JUMP JUMPDEST DIV PUSH2 0x431C JUMPI POP JUMP JUMPDEST SWAP1 PUSH1 0x1 SLOAD PUSH1 0x1 DUP2 ADD SWAP1 DUP2 DUP2 GT PUSH2 0x37A9 JUMPI PUSH1 0x9C DUP3 LT ISZERO PUSH2 0x4494 JUMPI TIMESTAMP PUSH1 0xD SSTORE PUSH1 0x9 SLOAD PUSH2 0x4366 PUSH32 0x0 DUP5 PUSH2 0x38DD JUMP JUMPDEST PUSH1 0x9 SSTORE PUSH1 0x0 SWAP5 DUP4 DUP7 MSTORE PUSH1 0x3 PUSH1 0x20 MSTORE PUSH1 0x40 DUP7 KECCAK256 SWAP1 TIMESTAMP PUSH1 0x4 DUP4 ADD SSTORE DUP1 TIMESTAMP ADD DUP1 TIMESTAMP GT PUSH2 0x4467 JUMPI PUSH1 0x5 DUP4 ADD SSTORE DUP5 DUP3 SSTORE PUSH1 0x9 SLOAD DUP1 PUSH1 0x1 DUP5 ADD SSTORE DUP2 DUP2 MUL SWAP2 DUP2 DUP4 DIV EQ SWAP1 ISZERO OR ISZERO PUSH2 0x443A JUMPI SWAP6 PUSH1 0x3 DUP3 PUSH32 0xCC53A96DDDB8D3B8710C4932D9E90652A4EAEF0BF4C37A13DC4D806E1B54CB4D SWAP8 SWAP9 PUSH1 0x2 PUSH2 0x4434 SWAP7 SWAP6 ADD SSTORE ADD SSTORE PUSH2 0x4406 PUSH32 0x0 DUP6 PUSH2 0x38DD JUMP JUMPDEST PUSH1 0xA SSTORE DUP4 PUSH1 0x1 SSTORE PUSH1 0x9 SLOAD SWAP1 PUSH1 0x40 MLOAD SWAP5 DUP6 SWAP5 DUP6 SWAP1 SWAP5 SWAP4 SWAP3 PUSH1 0x60 SWAP3 PUSH1 0x80 DUP4 ADD SWAP7 DUP4 MSTORE PUSH1 0x20 DUP4 ADD MSTORE PUSH1 0x40 DUP3 ADD MSTORE ADD MSTORE JUMP JUMPDEST SUB SWAP1 LOG1 JUMPDEST JUMP JUMPDEST PUSH1 0x24 DUP8 PUSH32 0x4E487B7100000000000000000000000000000000000000000000000000000000 DUP2 MSTORE PUSH1 0x11 PUSH1 0x4 MSTORE REVERT JUMPDEST PUSH1 0x24 DUP9 PUSH32 0x4E487B7100000000000000000000000000000000000000000000000000000000 DUP2 MSTORE PUSH1 0x11 PUSH1 0x4 MSTORE REVERT JUMPDEST POP POP SWAP1 POP PUSH2 0x4438 JUMPDEST PUSH1 0xFF PUSH1 0xE SLOAD PUSH1 0xA0 SHR AND ISZERO PUSH2 0x44F0 JUMPI PUSH32 0x3448D68E439B81DF30DBD68606F415F65C9EABAAEF0ACA1FFC0368CC3954C6DC PUSH1 0x80 PUSH1 0x7 SLOAD PUSH1 0x8 SLOAD PUSH1 0x1 SLOAD SWAP1 PUSH1 0x40 MLOAD SWAP3 CALLER DUP5 MSTORE PUSH1 0x20 DUP5 ADD MSTORE PUSH1 0x40 DUP4 ADD MSTORE PUSH1 0x60 DUP3 ADD MSTORE LOG1 JUMP JUMPDEST PUSH32 0x4E487B7100000000000000000000000000000000000000000000000000000000 PUSH1 0x0 MSTORE PUSH1 0x1 PUSH1 0x4 MSTORE PUSH1 0x24 PUSH1 0x0 REVERT JUMPDEST SWAP3 SWAP2 PUSH2 0x452B DUP3 DUP6 PUSH2 0x4245 JUMP JUMPDEST SWAP4 PUSH1 0x0 SWAP3 PUSH20 0xFFFFFFFFFFFFFFFFFFFFFFFFFFFFFFFFFFFFFFFF DUP1 SWAP3 AND DUP1 DUP6 MSTORE PUSH1 0x5 PUSH1 0x20 MSTORE PUSH1 0x40 SWAP3 DUP1 DUP5 DUP8 KECCAK256 SWAP4 AND SWAP3 DUP4 DUP8 MSTORE PUSH1 0x20 MSTORE DUP4 DUP7 KECCAK256 CALLER DUP8 MSTORE PUSH1 0x20 MSTORE DUP4 DUP7 KECCAK256 SWAP1 PUSH10 0xD3C21BCECCEDA1000000 PUSH2 0x4587 DUP4 SLOAD PUSH1 0x5 DUP13 ADD SLOAD SWAP1 PUSH2 0x3796 JUMP JUMPDEST DIV PUSH1 0x1 DUP4 ADD SWAP10 PUSH2 0x4598 DUP12 SLOAD DUP4 PUSH2 0x3B9C JUMP JUMPDEST SWAP2 DUP10 DUP4 SLT PUSH2 0x4715 JUMPI SWAP1 DUP4 SWAP2 DUP4 SWAP13 SSTORE DUP3 PUSH2 0x465D JUMPI JUMPDEST PUSH1 0x8 ADD SLOAD AND SWAP3 DUP4 PUSH2 0x45C3 JUMPI JUMPDEST POP POP POP POP POP POP POP POP POP JUMP JUMPDEST SLOAD SWAP2 DUP4 EXTCODESIZE ISZERO PUSH2 0x4659 JUMPI SWAP3 DUP9 SWAP6 SWAP5 SWAP3 DUP7 SWAP3 PUSH1 0xC4 SWAP6 DUP10 MLOAD SWAP11 DUP12 SWAP9 DUP10 SWAP8 PUSH32 0x250939CE00000000000000000000000000000000000000000000000000000000 DUP10 MSTORE PUSH1 0x4 DUP10 ADD MSTORE PUSH1 0x24 DUP9 ADD MSTORE CALLER PUSH1 0x44 DUP9 ADD MSTORE AND PUSH1 0x64 DUP7 ADD MSTORE PUSH1 0x84 DUP6 ADD MSTORE PUSH1 0xA4 DUP5 ADD MSTORE GAS CALL SWAP1 DUP2 ISZERO PUSH2 0x4650 JUMPI POP PUSH2 0x463B JUMPI JUMPDEST DUP1 DUP1 DUP1 DUP1 DUP1 DUP1 DUP1 PUSH2 0x45B8 JUMP JUMPDEST PUSH2 0x4646 DUP3 DUP1 SWAP3 PUSH2 0x36C0 JUMP JUMPDEST PUSH2 0x59D JUMPI DUP1 PUSH2 0x462F JUMP JUMPDEST MLOAD RETURNDATASIZE DUP5 DUP3 RETURNDATACOPY RETURNDATASIZE SWAP1 REVERT JUMPDEST DUP9 DUP1 REVERT JUMPDEST SWAP1 PUSH32 0x0 AND DUP1 EXTCODESIZE ISZERO PUSH2 0x4711 JUMPI DUP8 MLOAD PUSH32 0x40C10F1900000000000000000000000000000000000000000000000000000000 DUP2 MSTORE PUSH20 0xFFFFFFFFFFFFFFFFFFFFFFFFFFFFFFFFFFFFFFFF DUP11 AND PUSH1 0x4 DUP3 ADD MSTORE PUSH1 0x24 DUP2 ADD DUP5 SWAP1 MSTORE SWAP1 DUP11 SWAP1 DUP3 SWAP1 PUSH1 0x44 SWAP1 DUP3 SWAP1 DUP5 SWAP1 GAS CALL DUP1 ISZERO PUSH2 0x4707 JUMPI PUSH2 0x46F0 JUMPI JUMPDEST POP DUP3 SWAP1 PUSH2 0x45AC JUMP JUMPDEST DUP10 PUSH2 0x46FF DUP6 SWAP4 SWAP12 PUSH1 0x8 SWAP4 PUSH2 0x36C0 JUMP JUMPDEST SWAP10 SWAP2 POP PUSH2 0x46E8 JUMP JUMPDEST DUP9 MLOAD RETURNDATASIZE DUP13 DUP3 RETURNDATACOPY RETURNDATASIZE SWAP1 REVERT JUMPDEST DUP10 DUP1 REVERT JUMPDEST PUSH1 0x4 DUP9 MLOAD PUSH32 0x7A043E8300000000000000000000000000000000000000000000000000000000 DUP2 MSTORE REVERT JUMPDEST PUSH2 0x4748 PUSH1 0x2 PUSH2 0x3D9E JUMP JUMPDEST DUP1 MLOAD SWAP1 PUSH1 0x0 JUMPDEST DUP3 DUP2 LT PUSH2 0x479A JUMPI POP POP PUSH1 0x60 PUSH32 0x43604600D5D5B743877B9625896FEA0414A17136BBE657753A96DC6F80EDE1B9 SWAP2 PUSH2 0x4783 PUSH2 0x47E4 JUMP JUMPDEST PUSH1 0x1 SLOAD PUSH1 0x40 MLOAD SWAP2 DUP3 MSTORE CALLER PUSH1 0x20 DUP4 ADD MSTORE PUSH1 0x40 DUP3 ADD MSTORE LOG1 JUMP JUMPDEST PUSH1 0x1 SWAP1 PUSH2 0x47DD PUSH20 0xFFFFFFFFFFFFFFFFFFFFFFFFFFFFFFFFFFFFFFFF DUP1 PUSH1 0x40 PUSH2 0x47C2 DUP6 DUP9 PUSH2 0x3E2C JUMP JUMPDEST MLOAD ADD MLOAD AND SWAP1 PUSH1 0x60 PUSH2 0x47D3 DUP6 DUP9 PUSH2 0x3E2C JUMP JUMPDEST MLOAD ADD MLOAD AND SWAP1 PUSH2 0x4245 JUMP JUMPDEST POP ADD PUSH2 0x474E JUMP JUMPDEST PUSH2 0x47F3 PUSH2 0xC31 PUSH1 0xC SLOAD TIMESTAMP PUSH2 0x3811 JUMP JUMPDEST DUP1 ISZERO PUSH2 0x49A1 JUMPI TIMESTAMP PUSH1 0xC SSTORE PUSH1 0x40 MLOAD SWAP1 PUSH32 0x5B068AF800000000000000000000000000000000000000000000000000000000 DUP3 MSTORE PUSH20 0xFFFFFFFFFFFFFFFFFFFFFFFFFFFFFFFFFFFFFFFF PUSH1 0x20 DUP4 PUSH1 0x4 DUP2 DUP5 PUSH32 0x0 AND GAS STATICCALL SWAP3 DUP4 ISZERO PUSH2 0x3D8D JUMPI PUSH1 0x0 SWAP4 PUSH2 0x4966 JUMPI JUMPDEST POP PUSH32 0x0 AND SWAP2 DUP3 EXTCODESIZE ISZERO PUSH2 0x3B8A JUMPI PUSH1 0x40 MLOAD PUSH32 0x40C10F1900000000000000000000000000000000000000000000000000000000 DUP2 MSTORE PUSH20 0xFFFFFFFFFFFFFFFFFFFFFFFFFFFFFFFFFFFFFFFF DUP3 AND PUSH1 0x4 DUP3 ADD MSTORE PUSH1 0x24 DUP2 ADD DUP4 SWAP1 MSTORE SWAP3 PUSH1 0x0 SWAP1 DUP5 SWAP1 PUSH1 0x44 SWAP1 DUP3 SWAP1 DUP5 SWAP1 GAS CALL SWAP3 DUP4 ISZERO PUSH2 0x3D8D JUMPI PUSH32 0x8C7C728114C112045E2034993BDDD9085D8389598519C107B239314593FE87A5 SWAP4 PUSH2 0x4955 JUMPI JUMPDEST POP PUSH1 0x40 DUP1 MLOAD PUSH20 0xFFFFFFFFFFFFFFFFFFFFFFFFFFFFFFFFFFFFFFFF SWAP1 SWAP3 AND DUP3 MSTORE PUSH1 0x20 DUP3 ADD SWAP3 SWAP1 SWAP3 MSTORE SWAP1 DUP2 SWAP1 DUP2 ADD PUSH2 0x4434 JUMP JUMPDEST PUSH1 0x0 PUSH2 0x4960 SWAP2 PUSH2 0x36C0 JUMP JUMPDEST CODESIZE PUSH2 0x4924 JUMP JUMPDEST SWAP1 SWAP3 PUSH1 0x20 DUP3 RETURNDATASIZE DUP3 GT PUSH2 0x4999 JUMPI JUMPDEST DUP2 PUSH2 0x4980 PUSH1 0x20 SWAP4 DUP4 PUSH2 0x36C0 JUMP JUMPDEST DUP2 ADD SUB SLT PUSH2 0x59D JUMPI POP PUSH2 0x4992 SWAP1 PUSH2 0x3B69 JUMP JUMPDEST SWAP2 CODESIZE PUSH2 0x4873 JUMP JUMPDEST RETURNDATASIZE SWAP2 POP PUSH2 0x4973 JUMP JUMPDEST POP JUMP JUMPDEST PUSH2 0x49AC PUSH2 0x473E JUMP JUMPDEST PUSH1 0x9C PUSH1 0x1 SLOAD LT PUSH2 0x4438 JUMPI PUSH2 0x4438 PUSH2 0x449C JUMP JUMPDEST PUSH1 0xE SLOAD PUSH20 0xFFFFFFFFFFFFFFFFFFFFFFFFFFFFFFFFFFFFFFFF AND DUP1 ISZERO PUSH2 0x4A0F JUMPI CALLER SUB PUSH2 0x49E5 JUMPI JUMP JUMPDEST PUSH1 0x4 PUSH1 0x40 MLOAD PUSH32 0xDE19271900000000000000000000000000000000000000000000000000000000 DUP2 MSTORE REVERT JUMPDEST POP PUSH2 0x4438 JUMPDEST PUSH1 0x40 MLOAD PUSH32 0xF851A44000000000000000000000000000000000000000000000000000000000 DUP2 MSTORE PUSH20 0xFFFFFFFFFFFFFFFFFFFFFFFFFFFFFFFFFFFFFFFF SWAP1 PUSH1 0x20 DUP2 PUSH1 0x4 DUP2 DUP6 PUSH32 0x0 AND GAS STATICCALL SWAP1 DUP2 ISZERO PUSH2 0x3D8D JUMPI PUSH1 0x0 SWAP2 PUSH2 0x4ABE JUMPI JUMPDEST POP AND CALLER SUB PUSH2 0x4A94 JUMPI JUMP JUMPDEST PUSH1 0x4 PUSH1 0x40 MLOAD PUSH32 0x6EF4C9A400000000000000000000000000000000000000000000000000000000 DUP2 MSTORE REVERT JUMPDEST SWAP1 PUSH1 0x20 DUP3 RETURNDATASIZE DUP3 GT PUSH2 0x4AEF JUMPI JUMPDEST DUP2 PUSH2 0x4AD7 PUSH1 0x20 SWAP4 DUP4 PUSH2 0x36C0 JUMP JUMPDEST DUP2 ADD SUB SLT PUSH2 0x59D JUMPI POP PUSH2 0x4AE9 SWAP1 PUSH2 0x3B69 JUMP JUMPDEST CODESIZE PUSH2 0x4A8A JUMP JUMPDEST RETURNDATASIZE SWAP2 POP PUSH2 0x4ACA JUMP JUMPDEST PUSH1 0xE SLOAD PUSH1 0xFF DUP2 PUSH1 0xA0 SHR AND PUSH2 0x49A1 JUMPI PUSH1 0x60 PUSH21 0x10000000000000000000000000000000000000000 PUSH32 0xFFFFFFFFFFFFFFFFFFFFFF00FFFFFFFFFFFFFFFFFFFFFFFFFFFFFFFFFFFFFFFF PUSH32 0x1B3587203E8359719DF4287C466107760E0F3ED9B52697DF913D0A18877ECA2B SWAP4 AND OR DUP1 PUSH1 0xE SSTORE PUSH1 0xFF PUSH1 0x40 MLOAD SWAP2 TIMESTAMP DUP4 MSTORE CALLER PUSH1 0x20 DUP5 ADD MSTORE PUSH1 0xA0 SHR AND ISZERO ISZERO PUSH1 0x40 DUP3 ADD MSTORE LOG1 JUMP JUMPDEST PUSH8 0xDE0B6B3A7640000 SWAP1 PUSH25 0x12725DD1D243ABA0E75FE645CC4873F9E65AFE688C928E1F21 DUP2 GT DUP3 MUL ISZERO DUP4 MUL ISZERO PUSH2 0x4BB8 JUMPI MUL DIV SWAP1 JUMP JUMPDEST PUSH4 0x7C5F487D PUSH1 0x0 MSTORE PUSH1 0x4 PUSH1 0x1C REVERT INVALID LOG1 PUSH5 0x736F6C6343 STOP ADDMOD GT STOP EXP "},"methodIdentifiers":{"BLOCKS_PER_EPOCH()":"1f3adc0f","DURATION()":"1be05289","REDUCTION_FACTOR_PER_EPOCH()":"28419d62","SECONDS_PER_YEAR()":"e6a69ab8","TOTAL_EPOCHS()":"5f15c3c9","accelerateTheUniverse()":"f2b128a4","adjustRewards(address,uint256,bool)":"1ca56c7d","advanceEpoch()":"3cf80e6c","allShuttles(uint256)":"1ad4c8c3","artificer()":"82cb4381","artificerEnabled()":"8f9c87f0","birth()":"c81ba8f0","blocksThisEpoch()":"ac9462f5","calculateCygPerBlock(uint256,uint256)":"23f83a01","calculateEpochRewards(uint256,uint256)":"47989b95","collect(address,bool,address)":"5013f141","collectAll(address)":"d657c9e7","collectAllSingle(address,bool)":"aeeab13b","currentEpochRewards()":"9e81b634","currentEpochRewardsDAO()":"4b53d71d","cygPerBlockDAO()":"1c59a85e","cygPerBlockRewards()":"44a2ea72","cygToken()":"4f573686","dateCurrentEpochStart()":"a1d50e80","dateEpochEnd(uint256)":"dcec9572","dateEpochStart(uint256)":"e5fc0205","dateLastEpochStart()":"5e18ebab","dateNextEpochStart()":"34ef642e","dateSupernova()":"717462ab","daysPassedThisEpoch()":"9acaf956","daysUntilNextEpoch()":"43d6dc94","daysUntilSupernova()":"1aa46ba1","death()":"6fa42261","diffDays(uint256,uint256)":"c9d34622","doomswitch()":"acd22cf0","dripCygDAO()":"c4eb01cf","emissionsCurve(uint256)":"72e127cb","epochProgression()":"6673fd97","epochRewardsPacing()":"5104517f","getBlockTimestamp()":"796b89b9","getCurrentEpoch()":"b97dd9e2","getEpochInfo(uint256)":"135022c2","getShuttleById(uint256)":"4b2d7aa8","getShuttleInfo(address,address)":"68709629","getUserInfo(address,address,address)":"85786968","hangar18()":"e8a24e1d","initializePillars()":"8d71bef4","lastDripDAO()":"3f610512","lastEpochTime()":"89c614b8","name()":"06fdde03","nextEpochRewards()":"1bafed52","pendingBonusReward(address,address,address)":"375b5e77","pendingCyg(address,address,bool)":"c2c42cde","pendingCygAll(address)":"b6b8eb9e","pendingCygDAO()":"c60cd3ac","pendingCygSingle(address,bool)":"ccd4620f","previousEpochRewards()":"58322a8e","removeBonusRewarder(address,bool)":"4aa64029","setArtificer(address)":"6933ecc2","setBonusRewarder(address,bool,address)":"10843823","setDoomswitch()":"444fd7a0","setShuttleRewards(address,uint256,bool)":"7212df81","shuttlesLength()":"53cde488","supernova()":"4a91f2b1","sweepNative()":"ab803a76","sweepToken(address)":"1be19560","timestampToDateTime(uint256)":"ea1c1690","totalAllocPoint()":"17caf6f1","totalCygClaimed()":"4fcc5575","totalCygDAO()":"17635d9d","totalCygRewards()":"d4f7286b","totalProgression()":"d797c4c3","trackRewards(address,uint256,address)":"697dbb56","untilNextEpoch()":"f458a2df","untilSupernova()":"0bc67598","updateShuttle(address,bool)":"7873ced8","version()":"54fd4d50"}}}}}