{"contracts/CygnusComplexRewarder.sol":{"CygnusComplexRewarder":{"abi":[{"inputs":[{"internalType":"contract IHangar18","name":"_hangar18","type":"address"},{"internalType":"address","name":"_rewardToken","type":"address"},{"internalType":"uint256","name":"_totalRewards","type":"uint256"}],"stateMutability":"nonpayable","type":"constructor"},{"inputs":[{"internalType":"address","name":"token","type":"address"},{"internalType":"address","name":"underlying","type":"address"}],"name":"CygnusComplexRewarder__CantSweepUnderlying","type":"error"},{"inputs":[{"internalType":"uint256","name":"max","type":"uint256"},{"internalType":"uint256","name":"value","type":"uint256"}],"name":"CygnusComplexRewarder__CygPerBlockExceedsLimit","type":"error"},{"inputs":[{"internalType":"address","name":"admin","type":"address"},{"internalType":"address","name":"sender","type":"address"}],"name":"CygnusComplexRewarder__MsgSenderNotAdmin","type":"error"},{"inputs":[{"internalType":"address","name":"borrowable","type":"address"},{"internalType":"address","name":"sender","type":"address"}],"name":"CygnusComplexRewarder__MsgSenderNotBorrowable","type":"error"},{"inputs":[{"internalType":"address","name":"sender","type":"address"},{"internalType":"address","name":"origin","type":"address"}],"name":"CygnusComplexRewarder__OnlyEOAAllowed","type":"error"},{"inputs":[{"internalType":"uint256","name":"shuttleId","type":"uint256"},{"internalType":"address","name":"borrowable","type":"address"}],"name":"CygnusComplexRewarder__ShuttleAlreadyInitialized","type":"error"},{"inputs":[{"internalType":"uint256","name":"shuttleId","type":"uint256"},{"internalType":"address","name":"borrowable","type":"address"}],"name":"CygnusComplexRewarder__ShuttleNotInitialized","type":"error"},{"inputs":[{"internalType":"uint256","name":"prod1","type":"uint256"}],"name":"PRBMath__MulDivFixedPointOverflow","type":"error"},{"inputs":[{"internalType":"uint256","name":"prod1","type":"uint256"},{"internalType":"uint256","name":"denominator","type":"uint256"}],"name":"PRBMath__MulDivOverflow","type":"error"},{"inputs":[],"name":"ReentrantCall","type":"error"},{"anonymous":false,"inputs":[{"indexed":true,"internalType":"address","name":"borrowable","type":"address"},{"indexed":false,"internalType":"address","name":"sender","type":"address"},{"indexed":false,"internalType":"uint256","name":"reward","type":"uint256"}],"name":"CollectReward","type":"event"},{"anonymous":false,"inputs":[{"indexed":false,"internalType":"uint256","name":"lastRewardRate","type":"uint256"},{"indexed":false,"internalType":"uint256","name":"newRewardRate","type":"uint256"}],"name":"NewCygPerBlock","type":"event"},{"anonymous":false,"inputs":[{"indexed":false,"internalType":"uint256","name":"previousEpoch","type":"uint256"},{"indexed":false,"internalType":"uint256","name":"newEpoch","type":"uint256"},{"indexed":false,"internalType":"uint256","name":"_oldCygPerBlock","type":"uint256"},{"indexed":false,"internalType":"uint256","name":"_newCygPerBlock","type":"uint256"}],"name":"NewEpoch","type":"event"},{"anonymous":false,"inputs":[{"indexed":true,"internalType":"uint256","name":"shuttleId","type":"uint256"},{"indexed":false,"internalType":"address","name":"borrowable","type":"address"},{"indexed":false,"internalType":"uint256","name":"oldAllocPoint","type":"uint256"},{"indexed":false,"internalType":"uint256","name":"newAllocPoint","type":"uint256"}],"name":"NewShuttleAllocPoint","type":"event"},{"anonymous":false,"inputs":[{"indexed":true,"internalType":"uint256","name":"shuttleId","type":"uint256"},{"indexed":true,"internalType":"address","name":"borrowable","type":"address"},{"indexed":false,"internalType":"uint256","name":"allocPoints","type":"uint256"}],"name":"NewShuttleReward","type":"event"},{"anonymous":false,"inputs":[{"indexed":false,"internalType":"address","name":"sender","type":"address"},{"indexed":false,"internalType":"uint256","name":"_birth","type":"uint256"},{"indexed":false,"internalType":"uint256","name":"_death","type":"uint256"},{"indexed":false,"internalType":"uint256","name":"timestamp","type":"uint256"}],"name":"Supernova","type":"event"},{"anonymous":false,"inputs":[{"indexed":true,"internalType":"address","name":"token","type":"address"},{"indexed":true,"internalType":"address","name":"sender","type":"address"},{"indexed":false,"internalType":"uint256","name":"amount","type":"uint256"},{"indexed":false,"internalType":"uint256","name":"currentEpoch","type":"uint256"}],"name":"SweepToken","type":"event"},{"anonymous":false,"inputs":[{"indexed":true,"internalType":"address","name":"borrowable","type":"address"},{"indexed":true,"internalType":"address","name":"borrower","type":"address"},{"indexed":false,"internalType":"uint256","name":"borrowBalance","type":"uint256"},{"indexed":false,"internalType":"uint256","name":"borrowIndex","type":"uint256"}],"name":"TrackBorrow","type":"event"},{"anonymous":false,"inputs":[{"indexed":true,"internalType":"address","name":"borrowable","type":"address"},{"indexed":false,"internalType":"uint256","name":"lastRewardTime","type":"uint256"},{"indexed":false,"internalType":"uint256","name":"totalShares","type":"uint256"},{"indexed":false,"internalType":"uint256","name":"accRewardPerShare","type":"uint256"}],"name":"UpdateStar","type":"event"},{"inputs":[],"name":"ACC_PRECISION","outputs":[{"internalType":"uint256","name":"","type":"uint256"}],"stateMutability":"view","type":"function"},{"inputs":[],"name":"BLOCKS_PER_YEAR","outputs":[{"internalType":"uint256","name":"","type":"uint256"}],"stateMutability":"view","type":"function"},{"inputs":[],"name":"DURATION","outputs":[{"internalType":"uint256","name":"","type":"uint256"}],"stateMutability":"view","type":"function"},{"inputs":[],"name":"EPOCH_DURATION","outputs":[{"internalType":"uint256","name":"","type":"uint256"}],"stateMutability":"view","type":"function"},{"inputs":[],"name":"MAX_CYG_PER_BLOCK","outputs":[{"internalType":"uint256","name":"","type":"uint256"}],"stateMutability":"view","type":"function"},{"inputs":[],"name":"REDUCTION_FACTOR_PER_EPOCH","outputs":[{"internalType":"uint256","name":"","type":"uint256"}],"stateMutability":"view","type":"function"},{"inputs":[],"name":"SHARES_PRECISION","outputs":[{"internalType":"uint256","name":"","type":"uint256"}],"stateMutability":"view","type":"function"},{"inputs":[],"name":"TOTAL_EPOCHS","outputs":[{"internalType":"uint256","name":"","type":"uint256"}],"stateMutability":"view","type":"function"},{"inputs":[],"name":"accelerateTheUniverse","outputs":[],"stateMutability":"nonpayable","type":"function"},{"inputs":[{"internalType":"uint256","name":"shuttleId","type":"uint256"},{"internalType":"uint256","name":"allocPoint","type":"uint256"}],"name":"adjustShuttleRewards","outputs":[],"stateMutability":"nonpayable","type":"function"},{"inputs":[],"name":"advanceEpoch","outputs":[],"stateMutability":"nonpayable","type":"function"},{"inputs":[{"internalType":"uint256","name":"","type":"uint256"}],"name":"allStars","outputs":[{"internalType":"address","name":"","type":"address"}],"stateMutability":"view","type":"function"},{"inputs":[],"name":"birth","outputs":[{"internalType":"uint256","name":"","type":"uint256"}],"stateMutability":"view","type":"function"},{"inputs":[{"internalType":"uint256","name":"epoch","type":"uint256"}],"name":"calculateCygPerBlock","outputs":[{"internalType":"uint256","name":"_rewardRate","type":"uint256"}],"stateMutability":"view","type":"function"},{"inputs":[{"internalType":"uint256","name":"epoch","type":"uint256"}],"name":"calculateEpochRewards","outputs":[{"internalType":"uint256","name":"rewards","type":"uint256"}],"stateMutability":"view","type":"function"},{"inputs":[{"internalType":"address","name":"borrowable","type":"address"},{"internalType":"address","name":"to","type":"address"}],"name":"collect","outputs":[],"stateMutability":"nonpayable","type":"function"},{"inputs":[],"name":"currentEpochRewards","outputs":[{"internalType":"uint256","name":"","type":"uint256"}],"stateMutability":"view","type":"function"},{"inputs":[],"name":"cygClaimed","outputs":[{"internalType":"uint256","name":"","type":"uint256"}],"stateMutability":"view","type":"function"},{"inputs":[],"name":"cygPerBlock","outputs":[{"internalType":"uint256","name":"","type":"uint256"}],"stateMutability":"view","type":"function"},{"inputs":[],"name":"cygToken","outputs":[{"internalType":"address","name":"","type":"address"}],"stateMutability":"view","type":"function"},{"inputs":[],"name":"death","outputs":[{"internalType":"uint256","name":"","type":"uint256"}],"stateMutability":"view","type":"function"},{"inputs":[{"internalType":"uint256","name":"epoch","type":"uint256"}],"name":"emissionsCurve","outputs":[{"internalType":"uint256","name":"","type":"uint256"}],"stateMutability":"pure","type":"function"},{"inputs":[],"name":"epochProgression","outputs":[{"internalType":"uint256","name":"","type":"uint256"}],"stateMutability":"view","type":"function"},{"inputs":[],"name":"getBlockTimestamp","outputs":[{"internalType":"uint256","name":"","type":"uint256"}],"stateMutability":"view","type":"function"},{"inputs":[],"name":"getCurrentEpoch","outputs":[{"internalType":"uint256","name":"currentEpoch","type":"uint256"}],"stateMutability":"view","type":"function"},{"inputs":[{"internalType":"uint256","name":"","type":"uint256"}],"name":"getEpochInfo","outputs":[{"internalType":"uint256","name":"epoch","type":"uint256"},{"internalType":"uint256","name":"rewardRate","type":"uint256"},{"internalType":"uint256","name":"totalRewards","type":"uint256"},{"internalType":"uint256","name":"totalClaimed","type":"uint256"},{"internalType":"uint256","name":"start","type":"uint256"},{"internalType":"uint256","name":"end","type":"uint256"}],"stateMutability":"view","type":"function"},{"inputs":[{"internalType":"address","name":"","type":"address"}],"name":"getStarInfo","outputs":[{"internalType":"uint256","name":"totalShares","type":"uint256"},{"internalType":"uint256","name":"accRewardPerShare","type":"uint256"},{"internalType":"uint256","name":"lastRewardTime","type":"uint256"},{"internalType":"uint256","name":"allocPoint","type":"uint256"}],"stateMutability":"view","type":"function"},{"inputs":[{"internalType":"address","name":"","type":"address"},{"internalType":"address","name":"","type":"address"}],"name":"getUserInfo","outputs":[{"internalType":"uint256","name":"shares","type":"uint256"},{"internalType":"int256","name":"rewardDebt","type":"int256"}],"stateMutability":"view","type":"function"},{"inputs":[],"name":"hangar18","outputs":[{"internalType":"contract IHangar18","name":"","type":"address"}],"stateMutability":"view","type":"function"},{"inputs":[{"internalType":"uint256","name":"shuttleId","type":"uint256"},{"internalType":"uint256","name":"allocPoint","type":"uint256"}],"name":"initializeShuttleRewards","outputs":[],"stateMutability":"nonpayable","type":"function"},{"inputs":[],"name":"lastEpochTime","outputs":[{"internalType":"uint256","name":"","type":"uint256"}],"stateMutability":"view","type":"function"},{"inputs":[{"internalType":"address","name":"borrowable","type":"address"},{"internalType":"address","name":"_user","type":"address"}],"name":"pendingCyg","outputs":[{"internalType":"uint256","name":"pending","type":"uint256"}],"stateMutability":"view","type":"function"},{"inputs":[{"internalType":"uint256","name":"_cygPerBlock","type":"uint256"}],"name":"setCygPerBlock","outputs":[],"stateMutability":"nonpayable","type":"function"},{"inputs":[],"name":"starsLength","outputs":[{"internalType":"uint256","name":"","type":"uint256"}],"stateMutability":"view","type":"function"},{"inputs":[],"name":"supernova","outputs":[],"stateMutability":"nonpayable","type":"function"},{"inputs":[{"internalType":"address","name":"token","type":"address"}],"name":"sweepToken","outputs":[],"stateMutability":"nonpayable","type":"function"},{"inputs":[],"name":"timeUntilNextEpoch","outputs":[{"internalType":"uint256","name":"","type":"uint256"}],"stateMutability":"view","type":"function"},{"inputs":[],"name":"timeUntilSupernova","outputs":[{"internalType":"uint256","name":"","type":"uint256"}],"stateMutability":"view","type":"function"},{"inputs":[],"name":"totalAllocPoint","outputs":[{"internalType":"uint256","name":"","type":"uint256"}],"stateMutability":"view","type":"function"},{"inputs":[],"name":"totalCyg","outputs":[{"internalType":"uint256","name":"","type":"uint256"}],"stateMutability":"view","type":"function"},{"inputs":[],"name":"totalProgression","outputs":[{"internalType":"uint256","name":"","type":"uint256"}],"stateMutability":"view","type":"function"},{"inputs":[{"internalType":"uint256","name":"shuttleId","type":"uint256"},{"internalType":"address","name":"borrower","type":"address"},{"internalType":"uint256","name":"borrowBalance","type":"uint256"},{"internalType":"uint256","name":"borrowIndex","type":"uint256"}],"name":"trackBorrow","outputs":[],"stateMutability":"nonpayable","type":"function"},{"inputs":[{"internalType":"address","name":"borrowable","type":"address"}],"name":"updateStar","outputs":[],"stateMutability":"nonpayable","type":"function"}],"evm":{"bytecode":{"linkReferences":{},"object":"6101006040523480156200001257600080fd5b506040516200287a3803806200287a833981016040819052620000359162000604565b6000805460ff1916600117815560088290556200005290620002b7565b600581905567069789fbbc4f800010156200009a5760055460405163c3af7cc760e01b815267069789fbbc4f8000600482015260248101919091526044015b60405180910390fd5b6001600160601b0319606083811b821660e05284901b1660805242600781905560a0819052620000d06301e13380600462000687565b620000dc90826200064b565b60c0908152604080519182018152600082526005546020830152810160306200010b6301e13380600462000687565b62000117919062000666565b60055462000126919062000687565b8152600060208201526040810183905260600160306200014c6301e13380600462000687565b62000158919062000666565b6200016490846200064b565b905260008080526003602090815282517f3617319a054d772f909f7c479a2cebe5066e836a939412e32403c99029b92eff558201517f3617319a054d772f909f7c479a2cebe5066e836a939412e32403c99029b92f00556040828101517f3617319a054d772f909f7c479a2cebe5066e836a939412e32403c99029b92f015560608301517f3617319a054d772f909f7c479a2cebe5066e836a939412e32403c99029b92f025560808301517f3617319a054d772f909f7c479a2cebe5066e836a939412e32403c99029b92f035560a0909201517f3617319a054d772f909f7c479a2cebe5066e836a939412e32403c99029b92f045560055491517fcc53a96dddb8d3b8710c4932d9e90652a4eaef0bf4c37a13dc4d806e1b54cb4d92620002a592918291829193845260208401929092526040830152606082015260800190565b60405180910390a15050505062000710565b600080600060308410620002cf575060009392505050565b60005b84811162000352576200032d620002e98262000386565b6200031966c3663566a5800086600854620003059190620006a9565b6200041b60201b620015dd1790919060201c565b6200043b60201b620015f01790919060201c565b91506200033b82846200064b565b9250806200034981620006c3565b915050620002d2565b506030620003666301e13380600462000687565b62000372919062000666565b6200037e908262000666565b949350505050565b600080620003a466c3663566a58000670de0b6b3a7640000620006a9565b90506000620003b5846030620006a9565b9050670de0b6b3a764000060005b82811015620003fd57620003e684836200041b60201b620015dd1790919060201c565b915080620003f481620006c3565b915050620003c3565b506200041281670de0b6b3a7640000620006a9565b95945050505050565b60006200043483836200045d60201b620016051760201c565b9392505050565b60006200043483670de0b6b3a7640000846200052460201b620016c81760201c565b60008080600019848609848602925082811083820303915050670de0b6b3a76400008110620004a35760405163698d9a0160e11b81526004810182905260240162000091565b600080670de0b6b3a76400008688099150506706f05b59d3b1ffff811182620004df5780670de0b6b3a76400008504019450505050506200051e565b620400008285030493909111909103600160ee1b02919091177faccb18165bd6fe31ae1cf318dc5b51eee0e1ba569b88cd74c1773b91fac10669020190505b92915050565b60008080600019858709858702925082811083820303915050806000141562000570578382816200056557634e487b7160e01b600052601260045260246000fd5b049250505062000434565b8381106200059c57604051631dcf306360e21b8152600481018290526024810185905260440162000091565b600084868809600260036001881981018916988990049182028318808302840302808302840302808302840302808302840302808302840302918202909203026000889003889004909101858311909403939093029303949094049190911702949350505050565b60008060006060848603121562000619578283fd5b83516200062681620006f7565b60208501519093506200063981620006f7565b80925050604084015190509250925092565b60008219821115620006615762000661620006e1565b500190565b6000826200068257634e487b7160e01b81526012600452602481fd5b500490565b6000816000190483118215151615620006a457620006a4620006e1565b500290565b600082821015620006be57620006be620006e1565b500390565b6000600019821415620006da57620006da620006e1565b5060010190565b634e487b7160e01b600052601160045260246000fd5b6001600160a01b03811681146200070d57600080fd5b50565b60805160601c60a05160c05160e05160601c6120c1620007b96000396000818161038f01528181610757015281816107ae0152610fda015260008181610463015281816110c40152818161137901528181611a460152611b3001526000818161053901528181611111015281816113b30152611b0a0152600081816105a10152818161094301528181610d6f0152818161120f015281816118da0152611a7201526120c16000f3fe608060405234801561001057600080fd5b50600436106102995760003560e01c806382ebcd3211610171578063c81ba8f0116100d3578063d797c4c311610097578063f2b128a411610071578063f2b128a41461060a578063f6503e6c14610612578063fd59c2991461062557600080fd5b8063d797c4c314610594578063e8a24e1d1461059c578063f2801fe7146105c357600080fd5b8063c81ba8f014610534578063c9bdf7551461055b578063cb87f7f31461056e578063ce45ae1a14610581578063d37db1d21461058957600080fd5b8063a12ef25e11610135578063b97dd9e21161010f578063b97dd9e21461050a578063c1f1e5ae14610512578063c2ce25ca1461052157600080fd5b8063a12ef25e146104e7578063a70b9f0c146104fa578063b04530b01461050257600080fd5b806382ebcd32146104a757806383b28436146104ba57806389c614b8146104c357806393c3677b146104cc5780639e81b634146104df57600080fd5b80635493b5d61161021a5780636673fd97116101de57806372e127cb116101b857806372e127cb14610485578063796b89b9146104985780637f4b54081461049e57600080fd5b80636673fd971461040057806366a9d8fa146104085780636fa422611461045e57600080fd5b80635493b5d6146103c957806356f9ef96146103d25780635a5da627146103e55780635de7fcd0146103ed5780635f15c3c9146103f857600080fd5b806328419d621161026157806328419d621461036157806332fcd9661461036f5780633cf80e6c1461037a5780634a91f2b1146103825780634f5736861461038a57600080fd5b806301bac4c61461029e578063135022c2146102b357806317caf6f11461032f5780631be05289146103465780631be195601461034e575b600080fd5b6102b16102ac366004611e27565b610638565b005b6102fd6102c1366004611e27565b60036020528060005260406000206000915090508060000154908060010154908060020154908060030154908060040154908060050154905086565b604080519687526020870195909552938501929092526060840152608083015260a082015260c0015b60405180910390f35b61033860065481565b604051908152602001610326565b610338610706565b6102b161035c366004611d20565b610718565b61033866c3663566a5800081565b610338600160a01b81565b6102b1610864565b6102b16108b0565b6103b17f000000000000000000000000000000000000000000000000000000000000000081565b6040516001600160a01b039091168152602001610326565b61033860055481565b6102b16103e0366004611e3f565b6108f5565b610338610af5565b610338600160601b81565b610338603081565b610338610b35565b61043e610416366004611d20565b6001602081905260009182526040909120805491810154600282015460039092015490919084565b604080519485526020850193909352918301526060820152608001610326565b6103387f000000000000000000000000000000000000000000000000000000000000000081565b610338610493366004611e27565b610b6a565b42610338565b61033860085481565b6103386104b5366004611d58565b610be5565b61033860095481565b61033860075481565b6102b16104da366004611e7b565b610d19565b610338610f08565b6102b16104f5366004611d58565b610f24565b6103386110a4565b600454610338565b6103386110bf565b61033867069789fbbc4f800081565b6103b161052f366004611e27565b611140565b6103387f000000000000000000000000000000000000000000000000000000000000000081565b6102b1610569366004611d20565b61116a565b6102b161057c366004611e7b565b6111b9565b610338611371565b6103386301e1338081565b61033861139d565b6103b17f000000000000000000000000000000000000000000000000000000000000000081565b6105f56105d1366004611d58565b60026020908152600092835260408084209091529082529020805460019091015482565b60408051928352602083019190915201610326565b6102b16113d8565b610338610620366004611e27565b6114d9565b610338610633366004611e27565b611549565b60005460ff1661065b576040516306fda65d60e31b815260040160405180910390fd5b6000805460ff1916905561066d6117a3565b6106756118d6565b67069789fbbc4f80008111156106b45760405163c3af7cc760e01b815267069789fbbc4f80006004820152602481018290526044015b60405180910390fd5b600580549082905560408051828152602081018490527f3ea86743bc8b6977a0693f6611ad7256d6ec1e3f996c6cba22e146152959ddff910160405180910390a150506000805460ff19166001179055565b6107156301e133806004611fba565b81565b60005460ff1661073b576040516306fda65d60e31b815260040160405180910390fd5b6000805460ff1916905561074d6117a3565b6107556118d6565b7f00000000000000000000000000000000000000000000000000000000000000006001600160a01b0316816001600160a01b031614156107db5760405163ef52f72d60e01b81526001600160a01b0380831660048301527f00000000000000000000000000000000000000000000000000000000000000001660248201526044016106ab565b60006107f06001600160a01b038316306119a8565b90506108066001600160a01b03831633836119d1565b336001600160a01b0383167fee2522ca264e96c7cef76269664e2a4cea70ad76b78ee5b01d0587798a0a72d68361083b6110bf565b6040805192835260208301919091520160405180910390a350506000805460ff19166001179055565b60005460ff16610887576040516306fda65d60e31b815260040160405180910390fd5b6000805460ff191690556108996117a3565b6108a1611a1a565b6000805460ff19166001179055565b60005460ff166108d3576040516306fda65d60e31b815260040160405180910390fd5b6000805460ff191690556108e56117a3565b6108ed611a1a565b6108a1611a44565b60005460ff16610918576040516306fda65d60e31b815260040160405180910390fd5b6000805460ff1916905561092a6117a3565b604051631ad4c8c360e01b8152600481018590526000907f00000000000000000000000000000000000000000000000000000000000000006001600160a01b031690631ad4c8c39060240160a06040518083038186803b15801561098d57600080fd5b505afa1580156109a1573d6000803e3d6000fd5b505050506040513d601f19601f820116820180604052508101906109c59190611d90565b505092505050806001600160a01b03166109dc3390565b6001600160a01b031614610a145760405163741d1af960e01b81526001600160a01b03821660048201523360248201526044016106ab565b6000610a1f82611b95565b6001600160a01b038084166000908152600260209081526040808320938a16835292905290812091925084610a58600160601b88611fba565b610a629190611f23565b8254909150600090610a749083611fd9565b90506000600160a01b856020015183610a8d9190611f37565b610a979190611ef5565b8385556001850154909150610aad908290611e9c565b60018501558451610abf908390611e9c565b6001600160a01b039096166000908152600160208190526040822097909755805460ff1916909617909555505050505050505050565b6000600754610b014290565b610b0b9190612018565b6030610b1c6301e133806004611fba565b610b269190611f23565b610b309190612018565b905090565b6000610b306030610b4b6301e133806004611fba565b610b559190611f23565b600754425b610b649190612018565b906115f0565b600080610b8666c3663566a58000670de0b6b3a7640000612018565b90506000610b95846030612018565b9050670de0b6b3a764000060005b82811015610bc957610bb582856115dd565b915080610bc18161202f565b915050610ba3565b50610bdc81670de0b6b3a7640000612018565b95945050505050565b6001600160a01b0382811660008181526001602081815260408084208151608081018352815481528185015481850190815260028084015483860152600390930154606083015296865290835281852096881685529582528084208151808301909252805482529092015490820152915183519193929184429050846040015181118015610c7257508115155b15610ce1576000856040015182610c899190612018565b90506000600654876060015160055484610ca39190611fba565b610cad9190611fba565b610cb79190611f23565b905083610cc8600160a01b83611fba565b610cd29190611f23565b610cdc9086611edd565b945050505b60208401518451600160a01b90610cf9908690611fba565b610d039190611f23565b610d0d9190612018565b98975050505050505050565b60005460ff16610d3c576040516306fda65d60e31b815260040160405180910390fd5b6000805460ff19169055610d4e6117a3565b610d566118d6565b604051631ad4c8c360e01b8152600481018390526000907f00000000000000000000000000000000000000000000000000000000000000006001600160a01b031690631ad4c8c39060240160a06040518083038186803b158015610db957600080fd5b505afa158015610dcd573d6000803e3d6000fd5b505050506040513d601f19601f82011682018060405250810190610df19190611d90565b50506001600160a01b038116600090815260016020526040902060038101549194509250159050610e47576040516362da3a2b60e11b8152600481018590526001600160a01b03831660248201526044016106ab565b8260066000828254610e599190611edd565b909155505060038101839055600480546001810182556000919091527f8a35acfbc15ff81a39ae7d344fd709f28e8600b4aa8c65c6b64bfe7fe36bd19b01805473ffffffffffffffffffffffffffffffffffffffff19166001600160a01b03841690811790915560405184815285907f68bea3f037520d478c14fd27a27947249aade51810b62999af0776bbd0097b969060200160405180910390a350506000805460ff191660011790555050565b600080610f136110bf565b9050610f1e816114d9565b91505090565b60005460ff16610f47576040516306fda65d60e31b815260040160405180910390fd5b6000805460ff19169055610f596117a3565b6000610f6483611b95565b6001600160a01b0384166000908152600260209081526040808320338452825282209083015181549394509092600160a01b91610fa091611fba565b610faa9190611f23565b90506000826001015482610fbe9190611fd9565b600184018390559050801561104c576110016001600160a01b037f00000000000000000000000000000000000000000000000000000000000000001686836119d1565b80600960008282546110139190611edd565b90915550819050600360006110266110bf565b815260200190815260200160002060030160008282546110469190611edd565b90915550505b604080513381526020810183905281516001600160a01b038916927f56cc9cf62f5a3a4367575119e524522956236e34a9a06eab7fcf9880b76b81cc928290030190a250506000805460ff1916600117905550505050565b60306110b56301e133806004611fba565b6107159190611f23565b6000427f000000000000000000000000000000000000000000000000000000000000000081106110f157603091505090565b60306111026301e133806004611fba565b61110c9190611f23565b6111367f000000000000000000000000000000000000000000000000000000000000000083612018565b610f1e9190611f23565b6004818154811061115057600080fd5b6000918252602090912001546001600160a01b0316905081565b60005460ff1661118d576040516306fda65d60e31b815260040160405180910390fd5b6000805460ff1916905561119f6117a3565b6111a881611b95565b50506000805460ff19166001179055565b60005460ff166111dc576040516306fda65d60e31b815260040160405180910390fd5b6000805460ff191690556111ee6117a3565b6111f66118d6565b604051631ad4c8c360e01b8152600481018390526000907f00000000000000000000000000000000000000000000000000000000000000006001600160a01b031690631ad4c8c39060240160a06040518083038186803b15801561125957600080fd5b505afa15801561126d573d6000803e3d6000fd5b505050506040513d601f19601f820116820180604052508101906112919190611d90565b50506001600160a01b038116600090815260016020526040902060038101549194509250151590506112e85760405163316e864360e01b8152600481018590526001600160a01b03831660248201526044016106ab565b600381015460065484906112fd908390612018565b6113079190611edd565b60065560038201849055604080516001600160a01b03851681526020810183905290810185905285907f9436a68f01cf8a4f756c053a98d6d88cdbd763a2d8ad77273779d054e2b82eef9060600160405180910390a250506000805460ff19166001179055505050565b6000610b30427f0000000000000000000000000000000000000000000000000000000000000000612018565b6000610b306113b16301e133806004611fba565b7f000000000000000000000000000000000000000000000000000000000000000042610b5a565b60005460ff166113fb576040516306fda65d60e31b815260040160405180910390fd5b6000805460ff1916905561140d6117a3565b600061141860045490565b90506000600480548060200260200160405190810160405280929190818152602001828054801561147257602002820191906000526020600020905b81546001600160a01b03168152600190910190602001808311611454575b5050505050905060005b828110156114c7576114b48282815181106114a757634e487b7160e01b600052603260045260246000fd5b6020026020010151611b95565b50806114bf8161202f565b91505061147c565b50506000805460ff1916600117905550565b600080603083106114ed5750600092915050565b60005b8381116115425761152261150382610b6a565b610b6466c3663566a580008560085461151c9190612018565b906115dd565b925061152e8383611edd565b91508061153a8161202f565b9150506114f0565b5050919050565b600080600060308410611560575060009392505050565b60005b8481116115af5761158f61157682610b6a565b610b6466c3663566a580008660085461151c9190612018565b915061159b8284611edd565b9250806115a78161202f565b915050611563565b5060306115c16301e133806004611fba565b6115cb9190611f23565b6115d59082611f23565b949350505050565b60006115e98383611605565b9392505050565b60006115e983670de0b6b3a7640000846116c8565b60008080600019848609848602925082811083820303915050670de0b6b3a764000081106116495760405163698d9a0160e11b8152600481018290526024016106ab565b600080670de0b6b3a76400008688099150506706f05b59d3b1ffff8111826116835780670de0b6b3a76400008504019450505050506116c2565b620400008285030493909111909103600160ee1b02919091177faccb18165bd6fe31ae1cf318dc5b51eee0e1ba569b88cd74c1773b91fac10669020190505b92915050565b6000808060001985870985870292508281108382030391505080600014156117115783828161170757634e487b7160e01b600052601260045260246000fd5b04925050506115e9565b83811061173b57604051631dcf306360e21b815260048101829052602481018590526044016106ab565b600084868809600260036001881981018916988990049182028318808302840302808302840302808302840302808302840302808302840302918202909203026000889003889004909101858311909403939093029303949094049190911702949350505050565b60075442906000906117b59083612018565b9050600060306117ca6301e133806004611fba565b6117d49190611f23565b6117de9083611f23565b905080156118d15760006117f06110bf565b905060006117fe8383611edd565b905060308110156118ce5760055461181583611549565b600555600786905560008381526003602052604090206004808201889055603090611845906301e1338090611fba565b61184f9190611f23565b6118599088611edd565b600580830191909155848255546001820155611874846114d9565b60028201557fcc53a96dddb8d3b8710c4932d9e90652a4eaef0bf4c37a13dc4d806e1b54cb4d6118a5600186612018565b60055460408051928352602083018890528201859052606082015260800160405180910390a150505b50505b505050565b60007f00000000000000000000000000000000000000000000000000000000000000006001600160a01b031663f851a4406040518163ffffffff1660e01b815260040160206040518083038186803b15801561193157600080fd5b505afa158015611945573d6000803e3d6000fd5b505050506040513d601f19601f820116820180604052508101906119699190611d3c565b9050336001600160a01b038216146119a557604051635113afbd60e01b81526001600160a01b03821660048201523360248201526044016106ab565b50565b60006370a08231600052816020526020806024601c865afa601f3d111660205102905092915050565b81601a5280603a5269a9059cbb00000000000060005260206000604460166000875af13d156001600051141716611a10576390b8ec186000526004601cfd5b6000603a52505050565b333214611a4257604051631f0f593360e11b81523360048201523260248201526044016106ab565b565b7f0000000000000000000000000000000000000000000000000000000000000000421015611a6e57565b60007f00000000000000000000000000000000000000000000000000000000000000006001600160a01b031663f851a4406040518163ffffffff1660e01b815260040160206040518083038186803b158015611ac957600080fd5b505afa158015611add573d6000803e3d6000fd5b505050506040513d601f19601f82011682018060405250810190611b019190611d3c565b604080513381527f000000000000000000000000000000000000000000000000000000000000000060208201527f00000000000000000000000000000000000000000000000000000000000000008183015242606082015290519192507f3448d68e439b81df30dbd68606f415f65c9eabaaef0aca1ffc0368cc3954c6dc919081900360800190a1806001600160a01b0316ff5b611bc06040518060800160405280600081526020016000815260200160008152602001600081525090565b506001600160a01b03811660009081526001602081815260409283902083516080810185528154815292810154918301919091526002810154928201839052600301546060820152904290811115611d1a5781518015611c8c576000836040015183611c2c9190612018565b90506000600654856060015160055484611c469190611fba565b611c509190611fba565b611c5a9190611f23565b905082611c6b600160a01b83611fba565b611c759190611f23565b8560200151611c849190611edd565b602086015250505b60408084018381526001600160a01b03861660008181526001602081815291859020885181559188015190820181905592516002820155606087015160039091015591517f7868e52ea410afbf6de8be8145fe80ee3efe3f37a824d8ccfbbfd1fa42904b4d91611d1091869186919283526020830191909152604082015260600190565b60405180910390a2505b50919050565b600060208284031215611d31578081fd5b81356115e981612076565b600060208284031215611d4d578081fd5b81516115e981612076565b60008060408385031215611d6a578081fd5b8235611d7581612076565b91506020830135611d8581612076565b809150509250929050565b600080600080600060a08688031215611da7578081fd5b85518015158114611db6578182fd5b60208701519095506affffffffffffffffffffff81168114611dd6578182fd5b6040870151909450611de781612076565b6060870151909350611df881612076565b60808701519092506bffffffffffffffffffffffff81168114611e19578182fd5b809150509295509295909350565b600060208284031215611e38578081fd5b5035919050565b60008060008060808587031215611e54578384fd5b843593506020850135611e6681612076565b93969395505050506040820135916060013590565b60008060408385031215611e8d578182fd5b50508035926020909101359150565b600080821280156001600160ff1b0384900385131615611ebe57611ebe61204a565b600160ff1b8390038412811615611ed757611ed761204a565b50500190565b60008219821115611ef057611ef061204a565b500190565b600082611f0457611f04612060565b600160ff1b821460001984141615611f1e57611f1e61204a565b500590565b600082611f3257611f32612060565b500490565b60006001600160ff1b0381841382841380821686840486111615611f5d57611f5d61204a565b600160ff1b84871282811687830589121615611f7b57611f7b61204a565b858712925087820587128484161615611f9657611f9661204a565b87850587128184161615611fac57611fac61204a565b505050929093029392505050565b6000816000190483118215151615611fd457611fd461204a565b500290565b60008083128015600160ff1b850184121615611ff757611ff761204a565b6001600160ff1b03840183138116156120125761201261204a565b50500390565b60008282101561202a5761202a61204a565b500390565b60006000198214156120435761204361204a565b5060010190565b634e487b7160e01b600052601160045260246000fd5b634e487b7160e01b600052601260045260246000fd5b6001600160a01b03811681146119a557600080fdfea264697066735822122035e211d06ebf46df48a25df138980cedde71abab0e9749deff81c1567dc18c1764736f6c63430008040033","opcodes":"PUSH2 0x100 PUSH1 0x40 MSTORE CALLVALUE DUP1 ISZERO PUSH3 0x12 JUMPI PUSH1 0x0 DUP1 REVERT JUMPDEST POP PUSH1 0x40 MLOAD PUSH3 0x287A CODESIZE SUB DUP1 PUSH3 0x287A DUP4 CODECOPY DUP2 ADD PUSH1 0x40 DUP2 SWAP1 MSTORE PUSH3 0x35 SWAP2 PUSH3 0x604 JUMP JUMPDEST PUSH1 0x0 DUP1 SLOAD PUSH1 0xFF NOT AND PUSH1 0x1 OR DUP2 SSTORE PUSH1 0x8 DUP3 SWAP1 SSTORE PUSH3 0x52 SWAP1 PUSH3 0x2B7 JUMP JUMPDEST PUSH1 0x5 DUP2 SWAP1 SSTORE PUSH8 0x69789FBBC4F8000 LT ISZERO PUSH3 0x9A JUMPI PUSH1 0x5 SLOAD PUSH1 0x40 MLOAD PUSH4 0xC3AF7CC7 PUSH1 0xE0 SHL DUP2 MSTORE PUSH8 0x69789FBBC4F8000 PUSH1 0x4 DUP3 ADD MSTORE PUSH1 0x24 DUP2 ADD SWAP2 SWAP1 SWAP2 MSTORE PUSH1 0x44 ADD JUMPDEST PUSH1 0x40 MLOAD DUP1 SWAP2 SUB SWAP1 REVERT JUMPDEST PUSH1 0x1 PUSH1 0x1 PUSH1 0x60 SHL SUB NOT PUSH1 0x60 DUP4 DUP2 SHL DUP3 AND PUSH1 0xE0 MSTORE DUP5 SWAP1 SHL AND PUSH1 0x80 MSTORE TIMESTAMP PUSH1 0x7 DUP2 SWAP1 SSTORE PUSH1 0xA0 DUP2 SWAP1 MSTORE PUSH3 0xD0 PUSH4 0x1E13380 PUSH1 0x4 PUSH3 0x687 JUMP JUMPDEST PUSH3 0xDC SWAP1 DUP3 PUSH3 0x64B JUMP JUMPDEST PUSH1 0xC0 SWAP1 DUP2 MSTORE PUSH1 0x40 DUP1 MLOAD SWAP2 DUP3 ADD DUP2 MSTORE PUSH1 0x0 DUP3 MSTORE PUSH1 0x5 SLOAD PUSH1 0x20 DUP4 ADD MSTORE DUP2 ADD PUSH1 0x30 PUSH3 0x10B PUSH4 0x1E13380 PUSH1 0x4 PUSH3 0x687 JUMP JUMPDEST PUSH3 0x117 SWAP2 SWAP1 PUSH3 0x666 JUMP JUMPDEST PUSH1 0x5 SLOAD PUSH3 0x126 SWAP2 SWAP1 PUSH3 0x687 JUMP JUMPDEST DUP2 MSTORE PUSH1 0x0 PUSH1 0x20 DUP3 ADD MSTORE PUSH1 0x40 DUP2 ADD DUP4 SWAP1 MSTORE PUSH1 0x60 ADD PUSH1 0x30 PUSH3 0x14C PUSH4 0x1E13380 PUSH1 0x4 PUSH3 0x687 JUMP JUMPDEST PUSH3 0x158 SWAP2 SWAP1 PUSH3 0x666 JUMP JUMPDEST PUSH3 0x164 SWAP1 DUP5 PUSH3 0x64B JUMP JUMPDEST SWAP1 MSTORE PUSH1 0x0 DUP1 DUP1 MSTORE PUSH1 0x3 PUSH1 0x20 SWAP1 DUP2 MSTORE DUP3 MLOAD PUSH32 0x3617319A054D772F909F7C479A2CEBE5066E836A939412E32403C99029B92EFF SSTORE DUP3 ADD MLOAD PUSH32 0x3617319A054D772F909F7C479A2CEBE5066E836A939412E32403C99029B92F00 SSTORE PUSH1 0x40 DUP3 DUP2 ADD MLOAD PUSH32 0x3617319A054D772F909F7C479A2CEBE5066E836A939412E32403C99029B92F01 SSTORE PUSH1 0x60 DUP4 ADD MLOAD PUSH32 0x3617319A054D772F909F7C479A2CEBE5066E836A939412E32403C99029B92F02 SSTORE PUSH1 0x80 DUP4 ADD MLOAD PUSH32 0x3617319A054D772F909F7C479A2CEBE5066E836A939412E32403C99029B92F03 SSTORE PUSH1 0xA0 SWAP1 SWAP3 ADD MLOAD PUSH32 0x3617319A054D772F909F7C479A2CEBE5066E836A939412E32403C99029B92F04 SSTORE PUSH1 0x5 SLOAD SWAP2 MLOAD PUSH32 0xCC53A96DDDB8D3B8710C4932D9E90652A4EAEF0BF4C37A13DC4D806E1B54CB4D SWAP3 PUSH3 0x2A5 SWAP3 SWAP2 DUP3 SWAP2 DUP3 SWAP2 SWAP4 DUP5 MSTORE PUSH1 0x20 DUP5 ADD SWAP3 SWAP1 SWAP3 MSTORE PUSH1 0x40 DUP4 ADD MSTORE PUSH1 0x60 DUP3 ADD MSTORE PUSH1 0x80 ADD SWAP1 JUMP JUMPDEST PUSH1 0x40 MLOAD DUP1 SWAP2 SUB SWAP1 LOG1 POP POP POP POP PUSH3 0x710 JUMP JUMPDEST PUSH1 0x0 DUP1 PUSH1 0x0 PUSH1 0x30 DUP5 LT PUSH3 0x2CF JUMPI POP PUSH1 0x0 SWAP4 SWAP3 POP POP POP JUMP JUMPDEST PUSH1 0x0 JUMPDEST DUP5 DUP2 GT PUSH3 0x352 JUMPI PUSH3 0x32D PUSH3 0x2E9 DUP3 PUSH3 0x386 JUMP JUMPDEST PUSH3 0x319 PUSH7 0xC3663566A58000 DUP7 PUSH1 0x8 SLOAD PUSH3 0x305 SWAP2 SWAP1 PUSH3 0x6A9 JUMP JUMPDEST PUSH3 0x41B PUSH1 0x20 SHL PUSH3 0x15DD OR SWAP1 SWAP2 SWAP1 PUSH1 0x20 SHR JUMP JUMPDEST PUSH3 0x43B PUSH1 0x20 SHL PUSH3 0x15F0 OR SWAP1 SWAP2 SWAP1 PUSH1 0x20 SHR JUMP JUMPDEST SWAP2 POP PUSH3 0x33B DUP3 DUP5 PUSH3 0x64B JUMP JUMPDEST SWAP3 POP DUP1 PUSH3 0x349 DUP2 PUSH3 0x6C3 JUMP JUMPDEST SWAP2 POP POP PUSH3 0x2D2 JUMP JUMPDEST POP PUSH1 0x30 PUSH3 0x366 PUSH4 0x1E13380 PUSH1 0x4 PUSH3 0x687 JUMP JUMPDEST PUSH3 0x372 SWAP2 SWAP1 PUSH3 0x666 JUMP JUMPDEST PUSH3 0x37E SWAP1 DUP3 PUSH3 0x666 JUMP JUMPDEST SWAP5 SWAP4 POP POP POP POP JUMP JUMPDEST PUSH1 0x0 DUP1 PUSH3 0x3A4 PUSH7 0xC3663566A58000 PUSH8 0xDE0B6B3A7640000 PUSH3 0x6A9 JUMP JUMPDEST SWAP1 POP PUSH1 0x0 PUSH3 0x3B5 DUP5 PUSH1 0x30 PUSH3 0x6A9 JUMP JUMPDEST SWAP1 POP PUSH8 0xDE0B6B3A7640000 PUSH1 0x0 JUMPDEST DUP3 DUP2 LT ISZERO PUSH3 0x3FD JUMPI PUSH3 0x3E6 DUP5 DUP4 PUSH3 0x41B PUSH1 0x20 SHL PUSH3 0x15DD OR SWAP1 SWAP2 SWAP1 PUSH1 0x20 SHR JUMP JUMPDEST SWAP2 POP DUP1 PUSH3 0x3F4 DUP2 PUSH3 0x6C3 JUMP JUMPDEST SWAP2 POP POP PUSH3 0x3C3 JUMP JUMPDEST POP PUSH3 0x412 DUP2 PUSH8 0xDE0B6B3A7640000 PUSH3 0x6A9 JUMP JUMPDEST SWAP6 SWAP5 POP POP POP POP POP JUMP JUMPDEST PUSH1 0x0 PUSH3 0x434 DUP4 DUP4 PUSH3 0x45D PUSH1 0x20 SHL PUSH3 0x1605 OR PUSH1 0x20 SHR JUMP JUMPDEST SWAP4 SWAP3 POP POP POP JUMP JUMPDEST PUSH1 0x0 PUSH3 0x434 DUP4 PUSH8 0xDE0B6B3A7640000 DUP5 PUSH3 0x524 PUSH1 0x20 SHL PUSH3 0x16C8 OR PUSH1 0x20 SHR JUMP JUMPDEST PUSH1 0x0 DUP1 DUP1 PUSH1 0x0 NOT DUP5 DUP7 MULMOD DUP5 DUP7 MUL SWAP3 POP DUP3 DUP2 LT DUP4 DUP3 SUB SUB SWAP2 POP POP PUSH8 0xDE0B6B3A7640000 DUP2 LT PUSH3 0x4A3 JUMPI PUSH1 0x40 MLOAD PUSH4 0x698D9A01 PUSH1 0xE1 SHL DUP2 MSTORE PUSH1 0x4 DUP2 ADD DUP3 SWAP1 MSTORE PUSH1 0x24 ADD PUSH3 0x91 JUMP JUMPDEST PUSH1 0x0 DUP1 PUSH8 0xDE0B6B3A7640000 DUP7 DUP9 MULMOD SWAP2 POP POP PUSH8 0x6F05B59D3B1FFFF DUP2 GT DUP3 PUSH3 0x4DF JUMPI DUP1 PUSH8 0xDE0B6B3A7640000 DUP6 DIV ADD SWAP5 POP POP POP POP POP PUSH3 0x51E JUMP JUMPDEST PUSH3 0x40000 DUP3 DUP6 SUB DIV SWAP4 SWAP1 SWAP2 GT SWAP1 SWAP2 SUB PUSH1 0x1 PUSH1 0xEE SHL MUL SWAP2 SWAP1 SWAP2 OR PUSH32 0xACCB18165BD6FE31AE1CF318DC5B51EEE0E1BA569B88CD74C1773B91FAC10669 MUL ADD SWAP1 POP JUMPDEST SWAP3 SWAP2 POP POP JUMP JUMPDEST PUSH1 0x0 DUP1 DUP1 PUSH1 0x0 NOT DUP6 DUP8 MULMOD DUP6 DUP8 MUL SWAP3 POP DUP3 DUP2 LT DUP4 DUP3 SUB SUB SWAP2 POP POP DUP1 PUSH1 0x0 EQ ISZERO PUSH3 0x570 JUMPI DUP4 DUP3 DUP2 PUSH3 0x565 JUMPI PUSH4 0x4E487B71 PUSH1 0xE0 SHL PUSH1 0x0 MSTORE PUSH1 0x12 PUSH1 0x4 MSTORE PUSH1 0x24 PUSH1 0x0 REVERT JUMPDEST DIV SWAP3 POP POP POP PUSH3 0x434 JUMP JUMPDEST DUP4 DUP2 LT PUSH3 0x59C JUMPI PUSH1 0x40 MLOAD PUSH4 0x1DCF3063 PUSH1 0xE2 SHL DUP2 MSTORE PUSH1 0x4 DUP2 ADD DUP3 SWAP1 MSTORE PUSH1 0x24 DUP2 ADD DUP6 SWAP1 MSTORE PUSH1 0x44 ADD PUSH3 0x91 JUMP JUMPDEST PUSH1 0x0 DUP5 DUP7 DUP9 MULMOD PUSH1 0x2 PUSH1 0x3 PUSH1 0x1 DUP9 NOT DUP2 ADD DUP10 AND SWAP9 DUP10 SWAP1 DIV SWAP2 DUP3 MUL DUP4 XOR DUP1 DUP4 MUL DUP5 SUB MUL DUP1 DUP4 MUL DUP5 SUB MUL DUP1 DUP4 MUL DUP5 SUB MUL DUP1 DUP4 MUL DUP5 SUB MUL DUP1 DUP4 MUL DUP5 SUB MUL SWAP2 DUP3 MUL SWAP1 SWAP3 SUB MUL PUSH1 0x0 DUP9 SWAP1 SUB DUP9 SWAP1 DIV SWAP1 SWAP2 ADD DUP6 DUP4 GT SWAP1 SWAP5 SUB SWAP4 SWAP1 SWAP4 MUL SWAP4 SUB SWAP5 SWAP1 SWAP5 DIV SWAP2 SWAP1 SWAP2 OR MUL SWAP5 SWAP4 POP POP POP POP JUMP JUMPDEST PUSH1 0x0 DUP1 PUSH1 0x0 PUSH1 0x60 DUP5 DUP7 SUB SLT ISZERO PUSH3 0x619 JUMPI DUP3 DUP4 REVERT JUMPDEST DUP4 MLOAD PUSH3 0x626 DUP2 PUSH3 0x6F7 JUMP JUMPDEST PUSH1 0x20 DUP6 ADD MLOAD SWAP1 SWAP4 POP PUSH3 0x639 DUP2 PUSH3 0x6F7 JUMP JUMPDEST DUP1 SWAP3 POP POP PUSH1 0x40 DUP5 ADD MLOAD SWAP1 POP SWAP3 POP SWAP3 POP SWAP3 JUMP JUMPDEST PUSH1 0x0 DUP3 NOT DUP3 GT ISZERO PUSH3 0x661 JUMPI PUSH3 0x661 PUSH3 0x6E1 JUMP JUMPDEST POP ADD SWAP1 JUMP JUMPDEST PUSH1 0x0 DUP3 PUSH3 0x682 JUMPI PUSH4 0x4E487B71 PUSH1 0xE0 SHL DUP2 MSTORE PUSH1 0x12 PUSH1 0x4 MSTORE PUSH1 0x24 DUP2 REVERT JUMPDEST POP DIV SWAP1 JUMP JUMPDEST PUSH1 0x0 DUP2 PUSH1 0x0 NOT DIV DUP4 GT DUP3 ISZERO ISZERO AND ISZERO PUSH3 0x6A4 JUMPI PUSH3 0x6A4 PUSH3 0x6E1 JUMP JUMPDEST POP MUL SWAP1 JUMP JUMPDEST PUSH1 0x0 DUP3 DUP3 LT ISZERO PUSH3 0x6BE JUMPI PUSH3 0x6BE PUSH3 0x6E1 JUMP JUMPDEST POP SUB SWAP1 JUMP JUMPDEST PUSH1 0x0 PUSH1 0x0 NOT DUP3 EQ ISZERO PUSH3 0x6DA JUMPI PUSH3 0x6DA PUSH3 0x6E1 JUMP JUMPDEST POP PUSH1 0x1 ADD SWAP1 JUMP JUMPDEST PUSH4 0x4E487B71 PUSH1 0xE0 SHL PUSH1 0x0 MSTORE PUSH1 0x11 PUSH1 0x4 MSTORE PUSH1 0x24 PUSH1 0x0 REVERT JUMPDEST PUSH1 0x1 PUSH1 0x1 PUSH1 0xA0 SHL SUB DUP2 AND DUP2 EQ PUSH3 0x70D JUMPI PUSH1 0x0 DUP1 REVERT JUMPDEST POP JUMP JUMPDEST PUSH1 0x80 MLOAD PUSH1 0x60 SHR PUSH1 0xA0 MLOAD PUSH1 0xC0 MLOAD PUSH1 0xE0 MLOAD PUSH1 0x60 SHR PUSH2 0x20C1 PUSH3 0x7B9 PUSH1 0x0 CODECOPY PUSH1 0x0 DUP2 DUP2 PUSH2 0x38F ADD MSTORE DUP2 DUP2 PUSH2 0x757 ADD MSTORE DUP2 DUP2 PUSH2 0x7AE ADD MSTORE PUSH2 0xFDA ADD MSTORE PUSH1 0x0 DUP2 DUP2 PUSH2 0x463 ADD MSTORE DUP2 DUP2 PUSH2 0x10C4 ADD MSTORE DUP2 DUP2 PUSH2 0x1379 ADD MSTORE DUP2 DUP2 PUSH2 0x1A46 ADD MSTORE PUSH2 0x1B30 ADD MSTORE PUSH1 0x0 DUP2 DUP2 PUSH2 0x539 ADD MSTORE DUP2 DUP2 PUSH2 0x1111 ADD MSTORE DUP2 DUP2 PUSH2 0x13B3 ADD MSTORE PUSH2 0x1B0A ADD MSTORE PUSH1 0x0 DUP2 DUP2 PUSH2 0x5A1 ADD MSTORE DUP2 DUP2 PUSH2 0x943 ADD MSTORE DUP2 DUP2 PUSH2 0xD6F ADD MSTORE DUP2 DUP2 PUSH2 0x120F ADD MSTORE DUP2 DUP2 PUSH2 0x18DA ADD MSTORE PUSH2 0x1A72 ADD MSTORE PUSH2 0x20C1 PUSH1 0x0 RETURN INVALID PUSH1 0x80 PUSH1 0x40 MSTORE CALLVALUE DUP1 ISZERO PUSH2 0x10 JUMPI PUSH1 0x0 DUP1 REVERT JUMPDEST POP PUSH1 0x4 CALLDATASIZE LT PUSH2 0x299 JUMPI PUSH1 0x0 CALLDATALOAD PUSH1 0xE0 SHR DUP1 PUSH4 0x82EBCD32 GT PUSH2 0x171 JUMPI DUP1 PUSH4 0xC81BA8F0 GT PUSH2 0xD3 JUMPI DUP1 PUSH4 0xD797C4C3 GT PUSH2 0x97 JUMPI DUP1 PUSH4 0xF2B128A4 GT PUSH2 0x71 JUMPI DUP1 PUSH4 0xF2B128A4 EQ PUSH2 0x60A JUMPI DUP1 PUSH4 0xF6503E6C EQ PUSH2 0x612 JUMPI DUP1 PUSH4 0xFD59C299 EQ PUSH2 0x625 JUMPI PUSH1 0x0 DUP1 REVERT JUMPDEST DUP1 PUSH4 0xD797C4C3 EQ PUSH2 0x594 JUMPI DUP1 PUSH4 0xE8A24E1D EQ PUSH2 0x59C JUMPI DUP1 PUSH4 0xF2801FE7 EQ PUSH2 0x5C3 JUMPI PUSH1 0x0 DUP1 REVERT JUMPDEST DUP1 PUSH4 0xC81BA8F0 EQ PUSH2 0x534 JUMPI DUP1 PUSH4 0xC9BDF755 EQ PUSH2 0x55B JUMPI DUP1 PUSH4 0xCB87F7F3 EQ PUSH2 0x56E JUMPI DUP1 PUSH4 0xCE45AE1A EQ PUSH2 0x581 JUMPI DUP1 PUSH4 0xD37DB1D2 EQ PUSH2 0x589 JUMPI PUSH1 0x0 DUP1 REVERT JUMPDEST DUP1 PUSH4 0xA12EF25E GT PUSH2 0x135 JUMPI DUP1 PUSH4 0xB97DD9E2 GT PUSH2 0x10F JUMPI DUP1 PUSH4 0xB97DD9E2 EQ PUSH2 0x50A JUMPI DUP1 PUSH4 0xC1F1E5AE EQ PUSH2 0x512 JUMPI DUP1 PUSH4 0xC2CE25CA EQ PUSH2 0x521 JUMPI PUSH1 0x0 DUP1 REVERT JUMPDEST DUP1 PUSH4 0xA12EF25E EQ PUSH2 0x4E7 JUMPI DUP1 PUSH4 0xA70B9F0C EQ PUSH2 0x4FA JUMPI DUP1 PUSH4 0xB04530B0 EQ PUSH2 0x502 JUMPI PUSH1 0x0 DUP1 REVERT JUMPDEST DUP1 PUSH4 0x82EBCD32 EQ PUSH2 0x4A7 JUMPI DUP1 PUSH4 0x83B28436 EQ PUSH2 0x4BA JUMPI DUP1 PUSH4 0x89C614B8 EQ PUSH2 0x4C3 JUMPI DUP1 PUSH4 0x93C3677B EQ PUSH2 0x4CC JUMPI DUP1 PUSH4 0x9E81B634 EQ PUSH2 0x4DF JUMPI PUSH1 0x0 DUP1 REVERT JUMPDEST DUP1 PUSH4 0x5493B5D6 GT PUSH2 0x21A JUMPI DUP1 PUSH4 0x6673FD97 GT PUSH2 0x1DE JUMPI DUP1 PUSH4 0x72E127CB GT PUSH2 0x1B8 JUMPI DUP1 PUSH4 0x72E127CB EQ PUSH2 0x485 JUMPI DUP1 PUSH4 0x796B89B9 EQ PUSH2 0x498 JUMPI DUP1 PUSH4 0x7F4B5408 EQ PUSH2 0x49E JUMPI PUSH1 0x0 DUP1 REVERT JUMPDEST DUP1 PUSH4 0x6673FD97 EQ PUSH2 0x400 JUMPI DUP1 PUSH4 0x66A9D8FA EQ PUSH2 0x408 JUMPI DUP1 PUSH4 0x6FA42261 EQ PUSH2 0x45E JUMPI PUSH1 0x0 DUP1 REVERT JUMPDEST DUP1 PUSH4 0x5493B5D6 EQ PUSH2 0x3C9 JUMPI DUP1 PUSH4 0x56F9EF96 EQ PUSH2 0x3D2 JUMPI DUP1 PUSH4 0x5A5DA627 EQ PUSH2 0x3E5 JUMPI DUP1 PUSH4 0x5DE7FCD0 EQ PUSH2 0x3ED JUMPI DUP1 PUSH4 0x5F15C3C9 EQ PUSH2 0x3F8 JUMPI PUSH1 0x0 DUP1 REVERT JUMPDEST DUP1 PUSH4 0x28419D62 GT PUSH2 0x261 JUMPI DUP1 PUSH4 0x28419D62 EQ PUSH2 0x361 JUMPI DUP1 PUSH4 0x32FCD966 EQ PUSH2 0x36F JUMPI DUP1 PUSH4 0x3CF80E6C EQ PUSH2 0x37A JUMPI DUP1 PUSH4 0x4A91F2B1 EQ PUSH2 0x382 JUMPI DUP1 PUSH4 0x4F573686 EQ PUSH2 0x38A JUMPI PUSH1 0x0 DUP1 REVERT JUMPDEST DUP1 PUSH4 0x1BAC4C6 EQ PUSH2 0x29E JUMPI DUP1 PUSH4 0x135022C2 EQ PUSH2 0x2B3 JUMPI DUP1 PUSH4 0x17CAF6F1 EQ PUSH2 0x32F JUMPI DUP1 PUSH4 0x1BE05289 EQ PUSH2 0x346 JUMPI DUP1 PUSH4 0x1BE19560 EQ PUSH2 0x34E JUMPI JUMPDEST PUSH1 0x0 DUP1 REVERT JUMPDEST PUSH2 0x2B1 PUSH2 0x2AC CALLDATASIZE PUSH1 0x4 PUSH2 0x1E27 JUMP JUMPDEST PUSH2 0x638 JUMP JUMPDEST STOP JUMPDEST PUSH2 0x2FD PUSH2 0x2C1 CALLDATASIZE PUSH1 0x4 PUSH2 0x1E27 JUMP JUMPDEST PUSH1 0x3 PUSH1 0x20 MSTORE DUP1 PUSH1 0x0 MSTORE PUSH1 0x40 PUSH1 0x0 KECCAK256 PUSH1 0x0 SWAP2 POP SWAP1 POP DUP1 PUSH1 0x0 ADD SLOAD SWAP1 DUP1 PUSH1 0x1 ADD SLOAD SWAP1 DUP1 PUSH1 0x2 ADD SLOAD SWAP1 DUP1 PUSH1 0x3 ADD SLOAD SWAP1 DUP1 PUSH1 0x4 ADD SLOAD SWAP1 DUP1 PUSH1 0x5 ADD SLOAD SWAP1 POP DUP7 JUMP JUMPDEST PUSH1 0x40 DUP1 MLOAD SWAP7 DUP8 MSTORE PUSH1 0x20 DUP8 ADD SWAP6 SWAP1 SWAP6 MSTORE SWAP4 DUP6 ADD SWAP3 SWAP1 SWAP3 MSTORE PUSH1 0x60 DUP5 ADD MSTORE PUSH1 0x80 DUP4 ADD MSTORE PUSH1 0xA0 DUP3 ADD MSTORE PUSH1 0xC0 ADD JUMPDEST PUSH1 0x40 MLOAD DUP1 SWAP2 SUB SWAP1 RETURN JUMPDEST PUSH2 0x338 PUSH1 0x6 SLOAD DUP2 JUMP JUMPDEST PUSH1 0x40 MLOAD SWAP1 DUP2 MSTORE PUSH1 0x20 ADD PUSH2 0x326 JUMP JUMPDEST PUSH2 0x338 PUSH2 0x706 JUMP JUMPDEST PUSH2 0x2B1 PUSH2 0x35C CALLDATASIZE PUSH1 0x4 PUSH2 0x1D20 JUMP JUMPDEST PUSH2 0x718 JUMP JUMPDEST PUSH2 0x338 PUSH7 0xC3663566A58000 DUP2 JUMP JUMPDEST PUSH2 0x338 PUSH1 0x1 PUSH1 0xA0 SHL DUP2 JUMP JUMPDEST PUSH2 0x2B1 PUSH2 0x864 JUMP JUMPDEST PUSH2 0x2B1 PUSH2 0x8B0 JUMP JUMPDEST PUSH2 0x3B1 PUSH32 0x0 DUP2 JUMP JUMPDEST PUSH1 0x40 MLOAD PUSH1 0x1 PUSH1 0x1 PUSH1 0xA0 SHL SUB SWAP1 SWAP2 AND DUP2 MSTORE PUSH1 0x20 ADD PUSH2 0x326 JUMP JUMPDEST PUSH2 0x338 PUSH1 0x5 SLOAD DUP2 JUMP JUMPDEST PUSH2 0x2B1 PUSH2 0x3E0 CALLDATASIZE PUSH1 0x4 PUSH2 0x1E3F JUMP JUMPDEST PUSH2 0x8F5 JUMP JUMPDEST PUSH2 0x338 PUSH2 0xAF5 JUMP JUMPDEST PUSH2 0x338 PUSH1 0x1 PUSH1 0x60 SHL DUP2 JUMP JUMPDEST PUSH2 0x338 PUSH1 0x30 DUP2 JUMP JUMPDEST PUSH2 0x338 PUSH2 0xB35 JUMP JUMPDEST PUSH2 0x43E PUSH2 0x416 CALLDATASIZE PUSH1 0x4 PUSH2 0x1D20 JUMP JUMPDEST PUSH1 0x1 PUSH1 0x20 DUP2 SWAP1 MSTORE PUSH1 0x0 SWAP2 DUP3 MSTORE PUSH1 0x40 SWAP1 SWAP2 KECCAK256 DUP1 SLOAD SWAP2 DUP2 ADD SLOAD PUSH1 0x2 DUP3 ADD SLOAD PUSH1 0x3 SWAP1 SWAP3 ADD SLOAD SWAP1 SWAP2 SWAP1 DUP5 JUMP JUMPDEST PUSH1 0x40 DUP1 MLOAD SWAP5 DUP6 MSTORE PUSH1 0x20 DUP6 ADD SWAP4 SWAP1 SWAP4 MSTORE SWAP2 DUP4 ADD MSTORE PUSH1 0x60 DUP3 ADD MSTORE PUSH1 0x80 ADD PUSH2 0x326 JUMP JUMPDEST PUSH2 0x338 PUSH32 0x0 DUP2 JUMP JUMPDEST PUSH2 0x338 PUSH2 0x493 CALLDATASIZE PUSH1 0x4 PUSH2 0x1E27 JUMP JUMPDEST PUSH2 0xB6A JUMP JUMPDEST TIMESTAMP PUSH2 0x338 JUMP JUMPDEST PUSH2 0x338 PUSH1 0x8 SLOAD DUP2 JUMP JUMPDEST PUSH2 0x338 PUSH2 0x4B5 CALLDATASIZE PUSH1 0x4 PUSH2 0x1D58 JUMP JUMPDEST PUSH2 0xBE5 JUMP JUMPDEST PUSH2 0x338 PUSH1 0x9 SLOAD DUP2 JUMP JUMPDEST PUSH2 0x338 PUSH1 0x7 SLOAD DUP2 JUMP JUMPDEST PUSH2 0x2B1 PUSH2 0x4DA CALLDATASIZE PUSH1 0x4 PUSH2 0x1E7B JUMP JUMPDEST PUSH2 0xD19 JUMP JUMPDEST PUSH2 0x338 PUSH2 0xF08 JUMP JUMPDEST PUSH2 0x2B1 PUSH2 0x4F5 CALLDATASIZE PUSH1 0x4 PUSH2 0x1D58 JUMP JUMPDEST PUSH2 0xF24 JUMP JUMPDEST PUSH2 0x338 PUSH2 0x10A4 JUMP JUMPDEST PUSH1 0x4 SLOAD PUSH2 0x338 JUMP JUMPDEST PUSH2 0x338 PUSH2 0x10BF JUMP JUMPDEST PUSH2 0x338 PUSH8 0x69789FBBC4F8000 DUP2 JUMP JUMPDEST PUSH2 0x3B1 PUSH2 0x52F CALLDATASIZE PUSH1 0x4 PUSH2 0x1E27 JUMP JUMPDEST PUSH2 0x1140 JUMP JUMPDEST PUSH2 0x338 PUSH32 0x0 DUP2 JUMP JUMPDEST PUSH2 0x2B1 PUSH2 0x569 CALLDATASIZE PUSH1 0x4 PUSH2 0x1D20 JUMP JUMPDEST PUSH2 0x116A JUMP JUMPDEST PUSH2 0x2B1 PUSH2 0x57C CALLDATASIZE PUSH1 0x4 PUSH2 0x1E7B JUMP JUMPDEST PUSH2 0x11B9 JUMP JUMPDEST PUSH2 0x338 PUSH2 0x1371 JUMP JUMPDEST PUSH2 0x338 PUSH4 0x1E13380 DUP2 JUMP JUMPDEST PUSH2 0x338 PUSH2 0x139D JUMP JUMPDEST PUSH2 0x3B1 PUSH32 0x0 DUP2 JUMP JUMPDEST PUSH2 0x5F5 PUSH2 0x5D1 CALLDATASIZE PUSH1 0x4 PUSH2 0x1D58 JUMP JUMPDEST PUSH1 0x2 PUSH1 0x20 SWAP1 DUP2 MSTORE PUSH1 0x0 SWAP3 DUP4 MSTORE PUSH1 0x40 DUP1 DUP5 KECCAK256 SWAP1 SWAP2 MSTORE SWAP1 DUP3 MSTORE SWAP1 KECCAK256 DUP1 SLOAD PUSH1 0x1 SWAP1 SWAP2 ADD SLOAD DUP3 JUMP JUMPDEST PUSH1 0x40 DUP1 MLOAD SWAP3 DUP4 MSTORE PUSH1 0x20 DUP4 ADD SWAP2 SWAP1 SWAP2 MSTORE ADD PUSH2 0x326 JUMP JUMPDEST PUSH2 0x2B1 PUSH2 0x13D8 JUMP JUMPDEST PUSH2 0x338 PUSH2 0x620 CALLDATASIZE PUSH1 0x4 PUSH2 0x1E27 JUMP JUMPDEST PUSH2 0x14D9 JUMP JUMPDEST PUSH2 0x338 PUSH2 0x633 CALLDATASIZE PUSH1 0x4 PUSH2 0x1E27 JUMP JUMPDEST PUSH2 0x1549 JUMP JUMPDEST PUSH1 0x0 SLOAD PUSH1 0xFF AND PUSH2 0x65B JUMPI PUSH1 0x40 MLOAD PUSH4 0x6FDA65D PUSH1 0xE3 SHL DUP2 MSTORE PUSH1 0x4 ADD PUSH1 0x40 MLOAD DUP1 SWAP2 SUB SWAP1 REVERT JUMPDEST PUSH1 0x0 DUP1 SLOAD PUSH1 0xFF NOT AND SWAP1 SSTORE PUSH2 0x66D PUSH2 0x17A3 JUMP JUMPDEST PUSH2 0x675 PUSH2 0x18D6 JUMP JUMPDEST PUSH8 0x69789FBBC4F8000 DUP2 GT ISZERO PUSH2 0x6B4 JUMPI PUSH1 0x40 MLOAD PUSH4 0xC3AF7CC7 PUSH1 0xE0 SHL DUP2 MSTORE PUSH8 0x69789FBBC4F8000 PUSH1 0x4 DUP3 ADD MSTORE PUSH1 0x24 DUP2 ADD DUP3 SWAP1 MSTORE PUSH1 0x44 ADD JUMPDEST PUSH1 0x40 MLOAD DUP1 SWAP2 SUB SWAP1 REVERT JUMPDEST PUSH1 0x5 DUP1 SLOAD SWAP1 DUP3 SWAP1 SSTORE PUSH1 0x40 DUP1 MLOAD DUP3 DUP2 MSTORE PUSH1 0x20 DUP2 ADD DUP5 SWAP1 MSTORE PUSH32 0x3EA86743BC8B6977A0693F6611AD7256D6EC1E3F996C6CBA22E146152959DDFF SWAP2 ADD PUSH1 0x40 MLOAD DUP1 SWAP2 SUB SWAP1 LOG1 POP POP PUSH1 0x0 DUP1 SLOAD PUSH1 0xFF NOT AND PUSH1 0x1 OR SWAP1 SSTORE JUMP JUMPDEST PUSH2 0x715 PUSH4 0x1E13380 PUSH1 0x4 PUSH2 0x1FBA JUMP JUMPDEST DUP2 JUMP JUMPDEST PUSH1 0x0 SLOAD PUSH1 0xFF AND PUSH2 0x73B JUMPI PUSH1 0x40 MLOAD PUSH4 0x6FDA65D PUSH1 0xE3 SHL DUP2 MSTORE PUSH1 0x4 ADD PUSH1 0x40 MLOAD DUP1 SWAP2 SUB SWAP1 REVERT JUMPDEST PUSH1 0x0 DUP1 SLOAD PUSH1 0xFF NOT AND SWAP1 SSTORE PUSH2 0x74D PUSH2 0x17A3 JUMP JUMPDEST PUSH2 0x755 PUSH2 0x18D6 JUMP JUMPDEST PUSH32 0x0 PUSH1 0x1 PUSH1 0x1 PUSH1 0xA0 SHL SUB AND DUP2 PUSH1 0x1 PUSH1 0x1 PUSH1 0xA0 SHL SUB AND EQ ISZERO PUSH2 0x7DB JUMPI PUSH1 0x40 MLOAD PUSH4 0xEF52F72D PUSH1 0xE0 SHL DUP2 MSTORE PUSH1 0x1 PUSH1 0x1 PUSH1 0xA0 SHL SUB DUP1 DUP4 AND PUSH1 0x4 DUP4 ADD MSTORE PUSH32 0x0 AND PUSH1 0x24 DUP3 ADD MSTORE PUSH1 0x44 ADD PUSH2 0x6AB JUMP JUMPDEST PUSH1 0x0 PUSH2 0x7F0 PUSH1 0x1 PUSH1 0x1 PUSH1 0xA0 SHL SUB DUP4 AND ADDRESS PUSH2 0x19A8 JUMP JUMPDEST SWAP1 POP PUSH2 0x806 PUSH1 0x1 PUSH1 0x1 PUSH1 0xA0 SHL SUB DUP4 AND CALLER DUP4 PUSH2 0x19D1 JUMP JUMPDEST CALLER PUSH1 0x1 PUSH1 0x1 PUSH1 0xA0 SHL SUB DUP4 AND PUSH32 0xEE2522CA264E96C7CEF76269664E2A4CEA70AD76B78EE5B01D0587798A0A72D6 DUP4 PUSH2 0x83B PUSH2 0x10BF JUMP JUMPDEST PUSH1 0x40 DUP1 MLOAD SWAP3 DUP4 MSTORE PUSH1 0x20 DUP4 ADD SWAP2 SWAP1 SWAP2 MSTORE ADD PUSH1 0x40 MLOAD DUP1 SWAP2 SUB SWAP1 LOG3 POP POP PUSH1 0x0 DUP1 SLOAD PUSH1 0xFF NOT AND PUSH1 0x1 OR SWAP1 SSTORE JUMP JUMPDEST PUSH1 0x0 SLOAD PUSH1 0xFF AND PUSH2 0x887 JUMPI PUSH1 0x40 MLOAD PUSH4 0x6FDA65D PUSH1 0xE3 SHL DUP2 MSTORE PUSH1 0x4 ADD PUSH1 0x40 MLOAD DUP1 SWAP2 SUB SWAP1 REVERT JUMPDEST PUSH1 0x0 DUP1 SLOAD PUSH1 0xFF NOT AND SWAP1 SSTORE PUSH2 0x899 PUSH2 0x17A3 JUMP JUMPDEST PUSH2 0x8A1 PUSH2 0x1A1A JUMP JUMPDEST PUSH1 0x0 DUP1 SLOAD PUSH1 0xFF NOT AND PUSH1 0x1 OR SWAP1 SSTORE JUMP JUMPDEST PUSH1 0x0 SLOAD PUSH1 0xFF AND PUSH2 0x8D3 JUMPI PUSH1 0x40 MLOAD PUSH4 0x6FDA65D PUSH1 0xE3 SHL DUP2 MSTORE PUSH1 0x4 ADD PUSH1 0x40 MLOAD DUP1 SWAP2 SUB SWAP1 REVERT JUMPDEST PUSH1 0x0 DUP1 SLOAD PUSH1 0xFF NOT AND SWAP1 SSTORE PUSH2 0x8E5 PUSH2 0x17A3 JUMP JUMPDEST PUSH2 0x8ED PUSH2 0x1A1A JUMP JUMPDEST PUSH2 0x8A1 PUSH2 0x1A44 JUMP JUMPDEST PUSH1 0x0 SLOAD PUSH1 0xFF AND PUSH2 0x918 JUMPI PUSH1 0x40 MLOAD PUSH4 0x6FDA65D PUSH1 0xE3 SHL DUP2 MSTORE PUSH1 0x4 ADD PUSH1 0x40 MLOAD DUP1 SWAP2 SUB SWAP1 REVERT JUMPDEST PUSH1 0x0 DUP1 SLOAD PUSH1 0xFF NOT AND SWAP1 SSTORE PUSH2 0x92A PUSH2 0x17A3 JUMP JUMPDEST PUSH1 0x40 MLOAD PUSH4 0x1AD4C8C3 PUSH1 0xE0 SHL DUP2 MSTORE PUSH1 0x4 DUP2 ADD DUP6 SWAP1 MSTORE PUSH1 0x0 SWAP1 PUSH32 0x0 PUSH1 0x1 PUSH1 0x1 PUSH1 0xA0 SHL SUB AND SWAP1 PUSH4 0x1AD4C8C3 SWAP1 PUSH1 0x24 ADD PUSH1 0xA0 PUSH1 0x40 MLOAD DUP1 DUP4 SUB DUP2 DUP7 DUP1 EXTCODESIZE ISZERO DUP1 ISZERO PUSH2 0x98D JUMPI PUSH1 0x0 DUP1 REVERT JUMPDEST POP GAS STATICCALL ISZERO DUP1 ISZERO PUSH2 0x9A1 JUMPI RETURNDATASIZE PUSH1 0x0 DUP1 RETURNDATACOPY RETURNDATASIZE PUSH1 0x0 REVERT JUMPDEST POP POP POP POP PUSH1 0x40 MLOAD RETURNDATASIZE PUSH1 0x1F NOT PUSH1 0x1F DUP3 ADD AND DUP3 ADD DUP1 PUSH1 0x40 MSTORE POP DUP2 ADD SWAP1 PUSH2 0x9C5 SWAP2 SWAP1 PUSH2 0x1D90 JUMP JUMPDEST POP POP SWAP3 POP POP POP DUP1 PUSH1 0x1 PUSH1 0x1 PUSH1 0xA0 SHL SUB AND PUSH2 0x9DC CALLER SWAP1 JUMP JUMPDEST PUSH1 0x1 PUSH1 0x1 PUSH1 0xA0 SHL SUB AND EQ PUSH2 0xA14 JUMPI PUSH1 0x40 MLOAD PUSH4 0x741D1AF9 PUSH1 0xE0 SHL DUP2 MSTORE PUSH1 0x1 PUSH1 0x1 PUSH1 0xA0 SHL SUB DUP3 AND PUSH1 0x4 DUP3 ADD MSTORE CALLER PUSH1 0x24 DUP3 ADD MSTORE PUSH1 0x44 ADD PUSH2 0x6AB JUMP JUMPDEST PUSH1 0x0 PUSH2 0xA1F DUP3 PUSH2 0x1B95 JUMP JUMPDEST PUSH1 0x1 PUSH1 0x1 PUSH1 0xA0 SHL SUB DUP1 DUP5 AND PUSH1 0x0 SWAP1 DUP2 MSTORE PUSH1 0x2 PUSH1 0x20 SWAP1 DUP2 MSTORE PUSH1 0x40 DUP1 DUP4 KECCAK256 SWAP4 DUP11 AND DUP4 MSTORE SWAP3 SWAP1 MSTORE SWAP1 DUP2 KECCAK256 SWAP2 SWAP3 POP DUP5 PUSH2 0xA58 PUSH1 0x1 PUSH1 0x60 SHL DUP9 PUSH2 0x1FBA JUMP JUMPDEST PUSH2 0xA62 SWAP2 SWAP1 PUSH2 0x1F23 JUMP JUMPDEST DUP3 SLOAD SWAP1 SWAP2 POP PUSH1 0x0 SWAP1 PUSH2 0xA74 SWAP1 DUP4 PUSH2 0x1FD9 JUMP JUMPDEST SWAP1 POP PUSH1 0x0 PUSH1 0x1 PUSH1 0xA0 SHL DUP6 PUSH1 0x20 ADD MLOAD DUP4 PUSH2 0xA8D SWAP2 SWAP1 PUSH2 0x1F37 JUMP JUMPDEST PUSH2 0xA97 SWAP2 SWAP1 PUSH2 0x1EF5 JUMP JUMPDEST DUP4 DUP6 SSTORE PUSH1 0x1 DUP6 ADD SLOAD SWAP1 SWAP2 POP PUSH2 0xAAD SWAP1 DUP3 SWAP1 PUSH2 0x1E9C JUMP JUMPDEST PUSH1 0x1 DUP6 ADD SSTORE DUP5 MLOAD PUSH2 0xABF SWAP1 DUP4 SWAP1 PUSH2 0x1E9C JUMP JUMPDEST PUSH1 0x1 PUSH1 0x1 PUSH1 0xA0 SHL SUB SWAP1 SWAP7 AND PUSH1 0x0 SWAP1 DUP2 MSTORE PUSH1 0x1 PUSH1 0x20 DUP2 SWAP1 MSTORE PUSH1 0x40 DUP3 KECCAK256 SWAP8 SWAP1 SWAP8 SSTORE DUP1 SLOAD PUSH1 0xFF NOT AND SWAP1 SWAP7 OR SWAP1 SWAP6 SSTORE POP POP POP POP POP POP POP POP POP JUMP JUMPDEST PUSH1 0x0 PUSH1 0x7 SLOAD PUSH2 0xB01 TIMESTAMP SWAP1 JUMP JUMPDEST PUSH2 0xB0B SWAP2 SWAP1 PUSH2 0x2018 JUMP JUMPDEST PUSH1 0x30 PUSH2 0xB1C PUSH4 0x1E13380 PUSH1 0x4 PUSH2 0x1FBA JUMP JUMPDEST PUSH2 0xB26 SWAP2 SWAP1 PUSH2 0x1F23 JUMP JUMPDEST PUSH2 0xB30 SWAP2 SWAP1 PUSH2 0x2018 JUMP JUMPDEST SWAP1 POP SWAP1 JUMP JUMPDEST PUSH1 0x0 PUSH2 0xB30 PUSH1 0x30 PUSH2 0xB4B PUSH4 0x1E13380 PUSH1 0x4 PUSH2 0x1FBA JUMP JUMPDEST PUSH2 0xB55 SWAP2 SWAP1 PUSH2 0x1F23 JUMP JUMPDEST PUSH1 0x7 SLOAD TIMESTAMP JUMPDEST PUSH2 0xB64 SWAP2 SWAP1 PUSH2 0x2018 JUMP JUMPDEST SWAP1 PUSH2 0x15F0 JUMP JUMPDEST PUSH1 0x0 DUP1 PUSH2 0xB86 PUSH7 0xC3663566A58000 PUSH8 0xDE0B6B3A7640000 PUSH2 0x2018 JUMP JUMPDEST SWAP1 POP PUSH1 0x0 PUSH2 0xB95 DUP5 PUSH1 0x30 PUSH2 0x2018 JUMP JUMPDEST SWAP1 POP PUSH8 0xDE0B6B3A7640000 PUSH1 0x0 JUMPDEST DUP3 DUP2 LT ISZERO PUSH2 0xBC9 JUMPI PUSH2 0xBB5 DUP3 DUP6 PUSH2 0x15DD JUMP JUMPDEST SWAP2 POP DUP1 PUSH2 0xBC1 DUP2 PUSH2 0x202F JUMP JUMPDEST SWAP2 POP POP PUSH2 0xBA3 JUMP JUMPDEST POP PUSH2 0xBDC DUP2 PUSH8 0xDE0B6B3A7640000 PUSH2 0x2018 JUMP JUMPDEST SWAP6 SWAP5 POP POP POP POP POP JUMP JUMPDEST PUSH1 0x1 PUSH1 0x1 PUSH1 0xA0 SHL SUB DUP3 DUP2 AND PUSH1 0x0 DUP2 DUP2 MSTORE PUSH1 0x1 PUSH1 0x20 DUP2 DUP2 MSTORE PUSH1 0x40 DUP1 DUP5 KECCAK256 DUP2 MLOAD PUSH1 0x80 DUP2 ADD DUP4 MSTORE DUP2 SLOAD DUP2 MSTORE DUP2 DUP6 ADD SLOAD DUP2 DUP6 ADD SWAP1 DUP2 MSTORE PUSH1 0x2 DUP1 DUP5 ADD SLOAD DUP4 DUP7 ADD MSTORE PUSH1 0x3 SWAP1 SWAP4 ADD SLOAD PUSH1 0x60 DUP4 ADD MSTORE SWAP7 DUP7 MSTORE SWAP1 DUP4 MSTORE DUP2 DUP6 KECCAK256 SWAP7 DUP9 AND DUP6 MSTORE SWAP6 DUP3 MSTORE DUP1 DUP5 KECCAK256 DUP2 MLOAD DUP1 DUP4 ADD SWAP1 SWAP3 MSTORE DUP1 SLOAD DUP3 MSTORE SWAP1 SWAP3 ADD SLOAD SWAP1 DUP3 ADD MSTORE SWAP2 MLOAD DUP4 MLOAD SWAP2 SWAP4 SWAP3 SWAP2 DUP5 TIMESTAMP SWAP1 POP DUP5 PUSH1 0x40 ADD MLOAD DUP2 GT DUP1 ISZERO PUSH2 0xC72 JUMPI POP DUP2 ISZERO ISZERO JUMPDEST ISZERO PUSH2 0xCE1 JUMPI PUSH1 0x0 DUP6 PUSH1 0x40 ADD MLOAD DUP3 PUSH2 0xC89 SWAP2 SWAP1 PUSH2 0x2018 JUMP JUMPDEST SWAP1 POP PUSH1 0x0 PUSH1 0x6 SLOAD DUP8 PUSH1 0x60 ADD MLOAD PUSH1 0x5 SLOAD DUP5 PUSH2 0xCA3 SWAP2 SWAP1 PUSH2 0x1FBA JUMP JUMPDEST PUSH2 0xCAD SWAP2 SWAP1 PUSH2 0x1FBA JUMP JUMPDEST PUSH2 0xCB7 SWAP2 SWAP1 PUSH2 0x1F23 JUMP JUMPDEST SWAP1 POP DUP4 PUSH2 0xCC8 PUSH1 0x1 PUSH1 0xA0 SHL DUP4 PUSH2 0x1FBA JUMP JUMPDEST PUSH2 0xCD2 SWAP2 SWAP1 PUSH2 0x1F23 JUMP JUMPDEST PUSH2 0xCDC SWAP1 DUP7 PUSH2 0x1EDD JUMP JUMPDEST SWAP5 POP POP POP JUMPDEST PUSH1 0x20 DUP5 ADD MLOAD DUP5 MLOAD PUSH1 0x1 PUSH1 0xA0 SHL SWAP1 PUSH2 0xCF9 SWAP1 DUP7 SWAP1 PUSH2 0x1FBA JUMP JUMPDEST PUSH2 0xD03 SWAP2 SWAP1 PUSH2 0x1F23 JUMP JUMPDEST PUSH2 0xD0D SWAP2 SWAP1 PUSH2 0x2018 JUMP JUMPDEST SWAP9 SWAP8 POP POP POP POP POP POP POP POP JUMP JUMPDEST PUSH1 0x0 SLOAD PUSH1 0xFF AND PUSH2 0xD3C JUMPI PUSH1 0x40 MLOAD PUSH4 0x6FDA65D PUSH1 0xE3 SHL DUP2 MSTORE PUSH1 0x4 ADD PUSH1 0x40 MLOAD DUP1 SWAP2 SUB SWAP1 REVERT JUMPDEST PUSH1 0x0 DUP1 SLOAD PUSH1 0xFF NOT AND SWAP1 SSTORE PUSH2 0xD4E PUSH2 0x17A3 JUMP JUMPDEST PUSH2 0xD56 PUSH2 0x18D6 JUMP JUMPDEST PUSH1 0x40 MLOAD PUSH4 0x1AD4C8C3 PUSH1 0xE0 SHL DUP2 MSTORE PUSH1 0x4 DUP2 ADD DUP4 SWAP1 MSTORE PUSH1 0x0 SWAP1 PUSH32 0x0 PUSH1 0x1 PUSH1 0x1 PUSH1 0xA0 SHL SUB AND SWAP1 PUSH4 0x1AD4C8C3 SWAP1 PUSH1 0x24 ADD PUSH1 0xA0 PUSH1 0x40 MLOAD DUP1 DUP4 SUB DUP2 DUP7 DUP1 EXTCODESIZE ISZERO DUP1 ISZERO PUSH2 0xDB9 JUMPI PUSH1 0x0 DUP1 REVERT JUMPDEST POP GAS STATICCALL ISZERO DUP1 ISZERO PUSH2 0xDCD JUMPI RETURNDATASIZE PUSH1 0x0 DUP1 RETURNDATACOPY RETURNDATASIZE PUSH1 0x0 REVERT JUMPDEST POP POP POP POP PUSH1 0x40 MLOAD RETURNDATASIZE PUSH1 0x1F NOT PUSH1 0x1F DUP3 ADD AND DUP3 ADD DUP1 PUSH1 0x40 MSTORE POP DUP2 ADD SWAP1 PUSH2 0xDF1 SWAP2 SWAP1 PUSH2 0x1D90 JUMP JUMPDEST POP POP PUSH1 0x1 PUSH1 0x1 PUSH1 0xA0 SHL SUB DUP2 AND PUSH1 0x0 SWAP1 DUP2 MSTORE PUSH1 0x1 PUSH1 0x20 MSTORE PUSH1 0x40 SWAP1 KECCAK256 PUSH1 0x3 DUP2 ADD SLOAD SWAP2 SWAP5 POP SWAP3 POP ISZERO SWAP1 POP PUSH2 0xE47 JUMPI PUSH1 0x40 MLOAD PUSH4 0x62DA3A2B PUSH1 0xE1 SHL DUP2 MSTORE PUSH1 0x4 DUP2 ADD DUP6 SWAP1 MSTORE PUSH1 0x1 PUSH1 0x1 PUSH1 0xA0 SHL SUB DUP4 AND PUSH1 0x24 DUP3 ADD MSTORE PUSH1 0x44 ADD PUSH2 0x6AB JUMP JUMPDEST DUP3 PUSH1 0x6 PUSH1 0x0 DUP3 DUP3 SLOAD PUSH2 0xE59 SWAP2 SWAP1 PUSH2 0x1EDD JUMP JUMPDEST SWAP1 SWAP2 SSTORE POP POP PUSH1 0x3 DUP2 ADD DUP4 SWAP1 SSTORE PUSH1 0x4 DUP1 SLOAD PUSH1 0x1 DUP2 ADD DUP3 SSTORE PUSH1 0x0 SWAP2 SWAP1 SWAP2 MSTORE PUSH32 0x8A35ACFBC15FF81A39AE7D344FD709F28E8600B4AA8C65C6B64BFE7FE36BD19B ADD DUP1 SLOAD PUSH20 0xFFFFFFFFFFFFFFFFFFFFFFFFFFFFFFFFFFFFFFFF NOT AND PUSH1 0x1 PUSH1 0x1 PUSH1 0xA0 SHL SUB DUP5 AND SWAP1 DUP2 OR SWAP1 SWAP2 SSTORE PUSH1 0x40 MLOAD DUP5 DUP2 MSTORE DUP6 SWAP1 PUSH32 0x68BEA3F037520D478C14FD27A27947249AADE51810B62999AF0776BBD0097B96 SWAP1 PUSH1 0x20 ADD PUSH1 0x40 MLOAD DUP1 SWAP2 SUB SWAP1 LOG3 POP POP PUSH1 0x0 DUP1 SLOAD PUSH1 0xFF NOT AND PUSH1 0x1 OR SWAP1 SSTORE POP POP JUMP JUMPDEST PUSH1 0x0 DUP1 PUSH2 0xF13 PUSH2 0x10BF JUMP JUMPDEST SWAP1 POP PUSH2 0xF1E DUP2 PUSH2 0x14D9 JUMP JUMPDEST SWAP2 POP POP SWAP1 JUMP JUMPDEST PUSH1 0x0 SLOAD PUSH1 0xFF AND PUSH2 0xF47 JUMPI PUSH1 0x40 MLOAD PUSH4 0x6FDA65D PUSH1 0xE3 SHL DUP2 MSTORE PUSH1 0x4 ADD PUSH1 0x40 MLOAD DUP1 SWAP2 SUB SWAP1 REVERT JUMPDEST PUSH1 0x0 DUP1 SLOAD PUSH1 0xFF NOT AND SWAP1 SSTORE PUSH2 0xF59 PUSH2 0x17A3 JUMP JUMPDEST PUSH1 0x0 PUSH2 0xF64 DUP4 PUSH2 0x1B95 JUMP JUMPDEST PUSH1 0x1 PUSH1 0x1 PUSH1 0xA0 SHL SUB DUP5 AND PUSH1 0x0 SWAP1 DUP2 MSTORE PUSH1 0x2 PUSH1 0x20 SWAP1 DUP2 MSTORE PUSH1 0x40 DUP1 DUP4 KECCAK256 CALLER DUP5 MSTORE DUP3 MSTORE DUP3 KECCAK256 SWAP1 DUP4 ADD MLOAD DUP2 SLOAD SWAP4 SWAP5 POP SWAP1 SWAP3 PUSH1 0x1 PUSH1 0xA0 SHL SWAP2 PUSH2 0xFA0 SWAP2 PUSH2 0x1FBA JUMP JUMPDEST PUSH2 0xFAA SWAP2 SWAP1 PUSH2 0x1F23 JUMP JUMPDEST SWAP1 POP PUSH1 0x0 DUP3 PUSH1 0x1 ADD SLOAD DUP3 PUSH2 0xFBE SWAP2 SWAP1 PUSH2 0x1FD9 JUMP JUMPDEST PUSH1 0x1 DUP5 ADD DUP4 SWAP1 SSTORE SWAP1 POP DUP1 ISZERO PUSH2 0x104C JUMPI PUSH2 0x1001 PUSH1 0x1 PUSH1 0x1 PUSH1 0xA0 SHL SUB PUSH32 0x0 AND DUP7 DUP4 PUSH2 0x19D1 JUMP JUMPDEST DUP1 PUSH1 0x9 PUSH1 0x0 DUP3 DUP3 SLOAD PUSH2 0x1013 SWAP2 SWAP1 PUSH2 0x1EDD JUMP JUMPDEST SWAP1 SWAP2 SSTORE POP DUP2 SWAP1 POP PUSH1 0x3 PUSH1 0x0 PUSH2 0x1026 PUSH2 0x10BF JUMP JUMPDEST DUP2 MSTORE PUSH1 0x20 ADD SWAP1 DUP2 MSTORE PUSH1 0x20 ADD PUSH1 0x0 KECCAK256 PUSH1 0x3 ADD PUSH1 0x0 DUP3 DUP3 SLOAD PUSH2 0x1046 SWAP2 SWAP1 PUSH2 0x1EDD JUMP JUMPDEST SWAP1 SWAP2 SSTORE POP POP JUMPDEST PUSH1 0x40 DUP1 MLOAD CALLER DUP2 MSTORE PUSH1 0x20 DUP2 ADD DUP4 SWAP1 MSTORE DUP2 MLOAD PUSH1 0x1 PUSH1 0x1 PUSH1 0xA0 SHL SUB DUP10 AND SWAP3 PUSH32 0x56CC9CF62F5A3A4367575119E524522956236E34A9A06EAB7FCF9880B76B81CC SWAP3 DUP3 SWAP1 SUB ADD SWAP1 LOG2 POP POP PUSH1 0x0 DUP1 SLOAD PUSH1 0xFF NOT AND PUSH1 0x1 OR SWAP1 SSTORE POP POP POP POP JUMP JUMPDEST PUSH1 0x30 PUSH2 0x10B5 PUSH4 0x1E13380 PUSH1 0x4 PUSH2 0x1FBA JUMP JUMPDEST PUSH2 0x715 SWAP2 SWAP1 PUSH2 0x1F23 JUMP JUMPDEST PUSH1 0x0 TIMESTAMP PUSH32 0x0 DUP2 LT PUSH2 0x10F1 JUMPI PUSH1 0x30 SWAP2 POP POP SWAP1 JUMP JUMPDEST PUSH1 0x30 PUSH2 0x1102 PUSH4 0x1E13380 PUSH1 0x4 PUSH2 0x1FBA JUMP JUMPDEST PUSH2 0x110C SWAP2 SWAP1 PUSH2 0x1F23 JUMP JUMPDEST PUSH2 0x1136 PUSH32 0x0 DUP4 PUSH2 0x2018 JUMP JUMPDEST PUSH2 0xF1E SWAP2 SWAP1 PUSH2 0x1F23 JUMP JUMPDEST PUSH1 0x4 DUP2 DUP2 SLOAD DUP2 LT PUSH2 0x1150 JUMPI PUSH1 0x0 DUP1 REVERT JUMPDEST PUSH1 0x0 SWAP2 DUP3 MSTORE PUSH1 0x20 SWAP1 SWAP2 KECCAK256 ADD SLOAD PUSH1 0x1 PUSH1 0x1 PUSH1 0xA0 SHL SUB AND SWAP1 POP DUP2 JUMP JUMPDEST PUSH1 0x0 SLOAD PUSH1 0xFF AND PUSH2 0x118D JUMPI PUSH1 0x40 MLOAD PUSH4 0x6FDA65D PUSH1 0xE3 SHL DUP2 MSTORE PUSH1 0x4 ADD PUSH1 0x40 MLOAD DUP1 SWAP2 SUB SWAP1 REVERT JUMPDEST PUSH1 0x0 DUP1 SLOAD PUSH1 0xFF NOT AND SWAP1 SSTORE PUSH2 0x119F PUSH2 0x17A3 JUMP JUMPDEST PUSH2 0x11A8 DUP2 PUSH2 0x1B95 JUMP JUMPDEST POP POP PUSH1 0x0 DUP1 SLOAD PUSH1 0xFF NOT AND PUSH1 0x1 OR SWAP1 SSTORE JUMP JUMPDEST PUSH1 0x0 SLOAD PUSH1 0xFF AND PUSH2 0x11DC JUMPI PUSH1 0x40 MLOAD PUSH4 0x6FDA65D PUSH1 0xE3 SHL DUP2 MSTORE PUSH1 0x4 ADD PUSH1 0x40 MLOAD DUP1 SWAP2 SUB SWAP1 REVERT JUMPDEST PUSH1 0x0 DUP1 SLOAD PUSH1 0xFF NOT AND SWAP1 SSTORE PUSH2 0x11EE PUSH2 0x17A3 JUMP JUMPDEST PUSH2 0x11F6 PUSH2 0x18D6 JUMP JUMPDEST PUSH1 0x40 MLOAD PUSH4 0x1AD4C8C3 PUSH1 0xE0 SHL DUP2 MSTORE PUSH1 0x4 DUP2 ADD DUP4 SWAP1 MSTORE PUSH1 0x0 SWAP1 PUSH32 0x0 PUSH1 0x1 PUSH1 0x1 PUSH1 0xA0 SHL SUB AND SWAP1 PUSH4 0x1AD4C8C3 SWAP1 PUSH1 0x24 ADD PUSH1 0xA0 PUSH1 0x40 MLOAD DUP1 DUP4 SUB DUP2 DUP7 DUP1 EXTCODESIZE ISZERO DUP1 ISZERO PUSH2 0x1259 JUMPI PUSH1 0x0 DUP1 REVERT JUMPDEST POP GAS STATICCALL ISZERO DUP1 ISZERO PUSH2 0x126D JUMPI RETURNDATASIZE PUSH1 0x0 DUP1 RETURNDATACOPY RETURNDATASIZE PUSH1 0x0 REVERT JUMPDEST POP POP POP POP PUSH1 0x40 MLOAD RETURNDATASIZE PUSH1 0x1F NOT PUSH1 0x1F DUP3 ADD AND DUP3 ADD DUP1 PUSH1 0x40 MSTORE POP DUP2 ADD SWAP1 PUSH2 0x1291 SWAP2 SWAP1 PUSH2 0x1D90 JUMP JUMPDEST POP POP PUSH1 0x1 PUSH1 0x1 PUSH1 0xA0 SHL SUB DUP2 AND PUSH1 0x0 SWAP1 DUP2 MSTORE PUSH1 0x1 PUSH1 0x20 MSTORE PUSH1 0x40 SWAP1 KECCAK256 PUSH1 0x3 DUP2 ADD SLOAD SWAP2 SWAP5 POP SWAP3 POP ISZERO ISZERO SWAP1 POP PUSH2 0x12E8 JUMPI PUSH1 0x40 MLOAD PUSH4 0x316E8643 PUSH1 0xE0 SHL DUP2 MSTORE PUSH1 0x4 DUP2 ADD DUP6 SWAP1 MSTORE PUSH1 0x1 PUSH1 0x1 PUSH1 0xA0 SHL SUB DUP4 AND PUSH1 0x24 DUP3 ADD MSTORE PUSH1 0x44 ADD PUSH2 0x6AB JUMP JUMPDEST PUSH1 0x3 DUP2 ADD SLOAD PUSH1 0x6 SLOAD DUP5 SWAP1 PUSH2 0x12FD SWAP1 DUP4 SWAP1 PUSH2 0x2018 JUMP JUMPDEST PUSH2 0x1307 SWAP2 SWAP1 PUSH2 0x1EDD JUMP JUMPDEST PUSH1 0x6 SSTORE PUSH1 0x3 DUP3 ADD DUP5 SWAP1 SSTORE PUSH1 0x40 DUP1 MLOAD PUSH1 0x1 PUSH1 0x1 PUSH1 0xA0 SHL SUB DUP6 AND DUP2 MSTORE PUSH1 0x20 DUP2 ADD DUP4 SWAP1 MSTORE SWAP1 DUP2 ADD DUP6 SWAP1 MSTORE DUP6 SWAP1 PUSH32 0x9436A68F01CF8A4F756C053A98D6D88CDBD763A2D8AD77273779D054E2B82EEF SWAP1 PUSH1 0x60 ADD PUSH1 0x40 MLOAD DUP1 SWAP2 SUB SWAP1 LOG2 POP POP PUSH1 0x0 DUP1 SLOAD PUSH1 0xFF NOT AND PUSH1 0x1 OR SWAP1 SSTORE POP POP POP JUMP JUMPDEST PUSH1 0x0 PUSH2 0xB30 TIMESTAMP PUSH32 0x0 PUSH2 0x2018 JUMP JUMPDEST PUSH1 0x0 PUSH2 0xB30 PUSH2 0x13B1 PUSH4 0x1E13380 PUSH1 0x4 PUSH2 0x1FBA JUMP JUMPDEST PUSH32 0x0 TIMESTAMP PUSH2 0xB5A JUMP JUMPDEST PUSH1 0x0 SLOAD PUSH1 0xFF AND PUSH2 0x13FB JUMPI PUSH1 0x40 MLOAD PUSH4 0x6FDA65D PUSH1 0xE3 SHL DUP2 MSTORE PUSH1 0x4 ADD PUSH1 0x40 MLOAD DUP1 SWAP2 SUB SWAP1 REVERT JUMPDEST PUSH1 0x0 DUP1 SLOAD PUSH1 0xFF NOT AND SWAP1 SSTORE PUSH2 0x140D PUSH2 0x17A3 JUMP JUMPDEST PUSH1 0x0 PUSH2 0x1418 PUSH1 0x4 SLOAD SWAP1 JUMP JUMPDEST SWAP1 POP PUSH1 0x0 PUSH1 0x4 DUP1 SLOAD DUP1 PUSH1 0x20 MUL PUSH1 0x20 ADD PUSH1 0x40 MLOAD SWAP1 DUP2 ADD PUSH1 0x40 MSTORE DUP1 SWAP3 SWAP2 SWAP1 DUP2 DUP2 MSTORE PUSH1 0x20 ADD DUP3 DUP1 SLOAD DUP1 ISZERO PUSH2 0x1472 JUMPI PUSH1 0x20 MUL DUP3 ADD SWAP2 SWAP1 PUSH1 0x0 MSTORE PUSH1 0x20 PUSH1 0x0 KECCAK256 SWAP1 JUMPDEST DUP2 SLOAD PUSH1 0x1 PUSH1 0x1 PUSH1 0xA0 SHL SUB AND DUP2 MSTORE PUSH1 0x1 SWAP1 SWAP2 ADD SWAP1 PUSH1 0x20 ADD DUP1 DUP4 GT PUSH2 0x1454 JUMPI JUMPDEST POP POP POP POP POP SWAP1 POP PUSH1 0x0 JUMPDEST DUP3 DUP2 LT ISZERO PUSH2 0x14C7 JUMPI PUSH2 0x14B4 DUP3 DUP3 DUP2 MLOAD DUP2 LT PUSH2 0x14A7 JUMPI PUSH4 0x4E487B71 PUSH1 0xE0 SHL PUSH1 0x0 MSTORE PUSH1 0x32 PUSH1 0x4 MSTORE PUSH1 0x24 PUSH1 0x0 REVERT JUMPDEST PUSH1 0x20 MUL PUSH1 0x20 ADD ADD MLOAD PUSH2 0x1B95 JUMP JUMPDEST POP DUP1 PUSH2 0x14BF DUP2 PUSH2 0x202F JUMP JUMPDEST SWAP2 POP POP PUSH2 0x147C JUMP JUMPDEST POP POP PUSH1 0x0 DUP1 SLOAD PUSH1 0xFF NOT AND PUSH1 0x1 OR SWAP1 SSTORE POP JUMP JUMPDEST PUSH1 0x0 DUP1 PUSH1 0x30 DUP4 LT PUSH2 0x14ED JUMPI POP PUSH1 0x0 SWAP3 SWAP2 POP POP JUMP JUMPDEST PUSH1 0x0 JUMPDEST DUP4 DUP2 GT PUSH2 0x1542 JUMPI PUSH2 0x1522 PUSH2 0x1503 DUP3 PUSH2 0xB6A JUMP JUMPDEST PUSH2 0xB64 PUSH7 0xC3663566A58000 DUP6 PUSH1 0x8 SLOAD PUSH2 0x151C SWAP2 SWAP1 PUSH2 0x2018 JUMP JUMPDEST SWAP1 PUSH2 0x15DD JUMP JUMPDEST SWAP3 POP PUSH2 0x152E DUP4 DUP4 PUSH2 0x1EDD JUMP JUMPDEST SWAP2 POP DUP1 PUSH2 0x153A DUP2 PUSH2 0x202F JUMP JUMPDEST SWAP2 POP POP PUSH2 0x14F0 JUMP JUMPDEST POP POP SWAP2 SWAP1 POP JUMP JUMPDEST PUSH1 0x0 DUP1 PUSH1 0x0 PUSH1 0x30 DUP5 LT PUSH2 0x1560 JUMPI POP PUSH1 0x0 SWAP4 SWAP3 POP POP POP JUMP JUMPDEST PUSH1 0x0 JUMPDEST DUP5 DUP2 GT PUSH2 0x15AF JUMPI PUSH2 0x158F PUSH2 0x1576 DUP3 PUSH2 0xB6A JUMP JUMPDEST PUSH2 0xB64 PUSH7 0xC3663566A58000 DUP7 PUSH1 0x8 SLOAD PUSH2 0x151C SWAP2 SWAP1 PUSH2 0x2018 JUMP JUMPDEST SWAP2 POP PUSH2 0x159B DUP3 DUP5 PUSH2 0x1EDD JUMP JUMPDEST SWAP3 POP DUP1 PUSH2 0x15A7 DUP2 PUSH2 0x202F JUMP JUMPDEST SWAP2 POP POP PUSH2 0x1563 JUMP JUMPDEST POP PUSH1 0x30 PUSH2 0x15C1 PUSH4 0x1E13380 PUSH1 0x4 PUSH2 0x1FBA JUMP JUMPDEST PUSH2 0x15CB SWAP2 SWAP1 PUSH2 0x1F23 JUMP JUMPDEST PUSH2 0x15D5 SWAP1 DUP3 PUSH2 0x1F23 JUMP JUMPDEST SWAP5 SWAP4 POP POP POP POP JUMP JUMPDEST PUSH1 0x0 PUSH2 0x15E9 DUP4 DUP4 PUSH2 0x1605 JUMP JUMPDEST SWAP4 SWAP3 POP POP POP JUMP JUMPDEST PUSH1 0x0 PUSH2 0x15E9 DUP4 PUSH8 0xDE0B6B3A7640000 DUP5 PUSH2 0x16C8 JUMP JUMPDEST PUSH1 0x0 DUP1 DUP1 PUSH1 0x0 NOT DUP5 DUP7 MULMOD DUP5 DUP7 MUL SWAP3 POP DUP3 DUP2 LT DUP4 DUP3 SUB SUB SWAP2 POP POP PUSH8 0xDE0B6B3A7640000 DUP2 LT PUSH2 0x1649 JUMPI PUSH1 0x40 MLOAD PUSH4 0x698D9A01 PUSH1 0xE1 SHL DUP2 MSTORE PUSH1 0x4 DUP2 ADD DUP3 SWAP1 MSTORE PUSH1 0x24 ADD PUSH2 0x6AB JUMP JUMPDEST PUSH1 0x0 DUP1 PUSH8 0xDE0B6B3A7640000 DUP7 DUP9 MULMOD SWAP2 POP POP PUSH8 0x6F05B59D3B1FFFF DUP2 GT DUP3 PUSH2 0x1683 JUMPI DUP1 PUSH8 0xDE0B6B3A7640000 DUP6 DIV ADD SWAP5 POP POP POP POP POP PUSH2 0x16C2 JUMP JUMPDEST PUSH3 0x40000 DUP3 DUP6 SUB DIV SWAP4 SWAP1 SWAP2 GT SWAP1 SWAP2 SUB PUSH1 0x1 PUSH1 0xEE SHL MUL SWAP2 SWAP1 SWAP2 OR PUSH32 0xACCB18165BD6FE31AE1CF318DC5B51EEE0E1BA569B88CD74C1773B91FAC10669 MUL ADD SWAP1 POP JUMPDEST SWAP3 SWAP2 POP POP JUMP JUMPDEST PUSH1 0x0 DUP1 DUP1 PUSH1 0x0 NOT DUP6 DUP8 MULMOD DUP6 DUP8 MUL SWAP3 POP DUP3 DUP2 LT DUP4 DUP3 SUB SUB SWAP2 POP POP DUP1 PUSH1 0x0 EQ ISZERO PUSH2 0x1711 JUMPI DUP4 DUP3 DUP2 PUSH2 0x1707 JUMPI PUSH4 0x4E487B71 PUSH1 0xE0 SHL PUSH1 0x0 MSTORE PUSH1 0x12 PUSH1 0x4 MSTORE PUSH1 0x24 PUSH1 0x0 REVERT JUMPDEST DIV SWAP3 POP POP POP PUSH2 0x15E9 JUMP JUMPDEST DUP4 DUP2 LT PUSH2 0x173B JUMPI PUSH1 0x40 MLOAD PUSH4 0x1DCF3063 PUSH1 0xE2 SHL DUP2 MSTORE PUSH1 0x4 DUP2 ADD DUP3 SWAP1 MSTORE PUSH1 0x24 DUP2 ADD DUP6 SWAP1 MSTORE PUSH1 0x44 ADD PUSH2 0x6AB JUMP JUMPDEST PUSH1 0x0 DUP5 DUP7 DUP9 MULMOD PUSH1 0x2 PUSH1 0x3 PUSH1 0x1 DUP9 NOT DUP2 ADD DUP10 AND SWAP9 DUP10 SWAP1 DIV SWAP2 DUP3 MUL DUP4 XOR DUP1 DUP4 MUL DUP5 SUB MUL DUP1 DUP4 MUL DUP5 SUB MUL DUP1 DUP4 MUL DUP5 SUB MUL DUP1 DUP4 MUL DUP5 SUB MUL DUP1 DUP4 MUL DUP5 SUB MUL SWAP2 DUP3 MUL SWAP1 SWAP3 SUB MUL PUSH1 0x0 DUP9 SWAP1 SUB DUP9 SWAP1 DIV SWAP1 SWAP2 ADD DUP6 DUP4 GT SWAP1 SWAP5 SUB SWAP4 SWAP1 SWAP4 MUL SWAP4 SUB SWAP5 SWAP1 SWAP5 DIV SWAP2 SWAP1 SWAP2 OR MUL SWAP5 SWAP4 POP POP POP POP JUMP JUMPDEST PUSH1 0x7 SLOAD TIMESTAMP SWAP1 PUSH1 0x0 SWAP1 PUSH2 0x17B5 SWAP1 DUP4 PUSH2 0x2018 JUMP JUMPDEST SWAP1 POP PUSH1 0x0 PUSH1 0x30 PUSH2 0x17CA PUSH4 0x1E13380 PUSH1 0x4 PUSH2 0x1FBA JUMP JUMPDEST PUSH2 0x17D4 SWAP2 SWAP1 PUSH2 0x1F23 JUMP JUMPDEST PUSH2 0x17DE SWAP1 DUP4 PUSH2 0x1F23 JUMP JUMPDEST SWAP1 POP DUP1 ISZERO PUSH2 0x18D1 JUMPI PUSH1 0x0 PUSH2 0x17F0 PUSH2 0x10BF JUMP JUMPDEST SWAP1 POP PUSH1 0x0 PUSH2 0x17FE DUP4 DUP4 PUSH2 0x1EDD JUMP JUMPDEST SWAP1 POP PUSH1 0x30 DUP2 LT ISZERO PUSH2 0x18CE JUMPI PUSH1 0x5 SLOAD PUSH2 0x1815 DUP4 PUSH2 0x1549 JUMP JUMPDEST PUSH1 0x5 SSTORE PUSH1 0x7 DUP7 SWAP1 SSTORE PUSH1 0x0 DUP4 DUP2 MSTORE PUSH1 0x3 PUSH1 0x20 MSTORE PUSH1 0x40 SWAP1 KECCAK256 PUSH1 0x4 DUP1 DUP3 ADD DUP9 SWAP1 SSTORE PUSH1 0x30 SWAP1 PUSH2 0x1845 SWAP1 PUSH4 0x1E13380 SWAP1 PUSH2 0x1FBA JUMP JUMPDEST PUSH2 0x184F SWAP2 SWAP1 PUSH2 0x1F23 JUMP JUMPDEST PUSH2 0x1859 SWAP1 DUP9 PUSH2 0x1EDD JUMP JUMPDEST PUSH1 0x5 DUP1 DUP4 ADD SWAP2 SWAP1 SWAP2 SSTORE DUP5 DUP3 SSTORE SLOAD PUSH1 0x1 DUP3 ADD SSTORE PUSH2 0x1874 DUP5 PUSH2 0x14D9 JUMP JUMPDEST PUSH1 0x2 DUP3 ADD SSTORE PUSH32 0xCC53A96DDDB8D3B8710C4932D9E90652A4EAEF0BF4C37A13DC4D806E1B54CB4D PUSH2 0x18A5 PUSH1 0x1 DUP7 PUSH2 0x2018 JUMP JUMPDEST PUSH1 0x5 SLOAD PUSH1 0x40 DUP1 MLOAD SWAP3 DUP4 MSTORE PUSH1 0x20 DUP4 ADD DUP9 SWAP1 MSTORE DUP3 ADD DUP6 SWAP1 MSTORE PUSH1 0x60 DUP3 ADD MSTORE PUSH1 0x80 ADD PUSH1 0x40 MLOAD DUP1 SWAP2 SUB SWAP1 LOG1 POP POP JUMPDEST POP POP JUMPDEST POP POP POP JUMP JUMPDEST PUSH1 0x0 PUSH32 0x0 PUSH1 0x1 PUSH1 0x1 PUSH1 0xA0 SHL SUB AND PUSH4 0xF851A440 PUSH1 0x40 MLOAD DUP2 PUSH4 0xFFFFFFFF AND PUSH1 0xE0 SHL DUP2 MSTORE PUSH1 0x4 ADD PUSH1 0x20 PUSH1 0x40 MLOAD DUP1 DUP4 SUB DUP2 DUP7 DUP1 EXTCODESIZE ISZERO DUP1 ISZERO PUSH2 0x1931 JUMPI PUSH1 0x0 DUP1 REVERT JUMPDEST POP GAS STATICCALL ISZERO DUP1 ISZERO PUSH2 0x1945 JUMPI RETURNDATASIZE PUSH1 0x0 DUP1 RETURNDATACOPY RETURNDATASIZE PUSH1 0x0 REVERT JUMPDEST POP POP POP POP PUSH1 0x40 MLOAD RETURNDATASIZE PUSH1 0x1F NOT PUSH1 0x1F DUP3 ADD AND DUP3 ADD DUP1 PUSH1 0x40 MSTORE POP DUP2 ADD SWAP1 PUSH2 0x1969 SWAP2 SWAP1 PUSH2 0x1D3C JUMP JUMPDEST SWAP1 POP CALLER PUSH1 0x1 PUSH1 0x1 PUSH1 0xA0 SHL SUB DUP3 AND EQ PUSH2 0x19A5 JUMPI PUSH1 0x40 MLOAD PUSH4 0x5113AFBD PUSH1 0xE0 SHL DUP2 MSTORE PUSH1 0x1 PUSH1 0x1 PUSH1 0xA0 SHL SUB DUP3 AND PUSH1 0x4 DUP3 ADD MSTORE CALLER PUSH1 0x24 DUP3 ADD MSTORE PUSH1 0x44 ADD PUSH2 0x6AB JUMP JUMPDEST POP JUMP JUMPDEST PUSH1 0x0 PUSH4 0x70A08231 PUSH1 0x0 MSTORE DUP2 PUSH1 0x20 MSTORE PUSH1 0x20 DUP1 PUSH1 0x24 PUSH1 0x1C DUP7 GAS STATICCALL PUSH1 0x1F RETURNDATASIZE GT AND PUSH1 0x20 MLOAD MUL SWAP1 POP SWAP3 SWAP2 POP POP JUMP JUMPDEST DUP2 PUSH1 0x1A MSTORE DUP1 PUSH1 0x3A MSTORE PUSH10 0xA9059CBB000000000000 PUSH1 0x0 MSTORE PUSH1 0x20 PUSH1 0x0 PUSH1 0x44 PUSH1 0x16 PUSH1 0x0 DUP8 GAS CALL RETURNDATASIZE ISZERO PUSH1 0x1 PUSH1 0x0 MLOAD EQ OR AND PUSH2 0x1A10 JUMPI PUSH4 0x90B8EC18 PUSH1 0x0 MSTORE PUSH1 0x4 PUSH1 0x1C REVERT JUMPDEST PUSH1 0x0 PUSH1 0x3A MSTORE POP POP POP JUMP JUMPDEST CALLER ORIGIN EQ PUSH2 0x1A42 JUMPI PUSH1 0x40 MLOAD PUSH4 0x1F0F5933 PUSH1 0xE1 SHL DUP2 MSTORE CALLER PUSH1 0x4 DUP3 ADD MSTORE ORIGIN PUSH1 0x24 DUP3 ADD MSTORE PUSH1 0x44 ADD PUSH2 0x6AB JUMP JUMPDEST JUMP JUMPDEST PUSH32 0x0 TIMESTAMP LT ISZERO PUSH2 0x1A6E JUMPI JUMP JUMPDEST PUSH1 0x0 PUSH32 0x0 PUSH1 0x1 PUSH1 0x1 PUSH1 0xA0 SHL SUB AND PUSH4 0xF851A440 PUSH1 0x40 MLOAD DUP2 PUSH4 0xFFFFFFFF AND PUSH1 0xE0 SHL DUP2 MSTORE PUSH1 0x4 ADD PUSH1 0x20 PUSH1 0x40 MLOAD DUP1 DUP4 SUB DUP2 DUP7 DUP1 EXTCODESIZE ISZERO DUP1 ISZERO PUSH2 0x1AC9 JUMPI PUSH1 0x0 DUP1 REVERT JUMPDEST POP GAS STATICCALL ISZERO DUP1 ISZERO PUSH2 0x1ADD JUMPI RETURNDATASIZE PUSH1 0x0 DUP1 RETURNDATACOPY RETURNDATASIZE PUSH1 0x0 REVERT JUMPDEST POP POP POP POP PUSH1 0x40 MLOAD RETURNDATASIZE PUSH1 0x1F NOT PUSH1 0x1F DUP3 ADD AND DUP3 ADD DUP1 PUSH1 0x40 MSTORE POP DUP2 ADD SWAP1 PUSH2 0x1B01 SWAP2 SWAP1 PUSH2 0x1D3C JUMP JUMPDEST PUSH1 0x40 DUP1 MLOAD CALLER DUP2 MSTORE PUSH32 0x0 PUSH1 0x20 DUP3 ADD MSTORE PUSH32 0x0 DUP2 DUP4 ADD MSTORE TIMESTAMP PUSH1 0x60 DUP3 ADD MSTORE SWAP1 MLOAD SWAP2 SWAP3 POP PUSH32 0x3448D68E439B81DF30DBD68606F415F65C9EABAAEF0ACA1FFC0368CC3954C6DC SWAP2 SWAP1 DUP2 SWAP1 SUB PUSH1 0x80 ADD SWAP1 LOG1 DUP1 PUSH1 0x1 PUSH1 0x1 PUSH1 0xA0 SHL SUB AND SELFDESTRUCT JUMPDEST PUSH2 0x1BC0 PUSH1 0x40 MLOAD DUP1 PUSH1 0x80 ADD PUSH1 0x40 MSTORE DUP1 PUSH1 0x0 DUP2 MSTORE PUSH1 0x20 ADD PUSH1 0x0 DUP2 MSTORE PUSH1 0x20 ADD PUSH1 0x0 DUP2 MSTORE PUSH1 0x20 ADD PUSH1 0x0 DUP2 MSTORE POP SWAP1 JUMP JUMPDEST POP PUSH1 0x1 PUSH1 0x1 PUSH1 0xA0 SHL SUB DUP2 AND PUSH1 0x0 SWAP1 DUP2 MSTORE PUSH1 0x1 PUSH1 0x20 DUP2 DUP2 MSTORE PUSH1 0x40 SWAP3 DUP4 SWAP1 KECCAK256 DUP4 MLOAD PUSH1 0x80 DUP2 ADD DUP6 MSTORE DUP2 SLOAD DUP2 MSTORE SWAP3 DUP2 ADD SLOAD SWAP2 DUP4 ADD SWAP2 SWAP1 SWAP2 MSTORE PUSH1 0x2 DUP2 ADD SLOAD SWAP3 DUP3 ADD DUP4 SWAP1 MSTORE PUSH1 0x3 ADD SLOAD PUSH1 0x60 DUP3 ADD MSTORE SWAP1 TIMESTAMP SWAP1 DUP2 GT ISZERO PUSH2 0x1D1A JUMPI DUP2 MLOAD DUP1 ISZERO PUSH2 0x1C8C JUMPI PUSH1 0x0 DUP4 PUSH1 0x40 ADD MLOAD DUP4 PUSH2 0x1C2C SWAP2 SWAP1 PUSH2 0x2018 JUMP JUMPDEST SWAP1 POP PUSH1 0x0 PUSH1 0x6 SLOAD DUP6 PUSH1 0x60 ADD MLOAD PUSH1 0x5 SLOAD DUP5 PUSH2 0x1C46 SWAP2 SWAP1 PUSH2 0x1FBA JUMP JUMPDEST PUSH2 0x1C50 SWAP2 SWAP1 PUSH2 0x1FBA JUMP JUMPDEST PUSH2 0x1C5A SWAP2 SWAP1 PUSH2 0x1F23 JUMP JUMPDEST SWAP1 POP DUP3 PUSH2 0x1C6B PUSH1 0x1 PUSH1 0xA0 SHL DUP4 PUSH2 0x1FBA JUMP JUMPDEST PUSH2 0x1C75 SWAP2 SWAP1 PUSH2 0x1F23 JUMP JUMPDEST DUP6 PUSH1 0x20 ADD MLOAD PUSH2 0x1C84 SWAP2 SWAP1 PUSH2 0x1EDD JUMP JUMPDEST PUSH1 0x20 DUP7 ADD MSTORE POP POP JUMPDEST PUSH1 0x40 DUP1 DUP5 ADD DUP4 DUP2 MSTORE PUSH1 0x1 PUSH1 0x1 PUSH1 0xA0 SHL SUB DUP7 AND PUSH1 0x0 DUP2 DUP2 MSTORE PUSH1 0x1 PUSH1 0x20 DUP2 DUP2 MSTORE SWAP2 DUP6 SWAP1 KECCAK256 DUP9 MLOAD DUP2 SSTORE SWAP2 DUP9 ADD MLOAD SWAP1 DUP3 ADD DUP2 SWAP1 SSTORE SWAP3 MLOAD PUSH1 0x2 DUP3 ADD SSTORE PUSH1 0x60 DUP8 ADD MLOAD PUSH1 0x3 SWAP1 SWAP2 ADD SSTORE SWAP2 MLOAD PUSH32 0x7868E52EA410AFBF6DE8BE8145FE80EE3EFE3F37A824D8CCFBBFD1FA42904B4D SWAP2 PUSH2 0x1D10 SWAP2 DUP7 SWAP2 DUP7 SWAP2 SWAP3 DUP4 MSTORE PUSH1 0x20 DUP4 ADD SWAP2 SWAP1 SWAP2 MSTORE PUSH1 0x40 DUP3 ADD MSTORE PUSH1 0x60 ADD SWAP1 JUMP JUMPDEST PUSH1 0x40 MLOAD DUP1 SWAP2 SUB SWAP1 LOG2 POP JUMPDEST POP SWAP2 SWAP1 POP JUMP JUMPDEST PUSH1 0x0 PUSH1 0x20 DUP3 DUP5 SUB SLT ISZERO PUSH2 0x1D31 JUMPI DUP1 DUP2 REVERT JUMPDEST DUP2 CALLDATALOAD PUSH2 0x15E9 DUP2 PUSH2 0x2076 JUMP JUMPDEST PUSH1 0x0 PUSH1 0x20 DUP3 DUP5 SUB SLT ISZERO PUSH2 0x1D4D JUMPI DUP1 DUP2 REVERT JUMPDEST DUP2 MLOAD PUSH2 0x15E9 DUP2 PUSH2 0x2076 JUMP JUMPDEST PUSH1 0x0 DUP1 PUSH1 0x40 DUP4 DUP6 SUB SLT ISZERO PUSH2 0x1D6A JUMPI DUP1 DUP2 REVERT JUMPDEST DUP3 CALLDATALOAD PUSH2 0x1D75 DUP2 PUSH2 0x2076 JUMP JUMPDEST SWAP2 POP PUSH1 0x20 DUP4 ADD CALLDATALOAD PUSH2 0x1D85 DUP2 PUSH2 0x2076 JUMP JUMPDEST DUP1 SWAP2 POP POP SWAP3 POP SWAP3 SWAP1 POP JUMP JUMPDEST PUSH1 0x0 DUP1 PUSH1 0x0 DUP1 PUSH1 0x0 PUSH1 0xA0 DUP7 DUP9 SUB SLT ISZERO PUSH2 0x1DA7 JUMPI DUP1 DUP2 REVERT JUMPDEST DUP6 MLOAD DUP1 ISZERO ISZERO DUP2 EQ PUSH2 0x1DB6 JUMPI DUP2 DUP3 REVERT JUMPDEST PUSH1 0x20 DUP8 ADD MLOAD SWAP1 SWAP6 POP PUSH11 0xFFFFFFFFFFFFFFFFFFFFFF DUP2 AND DUP2 EQ PUSH2 0x1DD6 JUMPI DUP2 DUP3 REVERT JUMPDEST PUSH1 0x40 DUP8 ADD MLOAD SWAP1 SWAP5 POP PUSH2 0x1DE7 DUP2 PUSH2 0x2076 JUMP JUMPDEST PUSH1 0x60 DUP8 ADD MLOAD SWAP1 SWAP4 POP PUSH2 0x1DF8 DUP2 PUSH2 0x2076 JUMP JUMPDEST PUSH1 0x80 DUP8 ADD MLOAD SWAP1 SWAP3 POP PUSH12 0xFFFFFFFFFFFFFFFFFFFFFFFF DUP2 AND DUP2 EQ PUSH2 0x1E19 JUMPI DUP2 DUP3 REVERT JUMPDEST DUP1 SWAP2 POP POP SWAP3 SWAP6 POP SWAP3 SWAP6 SWAP1 SWAP4 POP JUMP JUMPDEST PUSH1 0x0 PUSH1 0x20 DUP3 DUP5 SUB SLT ISZERO PUSH2 0x1E38 JUMPI DUP1 DUP2 REVERT JUMPDEST POP CALLDATALOAD SWAP2 SWAP1 POP JUMP JUMPDEST PUSH1 0x0 DUP1 PUSH1 0x0 DUP1 PUSH1 0x80 DUP6 DUP8 SUB SLT ISZERO PUSH2 0x1E54 JUMPI DUP4 DUP5 REVERT JUMPDEST DUP5 CALLDATALOAD SWAP4 POP PUSH1 0x20 DUP6 ADD CALLDATALOAD PUSH2 0x1E66 DUP2 PUSH2 0x2076 JUMP JUMPDEST SWAP4 SWAP7 SWAP4 SWAP6 POP POP POP POP PUSH1 0x40 DUP3 ADD CALLDATALOAD SWAP2 PUSH1 0x60 ADD CALLDATALOAD SWAP1 JUMP JUMPDEST PUSH1 0x0 DUP1 PUSH1 0x40 DUP4 DUP6 SUB SLT ISZERO PUSH2 0x1E8D JUMPI DUP2 DUP3 REVERT JUMPDEST POP POP DUP1 CALLDATALOAD SWAP3 PUSH1 0x20 SWAP1 SWAP2 ADD CALLDATALOAD SWAP2 POP JUMP JUMPDEST PUSH1 0x0 DUP1 DUP3 SLT DUP1 ISZERO PUSH1 0x1 PUSH1 0x1 PUSH1 0xFF SHL SUB DUP5 SWAP1 SUB DUP6 SGT AND ISZERO PUSH2 0x1EBE JUMPI PUSH2 0x1EBE PUSH2 0x204A JUMP JUMPDEST PUSH1 0x1 PUSH1 0xFF SHL DUP4 SWAP1 SUB DUP5 SLT DUP2 AND ISZERO PUSH2 0x1ED7 JUMPI PUSH2 0x1ED7 PUSH2 0x204A JUMP JUMPDEST POP POP ADD SWAP1 JUMP JUMPDEST PUSH1 0x0 DUP3 NOT DUP3 GT ISZERO PUSH2 0x1EF0 JUMPI PUSH2 0x1EF0 PUSH2 0x204A JUMP JUMPDEST POP ADD SWAP1 JUMP JUMPDEST PUSH1 0x0 DUP3 PUSH2 0x1F04 JUMPI PUSH2 0x1F04 PUSH2 0x2060 JUMP JUMPDEST PUSH1 0x1 PUSH1 0xFF SHL DUP3 EQ PUSH1 0x0 NOT DUP5 EQ AND ISZERO PUSH2 0x1F1E JUMPI PUSH2 0x1F1E PUSH2 0x204A JUMP JUMPDEST POP SDIV SWAP1 JUMP JUMPDEST PUSH1 0x0 DUP3 PUSH2 0x1F32 JUMPI PUSH2 0x1F32 PUSH2 0x2060 JUMP JUMPDEST POP DIV SWAP1 JUMP JUMPDEST PUSH1 0x0 PUSH1 0x1 PUSH1 0x1 PUSH1 0xFF SHL SUB DUP2 DUP5 SGT DUP3 DUP5 SGT DUP1 DUP3 AND DUP7 DUP5 DIV DUP7 GT AND ISZERO PUSH2 0x1F5D JUMPI PUSH2 0x1F5D PUSH2 0x204A JUMP JUMPDEST PUSH1 0x1 PUSH1 0xFF SHL DUP5 DUP8 SLT DUP3 DUP2 AND DUP8 DUP4 SDIV DUP10 SLT AND ISZERO PUSH2 0x1F7B JUMPI PUSH2 0x1F7B PUSH2 0x204A JUMP JUMPDEST DUP6 DUP8 SLT SWAP3 POP DUP8 DUP3 SDIV DUP8 SLT DUP5 DUP5 AND AND ISZERO PUSH2 0x1F96 JUMPI PUSH2 0x1F96 PUSH2 0x204A JUMP JUMPDEST DUP8 DUP6 SDIV DUP8 SLT DUP2 DUP5 AND AND ISZERO PUSH2 0x1FAC JUMPI PUSH2 0x1FAC PUSH2 0x204A JUMP JUMPDEST POP POP POP SWAP3 SWAP1 SWAP4 MUL SWAP4 SWAP3 POP POP POP JUMP JUMPDEST PUSH1 0x0 DUP2 PUSH1 0x0 NOT DIV DUP4 GT DUP3 ISZERO ISZERO AND ISZERO PUSH2 0x1FD4 JUMPI PUSH2 0x1FD4 PUSH2 0x204A JUMP JUMPDEST POP MUL SWAP1 JUMP JUMPDEST PUSH1 0x0 DUP1 DUP4 SLT DUP1 ISZERO PUSH1 0x1 PUSH1 0xFF SHL DUP6 ADD DUP5 SLT AND ISZERO PUSH2 0x1FF7 JUMPI PUSH2 0x1FF7 PUSH2 0x204A JUMP JUMPDEST PUSH1 0x1 PUSH1 0x1 PUSH1 0xFF SHL SUB DUP5 ADD DUP4 SGT DUP2 AND ISZERO PUSH2 0x2012 JUMPI PUSH2 0x2012 PUSH2 0x204A JUMP JUMPDEST POP POP SUB SWAP1 JUMP JUMPDEST PUSH1 0x0 DUP3 DUP3 LT ISZERO PUSH2 0x202A JUMPI PUSH2 0x202A PUSH2 0x204A JUMP JUMPDEST POP SUB SWAP1 JUMP JUMPDEST PUSH1 0x0 PUSH1 0x0 NOT DUP3 EQ ISZERO PUSH2 0x2043 JUMPI PUSH2 0x2043 PUSH2 0x204A JUMP JUMPDEST POP PUSH1 0x1 ADD SWAP1 JUMP JUMPDEST PUSH4 0x4E487B71 PUSH1 0xE0 SHL PUSH1 0x0 MSTORE PUSH1 0x11 PUSH1 0x4 MSTORE PUSH1 0x24 PUSH1 0x0 REVERT JUMPDEST PUSH4 0x4E487B71 PUSH1 0xE0 SHL PUSH1 0x0 MSTORE PUSH1 0x12 PUSH1 0x4 MSTORE PUSH1 0x24 PUSH1 0x0 REVERT JUMPDEST PUSH1 0x1 PUSH1 0x1 PUSH1 0xA0 SHL SUB DUP2 AND DUP2 EQ PUSH2 0x19A5 JUMPI PUSH1 0x0 DUP1 REVERT INVALID LOG2 PUSH5 0x6970667358 0x22 SLT KECCAK256 CALLDATALOAD 0xE2 GT 0xD0 PUSH15 0xBF46DF48A25DF138980CEDDE71ABAB 0xE SWAP8 0x49 0xDE SELFDESTRUCT DUP2 0xC1 JUMP PUSH30 0xC18C1764736F6C6343000804003300000000000000000000000000000000 "},"methodIdentifiers":{"ACC_PRECISION()":"32fcd966","BLOCKS_PER_YEAR()":"d37db1d2","DURATION()":"1be05289","EPOCH_DURATION()":"a70b9f0c","MAX_CYG_PER_BLOCK()":"c1f1e5ae","REDUCTION_FACTOR_PER_EPOCH()":"28419d62","SHARES_PRECISION()":"5de7fcd0","TOTAL_EPOCHS()":"5f15c3c9","accelerateTheUniverse()":"f2b128a4","adjustShuttleRewards(uint256,uint256)":"cb87f7f3","advanceEpoch()":"3cf80e6c","allStars(uint256)":"c2ce25ca","birth()":"c81ba8f0","calculateCygPerBlock(uint256)":"fd59c299","calculateEpochRewards(uint256)":"f6503e6c","collect(address,address)":"a12ef25e","currentEpochRewards()":"9e81b634","cygClaimed()":"83b28436","cygPerBlock()":"5493b5d6","cygToken()":"4f573686","death()":"6fa42261","emissionsCurve(uint256)":"72e127cb","epochProgression()":"6673fd97","getBlockTimestamp()":"796b89b9","getCurrentEpoch()":"b97dd9e2","getEpochInfo(uint256)":"135022c2","getStarInfo(address)":"66a9d8fa","getUserInfo(address,address)":"f2801fe7","hangar18()":"e8a24e1d","initializeShuttleRewards(uint256,uint256)":"93c3677b","lastEpochTime()":"89c614b8","pendingCyg(address,address)":"82ebcd32","setCygPerBlock(uint256)":"01bac4c6","starsLength()":"b04530b0","supernova()":"4a91f2b1","sweepToken(address)":"1be19560","timeUntilNextEpoch()":"5a5da627","timeUntilSupernova()":"ce45ae1a","totalAllocPoint()":"17caf6f1","totalCyg()":"7f4b5408","totalProgression()":"d797c4c3","trackBorrow(uint256,address,uint256,uint256)":"56f9ef96","updateStar(address)":"c9bdf755"}}}}}