{"@layerzerolabs/solidity-examples/contracts/token/oft/OFT.sol":{"OFT":{"abi":[{"inputs":[{"internalType":"string","name":"_name","type":"string"},{"internalType":"string","name":"_symbol","type":"string"},{"internalType":"address","name":"_lzEndpoint","type":"address"}],"stateMutability":"nonpayable","type":"constructor"},{"anonymous":false,"inputs":[{"indexed":true,"internalType":"address","name":"owner","type":"address"},{"indexed":true,"internalType":"address","name":"spender","type":"address"},{"indexed":false,"internalType":"uint256","name":"value","type":"uint256"}],"name":"Approval","type":"event"},{"anonymous":false,"inputs":[{"indexed":false,"internalType":"uint16","name":"_srcChainId","type":"uint16"},{"indexed":false,"internalType":"bytes","name":"_srcAddress","type":"bytes"},{"indexed":false,"internalType":"uint64","name":"_nonce","type":"uint64"},{"indexed":false,"internalType":"bytes","name":"_payload","type":"bytes"},{"indexed":false,"internalType":"bytes","name":"_reason","type":"bytes"}],"name":"MessageFailed","type":"event"},{"anonymous":false,"inputs":[{"indexed":true,"internalType":"address","name":"previousOwner","type":"address"},{"indexed":true,"internalType":"address","name":"newOwner","type":"address"}],"name":"OwnershipTransferred","type":"event"},{"anonymous":false,"inputs":[{"indexed":true,"internalType":"uint16","name":"_srcChainId","type":"uint16"},{"indexed":true,"internalType":"address","name":"_to","type":"address"},{"indexed":false,"internalType":"uint256","name":"_amount","type":"uint256"}],"name":"ReceiveFromChain","type":"event"},{"anonymous":false,"inputs":[{"indexed":false,"internalType":"uint16","name":"_srcChainId","type":"uint16"},{"indexed":false,"internalType":"bytes","name":"_srcAddress","type":"bytes"},{"indexed":false,"internalType":"uint64","name":"_nonce","type":"uint64"},{"indexed":false,"internalType":"bytes32","name":"_payloadHash","type":"bytes32"}],"name":"RetryMessageSuccess","type":"event"},{"anonymous":false,"inputs":[{"indexed":true,"internalType":"uint16","name":"_dstChainId","type":"uint16"},{"indexed":true,"internalType":"address","name":"_from","type":"address"},{"indexed":false,"internalType":"bytes","name":"_toAddress","type":"bytes"},{"indexed":false,"internalType":"uint256","name":"_amount","type":"uint256"}],"name":"SendToChain","type":"event"},{"anonymous":false,"inputs":[{"indexed":false,"internalType":"uint16","name":"_dstChainId","type":"uint16"},{"indexed":false,"internalType":"uint16","name":"_type","type":"uint16"},{"indexed":false,"internalType":"uint256","name":"_minDstGas","type":"uint256"}],"name":"SetMinDstGas","type":"event"},{"anonymous":false,"inputs":[{"indexed":false,"internalType":"address","name":"precrime","type":"address"}],"name":"SetPrecrime","type":"event"},{"anonymous":false,"inputs":[{"indexed":false,"internalType":"uint16","name":"_remoteChainId","type":"uint16"},{"indexed":false,"internalType":"bytes","name":"_path","type":"bytes"}],"name":"SetTrustedRemote","type":"event"},{"anonymous":false,"inputs":[{"indexed":false,"internalType":"uint16","name":"_remoteChainId","type":"uint16"},{"indexed":false,"internalType":"bytes","name":"_remoteAddress","type":"bytes"}],"name":"SetTrustedRemoteAddress","type":"event"},{"anonymous":false,"inputs":[{"indexed":false,"internalType":"bool","name":"_useCustomAdapterParams","type":"bool"}],"name":"SetUseCustomAdapterParams","type":"event"},{"anonymous":false,"inputs":[{"indexed":true,"internalType":"address","name":"from","type":"address"},{"indexed":true,"internalType":"address","name":"to","type":"address"},{"indexed":false,"internalType":"uint256","name":"value","type":"uint256"}],"name":"Transfer","type":"event"},{"inputs":[],"name":"DEFAULT_PAYLOAD_SIZE_LIMIT","outputs":[{"internalType":"uint256","name":"","type":"uint256"}],"stateMutability":"view","type":"function"},{"inputs":[],"name":"NO_EXTRA_GAS","outputs":[{"internalType":"uint256","name":"","type":"uint256"}],"stateMutability":"view","type":"function"},{"inputs":[],"name":"PT_SEND","outputs":[{"internalType":"uint16","name":"","type":"uint16"}],"stateMutability":"view","type":"function"},{"inputs":[{"internalType":"address","name":"owner","type":"address"},{"internalType":"address","name":"spender","type":"address"}],"name":"allowance","outputs":[{"internalType":"uint256","name":"","type":"uint256"}],"stateMutability":"view","type":"function"},{"inputs":[{"internalType":"address","name":"spender","type":"address"},{"internalType":"uint256","name":"amount","type":"uint256"}],"name":"approve","outputs":[{"internalType":"bool","name":"","type":"bool"}],"stateMutability":"nonpayable","type":"function"},{"inputs":[{"internalType":"address","name":"account","type":"address"}],"name":"balanceOf","outputs":[{"internalType":"uint256","name":"","type":"uint256"}],"stateMutability":"view","type":"function"},{"inputs":[],"name":"circulatingSupply","outputs":[{"internalType":"uint256","name":"","type":"uint256"}],"stateMutability":"view","type":"function"},{"inputs":[],"name":"decimals","outputs":[{"internalType":"uint8","name":"","type":"uint8"}],"stateMutability":"view","type":"function"},{"inputs":[{"internalType":"address","name":"spender","type":"address"},{"internalType":"uint256","name":"subtractedValue","type":"uint256"}],"name":"decreaseAllowance","outputs":[{"internalType":"bool","name":"","type":"bool"}],"stateMutability":"nonpayable","type":"function"},{"inputs":[{"internalType":"uint16","name":"_dstChainId","type":"uint16"},{"internalType":"bytes","name":"_toAddress","type":"bytes"},{"internalType":"uint256","name":"_amount","type":"uint256"},{"internalType":"bool","name":"_useZro","type":"bool"},{"internalType":"bytes","name":"_adapterParams","type":"bytes"}],"name":"estimateSendFee","outputs":[{"internalType":"uint256","name":"nativeFee","type":"uint256"},{"internalType":"uint256","name":"zroFee","type":"uint256"}],"stateMutability":"view","type":"function"},{"inputs":[{"internalType":"uint16","name":"","type":"uint16"},{"internalType":"bytes","name":"","type":"bytes"},{"internalType":"uint64","name":"","type":"uint64"}],"name":"failedMessages","outputs":[{"internalType":"bytes32","name":"","type":"bytes32"}],"stateMutability":"view","type":"function"},{"inputs":[{"internalType":"uint16","name":"_srcChainId","type":"uint16"},{"internalType":"bytes","name":"_srcAddress","type":"bytes"}],"name":"forceResumeReceive","outputs":[],"stateMutability":"nonpayable","type":"function"},{"inputs":[{"internalType":"uint16","name":"_version","type":"uint16"},{"internalType":"uint16","name":"_chainId","type":"uint16"},{"internalType":"address","name":"","type":"address"},{"internalType":"uint256","name":"_configType","type":"uint256"}],"name":"getConfig","outputs":[{"internalType":"bytes","name":"","type":"bytes"}],"stateMutability":"view","type":"function"},{"inputs":[{"internalType":"uint16","name":"_remoteChainId","type":"uint16"}],"name":"getTrustedRemoteAddress","outputs":[{"internalType":"bytes","name":"","type":"bytes"}],"stateMutability":"view","type":"function"},{"inputs":[{"internalType":"address","name":"spender","type":"address"},{"internalType":"uint256","name":"addedValue","type":"uint256"}],"name":"increaseAllowance","outputs":[{"internalType":"bool","name":"","type":"bool"}],"stateMutability":"nonpayable","type":"function"},{"inputs":[{"internalType":"uint16","name":"_srcChainId","type":"uint16"},{"internalType":"bytes","name":"_srcAddress","type":"bytes"}],"name":"isTrustedRemote","outputs":[{"internalType":"bool","name":"","type":"bool"}],"stateMutability":"view","type":"function"},{"inputs":[],"name":"lzEndpoint","outputs":[{"internalType":"contract ILayerZeroEndpoint","name":"","type":"address"}],"stateMutability":"view","type":"function"},{"inputs":[{"internalType":"uint16","name":"_srcChainId","type":"uint16"},{"internalType":"bytes","name":"_srcAddress","type":"bytes"},{"internalType":"uint64","name":"_nonce","type":"uint64"},{"internalType":"bytes","name":"_payload","type":"bytes"}],"name":"lzReceive","outputs":[],"stateMutability":"nonpayable","type":"function"},{"inputs":[{"internalType":"uint16","name":"","type":"uint16"},{"internalType":"uint16","name":"","type":"uint16"}],"name":"minDstGasLookup","outputs":[{"internalType":"uint256","name":"","type":"uint256"}],"stateMutability":"view","type":"function"},{"inputs":[],"name":"name","outputs":[{"internalType":"string","name":"","type":"string"}],"stateMutability":"view","type":"function"},{"inputs":[{"internalType":"uint16","name":"_srcChainId","type":"uint16"},{"internalType":"bytes","name":"_srcAddress","type":"bytes"},{"internalType":"uint64","name":"_nonce","type":"uint64"},{"internalType":"bytes","name":"_payload","type":"bytes"}],"name":"nonblockingLzReceive","outputs":[],"stateMutability":"nonpayable","type":"function"},{"inputs":[],"name":"owner","outputs":[{"internalType":"address","name":"","type":"address"}],"stateMutability":"view","type":"function"},{"inputs":[{"internalType":"uint16","name":"","type":"uint16"}],"name":"payloadSizeLimitLookup","outputs":[{"internalType":"uint256","name":"","type":"uint256"}],"stateMutability":"view","type":"function"},{"inputs":[],"name":"precrime","outputs":[{"internalType":"address","name":"","type":"address"}],"stateMutability":"view","type":"function"},{"inputs":[],"name":"renounceOwnership","outputs":[],"stateMutability":"nonpayable","type":"function"},{"inputs":[{"internalType":"uint16","name":"_srcChainId","type":"uint16"},{"internalType":"bytes","name":"_srcAddress","type":"bytes"},{"internalType":"uint64","name":"_nonce","type":"uint64"},{"internalType":"bytes","name":"_payload","type":"bytes"}],"name":"retryMessage","outputs":[],"stateMutability":"payable","type":"function"},{"inputs":[{"internalType":"address","name":"_from","type":"address"},{"internalType":"uint16","name":"_dstChainId","type":"uint16"},{"internalType":"bytes","name":"_toAddress","type":"bytes"},{"internalType":"uint256","name":"_amount","type":"uint256"},{"internalType":"address payable","name":"_refundAddress","type":"address"},{"internalType":"address","name":"_zroPaymentAddress","type":"address"},{"internalType":"bytes","name":"_adapterParams","type":"bytes"}],"name":"sendFrom","outputs":[],"stateMutability":"payable","type":"function"},{"inputs":[{"internalType":"uint16","name":"_version","type":"uint16"},{"internalType":"uint16","name":"_chainId","type":"uint16"},{"internalType":"uint256","name":"_configType","type":"uint256"},{"internalType":"bytes","name":"_config","type":"bytes"}],"name":"setConfig","outputs":[],"stateMutability":"nonpayable","type":"function"},{"inputs":[{"internalType":"uint16","name":"_dstChainId","type":"uint16"},{"internalType":"uint16","name":"_packetType","type":"uint16"},{"internalType":"uint256","name":"_minGas","type":"uint256"}],"name":"setMinDstGas","outputs":[],"stateMutability":"nonpayable","type":"function"},{"inputs":[{"internalType":"uint16","name":"_dstChainId","type":"uint16"},{"internalType":"uint256","name":"_size","type":"uint256"}],"name":"setPayloadSizeLimit","outputs":[],"stateMutability":"nonpayable","type":"function"},{"inputs":[{"internalType":"address","name":"_precrime","type":"address"}],"name":"setPrecrime","outputs":[],"stateMutability":"nonpayable","type":"function"},{"inputs":[{"internalType":"uint16","name":"_version","type":"uint16"}],"name":"setReceiveVersion","outputs":[],"stateMutability":"nonpayable","type":"function"},{"inputs":[{"internalType":"uint16","name":"_version","type":"uint16"}],"name":"setSendVersion","outputs":[],"stateMutability":"nonpayable","type":"function"},{"inputs":[{"internalType":"uint16","name":"_remoteChainId","type":"uint16"},{"internalType":"bytes","name":"_path","type":"bytes"}],"name":"setTrustedRemote","outputs":[],"stateMutability":"nonpayable","type":"function"},{"inputs":[{"internalType":"uint16","name":"_remoteChainId","type":"uint16"},{"internalType":"bytes","name":"_remoteAddress","type":"bytes"}],"name":"setTrustedRemoteAddress","outputs":[],"stateMutability":"nonpayable","type":"function"},{"inputs":[{"internalType":"bool","name":"_useCustomAdapterParams","type":"bool"}],"name":"setUseCustomAdapterParams","outputs":[],"stateMutability":"nonpayable","type":"function"},{"inputs":[{"internalType":"bytes4","name":"interfaceId","type":"bytes4"}],"name":"supportsInterface","outputs":[{"internalType":"bool","name":"","type":"bool"}],"stateMutability":"view","type":"function"},{"inputs":[],"name":"symbol","outputs":[{"internalType":"string","name":"","type":"string"}],"stateMutability":"view","type":"function"},{"inputs":[],"name":"token","outputs":[{"internalType":"address","name":"","type":"address"}],"stateMutability":"view","type":"function"},{"inputs":[],"name":"totalSupply","outputs":[{"internalType":"uint256","name":"","type":"uint256"}],"stateMutability":"view","type":"function"},{"inputs":[{"internalType":"address","name":"to","type":"address"},{"internalType":"uint256","name":"amount","type":"uint256"}],"name":"transfer","outputs":[{"internalType":"bool","name":"","type":"bool"}],"stateMutability":"nonpayable","type":"function"},{"inputs":[{"internalType":"address","name":"from","type":"address"},{"internalType":"address","name":"to","type":"address"},{"internalType":"uint256","name":"amount","type":"uint256"}],"name":"transferFrom","outputs":[{"internalType":"bool","name":"","type":"bool"}],"stateMutability":"nonpayable","type":"function"},{"inputs":[{"internalType":"address","name":"newOwner","type":"address"}],"name":"transferOwnership","outputs":[],"stateMutability":"nonpayable","type":"function"},{"inputs":[{"internalType":"uint16","name":"","type":"uint16"}],"name":"trustedRemoteLookup","outputs":[{"internalType":"bytes","name":"","type":"bytes"}],"stateMutability":"view","type":"function"},{"inputs":[],"name":"useCustomAdapterParams","outputs":[{"internalType":"bool","name":"","type":"bool"}],"stateMutability":"view","type":"function"}],"evm":{"bytecode":{"linkReferences":{},"object":"60a060405234620003ab5762004114803803806200001d81620003b0565b928339810190606081830312620003ab5780516001600160401b039190828111620003ab578362000050918301620003ec565b9060209384820151848111620003ab5760409162000070918401620003ec565b9101516001600160a01b03919082811690819003620003ab5760008054336001600160a01b03198216811783559194167f8be0079c531659141344cd1fd0a4f28419497f9722a3daafe3b4186f6b6457e08580a3608052825191848311620002b257600a54926001948585811c95168015620003a0575b888610146200038c578190601f9586811162000338575b508890868311600114620002d2578492620002c6575b5050600019600383901b1c191690851b17600a555b8151948511620002b257600b548481811c91168015620002a7575b8782101462000293578381116200024a575b5085928511600114620001e1579394508492919083620001d5575b50501b916000199060031b1c191617600b555b604051613cb590816200045f823960805181818161045a015281816107b50152818161097601528181610d1101528181611d7601528181611f0f0152818161278c01528181612e2c01526130500152f35b01519250388062000171565b600b815285812093958591601f198316915b888383106200022f575050501062000215575b505050811b01600b5562000184565b015160001960f88460031b161c1916905538808062000206565b858701518855909601959485019487935090810190620001f3565b600b82528682208480880160051c82019289891062000289575b0160051c019085905b8281106200027d57505062000156565b8381550185906200026d565b9250819262000264565b634e487b7160e01b82526022600452602482fd5b90607f169062000144565b634e487b7160e01b81526041600452602490fd5b01519050388062000114565b600a85528985208894509190601f198416865b8c82821062000321575050841162000307575b505050811b01600a5562000129565b015160001960f88460031b161c19169055388080620002f8565b8385015186558b97909501949384019301620002e5565b909150600a84528884208680850160051c8201928b861062000382575b918991869594930160051c01915b82811062000373575050620000fe565b86815585945089910162000363565b9250819262000355565b634e487b7160e01b83526022600452602483fd5b94607f1694620000e7565b600080fd5b6040519190601f01601f191682016001600160401b03811183821017620003d657604052565b634e487b7160e01b600052604160045260246000fd5b919080601f84011215620003ab5782516001600160401b038111620003d65760209062000422601f8201601f19168301620003b0565b92818452828287010111620003ab5760005b8181106200044a57508260009394955001015290565b85810183015184820184015282016200043456fe60806040526004361015610013575b600080fd5b60003560e01c80621d35671461038457806301ffc9a71461037b57806306fdde031461037257806307e0db1714610369578063095ea7b3146103605780630df374831461035757806310ddb1371461034e57806318160ddd146102b557806323b872dd146103455780632a205e3d1461033c578063313ce56714610333578063395093511461032a5780633d8b38f6146103215780633f1f4fa41461031857806342d65a8d1461030f57806344770515146103065780634c42899a1461030657806351905636146102fd5780635b8c41e6146102f457806366ad5c8a146102eb57806370a08231146102e2578063715018a6146102d95780637533d788146102d05780638cfd8f5c146102c75780638da5cb5b146102be5780639358928b146102b5578063950c8a74146102ac57806395d89b41146102a35780639f38369a1461029a578063a457c2d714610291578063a6c3d16514610288578063a9059cbb1461027f578063b353aaa714610276578063baf3292d1461026d578063c446183414610264578063cbed8b9c1461025b578063d1deba1f14610252578063dd62ed3e14610249578063df2a5b3b14610240578063eab45d9c14610237578063eb8d72b71461022e578063ed629c5c14610225578063f2fde38b1461021c578063f5ecbdbc146102135763fc0c546a1461020b57600080fd5b61000e6127f9565b5061000e6126d2565b5061000e612598565b5061000e612556565b5061000e6123a0565b5061000e612301565b5061000e6121d4565b5061000e61213f565b5061000e611fc8565b5061000e611e86565b5061000e611e4a565b5061000e611d9a565b5061000e611d2a565b5061000e611ce1565b5061000e611ad1565b5061000e6119b5565b5061000e6118ca565b5061000e611885565b5061000e611832565b5061000e6109e6565b5061000e6117df565b5061000e611765565b5061000e611703565b5061000e611540565b5061000e6114d6565b5061000e6112bb565b5061000e6111df565b5061000e610dc6565b5061000e610d8b565b5061000e610ce1565b5061000e610c89565b5061000e610c31565b5061000e610b62565b5061000e610b27565b5061000e610a82565b5061000e610a23565b5061000e610918565b5061000e6108ba565b5061000e610866565b5061000e610757565b5061000e6106f3565b5061000e61056b565b5061000e61042d565b61ffff81160361000e57565b9181601f8401121561000e5782359167ffffffffffffffff831161000e576020838186019501011161000e57565b9060808282031261000e5781356103dd8161038d565b9267ffffffffffffffff90602084013582811161000e5783610400918601610399565b949094936040820135848116810361000e5793606083013590811161000e576104299201610399565b9091565b503461000e5761043e3660046103c7565b919294939073ffffffffffffffffffffffffffffffffffffffff7f000000000000000000000000000000000000000000000000000000000000000016330361050d576104d06104d8926104de976104c96104af6104aa8a60019061ffff16600052602052604060002090565b6116e6565b8051908184149182610503575b50816104e0575b50612833565b3691611182565b923691611182565b92612a26565b005b90506104ed368486611182565b60208151910120906020815191012014386104c3565b15159150386104bc565b60646040517f08c379a000000000000000000000000000000000000000000000000000000000815260206004820152601e60248201527f4c7a4170703a20696e76616c696420656e64706f696e742063616c6c657200006044820152fd5b503461000e5760207ffffffffffffffffffffffffffffffffffffffffffffffffffffffffffffffffc36011261000e576004357fffffffff00000000000000000000000000000000000000000000000000000000811680910361000e578060209115908115610644575b81156105e7575b506040519015158152f35b7f14e4ceea0000000000000000000000000000000000000000000000000000000081149150811561061a575b50386105dc565b7f01ffc9a70000000000000000000000000000000000000000000000000000000091501438610613565b7f36372b0700000000000000000000000000000000000000000000000000000000811491506105d5565b600091031261000e57565b60005b83811061068c5750506000910152565b818101518382015260200161067c565b907fffffffffffffffffffffffffffffffffffffffffffffffffffffffffffffffe0601f6020936106d881518092818752878088019101610679565b0116010190565b9060206106f092818152019061069c565b90565b503461000e5760007ffffffffffffffffffffffffffffffffffffffffffffffffffffffffffffffffc36011261000e5761075360405161073f8161073881600a611631565b03826110eb565b60405191829160208352602083019061069c565b0390f35b503461000e57600060207ffffffffffffffffffffffffffffffffffffffffffffffffffffffffffffffffc360112610845576004356107958161038d565b61079d6135a7565b8173ffffffffffffffffffffffffffffffffffffffff7f00000000000000000000000000000000000000000000000000000000000000001691823b156108415761ffff602483928360405196879485937f07e0db170000000000000000000000000000000000000000000000000000000085521660048401525af18015610834575b6108265780f35b61082f916110eb565b388180f35b61083c612926565b61081f565b5080fd5b80fd5b73ffffffffffffffffffffffffffffffffffffffff81160361000e57565b503461000e5760407ffffffffffffffffffffffffffffffffffffffffffffffffffffffffffffffffc36011261000e576108af6004356108a581610848565b60243590336139f7565b602060405160018152f35b503461000e5760407ffffffffffffffffffffffffffffffffffffffffffffffffffffffffffffffffc36011261000e5761ffff6004356108f98161038d565b6109016135a7565b166000526003602052602435604060002055600080f35b503461000e57600060207ffffffffffffffffffffffffffffffffffffffffffffffffffffffffffffffffc360112610845576004356109568161038d565b61095e6135a7565b8173ffffffffffffffffffffffffffffffffffffffff7f00000000000000000000000000000000000000000000000000000000000000001691823b156108415761ffff602483928360405196879485937f10ddb1370000000000000000000000000000000000000000000000000000000085521660048401525af18015610834576108265780f35b503461000e5760007ffffffffffffffffffffffffffffffffffffffffffffffffffffffffffffffffc36011261000e576020600954604051908152f35b503461000e5760607ffffffffffffffffffffffffffffffffffffffffffffffffffffffffffffffffc36011261000e576108af600435610a6281610848565b602435610a6e81610848565b60443591610a7d833383613bb2565b61373c565b503461000e5760a07ffffffffffffffffffffffffffffffffffffffffffffffffffffffffffffffffc36011261000e57600435610abe8161038d565b67ffffffffffffffff9060243582811161000e57610ae0903690600401610399565b9160643590811515820361000e5760843594851161000e57610b09610b15953690600401610399565b94909360443592612d7a565b60408051928352602083019190915290f35b503461000e5760007ffffffffffffffffffffffffffffffffffffffffffffffffffffffffffffffffc36011261000e57602060405160128152f35b503461000e5760407ffffffffffffffffffffffffffffffffffffffffffffffffffffffffffffffffc36011261000e576108af600435610ba181610848565b336000526008602052610bd88160406000209073ffffffffffffffffffffffffffffffffffffffff16600052602052604060002090565b54906024358201809211610bed575b336139f7565b610bf56129e1565b610be7565b91909160408184031261000e578035610c128161038d565b92602082013567ffffffffffffffff811161000e576104299201610399565b503461000e57602061ffff610c7a610c4a366004610bfa565b9390911660005260018452610738610c6c604060002060405192838092611631565b848151910120923691611182565b82815191012014604051908152f35b503461000e5760207ffffffffffffffffffffffffffffffffffffffffffffffffffffffffffffffffc36011261000e5761ffff600435610cc88161038d565b1660005260036020526020604060002054604051908152f35b503461000e57610cf2366004610bfa565b610cfa6135a7565b73ffffffffffffffffffffffffffffffffffffffff7f00000000000000000000000000000000000000000000000000000000000000001691823b1561000e57610d7a93604051938480927f42d65a8d0000000000000000000000000000000000000000000000000000000082528160009889978897889460048501612972565b03925af18015610834576108265780f35b503461000e5760007ffffffffffffffffffffffffffffffffffffffffffffffffffffffffffffffffc36011261000e57602060405160008152f35b5060e07ffffffffffffffffffffffffffffffffffffffffffffffffffffffffffffffffc36011261000e57600435610dfd81610848565b60243590610e0a8261038d565b67ffffffffffffffff60443581811161000e57610e2b903690600401610399565b91909260843591610e3b83610848565b60a43593610e4885610848565b60c43591821161000e57610e70610e66610e78933690600401610399565b9790923691611182565b953691611182565b9160ff60065416600014610fed576022835110610f8f577f39a4c66499bcf4b56d79f0dde8ed7a9d4925a0df55825206b2b8531e202be0d093610f77610f8a9285610f1c602273ffffffffffffffffffffffffffffffffffffffff98015161ffff8c166000526002602052610f096000610f0381604081209061ffff16600052602052604060002090565b5461335a565b90610f15821515613367565b10156133cc565b610f28606435876131f6565b938492610f6f8b610f43604051968792600060208501612f52565b037fffffffffffffffffffffffffffffffffffffffffffffffffffffffffffffffe081018652856110eb565b34938c612ff3565b61ffff6040519485941697169583612f78565b0390a3005b60646040517f08c379a000000000000000000000000000000000000000000000000000000000815260206004820152601c60248201527f4c7a4170703a20696e76616c69642061646170746572506172616d73000000006044820152fd5b8251611037577f39a4c66499bcf4b56d79f0dde8ed7a9d4925a0df55825206b2b8531e202be0d093610f77610f8a9273ffffffffffffffffffffffffffffffffffffffff95610f1c565b60846040517f08c379a000000000000000000000000000000000000000000000000000000000815260206004820152602660248201527f4f4654436f72653a205f61646170746572506172616d73206d7573742062652060448201527f656d7074792e00000000000000000000000000000000000000000000000000006064820152fd5b507f4e487b7100000000000000000000000000000000000000000000000000000000600052604160045260246000fd5b90601f7fffffffffffffffffffffffffffffffffffffffffffffffffffffffffffffffe0910116810190811067ffffffffffffffff82111761112c57604052565b6111346110bb565b604052565b7fffffffffffffffffffffffffffffffffffffffffffffffffffffffffffffffe0601f60209267ffffffffffffffff8111611175575b01160190565b61117d6110bb565b61116f565b92919261118e82611139565b9161119c60405193846110eb565b82948184528183011161000e578281602093846000960137010152565b6020906111d3928260405194838680955193849201610679565b82019081520301902090565b503461000e5760607ffffffffffffffffffffffffffffffffffffffffffffffffffffffffffffffffc36011261000e5760043561121b8161038d565b67ffffffffffffffff60243581811161000e573660238201121561000e5761124d903690602481600401359101611182565b91604435918216820361000e576112a26112ab926112896107539561128360009560059061ffff16600052602052604060002090565b906111b9565b9067ffffffffffffffff16600052602052604060002090565b549060031b1c90565b6040519081529081906020820190565b503461000e576112cc3660046103c7565b915091303303611452576112ed936112e5913691611182565b503691611182565b60208082019061ffff9182815116156000146113f457835184019060608583031261000e5761131c905161038d565b60408401519067ffffffffffffffff821161000e5760609183806113449301918701016128be565b93015192601481511061139657015160601c927fbf551ec93859b170f9b2141bd9298bf3f64322c6f7beb2543a0cb669834118bf91906113848486613893565b60405193845216918060208101610f8a565b606482604051907f08c379a00000000000000000000000000000000000000000000000000000000082526004820152601560248201527f746f416464726573735f6f75744f66426f756e647300000000000000000000006044820152fd5b606482604051907f08c379a00000000000000000000000000000000000000000000000000000000082526004820152601c60248201527f4f4654436f72653a20756e6b6e6f776e207061636b65742074797065000000006044820152fd5b60846040517f08c379a000000000000000000000000000000000000000000000000000000000815260206004820152602660248201527f4e6f6e626c6f636b696e674c7a4170703a2063616c6c6572206d75737420626560448201527f204c7a41707000000000000000000000000000000000000000000000000000006064820152fd5b503461000e5760207ffffffffffffffffffffffffffffffffffffffffffffffffffffffffffffffffc36011261000e5773ffffffffffffffffffffffffffffffffffffffff60043561152781610848565b1660005260076020526020604060002054604051908152f35b503461000e576000807ffffffffffffffffffffffffffffffffffffffffffffffffffffffffffffffffc360112610845576115796135a7565b8073ffffffffffffffffffffffffffffffffffffffff81547fffffffffffffffffffffffff000000000000000000000000000000000000000081168355167f8be0079c531659141344cd1fd0a4f28419497f9722a3daafe3b4186f6b6457e08280a380f35b90600182811c92168015611627575b60208310146115f857565b7f4e487b7100000000000000000000000000000000000000000000000000000000600052602260045260246000fd5b91607f16916115ed565b9060009291805491611642836115de565b9182825260019384811690816000146116a45750600114611664575b50505050565b90919394506000526020928360002092846000945b83861061169057505050500101903880808061165e565b805485870183015294019385908201611679565b91505060209495507fffffffffffffffffffffffffffffffffffffffffffffffffffffffffffffff009193501683830152151560051b0101903880808061165e565b906117016116fa9260405193848092611631565b03836110eb565b565b503461000e5760207ffffffffffffffffffffffffffffffffffffffffffffffffffffffffffffffffc36011261000e5761ffff6004356117428161038d565b16600052600160205261075361073861073f604060002060405192838092611631565b503461000e5760407ffffffffffffffffffffffffffffffffffffffffffffffffffffffffffffffffc36011261000e5760206117d66004356117a68161038d565b61ffff602435916117b68361038d565b166000526002835260406000209061ffff16600052602052604060002090565b54604051908152f35b503461000e5760007ffffffffffffffffffffffffffffffffffffffffffffffffffffffffffffffffc36011261000e57602073ffffffffffffffffffffffffffffffffffffffff60005416604051908152f35b503461000e5760007ffffffffffffffffffffffffffffffffffffffffffffffffffffffffffffffffc36011261000e57602073ffffffffffffffffffffffffffffffffffffffff60045416604051908152f35b503461000e5760007ffffffffffffffffffffffffffffffffffffffffffffffffffffffffffffffffc36011261000e5761075360405161073f8161073881600b611631565b503461000e5760207ffffffffffffffffffffffffffffffffffffffffffffffffffffffffffffffffc36011261000e5761ffff6004356119098161038d565b166000526001602052610738611929604060002060405192838092611631565b8051156119575761194b81600061194560146107539551612a11565b916134fb565b604051918291826106df565b60646040517f08c379a000000000000000000000000000000000000000000000000000000000815260206004820152601d60248201527f4c7a4170703a206e6f20747275737465642070617468207265636f72640000006044820152fd5b503461000e5760407ffffffffffffffffffffffffffffffffffffffffffffffffffffffffffffffffc36011261000e576004356119f181610848565b60243590336000526008602052611a2c8160406000209073ffffffffffffffffffffffffffffffffffffffff16600052602052604060002090565b5491808310611a4d57611a41920390336139f7565b60405160018152602090f35b60846040517f08c379a000000000000000000000000000000000000000000000000000000000815260206004820152602560248201527f45524332303a2064656372656173656420616c6c6f77616e63652062656c6f7760448201527f207a65726f0000000000000000000000000000000000000000000000000000006064820152fd5b503461000e57611ae2366004610bfa565b90611aeb6135a7565b60405192602092808385870137611b176034868381013060601b888201520360148101885201866110eb565b60009361ffff83168552600190818152604086209187519167ffffffffffffffff8311611cd4575b611b5383611b4d86546115de565b8661298d565b80601f8411600114611c025750908280611bd1969594938a9b7f8c0400cfe2d1199b1a725c78960bcc2a344d869b80590d0f2bd005db15a572ce9b93611bd7575b50507fffffffffffffffffffffffffffffffffffffffffffffffffffffffffffffffff91921b9260031b1c19161790555b60405193849384612972565b0390a180f35b015191507fffffffffffffffffffffffffffffffffffffffffffffffffffffffffffffffff38611b94565b919394987fffffffffffffffffffffffffffffffffffffffffffffffffffffffffffffffe08416611c3887600052602060002090565b938a905b828210611cbd575050917f8c0400cfe2d1199b1a725c78960bcc2a344d869b80590d0f2bd005db15a572ce999a95939185611bd198969410611c86575b505050811b019055611bc5565b01517fffffffffffffffffffffffffffffffffffffffffffffffffffffffffffffffff60f88460031b161c19169055388080611c79565b808886978294978701518155019601940190611c3c565b611cdc6110bb565b611b3f565b503461000e5760407ffffffffffffffffffffffffffffffffffffffffffffffffffffffffffffffffc36011261000e576108af600435611d2081610848565b602435903361373c565b503461000e5760007ffffffffffffffffffffffffffffffffffffffffffffffffffffffffffffffffc36011261000e57602060405173ffffffffffffffffffffffffffffffffffffffff7f0000000000000000000000000000000000000000000000000000000000000000168152f35b503461000e5760207ffffffffffffffffffffffffffffffffffffffffffffffffffffffffffffffffc36011261000e577f5db758e995a17ec1ad84bdef7e8c3293a0bd6179bcce400dff5d4c3d87db726b602073ffffffffffffffffffffffffffffffffffffffff600435611e0e81610848565b611e166135a7565b16807fffffffffffffffffffffffff00000000000000000000000000000000000000006004541617600455604051908152a1005b503461000e5760007ffffffffffffffffffffffffffffffffffffffffffffffffffffffffffffffffc36011261000e5760206040516127108152f35b503461000e5760807ffffffffffffffffffffffffffffffffffffffffffffffffffffffffffffffffc36011261000e57600435611ec28161038d565b602435611ece8161038d565b60643567ffffffffffffffff811161000e57611eee903690600401610399565b9092611ef86135a7565b73ffffffffffffffffffffffffffffffffffffffff7f00000000000000000000000000000000000000000000000000000000000000001690813b1561000e5760008094611f95604051978896879586947fcbed8b9c00000000000000000000000000000000000000000000000000000000865261ffff80921660048701521660248501526044356044850152608060648501526084840191612933565b03925af18015611fbb575b611fa657005b80611fb560006104de936110eb565b8061066e565b611fc3612926565b611fa0565b50611fd43660046103c7565b9161ffff8694929616600052600560205261201c81604060002060206040518092878b8337878201908152030190209067ffffffffffffffff16600052602052604060002090565b549182156120bb577fc264d91f3adc5588250e1551f547752ca0cfa8f6b530d243b9f9f4cab10ea8e5966120b6946120aa916120a4916000612098876112898d896120928f61207d8f612070368c8e611182565b6020815191012014612c4d565b60059061ffff16600052602052604060002090565b91612c34565b556112e536868c611182565b86612ea7565b60405195869586612cd8565b0390a1005b60846040517f08c379a000000000000000000000000000000000000000000000000000000000815260206004820152602360248201527f4e6f6e626c6f636b696e674c7a4170703a206e6f2073746f726564206d65737360448201527f61676500000000000000000000000000000000000000000000000000000000006064820152fd5b503461000e5760407ffffffffffffffffffffffffffffffffffffffffffffffffffffffffffffffffc36011261000e5760206117d660043561218081610848565b73ffffffffffffffffffffffffffffffffffffffff602435916121a283610848565b166000526008835260406000209073ffffffffffffffffffffffffffffffffffffffff16600052602052604060002090565b503461000e5760607ffffffffffffffffffffffffffffffffffffffffffffffffffffffffffffffffc36011261000e576004356122108161038d565b60243561221c8161038d565b604435916122286135a7565b82156122a3576120b67f9d5c7c0b934da8fefa9c7760c98383778a12dfbfc0c3b3106518f43fb9508ac09361ffff831660005260026020528061227d8560406000209061ffff16600052602052604060002090565b556040519384938460409194939294606082019561ffff80921683521660208201520152565b60646040517f08c379a000000000000000000000000000000000000000000000000000000000815260206004820152601560248201527f4c7a4170703a20696e76616c6964206d696e47617300000000000000000000006044820152fd5b503461000e5760207ffffffffffffffffffffffffffffffffffffffffffffffffffffffffffffffffc36011261000e5760043580151580910361000e5760207f1584ad594a70cbe1e6515592e1272a987d922b097ead875069cebe8b40c004a49161236a6135a7565b7fffffffffffffffffffffffffffffffffffffffffffffffffffffffffffffff006006541660ff821617600655604051908152a1005b503461000e576123b1366004610bfa565b91906123bb6135a7565b60009161ffff811683526001602090808252604085209167ffffffffffffffff8711612549575b6123f6876123f085546115de565b8561298d565b8590601f881160011461247b5750918680879893611bd1957ffa41487ad5d6728f0b19276fa1eddc16558578f5109fc39d2dc33c3230470dab9993612470575b501b907fffffffffffffffffffffffffffffffffffffffffffffffffffffffffffffffff8460031b1c191617905560405193849384612972565b880135925038612436565b907fffffffffffffffffffffffffffffffffffffffffffffffffffffffffffffffe088166124ae85600052602060002090565b9288905b828210612532575050918893917ffa41487ad5d6728f0b19276fa1eddc16558578f5109fc39d2dc33c3230470dab9899611bd19694106124fa575b505082811b019055611bc5565b7fffffffffffffffffffffffffffffffffffffffffffffffffffffffffffffffff60f88660031b161c199088013516905538806124ed565b808685968294968c013581550195019301906124b2565b6125516110bb565b6123e2565b503461000e5760007ffffffffffffffffffffffffffffffffffffffffffffffffffffffffffffffffc36011261000e57602060ff600654166040519015158152f35b503461000e5760207ffffffffffffffffffffffffffffffffffffffffffffffffffffffffffffffffc36011261000e576004356125d481610848565b6125dc6135a7565b73ffffffffffffffffffffffffffffffffffffffff809116801561264e576000918254827fffffffffffffffffffffffff00000000000000000000000000000000000000008216178455167f8be0079c531659141344cd1fd0a4f28419497f9722a3daafe3b4186f6b6457e08380a380f35b60846040517f08c379a000000000000000000000000000000000000000000000000000000000815260206004820152602660248201527f4f776e61626c653a206e6577206f776e657220697320746865207a65726f206160448201527f64647265737300000000000000000000000000000000000000000000000000006064820152fd5b503461000e5760807ffffffffffffffffffffffffffffffffffffffffffffffffffffffffffffffffc36011261000e576107536004356127118161038d565b6024359061271e8261038d565b612729604435610848565b604051917ff5ecbdbc00000000000000000000000000000000000000000000000000000000835261ffff8092166004840152166024820152306044820152606435606482015260008160848173ffffffffffffffffffffffffffffffffffffffff7f0000000000000000000000000000000000000000000000000000000000000000165afa9081156127ec575b6000916127cb575b50604051918291826106df565b6127e6913d8091833e6127de81836110eb565b810190612900565b386127be565b6127f4612926565b6127b6565b503461000e5760007ffffffffffffffffffffffffffffffffffffffffffffffffffffffffffffffffc36011261000e576020604051308152f35b1561283a57565b60846040517f08c379a000000000000000000000000000000000000000000000000000000000815260206004820152602660248201527f4c7a4170703a20696e76616c696420736f757263652073656e64696e6720636f60448201527f6e747261637400000000000000000000000000000000000000000000000000006064820152fd5b81601f8201121561000e5780516128d481611139565b926128e260405194856110eb565b8184526020828401011161000e576106f09160208085019101610679565b9060208282031261000e57815167ffffffffffffffff811161000e576106f092016128be565b506040513d6000823e3d90fd5b601f82602094937fffffffffffffffffffffffffffffffffffffffffffffffffffffffffffffffe0938186528686013760008582860101520116010190565b60409061ffff6106f095931681528160208201520191612933565b90601f811161299b57505050565b600091825260208220906020601f850160051c830194106129d7575b601f0160051c01915b8281106129cc57505050565b8181556001016129c0565b90925082906129b7565b507f4e487b7100000000000000000000000000000000000000000000000000000000600052601160045260246000fd5b91908203918211612a1e57565b6117016129e1565b9290915a926040519360208501907f66ad5c8a00000000000000000000000000000000000000000000000000000000825261ffff871660248701526080604487015285612ab9612a7960a483018661069c565b67ffffffffffffffff871660648401527fffffffffffffffffffffffffffffffffffffffffffffffffffffffffffffffdc8382030160848401528761069c565b0391612aeb7fffffffffffffffffffffffffffffffffffffffffffffffffffffffffffffffe0938481018952886110eb565b600091829182612afb6096611139565b99612b096040519b8c6110eb565b60968b52612b176096611139565b60208c01970136883751923090f1903d9060968211612b58575b6000908288523e15612b45575b5050505050565b612b4e94612b61565b3880808080612b3e565b60969150612b31565b9193612c217fe183f33de2837795525b4792ca4cd60535bd77c53b7e7030060bfcf5734d6b0c95612c2f939561ffff81516020830120961695866000526005602052612be783612bc560208b60406000208260405194838680955193849201610679565b8201908152030190209067ffffffffffffffff16600052602052604060002090565b5567ffffffffffffffff612c0d604051988998895260a060208a015260a089019061069c565b92166040870152858203606087015261069c565b90838203608085015261069c565b0390a1565b6020919283604051948593843782019081520301902090565b15612c5457565b60846040517f08c379a000000000000000000000000000000000000000000000000000000000815260206004820152602160248201527f4e6f6e626c6f636b696e674c7a4170703a20696e76616c6964207061796c6f6160448201527f64000000000000000000000000000000000000000000000000000000000000006064820152fd5b91612d059060609461ffff67ffffffffffffffff9499989799168552608060208601526080850191612933565b951660408201520152565b919082604091031261000e576020825192015190565b919273ffffffffffffffffffffffffffffffffffffffff6106f09795969461ffff612d659416855216602084015260a0604084015260a083019061069c565b93151560608201526080818503910152612933565b919495612e139193949796612dde6040978897612dac89519889936000602086015260608c8601526080850191612933565b906060830152037fffffffffffffffffffffffffffffffffffffffffffffffffffffffffffffffe081018752866110eb565b855198899586957f40a7bb10000000000000000000000000000000000000000000000000000000008752309060048801612d26565b038173ffffffffffffffffffffffffffffffffffffffff7f0000000000000000000000000000000000000000000000000000000000000000165afa928315612e9a575b6000918294612e66575b50509190565b612e8a93945080919250903d10612e93575b612e8281836110eb565b810190612d10565b91903880612e60565b503d612e78565b612ea2612926565b612e56565b9060208082019061ffff9182815116156000146113f457835184019060608583031261000e57612ed7905161038d565b60408401519067ffffffffffffffff821161000e576060918380612eff9301918701016128be565b93015192601481511061139657015160601c927fbf551ec93859b170f9b2141bd9298bf3f64322c6f7beb2543a0cb669834118bf9190612f3f8486613893565b604051938452169180602081015b0390a3565b939291612f739061ffff60409316865260606020870152606086019061069c565b930152565b929190612f7360209160408652604086019061069c565b92612fb46106f097959361ffff612fc29416865260c0602087015260c086019061069c565b90848203604086015261069c565b9373ffffffffffffffffffffffffffffffffffffffff809216606084015216608082015260a081840391015261069c565b939594613020909391929360009561ffff8116875260016020526130276040882060405194858092611631565b03846110eb565b8251156130e95761303985518261316d565b73ffffffffffffffffffffffffffffffffffffffff7f00000000000000000000000000000000000000000000000000000000000000001693843b156130e5578798996130b891604099989951998a98899788967fc580310000000000000000000000000000000000000000000000000000000000885260048801612f8f565b03925af180156130d8575b6130cb575050565b611fb561170192826110eb565b6130e0612926565b6130c3565b8780fd5b60846040517f08c379a000000000000000000000000000000000000000000000000000000000815260206004820152603060248201527f4c7a4170703a2064657374696e6174696f6e20636861696e206973206e6f742060448201527f61207472757374656420736f75726365000000000000000000000000000000006064820152fd5b61ffff1660005260036020526040600020549081156131ec575b1161318e57565b60646040517f08c379a000000000000000000000000000000000000000000000000000000000815260206004820152602060248201527f4c7a4170703a207061796c6f61642073697a6520697320746f6f206c617267656044820152fd5b6127109150613187565b73ffffffffffffffffffffffffffffffffffffffff811633810361334a575b80156132c657816132838461324d60009560079073ffffffffffffffffffffffffffffffffffffffff16600052602052604060002090565b5461325a8282101561396c565b039160079073ffffffffffffffffffffffffffffffffffffffff16600052602052604060002090565b5582600954036009557fddf252ad1be2c89b69c2b068fc378daa952ba7f163c4a11628f55a4df523b3ef604051806132c086829190602083019252565b0390a390565b60846040517f08c379a000000000000000000000000000000000000000000000000000000000815260206004820152602160248201527f45524332303a206275726e2066726f6d20746865207a65726f2061646472657360448201527f73000000000000000000000000000000000000000000000000000000000000006064820152fd5b613355833384613bb2565b613215565b91908201809211612a1e57565b1561336e57565b60646040517f08c379a000000000000000000000000000000000000000000000000000000000815260206004820152601a60248201527f4c7a4170703a206d696e4761734c696d6974206e6f74207365740000000000006044820152fd5b156133d357565b60646040517f08c379a000000000000000000000000000000000000000000000000000000000815260206004820152601b60248201527f4c7a4170703a20676173206c696d697420697320746f6f206c6f7700000000006044820152fd5b1561343857565b60646040517f08c379a000000000000000000000000000000000000000000000000000000000815260206004820152600e60248201527f736c6963655f6f766572666c6f770000000000000000000000000000000000006044820152fd5b1561349d57565b60646040517f08c379a000000000000000000000000000000000000000000000000000000000815260206004820152601160248201527f736c6963655f6f75744f66426f756e64730000000000000000000000000000006044820152fd5b916135128161350b601f8261335a565b1015613431565b6135288351613521838561335a565b1115613496565b8061354157505050604051600081526020810160405290565b60405192601f821692831560051b80858701019484860193010101905b8084106135945750508252601f017fffffffffffffffffffffffffffffffffffffffffffffffffffffffffffffffe01660405290565b909283518152602080910193019061355e565b73ffffffffffffffffffffffffffffffffffffffff6000541633036135c857565b60646040517f08c379a000000000000000000000000000000000000000000000000000000000815260206004820152602060248201527f4f776e61626c653a2063616c6c6572206973206e6f7420746865206f776e65726044820152fd5b1561362d57565b60846040517f08c379a000000000000000000000000000000000000000000000000000000000815260206004820152602360248201527f45524332303a207472616e7366657220746f20746865207a65726f206164647260448201527f65737300000000000000000000000000000000000000000000000000000000006064820152fd5b156136b857565b60846040517f08c379a000000000000000000000000000000000000000000000000000000000815260206004820152602660248201527f45524332303a207472616e7366657220616d6f756e742065786365656473206260448201527f616c616e636500000000000000000000000000000000000000000000000000006064820152fd5b919073ffffffffffffffffffffffffffffffffffffffff9081841692831561380f576137f9827fddf252ad1be2c89b69c2b068fc378daa952ba7f163c4a11628f55a4df523b3ef94612f4d941696613795881515613626565b6137d1846137c48360079073ffffffffffffffffffffffffffffffffffffffff16600052602052604060002090565b5461325a828210156136b1565b5560079073ffffffffffffffffffffffffffffffffffffffff16600052602052604060002090565b8054820190556040519081529081906020820190565b60846040517f08c379a000000000000000000000000000000000000000000000000000000000815260206004820152602560248201527f45524332303a207472616e736665722066726f6d20746865207a65726f20616460448201527f64726573730000000000000000000000000000000000000000000000000000006064820152fd5b73ffffffffffffffffffffffffffffffffffffffff1690811561390e577fddf252ad1be2c89b69c2b068fc378daa952ba7f163c4a11628f55a4df523b3ef6020600092600954818101809111613901575b6009558484526007825260408420818154019055604051908152a3565b6139096129e1565b6138e4565b60646040517f08c379a000000000000000000000000000000000000000000000000000000000815260206004820152601f60248201527f45524332303a206d696e7420746f20746865207a65726f2061646472657373006044820152fd5b1561397357565b60846040517f08c379a000000000000000000000000000000000000000000000000000000000815260206004820152602260248201527f45524332303a206275726e20616d6f756e7420657863656564732062616c616e60448201527f63650000000000000000000000000000000000000000000000000000000000006064820152fd5b9073ffffffffffffffffffffffffffffffffffffffff91828116928315613b2f578216938415613aab5780613a9a7f8c5be1e5ebec7d5bd14f71427d1e84f3dd0314c0f7b2291e5b200ac8c7c3b92594613a75612f4d9560089073ffffffffffffffffffffffffffffffffffffffff16600052602052604060002090565b9073ffffffffffffffffffffffffffffffffffffffff16600052602052604060002090565b556040519081529081906020820190565b60846040517f08c379a000000000000000000000000000000000000000000000000000000000815260206004820152602260248201527f45524332303a20617070726f766520746f20746865207a65726f20616464726560448201527f73730000000000000000000000000000000000000000000000000000000000006064820152fd5b60846040517f08c379a0000000000000000000000000000000000000000000000000000000008152602060048201526024808201527f45524332303a20617070726f76652066726f6d20746865207a65726f2061646460448201527f72657373000000000000000000000000000000000000000000000000000000006064820152fd5b9073ffffffffffffffffffffffffffffffffffffffff82166000526008602052613c008160406000209073ffffffffffffffffffffffffffffffffffffffff16600052602052604060002090565b54927fffffffffffffffffffffffffffffffffffffffffffffffffffffffffffffffff8403613c2f5750505050565b808410613c4a57613c419303916139f7565b3880808061165e565b60646040517f08c379a000000000000000000000000000000000000000000000000000000000815260206004820152601d60248201527f45524332303a20696e73756666696369656e7420616c6c6f77616e63650000006044820152fdfea164736f6c6343000811000a","opcodes":"PUSH1 0xA0 PUSH1 0x40 MSTORE CALLVALUE PUSH3 0x3AB JUMPI PUSH3 0x4114 DUP1 CODESIZE SUB DUP1 PUSH3 0x1D DUP2 PUSH3 0x3B0 JUMP JUMPDEST SWAP3 DUP4 CODECOPY DUP2 ADD SWAP1 PUSH1 0x60 DUP2 DUP4 SUB SLT PUSH3 0x3AB JUMPI DUP1 MLOAD PUSH1 0x1 PUSH1 0x1 PUSH1 0x40 SHL SUB SWAP2 SWAP1 DUP3 DUP2 GT PUSH3 0x3AB JUMPI DUP4 PUSH3 0x50 SWAP2 DUP4 ADD PUSH3 0x3EC JUMP JUMPDEST SWAP1 PUSH1 0x20 SWAP4 DUP5 DUP3 ADD MLOAD DUP5 DUP2 GT PUSH3 0x3AB JUMPI PUSH1 0x40 SWAP2 PUSH3 0x70 SWAP2 DUP5 ADD PUSH3 0x3EC JUMP JUMPDEST SWAP2 ADD MLOAD PUSH1 0x1 PUSH1 0x1 PUSH1 0xA0 SHL SUB SWAP2 SWAP1 DUP3 DUP2 AND SWAP1 DUP2 SWAP1 SUB PUSH3 0x3AB JUMPI PUSH1 0x0 DUP1 SLOAD CALLER PUSH1 0x1 PUSH1 0x1 PUSH1 0xA0 SHL SUB NOT DUP3 AND DUP2 OR DUP4 SSTORE SWAP2 SWAP5 AND PUSH32 0x8BE0079C531659141344CD1FD0A4F28419497F9722A3DAAFE3B4186F6B6457E0 DUP6 DUP1 LOG3 PUSH1 0x80 MSTORE DUP3 MLOAD SWAP2 DUP5 DUP4 GT PUSH3 0x2B2 JUMPI PUSH1 0xA SLOAD SWAP3 PUSH1 0x1 SWAP5 DUP6 DUP6 DUP2 SHR SWAP6 AND DUP1 ISZERO PUSH3 0x3A0 JUMPI JUMPDEST DUP9 DUP7 LT EQ PUSH3 0x38C JUMPI DUP2 SWAP1 PUSH1 0x1F SWAP6 DUP7 DUP2 GT PUSH3 0x338 JUMPI JUMPDEST POP DUP9 SWAP1 DUP7 DUP4 GT PUSH1 0x1 EQ PUSH3 0x2D2 JUMPI DUP5 SWAP3 PUSH3 0x2C6 JUMPI JUMPDEST POP POP PUSH1 0x0 NOT PUSH1 0x3 DUP4 SWAP1 SHL SHR NOT AND SWAP1 DUP6 SHL OR PUSH1 0xA SSTORE JUMPDEST DUP2 MLOAD SWAP5 DUP6 GT PUSH3 0x2B2 JUMPI PUSH1 0xB SLOAD DUP5 DUP2 DUP2 SHR SWAP2 AND DUP1 ISZERO PUSH3 0x2A7 JUMPI JUMPDEST DUP8 DUP3 LT EQ PUSH3 0x293 JUMPI DUP4 DUP2 GT PUSH3 0x24A JUMPI JUMPDEST POP DUP6 SWAP3 DUP6 GT PUSH1 0x1 EQ PUSH3 0x1E1 JUMPI SWAP4 SWAP5 POP DUP5 SWAP3 SWAP2 SWAP1 DUP4 PUSH3 0x1D5 JUMPI JUMPDEST POP POP SHL SWAP2 PUSH1 0x0 NOT SWAP1 PUSH1 0x3 SHL SHR NOT AND OR PUSH1 0xB SSTORE JUMPDEST PUSH1 0x40 MLOAD PUSH2 0x3CB5 SWAP1 DUP2 PUSH3 0x45F DUP3 CODECOPY PUSH1 0x80 MLOAD DUP2 DUP2 DUP2 PUSH2 0x45A ADD MSTORE DUP2 DUP2 PUSH2 0x7B5 ADD MSTORE DUP2 DUP2 PUSH2 0x976 ADD MSTORE DUP2 DUP2 PUSH2 0xD11 ADD MSTORE DUP2 DUP2 PUSH2 0x1D76 ADD MSTORE DUP2 DUP2 PUSH2 0x1F0F ADD MSTORE DUP2 DUP2 PUSH2 0x278C ADD MSTORE DUP2 DUP2 PUSH2 0x2E2C ADD MSTORE PUSH2 0x3050 ADD MSTORE RETURN JUMPDEST ADD MLOAD SWAP3 POP CODESIZE DUP1 PUSH3 0x171 JUMP JUMPDEST PUSH1 0xB DUP2 MSTORE DUP6 DUP2 KECCAK256 SWAP4 SWAP6 DUP6 SWAP2 PUSH1 0x1F NOT DUP4 AND SWAP2 JUMPDEST DUP9 DUP4 DUP4 LT PUSH3 0x22F JUMPI POP POP POP LT PUSH3 0x215 JUMPI JUMPDEST POP POP POP DUP2 SHL ADD PUSH1 0xB SSTORE PUSH3 0x184 JUMP JUMPDEST ADD MLOAD PUSH1 0x0 NOT PUSH1 0xF8 DUP5 PUSH1 0x3 SHL AND SHR NOT AND SWAP1 SSTORE CODESIZE DUP1 DUP1 PUSH3 0x206 JUMP JUMPDEST DUP6 DUP8 ADD MLOAD DUP9 SSTORE SWAP1 SWAP7 ADD SWAP6 SWAP5 DUP6 ADD SWAP5 DUP8 SWAP4 POP SWAP1 DUP2 ADD SWAP1 PUSH3 0x1F3 JUMP JUMPDEST PUSH1 0xB DUP3 MSTORE DUP7 DUP3 KECCAK256 DUP5 DUP1 DUP9 ADD PUSH1 0x5 SHR DUP3 ADD SWAP3 DUP10 DUP10 LT PUSH3 0x289 JUMPI JUMPDEST ADD PUSH1 0x5 SHR ADD SWAP1 DUP6 SWAP1 JUMPDEST DUP3 DUP2 LT PUSH3 0x27D JUMPI POP POP PUSH3 0x156 JUMP JUMPDEST DUP4 DUP2 SSTORE ADD DUP6 SWAP1 PUSH3 0x26D JUMP JUMPDEST SWAP3 POP DUP2 SWAP3 PUSH3 0x264 JUMP JUMPDEST PUSH4 0x4E487B71 PUSH1 0xE0 SHL DUP3 MSTORE PUSH1 0x22 PUSH1 0x4 MSTORE PUSH1 0x24 DUP3 REVERT JUMPDEST SWAP1 PUSH1 0x7F AND SWAP1 PUSH3 0x144 JUMP JUMPDEST PUSH4 0x4E487B71 PUSH1 0xE0 SHL DUP2 MSTORE PUSH1 0x41 PUSH1 0x4 MSTORE PUSH1 0x24 SWAP1 REVERT JUMPDEST ADD MLOAD SWAP1 POP CODESIZE DUP1 PUSH3 0x114 JUMP JUMPDEST PUSH1 0xA DUP6 MSTORE DUP10 DUP6 KECCAK256 DUP9 SWAP5 POP SWAP2 SWAP1 PUSH1 0x1F NOT DUP5 AND DUP7 JUMPDEST DUP13 DUP3 DUP3 LT PUSH3 0x321 JUMPI POP POP DUP5 GT PUSH3 0x307 JUMPI JUMPDEST POP POP POP DUP2 SHL ADD PUSH1 0xA SSTORE PUSH3 0x129 JUMP JUMPDEST ADD MLOAD PUSH1 0x0 NOT PUSH1 0xF8 DUP5 PUSH1 0x3 SHL AND SHR NOT AND SWAP1 SSTORE CODESIZE DUP1 DUP1 PUSH3 0x2F8 JUMP JUMPDEST DUP4 DUP6 ADD MLOAD DUP7 SSTORE DUP12 SWAP8 SWAP1 SWAP6 ADD SWAP5 SWAP4 DUP5 ADD SWAP4 ADD PUSH3 0x2E5 JUMP JUMPDEST SWAP1 SWAP2 POP PUSH1 0xA DUP5 MSTORE DUP9 DUP5 KECCAK256 DUP7 DUP1 DUP6 ADD PUSH1 0x5 SHR DUP3 ADD SWAP3 DUP12 DUP7 LT PUSH3 0x382 JUMPI JUMPDEST SWAP2 DUP10 SWAP2 DUP7 SWAP6 SWAP5 SWAP4 ADD PUSH1 0x5 SHR ADD SWAP2 JUMPDEST DUP3 DUP2 LT PUSH3 0x373 JUMPI POP POP PUSH3 0xFE JUMP JUMPDEST DUP7 DUP2 SSTORE DUP6 SWAP5 POP DUP10 SWAP2 ADD PUSH3 0x363 JUMP JUMPDEST SWAP3 POP DUP2 SWAP3 PUSH3 0x355 JUMP JUMPDEST PUSH4 0x4E487B71 PUSH1 0xE0 SHL DUP4 MSTORE PUSH1 0x22 PUSH1 0x4 MSTORE PUSH1 0x24 DUP4 REVERT JUMPDEST SWAP5 PUSH1 0x7F AND SWAP5 PUSH3 0xE7 JUMP JUMPDEST PUSH1 0x0 DUP1 REVERT JUMPDEST PUSH1 0x40 MLOAD SWAP2 SWAP1 PUSH1 0x1F ADD PUSH1 0x1F NOT AND DUP3 ADD PUSH1 0x1 PUSH1 0x1 PUSH1 0x40 SHL SUB DUP2 GT DUP4 DUP3 LT OR PUSH3 0x3D6 JUMPI PUSH1 0x40 MSTORE JUMP JUMPDEST PUSH4 0x4E487B71 PUSH1 0xE0 SHL PUSH1 0x0 MSTORE PUSH1 0x41 PUSH1 0x4 MSTORE PUSH1 0x24 PUSH1 0x0 REVERT JUMPDEST SWAP2 SWAP1 DUP1 PUSH1 0x1F DUP5 ADD SLT ISZERO PUSH3 0x3AB JUMPI DUP3 MLOAD PUSH1 0x1 PUSH1 0x1 PUSH1 0x40 SHL SUB DUP2 GT PUSH3 0x3D6 JUMPI PUSH1 0x20 SWAP1 PUSH3 0x422 PUSH1 0x1F DUP3 ADD PUSH1 0x1F NOT AND DUP4 ADD PUSH3 0x3B0 JUMP JUMPDEST SWAP3 DUP2 DUP5 MSTORE DUP3 DUP3 DUP8 ADD ADD GT PUSH3 0x3AB JUMPI PUSH1 0x0 JUMPDEST DUP2 DUP2 LT PUSH3 0x44A JUMPI POP DUP3 PUSH1 0x0 SWAP4 SWAP5 SWAP6 POP ADD ADD MSTORE SWAP1 JUMP JUMPDEST DUP6 DUP2 ADD DUP4 ADD MLOAD DUP5 DUP3 ADD DUP5 ADD MSTORE DUP3 ADD PUSH3 0x434 JUMP INVALID PUSH1 0x80 PUSH1 0x40 MSTORE PUSH1 0x4 CALLDATASIZE LT ISZERO PUSH2 0x13 JUMPI JUMPDEST PUSH1 0x0 DUP1 REVERT JUMPDEST PUSH1 0x0 CALLDATALOAD PUSH1 0xE0 SHR DUP1 PUSH3 0x1D3567 EQ PUSH2 0x384 JUMPI DUP1 PUSH4 0x1FFC9A7 EQ PUSH2 0x37B JUMPI DUP1 PUSH4 0x6FDDE03 EQ PUSH2 0x372 JUMPI DUP1 PUSH4 0x7E0DB17 EQ PUSH2 0x369 JUMPI DUP1 PUSH4 0x95EA7B3 EQ PUSH2 0x360 JUMPI DUP1 PUSH4 0xDF37483 EQ PUSH2 0x357 JUMPI DUP1 PUSH4 0x10DDB137 EQ PUSH2 0x34E JUMPI DUP1 PUSH4 0x18160DDD EQ PUSH2 0x2B5 JUMPI DUP1 PUSH4 0x23B872DD EQ PUSH2 0x345 JUMPI DUP1 PUSH4 0x2A205E3D EQ PUSH2 0x33C JUMPI DUP1 PUSH4 0x313CE567 EQ PUSH2 0x333 JUMPI DUP1 PUSH4 0x39509351 EQ PUSH2 0x32A JUMPI DUP1 PUSH4 0x3D8B38F6 EQ PUSH2 0x321 JUMPI DUP1 PUSH4 0x3F1F4FA4 EQ PUSH2 0x318 JUMPI DUP1 PUSH4 0x42D65A8D EQ PUSH2 0x30F JUMPI DUP1 PUSH4 0x44770515 EQ PUSH2 0x306 JUMPI DUP1 PUSH4 0x4C42899A EQ PUSH2 0x306 JUMPI DUP1 PUSH4 0x51905636 EQ PUSH2 0x2FD JUMPI DUP1 PUSH4 0x5B8C41E6 EQ PUSH2 0x2F4 JUMPI DUP1 PUSH4 0x66AD5C8A EQ PUSH2 0x2EB JUMPI DUP1 PUSH4 0x70A08231 EQ PUSH2 0x2E2 JUMPI DUP1 PUSH4 0x715018A6 EQ PUSH2 0x2D9 JUMPI DUP1 PUSH4 0x7533D788 EQ PUSH2 0x2D0 JUMPI DUP1 PUSH4 0x8CFD8F5C EQ PUSH2 0x2C7 JUMPI DUP1 PUSH4 0x8DA5CB5B EQ PUSH2 0x2BE JUMPI DUP1 PUSH4 0x9358928B EQ PUSH2 0x2B5 JUMPI DUP1 PUSH4 0x950C8A74 EQ PUSH2 0x2AC JUMPI DUP1 PUSH4 0x95D89B41 EQ PUSH2 0x2A3 JUMPI DUP1 PUSH4 0x9F38369A EQ PUSH2 0x29A JUMPI DUP1 PUSH4 0xA457C2D7 EQ PUSH2 0x291 JUMPI DUP1 PUSH4 0xA6C3D165 EQ PUSH2 0x288 JUMPI DUP1 PUSH4 0xA9059CBB EQ PUSH2 0x27F JUMPI DUP1 PUSH4 0xB353AAA7 EQ PUSH2 0x276 JUMPI DUP1 PUSH4 0xBAF3292D EQ PUSH2 0x26D JUMPI DUP1 PUSH4 0xC4461834 EQ PUSH2 0x264 JUMPI DUP1 PUSH4 0xCBED8B9C EQ PUSH2 0x25B JUMPI DUP1 PUSH4 0xD1DEBA1F EQ PUSH2 0x252 JUMPI DUP1 PUSH4 0xDD62ED3E EQ PUSH2 0x249 JUMPI DUP1 PUSH4 0xDF2A5B3B EQ PUSH2 0x240 JUMPI DUP1 PUSH4 0xEAB45D9C EQ PUSH2 0x237 JUMPI DUP1 PUSH4 0xEB8D72B7 EQ PUSH2 0x22E JUMPI DUP1 PUSH4 0xED629C5C EQ PUSH2 0x225 JUMPI DUP1 PUSH4 0xF2FDE38B EQ PUSH2 0x21C JUMPI DUP1 PUSH4 0xF5ECBDBC EQ PUSH2 0x213 JUMPI PUSH4 0xFC0C546A EQ PUSH2 0x20B JUMPI PUSH1 0x0 DUP1 REVERT JUMPDEST PUSH2 0xE PUSH2 0x27F9 JUMP JUMPDEST POP PUSH2 0xE PUSH2 0x26D2 JUMP JUMPDEST POP PUSH2 0xE PUSH2 0x2598 JUMP JUMPDEST POP PUSH2 0xE PUSH2 0x2556 JUMP JUMPDEST POP PUSH2 0xE PUSH2 0x23A0 JUMP JUMPDEST POP PUSH2 0xE PUSH2 0x2301 JUMP JUMPDEST POP PUSH2 0xE PUSH2 0x21D4 JUMP JUMPDEST POP PUSH2 0xE PUSH2 0x213F JUMP JUMPDEST POP PUSH2 0xE PUSH2 0x1FC8 JUMP JUMPDEST POP PUSH2 0xE PUSH2 0x1E86 JUMP JUMPDEST POP PUSH2 0xE PUSH2 0x1E4A JUMP JUMPDEST POP PUSH2 0xE PUSH2 0x1D9A JUMP JUMPDEST POP PUSH2 0xE PUSH2 0x1D2A JUMP JUMPDEST POP PUSH2 0xE PUSH2 0x1CE1 JUMP JUMPDEST POP PUSH2 0xE PUSH2 0x1AD1 JUMP JUMPDEST POP PUSH2 0xE PUSH2 0x19B5 JUMP JUMPDEST POP PUSH2 0xE PUSH2 0x18CA JUMP JUMPDEST POP PUSH2 0xE PUSH2 0x1885 JUMP JUMPDEST POP PUSH2 0xE PUSH2 0x1832 JUMP JUMPDEST POP PUSH2 0xE PUSH2 0x9E6 JUMP JUMPDEST POP PUSH2 0xE PUSH2 0x17DF JUMP JUMPDEST POP PUSH2 0xE PUSH2 0x1765 JUMP JUMPDEST POP PUSH2 0xE PUSH2 0x1703 JUMP JUMPDEST POP PUSH2 0xE PUSH2 0x1540 JUMP JUMPDEST POP PUSH2 0xE PUSH2 0x14D6 JUMP JUMPDEST POP PUSH2 0xE PUSH2 0x12BB JUMP JUMPDEST POP PUSH2 0xE PUSH2 0x11DF JUMP JUMPDEST POP PUSH2 0xE PUSH2 0xDC6 JUMP JUMPDEST POP PUSH2 0xE PUSH2 0xD8B JUMP JUMPDEST POP PUSH2 0xE PUSH2 0xCE1 JUMP JUMPDEST POP PUSH2 0xE PUSH2 0xC89 JUMP JUMPDEST POP PUSH2 0xE PUSH2 0xC31 JUMP JUMPDEST POP PUSH2 0xE PUSH2 0xB62 JUMP JUMPDEST POP PUSH2 0xE PUSH2 0xB27 JUMP JUMPDEST POP PUSH2 0xE PUSH2 0xA82 JUMP JUMPDEST POP PUSH2 0xE PUSH2 0xA23 JUMP JUMPDEST POP PUSH2 0xE PUSH2 0x918 JUMP JUMPDEST POP PUSH2 0xE PUSH2 0x8BA JUMP JUMPDEST POP PUSH2 0xE PUSH2 0x866 JUMP JUMPDEST POP PUSH2 0xE PUSH2 0x757 JUMP JUMPDEST POP PUSH2 0xE PUSH2 0x6F3 JUMP JUMPDEST POP PUSH2 0xE PUSH2 0x56B JUMP JUMPDEST POP PUSH2 0xE PUSH2 0x42D JUMP JUMPDEST PUSH2 0xFFFF DUP2 AND SUB PUSH2 0xE JUMPI JUMP JUMPDEST SWAP2 DUP2 PUSH1 0x1F DUP5 ADD SLT ISZERO PUSH2 0xE JUMPI DUP3 CALLDATALOAD SWAP2 PUSH8 0xFFFFFFFFFFFFFFFF DUP4 GT PUSH2 0xE JUMPI PUSH1 0x20 DUP4 DUP2 DUP7 ADD SWAP6 ADD ADD GT PUSH2 0xE JUMPI JUMP JUMPDEST SWAP1 PUSH1 0x80 DUP3 DUP3 SUB SLT PUSH2 0xE JUMPI DUP2 CALLDATALOAD PUSH2 0x3DD DUP2 PUSH2 0x38D JUMP JUMPDEST SWAP3 PUSH8 0xFFFFFFFFFFFFFFFF SWAP1 PUSH1 0x20 DUP5 ADD CALLDATALOAD DUP3 DUP2 GT PUSH2 0xE JUMPI DUP4 PUSH2 0x400 SWAP2 DUP7 ADD PUSH2 0x399 JUMP JUMPDEST SWAP5 SWAP1 SWAP5 SWAP4 PUSH1 0x40 DUP3 ADD CALLDATALOAD DUP5 DUP2 AND DUP2 SUB PUSH2 0xE JUMPI SWAP4 PUSH1 0x60 DUP4 ADD CALLDATALOAD SWAP1 DUP2 GT PUSH2 0xE JUMPI PUSH2 0x429 SWAP3 ADD PUSH2 0x399 JUMP JUMPDEST SWAP1 SWAP2 JUMP JUMPDEST POP CALLVALUE PUSH2 0xE JUMPI PUSH2 0x43E CALLDATASIZE PUSH1 0x4 PUSH2 0x3C7 JUMP JUMPDEST SWAP2 SWAP3 SWAP5 SWAP4 SWAP1 PUSH20 0xFFFFFFFFFFFFFFFFFFFFFFFFFFFFFFFFFFFFFFFF PUSH32 0x0 AND CALLER SUB PUSH2 0x50D JUMPI PUSH2 0x4D0 PUSH2 0x4D8 SWAP3 PUSH2 0x4DE SWAP8 PUSH2 0x4C9 PUSH2 0x4AF PUSH2 0x4AA DUP11 PUSH1 0x1 SWAP1 PUSH2 0xFFFF AND PUSH1 0x0 MSTORE PUSH1 0x20 MSTORE PUSH1 0x40 PUSH1 0x0 KECCAK256 SWAP1 JUMP JUMPDEST PUSH2 0x16E6 JUMP JUMPDEST DUP1 MLOAD SWAP1 DUP2 DUP5 EQ SWAP2 DUP3 PUSH2 0x503 JUMPI JUMPDEST POP DUP2 PUSH2 0x4E0 JUMPI JUMPDEST POP PUSH2 0x2833 JUMP JUMPDEST CALLDATASIZE SWAP2 PUSH2 0x1182 JUMP JUMPDEST SWAP3 CALLDATASIZE SWAP2 PUSH2 0x1182 JUMP JUMPDEST SWAP3 PUSH2 0x2A26 JUMP JUMPDEST STOP JUMPDEST SWAP1 POP PUSH2 0x4ED CALLDATASIZE DUP5 DUP7 PUSH2 0x1182 JUMP JUMPDEST PUSH1 0x20 DUP2 MLOAD SWAP2 ADD KECCAK256 SWAP1 PUSH1 0x20 DUP2 MLOAD SWAP2 ADD KECCAK256 EQ CODESIZE PUSH2 0x4C3 JUMP JUMPDEST ISZERO ISZERO SWAP2 POP CODESIZE PUSH2 0x4BC JUMP JUMPDEST PUSH1 0x64 PUSH1 0x40 MLOAD PUSH32 0x8C379A000000000000000000000000000000000000000000000000000000000 DUP2 MSTORE PUSH1 0x20 PUSH1 0x4 DUP3 ADD MSTORE PUSH1 0x1E PUSH1 0x24 DUP3 ADD MSTORE PUSH32 0x4C7A4170703A20696E76616C696420656E64706F696E742063616C6C65720000 PUSH1 0x44 DUP3 ADD MSTORE REVERT JUMPDEST POP CALLVALUE PUSH2 0xE JUMPI PUSH1 0x20 PUSH32 0xFFFFFFFFFFFFFFFFFFFFFFFFFFFFFFFFFFFFFFFFFFFFFFFFFFFFFFFFFFFFFFFC CALLDATASIZE ADD SLT PUSH2 0xE JUMPI PUSH1 0x4 CALLDATALOAD PUSH32 0xFFFFFFFF00000000000000000000000000000000000000000000000000000000 DUP2 AND DUP1 SWAP2 SUB PUSH2 0xE JUMPI DUP1 PUSH1 0x20 SWAP2 ISZERO SWAP1 DUP2 ISZERO PUSH2 0x644 JUMPI JUMPDEST DUP2 ISZERO PUSH2 0x5E7 JUMPI JUMPDEST POP PUSH1 0x40 MLOAD SWAP1 ISZERO ISZERO DUP2 MSTORE RETURN JUMPDEST PUSH32 0x14E4CEEA00000000000000000000000000000000000000000000000000000000 DUP2 EQ SWAP2 POP DUP2 ISZERO PUSH2 0x61A JUMPI JUMPDEST POP CODESIZE PUSH2 0x5DC JUMP JUMPDEST PUSH32 0x1FFC9A700000000000000000000000000000000000000000000000000000000 SWAP2 POP EQ CODESIZE PUSH2 0x613 JUMP JUMPDEST PUSH32 0x36372B0700000000000000000000000000000000000000000000000000000000 DUP2 EQ SWAP2 POP PUSH2 0x5D5 JUMP JUMPDEST PUSH1 0x0 SWAP2 SUB SLT PUSH2 0xE JUMPI JUMP JUMPDEST PUSH1 0x0 JUMPDEST DUP4 DUP2 LT PUSH2 0x68C JUMPI POP POP PUSH1 0x0 SWAP2 ADD MSTORE JUMP JUMPDEST DUP2 DUP2 ADD MLOAD DUP4 DUP3 ADD MSTORE PUSH1 0x20 ADD PUSH2 0x67C JUMP JUMPDEST SWAP1 PUSH32 0xFFFFFFFFFFFFFFFFFFFFFFFFFFFFFFFFFFFFFFFFFFFFFFFFFFFFFFFFFFFFFFE0 PUSH1 0x1F PUSH1 0x20 SWAP4 PUSH2 0x6D8 DUP2 MLOAD DUP1 SWAP3 DUP2 DUP8 MSTORE DUP8 DUP1 DUP9 ADD SWAP2 ADD PUSH2 0x679 JUMP JUMPDEST ADD AND ADD ADD SWAP1 JUMP JUMPDEST SWAP1 PUSH1 0x20 PUSH2 0x6F0 SWAP3 DUP2 DUP2 MSTORE ADD SWAP1 PUSH2 0x69C JUMP JUMPDEST SWAP1 JUMP JUMPDEST POP CALLVALUE PUSH2 0xE JUMPI PUSH1 0x0 PUSH32 0xFFFFFFFFFFFFFFFFFFFFFFFFFFFFFFFFFFFFFFFFFFFFFFFFFFFFFFFFFFFFFFFC CALLDATASIZE ADD SLT PUSH2 0xE JUMPI PUSH2 0x753 PUSH1 0x40 MLOAD PUSH2 0x73F DUP2 PUSH2 0x738 DUP2 PUSH1 0xA PUSH2 0x1631 JUMP JUMPDEST SUB DUP3 PUSH2 0x10EB JUMP JUMPDEST PUSH1 0x40 MLOAD SWAP2 DUP3 SWAP2 PUSH1 0x20 DUP4 MSTORE PUSH1 0x20 DUP4 ADD SWAP1 PUSH2 0x69C JUMP JUMPDEST SUB SWAP1 RETURN JUMPDEST POP CALLVALUE PUSH2 0xE JUMPI PUSH1 0x0 PUSH1 0x20 PUSH32 0xFFFFFFFFFFFFFFFFFFFFFFFFFFFFFFFFFFFFFFFFFFFFFFFFFFFFFFFFFFFFFFFC CALLDATASIZE ADD SLT PUSH2 0x845 JUMPI PUSH1 0x4 CALLDATALOAD PUSH2 0x795 DUP2 PUSH2 0x38D JUMP JUMPDEST PUSH2 0x79D PUSH2 0x35A7 JUMP JUMPDEST DUP2 PUSH20 0xFFFFFFFFFFFFFFFFFFFFFFFFFFFFFFFFFFFFFFFF PUSH32 0x0 AND SWAP2 DUP3 EXTCODESIZE ISZERO PUSH2 0x841 JUMPI PUSH2 0xFFFF PUSH1 0x24 DUP4 SWAP3 DUP4 PUSH1 0x40 MLOAD SWAP7 DUP8 SWAP5 DUP6 SWAP4 PUSH32 0x7E0DB1700000000000000000000000000000000000000000000000000000000 DUP6 MSTORE AND PUSH1 0x4 DUP5 ADD MSTORE GAS CALL DUP1 ISZERO PUSH2 0x834 JUMPI JUMPDEST PUSH2 0x826 JUMPI DUP1 RETURN JUMPDEST PUSH2 0x82F SWAP2 PUSH2 0x10EB JUMP JUMPDEST CODESIZE DUP2 DUP1 RETURN JUMPDEST PUSH2 0x83C PUSH2 0x2926 JUMP JUMPDEST PUSH2 0x81F JUMP JUMPDEST POP DUP1 REVERT JUMPDEST DUP1 REVERT JUMPDEST PUSH20 0xFFFFFFFFFFFFFFFFFFFFFFFFFFFFFFFFFFFFFFFF DUP2 AND SUB PUSH2 0xE JUMPI JUMP JUMPDEST POP CALLVALUE PUSH2 0xE JUMPI PUSH1 0x40 PUSH32 0xFFFFFFFFFFFFFFFFFFFFFFFFFFFFFFFFFFFFFFFFFFFFFFFFFFFFFFFFFFFFFFFC CALLDATASIZE ADD SLT PUSH2 0xE JUMPI PUSH2 0x8AF PUSH1 0x4 CALLDATALOAD PUSH2 0x8A5 DUP2 PUSH2 0x848 JUMP JUMPDEST PUSH1 0x24 CALLDATALOAD SWAP1 CALLER PUSH2 0x39F7 JUMP JUMPDEST PUSH1 0x20 PUSH1 0x40 MLOAD PUSH1 0x1 DUP2 MSTORE RETURN JUMPDEST POP CALLVALUE PUSH2 0xE JUMPI PUSH1 0x40 PUSH32 0xFFFFFFFFFFFFFFFFFFFFFFFFFFFFFFFFFFFFFFFFFFFFFFFFFFFFFFFFFFFFFFFC CALLDATASIZE ADD SLT PUSH2 0xE JUMPI PUSH2 0xFFFF PUSH1 0x4 CALLDATALOAD PUSH2 0x8F9 DUP2 PUSH2 0x38D JUMP JUMPDEST PUSH2 0x901 PUSH2 0x35A7 JUMP JUMPDEST AND PUSH1 0x0 MSTORE PUSH1 0x3 PUSH1 0x20 MSTORE PUSH1 0x24 CALLDATALOAD PUSH1 0x40 PUSH1 0x0 KECCAK256 SSTORE PUSH1 0x0 DUP1 RETURN JUMPDEST POP CALLVALUE PUSH2 0xE JUMPI PUSH1 0x0 PUSH1 0x20 PUSH32 0xFFFFFFFFFFFFFFFFFFFFFFFFFFFFFFFFFFFFFFFFFFFFFFFFFFFFFFFFFFFFFFFC CALLDATASIZE ADD SLT PUSH2 0x845 JUMPI PUSH1 0x4 CALLDATALOAD PUSH2 0x956 DUP2 PUSH2 0x38D JUMP JUMPDEST PUSH2 0x95E PUSH2 0x35A7 JUMP JUMPDEST DUP2 PUSH20 0xFFFFFFFFFFFFFFFFFFFFFFFFFFFFFFFFFFFFFFFF PUSH32 0x0 AND SWAP2 DUP3 EXTCODESIZE ISZERO PUSH2 0x841 JUMPI PUSH2 0xFFFF PUSH1 0x24 DUP4 SWAP3 DUP4 PUSH1 0x40 MLOAD SWAP7 DUP8 SWAP5 DUP6 SWAP4 PUSH32 0x10DDB13700000000000000000000000000000000000000000000000000000000 DUP6 MSTORE AND PUSH1 0x4 DUP5 ADD MSTORE GAS CALL DUP1 ISZERO PUSH2 0x834 JUMPI PUSH2 0x826 JUMPI DUP1 RETURN JUMPDEST POP CALLVALUE PUSH2 0xE JUMPI PUSH1 0x0 PUSH32 0xFFFFFFFFFFFFFFFFFFFFFFFFFFFFFFFFFFFFFFFFFFFFFFFFFFFFFFFFFFFFFFFC CALLDATASIZE ADD SLT PUSH2 0xE JUMPI PUSH1 0x20 PUSH1 0x9 SLOAD PUSH1 0x40 MLOAD SWAP1 DUP2 MSTORE RETURN JUMPDEST POP CALLVALUE PUSH2 0xE JUMPI PUSH1 0x60 PUSH32 0xFFFFFFFFFFFFFFFFFFFFFFFFFFFFFFFFFFFFFFFFFFFFFFFFFFFFFFFFFFFFFFFC CALLDATASIZE ADD SLT PUSH2 0xE JUMPI PUSH2 0x8AF PUSH1 0x4 CALLDATALOAD PUSH2 0xA62 DUP2 PUSH2 0x848 JUMP JUMPDEST PUSH1 0x24 CALLDATALOAD PUSH2 0xA6E DUP2 PUSH2 0x848 JUMP JUMPDEST PUSH1 0x44 CALLDATALOAD SWAP2 PUSH2 0xA7D DUP4 CALLER DUP4 PUSH2 0x3BB2 JUMP JUMPDEST PUSH2 0x373C JUMP JUMPDEST POP CALLVALUE PUSH2 0xE JUMPI PUSH1 0xA0 PUSH32 0xFFFFFFFFFFFFFFFFFFFFFFFFFFFFFFFFFFFFFFFFFFFFFFFFFFFFFFFFFFFFFFFC CALLDATASIZE ADD SLT PUSH2 0xE JUMPI PUSH1 0x4 CALLDATALOAD PUSH2 0xABE DUP2 PUSH2 0x38D JUMP JUMPDEST PUSH8 0xFFFFFFFFFFFFFFFF SWAP1 PUSH1 0x24 CALLDATALOAD DUP3 DUP2 GT PUSH2 0xE JUMPI PUSH2 0xAE0 SWAP1 CALLDATASIZE SWAP1 PUSH1 0x4 ADD PUSH2 0x399 JUMP JUMPDEST SWAP2 PUSH1 0x64 CALLDATALOAD SWAP1 DUP2 ISZERO ISZERO DUP3 SUB PUSH2 0xE JUMPI PUSH1 0x84 CALLDATALOAD SWAP5 DUP6 GT PUSH2 0xE JUMPI PUSH2 0xB09 PUSH2 0xB15 SWAP6 CALLDATASIZE SWAP1 PUSH1 0x4 ADD PUSH2 0x399 JUMP JUMPDEST SWAP5 SWAP1 SWAP4 PUSH1 0x44 CALLDATALOAD SWAP3 PUSH2 0x2D7A JUMP JUMPDEST PUSH1 0x40 DUP1 MLOAD SWAP3 DUP4 MSTORE PUSH1 0x20 DUP4 ADD SWAP2 SWAP1 SWAP2 MSTORE SWAP1 RETURN JUMPDEST POP CALLVALUE PUSH2 0xE JUMPI PUSH1 0x0 PUSH32 0xFFFFFFFFFFFFFFFFFFFFFFFFFFFFFFFFFFFFFFFFFFFFFFFFFFFFFFFFFFFFFFFC CALLDATASIZE ADD SLT PUSH2 0xE JUMPI PUSH1 0x20 PUSH1 0x40 MLOAD PUSH1 0x12 DUP2 MSTORE RETURN JUMPDEST POP CALLVALUE PUSH2 0xE JUMPI PUSH1 0x40 PUSH32 0xFFFFFFFFFFFFFFFFFFFFFFFFFFFFFFFFFFFFFFFFFFFFFFFFFFFFFFFFFFFFFFFC CALLDATASIZE ADD SLT PUSH2 0xE JUMPI PUSH2 0x8AF PUSH1 0x4 CALLDATALOAD PUSH2 0xBA1 DUP2 PUSH2 0x848 JUMP JUMPDEST CALLER PUSH1 0x0 MSTORE PUSH1 0x8 PUSH1 0x20 MSTORE PUSH2 0xBD8 DUP2 PUSH1 0x40 PUSH1 0x0 KECCAK256 SWAP1 PUSH20 0xFFFFFFFFFFFFFFFFFFFFFFFFFFFFFFFFFFFFFFFF AND PUSH1 0x0 MSTORE PUSH1 0x20 MSTORE PUSH1 0x40 PUSH1 0x0 KECCAK256 SWAP1 JUMP JUMPDEST SLOAD SWAP1 PUSH1 0x24 CALLDATALOAD DUP3 ADD DUP1 SWAP3 GT PUSH2 0xBED JUMPI JUMPDEST CALLER PUSH2 0x39F7 JUMP JUMPDEST PUSH2 0xBF5 PUSH2 0x29E1 JUMP JUMPDEST PUSH2 0xBE7 JUMP JUMPDEST SWAP2 SWAP1 SWAP2 PUSH1 0x40 DUP2 DUP5 SUB SLT PUSH2 0xE JUMPI DUP1 CALLDATALOAD PUSH2 0xC12 DUP2 PUSH2 0x38D JUMP JUMPDEST SWAP3 PUSH1 0x20 DUP3 ADD CALLDATALOAD PUSH8 0xFFFFFFFFFFFFFFFF DUP2 GT PUSH2 0xE JUMPI PUSH2 0x429 SWAP3 ADD PUSH2 0x399 JUMP JUMPDEST POP CALLVALUE PUSH2 0xE JUMPI PUSH1 0x20 PUSH2 0xFFFF PUSH2 0xC7A PUSH2 0xC4A CALLDATASIZE PUSH1 0x4 PUSH2 0xBFA JUMP JUMPDEST SWAP4 SWAP1 SWAP2 AND PUSH1 0x0 MSTORE PUSH1 0x1 DUP5 MSTORE PUSH2 0x738 PUSH2 0xC6C PUSH1 0x40 PUSH1 0x0 KECCAK256 PUSH1 0x40 MLOAD SWAP3 DUP4 DUP1 SWAP3 PUSH2 0x1631 JUMP JUMPDEST DUP5 DUP2 MLOAD SWAP2 ADD KECCAK256 SWAP3 CALLDATASIZE SWAP2 PUSH2 0x1182 JUMP JUMPDEST DUP3 DUP2 MLOAD SWAP2 ADD KECCAK256 EQ PUSH1 0x40 MLOAD SWAP1 DUP2 MSTORE RETURN JUMPDEST POP CALLVALUE PUSH2 0xE JUMPI PUSH1 0x20 PUSH32 0xFFFFFFFFFFFFFFFFFFFFFFFFFFFFFFFFFFFFFFFFFFFFFFFFFFFFFFFFFFFFFFFC CALLDATASIZE ADD SLT PUSH2 0xE JUMPI PUSH2 0xFFFF PUSH1 0x4 CALLDATALOAD PUSH2 0xCC8 DUP2 PUSH2 0x38D JUMP JUMPDEST AND PUSH1 0x0 MSTORE PUSH1 0x3 PUSH1 0x20 MSTORE PUSH1 0x20 PUSH1 0x40 PUSH1 0x0 KECCAK256 SLOAD PUSH1 0x40 MLOAD SWAP1 DUP2 MSTORE RETURN JUMPDEST POP CALLVALUE PUSH2 0xE JUMPI PUSH2 0xCF2 CALLDATASIZE PUSH1 0x4 PUSH2 0xBFA JUMP JUMPDEST PUSH2 0xCFA PUSH2 0x35A7 JUMP JUMPDEST PUSH20 0xFFFFFFFFFFFFFFFFFFFFFFFFFFFFFFFFFFFFFFFF PUSH32 0x0 AND SWAP2 DUP3 EXTCODESIZE ISZERO PUSH2 0xE JUMPI PUSH2 0xD7A SWAP4 PUSH1 0x40 MLOAD SWAP4 DUP5 DUP1 SWAP3 PUSH32 0x42D65A8D00000000000000000000000000000000000000000000000000000000 DUP3 MSTORE DUP2 PUSH1 0x0 SWAP9 DUP10 SWAP8 DUP9 SWAP8 DUP9 SWAP5 PUSH1 0x4 DUP6 ADD PUSH2 0x2972 JUMP JUMPDEST SUB SWAP3 GAS CALL DUP1 ISZERO PUSH2 0x834 JUMPI PUSH2 0x826 JUMPI DUP1 RETURN JUMPDEST POP CALLVALUE PUSH2 0xE JUMPI PUSH1 0x0 PUSH32 0xFFFFFFFFFFFFFFFFFFFFFFFFFFFFFFFFFFFFFFFFFFFFFFFFFFFFFFFFFFFFFFFC CALLDATASIZE ADD SLT PUSH2 0xE JUMPI PUSH1 0x20 PUSH1 0x40 MLOAD PUSH1 0x0 DUP2 MSTORE RETURN JUMPDEST POP PUSH1 0xE0 PUSH32 0xFFFFFFFFFFFFFFFFFFFFFFFFFFFFFFFFFFFFFFFFFFFFFFFFFFFFFFFFFFFFFFFC CALLDATASIZE ADD SLT PUSH2 0xE JUMPI PUSH1 0x4 CALLDATALOAD PUSH2 0xDFD DUP2 PUSH2 0x848 JUMP JUMPDEST PUSH1 0x24 CALLDATALOAD SWAP1 PUSH2 0xE0A DUP3 PUSH2 0x38D JUMP JUMPDEST PUSH8 0xFFFFFFFFFFFFFFFF PUSH1 0x44 CALLDATALOAD DUP2 DUP2 GT PUSH2 0xE JUMPI PUSH2 0xE2B SWAP1 CALLDATASIZE SWAP1 PUSH1 0x4 ADD PUSH2 0x399 JUMP JUMPDEST SWAP2 SWAP1 SWAP3 PUSH1 0x84 CALLDATALOAD SWAP2 PUSH2 0xE3B DUP4 PUSH2 0x848 JUMP JUMPDEST PUSH1 0xA4 CALLDATALOAD SWAP4 PUSH2 0xE48 DUP6 PUSH2 0x848 JUMP JUMPDEST PUSH1 0xC4 CALLDATALOAD SWAP2 DUP3 GT PUSH2 0xE JUMPI PUSH2 0xE70 PUSH2 0xE66 PUSH2 0xE78 SWAP4 CALLDATASIZE SWAP1 PUSH1 0x4 ADD PUSH2 0x399 JUMP JUMPDEST SWAP8 SWAP1 SWAP3 CALLDATASIZE SWAP2 PUSH2 0x1182 JUMP JUMPDEST SWAP6 CALLDATASIZE SWAP2 PUSH2 0x1182 JUMP JUMPDEST SWAP2 PUSH1 0xFF PUSH1 0x6 SLOAD AND PUSH1 0x0 EQ PUSH2 0xFED JUMPI PUSH1 0x22 DUP4 MLOAD LT PUSH2 0xF8F JUMPI PUSH32 0x39A4C66499BCF4B56D79F0DDE8ED7A9D4925A0DF55825206B2B8531E202BE0D0 SWAP4 PUSH2 0xF77 PUSH2 0xF8A SWAP3 DUP6 PUSH2 0xF1C PUSH1 0x22 PUSH20 0xFFFFFFFFFFFFFFFFFFFFFFFFFFFFFFFFFFFFFFFF SWAP9 ADD MLOAD PUSH2 0xFFFF DUP13 AND PUSH1 0x0 MSTORE PUSH1 0x2 PUSH1 0x20 MSTORE PUSH2 0xF09 PUSH1 0x0 PUSH2 0xF03 DUP2 PUSH1 0x40 DUP2 KECCAK256 SWAP1 PUSH2 0xFFFF AND PUSH1 0x0 MSTORE PUSH1 0x20 MSTORE PUSH1 0x40 PUSH1 0x0 KECCAK256 SWAP1 JUMP JUMPDEST SLOAD PUSH2 0x335A JUMP JUMPDEST SWAP1 PUSH2 0xF15 DUP3 ISZERO ISZERO PUSH2 0x3367 JUMP JUMPDEST LT ISZERO PUSH2 0x33CC JUMP JUMPDEST PUSH2 0xF28 PUSH1 0x64 CALLDATALOAD DUP8 PUSH2 0x31F6 JUMP JUMPDEST SWAP4 DUP5 SWAP3 PUSH2 0xF6F DUP12 PUSH2 0xF43 PUSH1 0x40 MLOAD SWAP7 DUP8 SWAP3 PUSH1 0x0 PUSH1 0x20 DUP6 ADD PUSH2 0x2F52 JUMP JUMPDEST SUB PUSH32 0xFFFFFFFFFFFFFFFFFFFFFFFFFFFFFFFFFFFFFFFFFFFFFFFFFFFFFFFFFFFFFFE0 DUP2 ADD DUP7 MSTORE DUP6 PUSH2 0x10EB JUMP JUMPDEST CALLVALUE SWAP4 DUP13 PUSH2 0x2FF3 JUMP JUMPDEST PUSH2 0xFFFF PUSH1 0x40 MLOAD SWAP5 DUP6 SWAP5 AND SWAP8 AND SWAP6 DUP4 PUSH2 0x2F78 JUMP JUMPDEST SUB SWAP1 LOG3 STOP JUMPDEST PUSH1 0x64 PUSH1 0x40 MLOAD PUSH32 0x8C379A000000000000000000000000000000000000000000000000000000000 DUP2 MSTORE PUSH1 0x20 PUSH1 0x4 DUP3 ADD MSTORE PUSH1 0x1C PUSH1 0x24 DUP3 ADD MSTORE PUSH32 0x4C7A4170703A20696E76616C69642061646170746572506172616D7300000000 PUSH1 0x44 DUP3 ADD MSTORE REVERT JUMPDEST DUP3 MLOAD PUSH2 0x1037 JUMPI PUSH32 0x39A4C66499BCF4B56D79F0DDE8ED7A9D4925A0DF55825206B2B8531E202BE0D0 SWAP4 PUSH2 0xF77 PUSH2 0xF8A SWAP3 PUSH20 0xFFFFFFFFFFFFFFFFFFFFFFFFFFFFFFFFFFFFFFFF SWAP6 PUSH2 0xF1C JUMP JUMPDEST PUSH1 0x84 PUSH1 0x40 MLOAD PUSH32 0x8C379A000000000000000000000000000000000000000000000000000000000 DUP2 MSTORE PUSH1 0x20 PUSH1 0x4 DUP3 ADD MSTORE PUSH1 0x26 PUSH1 0x24 DUP3 ADD MSTORE PUSH32 0x4F4654436F72653A205F61646170746572506172616D73206D75737420626520 PUSH1 0x44 DUP3 ADD MSTORE PUSH32 0x656D7074792E0000000000000000000000000000000000000000000000000000 PUSH1 0x64 DUP3 ADD MSTORE REVERT JUMPDEST POP PUSH32 0x4E487B7100000000000000000000000000000000000000000000000000000000 PUSH1 0x0 MSTORE PUSH1 0x41 PUSH1 0x4 MSTORE PUSH1 0x24 PUSH1 0x0 REVERT JUMPDEST SWAP1 PUSH1 0x1F PUSH32 0xFFFFFFFFFFFFFFFFFFFFFFFFFFFFFFFFFFFFFFFFFFFFFFFFFFFFFFFFFFFFFFE0 SWAP2 ADD AND DUP2 ADD SWAP1 DUP2 LT PUSH8 0xFFFFFFFFFFFFFFFF DUP3 GT OR PUSH2 0x112C JUMPI PUSH1 0x40 MSTORE JUMP JUMPDEST PUSH2 0x1134 PUSH2 0x10BB JUMP JUMPDEST PUSH1 0x40 MSTORE JUMP JUMPDEST PUSH32 0xFFFFFFFFFFFFFFFFFFFFFFFFFFFFFFFFFFFFFFFFFFFFFFFFFFFFFFFFFFFFFFE0 PUSH1 0x1F PUSH1 0x20 SWAP3 PUSH8 0xFFFFFFFFFFFFFFFF DUP2 GT PUSH2 0x1175 JUMPI JUMPDEST ADD AND ADD SWAP1 JUMP JUMPDEST PUSH2 0x117D PUSH2 0x10BB JUMP JUMPDEST PUSH2 0x116F JUMP JUMPDEST SWAP3 SWAP2 SWAP3 PUSH2 0x118E DUP3 PUSH2 0x1139 JUMP JUMPDEST SWAP2 PUSH2 0x119C PUSH1 0x40 MLOAD SWAP4 DUP5 PUSH2 0x10EB JUMP JUMPDEST DUP3 SWAP5 DUP2 DUP5 MSTORE DUP2 DUP4 ADD GT PUSH2 0xE JUMPI DUP3 DUP2 PUSH1 0x20 SWAP4 DUP5 PUSH1 0x0 SWAP7 ADD CALLDATACOPY ADD ADD MSTORE JUMP JUMPDEST PUSH1 0x20 SWAP1 PUSH2 0x11D3 SWAP3 DUP3 PUSH1 0x40 MLOAD SWAP5 DUP4 DUP7 DUP1 SWAP6 MLOAD SWAP4 DUP5 SWAP3 ADD PUSH2 0x679 JUMP JUMPDEST DUP3 ADD SWAP1 DUP2 MSTORE SUB ADD SWAP1 KECCAK256 SWAP1 JUMP JUMPDEST POP CALLVALUE PUSH2 0xE JUMPI PUSH1 0x60 PUSH32 0xFFFFFFFFFFFFFFFFFFFFFFFFFFFFFFFFFFFFFFFFFFFFFFFFFFFFFFFFFFFFFFFC CALLDATASIZE ADD SLT PUSH2 0xE JUMPI PUSH1 0x4 CALLDATALOAD PUSH2 0x121B DUP2 PUSH2 0x38D JUMP JUMPDEST PUSH8 0xFFFFFFFFFFFFFFFF PUSH1 0x24 CALLDATALOAD DUP2 DUP2 GT PUSH2 0xE JUMPI CALLDATASIZE PUSH1 0x23 DUP3 ADD SLT ISZERO PUSH2 0xE JUMPI PUSH2 0x124D SWAP1 CALLDATASIZE SWAP1 PUSH1 0x24 DUP2 PUSH1 0x4 ADD CALLDATALOAD SWAP2 ADD PUSH2 0x1182 JUMP JUMPDEST SWAP2 PUSH1 0x44 CALLDATALOAD SWAP2 DUP3 AND DUP3 SUB PUSH2 0xE JUMPI PUSH2 0x12A2 PUSH2 0x12AB SWAP3 PUSH2 0x1289 PUSH2 0x753 SWAP6 PUSH2 0x1283 PUSH1 0x0 SWAP6 PUSH1 0x5 SWAP1 PUSH2 0xFFFF AND PUSH1 0x0 MSTORE PUSH1 0x20 MSTORE PUSH1 0x40 PUSH1 0x0 KECCAK256 SWAP1 JUMP JUMPDEST SWAP1 PUSH2 0x11B9 JUMP JUMPDEST SWAP1 PUSH8 0xFFFFFFFFFFFFFFFF AND PUSH1 0x0 MSTORE PUSH1 0x20 MSTORE PUSH1 0x40 PUSH1 0x0 KECCAK256 SWAP1 JUMP JUMPDEST SLOAD SWAP1 PUSH1 0x3 SHL SHR SWAP1 JUMP JUMPDEST PUSH1 0x40 MLOAD SWAP1 DUP2 MSTORE SWAP1 DUP2 SWAP1 PUSH1 0x20 DUP3 ADD SWAP1 JUMP JUMPDEST POP CALLVALUE PUSH2 0xE JUMPI PUSH2 0x12CC CALLDATASIZE PUSH1 0x4 PUSH2 0x3C7 JUMP JUMPDEST SWAP2 POP SWAP2 ADDRESS CALLER SUB PUSH2 0x1452 JUMPI PUSH2 0x12ED SWAP4 PUSH2 0x12E5 SWAP2 CALLDATASIZE SWAP2 PUSH2 0x1182 JUMP JUMPDEST POP CALLDATASIZE SWAP2 PUSH2 0x1182 JUMP JUMPDEST PUSH1 0x20 DUP1 DUP3 ADD SWAP1 PUSH2 0xFFFF SWAP2 DUP3 DUP2 MLOAD AND ISZERO PUSH1 0x0 EQ PUSH2 0x13F4 JUMPI DUP4 MLOAD DUP5 ADD SWAP1 PUSH1 0x60 DUP6 DUP4 SUB SLT PUSH2 0xE JUMPI PUSH2 0x131C SWAP1 MLOAD PUSH2 0x38D JUMP JUMPDEST PUSH1 0x40 DUP5 ADD MLOAD SWAP1 PUSH8 0xFFFFFFFFFFFFFFFF DUP3 GT PUSH2 0xE JUMPI PUSH1 0x60 SWAP2 DUP4 DUP1 PUSH2 0x1344 SWAP4 ADD SWAP2 DUP8 ADD ADD PUSH2 0x28BE JUMP JUMPDEST SWAP4 ADD MLOAD SWAP3 PUSH1 0x14 DUP2 MLOAD LT PUSH2 0x1396 JUMPI ADD MLOAD PUSH1 0x60 SHR SWAP3 PUSH32 0xBF551EC93859B170F9B2141BD9298BF3F64322C6F7BEB2543A0CB669834118BF SWAP2 SWAP1 PUSH2 0x1384 DUP5 DUP7 PUSH2 0x3893 JUMP JUMPDEST PUSH1 0x40 MLOAD SWAP4 DUP5 MSTORE AND SWAP2 DUP1 PUSH1 0x20 DUP2 ADD PUSH2 0xF8A JUMP JUMPDEST PUSH1 0x64 DUP3 PUSH1 0x40 MLOAD SWAP1 PUSH32 0x8C379A000000000000000000000000000000000000000000000000000000000 DUP3 MSTORE PUSH1 0x4 DUP3 ADD MSTORE PUSH1 0x15 PUSH1 0x24 DUP3 ADD MSTORE PUSH32 0x746F416464726573735F6F75744F66426F756E64730000000000000000000000 PUSH1 0x44 DUP3 ADD MSTORE REVERT JUMPDEST PUSH1 0x64 DUP3 PUSH1 0x40 MLOAD SWAP1 PUSH32 0x8C379A000000000000000000000000000000000000000000000000000000000 DUP3 MSTORE PUSH1 0x4 DUP3 ADD MSTORE PUSH1 0x1C PUSH1 0x24 DUP3 ADD MSTORE PUSH32 0x4F4654436F72653A20756E6B6E6F776E207061636B6574207479706500000000 PUSH1 0x44 DUP3 ADD MSTORE REVERT JUMPDEST PUSH1 0x84 PUSH1 0x40 MLOAD PUSH32 0x8C379A000000000000000000000000000000000000000000000000000000000 DUP2 MSTORE PUSH1 0x20 PUSH1 0x4 DUP3 ADD MSTORE PUSH1 0x26 PUSH1 0x24 DUP3 ADD MSTORE PUSH32 0x4E6F6E626C6F636B696E674C7A4170703A2063616C6C6572206D757374206265 PUSH1 0x44 DUP3 ADD MSTORE PUSH32 0x204C7A4170700000000000000000000000000000000000000000000000000000 PUSH1 0x64 DUP3 ADD MSTORE REVERT JUMPDEST POP CALLVALUE PUSH2 0xE JUMPI PUSH1 0x20 PUSH32 0xFFFFFFFFFFFFFFFFFFFFFFFFFFFFFFFFFFFFFFFFFFFFFFFFFFFFFFFFFFFFFFFC CALLDATASIZE ADD SLT PUSH2 0xE JUMPI PUSH20 0xFFFFFFFFFFFFFFFFFFFFFFFFFFFFFFFFFFFFFFFF PUSH1 0x4 CALLDATALOAD PUSH2 0x1527 DUP2 PUSH2 0x848 JUMP JUMPDEST AND PUSH1 0x0 MSTORE PUSH1 0x7 PUSH1 0x20 MSTORE PUSH1 0x20 PUSH1 0x40 PUSH1 0x0 KECCAK256 SLOAD PUSH1 0x40 MLOAD SWAP1 DUP2 MSTORE RETURN JUMPDEST POP CALLVALUE PUSH2 0xE JUMPI PUSH1 0x0 DUP1 PUSH32 0xFFFFFFFFFFFFFFFFFFFFFFFFFFFFFFFFFFFFFFFFFFFFFFFFFFFFFFFFFFFFFFFC CALLDATASIZE ADD SLT PUSH2 0x845 JUMPI PUSH2 0x1579 PUSH2 0x35A7 JUMP JUMPDEST DUP1 PUSH20 0xFFFFFFFFFFFFFFFFFFFFFFFFFFFFFFFFFFFFFFFF DUP2 SLOAD PUSH32 0xFFFFFFFFFFFFFFFFFFFFFFFF0000000000000000000000000000000000000000 DUP2 AND DUP4 SSTORE AND PUSH32 0x8BE0079C531659141344CD1FD0A4F28419497F9722A3DAAFE3B4186F6B6457E0 DUP3 DUP1 LOG3 DUP1 RETURN JUMPDEST SWAP1 PUSH1 0x1 DUP3 DUP2 SHR SWAP3 AND DUP1 ISZERO PUSH2 0x1627 JUMPI JUMPDEST PUSH1 0x20 DUP4 LT EQ PUSH2 0x15F8 JUMPI JUMP JUMPDEST PUSH32 0x4E487B7100000000000000000000000000000000000000000000000000000000 PUSH1 0x0 MSTORE PUSH1 0x22 PUSH1 0x4 MSTORE PUSH1 0x24 PUSH1 0x0 REVERT JUMPDEST SWAP2 PUSH1 0x7F AND SWAP2 PUSH2 0x15ED JUMP JUMPDEST SWAP1 PUSH1 0x0 SWAP3 SWAP2 DUP1 SLOAD SWAP2 PUSH2 0x1642 DUP4 PUSH2 0x15DE JUMP JUMPDEST SWAP2 DUP3 DUP3 MSTORE PUSH1 0x1 SWAP4 DUP5 DUP2 AND SWAP1 DUP2 PUSH1 0x0 EQ PUSH2 0x16A4 JUMPI POP PUSH1 0x1 EQ PUSH2 0x1664 JUMPI JUMPDEST POP POP POP POP JUMP JUMPDEST SWAP1 SWAP2 SWAP4 SWAP5 POP PUSH1 0x0 MSTORE PUSH1 0x20 SWAP3 DUP4 PUSH1 0x0 KECCAK256 SWAP3 DUP5 PUSH1 0x0 SWAP5 JUMPDEST DUP4 DUP7 LT PUSH2 0x1690 JUMPI POP POP POP POP ADD ADD SWAP1 CODESIZE DUP1 DUP1 DUP1 PUSH2 0x165E JUMP JUMPDEST DUP1 SLOAD DUP6 DUP8 ADD DUP4 ADD MSTORE SWAP5 ADD SWAP4 DUP6 SWAP1 DUP3 ADD PUSH2 0x1679 JUMP JUMPDEST SWAP2 POP POP PUSH1 0x20 SWAP5 SWAP6 POP PUSH32 0xFFFFFFFFFFFFFFFFFFFFFFFFFFFFFFFFFFFFFFFFFFFFFFFFFFFFFFFFFFFFFF00 SWAP2 SWAP4 POP AND DUP4 DUP4 ADD MSTORE ISZERO ISZERO PUSH1 0x5 SHL ADD ADD SWAP1 CODESIZE DUP1 DUP1 DUP1 PUSH2 0x165E JUMP JUMPDEST SWAP1 PUSH2 0x1701 PUSH2 0x16FA SWAP3 PUSH1 0x40 MLOAD SWAP4 DUP5 DUP1 SWAP3 PUSH2 0x1631 JUMP JUMPDEST SUB DUP4 PUSH2 0x10EB JUMP JUMPDEST JUMP JUMPDEST POP CALLVALUE PUSH2 0xE JUMPI PUSH1 0x20 PUSH32 0xFFFFFFFFFFFFFFFFFFFFFFFFFFFFFFFFFFFFFFFFFFFFFFFFFFFFFFFFFFFFFFFC CALLDATASIZE ADD SLT PUSH2 0xE JUMPI PUSH2 0xFFFF PUSH1 0x4 CALLDATALOAD PUSH2 0x1742 DUP2 PUSH2 0x38D JUMP JUMPDEST AND PUSH1 0x0 MSTORE PUSH1 0x1 PUSH1 0x20 MSTORE PUSH2 0x753 PUSH2 0x738 PUSH2 0x73F PUSH1 0x40 PUSH1 0x0 KECCAK256 PUSH1 0x40 MLOAD SWAP3 DUP4 DUP1 SWAP3 PUSH2 0x1631 JUMP JUMPDEST POP CALLVALUE PUSH2 0xE JUMPI PUSH1 0x40 PUSH32 0xFFFFFFFFFFFFFFFFFFFFFFFFFFFFFFFFFFFFFFFFFFFFFFFFFFFFFFFFFFFFFFFC CALLDATASIZE ADD SLT PUSH2 0xE JUMPI PUSH1 0x20 PUSH2 0x17D6 PUSH1 0x4 CALLDATALOAD PUSH2 0x17A6 DUP2 PUSH2 0x38D JUMP JUMPDEST PUSH2 0xFFFF PUSH1 0x24 CALLDATALOAD SWAP2 PUSH2 0x17B6 DUP4 PUSH2 0x38D JUMP JUMPDEST AND PUSH1 0x0 MSTORE PUSH1 0x2 DUP4 MSTORE PUSH1 0x40 PUSH1 0x0 KECCAK256 SWAP1 PUSH2 0xFFFF AND PUSH1 0x0 MSTORE PUSH1 0x20 MSTORE PUSH1 0x40 PUSH1 0x0 KECCAK256 SWAP1 JUMP JUMPDEST SLOAD PUSH1 0x40 MLOAD SWAP1 DUP2 MSTORE RETURN JUMPDEST POP CALLVALUE PUSH2 0xE JUMPI PUSH1 0x0 PUSH32 0xFFFFFFFFFFFFFFFFFFFFFFFFFFFFFFFFFFFFFFFFFFFFFFFFFFFFFFFFFFFFFFFC CALLDATASIZE ADD SLT PUSH2 0xE JUMPI PUSH1 0x20 PUSH20 0xFFFFFFFFFFFFFFFFFFFFFFFFFFFFFFFFFFFFFFFF PUSH1 0x0 SLOAD AND PUSH1 0x40 MLOAD SWAP1 DUP2 MSTORE RETURN JUMPDEST POP CALLVALUE PUSH2 0xE JUMPI PUSH1 0x0 PUSH32 0xFFFFFFFFFFFFFFFFFFFFFFFFFFFFFFFFFFFFFFFFFFFFFFFFFFFFFFFFFFFFFFFC CALLDATASIZE ADD SLT PUSH2 0xE JUMPI PUSH1 0x20 PUSH20 0xFFFFFFFFFFFFFFFFFFFFFFFFFFFFFFFFFFFFFFFF PUSH1 0x4 SLOAD AND PUSH1 0x40 MLOAD SWAP1 DUP2 MSTORE RETURN JUMPDEST POP CALLVALUE PUSH2 0xE JUMPI PUSH1 0x0 PUSH32 0xFFFFFFFFFFFFFFFFFFFFFFFFFFFFFFFFFFFFFFFFFFFFFFFFFFFFFFFFFFFFFFFC CALLDATASIZE ADD SLT PUSH2 0xE JUMPI PUSH2 0x753 PUSH1 0x40 MLOAD PUSH2 0x73F DUP2 PUSH2 0x738 DUP2 PUSH1 0xB PUSH2 0x1631 JUMP JUMPDEST POP CALLVALUE PUSH2 0xE JUMPI PUSH1 0x20 PUSH32 0xFFFFFFFFFFFFFFFFFFFFFFFFFFFFFFFFFFFFFFFFFFFFFFFFFFFFFFFFFFFFFFFC CALLDATASIZE ADD SLT PUSH2 0xE JUMPI PUSH2 0xFFFF PUSH1 0x4 CALLDATALOAD PUSH2 0x1909 DUP2 PUSH2 0x38D JUMP JUMPDEST AND PUSH1 0x0 MSTORE PUSH1 0x1 PUSH1 0x20 MSTORE PUSH2 0x738 PUSH2 0x1929 PUSH1 0x40 PUSH1 0x0 KECCAK256 PUSH1 0x40 MLOAD SWAP3 DUP4 DUP1 SWAP3 PUSH2 0x1631 JUMP JUMPDEST DUP1 MLOAD ISZERO PUSH2 0x1957 JUMPI PUSH2 0x194B DUP2 PUSH1 0x0 PUSH2 0x1945 PUSH1 0x14 PUSH2 0x753 SWAP6 MLOAD PUSH2 0x2A11 JUMP JUMPDEST SWAP2 PUSH2 0x34FB JUMP JUMPDEST PUSH1 0x40 MLOAD SWAP2 DUP3 SWAP2 DUP3 PUSH2 0x6DF JUMP JUMPDEST PUSH1 0x64 PUSH1 0x40 MLOAD PUSH32 0x8C379A000000000000000000000000000000000000000000000000000000000 DUP2 MSTORE PUSH1 0x20 PUSH1 0x4 DUP3 ADD MSTORE PUSH1 0x1D PUSH1 0x24 DUP3 ADD MSTORE PUSH32 0x4C7A4170703A206E6F20747275737465642070617468207265636F7264000000 PUSH1 0x44 DUP3 ADD MSTORE REVERT JUMPDEST POP CALLVALUE PUSH2 0xE JUMPI PUSH1 0x40 PUSH32 0xFFFFFFFFFFFFFFFFFFFFFFFFFFFFFFFFFFFFFFFFFFFFFFFFFFFFFFFFFFFFFFFC CALLDATASIZE ADD SLT PUSH2 0xE JUMPI PUSH1 0x4 CALLDATALOAD PUSH2 0x19F1 DUP2 PUSH2 0x848 JUMP JUMPDEST PUSH1 0x24 CALLDATALOAD SWAP1 CALLER PUSH1 0x0 MSTORE PUSH1 0x8 PUSH1 0x20 MSTORE PUSH2 0x1A2C DUP2 PUSH1 0x40 PUSH1 0x0 KECCAK256 SWAP1 PUSH20 0xFFFFFFFFFFFFFFFFFFFFFFFFFFFFFFFFFFFFFFFF AND PUSH1 0x0 MSTORE PUSH1 0x20 MSTORE PUSH1 0x40 PUSH1 0x0 KECCAK256 SWAP1 JUMP JUMPDEST SLOAD SWAP2 DUP1 DUP4 LT PUSH2 0x1A4D JUMPI PUSH2 0x1A41 SWAP3 SUB SWAP1 CALLER PUSH2 0x39F7 JUMP JUMPDEST PUSH1 0x40 MLOAD PUSH1 0x1 DUP2 MSTORE PUSH1 0x20 SWAP1 RETURN JUMPDEST PUSH1 0x84 PUSH1 0x40 MLOAD PUSH32 0x8C379A000000000000000000000000000000000000000000000000000000000 DUP2 MSTORE PUSH1 0x20 PUSH1 0x4 DUP3 ADD MSTORE PUSH1 0x25 PUSH1 0x24 DUP3 ADD MSTORE PUSH32 0x45524332303A2064656372656173656420616C6C6F77616E63652062656C6F77 PUSH1 0x44 DUP3 ADD MSTORE PUSH32 0x207A65726F000000000000000000000000000000000000000000000000000000 PUSH1 0x64 DUP3 ADD MSTORE REVERT JUMPDEST POP CALLVALUE PUSH2 0xE JUMPI PUSH2 0x1AE2 CALLDATASIZE PUSH1 0x4 PUSH2 0xBFA JUMP JUMPDEST SWAP1 PUSH2 0x1AEB PUSH2 0x35A7 JUMP JUMPDEST PUSH1 0x40 MLOAD SWAP3 PUSH1 0x20 SWAP3 DUP1 DUP4 DUP6 DUP8 ADD CALLDATACOPY PUSH2 0x1B17 PUSH1 0x34 DUP7 DUP4 DUP2 ADD ADDRESS PUSH1 0x60 SHL DUP9 DUP3 ADD MSTORE SUB PUSH1 0x14 DUP2 ADD DUP9 MSTORE ADD DUP7 PUSH2 0x10EB JUMP JUMPDEST PUSH1 0x0 SWAP4 PUSH2 0xFFFF DUP4 AND DUP6 MSTORE PUSH1 0x1 SWAP1 DUP2 DUP2 MSTORE PUSH1 0x40 DUP7 KECCAK256 SWAP2 DUP8 MLOAD SWAP2 PUSH8 0xFFFFFFFFFFFFFFFF DUP4 GT PUSH2 0x1CD4 JUMPI JUMPDEST PUSH2 0x1B53 DUP4 PUSH2 0x1B4D DUP7 SLOAD PUSH2 0x15DE JUMP JUMPDEST DUP7 PUSH2 0x298D JUMP JUMPDEST DUP1 PUSH1 0x1F DUP5 GT PUSH1 0x1 EQ PUSH2 0x1C02 JUMPI POP SWAP1 DUP3 DUP1 PUSH2 0x1BD1 SWAP7 SWAP6 SWAP5 SWAP4 DUP11 SWAP12 PUSH32 0x8C0400CFE2D1199B1A725C78960BCC2A344D869B80590D0F2BD005DB15A572CE SWAP12 SWAP4 PUSH2 0x1BD7 JUMPI JUMPDEST POP POP PUSH32 0xFFFFFFFFFFFFFFFFFFFFFFFFFFFFFFFFFFFFFFFFFFFFFFFFFFFFFFFFFFFFFFFF SWAP2 SWAP3 SHL SWAP3 PUSH1 0x3 SHL SHR NOT AND OR SWAP1 SSTORE JUMPDEST PUSH1 0x40 MLOAD SWAP4 DUP5 SWAP4 DUP5 PUSH2 0x2972 JUMP JUMPDEST SUB SWAP1 LOG1 DUP1 RETURN JUMPDEST ADD MLOAD SWAP2 POP PUSH32 0xFFFFFFFFFFFFFFFFFFFFFFFFFFFFFFFFFFFFFFFFFFFFFFFFFFFFFFFFFFFFFFFF CODESIZE PUSH2 0x1B94 JUMP JUMPDEST SWAP2 SWAP4 SWAP5 SWAP9 PUSH32 0xFFFFFFFFFFFFFFFFFFFFFFFFFFFFFFFFFFFFFFFFFFFFFFFFFFFFFFFFFFFFFFE0 DUP5 AND PUSH2 0x1C38 DUP8 PUSH1 0x0 MSTORE PUSH1 0x20 PUSH1 0x0 KECCAK256 SWAP1 JUMP JUMPDEST SWAP4 DUP11 SWAP1 JUMPDEST DUP3 DUP3 LT PUSH2 0x1CBD JUMPI POP POP SWAP2 PUSH32 0x8C0400CFE2D1199B1A725C78960BCC2A344D869B80590D0F2BD005DB15A572CE SWAP10 SWAP11 SWAP6 SWAP4 SWAP2 DUP6 PUSH2 0x1BD1 SWAP9 SWAP7 SWAP5 LT PUSH2 0x1C86 JUMPI JUMPDEST POP POP POP DUP2 SHL ADD SWAP1 SSTORE PUSH2 0x1BC5 JUMP JUMPDEST ADD MLOAD PUSH32 0xFFFFFFFFFFFFFFFFFFFFFFFFFFFFFFFFFFFFFFFFFFFFFFFFFFFFFFFFFFFFFFFF PUSH1 0xF8 DUP5 PUSH1 0x3 SHL AND SHR NOT AND SWAP1 SSTORE CODESIZE DUP1 DUP1 PUSH2 0x1C79 JUMP JUMPDEST DUP1 DUP9 DUP7 SWAP8 DUP3 SWAP5 SWAP8 DUP8 ADD MLOAD DUP2 SSTORE ADD SWAP7 ADD SWAP5 ADD SWAP1 PUSH2 0x1C3C JUMP JUMPDEST PUSH2 0x1CDC PUSH2 0x10BB JUMP JUMPDEST PUSH2 0x1B3F JUMP JUMPDEST POP CALLVALUE PUSH2 0xE JUMPI PUSH1 0x40 PUSH32 0xFFFFFFFFFFFFFFFFFFFFFFFFFFFFFFFFFFFFFFFFFFFFFFFFFFFFFFFFFFFFFFFC CALLDATASIZE ADD SLT PUSH2 0xE JUMPI PUSH2 0x8AF PUSH1 0x4 CALLDATALOAD PUSH2 0x1D20 DUP2 PUSH2 0x848 JUMP JUMPDEST PUSH1 0x24 CALLDATALOAD SWAP1 CALLER PUSH2 0x373C JUMP JUMPDEST POP CALLVALUE PUSH2 0xE JUMPI PUSH1 0x0 PUSH32 0xFFFFFFFFFFFFFFFFFFFFFFFFFFFFFFFFFFFFFFFFFFFFFFFFFFFFFFFFFFFFFFFC CALLDATASIZE ADD SLT PUSH2 0xE JUMPI PUSH1 0x20 PUSH1 0x40 MLOAD PUSH20 0xFFFFFFFFFFFFFFFFFFFFFFFFFFFFFFFFFFFFFFFF PUSH32 0x0 AND DUP2 MSTORE RETURN JUMPDEST POP CALLVALUE PUSH2 0xE JUMPI PUSH1 0x20 PUSH32 0xFFFFFFFFFFFFFFFFFFFFFFFFFFFFFFFFFFFFFFFFFFFFFFFFFFFFFFFFFFFFFFFC CALLDATASIZE ADD SLT PUSH2 0xE JUMPI PUSH32 0x5DB758E995A17EC1AD84BDEF7E8C3293A0BD6179BCCE400DFF5D4C3D87DB726B PUSH1 0x20 PUSH20 0xFFFFFFFFFFFFFFFFFFFFFFFFFFFFFFFFFFFFFFFF PUSH1 0x4 CALLDATALOAD PUSH2 0x1E0E DUP2 PUSH2 0x848 JUMP JUMPDEST PUSH2 0x1E16 PUSH2 0x35A7 JUMP JUMPDEST AND DUP1 PUSH32 0xFFFFFFFFFFFFFFFFFFFFFFFF0000000000000000000000000000000000000000 PUSH1 0x4 SLOAD AND OR PUSH1 0x4 SSTORE PUSH1 0x40 MLOAD SWAP1 DUP2 MSTORE LOG1 STOP JUMPDEST POP CALLVALUE PUSH2 0xE JUMPI PUSH1 0x0 PUSH32 0xFFFFFFFFFFFFFFFFFFFFFFFFFFFFFFFFFFFFFFFFFFFFFFFFFFFFFFFFFFFFFFFC CALLDATASIZE ADD SLT PUSH2 0xE JUMPI PUSH1 0x20 PUSH1 0x40 MLOAD PUSH2 0x2710 DUP2 MSTORE RETURN JUMPDEST POP CALLVALUE PUSH2 0xE JUMPI PUSH1 0x80 PUSH32 0xFFFFFFFFFFFFFFFFFFFFFFFFFFFFFFFFFFFFFFFFFFFFFFFFFFFFFFFFFFFFFFFC CALLDATASIZE ADD SLT PUSH2 0xE JUMPI PUSH1 0x4 CALLDATALOAD PUSH2 0x1EC2 DUP2 PUSH2 0x38D JUMP JUMPDEST PUSH1 0x24 CALLDATALOAD PUSH2 0x1ECE DUP2 PUSH2 0x38D JUMP JUMPDEST PUSH1 0x64 CALLDATALOAD PUSH8 0xFFFFFFFFFFFFFFFF DUP2 GT PUSH2 0xE JUMPI PUSH2 0x1EEE SWAP1 CALLDATASIZE SWAP1 PUSH1 0x4 ADD PUSH2 0x399 JUMP JUMPDEST SWAP1 SWAP3 PUSH2 0x1EF8 PUSH2 0x35A7 JUMP JUMPDEST PUSH20 0xFFFFFFFFFFFFFFFFFFFFFFFFFFFFFFFFFFFFFFFF PUSH32 0x0 AND SWAP1 DUP2 EXTCODESIZE ISZERO PUSH2 0xE JUMPI PUSH1 0x0 DUP1 SWAP5 PUSH2 0x1F95 PUSH1 0x40 MLOAD SWAP8 DUP9 SWAP7 DUP8 SWAP6 DUP7 SWAP5 PUSH32 0xCBED8B9C00000000000000000000000000000000000000000000000000000000 DUP7 MSTORE PUSH2 0xFFFF DUP1 SWAP3 AND PUSH1 0x4 DUP8 ADD MSTORE AND PUSH1 0x24 DUP6 ADD MSTORE PUSH1 0x44 CALLDATALOAD PUSH1 0x44 DUP6 ADD MSTORE PUSH1 0x80 PUSH1 0x64 DUP6 ADD MSTORE PUSH1 0x84 DUP5 ADD SWAP2 PUSH2 0x2933 JUMP JUMPDEST SUB SWAP3 GAS CALL DUP1 ISZERO PUSH2 0x1FBB JUMPI JUMPDEST PUSH2 0x1FA6 JUMPI STOP JUMPDEST DUP1 PUSH2 0x1FB5 PUSH1 0x0 PUSH2 0x4DE SWAP4 PUSH2 0x10EB JUMP JUMPDEST DUP1 PUSH2 0x66E JUMP JUMPDEST PUSH2 0x1FC3 PUSH2 0x2926 JUMP JUMPDEST PUSH2 0x1FA0 JUMP JUMPDEST POP PUSH2 0x1FD4 CALLDATASIZE PUSH1 0x4 PUSH2 0x3C7 JUMP JUMPDEST SWAP2 PUSH2 0xFFFF DUP7 SWAP5 SWAP3 SWAP7 AND PUSH1 0x0 MSTORE PUSH1 0x5 PUSH1 0x20 MSTORE PUSH2 0x201C DUP2 PUSH1 0x40 PUSH1 0x0 KECCAK256 PUSH1 0x20 PUSH1 0x40 MLOAD DUP1 SWAP3 DUP8 DUP12 DUP4 CALLDATACOPY DUP8 DUP3 ADD SWAP1 DUP2 MSTORE SUB ADD SWAP1 KECCAK256 SWAP1 PUSH8 0xFFFFFFFFFFFFFFFF AND PUSH1 0x0 MSTORE PUSH1 0x20 MSTORE PUSH1 0x40 PUSH1 0x0 KECCAK256 SWAP1 JUMP JUMPDEST SLOAD SWAP2 DUP3 ISZERO PUSH2 0x20BB JUMPI PUSH32 0xC264D91F3ADC5588250E1551F547752CA0CFA8F6B530D243B9F9F4CAB10EA8E5 SWAP7 PUSH2 0x20B6 SWAP5 PUSH2 0x20AA SWAP2 PUSH2 0x20A4 SWAP2 PUSH1 0x0 PUSH2 0x2098 DUP8 PUSH2 0x1289 DUP14 DUP10 PUSH2 0x2092 DUP16 PUSH2 0x207D DUP16 PUSH2 0x2070 CALLDATASIZE DUP13 DUP15 PUSH2 0x1182 JUMP JUMPDEST PUSH1 0x20 DUP2 MLOAD SWAP2 ADD KECCAK256 EQ PUSH2 0x2C4D JUMP JUMPDEST PUSH1 0x5 SWAP1 PUSH2 0xFFFF AND PUSH1 0x0 MSTORE PUSH1 0x20 MSTORE PUSH1 0x40 PUSH1 0x0 KECCAK256 SWAP1 JUMP JUMPDEST SWAP2 PUSH2 0x2C34 JUMP JUMPDEST SSTORE PUSH2 0x12E5 CALLDATASIZE DUP7 DUP13 PUSH2 0x1182 JUMP JUMPDEST DUP7 PUSH2 0x2EA7 JUMP JUMPDEST PUSH1 0x40 MLOAD SWAP6 DUP7 SWAP6 DUP7 PUSH2 0x2CD8 JUMP JUMPDEST SUB SWAP1 LOG1 STOP JUMPDEST PUSH1 0x84 PUSH1 0x40 MLOAD PUSH32 0x8C379A000000000000000000000000000000000000000000000000000000000 DUP2 MSTORE PUSH1 0x20 PUSH1 0x4 DUP3 ADD MSTORE PUSH1 0x23 PUSH1 0x24 DUP3 ADD MSTORE PUSH32 0x4E6F6E626C6F636B696E674C7A4170703A206E6F2073746F726564206D657373 PUSH1 0x44 DUP3 ADD MSTORE PUSH32 0x6167650000000000000000000000000000000000000000000000000000000000 PUSH1 0x64 DUP3 ADD MSTORE REVERT JUMPDEST POP CALLVALUE PUSH2 0xE JUMPI PUSH1 0x40 PUSH32 0xFFFFFFFFFFFFFFFFFFFFFFFFFFFFFFFFFFFFFFFFFFFFFFFFFFFFFFFFFFFFFFFC CALLDATASIZE ADD SLT PUSH2 0xE JUMPI PUSH1 0x20 PUSH2 0x17D6 PUSH1 0x4 CALLDATALOAD PUSH2 0x2180 DUP2 PUSH2 0x848 JUMP JUMPDEST PUSH20 0xFFFFFFFFFFFFFFFFFFFFFFFFFFFFFFFFFFFFFFFF PUSH1 0x24 CALLDATALOAD SWAP2 PUSH2 0x21A2 DUP4 PUSH2 0x848 JUMP JUMPDEST AND PUSH1 0x0 MSTORE PUSH1 0x8 DUP4 MSTORE PUSH1 0x40 PUSH1 0x0 KECCAK256 SWAP1 PUSH20 0xFFFFFFFFFFFFFFFFFFFFFFFFFFFFFFFFFFFFFFFF AND PUSH1 0x0 MSTORE PUSH1 0x20 MSTORE PUSH1 0x40 PUSH1 0x0 KECCAK256 SWAP1 JUMP JUMPDEST POP CALLVALUE PUSH2 0xE JUMPI PUSH1 0x60 PUSH32 0xFFFFFFFFFFFFFFFFFFFFFFFFFFFFFFFFFFFFFFFFFFFFFFFFFFFFFFFFFFFFFFFC CALLDATASIZE ADD SLT PUSH2 0xE JUMPI PUSH1 0x4 CALLDATALOAD PUSH2 0x2210 DUP2 PUSH2 0x38D JUMP JUMPDEST PUSH1 0x24 CALLDATALOAD PUSH2 0x221C DUP2 PUSH2 0x38D JUMP JUMPDEST PUSH1 0x44 CALLDATALOAD SWAP2 PUSH2 0x2228 PUSH2 0x35A7 JUMP JUMPDEST DUP3 ISZERO PUSH2 0x22A3 JUMPI PUSH2 0x20B6 PUSH32 0x9D5C7C0B934DA8FEFA9C7760C98383778A12DFBFC0C3B3106518F43FB9508AC0 SWAP4 PUSH2 0xFFFF DUP4 AND PUSH1 0x0 MSTORE PUSH1 0x2 PUSH1 0x20 MSTORE DUP1 PUSH2 0x227D DUP6 PUSH1 0x40 PUSH1 0x0 KECCAK256 SWAP1 PUSH2 0xFFFF AND PUSH1 0x0 MSTORE PUSH1 0x20 MSTORE PUSH1 0x40 PUSH1 0x0 KECCAK256 SWAP1 JUMP JUMPDEST SSTORE PUSH1 0x40 MLOAD SWAP4 DUP5 SWAP4 DUP5 PUSH1 0x40 SWAP2 SWAP5 SWAP4 SWAP3 SWAP5 PUSH1 0x60 DUP3 ADD SWAP6 PUSH2 0xFFFF DUP1 SWAP3 AND DUP4 MSTORE AND PUSH1 0x20 DUP3 ADD MSTORE ADD MSTORE JUMP JUMPDEST PUSH1 0x64 PUSH1 0x40 MLOAD PUSH32 0x8C379A000000000000000000000000000000000000000000000000000000000 DUP2 MSTORE PUSH1 0x20 PUSH1 0x4 DUP3 ADD MSTORE PUSH1 0x15 PUSH1 0x24 DUP3 ADD MSTORE PUSH32 0x4C7A4170703A20696E76616C6964206D696E4761730000000000000000000000 PUSH1 0x44 DUP3 ADD MSTORE REVERT JUMPDEST POP CALLVALUE PUSH2 0xE JUMPI PUSH1 0x20 PUSH32 0xFFFFFFFFFFFFFFFFFFFFFFFFFFFFFFFFFFFFFFFFFFFFFFFFFFFFFFFFFFFFFFFC CALLDATASIZE ADD SLT PUSH2 0xE JUMPI PUSH1 0x4 CALLDATALOAD DUP1 ISZERO ISZERO DUP1 SWAP2 SUB PUSH2 0xE JUMPI PUSH1 0x20 PUSH32 0x1584AD594A70CBE1E6515592E1272A987D922B097EAD875069CEBE8B40C004A4 SWAP2 PUSH2 0x236A PUSH2 0x35A7 JUMP JUMPDEST PUSH32 0xFFFFFFFFFFFFFFFFFFFFFFFFFFFFFFFFFFFFFFFFFFFFFFFFFFFFFFFFFFFFFF00 PUSH1 0x6 SLOAD AND PUSH1 0xFF DUP3 AND OR PUSH1 0x6 SSTORE PUSH1 0x40 MLOAD SWAP1 DUP2 MSTORE LOG1 STOP JUMPDEST POP CALLVALUE PUSH2 0xE JUMPI PUSH2 0x23B1 CALLDATASIZE PUSH1 0x4 PUSH2 0xBFA JUMP JUMPDEST SWAP2 SWAP1 PUSH2 0x23BB PUSH2 0x35A7 JUMP JUMPDEST PUSH1 0x0 SWAP2 PUSH2 0xFFFF DUP2 AND DUP4 MSTORE PUSH1 0x1 PUSH1 0x20 SWAP1 DUP1 DUP3 MSTORE PUSH1 0x40 DUP6 KECCAK256 SWAP2 PUSH8 0xFFFFFFFFFFFFFFFF DUP8 GT PUSH2 0x2549 JUMPI JUMPDEST PUSH2 0x23F6 DUP8 PUSH2 0x23F0 DUP6 SLOAD PUSH2 0x15DE JUMP JUMPDEST DUP6 PUSH2 0x298D JUMP JUMPDEST DUP6 SWAP1 PUSH1 0x1F DUP9 GT PUSH1 0x1 EQ PUSH2 0x247B JUMPI POP SWAP2 DUP7 DUP1 DUP8 SWAP9 SWAP4 PUSH2 0x1BD1 SWAP6 PUSH32 0xFA41487AD5D6728F0B19276FA1EDDC16558578F5109FC39D2DC33C3230470DAB SWAP10 SWAP4 PUSH2 0x2470 JUMPI JUMPDEST POP SHL SWAP1 PUSH32 0xFFFFFFFFFFFFFFFFFFFFFFFFFFFFFFFFFFFFFFFFFFFFFFFFFFFFFFFFFFFFFFFF DUP5 PUSH1 0x3 SHL SHR NOT AND OR SWAP1 SSTORE PUSH1 0x40 MLOAD SWAP4 DUP5 SWAP4 DUP5 PUSH2 0x2972 JUMP JUMPDEST DUP9 ADD CALLDATALOAD SWAP3 POP CODESIZE PUSH2 0x2436 JUMP JUMPDEST SWAP1 PUSH32 0xFFFFFFFFFFFFFFFFFFFFFFFFFFFFFFFFFFFFFFFFFFFFFFFFFFFFFFFFFFFFFFE0 DUP9 AND PUSH2 0x24AE DUP6 PUSH1 0x0 MSTORE PUSH1 0x20 PUSH1 0x0 KECCAK256 SWAP1 JUMP JUMPDEST SWAP3 DUP9 SWAP1 JUMPDEST DUP3 DUP3 LT PUSH2 0x2532 JUMPI POP POP SWAP2 DUP9 SWAP4 SWAP2 PUSH32 0xFA41487AD5D6728F0B19276FA1EDDC16558578F5109FC39D2DC33C3230470DAB SWAP9 SWAP10 PUSH2 0x1BD1 SWAP7 SWAP5 LT PUSH2 0x24FA JUMPI JUMPDEST POP POP DUP3 DUP2 SHL ADD SWAP1 SSTORE PUSH2 0x1BC5 JUMP JUMPDEST PUSH32 0xFFFFFFFFFFFFFFFFFFFFFFFFFFFFFFFFFFFFFFFFFFFFFFFFFFFFFFFFFFFFFFFF PUSH1 0xF8 DUP7 PUSH1 0x3 SHL AND SHR NOT SWAP1 DUP9 ADD CALLDATALOAD AND SWAP1 SSTORE CODESIZE DUP1 PUSH2 0x24ED JUMP JUMPDEST DUP1 DUP7 DUP6 SWAP7 DUP3 SWAP5 SWAP7 DUP13 ADD CALLDATALOAD DUP2 SSTORE ADD SWAP6 ADD SWAP4 ADD SWAP1 PUSH2 0x24B2 JUMP JUMPDEST PUSH2 0x2551 PUSH2 0x10BB JUMP JUMPDEST PUSH2 0x23E2 JUMP JUMPDEST POP CALLVALUE PUSH2 0xE JUMPI PUSH1 0x0 PUSH32 0xFFFFFFFFFFFFFFFFFFFFFFFFFFFFFFFFFFFFFFFFFFFFFFFFFFFFFFFFFFFFFFFC CALLDATASIZE ADD SLT PUSH2 0xE JUMPI PUSH1 0x20 PUSH1 0xFF PUSH1 0x6 SLOAD AND PUSH1 0x40 MLOAD SWAP1 ISZERO ISZERO DUP2 MSTORE RETURN JUMPDEST POP CALLVALUE PUSH2 0xE JUMPI PUSH1 0x20 PUSH32 0xFFFFFFFFFFFFFFFFFFFFFFFFFFFFFFFFFFFFFFFFFFFFFFFFFFFFFFFFFFFFFFFC CALLDATASIZE ADD SLT PUSH2 0xE JUMPI PUSH1 0x4 CALLDATALOAD PUSH2 0x25D4 DUP2 PUSH2 0x848 JUMP JUMPDEST PUSH2 0x25DC PUSH2 0x35A7 JUMP JUMPDEST PUSH20 0xFFFFFFFFFFFFFFFFFFFFFFFFFFFFFFFFFFFFFFFF DUP1 SWAP2 AND DUP1 ISZERO PUSH2 0x264E JUMPI PUSH1 0x0 SWAP2 DUP3 SLOAD DUP3 PUSH32 0xFFFFFFFFFFFFFFFFFFFFFFFF0000000000000000000000000000000000000000 DUP3 AND OR DUP5 SSTORE AND PUSH32 0x8BE0079C531659141344CD1FD0A4F28419497F9722A3DAAFE3B4186F6B6457E0 DUP4 DUP1 LOG3 DUP1 RETURN JUMPDEST PUSH1 0x84 PUSH1 0x40 MLOAD PUSH32 0x8C379A000000000000000000000000000000000000000000000000000000000 DUP2 MSTORE PUSH1 0x20 PUSH1 0x4 DUP3 ADD MSTORE PUSH1 0x26 PUSH1 0x24 DUP3 ADD MSTORE PUSH32 0x4F776E61626C653A206E6577206F776E657220697320746865207A65726F2061 PUSH1 0x44 DUP3 ADD MSTORE PUSH32 0x6464726573730000000000000000000000000000000000000000000000000000 PUSH1 0x64 DUP3 ADD MSTORE REVERT JUMPDEST POP CALLVALUE PUSH2 0xE JUMPI PUSH1 0x80 PUSH32 0xFFFFFFFFFFFFFFFFFFFFFFFFFFFFFFFFFFFFFFFFFFFFFFFFFFFFFFFFFFFFFFFC CALLDATASIZE ADD SLT PUSH2 0xE JUMPI PUSH2 0x753 PUSH1 0x4 CALLDATALOAD PUSH2 0x2711 DUP2 PUSH2 0x38D JUMP JUMPDEST PUSH1 0x24 CALLDATALOAD SWAP1 PUSH2 0x271E DUP3 PUSH2 0x38D JUMP JUMPDEST PUSH2 0x2729 PUSH1 0x44 CALLDATALOAD PUSH2 0x848 JUMP JUMPDEST PUSH1 0x40 MLOAD SWAP2 PUSH32 0xF5ECBDBC00000000000000000000000000000000000000000000000000000000 DUP4 MSTORE PUSH2 0xFFFF DUP1 SWAP3 AND PUSH1 0x4 DUP5 ADD MSTORE AND PUSH1 0x24 DUP3 ADD MSTORE ADDRESS PUSH1 0x44 DUP3 ADD MSTORE PUSH1 0x64 CALLDATALOAD PUSH1 0x64 DUP3 ADD MSTORE PUSH1 0x0 DUP2 PUSH1 0x84 DUP2 PUSH20 0xFFFFFFFFFFFFFFFFFFFFFFFFFFFFFFFFFFFFFFFF PUSH32 0x0 AND GAS STATICCALL SWAP1 DUP2 ISZERO PUSH2 0x27EC JUMPI JUMPDEST PUSH1 0x0 SWAP2 PUSH2 0x27CB JUMPI JUMPDEST POP PUSH1 0x40 MLOAD SWAP2 DUP3 SWAP2 DUP3 PUSH2 0x6DF JUMP JUMPDEST PUSH2 0x27E6 SWAP2 RETURNDATASIZE DUP1 SWAP2 DUP4 RETURNDATACOPY PUSH2 0x27DE DUP2 DUP4 PUSH2 0x10EB JUMP JUMPDEST DUP2 ADD SWAP1 PUSH2 0x2900 JUMP JUMPDEST CODESIZE PUSH2 0x27BE JUMP JUMPDEST PUSH2 0x27F4 PUSH2 0x2926 JUMP JUMPDEST PUSH2 0x27B6 JUMP JUMPDEST POP CALLVALUE PUSH2 0xE JUMPI PUSH1 0x0 PUSH32 0xFFFFFFFFFFFFFFFFFFFFFFFFFFFFFFFFFFFFFFFFFFFFFFFFFFFFFFFFFFFFFFFC CALLDATASIZE ADD SLT PUSH2 0xE JUMPI PUSH1 0x20 PUSH1 0x40 MLOAD ADDRESS DUP2 MSTORE RETURN JUMPDEST ISZERO PUSH2 0x283A JUMPI JUMP JUMPDEST PUSH1 0x84 PUSH1 0x40 MLOAD PUSH32 0x8C379A000000000000000000000000000000000000000000000000000000000 DUP2 MSTORE PUSH1 0x20 PUSH1 0x4 DUP3 ADD MSTORE PUSH1 0x26 PUSH1 0x24 DUP3 ADD MSTORE PUSH32 0x4C7A4170703A20696E76616C696420736F757263652073656E64696E6720636F PUSH1 0x44 DUP3 ADD MSTORE PUSH32 0x6E74726163740000000000000000000000000000000000000000000000000000 PUSH1 0x64 DUP3 ADD MSTORE REVERT JUMPDEST DUP2 PUSH1 0x1F DUP3 ADD SLT ISZERO PUSH2 0xE JUMPI DUP1 MLOAD PUSH2 0x28D4 DUP2 PUSH2 0x1139 JUMP JUMPDEST SWAP3 PUSH2 0x28E2 PUSH1 0x40 MLOAD SWAP5 DUP6 PUSH2 0x10EB JUMP JUMPDEST DUP2 DUP5 MSTORE PUSH1 0x20 DUP3 DUP5 ADD ADD GT PUSH2 0xE JUMPI PUSH2 0x6F0 SWAP2 PUSH1 0x20 DUP1 DUP6 ADD SWAP2 ADD PUSH2 0x679 JUMP JUMPDEST SWAP1 PUSH1 0x20 DUP3 DUP3 SUB SLT PUSH2 0xE JUMPI DUP2 MLOAD PUSH8 0xFFFFFFFFFFFFFFFF DUP2 GT PUSH2 0xE JUMPI PUSH2 0x6F0 SWAP3 ADD PUSH2 0x28BE JUMP JUMPDEST POP PUSH1 0x40 MLOAD RETURNDATASIZE PUSH1 0x0 DUP3 RETURNDATACOPY RETURNDATASIZE SWAP1 REVERT JUMPDEST PUSH1 0x1F DUP3 PUSH1 0x20 SWAP5 SWAP4 PUSH32 0xFFFFFFFFFFFFFFFFFFFFFFFFFFFFFFFFFFFFFFFFFFFFFFFFFFFFFFFFFFFFFFE0 SWAP4 DUP2 DUP7 MSTORE DUP7 DUP7 ADD CALLDATACOPY PUSH1 0x0 DUP6 DUP3 DUP7 ADD ADD MSTORE ADD AND ADD ADD SWAP1 JUMP JUMPDEST PUSH1 0x40 SWAP1 PUSH2 0xFFFF PUSH2 0x6F0 SWAP6 SWAP4 AND DUP2 MSTORE DUP2 PUSH1 0x20 DUP3 ADD MSTORE ADD SWAP2 PUSH2 0x2933 JUMP JUMPDEST SWAP1 PUSH1 0x1F DUP2 GT PUSH2 0x299B JUMPI POP POP POP JUMP JUMPDEST PUSH1 0x0 SWAP2 DUP3 MSTORE PUSH1 0x20 DUP3 KECCAK256 SWAP1 PUSH1 0x20 PUSH1 0x1F DUP6 ADD PUSH1 0x5 SHR DUP4 ADD SWAP5 LT PUSH2 0x29D7 JUMPI JUMPDEST PUSH1 0x1F ADD PUSH1 0x5 SHR ADD SWAP2 JUMPDEST DUP3 DUP2 LT PUSH2 0x29CC JUMPI POP POP POP JUMP JUMPDEST DUP2 DUP2 SSTORE PUSH1 0x1 ADD PUSH2 0x29C0 JUMP JUMPDEST SWAP1 SWAP3 POP DUP3 SWAP1 PUSH2 0x29B7 JUMP JUMPDEST POP PUSH32 0x4E487B7100000000000000000000000000000000000000000000000000000000 PUSH1 0x0 MSTORE PUSH1 0x11 PUSH1 0x4 MSTORE PUSH1 0x24 PUSH1 0x0 REVERT JUMPDEST SWAP2 SWAP1 DUP3 SUB SWAP2 DUP3 GT PUSH2 0x2A1E JUMPI JUMP JUMPDEST PUSH2 0x1701 PUSH2 0x29E1 JUMP JUMPDEST SWAP3 SWAP1 SWAP2 GAS SWAP3 PUSH1 0x40 MLOAD SWAP4 PUSH1 0x20 DUP6 ADD SWAP1 PUSH32 0x66AD5C8A00000000000000000000000000000000000000000000000000000000 DUP3 MSTORE PUSH2 0xFFFF DUP8 AND PUSH1 0x24 DUP8 ADD MSTORE PUSH1 0x80 PUSH1 0x44 DUP8 ADD MSTORE DUP6 PUSH2 0x2AB9 PUSH2 0x2A79 PUSH1 0xA4 DUP4 ADD DUP7 PUSH2 0x69C JUMP JUMPDEST PUSH8 0xFFFFFFFFFFFFFFFF DUP8 AND PUSH1 0x64 DUP5 ADD MSTORE PUSH32 0xFFFFFFFFFFFFFFFFFFFFFFFFFFFFFFFFFFFFFFFFFFFFFFFFFFFFFFFFFFFFFFDC DUP4 DUP3 SUB ADD PUSH1 0x84 DUP5 ADD MSTORE DUP8 PUSH2 0x69C JUMP JUMPDEST SUB SWAP2 PUSH2 0x2AEB PUSH32 0xFFFFFFFFFFFFFFFFFFFFFFFFFFFFFFFFFFFFFFFFFFFFFFFFFFFFFFFFFFFFFFE0 SWAP4 DUP5 DUP2 ADD DUP10 MSTORE DUP9 PUSH2 0x10EB JUMP JUMPDEST PUSH1 0x0 SWAP2 DUP3 SWAP2 DUP3 PUSH2 0x2AFB PUSH1 0x96 PUSH2 0x1139 JUMP JUMPDEST SWAP10 PUSH2 0x2B09 PUSH1 0x40 MLOAD SWAP12 DUP13 PUSH2 0x10EB JUMP JUMPDEST PUSH1 0x96 DUP12 MSTORE PUSH2 0x2B17 PUSH1 0x96 PUSH2 0x1139 JUMP JUMPDEST PUSH1 0x20 DUP13 ADD SWAP8 ADD CALLDATASIZE DUP9 CALLDATACOPY MLOAD SWAP3 ADDRESS SWAP1 CALL SWAP1 RETURNDATASIZE SWAP1 PUSH1 0x96 DUP3 GT PUSH2 0x2B58 JUMPI JUMPDEST PUSH1 0x0 SWAP1 DUP3 DUP9 MSTORE RETURNDATACOPY ISZERO PUSH2 0x2B45 JUMPI JUMPDEST POP POP POP POP POP JUMP JUMPDEST PUSH2 0x2B4E SWAP5 PUSH2 0x2B61 JUMP JUMPDEST CODESIZE DUP1 DUP1 DUP1 DUP1 PUSH2 0x2B3E JUMP JUMPDEST PUSH1 0x96 SWAP2 POP PUSH2 0x2B31 JUMP JUMPDEST SWAP2 SWAP4 PUSH2 0x2C21 PUSH32 0xE183F33DE2837795525B4792CA4CD60535BD77C53B7E7030060BFCF5734D6B0C SWAP6 PUSH2 0x2C2F SWAP4 SWAP6 PUSH2 0xFFFF DUP2 MLOAD PUSH1 0x20 DUP4 ADD KECCAK256 SWAP7 AND SWAP6 DUP7 PUSH1 0x0 MSTORE PUSH1 0x5 PUSH1 0x20 MSTORE PUSH2 0x2BE7 DUP4 PUSH2 0x2BC5 PUSH1 0x20 DUP12 PUSH1 0x40 PUSH1 0x0 KECCAK256 DUP3 PUSH1 0x40 MLOAD SWAP5 DUP4 DUP7 DUP1 SWAP6 MLOAD SWAP4 DUP5 SWAP3 ADD PUSH2 0x679 JUMP JUMPDEST DUP3 ADD SWAP1 DUP2 MSTORE SUB ADD SWAP1 KECCAK256 SWAP1 PUSH8 0xFFFFFFFFFFFFFFFF AND PUSH1 0x0 MSTORE PUSH1 0x20 MSTORE PUSH1 0x40 PUSH1 0x0 KECCAK256 SWAP1 JUMP JUMPDEST SSTORE PUSH8 0xFFFFFFFFFFFFFFFF PUSH2 0x2C0D PUSH1 0x40 MLOAD SWAP9 DUP10 SWAP9 DUP10 MSTORE PUSH1 0xA0 PUSH1 0x20 DUP11 ADD MSTORE PUSH1 0xA0 DUP10 ADD SWAP1 PUSH2 0x69C JUMP JUMPDEST SWAP3 AND PUSH1 0x40 DUP8 ADD MSTORE DUP6 DUP3 SUB PUSH1 0x60 DUP8 ADD MSTORE PUSH2 0x69C JUMP JUMPDEST SWAP1 DUP4 DUP3 SUB PUSH1 0x80 DUP6 ADD MSTORE PUSH2 0x69C JUMP JUMPDEST SUB SWAP1 LOG1 JUMP JUMPDEST PUSH1 0x20 SWAP2 SWAP3 DUP4 PUSH1 0x40 MLOAD SWAP5 DUP6 SWAP4 DUP5 CALLDATACOPY DUP3 ADD SWAP1 DUP2 MSTORE SUB ADD SWAP1 KECCAK256 SWAP1 JUMP JUMPDEST ISZERO PUSH2 0x2C54 JUMPI JUMP JUMPDEST PUSH1 0x84 PUSH1 0x40 MLOAD PUSH32 0x8C379A000000000000000000000000000000000000000000000000000000000 DUP2 MSTORE PUSH1 0x20 PUSH1 0x4 DUP3 ADD MSTORE PUSH1 0x21 PUSH1 0x24 DUP3 ADD MSTORE PUSH32 0x4E6F6E626C6F636B696E674C7A4170703A20696E76616C6964207061796C6F61 PUSH1 0x44 DUP3 ADD MSTORE PUSH32 0x6400000000000000000000000000000000000000000000000000000000000000 PUSH1 0x64 DUP3 ADD MSTORE REVERT JUMPDEST SWAP2 PUSH2 0x2D05 SWAP1 PUSH1 0x60 SWAP5 PUSH2 0xFFFF PUSH8 0xFFFFFFFFFFFFFFFF SWAP5 SWAP10 SWAP9 SWAP8 SWAP10 AND DUP6 MSTORE PUSH1 0x80 PUSH1 0x20 DUP7 ADD MSTORE PUSH1 0x80 DUP6 ADD SWAP2 PUSH2 0x2933 JUMP JUMPDEST SWAP6 AND PUSH1 0x40 DUP3 ADD MSTORE ADD MSTORE JUMP JUMPDEST SWAP2 SWAP1 DUP3 PUSH1 0x40 SWAP2 SUB SLT PUSH2 0xE JUMPI PUSH1 0x20 DUP3 MLOAD SWAP3 ADD MLOAD SWAP1 JUMP JUMPDEST SWAP2 SWAP3 PUSH20 0xFFFFFFFFFFFFFFFFFFFFFFFFFFFFFFFFFFFFFFFF PUSH2 0x6F0 SWAP8 SWAP6 SWAP7 SWAP5 PUSH2 0xFFFF PUSH2 0x2D65 SWAP5 AND DUP6 MSTORE AND PUSH1 0x20 DUP5 ADD MSTORE PUSH1 0xA0 PUSH1 0x40 DUP5 ADD MSTORE PUSH1 0xA0 DUP4 ADD SWAP1 PUSH2 0x69C JUMP JUMPDEST SWAP4 ISZERO ISZERO PUSH1 0x60 DUP3 ADD MSTORE PUSH1 0x80 DUP2 DUP6 SUB SWAP2 ADD MSTORE PUSH2 0x2933 JUMP JUMPDEST SWAP2 SWAP5 SWAP6 PUSH2 0x2E13 SWAP2 SWAP4 SWAP5 SWAP8 SWAP7 PUSH2 0x2DDE PUSH1 0x40 SWAP8 DUP9 SWAP8 PUSH2 0x2DAC DUP10 MLOAD SWAP9 DUP10 SWAP4 PUSH1 0x0 PUSH1 0x20 DUP7 ADD MSTORE PUSH1 0x60 DUP13 DUP7 ADD MSTORE PUSH1 0x80 DUP6 ADD SWAP2 PUSH2 0x2933 JUMP JUMPDEST SWAP1 PUSH1 0x60 DUP4 ADD MSTORE SUB PUSH32 0xFFFFFFFFFFFFFFFFFFFFFFFFFFFFFFFFFFFFFFFFFFFFFFFFFFFFFFFFFFFFFFE0 DUP2 ADD DUP8 MSTORE DUP7 PUSH2 0x10EB JUMP JUMPDEST DUP6 MLOAD SWAP9 DUP10 SWAP6 DUP7 SWAP6 PUSH32 0x40A7BB1000000000000000000000000000000000000000000000000000000000 DUP8 MSTORE ADDRESS SWAP1 PUSH1 0x4 DUP9 ADD PUSH2 0x2D26 JUMP JUMPDEST SUB DUP2 PUSH20 0xFFFFFFFFFFFFFFFFFFFFFFFFFFFFFFFFFFFFFFFF PUSH32 0x0 AND GAS STATICCALL SWAP3 DUP4 ISZERO PUSH2 0x2E9A JUMPI JUMPDEST PUSH1 0x0 SWAP2 DUP3 SWAP5 PUSH2 0x2E66 JUMPI JUMPDEST POP POP SWAP2 SWAP1 JUMP JUMPDEST PUSH2 0x2E8A SWAP4 SWAP5 POP DUP1 SWAP2 SWAP3 POP SWAP1 RETURNDATASIZE LT PUSH2 0x2E93 JUMPI JUMPDEST PUSH2 0x2E82 DUP2 DUP4 PUSH2 0x10EB JUMP JUMPDEST DUP2 ADD SWAP1 PUSH2 0x2D10 JUMP JUMPDEST SWAP2 SWAP1 CODESIZE DUP1 PUSH2 0x2E60 JUMP JUMPDEST POP RETURNDATASIZE PUSH2 0x2E78 JUMP JUMPDEST PUSH2 0x2EA2 PUSH2 0x2926 JUMP JUMPDEST PUSH2 0x2E56 JUMP JUMPDEST SWAP1 PUSH1 0x20 DUP1 DUP3 ADD SWAP1 PUSH2 0xFFFF SWAP2 DUP3 DUP2 MLOAD AND ISZERO PUSH1 0x0 EQ PUSH2 0x13F4 JUMPI DUP4 MLOAD DUP5 ADD SWAP1 PUSH1 0x60 DUP6 DUP4 SUB SLT PUSH2 0xE JUMPI PUSH2 0x2ED7 SWAP1 MLOAD PUSH2 0x38D JUMP JUMPDEST PUSH1 0x40 DUP5 ADD MLOAD SWAP1 PUSH8 0xFFFFFFFFFFFFFFFF DUP3 GT PUSH2 0xE JUMPI PUSH1 0x60 SWAP2 DUP4 DUP1 PUSH2 0x2EFF SWAP4 ADD SWAP2 DUP8 ADD ADD PUSH2 0x28BE JUMP JUMPDEST SWAP4 ADD MLOAD SWAP3 PUSH1 0x14 DUP2 MLOAD LT PUSH2 0x1396 JUMPI ADD MLOAD PUSH1 0x60 SHR SWAP3 PUSH32 0xBF551EC93859B170F9B2141BD9298BF3F64322C6F7BEB2543A0CB669834118BF SWAP2 SWAP1 PUSH2 0x2F3F DUP5 DUP7 PUSH2 0x3893 JUMP JUMPDEST PUSH1 0x40 MLOAD SWAP4 DUP5 MSTORE AND SWAP2 DUP1 PUSH1 0x20 DUP2 ADD JUMPDEST SUB SWAP1 LOG3 JUMP JUMPDEST SWAP4 SWAP3 SWAP2 PUSH2 0x2F73 SWAP1 PUSH2 0xFFFF PUSH1 0x40 SWAP4 AND DUP7 MSTORE PUSH1 0x60 PUSH1 0x20 DUP8 ADD MSTORE PUSH1 0x60 DUP7 ADD SWAP1 PUSH2 0x69C JUMP JUMPDEST SWAP4 ADD MSTORE JUMP JUMPDEST SWAP3 SWAP2 SWAP1 PUSH2 0x2F73 PUSH1 0x20 SWAP2 PUSH1 0x40 DUP7 MSTORE PUSH1 0x40 DUP7 ADD SWAP1 PUSH2 0x69C JUMP JUMPDEST SWAP3 PUSH2 0x2FB4 PUSH2 0x6F0 SWAP8 SWAP6 SWAP4 PUSH2 0xFFFF PUSH2 0x2FC2 SWAP5 AND DUP7 MSTORE PUSH1 0xC0 PUSH1 0x20 DUP8 ADD MSTORE PUSH1 0xC0 DUP7 ADD SWAP1 PUSH2 0x69C JUMP JUMPDEST SWAP1 DUP5 DUP3 SUB PUSH1 0x40 DUP7 ADD MSTORE PUSH2 0x69C JUMP JUMPDEST SWAP4 PUSH20 0xFFFFFFFFFFFFFFFFFFFFFFFFFFFFFFFFFFFFFFFF DUP1 SWAP3 AND PUSH1 0x60 DUP5 ADD MSTORE AND PUSH1 0x80 DUP3 ADD MSTORE PUSH1 0xA0 DUP2 DUP5 SUB SWAP2 ADD MSTORE PUSH2 0x69C JUMP JUMPDEST SWAP4 SWAP6 SWAP5 PUSH2 0x3020 SWAP1 SWAP4 SWAP2 SWAP3 SWAP4 PUSH1 0x0 SWAP6 PUSH2 0xFFFF DUP2 AND DUP8 MSTORE PUSH1 0x1 PUSH1 0x20 MSTORE PUSH2 0x3027 PUSH1 0x40 DUP9 KECCAK256 PUSH1 0x40 MLOAD SWAP5 DUP6 DUP1 SWAP3 PUSH2 0x1631 JUMP JUMPDEST SUB DUP5 PUSH2 0x10EB JUMP JUMPDEST DUP3 MLOAD ISZERO PUSH2 0x30E9 JUMPI PUSH2 0x3039 DUP6 MLOAD DUP3 PUSH2 0x316D JUMP JUMPDEST PUSH20 0xFFFFFFFFFFFFFFFFFFFFFFFFFFFFFFFFFFFFFFFF PUSH32 0x0 AND SWAP4 DUP5 EXTCODESIZE ISZERO PUSH2 0x30E5 JUMPI DUP8 SWAP9 SWAP10 PUSH2 0x30B8 SWAP2 PUSH1 0x40 SWAP10 SWAP9 SWAP10 MLOAD SWAP10 DUP11 SWAP9 DUP10 SWAP8 DUP9 SWAP7 PUSH32 0xC580310000000000000000000000000000000000000000000000000000000000 DUP9 MSTORE PUSH1 0x4 DUP9 ADD PUSH2 0x2F8F JUMP JUMPDEST SUB SWAP3 GAS CALL DUP1 ISZERO PUSH2 0x30D8 JUMPI JUMPDEST PUSH2 0x30CB JUMPI POP POP JUMP JUMPDEST PUSH2 0x1FB5 PUSH2 0x1701 SWAP3 DUP3 PUSH2 0x10EB JUMP JUMPDEST PUSH2 0x30E0 PUSH2 0x2926 JUMP JUMPDEST PUSH2 0x30C3 JUMP JUMPDEST DUP8 DUP1 REVERT JUMPDEST PUSH1 0x84 PUSH1 0x40 MLOAD PUSH32 0x8C379A000000000000000000000000000000000000000000000000000000000 DUP2 MSTORE PUSH1 0x20 PUSH1 0x4 DUP3 ADD MSTORE PUSH1 0x30 PUSH1 0x24 DUP3 ADD MSTORE PUSH32 0x4C7A4170703A2064657374696E6174696F6E20636861696E206973206E6F7420 PUSH1 0x44 DUP3 ADD MSTORE PUSH32 0x61207472757374656420736F7572636500000000000000000000000000000000 PUSH1 0x64 DUP3 ADD MSTORE REVERT JUMPDEST PUSH2 0xFFFF AND PUSH1 0x0 MSTORE PUSH1 0x3 PUSH1 0x20 MSTORE PUSH1 0x40 PUSH1 0x0 KECCAK256 SLOAD SWAP1 DUP2 ISZERO PUSH2 0x31EC JUMPI JUMPDEST GT PUSH2 0x318E JUMPI JUMP JUMPDEST PUSH1 0x64 PUSH1 0x40 MLOAD PUSH32 0x8C379A000000000000000000000000000000000000000000000000000000000 DUP2 MSTORE PUSH1 0x20 PUSH1 0x4 DUP3 ADD MSTORE PUSH1 0x20 PUSH1 0x24 DUP3 ADD MSTORE PUSH32 0x4C7A4170703A207061796C6F61642073697A6520697320746F6F206C61726765 PUSH1 0x44 DUP3 ADD MSTORE REVERT JUMPDEST PUSH2 0x2710 SWAP2 POP PUSH2 0x3187 JUMP JUMPDEST PUSH20 0xFFFFFFFFFFFFFFFFFFFFFFFFFFFFFFFFFFFFFFFF DUP2 AND CALLER DUP2 SUB PUSH2 0x334A JUMPI JUMPDEST DUP1 ISZERO PUSH2 0x32C6 JUMPI DUP2 PUSH2 0x3283 DUP5 PUSH2 0x324D PUSH1 0x0 SWAP6 PUSH1 0x7 SWAP1 PUSH20 0xFFFFFFFFFFFFFFFFFFFFFFFFFFFFFFFFFFFFFFFF AND PUSH1 0x0 MSTORE PUSH1 0x20 MSTORE PUSH1 0x40 PUSH1 0x0 KECCAK256 SWAP1 JUMP JUMPDEST SLOAD PUSH2 0x325A DUP3 DUP3 LT ISZERO PUSH2 0x396C JUMP JUMPDEST SUB SWAP2 PUSH1 0x7 SWAP1 PUSH20 0xFFFFFFFFFFFFFFFFFFFFFFFFFFFFFFFFFFFFFFFF AND PUSH1 0x0 MSTORE PUSH1 0x20 MSTORE PUSH1 0x40 PUSH1 0x0 KECCAK256 SWAP1 JUMP JUMPDEST SSTORE DUP3 PUSH1 0x9 SLOAD SUB PUSH1 0x9 SSTORE PUSH32 0xDDF252AD1BE2C89B69C2B068FC378DAA952BA7F163C4A11628F55A4DF523B3EF PUSH1 0x40 MLOAD DUP1 PUSH2 0x32C0 DUP7 DUP3 SWAP2 SWAP1 PUSH1 0x20 DUP4 ADD SWAP3 MSTORE JUMP JUMPDEST SUB SWAP1 LOG3 SWAP1 JUMP JUMPDEST PUSH1 0x84 PUSH1 0x40 MLOAD PUSH32 0x8C379A000000000000000000000000000000000000000000000000000000000 DUP2 MSTORE PUSH1 0x20 PUSH1 0x4 DUP3 ADD MSTORE PUSH1 0x21 PUSH1 0x24 DUP3 ADD MSTORE PUSH32 0x45524332303A206275726E2066726F6D20746865207A65726F20616464726573 PUSH1 0x44 DUP3 ADD MSTORE PUSH32 0x7300000000000000000000000000000000000000000000000000000000000000 PUSH1 0x64 DUP3 ADD MSTORE REVERT JUMPDEST PUSH2 0x3355 DUP4 CALLER DUP5 PUSH2 0x3BB2 JUMP JUMPDEST PUSH2 0x3215 JUMP JUMPDEST SWAP2 SWAP1 DUP3 ADD DUP1 SWAP3 GT PUSH2 0x2A1E JUMPI JUMP JUMPDEST ISZERO PUSH2 0x336E JUMPI JUMP JUMPDEST PUSH1 0x64 PUSH1 0x40 MLOAD PUSH32 0x8C379A000000000000000000000000000000000000000000000000000000000 DUP2 MSTORE PUSH1 0x20 PUSH1 0x4 DUP3 ADD MSTORE PUSH1 0x1A PUSH1 0x24 DUP3 ADD MSTORE PUSH32 0x4C7A4170703A206D696E4761734C696D6974206E6F7420736574000000000000 PUSH1 0x44 DUP3 ADD MSTORE REVERT JUMPDEST ISZERO PUSH2 0x33D3 JUMPI JUMP JUMPDEST PUSH1 0x64 PUSH1 0x40 MLOAD PUSH32 0x8C379A000000000000000000000000000000000000000000000000000000000 DUP2 MSTORE PUSH1 0x20 PUSH1 0x4 DUP3 ADD MSTORE PUSH1 0x1B PUSH1 0x24 DUP3 ADD MSTORE PUSH32 0x4C7A4170703A20676173206C696D697420697320746F6F206C6F770000000000 PUSH1 0x44 DUP3 ADD MSTORE REVERT JUMPDEST ISZERO PUSH2 0x3438 JUMPI JUMP JUMPDEST PUSH1 0x64 PUSH1 0x40 MLOAD PUSH32 0x8C379A000000000000000000000000000000000000000000000000000000000 DUP2 MSTORE PUSH1 0x20 PUSH1 0x4 DUP3 ADD MSTORE PUSH1 0xE PUSH1 0x24 DUP3 ADD MSTORE PUSH32 0x736C6963655F6F766572666C6F77000000000000000000000000000000000000 PUSH1 0x44 DUP3 ADD MSTORE REVERT JUMPDEST ISZERO PUSH2 0x349D JUMPI JUMP JUMPDEST PUSH1 0x64 PUSH1 0x40 MLOAD PUSH32 0x8C379A000000000000000000000000000000000000000000000000000000000 DUP2 MSTORE PUSH1 0x20 PUSH1 0x4 DUP3 ADD MSTORE PUSH1 0x11 PUSH1 0x24 DUP3 ADD MSTORE PUSH32 0x736C6963655F6F75744F66426F756E6473000000000000000000000000000000 PUSH1 0x44 DUP3 ADD MSTORE REVERT JUMPDEST SWAP2 PUSH2 0x3512 DUP2 PUSH2 0x350B PUSH1 0x1F DUP3 PUSH2 0x335A JUMP JUMPDEST LT ISZERO PUSH2 0x3431 JUMP JUMPDEST PUSH2 0x3528 DUP4 MLOAD PUSH2 0x3521 DUP4 DUP6 PUSH2 0x335A JUMP JUMPDEST GT ISZERO PUSH2 0x3496 JUMP JUMPDEST DUP1 PUSH2 0x3541 JUMPI POP POP POP PUSH1 0x40 MLOAD PUSH1 0x0 DUP2 MSTORE PUSH1 0x20 DUP2 ADD PUSH1 0x40 MSTORE SWAP1 JUMP JUMPDEST PUSH1 0x40 MLOAD SWAP3 PUSH1 0x1F DUP3 AND SWAP3 DUP4 ISZERO PUSH1 0x5 SHL DUP1 DUP6 DUP8 ADD ADD SWAP5 DUP5 DUP7 ADD SWAP4 ADD ADD ADD SWAP1 JUMPDEST DUP1 DUP5 LT PUSH2 0x3594 JUMPI POP POP DUP3 MSTORE PUSH1 0x1F ADD PUSH32 0xFFFFFFFFFFFFFFFFFFFFFFFFFFFFFFFFFFFFFFFFFFFFFFFFFFFFFFFFFFFFFFE0 AND PUSH1 0x40 MSTORE SWAP1 JUMP JUMPDEST SWAP1 SWAP3 DUP4 MLOAD DUP2 MSTORE PUSH1 0x20 DUP1 SWAP2 ADD SWAP4 ADD SWAP1 PUSH2 0x355E JUMP JUMPDEST PUSH20 0xFFFFFFFFFFFFFFFFFFFFFFFFFFFFFFFFFFFFFFFF PUSH1 0x0 SLOAD AND CALLER SUB PUSH2 0x35C8 JUMPI JUMP JUMPDEST PUSH1 0x64 PUSH1 0x40 MLOAD PUSH32 0x8C379A000000000000000000000000000000000000000000000000000000000 DUP2 MSTORE PUSH1 0x20 PUSH1 0x4 DUP3 ADD MSTORE PUSH1 0x20 PUSH1 0x24 DUP3 ADD MSTORE PUSH32 0x4F776E61626C653A2063616C6C6572206973206E6F7420746865206F776E6572 PUSH1 0x44 DUP3 ADD MSTORE REVERT JUMPDEST ISZERO PUSH2 0x362D JUMPI JUMP JUMPDEST PUSH1 0x84 PUSH1 0x40 MLOAD PUSH32 0x8C379A000000000000000000000000000000000000000000000000000000000 DUP2 MSTORE PUSH1 0x20 PUSH1 0x4 DUP3 ADD MSTORE PUSH1 0x23 PUSH1 0x24 DUP3 ADD MSTORE PUSH32 0x45524332303A207472616E7366657220746F20746865207A65726F2061646472 PUSH1 0x44 DUP3 ADD MSTORE PUSH32 0x6573730000000000000000000000000000000000000000000000000000000000 PUSH1 0x64 DUP3 ADD MSTORE REVERT JUMPDEST ISZERO PUSH2 0x36B8 JUMPI JUMP JUMPDEST PUSH1 0x84 PUSH1 0x40 MLOAD PUSH32 0x8C379A000000000000000000000000000000000000000000000000000000000 DUP2 MSTORE PUSH1 0x20 PUSH1 0x4 DUP3 ADD MSTORE PUSH1 0x26 PUSH1 0x24 DUP3 ADD MSTORE PUSH32 0x45524332303A207472616E7366657220616D6F756E7420657863656564732062 PUSH1 0x44 DUP3 ADD MSTORE PUSH32 0x616C616E63650000000000000000000000000000000000000000000000000000 PUSH1 0x64 DUP3 ADD MSTORE REVERT JUMPDEST SWAP2 SWAP1 PUSH20 0xFFFFFFFFFFFFFFFFFFFFFFFFFFFFFFFFFFFFFFFF SWAP1 DUP2 DUP5 AND SWAP3 DUP4 ISZERO PUSH2 0x380F JUMPI PUSH2 0x37F9 DUP3 PUSH32 0xDDF252AD1BE2C89B69C2B068FC378DAA952BA7F163C4A11628F55A4DF523B3EF SWAP5 PUSH2 0x2F4D SWAP5 AND SWAP7 PUSH2 0x3795 DUP9 ISZERO ISZERO PUSH2 0x3626 JUMP JUMPDEST PUSH2 0x37D1 DUP5 PUSH2 0x37C4 DUP4 PUSH1 0x7 SWAP1 PUSH20 0xFFFFFFFFFFFFFFFFFFFFFFFFFFFFFFFFFFFFFFFF AND PUSH1 0x0 MSTORE PUSH1 0x20 MSTORE PUSH1 0x40 PUSH1 0x0 KECCAK256 SWAP1 JUMP JUMPDEST SLOAD PUSH2 0x325A DUP3 DUP3 LT ISZERO PUSH2 0x36B1 JUMP JUMPDEST SSTORE PUSH1 0x7 SWAP1 PUSH20 0xFFFFFFFFFFFFFFFFFFFFFFFFFFFFFFFFFFFFFFFF AND PUSH1 0x0 MSTORE PUSH1 0x20 MSTORE PUSH1 0x40 PUSH1 0x0 KECCAK256 SWAP1 JUMP JUMPDEST DUP1 SLOAD DUP3 ADD SWAP1 SSTORE PUSH1 0x40 MLOAD SWAP1 DUP2 MSTORE SWAP1 DUP2 SWAP1 PUSH1 0x20 DUP3 ADD SWAP1 JUMP JUMPDEST PUSH1 0x84 PUSH1 0x40 MLOAD PUSH32 0x8C379A000000000000000000000000000000000000000000000000000000000 DUP2 MSTORE PUSH1 0x20 PUSH1 0x4 DUP3 ADD MSTORE PUSH1 0x25 PUSH1 0x24 DUP3 ADD MSTORE PUSH32 0x45524332303A207472616E736665722066726F6D20746865207A65726F206164 PUSH1 0x44 DUP3 ADD MSTORE PUSH32 0x6472657373000000000000000000000000000000000000000000000000000000 PUSH1 0x64 DUP3 ADD MSTORE REVERT JUMPDEST PUSH20 0xFFFFFFFFFFFFFFFFFFFFFFFFFFFFFFFFFFFFFFFF AND SWAP1 DUP2 ISZERO PUSH2 0x390E JUMPI PUSH32 0xDDF252AD1BE2C89B69C2B068FC378DAA952BA7F163C4A11628F55A4DF523B3EF PUSH1 0x20 PUSH1 0x0 SWAP3 PUSH1 0x9 SLOAD DUP2 DUP2 ADD DUP1 SWAP2 GT PUSH2 0x3901 JUMPI JUMPDEST PUSH1 0x9 SSTORE DUP5 DUP5 MSTORE PUSH1 0x7 DUP3 MSTORE PUSH1 0x40 DUP5 KECCAK256 DUP2 DUP2 SLOAD ADD SWAP1 SSTORE PUSH1 0x40 MLOAD SWAP1 DUP2 MSTORE LOG3 JUMP JUMPDEST PUSH2 0x3909 PUSH2 0x29E1 JUMP JUMPDEST PUSH2 0x38E4 JUMP JUMPDEST PUSH1 0x64 PUSH1 0x40 MLOAD PUSH32 0x8C379A000000000000000000000000000000000000000000000000000000000 DUP2 MSTORE PUSH1 0x20 PUSH1 0x4 DUP3 ADD MSTORE PUSH1 0x1F PUSH1 0x24 DUP3 ADD MSTORE PUSH32 0x45524332303A206D696E7420746F20746865207A65726F206164647265737300 PUSH1 0x44 DUP3 ADD MSTORE REVERT JUMPDEST ISZERO PUSH2 0x3973 JUMPI JUMP JUMPDEST PUSH1 0x84 PUSH1 0x40 MLOAD PUSH32 0x8C379A000000000000000000000000000000000000000000000000000000000 DUP2 MSTORE PUSH1 0x20 PUSH1 0x4 DUP3 ADD MSTORE PUSH1 0x22 PUSH1 0x24 DUP3 ADD MSTORE PUSH32 0x45524332303A206275726E20616D6F756E7420657863656564732062616C616E PUSH1 0x44 DUP3 ADD MSTORE PUSH32 0x6365000000000000000000000000000000000000000000000000000000000000 PUSH1 0x64 DUP3 ADD MSTORE REVERT JUMPDEST SWAP1 PUSH20 0xFFFFFFFFFFFFFFFFFFFFFFFFFFFFFFFFFFFFFFFF SWAP2 DUP3 DUP2 AND SWAP3 DUP4 ISZERO PUSH2 0x3B2F JUMPI DUP3 AND SWAP4 DUP5 ISZERO PUSH2 0x3AAB JUMPI DUP1 PUSH2 0x3A9A PUSH32 0x8C5BE1E5EBEC7D5BD14F71427D1E84F3DD0314C0F7B2291E5B200AC8C7C3B925 SWAP5 PUSH2 0x3A75 PUSH2 0x2F4D SWAP6 PUSH1 0x8 SWAP1 PUSH20 0xFFFFFFFFFFFFFFFFFFFFFFFFFFFFFFFFFFFFFFFF AND PUSH1 0x0 MSTORE PUSH1 0x20 MSTORE PUSH1 0x40 PUSH1 0x0 KECCAK256 SWAP1 JUMP JUMPDEST SWAP1 PUSH20 0xFFFFFFFFFFFFFFFFFFFFFFFFFFFFFFFFFFFFFFFF AND PUSH1 0x0 MSTORE PUSH1 0x20 MSTORE PUSH1 0x40 PUSH1 0x0 KECCAK256 SWAP1 JUMP JUMPDEST SSTORE PUSH1 0x40 MLOAD SWAP1 DUP2 MSTORE SWAP1 DUP2 SWAP1 PUSH1 0x20 DUP3 ADD SWAP1 JUMP JUMPDEST PUSH1 0x84 PUSH1 0x40 MLOAD PUSH32 0x8C379A000000000000000000000000000000000000000000000000000000000 DUP2 MSTORE PUSH1 0x20 PUSH1 0x4 DUP3 ADD MSTORE PUSH1 0x22 PUSH1 0x24 DUP3 ADD MSTORE PUSH32 0x45524332303A20617070726F766520746F20746865207A65726F206164647265 PUSH1 0x44 DUP3 ADD MSTORE PUSH32 0x7373000000000000000000000000000000000000000000000000000000000000 PUSH1 0x64 DUP3 ADD MSTORE REVERT JUMPDEST PUSH1 0x84 PUSH1 0x40 MLOAD PUSH32 0x8C379A000000000000000000000000000000000000000000000000000000000 DUP2 MSTORE PUSH1 0x20 PUSH1 0x4 DUP3 ADD MSTORE PUSH1 0x24 DUP1 DUP3 ADD MSTORE PUSH32 0x45524332303A20617070726F76652066726F6D20746865207A65726F20616464 PUSH1 0x44 DUP3 ADD MSTORE PUSH32 0x7265737300000000000000000000000000000000000000000000000000000000 PUSH1 0x64 DUP3 ADD MSTORE REVERT JUMPDEST SWAP1 PUSH20 0xFFFFFFFFFFFFFFFFFFFFFFFFFFFFFFFFFFFFFFFF DUP3 AND PUSH1 0x0 MSTORE PUSH1 0x8 PUSH1 0x20 MSTORE PUSH2 0x3C00 DUP2 PUSH1 0x40 PUSH1 0x0 KECCAK256 SWAP1 PUSH20 0xFFFFFFFFFFFFFFFFFFFFFFFFFFFFFFFFFFFFFFFF AND PUSH1 0x0 MSTORE PUSH1 0x20 MSTORE PUSH1 0x40 PUSH1 0x0 KECCAK256 SWAP1 JUMP JUMPDEST SLOAD SWAP3 PUSH32 0xFFFFFFFFFFFFFFFFFFFFFFFFFFFFFFFFFFFFFFFFFFFFFFFFFFFFFFFFFFFFFFFF DUP5 SUB PUSH2 0x3C2F JUMPI POP POP POP POP JUMP JUMPDEST DUP1 DUP5 LT PUSH2 0x3C4A JUMPI PUSH2 0x3C41 SWAP4 SUB SWAP2 PUSH2 0x39F7 JUMP JUMPDEST CODESIZE DUP1 DUP1 DUP1 PUSH2 0x165E JUMP JUMPDEST PUSH1 0x64 PUSH1 0x40 MLOAD PUSH32 0x8C379A000000000000000000000000000000000000000000000000000000000 DUP2 MSTORE PUSH1 0x20 PUSH1 0x4 DUP3 ADD MSTORE PUSH1 0x1D PUSH1 0x24 DUP3 ADD MSTORE PUSH32 0x45524332303A20696E73756666696369656E7420616C6C6F77616E6365000000 PUSH1 0x44 DUP3 ADD MSTORE REVERT INVALID LOG1 PUSH5 0x736F6C6343 STOP ADDMOD GT STOP EXP "},"methodIdentifiers":{"DEFAULT_PAYLOAD_SIZE_LIMIT()":"c4461834","NO_EXTRA_GAS()":"44770515","PT_SEND()":"4c42899a","allowance(address,address)":"dd62ed3e","approve(address,uint256)":"095ea7b3","balanceOf(address)":"70a08231","circulatingSupply()":"9358928b","decimals()":"313ce567","decreaseAllowance(address,uint256)":"a457c2d7","estimateSendFee(uint16,bytes,uint256,bool,bytes)":"2a205e3d","failedMessages(uint16,bytes,uint64)":"5b8c41e6","forceResumeReceive(uint16,bytes)":"42d65a8d","getConfig(uint16,uint16,address,uint256)":"f5ecbdbc","getTrustedRemoteAddress(uint16)":"9f38369a","increaseAllowance(address,uint256)":"39509351","isTrustedRemote(uint16,bytes)":"3d8b38f6","lzEndpoint()":"b353aaa7","lzReceive(uint16,bytes,uint64,bytes)":"001d3567","minDstGasLookup(uint16,uint16)":"8cfd8f5c","name()":"06fdde03","nonblockingLzReceive(uint16,bytes,uint64,bytes)":"66ad5c8a","owner()":"8da5cb5b","payloadSizeLimitLookup(uint16)":"3f1f4fa4","precrime()":"950c8a74","renounceOwnership()":"715018a6","retryMessage(uint16,bytes,uint64,bytes)":"d1deba1f","sendFrom(address,uint16,bytes,uint256,address,address,bytes)":"51905636","setConfig(uint16,uint16,uint256,bytes)":"cbed8b9c","setMinDstGas(uint16,uint16,uint256)":"df2a5b3b","setPayloadSizeLimit(uint16,uint256)":"0df37483","setPrecrime(address)":"baf3292d","setReceiveVersion(uint16)":"10ddb137","setSendVersion(uint16)":"07e0db17","setTrustedRemote(uint16,bytes)":"eb8d72b7","setTrustedRemoteAddress(uint16,bytes)":"a6c3d165","setUseCustomAdapterParams(bool)":"eab45d9c","supportsInterface(bytes4)":"01ffc9a7","symbol()":"95d89b41","token()":"fc0c546a","totalSupply()":"18160ddd","transfer(address,uint256)":"a9059cbb","transferFrom(address,address,uint256)":"23b872dd","transferOwnership(address)":"f2fde38b","trustedRemoteLookup(uint16)":"7533d788","useCustomAdapterParams()":"ed629c5c"}}}}}