{"contracts/cygnus-token/CygnusDAO.sol":{"CygnusDAO":{"abi":[{"inputs":[{"internalType":"string","name":"_name","type":"string"},{"internalType":"string","name":"_symbol","type":"string"},{"internalType":"address","name":"_lzEndpoint","type":"address"}],"stateMutability":"nonpayable","type":"constructor"},{"inputs":[],"name":"CantTeleportZero","type":"error"},{"inputs":[],"name":"ExceedsCairoMax","type":"error"},{"inputs":[],"name":"ExceedsSupplyCap","type":"error"},{"inputs":[],"name":"InvalidL2Recipient","type":"error"},{"inputs":[],"name":"OnlyPillars","type":"error"},{"inputs":[],"name":"PillarsAlreadySet","type":"error"},{"inputs":[],"name":"RecipientIsZero","type":"error"},{"inputs":[],"name":"StarknetCygAlreadySet","type":"error"},{"inputs":[],"name":"Uint128Overflow","type":"error"},{"anonymous":false,"inputs":[{"indexed":true,"internalType":"address","name":"owner","type":"address"},{"indexed":true,"internalType":"address","name":"spender","type":"address"},{"indexed":false,"internalType":"uint256","name":"value","type":"uint256"}],"name":"Approval","type":"event"},{"anonymous":false,"inputs":[{"indexed":false,"internalType":"uint16","name":"_srcChainId","type":"uint16"},{"indexed":false,"internalType":"bytes","name":"_srcAddress","type":"bytes"},{"indexed":false,"internalType":"uint64","name":"_nonce","type":"uint64"},{"indexed":false,"internalType":"bytes","name":"_payload","type":"bytes"},{"indexed":false,"internalType":"bytes","name":"_reason","type":"bytes"}],"name":"MessageFailed","type":"event"},{"anonymous":false,"inputs":[{"indexed":false,"internalType":"address","name":"oldMinter","type":"address"},{"indexed":false,"internalType":"address","name":"newMinter","type":"address"}],"name":"NewCYGMinter","type":"event"},{"anonymous":false,"inputs":[{"indexed":false,"internalType":"uint256","name":"oldCygStarknet","type":"uint256"},{"indexed":false,"internalType":"uint256","name":"newCygStarknet","type":"uint256"}],"name":"NewCYGStarknet","type":"event"},{"anonymous":false,"inputs":[{"indexed":true,"internalType":"address","name":"previousOwner","type":"address"},{"indexed":true,"internalType":"address","name":"newOwner","type":"address"}],"name":"OwnershipTransferred","type":"event"},{"anonymous":false,"inputs":[{"indexed":true,"internalType":"uint16","name":"_srcChainId","type":"uint16"},{"indexed":true,"internalType":"address","name":"_to","type":"address"},{"indexed":false,"internalType":"uint256","name":"_amount","type":"uint256"}],"name":"ReceiveFromChain","type":"event"},{"anonymous":false,"inputs":[{"indexed":false,"internalType":"uint16","name":"_srcChainId","type":"uint16"},{"indexed":false,"internalType":"bytes","name":"_srcAddress","type":"bytes"},{"indexed":false,"internalType":"uint64","name":"_nonce","type":"uint64"},{"indexed":false,"internalType":"bytes32","name":"_payloadHash","type":"bytes32"}],"name":"RetryMessageSuccess","type":"event"},{"anonymous":false,"inputs":[{"indexed":true,"internalType":"uint16","name":"_dstChainId","type":"uint16"},{"indexed":true,"internalType":"address","name":"_from","type":"address"},{"indexed":false,"internalType":"bytes","name":"_toAddress","type":"bytes"},{"indexed":false,"internalType":"uint256","name":"_amount","type":"uint256"}],"name":"SendToChain","type":"event"},{"anonymous":false,"inputs":[{"indexed":false,"internalType":"uint16","name":"_dstChainId","type":"uint16"},{"indexed":false,"internalType":"uint16","name":"_type","type":"uint16"},{"indexed":false,"internalType":"uint256","name":"_minDstGas","type":"uint256"}],"name":"SetMinDstGas","type":"event"},{"anonymous":false,"inputs":[{"indexed":false,"internalType":"address","name":"precrime","type":"address"}],"name":"SetPrecrime","type":"event"},{"anonymous":false,"inputs":[{"indexed":false,"internalType":"uint16","name":"_remoteChainId","type":"uint16"},{"indexed":false,"internalType":"bytes","name":"_path","type":"bytes"}],"name":"SetTrustedRemote","type":"event"},{"anonymous":false,"inputs":[{"indexed":false,"internalType":"uint16","name":"_remoteChainId","type":"uint16"},{"indexed":false,"internalType":"bytes","name":"_remoteAddress","type":"bytes"}],"name":"SetTrustedRemoteAddress","type":"event"},{"anonymous":false,"inputs":[{"indexed":false,"internalType":"bool","name":"_useCustomAdapterParams","type":"bool"}],"name":"SetUseCustomAdapterParams","type":"event"},{"anonymous":false,"inputs":[{"indexed":false,"internalType":"address","name":"sender","type":"address"},{"indexed":false,"internalType":"address","name":"recipient","type":"address"},{"indexed":false,"internalType":"uint256","name":"amount","type":"uint256"},{"indexed":false,"internalType":"bytes32","name":"messageHash","type":"bytes32"}],"name":"TeleportToEthereum","type":"event"},{"anonymous":false,"inputs":[{"indexed":false,"internalType":"address","name":"sender","type":"address"},{"indexed":false,"internalType":"uint256","name":"recipient","type":"uint256"},{"indexed":false,"internalType":"uint256","name":"amount","type":"uint256"},{"indexed":false,"internalType":"uint256","name":"fee","type":"uint256"},{"indexed":false,"internalType":"bytes32","name":"messageHash","type":"bytes32"}],"name":"TeleportToStarknet","type":"event"},{"anonymous":false,"inputs":[{"indexed":true,"internalType":"address","name":"from","type":"address"},{"indexed":true,"internalType":"address","name":"to","type":"address"},{"indexed":false,"internalType":"uint256","name":"value","type":"uint256"}],"name":"Transfer","type":"event"},{"inputs":[],"name":"CAP","outputs":[{"internalType":"uint256","name":"","type":"uint256"}],"stateMutability":"view","type":"function"},{"inputs":[],"name":"DEFAULT_PAYLOAD_SIZE_LIMIT","outputs":[{"internalType":"uint256","name":"","type":"uint256"}],"stateMutability":"view","type":"function"},{"inputs":[],"name":"NO_EXTRA_GAS","outputs":[{"internalType":"uint256","name":"","type":"uint256"}],"stateMutability":"view","type":"function"},{"inputs":[],"name":"PT_SEND","outputs":[{"internalType":"uint16","name":"","type":"uint16"}],"stateMutability":"view","type":"function"},{"inputs":[],"name":"STARKNET_CORE","outputs":[{"internalType":"contract IStarknetCore","name":"","type":"address"}],"stateMutability":"view","type":"function"},{"inputs":[],"name":"STARKNET_MAX","outputs":[{"internalType":"uint256","name":"","type":"uint256"}],"stateMutability":"view","type":"function"},{"inputs":[],"name":"TELEPORT_TO_ETHEREUM","outputs":[{"internalType":"uint256","name":"","type":"uint256"}],"stateMutability":"view","type":"function"},{"inputs":[],"name":"TELEPORT_TO_STARKNET","outputs":[{"internalType":"uint256","name":"","type":"uint256"}],"stateMutability":"view","type":"function"},{"inputs":[],"name":"T_T","outputs":[{"internalType":"uint256","name":"","type":"uint256"}],"stateMutability":"view","type":"function"},{"inputs":[{"internalType":"address","name":"owner","type":"address"},{"internalType":"address","name":"spender","type":"address"}],"name":"allowance","outputs":[{"internalType":"uint256","name":"","type":"uint256"}],"stateMutability":"view","type":"function"},{"inputs":[{"internalType":"address","name":"spender","type":"address"},{"internalType":"uint256","name":"amount","type":"uint256"}],"name":"approve","outputs":[{"internalType":"bool","name":"","type":"bool"}],"stateMutability":"nonpayable","type":"function"},{"inputs":[{"internalType":"address","name":"account","type":"address"}],"name":"balanceOf","outputs":[{"internalType":"uint256","name":"","type":"uint256"}],"stateMutability":"view","type":"function"},{"inputs":[],"name":"circulatingSupply","outputs":[{"internalType":"uint256","name":"","type":"uint256"}],"stateMutability":"view","type":"function"},{"inputs":[],"name":"cygTokenStarknet","outputs":[{"internalType":"uint256","name":"","type":"uint256"}],"stateMutability":"view","type":"function"},{"inputs":[],"name":"decimals","outputs":[{"internalType":"uint8","name":"","type":"uint8"}],"stateMutability":"view","type":"function"},{"inputs":[{"internalType":"address","name":"spender","type":"address"},{"internalType":"uint256","name":"subtractedValue","type":"uint256"}],"name":"decreaseAllowance","outputs":[{"internalType":"bool","name":"","type":"bool"}],"stateMutability":"nonpayable","type":"function"},{"inputs":[{"internalType":"uint16","name":"_dstChainId","type":"uint16"},{"internalType":"bytes","name":"_toAddress","type":"bytes"},{"internalType":"uint256","name":"_amount","type":"uint256"},{"internalType":"bool","name":"_useZro","type":"bool"},{"internalType":"bytes","name":"_adapterParams","type":"bytes"}],"name":"estimateSendFee","outputs":[{"internalType":"uint256","name":"nativeFee","type":"uint256"},{"internalType":"uint256","name":"zroFee","type":"uint256"}],"stateMutability":"view","type":"function"},{"inputs":[{"internalType":"uint16","name":"","type":"uint16"},{"internalType":"bytes","name":"","type":"bytes"},{"internalType":"uint64","name":"","type":"uint64"}],"name":"failedMessages","outputs":[{"internalType":"bytes32","name":"","type":"bytes32"}],"stateMutability":"view","type":"function"},{"inputs":[{"internalType":"uint16","name":"_srcChainId","type":"uint16"},{"internalType":"bytes","name":"_srcAddress","type":"bytes"}],"name":"forceResumeReceive","outputs":[],"stateMutability":"nonpayable","type":"function"},{"inputs":[{"internalType":"uint16","name":"_version","type":"uint16"},{"internalType":"uint16","name":"_chainId","type":"uint16"},{"internalType":"address","name":"","type":"address"},{"internalType":"uint256","name":"_configType","type":"uint256"}],"name":"getConfig","outputs":[{"internalType":"bytes","name":"","type":"bytes"}],"stateMutability":"view","type":"function"},{"inputs":[{"internalType":"address","name":"recipient","type":"address"},{"internalType":"uint128","name":"amount","type":"uint128"}],"name":"getL2MessageHash","outputs":[{"internalType":"bytes32","name":"messageHash","type":"bytes32"},{"internalType":"bool","name":"ready","type":"bool"}],"stateMutability":"view","type":"function"},{"inputs":[{"internalType":"uint16","name":"_remoteChainId","type":"uint16"}],"name":"getTrustedRemoteAddress","outputs":[{"internalType":"bytes","name":"","type":"bytes"}],"stateMutability":"view","type":"function"},{"inputs":[{"internalType":"address","name":"spender","type":"address"},{"internalType":"uint256","name":"addedValue","type":"uint256"}],"name":"increaseAllowance","outputs":[{"internalType":"bool","name":"","type":"bool"}],"stateMutability":"nonpayable","type":"function"},{"inputs":[{"internalType":"uint16","name":"_srcChainId","type":"uint16"},{"internalType":"bytes","name":"_srcAddress","type":"bytes"}],"name":"isTrustedRemote","outputs":[{"internalType":"bool","name":"","type":"bool"}],"stateMutability":"view","type":"function"},{"inputs":[],"name":"lzEndpoint","outputs":[{"internalType":"contract ILayerZeroEndpoint","name":"","type":"address"}],"stateMutability":"view","type":"function"},{"inputs":[{"internalType":"uint16","name":"_srcChainId","type":"uint16"},{"internalType":"bytes","name":"_srcAddress","type":"bytes"},{"internalType":"uint64","name":"_nonce","type":"uint64"},{"internalType":"bytes","name":"_payload","type":"bytes"}],"name":"lzReceive","outputs":[],"stateMutability":"nonpayable","type":"function"},{"inputs":[{"internalType":"uint16","name":"","type":"uint16"},{"internalType":"uint16","name":"","type":"uint16"}],"name":"minDstGasLookup","outputs":[{"internalType":"uint256","name":"","type":"uint256"}],"stateMutability":"view","type":"function"},{"inputs":[{"internalType":"address","name":"to","type":"address"},{"internalType":"uint256","name":"amount","type":"uint256"}],"name":"mint","outputs":[],"stateMutability":"nonpayable","type":"function"},{"inputs":[],"name":"name","outputs":[{"internalType":"string","name":"","type":"string"}],"stateMutability":"view","type":"function"},{"inputs":[{"internalType":"uint16","name":"_srcChainId","type":"uint16"},{"internalType":"bytes","name":"_srcAddress","type":"bytes"},{"internalType":"uint64","name":"_nonce","type":"uint64"},{"internalType":"bytes","name":"_payload","type":"bytes"}],"name":"nonblockingLzReceive","outputs":[],"stateMutability":"nonpayable","type":"function"},{"inputs":[],"name":"owner","outputs":[{"internalType":"address","name":"","type":"address"}],"stateMutability":"view","type":"function"},{"inputs":[{"internalType":"uint16","name":"","type":"uint16"}],"name":"payloadSizeLimitLookup","outputs":[{"internalType":"uint256","name":"","type":"uint256"}],"stateMutability":"view","type":"function"},{"inputs":[],"name":"pillarsOfCreation","outputs":[{"internalType":"address","name":"","type":"address"}],"stateMutability":"view","type":"function"},{"inputs":[],"name":"precrime","outputs":[{"internalType":"address","name":"","type":"address"}],"stateMutability":"view","type":"function"},{"inputs":[],"name":"renounceOwnership","outputs":[],"stateMutability":"nonpayable","type":"function"},{"inputs":[{"internalType":"uint16","name":"_srcChainId","type":"uint16"},{"internalType":"bytes","name":"_srcAddress","type":"bytes"},{"internalType":"uint64","name":"_nonce","type":"uint64"},{"internalType":"bytes","name":"_payload","type":"bytes"}],"name":"retryMessage","outputs":[],"stateMutability":"payable","type":"function"},{"inputs":[{"internalType":"address","name":"_from","type":"address"},{"internalType":"uint16","name":"_dstChainId","type":"uint16"},{"internalType":"bytes","name":"_toAddress","type":"bytes"},{"internalType":"uint256","name":"_amount","type":"uint256"},{"internalType":"address payable","name":"_refundAddress","type":"address"},{"internalType":"address","name":"_zroPaymentAddress","type":"address"},{"internalType":"bytes","name":"_adapterParams","type":"bytes"}],"name":"sendFrom","outputs":[],"stateMutability":"payable","type":"function"},{"inputs":[{"internalType":"uint16","name":"_version","type":"uint16"},{"internalType":"uint16","name":"_chainId","type":"uint16"},{"internalType":"uint256","name":"_configType","type":"uint256"},{"internalType":"bytes","name":"_config","type":"bytes"}],"name":"setConfig","outputs":[],"stateMutability":"nonpayable","type":"function"},{"inputs":[{"internalType":"uint256","name":"_cygToken","type":"uint256"}],"name":"setCygTokenStarknet","outputs":[],"stateMutability":"nonpayable","type":"function"},{"inputs":[{"internalType":"uint16","name":"_dstChainId","type":"uint16"},{"internalType":"uint16","name":"_packetType","type":"uint16"},{"internalType":"uint256","name":"_minGas","type":"uint256"}],"name":"setMinDstGas","outputs":[],"stateMutability":"nonpayable","type":"function"},{"inputs":[{"internalType":"uint16","name":"_dstChainId","type":"uint16"},{"internalType":"uint256","name":"_size","type":"uint256"}],"name":"setPayloadSizeLimit","outputs":[],"stateMutability":"nonpayable","type":"function"},{"inputs":[{"internalType":"address","name":"_pillars","type":"address"}],"name":"setPillarsOfCreation","outputs":[],"stateMutability":"nonpayable","type":"function"},{"inputs":[{"internalType":"address","name":"_precrime","type":"address"}],"name":"setPrecrime","outputs":[],"stateMutability":"nonpayable","type":"function"},{"inputs":[{"internalType":"uint16","name":"_version","type":"uint16"}],"name":"setReceiveVersion","outputs":[],"stateMutability":"nonpayable","type":"function"},{"inputs":[{"internalType":"uint16","name":"_version","type":"uint16"}],"name":"setSendVersion","outputs":[],"stateMutability":"nonpayable","type":"function"},{"inputs":[{"internalType":"uint16","name":"_remoteChainId","type":"uint16"},{"internalType":"bytes","name":"_path","type":"bytes"}],"name":"setTrustedRemote","outputs":[],"stateMutability":"nonpayable","type":"function"},{"inputs":[{"internalType":"uint16","name":"_remoteChainId","type":"uint16"},{"internalType":"bytes","name":"_remoteAddress","type":"bytes"}],"name":"setTrustedRemoteAddress","outputs":[],"stateMutability":"nonpayable","type":"function"},{"inputs":[{"internalType":"bool","name":"_useCustomAdapterParams","type":"bool"}],"name":"setUseCustomAdapterParams","outputs":[],"stateMutability":"nonpayable","type":"function"},{"inputs":[{"internalType":"bytes4","name":"interfaceId","type":"bytes4"}],"name":"supportsInterface","outputs":[{"internalType":"bool","name":"","type":"bool"}],"stateMutability":"view","type":"function"},{"inputs":[],"name":"symbol","outputs":[{"internalType":"string","name":"","type":"string"}],"stateMutability":"view","type":"function"},{"inputs":[{"internalType":"address","name":"recipient","type":"address"},{"internalType":"uint128","name":"amount","type":"uint128"}],"name":"teleportToEthereum","outputs":[],"stateMutability":"payable","type":"function"},{"inputs":[{"internalType":"uint256","name":"recipient","type":"uint256"},{"internalType":"uint128","name":"amount","type":"uint128"}],"name":"teleportToStarknet","outputs":[],"stateMutability":"payable","type":"function"},{"inputs":[],"name":"token","outputs":[{"internalType":"address","name":"","type":"address"}],"stateMutability":"view","type":"function"},{"inputs":[],"name":"totalMinted","outputs":[{"internalType":"uint256","name":"","type":"uint256"}],"stateMutability":"view","type":"function"},{"inputs":[],"name":"totalSupply","outputs":[{"internalType":"uint256","name":"","type":"uint256"}],"stateMutability":"view","type":"function"},{"inputs":[{"internalType":"address","name":"to","type":"address"},{"internalType":"uint256","name":"amount","type":"uint256"}],"name":"transfer","outputs":[{"internalType":"bool","name":"","type":"bool"}],"stateMutability":"nonpayable","type":"function"},{"inputs":[{"internalType":"address","name":"from","type":"address"},{"internalType":"address","name":"to","type":"address"},{"internalType":"uint256","name":"amount","type":"uint256"}],"name":"transferFrom","outputs":[{"internalType":"bool","name":"","type":"bool"}],"stateMutability":"nonpayable","type":"function"},{"inputs":[{"internalType":"address","name":"newOwner","type":"address"}],"name":"transferOwnership","outputs":[],"stateMutability":"nonpayable","type":"function"},{"inputs":[{"internalType":"uint16","name":"","type":"uint16"}],"name":"trustedRemoteLookup","outputs":[{"internalType":"bytes","name":"","type":"bytes"}],"stateMutability":"view","type":"function"},{"inputs":[],"name":"useCustomAdapterParams","outputs":[{"internalType":"bool","name":"","type":"bool"}],"stateMutability":"view","type":"function"}],"evm":{"bytecode":{"linkReferences":{},"object":"604060a08152346200048157620050f5803803806200001e8162000486565b9283398101606082820312620004815781516001600160401b03919082811162000481578162000050918501620004c2565b60209182850151848111620004815786916200006e918701620004c2565b9401516001600160a01b03939084811690819003620004815760008054336001600160a01b03198216811783559196167f8be0079c531659141344cd1fd0a4f28419497f9722a3daafe3b4186f6b6457e08780a36080528151948186116200038857600a54956001938488811c9816801562000476575b8689101462000462578190601f988981116200040e575b508690898311600114620003a85788926200039c575b5050600019600383901b1c191690841b17600a555b80519182116200038857600b548381811c911680156200037d575b85821014620003695786811162000320575b508390868311600114620002ba579282939183928794620002ae575b50501b916000199060031b1c191617600b555b600d54926934f086f3b33b68400000938481018091116200029a57600d5533156200025857506009548381018091116200024457907fddf252ad1be2c89b69c2b068fc378daa952ba7f163c4a11628f55a4df523b3ef916009553383526007815284832084815401905584519384523393a351614bc0908162000535823960805181818161058501528181610a4501528181610be8015281816112fb0152818161285a01528181612b240152818161343401528181613ad40152613cf80152f35b634e487b7160e01b83526011600452602483fd5b6064925084519162461bcd60e51b8352600483015260248201527f45524332303a206d696e7420746f20746865207a65726f2061646472657373006044820152fd5b634e487b7160e01b84526011600452602484fd5b01519250388062000170565b600b8652848620919083601f198116885b8888838310620003085750505010620002ee575b505050811b01600b5562000183565b015160001960f88460031b161c19169055388080620002df565b868601518855909601959485019487935001620002cb565b600b86528486208780850160051c8201928786106200035f575b0160051c019084905b8281106200035357505062000154565b87815501849062000343565b925081926200033a565b634e487b7160e01b86526022600452602486fd5b90607f169062000142565b634e487b7160e01b85526041600452602485fd5b01519050388062000112565b600a89528789208794509190601f1984168a5b8a828210620003f75750508411620003dd575b505050811b01600a5562000127565b015160001960f88460031b161c19169055388080620003ce565b8385015186558a97909501949384019301620003bb565b909150600a88528688208980850160051c82019289861062000458575b918891869594930160051c01915b82811062000449575050620000fc565b8a815585945088910162000439565b925081926200042b565b634e487b7160e01b87526022600452602487fd5b97607f1697620000e5565b600080fd5b6040519190601f01601f191682016001600160401b03811183821017620004ac57604052565b634e487b7160e01b600052604160045260246000fd5b919080601f84011215620004815782516001600160401b038111620004ac57602090620004f8601f8201601f1916830162000486565b92818452828287010111620004815760005b8181106200052057508260009394955001015290565b85810183015184820184015282016200050a56fe60806040526004361015610013575b600080fd5b60003560e01c80621d3567146104af5780622daf80146104a657806301ffc9a71461049d57806304c607fd1461049457806306fdde031461048b57806307e0db1714610482578063095ea7b3146104795780630df374831461047057806310ddb1371461046757806318160ddd1461039857806323b872dd1461045e5780632a205e3d14610455578063313ce5671461044c5780633671543914610443578063395093511461043a5780633d008497146104315780633d8b38f6146104285780633f1f4fa41461041f57806340c10f191461041657806342d65a8d1461040d57806344770515146104045780634c42899a1461040457806351905636146103fb578063525f4b2c146103f25780635b8c41e6146103e9578063628fadb3146103e057806366ad5c8a146103d757806370a08231146103ce578063715018a6146103c55780637533d788146103bc5780637a25c916146103b35780638cfd8f5c146103aa5780638da5cb5b146103a15780639358928b14610398578063950c8a741461038f57806395d89b41146103865780639f38369a1461037d578063a2309ff814610374578063a457c2d71461036b578063a6c3d16514610362578063a9059cbb14610359578063b353aaa714610350578063b5d2847f14610347578063b672acd31461033e578063b6efb02a14610335578063baf3292d1461032c578063c3208a8b14610323578063c44618341461031a578063cbed8b9c14610311578063d1deba1f14610308578063dd62ed3e146102ff578063df2a5b3b146102f6578063eab45d9c146102ed578063eb8d72b7146102e4578063ec81b483146102db578063ed629c5c146102d2578063f2fde38b146102c9578063f4e8aaff146102c0578063f5ecbdbc146102b75763fc0c546a146102af57600080fd5b61000e6134a1565b5061000e61337a565b5061000e613327565b5061000e6131ed565b5061000e6131ab565b5061000e613166565b5061000e612fb0565b5061000e612f11565b5061000e612de4565b5061000e612d4f565b5061000e612bdd565b5061000e612a9b565b5061000e612a5f565b5061000e612a13565b5061000e612963565b5061000e612915565b5061000e6128bb565b5061000e61287e565b5061000e61280e565b5061000e6127c5565b5061000e6125b5565b5061000e612499565b5061000e61245c565b5061000e612371565b5061000e61232c565b5061000e6122d9565b5061000e610c58565b5061000e612286565b5061000e61220c565b5061000e611f93565b5061000e611f31565b5061000e611d6e565b5061000e611d04565b5061000e611ae9565b5061000e611953565b5061000e611877565b5061000e6116a5565b5061000e6113b0565b5061000e611375565b5061000e6112cb565b5061000e6111df565b5061000e611187565b5061000e61112f565b5061000e61109e565b5061000e611006565b5061000e610df1565b5061000e610d99565b5061000e610cf4565b5061000e610c95565b5061000e610b8a565b5061000e610b2c565b5061000e610ad8565b5061000e6109e7565b5061000e610983565b5061000e61081b565b5061000e6106fa565b5061000e6106a1565b5061000e610558565b61ffff81160361000e57565b9181601f8401121561000e5782359167ffffffffffffffff831161000e576020838186019501011161000e57565b9060808282031261000e578135610508816104b8565b9267ffffffffffffffff90602084013582811161000e578361052b9186016104c4565b949094936040820135848116810361000e5793606083013590811161000e5761055492016104c4565b9091565b503461000e576105693660046104f2565b919294939073ffffffffffffffffffffffffffffffffffffffff7f0000000000000000000000000000000000000000000000000000000000000000163303610638576105fb61060392610609976105f46105da6105d58a60019061ffff16600052602052604060002090565b611f14565b805190818414918261062e575b508161060b575b506134db565b369161181a565b92369161181a565b926136ce565b005b905061061836848661181a565b60208151910120906020815191012014386105ee565b15159150386105e7565b60646040517f08c379a000000000000000000000000000000000000000000000000000000000815260206004820152601e60248201527f4c7a4170703a20696e76616c696420656e64706f696e742063616c6c657200006044820152fd5b600091031261000e57565b503461000e5760007ffffffffffffffffffffffffffffffffffffffffffffffffffffffffffffffffc36011261000e5760206040517eca82aa394a9c50477a85ba3ec97709f084ea91f935210beb4332b6a67c43f48152f35b503461000e5760207ffffffffffffffffffffffffffffffffffffffffffffffffffffffffffffffffc36011261000e576004357fffffffff00000000000000000000000000000000000000000000000000000000811680910361000e5780602091159081156107d3575b8115610776575b506040519015158152f35b7f14e4ceea000000000000000000000000000000000000000000000000000000008114915081156107a9575b503861076b565b7f01ffc9a700000000000000000000000000000000000000000000000000000000915014386107a2565b7f36372b070000000000000000000000000000000000000000000000000000000081149150610764565b73ffffffffffffffffffffffffffffffffffffffff81160361000e57565b503461000e5760207ffffffffffffffffffffffffffffffffffffffffffffffffffffffffffffffffc36011261000e57600435610857816107fd565b61085f61411e565b600c549073ffffffffffffffffffffffffffffffffffffffff9081831690816108df577f032dd6d314014d1687cb594ce0eca25af20c21d064e9967c9455662f4d87307d936040937fffffffffffffffffffffffff000000000000000000000000000000000000000092169182911617600c5582519182526020820152a1005b60046040517f76d853bd000000000000000000000000000000000000000000000000000000008152fd5b60005b83811061091c5750506000910152565b818101518382015260200161090c565b907fffffffffffffffffffffffffffffffffffffffffffffffffffffffffffffffe0601f60209361096881518092818752878088019101610909565b0116010190565b90602061098092818152019061092c565b90565b503461000e5760007ffffffffffffffffffffffffffffffffffffffffffffffffffffffffffffffffc36011261000e576109e36040516109cf816109c881600a611e5f565b0382611783565b60405191829160208352602083019061092c565b0390f35b503461000e57600060207ffffffffffffffffffffffffffffffffffffffffffffffffffffffffffffffffc360112610ad557600435610a25816104b8565b610a2d61411e565b8173ffffffffffffffffffffffffffffffffffffffff7f00000000000000000000000000000000000000000000000000000000000000001691823b15610ad15761ffff602483928360405196879485937f07e0db170000000000000000000000000000000000000000000000000000000085521660048401525af18015610ac4575b610ab65780f35b610abf91611783565b388180f35b610acc6135ce565b610aaf565b5080fd5b80fd5b503461000e5760407ffffffffffffffffffffffffffffffffffffffffffffffffffffffffffffffffc36011261000e57610b21600435610b17816107fd565b60243590336146b8565b602060405160018152f35b503461000e5760407ffffffffffffffffffffffffffffffffffffffffffffffffffffffffffffffffc36011261000e5761ffff600435610b6b816104b8565b610b7361411e565b166000526003602052602435604060002055600080f35b503461000e57600060207ffffffffffffffffffffffffffffffffffffffffffffffffffffffffffffffffc360112610ad557600435610bc8816104b8565b610bd061411e565b8173ffffffffffffffffffffffffffffffffffffffff7f00000000000000000000000000000000000000000000000000000000000000001691823b15610ad15761ffff602483928360405196879485937f10ddb1370000000000000000000000000000000000000000000000000000000085521660048401525af18015610ac457610ab65780f35b503461000e5760007ffffffffffffffffffffffffffffffffffffffffffffffffffffffffffffffffc36011261000e576020600954604051908152f35b503461000e5760607ffffffffffffffffffffffffffffffffffffffffffffffffffffffffffffffffc36011261000e57610b21600435610cd4816107fd565b602435610ce0816107fd565b60443591610cef833383614873565b6142b3565b503461000e5760a07ffffffffffffffffffffffffffffffffffffffffffffffffffffffffffffffffc36011261000e57600435610d30816104b8565b67ffffffffffffffff9060243582811161000e57610d529036906004016104c4565b9160643590811515820361000e5760843594851161000e57610d7b610d879536906004016104c4565b94909360443592613a22565b60408051928352602083019190915290f35b503461000e5760007ffffffffffffffffffffffffffffffffffffffffffffffffffffffffffffffffc36011261000e57602060405160128152f35b35906fffffffffffffffffffffffffffffffff8216820361000e57565b5060407ffffffffffffffffffffffffffffffffffffffffffffffffffffffffffffffffc36011261000e57600435610e296024610dd4565b906fffffffffffffffffffffffffffffffff8216918215610fdc57610f9c7f75387c78805588443c063166d08fa3a823b2ab31322a2e3c7fcfd509b9b5f5d393610e7284614ae7565b610ebf610e7f6003614990565b91714920616d2074680000000000000000000000610e9e6000856149df565b5285610eab6001856149df565b5280610eb86002856149df565b5233614597565b60207eca82aa394a9c50477a85ba3ec97709f084ea91f935210beb4332b6a67c43f4600e54610f1b60405194859384937f3e3aa6c500000000000000000000000000000000000000000000000000000000855260048501614acb565b03813473c662c410c0ecf747543f5ba90660f6abebd9c8c45af1908115610fcf575b600091610fa1575b5060405193849334913386916080936fffffffffffffffffffffffffffffffff91979695929773ffffffffffffffffffffffffffffffffffffffff60a0860199168552602085015216604083015260608201520152565b0390a1005b610fc2915060203d8111610fc8575b610fba8183611783565b810190614a88565b38610f45565b503d610fb0565b610fd76135ce565b610f3d565b60046040517fb2739155000000000000000000000000000000000000000000000000000000008152fd5b503461000e5760407ffffffffffffffffffffffffffffffffffffffffffffffffffffffffffffffffc36011261000e57610b21600435611045816107fd565b33600052600860205261107c8160406000209073ffffffffffffffffffffffffffffffffffffffff16600052602052604060002090565b54906024358201809211611091575b336146b8565b611099613689565b61108b565b503461000e5760007ffffffffffffffffffffffffffffffffffffffffffffffffffffffffffffffffc36011261000e5760206040517f03d1bc017185460515029ea53aa632a4eb656e28ba51b4330645d15b6898626a8152f35b91909160408184031261000e578035611110816104b8565b92602082013567ffffffffffffffff811161000e5761055492016104c4565b503461000e57602061ffff6111786111483660046110f8565b93909116600052600184526109c861116a604060002060405192838092611e5f565b84815191012092369161181a565b82815191012014604051908152f35b503461000e5760207ffffffffffffffffffffffffffffffffffffffffffffffffffffffffffffffffc36011261000e5761ffff6004356111c6816104b8565b1660005260036020526020604060002054604051908152f35b503461000e5760407ffffffffffffffffffffffffffffffffffffffffffffffffffffffffffffffffc36011261000e5760043561121b816107fd565b60243573ffffffffffffffffffffffffffffffffffffffff600c541633036112a157600d5491818301809311611294575b6a0422ca8b0a00a425000000831161126a5761060992600d55614433565b60046040517f62aef310000000000000000000000000000000000000000000000000000000008152fd5b61129c613689565b61124c565b60046040517fdfc8fda8000000000000000000000000000000000000000000000000000000008152fd5b503461000e576112dc3660046110f8565b6112e461411e565b73ffffffffffffffffffffffffffffffffffffffff7f00000000000000000000000000000000000000000000000000000000000000001691823b1561000e5761136493604051938480927f42d65a8d000000000000000000000000000000000000000000000000000000008252816000988997889788946004850161361a565b03925af18015610ac457610ab65780f35b503461000e5760007ffffffffffffffffffffffffffffffffffffffffffffffffffffffffffffffffc36011261000e57602060405160008152f35b5060e07ffffffffffffffffffffffffffffffffffffffffffffffffffffffffffffffffc36011261000e576004356113e7816107fd565b602435906113f4826104b8565b67ffffffffffffffff60443581811161000e576114159036906004016104c4565b91909260843591611425836107fd565b60a43593611432856107fd565b60c43591821161000e5761145a6114506114629336906004016104c4565b979092369161181a565b95369161181a565b9160ff600654166000146115d7576022835110611579577f39a4c66499bcf4b56d79f0dde8ed7a9d4925a0df55825206b2b8531e202be0d0936115616115749285611506602273ffffffffffffffffffffffffffffffffffffffff98015161ffff8c1660005260026020526114f360006114ed81604081209061ffff16600052602052604060002090565b54613ed1565b906114ff821515613ede565b1015613f43565b61151260643587613e9e565b9384926115598b61152d604051968792600060208501613bfa565b037fffffffffffffffffffffffffffffffffffffffffffffffffffffffffffffffe08101865285611783565b34938c613c9b565b61ffff6040519485941697169583613c20565b0390a3005b60646040517f08c379a000000000000000000000000000000000000000000000000000000000815260206004820152601c60248201527f4c7a4170703a20696e76616c69642061646170746572506172616d73000000006044820152fd5b8251611621577f39a4c66499bcf4b56d79f0dde8ed7a9d4925a0df55825206b2b8531e202be0d0936115616115749273ffffffffffffffffffffffffffffffffffffffff95611506565b60846040517f08c379a000000000000000000000000000000000000000000000000000000000815260206004820152602660248201527f4f4654436f72653a205f61646170746572506172616d73206d7573742062652060448201527f656d7074792e00000000000000000000000000000000000000000000000000006064820152fd5b503461000e5760207ffffffffffffffffffffffffffffffffffffffffffffffffffffffffffffffffc36011261000e576004356116e061411e565b600e54908161172957600e8190556040805192835260208301919091527f0ea9c1faf061225cb55723c374ce38f827cb738e811eae4379c27afc674baba6919081908101610f9c565b60046040517fb9514f3e000000000000000000000000000000000000000000000000000000008152fd5b507f4e487b7100000000000000000000000000000000000000000000000000000000600052604160045260246000fd5b90601f7fffffffffffffffffffffffffffffffffffffffffffffffffffffffffffffffe0910116810190811067ffffffffffffffff8211176117c457604052565b6117cc611753565b604052565b7fffffffffffffffffffffffffffffffffffffffffffffffffffffffffffffffe0601f60209267ffffffffffffffff811161180d575b01160190565b611815611753565b611807565b929192611826826117d1565b916118346040519384611783565b82948184528183011161000e578281602093846000960137010152565b60209061186b928260405194838680955193849201610909565b82019081520301902090565b503461000e5760607ffffffffffffffffffffffffffffffffffffffffffffffffffffffffffffffffc36011261000e576004356118b3816104b8565b67ffffffffffffffff60243581811161000e573660238201121561000e576118e590369060248160040135910161181a565b91604435918216820361000e5761193a611943926119216109e39561191b60009560059061ffff16600052602052604060002090565b90611851565b9067ffffffffffffffff16600052602052604060002090565b549060031b1c90565b6040519081529081906020820190565b503461000e5760407ffffffffffffffffffffffffffffffffffffffffffffffffffffffffffffffffc36011261000e5760043561198f816107fd565b6fffffffffffffffffffffffffffffffff6119aa6024610dd4565b73ffffffffffffffffffffffffffffffffffffffff6119c96003614990565b93714920616d20746800000000000000000000006119e86000876149df565b52166119f56001856149df565b5216611a026002836149df565b52600e5490611a4e8151611a226040519384926020840196309088614a22565b037fffffffffffffffffffffffffffffffffffffffffffffffffffffffffffffffe08101835282611783565b5190206040517fa46efaf30000000000000000000000000000000000000000000000000000000081526004810182905260208160248173c662c410c0ecf747543f5ba90660f6abebd9c8c45afa908115611adc575b600091611abe575b5060408051928352901515602083015290f35b611ad6915060203d8111610fc857610fba8183611783565b38611aab565b611ae46135ce565b611aa3565b503461000e57611afa3660046104f2565b915091303303611c8057611b1b93611b1391369161181a565b50369161181a565b60208082019061ffff918281511615600014611c2257835184019060608583031261000e57611b4a90516104b8565b60408401519067ffffffffffffffff821161000e576060918380611b72930191870101613566565b930151926014815110611bc457015160601c927fbf551ec93859b170f9b2141bd9298bf3f64322c6f7beb2543a0cb669834118bf9190611bb28486614433565b60405193845216918060208101611574565b606482604051907f08c379a00000000000000000000000000000000000000000000000000000000082526004820152601560248201527f746f416464726573735f6f75744f66426f756e647300000000000000000000006044820152fd5b606482604051907f08c379a00000000000000000000000000000000000000000000000000000000082526004820152601c60248201527f4f4654436f72653a20756e6b6e6f776e207061636b65742074797065000000006044820152fd5b60846040517f08c379a000000000000000000000000000000000000000000000000000000000815260206004820152602660248201527f4e6f6e626c6f636b696e674c7a4170703a2063616c6c6572206d75737420626560448201527f204c7a41707000000000000000000000000000000000000000000000000000006064820152fd5b503461000e5760207ffffffffffffffffffffffffffffffffffffffffffffffffffffffffffffffffc36011261000e5773ffffffffffffffffffffffffffffffffffffffff600435611d55816107fd565b1660005260076020526020604060002054604051908152f35b503461000e576000807ffffffffffffffffffffffffffffffffffffffffffffffffffffffffffffffffc360112610ad557611da761411e565b8073ffffffffffffffffffffffffffffffffffffffff81547fffffffffffffffffffffffff000000000000000000000000000000000000000081168355167f8be0079c531659141344cd1fd0a4f28419497f9722a3daafe3b4186f6b6457e08280a380f35b90600182811c92168015611e55575b6020831014611e2657565b7f4e487b7100000000000000000000000000000000000000000000000000000000600052602260045260246000fd5b91607f1691611e1b565b9060009291805491611e7083611e0c565b918282526001938481169081600014611ed25750600114611e92575b50505050565b90919394506000526020928360002092846000945b838610611ebe575050505001019038808080611e8c565b805485870183015294019385908201611ea7565b91505060209495507fffffffffffffffffffffffffffffffffffffffffffffffffffffffffffffff009193501683830152151560051b01019038808080611e8c565b90611f2f611f289260405193848092611e5f565b0383611783565b565b503461000e5760207ffffffffffffffffffffffffffffffffffffffffffffffffffffffffffffffffc36011261000e5761ffff600435611f70816104b8565b1660005260016020526109e36109c86109cf604060002060405192838092611e5f565b5060407ffffffffffffffffffffffffffffffffffffffffffffffffffffffffffffffffc36011261000e57600435611fca816107fd565b611fd46024610dd4565b6fffffffffffffffffffffffffffffffff8116918215610fdc57610f9c7fe29d3de91aa5368be7383cbe2d3745a1b785343283f19aeeeed44f0832f8133a9361201d6003614990565b714920616d207468000000000000000000000061203b6000836149df565b5273ffffffffffffffffffffffffffffffffffffffff841661205e6001836149df565b528161206b6002836149df565b52600e5490604051927f2c9dd5c0000000000000000000000000000000000000000000000000000000008452836120a88360209560048401614b9c565b0390838573c662c410c0ecf747543f5ba90660f6abebd9c8c493816000865af19485156121ff575b6000956121d2575b509183916120e96121439489614433565b7f03d1bc017185460515029ea53aa632a4eb656e28ba51b4330645d15b6898626a600e54604051958694859384937f3e3aa6c500000000000000000000000000000000000000000000000000000000855260048501614acb565b039134905af180156121c5575b6121a7575b50506040519384933385906060929594936fffffffffffffffffffffffffffffffff91608084019773ffffffffffffffffffffffffffffffffffffffff80921685521660208401521660408201520152565b816121bd92903d10610fc857610fba8183611783565b503880612155565b6121cd6135ce565b612150565b61214393919550916120e96121f48694853d8711610fc857610fba8183611783565b9692945050916120d8565b6122076135ce565b6120d0565b503461000e5760407ffffffffffffffffffffffffffffffffffffffffffffffffffffffffffffffffc36011261000e57602061227d60043561224d816104b8565b61ffff6024359161225d836104b8565b166000526002835260406000209061ffff16600052602052604060002090565b54604051908152f35b503461000e5760007ffffffffffffffffffffffffffffffffffffffffffffffffffffffffffffffffc36011261000e57602073ffffffffffffffffffffffffffffffffffffffff60005416604051908152f35b503461000e5760007ffffffffffffffffffffffffffffffffffffffffffffffffffffffffffffffffc36011261000e57602073ffffffffffffffffffffffffffffffffffffffff60045416604051908152f35b503461000e5760007ffffffffffffffffffffffffffffffffffffffffffffffffffffffffffffffffc36011261000e576109e36040516109cf816109c881600b611e5f565b503461000e5760207ffffffffffffffffffffffffffffffffffffffffffffffffffffffffffffffffc36011261000e5761ffff6004356123b0816104b8565b1660005260016020526109c86123d0604060002060405192838092611e5f565b8051156123fe576123f28160006123ec60146109e395516136b9565b91614072565b6040519182918261096f565b60646040517f08c379a000000000000000000000000000000000000000000000000000000000815260206004820152601d60248201527f4c7a4170703a206e6f20747275737465642070617468207265636f72640000006044820152fd5b503461000e5760007ffffffffffffffffffffffffffffffffffffffffffffffffffffffffffffffffc36011261000e576020600d54604051908152f35b503461000e5760407ffffffffffffffffffffffffffffffffffffffffffffffffffffffffffffffffc36011261000e576004356124d5816107fd565b602435903360005260086020526125108160406000209073ffffffffffffffffffffffffffffffffffffffff16600052602052604060002090565b549180831061253157612525920390336146b8565b60405160018152602090f35b60846040517f08c379a000000000000000000000000000000000000000000000000000000000815260206004820152602560248201527f45524332303a2064656372656173656420616c6c6f77616e63652062656c6f7760448201527f207a65726f0000000000000000000000000000000000000000000000000000006064820152fd5b503461000e576125c63660046110f8565b906125cf61411e565b604051926020928083858701376125fb6034868381013060601b88820152036014810188520186611783565b60009361ffff83168552600190818152604086209187519167ffffffffffffffff83116127b8575b612637836126318654611e0c565b86613635565b80601f84116001146126e657509082806126b5969594938a9b7f8c0400cfe2d1199b1a725c78960bcc2a344d869b80590d0f2bd005db15a572ce9b936126bb575b50507fffffffffffffffffffffffffffffffffffffffffffffffffffffffffffffffff91921b9260031b1c19161790555b6040519384938461361a565b0390a180f35b015191507fffffffffffffffffffffffffffffffffffffffffffffffffffffffffffffffff38612678565b919394987fffffffffffffffffffffffffffffffffffffffffffffffffffffffffffffffe0841661271c87600052602060002090565b938a905b8282106127a1575050917f8c0400cfe2d1199b1a725c78960bcc2a344d869b80590d0f2bd005db15a572ce999a959391856126b59896941061276a575b505050811b0190556126a9565b01517fffffffffffffffffffffffffffffffffffffffffffffffffffffffffffffffff60f88460031b161c1916905538808061275d565b808886978294978701518155019601940190612720565b6127c0611753565b612623565b503461000e5760407ffffffffffffffffffffffffffffffffffffffffffffffffffffffffffffffffc36011261000e57610b21600435612804816107fd565b60243590336142b3565b503461000e5760007ffffffffffffffffffffffffffffffffffffffffffffffffffffffffffffffffc36011261000e57602060405173ffffffffffffffffffffffffffffffffffffffff7f0000000000000000000000000000000000000000000000000000000000000000168152f35b503461000e5760007ffffffffffffffffffffffffffffffffffffffffffffffffffffffffffffffffc36011261000e576020600e54604051908152f35b503461000e5760007ffffffffffffffffffffffffffffffffffffffffffffffffffffffffffffffffc36011261000e5760206040517f08000000000000110000000000000000000000000000000000000000000000018152f35b503461000e5760007ffffffffffffffffffffffffffffffffffffffffffffffffffffffffffffffffc36011261000e57602060405173c662c410c0ecf747543f5ba90660f6abebd9c8c48152f35b503461000e5760207ffffffffffffffffffffffffffffffffffffffffffffffffffffffffffffffffc36011261000e577f5db758e995a17ec1ad84bdef7e8c3293a0bd6179bcce400dff5d4c3d87db726b602073ffffffffffffffffffffffffffffffffffffffff6004356129d7816107fd565b6129df61411e565b16807fffffffffffffffffffffffff00000000000000000000000000000000000000006004541617600455604051908152a1005b503461000e5760007ffffffffffffffffffffffffffffffffffffffffffffffffffffffffffffffffc36011261000e576020604051714920616d20746800000000000000000000008152f35b503461000e5760007ffffffffffffffffffffffffffffffffffffffffffffffffffffffffffffffffc36011261000e5760206040516127108152f35b503461000e5760807ffffffffffffffffffffffffffffffffffffffffffffffffffffffffffffffffc36011261000e57600435612ad7816104b8565b602435612ae3816104b8565b60643567ffffffffffffffff811161000e57612b039036906004016104c4565b9092612b0d61411e565b73ffffffffffffffffffffffffffffffffffffffff7f00000000000000000000000000000000000000000000000000000000000000001690813b1561000e5760008094612baa604051978896879586947fcbed8b9c00000000000000000000000000000000000000000000000000000000865261ffff809216600487015216602485015260443560448501526080606485015260848401916135db565b03925af18015612bd0575b612bbb57005b80612bca600061060993611783565b80610696565b612bd86135ce565b612bb5565b50612be93660046104f2565b9161ffff86949296166000526005602052612c3181604060002060206040518092878b8337878201908152030190209067ffffffffffffffff16600052602052604060002090565b54918215612ccb577fc264d91f3adc5588250e1551f547752ca0cfa8f6b530d243b9f9f4cab10ea8e596610f9c94612cbf91612cb9916000612cad876119218d89612ca78f612c928f612c85368c8e61181a565b60208151910120146138f5565b60059061ffff16600052602052604060002090565b916138dc565b55611b1336868c61181a565b86613b4f565b60405195869586613980565b60846040517f08c379a000000000000000000000000000000000000000000000000000000000815260206004820152602360248201527f4e6f6e626c6f636b696e674c7a4170703a206e6f2073746f726564206d65737360448201527f61676500000000000000000000000000000000000000000000000000000000006064820152fd5b503461000e5760407ffffffffffffffffffffffffffffffffffffffffffffffffffffffffffffffffc36011261000e57602061227d600435612d90816107fd565b73ffffffffffffffffffffffffffffffffffffffff60243591612db2836107fd565b166000526008835260406000209073ffffffffffffffffffffffffffffffffffffffff16600052602052604060002090565b503461000e5760607ffffffffffffffffffffffffffffffffffffffffffffffffffffffffffffffffc36011261000e57600435612e20816104b8565b602435612e2c816104b8565b60443591612e3861411e565b8215612eb357610f9c7f9d5c7c0b934da8fefa9c7760c98383778a12dfbfc0c3b3106518f43fb9508ac09361ffff8316600052600260205280612e8d8560406000209061ffff16600052602052604060002090565b556040519384938460409194939294606082019561ffff80921683521660208201520152565b60646040517f08c379a000000000000000000000000000000000000000000000000000000000815260206004820152601560248201527f4c7a4170703a20696e76616c6964206d696e47617300000000000000000000006044820152fd5b503461000e5760207ffffffffffffffffffffffffffffffffffffffffffffffffffffffffffffffffc36011261000e5760043580151580910361000e5760207f1584ad594a70cbe1e6515592e1272a987d922b097ead875069cebe8b40c004a491612f7a61411e565b7fffffffffffffffffffffffffffffffffffffffffffffffffffffffffffffff006006541660ff821617600655604051908152a1005b503461000e57612fc13660046110f8565b9190612fcb61411e565b60009161ffff811683526001602090808252604085209167ffffffffffffffff8711613159575b613006876130008554611e0c565b85613635565b8590601f881160011461308b57509186808798936126b5957ffa41487ad5d6728f0b19276fa1eddc16558578f5109fc39d2dc33c3230470dab9993613080575b501b907fffffffffffffffffffffffffffffffffffffffffffffffffffffffffffffffff8460031b1c19161790556040519384938461361a565b880135925038613046565b907fffffffffffffffffffffffffffffffffffffffffffffffffffffffffffffffe088166130be85600052602060002090565b9288905b828210613142575050918893917ffa41487ad5d6728f0b19276fa1eddc16558578f5109fc39d2dc33c3230470dab98996126b596941061310a575b505082811b0190556126a9565b7fffffffffffffffffffffffffffffffffffffffffffffffffffffffffffffffff60f88660031b161c199088013516905538806130fd565b808685968294968c013581550195019301906130c2565b613161611753565b612ff2565b503461000e5760007ffffffffffffffffffffffffffffffffffffffffffffffffffffffffffffffffc36011261000e5760206040516a0422ca8b0a00a4250000008152f35b503461000e5760007ffffffffffffffffffffffffffffffffffffffffffffffffffffffffffffffffc36011261000e57602060ff600654166040519015158152f35b503461000e5760207ffffffffffffffffffffffffffffffffffffffffffffffffffffffffffffffffc36011261000e57600435613229816107fd565b61323161411e565b73ffffffffffffffffffffffffffffffffffffffff80911680156132a3576000918254827fffffffffffffffffffffffff00000000000000000000000000000000000000008216178455167f8be0079c531659141344cd1fd0a4f28419497f9722a3daafe3b4186f6b6457e08380a380f35b60846040517f08c379a000000000000000000000000000000000000000000000000000000000815260206004820152602660248201527f4f776e61626c653a206e6577206f776e657220697320746865207a65726f206160448201527f64647265737300000000000000000000000000000000000000000000000000006064820152fd5b503461000e5760007ffffffffffffffffffffffffffffffffffffffffffffffffffffffffffffffffc36011261000e57602073ffffffffffffffffffffffffffffffffffffffff600c5416604051908152f35b503461000e5760807ffffffffffffffffffffffffffffffffffffffffffffffffffffffffffffffffc36011261000e576109e36004356133b9816104b8565b602435906133c6826104b8565b6133d16044356107fd565b604051917ff5ecbdbc00000000000000000000000000000000000000000000000000000000835261ffff8092166004840152166024820152306044820152606435606482015260008160848173ffffffffffffffffffffffffffffffffffffffff7f0000000000000000000000000000000000000000000000000000000000000000165afa908115613494575b600091613473575b506040519182918261096f565b61348e913d8091833e6134868183611783565b8101906135a8565b38613466565b61349c6135ce565b61345e565b503461000e5760007ffffffffffffffffffffffffffffffffffffffffffffffffffffffffffffffffc36011261000e576020604051308152f35b156134e257565b60846040517f08c379a000000000000000000000000000000000000000000000000000000000815260206004820152602660248201527f4c7a4170703a20696e76616c696420736f757263652073656e64696e6720636f60448201527f6e747261637400000000000000000000000000000000000000000000000000006064820152fd5b81601f8201121561000e57805161357c816117d1565b9261358a6040519485611783565b8184526020828401011161000e576109809160208085019101610909565b9060208282031261000e57815167ffffffffffffffff811161000e576109809201613566565b506040513d6000823e3d90fd5b601f82602094937fffffffffffffffffffffffffffffffffffffffffffffffffffffffffffffffe0938186528686013760008582860101520116010190565b60409061ffff610980959316815281602082015201916135db565b90601f811161364357505050565b600091825260208220906020601f850160051c8301941061367f575b601f0160051c01915b82811061367457505050565b818155600101613668565b909250829061365f565b507f4e487b7100000000000000000000000000000000000000000000000000000000600052601160045260246000fd5b919082039182116136c657565b611f2f613689565b9290915a926040519360208501907f66ad5c8a00000000000000000000000000000000000000000000000000000000825261ffff87166024870152608060448701528561376161372160a483018661092c565b67ffffffffffffffff871660648401527fffffffffffffffffffffffffffffffffffffffffffffffffffffffffffffffdc8382030160848401528761092c565b03916137937fffffffffffffffffffffffffffffffffffffffffffffffffffffffffffffffe093848101895288611783565b6000918291826137a360966117d1565b996137b16040519b8c611783565b60968b526137bf60966117d1565b60208c01970136883751923090f1903d9060968211613800575b6000908288523e156137ed575b5050505050565b6137f694613809565b38808080806137e6565b609691506137d9565b91936138c97fe183f33de2837795525b4792ca4cd60535bd77c53b7e7030060bfcf5734d6b0c956138d7939561ffff8151602083012096169586600052600560205261388f8361386d60208b60406000208260405194838680955193849201610909565b8201908152030190209067ffffffffffffffff16600052602052604060002090565b5567ffffffffffffffff6138b5604051988998895260a060208a015260a089019061092c565b92166040870152858203606087015261092c565b90838203608085015261092c565b0390a1565b6020919283604051948593843782019081520301902090565b156138fc57565b60846040517f08c379a000000000000000000000000000000000000000000000000000000000815260206004820152602160248201527f4e6f6e626c6f636b696e674c7a4170703a20696e76616c6964207061796c6f6160448201527f64000000000000000000000000000000000000000000000000000000000000006064820152fd5b916139ad9060609461ffff67ffffffffffffffff94999897991685526080602086015260808501916135db565b951660408201520152565b919082604091031261000e576020825192015190565b919273ffffffffffffffffffffffffffffffffffffffff6109809795969461ffff613a0d9416855216602084015260a0604084015260a083019061092c565b931515606082015260808185039101526135db565b919495613abb9193949796613a866040978897613a5489519889936000602086015260608c86015260808501916135db565b906060830152037fffffffffffffffffffffffffffffffffffffffffffffffffffffffffffffffe08101875286611783565b855198899586957f40a7bb100000000000000000000000000000000000000000000000000000000087523090600488016139ce565b038173ffffffffffffffffffffffffffffffffffffffff7f0000000000000000000000000000000000000000000000000000000000000000165afa928315613b42575b6000918294613b0e575b50509190565b613b3293945080919250903d10613b3b575b613b2a8183611783565b8101906139b8565b91903880613b08565b503d613b20565b613b4a6135ce565b613afe565b9060208082019061ffff918281511615600014611c2257835184019060608583031261000e57613b7f90516104b8565b60408401519067ffffffffffffffff821161000e576060918380613ba7930191870101613566565b930151926014815110611bc457015160601c927fbf551ec93859b170f9b2141bd9298bf3f64322c6f7beb2543a0cb669834118bf9190613be78486614433565b604051938452169180602081015b0390a3565b939291613c1b9061ffff60409316865260606020870152606086019061092c565b930152565b929190613c1b60209160408652604086019061092c565b92613c5c61098097959361ffff613c6a9416865260c0602087015260c086019061092c565b90848203604086015261092c565b9373ffffffffffffffffffffffffffffffffffffffff809216606084015216608082015260a081840391015261092c565b939594613cc8909391929360009561ffff811687526001602052613ccf6040882060405194858092611e5f565b0384611783565b825115613d9157613ce1855182613e15565b73ffffffffffffffffffffffffffffffffffffffff7f00000000000000000000000000000000000000000000000000000000000000001693843b15613d8d57879899613d6091604099989951998a98899788967fc580310000000000000000000000000000000000000000000000000000000000885260048801613c37565b03925af18015613d80575b613d73575050565b612bca611f2f9282611783565b613d886135ce565b613d6b565b8780fd5b60846040517f08c379a000000000000000000000000000000000000000000000000000000000815260206004820152603060248201527f4c7a4170703a2064657374696e6174696f6e20636861696e206973206e6f742060448201527f61207472757374656420736f75726365000000000000000000000000000000006064820152fd5b61ffff166000526003602052604060002054908115613e94575b11613e3657565b60646040517f08c379a000000000000000000000000000000000000000000000000000000000815260206004820152602060248201527f4c7a4170703a207061796c6f61642073697a6520697320746f6f206c617267656044820152fd5b6127109150613e2f565b81610980913373ffffffffffffffffffffffffffffffffffffffff8216031561459757613ecc823383614873565b614597565b919082018092116136c657565b15613ee557565b60646040517f08c379a000000000000000000000000000000000000000000000000000000000815260206004820152601a60248201527f4c7a4170703a206d696e4761734c696d6974206e6f74207365740000000000006044820152fd5b15613f4a57565b60646040517f08c379a000000000000000000000000000000000000000000000000000000000815260206004820152601b60248201527f4c7a4170703a20676173206c696d697420697320746f6f206c6f7700000000006044820152fd5b15613faf57565b60646040517f08c379a000000000000000000000000000000000000000000000000000000000815260206004820152600e60248201527f736c6963655f6f766572666c6f770000000000000000000000000000000000006044820152fd5b1561401457565b60646040517f08c379a000000000000000000000000000000000000000000000000000000000815260206004820152601160248201527f736c6963655f6f75744f66426f756e64730000000000000000000000000000006044820152fd5b9161408981614082601f82613ed1565b1015613fa8565b61409f83516140988385613ed1565b111561400d565b806140b857505050604051600081526020810160405290565b60405192601f821692831560051b80858701019484860193010101905b80841061410b5750508252601f017fffffffffffffffffffffffffffffffffffffffffffffffffffffffffffffffe01660405290565b90928351815260208091019301906140d5565b73ffffffffffffffffffffffffffffffffffffffff60005416330361413f57565b60646040517f08c379a000000000000000000000000000000000000000000000000000000000815260206004820152602060248201527f4f776e61626c653a2063616c6c6572206973206e6f7420746865206f776e65726044820152fd5b156141a457565b60846040517f08c379a000000000000000000000000000000000000000000000000000000000815260206004820152602360248201527f45524332303a207472616e7366657220746f20746865207a65726f206164647260448201527f65737300000000000000000000000000000000000000000000000000000000006064820152fd5b1561422f57565b60846040517f08c379a000000000000000000000000000000000000000000000000000000000815260206004820152602660248201527f45524332303a207472616e7366657220616d6f756e742065786365656473206260448201527f616c616e636500000000000000000000000000000000000000000000000000006064820152fd5b919073ffffffffffffffffffffffffffffffffffffffff908184169283156143af57614399827fddf252ad1be2c89b69c2b068fc378daa952ba7f163c4a11628f55a4df523b3ef94613bf594169661430c88151561419d565b6143718461433b8360079073ffffffffffffffffffffffffffffffffffffffff16600052602052604060002090565b5461434882821015614228565b039160079073ffffffffffffffffffffffffffffffffffffffff16600052602052604060002090565b5560079073ffffffffffffffffffffffffffffffffffffffff16600052602052604060002090565b8054820190556040519081529081906020820190565b60846040517f08c379a000000000000000000000000000000000000000000000000000000000815260206004820152602560248201527f45524332303a207472616e736665722066726f6d20746865207a65726f20616460448201527f64726573730000000000000000000000000000000000000000000000000000006064820152fd5b73ffffffffffffffffffffffffffffffffffffffff169081156144ae577fddf252ad1be2c89b69c2b068fc378daa952ba7f163c4a11628f55a4df523b3ef60206000926009548181018091116144a1575b6009558484526007825260408420818154019055604051908152a3565b6144a9613689565b614484565b60646040517f08c379a000000000000000000000000000000000000000000000000000000000815260206004820152601f60248201527f45524332303a206d696e7420746f20746865207a65726f2061646472657373006044820152fd5b1561451357565b60846040517f08c379a000000000000000000000000000000000000000000000000000000000815260206004820152602260248201527f45524332303a206275726e20616d6f756e7420657863656564732062616c616e60448201527f63650000000000000000000000000000000000000000000000000000000000006064820152fd5b9073ffffffffffffffffffffffffffffffffffffffff821690811561463457613bf5818461461a7fddf252ad1be2c89b69c2b068fc378daa952ba7f163c4a11628f55a4df523b3ef9461460d60009860079073ffffffffffffffffffffffffffffffffffffffff16600052602052604060002090565b546143488282101561450c565b558060095403600955604051918291829190602083019252565b60846040517f08c379a000000000000000000000000000000000000000000000000000000000815260206004820152602160248201527f45524332303a206275726e2066726f6d20746865207a65726f2061646472657360448201527f73000000000000000000000000000000000000000000000000000000000000006064820152fd5b9073ffffffffffffffffffffffffffffffffffffffff918281169283156147f057821693841561476c578061475b7f8c5be1e5ebec7d5bd14f71427d1e84f3dd0314c0f7b2291e5b200ac8c7c3b92594614736613bf59560089073ffffffffffffffffffffffffffffffffffffffff16600052602052604060002090565b9073ffffffffffffffffffffffffffffffffffffffff16600052602052604060002090565b556040519081529081906020820190565b60846040517f08c379a000000000000000000000000000000000000000000000000000000000815260206004820152602260248201527f45524332303a20617070726f766520746f20746865207a65726f20616464726560448201527f73730000000000000000000000000000000000000000000000000000000000006064820152fd5b60846040517f08c379a0000000000000000000000000000000000000000000000000000000008152602060048201526024808201527f45524332303a20617070726f76652066726f6d20746865207a65726f2061646460448201527f72657373000000000000000000000000000000000000000000000000000000006064820152fd5b9073ffffffffffffffffffffffffffffffffffffffff821660005260086020526148c18160406000209073ffffffffffffffffffffffffffffffffffffffff16600052602052604060002090565b54927fffffffffffffffffffffffffffffffffffffffffffffffffffffffffffffffff84036148f05750505050565b80841061490b576149029303916146b8565b38808080611e8c565b60646040517f08c379a000000000000000000000000000000000000000000000000000000000815260206004820152601d60248201527f45524332303a20696e73756666696369656e7420616c6c6f77616e63650000006044820152fd5b60209067ffffffffffffffff8111614983575b60051b0190565b61498b611753565b61497c565b9061499a82614969565b6149a76040519182611783565b8281527fffffffffffffffffffffffffffffffffffffffffffffffffffffffffffffffe06149d58294614969565b0190602036910137565b80518210156149f35760209160051b010190565b7f4e487b7100000000000000000000000000000000000000000000000000000000600052603260045260246000fd5b90926054929382527fffffffffffffffffffffffffffffffffffffffff00000000000000000000000060209460601b16848301526034820152018183519193019160005b828110614a74575050505090565b835185529381019392810192600101614a66565b9081602091031261000e575190565b90815180825260208080930193019160005b828110614ab7575050505090565b835185529381019392810192600101614aa9565b6109809392606092825260208201528160408201520190614a97565b7f0800000000000011000000000000000000000000000000000000000000000001811115614b395760046040517f40bcd5a5000000000000000000000000000000000000000000000000000000008152fd5b80614b685760046040517fb05313bb000000000000000000000000000000000000000000000000000000008152fd5b600e5414614b7257565b60046040517fd15e5167000000000000000000000000000000000000000000000000000000008152fd5b604090610980939281528160208201520190614a9756fea164736f6c6343000811000a","opcodes":"PUSH1 0x40 PUSH1 0xA0 DUP2 MSTORE CALLVALUE PUSH3 0x481 JUMPI PUSH3 0x50F5 DUP1 CODESIZE SUB DUP1 PUSH3 0x1E DUP2 PUSH3 0x486 JUMP JUMPDEST SWAP3 DUP4 CODECOPY DUP2 ADD PUSH1 0x60 DUP3 DUP3 SUB SLT PUSH3 0x481 JUMPI DUP2 MLOAD PUSH1 0x1 PUSH1 0x1 PUSH1 0x40 SHL SUB SWAP2 SWAP1 DUP3 DUP2 GT PUSH3 0x481 JUMPI DUP2 PUSH3 0x50 SWAP2 DUP6 ADD PUSH3 0x4C2 JUMP JUMPDEST PUSH1 0x20 SWAP2 DUP3 DUP6 ADD MLOAD DUP5 DUP2 GT PUSH3 0x481 JUMPI DUP7 SWAP2 PUSH3 0x6E SWAP2 DUP8 ADD PUSH3 0x4C2 JUMP JUMPDEST SWAP5 ADD MLOAD PUSH1 0x1 PUSH1 0x1 PUSH1 0xA0 SHL SUB SWAP4 SWAP1 DUP5 DUP2 AND SWAP1 DUP2 SWAP1 SUB PUSH3 0x481 JUMPI PUSH1 0x0 DUP1 SLOAD CALLER PUSH1 0x1 PUSH1 0x1 PUSH1 0xA0 SHL SUB NOT DUP3 AND DUP2 OR DUP4 SSTORE SWAP2 SWAP7 AND PUSH32 0x8BE0079C531659141344CD1FD0A4F28419497F9722A3DAAFE3B4186F6B6457E0 DUP8 DUP1 LOG3 PUSH1 0x80 MSTORE DUP2 MLOAD SWAP5 DUP2 DUP7 GT PUSH3 0x388 JUMPI PUSH1 0xA SLOAD SWAP6 PUSH1 0x1 SWAP4 DUP5 DUP9 DUP2 SHR SWAP9 AND DUP1 ISZERO PUSH3 0x476 JUMPI JUMPDEST DUP7 DUP10 LT EQ PUSH3 0x462 JUMPI DUP2 SWAP1 PUSH1 0x1F SWAP9 DUP10 DUP2 GT PUSH3 0x40E JUMPI JUMPDEST POP DUP7 SWAP1 DUP10 DUP4 GT PUSH1 0x1 EQ PUSH3 0x3A8 JUMPI DUP9 SWAP3 PUSH3 0x39C JUMPI JUMPDEST POP POP PUSH1 0x0 NOT PUSH1 0x3 DUP4 SWAP1 SHL SHR NOT AND SWAP1 DUP5 SHL OR PUSH1 0xA SSTORE JUMPDEST DUP1 MLOAD SWAP2 DUP3 GT PUSH3 0x388 JUMPI PUSH1 0xB SLOAD DUP4 DUP2 DUP2 SHR SWAP2 AND DUP1 ISZERO PUSH3 0x37D JUMPI JUMPDEST DUP6 DUP3 LT EQ PUSH3 0x369 JUMPI DUP7 DUP2 GT PUSH3 0x320 JUMPI JUMPDEST POP DUP4 SWAP1 DUP7 DUP4 GT PUSH1 0x1 EQ PUSH3 0x2BA JUMPI SWAP3 DUP3 SWAP4 SWAP2 DUP4 SWAP3 DUP8 SWAP5 PUSH3 0x2AE JUMPI JUMPDEST POP POP SHL SWAP2 PUSH1 0x0 NOT SWAP1 PUSH1 0x3 SHL SHR NOT AND OR PUSH1 0xB SSTORE JUMPDEST PUSH1 0xD SLOAD SWAP3 PUSH10 0x34F086F3B33B68400000 SWAP4 DUP5 DUP2 ADD DUP1 SWAP2 GT PUSH3 0x29A JUMPI PUSH1 0xD SSTORE CALLER ISZERO PUSH3 0x258 JUMPI POP PUSH1 0x9 SLOAD DUP4 DUP2 ADD DUP1 SWAP2 GT PUSH3 0x244 JUMPI SWAP1 PUSH32 0xDDF252AD1BE2C89B69C2B068FC378DAA952BA7F163C4A11628F55A4DF523B3EF SWAP2 PUSH1 0x9 SSTORE CALLER DUP4 MSTORE PUSH1 0x7 DUP2 MSTORE DUP5 DUP4 KECCAK256 DUP5 DUP2 SLOAD ADD SWAP1 SSTORE DUP5 MLOAD SWAP4 DUP5 MSTORE CALLER SWAP4 LOG3 MLOAD PUSH2 0x4BC0 SWAP1 DUP2 PUSH3 0x535 DUP3 CODECOPY PUSH1 0x80 MLOAD DUP2 DUP2 DUP2 PUSH2 0x585 ADD MSTORE DUP2 DUP2 PUSH2 0xA45 ADD MSTORE DUP2 DUP2 PUSH2 0xBE8 ADD MSTORE DUP2 DUP2 PUSH2 0x12FB ADD MSTORE DUP2 DUP2 PUSH2 0x285A ADD MSTORE DUP2 DUP2 PUSH2 0x2B24 ADD MSTORE DUP2 DUP2 PUSH2 0x3434 ADD MSTORE DUP2 DUP2 PUSH2 0x3AD4 ADD MSTORE PUSH2 0x3CF8 ADD MSTORE RETURN JUMPDEST PUSH4 0x4E487B71 PUSH1 0xE0 SHL DUP4 MSTORE PUSH1 0x11 PUSH1 0x4 MSTORE PUSH1 0x24 DUP4 REVERT JUMPDEST PUSH1 0x64 SWAP3 POP DUP5 MLOAD SWAP2 PUSH3 0x461BCD PUSH1 0xE5 SHL DUP4 MSTORE PUSH1 0x4 DUP4 ADD MSTORE PUSH1 0x24 DUP3 ADD MSTORE PUSH32 0x45524332303A206D696E7420746F20746865207A65726F206164647265737300 PUSH1 0x44 DUP3 ADD MSTORE REVERT JUMPDEST PUSH4 0x4E487B71 PUSH1 0xE0 SHL DUP5 MSTORE PUSH1 0x11 PUSH1 0x4 MSTORE PUSH1 0x24 DUP5 REVERT JUMPDEST ADD MLOAD SWAP3 POP CODESIZE DUP1 PUSH3 0x170 JUMP JUMPDEST PUSH1 0xB DUP7 MSTORE DUP5 DUP7 KECCAK256 SWAP2 SWAP1 DUP4 PUSH1 0x1F NOT DUP2 AND DUP9 JUMPDEST DUP9 DUP9 DUP4 DUP4 LT PUSH3 0x308 JUMPI POP POP POP LT PUSH3 0x2EE JUMPI JUMPDEST POP POP POP DUP2 SHL ADD PUSH1 0xB SSTORE PUSH3 0x183 JUMP JUMPDEST ADD MLOAD PUSH1 0x0 NOT PUSH1 0xF8 DUP5 PUSH1 0x3 SHL AND SHR NOT AND SWAP1 SSTORE CODESIZE DUP1 DUP1 PUSH3 0x2DF JUMP JUMPDEST DUP7 DUP7 ADD MLOAD DUP9 SSTORE SWAP1 SWAP7 ADD SWAP6 SWAP5 DUP6 ADD SWAP5 DUP8 SWAP4 POP ADD PUSH3 0x2CB JUMP JUMPDEST PUSH1 0xB DUP7 MSTORE DUP5 DUP7 KECCAK256 DUP8 DUP1 DUP6 ADD PUSH1 0x5 SHR DUP3 ADD SWAP3 DUP8 DUP7 LT PUSH3 0x35F JUMPI JUMPDEST ADD PUSH1 0x5 SHR ADD SWAP1 DUP5 SWAP1 JUMPDEST DUP3 DUP2 LT PUSH3 0x353 JUMPI POP POP PUSH3 0x154 JUMP JUMPDEST DUP8 DUP2 SSTORE ADD DUP5 SWAP1 PUSH3 0x343 JUMP JUMPDEST SWAP3 POP DUP2 SWAP3 PUSH3 0x33A JUMP JUMPDEST PUSH4 0x4E487B71 PUSH1 0xE0 SHL DUP7 MSTORE PUSH1 0x22 PUSH1 0x4 MSTORE PUSH1 0x24 DUP7 REVERT JUMPDEST SWAP1 PUSH1 0x7F AND SWAP1 PUSH3 0x142 JUMP JUMPDEST PUSH4 0x4E487B71 PUSH1 0xE0 SHL DUP6 MSTORE PUSH1 0x41 PUSH1 0x4 MSTORE PUSH1 0x24 DUP6 REVERT JUMPDEST ADD MLOAD SWAP1 POP CODESIZE DUP1 PUSH3 0x112 JUMP JUMPDEST PUSH1 0xA DUP10 MSTORE DUP8 DUP10 KECCAK256 DUP8 SWAP5 POP SWAP2 SWAP1 PUSH1 0x1F NOT DUP5 AND DUP11 JUMPDEST DUP11 DUP3 DUP3 LT PUSH3 0x3F7 JUMPI POP POP DUP5 GT PUSH3 0x3DD JUMPI JUMPDEST POP POP POP DUP2 SHL ADD PUSH1 0xA SSTORE PUSH3 0x127 JUMP JUMPDEST ADD MLOAD PUSH1 0x0 NOT PUSH1 0xF8 DUP5 PUSH1 0x3 SHL AND SHR NOT AND SWAP1 SSTORE CODESIZE DUP1 DUP1 PUSH3 0x3CE JUMP JUMPDEST DUP4 DUP6 ADD MLOAD DUP7 SSTORE DUP11 SWAP8 SWAP1 SWAP6 ADD SWAP5 SWAP4 DUP5 ADD SWAP4 ADD PUSH3 0x3BB JUMP JUMPDEST SWAP1 SWAP2 POP PUSH1 0xA DUP9 MSTORE DUP7 DUP9 KECCAK256 DUP10 DUP1 DUP6 ADD PUSH1 0x5 SHR DUP3 ADD SWAP3 DUP10 DUP7 LT PUSH3 0x458 JUMPI JUMPDEST SWAP2 DUP9 SWAP2 DUP7 SWAP6 SWAP5 SWAP4 ADD PUSH1 0x5 SHR ADD SWAP2 JUMPDEST DUP3 DUP2 LT PUSH3 0x449 JUMPI POP POP PUSH3 0xFC JUMP JUMPDEST DUP11 DUP2 SSTORE DUP6 SWAP5 POP DUP9 SWAP2 ADD PUSH3 0x439 JUMP JUMPDEST SWAP3 POP DUP2 SWAP3 PUSH3 0x42B JUMP JUMPDEST PUSH4 0x4E487B71 PUSH1 0xE0 SHL DUP8 MSTORE PUSH1 0x22 PUSH1 0x4 MSTORE PUSH1 0x24 DUP8 REVERT JUMPDEST SWAP8 PUSH1 0x7F AND SWAP8 PUSH3 0xE5 JUMP JUMPDEST PUSH1 0x0 DUP1 REVERT JUMPDEST PUSH1 0x40 MLOAD SWAP2 SWAP1 PUSH1 0x1F ADD PUSH1 0x1F NOT AND DUP3 ADD PUSH1 0x1 PUSH1 0x1 PUSH1 0x40 SHL SUB DUP2 GT DUP4 DUP3 LT OR PUSH3 0x4AC JUMPI PUSH1 0x40 MSTORE JUMP JUMPDEST PUSH4 0x4E487B71 PUSH1 0xE0 SHL PUSH1 0x0 MSTORE PUSH1 0x41 PUSH1 0x4 MSTORE PUSH1 0x24 PUSH1 0x0 REVERT JUMPDEST SWAP2 SWAP1 DUP1 PUSH1 0x1F DUP5 ADD SLT ISZERO PUSH3 0x481 JUMPI DUP3 MLOAD PUSH1 0x1 PUSH1 0x1 PUSH1 0x40 SHL SUB DUP2 GT PUSH3 0x4AC JUMPI PUSH1 0x20 SWAP1 PUSH3 0x4F8 PUSH1 0x1F DUP3 ADD PUSH1 0x1F NOT AND DUP4 ADD PUSH3 0x486 JUMP JUMPDEST SWAP3 DUP2 DUP5 MSTORE DUP3 DUP3 DUP8 ADD ADD GT PUSH3 0x481 JUMPI PUSH1 0x0 JUMPDEST DUP2 DUP2 LT PUSH3 0x520 JUMPI POP DUP3 PUSH1 0x0 SWAP4 SWAP5 SWAP6 POP ADD ADD MSTORE SWAP1 JUMP JUMPDEST DUP6 DUP2 ADD DUP4 ADD MLOAD DUP5 DUP3 ADD DUP5 ADD MSTORE DUP3 ADD PUSH3 0x50A JUMP INVALID PUSH1 0x80 PUSH1 0x40 MSTORE PUSH1 0x4 CALLDATASIZE LT ISZERO PUSH2 0x13 JUMPI JUMPDEST PUSH1 0x0 DUP1 REVERT JUMPDEST PUSH1 0x0 CALLDATALOAD PUSH1 0xE0 SHR DUP1 PUSH3 0x1D3567 EQ PUSH2 0x4AF JUMPI DUP1 PUSH3 0x2DAF80 EQ PUSH2 0x4A6 JUMPI DUP1 PUSH4 0x1FFC9A7 EQ PUSH2 0x49D JUMPI DUP1 PUSH4 0x4C607FD EQ PUSH2 0x494 JUMPI DUP1 PUSH4 0x6FDDE03 EQ PUSH2 0x48B JUMPI DUP1 PUSH4 0x7E0DB17 EQ PUSH2 0x482 JUMPI DUP1 PUSH4 0x95EA7B3 EQ PUSH2 0x479 JUMPI DUP1 PUSH4 0xDF37483 EQ PUSH2 0x470 JUMPI DUP1 PUSH4 0x10DDB137 EQ PUSH2 0x467 JUMPI DUP1 PUSH4 0x18160DDD EQ PUSH2 0x398 JUMPI DUP1 PUSH4 0x23B872DD EQ PUSH2 0x45E JUMPI DUP1 PUSH4 0x2A205E3D EQ PUSH2 0x455 JUMPI DUP1 PUSH4 0x313CE567 EQ PUSH2 0x44C JUMPI DUP1 PUSH4 0x36715439 EQ PUSH2 0x443 JUMPI DUP1 PUSH4 0x39509351 EQ PUSH2 0x43A JUMPI DUP1 PUSH4 0x3D008497 EQ PUSH2 0x431 JUMPI DUP1 PUSH4 0x3D8B38F6 EQ PUSH2 0x428 JUMPI DUP1 PUSH4 0x3F1F4FA4 EQ PUSH2 0x41F JUMPI DUP1 PUSH4 0x40C10F19 EQ PUSH2 0x416 JUMPI DUP1 PUSH4 0x42D65A8D EQ PUSH2 0x40D JUMPI DUP1 PUSH4 0x44770515 EQ PUSH2 0x404 JUMPI DUP1 PUSH4 0x4C42899A EQ PUSH2 0x404 JUMPI DUP1 PUSH4 0x51905636 EQ PUSH2 0x3FB JUMPI DUP1 PUSH4 0x525F4B2C EQ PUSH2 0x3F2 JUMPI DUP1 PUSH4 0x5B8C41E6 EQ PUSH2 0x3E9 JUMPI DUP1 PUSH4 0x628FADB3 EQ PUSH2 0x3E0 JUMPI DUP1 PUSH4 0x66AD5C8A EQ PUSH2 0x3D7 JUMPI DUP1 PUSH4 0x70A08231 EQ PUSH2 0x3CE JUMPI DUP1 PUSH4 0x715018A6 EQ PUSH2 0x3C5 JUMPI DUP1 PUSH4 0x7533D788 EQ PUSH2 0x3BC JUMPI DUP1 PUSH4 0x7A25C916 EQ PUSH2 0x3B3 JUMPI DUP1 PUSH4 0x8CFD8F5C EQ PUSH2 0x3AA JUMPI DUP1 PUSH4 0x8DA5CB5B EQ PUSH2 0x3A1 JUMPI DUP1 PUSH4 0x9358928B EQ PUSH2 0x398 JUMPI DUP1 PUSH4 0x950C8A74 EQ PUSH2 0x38F JUMPI DUP1 PUSH4 0x95D89B41 EQ PUSH2 0x386 JUMPI DUP1 PUSH4 0x9F38369A EQ PUSH2 0x37D JUMPI DUP1 PUSH4 0xA2309FF8 EQ PUSH2 0x374 JUMPI DUP1 PUSH4 0xA457C2D7 EQ PUSH2 0x36B JUMPI DUP1 PUSH4 0xA6C3D165 EQ PUSH2 0x362 JUMPI DUP1 PUSH4 0xA9059CBB EQ PUSH2 0x359 JUMPI DUP1 PUSH4 0xB353AAA7 EQ PUSH2 0x350 JUMPI DUP1 PUSH4 0xB5D2847F EQ PUSH2 0x347 JUMPI DUP1 PUSH4 0xB672ACD3 EQ PUSH2 0x33E JUMPI DUP1 PUSH4 0xB6EFB02A EQ PUSH2 0x335 JUMPI DUP1 PUSH4 0xBAF3292D EQ PUSH2 0x32C JUMPI DUP1 PUSH4 0xC3208A8B EQ PUSH2 0x323 JUMPI DUP1 PUSH4 0xC4461834 EQ PUSH2 0x31A JUMPI DUP1 PUSH4 0xCBED8B9C EQ PUSH2 0x311 JUMPI DUP1 PUSH4 0xD1DEBA1F EQ PUSH2 0x308 JUMPI DUP1 PUSH4 0xDD62ED3E EQ PUSH2 0x2FF JUMPI DUP1 PUSH4 0xDF2A5B3B EQ PUSH2 0x2F6 JUMPI DUP1 PUSH4 0xEAB45D9C EQ PUSH2 0x2ED JUMPI DUP1 PUSH4 0xEB8D72B7 EQ PUSH2 0x2E4 JUMPI DUP1 PUSH4 0xEC81B483 EQ PUSH2 0x2DB JUMPI DUP1 PUSH4 0xED629C5C EQ PUSH2 0x2D2 JUMPI DUP1 PUSH4 0xF2FDE38B EQ PUSH2 0x2C9 JUMPI DUP1 PUSH4 0xF4E8AAFF EQ PUSH2 0x2C0 JUMPI DUP1 PUSH4 0xF5ECBDBC EQ PUSH2 0x2B7 JUMPI PUSH4 0xFC0C546A EQ PUSH2 0x2AF JUMPI PUSH1 0x0 DUP1 REVERT JUMPDEST PUSH2 0xE PUSH2 0x34A1 JUMP JUMPDEST POP PUSH2 0xE PUSH2 0x337A JUMP JUMPDEST POP PUSH2 0xE PUSH2 0x3327 JUMP JUMPDEST POP PUSH2 0xE PUSH2 0x31ED JUMP JUMPDEST POP PUSH2 0xE PUSH2 0x31AB JUMP JUMPDEST POP PUSH2 0xE PUSH2 0x3166 JUMP JUMPDEST POP PUSH2 0xE PUSH2 0x2FB0 JUMP JUMPDEST POP PUSH2 0xE PUSH2 0x2F11 JUMP JUMPDEST POP PUSH2 0xE PUSH2 0x2DE4 JUMP JUMPDEST POP PUSH2 0xE PUSH2 0x2D4F JUMP JUMPDEST POP PUSH2 0xE PUSH2 0x2BDD JUMP JUMPDEST POP PUSH2 0xE PUSH2 0x2A9B JUMP JUMPDEST POP PUSH2 0xE PUSH2 0x2A5F JUMP JUMPDEST POP PUSH2 0xE PUSH2 0x2A13 JUMP JUMPDEST POP PUSH2 0xE PUSH2 0x2963 JUMP JUMPDEST POP PUSH2 0xE PUSH2 0x2915 JUMP JUMPDEST POP PUSH2 0xE PUSH2 0x28BB JUMP JUMPDEST POP PUSH2 0xE PUSH2 0x287E JUMP JUMPDEST POP PUSH2 0xE PUSH2 0x280E JUMP JUMPDEST POP PUSH2 0xE PUSH2 0x27C5 JUMP JUMPDEST POP PUSH2 0xE PUSH2 0x25B5 JUMP JUMPDEST POP PUSH2 0xE PUSH2 0x2499 JUMP JUMPDEST POP PUSH2 0xE PUSH2 0x245C JUMP JUMPDEST POP PUSH2 0xE PUSH2 0x2371 JUMP JUMPDEST POP PUSH2 0xE PUSH2 0x232C JUMP JUMPDEST POP PUSH2 0xE PUSH2 0x22D9 JUMP JUMPDEST POP PUSH2 0xE PUSH2 0xC58 JUMP JUMPDEST POP PUSH2 0xE PUSH2 0x2286 JUMP JUMPDEST POP PUSH2 0xE PUSH2 0x220C JUMP JUMPDEST POP PUSH2 0xE PUSH2 0x1F93 JUMP JUMPDEST POP PUSH2 0xE PUSH2 0x1F31 JUMP JUMPDEST POP PUSH2 0xE PUSH2 0x1D6E JUMP JUMPDEST POP PUSH2 0xE PUSH2 0x1D04 JUMP JUMPDEST POP PUSH2 0xE PUSH2 0x1AE9 JUMP JUMPDEST POP PUSH2 0xE PUSH2 0x1953 JUMP JUMPDEST POP PUSH2 0xE PUSH2 0x1877 JUMP JUMPDEST POP PUSH2 0xE PUSH2 0x16A5 JUMP JUMPDEST POP PUSH2 0xE PUSH2 0x13B0 JUMP JUMPDEST POP PUSH2 0xE PUSH2 0x1375 JUMP JUMPDEST POP PUSH2 0xE PUSH2 0x12CB JUMP JUMPDEST POP PUSH2 0xE PUSH2 0x11DF JUMP JUMPDEST POP PUSH2 0xE PUSH2 0x1187 JUMP JUMPDEST POP PUSH2 0xE PUSH2 0x112F JUMP JUMPDEST POP PUSH2 0xE PUSH2 0x109E JUMP JUMPDEST POP PUSH2 0xE PUSH2 0x1006 JUMP JUMPDEST POP PUSH2 0xE PUSH2 0xDF1 JUMP JUMPDEST POP PUSH2 0xE PUSH2 0xD99 JUMP JUMPDEST POP PUSH2 0xE PUSH2 0xCF4 JUMP JUMPDEST POP PUSH2 0xE PUSH2 0xC95 JUMP JUMPDEST POP PUSH2 0xE PUSH2 0xB8A JUMP JUMPDEST POP PUSH2 0xE PUSH2 0xB2C JUMP JUMPDEST POP PUSH2 0xE PUSH2 0xAD8 JUMP JUMPDEST POP PUSH2 0xE PUSH2 0x9E7 JUMP JUMPDEST POP PUSH2 0xE PUSH2 0x983 JUMP JUMPDEST POP PUSH2 0xE PUSH2 0x81B JUMP JUMPDEST POP PUSH2 0xE PUSH2 0x6FA JUMP JUMPDEST POP PUSH2 0xE PUSH2 0x6A1 JUMP JUMPDEST POP PUSH2 0xE PUSH2 0x558 JUMP JUMPDEST PUSH2 0xFFFF DUP2 AND SUB PUSH2 0xE JUMPI JUMP JUMPDEST SWAP2 DUP2 PUSH1 0x1F DUP5 ADD SLT ISZERO PUSH2 0xE JUMPI DUP3 CALLDATALOAD SWAP2 PUSH8 0xFFFFFFFFFFFFFFFF DUP4 GT PUSH2 0xE JUMPI PUSH1 0x20 DUP4 DUP2 DUP7 ADD SWAP6 ADD ADD GT PUSH2 0xE JUMPI JUMP JUMPDEST SWAP1 PUSH1 0x80 DUP3 DUP3 SUB SLT PUSH2 0xE JUMPI DUP2 CALLDATALOAD PUSH2 0x508 DUP2 PUSH2 0x4B8 JUMP JUMPDEST SWAP3 PUSH8 0xFFFFFFFFFFFFFFFF SWAP1 PUSH1 0x20 DUP5 ADD CALLDATALOAD DUP3 DUP2 GT PUSH2 0xE JUMPI DUP4 PUSH2 0x52B SWAP2 DUP7 ADD PUSH2 0x4C4 JUMP JUMPDEST SWAP5 SWAP1 SWAP5 SWAP4 PUSH1 0x40 DUP3 ADD CALLDATALOAD DUP5 DUP2 AND DUP2 SUB PUSH2 0xE JUMPI SWAP4 PUSH1 0x60 DUP4 ADD CALLDATALOAD SWAP1 DUP2 GT PUSH2 0xE JUMPI PUSH2 0x554 SWAP3 ADD PUSH2 0x4C4 JUMP JUMPDEST SWAP1 SWAP2 JUMP JUMPDEST POP CALLVALUE PUSH2 0xE JUMPI PUSH2 0x569 CALLDATASIZE PUSH1 0x4 PUSH2 0x4F2 JUMP JUMPDEST SWAP2 SWAP3 SWAP5 SWAP4 SWAP1 PUSH20 0xFFFFFFFFFFFFFFFFFFFFFFFFFFFFFFFFFFFFFFFF PUSH32 0x0 AND CALLER SUB PUSH2 0x638 JUMPI PUSH2 0x5FB PUSH2 0x603 SWAP3 PUSH2 0x609 SWAP8 PUSH2 0x5F4 PUSH2 0x5DA PUSH2 0x5D5 DUP11 PUSH1 0x1 SWAP1 PUSH2 0xFFFF AND PUSH1 0x0 MSTORE PUSH1 0x20 MSTORE PUSH1 0x40 PUSH1 0x0 KECCAK256 SWAP1 JUMP JUMPDEST PUSH2 0x1F14 JUMP JUMPDEST DUP1 MLOAD SWAP1 DUP2 DUP5 EQ SWAP2 DUP3 PUSH2 0x62E JUMPI JUMPDEST POP DUP2 PUSH2 0x60B JUMPI JUMPDEST POP PUSH2 0x34DB JUMP JUMPDEST CALLDATASIZE SWAP2 PUSH2 0x181A JUMP JUMPDEST SWAP3 CALLDATASIZE SWAP2 PUSH2 0x181A JUMP JUMPDEST SWAP3 PUSH2 0x36CE JUMP JUMPDEST STOP JUMPDEST SWAP1 POP PUSH2 0x618 CALLDATASIZE DUP5 DUP7 PUSH2 0x181A JUMP JUMPDEST PUSH1 0x20 DUP2 MLOAD SWAP2 ADD KECCAK256 SWAP1 PUSH1 0x20 DUP2 MLOAD SWAP2 ADD KECCAK256 EQ CODESIZE PUSH2 0x5EE JUMP JUMPDEST ISZERO ISZERO SWAP2 POP CODESIZE PUSH2 0x5E7 JUMP JUMPDEST PUSH1 0x64 PUSH1 0x40 MLOAD PUSH32 0x8C379A000000000000000000000000000000000000000000000000000000000 DUP2 MSTORE PUSH1 0x20 PUSH1 0x4 DUP3 ADD MSTORE PUSH1 0x1E PUSH1 0x24 DUP3 ADD MSTORE PUSH32 0x4C7A4170703A20696E76616C696420656E64706F696E742063616C6C65720000 PUSH1 0x44 DUP3 ADD MSTORE REVERT JUMPDEST PUSH1 0x0 SWAP2 SUB SLT PUSH2 0xE JUMPI JUMP JUMPDEST POP CALLVALUE PUSH2 0xE JUMPI PUSH1 0x0 PUSH32 0xFFFFFFFFFFFFFFFFFFFFFFFFFFFFFFFFFFFFFFFFFFFFFFFFFFFFFFFFFFFFFFFC CALLDATASIZE ADD SLT PUSH2 0xE JUMPI PUSH1 0x20 PUSH1 0x40 MLOAD PUSH31 0xCA82AA394A9C50477A85BA3EC97709F084EA91F935210BEB4332B6A67C43F4 DUP2 MSTORE RETURN JUMPDEST POP CALLVALUE PUSH2 0xE JUMPI PUSH1 0x20 PUSH32 0xFFFFFFFFFFFFFFFFFFFFFFFFFFFFFFFFFFFFFFFFFFFFFFFFFFFFFFFFFFFFFFFC CALLDATASIZE ADD SLT PUSH2 0xE JUMPI PUSH1 0x4 CALLDATALOAD PUSH32 0xFFFFFFFF00000000000000000000000000000000000000000000000000000000 DUP2 AND DUP1 SWAP2 SUB PUSH2 0xE JUMPI DUP1 PUSH1 0x20 SWAP2 ISZERO SWAP1 DUP2 ISZERO PUSH2 0x7D3 JUMPI JUMPDEST DUP2 ISZERO PUSH2 0x776 JUMPI JUMPDEST POP PUSH1 0x40 MLOAD SWAP1 ISZERO ISZERO DUP2 MSTORE RETURN JUMPDEST PUSH32 0x14E4CEEA00000000000000000000000000000000000000000000000000000000 DUP2 EQ SWAP2 POP DUP2 ISZERO PUSH2 0x7A9 JUMPI JUMPDEST POP CODESIZE PUSH2 0x76B JUMP JUMPDEST PUSH32 0x1FFC9A700000000000000000000000000000000000000000000000000000000 SWAP2 POP EQ CODESIZE PUSH2 0x7A2 JUMP JUMPDEST PUSH32 0x36372B0700000000000000000000000000000000000000000000000000000000 DUP2 EQ SWAP2 POP PUSH2 0x764 JUMP JUMPDEST PUSH20 0xFFFFFFFFFFFFFFFFFFFFFFFFFFFFFFFFFFFFFFFF DUP2 AND SUB PUSH2 0xE JUMPI JUMP JUMPDEST POP CALLVALUE PUSH2 0xE JUMPI PUSH1 0x20 PUSH32 0xFFFFFFFFFFFFFFFFFFFFFFFFFFFFFFFFFFFFFFFFFFFFFFFFFFFFFFFFFFFFFFFC CALLDATASIZE ADD SLT PUSH2 0xE JUMPI PUSH1 0x4 CALLDATALOAD PUSH2 0x857 DUP2 PUSH2 0x7FD JUMP JUMPDEST PUSH2 0x85F PUSH2 0x411E JUMP JUMPDEST PUSH1 0xC SLOAD SWAP1 PUSH20 0xFFFFFFFFFFFFFFFFFFFFFFFFFFFFFFFFFFFFFFFF SWAP1 DUP2 DUP4 AND SWAP1 DUP2 PUSH2 0x8DF JUMPI PUSH32 0x32DD6D314014D1687CB594CE0ECA25AF20C21D064E9967C9455662F4D87307D SWAP4 PUSH1 0x40 SWAP4 PUSH32 0xFFFFFFFFFFFFFFFFFFFFFFFF0000000000000000000000000000000000000000 SWAP3 AND SWAP2 DUP3 SWAP2 AND OR PUSH1 0xC SSTORE DUP3 MLOAD SWAP2 DUP3 MSTORE PUSH1 0x20 DUP3 ADD MSTORE LOG1 STOP JUMPDEST PUSH1 0x4 PUSH1 0x40 MLOAD PUSH32 0x76D853BD00000000000000000000000000000000000000000000000000000000 DUP2 MSTORE REVERT JUMPDEST PUSH1 0x0 JUMPDEST DUP4 DUP2 LT PUSH2 0x91C JUMPI POP POP PUSH1 0x0 SWAP2 ADD MSTORE JUMP JUMPDEST DUP2 DUP2 ADD MLOAD DUP4 DUP3 ADD MSTORE PUSH1 0x20 ADD PUSH2 0x90C JUMP JUMPDEST SWAP1 PUSH32 0xFFFFFFFFFFFFFFFFFFFFFFFFFFFFFFFFFFFFFFFFFFFFFFFFFFFFFFFFFFFFFFE0 PUSH1 0x1F PUSH1 0x20 SWAP4 PUSH2 0x968 DUP2 MLOAD DUP1 SWAP3 DUP2 DUP8 MSTORE DUP8 DUP1 DUP9 ADD SWAP2 ADD PUSH2 0x909 JUMP JUMPDEST ADD AND ADD ADD SWAP1 JUMP JUMPDEST SWAP1 PUSH1 0x20 PUSH2 0x980 SWAP3 DUP2 DUP2 MSTORE ADD SWAP1 PUSH2 0x92C JUMP JUMPDEST SWAP1 JUMP JUMPDEST POP CALLVALUE PUSH2 0xE JUMPI PUSH1 0x0 PUSH32 0xFFFFFFFFFFFFFFFFFFFFFFFFFFFFFFFFFFFFFFFFFFFFFFFFFFFFFFFFFFFFFFFC CALLDATASIZE ADD SLT PUSH2 0xE JUMPI PUSH2 0x9E3 PUSH1 0x40 MLOAD PUSH2 0x9CF DUP2 PUSH2 0x9C8 DUP2 PUSH1 0xA PUSH2 0x1E5F JUMP JUMPDEST SUB DUP3 PUSH2 0x1783 JUMP JUMPDEST PUSH1 0x40 MLOAD SWAP2 DUP3 SWAP2 PUSH1 0x20 DUP4 MSTORE PUSH1 0x20 DUP4 ADD SWAP1 PUSH2 0x92C JUMP JUMPDEST SUB SWAP1 RETURN JUMPDEST POP CALLVALUE PUSH2 0xE JUMPI PUSH1 0x0 PUSH1 0x20 PUSH32 0xFFFFFFFFFFFFFFFFFFFFFFFFFFFFFFFFFFFFFFFFFFFFFFFFFFFFFFFFFFFFFFFC CALLDATASIZE ADD SLT PUSH2 0xAD5 JUMPI PUSH1 0x4 CALLDATALOAD PUSH2 0xA25 DUP2 PUSH2 0x4B8 JUMP JUMPDEST PUSH2 0xA2D PUSH2 0x411E JUMP JUMPDEST DUP2 PUSH20 0xFFFFFFFFFFFFFFFFFFFFFFFFFFFFFFFFFFFFFFFF PUSH32 0x0 AND SWAP2 DUP3 EXTCODESIZE ISZERO PUSH2 0xAD1 JUMPI PUSH2 0xFFFF PUSH1 0x24 DUP4 SWAP3 DUP4 PUSH1 0x40 MLOAD SWAP7 DUP8 SWAP5 DUP6 SWAP4 PUSH32 0x7E0DB1700000000000000000000000000000000000000000000000000000000 DUP6 MSTORE AND PUSH1 0x4 DUP5 ADD MSTORE GAS CALL DUP1 ISZERO PUSH2 0xAC4 JUMPI JUMPDEST PUSH2 0xAB6 JUMPI DUP1 RETURN JUMPDEST PUSH2 0xABF SWAP2 PUSH2 0x1783 JUMP JUMPDEST CODESIZE DUP2 DUP1 RETURN JUMPDEST PUSH2 0xACC PUSH2 0x35CE JUMP JUMPDEST PUSH2 0xAAF JUMP JUMPDEST POP DUP1 REVERT JUMPDEST DUP1 REVERT JUMPDEST POP CALLVALUE PUSH2 0xE JUMPI PUSH1 0x40 PUSH32 0xFFFFFFFFFFFFFFFFFFFFFFFFFFFFFFFFFFFFFFFFFFFFFFFFFFFFFFFFFFFFFFFC CALLDATASIZE ADD SLT PUSH2 0xE JUMPI PUSH2 0xB21 PUSH1 0x4 CALLDATALOAD PUSH2 0xB17 DUP2 PUSH2 0x7FD JUMP JUMPDEST PUSH1 0x24 CALLDATALOAD SWAP1 CALLER PUSH2 0x46B8 JUMP JUMPDEST PUSH1 0x20 PUSH1 0x40 MLOAD PUSH1 0x1 DUP2 MSTORE RETURN JUMPDEST POP CALLVALUE PUSH2 0xE JUMPI PUSH1 0x40 PUSH32 0xFFFFFFFFFFFFFFFFFFFFFFFFFFFFFFFFFFFFFFFFFFFFFFFFFFFFFFFFFFFFFFFC CALLDATASIZE ADD SLT PUSH2 0xE JUMPI PUSH2 0xFFFF PUSH1 0x4 CALLDATALOAD PUSH2 0xB6B DUP2 PUSH2 0x4B8 JUMP JUMPDEST PUSH2 0xB73 PUSH2 0x411E JUMP JUMPDEST AND PUSH1 0x0 MSTORE PUSH1 0x3 PUSH1 0x20 MSTORE PUSH1 0x24 CALLDATALOAD PUSH1 0x40 PUSH1 0x0 KECCAK256 SSTORE PUSH1 0x0 DUP1 RETURN JUMPDEST POP CALLVALUE PUSH2 0xE JUMPI PUSH1 0x0 PUSH1 0x20 PUSH32 0xFFFFFFFFFFFFFFFFFFFFFFFFFFFFFFFFFFFFFFFFFFFFFFFFFFFFFFFFFFFFFFFC CALLDATASIZE ADD SLT PUSH2 0xAD5 JUMPI PUSH1 0x4 CALLDATALOAD PUSH2 0xBC8 DUP2 PUSH2 0x4B8 JUMP JUMPDEST PUSH2 0xBD0 PUSH2 0x411E JUMP JUMPDEST DUP2 PUSH20 0xFFFFFFFFFFFFFFFFFFFFFFFFFFFFFFFFFFFFFFFF PUSH32 0x0 AND SWAP2 DUP3 EXTCODESIZE ISZERO PUSH2 0xAD1 JUMPI PUSH2 0xFFFF PUSH1 0x24 DUP4 SWAP3 DUP4 PUSH1 0x40 MLOAD SWAP7 DUP8 SWAP5 DUP6 SWAP4 PUSH32 0x10DDB13700000000000000000000000000000000000000000000000000000000 DUP6 MSTORE AND PUSH1 0x4 DUP5 ADD MSTORE GAS CALL DUP1 ISZERO PUSH2 0xAC4 JUMPI PUSH2 0xAB6 JUMPI DUP1 RETURN JUMPDEST POP CALLVALUE PUSH2 0xE JUMPI PUSH1 0x0 PUSH32 0xFFFFFFFFFFFFFFFFFFFFFFFFFFFFFFFFFFFFFFFFFFFFFFFFFFFFFFFFFFFFFFFC CALLDATASIZE ADD SLT PUSH2 0xE JUMPI PUSH1 0x20 PUSH1 0x9 SLOAD PUSH1 0x40 MLOAD SWAP1 DUP2 MSTORE RETURN JUMPDEST POP CALLVALUE PUSH2 0xE JUMPI PUSH1 0x60 PUSH32 0xFFFFFFFFFFFFFFFFFFFFFFFFFFFFFFFFFFFFFFFFFFFFFFFFFFFFFFFFFFFFFFFC CALLDATASIZE ADD SLT PUSH2 0xE JUMPI PUSH2 0xB21 PUSH1 0x4 CALLDATALOAD PUSH2 0xCD4 DUP2 PUSH2 0x7FD JUMP JUMPDEST PUSH1 0x24 CALLDATALOAD PUSH2 0xCE0 DUP2 PUSH2 0x7FD JUMP JUMPDEST PUSH1 0x44 CALLDATALOAD SWAP2 PUSH2 0xCEF DUP4 CALLER DUP4 PUSH2 0x4873 JUMP JUMPDEST PUSH2 0x42B3 JUMP JUMPDEST POP CALLVALUE PUSH2 0xE JUMPI PUSH1 0xA0 PUSH32 0xFFFFFFFFFFFFFFFFFFFFFFFFFFFFFFFFFFFFFFFFFFFFFFFFFFFFFFFFFFFFFFFC CALLDATASIZE ADD SLT PUSH2 0xE JUMPI PUSH1 0x4 CALLDATALOAD PUSH2 0xD30 DUP2 PUSH2 0x4B8 JUMP JUMPDEST PUSH8 0xFFFFFFFFFFFFFFFF SWAP1 PUSH1 0x24 CALLDATALOAD DUP3 DUP2 GT PUSH2 0xE JUMPI PUSH2 0xD52 SWAP1 CALLDATASIZE SWAP1 PUSH1 0x4 ADD PUSH2 0x4C4 JUMP JUMPDEST SWAP2 PUSH1 0x64 CALLDATALOAD SWAP1 DUP2 ISZERO ISZERO DUP3 SUB PUSH2 0xE JUMPI PUSH1 0x84 CALLDATALOAD SWAP5 DUP6 GT PUSH2 0xE JUMPI PUSH2 0xD7B PUSH2 0xD87 SWAP6 CALLDATASIZE SWAP1 PUSH1 0x4 ADD PUSH2 0x4C4 JUMP JUMPDEST SWAP5 SWAP1 SWAP4 PUSH1 0x44 CALLDATALOAD SWAP3 PUSH2 0x3A22 JUMP JUMPDEST PUSH1 0x40 DUP1 MLOAD SWAP3 DUP4 MSTORE PUSH1 0x20 DUP4 ADD SWAP2 SWAP1 SWAP2 MSTORE SWAP1 RETURN JUMPDEST POP CALLVALUE PUSH2 0xE JUMPI PUSH1 0x0 PUSH32 0xFFFFFFFFFFFFFFFFFFFFFFFFFFFFFFFFFFFFFFFFFFFFFFFFFFFFFFFFFFFFFFFC CALLDATASIZE ADD SLT PUSH2 0xE JUMPI PUSH1 0x20 PUSH1 0x40 MLOAD PUSH1 0x12 DUP2 MSTORE RETURN JUMPDEST CALLDATALOAD SWAP1 PUSH16 0xFFFFFFFFFFFFFFFFFFFFFFFFFFFFFFFF DUP3 AND DUP3 SUB PUSH2 0xE JUMPI JUMP JUMPDEST POP PUSH1 0x40 PUSH32 0xFFFFFFFFFFFFFFFFFFFFFFFFFFFFFFFFFFFFFFFFFFFFFFFFFFFFFFFFFFFFFFFC CALLDATASIZE ADD SLT PUSH2 0xE JUMPI PUSH1 0x4 CALLDATALOAD PUSH2 0xE29 PUSH1 0x24 PUSH2 0xDD4 JUMP JUMPDEST SWAP1 PUSH16 0xFFFFFFFFFFFFFFFFFFFFFFFFFFFFFFFF DUP3 AND SWAP2 DUP3 ISZERO PUSH2 0xFDC JUMPI PUSH2 0xF9C PUSH32 0x75387C78805588443C063166D08FA3A823B2AB31322A2E3C7FCFD509B9B5F5D3 SWAP4 PUSH2 0xE72 DUP5 PUSH2 0x4AE7 JUMP JUMPDEST PUSH2 0xEBF PUSH2 0xE7F PUSH1 0x3 PUSH2 0x4990 JUMP JUMPDEST SWAP2 PUSH18 0x4920616D2074680000000000000000000000 PUSH2 0xE9E PUSH1 0x0 DUP6 PUSH2 0x49DF JUMP JUMPDEST MSTORE DUP6 PUSH2 0xEAB PUSH1 0x1 DUP6 PUSH2 0x49DF JUMP JUMPDEST MSTORE DUP1 PUSH2 0xEB8 PUSH1 0x2 DUP6 PUSH2 0x49DF JUMP JUMPDEST MSTORE CALLER PUSH2 0x4597 JUMP JUMPDEST PUSH1 0x20 PUSH31 0xCA82AA394A9C50477A85BA3EC97709F084EA91F935210BEB4332B6A67C43F4 PUSH1 0xE SLOAD PUSH2 0xF1B PUSH1 0x40 MLOAD SWAP5 DUP6 SWAP4 DUP5 SWAP4 PUSH32 0x3E3AA6C500000000000000000000000000000000000000000000000000000000 DUP6 MSTORE PUSH1 0x4 DUP6 ADD PUSH2 0x4ACB JUMP JUMPDEST SUB DUP2 CALLVALUE PUSH20 0xC662C410C0ECF747543F5BA90660F6ABEBD9C8C4 GAS CALL SWAP1 DUP2 ISZERO PUSH2 0xFCF JUMPI JUMPDEST PUSH1 0x0 SWAP2 PUSH2 0xFA1 JUMPI JUMPDEST POP PUSH1 0x40 MLOAD SWAP4 DUP5 SWAP4 CALLVALUE SWAP2 CALLER DUP7 SWAP2 PUSH1 0x80 SWAP4 PUSH16 0xFFFFFFFFFFFFFFFFFFFFFFFFFFFFFFFF SWAP2 SWAP8 SWAP7 SWAP6 SWAP3 SWAP8 PUSH20 0xFFFFFFFFFFFFFFFFFFFFFFFFFFFFFFFFFFFFFFFF PUSH1 0xA0 DUP7 ADD SWAP10 AND DUP6 MSTORE PUSH1 0x20 DUP6 ADD MSTORE AND PUSH1 0x40 DUP4 ADD MSTORE PUSH1 0x60 DUP3 ADD MSTORE ADD MSTORE JUMP JUMPDEST SUB SWAP1 LOG1 STOP JUMPDEST PUSH2 0xFC2 SWAP2 POP PUSH1 0x20 RETURNDATASIZE DUP2 GT PUSH2 0xFC8 JUMPI JUMPDEST PUSH2 0xFBA DUP2 DUP4 PUSH2 0x1783 JUMP JUMPDEST DUP2 ADD SWAP1 PUSH2 0x4A88 JUMP JUMPDEST CODESIZE PUSH2 0xF45 JUMP JUMPDEST POP RETURNDATASIZE PUSH2 0xFB0 JUMP JUMPDEST PUSH2 0xFD7 PUSH2 0x35CE JUMP JUMPDEST PUSH2 0xF3D JUMP JUMPDEST PUSH1 0x4 PUSH1 0x40 MLOAD PUSH32 0xB273915500000000000000000000000000000000000000000000000000000000 DUP2 MSTORE REVERT JUMPDEST POP CALLVALUE PUSH2 0xE JUMPI PUSH1 0x40 PUSH32 0xFFFFFFFFFFFFFFFFFFFFFFFFFFFFFFFFFFFFFFFFFFFFFFFFFFFFFFFFFFFFFFFC CALLDATASIZE ADD SLT PUSH2 0xE JUMPI PUSH2 0xB21 PUSH1 0x4 CALLDATALOAD PUSH2 0x1045 DUP2 PUSH2 0x7FD JUMP JUMPDEST CALLER PUSH1 0x0 MSTORE PUSH1 0x8 PUSH1 0x20 MSTORE PUSH2 0x107C DUP2 PUSH1 0x40 PUSH1 0x0 KECCAK256 SWAP1 PUSH20 0xFFFFFFFFFFFFFFFFFFFFFFFFFFFFFFFFFFFFFFFF AND PUSH1 0x0 MSTORE PUSH1 0x20 MSTORE PUSH1 0x40 PUSH1 0x0 KECCAK256 SWAP1 JUMP JUMPDEST SLOAD SWAP1 PUSH1 0x24 CALLDATALOAD DUP3 ADD DUP1 SWAP3 GT PUSH2 0x1091 JUMPI JUMPDEST CALLER PUSH2 0x46B8 JUMP JUMPDEST PUSH2 0x1099 PUSH2 0x3689 JUMP JUMPDEST PUSH2 0x108B JUMP JUMPDEST POP CALLVALUE PUSH2 0xE JUMPI PUSH1 0x0 PUSH32 0xFFFFFFFFFFFFFFFFFFFFFFFFFFFFFFFFFFFFFFFFFFFFFFFFFFFFFFFFFFFFFFFC CALLDATASIZE ADD SLT PUSH2 0xE JUMPI PUSH1 0x20 PUSH1 0x40 MLOAD PUSH32 0x3D1BC017185460515029EA53AA632A4EB656E28BA51B4330645D15B6898626A DUP2 MSTORE RETURN JUMPDEST SWAP2 SWAP1 SWAP2 PUSH1 0x40 DUP2 DUP5 SUB SLT PUSH2 0xE JUMPI DUP1 CALLDATALOAD PUSH2 0x1110 DUP2 PUSH2 0x4B8 JUMP JUMPDEST SWAP3 PUSH1 0x20 DUP3 ADD CALLDATALOAD PUSH8 0xFFFFFFFFFFFFFFFF DUP2 GT PUSH2 0xE JUMPI PUSH2 0x554 SWAP3 ADD PUSH2 0x4C4 JUMP JUMPDEST POP CALLVALUE PUSH2 0xE JUMPI PUSH1 0x20 PUSH2 0xFFFF PUSH2 0x1178 PUSH2 0x1148 CALLDATASIZE PUSH1 0x4 PUSH2 0x10F8 JUMP JUMPDEST SWAP4 SWAP1 SWAP2 AND PUSH1 0x0 MSTORE PUSH1 0x1 DUP5 MSTORE PUSH2 0x9C8 PUSH2 0x116A PUSH1 0x40 PUSH1 0x0 KECCAK256 PUSH1 0x40 MLOAD SWAP3 DUP4 DUP1 SWAP3 PUSH2 0x1E5F JUMP JUMPDEST DUP5 DUP2 MLOAD SWAP2 ADD KECCAK256 SWAP3 CALLDATASIZE SWAP2 PUSH2 0x181A JUMP JUMPDEST DUP3 DUP2 MLOAD SWAP2 ADD KECCAK256 EQ PUSH1 0x40 MLOAD SWAP1 DUP2 MSTORE RETURN JUMPDEST POP CALLVALUE PUSH2 0xE JUMPI PUSH1 0x20 PUSH32 0xFFFFFFFFFFFFFFFFFFFFFFFFFFFFFFFFFFFFFFFFFFFFFFFFFFFFFFFFFFFFFFFC CALLDATASIZE ADD SLT PUSH2 0xE JUMPI PUSH2 0xFFFF PUSH1 0x4 CALLDATALOAD PUSH2 0x11C6 DUP2 PUSH2 0x4B8 JUMP JUMPDEST AND PUSH1 0x0 MSTORE PUSH1 0x3 PUSH1 0x20 MSTORE PUSH1 0x20 PUSH1 0x40 PUSH1 0x0 KECCAK256 SLOAD PUSH1 0x40 MLOAD SWAP1 DUP2 MSTORE RETURN JUMPDEST POP CALLVALUE PUSH2 0xE JUMPI PUSH1 0x40 PUSH32 0xFFFFFFFFFFFFFFFFFFFFFFFFFFFFFFFFFFFFFFFFFFFFFFFFFFFFFFFFFFFFFFFC CALLDATASIZE ADD SLT PUSH2 0xE JUMPI PUSH1 0x4 CALLDATALOAD PUSH2 0x121B DUP2 PUSH2 0x7FD JUMP JUMPDEST PUSH1 0x24 CALLDATALOAD PUSH20 0xFFFFFFFFFFFFFFFFFFFFFFFFFFFFFFFFFFFFFFFF PUSH1 0xC SLOAD AND CALLER SUB PUSH2 0x12A1 JUMPI PUSH1 0xD SLOAD SWAP2 DUP2 DUP4 ADD DUP1 SWAP4 GT PUSH2 0x1294 JUMPI JUMPDEST PUSH11 0x422CA8B0A00A425000000 DUP4 GT PUSH2 0x126A JUMPI PUSH2 0x609 SWAP3 PUSH1 0xD SSTORE PUSH2 0x4433 JUMP JUMPDEST PUSH1 0x4 PUSH1 0x40 MLOAD PUSH32 0x62AEF31000000000000000000000000000000000000000000000000000000000 DUP2 MSTORE REVERT JUMPDEST PUSH2 0x129C PUSH2 0x3689 JUMP JUMPDEST PUSH2 0x124C JUMP JUMPDEST PUSH1 0x4 PUSH1 0x40 MLOAD PUSH32 0xDFC8FDA800000000000000000000000000000000000000000000000000000000 DUP2 MSTORE REVERT JUMPDEST POP CALLVALUE PUSH2 0xE JUMPI PUSH2 0x12DC CALLDATASIZE PUSH1 0x4 PUSH2 0x10F8 JUMP JUMPDEST PUSH2 0x12E4 PUSH2 0x411E JUMP JUMPDEST PUSH20 0xFFFFFFFFFFFFFFFFFFFFFFFFFFFFFFFFFFFFFFFF PUSH32 0x0 AND SWAP2 DUP3 EXTCODESIZE ISZERO PUSH2 0xE JUMPI PUSH2 0x1364 SWAP4 PUSH1 0x40 MLOAD SWAP4 DUP5 DUP1 SWAP3 PUSH32 0x42D65A8D00000000000000000000000000000000000000000000000000000000 DUP3 MSTORE DUP2 PUSH1 0x0 SWAP9 DUP10 SWAP8 DUP9 SWAP8 DUP9 SWAP5 PUSH1 0x4 DUP6 ADD PUSH2 0x361A JUMP JUMPDEST SUB SWAP3 GAS CALL DUP1 ISZERO PUSH2 0xAC4 JUMPI PUSH2 0xAB6 JUMPI DUP1 RETURN JUMPDEST POP CALLVALUE PUSH2 0xE JUMPI PUSH1 0x0 PUSH32 0xFFFFFFFFFFFFFFFFFFFFFFFFFFFFFFFFFFFFFFFFFFFFFFFFFFFFFFFFFFFFFFFC CALLDATASIZE ADD SLT PUSH2 0xE JUMPI PUSH1 0x20 PUSH1 0x40 MLOAD PUSH1 0x0 DUP2 MSTORE RETURN JUMPDEST POP PUSH1 0xE0 PUSH32 0xFFFFFFFFFFFFFFFFFFFFFFFFFFFFFFFFFFFFFFFFFFFFFFFFFFFFFFFFFFFFFFFC CALLDATASIZE ADD SLT PUSH2 0xE JUMPI PUSH1 0x4 CALLDATALOAD PUSH2 0x13E7 DUP2 PUSH2 0x7FD JUMP JUMPDEST PUSH1 0x24 CALLDATALOAD SWAP1 PUSH2 0x13F4 DUP3 PUSH2 0x4B8 JUMP JUMPDEST PUSH8 0xFFFFFFFFFFFFFFFF PUSH1 0x44 CALLDATALOAD DUP2 DUP2 GT PUSH2 0xE JUMPI PUSH2 0x1415 SWAP1 CALLDATASIZE SWAP1 PUSH1 0x4 ADD PUSH2 0x4C4 JUMP JUMPDEST SWAP2 SWAP1 SWAP3 PUSH1 0x84 CALLDATALOAD SWAP2 PUSH2 0x1425 DUP4 PUSH2 0x7FD JUMP JUMPDEST PUSH1 0xA4 CALLDATALOAD SWAP4 PUSH2 0x1432 DUP6 PUSH2 0x7FD JUMP JUMPDEST PUSH1 0xC4 CALLDATALOAD SWAP2 DUP3 GT PUSH2 0xE JUMPI PUSH2 0x145A PUSH2 0x1450 PUSH2 0x1462 SWAP4 CALLDATASIZE SWAP1 PUSH1 0x4 ADD PUSH2 0x4C4 JUMP JUMPDEST SWAP8 SWAP1 SWAP3 CALLDATASIZE SWAP2 PUSH2 0x181A JUMP JUMPDEST SWAP6 CALLDATASIZE SWAP2 PUSH2 0x181A JUMP JUMPDEST SWAP2 PUSH1 0xFF PUSH1 0x6 SLOAD AND PUSH1 0x0 EQ PUSH2 0x15D7 JUMPI PUSH1 0x22 DUP4 MLOAD LT PUSH2 0x1579 JUMPI PUSH32 0x39A4C66499BCF4B56D79F0DDE8ED7A9D4925A0DF55825206B2B8531E202BE0D0 SWAP4 PUSH2 0x1561 PUSH2 0x1574 SWAP3 DUP6 PUSH2 0x1506 PUSH1 0x22 PUSH20 0xFFFFFFFFFFFFFFFFFFFFFFFFFFFFFFFFFFFFFFFF SWAP9 ADD MLOAD PUSH2 0xFFFF DUP13 AND PUSH1 0x0 MSTORE PUSH1 0x2 PUSH1 0x20 MSTORE PUSH2 0x14F3 PUSH1 0x0 PUSH2 0x14ED DUP2 PUSH1 0x40 DUP2 KECCAK256 SWAP1 PUSH2 0xFFFF AND PUSH1 0x0 MSTORE PUSH1 0x20 MSTORE PUSH1 0x40 PUSH1 0x0 KECCAK256 SWAP1 JUMP JUMPDEST SLOAD PUSH2 0x3ED1 JUMP JUMPDEST SWAP1 PUSH2 0x14FF DUP3 ISZERO ISZERO PUSH2 0x3EDE JUMP JUMPDEST LT ISZERO PUSH2 0x3F43 JUMP JUMPDEST PUSH2 0x1512 PUSH1 0x64 CALLDATALOAD DUP8 PUSH2 0x3E9E JUMP JUMPDEST SWAP4 DUP5 SWAP3 PUSH2 0x1559 DUP12 PUSH2 0x152D PUSH1 0x40 MLOAD SWAP7 DUP8 SWAP3 PUSH1 0x0 PUSH1 0x20 DUP6 ADD PUSH2 0x3BFA JUMP JUMPDEST SUB PUSH32 0xFFFFFFFFFFFFFFFFFFFFFFFFFFFFFFFFFFFFFFFFFFFFFFFFFFFFFFFFFFFFFFE0 DUP2 ADD DUP7 MSTORE DUP6 PUSH2 0x1783 JUMP JUMPDEST CALLVALUE SWAP4 DUP13 PUSH2 0x3C9B JUMP JUMPDEST PUSH2 0xFFFF PUSH1 0x40 MLOAD SWAP5 DUP6 SWAP5 AND SWAP8 AND SWAP6 DUP4 PUSH2 0x3C20 JUMP JUMPDEST SUB SWAP1 LOG3 STOP JUMPDEST PUSH1 0x64 PUSH1 0x40 MLOAD PUSH32 0x8C379A000000000000000000000000000000000000000000000000000000000 DUP2 MSTORE PUSH1 0x20 PUSH1 0x4 DUP3 ADD MSTORE PUSH1 0x1C PUSH1 0x24 DUP3 ADD MSTORE PUSH32 0x4C7A4170703A20696E76616C69642061646170746572506172616D7300000000 PUSH1 0x44 DUP3 ADD MSTORE REVERT JUMPDEST DUP3 MLOAD PUSH2 0x1621 JUMPI PUSH32 0x39A4C66499BCF4B56D79F0DDE8ED7A9D4925A0DF55825206B2B8531E202BE0D0 SWAP4 PUSH2 0x1561 PUSH2 0x1574 SWAP3 PUSH20 0xFFFFFFFFFFFFFFFFFFFFFFFFFFFFFFFFFFFFFFFF SWAP6 PUSH2 0x1506 JUMP JUMPDEST PUSH1 0x84 PUSH1 0x40 MLOAD PUSH32 0x8C379A000000000000000000000000000000000000000000000000000000000 DUP2 MSTORE PUSH1 0x20 PUSH1 0x4 DUP3 ADD MSTORE PUSH1 0x26 PUSH1 0x24 DUP3 ADD MSTORE PUSH32 0x4F4654436F72653A205F61646170746572506172616D73206D75737420626520 PUSH1 0x44 DUP3 ADD MSTORE PUSH32 0x656D7074792E0000000000000000000000000000000000000000000000000000 PUSH1 0x64 DUP3 ADD MSTORE REVERT JUMPDEST POP CALLVALUE PUSH2 0xE JUMPI PUSH1 0x20 PUSH32 0xFFFFFFFFFFFFFFFFFFFFFFFFFFFFFFFFFFFFFFFFFFFFFFFFFFFFFFFFFFFFFFFC CALLDATASIZE ADD SLT PUSH2 0xE JUMPI PUSH1 0x4 CALLDATALOAD PUSH2 0x16E0 PUSH2 0x411E JUMP JUMPDEST PUSH1 0xE SLOAD SWAP1 DUP2 PUSH2 0x1729 JUMPI PUSH1 0xE DUP2 SWAP1 SSTORE PUSH1 0x40 DUP1 MLOAD SWAP3 DUP4 MSTORE PUSH1 0x20 DUP4 ADD SWAP2 SWAP1 SWAP2 MSTORE PUSH32 0xEA9C1FAF061225CB55723C374CE38F827CB738E811EAE4379C27AFC674BABA6 SWAP2 SWAP1 DUP2 SWAP1 DUP2 ADD PUSH2 0xF9C JUMP JUMPDEST PUSH1 0x4 PUSH1 0x40 MLOAD PUSH32 0xB9514F3E00000000000000000000000000000000000000000000000000000000 DUP2 MSTORE REVERT JUMPDEST POP PUSH32 0x4E487B7100000000000000000000000000000000000000000000000000000000 PUSH1 0x0 MSTORE PUSH1 0x41 PUSH1 0x4 MSTORE PUSH1 0x24 PUSH1 0x0 REVERT JUMPDEST SWAP1 PUSH1 0x1F PUSH32 0xFFFFFFFFFFFFFFFFFFFFFFFFFFFFFFFFFFFFFFFFFFFFFFFFFFFFFFFFFFFFFFE0 SWAP2 ADD AND DUP2 ADD SWAP1 DUP2 LT PUSH8 0xFFFFFFFFFFFFFFFF DUP3 GT OR PUSH2 0x17C4 JUMPI PUSH1 0x40 MSTORE JUMP JUMPDEST PUSH2 0x17CC PUSH2 0x1753 JUMP JUMPDEST PUSH1 0x40 MSTORE JUMP JUMPDEST PUSH32 0xFFFFFFFFFFFFFFFFFFFFFFFFFFFFFFFFFFFFFFFFFFFFFFFFFFFFFFFFFFFFFFE0 PUSH1 0x1F PUSH1 0x20 SWAP3 PUSH8 0xFFFFFFFFFFFFFFFF DUP2 GT PUSH2 0x180D JUMPI JUMPDEST ADD AND ADD SWAP1 JUMP JUMPDEST PUSH2 0x1815 PUSH2 0x1753 JUMP JUMPDEST PUSH2 0x1807 JUMP JUMPDEST SWAP3 SWAP2 SWAP3 PUSH2 0x1826 DUP3 PUSH2 0x17D1 JUMP JUMPDEST SWAP2 PUSH2 0x1834 PUSH1 0x40 MLOAD SWAP4 DUP5 PUSH2 0x1783 JUMP JUMPDEST DUP3 SWAP5 DUP2 DUP5 MSTORE DUP2 DUP4 ADD GT PUSH2 0xE JUMPI DUP3 DUP2 PUSH1 0x20 SWAP4 DUP5 PUSH1 0x0 SWAP7 ADD CALLDATACOPY ADD ADD MSTORE JUMP JUMPDEST PUSH1 0x20 SWAP1 PUSH2 0x186B SWAP3 DUP3 PUSH1 0x40 MLOAD SWAP5 DUP4 DUP7 DUP1 SWAP6 MLOAD SWAP4 DUP5 SWAP3 ADD PUSH2 0x909 JUMP JUMPDEST DUP3 ADD SWAP1 DUP2 MSTORE SUB ADD SWAP1 KECCAK256 SWAP1 JUMP JUMPDEST POP CALLVALUE PUSH2 0xE JUMPI PUSH1 0x60 PUSH32 0xFFFFFFFFFFFFFFFFFFFFFFFFFFFFFFFFFFFFFFFFFFFFFFFFFFFFFFFFFFFFFFFC CALLDATASIZE ADD SLT PUSH2 0xE JUMPI PUSH1 0x4 CALLDATALOAD PUSH2 0x18B3 DUP2 PUSH2 0x4B8 JUMP JUMPDEST PUSH8 0xFFFFFFFFFFFFFFFF PUSH1 0x24 CALLDATALOAD DUP2 DUP2 GT PUSH2 0xE JUMPI CALLDATASIZE PUSH1 0x23 DUP3 ADD SLT ISZERO PUSH2 0xE JUMPI PUSH2 0x18E5 SWAP1 CALLDATASIZE SWAP1 PUSH1 0x24 DUP2 PUSH1 0x4 ADD CALLDATALOAD SWAP2 ADD PUSH2 0x181A JUMP JUMPDEST SWAP2 PUSH1 0x44 CALLDATALOAD SWAP2 DUP3 AND DUP3 SUB PUSH2 0xE JUMPI PUSH2 0x193A PUSH2 0x1943 SWAP3 PUSH2 0x1921 PUSH2 0x9E3 SWAP6 PUSH2 0x191B PUSH1 0x0 SWAP6 PUSH1 0x5 SWAP1 PUSH2 0xFFFF AND PUSH1 0x0 MSTORE PUSH1 0x20 MSTORE PUSH1 0x40 PUSH1 0x0 KECCAK256 SWAP1 JUMP JUMPDEST SWAP1 PUSH2 0x1851 JUMP JUMPDEST SWAP1 PUSH8 0xFFFFFFFFFFFFFFFF AND PUSH1 0x0 MSTORE PUSH1 0x20 MSTORE PUSH1 0x40 PUSH1 0x0 KECCAK256 SWAP1 JUMP JUMPDEST SLOAD SWAP1 PUSH1 0x3 SHL SHR SWAP1 JUMP JUMPDEST PUSH1 0x40 MLOAD SWAP1 DUP2 MSTORE SWAP1 DUP2 SWAP1 PUSH1 0x20 DUP3 ADD SWAP1 JUMP JUMPDEST POP CALLVALUE PUSH2 0xE JUMPI PUSH1 0x40 PUSH32 0xFFFFFFFFFFFFFFFFFFFFFFFFFFFFFFFFFFFFFFFFFFFFFFFFFFFFFFFFFFFFFFFC CALLDATASIZE ADD SLT PUSH2 0xE JUMPI PUSH1 0x4 CALLDATALOAD PUSH2 0x198F DUP2 PUSH2 0x7FD JUMP JUMPDEST PUSH16 0xFFFFFFFFFFFFFFFFFFFFFFFFFFFFFFFF PUSH2 0x19AA PUSH1 0x24 PUSH2 0xDD4 JUMP JUMPDEST PUSH20 0xFFFFFFFFFFFFFFFFFFFFFFFFFFFFFFFFFFFFFFFF PUSH2 0x19C9 PUSH1 0x3 PUSH2 0x4990 JUMP JUMPDEST SWAP4 PUSH18 0x4920616D2074680000000000000000000000 PUSH2 0x19E8 PUSH1 0x0 DUP8 PUSH2 0x49DF JUMP JUMPDEST MSTORE AND PUSH2 0x19F5 PUSH1 0x1 DUP6 PUSH2 0x49DF JUMP JUMPDEST MSTORE AND PUSH2 0x1A02 PUSH1 0x2 DUP4 PUSH2 0x49DF JUMP JUMPDEST MSTORE PUSH1 0xE SLOAD SWAP1 PUSH2 0x1A4E DUP2 MLOAD PUSH2 0x1A22 PUSH1 0x40 MLOAD SWAP4 DUP5 SWAP3 PUSH1 0x20 DUP5 ADD SWAP7 ADDRESS SWAP1 DUP9 PUSH2 0x4A22 JUMP JUMPDEST SUB PUSH32 0xFFFFFFFFFFFFFFFFFFFFFFFFFFFFFFFFFFFFFFFFFFFFFFFFFFFFFFFFFFFFFFE0 DUP2 ADD DUP4 MSTORE DUP3 PUSH2 0x1783 JUMP JUMPDEST MLOAD SWAP1 KECCAK256 PUSH1 0x40 MLOAD PUSH32 0xA46EFAF300000000000000000000000000000000000000000000000000000000 DUP2 MSTORE PUSH1 0x4 DUP2 ADD DUP3 SWAP1 MSTORE PUSH1 0x20 DUP2 PUSH1 0x24 DUP2 PUSH20 0xC662C410C0ECF747543F5BA90660F6ABEBD9C8C4 GAS STATICCALL SWAP1 DUP2 ISZERO PUSH2 0x1ADC JUMPI JUMPDEST PUSH1 0x0 SWAP2 PUSH2 0x1ABE JUMPI JUMPDEST POP PUSH1 0x40 DUP1 MLOAD SWAP3 DUP4 MSTORE SWAP1 ISZERO ISZERO PUSH1 0x20 DUP4 ADD MSTORE SWAP1 RETURN JUMPDEST PUSH2 0x1AD6 SWAP2 POP PUSH1 0x20 RETURNDATASIZE DUP2 GT PUSH2 0xFC8 JUMPI PUSH2 0xFBA DUP2 DUP4 PUSH2 0x1783 JUMP JUMPDEST CODESIZE PUSH2 0x1AAB JUMP JUMPDEST PUSH2 0x1AE4 PUSH2 0x35CE JUMP JUMPDEST PUSH2 0x1AA3 JUMP JUMPDEST POP CALLVALUE PUSH2 0xE JUMPI PUSH2 0x1AFA CALLDATASIZE PUSH1 0x4 PUSH2 0x4F2 JUMP JUMPDEST SWAP2 POP SWAP2 ADDRESS CALLER SUB PUSH2 0x1C80 JUMPI PUSH2 0x1B1B SWAP4 PUSH2 0x1B13 SWAP2 CALLDATASIZE SWAP2 PUSH2 0x181A JUMP JUMPDEST POP CALLDATASIZE SWAP2 PUSH2 0x181A JUMP JUMPDEST PUSH1 0x20 DUP1 DUP3 ADD SWAP1 PUSH2 0xFFFF SWAP2 DUP3 DUP2 MLOAD AND ISZERO PUSH1 0x0 EQ PUSH2 0x1C22 JUMPI DUP4 MLOAD DUP5 ADD SWAP1 PUSH1 0x60 DUP6 DUP4 SUB SLT PUSH2 0xE JUMPI PUSH2 0x1B4A SWAP1 MLOAD PUSH2 0x4B8 JUMP JUMPDEST PUSH1 0x40 DUP5 ADD MLOAD SWAP1 PUSH8 0xFFFFFFFFFFFFFFFF DUP3 GT PUSH2 0xE JUMPI PUSH1 0x60 SWAP2 DUP4 DUP1 PUSH2 0x1B72 SWAP4 ADD SWAP2 DUP8 ADD ADD PUSH2 0x3566 JUMP JUMPDEST SWAP4 ADD MLOAD SWAP3 PUSH1 0x14 DUP2 MLOAD LT PUSH2 0x1BC4 JUMPI ADD MLOAD PUSH1 0x60 SHR SWAP3 PUSH32 0xBF551EC93859B170F9B2141BD9298BF3F64322C6F7BEB2543A0CB669834118BF SWAP2 SWAP1 PUSH2 0x1BB2 DUP5 DUP7 PUSH2 0x4433 JUMP JUMPDEST PUSH1 0x40 MLOAD SWAP4 DUP5 MSTORE AND SWAP2 DUP1 PUSH1 0x20 DUP2 ADD PUSH2 0x1574 JUMP JUMPDEST PUSH1 0x64 DUP3 PUSH1 0x40 MLOAD SWAP1 PUSH32 0x8C379A000000000000000000000000000000000000000000000000000000000 DUP3 MSTORE PUSH1 0x4 DUP3 ADD MSTORE PUSH1 0x15 PUSH1 0x24 DUP3 ADD MSTORE PUSH32 0x746F416464726573735F6F75744F66426F756E64730000000000000000000000 PUSH1 0x44 DUP3 ADD MSTORE REVERT JUMPDEST PUSH1 0x64 DUP3 PUSH1 0x40 MLOAD SWAP1 PUSH32 0x8C379A000000000000000000000000000000000000000000000000000000000 DUP3 MSTORE PUSH1 0x4 DUP3 ADD MSTORE PUSH1 0x1C PUSH1 0x24 DUP3 ADD MSTORE PUSH32 0x4F4654436F72653A20756E6B6E6F776E207061636B6574207479706500000000 PUSH1 0x44 DUP3 ADD MSTORE REVERT JUMPDEST PUSH1 0x84 PUSH1 0x40 MLOAD PUSH32 0x8C379A000000000000000000000000000000000000000000000000000000000 DUP2 MSTORE PUSH1 0x20 PUSH1 0x4 DUP3 ADD MSTORE PUSH1 0x26 PUSH1 0x24 DUP3 ADD MSTORE PUSH32 0x4E6F6E626C6F636B696E674C7A4170703A2063616C6C6572206D757374206265 PUSH1 0x44 DUP3 ADD MSTORE PUSH32 0x204C7A4170700000000000000000000000000000000000000000000000000000 PUSH1 0x64 DUP3 ADD MSTORE REVERT JUMPDEST POP CALLVALUE PUSH2 0xE JUMPI PUSH1 0x20 PUSH32 0xFFFFFFFFFFFFFFFFFFFFFFFFFFFFFFFFFFFFFFFFFFFFFFFFFFFFFFFFFFFFFFFC CALLDATASIZE ADD SLT PUSH2 0xE JUMPI PUSH20 0xFFFFFFFFFFFFFFFFFFFFFFFFFFFFFFFFFFFFFFFF PUSH1 0x4 CALLDATALOAD PUSH2 0x1D55 DUP2 PUSH2 0x7FD JUMP JUMPDEST AND PUSH1 0x0 MSTORE PUSH1 0x7 PUSH1 0x20 MSTORE PUSH1 0x20 PUSH1 0x40 PUSH1 0x0 KECCAK256 SLOAD PUSH1 0x40 MLOAD SWAP1 DUP2 MSTORE RETURN JUMPDEST POP CALLVALUE PUSH2 0xE JUMPI PUSH1 0x0 DUP1 PUSH32 0xFFFFFFFFFFFFFFFFFFFFFFFFFFFFFFFFFFFFFFFFFFFFFFFFFFFFFFFFFFFFFFFC CALLDATASIZE ADD SLT PUSH2 0xAD5 JUMPI PUSH2 0x1DA7 PUSH2 0x411E JUMP JUMPDEST DUP1 PUSH20 0xFFFFFFFFFFFFFFFFFFFFFFFFFFFFFFFFFFFFFFFF DUP2 SLOAD PUSH32 0xFFFFFFFFFFFFFFFFFFFFFFFF0000000000000000000000000000000000000000 DUP2 AND DUP4 SSTORE AND PUSH32 0x8BE0079C531659141344CD1FD0A4F28419497F9722A3DAAFE3B4186F6B6457E0 DUP3 DUP1 LOG3 DUP1 RETURN JUMPDEST SWAP1 PUSH1 0x1 DUP3 DUP2 SHR SWAP3 AND DUP1 ISZERO PUSH2 0x1E55 JUMPI JUMPDEST PUSH1 0x20 DUP4 LT EQ PUSH2 0x1E26 JUMPI JUMP JUMPDEST PUSH32 0x4E487B7100000000000000000000000000000000000000000000000000000000 PUSH1 0x0 MSTORE PUSH1 0x22 PUSH1 0x4 MSTORE PUSH1 0x24 PUSH1 0x0 REVERT JUMPDEST SWAP2 PUSH1 0x7F AND SWAP2 PUSH2 0x1E1B JUMP JUMPDEST SWAP1 PUSH1 0x0 SWAP3 SWAP2 DUP1 SLOAD SWAP2 PUSH2 0x1E70 DUP4 PUSH2 0x1E0C JUMP JUMPDEST SWAP2 DUP3 DUP3 MSTORE PUSH1 0x1 SWAP4 DUP5 DUP2 AND SWAP1 DUP2 PUSH1 0x0 EQ PUSH2 0x1ED2 JUMPI POP PUSH1 0x1 EQ PUSH2 0x1E92 JUMPI JUMPDEST POP POP POP POP JUMP JUMPDEST SWAP1 SWAP2 SWAP4 SWAP5 POP PUSH1 0x0 MSTORE PUSH1 0x20 SWAP3 DUP4 PUSH1 0x0 KECCAK256 SWAP3 DUP5 PUSH1 0x0 SWAP5 JUMPDEST DUP4 DUP7 LT PUSH2 0x1EBE JUMPI POP POP POP POP ADD ADD SWAP1 CODESIZE DUP1 DUP1 DUP1 PUSH2 0x1E8C JUMP JUMPDEST DUP1 SLOAD DUP6 DUP8 ADD DUP4 ADD MSTORE SWAP5 ADD SWAP4 DUP6 SWAP1 DUP3 ADD PUSH2 0x1EA7 JUMP JUMPDEST SWAP2 POP POP PUSH1 0x20 SWAP5 SWAP6 POP PUSH32 0xFFFFFFFFFFFFFFFFFFFFFFFFFFFFFFFFFFFFFFFFFFFFFFFFFFFFFFFFFFFFFF00 SWAP2 SWAP4 POP AND DUP4 DUP4 ADD MSTORE ISZERO ISZERO PUSH1 0x5 SHL ADD ADD SWAP1 CODESIZE DUP1 DUP1 DUP1 PUSH2 0x1E8C JUMP JUMPDEST SWAP1 PUSH2 0x1F2F PUSH2 0x1F28 SWAP3 PUSH1 0x40 MLOAD SWAP4 DUP5 DUP1 SWAP3 PUSH2 0x1E5F JUMP JUMPDEST SUB DUP4 PUSH2 0x1783 JUMP JUMPDEST JUMP JUMPDEST POP CALLVALUE PUSH2 0xE JUMPI PUSH1 0x20 PUSH32 0xFFFFFFFFFFFFFFFFFFFFFFFFFFFFFFFFFFFFFFFFFFFFFFFFFFFFFFFFFFFFFFFC CALLDATASIZE ADD SLT PUSH2 0xE JUMPI PUSH2 0xFFFF PUSH1 0x4 CALLDATALOAD PUSH2 0x1F70 DUP2 PUSH2 0x4B8 JUMP JUMPDEST AND PUSH1 0x0 MSTORE PUSH1 0x1 PUSH1 0x20 MSTORE PUSH2 0x9E3 PUSH2 0x9C8 PUSH2 0x9CF PUSH1 0x40 PUSH1 0x0 KECCAK256 PUSH1 0x40 MLOAD SWAP3 DUP4 DUP1 SWAP3 PUSH2 0x1E5F JUMP JUMPDEST POP PUSH1 0x40 PUSH32 0xFFFFFFFFFFFFFFFFFFFFFFFFFFFFFFFFFFFFFFFFFFFFFFFFFFFFFFFFFFFFFFFC CALLDATASIZE ADD SLT PUSH2 0xE JUMPI PUSH1 0x4 CALLDATALOAD PUSH2 0x1FCA DUP2 PUSH2 0x7FD JUMP JUMPDEST PUSH2 0x1FD4 PUSH1 0x24 PUSH2 0xDD4 JUMP JUMPDEST PUSH16 0xFFFFFFFFFFFFFFFFFFFFFFFFFFFFFFFF DUP2 AND SWAP2 DUP3 ISZERO PUSH2 0xFDC JUMPI PUSH2 0xF9C PUSH32 0xE29D3DE91AA5368BE7383CBE2D3745A1B785343283F19AEEEED44F0832F8133A SWAP4 PUSH2 0x201D PUSH1 0x3 PUSH2 0x4990 JUMP JUMPDEST PUSH18 0x4920616D2074680000000000000000000000 PUSH2 0x203B PUSH1 0x0 DUP4 PUSH2 0x49DF JUMP JUMPDEST MSTORE PUSH20 0xFFFFFFFFFFFFFFFFFFFFFFFFFFFFFFFFFFFFFFFF DUP5 AND PUSH2 0x205E PUSH1 0x1 DUP4 PUSH2 0x49DF JUMP JUMPDEST MSTORE DUP2 PUSH2 0x206B PUSH1 0x2 DUP4 PUSH2 0x49DF JUMP JUMPDEST MSTORE PUSH1 0xE SLOAD SWAP1 PUSH1 0x40 MLOAD SWAP3 PUSH32 0x2C9DD5C000000000000000000000000000000000000000000000000000000000 DUP5 MSTORE DUP4 PUSH2 0x20A8 DUP4 PUSH1 0x20 SWAP6 PUSH1 0x4 DUP5 ADD PUSH2 0x4B9C JUMP JUMPDEST SUB SWAP1 DUP4 DUP6 PUSH20 0xC662C410C0ECF747543F5BA90660F6ABEBD9C8C4 SWAP4 DUP2 PUSH1 0x0 DUP7 GAS CALL SWAP5 DUP6 ISZERO PUSH2 0x21FF JUMPI JUMPDEST PUSH1 0x0 SWAP6 PUSH2 0x21D2 JUMPI JUMPDEST POP SWAP2 DUP4 SWAP2 PUSH2 0x20E9 PUSH2 0x2143 SWAP5 DUP10 PUSH2 0x4433 JUMP JUMPDEST PUSH32 0x3D1BC017185460515029EA53AA632A4EB656E28BA51B4330645D15B6898626A PUSH1 0xE SLOAD PUSH1 0x40 MLOAD SWAP6 DUP7 SWAP5 DUP6 SWAP4 DUP5 SWAP4 PUSH32 0x3E3AA6C500000000000000000000000000000000000000000000000000000000 DUP6 MSTORE PUSH1 0x4 DUP6 ADD PUSH2 0x4ACB JUMP JUMPDEST SUB SWAP2 CALLVALUE SWAP1 GAS CALL DUP1 ISZERO PUSH2 0x21C5 JUMPI JUMPDEST PUSH2 0x21A7 JUMPI JUMPDEST POP POP PUSH1 0x40 MLOAD SWAP4 DUP5 SWAP4 CALLER DUP6 SWAP1 PUSH1 0x60 SWAP3 SWAP6 SWAP5 SWAP4 PUSH16 0xFFFFFFFFFFFFFFFFFFFFFFFFFFFFFFFF SWAP2 PUSH1 0x80 DUP5 ADD SWAP8 PUSH20 0xFFFFFFFFFFFFFFFFFFFFFFFFFFFFFFFFFFFFFFFF DUP1 SWAP3 AND DUP6 MSTORE AND PUSH1 0x20 DUP5 ADD MSTORE AND PUSH1 0x40 DUP3 ADD MSTORE ADD MSTORE JUMP JUMPDEST DUP2 PUSH2 0x21BD SWAP3 SWAP1 RETURNDATASIZE LT PUSH2 0xFC8 JUMPI PUSH2 0xFBA DUP2 DUP4 PUSH2 0x1783 JUMP JUMPDEST POP CODESIZE DUP1 PUSH2 0x2155 JUMP JUMPDEST PUSH2 0x21CD PUSH2 0x35CE JUMP JUMPDEST PUSH2 0x2150 JUMP JUMPDEST PUSH2 0x2143 SWAP4 SWAP2 SWAP6 POP SWAP2 PUSH2 0x20E9 PUSH2 0x21F4 DUP7 SWAP5 DUP6 RETURNDATASIZE DUP8 GT PUSH2 0xFC8 JUMPI PUSH2 0xFBA DUP2 DUP4 PUSH2 0x1783 JUMP JUMPDEST SWAP7 SWAP3 SWAP5 POP POP SWAP2 PUSH2 0x20D8 JUMP JUMPDEST PUSH2 0x2207 PUSH2 0x35CE JUMP JUMPDEST PUSH2 0x20D0 JUMP JUMPDEST POP CALLVALUE PUSH2 0xE JUMPI PUSH1 0x40 PUSH32 0xFFFFFFFFFFFFFFFFFFFFFFFFFFFFFFFFFFFFFFFFFFFFFFFFFFFFFFFFFFFFFFFC CALLDATASIZE ADD SLT PUSH2 0xE JUMPI PUSH1 0x20 PUSH2 0x227D PUSH1 0x4 CALLDATALOAD PUSH2 0x224D DUP2 PUSH2 0x4B8 JUMP JUMPDEST PUSH2 0xFFFF PUSH1 0x24 CALLDATALOAD SWAP2 PUSH2 0x225D DUP4 PUSH2 0x4B8 JUMP JUMPDEST AND PUSH1 0x0 MSTORE PUSH1 0x2 DUP4 MSTORE PUSH1 0x40 PUSH1 0x0 KECCAK256 SWAP1 PUSH2 0xFFFF AND PUSH1 0x0 MSTORE PUSH1 0x20 MSTORE PUSH1 0x40 PUSH1 0x0 KECCAK256 SWAP1 JUMP JUMPDEST SLOAD PUSH1 0x40 MLOAD SWAP1 DUP2 MSTORE RETURN JUMPDEST POP CALLVALUE PUSH2 0xE JUMPI PUSH1 0x0 PUSH32 0xFFFFFFFFFFFFFFFFFFFFFFFFFFFFFFFFFFFFFFFFFFFFFFFFFFFFFFFFFFFFFFFC CALLDATASIZE ADD SLT PUSH2 0xE JUMPI PUSH1 0x20 PUSH20 0xFFFFFFFFFFFFFFFFFFFFFFFFFFFFFFFFFFFFFFFF PUSH1 0x0 SLOAD AND PUSH1 0x40 MLOAD SWAP1 DUP2 MSTORE RETURN JUMPDEST POP CALLVALUE PUSH2 0xE JUMPI PUSH1 0x0 PUSH32 0xFFFFFFFFFFFFFFFFFFFFFFFFFFFFFFFFFFFFFFFFFFFFFFFFFFFFFFFFFFFFFFFC CALLDATASIZE ADD SLT PUSH2 0xE JUMPI PUSH1 0x20 PUSH20 0xFFFFFFFFFFFFFFFFFFFFFFFFFFFFFFFFFFFFFFFF PUSH1 0x4 SLOAD AND PUSH1 0x40 MLOAD SWAP1 DUP2 MSTORE RETURN JUMPDEST POP CALLVALUE PUSH2 0xE JUMPI PUSH1 0x0 PUSH32 0xFFFFFFFFFFFFFFFFFFFFFFFFFFFFFFFFFFFFFFFFFFFFFFFFFFFFFFFFFFFFFFFC CALLDATASIZE ADD SLT PUSH2 0xE JUMPI PUSH2 0x9E3 PUSH1 0x40 MLOAD PUSH2 0x9CF DUP2 PUSH2 0x9C8 DUP2 PUSH1 0xB PUSH2 0x1E5F JUMP JUMPDEST POP CALLVALUE PUSH2 0xE JUMPI PUSH1 0x20 PUSH32 0xFFFFFFFFFFFFFFFFFFFFFFFFFFFFFFFFFFFFFFFFFFFFFFFFFFFFFFFFFFFFFFFC CALLDATASIZE ADD SLT PUSH2 0xE JUMPI PUSH2 0xFFFF PUSH1 0x4 CALLDATALOAD PUSH2 0x23B0 DUP2 PUSH2 0x4B8 JUMP JUMPDEST AND PUSH1 0x0 MSTORE PUSH1 0x1 PUSH1 0x20 MSTORE PUSH2 0x9C8 PUSH2 0x23D0 PUSH1 0x40 PUSH1 0x0 KECCAK256 PUSH1 0x40 MLOAD SWAP3 DUP4 DUP1 SWAP3 PUSH2 0x1E5F JUMP JUMPDEST DUP1 MLOAD ISZERO PUSH2 0x23FE JUMPI PUSH2 0x23F2 DUP2 PUSH1 0x0 PUSH2 0x23EC PUSH1 0x14 PUSH2 0x9E3 SWAP6 MLOAD PUSH2 0x36B9 JUMP JUMPDEST SWAP2 PUSH2 0x4072 JUMP JUMPDEST PUSH1 0x40 MLOAD SWAP2 DUP3 SWAP2 DUP3 PUSH2 0x96F JUMP JUMPDEST PUSH1 0x64 PUSH1 0x40 MLOAD PUSH32 0x8C379A000000000000000000000000000000000000000000000000000000000 DUP2 MSTORE PUSH1 0x20 PUSH1 0x4 DUP3 ADD MSTORE PUSH1 0x1D PUSH1 0x24 DUP3 ADD MSTORE PUSH32 0x4C7A4170703A206E6F20747275737465642070617468207265636F7264000000 PUSH1 0x44 DUP3 ADD MSTORE REVERT JUMPDEST POP CALLVALUE PUSH2 0xE JUMPI PUSH1 0x0 PUSH32 0xFFFFFFFFFFFFFFFFFFFFFFFFFFFFFFFFFFFFFFFFFFFFFFFFFFFFFFFFFFFFFFFC CALLDATASIZE ADD SLT PUSH2 0xE JUMPI PUSH1 0x20 PUSH1 0xD SLOAD PUSH1 0x40 MLOAD SWAP1 DUP2 MSTORE RETURN JUMPDEST POP CALLVALUE PUSH2 0xE JUMPI PUSH1 0x40 PUSH32 0xFFFFFFFFFFFFFFFFFFFFFFFFFFFFFFFFFFFFFFFFFFFFFFFFFFFFFFFFFFFFFFFC CALLDATASIZE ADD SLT PUSH2 0xE JUMPI PUSH1 0x4 CALLDATALOAD PUSH2 0x24D5 DUP2 PUSH2 0x7FD JUMP JUMPDEST PUSH1 0x24 CALLDATALOAD SWAP1 CALLER PUSH1 0x0 MSTORE PUSH1 0x8 PUSH1 0x20 MSTORE PUSH2 0x2510 DUP2 PUSH1 0x40 PUSH1 0x0 KECCAK256 SWAP1 PUSH20 0xFFFFFFFFFFFFFFFFFFFFFFFFFFFFFFFFFFFFFFFF AND PUSH1 0x0 MSTORE PUSH1 0x20 MSTORE PUSH1 0x40 PUSH1 0x0 KECCAK256 SWAP1 JUMP JUMPDEST SLOAD SWAP2 DUP1 DUP4 LT PUSH2 0x2531 JUMPI PUSH2 0x2525 SWAP3 SUB SWAP1 CALLER PUSH2 0x46B8 JUMP JUMPDEST PUSH1 0x40 MLOAD PUSH1 0x1 DUP2 MSTORE PUSH1 0x20 SWAP1 RETURN JUMPDEST PUSH1 0x84 PUSH1 0x40 MLOAD PUSH32 0x8C379A000000000000000000000000000000000000000000000000000000000 DUP2 MSTORE PUSH1 0x20 PUSH1 0x4 DUP3 ADD MSTORE PUSH1 0x25 PUSH1 0x24 DUP3 ADD MSTORE PUSH32 0x45524332303A2064656372656173656420616C6C6F77616E63652062656C6F77 PUSH1 0x44 DUP3 ADD MSTORE PUSH32 0x207A65726F000000000000000000000000000000000000000000000000000000 PUSH1 0x64 DUP3 ADD MSTORE REVERT JUMPDEST POP CALLVALUE PUSH2 0xE JUMPI PUSH2 0x25C6 CALLDATASIZE PUSH1 0x4 PUSH2 0x10F8 JUMP JUMPDEST SWAP1 PUSH2 0x25CF PUSH2 0x411E JUMP JUMPDEST PUSH1 0x40 MLOAD SWAP3 PUSH1 0x20 SWAP3 DUP1 DUP4 DUP6 DUP8 ADD CALLDATACOPY PUSH2 0x25FB PUSH1 0x34 DUP7 DUP4 DUP2 ADD ADDRESS PUSH1 0x60 SHL DUP9 DUP3 ADD MSTORE SUB PUSH1 0x14 DUP2 ADD DUP9 MSTORE ADD DUP7 PUSH2 0x1783 JUMP JUMPDEST PUSH1 0x0 SWAP4 PUSH2 0xFFFF DUP4 AND DUP6 MSTORE PUSH1 0x1 SWAP1 DUP2 DUP2 MSTORE PUSH1 0x40 DUP7 KECCAK256 SWAP2 DUP8 MLOAD SWAP2 PUSH8 0xFFFFFFFFFFFFFFFF DUP4 GT PUSH2 0x27B8 JUMPI JUMPDEST PUSH2 0x2637 DUP4 PUSH2 0x2631 DUP7 SLOAD PUSH2 0x1E0C JUMP JUMPDEST DUP7 PUSH2 0x3635 JUMP JUMPDEST DUP1 PUSH1 0x1F DUP5 GT PUSH1 0x1 EQ PUSH2 0x26E6 JUMPI POP SWAP1 DUP3 DUP1 PUSH2 0x26B5 SWAP7 SWAP6 SWAP5 SWAP4 DUP11 SWAP12 PUSH32 0x8C0400CFE2D1199B1A725C78960BCC2A344D869B80590D0F2BD005DB15A572CE SWAP12 SWAP4 PUSH2 0x26BB JUMPI JUMPDEST POP POP PUSH32 0xFFFFFFFFFFFFFFFFFFFFFFFFFFFFFFFFFFFFFFFFFFFFFFFFFFFFFFFFFFFFFFFF SWAP2 SWAP3 SHL SWAP3 PUSH1 0x3 SHL SHR NOT AND OR SWAP1 SSTORE JUMPDEST PUSH1 0x40 MLOAD SWAP4 DUP5 SWAP4 DUP5 PUSH2 0x361A JUMP JUMPDEST SUB SWAP1 LOG1 DUP1 RETURN JUMPDEST ADD MLOAD SWAP2 POP PUSH32 0xFFFFFFFFFFFFFFFFFFFFFFFFFFFFFFFFFFFFFFFFFFFFFFFFFFFFFFFFFFFFFFFF CODESIZE PUSH2 0x2678 JUMP JUMPDEST SWAP2 SWAP4 SWAP5 SWAP9 PUSH32 0xFFFFFFFFFFFFFFFFFFFFFFFFFFFFFFFFFFFFFFFFFFFFFFFFFFFFFFFFFFFFFFE0 DUP5 AND PUSH2 0x271C DUP8 PUSH1 0x0 MSTORE PUSH1 0x20 PUSH1 0x0 KECCAK256 SWAP1 JUMP JUMPDEST SWAP4 DUP11 SWAP1 JUMPDEST DUP3 DUP3 LT PUSH2 0x27A1 JUMPI POP POP SWAP2 PUSH32 0x8C0400CFE2D1199B1A725C78960BCC2A344D869B80590D0F2BD005DB15A572CE SWAP10 SWAP11 SWAP6 SWAP4 SWAP2 DUP6 PUSH2 0x26B5 SWAP9 SWAP7 SWAP5 LT PUSH2 0x276A JUMPI JUMPDEST POP POP POP DUP2 SHL ADD SWAP1 SSTORE PUSH2 0x26A9 JUMP JUMPDEST ADD MLOAD PUSH32 0xFFFFFFFFFFFFFFFFFFFFFFFFFFFFFFFFFFFFFFFFFFFFFFFFFFFFFFFFFFFFFFFF PUSH1 0xF8 DUP5 PUSH1 0x3 SHL AND SHR NOT AND SWAP1 SSTORE CODESIZE DUP1 DUP1 PUSH2 0x275D JUMP JUMPDEST DUP1 DUP9 DUP7 SWAP8 DUP3 SWAP5 SWAP8 DUP8 ADD MLOAD DUP2 SSTORE ADD SWAP7 ADD SWAP5 ADD SWAP1 PUSH2 0x2720 JUMP JUMPDEST PUSH2 0x27C0 PUSH2 0x1753 JUMP JUMPDEST PUSH2 0x2623 JUMP JUMPDEST POP CALLVALUE PUSH2 0xE JUMPI PUSH1 0x40 PUSH32 0xFFFFFFFFFFFFFFFFFFFFFFFFFFFFFFFFFFFFFFFFFFFFFFFFFFFFFFFFFFFFFFFC CALLDATASIZE ADD SLT PUSH2 0xE JUMPI PUSH2 0xB21 PUSH1 0x4 CALLDATALOAD PUSH2 0x2804 DUP2 PUSH2 0x7FD JUMP JUMPDEST PUSH1 0x24 CALLDATALOAD SWAP1 CALLER PUSH2 0x42B3 JUMP JUMPDEST POP CALLVALUE PUSH2 0xE JUMPI PUSH1 0x0 PUSH32 0xFFFFFFFFFFFFFFFFFFFFFFFFFFFFFFFFFFFFFFFFFFFFFFFFFFFFFFFFFFFFFFFC CALLDATASIZE ADD SLT PUSH2 0xE JUMPI PUSH1 0x20 PUSH1 0x40 MLOAD PUSH20 0xFFFFFFFFFFFFFFFFFFFFFFFFFFFFFFFFFFFFFFFF PUSH32 0x0 AND DUP2 MSTORE RETURN JUMPDEST POP CALLVALUE PUSH2 0xE JUMPI PUSH1 0x0 PUSH32 0xFFFFFFFFFFFFFFFFFFFFFFFFFFFFFFFFFFFFFFFFFFFFFFFFFFFFFFFFFFFFFFFC CALLDATASIZE ADD SLT PUSH2 0xE JUMPI PUSH1 0x20 PUSH1 0xE SLOAD PUSH1 0x40 MLOAD SWAP1 DUP2 MSTORE RETURN JUMPDEST POP CALLVALUE PUSH2 0xE JUMPI PUSH1 0x0 PUSH32 0xFFFFFFFFFFFFFFFFFFFFFFFFFFFFFFFFFFFFFFFFFFFFFFFFFFFFFFFFFFFFFFFC CALLDATASIZE ADD SLT PUSH2 0xE JUMPI PUSH1 0x20 PUSH1 0x40 MLOAD PUSH32 0x800000000000011000000000000000000000000000000000000000000000001 DUP2 MSTORE RETURN JUMPDEST POP CALLVALUE PUSH2 0xE JUMPI PUSH1 0x0 PUSH32 0xFFFFFFFFFFFFFFFFFFFFFFFFFFFFFFFFFFFFFFFFFFFFFFFFFFFFFFFFFFFFFFFC CALLDATASIZE ADD SLT PUSH2 0xE JUMPI PUSH1 0x20 PUSH1 0x40 MLOAD PUSH20 0xC662C410C0ECF747543F5BA90660F6ABEBD9C8C4 DUP2 MSTORE RETURN JUMPDEST POP CALLVALUE PUSH2 0xE JUMPI PUSH1 0x20 PUSH32 0xFFFFFFFFFFFFFFFFFFFFFFFFFFFFFFFFFFFFFFFFFFFFFFFFFFFFFFFFFFFFFFFC CALLDATASIZE ADD SLT PUSH2 0xE JUMPI PUSH32 0x5DB758E995A17EC1AD84BDEF7E8C3293A0BD6179BCCE400DFF5D4C3D87DB726B PUSH1 0x20 PUSH20 0xFFFFFFFFFFFFFFFFFFFFFFFFFFFFFFFFFFFFFFFF PUSH1 0x4 CALLDATALOAD PUSH2 0x29D7 DUP2 PUSH2 0x7FD JUMP JUMPDEST PUSH2 0x29DF PUSH2 0x411E JUMP JUMPDEST AND DUP1 PUSH32 0xFFFFFFFFFFFFFFFFFFFFFFFF0000000000000000000000000000000000000000 PUSH1 0x4 SLOAD AND OR PUSH1 0x4 SSTORE PUSH1 0x40 MLOAD SWAP1 DUP2 MSTORE LOG1 STOP JUMPDEST POP CALLVALUE PUSH2 0xE JUMPI PUSH1 0x0 PUSH32 0xFFFFFFFFFFFFFFFFFFFFFFFFFFFFFFFFFFFFFFFFFFFFFFFFFFFFFFFFFFFFFFFC CALLDATASIZE ADD SLT PUSH2 0xE JUMPI PUSH1 0x20 PUSH1 0x40 MLOAD PUSH18 0x4920616D2074680000000000000000000000 DUP2 MSTORE RETURN JUMPDEST POP CALLVALUE PUSH2 0xE JUMPI PUSH1 0x0 PUSH32 0xFFFFFFFFFFFFFFFFFFFFFFFFFFFFFFFFFFFFFFFFFFFFFFFFFFFFFFFFFFFFFFFC CALLDATASIZE ADD SLT PUSH2 0xE JUMPI PUSH1 0x20 PUSH1 0x40 MLOAD PUSH2 0x2710 DUP2 MSTORE RETURN JUMPDEST POP CALLVALUE PUSH2 0xE JUMPI PUSH1 0x80 PUSH32 0xFFFFFFFFFFFFFFFFFFFFFFFFFFFFFFFFFFFFFFFFFFFFFFFFFFFFFFFFFFFFFFFC CALLDATASIZE ADD SLT PUSH2 0xE JUMPI PUSH1 0x4 CALLDATALOAD PUSH2 0x2AD7 DUP2 PUSH2 0x4B8 JUMP JUMPDEST PUSH1 0x24 CALLDATALOAD PUSH2 0x2AE3 DUP2 PUSH2 0x4B8 JUMP JUMPDEST PUSH1 0x64 CALLDATALOAD PUSH8 0xFFFFFFFFFFFFFFFF DUP2 GT PUSH2 0xE JUMPI PUSH2 0x2B03 SWAP1 CALLDATASIZE SWAP1 PUSH1 0x4 ADD PUSH2 0x4C4 JUMP JUMPDEST SWAP1 SWAP3 PUSH2 0x2B0D PUSH2 0x411E JUMP JUMPDEST PUSH20 0xFFFFFFFFFFFFFFFFFFFFFFFFFFFFFFFFFFFFFFFF PUSH32 0x0 AND SWAP1 DUP2 EXTCODESIZE ISZERO PUSH2 0xE JUMPI PUSH1 0x0 DUP1 SWAP5 PUSH2 0x2BAA PUSH1 0x40 MLOAD SWAP8 DUP9 SWAP7 DUP8 SWAP6 DUP7 SWAP5 PUSH32 0xCBED8B9C00000000000000000000000000000000000000000000000000000000 DUP7 MSTORE PUSH2 0xFFFF DUP1 SWAP3 AND PUSH1 0x4 DUP8 ADD MSTORE AND PUSH1 0x24 DUP6 ADD MSTORE PUSH1 0x44 CALLDATALOAD PUSH1 0x44 DUP6 ADD MSTORE PUSH1 0x80 PUSH1 0x64 DUP6 ADD MSTORE PUSH1 0x84 DUP5 ADD SWAP2 PUSH2 0x35DB JUMP JUMPDEST SUB SWAP3 GAS CALL DUP1 ISZERO PUSH2 0x2BD0 JUMPI JUMPDEST PUSH2 0x2BBB JUMPI STOP JUMPDEST DUP1 PUSH2 0x2BCA PUSH1 0x0 PUSH2 0x609 SWAP4 PUSH2 0x1783 JUMP JUMPDEST DUP1 PUSH2 0x696 JUMP JUMPDEST PUSH2 0x2BD8 PUSH2 0x35CE JUMP JUMPDEST PUSH2 0x2BB5 JUMP JUMPDEST POP PUSH2 0x2BE9 CALLDATASIZE PUSH1 0x4 PUSH2 0x4F2 JUMP JUMPDEST SWAP2 PUSH2 0xFFFF DUP7 SWAP5 SWAP3 SWAP7 AND PUSH1 0x0 MSTORE PUSH1 0x5 PUSH1 0x20 MSTORE PUSH2 0x2C31 DUP2 PUSH1 0x40 PUSH1 0x0 KECCAK256 PUSH1 0x20 PUSH1 0x40 MLOAD DUP1 SWAP3 DUP8 DUP12 DUP4 CALLDATACOPY DUP8 DUP3 ADD SWAP1 DUP2 MSTORE SUB ADD SWAP1 KECCAK256 SWAP1 PUSH8 0xFFFFFFFFFFFFFFFF AND PUSH1 0x0 MSTORE PUSH1 0x20 MSTORE PUSH1 0x40 PUSH1 0x0 KECCAK256 SWAP1 JUMP JUMPDEST SLOAD SWAP2 DUP3 ISZERO PUSH2 0x2CCB JUMPI PUSH32 0xC264D91F3ADC5588250E1551F547752CA0CFA8F6B530D243B9F9F4CAB10EA8E5 SWAP7 PUSH2 0xF9C SWAP5 PUSH2 0x2CBF SWAP2 PUSH2 0x2CB9 SWAP2 PUSH1 0x0 PUSH2 0x2CAD DUP8 PUSH2 0x1921 DUP14 DUP10 PUSH2 0x2CA7 DUP16 PUSH2 0x2C92 DUP16 PUSH2 0x2C85 CALLDATASIZE DUP13 DUP15 PUSH2 0x181A JUMP JUMPDEST PUSH1 0x20 DUP2 MLOAD SWAP2 ADD KECCAK256 EQ PUSH2 0x38F5 JUMP JUMPDEST PUSH1 0x5 SWAP1 PUSH2 0xFFFF AND PUSH1 0x0 MSTORE PUSH1 0x20 MSTORE PUSH1 0x40 PUSH1 0x0 KECCAK256 SWAP1 JUMP JUMPDEST SWAP2 PUSH2 0x38DC JUMP JUMPDEST SSTORE PUSH2 0x1B13 CALLDATASIZE DUP7 DUP13 PUSH2 0x181A JUMP JUMPDEST DUP7 PUSH2 0x3B4F JUMP JUMPDEST PUSH1 0x40 MLOAD SWAP6 DUP7 SWAP6 DUP7 PUSH2 0x3980 JUMP JUMPDEST PUSH1 0x84 PUSH1 0x40 MLOAD PUSH32 0x8C379A000000000000000000000000000000000000000000000000000000000 DUP2 MSTORE PUSH1 0x20 PUSH1 0x4 DUP3 ADD MSTORE PUSH1 0x23 PUSH1 0x24 DUP3 ADD MSTORE PUSH32 0x4E6F6E626C6F636B696E674C7A4170703A206E6F2073746F726564206D657373 PUSH1 0x44 DUP3 ADD MSTORE PUSH32 0x6167650000000000000000000000000000000000000000000000000000000000 PUSH1 0x64 DUP3 ADD MSTORE REVERT JUMPDEST POP CALLVALUE PUSH2 0xE JUMPI PUSH1 0x40 PUSH32 0xFFFFFFFFFFFFFFFFFFFFFFFFFFFFFFFFFFFFFFFFFFFFFFFFFFFFFFFFFFFFFFFC CALLDATASIZE ADD SLT PUSH2 0xE JUMPI PUSH1 0x20 PUSH2 0x227D PUSH1 0x4 CALLDATALOAD PUSH2 0x2D90 DUP2 PUSH2 0x7FD JUMP JUMPDEST PUSH20 0xFFFFFFFFFFFFFFFFFFFFFFFFFFFFFFFFFFFFFFFF PUSH1 0x24 CALLDATALOAD SWAP2 PUSH2 0x2DB2 DUP4 PUSH2 0x7FD JUMP JUMPDEST AND PUSH1 0x0 MSTORE PUSH1 0x8 DUP4 MSTORE PUSH1 0x40 PUSH1 0x0 KECCAK256 SWAP1 PUSH20 0xFFFFFFFFFFFFFFFFFFFFFFFFFFFFFFFFFFFFFFFF AND PUSH1 0x0 MSTORE PUSH1 0x20 MSTORE PUSH1 0x40 PUSH1 0x0 KECCAK256 SWAP1 JUMP JUMPDEST POP CALLVALUE PUSH2 0xE JUMPI PUSH1 0x60 PUSH32 0xFFFFFFFFFFFFFFFFFFFFFFFFFFFFFFFFFFFFFFFFFFFFFFFFFFFFFFFFFFFFFFFC CALLDATASIZE ADD SLT PUSH2 0xE JUMPI PUSH1 0x4 CALLDATALOAD PUSH2 0x2E20 DUP2 PUSH2 0x4B8 JUMP JUMPDEST PUSH1 0x24 CALLDATALOAD PUSH2 0x2E2C DUP2 PUSH2 0x4B8 JUMP JUMPDEST PUSH1 0x44 CALLDATALOAD SWAP2 PUSH2 0x2E38 PUSH2 0x411E JUMP JUMPDEST DUP3 ISZERO PUSH2 0x2EB3 JUMPI PUSH2 0xF9C PUSH32 0x9D5C7C0B934DA8FEFA9C7760C98383778A12DFBFC0C3B3106518F43FB9508AC0 SWAP4 PUSH2 0xFFFF DUP4 AND PUSH1 0x0 MSTORE PUSH1 0x2 PUSH1 0x20 MSTORE DUP1 PUSH2 0x2E8D DUP6 PUSH1 0x40 PUSH1 0x0 KECCAK256 SWAP1 PUSH2 0xFFFF AND PUSH1 0x0 MSTORE PUSH1 0x20 MSTORE PUSH1 0x40 PUSH1 0x0 KECCAK256 SWAP1 JUMP JUMPDEST SSTORE PUSH1 0x40 MLOAD SWAP4 DUP5 SWAP4 DUP5 PUSH1 0x40 SWAP2 SWAP5 SWAP4 SWAP3 SWAP5 PUSH1 0x60 DUP3 ADD SWAP6 PUSH2 0xFFFF DUP1 SWAP3 AND DUP4 MSTORE AND PUSH1 0x20 DUP3 ADD MSTORE ADD MSTORE JUMP JUMPDEST PUSH1 0x64 PUSH1 0x40 MLOAD PUSH32 0x8C379A000000000000000000000000000000000000000000000000000000000 DUP2 MSTORE PUSH1 0x20 PUSH1 0x4 DUP3 ADD MSTORE PUSH1 0x15 PUSH1 0x24 DUP3 ADD MSTORE PUSH32 0x4C7A4170703A20696E76616C6964206D696E4761730000000000000000000000 PUSH1 0x44 DUP3 ADD MSTORE REVERT JUMPDEST POP CALLVALUE PUSH2 0xE JUMPI PUSH1 0x20 PUSH32 0xFFFFFFFFFFFFFFFFFFFFFFFFFFFFFFFFFFFFFFFFFFFFFFFFFFFFFFFFFFFFFFFC CALLDATASIZE ADD SLT PUSH2 0xE JUMPI PUSH1 0x4 CALLDATALOAD DUP1 ISZERO ISZERO DUP1 SWAP2 SUB PUSH2 0xE JUMPI PUSH1 0x20 PUSH32 0x1584AD594A70CBE1E6515592E1272A987D922B097EAD875069CEBE8B40C004A4 SWAP2 PUSH2 0x2F7A PUSH2 0x411E JUMP JUMPDEST PUSH32 0xFFFFFFFFFFFFFFFFFFFFFFFFFFFFFFFFFFFFFFFFFFFFFFFFFFFFFFFFFFFFFF00 PUSH1 0x6 SLOAD AND PUSH1 0xFF DUP3 AND OR PUSH1 0x6 SSTORE PUSH1 0x40 MLOAD SWAP1 DUP2 MSTORE LOG1 STOP JUMPDEST POP CALLVALUE PUSH2 0xE JUMPI PUSH2 0x2FC1 CALLDATASIZE PUSH1 0x4 PUSH2 0x10F8 JUMP JUMPDEST SWAP2 SWAP1 PUSH2 0x2FCB PUSH2 0x411E JUMP JUMPDEST PUSH1 0x0 SWAP2 PUSH2 0xFFFF DUP2 AND DUP4 MSTORE PUSH1 0x1 PUSH1 0x20 SWAP1 DUP1 DUP3 MSTORE PUSH1 0x40 DUP6 KECCAK256 SWAP2 PUSH8 0xFFFFFFFFFFFFFFFF DUP8 GT PUSH2 0x3159 JUMPI JUMPDEST PUSH2 0x3006 DUP8 PUSH2 0x3000 DUP6 SLOAD PUSH2 0x1E0C JUMP JUMPDEST DUP6 PUSH2 0x3635 JUMP JUMPDEST DUP6 SWAP1 PUSH1 0x1F DUP9 GT PUSH1 0x1 EQ PUSH2 0x308B JUMPI POP SWAP2 DUP7 DUP1 DUP8 SWAP9 SWAP4 PUSH2 0x26B5 SWAP6 PUSH32 0xFA41487AD5D6728F0B19276FA1EDDC16558578F5109FC39D2DC33C3230470DAB SWAP10 SWAP4 PUSH2 0x3080 JUMPI JUMPDEST POP SHL SWAP1 PUSH32 0xFFFFFFFFFFFFFFFFFFFFFFFFFFFFFFFFFFFFFFFFFFFFFFFFFFFFFFFFFFFFFFFF DUP5 PUSH1 0x3 SHL SHR NOT AND OR SWAP1 SSTORE PUSH1 0x40 MLOAD SWAP4 DUP5 SWAP4 DUP5 PUSH2 0x361A JUMP JUMPDEST DUP9 ADD CALLDATALOAD SWAP3 POP CODESIZE PUSH2 0x3046 JUMP JUMPDEST SWAP1 PUSH32 0xFFFFFFFFFFFFFFFFFFFFFFFFFFFFFFFFFFFFFFFFFFFFFFFFFFFFFFFFFFFFFFE0 DUP9 AND PUSH2 0x30BE DUP6 PUSH1 0x0 MSTORE PUSH1 0x20 PUSH1 0x0 KECCAK256 SWAP1 JUMP JUMPDEST SWAP3 DUP9 SWAP1 JUMPDEST DUP3 DUP3 LT PUSH2 0x3142 JUMPI POP POP SWAP2 DUP9 SWAP4 SWAP2 PUSH32 0xFA41487AD5D6728F0B19276FA1EDDC16558578F5109FC39D2DC33C3230470DAB SWAP9 SWAP10 PUSH2 0x26B5 SWAP7 SWAP5 LT PUSH2 0x310A JUMPI JUMPDEST POP POP DUP3 DUP2 SHL ADD SWAP1 SSTORE PUSH2 0x26A9 JUMP JUMPDEST PUSH32 0xFFFFFFFFFFFFFFFFFFFFFFFFFFFFFFFFFFFFFFFFFFFFFFFFFFFFFFFFFFFFFFFF PUSH1 0xF8 DUP7 PUSH1 0x3 SHL AND SHR NOT SWAP1 DUP9 ADD CALLDATALOAD AND SWAP1 SSTORE CODESIZE DUP1 PUSH2 0x30FD JUMP JUMPDEST DUP1 DUP7 DUP6 SWAP7 DUP3 SWAP5 SWAP7 DUP13 ADD CALLDATALOAD DUP2 SSTORE ADD SWAP6 ADD SWAP4 ADD SWAP1 PUSH2 0x30C2 JUMP JUMPDEST PUSH2 0x3161 PUSH2 0x1753 JUMP JUMPDEST PUSH2 0x2FF2 JUMP JUMPDEST POP CALLVALUE PUSH2 0xE JUMPI PUSH1 0x0 PUSH32 0xFFFFFFFFFFFFFFFFFFFFFFFFFFFFFFFFFFFFFFFFFFFFFFFFFFFFFFFFFFFFFFFC CALLDATASIZE ADD SLT PUSH2 0xE JUMPI PUSH1 0x20 PUSH1 0x40 MLOAD PUSH11 0x422CA8B0A00A425000000 DUP2 MSTORE RETURN JUMPDEST POP CALLVALUE PUSH2 0xE JUMPI PUSH1 0x0 PUSH32 0xFFFFFFFFFFFFFFFFFFFFFFFFFFFFFFFFFFFFFFFFFFFFFFFFFFFFFFFFFFFFFFFC CALLDATASIZE ADD SLT PUSH2 0xE JUMPI PUSH1 0x20 PUSH1 0xFF PUSH1 0x6 SLOAD AND PUSH1 0x40 MLOAD SWAP1 ISZERO ISZERO DUP2 MSTORE RETURN JUMPDEST POP CALLVALUE PUSH2 0xE JUMPI PUSH1 0x20 PUSH32 0xFFFFFFFFFFFFFFFFFFFFFFFFFFFFFFFFFFFFFFFFFFFFFFFFFFFFFFFFFFFFFFFC CALLDATASIZE ADD SLT PUSH2 0xE JUMPI PUSH1 0x4 CALLDATALOAD PUSH2 0x3229 DUP2 PUSH2 0x7FD JUMP JUMPDEST PUSH2 0x3231 PUSH2 0x411E JUMP JUMPDEST PUSH20 0xFFFFFFFFFFFFFFFFFFFFFFFFFFFFFFFFFFFFFFFF DUP1 SWAP2 AND DUP1 ISZERO PUSH2 0x32A3 JUMPI PUSH1 0x0 SWAP2 DUP3 SLOAD DUP3 PUSH32 0xFFFFFFFFFFFFFFFFFFFFFFFF0000000000000000000000000000000000000000 DUP3 AND OR DUP5 SSTORE AND PUSH32 0x8BE0079C531659141344CD1FD0A4F28419497F9722A3DAAFE3B4186F6B6457E0 DUP4 DUP1 LOG3 DUP1 RETURN JUMPDEST PUSH1 0x84 PUSH1 0x40 MLOAD PUSH32 0x8C379A000000000000000000000000000000000000000000000000000000000 DUP2 MSTORE PUSH1 0x20 PUSH1 0x4 DUP3 ADD MSTORE PUSH1 0x26 PUSH1 0x24 DUP3 ADD MSTORE PUSH32 0x4F776E61626C653A206E6577206F776E657220697320746865207A65726F2061 PUSH1 0x44 DUP3 ADD MSTORE PUSH32 0x6464726573730000000000000000000000000000000000000000000000000000 PUSH1 0x64 DUP3 ADD MSTORE REVERT JUMPDEST POP CALLVALUE PUSH2 0xE JUMPI PUSH1 0x0 PUSH32 0xFFFFFFFFFFFFFFFFFFFFFFFFFFFFFFFFFFFFFFFFFFFFFFFFFFFFFFFFFFFFFFFC CALLDATASIZE ADD SLT PUSH2 0xE JUMPI PUSH1 0x20 PUSH20 0xFFFFFFFFFFFFFFFFFFFFFFFFFFFFFFFFFFFFFFFF PUSH1 0xC SLOAD AND PUSH1 0x40 MLOAD SWAP1 DUP2 MSTORE RETURN JUMPDEST POP CALLVALUE PUSH2 0xE JUMPI PUSH1 0x80 PUSH32 0xFFFFFFFFFFFFFFFFFFFFFFFFFFFFFFFFFFFFFFFFFFFFFFFFFFFFFFFFFFFFFFFC CALLDATASIZE ADD SLT PUSH2 0xE JUMPI PUSH2 0x9E3 PUSH1 0x4 CALLDATALOAD PUSH2 0x33B9 DUP2 PUSH2 0x4B8 JUMP JUMPDEST PUSH1 0x24 CALLDATALOAD SWAP1 PUSH2 0x33C6 DUP3 PUSH2 0x4B8 JUMP JUMPDEST PUSH2 0x33D1 PUSH1 0x44 CALLDATALOAD PUSH2 0x7FD JUMP JUMPDEST PUSH1 0x40 MLOAD SWAP2 PUSH32 0xF5ECBDBC00000000000000000000000000000000000000000000000000000000 DUP4 MSTORE PUSH2 0xFFFF DUP1 SWAP3 AND PUSH1 0x4 DUP5 ADD MSTORE AND PUSH1 0x24 DUP3 ADD MSTORE ADDRESS PUSH1 0x44 DUP3 ADD MSTORE PUSH1 0x64 CALLDATALOAD PUSH1 0x64 DUP3 ADD MSTORE PUSH1 0x0 DUP2 PUSH1 0x84 DUP2 PUSH20 0xFFFFFFFFFFFFFFFFFFFFFFFFFFFFFFFFFFFFFFFF PUSH32 0x0 AND GAS STATICCALL SWAP1 DUP2 ISZERO PUSH2 0x3494 JUMPI JUMPDEST PUSH1 0x0 SWAP2 PUSH2 0x3473 JUMPI JUMPDEST POP PUSH1 0x40 MLOAD SWAP2 DUP3 SWAP2 DUP3 PUSH2 0x96F JUMP JUMPDEST PUSH2 0x348E SWAP2 RETURNDATASIZE DUP1 SWAP2 DUP4 RETURNDATACOPY PUSH2 0x3486 DUP2 DUP4 PUSH2 0x1783 JUMP JUMPDEST DUP2 ADD SWAP1 PUSH2 0x35A8 JUMP JUMPDEST CODESIZE PUSH2 0x3466 JUMP JUMPDEST PUSH2 0x349C PUSH2 0x35CE JUMP JUMPDEST PUSH2 0x345E JUMP JUMPDEST POP CALLVALUE PUSH2 0xE JUMPI PUSH1 0x0 PUSH32 0xFFFFFFFFFFFFFFFFFFFFFFFFFFFFFFFFFFFFFFFFFFFFFFFFFFFFFFFFFFFFFFFC CALLDATASIZE ADD SLT PUSH2 0xE JUMPI PUSH1 0x20 PUSH1 0x40 MLOAD ADDRESS DUP2 MSTORE RETURN JUMPDEST ISZERO PUSH2 0x34E2 JUMPI JUMP JUMPDEST PUSH1 0x84 PUSH1 0x40 MLOAD PUSH32 0x8C379A000000000000000000000000000000000000000000000000000000000 DUP2 MSTORE PUSH1 0x20 PUSH1 0x4 DUP3 ADD MSTORE PUSH1 0x26 PUSH1 0x24 DUP3 ADD MSTORE PUSH32 0x4C7A4170703A20696E76616C696420736F757263652073656E64696E6720636F PUSH1 0x44 DUP3 ADD MSTORE PUSH32 0x6E74726163740000000000000000000000000000000000000000000000000000 PUSH1 0x64 DUP3 ADD MSTORE REVERT JUMPDEST DUP2 PUSH1 0x1F DUP3 ADD SLT ISZERO PUSH2 0xE JUMPI DUP1 MLOAD PUSH2 0x357C DUP2 PUSH2 0x17D1 JUMP JUMPDEST SWAP3 PUSH2 0x358A PUSH1 0x40 MLOAD SWAP5 DUP6 PUSH2 0x1783 JUMP JUMPDEST DUP2 DUP5 MSTORE PUSH1 0x20 DUP3 DUP5 ADD ADD GT PUSH2 0xE JUMPI PUSH2 0x980 SWAP2 PUSH1 0x20 DUP1 DUP6 ADD SWAP2 ADD PUSH2 0x909 JUMP JUMPDEST SWAP1 PUSH1 0x20 DUP3 DUP3 SUB SLT PUSH2 0xE JUMPI DUP2 MLOAD PUSH8 0xFFFFFFFFFFFFFFFF DUP2 GT PUSH2 0xE JUMPI PUSH2 0x980 SWAP3 ADD PUSH2 0x3566 JUMP JUMPDEST POP PUSH1 0x40 MLOAD RETURNDATASIZE PUSH1 0x0 DUP3 RETURNDATACOPY RETURNDATASIZE SWAP1 REVERT JUMPDEST PUSH1 0x1F DUP3 PUSH1 0x20 SWAP5 SWAP4 PUSH32 0xFFFFFFFFFFFFFFFFFFFFFFFFFFFFFFFFFFFFFFFFFFFFFFFFFFFFFFFFFFFFFFE0 SWAP4 DUP2 DUP7 MSTORE DUP7 DUP7 ADD CALLDATACOPY PUSH1 0x0 DUP6 DUP3 DUP7 ADD ADD MSTORE ADD AND ADD ADD SWAP1 JUMP JUMPDEST PUSH1 0x40 SWAP1 PUSH2 0xFFFF PUSH2 0x980 SWAP6 SWAP4 AND DUP2 MSTORE DUP2 PUSH1 0x20 DUP3 ADD MSTORE ADD SWAP2 PUSH2 0x35DB JUMP JUMPDEST SWAP1 PUSH1 0x1F DUP2 GT PUSH2 0x3643 JUMPI POP POP POP JUMP JUMPDEST PUSH1 0x0 SWAP2 DUP3 MSTORE PUSH1 0x20 DUP3 KECCAK256 SWAP1 PUSH1 0x20 PUSH1 0x1F DUP6 ADD PUSH1 0x5 SHR DUP4 ADD SWAP5 LT PUSH2 0x367F JUMPI JUMPDEST PUSH1 0x1F ADD PUSH1 0x5 SHR ADD SWAP2 JUMPDEST DUP3 DUP2 LT PUSH2 0x3674 JUMPI POP POP POP JUMP JUMPDEST DUP2 DUP2 SSTORE PUSH1 0x1 ADD PUSH2 0x3668 JUMP JUMPDEST SWAP1 SWAP3 POP DUP3 SWAP1 PUSH2 0x365F JUMP JUMPDEST POP PUSH32 0x4E487B7100000000000000000000000000000000000000000000000000000000 PUSH1 0x0 MSTORE PUSH1 0x11 PUSH1 0x4 MSTORE PUSH1 0x24 PUSH1 0x0 REVERT JUMPDEST SWAP2 SWAP1 DUP3 SUB SWAP2 DUP3 GT PUSH2 0x36C6 JUMPI JUMP JUMPDEST PUSH2 0x1F2F PUSH2 0x3689 JUMP JUMPDEST SWAP3 SWAP1 SWAP2 GAS SWAP3 PUSH1 0x40 MLOAD SWAP4 PUSH1 0x20 DUP6 ADD SWAP1 PUSH32 0x66AD5C8A00000000000000000000000000000000000000000000000000000000 DUP3 MSTORE PUSH2 0xFFFF DUP8 AND PUSH1 0x24 DUP8 ADD MSTORE PUSH1 0x80 PUSH1 0x44 DUP8 ADD MSTORE DUP6 PUSH2 0x3761 PUSH2 0x3721 PUSH1 0xA4 DUP4 ADD DUP7 PUSH2 0x92C JUMP JUMPDEST PUSH8 0xFFFFFFFFFFFFFFFF DUP8 AND PUSH1 0x64 DUP5 ADD MSTORE PUSH32 0xFFFFFFFFFFFFFFFFFFFFFFFFFFFFFFFFFFFFFFFFFFFFFFFFFFFFFFFFFFFFFFDC DUP4 DUP3 SUB ADD PUSH1 0x84 DUP5 ADD MSTORE DUP8 PUSH2 0x92C JUMP JUMPDEST SUB SWAP2 PUSH2 0x3793 PUSH32 0xFFFFFFFFFFFFFFFFFFFFFFFFFFFFFFFFFFFFFFFFFFFFFFFFFFFFFFFFFFFFFFE0 SWAP4 DUP5 DUP2 ADD DUP10 MSTORE DUP9 PUSH2 0x1783 JUMP JUMPDEST PUSH1 0x0 SWAP2 DUP3 SWAP2 DUP3 PUSH2 0x37A3 PUSH1 0x96 PUSH2 0x17D1 JUMP JUMPDEST SWAP10 PUSH2 0x37B1 PUSH1 0x40 MLOAD SWAP12 DUP13 PUSH2 0x1783 JUMP JUMPDEST PUSH1 0x96 DUP12 MSTORE PUSH2 0x37BF PUSH1 0x96 PUSH2 0x17D1 JUMP JUMPDEST PUSH1 0x20 DUP13 ADD SWAP8 ADD CALLDATASIZE DUP9 CALLDATACOPY MLOAD SWAP3 ADDRESS SWAP1 CALL SWAP1 RETURNDATASIZE SWAP1 PUSH1 0x96 DUP3 GT PUSH2 0x3800 JUMPI JUMPDEST PUSH1 0x0 SWAP1 DUP3 DUP9 MSTORE RETURNDATACOPY ISZERO PUSH2 0x37ED JUMPI JUMPDEST POP POP POP POP POP JUMP JUMPDEST PUSH2 0x37F6 SWAP5 PUSH2 0x3809 JUMP JUMPDEST CODESIZE DUP1 DUP1 DUP1 DUP1 PUSH2 0x37E6 JUMP JUMPDEST PUSH1 0x96 SWAP2 POP PUSH2 0x37D9 JUMP JUMPDEST SWAP2 SWAP4 PUSH2 0x38C9 PUSH32 0xE183F33DE2837795525B4792CA4CD60535BD77C53B7E7030060BFCF5734D6B0C SWAP6 PUSH2 0x38D7 SWAP4 SWAP6 PUSH2 0xFFFF DUP2 MLOAD PUSH1 0x20 DUP4 ADD KECCAK256 SWAP7 AND SWAP6 DUP7 PUSH1 0x0 MSTORE PUSH1 0x5 PUSH1 0x20 MSTORE PUSH2 0x388F DUP4 PUSH2 0x386D PUSH1 0x20 DUP12 PUSH1 0x40 PUSH1 0x0 KECCAK256 DUP3 PUSH1 0x40 MLOAD SWAP5 DUP4 DUP7 DUP1 SWAP6 MLOAD SWAP4 DUP5 SWAP3 ADD PUSH2 0x909 JUMP JUMPDEST DUP3 ADD SWAP1 DUP2 MSTORE SUB ADD SWAP1 KECCAK256 SWAP1 PUSH8 0xFFFFFFFFFFFFFFFF AND PUSH1 0x0 MSTORE PUSH1 0x20 MSTORE PUSH1 0x40 PUSH1 0x0 KECCAK256 SWAP1 JUMP JUMPDEST SSTORE PUSH8 0xFFFFFFFFFFFFFFFF PUSH2 0x38B5 PUSH1 0x40 MLOAD SWAP9 DUP10 SWAP9 DUP10 MSTORE PUSH1 0xA0 PUSH1 0x20 DUP11 ADD MSTORE PUSH1 0xA0 DUP10 ADD SWAP1 PUSH2 0x92C JUMP JUMPDEST SWAP3 AND PUSH1 0x40 DUP8 ADD MSTORE DUP6 DUP3 SUB PUSH1 0x60 DUP8 ADD MSTORE PUSH2 0x92C JUMP JUMPDEST SWAP1 DUP4 DUP3 SUB PUSH1 0x80 DUP6 ADD MSTORE PUSH2 0x92C JUMP JUMPDEST SUB SWAP1 LOG1 JUMP JUMPDEST PUSH1 0x20 SWAP2 SWAP3 DUP4 PUSH1 0x40 MLOAD SWAP5 DUP6 SWAP4 DUP5 CALLDATACOPY DUP3 ADD SWAP1 DUP2 MSTORE SUB ADD SWAP1 KECCAK256 SWAP1 JUMP JUMPDEST ISZERO PUSH2 0x38FC JUMPI JUMP JUMPDEST PUSH1 0x84 PUSH1 0x40 MLOAD PUSH32 0x8C379A000000000000000000000000000000000000000000000000000000000 DUP2 MSTORE PUSH1 0x20 PUSH1 0x4 DUP3 ADD MSTORE PUSH1 0x21 PUSH1 0x24 DUP3 ADD MSTORE PUSH32 0x4E6F6E626C6F636B696E674C7A4170703A20696E76616C6964207061796C6F61 PUSH1 0x44 DUP3 ADD MSTORE PUSH32 0x6400000000000000000000000000000000000000000000000000000000000000 PUSH1 0x64 DUP3 ADD MSTORE REVERT JUMPDEST SWAP2 PUSH2 0x39AD SWAP1 PUSH1 0x60 SWAP5 PUSH2 0xFFFF PUSH8 0xFFFFFFFFFFFFFFFF SWAP5 SWAP10 SWAP9 SWAP8 SWAP10 AND DUP6 MSTORE PUSH1 0x80 PUSH1 0x20 DUP7 ADD MSTORE PUSH1 0x80 DUP6 ADD SWAP2 PUSH2 0x35DB JUMP JUMPDEST SWAP6 AND PUSH1 0x40 DUP3 ADD MSTORE ADD MSTORE JUMP JUMPDEST SWAP2 SWAP1 DUP3 PUSH1 0x40 SWAP2 SUB SLT PUSH2 0xE JUMPI PUSH1 0x20 DUP3 MLOAD SWAP3 ADD MLOAD SWAP1 JUMP JUMPDEST SWAP2 SWAP3 PUSH20 0xFFFFFFFFFFFFFFFFFFFFFFFFFFFFFFFFFFFFFFFF PUSH2 0x980 SWAP8 SWAP6 SWAP7 SWAP5 PUSH2 0xFFFF PUSH2 0x3A0D SWAP5 AND DUP6 MSTORE AND PUSH1 0x20 DUP5 ADD MSTORE PUSH1 0xA0 PUSH1 0x40 DUP5 ADD MSTORE PUSH1 0xA0 DUP4 ADD SWAP1 PUSH2 0x92C JUMP JUMPDEST SWAP4 ISZERO ISZERO PUSH1 0x60 DUP3 ADD MSTORE PUSH1 0x80 DUP2 DUP6 SUB SWAP2 ADD MSTORE PUSH2 0x35DB JUMP JUMPDEST SWAP2 SWAP5 SWAP6 PUSH2 0x3ABB SWAP2 SWAP4 SWAP5 SWAP8 SWAP7 PUSH2 0x3A86 PUSH1 0x40 SWAP8 DUP9 SWAP8 PUSH2 0x3A54 DUP10 MLOAD SWAP9 DUP10 SWAP4 PUSH1 0x0 PUSH1 0x20 DUP7 ADD MSTORE PUSH1 0x60 DUP13 DUP7 ADD MSTORE PUSH1 0x80 DUP6 ADD SWAP2 PUSH2 0x35DB JUMP JUMPDEST SWAP1 PUSH1 0x60 DUP4 ADD MSTORE SUB PUSH32 0xFFFFFFFFFFFFFFFFFFFFFFFFFFFFFFFFFFFFFFFFFFFFFFFFFFFFFFFFFFFFFFE0 DUP2 ADD DUP8 MSTORE DUP7 PUSH2 0x1783 JUMP JUMPDEST DUP6 MLOAD SWAP9 DUP10 SWAP6 DUP7 SWAP6 PUSH32 0x40A7BB1000000000000000000000000000000000000000000000000000000000 DUP8 MSTORE ADDRESS SWAP1 PUSH1 0x4 DUP9 ADD PUSH2 0x39CE JUMP JUMPDEST SUB DUP2 PUSH20 0xFFFFFFFFFFFFFFFFFFFFFFFFFFFFFFFFFFFFFFFF PUSH32 0x0 AND GAS STATICCALL SWAP3 DUP4 ISZERO PUSH2 0x3B42 JUMPI JUMPDEST PUSH1 0x0 SWAP2 DUP3 SWAP5 PUSH2 0x3B0E JUMPI JUMPDEST POP POP SWAP2 SWAP1 JUMP JUMPDEST PUSH2 0x3B32 SWAP4 SWAP5 POP DUP1 SWAP2 SWAP3 POP SWAP1 RETURNDATASIZE LT PUSH2 0x3B3B JUMPI JUMPDEST PUSH2 0x3B2A DUP2 DUP4 PUSH2 0x1783 JUMP JUMPDEST DUP2 ADD SWAP1 PUSH2 0x39B8 JUMP JUMPDEST SWAP2 SWAP1 CODESIZE DUP1 PUSH2 0x3B08 JUMP JUMPDEST POP RETURNDATASIZE PUSH2 0x3B20 JUMP JUMPDEST PUSH2 0x3B4A PUSH2 0x35CE JUMP JUMPDEST PUSH2 0x3AFE JUMP JUMPDEST SWAP1 PUSH1 0x20 DUP1 DUP3 ADD SWAP1 PUSH2 0xFFFF SWAP2 DUP3 DUP2 MLOAD AND ISZERO PUSH1 0x0 EQ PUSH2 0x1C22 JUMPI DUP4 MLOAD DUP5 ADD SWAP1 PUSH1 0x60 DUP6 DUP4 SUB SLT PUSH2 0xE JUMPI PUSH2 0x3B7F SWAP1 MLOAD PUSH2 0x4B8 JUMP JUMPDEST PUSH1 0x40 DUP5 ADD MLOAD SWAP1 PUSH8 0xFFFFFFFFFFFFFFFF DUP3 GT PUSH2 0xE JUMPI PUSH1 0x60 SWAP2 DUP4 DUP1 PUSH2 0x3BA7 SWAP4 ADD SWAP2 DUP8 ADD ADD PUSH2 0x3566 JUMP JUMPDEST SWAP4 ADD MLOAD SWAP3 PUSH1 0x14 DUP2 MLOAD LT PUSH2 0x1BC4 JUMPI ADD MLOAD PUSH1 0x60 SHR SWAP3 PUSH32 0xBF551EC93859B170F9B2141BD9298BF3F64322C6F7BEB2543A0CB669834118BF SWAP2 SWAP1 PUSH2 0x3BE7 DUP5 DUP7 PUSH2 0x4433 JUMP JUMPDEST PUSH1 0x40 MLOAD SWAP4 DUP5 MSTORE AND SWAP2 DUP1 PUSH1 0x20 DUP2 ADD JUMPDEST SUB SWAP1 LOG3 JUMP JUMPDEST SWAP4 SWAP3 SWAP2 PUSH2 0x3C1B SWAP1 PUSH2 0xFFFF PUSH1 0x40 SWAP4 AND DUP7 MSTORE PUSH1 0x60 PUSH1 0x20 DUP8 ADD MSTORE PUSH1 0x60 DUP7 ADD SWAP1 PUSH2 0x92C JUMP JUMPDEST SWAP4 ADD MSTORE JUMP JUMPDEST SWAP3 SWAP2 SWAP1 PUSH2 0x3C1B PUSH1 0x20 SWAP2 PUSH1 0x40 DUP7 MSTORE PUSH1 0x40 DUP7 ADD SWAP1 PUSH2 0x92C JUMP JUMPDEST SWAP3 PUSH2 0x3C5C PUSH2 0x980 SWAP8 SWAP6 SWAP4 PUSH2 0xFFFF PUSH2 0x3C6A SWAP5 AND DUP7 MSTORE PUSH1 0xC0 PUSH1 0x20 DUP8 ADD MSTORE PUSH1 0xC0 DUP7 ADD SWAP1 PUSH2 0x92C JUMP JUMPDEST SWAP1 DUP5 DUP3 SUB PUSH1 0x40 DUP7 ADD MSTORE PUSH2 0x92C JUMP JUMPDEST SWAP4 PUSH20 0xFFFFFFFFFFFFFFFFFFFFFFFFFFFFFFFFFFFFFFFF DUP1 SWAP3 AND PUSH1 0x60 DUP5 ADD MSTORE AND PUSH1 0x80 DUP3 ADD MSTORE PUSH1 0xA0 DUP2 DUP5 SUB SWAP2 ADD MSTORE PUSH2 0x92C JUMP JUMPDEST SWAP4 SWAP6 SWAP5 PUSH2 0x3CC8 SWAP1 SWAP4 SWAP2 SWAP3 SWAP4 PUSH1 0x0 SWAP6 PUSH2 0xFFFF DUP2 AND DUP8 MSTORE PUSH1 0x1 PUSH1 0x20 MSTORE PUSH2 0x3CCF PUSH1 0x40 DUP9 KECCAK256 PUSH1 0x40 MLOAD SWAP5 DUP6 DUP1 SWAP3 PUSH2 0x1E5F JUMP JUMPDEST SUB DUP5 PUSH2 0x1783 JUMP JUMPDEST DUP3 MLOAD ISZERO PUSH2 0x3D91 JUMPI PUSH2 0x3CE1 DUP6 MLOAD DUP3 PUSH2 0x3E15 JUMP JUMPDEST PUSH20 0xFFFFFFFFFFFFFFFFFFFFFFFFFFFFFFFFFFFFFFFF PUSH32 0x0 AND SWAP4 DUP5 EXTCODESIZE ISZERO PUSH2 0x3D8D JUMPI DUP8 SWAP9 SWAP10 PUSH2 0x3D60 SWAP2 PUSH1 0x40 SWAP10 SWAP9 SWAP10 MLOAD SWAP10 DUP11 SWAP9 DUP10 SWAP8 DUP9 SWAP7 PUSH32 0xC580310000000000000000000000000000000000000000000000000000000000 DUP9 MSTORE PUSH1 0x4 DUP9 ADD PUSH2 0x3C37 JUMP JUMPDEST SUB SWAP3 GAS CALL DUP1 ISZERO PUSH2 0x3D80 JUMPI JUMPDEST PUSH2 0x3D73 JUMPI POP POP JUMP JUMPDEST PUSH2 0x2BCA PUSH2 0x1F2F SWAP3 DUP3 PUSH2 0x1783 JUMP JUMPDEST PUSH2 0x3D88 PUSH2 0x35CE JUMP JUMPDEST PUSH2 0x3D6B JUMP JUMPDEST DUP8 DUP1 REVERT JUMPDEST PUSH1 0x84 PUSH1 0x40 MLOAD PUSH32 0x8C379A000000000000000000000000000000000000000000000000000000000 DUP2 MSTORE PUSH1 0x20 PUSH1 0x4 DUP3 ADD MSTORE PUSH1 0x30 PUSH1 0x24 DUP3 ADD MSTORE PUSH32 0x4C7A4170703A2064657374696E6174696F6E20636861696E206973206E6F7420 PUSH1 0x44 DUP3 ADD MSTORE PUSH32 0x61207472757374656420736F7572636500000000000000000000000000000000 PUSH1 0x64 DUP3 ADD MSTORE REVERT JUMPDEST PUSH2 0xFFFF AND PUSH1 0x0 MSTORE PUSH1 0x3 PUSH1 0x20 MSTORE PUSH1 0x40 PUSH1 0x0 KECCAK256 SLOAD SWAP1 DUP2 ISZERO PUSH2 0x3E94 JUMPI JUMPDEST GT PUSH2 0x3E36 JUMPI JUMP JUMPDEST PUSH1 0x64 PUSH1 0x40 MLOAD PUSH32 0x8C379A000000000000000000000000000000000000000000000000000000000 DUP2 MSTORE PUSH1 0x20 PUSH1 0x4 DUP3 ADD MSTORE PUSH1 0x20 PUSH1 0x24 DUP3 ADD MSTORE PUSH32 0x4C7A4170703A207061796C6F61642073697A6520697320746F6F206C61726765 PUSH1 0x44 DUP3 ADD MSTORE REVERT JUMPDEST PUSH2 0x2710 SWAP2 POP PUSH2 0x3E2F JUMP JUMPDEST DUP2 PUSH2 0x980 SWAP2 CALLER PUSH20 0xFFFFFFFFFFFFFFFFFFFFFFFFFFFFFFFFFFFFFFFF DUP3 AND SUB ISZERO PUSH2 0x4597 JUMPI PUSH2 0x3ECC DUP3 CALLER DUP4 PUSH2 0x4873 JUMP JUMPDEST PUSH2 0x4597 JUMP JUMPDEST SWAP2 SWAP1 DUP3 ADD DUP1 SWAP3 GT PUSH2 0x36C6 JUMPI JUMP JUMPDEST ISZERO PUSH2 0x3EE5 JUMPI JUMP JUMPDEST PUSH1 0x64 PUSH1 0x40 MLOAD PUSH32 0x8C379A000000000000000000000000000000000000000000000000000000000 DUP2 MSTORE PUSH1 0x20 PUSH1 0x4 DUP3 ADD MSTORE PUSH1 0x1A PUSH1 0x24 DUP3 ADD MSTORE PUSH32 0x4C7A4170703A206D696E4761734C696D6974206E6F7420736574000000000000 PUSH1 0x44 DUP3 ADD MSTORE REVERT JUMPDEST ISZERO PUSH2 0x3F4A JUMPI JUMP JUMPDEST PUSH1 0x64 PUSH1 0x40 MLOAD PUSH32 0x8C379A000000000000000000000000000000000000000000000000000000000 DUP2 MSTORE PUSH1 0x20 PUSH1 0x4 DUP3 ADD MSTORE PUSH1 0x1B PUSH1 0x24 DUP3 ADD MSTORE PUSH32 0x4C7A4170703A20676173206C696D697420697320746F6F206C6F770000000000 PUSH1 0x44 DUP3 ADD MSTORE REVERT JUMPDEST ISZERO PUSH2 0x3FAF JUMPI JUMP JUMPDEST PUSH1 0x64 PUSH1 0x40 MLOAD PUSH32 0x8C379A000000000000000000000000000000000000000000000000000000000 DUP2 MSTORE PUSH1 0x20 PUSH1 0x4 DUP3 ADD MSTORE PUSH1 0xE PUSH1 0x24 DUP3 ADD MSTORE PUSH32 0x736C6963655F6F766572666C6F77000000000000000000000000000000000000 PUSH1 0x44 DUP3 ADD MSTORE REVERT JUMPDEST ISZERO PUSH2 0x4014 JUMPI JUMP JUMPDEST PUSH1 0x64 PUSH1 0x40 MLOAD PUSH32 0x8C379A000000000000000000000000000000000000000000000000000000000 DUP2 MSTORE PUSH1 0x20 PUSH1 0x4 DUP3 ADD MSTORE PUSH1 0x11 PUSH1 0x24 DUP3 ADD MSTORE PUSH32 0x736C6963655F6F75744F66426F756E6473000000000000000000000000000000 PUSH1 0x44 DUP3 ADD MSTORE REVERT JUMPDEST SWAP2 PUSH2 0x4089 DUP2 PUSH2 0x4082 PUSH1 0x1F DUP3 PUSH2 0x3ED1 JUMP JUMPDEST LT ISZERO PUSH2 0x3FA8 JUMP JUMPDEST PUSH2 0x409F DUP4 MLOAD PUSH2 0x4098 DUP4 DUP6 PUSH2 0x3ED1 JUMP JUMPDEST GT ISZERO PUSH2 0x400D JUMP JUMPDEST DUP1 PUSH2 0x40B8 JUMPI POP POP POP PUSH1 0x40 MLOAD PUSH1 0x0 DUP2 MSTORE PUSH1 0x20 DUP2 ADD PUSH1 0x40 MSTORE SWAP1 JUMP JUMPDEST PUSH1 0x40 MLOAD SWAP3 PUSH1 0x1F DUP3 AND SWAP3 DUP4 ISZERO PUSH1 0x5 SHL DUP1 DUP6 DUP8 ADD ADD SWAP5 DUP5 DUP7 ADD SWAP4 ADD ADD ADD SWAP1 JUMPDEST DUP1 DUP5 LT PUSH2 0x410B JUMPI POP POP DUP3 MSTORE PUSH1 0x1F ADD PUSH32 0xFFFFFFFFFFFFFFFFFFFFFFFFFFFFFFFFFFFFFFFFFFFFFFFFFFFFFFFFFFFFFFE0 AND PUSH1 0x40 MSTORE SWAP1 JUMP JUMPDEST SWAP1 SWAP3 DUP4 MLOAD DUP2 MSTORE PUSH1 0x20 DUP1 SWAP2 ADD SWAP4 ADD SWAP1 PUSH2 0x40D5 JUMP JUMPDEST PUSH20 0xFFFFFFFFFFFFFFFFFFFFFFFFFFFFFFFFFFFFFFFF PUSH1 0x0 SLOAD AND CALLER SUB PUSH2 0x413F JUMPI JUMP JUMPDEST PUSH1 0x64 PUSH1 0x40 MLOAD PUSH32 0x8C379A000000000000000000000000000000000000000000000000000000000 DUP2 MSTORE PUSH1 0x20 PUSH1 0x4 DUP3 ADD MSTORE PUSH1 0x20 PUSH1 0x24 DUP3 ADD MSTORE PUSH32 0x4F776E61626C653A2063616C6C6572206973206E6F7420746865206F776E6572 PUSH1 0x44 DUP3 ADD MSTORE REVERT JUMPDEST ISZERO PUSH2 0x41A4 JUMPI JUMP JUMPDEST PUSH1 0x84 PUSH1 0x40 MLOAD PUSH32 0x8C379A000000000000000000000000000000000000000000000000000000000 DUP2 MSTORE PUSH1 0x20 PUSH1 0x4 DUP3 ADD MSTORE PUSH1 0x23 PUSH1 0x24 DUP3 ADD MSTORE PUSH32 0x45524332303A207472616E7366657220746F20746865207A65726F2061646472 PUSH1 0x44 DUP3 ADD MSTORE PUSH32 0x6573730000000000000000000000000000000000000000000000000000000000 PUSH1 0x64 DUP3 ADD MSTORE REVERT JUMPDEST ISZERO PUSH2 0x422F JUMPI JUMP JUMPDEST PUSH1 0x84 PUSH1 0x40 MLOAD PUSH32 0x8C379A000000000000000000000000000000000000000000000000000000000 DUP2 MSTORE PUSH1 0x20 PUSH1 0x4 DUP3 ADD MSTORE PUSH1 0x26 PUSH1 0x24 DUP3 ADD MSTORE PUSH32 0x45524332303A207472616E7366657220616D6F756E7420657863656564732062 PUSH1 0x44 DUP3 ADD MSTORE PUSH32 0x616C616E63650000000000000000000000000000000000000000000000000000 PUSH1 0x64 DUP3 ADD MSTORE REVERT JUMPDEST SWAP2 SWAP1 PUSH20 0xFFFFFFFFFFFFFFFFFFFFFFFFFFFFFFFFFFFFFFFF SWAP1 DUP2 DUP5 AND SWAP3 DUP4 ISZERO PUSH2 0x43AF JUMPI PUSH2 0x4399 DUP3 PUSH32 0xDDF252AD1BE2C89B69C2B068FC378DAA952BA7F163C4A11628F55A4DF523B3EF SWAP5 PUSH2 0x3BF5 SWAP5 AND SWAP7 PUSH2 0x430C DUP9 ISZERO ISZERO PUSH2 0x419D JUMP JUMPDEST PUSH2 0x4371 DUP5 PUSH2 0x433B DUP4 PUSH1 0x7 SWAP1 PUSH20 0xFFFFFFFFFFFFFFFFFFFFFFFFFFFFFFFFFFFFFFFF AND PUSH1 0x0 MSTORE PUSH1 0x20 MSTORE PUSH1 0x40 PUSH1 0x0 KECCAK256 SWAP1 JUMP JUMPDEST SLOAD PUSH2 0x4348 DUP3 DUP3 LT ISZERO PUSH2 0x4228 JUMP JUMPDEST SUB SWAP2 PUSH1 0x7 SWAP1 PUSH20 0xFFFFFFFFFFFFFFFFFFFFFFFFFFFFFFFFFFFFFFFF AND PUSH1 0x0 MSTORE PUSH1 0x20 MSTORE PUSH1 0x40 PUSH1 0x0 KECCAK256 SWAP1 JUMP JUMPDEST SSTORE PUSH1 0x7 SWAP1 PUSH20 0xFFFFFFFFFFFFFFFFFFFFFFFFFFFFFFFFFFFFFFFF AND PUSH1 0x0 MSTORE PUSH1 0x20 MSTORE PUSH1 0x40 PUSH1 0x0 KECCAK256 SWAP1 JUMP JUMPDEST DUP1 SLOAD DUP3 ADD SWAP1 SSTORE PUSH1 0x40 MLOAD SWAP1 DUP2 MSTORE SWAP1 DUP2 SWAP1 PUSH1 0x20 DUP3 ADD SWAP1 JUMP JUMPDEST PUSH1 0x84 PUSH1 0x40 MLOAD PUSH32 0x8C379A000000000000000000000000000000000000000000000000000000000 DUP2 MSTORE PUSH1 0x20 PUSH1 0x4 DUP3 ADD MSTORE PUSH1 0x25 PUSH1 0x24 DUP3 ADD MSTORE PUSH32 0x45524332303A207472616E736665722066726F6D20746865207A65726F206164 PUSH1 0x44 DUP3 ADD MSTORE PUSH32 0x6472657373000000000000000000000000000000000000000000000000000000 PUSH1 0x64 DUP3 ADD MSTORE REVERT JUMPDEST PUSH20 0xFFFFFFFFFFFFFFFFFFFFFFFFFFFFFFFFFFFFFFFF AND SWAP1 DUP2 ISZERO PUSH2 0x44AE JUMPI PUSH32 0xDDF252AD1BE2C89B69C2B068FC378DAA952BA7F163C4A11628F55A4DF523B3EF PUSH1 0x20 PUSH1 0x0 SWAP3 PUSH1 0x9 SLOAD DUP2 DUP2 ADD DUP1 SWAP2 GT PUSH2 0x44A1 JUMPI JUMPDEST PUSH1 0x9 SSTORE DUP5 DUP5 MSTORE PUSH1 0x7 DUP3 MSTORE PUSH1 0x40 DUP5 KECCAK256 DUP2 DUP2 SLOAD ADD SWAP1 SSTORE PUSH1 0x40 MLOAD SWAP1 DUP2 MSTORE LOG3 JUMP JUMPDEST PUSH2 0x44A9 PUSH2 0x3689 JUMP JUMPDEST PUSH2 0x4484 JUMP JUMPDEST PUSH1 0x64 PUSH1 0x40 MLOAD PUSH32 0x8C379A000000000000000000000000000000000000000000000000000000000 DUP2 MSTORE PUSH1 0x20 PUSH1 0x4 DUP3 ADD MSTORE PUSH1 0x1F PUSH1 0x24 DUP3 ADD MSTORE PUSH32 0x45524332303A206D696E7420746F20746865207A65726F206164647265737300 PUSH1 0x44 DUP3 ADD MSTORE REVERT JUMPDEST ISZERO PUSH2 0x4513 JUMPI JUMP JUMPDEST PUSH1 0x84 PUSH1 0x40 MLOAD PUSH32 0x8C379A000000000000000000000000000000000000000000000000000000000 DUP2 MSTORE PUSH1 0x20 PUSH1 0x4 DUP3 ADD MSTORE PUSH1 0x22 PUSH1 0x24 DUP3 ADD MSTORE PUSH32 0x45524332303A206275726E20616D6F756E7420657863656564732062616C616E PUSH1 0x44 DUP3 ADD MSTORE PUSH32 0x6365000000000000000000000000000000000000000000000000000000000000 PUSH1 0x64 DUP3 ADD MSTORE REVERT JUMPDEST SWAP1 PUSH20 0xFFFFFFFFFFFFFFFFFFFFFFFFFFFFFFFFFFFFFFFF DUP3 AND SWAP1 DUP2 ISZERO PUSH2 0x4634 JUMPI PUSH2 0x3BF5 DUP2 DUP5 PUSH2 0x461A PUSH32 0xDDF252AD1BE2C89B69C2B068FC378DAA952BA7F163C4A11628F55A4DF523B3EF SWAP5 PUSH2 0x460D PUSH1 0x0 SWAP9 PUSH1 0x7 SWAP1 PUSH20 0xFFFFFFFFFFFFFFFFFFFFFFFFFFFFFFFFFFFFFFFF AND PUSH1 0x0 MSTORE PUSH1 0x20 MSTORE PUSH1 0x40 PUSH1 0x0 KECCAK256 SWAP1 JUMP JUMPDEST SLOAD PUSH2 0x4348 DUP3 DUP3 LT ISZERO PUSH2 0x450C JUMP JUMPDEST SSTORE DUP1 PUSH1 0x9 SLOAD SUB PUSH1 0x9 SSTORE PUSH1 0x40 MLOAD SWAP2 DUP3 SWAP2 DUP3 SWAP2 SWAP1 PUSH1 0x20 DUP4 ADD SWAP3 MSTORE JUMP JUMPDEST PUSH1 0x84 PUSH1 0x40 MLOAD PUSH32 0x8C379A000000000000000000000000000000000000000000000000000000000 DUP2 MSTORE PUSH1 0x20 PUSH1 0x4 DUP3 ADD MSTORE PUSH1 0x21 PUSH1 0x24 DUP3 ADD MSTORE PUSH32 0x45524332303A206275726E2066726F6D20746865207A65726F20616464726573 PUSH1 0x44 DUP3 ADD MSTORE PUSH32 0x7300000000000000000000000000000000000000000000000000000000000000 PUSH1 0x64 DUP3 ADD MSTORE REVERT JUMPDEST SWAP1 PUSH20 0xFFFFFFFFFFFFFFFFFFFFFFFFFFFFFFFFFFFFFFFF SWAP2 DUP3 DUP2 AND SWAP3 DUP4 ISZERO PUSH2 0x47F0 JUMPI DUP3 AND SWAP4 DUP5 ISZERO PUSH2 0x476C JUMPI DUP1 PUSH2 0x475B PUSH32 0x8C5BE1E5EBEC7D5BD14F71427D1E84F3DD0314C0F7B2291E5B200AC8C7C3B925 SWAP5 PUSH2 0x4736 PUSH2 0x3BF5 SWAP6 PUSH1 0x8 SWAP1 PUSH20 0xFFFFFFFFFFFFFFFFFFFFFFFFFFFFFFFFFFFFFFFF AND PUSH1 0x0 MSTORE PUSH1 0x20 MSTORE PUSH1 0x40 PUSH1 0x0 KECCAK256 SWAP1 JUMP JUMPDEST SWAP1 PUSH20 0xFFFFFFFFFFFFFFFFFFFFFFFFFFFFFFFFFFFFFFFF AND PUSH1 0x0 MSTORE PUSH1 0x20 MSTORE PUSH1 0x40 PUSH1 0x0 KECCAK256 SWAP1 JUMP JUMPDEST SSTORE PUSH1 0x40 MLOAD SWAP1 DUP2 MSTORE SWAP1 DUP2 SWAP1 PUSH1 0x20 DUP3 ADD SWAP1 JUMP JUMPDEST PUSH1 0x84 PUSH1 0x40 MLOAD PUSH32 0x8C379A000000000000000000000000000000000000000000000000000000000 DUP2 MSTORE PUSH1 0x20 PUSH1 0x4 DUP3 ADD MSTORE PUSH1 0x22 PUSH1 0x24 DUP3 ADD MSTORE PUSH32 0x45524332303A20617070726F766520746F20746865207A65726F206164647265 PUSH1 0x44 DUP3 ADD MSTORE PUSH32 0x7373000000000000000000000000000000000000000000000000000000000000 PUSH1 0x64 DUP3 ADD MSTORE REVERT JUMPDEST PUSH1 0x84 PUSH1 0x40 MLOAD PUSH32 0x8C379A000000000000000000000000000000000000000000000000000000000 DUP2 MSTORE PUSH1 0x20 PUSH1 0x4 DUP3 ADD MSTORE PUSH1 0x24 DUP1 DUP3 ADD MSTORE PUSH32 0x45524332303A20617070726F76652066726F6D20746865207A65726F20616464 PUSH1 0x44 DUP3 ADD MSTORE PUSH32 0x7265737300000000000000000000000000000000000000000000000000000000 PUSH1 0x64 DUP3 ADD MSTORE REVERT JUMPDEST SWAP1 PUSH20 0xFFFFFFFFFFFFFFFFFFFFFFFFFFFFFFFFFFFFFFFF DUP3 AND PUSH1 0x0 MSTORE PUSH1 0x8 PUSH1 0x20 MSTORE PUSH2 0x48C1 DUP2 PUSH1 0x40 PUSH1 0x0 KECCAK256 SWAP1 PUSH20 0xFFFFFFFFFFFFFFFFFFFFFFFFFFFFFFFFFFFFFFFF AND PUSH1 0x0 MSTORE PUSH1 0x20 MSTORE PUSH1 0x40 PUSH1 0x0 KECCAK256 SWAP1 JUMP JUMPDEST SLOAD SWAP3 PUSH32 0xFFFFFFFFFFFFFFFFFFFFFFFFFFFFFFFFFFFFFFFFFFFFFFFFFFFFFFFFFFFFFFFF DUP5 SUB PUSH2 0x48F0 JUMPI POP POP POP POP JUMP JUMPDEST DUP1 DUP5 LT PUSH2 0x490B JUMPI PUSH2 0x4902 SWAP4 SUB SWAP2 PUSH2 0x46B8 JUMP JUMPDEST CODESIZE DUP1 DUP1 DUP1 PUSH2 0x1E8C JUMP JUMPDEST PUSH1 0x64 PUSH1 0x40 MLOAD PUSH32 0x8C379A000000000000000000000000000000000000000000000000000000000 DUP2 MSTORE PUSH1 0x20 PUSH1 0x4 DUP3 ADD MSTORE PUSH1 0x1D PUSH1 0x24 DUP3 ADD MSTORE PUSH32 0x45524332303A20696E73756666696369656E7420616C6C6F77616E6365000000 PUSH1 0x44 DUP3 ADD MSTORE REVERT JUMPDEST PUSH1 0x20 SWAP1 PUSH8 0xFFFFFFFFFFFFFFFF DUP2 GT PUSH2 0x4983 JUMPI JUMPDEST PUSH1 0x5 SHL ADD SWAP1 JUMP JUMPDEST PUSH2 0x498B PUSH2 0x1753 JUMP JUMPDEST PUSH2 0x497C JUMP JUMPDEST SWAP1 PUSH2 0x499A DUP3 PUSH2 0x4969 JUMP JUMPDEST PUSH2 0x49A7 PUSH1 0x40 MLOAD SWAP2 DUP3 PUSH2 0x1783 JUMP JUMPDEST DUP3 DUP2 MSTORE PUSH32 0xFFFFFFFFFFFFFFFFFFFFFFFFFFFFFFFFFFFFFFFFFFFFFFFFFFFFFFFFFFFFFFE0 PUSH2 0x49D5 DUP3 SWAP5 PUSH2 0x4969 JUMP JUMPDEST ADD SWAP1 PUSH1 0x20 CALLDATASIZE SWAP2 ADD CALLDATACOPY JUMP JUMPDEST DUP1 MLOAD DUP3 LT ISZERO PUSH2 0x49F3 JUMPI PUSH1 0x20 SWAP2 PUSH1 0x5 SHL ADD ADD SWAP1 JUMP JUMPDEST PUSH32 0x4E487B7100000000000000000000000000000000000000000000000000000000 PUSH1 0x0 MSTORE PUSH1 0x32 PUSH1 0x4 MSTORE PUSH1 0x24 PUSH1 0x0 REVERT JUMPDEST SWAP1 SWAP3 PUSH1 0x54 SWAP3 SWAP4 DUP3 MSTORE PUSH32 0xFFFFFFFFFFFFFFFFFFFFFFFFFFFFFFFFFFFFFFFF000000000000000000000000 PUSH1 0x20 SWAP5 PUSH1 0x60 SHL AND DUP5 DUP4 ADD MSTORE PUSH1 0x34 DUP3 ADD MSTORE ADD DUP2 DUP4 MLOAD SWAP2 SWAP4 ADD SWAP2 PUSH1 0x0 JUMPDEST DUP3 DUP2 LT PUSH2 0x4A74 JUMPI POP POP POP POP SWAP1 JUMP JUMPDEST DUP4 MLOAD DUP6 MSTORE SWAP4 DUP2 ADD SWAP4 SWAP3 DUP2 ADD SWAP3 PUSH1 0x1 ADD PUSH2 0x4A66 JUMP JUMPDEST SWAP1 DUP2 PUSH1 0x20 SWAP2 SUB SLT PUSH2 0xE JUMPI MLOAD SWAP1 JUMP JUMPDEST SWAP1 DUP2 MLOAD DUP1 DUP3 MSTORE PUSH1 0x20 DUP1 DUP1 SWAP4 ADD SWAP4 ADD SWAP2 PUSH1 0x0 JUMPDEST DUP3 DUP2 LT PUSH2 0x4AB7 JUMPI POP POP POP POP SWAP1 JUMP JUMPDEST DUP4 MLOAD DUP6 MSTORE SWAP4 DUP2 ADD SWAP4 SWAP3 DUP2 ADD SWAP3 PUSH1 0x1 ADD PUSH2 0x4AA9 JUMP JUMPDEST PUSH2 0x980 SWAP4 SWAP3 PUSH1 0x60 SWAP3 DUP3 MSTORE PUSH1 0x20 DUP3 ADD MSTORE DUP2 PUSH1 0x40 DUP3 ADD MSTORE ADD SWAP1 PUSH2 0x4A97 JUMP JUMPDEST PUSH32 0x800000000000011000000000000000000000000000000000000000000000001 DUP2 GT ISZERO PUSH2 0x4B39 JUMPI PUSH1 0x4 PUSH1 0x40 MLOAD PUSH32 0x40BCD5A500000000000000000000000000000000000000000000000000000000 DUP2 MSTORE REVERT JUMPDEST DUP1 PUSH2 0x4B68 JUMPI PUSH1 0x4 PUSH1 0x40 MLOAD PUSH32 0xB05313BB00000000000000000000000000000000000000000000000000000000 DUP2 MSTORE REVERT JUMPDEST PUSH1 0xE SLOAD EQ PUSH2 0x4B72 JUMPI JUMP JUMPDEST PUSH1 0x4 PUSH1 0x40 MLOAD PUSH32 0xD15E516700000000000000000000000000000000000000000000000000000000 DUP2 MSTORE REVERT JUMPDEST PUSH1 0x40 SWAP1 PUSH2 0x980 SWAP4 SWAP3 DUP2 MSTORE DUP2 PUSH1 0x20 DUP3 ADD MSTORE ADD SWAP1 PUSH2 0x4A97 JUMP INVALID LOG1 PUSH5 0x736F6C6343 STOP ADDMOD GT STOP EXP "},"methodIdentifiers":{"CAP()":"ec81b483","DEFAULT_PAYLOAD_SIZE_LIMIT()":"c4461834","NO_EXTRA_GAS()":"44770515","PT_SEND()":"4c42899a","STARKNET_CORE()":"b6efb02a","STARKNET_MAX()":"b672acd3","TELEPORT_TO_ETHEREUM()":"3d008497","TELEPORT_TO_STARKNET()":"002daf80","T_T()":"c3208a8b","allowance(address,address)":"dd62ed3e","approve(address,uint256)":"095ea7b3","balanceOf(address)":"70a08231","circulatingSupply()":"9358928b","cygTokenStarknet()":"b5d2847f","decimals()":"313ce567","decreaseAllowance(address,uint256)":"a457c2d7","estimateSendFee(uint16,bytes,uint256,bool,bytes)":"2a205e3d","failedMessages(uint16,bytes,uint64)":"5b8c41e6","forceResumeReceive(uint16,bytes)":"42d65a8d","getConfig(uint16,uint16,address,uint256)":"f5ecbdbc","getL2MessageHash(address,uint128)":"628fadb3","getTrustedRemoteAddress(uint16)":"9f38369a","increaseAllowance(address,uint256)":"39509351","isTrustedRemote(uint16,bytes)":"3d8b38f6","lzEndpoint()":"b353aaa7","lzReceive(uint16,bytes,uint64,bytes)":"001d3567","minDstGasLookup(uint16,uint16)":"8cfd8f5c","mint(address,uint256)":"40c10f19","name()":"06fdde03","nonblockingLzReceive(uint16,bytes,uint64,bytes)":"66ad5c8a","owner()":"8da5cb5b","payloadSizeLimitLookup(uint16)":"3f1f4fa4","pillarsOfCreation()":"f4e8aaff","precrime()":"950c8a74","renounceOwnership()":"715018a6","retryMessage(uint16,bytes,uint64,bytes)":"d1deba1f","sendFrom(address,uint16,bytes,uint256,address,address,bytes)":"51905636","setConfig(uint16,uint16,uint256,bytes)":"cbed8b9c","setCygTokenStarknet(uint256)":"525f4b2c","setMinDstGas(uint16,uint16,uint256)":"df2a5b3b","setPayloadSizeLimit(uint16,uint256)":"0df37483","setPillarsOfCreation(address)":"04c607fd","setPrecrime(address)":"baf3292d","setReceiveVersion(uint16)":"10ddb137","setSendVersion(uint16)":"07e0db17","setTrustedRemote(uint16,bytes)":"eb8d72b7","setTrustedRemoteAddress(uint16,bytes)":"a6c3d165","setUseCustomAdapterParams(bool)":"eab45d9c","supportsInterface(bytes4)":"01ffc9a7","symbol()":"95d89b41","teleportToEthereum(address,uint128)":"7a25c916","teleportToStarknet(uint256,uint128)":"36715439","token()":"fc0c546a","totalMinted()":"a2309ff8","totalSupply()":"18160ddd","transfer(address,uint256)":"a9059cbb","transferFrom(address,address,uint256)":"23b872dd","transferOwnership(address)":"f2fde38b","trustedRemoteLookup(uint16)":"7533d788","useCustomAdapterParams()":"ed629c5c"}}}}}