{
  "_format": "hh-sol-artifact-1",
  "contractName": "ERC20Permit",
  "sourceName": "contracts/cygnus-token/ERC20Permit.sol",
  "abi": [
    {
      "inputs": [
        {
          "internalType": "string",
          "name": "_name",
          "type": "string"
        },
        {
          "internalType": "string",
          "name": "_symbol",
          "type": "string"
        },
        {
          "internalType": "uint8",
          "name": "_decimals",
          "type": "uint8"
        }
      ],
      "stateMutability": "nonpayable",
      "type": "constructor"
    },
    {
      "inputs": [
        {
          "internalType": "address",
          "name": "owner",
          "type": "address"
        },
        {
          "internalType": "uint8",
          "name": "v",
          "type": "uint8"
        },
        {
          "internalType": "bytes32",
          "name": "r",
          "type": "bytes32"
        },
        {
          "internalType": "bytes32",
          "name": "s",
          "type": "bytes32"
        }
      ],
      "name": "ERC20Permit_InvalidSignature",
      "type": "error"
    },
    {
      "inputs": [],
      "name": "ERC20Permit_OwnerZeroAddress",
      "type": "error"
    },
    {
      "inputs": [
        {
          "internalType": "uint256",
          "name": "currentTime",
          "type": "uint256"
        },
        {
          "internalType": "uint256",
          "name": "deadline",
          "type": "uint256"
        }
      ],
      "name": "ERC20Permit_PermitExpired",
      "type": "error"
    },
    {
      "inputs": [],
      "name": "ERC20Permit_RecoveredOwnerZeroAddress",
      "type": "error"
    },
    {
      "inputs": [],
      "name": "ERC20Permit_SpenderZeroAddress",
      "type": "error"
    },
    {
      "inputs": [],
      "name": "ERC20_ApproveOwnerZeroAddress",
      "type": "error"
    },
    {
      "inputs": [],
      "name": "ERC20_ApproveSpenderZeroAddress",
      "type": "error"
    },
    {
      "inputs": [],
      "name": "ERC20_BurnHolderZeroAddress",
      "type": "error"
    },
    {
      "inputs": [
        {
          "internalType": "uint256",
          "name": "senderBalance",
          "type": "uint256"
        },
        {
          "internalType": "uint256",
          "name": "transferAmount",
          "type": "uint256"
        }
      ],
      "name": "ERC20_FromInsufficientBalance",
      "type": "error"
    },
    {
      "inputs": [
        {
          "internalType": "address",
          "name": "owner",
          "type": "address"
        },
        {
          "internalType": "address",
          "name": "spender",
          "type": "address"
        },
        {
          "internalType": "uint256",
          "name": "allowance",
          "type": "uint256"
        },
        {
          "internalType": "uint256",
          "name": "transferAmount",
          "type": "uint256"
        }
      ],
      "name": "ERC20_InsufficientAllowance",
      "type": "error"
    },
    {
      "inputs": [],
      "name": "ERC20_MintBeneficiaryZeroAddress",
      "type": "error"
    },
    {
      "inputs": [],
      "name": "ERC20_TransferFromZeroAddress",
      "type": "error"
    },
    {
      "inputs": [],
      "name": "ERC20_TransferToZeroAddress",
      "type": "error"
    },
    {
      "anonymous": false,
      "inputs": [
        {
          "indexed": true,
          "internalType": "address",
          "name": "owner",
          "type": "address"
        },
        {
          "indexed": true,
          "internalType": "address",
          "name": "spender",
          "type": "address"
        },
        {
          "indexed": false,
          "internalType": "uint256",
          "name": "value",
          "type": "uint256"
        }
      ],
      "name": "Approval",
      "type": "event"
    },
    {
      "anonymous": false,
      "inputs": [
        {
          "indexed": true,
          "internalType": "address",
          "name": "from",
          "type": "address"
        },
        {
          "indexed": true,
          "internalType": "address",
          "name": "to",
          "type": "address"
        },
        {
          "indexed": false,
          "internalType": "uint256",
          "name": "amount",
          "type": "uint256"
        }
      ],
      "name": "Transfer",
      "type": "event"
    },
    {
      "inputs": [],
      "name": "DOMAIN_SEPARATOR",
      "outputs": [
        {
          "internalType": "bytes32",
          "name": "",
          "type": "bytes32"
        }
      ],
      "stateMutability": "view",
      "type": "function"
    },
    {
      "inputs": [],
      "name": "PERMIT_TYPEHASH",
      "outputs": [
        {
          "internalType": "bytes32",
          "name": "",
          "type": "bytes32"
        }
      ],
      "stateMutability": "view",
      "type": "function"
    },
    {
      "inputs": [
        {
          "internalType": "address",
          "name": "owner",
          "type": "address"
        },
        {
          "internalType": "address",
          "name": "spender",
          "type": "address"
        }
      ],
      "name": "allowance",
      "outputs": [
        {
          "internalType": "uint256",
          "name": "",
          "type": "uint256"
        }
      ],
      "stateMutability": "view",
      "type": "function"
    },
    {
      "inputs": [
        {
          "internalType": "address",
          "name": "spender",
          "type": "address"
        },
        {
          "internalType": "uint256",
          "name": "value",
          "type": "uint256"
        }
      ],
      "name": "approve",
      "outputs": [
        {
          "internalType": "bool",
          "name": "",
          "type": "bool"
        }
      ],
      "stateMutability": "nonpayable",
      "type": "function"
    },
    {
      "inputs": [
        {
          "internalType": "address",
          "name": "account",
          "type": "address"
        }
      ],
      "name": "balanceOf",
      "outputs": [
        {
          "internalType": "uint256",
          "name": "",
          "type": "uint256"
        }
      ],
      "stateMutability": "view",
      "type": "function"
    },
    {
      "inputs": [],
      "name": "decimals",
      "outputs": [
        {
          "internalType": "uint8",
          "name": "",
          "type": "uint8"
        }
      ],
      "stateMutability": "view",
      "type": "function"
    },
    {
      "inputs": [
        {
          "internalType": "address",
          "name": "spender",
          "type": "address"
        },
        {
          "internalType": "uint256",
          "name": "value",
          "type": "uint256"
        }
      ],
      "name": "decreaseAllowance",
      "outputs": [
        {
          "internalType": "bool",
          "name": "",
          "type": "bool"
        }
      ],
      "stateMutability": "nonpayable",
      "type": "function"
    },
    {
      "inputs": [
        {
          "internalType": "address",
          "name": "spender",
          "type": "address"
        },
        {
          "internalType": "uint256",
          "name": "value",
          "type": "uint256"
        }
      ],
      "name": "increaseAllowance",
      "outputs": [
        {
          "internalType": "bool",
          "name": "",
          "type": "bool"
        }
      ],
      "stateMutability": "nonpayable",
      "type": "function"
    },
    {
      "inputs": [],
      "name": "name",
      "outputs": [
        {
          "internalType": "string",
          "name": "",
          "type": "string"
        }
      ],
      "stateMutability": "view",
      "type": "function"
    },
    {
      "inputs": [
        {
          "internalType": "address",
          "name": "",
          "type": "address"
        }
      ],
      "name": "nonces",
      "outputs": [
        {
          "internalType": "uint256",
          "name": "",
          "type": "uint256"
        }
      ],
      "stateMutability": "view",
      "type": "function"
    },
    {
      "inputs": [
        {
          "internalType": "address",
          "name": "owner",
          "type": "address"
        },
        {
          "internalType": "address",
          "name": "spender",
          "type": "address"
        },
        {
          "internalType": "uint256",
          "name": "value",
          "type": "uint256"
        },
        {
          "internalType": "uint256",
          "name": "deadline",
          "type": "uint256"
        },
        {
          "internalType": "uint8",
          "name": "v",
          "type": "uint8"
        },
        {
          "internalType": "bytes32",
          "name": "r",
          "type": "bytes32"
        },
        {
          "internalType": "bytes32",
          "name": "s",
          "type": "bytes32"
        }
      ],
      "name": "permit",
      "outputs": [],
      "stateMutability": "nonpayable",
      "type": "function"
    },
    {
      "inputs": [],
      "name": "symbol",
      "outputs": [
        {
          "internalType": "string",
          "name": "",
          "type": "string"
        }
      ],
      "stateMutability": "view",
      "type": "function"
    },
    {
      "inputs": [],
      "name": "totalSupply",
      "outputs": [
        {
          "internalType": "uint256",
          "name": "",
          "type": "uint256"
        }
      ],
      "stateMutability": "view",
      "type": "function"
    },
    {
      "inputs": [
        {
          "internalType": "address",
          "name": "to",
          "type": "address"
        },
        {
          "internalType": "uint256",
          "name": "amount",
          "type": "uint256"
        }
      ],
      "name": "transfer",
      "outputs": [
        {
          "internalType": "bool",
          "name": "",
          "type": "bool"
        }
      ],
      "stateMutability": "nonpayable",
      "type": "function"
    },
    {
      "inputs": [
        {
          "internalType": "address",
          "name": "from",
          "type": "address"
        },
        {
          "internalType": "address",
          "name": "to",
          "type": "address"
        },
        {
          "internalType": "uint256",
          "name": "amount",
          "type": "uint256"
        }
      ],
      "name": "transferFrom",
      "outputs": [
        {
          "internalType": "bool",
          "name": "",
          "type": "bool"
        }
      ],
      "stateMutability": "nonpayable",
      "type": "function"
    },
    {
      "inputs": [],
      "name": "version",
      "outputs": [
        {
          "internalType": "string",
          "name": "",
          "type": "string"
        }
      ],
      "stateMutability": "view",
      "type": "function"
    }
  ],
  "bytecode": "0x60c06040526a0c685fa11e01ec6f0000006002553480156200002057600080fd5b5060405162000fb038038062000fb08339810160408190526200004391620002b6565b82828282600090805190602001906200005e9291906200015d565b508151620000749060019060208501906200015d565b5060f81b7fff0000000000000000000000000000000000000000000000000000000000000016608052505060405146907f8b73c3c69bb8fe3d512ecc4cf759cc79239f7b179b0ffacaa9a75d522b39400f90620000d49060009062000337565b60408051918290038220828201825260018352603160f81b6020938401528151928301939093528101919091527fc89efdaa54c0f20c7adf612882df0950f5a951637e0307cdcb4c672f298b8bc66060820152608081018290523060a082015260c00160408051601f19818403018152919052805160209091012060a052506200042d92505050565b8280546200016b90620003da565b90600052602060002090601f0160209004810192826200018f5760008555620001da565b82601f10620001aa57805160ff1916838001178555620001da565b82800160010185558215620001da579182015b82811115620001da578251825591602001919060010190620001bd565b50620001e8929150620001ec565b5090565b5b80821115620001e85760008155600101620001ed565b600082601f83011262000214578081fd5b81516001600160401b038082111562000231576200023162000417565b604051601f8301601f19908116603f011681019082821181831017156200025c576200025c62000417565b8160405283815260209250868385880101111562000278578485fd5b8491505b838210156200029b57858201830151818301840152908201906200027c565b83821115620002ac57848385830101525b9695505050505050565b600080600060608486031215620002cb578283fd5b83516001600160401b0380821115620002e2578485fd5b620002f08783880162000203565b9450602086015191508082111562000306578384fd5b50620003158682870162000203565b925050604084015160ff811681146200032c578182fd5b809150509250925092565b600080835482600182811c9150808316806200035457607f831692505b60208084108214156200037557634e487b7160e01b87526022600452602487fd5b8180156200038c57600181146200039e57620003cc565b60ff19861689528489019650620003cc565b60008a815260209020885b86811015620003c45781548b820152908501908301620003a9565b505084890196505b509498975050505050505050565b600181811c90821680620003ef57607f821691505b602082108114156200041157634e487b7160e01b600052602260045260246000fd5b50919050565b634e487b7160e01b600052604160045260246000fd5b60805160f81c60a051610b536200045d600039600081816101d501526105c40152600061019c0152610b536000f3fe608060405234801561001057600080fd5b50600436106101005760003560e01c806354fd4d5011610097578063a457c2d711610066578063a457c2d71461027b578063a9059cbb1461028e578063d505accf146102a1578063dd62ed3e146102b657600080fd5b806354fd4d501461020a57806370a082311461022a5780637ecebe001461025357806395d89b411461027357600080fd5b806330adf81f116100d357806330adf81f14610170578063313ce567146101975780633644e515146101d057806339509351146101f757600080fd5b806306fdde0314610105578063095ea7b31461012357806318160ddd1461014657806323b872dd1461015d575b600080fd5b61010d6102ef565b60405161011a9190610a4a565b60405180910390f35b610136610131366004610a21565b61037d565b604051901515815260200161011a565b61014f60025481565b60405190815260200161011a565b61013661016b366004610975565b610393565b61014f7f6e71edae12b1b97f4d1f60370fef10105fa2faae0126114a169c64845d6126c981565b6101be7f000000000000000000000000000000000000000000000000000000000000000081565b60405160ff909116815260200161011a565b61014f7f000000000000000000000000000000000000000000000000000000000000000081565b610136610205366004610a21565b610422565b61010d604051806040016040528060018152602001603160f81b81525081565b61014f610238366004610922565b6001600160a01b031660009081526003602052604090205490565b61014f610261366004610922565b60056020526000908152604090205481565b61010d61046a565b610136610289366004610a21565b610477565b61013661029c366004610a21565b6104a8565b6102b46102af3660046109b0565b6104b5565b005b61014f6102c4366004610943565b6001600160a01b03918216600090815260046020908152604080832093909416825291909152205490565b600080546102fc90610acc565b80601f016020809104026020016040519081016040528092919081815260200182805461032890610acc565b80156103755780601f1061034a57610100808354040283529160200191610375565b820191906000526020600020905b81548152906001019060200180831161035857829003601f168201915b505050505081565b600061038a338484610758565b50600192915050565b6001600160a01b0383166000908152600460209081526040808320338085529252822054838110156103fe57604051636497133b60e11b81526001600160a01b0380881660048301528316602482015260448101829052606481018590526084015b60405180910390fd5b61040b8683868403610758565b610416868686610807565b50600195945050505050565b3360009081526004602090815260408083206001600160a01b03861684529091528120548190610453908490610a9d565b9050610460338583610758565b5060019392505050565b600180546102fc90610acc565b3360009081526004602090815260408083206001600160a01b03861684529091528120548190610453908490610ab5565b600061038a338484610807565b6001600160a01b0387166104dc576040516337adc3e960e11b815260040160405180910390fd5b6001600160a01b03861661050357604051637b4813dd60e01b815260040160405180910390fd5b4284101561052d57604051633288645960e01b8152426004820152602481018590526044016103f5565b6001600160a01b0387811660008181526005602090815260408083208054600180820190925582517f6e71edae12b1b97f4d1f60370fef10105fa2faae0126114a169c64845d6126c98186015280840196909652958c166060860152608085018b905260a085019590955260c08085018a90528151808603909101815260e08501825280519083012061190160f01b6101008601527f000000000000000000000000000000000000000000000000000000000000000061010286015261012280860182905282518087039091018152610142860180845281519185019190912090859052610162860180845281905260ff8a166101828701526101a286018990526101c2860188905291519095919491926101e2808401939192601f1981019281900390910190855afa158015610668573d6000803e3d6000fd5b5050604051601f1901519150506001600160a01b03811661069c5760405163d147d0e360e01b815260040160405180910390fd5b896001600160a01b0316816001600160a01b0316146106f057604051633460790b60e01b81526001600160a01b038b16600482015260ff8716602482015260448101869052606481018590526084016103f5565b6001600160a01b038a81166000818152600460209081526040808320948e16808452948252918290208c905590518b81527f8c5be1e5ebec7d5bd14f71427d1e84f3dd0314c0f7b2291e5b200ac8c7c3b925910160405180910390a350505050505050505050565b6001600160a01b03831661077f5760405163231b1a1d60e21b815260040160405180910390fd5b6001600160a01b0382166107a657604051632b6990d760e21b815260040160405180910390fd5b6001600160a01b0383811660008181526004602090815260408083209487168084529482529182902085905590518481527f8c5be1e5ebec7d5bd14f71427d1e84f3dd0314c0f7b2291e5b200ac8c7c3b925910160405180910390a3505050565b6001600160a01b03831661082e57604051636fbb781760e01b815260040160405180910390fd5b6001600160a01b038216610854576040516261696b60e71b815260040160405180910390fd5b6001600160a01b038316600090815260036020526040902054818110156108985760405163430cf54960e11b815260048101829052602481018390526044016103f5565b6001600160a01b0380851660008181526003602052604080822086860390559286168082529083902080548601905591517fddf252ad1be2c89b69c2b068fc378daa952ba7f163c4a11628f55a4df523b3ef906108f89086815260200190565b60405180910390a350505050565b80356001600160a01b038116811461091d57600080fd5b919050565b600060208284031215610933578081fd5b61093c82610906565b9392505050565b60008060408385031215610955578081fd5b61095e83610906565b915061096c60208401610906565b90509250929050565b600080600060608486031215610989578081fd5b61099284610906565b92506109a060208501610906565b9150604084013590509250925092565b600080600080600080600060e0888a0312156109ca578283fd5b6109d388610906565b96506109e160208901610906565b95506040880135945060608801359350608088013560ff81168114610a04578384fd5b9699959850939692959460a0840135945060c09093013592915050565b60008060408385031215610a33578182fd5b610a3c83610906565b946020939093013593505050565b6000602080835283518082850152825b81811015610a7657858101830151858201604001528201610a5a565b81811115610a875783604083870101525b50601f01601f1916929092016040019392505050565b60008219821115610ab057610ab0610b07565b500190565b600082821015610ac757610ac7610b07565b500390565b600181811c90821680610ae057607f821691505b60208210811415610b0157634e487b7160e01b600052602260045260246000fd5b50919050565b634e487b7160e01b600052601160045260246000fdfea26469706673582212206b7cfc7199a39826cc1e30ff9228fdd1277b74fcabb7c829bc59fd9c198c64ca64736f6c63430008040033",
  "linkReferences": {},
  "deployedLinkReferences": {}
}