{
  "_format": "hh-sol-artifact-1",
  "contractName": "CygnusComplexRewarder",
  "sourceName": "contracts/CygnusComplexRewarder.sol",
  "abi": [
    {
      "inputs": [
        {
          "internalType": "contract IHangar18",
          "name": "_hangar18",
          "type": "address"
        },
        {
          "internalType": "address",
          "name": "_rewardToken",
          "type": "address"
        },
        {
          "internalType": "uint256",
          "name": "_totalRewards",
          "type": "uint256"
        }
      ],
      "stateMutability": "nonpayable",
      "type": "constructor"
    },
    {
      "inputs": [
        {
          "internalType": "address",
          "name": "token",
          "type": "address"
        },
        {
          "internalType": "address",
          "name": "underlying",
          "type": "address"
        }
      ],
      "name": "CygnusComplexRewarder__CantSweepUnderlying",
      "type": "error"
    },
    {
      "inputs": [
        {
          "internalType": "uint256",
          "name": "max",
          "type": "uint256"
        },
        {
          "internalType": "uint256",
          "name": "value",
          "type": "uint256"
        }
      ],
      "name": "CygnusComplexRewarder__CygPerBlockExceedsLimit",
      "type": "error"
    },
    {
      "inputs": [
        {
          "internalType": "address",
          "name": "admin",
          "type": "address"
        },
        {
          "internalType": "address",
          "name": "sender",
          "type": "address"
        }
      ],
      "name": "CygnusComplexRewarder__MsgSenderNotAdmin",
      "type": "error"
    },
    {
      "inputs": [
        {
          "internalType": "address",
          "name": "borrowable",
          "type": "address"
        },
        {
          "internalType": "address",
          "name": "sender",
          "type": "address"
        }
      ],
      "name": "CygnusComplexRewarder__MsgSenderNotBorrowable",
      "type": "error"
    },
    {
      "inputs": [
        {
          "internalType": "address",
          "name": "sender",
          "type": "address"
        },
        {
          "internalType": "address",
          "name": "origin",
          "type": "address"
        }
      ],
      "name": "CygnusComplexRewarder__OnlyEOAAllowed",
      "type": "error"
    },
    {
      "inputs": [
        {
          "internalType": "uint256",
          "name": "shuttleId",
          "type": "uint256"
        },
        {
          "internalType": "address",
          "name": "borrowable",
          "type": "address"
        }
      ],
      "name": "CygnusComplexRewarder__ShuttleAlreadyInitialized",
      "type": "error"
    },
    {
      "inputs": [
        {
          "internalType": "uint256",
          "name": "shuttleId",
          "type": "uint256"
        },
        {
          "internalType": "address",
          "name": "borrowable",
          "type": "address"
        }
      ],
      "name": "CygnusComplexRewarder__ShuttleNotInitialized",
      "type": "error"
    },
    {
      "inputs": [
        {
          "internalType": "uint256",
          "name": "prod1",
          "type": "uint256"
        }
      ],
      "name": "PRBMath__MulDivFixedPointOverflow",
      "type": "error"
    },
    {
      "inputs": [
        {
          "internalType": "uint256",
          "name": "prod1",
          "type": "uint256"
        },
        {
          "internalType": "uint256",
          "name": "denominator",
          "type": "uint256"
        }
      ],
      "name": "PRBMath__MulDivOverflow",
      "type": "error"
    },
    {
      "inputs": [],
      "name": "ReentrantCall",
      "type": "error"
    },
    {
      "anonymous": false,
      "inputs": [
        {
          "indexed": true,
          "internalType": "address",
          "name": "borrowable",
          "type": "address"
        },
        {
          "indexed": false,
          "internalType": "address",
          "name": "sender",
          "type": "address"
        },
        {
          "indexed": false,
          "internalType": "uint256",
          "name": "reward",
          "type": "uint256"
        }
      ],
      "name": "CollectReward",
      "type": "event"
    },
    {
      "anonymous": false,
      "inputs": [
        {
          "indexed": false,
          "internalType": "uint256",
          "name": "lastRewardRate",
          "type": "uint256"
        },
        {
          "indexed": false,
          "internalType": "uint256",
          "name": "newRewardRate",
          "type": "uint256"
        }
      ],
      "name": "NewCygPerBlock",
      "type": "event"
    },
    {
      "anonymous": false,
      "inputs": [
        {
          "indexed": false,
          "internalType": "uint256",
          "name": "previousEpoch",
          "type": "uint256"
        },
        {
          "indexed": false,
          "internalType": "uint256",
          "name": "newEpoch",
          "type": "uint256"
        },
        {
          "indexed": false,
          "internalType": "uint256",
          "name": "_oldCygPerBlock",
          "type": "uint256"
        },
        {
          "indexed": false,
          "internalType": "uint256",
          "name": "_newCygPerBlock",
          "type": "uint256"
        }
      ],
      "name": "NewEpoch",
      "type": "event"
    },
    {
      "anonymous": false,
      "inputs": [
        {
          "indexed": true,
          "internalType": "uint256",
          "name": "shuttleId",
          "type": "uint256"
        },
        {
          "indexed": false,
          "internalType": "address",
          "name": "borrowable",
          "type": "address"
        },
        {
          "indexed": false,
          "internalType": "uint256",
          "name": "oldAllocPoint",
          "type": "uint256"
        },
        {
          "indexed": false,
          "internalType": "uint256",
          "name": "newAllocPoint",
          "type": "uint256"
        }
      ],
      "name": "NewShuttleAllocPoint",
      "type": "event"
    },
    {
      "anonymous": false,
      "inputs": [
        {
          "indexed": true,
          "internalType": "uint256",
          "name": "shuttleId",
          "type": "uint256"
        },
        {
          "indexed": true,
          "internalType": "address",
          "name": "borrowable",
          "type": "address"
        },
        {
          "indexed": false,
          "internalType": "uint256",
          "name": "allocPoints",
          "type": "uint256"
        }
      ],
      "name": "NewShuttleReward",
      "type": "event"
    },
    {
      "anonymous": false,
      "inputs": [
        {
          "indexed": false,
          "internalType": "address",
          "name": "sender",
          "type": "address"
        },
        {
          "indexed": false,
          "internalType": "uint256",
          "name": "_birth",
          "type": "uint256"
        },
        {
          "indexed": false,
          "internalType": "uint256",
          "name": "_death",
          "type": "uint256"
        },
        {
          "indexed": false,
          "internalType": "uint256",
          "name": "timestamp",
          "type": "uint256"
        }
      ],
      "name": "Supernova",
      "type": "event"
    },
    {
      "anonymous": false,
      "inputs": [
        {
          "indexed": true,
          "internalType": "address",
          "name": "token",
          "type": "address"
        },
        {
          "indexed": true,
          "internalType": "address",
          "name": "sender",
          "type": "address"
        },
        {
          "indexed": false,
          "internalType": "uint256",
          "name": "amount",
          "type": "uint256"
        },
        {
          "indexed": false,
          "internalType": "uint256",
          "name": "currentEpoch",
          "type": "uint256"
        }
      ],
      "name": "SweepToken",
      "type": "event"
    },
    {
      "anonymous": false,
      "inputs": [
        {
          "indexed": true,
          "internalType": "address",
          "name": "borrowable",
          "type": "address"
        },
        {
          "indexed": true,
          "internalType": "address",
          "name": "borrower",
          "type": "address"
        },
        {
          "indexed": false,
          "internalType": "uint256",
          "name": "borrowBalance",
          "type": "uint256"
        },
        {
          "indexed": false,
          "internalType": "uint256",
          "name": "borrowIndex",
          "type": "uint256"
        }
      ],
      "name": "TrackBorrow",
      "type": "event"
    },
    {
      "anonymous": false,
      "inputs": [
        {
          "indexed": true,
          "internalType": "address",
          "name": "borrowable",
          "type": "address"
        },
        {
          "indexed": false,
          "internalType": "uint256",
          "name": "lastRewardTime",
          "type": "uint256"
        },
        {
          "indexed": false,
          "internalType": "uint256",
          "name": "totalShares",
          "type": "uint256"
        },
        {
          "indexed": false,
          "internalType": "uint256",
          "name": "accRewardPerShare",
          "type": "uint256"
        }
      ],
      "name": "UpdateStar",
      "type": "event"
    },
    {
      "inputs": [],
      "name": "ACC_PRECISION",
      "outputs": [
        {
          "internalType": "uint256",
          "name": "",
          "type": "uint256"
        }
      ],
      "stateMutability": "view",
      "type": "function"
    },
    {
      "inputs": [],
      "name": "BLOCKS_PER_YEAR",
      "outputs": [
        {
          "internalType": "uint256",
          "name": "",
          "type": "uint256"
        }
      ],
      "stateMutability": "view",
      "type": "function"
    },
    {
      "inputs": [],
      "name": "DURATION",
      "outputs": [
        {
          "internalType": "uint256",
          "name": "",
          "type": "uint256"
        }
      ],
      "stateMutability": "view",
      "type": "function"
    },
    {
      "inputs": [],
      "name": "EPOCH_DURATION",
      "outputs": [
        {
          "internalType": "uint256",
          "name": "",
          "type": "uint256"
        }
      ],
      "stateMutability": "view",
      "type": "function"
    },
    {
      "inputs": [],
      "name": "MAX_CYG_PER_BLOCK",
      "outputs": [
        {
          "internalType": "uint256",
          "name": "",
          "type": "uint256"
        }
      ],
      "stateMutability": "view",
      "type": "function"
    },
    {
      "inputs": [],
      "name": "REDUCTION_FACTOR_PER_EPOCH",
      "outputs": [
        {
          "internalType": "uint256",
          "name": "",
          "type": "uint256"
        }
      ],
      "stateMutability": "view",
      "type": "function"
    },
    {
      "inputs": [],
      "name": "SHARES_PRECISION",
      "outputs": [
        {
          "internalType": "uint256",
          "name": "",
          "type": "uint256"
        }
      ],
      "stateMutability": "view",
      "type": "function"
    },
    {
      "inputs": [],
      "name": "TOTAL_EPOCHS",
      "outputs": [
        {
          "internalType": "uint256",
          "name": "",
          "type": "uint256"
        }
      ],
      "stateMutability": "view",
      "type": "function"
    },
    {
      "inputs": [],
      "name": "accelerateTheUniverse",
      "outputs": [],
      "stateMutability": "nonpayable",
      "type": "function"
    },
    {
      "inputs": [
        {
          "internalType": "uint256",
          "name": "shuttleId",
          "type": "uint256"
        },
        {
          "internalType": "uint256",
          "name": "allocPoint",
          "type": "uint256"
        }
      ],
      "name": "adjustShuttleRewards",
      "outputs": [],
      "stateMutability": "nonpayable",
      "type": "function"
    },
    {
      "inputs": [],
      "name": "advanceEpoch",
      "outputs": [],
      "stateMutability": "nonpayable",
      "type": "function"
    },
    {
      "inputs": [
        {
          "internalType": "uint256",
          "name": "",
          "type": "uint256"
        }
      ],
      "name": "allStars",
      "outputs": [
        {
          "internalType": "address",
          "name": "",
          "type": "address"
        }
      ],
      "stateMutability": "view",
      "type": "function"
    },
    {
      "inputs": [],
      "name": "birth",
      "outputs": [
        {
          "internalType": "uint256",
          "name": "",
          "type": "uint256"
        }
      ],
      "stateMutability": "view",
      "type": "function"
    },
    {
      "inputs": [
        {
          "internalType": "uint256",
          "name": "epoch",
          "type": "uint256"
        }
      ],
      "name": "calculateCygPerBlock",
      "outputs": [
        {
          "internalType": "uint256",
          "name": "_rewardRate",
          "type": "uint256"
        }
      ],
      "stateMutability": "view",
      "type": "function"
    },
    {
      "inputs": [
        {
          "internalType": "uint256",
          "name": "epoch",
          "type": "uint256"
        }
      ],
      "name": "calculateEpochRewards",
      "outputs": [
        {
          "internalType": "uint256",
          "name": "rewards",
          "type": "uint256"
        }
      ],
      "stateMutability": "view",
      "type": "function"
    },
    {
      "inputs": [
        {
          "internalType": "address",
          "name": "borrowable",
          "type": "address"
        },
        {
          "internalType": "address",
          "name": "to",
          "type": "address"
        }
      ],
      "name": "collect",
      "outputs": [],
      "stateMutability": "nonpayable",
      "type": "function"
    },
    {
      "inputs": [],
      "name": "currentEpochRewards",
      "outputs": [
        {
          "internalType": "uint256",
          "name": "",
          "type": "uint256"
        }
      ],
      "stateMutability": "view",
      "type": "function"
    },
    {
      "inputs": [],
      "name": "cygClaimed",
      "outputs": [
        {
          "internalType": "uint256",
          "name": "",
          "type": "uint256"
        }
      ],
      "stateMutability": "view",
      "type": "function"
    },
    {
      "inputs": [],
      "name": "cygPerBlock",
      "outputs": [
        {
          "internalType": "uint256",
          "name": "",
          "type": "uint256"
        }
      ],
      "stateMutability": "view",
      "type": "function"
    },
    {
      "inputs": [],
      "name": "cygToken",
      "outputs": [
        {
          "internalType": "address",
          "name": "",
          "type": "address"
        }
      ],
      "stateMutability": "view",
      "type": "function"
    },
    {
      "inputs": [],
      "name": "death",
      "outputs": [
        {
          "internalType": "uint256",
          "name": "",
          "type": "uint256"
        }
      ],
      "stateMutability": "view",
      "type": "function"
    },
    {
      "inputs": [
        {
          "internalType": "uint256",
          "name": "epoch",
          "type": "uint256"
        }
      ],
      "name": "emissionsCurve",
      "outputs": [
        {
          "internalType": "uint256",
          "name": "",
          "type": "uint256"
        }
      ],
      "stateMutability": "pure",
      "type": "function"
    },
    {
      "inputs": [],
      "name": "epochProgression",
      "outputs": [
        {
          "internalType": "uint256",
          "name": "",
          "type": "uint256"
        }
      ],
      "stateMutability": "view",
      "type": "function"
    },
    {
      "inputs": [],
      "name": "getBlockTimestamp",
      "outputs": [
        {
          "internalType": "uint256",
          "name": "",
          "type": "uint256"
        }
      ],
      "stateMutability": "view",
      "type": "function"
    },
    {
      "inputs": [],
      "name": "getCurrentEpoch",
      "outputs": [
        {
          "internalType": "uint256",
          "name": "currentEpoch",
          "type": "uint256"
        }
      ],
      "stateMutability": "view",
      "type": "function"
    },
    {
      "inputs": [
        {
          "internalType": "uint256",
          "name": "",
          "type": "uint256"
        }
      ],
      "name": "getEpochInfo",
      "outputs": [
        {
          "internalType": "uint256",
          "name": "epoch",
          "type": "uint256"
        },
        {
          "internalType": "uint256",
          "name": "rewardRate",
          "type": "uint256"
        },
        {
          "internalType": "uint256",
          "name": "totalRewards",
          "type": "uint256"
        },
        {
          "internalType": "uint256",
          "name": "totalClaimed",
          "type": "uint256"
        },
        {
          "internalType": "uint256",
          "name": "start",
          "type": "uint256"
        },
        {
          "internalType": "uint256",
          "name": "end",
          "type": "uint256"
        }
      ],
      "stateMutability": "view",
      "type": "function"
    },
    {
      "inputs": [
        {
          "internalType": "address",
          "name": "",
          "type": "address"
        }
      ],
      "name": "getStarInfo",
      "outputs": [
        {
          "internalType": "uint256",
          "name": "totalShares",
          "type": "uint256"
        },
        {
          "internalType": "uint256",
          "name": "accRewardPerShare",
          "type": "uint256"
        },
        {
          "internalType": "uint256",
          "name": "lastRewardTime",
          "type": "uint256"
        },
        {
          "internalType": "uint256",
          "name": "allocPoint",
          "type": "uint256"
        }
      ],
      "stateMutability": "view",
      "type": "function"
    },
    {
      "inputs": [
        {
          "internalType": "address",
          "name": "",
          "type": "address"
        },
        {
          "internalType": "address",
          "name": "",
          "type": "address"
        }
      ],
      "name": "getUserInfo",
      "outputs": [
        {
          "internalType": "uint256",
          "name": "shares",
          "type": "uint256"
        },
        {
          "internalType": "int256",
          "name": "rewardDebt",
          "type": "int256"
        }
      ],
      "stateMutability": "view",
      "type": "function"
    },
    {
      "inputs": [],
      "name": "hangar18",
      "outputs": [
        {
          "internalType": "contract IHangar18",
          "name": "",
          "type": "address"
        }
      ],
      "stateMutability": "view",
      "type": "function"
    },
    {
      "inputs": [
        {
          "internalType": "uint256",
          "name": "shuttleId",
          "type": "uint256"
        },
        {
          "internalType": "uint256",
          "name": "allocPoint",
          "type": "uint256"
        }
      ],
      "name": "initializeShuttleRewards",
      "outputs": [],
      "stateMutability": "nonpayable",
      "type": "function"
    },
    {
      "inputs": [],
      "name": "lastEpochTime",
      "outputs": [
        {
          "internalType": "uint256",
          "name": "",
          "type": "uint256"
        }
      ],
      "stateMutability": "view",
      "type": "function"
    },
    {
      "inputs": [
        {
          "internalType": "address",
          "name": "borrowable",
          "type": "address"
        },
        {
          "internalType": "address",
          "name": "_user",
          "type": "address"
        }
      ],
      "name": "pendingCyg",
      "outputs": [
        {
          "internalType": "uint256",
          "name": "pending",
          "type": "uint256"
        }
      ],
      "stateMutability": "view",
      "type": "function"
    },
    {
      "inputs": [
        {
          "internalType": "uint256",
          "name": "_cygPerBlock",
          "type": "uint256"
        }
      ],
      "name": "setCygPerBlock",
      "outputs": [],
      "stateMutability": "nonpayable",
      "type": "function"
    },
    {
      "inputs": [],
      "name": "starsLength",
      "outputs": [
        {
          "internalType": "uint256",
          "name": "",
          "type": "uint256"
        }
      ],
      "stateMutability": "view",
      "type": "function"
    },
    {
      "inputs": [],
      "name": "supernova",
      "outputs": [],
      "stateMutability": "nonpayable",
      "type": "function"
    },
    {
      "inputs": [
        {
          "internalType": "address",
          "name": "token",
          "type": "address"
        }
      ],
      "name": "sweepToken",
      "outputs": [],
      "stateMutability": "nonpayable",
      "type": "function"
    },
    {
      "inputs": [],
      "name": "timeUntilNextEpoch",
      "outputs": [
        {
          "internalType": "uint256",
          "name": "",
          "type": "uint256"
        }
      ],
      "stateMutability": "view",
      "type": "function"
    },
    {
      "inputs": [],
      "name": "timeUntilSupernova",
      "outputs": [
        {
          "internalType": "uint256",
          "name": "",
          "type": "uint256"
        }
      ],
      "stateMutability": "view",
      "type": "function"
    },
    {
      "inputs": [],
      "name": "totalAllocPoint",
      "outputs": [
        {
          "internalType": "uint256",
          "name": "",
          "type": "uint256"
        }
      ],
      "stateMutability": "view",
      "type": "function"
    },
    {
      "inputs": [],
      "name": "totalCyg",
      "outputs": [
        {
          "internalType": "uint256",
          "name": "",
          "type": "uint256"
        }
      ],
      "stateMutability": "view",
      "type": "function"
    },
    {
      "inputs": [],
      "name": "totalProgression",
      "outputs": [
        {
          "internalType": "uint256",
          "name": "",
          "type": "uint256"
        }
      ],
      "stateMutability": "view",
      "type": "function"
    },
    {
      "inputs": [
        {
          "internalType": "uint256",
          "name": "shuttleId",
          "type": "uint256"
        },
        {
          "internalType": "address",
          "name": "borrower",
          "type": "address"
        },
        {
          "internalType": "uint256",
          "name": "borrowBalance",
          "type": "uint256"
        },
        {
          "internalType": "uint256",
          "name": "borrowIndex",
          "type": "uint256"
        }
      ],
      "name": "trackBorrow",
      "outputs": [],
      "stateMutability": "nonpayable",
      "type": "function"
    },
    {
      "inputs": [
        {
          "internalType": "address",
          "name": "borrowable",
          "type": "address"
        }
      ],
      "name": "updateStar",
      "outputs": [],
      "stateMutability": "nonpayable",
      "type": "function"
    }
  ],
  "bytecode": "0x6101006040523480156200001257600080fd5b506040516200287a3803806200287a833981016040819052620000359162000604565b6000805460ff1916600117815560088290556200005290620002b7565b600581905567069789fbbc4f800010156200009a5760055460405163c3af7cc760e01b815267069789fbbc4f8000600482015260248101919091526044015b60405180910390fd5b6001600160601b0319606083811b821660e05284901b1660805242600781905560a0819052620000d06301e13380600462000687565b620000dc90826200064b565b60c0908152604080519182018152600082526005546020830152810160306200010b6301e13380600462000687565b62000117919062000666565b60055462000126919062000687565b8152600060208201526040810183905260600160306200014c6301e13380600462000687565b62000158919062000666565b6200016490846200064b565b905260008080526003602090815282517f3617319a054d772f909f7c479a2cebe5066e836a939412e32403c99029b92eff558201517f3617319a054d772f909f7c479a2cebe5066e836a939412e32403c99029b92f00556040828101517f3617319a054d772f909f7c479a2cebe5066e836a939412e32403c99029b92f015560608301517f3617319a054d772f909f7c479a2cebe5066e836a939412e32403c99029b92f025560808301517f3617319a054d772f909f7c479a2cebe5066e836a939412e32403c99029b92f035560a0909201517f3617319a054d772f909f7c479a2cebe5066e836a939412e32403c99029b92f045560055491517fcc53a96dddb8d3b8710c4932d9e90652a4eaef0bf4c37a13dc4d806e1b54cb4d92620002a592918291829193845260208401929092526040830152606082015260800190565b60405180910390a15050505062000710565b600080600060308410620002cf575060009392505050565b60005b84811162000352576200032d620002e98262000386565b6200031966c3663566a5800086600854620003059190620006a9565b6200041b60201b620015dd1790919060201c565b6200043b60201b620015f01790919060201c565b91506200033b82846200064b565b9250806200034981620006c3565b915050620002d2565b506030620003666301e13380600462000687565b62000372919062000666565b6200037e908262000666565b949350505050565b600080620003a466c3663566a58000670de0b6b3a7640000620006a9565b90506000620003b5846030620006a9565b9050670de0b6b3a764000060005b82811015620003fd57620003e684836200041b60201b620015dd1790919060201c565b915080620003f481620006c3565b915050620003c3565b506200041281670de0b6b3a7640000620006a9565b95945050505050565b60006200043483836200045d60201b620016051760201c565b9392505050565b60006200043483670de0b6b3a7640000846200052460201b620016c81760201c565b60008080600019848609848602925082811083820303915050670de0b6b3a76400008110620004a35760405163698d9a0160e11b81526004810182905260240162000091565b600080670de0b6b3a76400008688099150506706f05b59d3b1ffff811182620004df5780670de0b6b3a76400008504019450505050506200051e565b620400008285030493909111909103600160ee1b02919091177faccb18165bd6fe31ae1cf318dc5b51eee0e1ba569b88cd74c1773b91fac10669020190505b92915050565b60008080600019858709858702925082811083820303915050806000141562000570578382816200056557634e487b7160e01b600052601260045260246000fd5b049250505062000434565b8381106200059c57604051631dcf306360e21b8152600481018290526024810185905260440162000091565b600084868809600260036001881981018916988990049182028318808302840302808302840302808302840302808302840302808302840302918202909203026000889003889004909101858311909403939093029303949094049190911702949350505050565b60008060006060848603121562000619578283fd5b83516200062681620006f7565b60208501519093506200063981620006f7565b80925050604084015190509250925092565b60008219821115620006615762000661620006e1565b500190565b6000826200068257634e487b7160e01b81526012600452602481fd5b500490565b6000816000190483118215151615620006a457620006a4620006e1565b500290565b600082821015620006be57620006be620006e1565b500390565b6000600019821415620006da57620006da620006e1565b5060010190565b634e487b7160e01b600052601160045260246000fd5b6001600160a01b03811681146200070d57600080fd5b50565b60805160601c60a05160c05160e05160601c6120c1620007b96000396000818161038f01528181610757015281816107ae0152610fda015260008181610463015281816110c40152818161137901528181611a460152611b3001526000818161053901528181611111015281816113b30152611b0a0152600081816105a10152818161094301528181610d6f0152818161120f015281816118da0152611a7201526120c16000f3fe608060405234801561001057600080fd5b50600436106102995760003560e01c806382ebcd3211610171578063c81ba8f0116100d3578063d797c4c311610097578063f2b128a411610071578063f2b128a41461060a578063f6503e6c14610612578063fd59c2991461062557600080fd5b8063d797c4c314610594578063e8a24e1d1461059c578063f2801fe7146105c357600080fd5b8063c81ba8f014610534578063c9bdf7551461055b578063cb87f7f31461056e578063ce45ae1a14610581578063d37db1d21461058957600080fd5b8063a12ef25e11610135578063b97dd9e21161010f578063b97dd9e21461050a578063c1f1e5ae14610512578063c2ce25ca1461052157600080fd5b8063a12ef25e146104e7578063a70b9f0c146104fa578063b04530b01461050257600080fd5b806382ebcd32146104a757806383b28436146104ba57806389c614b8146104c357806393c3677b146104cc5780639e81b634146104df57600080fd5b80635493b5d61161021a5780636673fd97116101de57806372e127cb116101b857806372e127cb14610485578063796b89b9146104985780637f4b54081461049e57600080fd5b80636673fd971461040057806366a9d8fa146104085780636fa422611461045e57600080fd5b80635493b5d6146103c957806356f9ef96146103d25780635a5da627146103e55780635de7fcd0146103ed5780635f15c3c9146103f857600080fd5b806328419d621161026157806328419d621461036157806332fcd9661461036f5780633cf80e6c1461037a5780634a91f2b1146103825780634f5736861461038a57600080fd5b806301bac4c61461029e578063135022c2146102b357806317caf6f11461032f5780631be05289146103465780631be195601461034e575b600080fd5b6102b16102ac366004611e27565b610638565b005b6102fd6102c1366004611e27565b60036020528060005260406000206000915090508060000154908060010154908060020154908060030154908060040154908060050154905086565b604080519687526020870195909552938501929092526060840152608083015260a082015260c0015b60405180910390f35b61033860065481565b604051908152602001610326565b610338610706565b6102b161035c366004611d20565b610718565b61033866c3663566a5800081565b610338600160a01b81565b6102b1610864565b6102b16108b0565b6103b17f000000000000000000000000000000000000000000000000000000000000000081565b6040516001600160a01b039091168152602001610326565b61033860055481565b6102b16103e0366004611e3f565b6108f5565b610338610af5565b610338600160601b81565b610338603081565b610338610b35565b61043e610416366004611d20565b6001602081905260009182526040909120805491810154600282015460039092015490919084565b604080519485526020850193909352918301526060820152608001610326565b6103387f000000000000000000000000000000000000000000000000000000000000000081565b610338610493366004611e27565b610b6a565b42610338565b61033860085481565b6103386104b5366004611d58565b610be5565b61033860095481565b61033860075481565b6102b16104da366004611e7b565b610d19565b610338610f08565b6102b16104f5366004611d58565b610f24565b6103386110a4565b600454610338565b6103386110bf565b61033867069789fbbc4f800081565b6103b161052f366004611e27565b611140565b6103387f000000000000000000000000000000000000000000000000000000000000000081565b6102b1610569366004611d20565b61116a565b6102b161057c366004611e7b565b6111b9565b610338611371565b6103386301e1338081565b61033861139d565b6103b17f000000000000000000000000000000000000000000000000000000000000000081565b6105f56105d1366004611d58565b60026020908152600092835260408084209091529082529020805460019091015482565b60408051928352602083019190915201610326565b6102b16113d8565b610338610620366004611e27565b6114d9565b610338610633366004611e27565b611549565b60005460ff1661065b576040516306fda65d60e31b815260040160405180910390fd5b6000805460ff1916905561066d6117a3565b6106756118d6565b67069789fbbc4f80008111156106b45760405163c3af7cc760e01b815267069789fbbc4f80006004820152602481018290526044015b60405180910390fd5b600580549082905560408051828152602081018490527f3ea86743bc8b6977a0693f6611ad7256d6ec1e3f996c6cba22e146152959ddff910160405180910390a150506000805460ff19166001179055565b6107156301e133806004611fba565b81565b60005460ff1661073b576040516306fda65d60e31b815260040160405180910390fd5b6000805460ff1916905561074d6117a3565b6107556118d6565b7f00000000000000000000000000000000000000000000000000000000000000006001600160a01b0316816001600160a01b031614156107db5760405163ef52f72d60e01b81526001600160a01b0380831660048301527f00000000000000000000000000000000000000000000000000000000000000001660248201526044016106ab565b60006107f06001600160a01b038316306119a8565b90506108066001600160a01b03831633836119d1565b336001600160a01b0383167fee2522ca264e96c7cef76269664e2a4cea70ad76b78ee5b01d0587798a0a72d68361083b6110bf565b6040805192835260208301919091520160405180910390a350506000805460ff19166001179055565b60005460ff16610887576040516306fda65d60e31b815260040160405180910390fd5b6000805460ff191690556108996117a3565b6108a1611a1a565b6000805460ff19166001179055565b60005460ff166108d3576040516306fda65d60e31b815260040160405180910390fd5b6000805460ff191690556108e56117a3565b6108ed611a1a565b6108a1611a44565b60005460ff16610918576040516306fda65d60e31b815260040160405180910390fd5b6000805460ff1916905561092a6117a3565b604051631ad4c8c360e01b8152600481018590526000907f00000000000000000000000000000000000000000000000000000000000000006001600160a01b031690631ad4c8c39060240160a06040518083038186803b15801561098d57600080fd5b505afa1580156109a1573d6000803e3d6000fd5b505050506040513d601f19601f820116820180604052508101906109c59190611d90565b505092505050806001600160a01b03166109dc3390565b6001600160a01b031614610a145760405163741d1af960e01b81526001600160a01b03821660048201523360248201526044016106ab565b6000610a1f82611b95565b6001600160a01b038084166000908152600260209081526040808320938a16835292905290812091925084610a58600160601b88611fba565b610a629190611f23565b8254909150600090610a749083611fd9565b90506000600160a01b856020015183610a8d9190611f37565b610a979190611ef5565b8385556001850154909150610aad908290611e9c565b60018501558451610abf908390611e9c565b6001600160a01b039096166000908152600160208190526040822097909755805460ff1916909617909555505050505050505050565b6000600754610b014290565b610b0b9190612018565b6030610b1c6301e133806004611fba565b610b269190611f23565b610b309190612018565b905090565b6000610b306030610b4b6301e133806004611fba565b610b559190611f23565b600754425b610b649190612018565b906115f0565b600080610b8666c3663566a58000670de0b6b3a7640000612018565b90506000610b95846030612018565b9050670de0b6b3a764000060005b82811015610bc957610bb582856115dd565b915080610bc18161202f565b915050610ba3565b50610bdc81670de0b6b3a7640000612018565b95945050505050565b6001600160a01b0382811660008181526001602081815260408084208151608081018352815481528185015481850190815260028084015483860152600390930154606083015296865290835281852096881685529582528084208151808301909252805482529092015490820152915183519193929184429050846040015181118015610c7257508115155b15610ce1576000856040015182610c899190612018565b90506000600654876060015160055484610ca39190611fba565b610cad9190611fba565b610cb79190611f23565b905083610cc8600160a01b83611fba565b610cd29190611f23565b610cdc9086611edd565b945050505b60208401518451600160a01b90610cf9908690611fba565b610d039190611f23565b610d0d9190612018565b98975050505050505050565b60005460ff16610d3c576040516306fda65d60e31b815260040160405180910390fd5b6000805460ff19169055610d4e6117a3565b610d566118d6565b604051631ad4c8c360e01b8152600481018390526000907f00000000000000000000000000000000000000000000000000000000000000006001600160a01b031690631ad4c8c39060240160a06040518083038186803b158015610db957600080fd5b505afa158015610dcd573d6000803e3d6000fd5b505050506040513d601f19601f82011682018060405250810190610df19190611d90565b50506001600160a01b038116600090815260016020526040902060038101549194509250159050610e47576040516362da3a2b60e11b8152600481018590526001600160a01b03831660248201526044016106ab565b8260066000828254610e599190611edd565b909155505060038101839055600480546001810182556000919091527f8a35acfbc15ff81a39ae7d344fd709f28e8600b4aa8c65c6b64bfe7fe36bd19b01805473ffffffffffffffffffffffffffffffffffffffff19166001600160a01b03841690811790915560405184815285907f68bea3f037520d478c14fd27a27947249aade51810b62999af0776bbd0097b969060200160405180910390a350506000805460ff191660011790555050565b600080610f136110bf565b9050610f1e816114d9565b91505090565b60005460ff16610f47576040516306fda65d60e31b815260040160405180910390fd5b6000805460ff19169055610f596117a3565b6000610f6483611b95565b6001600160a01b0384166000908152600260209081526040808320338452825282209083015181549394509092600160a01b91610fa091611fba565b610faa9190611f23565b90506000826001015482610fbe9190611fd9565b600184018390559050801561104c576110016001600160a01b037f00000000000000000000000000000000000000000000000000000000000000001686836119d1565b80600960008282546110139190611edd565b90915550819050600360006110266110bf565b815260200190815260200160002060030160008282546110469190611edd565b90915550505b604080513381526020810183905281516001600160a01b038916927f56cc9cf62f5a3a4367575119e524522956236e34a9a06eab7fcf9880b76b81cc928290030190a250506000805460ff1916600117905550505050565b60306110b56301e133806004611fba565b6107159190611f23565b6000427f000000000000000000000000000000000000000000000000000000000000000081106110f157603091505090565b60306111026301e133806004611fba565b61110c9190611f23565b6111367f000000000000000000000000000000000000000000000000000000000000000083612018565b610f1e9190611f23565b6004818154811061115057600080fd5b6000918252602090912001546001600160a01b0316905081565b60005460ff1661118d576040516306fda65d60e31b815260040160405180910390fd5b6000805460ff1916905561119f6117a3565b6111a881611b95565b50506000805460ff19166001179055565b60005460ff166111dc576040516306fda65d60e31b815260040160405180910390fd5b6000805460ff191690556111ee6117a3565b6111f66118d6565b604051631ad4c8c360e01b8152600481018390526000907f00000000000000000000000000000000000000000000000000000000000000006001600160a01b031690631ad4c8c39060240160a06040518083038186803b15801561125957600080fd5b505afa15801561126d573d6000803e3d6000fd5b505050506040513d601f19601f820116820180604052508101906112919190611d90565b50506001600160a01b038116600090815260016020526040902060038101549194509250151590506112e85760405163316e864360e01b8152600481018590526001600160a01b03831660248201526044016106ab565b600381015460065484906112fd908390612018565b6113079190611edd565b60065560038201849055604080516001600160a01b03851681526020810183905290810185905285907f9436a68f01cf8a4f756c053a98d6d88cdbd763a2d8ad77273779d054e2b82eef9060600160405180910390a250506000805460ff19166001179055505050565b6000610b30427f0000000000000000000000000000000000000000000000000000000000000000612018565b6000610b306113b16301e133806004611fba565b7f000000000000000000000000000000000000000000000000000000000000000042610b5a565b60005460ff166113fb576040516306fda65d60e31b815260040160405180910390fd5b6000805460ff1916905561140d6117a3565b600061141860045490565b90506000600480548060200260200160405190810160405280929190818152602001828054801561147257602002820191906000526020600020905b81546001600160a01b03168152600190910190602001808311611454575b5050505050905060005b828110156114c7576114b48282815181106114a757634e487b7160e01b600052603260045260246000fd5b6020026020010151611b95565b50806114bf8161202f565b91505061147c565b50506000805460ff1916600117905550565b600080603083106114ed5750600092915050565b60005b8381116115425761152261150382610b6a565b610b6466c3663566a580008560085461151c9190612018565b906115dd565b925061152e8383611edd565b91508061153a8161202f565b9150506114f0565b5050919050565b600080600060308410611560575060009392505050565b60005b8481116115af5761158f61157682610b6a565b610b6466c3663566a580008660085461151c9190612018565b915061159b8284611edd565b9250806115a78161202f565b915050611563565b5060306115c16301e133806004611fba565b6115cb9190611f23565b6115d59082611f23565b949350505050565b60006115e98383611605565b9392505050565b60006115e983670de0b6b3a7640000846116c8565b60008080600019848609848602925082811083820303915050670de0b6b3a764000081106116495760405163698d9a0160e11b8152600481018290526024016106ab565b600080670de0b6b3a76400008688099150506706f05b59d3b1ffff8111826116835780670de0b6b3a76400008504019450505050506116c2565b620400008285030493909111909103600160ee1b02919091177faccb18165bd6fe31ae1cf318dc5b51eee0e1ba569b88cd74c1773b91fac10669020190505b92915050565b6000808060001985870985870292508281108382030391505080600014156117115783828161170757634e487b7160e01b600052601260045260246000fd5b04925050506115e9565b83811061173b57604051631dcf306360e21b815260048101829052602481018590526044016106ab565b600084868809600260036001881981018916988990049182028318808302840302808302840302808302840302808302840302808302840302918202909203026000889003889004909101858311909403939093029303949094049190911702949350505050565b60075442906000906117b59083612018565b9050600060306117ca6301e133806004611fba565b6117d49190611f23565b6117de9083611f23565b905080156118d15760006117f06110bf565b905060006117fe8383611edd565b905060308110156118ce5760055461181583611549565b600555600786905560008381526003602052604090206004808201889055603090611845906301e1338090611fba565b61184f9190611f23565b6118599088611edd565b600580830191909155848255546001820155611874846114d9565b60028201557fcc53a96dddb8d3b8710c4932d9e90652a4eaef0bf4c37a13dc4d806e1b54cb4d6118a5600186612018565b60055460408051928352602083018890528201859052606082015260800160405180910390a150505b50505b505050565b60007f00000000000000000000000000000000000000000000000000000000000000006001600160a01b031663f851a4406040518163ffffffff1660e01b815260040160206040518083038186803b15801561193157600080fd5b505afa158015611945573d6000803e3d6000fd5b505050506040513d601f19601f820116820180604052508101906119699190611d3c565b9050336001600160a01b038216146119a557604051635113afbd60e01b81526001600160a01b03821660048201523360248201526044016106ab565b50565b60006370a08231600052816020526020806024601c865afa601f3d111660205102905092915050565b81601a5280603a5269a9059cbb00000000000060005260206000604460166000875af13d156001600051141716611a10576390b8ec186000526004601cfd5b6000603a52505050565b333214611a4257604051631f0f593360e11b81523360048201523260248201526044016106ab565b565b7f0000000000000000000000000000000000000000000000000000000000000000421015611a6e57565b60007f00000000000000000000000000000000000000000000000000000000000000006001600160a01b031663f851a4406040518163ffffffff1660e01b815260040160206040518083038186803b158015611ac957600080fd5b505afa158015611add573d6000803e3d6000fd5b505050506040513d601f19601f82011682018060405250810190611b019190611d3c565b604080513381527f000000000000000000000000000000000000000000000000000000000000000060208201527f00000000000000000000000000000000000000000000000000000000000000008183015242606082015290519192507f3448d68e439b81df30dbd68606f415f65c9eabaaef0aca1ffc0368cc3954c6dc919081900360800190a1806001600160a01b0316ff5b611bc06040518060800160405280600081526020016000815260200160008152602001600081525090565b506001600160a01b03811660009081526001602081815260409283902083516080810185528154815292810154918301919091526002810154928201839052600301546060820152904290811115611d1a5781518015611c8c576000836040015183611c2c9190612018565b90506000600654856060015160055484611c469190611fba565b611c509190611fba565b611c5a9190611f23565b905082611c6b600160a01b83611fba565b611c759190611f23565b8560200151611c849190611edd565b602086015250505b60408084018381526001600160a01b03861660008181526001602081815291859020885181559188015190820181905592516002820155606087015160039091015591517f7868e52ea410afbf6de8be8145fe80ee3efe3f37a824d8ccfbbfd1fa42904b4d91611d1091869186919283526020830191909152604082015260600190565b60405180910390a2505b50919050565b600060208284031215611d31578081fd5b81356115e981612076565b600060208284031215611d4d578081fd5b81516115e981612076565b60008060408385031215611d6a578081fd5b8235611d7581612076565b91506020830135611d8581612076565b809150509250929050565b600080600080600060a08688031215611da7578081fd5b85518015158114611db6578182fd5b60208701519095506affffffffffffffffffffff81168114611dd6578182fd5b6040870151909450611de781612076565b6060870151909350611df881612076565b60808701519092506bffffffffffffffffffffffff81168114611e19578182fd5b809150509295509295909350565b600060208284031215611e38578081fd5b5035919050565b60008060008060808587031215611e54578384fd5b843593506020850135611e6681612076565b93969395505050506040820135916060013590565b60008060408385031215611e8d578182fd5b50508035926020909101359150565b600080821280156001600160ff1b0384900385131615611ebe57611ebe61204a565b600160ff1b8390038412811615611ed757611ed761204a565b50500190565b60008219821115611ef057611ef061204a565b500190565b600082611f0457611f04612060565b600160ff1b821460001984141615611f1e57611f1e61204a565b500590565b600082611f3257611f32612060565b500490565b60006001600160ff1b0381841382841380821686840486111615611f5d57611f5d61204a565b600160ff1b84871282811687830589121615611f7b57611f7b61204a565b858712925087820587128484161615611f9657611f9661204a565b87850587128184161615611fac57611fac61204a565b505050929093029392505050565b6000816000190483118215151615611fd457611fd461204a565b500290565b60008083128015600160ff1b850184121615611ff757611ff761204a565b6001600160ff1b03840183138116156120125761201261204a565b50500390565b60008282101561202a5761202a61204a565b500390565b60006000198214156120435761204361204a565b5060010190565b634e487b7160e01b600052601160045260246000fd5b634e487b7160e01b600052601260045260246000fd5b6001600160a01b03811681146119a557600080fdfea264697066735822122035e211d06ebf46df48a25df138980cedde71abab0e9749deff81c1567dc18c1764736f6c63430008040033",
  "linkReferences": {},
  "deployedLinkReferences": {}
}