{
  "_format": "hh-sol-artifact-1",
  "contractName": "CygnusERC20",
  "sourceName": "contracts/cygnus-token/CygnusERC20.sol",
  "abi": [
    {
      "inputs": [],
      "stateMutability": "nonpayable",
      "type": "constructor"
    },
    {
      "inputs": [],
      "name": "AllowanceOverflow",
      "type": "error"
    },
    {
      "inputs": [],
      "name": "AllowanceUnderflow",
      "type": "error"
    },
    {
      "inputs": [],
      "name": "ExceedsSupplyCap",
      "type": "error"
    },
    {
      "inputs": [],
      "name": "InsufficientAllowance",
      "type": "error"
    },
    {
      "inputs": [],
      "name": "InsufficientBalance",
      "type": "error"
    },
    {
      "inputs": [],
      "name": "InvalidPermit",
      "type": "error"
    },
    {
      "inputs": [],
      "name": "NewOwnerIsZeroAddress",
      "type": "error"
    },
    {
      "inputs": [],
      "name": "NoHandoverRequest",
      "type": "error"
    },
    {
      "inputs": [],
      "name": "PermitExpired",
      "type": "error"
    },
    {
      "inputs": [],
      "name": "TotalSupplyOverflow",
      "type": "error"
    },
    {
      "inputs": [],
      "name": "Unauthorized",
      "type": "error"
    },
    {
      "anonymous": false,
      "inputs": [
        {
          "indexed": true,
          "internalType": "address",
          "name": "owner",
          "type": "address"
        },
        {
          "indexed": true,
          "internalType": "address",
          "name": "spender",
          "type": "address"
        },
        {
          "indexed": false,
          "internalType": "uint256",
          "name": "amount",
          "type": "uint256"
        }
      ],
      "name": "Approval",
      "type": "event"
    },
    {
      "anonymous": false,
      "inputs": [
        {
          "indexed": true,
          "internalType": "address",
          "name": "pendingOwner",
          "type": "address"
        }
      ],
      "name": "OwnershipHandoverCanceled",
      "type": "event"
    },
    {
      "anonymous": false,
      "inputs": [
        {
          "indexed": true,
          "internalType": "address",
          "name": "pendingOwner",
          "type": "address"
        }
      ],
      "name": "OwnershipHandoverRequested",
      "type": "event"
    },
    {
      "anonymous": false,
      "inputs": [
        {
          "indexed": true,
          "internalType": "address",
          "name": "oldOwner",
          "type": "address"
        },
        {
          "indexed": true,
          "internalType": "address",
          "name": "newOwner",
          "type": "address"
        }
      ],
      "name": "OwnershipTransferred",
      "type": "event"
    },
    {
      "anonymous": false,
      "inputs": [
        {
          "indexed": true,
          "internalType": "address",
          "name": "from",
          "type": "address"
        },
        {
          "indexed": true,
          "internalType": "address",
          "name": "to",
          "type": "address"
        },
        {
          "indexed": false,
          "internalType": "uint256",
          "name": "amount",
          "type": "uint256"
        }
      ],
      "name": "Transfer",
      "type": "event"
    },
    {
      "inputs": [],
      "name": "CAP",
      "outputs": [
        {
          "internalType": "uint256",
          "name": "",
          "type": "uint256"
        }
      ],
      "stateMutability": "view",
      "type": "function"
    },
    {
      "inputs": [],
      "name": "DOMAIN_SEPARATOR",
      "outputs": [
        {
          "internalType": "bytes32",
          "name": "result",
          "type": "bytes32"
        }
      ],
      "stateMutability": "view",
      "type": "function"
    },
    {
      "inputs": [
        {
          "internalType": "address",
          "name": "owner",
          "type": "address"
        },
        {
          "internalType": "address",
          "name": "spender",
          "type": "address"
        }
      ],
      "name": "allowance",
      "outputs": [
        {
          "internalType": "uint256",
          "name": "result",
          "type": "uint256"
        }
      ],
      "stateMutability": "view",
      "type": "function"
    },
    {
      "inputs": [
        {
          "internalType": "address",
          "name": "spender",
          "type": "address"
        },
        {
          "internalType": "uint256",
          "name": "amount",
          "type": "uint256"
        }
      ],
      "name": "approve",
      "outputs": [
        {
          "internalType": "bool",
          "name": "",
          "type": "bool"
        }
      ],
      "stateMutability": "nonpayable",
      "type": "function"
    },
    {
      "inputs": [
        {
          "internalType": "address",
          "name": "owner",
          "type": "address"
        }
      ],
      "name": "balanceOf",
      "outputs": [
        {
          "internalType": "uint256",
          "name": "result",
          "type": "uint256"
        }
      ],
      "stateMutability": "view",
      "type": "function"
    },
    {
      "inputs": [],
      "name": "cancelOwnershipHandover",
      "outputs": [],
      "stateMutability": "payable",
      "type": "function"
    },
    {
      "inputs": [
        {
          "internalType": "address",
          "name": "pendingOwner",
          "type": "address"
        }
      ],
      "name": "completeOwnershipHandover",
      "outputs": [],
      "stateMutability": "payable",
      "type": "function"
    },
    {
      "inputs": [],
      "name": "decimals",
      "outputs": [
        {
          "internalType": "uint8",
          "name": "",
          "type": "uint8"
        }
      ],
      "stateMutability": "view",
      "type": "function"
    },
    {
      "inputs": [
        {
          "internalType": "address",
          "name": "spender",
          "type": "address"
        },
        {
          "internalType": "uint256",
          "name": "difference",
          "type": "uint256"
        }
      ],
      "name": "decreaseAllowance",
      "outputs": [
        {
          "internalType": "bool",
          "name": "",
          "type": "bool"
        }
      ],
      "stateMutability": "nonpayable",
      "type": "function"
    },
    {
      "inputs": [
        {
          "internalType": "address",
          "name": "spender",
          "type": "address"
        },
        {
          "internalType": "uint256",
          "name": "difference",
          "type": "uint256"
        }
      ],
      "name": "increaseAllowance",
      "outputs": [
        {
          "internalType": "bool",
          "name": "",
          "type": "bool"
        }
      ],
      "stateMutability": "nonpayable",
      "type": "function"
    },
    {
      "inputs": [
        {
          "internalType": "address",
          "name": "to",
          "type": "address"
        },
        {
          "internalType": "uint256",
          "name": "amount",
          "type": "uint256"
        }
      ],
      "name": "mint",
      "outputs": [],
      "stateMutability": "nonpayable",
      "type": "function"
    },
    {
      "inputs": [],
      "name": "name",
      "outputs": [
        {
          "internalType": "string",
          "name": "",
          "type": "string"
        }
      ],
      "stateMutability": "pure",
      "type": "function"
    },
    {
      "inputs": [
        {
          "internalType": "address",
          "name": "owner",
          "type": "address"
        }
      ],
      "name": "nonces",
      "outputs": [
        {
          "internalType": "uint256",
          "name": "result",
          "type": "uint256"
        }
      ],
      "stateMutability": "view",
      "type": "function"
    },
    {
      "inputs": [],
      "name": "owner",
      "outputs": [
        {
          "internalType": "address",
          "name": "result",
          "type": "address"
        }
      ],
      "stateMutability": "view",
      "type": "function"
    },
    {
      "inputs": [
        {
          "internalType": "address",
          "name": "pendingOwner",
          "type": "address"
        }
      ],
      "name": "ownershipHandoverExpiresAt",
      "outputs": [
        {
          "internalType": "uint256",
          "name": "result",
          "type": "uint256"
        }
      ],
      "stateMutability": "view",
      "type": "function"
    },
    {
      "inputs": [],
      "name": "ownershipHandoverValidFor",
      "outputs": [
        {
          "internalType": "uint64",
          "name": "",
          "type": "uint64"
        }
      ],
      "stateMutability": "view",
      "type": "function"
    },
    {
      "inputs": [
        {
          "internalType": "address",
          "name": "owner",
          "type": "address"
        },
        {
          "internalType": "address",
          "name": "spender",
          "type": "address"
        },
        {
          "internalType": "uint256",
          "name": "value",
          "type": "uint256"
        },
        {
          "internalType": "uint256",
          "name": "deadline",
          "type": "uint256"
        },
        {
          "internalType": "uint8",
          "name": "v",
          "type": "uint8"
        },
        {
          "internalType": "bytes32",
          "name": "r",
          "type": "bytes32"
        },
        {
          "internalType": "bytes32",
          "name": "s",
          "type": "bytes32"
        }
      ],
      "name": "permit",
      "outputs": [],
      "stateMutability": "nonpayable",
      "type": "function"
    },
    {
      "inputs": [],
      "name": "renounceOwnership",
      "outputs": [],
      "stateMutability": "payable",
      "type": "function"
    },
    {
      "inputs": [],
      "name": "requestOwnershipHandover",
      "outputs": [],
      "stateMutability": "payable",
      "type": "function"
    },
    {
      "inputs": [],
      "name": "symbol",
      "outputs": [
        {
          "internalType": "string",
          "name": "",
          "type": "string"
        }
      ],
      "stateMutability": "pure",
      "type": "function"
    },
    {
      "inputs": [],
      "name": "totalSupply",
      "outputs": [
        {
          "internalType": "uint256",
          "name": "result",
          "type": "uint256"
        }
      ],
      "stateMutability": "view",
      "type": "function"
    },
    {
      "inputs": [
        {
          "internalType": "address",
          "name": "to",
          "type": "address"
        },
        {
          "internalType": "uint256",
          "name": "amount",
          "type": "uint256"
        }
      ],
      "name": "transfer",
      "outputs": [
        {
          "internalType": "bool",
          "name": "",
          "type": "bool"
        }
      ],
      "stateMutability": "nonpayable",
      "type": "function"
    },
    {
      "inputs": [
        {
          "internalType": "address",
          "name": "from",
          "type": "address"
        },
        {
          "internalType": "address",
          "name": "to",
          "type": "address"
        },
        {
          "internalType": "uint256",
          "name": "amount",
          "type": "uint256"
        }
      ],
      "name": "transferFrom",
      "outputs": [
        {
          "internalType": "bool",
          "name": "",
          "type": "bool"
        }
      ],
      "stateMutability": "nonpayable",
      "type": "function"
    },
    {
      "inputs": [
        {
          "internalType": "address",
          "name": "newOwner",
          "type": "address"
        }
      ],
      "name": "transferOwnership",
      "outputs": [],
      "stateMutability": "payable",
      "type": "function"
    }
  ],
  "bytecode": "0x608080604052346100455733638b78c6d819553360007f8be0079c531659141344cd1fd0a4f28419497f9722a3daafe3b4186f6b6457e08180a36110ab908161004b8239f35b600080fdfe6040608081526004908136101561001557600080fd5b600091823560e01c806306fdde0314610e78578063095ea7b314610dda57806318160ddd14610d9557806323b872dd14610c705780632569296214610c07578063313ce56714610bcd5780633644e51514610b8b5780633950935114610ad357806340c10f191461099e57806354d1f13d1461093a57806370a08231146108d4578063715018a6146108555780637ecebe00146107ef5780638da5cb5b1461077d57806395d89b411461070a578063a457c2d714610651578063a9059cbb1461058e578063d505accf1461040f578063d7533f02146103d3578063dd62ed3e1461035d578063ec81b48314610319578063f04e283e14610250578063f2fde38b146101925763fee81cf41461012957600080fd5b3461018e5760207ffffffffffffffffffffffffffffffffffffffffffffffffffffffffffffffffc36011261018e573573ffffffffffffffffffffffffffffffffffffffff8116810361018e5760209263389a75e1600c525281600c20549051908152f35b8280fd5b838260207ffffffffffffffffffffffffffffffffffffffffffffffffffffffffffffffffc36011261024c5780359073ffffffffffffffffffffffffffffffffffffffff821691828103610248576101e8611066565b60601b1561023d57507fffffffffffffffffffffffffffffffffffffffffffffffffffffffff748739278181547f8be0079c531659141344cd1fd0a4f28419497f9722a3daafe3b4186f6b6457e08580a35580f35b637448fbae8352601cfd5b8380fd5b5080fd5b838260207ffffffffffffffffffffffffffffffffffffffffffffffffffffffffffffffffc36011261024c5780359073ffffffffffffffffffffffffffffffffffffffff821691828103610248576102a6611066565b63389a75e1600c5283526020600c20908154421161030e57508290557fffffffffffffffffffffffffffffffffffffffffffffffffffffffff748739278181547f8be0079c531659141344cd1fd0a4f28419497f9722a3daafe3b4186f6b6457e08580a35580f35b636f5e88188452601cfd5b50503461024c57817ffffffffffffffffffffffffffffffffffffffffffffffffffffffffffffffffc36011261024c57602090516a01a784379d99db420000008152f35b503461018e57817ffffffffffffffffffffffffffffffffffffffffffffffffffffffffffffffffc36011261018e573573ffffffffffffffffffffffffffffffffffffffff808216820361024857602435908116810361024857926020938452637f5e9f20600c52526034600c20549051908152f35b50503461024c57817ffffffffffffffffffffffffffffffffffffffffffffffffffffffffffffffffc36011261024c57602090516202a3008152f35b5091903461024c5760e07ffffffffffffffffffffffffffffffffffffffffffffffffffffffffffffffffc36011261024c57823573ffffffffffffffffffffffffffffffffffffffff918282168092036102485760243592831680930361024857604435606435906084359260ff8416840361058a5761048d610fce565b93815184421161057e5760c0906338377508600c52878a5260209687600c20968754976001890190557f6e71edae12b1b97f4d1f60370fef10105fa2faae0126114a169c64845d6126c9835289898401528a868401526060830197878952608084015260a08301526119018b5287522082526042601e20885260ff16845260a435815260c435606052838060808960015afa50843d510361057257777f5e9f200000000000000000000000000000000000000000861790526034602c20557f8c5be1e5ebec7d5bd14f71427d1e84f3dd0314c0f7b2291e5b200ac8c7c3b9259190a380f35b8763ddafbaef8852601cfd5b89631a15a3cc8a52601cfd5b8680fd5b50913461064e57817ffffffffffffffffffffffffffffffffffffffffffffffffffffffffffffffffc36011261064e57823573ffffffffffffffffffffffffffffffffffffffff8116810361024c57602435916387a211a2600c5233815260209485600c2090815490818611610643575084900390555282600c208181540190558252600c5160601c337fddf252ad1be2c89b69c2b068fc378daa952ba7f163c4a11628f55a4df523b3ef8480a35160018152f35b63f4d678b88452601cfd5b80fd5b50913461064e57817ffffffffffffffffffffffffffffffffffffffffffffffffffffffffffffffffc36011261064e57823573ffffffffffffffffffffffffffffffffffffffff8116810361024c5760243590602052637f5e9f20600c523382526034600c209081548181106106fe5760209550038091558152602c5160601c907f8c5be1e5ebec7d5bd14f71427d1e84f3dd0314c0f7b2291e5b200ac8c7c3b925843392a35160018152f35b85638301ab388552601cfd5b50503461024c57817ffffffffffffffffffffffffffffffffffffffffffffffffffffffffffffffffc36011261024c57610779906107486003610f49565b907f435947000000000000000000000000000000000000000000000000000000000060208301525191829182610ee3565b0390f35b50503461024c57817ffffffffffffffffffffffffffffffffffffffffffffffffffffffffffffffffc36011261024c5760209073ffffffffffffffffffffffffffffffffffffffff7fffffffffffffffffffffffffffffffffffffffffffffffffffffffff7487392754915191168152f35b503461018e5760207ffffffffffffffffffffffffffffffffffffffffffffffffffffffffffffffffc36011261018e573573ffffffffffffffffffffffffffffffffffffffff8116810361018e576020926338377508600c525281600c20549051908152f35b83807ffffffffffffffffffffffffffffffffffffffffffffffffffffffffffffffffc36011261064e57610887611066565b807fffffffffffffffffffffffffffffffffffffffffffffffffffffffff748739278181547f8be0079c531659141344cd1fd0a4f28419497f9722a3daafe3b4186f6b6457e08280a35580f35b503461018e5760207ffffffffffffffffffffffffffffffffffffffffffffffffffffffffffffffffc36011261018e573573ffffffffffffffffffffffffffffffffffffffff8116810361018e576020926387a211a2600c525281600c20549051908152f35b83807ffffffffffffffffffffffffffffffffffffffffffffffffffffffffffffffffc36011261064e5763389a75e1600c52338152806020600c2055337ffa7b8eab7da67f412cc9575ed43464468f9bfbae89d1675917346ca6d8fe3c928280a280f35b50903461018e57807ffffffffffffffffffffffffffffffffffffffffffffffffffffffffffffffffc36011261018e5781359073ffffffffffffffffffffffffffffffffffffffff8216820361024857602435926109fa611066565b6805345cdf77eb68f44c90815485810193848211610aa7576a01a784379d99db420000008511610a7f57508310610a745750556387a211a2600c5282526020600c20818154019055602052600c5160601c817fddf252ad1be2c89b69c2b068fc378daa952ba7f163c4a11628f55a4df523b3ef602080a380f35b63e5cfe9578652601cfd5b9050517f62aef310000000000000000000000000000000000000000000000000000000008152fd5b6024886011857f4e487b7100000000000000000000000000000000000000000000000000000000835252fd5b50913461064e57817ffffffffffffffffffffffffffffffffffffffffffffffffffffffffffffffffc36011261064e57823573ffffffffffffffffffffffffffffffffffffffff8116810361024c57602052637f5e9f20600c523381526034600c20928354906024358201918210610b80575080602094558152602c5160601c907f8c5be1e5ebec7d5bd14f71427d1e84f3dd0314c0f7b2291e5b200ac8c7c3b925843392a35160018152f35b63f90670668352601cfd5b50503461024c57817ffffffffffffffffffffffffffffffffffffffffffffffffffffffffffffffffc36011261024c57602090610bc6610fce565b9051908152f35b50503461024c57817ffffffffffffffffffffffffffffffffffffffffffffffffffffffffffffffffc36011261024c576020905160128152f35b83807ffffffffffffffffffffffffffffffffffffffffffffffffffffffffffffffffc36011261064e5763389a75e1600c523381526202a30042016020600c2055337fdbf36a107da19e49527a7176a1babf963b4b0ff8cde35ee35d6cd8f1f9ac7e1d8280a280f35b50913461064e5760607ffffffffffffffffffffffffffffffffffffffffffffffffffffffffffffffffc36011261064e5773ffffffffffffffffffffffffffffffffffffffff8335818116929183820361018e57602435908116810361018e576044359160601b92602096338852600c94637f5e9f20811786526034862080547fffffffffffffffffffffffffffffffffffffffffffffffffffffffffffffffff8103610d72575b50506387a211a217855287852090815490818611610643575084900390555284822081815401905584525160601c907fddf252ad1be2c89b69c2b068fc378daa952ba7f163c4a11628f55a4df523b3ef8480a35160018152f35b808711610d895786900390556387a211a238610d18565b836313be252b8652601cfd5b50503461024c57817ffffffffffffffffffffffffffffffffffffffffffffffffffffffffffffffffc36011261024c576020906805345cdf77eb68f44c549051908152f35b503461018e57817ffffffffffffffffffffffffffffffffffffffffffffffffffffffffffffffffc36011261018e573573ffffffffffffffffffffffffffffffffffffffff8116810361018e5791602092602435908452637f5e9f20600c52338252806034600c20558152602c5160601c907f8c5be1e5ebec7d5bd14f71427d1e84f3dd0314c0f7b2291e5b200ac8c7c3b925843392a35160018152f35b50503461024c57817ffffffffffffffffffffffffffffffffffffffffffffffffffffffffffffffffc36011261024c5761077990610eb66009610f49565b907f4379676e757344414f0000000000000000000000000000000000000000000000602083015251918291825b60208082528251818301819052939260005b858110610f35575050507fffffffffffffffffffffffffffffffffffffffffffffffffffffffffffffffe0601f8460006040809697860101520116010190565b818101830151848201604001528201610ef5565b9067ffffffffffffffff91828111610f9f57604051927fffffffffffffffffffffffffffffffffffffffffffffffffffffffffffffffe0603f81601f850116011684019084821090821117610f9f576040528252565b7f4e487b7100000000000000000000000000000000000000000000000000000000600052604160045260246000fd5b60a0604051610fdd6009610f49565b60208101907f4379676e757344414f000000000000000000000000000000000000000000000082525190207f8b73c3c69bb8fe3d512ecc4cf759cc79239f7b179b0ffacaa9a75d522b39400f825260208201527fc89efdaa54c0f20c7adf612882df0950f5a951637e0307cdcb4c672f298b8bc660408201524660608201523060808201522090565b7fffffffffffffffffffffffffffffffffffffffffffffffffffffffff7487392754330361109057565b6382b429006000526004601cfdfea164736f6c6343000811000a",
  "linkReferences": {},
  "deployedLinkReferences": {}
}