{
  "_format": "hh-sol-artifact-1",
  "contractName": "TokenVesting",
  "sourceName": "contracts/cygnus-token/TokenVesting.sol",
  "abi": [
    {
      "inputs": [
        {
          "internalType": "address",
          "name": "token_",
          "type": "address"
        }
      ],
      "stateMutability": "nonpayable",
      "type": "constructor"
    },
    {
      "inputs": [],
      "name": "ReentrantCall",
      "type": "error"
    },
    {
      "anonymous": false,
      "inputs": [
        {
          "indexed": true,
          "internalType": "address",
          "name": "user",
          "type": "address"
        },
        {
          "indexed": true,
          "internalType": "address",
          "name": "newOwner",
          "type": "address"
        }
      ],
      "name": "OwnershipTransferred",
      "type": "event"
    },
    {
      "stateMutability": "payable",
      "type": "fallback"
    },
    {
      "inputs": [
        {
          "internalType": "address",
          "name": "holder",
          "type": "address"
        }
      ],
      "name": "computeNextVestingScheduleIdForHolder",
      "outputs": [
        {
          "internalType": "bytes32",
          "name": "",
          "type": "bytes32"
        }
      ],
      "stateMutability": "view",
      "type": "function"
    },
    {
      "inputs": [
        {
          "internalType": "bytes32",
          "name": "vestingScheduleId",
          "type": "bytes32"
        }
      ],
      "name": "computeReleasableAmount",
      "outputs": [
        {
          "internalType": "uint256",
          "name": "",
          "type": "uint256"
        }
      ],
      "stateMutability": "view",
      "type": "function"
    },
    {
      "inputs": [
        {
          "internalType": "address",
          "name": "holder",
          "type": "address"
        },
        {
          "internalType": "uint256",
          "name": "index",
          "type": "uint256"
        }
      ],
      "name": "computeVestingScheduleIdForAddressAndIndex",
      "outputs": [
        {
          "internalType": "bytes32",
          "name": "",
          "type": "bytes32"
        }
      ],
      "stateMutability": "pure",
      "type": "function"
    },
    {
      "inputs": [
        {
          "internalType": "address",
          "name": "_beneficiary",
          "type": "address"
        },
        {
          "internalType": "uint256",
          "name": "_start",
          "type": "uint256"
        },
        {
          "internalType": "uint256",
          "name": "_cliff",
          "type": "uint256"
        },
        {
          "internalType": "uint256",
          "name": "_duration",
          "type": "uint256"
        },
        {
          "internalType": "uint256",
          "name": "_slicePeriodSeconds",
          "type": "uint256"
        },
        {
          "internalType": "bool",
          "name": "_revocable",
          "type": "bool"
        },
        {
          "internalType": "uint256",
          "name": "_amount",
          "type": "uint256"
        }
      ],
      "name": "createVestingSchedule",
      "outputs": [],
      "stateMutability": "nonpayable",
      "type": "function"
    },
    {
      "inputs": [
        {
          "internalType": "address",
          "name": "holder",
          "type": "address"
        }
      ],
      "name": "getLastVestingScheduleForHolder",
      "outputs": [
        {
          "components": [
            {
              "internalType": "bool",
              "name": "initialized",
              "type": "bool"
            },
            {
              "internalType": "address",
              "name": "beneficiary",
              "type": "address"
            },
            {
              "internalType": "uint256",
              "name": "cliff",
              "type": "uint256"
            },
            {
              "internalType": "uint256",
              "name": "start",
              "type": "uint256"
            },
            {
              "internalType": "uint256",
              "name": "duration",
              "type": "uint256"
            },
            {
              "internalType": "uint256",
              "name": "slicePeriodSeconds",
              "type": "uint256"
            },
            {
              "internalType": "bool",
              "name": "revocable",
              "type": "bool"
            },
            {
              "internalType": "uint256",
              "name": "amountTotal",
              "type": "uint256"
            },
            {
              "internalType": "uint256",
              "name": "released",
              "type": "uint256"
            },
            {
              "internalType": "bool",
              "name": "revoked",
              "type": "bool"
            }
          ],
          "internalType": "struct TokenVesting.VestingSchedule",
          "name": "",
          "type": "tuple"
        }
      ],
      "stateMutability": "view",
      "type": "function"
    },
    {
      "inputs": [],
      "name": "getToken",
      "outputs": [
        {
          "internalType": "address",
          "name": "",
          "type": "address"
        }
      ],
      "stateMutability": "view",
      "type": "function"
    },
    {
      "inputs": [
        {
          "internalType": "uint256",
          "name": "index",
          "type": "uint256"
        }
      ],
      "name": "getVestingIdAtIndex",
      "outputs": [
        {
          "internalType": "bytes32",
          "name": "",
          "type": "bytes32"
        }
      ],
      "stateMutability": "view",
      "type": "function"
    },
    {
      "inputs": [
        {
          "internalType": "bytes32",
          "name": "vestingScheduleId",
          "type": "bytes32"
        }
      ],
      "name": "getVestingSchedule",
      "outputs": [
        {
          "components": [
            {
              "internalType": "bool",
              "name": "initialized",
              "type": "bool"
            },
            {
              "internalType": "address",
              "name": "beneficiary",
              "type": "address"
            },
            {
              "internalType": "uint256",
              "name": "cliff",
              "type": "uint256"
            },
            {
              "internalType": "uint256",
              "name": "start",
              "type": "uint256"
            },
            {
              "internalType": "uint256",
              "name": "duration",
              "type": "uint256"
            },
            {
              "internalType": "uint256",
              "name": "slicePeriodSeconds",
              "type": "uint256"
            },
            {
              "internalType": "bool",
              "name": "revocable",
              "type": "bool"
            },
            {
              "internalType": "uint256",
              "name": "amountTotal",
              "type": "uint256"
            },
            {
              "internalType": "uint256",
              "name": "released",
              "type": "uint256"
            },
            {
              "internalType": "bool",
              "name": "revoked",
              "type": "bool"
            }
          ],
          "internalType": "struct TokenVesting.VestingSchedule",
          "name": "",
          "type": "tuple"
        }
      ],
      "stateMutability": "view",
      "type": "function"
    },
    {
      "inputs": [
        {
          "internalType": "address",
          "name": "holder",
          "type": "address"
        },
        {
          "internalType": "uint256",
          "name": "index",
          "type": "uint256"
        }
      ],
      "name": "getVestingScheduleByAddressAndIndex",
      "outputs": [
        {
          "components": [
            {
              "internalType": "bool",
              "name": "initialized",
              "type": "bool"
            },
            {
              "internalType": "address",
              "name": "beneficiary",
              "type": "address"
            },
            {
              "internalType": "uint256",
              "name": "cliff",
              "type": "uint256"
            },
            {
              "internalType": "uint256",
              "name": "start",
              "type": "uint256"
            },
            {
              "internalType": "uint256",
              "name": "duration",
              "type": "uint256"
            },
            {
              "internalType": "uint256",
              "name": "slicePeriodSeconds",
              "type": "uint256"
            },
            {
              "internalType": "bool",
              "name": "revocable",
              "type": "bool"
            },
            {
              "internalType": "uint256",
              "name": "amountTotal",
              "type": "uint256"
            },
            {
              "internalType": "uint256",
              "name": "released",
              "type": "uint256"
            },
            {
              "internalType": "bool",
              "name": "revoked",
              "type": "bool"
            }
          ],
          "internalType": "struct TokenVesting.VestingSchedule",
          "name": "",
          "type": "tuple"
        }
      ],
      "stateMutability": "view",
      "type": "function"
    },
    {
      "inputs": [],
      "name": "getVestingSchedulesCount",
      "outputs": [
        {
          "internalType": "uint256",
          "name": "",
          "type": "uint256"
        }
      ],
      "stateMutability": "view",
      "type": "function"
    },
    {
      "inputs": [
        {
          "internalType": "address",
          "name": "_beneficiary",
          "type": "address"
        }
      ],
      "name": "getVestingSchedulesCountByBeneficiary",
      "outputs": [
        {
          "internalType": "uint256",
          "name": "",
          "type": "uint256"
        }
      ],
      "stateMutability": "view",
      "type": "function"
    },
    {
      "inputs": [],
      "name": "getVestingSchedulesTotalAmount",
      "outputs": [
        {
          "internalType": "uint256",
          "name": "",
          "type": "uint256"
        }
      ],
      "stateMutability": "view",
      "type": "function"
    },
    {
      "inputs": [],
      "name": "getWithdrawableAmount",
      "outputs": [
        {
          "internalType": "uint256",
          "name": "",
          "type": "uint256"
        }
      ],
      "stateMutability": "view",
      "type": "function"
    },
    {
      "inputs": [],
      "name": "owner",
      "outputs": [
        {
          "internalType": "address",
          "name": "",
          "type": "address"
        }
      ],
      "stateMutability": "view",
      "type": "function"
    },
    {
      "inputs": [
        {
          "internalType": "bytes32",
          "name": "vestingScheduleId",
          "type": "bytes32"
        },
        {
          "internalType": "uint256",
          "name": "amount",
          "type": "uint256"
        }
      ],
      "name": "release",
      "outputs": [],
      "stateMutability": "nonpayable",
      "type": "function"
    },
    {
      "inputs": [
        {
          "internalType": "bytes32",
          "name": "vestingScheduleId",
          "type": "bytes32"
        }
      ],
      "name": "revoke",
      "outputs": [],
      "stateMutability": "nonpayable",
      "type": "function"
    },
    {
      "inputs": [
        {
          "internalType": "address",
          "name": "newOwner",
          "type": "address"
        }
      ],
      "name": "transferOwnership",
      "outputs": [],
      "stateMutability": "nonpayable",
      "type": "function"
    },
    {
      "inputs": [
        {
          "internalType": "uint256",
          "name": "amount",
          "type": "uint256"
        }
      ],
      "name": "withdraw",
      "outputs": [],
      "stateMutability": "nonpayable",
      "type": "function"
    },
    {
      "stateMutability": "payable",
      "type": "receive"
    }
  ],
  "bytecode": "0x60a0346100d357601f611abe38819003918201601f19168301916001600160401b038311848410176100d8578084926020946040528339810103126100d357516001600160a01b038116908190036100d3576000908154916040519233827f8be0079c531659141344cd1fd0a4f28419497f9722a3daafe3b4186f6b6457e08180a36001600160a81b0319163360ff60a01b191617600160a01b17815581156100d057506080526119cf90816100ef823960805181818161061a01528181610e0301528181610ef601526117c50152f35b80fd5b600080fd5b634e487b7160e01b600052604160045260246000fdfe608060409080825260049081361015610020575b505050361561001e57005b005b600090813560e01c90816313083617146114d95750806317e289e914610f1a57806321df0da714610eab5780632e1a7d4d14610d4a57806348deb47114610d0d5780635a7bb69a14610ca857806366afd8ef14610a405780637e913dc6146109645780638af104da146109045780638da5cb5b146108b357806390be10cc146108785780639ef346b414610838578063b75c7dc614610463578063ea1bb3d5146103fa578063f2fde38b14610347578063f51321d714610245578063f7c469f0146101ce5763f9079b370361001357346101cb5760207ffffffffffffffffffffffffffffffffffffffffffffffffffffffffffffffffc3601126101cb57508035906001548210156101485760208361013a846001611624565b91905490519160031b1c8152f35b60849060208451917f08c379a0000000000000000000000000000000000000000000000000000000008352820152602160248201527f546f6b656e56657374696e673a20696e646578206f7574206f6620626f756e6460448201527f73000000000000000000000000000000000000000000000000000000000000006064820152fd5b80fd5b509190346102415760207ffffffffffffffffffffffffffffffffffffffffffffffffffffffffffffffffc3601126102415780359073ffffffffffffffffffffffffffffffffffffffff821680830361023d5784526020908152928290205461023691611842565b9051908152f35b8480fd5b8280fd5b5091903461024157817ffffffffffffffffffffffffffffffffffffffffffffffffffffffffffffffffc36011261024157359173ffffffffffffffffffffffffffffffffffffffff831683036101cb57506102b76102b2610343936102a861170c565b5060243590611842565b61175b565b90519182918291909161014081019280511515825273ffffffffffffffffffffffffffffffffffffffff602082015116602083015260408101516040830152606081015160608301526080810151608083015260a081015160a083015260c0810151151560c083015260e081015160e08301526101008082015190830152610120809101511515910152565b0390f35b5090346103f65760207ffffffffffffffffffffffffffffffffffffffffffffffffffffffffffffffffc3601126103f6573573ffffffffffffffffffffffffffffffffffffffff808216809203610241577fffffffffffffffffffffffff000000000000000000000000000000000000000082916103ca85549182163314611513565b16178255337f8be0079c531659141344cd1fd0a4f28419497f9722a3daafe3b4186f6b6457e08380a380f35b5080fd5b509190346102415760207ffffffffffffffffffffffffffffffffffffffffffffffffffffffffffffffffc36011261024157358252600260205260ff8183205416156103f65760ff60088284200154166103f65761023661045e826020942061166b565b6118d9565b50913461024157602091827ffffffffffffffffffffffffffffffffffffffffffffffffffffffffffffffffc3601126108345780359084549273ffffffffffffffffffffffffffffffffffffffff908185163314926104c184611513565b8488526002875260ff9687838a2054161561078357876008848b2001541661078357828920978060058a015416156107b3576104ff61045e8a61166b565b9687610558575b8a60088b61052861052060068301546007840154906116ff565b6003546116ff565b6003550160017fffffffffffffffffffffffffffffffffffffffffffffffffffffffffffffff0082541617905580f35b818960a01c161561078b577fffffffffffffffffffffff00ffffffffffffffffffffffffffffffffffffffff8099168b558a526002825280848b20541615610787576008848b20015416610783578289209284845460081c169586331490811561077b575b50156106d457866105d061045e8661166b565b106106535750505092600895949261063f926007740100000000000000000000000000000000000000009601610607848254611578565b9055610615836003546116ff565b6003557f00000000000000000000000000000000000000000000000000000000000000001661197f565b845416178355903880808080808080610506565b6084935051917f08c379a0000000000000000000000000000000000000000000000000000000008352820152603d60248201527f546f6b656e56657374696e673a2063616e6e6f742072656c6561736520746f6b60448201527f656e732c206e6f7420656e6f7567682076657374656420746f6b656e730000006064820152fd5b60a4935051917f08c379a0000000000000000000000000000000000000000000000000000000008352820152604260248201527f546f6b656e56657374696e673a206f6e6c792062656e6566696369617279206160448201527f6e64206f776e65722063616e2072656c656173652076657374656420746f6b6560648201527f6e730000000000000000000000000000000000000000000000000000000000006084820152fd5b9050386105bd565b8880fd5b8980fd5b8385517f37ed32e8000000000000000000000000000000000000000000000000000000008152fd5b5060849251917f08c379a0000000000000000000000000000000000000000000000000000000008352820152602660248201527f546f6b656e56657374696e673a2076657374696e67206973206e6f742072657660448201527f6f6361626c6500000000000000000000000000000000000000000000000000006064820152fd5b8380fd5b508290346101cb5760207ffffffffffffffffffffffffffffffffffffffffffffffffffffffffffffffffc3601126101cb57506102b7610343923561175b565b5082346103f657817ffffffffffffffffffffffffffffffffffffffffffffffffffffffffffffffffc3601126103f65760209061023661177c565b5082346103f657817ffffffffffffffffffffffffffffffffffffffffffffffffffffffffffffffffc3601126103f65773ffffffffffffffffffffffffffffffffffffffff60209254169051908152f35b5091903461024157817ffffffffffffffffffffffffffffffffffffffffffffffffffffffffffffffffc36011261024157359173ffffffffffffffffffffffffffffffffffffffff831683036101cb575061023660209260243590611842565b508290346101cb5760207ffffffffffffffffffffffffffffffffffffffffffffffffffffffffffffffffc3601126101cb57823573ffffffffffffffffffffffffffffffffffffffff8116808203610241576109be61170c565b5082528360205282822054907fffffffffffffffffffffffffffffffffffffffffffffffffffffffffffffffff8201918211610a1457928092610a076102b79361034396611842565b815260026020522061166b565b6024836011877f4e487b7100000000000000000000000000000000000000000000000000000000835252fd5b5090346103f657827ffffffffffffffffffffffffffffffffffffffffffffffffffffffffffffffffc3601126103f657602435825460ff8160a01c1615610c80577fffffffffffffffffffffff00ffffffffffffffffffffffffffffffffffffffff92838216855580358552600260205260ff86862054161561023d5760ff600887872001541661023d5785852073ffffffffffffffffffffffffffffffffffffffff9182825460081c169383853314918215610c73575b505015610bca5784610b0c61045e8461166b565b10610b47575091740100000000000000000000000000000000000000009493916007610b3e9401610607848254611578565b82541617815580f35b60849060208951917f08c379a0000000000000000000000000000000000000000000000000000000008352820152603d60248201527f546f6b656e56657374696e673a2063616e6e6f742072656c6561736520746f6b60448201527f656e732c206e6f7420656e6f7567682076657374656420746f6b656e730000006064820152fd5b60a49060208951917f08c379a0000000000000000000000000000000000000000000000000000000008352820152604260248201527f546f6b656e56657374696e673a206f6e6c792062656e6566696369617279206160448201527f6e64206f776e65722063616e2072656c656173652076657374656420746f6b6560648201527f6e730000000000000000000000000000000000000000000000000000000000006084820152fd5b9091501633148338610af8565b8285517f37ed32e8000000000000000000000000000000000000000000000000000000008152fd5b509190346102415760207ffffffffffffffffffffffffffffffffffffffffffffffffffffffffffffffffc36011261024157803573ffffffffffffffffffffffffffffffffffffffff8116809103610834579282916020948252845220549051908152f35b5082346103f657817ffffffffffffffffffffffffffffffffffffffffffffffffffffffffffffffffc3601126103f6576020906003549051908152f35b5090346103f65760207ffffffffffffffffffffffffffffffffffffffffffffffffffffffffffffffffc3601126103f6578035825460ff8160a01c1615610c80577fffffffffffffffffffffff00ffffffffffffffffffffffffffffffffffffffff928382168555610dd473ffffffffffffffffffffffffffffffffffffffff8093163314611513565b82610ddd61177c565b10610e285750740100000000000000000000000000000000000000009291610b3e9133907f00000000000000000000000000000000000000000000000000000000000000001661197f565b60849060208751917f08c379a0000000000000000000000000000000000000000000000000000000008352820152602b60248201527f546f6b656e56657374696e673a206e6f7420656e6f756768207769746864726160448201527f7761626c652066756e64730000000000000000000000000000000000000000006064820152fd5b5082346103f657817ffffffffffffffffffffffffffffffffffffffffffffffffffffffffffffffffc3601126103f6576020905173ffffffffffffffffffffffffffffffffffffffff7f0000000000000000000000000000000000000000000000000000000000000000168152f35b5091346102415760e07ffffffffffffffffffffffffffffffffffffffffffffffffffffffffffffffffc3601126102415773ffffffffffffffffffffffffffffffffffffffff918035838116908181036114d557602490868235916044978835916064908135906084359260a435948515158096036114d157610fa49060c4359854163314611513565b86610fad61177c565b106114295782156113a757861561134f5760019c8d85106112ce5786841061124d575050928c928b928d96958b86528c60205284862054610fed91611842565b98610ff98a9782611578565b978551986110096101408b6115b4565b818a528d60208b01908152878b0191825260608b0193845260808b0194855260a08b0195865260c08b0196875260e08b01978c89526101008c0199808b526101208d019b818d5281526002602052209a511515611091908c9060ff7fffffffffffffffffffffffffffffffffffffffffffffffffffffffffffffff0083541691151516179055565b518a549060081b74ffffffffffffffffffffffffffffffffffffffff0016907fffffffffffffffffffffff0000000000000000000000000000000000000000ff16178a555190890155516002880155516003870155518a8601555115156005850190611127919060ff7fffffffffffffffffffffffffffffffffffffffffffffffffffffffffffffff0083541691151516179055565b516006840155516007830155511515906008019061116f919060ff7fffffffffffffffffffffffffffffffffffffffffffffffffffffffffffffff0083541691151516179055565b6003549061117c91611578565b6003558554680100000000000000008110156112225780876111a19201885587611624565b819291549060031b7fffffffffffffffffffffffffffffffffffffffffffffffffffffffffffffffff811b9283911b1691191617905581865282602052838620549485018095116111f85750845260205282205580f35b856011847f4e487b7100000000000000000000000000000000000000000000000000000000835252fd5b82886041877f4e487b7100000000000000000000000000000000000000000000000000000000835252fd5b8b7f3d20636c69666600000000000000000000000000000000000000000000000000838f60849460278f60207f546f6b656e56657374696e673a206475726174696f6e206d757374206265203e9451977f08c379a0000000000000000000000000000000000000000000000000000000008952880152860152840152820152fd5b8b7f206d757374206265203e3d203100000000000000000000000000000000000000838f608494602d8f60207f546f6b656e56657374696e673a20736c696365506572696f645365636f6e64739451977f08c379a0000000000000000000000000000000000000000000000000000000008952880152860152840152820152fd5b8b517f08c379a00000000000000000000000000000000000000000000000000000000081526020818d01819052818b01527f546f6b656e56657374696e673a20616d6f756e74206d757374206265203e2030818f0152fd5b8a7f20300000000000000000000000000000000000000000000000000000000000006084928f8f9060228e60207f546f6b656e56657374696e673a206475726174696f6e206d757374206265203e9451977f08c379a0000000000000000000000000000000000000000000000000000000008952880152860152840152820152fd5b8a7f696e67207363686564756c652062656361757365206e6f74207375666669636960a4928f8f90604a8e60207f546f6b656e56657374696e673a2063616e6e6f742063726561746520766573749451977f08c379a00000000000000000000000000000000000000000000000000000000089528801528601528401528201527f656e7420746f6b656e73000000000000000000000000000000000000000000006084820152fd5b8780fd5b8580fd5b9050346103f657817ffffffffffffffffffffffffffffffffffffffffffffffffffffffffffffffffc3601126103f6576020906001548152f35b1561151a57565b60646040517f08c379a000000000000000000000000000000000000000000000000000000000815260206004820152600c60248201527f554e415554484f52495a454400000000000000000000000000000000000000006044820152fd5b9190820180921161158557565b7f4e487b7100000000000000000000000000000000000000000000000000000000600052601160045260246000fd5b90601f7fffffffffffffffffffffffffffffffffffffffffffffffffffffffffffffffe0910116810190811067ffffffffffffffff8211176115f557604052565b7f4e487b7100000000000000000000000000000000000000000000000000000000600052604160045260246000fd5b805482101561163c5760005260206000200190600090565b7f4e487b7100000000000000000000000000000000000000000000000000000000600052603260045260246000fd5b9060405161167b610140826115b4565b61012060ff6008839573ffffffffffffffffffffffffffffffffffffffff815484811615158752831c166020860152600181015460408601526002810154606086015260038101546080860152600481015460a086015282600582015416151560c0860152600681015460e086015260078101546101008601520154161515910152565b9190820391821161158557565b6040519061171c610140836115b4565b816101206000918281528260208201528260408201528260608201528260808201528260a08201528260c08201528260e0820152826101008201520152565b61176361170c565b506000526002602052611779604060002061166b565b90565b6040517f70a0823100000000000000000000000000000000000000000000000000000000815230600482015260208160248173ffffffffffffffffffffffffffffffffffffffff7f0000000000000000000000000000000000000000000000000000000000000000165afa801561183657600090611803575b6117799150600354906116ff565b6020823d821161182e575b8161181b602093836115b4565b810103126101cb575061177990516117f5565b3d915061180e565b6040513d6000823e3d90fd5b90604051907fffffffffffffffffffffffffffffffffffffffff000000000000000000000000602083019360601b1683526034820152603481526118876054826115b4565b51902090565b8115611897570490565b7f4e487b7100000000000000000000000000000000000000000000000000000000600052601260045260246000fd5b8181029291811591840414171561158557565b604081015142108015611971575b156118f25750600090565b606081019081519161190a6080830193845190611578565b42106119275750611779915061010060e0820151910151906116ff565b611968611779936119606119566119426101009551426116ff565b61195160a0880151809261188d565b6118c6565b60e08601516118c6565b90519061188d565b910151906116ff565b5061012081015115156118e7565b601692602092601a52603a52604460009384809369a9059cbb00000000000082525af13d1560018351141716156119b557603a52565b6390b8ec1890526004601cfdfea164736f6c6343000811000a",
  "linkReferences": {},
  "deployedLinkReferences": {}
}