{
  "_format": "hh-sol-artifact-1",
  "contractName": "CygnusERC20",
  "sourceName": "contracts/cygnus-token/CygnusToken.sol",
  "abi": [
    {
      "inputs": [],
      "stateMutability": "nonpayable",
      "type": "constructor"
    },
    {
      "inputs": [],
      "name": "AllowanceOverflow",
      "type": "error"
    },
    {
      "inputs": [],
      "name": "AllowanceUnderflow",
      "type": "error"
    },
    {
      "inputs": [],
      "name": "InsufficientAllowance",
      "type": "error"
    },
    {
      "inputs": [],
      "name": "InsufficientBalance",
      "type": "error"
    },
    {
      "inputs": [],
      "name": "InvalidPermit",
      "type": "error"
    },
    {
      "inputs": [],
      "name": "PermitExpired",
      "type": "error"
    },
    {
      "inputs": [],
      "name": "TotalSupplyOverflow",
      "type": "error"
    },
    {
      "anonymous": false,
      "inputs": [
        {
          "indexed": true,
          "internalType": "address",
          "name": "owner",
          "type": "address"
        },
        {
          "indexed": true,
          "internalType": "address",
          "name": "spender",
          "type": "address"
        },
        {
          "indexed": false,
          "internalType": "uint256",
          "name": "amount",
          "type": "uint256"
        }
      ],
      "name": "Approval",
      "type": "event"
    },
    {
      "anonymous": false,
      "inputs": [
        {
          "indexed": true,
          "internalType": "address",
          "name": "from",
          "type": "address"
        },
        {
          "indexed": true,
          "internalType": "address",
          "name": "to",
          "type": "address"
        },
        {
          "indexed": false,
          "internalType": "uint256",
          "name": "amount",
          "type": "uint256"
        }
      ],
      "name": "Transfer",
      "type": "event"
    },
    {
      "inputs": [],
      "name": "DOMAIN_SEPARATOR",
      "outputs": [
        {
          "internalType": "bytes32",
          "name": "result",
          "type": "bytes32"
        }
      ],
      "stateMutability": "view",
      "type": "function"
    },
    {
      "inputs": [
        {
          "internalType": "address",
          "name": "owner",
          "type": "address"
        },
        {
          "internalType": "address",
          "name": "spender",
          "type": "address"
        }
      ],
      "name": "allowance",
      "outputs": [
        {
          "internalType": "uint256",
          "name": "result",
          "type": "uint256"
        }
      ],
      "stateMutability": "view",
      "type": "function"
    },
    {
      "inputs": [
        {
          "internalType": "address",
          "name": "spender",
          "type": "address"
        },
        {
          "internalType": "uint256",
          "name": "amount",
          "type": "uint256"
        }
      ],
      "name": "approve",
      "outputs": [
        {
          "internalType": "bool",
          "name": "",
          "type": "bool"
        }
      ],
      "stateMutability": "nonpayable",
      "type": "function"
    },
    {
      "inputs": [
        {
          "internalType": "address",
          "name": "owner",
          "type": "address"
        }
      ],
      "name": "balanceOf",
      "outputs": [
        {
          "internalType": "uint256",
          "name": "result",
          "type": "uint256"
        }
      ],
      "stateMutability": "view",
      "type": "function"
    },
    {
      "inputs": [],
      "name": "decimals",
      "outputs": [
        {
          "internalType": "uint8",
          "name": "",
          "type": "uint8"
        }
      ],
      "stateMutability": "view",
      "type": "function"
    },
    {
      "inputs": [
        {
          "internalType": "address",
          "name": "spender",
          "type": "address"
        },
        {
          "internalType": "uint256",
          "name": "difference",
          "type": "uint256"
        }
      ],
      "name": "decreaseAllowance",
      "outputs": [
        {
          "internalType": "bool",
          "name": "",
          "type": "bool"
        }
      ],
      "stateMutability": "nonpayable",
      "type": "function"
    },
    {
      "inputs": [
        {
          "internalType": "address",
          "name": "spender",
          "type": "address"
        },
        {
          "internalType": "uint256",
          "name": "difference",
          "type": "uint256"
        }
      ],
      "name": "increaseAllowance",
      "outputs": [
        {
          "internalType": "bool",
          "name": "",
          "type": "bool"
        }
      ],
      "stateMutability": "nonpayable",
      "type": "function"
    },
    {
      "inputs": [],
      "name": "name",
      "outputs": [
        {
          "internalType": "string",
          "name": "",
          "type": "string"
        }
      ],
      "stateMutability": "pure",
      "type": "function"
    },
    {
      "inputs": [
        {
          "internalType": "address",
          "name": "owner",
          "type": "address"
        }
      ],
      "name": "nonces",
      "outputs": [
        {
          "internalType": "uint256",
          "name": "result",
          "type": "uint256"
        }
      ],
      "stateMutability": "view",
      "type": "function"
    },
    {
      "inputs": [
        {
          "internalType": "address",
          "name": "owner",
          "type": "address"
        },
        {
          "internalType": "address",
          "name": "spender",
          "type": "address"
        },
        {
          "internalType": "uint256",
          "name": "value",
          "type": "uint256"
        },
        {
          "internalType": "uint256",
          "name": "deadline",
          "type": "uint256"
        },
        {
          "internalType": "uint8",
          "name": "v",
          "type": "uint8"
        },
        {
          "internalType": "bytes32",
          "name": "r",
          "type": "bytes32"
        },
        {
          "internalType": "bytes32",
          "name": "s",
          "type": "bytes32"
        }
      ],
      "name": "permit",
      "outputs": [],
      "stateMutability": "nonpayable",
      "type": "function"
    },
    {
      "inputs": [],
      "name": "symbol",
      "outputs": [
        {
          "internalType": "string",
          "name": "",
          "type": "string"
        }
      ],
      "stateMutability": "pure",
      "type": "function"
    },
    {
      "inputs": [],
      "name": "totalSupply",
      "outputs": [
        {
          "internalType": "uint256",
          "name": "result",
          "type": "uint256"
        }
      ],
      "stateMutability": "view",
      "type": "function"
    },
    {
      "inputs": [
        {
          "internalType": "address",
          "name": "to",
          "type": "address"
        },
        {
          "internalType": "uint256",
          "name": "amount",
          "type": "uint256"
        }
      ],
      "name": "transfer",
      "outputs": [
        {
          "internalType": "bool",
          "name": "",
          "type": "bool"
        }
      ],
      "stateMutability": "nonpayable",
      "type": "function"
    },
    {
      "inputs": [
        {
          "internalType": "address",
          "name": "from",
          "type": "address"
        },
        {
          "internalType": "address",
          "name": "to",
          "type": "address"
        },
        {
          "internalType": "uint256",
          "name": "amount",
          "type": "uint256"
        }
      ],
      "name": "transferFrom",
      "outputs": [
        {
          "internalType": "bool",
          "name": "",
          "type": "bool"
        }
      ],
      "stateMutability": "nonpayable",
      "type": "function"
    }
  ],
  "bytecode": "0x6080806040523461001657610aad908161001c8239f35b600080fdfe6040608081526004908136101561001557600080fd5b600091823560e01c806306fdde03146108b2578063095ea7b31461081457806318160ddd146107cf57806323b872dd146106aa578063313ce567146106705780633644e5151461062e578063395093511461057657806370a08231146105105780637ecebe00146104aa57806395d89b4114610437578063a457c2d71461037e578063a9059cbb146102bb578063d505accf146101385763dd62ed3e146100bb57600080fd5b3461013457817ffffffffffffffffffffffffffffffffffffffffffffffffffffffffffffffffc360112610134573573ffffffffffffffffffffffffffffffffffffffff808216820361013057602435908116810361013057926020938452637f5e9f20600c52526034600c20549051908152f35b8380fd5b8280fd5b509190346102b75760e07ffffffffffffffffffffffffffffffffffffffffffffffffffffffffffffffffc3601126102b757823573ffffffffffffffffffffffffffffffffffffffff918282168092036101305760243592831680930361013057604435606435906084359260ff841684036102b3576101b6610a08565b9381518442116102a75760c0906338377508600c52878a5260209687600c20968754976001890190557f6e71edae12b1b97f4d1f60370fef10105fa2faae0126114a169c64845d6126c9835289898401528a868401526060830197878952608084015260a08301526119018b5287522082526042601e20885260ff16845260a435815260c435606052838060808960015afa50843d510361029b57777f5e9f200000000000000000000000000000000000000000861790526034602c20557f8c5be1e5ebec7d5bd14f71427d1e84f3dd0314c0f7b2291e5b200ac8c7c3b9259190a380f35b8763ddafbaef8852601cfd5b89631a15a3cc8a52601cfd5b8680fd5b5080fd5b50913461037b57817ffffffffffffffffffffffffffffffffffffffffffffffffffffffffffffffffc36011261037b57823573ffffffffffffffffffffffffffffffffffffffff811681036102b757602435916387a211a2600c5233815260209485600c2090815490818611610370575084900390555282600c208181540190558252600c5160601c337fddf252ad1be2c89b69c2b068fc378daa952ba7f163c4a11628f55a4df523b3ef8480a35160018152f35b63f4d678b88452601cfd5b80fd5b50913461037b57817ffffffffffffffffffffffffffffffffffffffffffffffffffffffffffffffffc36011261037b57823573ffffffffffffffffffffffffffffffffffffffff811681036102b75760243590602052637f5e9f20600c523382526034600c2090815481811061042b5760209550038091558152602c5160601c907f8c5be1e5ebec7d5bd14f71427d1e84f3dd0314c0f7b2291e5b200ac8c7c3b925843392a35160018152f35b85638301ab388552601cfd5b5050346102b757817ffffffffffffffffffffffffffffffffffffffffffffffffffffffffffffffffc3601126102b7576104a6906104756003610983565b907f43594700000000000000000000000000000000000000000000000000000000006020830152519182918261091d565b0390f35b50346101345760207ffffffffffffffffffffffffffffffffffffffffffffffffffffffffffffffffc360112610134573573ffffffffffffffffffffffffffffffffffffffff81168103610134576020926338377508600c525281600c20549051908152f35b50346101345760207ffffffffffffffffffffffffffffffffffffffffffffffffffffffffffffffffc360112610134573573ffffffffffffffffffffffffffffffffffffffff81168103610134576020926387a211a2600c525281600c20549051908152f35b50913461037b57817ffffffffffffffffffffffffffffffffffffffffffffffffffffffffffffffffc36011261037b57823573ffffffffffffffffffffffffffffffffffffffff811681036102b757602052637f5e9f20600c523381526034600c20928354906024358201918210610623575080602094558152602c5160601c907f8c5be1e5ebec7d5bd14f71427d1e84f3dd0314c0f7b2291e5b200ac8c7c3b925843392a35160018152f35b63f90670668352601cfd5b5050346102b757817ffffffffffffffffffffffffffffffffffffffffffffffffffffffffffffffffc3601126102b757602090610669610a08565b9051908152f35b5050346102b757817ffffffffffffffffffffffffffffffffffffffffffffffffffffffffffffffffc3601126102b7576020905160128152f35b50913461037b5760607ffffffffffffffffffffffffffffffffffffffffffffffffffffffffffffffffc36011261037b5773ffffffffffffffffffffffffffffffffffffffff83358181169291838203610134576024359081168103610134576044359160601b92602096338852600c94637f5e9f20811786526034862080547fffffffffffffffffffffffffffffffffffffffffffffffffffffffffffffffff81036107ac575b50506387a211a217855287852090815490818611610370575084900390555284822081815401905584525160601c907fddf252ad1be2c89b69c2b068fc378daa952ba7f163c4a11628f55a4df523b3ef8480a35160018152f35b8087116107c35786900390556387a211a238610752565b836313be252b8652601cfd5b5050346102b757817ffffffffffffffffffffffffffffffffffffffffffffffffffffffffffffffffc3601126102b7576020906805345cdf77eb68f44c549051908152f35b503461013457817ffffffffffffffffffffffffffffffffffffffffffffffffffffffffffffffffc360112610134573573ffffffffffffffffffffffffffffffffffffffff811681036101345791602092602435908452637f5e9f20600c52338252806034600c20558152602c5160601c907f8c5be1e5ebec7d5bd14f71427d1e84f3dd0314c0f7b2291e5b200ac8c7c3b925843392a35160018152f35b5050346102b757817ffffffffffffffffffffffffffffffffffffffffffffffffffffffffffffffffc3601126102b7576104a6906108f06009610983565b907f4379676e757344414f0000000000000000000000000000000000000000000000602083015251918291825b60208082528251818301819052939260005b85811061096f575050507fffffffffffffffffffffffffffffffffffffffffffffffffffffffffffffffe0601f8460006040809697860101520116010190565b81810183015184820160400152820161092f565b9067ffffffffffffffff918281116109d957604051927fffffffffffffffffffffffffffffffffffffffffffffffffffffffffffffffe0603f81601f8501160116840190848210908211176109d9576040528252565b7f4e487b7100000000000000000000000000000000000000000000000000000000600052604160045260246000fd5b60a0604051610a176009610983565b60208101907f4379676e757344414f000000000000000000000000000000000000000000000082525190207f8b73c3c69bb8fe3d512ecc4cf759cc79239f7b179b0ffacaa9a75d522b39400f825260208201527fc89efdaa54c0f20c7adf612882df0950f5a951637e0307cdcb4c672f298b8bc66040820152466060820152306080820152209056fea164736f6c6343000811000a",
  "linkReferences": {},
  "deployedLinkReferences": {}
}