{
  "_format": "hh-sol-artifact-1",
  "contractName": "PillarsOfCreation",
  "sourceName": "contracts/cygnus-token/PillarsOfCreation.sol",
  "abi": [
    {
      "inputs": [
        {
          "internalType": "contract IHangar18",
          "name": "_hangar18",
          "type": "address"
        },
        {
          "internalType": "address",
          "name": "_rewardToken",
          "type": "address"
        },
        {
          "internalType": "uint256",
          "name": "_totalCygRewardsBorrows",
          "type": "uint256"
        },
        {
          "internalType": "uint256",
          "name": "_totalCygRewardsDAO",
          "type": "uint256"
        }
      ],
      "stateMutability": "nonpayable",
      "type": "constructor"
    },
    {
      "inputs": [],
      "name": "PillarsOfCreation__CantConvertUint256",
      "type": "error"
    },
    {
      "inputs": [],
      "name": "PillarsOfCreation__InvalidTotalWeight",
      "type": "error"
    },
    {
      "inputs": [],
      "name": "PillarsOfCreation__MsgSenderNotAdmin",
      "type": "error"
    },
    {
      "inputs": [],
      "name": "PillarsOfCreation__OnlyArtificer",
      "type": "error"
    },
    {
      "inputs": [],
      "name": "PillarsOfCreation__PillarsAlreadyInitialized",
      "type": "error"
    },
    {
      "inputs": [],
      "name": "PillarsOfCreation__ShuttleAlreadyInitialized",
      "type": "error"
    },
    {
      "inputs": [],
      "name": "PillarsOfCreation__ShuttleNotInitialized",
      "type": "error"
    },
    {
      "inputs": [],
      "name": "ReentrantCall",
      "type": "error"
    },
    {
      "anonymous": false,
      "inputs": [
        {
          "indexed": false,
          "internalType": "uint256",
          "name": "shuttlesLength",
          "type": "uint256"
        },
        {
          "indexed": false,
          "internalType": "address",
          "name": "sender",
          "type": "address"
        },
        {
          "indexed": false,
          "internalType": "uint256",
          "name": "epoch",
          "type": "uint256"
        }
      ],
      "name": "AccelerateTheUniverse",
      "type": "event"
    },
    {
      "anonymous": false,
      "inputs": [
        {
          "indexed": true,
          "internalType": "address",
          "name": "borrowable",
          "type": "address"
        },
        {
          "indexed": true,
          "internalType": "address",
          "name": "collateral",
          "type": "address"
        },
        {
          "indexed": false,
          "internalType": "address",
          "name": "receiver",
          "type": "address"
        },
        {
          "indexed": false,
          "internalType": "uint256",
          "name": "reward",
          "type": "uint256"
        }
      ],
      "name": "Collect",
      "type": "event"
    },
    {
      "anonymous": false,
      "inputs": [
        {
          "indexed": false,
          "internalType": "uint256",
          "name": "totalPools",
          "type": "uint256"
        },
        {
          "indexed": false,
          "internalType": "uint256",
          "name": "reward",
          "type": "uint256"
        }
      ],
      "name": "CollectAll",
      "type": "event"
    },
    {
      "anonymous": false,
      "inputs": [
        {
          "indexed": false,
          "internalType": "uint256",
          "name": "totalPools",
          "type": "uint256"
        },
        {
          "indexed": false,
          "internalType": "uint256",
          "name": "reward",
          "type": "uint256"
        },
        {
          "indexed": false,
          "internalType": "bool",
          "name": "borrowRewards",
          "type": "bool"
        }
      ],
      "name": "CollectAllSingle",
      "type": "event"
    },
    {
      "anonymous": false,
      "inputs": [
        {
          "indexed": false,
          "internalType": "address",
          "name": "receiver",
          "type": "address"
        },
        {
          "indexed": false,
          "internalType": "uint256",
          "name": "amount",
          "type": "uint256"
        }
      ],
      "name": "CygnusDAODrip",
      "type": "event"
    },
    {
      "anonymous": false,
      "inputs": [
        {
          "indexed": false,
          "internalType": "uint256",
          "name": "time",
          "type": "uint256"
        },
        {
          "indexed": false,
          "internalType": "address",
          "name": "sender",
          "type": "address"
        },
        {
          "indexed": false,
          "internalType": "bool",
          "name": "doomswitch",
          "type": "bool"
        }
      ],
      "name": "DoomSwitchSet",
      "type": "event"
    },
    {
      "anonymous": false,
      "inputs": [
        {
          "indexed": false,
          "internalType": "uint256",
          "name": "birth",
          "type": "uint256"
        },
        {
          "indexed": false,
          "internalType": "uint256",
          "name": "death",
          "type": "uint256"
        },
        {
          "indexed": false,
          "internalType": "uint256",
          "name": "_cygPerBlockRewards",
          "type": "uint256"
        },
        {
          "indexed": false,
          "internalType": "uint256",
          "name": "_cygPerBlockDAO",
          "type": "uint256"
        }
      ],
      "name": "InitializePillars",
      "type": "event"
    },
    {
      "anonymous": false,
      "inputs": [
        {
          "indexed": false,
          "internalType": "address",
          "name": "oldArtificer",
          "type": "address"
        },
        {
          "indexed": false,
          "internalType": "address",
          "name": "newArtificer",
          "type": "address"
        }
      ],
      "name": "NewArtificer",
      "type": "event"
    },
    {
      "anonymous": false,
      "inputs": [
        {
          "indexed": false,
          "internalType": "address",
          "name": "borrowable",
          "type": "address"
        },
        {
          "indexed": false,
          "internalType": "address",
          "name": "collateral",
          "type": "address"
        },
        {
          "indexed": false,
          "internalType": "contract IBonusRewarder",
          "name": "bonusRewarder",
          "type": "address"
        }
      ],
      "name": "NewBonusRewarder",
      "type": "event"
    },
    {
      "anonymous": false,
      "inputs": [
        {
          "indexed": false,
          "internalType": "uint256",
          "name": "lastRewardRate",
          "type": "uint256"
        },
        {
          "indexed": false,
          "internalType": "uint256",
          "name": "newRewardRate",
          "type": "uint256"
        }
      ],
      "name": "NewCygPerBlock",
      "type": "event"
    },
    {
      "anonymous": false,
      "inputs": [
        {
          "indexed": false,
          "internalType": "uint256",
          "name": "previousEpoch",
          "type": "uint256"
        },
        {
          "indexed": false,
          "internalType": "uint256",
          "name": "newEpoch",
          "type": "uint256"
        },
        {
          "indexed": false,
          "internalType": "uint256",
          "name": "_oldCygPerBlock",
          "type": "uint256"
        },
        {
          "indexed": false,
          "internalType": "uint256",
          "name": "_newCygPerBlock",
          "type": "uint256"
        }
      ],
      "name": "NewEpoch",
      "type": "event"
    },
    {
      "anonymous": false,
      "inputs": [
        {
          "indexed": false,
          "internalType": "address",
          "name": "borrowable",
          "type": "address"
        },
        {
          "indexed": false,
          "internalType": "address",
          "name": "collateral",
          "type": "address"
        },
        {
          "indexed": false,
          "internalType": "uint256",
          "name": "oldAllocPoint",
          "type": "uint256"
        },
        {
          "indexed": false,
          "internalType": "uint256",
          "name": "newAllocPoint",
          "type": "uint256"
        }
      ],
      "name": "NewShuttleAllocPoint",
      "type": "event"
    },
    {
      "anonymous": false,
      "inputs": [
        {
          "indexed": false,
          "internalType": "address",
          "name": "borrowable",
          "type": "address"
        },
        {
          "indexed": false,
          "internalType": "address",
          "name": "collateral",
          "type": "address"
        },
        {
          "indexed": false,
          "internalType": "uint256",
          "name": "totalAlloc",
          "type": "uint256"
        },
        {
          "indexed": false,
          "internalType": "uint256",
          "name": "alloc",
          "type": "uint256"
        }
      ],
      "name": "NewShuttleRewards",
      "type": "event"
    },
    {
      "anonymous": false,
      "inputs": [
        {
          "indexed": false,
          "internalType": "address",
          "name": "borrowable",
          "type": "address"
        },
        {
          "indexed": false,
          "internalType": "address",
          "name": "collateral",
          "type": "address"
        }
      ],
      "name": "RemoveBonusRewarder",
      "type": "event"
    },
    {
      "anonymous": false,
      "inputs": [
        {
          "indexed": false,
          "internalType": "address",
          "name": "sender",
          "type": "address"
        },
        {
          "indexed": false,
          "internalType": "uint256",
          "name": "_birth",
          "type": "uint256"
        },
        {
          "indexed": false,
          "internalType": "uint256",
          "name": "_death",
          "type": "uint256"
        },
        {
          "indexed": false,
          "internalType": "uint256",
          "name": "timestamp",
          "type": "uint256"
        }
      ],
      "name": "Supernova",
      "type": "event"
    },
    {
      "anonymous": false,
      "inputs": [
        {
          "indexed": true,
          "internalType": "address",
          "name": "token",
          "type": "address"
        },
        {
          "indexed": true,
          "internalType": "address",
          "name": "sender",
          "type": "address"
        },
        {
          "indexed": false,
          "internalType": "uint256",
          "name": "amount",
          "type": "uint256"
        },
        {
          "indexed": false,
          "internalType": "uint256",
          "name": "currentEpoch",
          "type": "uint256"
        }
      ],
      "name": "SweepToken",
      "type": "event"
    },
    {
      "anonymous": false,
      "inputs": [
        {
          "indexed": true,
          "internalType": "address",
          "name": "borrowable",
          "type": "address"
        },
        {
          "indexed": true,
          "internalType": "address",
          "name": "account",
          "type": "address"
        },
        {
          "indexed": false,
          "internalType": "uint256",
          "name": "balance",
          "type": "uint256"
        },
        {
          "indexed": false,
          "internalType": "address",
          "name": "collateral",
          "type": "address"
        }
      ],
      "name": "TrackRewards",
      "type": "event"
    },
    {
      "anonymous": false,
      "inputs": [
        {
          "indexed": true,
          "internalType": "address",
          "name": "borrowable",
          "type": "address"
        },
        {
          "indexed": true,
          "internalType": "address",
          "name": "collateral",
          "type": "address"
        },
        {
          "indexed": false,
          "internalType": "address",
          "name": "sender",
          "type": "address"
        },
        {
          "indexed": false,
          "internalType": "uint256",
          "name": "lastRewardTime",
          "type": "uint256"
        },
        {
          "indexed": false,
          "internalType": "uint256",
          "name": "epoch",
          "type": "uint256"
        }
      ],
      "name": "UpdateShuttle",
      "type": "event"
    },
    {
      "stateMutability": "payable",
      "type": "fallback"
    },
    {
      "inputs": [],
      "name": "BLOCKS_PER_EPOCH",
      "outputs": [
        {
          "internalType": "uint256",
          "name": "",
          "type": "uint256"
        }
      ],
      "stateMutability": "view",
      "type": "function"
    },
    {
      "inputs": [],
      "name": "DURATION",
      "outputs": [
        {
          "internalType": "uint256",
          "name": "",
          "type": "uint256"
        }
      ],
      "stateMutability": "view",
      "type": "function"
    },
    {
      "inputs": [],
      "name": "REDUCTION_FACTOR_PER_EPOCH",
      "outputs": [
        {
          "internalType": "uint256",
          "name": "",
          "type": "uint256"
        }
      ],
      "stateMutability": "view",
      "type": "function"
    },
    {
      "inputs": [],
      "name": "SECONDS_PER_YEAR",
      "outputs": [
        {
          "internalType": "uint256",
          "name": "",
          "type": "uint256"
        }
      ],
      "stateMutability": "view",
      "type": "function"
    },
    {
      "inputs": [],
      "name": "TOTAL_EPOCHS",
      "outputs": [
        {
          "internalType": "uint256",
          "name": "",
          "type": "uint256"
        }
      ],
      "stateMutability": "view",
      "type": "function"
    },
    {
      "inputs": [],
      "name": "accelerateTheUniverse",
      "outputs": [],
      "stateMutability": "nonpayable",
      "type": "function"
    },
    {
      "inputs": [
        {
          "internalType": "address",
          "name": "borrowable",
          "type": "address"
        },
        {
          "internalType": "uint256",
          "name": "allocPoint",
          "type": "uint256"
        },
        {
          "internalType": "bool",
          "name": "borrowRewards",
          "type": "bool"
        }
      ],
      "name": "adjustRewards",
      "outputs": [],
      "stateMutability": "nonpayable",
      "type": "function"
    },
    {
      "inputs": [],
      "name": "advanceEpoch",
      "outputs": [],
      "stateMutability": "nonpayable",
      "type": "function"
    },
    {
      "inputs": [
        {
          "internalType": "uint256",
          "name": "pillarsId",
          "type": "uint256"
        }
      ],
      "name": "allShuttles",
      "outputs": [
        {
          "components": [
            {
              "internalType": "bool",
              "name": "active",
              "type": "bool"
            },
            {
              "internalType": "uint256",
              "name": "shuttleId",
              "type": "uint256"
            },
            {
              "internalType": "address",
              "name": "borrowable",
              "type": "address"
            },
            {
              "internalType": "address",
              "name": "collateral",
              "type": "address"
            },
            {
              "internalType": "uint256",
              "name": "totalShares",
              "type": "uint256"
            },
            {
              "internalType": "uint256",
              "name": "accRewardPerShare",
              "type": "uint256"
            },
            {
              "internalType": "uint256",
              "name": "lastRewardTime",
              "type": "uint256"
            },
            {
              "internalType": "uint256",
              "name": "allocPoint",
              "type": "uint256"
            },
            {
              "internalType": "contract IBonusRewarder",
              "name": "bonusRewarder",
              "type": "address"
            },
            {
              "internalType": "uint256",
              "name": "pillarsId",
              "type": "uint256"
            }
          ],
          "internalType": "struct IPillarsOfCreation.ShuttleInfo",
          "name": "",
          "type": "tuple"
        }
      ],
      "stateMutability": "view",
      "type": "function"
    },
    {
      "inputs": [],
      "name": "artificer",
      "outputs": [
        {
          "internalType": "address",
          "name": "",
          "type": "address"
        }
      ],
      "stateMutability": "view",
      "type": "function"
    },
    {
      "inputs": [],
      "name": "artificerEnabled",
      "outputs": [
        {
          "internalType": "bool",
          "name": "",
          "type": "bool"
        }
      ],
      "stateMutability": "view",
      "type": "function"
    },
    {
      "inputs": [],
      "name": "birth",
      "outputs": [
        {
          "internalType": "uint256",
          "name": "",
          "type": "uint256"
        }
      ],
      "stateMutability": "view",
      "type": "function"
    },
    {
      "inputs": [],
      "name": "blocksThisEpoch",
      "outputs": [
        {
          "internalType": "uint256",
          "name": "",
          "type": "uint256"
        }
      ],
      "stateMutability": "view",
      "type": "function"
    },
    {
      "inputs": [
        {
          "internalType": "uint256",
          "name": "epoch",
          "type": "uint256"
        },
        {
          "internalType": "uint256",
          "name": "totalRewards",
          "type": "uint256"
        }
      ],
      "name": "calculateCygPerBlock",
      "outputs": [
        {
          "internalType": "uint256",
          "name": "rewardRate",
          "type": "uint256"
        }
      ],
      "stateMutability": "pure",
      "type": "function"
    },
    {
      "inputs": [
        {
          "internalType": "uint256",
          "name": "epoch",
          "type": "uint256"
        },
        {
          "internalType": "uint256",
          "name": "totalRewards",
          "type": "uint256"
        }
      ],
      "name": "calculateEpochRewards",
      "outputs": [
        {
          "internalType": "uint256",
          "name": "rewards",
          "type": "uint256"
        }
      ],
      "stateMutability": "pure",
      "type": "function"
    },
    {
      "inputs": [
        {
          "internalType": "address",
          "name": "borrowable",
          "type": "address"
        },
        {
          "internalType": "bool",
          "name": "borrowRewards",
          "type": "bool"
        },
        {
          "internalType": "address",
          "name": "to",
          "type": "address"
        }
      ],
      "name": "collect",
      "outputs": [
        {
          "internalType": "uint256",
          "name": "cygAmount",
          "type": "uint256"
        }
      ],
      "stateMutability": "nonpayable",
      "type": "function"
    },
    {
      "inputs": [
        {
          "internalType": "address",
          "name": "to",
          "type": "address"
        }
      ],
      "name": "collectAll",
      "outputs": [
        {
          "internalType": "uint256",
          "name": "cygAmount",
          "type": "uint256"
        }
      ],
      "stateMutability": "nonpayable",
      "type": "function"
    },
    {
      "inputs": [
        {
          "internalType": "address",
          "name": "to",
          "type": "address"
        },
        {
          "internalType": "bool",
          "name": "borrowRewards",
          "type": "bool"
        }
      ],
      "name": "collectAllSingle",
      "outputs": [
        {
          "internalType": "uint256",
          "name": "cygAmount",
          "type": "uint256"
        }
      ],
      "stateMutability": "nonpayable",
      "type": "function"
    },
    {
      "inputs": [],
      "name": "currentEpochRewards",
      "outputs": [
        {
          "internalType": "uint256",
          "name": "",
          "type": "uint256"
        }
      ],
      "stateMutability": "view",
      "type": "function"
    },
    {
      "inputs": [],
      "name": "currentEpochRewardsDAO",
      "outputs": [
        {
          "internalType": "uint256",
          "name": "",
          "type": "uint256"
        }
      ],
      "stateMutability": "view",
      "type": "function"
    },
    {
      "inputs": [],
      "name": "cygPerBlockDAO",
      "outputs": [
        {
          "internalType": "uint256",
          "name": "",
          "type": "uint256"
        }
      ],
      "stateMutability": "view",
      "type": "function"
    },
    {
      "inputs": [],
      "name": "cygPerBlockRewards",
      "outputs": [
        {
          "internalType": "uint256",
          "name": "",
          "type": "uint256"
        }
      ],
      "stateMutability": "view",
      "type": "function"
    },
    {
      "inputs": [],
      "name": "cygToken",
      "outputs": [
        {
          "internalType": "address",
          "name": "",
          "type": "address"
        }
      ],
      "stateMutability": "view",
      "type": "function"
    },
    {
      "inputs": [],
      "name": "dateCurrentEpochStart",
      "outputs": [
        {
          "internalType": "uint256",
          "name": "year",
          "type": "uint256"
        },
        {
          "internalType": "uint256",
          "name": "month",
          "type": "uint256"
        },
        {
          "internalType": "uint256",
          "name": "day",
          "type": "uint256"
        },
        {
          "internalType": "uint256",
          "name": "hour",
          "type": "uint256"
        },
        {
          "internalType": "uint256",
          "name": "minute",
          "type": "uint256"
        },
        {
          "internalType": "uint256",
          "name": "second",
          "type": "uint256"
        }
      ],
      "stateMutability": "view",
      "type": "function"
    },
    {
      "inputs": [
        {
          "internalType": "uint256",
          "name": "_epoch",
          "type": "uint256"
        }
      ],
      "name": "dateEpochEnd",
      "outputs": [
        {
          "internalType": "uint256",
          "name": "year",
          "type": "uint256"
        },
        {
          "internalType": "uint256",
          "name": "month",
          "type": "uint256"
        },
        {
          "internalType": "uint256",
          "name": "day",
          "type": "uint256"
        },
        {
          "internalType": "uint256",
          "name": "hour",
          "type": "uint256"
        },
        {
          "internalType": "uint256",
          "name": "minute",
          "type": "uint256"
        },
        {
          "internalType": "uint256",
          "name": "second",
          "type": "uint256"
        }
      ],
      "stateMutability": "view",
      "type": "function"
    },
    {
      "inputs": [
        {
          "internalType": "uint256",
          "name": "_epoch",
          "type": "uint256"
        }
      ],
      "name": "dateEpochStart",
      "outputs": [
        {
          "internalType": "uint256",
          "name": "year",
          "type": "uint256"
        },
        {
          "internalType": "uint256",
          "name": "month",
          "type": "uint256"
        },
        {
          "internalType": "uint256",
          "name": "day",
          "type": "uint256"
        },
        {
          "internalType": "uint256",
          "name": "hour",
          "type": "uint256"
        },
        {
          "internalType": "uint256",
          "name": "minute",
          "type": "uint256"
        },
        {
          "internalType": "uint256",
          "name": "second",
          "type": "uint256"
        }
      ],
      "stateMutability": "view",
      "type": "function"
    },
    {
      "inputs": [],
      "name": "dateLastEpochStart",
      "outputs": [
        {
          "internalType": "uint256",
          "name": "year",
          "type": "uint256"
        },
        {
          "internalType": "uint256",
          "name": "month",
          "type": "uint256"
        },
        {
          "internalType": "uint256",
          "name": "day",
          "type": "uint256"
        },
        {
          "internalType": "uint256",
          "name": "hour",
          "type": "uint256"
        },
        {
          "internalType": "uint256",
          "name": "minute",
          "type": "uint256"
        },
        {
          "internalType": "uint256",
          "name": "second",
          "type": "uint256"
        }
      ],
      "stateMutability": "view",
      "type": "function"
    },
    {
      "inputs": [],
      "name": "dateNextEpochStart",
      "outputs": [
        {
          "internalType": "uint256",
          "name": "year",
          "type": "uint256"
        },
        {
          "internalType": "uint256",
          "name": "month",
          "type": "uint256"
        },
        {
          "internalType": "uint256",
          "name": "day",
          "type": "uint256"
        },
        {
          "internalType": "uint256",
          "name": "hour",
          "type": "uint256"
        },
        {
          "internalType": "uint256",
          "name": "minute",
          "type": "uint256"
        },
        {
          "internalType": "uint256",
          "name": "second",
          "type": "uint256"
        }
      ],
      "stateMutability": "view",
      "type": "function"
    },
    {
      "inputs": [],
      "name": "dateSupernova",
      "outputs": [
        {
          "internalType": "uint256",
          "name": "year",
          "type": "uint256"
        },
        {
          "internalType": "uint256",
          "name": "month",
          "type": "uint256"
        },
        {
          "internalType": "uint256",
          "name": "day",
          "type": "uint256"
        },
        {
          "internalType": "uint256",
          "name": "hour",
          "type": "uint256"
        },
        {
          "internalType": "uint256",
          "name": "minute",
          "type": "uint256"
        },
        {
          "internalType": "uint256",
          "name": "second",
          "type": "uint256"
        }
      ],
      "stateMutability": "view",
      "type": "function"
    },
    {
      "inputs": [],
      "name": "daysPassedThisEpoch",
      "outputs": [
        {
          "internalType": "uint256",
          "name": "",
          "type": "uint256"
        }
      ],
      "stateMutability": "view",
      "type": "function"
    },
    {
      "inputs": [],
      "name": "daysUntilNextEpoch",
      "outputs": [
        {
          "internalType": "uint256",
          "name": "",
          "type": "uint256"
        }
      ],
      "stateMutability": "view",
      "type": "function"
    },
    {
      "inputs": [],
      "name": "daysUntilSupernova",
      "outputs": [
        {
          "internalType": "uint256",
          "name": "",
          "type": "uint256"
        }
      ],
      "stateMutability": "view",
      "type": "function"
    },
    {
      "inputs": [],
      "name": "death",
      "outputs": [
        {
          "internalType": "uint256",
          "name": "",
          "type": "uint256"
        }
      ],
      "stateMutability": "view",
      "type": "function"
    },
    {
      "inputs": [
        {
          "internalType": "uint256",
          "name": "fromTimestamp",
          "type": "uint256"
        },
        {
          "internalType": "uint256",
          "name": "toTimestamp",
          "type": "uint256"
        }
      ],
      "name": "diffDays",
      "outputs": [
        {
          "internalType": "uint256",
          "name": "result",
          "type": "uint256"
        }
      ],
      "stateMutability": "pure",
      "type": "function"
    },
    {
      "inputs": [],
      "name": "doomswitch",
      "outputs": [
        {
          "internalType": "bool",
          "name": "",
          "type": "bool"
        }
      ],
      "stateMutability": "view",
      "type": "function"
    },
    {
      "inputs": [],
      "name": "dripCygDAO",
      "outputs": [],
      "stateMutability": "nonpayable",
      "type": "function"
    },
    {
      "inputs": [
        {
          "internalType": "uint256",
          "name": "epoch",
          "type": "uint256"
        }
      ],
      "name": "emissionsCurve",
      "outputs": [
        {
          "internalType": "uint256",
          "name": "",
          "type": "uint256"
        }
      ],
      "stateMutability": "pure",
      "type": "function"
    },
    {
      "inputs": [],
      "name": "epochProgression",
      "outputs": [
        {
          "internalType": "uint256",
          "name": "",
          "type": "uint256"
        }
      ],
      "stateMutability": "view",
      "type": "function"
    },
    {
      "inputs": [],
      "name": "epochRewardsPacing",
      "outputs": [
        {
          "internalType": "uint256",
          "name": "",
          "type": "uint256"
        }
      ],
      "stateMutability": "view",
      "type": "function"
    },
    {
      "inputs": [],
      "name": "getBlockTimestamp",
      "outputs": [
        {
          "internalType": "uint256",
          "name": "",
          "type": "uint256"
        }
      ],
      "stateMutability": "view",
      "type": "function"
    },
    {
      "inputs": [],
      "name": "getCurrentEpoch",
      "outputs": [
        {
          "internalType": "uint256",
          "name": "",
          "type": "uint256"
        }
      ],
      "stateMutability": "view",
      "type": "function"
    },
    {
      "inputs": [
        {
          "internalType": "uint256",
          "name": "",
          "type": "uint256"
        }
      ],
      "name": "getEpochInfo",
      "outputs": [
        {
          "internalType": "uint256",
          "name": "epoch",
          "type": "uint256"
        },
        {
          "internalType": "uint256",
          "name": "cygPerBlock",
          "type": "uint256"
        },
        {
          "internalType": "uint256",
          "name": "totalRewards",
          "type": "uint256"
        },
        {
          "internalType": "uint256",
          "name": "totalClaimed",
          "type": "uint256"
        },
        {
          "internalType": "uint256",
          "name": "start",
          "type": "uint256"
        },
        {
          "internalType": "uint256",
          "name": "end",
          "type": "uint256"
        }
      ],
      "stateMutability": "view",
      "type": "function"
    },
    {
      "inputs": [
        {
          "internalType": "uint256",
          "name": "shuttleId",
          "type": "uint256"
        }
      ],
      "name": "getShuttleById",
      "outputs": [
        {
          "components": [
            {
              "internalType": "bool",
              "name": "active",
              "type": "bool"
            },
            {
              "internalType": "uint256",
              "name": "shuttleId",
              "type": "uint256"
            },
            {
              "internalType": "address",
              "name": "borrowable",
              "type": "address"
            },
            {
              "internalType": "address",
              "name": "collateral",
              "type": "address"
            },
            {
              "internalType": "uint256",
              "name": "totalShares",
              "type": "uint256"
            },
            {
              "internalType": "uint256",
              "name": "accRewardPerShare",
              "type": "uint256"
            },
            {
              "internalType": "uint256",
              "name": "lastRewardTime",
              "type": "uint256"
            },
            {
              "internalType": "uint256",
              "name": "allocPoint",
              "type": "uint256"
            },
            {
              "internalType": "contract IBonusRewarder",
              "name": "bonusRewarder",
              "type": "address"
            },
            {
              "internalType": "uint256",
              "name": "pillarsId",
              "type": "uint256"
            }
          ],
          "internalType": "struct IPillarsOfCreation.ShuttleInfo",
          "name": "lenders",
          "type": "tuple"
        },
        {
          "components": [
            {
              "internalType": "bool",
              "name": "active",
              "type": "bool"
            },
            {
              "internalType": "uint256",
              "name": "shuttleId",
              "type": "uint256"
            },
            {
              "internalType": "address",
              "name": "borrowable",
              "type": "address"
            },
            {
              "internalType": "address",
              "name": "collateral",
              "type": "address"
            },
            {
              "internalType": "uint256",
              "name": "totalShares",
              "type": "uint256"
            },
            {
              "internalType": "uint256",
              "name": "accRewardPerShare",
              "type": "uint256"
            },
            {
              "internalType": "uint256",
              "name": "lastRewardTime",
              "type": "uint256"
            },
            {
              "internalType": "uint256",
              "name": "allocPoint",
              "type": "uint256"
            },
            {
              "internalType": "contract IBonusRewarder",
              "name": "bonusRewarder",
              "type": "address"
            },
            {
              "internalType": "uint256",
              "name": "pillarsId",
              "type": "uint256"
            }
          ],
          "internalType": "struct IPillarsOfCreation.ShuttleInfo",
          "name": "borrowers",
          "type": "tuple"
        }
      ],
      "stateMutability": "view",
      "type": "function"
    },
    {
      "inputs": [
        {
          "internalType": "address",
          "name": "",
          "type": "address"
        },
        {
          "internalType": "address",
          "name": "",
          "type": "address"
        }
      ],
      "name": "getShuttleInfo",
      "outputs": [
        {
          "internalType": "bool",
          "name": "active",
          "type": "bool"
        },
        {
          "internalType": "uint256",
          "name": "shuttleId",
          "type": "uint256"
        },
        {
          "internalType": "address",
          "name": "borrowable",
          "type": "address"
        },
        {
          "internalType": "address",
          "name": "collateral",
          "type": "address"
        },
        {
          "internalType": "uint256",
          "name": "totalShares",
          "type": "uint256"
        },
        {
          "internalType": "uint256",
          "name": "accRewardPerShare",
          "type": "uint256"
        },
        {
          "internalType": "uint256",
          "name": "lastRewardTime",
          "type": "uint256"
        },
        {
          "internalType": "uint256",
          "name": "allocPoint",
          "type": "uint256"
        },
        {
          "internalType": "contract IBonusRewarder",
          "name": "bonusRewarder",
          "type": "address"
        },
        {
          "internalType": "uint256",
          "name": "pillarsId",
          "type": "uint256"
        }
      ],
      "stateMutability": "view",
      "type": "function"
    },
    {
      "inputs": [
        {
          "internalType": "address",
          "name": "",
          "type": "address"
        },
        {
          "internalType": "address",
          "name": "",
          "type": "address"
        },
        {
          "internalType": "address",
          "name": "",
          "type": "address"
        }
      ],
      "name": "getUserInfo",
      "outputs": [
        {
          "internalType": "uint256",
          "name": "shares",
          "type": "uint256"
        },
        {
          "internalType": "int256",
          "name": "rewardDebt",
          "type": "int256"
        }
      ],
      "stateMutability": "view",
      "type": "function"
    },
    {
      "inputs": [],
      "name": "hangar18",
      "outputs": [
        {
          "internalType": "contract IHangar18",
          "name": "",
          "type": "address"
        }
      ],
      "stateMutability": "view",
      "type": "function"
    },
    {
      "inputs": [],
      "name": "initializePillars",
      "outputs": [],
      "stateMutability": "nonpayable",
      "type": "function"
    },
    {
      "inputs": [],
      "name": "lastDripDAO",
      "outputs": [
        {
          "internalType": "uint256",
          "name": "",
          "type": "uint256"
        }
      ],
      "stateMutability": "view",
      "type": "function"
    },
    {
      "inputs": [],
      "name": "lastEpochTime",
      "outputs": [
        {
          "internalType": "uint256",
          "name": "",
          "type": "uint256"
        }
      ],
      "stateMutability": "view",
      "type": "function"
    },
    {
      "inputs": [],
      "name": "name",
      "outputs": [
        {
          "internalType": "string",
          "name": "",
          "type": "string"
        }
      ],
      "stateMutability": "view",
      "type": "function"
    },
    {
      "inputs": [],
      "name": "nextEpochRewards",
      "outputs": [
        {
          "internalType": "uint256",
          "name": "",
          "type": "uint256"
        }
      ],
      "stateMutability": "view",
      "type": "function"
    },
    {
      "inputs": [
        {
          "internalType": "address",
          "name": "borrowable",
          "type": "address"
        },
        {
          "internalType": "address",
          "name": "collateral",
          "type": "address"
        },
        {
          "internalType": "address",
          "name": "account",
          "type": "address"
        }
      ],
      "name": "pendingBonusReward",
      "outputs": [
        {
          "internalType": "address",
          "name": "token",
          "type": "address"
        },
        {
          "internalType": "uint256",
          "name": "amount",
          "type": "uint256"
        }
      ],
      "stateMutability": "view",
      "type": "function"
    },
    {
      "inputs": [
        {
          "internalType": "address",
          "name": "borrowable",
          "type": "address"
        },
        {
          "internalType": "address",
          "name": "account",
          "type": "address"
        },
        {
          "internalType": "bool",
          "name": "borrowRewards",
          "type": "bool"
        }
      ],
      "name": "pendingCyg",
      "outputs": [
        {
          "internalType": "uint256",
          "name": "pending",
          "type": "uint256"
        }
      ],
      "stateMutability": "view",
      "type": "function"
    },
    {
      "inputs": [
        {
          "internalType": "address",
          "name": "account",
          "type": "address"
        }
      ],
      "name": "pendingCygAll",
      "outputs": [
        {
          "internalType": "uint256",
          "name": "pending",
          "type": "uint256"
        }
      ],
      "stateMutability": "view",
      "type": "function"
    },
    {
      "inputs": [],
      "name": "pendingCygDAO",
      "outputs": [
        {
          "internalType": "uint256",
          "name": "pending",
          "type": "uint256"
        }
      ],
      "stateMutability": "view",
      "type": "function"
    },
    {
      "inputs": [
        {
          "internalType": "address",
          "name": "account",
          "type": "address"
        },
        {
          "internalType": "bool",
          "name": "borrowRewards",
          "type": "bool"
        }
      ],
      "name": "pendingCygSingle",
      "outputs": [
        {
          "internalType": "uint256",
          "name": "pending",
          "type": "uint256"
        }
      ],
      "stateMutability": "view",
      "type": "function"
    },
    {
      "inputs": [],
      "name": "previousEpochRewards",
      "outputs": [
        {
          "internalType": "uint256",
          "name": "",
          "type": "uint256"
        }
      ],
      "stateMutability": "view",
      "type": "function"
    },
    {
      "inputs": [
        {
          "internalType": "address",
          "name": "borrowable",
          "type": "address"
        },
        {
          "internalType": "bool",
          "name": "borrowRewards",
          "type": "bool"
        }
      ],
      "name": "removeBonusRewarder",
      "outputs": [],
      "stateMutability": "nonpayable",
      "type": "function"
    },
    {
      "inputs": [
        {
          "internalType": "address",
          "name": "_artificer",
          "type": "address"
        }
      ],
      "name": "setArtificer",
      "outputs": [],
      "stateMutability": "nonpayable",
      "type": "function"
    },
    {
      "inputs": [
        {
          "internalType": "address",
          "name": "borrowable",
          "type": "address"
        },
        {
          "internalType": "bool",
          "name": "borrowRewards",
          "type": "bool"
        },
        {
          "internalType": "contract IBonusRewarder",
          "name": "bonusRewarder",
          "type": "address"
        }
      ],
      "name": "setBonusRewarder",
      "outputs": [],
      "stateMutability": "nonpayable",
      "type": "function"
    },
    {
      "inputs": [],
      "name": "setDoomswitch",
      "outputs": [],
      "stateMutability": "nonpayable",
      "type": "function"
    },
    {
      "inputs": [
        {
          "internalType": "address",
          "name": "borrowable",
          "type": "address"
        },
        {
          "internalType": "uint256",
          "name": "allocPoint",
          "type": "uint256"
        },
        {
          "internalType": "bool",
          "name": "borrowRewards",
          "type": "bool"
        }
      ],
      "name": "setShuttleRewards",
      "outputs": [],
      "stateMutability": "nonpayable",
      "type": "function"
    },
    {
      "inputs": [],
      "name": "shuttlesLength",
      "outputs": [
        {
          "internalType": "uint256",
          "name": "",
          "type": "uint256"
        }
      ],
      "stateMutability": "view",
      "type": "function"
    },
    {
      "inputs": [],
      "name": "supernova",
      "outputs": [],
      "stateMutability": "nonpayable",
      "type": "function"
    },
    {
      "inputs": [],
      "name": "sweepNative",
      "outputs": [],
      "stateMutability": "nonpayable",
      "type": "function"
    },
    {
      "inputs": [
        {
          "internalType": "address",
          "name": "token",
          "type": "address"
        }
      ],
      "name": "sweepToken",
      "outputs": [],
      "stateMutability": "nonpayable",
      "type": "function"
    },
    {
      "inputs": [
        {
          "internalType": "uint256",
          "name": "timestamp",
          "type": "uint256"
        }
      ],
      "name": "timestampToDateTime",
      "outputs": [
        {
          "internalType": "uint256",
          "name": "year",
          "type": "uint256"
        },
        {
          "internalType": "uint256",
          "name": "month",
          "type": "uint256"
        },
        {
          "internalType": "uint256",
          "name": "day",
          "type": "uint256"
        },
        {
          "internalType": "uint256",
          "name": "hour",
          "type": "uint256"
        },
        {
          "internalType": "uint256",
          "name": "minute",
          "type": "uint256"
        },
        {
          "internalType": "uint256",
          "name": "second",
          "type": "uint256"
        }
      ],
      "stateMutability": "pure",
      "type": "function"
    },
    {
      "inputs": [],
      "name": "totalAllocPoint",
      "outputs": [
        {
          "internalType": "uint256",
          "name": "",
          "type": "uint256"
        }
      ],
      "stateMutability": "view",
      "type": "function"
    },
    {
      "inputs": [],
      "name": "totalCygClaimed",
      "outputs": [
        {
          "internalType": "uint256",
          "name": "claimed",
          "type": "uint256"
        }
      ],
      "stateMutability": "view",
      "type": "function"
    },
    {
      "inputs": [],
      "name": "totalCygDAO",
      "outputs": [
        {
          "internalType": "uint256",
          "name": "",
          "type": "uint256"
        }
      ],
      "stateMutability": "view",
      "type": "function"
    },
    {
      "inputs": [],
      "name": "totalCygRewards",
      "outputs": [
        {
          "internalType": "uint256",
          "name": "",
          "type": "uint256"
        }
      ],
      "stateMutability": "view",
      "type": "function"
    },
    {
      "inputs": [],
      "name": "totalProgression",
      "outputs": [
        {
          "internalType": "uint256",
          "name": "",
          "type": "uint256"
        }
      ],
      "stateMutability": "view",
      "type": "function"
    },
    {
      "inputs": [
        {
          "internalType": "address",
          "name": "account",
          "type": "address"
        },
        {
          "internalType": "uint256",
          "name": "balance",
          "type": "uint256"
        },
        {
          "internalType": "address",
          "name": "collateral",
          "type": "address"
        }
      ],
      "name": "trackRewards",
      "outputs": [],
      "stateMutability": "nonpayable",
      "type": "function"
    },
    {
      "inputs": [],
      "name": "untilNextEpoch",
      "outputs": [
        {
          "internalType": "uint256",
          "name": "",
          "type": "uint256"
        }
      ],
      "stateMutability": "view",
      "type": "function"
    },
    {
      "inputs": [],
      "name": "untilSupernova",
      "outputs": [
        {
          "internalType": "uint256",
          "name": "",
          "type": "uint256"
        }
      ],
      "stateMutability": "view",
      "type": "function"
    },
    {
      "inputs": [
        {
          "internalType": "address",
          "name": "borrowable",
          "type": "address"
        },
        {
          "internalType": "bool",
          "name": "borrowRewards",
          "type": "bool"
        }
      ],
      "name": "updateShuttle",
      "outputs": [],
      "stateMutability": "nonpayable",
      "type": "function"
    },
    {
      "inputs": [],
      "name": "version",
      "outputs": [
        {
          "internalType": "string",
          "name": "",
          "type": "string"
        }
      ],
      "stateMutability": "view",
      "type": "function"
    },
    {
      "stateMutability": "payable",
      "type": "receive"
    }
  ],
  "bytecode": "0x61010034620001bc57601f62004dab38819003918201601f19168301916001600160401b03831184841017620001c157808492608094604052833981010312620001bc578051906001600160a01b03908183168303620001bc5760208101519182168203620001bc576060604082015191015190600160008160ff19825416178155600654908282811c92168015620001b1575b60208310146200019d57601f821162000170575b50507f4379676e75733a2050696c6c617273206f66204372656174696f6e00000000366006555060c05260e05260a052608052604051614bd39081620001d882396080518181816105ea01528181612535015281816141cf015281816148420152614a59015260a051818181612426015281816146600152614876015260c051818181610a45015281816112430152818161136d015281816120610152818161316e0152614341015260e05181818161139b015281816124810152818161334a01526143e10152f35b60068152601f60208220920160051c8201915b828110620001925750620000a7565b818155830162000183565b634e487b7160e01b81526022600452602490fd5b91607f169162000093565b600080fd5b634e487b7160e01b600052604160045260246000fdfe608060409080825260049182361015610020575b505050361561001e57005b005b600091823560e01c90816306fdde031461356f575080630bc675981461353057806310843823146133f8578063135022c21461336d57806317635d9d1461331557806317caf6f1146132d95780631aa46ba1146132975780631ad4c8c3146131bf5780631bafed521461312b5780631be05289146130ef5780631be1956014612fc95780631c59a85e14612f8d5780631ca56c7d14612dae5780631f3adc0f14612d7357806323f83a0114612d3257806328419d6214612cf357806334ef642e14612bf2578063375b5e7714612a9a5780633cf80e6c14612a2c5780633f610512146129f057806343d6dc94146129b6578063444fd7a01461296f57806344a2ea721461293357806347989b95146128f75780634a91f2b1146128815780634aa64029146127475780634b2d7aa8146124a65780634b53d71d1461244a5780634f573686146123dc5780634fcc55751461236a5780635013f1411461222f5780635104517f1461218257806353cde4881461214657806354fd4d50146120d357806358322a8e14611fec5780635e18ebab14611f805780635f15c3c914611f475780636673fd9714611f025780636870962914611e165780636933ecc214611d2f578063697dbb5614611cc35780636fa4226114611c87578063717462ab14611b925780637212df811461182e57806372e127cb146117f05780637873ced8146116d9578063796b89b9146116a157806382cb43811461164f57806385786968146115b457806389c614b8146115785780638d71bef41461132a5780638f9c87f0146112d65780639acaf956146112885780639e81b6341461120c578063a1d50e801461110b578063ab803a761461106a578063ac9462f51461102c578063acd22cf014610fe8578063aeeab13b14610e2a578063b6b8eb9e14610d6e578063b97dd9e214610d32578063c2c42cde14610cb0578063c4eb01cf14610c3a578063c60cd3ac14610bf0578063c81ba8f014610bb4578063c9d3462214610b68578063ccd4620f14610a68578063d4f7286b14610a10578063d657c9e71461089f578063d797c4c31461084d578063dcec95721461074b578063e5fc02051461064a578063e6a69ab81461060e578063e8a24e1d146105a0578063ea1c1690146104a4578063f2b128a4146103fb5763f458a2df0361001357346103f757817ffffffffffffffffffffffffffffffffffffffffffffffffffffffffffffffffc3601126103f7576103b2600d5442613811565b91621281fb9283039283116103cb576020838351908152f35b806011857f4e487b71000000000000000000000000000000000000000000000000000000006024945252fd5b5080fd5b5082346104a057827ffffffffffffffffffffffffffffffffffffffffffffffffffffffffffffffffc3601126104a05782549160ff83161561047a57836001847fffffffffffffffffffffffffffffffffffffffffffffffffffffffffffffff008091168355610469614301565b61047161473e565b82541617815580f35b517f37ed32e8000000000000000000000000000000000000000000000000000000008152fd5b8280fd5b5091903461059d5760207ffffffffffffffffffffffffffffffffffffffffffffffffffffffffffffffffc36011261059d5750356201518090818104620afa6c019262023ab1938481069361016d948562023ab082146105b48304618eac84048401030304956064870490878060021c9102010390039586600502600201609990049160098311600c028303600301950692610e10968785069551988998603c880697603c900496049461f4ff0261030101600b1c9003600101926003881092046101900201019461059995879260a094919796959260c0850198855260208501526040840152606083015260808201520152565b0390f35b80fd5b50346103f757817ffffffffffffffffffffffffffffffffffffffffffffffffffffffffffffffffc3601126103f7576020905173ffffffffffffffffffffffffffffffffffffffff7f0000000000000000000000000000000000000000000000000000000000000000168152f35b50346103f757817ffffffffffffffffffffffffffffffffffffffffffffffffffffffffffffffffc3601126103f757602090516301e133808152f35b5091903461059d5760207ffffffffffffffffffffffffffffffffffffffffffffffffffffffffffffffffc36011261059d5782908235815260036020522001546201518090818104620afa6c019262023ab1938481069361016d948562023ab082146105b48304618eac84048401030304956064870490878060021c9102010390039586600502600201609990049160098311600c028303600301950692610e10968785069551988998603c880697603c900496049461f4ff0261030101600b1c9003600101926003881092046101900201019461059995879260a094919796959260c0850198855260208501526040840152606083015260808201520152565b5082346104a05760207ffffffffffffffffffffffffffffffffffffffffffffffffffffffffffffffffc3601126104a057918192358152600360205220600501546201518090818104620afa6c019262023ab1938481069361016d948562023ab082146105b48304618eac84048401030304956064870490878060021c9102010390039586600502600201609990049160098311600c028303600301950692610e10968785069551988998603c880697603c900496049461f4ff0261030101600b1c9003600101926003881092046101900201019461059995879260a094919796959260c0850198855260208501526040840152606083015260808201520152565b50346103f757817ffffffffffffffffffffffffffffffffffffffffffffffffffffffffffffffffc3601126103f757602090610898630b47350061089360075442613811565b614b83565b9051908152f35b50346103f75760207ffffffffffffffffffffffffffffffffffffffffffffffffffffffffffffffffc3601126103f75773ffffffffffffffffffffffffffffffffffffffff91833583811681036103f75781549460ff8616156109e957507fffffffffffffffffffffffffffffffffffffffffffffffffffffffffffffff00809516825561092b614301565b81936109376002613d9e565b9081519284925b8484106109a357505050506020947fdf85ecf2c1f25d03947aee9e045c694ded04d6478ea5c1a77f869bdc38cf4f7684600193845486526003895260038287200161098a898254613b8f565b905581519081528789820152a182541617905551908152f35b909192966109df6001916109d9858b8860606109cf828f6109c4868d613e2c565b51015116938a613e2c565b510151169061451f565b90613b8f565b970192919061093e565b83517f37ed32e8000000000000000000000000000000000000000000000000000000008152fd5b50346103f757817ffffffffffffffffffffffffffffffffffffffffffffffffffffffffffffffffc3601126103f757602090517f00000000000000000000000000000000000000000000000000000000000000008152f35b5091346103f757827ffffffffffffffffffffffffffffffffffffffffffffffffffffffffffffffffc3601126103f757359173ffffffffffffffffffffffffffffffffffffffff91828416840361059d5760243592831594851585036104a0579382919294610ad76002613d9e565b91825193945b848610610aee576020888851908152f35b909192939496816060610b018a88613e2c565b510151168380610b60575b610b4c578980610b57575b610b4c57610b42916109d986610b3c93868c610b338f8d613e2c565b51015116613bb5565b97613dff565b9493929190610add565b5096610b4290613dff565b50801515610b17565b508015610b0c565b50903461059d57817ffffffffffffffffffffffffffffffffffffffffffffffffffffffffffffffffc36011261059d575062015180610bac60209335602435613811565b049051908152f35b50346103f757817ffffffffffffffffffffffffffffffffffffffffffffffffffffffffffffffffc3601126103f7576020906007549051908152f35b50346103f757817ffffffffffffffffffffffffffffffffffffffffffffffffffffffffffffffffc3601126103f757602090610898610c31600c5442613811565b600a5490613796565b5082346104a057827ffffffffffffffffffffffffffffffffffffffffffffffffffffffffffffffffc3601126104a05782549160ff83161561047a57836001847fffffffffffffffffffffffffffffffffffffffffffffffffffffffffffffff008091168355610ca8614301565b6104716147e4565b5082346104a05760607ffffffffffffffffffffffffffffffffffffffffffffffffffffffffffffffffc3601126104a0573573ffffffffffffffffffffffffffffffffffffffff92838216820361059d57602435938416840361059d5760443590811515820361059d57509281610d2c60209561089894613cf7565b90613bb5565b50346103f757817ffffffffffffffffffffffffffffffffffffffffffffffffffffffffffffffffc3601126103f7576020906001549051908152f35b5091346103f75760207ffffffffffffffffffffffffffffffffffffffffffffffffffffffffffffffffc3601126103f757359073ffffffffffffffffffffffffffffffffffffffff9182811681036103f75791908092610dce6002613d9e565b805192935b838510610de4576020868851908152f35b9091929394610e1b610e21916109d986858b610e008c8a613e2c565b51015116866060610e118d8b613e2c565b5101511690613bb5565b95613dff565b93929190610dd3565b50346103f757807ffffffffffffffffffffffffffffffffffffffffffffffffffffffffffffffffc3601126103f75782359173ffffffffffffffffffffffffffffffffffffffff9384841684036103f757602435801595861590818303610fe45784549360ff851615610fbd575095917fffffffffffffffffffffffffffffffffffffffffffffffffffffffffffffff008094168555610ec8614301565b8496610ed46002613d9e565b80519487935b868510610f445760208b8b8b60018c7fbec2d90b2168161ac2f11f2f25bad501ebb354c5d35b22d76edbe5e46fc12b4760608e8e8554875260038a52600388882001610f278a8254613b8f565b90558751918252888a83015287820152a182541617905551908152f35b9091929399846060610f568d87613e2c565b510151168280610fb5575b610fa1578c80610fac575b610fa157610f98916109d985610f92938f8f610f898c928c613e2c565b5101511661451f565b9a613dff565b93929190610eda565b5099610f9890613dff565b50801515610f6c565b508015610f61565b86517f37ed32e8000000000000000000000000000000000000000000000000000000008152fd5b8480fd5b50346103f757817ffffffffffffffffffffffffffffffffffffffffffffffffffffffffffffffffc3601126103f75760209060ff600e5460a01c1690519015158152f35b50346103f757817ffffffffffffffffffffffffffffffffffffffffffffffffffffffffffffffffc3601126103f757602090610898600d5442613811565b50818391346103f757817ffffffffffffffffffffffffffffffffffffffffffffffffffffffffffffffffc3601126103f7576110a4614301565b6110ac614a14565b4792836110ea575b507fee2522ca264e96c7cef76269664e2a4cea70ad76b78ee5b01d0587798a0a72d690600154815194855260208501523393a380f35b909180808086335af115611100579083916110b4565b63b12d13eb8452601cfd5b5091903461059d57807ffffffffffffffffffffffffffffffffffffffffffffffffffffffffffffffffc36011261059d578290600154815260036020522001546201518090818104620afa6c019262023ab1938481069361016d948562023ab082146105b48304618eac84048401030304956064870490878060021c9102010390039586600502600201609990049160098311600c028303600301950692610e10968785069551988998603c880697603c900496049461f4ff0261030101600b1c9003600101926003881092046101900201019461059995879260a094919796959260c0850198855260208501526040840152606083015260808201520152565b50346103f757817ffffffffffffffffffffffffffffffffffffffffffffffffffffffffffffffffc3601126103f7576112686001547f0000000000000000000000000000000000000000000000000000000000000000906138dd565b91621281fb928381029381850414901517156103cb576020838351908152f35b5082346104a057827ffffffffffffffffffffffffffffffffffffffffffffffffffffffffffffffffc3601126104a057610bac62015180918360209560015481526003875220015442613811565b50346103f757817ffffffffffffffffffffffffffffffffffffffffffffffffffffffffffffffffc3601126103f75760209073ffffffffffffffffffffffffffffffffffffffff600e541615159051908152f35b50346103f757817ffffffffffffffffffffffffffffffffffffffffffffffffffffffffffffffffc3601126103f757611361614a14565b600754611550576113927f0000000000000000000000000000000000000000000000000000000000000000836138dd565b806009556113c07f0000000000000000000000000000000000000000000000000000000000000000846138dd565b600a5542600755630b47350042018042116115245760085542600d5542600c55621281fb90814201908142116114f8578281029281840414811517156114f8579160058492876080957fcc53a96dddb8d3b8710c4932d9e90652a4eaef0bf4c37a13dc4d806e1b54cb4d97519461143860c0876136c0565b8986526020860191825286860190815260608601908a82528887019242845260a088019586528b80526003602052888c20975188555160018801555160028701555160038601555190840155519101556007547fd7a8441131dba8c179c7d21c199a44cb69087afcb1bbe88df97ca5d3d1b7e678600854600954926114dc600a54858751948594859094939260609260808301968352602083015260408201520152565b0390a1848251928184528160208501528301526060820152a180f35b6024856011887f4e487b7100000000000000000000000000000000000000000000000000000000835252fd5b6024846011877f4e487b7100000000000000000000000000000000000000000000000000000000835252fd5b9050517fe6a87c82000000000000000000000000000000000000000000000000000000008152fd5b50346103f757817ffffffffffffffffffffffffffffffffffffffffffffffffffffffffffffffffc3601126103f757602090600d549051908152f35b5082346104a05760607ffffffffffffffffffffffffffffffffffffffffffffffffffffffffffffffffc3601126104a057359173ffffffffffffffffffffffffffffffffffffffff8084168094036103f7576024358181168091036104a0576044359182168092036104a057839483526005602052838320908352602052828220908252602052206001815491015482519182526020820152f35b50346103f757817ffffffffffffffffffffffffffffffffffffffffffffffffffffffffffffffffc3601126103f75760209073ffffffffffffffffffffffffffffffffffffffff600e54169051908152f35b50346103f757817ffffffffffffffffffffffffffffffffffffffffffffffffffffffffffffffffc3601126103f75760209051428152f35b5091346103f757827ffffffffffffffffffffffffffffffffffffffffffffffffffffffffffffffffc3601126103f75773ffffffffffffffffffffffffffffffffffffffff92813584811690818103610fe45760243580151581036117ec5785549460ff8616156117c55750600195967f9eab47b9475f8019b0adf8933aba0de094f031b718d7c4cda4a736d22f68bb00926117a76117a06060947fffffffffffffffffffffffffffffffffffffffffffffffffffffffffffffff00809a168c5583613cf7565b8092614245565b5087548651963388524260208901528701521693a382541617815580f35b84517f37ed32e8000000000000000000000000000000000000000000000000000000008152fd5b8580fd5b50903461059d5760207ffffffffffffffffffffffffffffffffffffffffffffffffffffffffffffffffc36011261059d57506108986020923561381e565b50346103f75760607ffffffffffffffffffffffffffffffffffffffffffffffffffffffffffffffffc3601126103f757823573ffffffffffffffffffffffffffffffffffffffff9182821690818303610fe457602435916044358015158103611b8e576118ab9061189d614301565b6118a56149be565b85613cf7565b948187526020918883528388209082881691828a5284528489209060ff825416611b66576118db87600b54613b8f565b600b557fffffffffffffffffffffffffffffffffffffffffffffffffffffffffffffff00936001858454161783556007830188815560028401948d887fffffffffffffffffffffffff00000000000000000000000000000000000000009580878a54161789556003880193878554161784558b51928380927f5f77f8910000000000000000000000000000000000000000000000000000000082525afa988915611b5a578e99611b26575b50506001850197885560025495600986019680885568010000000000000000811015611af9578060016119be92016002556002613a8c565b999099611acd57917fdc011fc76c60958a7fab8d152e889b6ac9e6825ae755f7b366e275ce0385110c9e9f9187969594938b9a9998611a499e9d9c03611a4f575b5050505050505050505050600b549051948594859092606092959493608083019673ffffffffffffffffffffffffffffffffffffffff809216845216602083015260408201520152565b0390a180f35b60099960ff808a54161515918d54169116178b555460018b01558460028b01915416868254161790558360038a019154168582541617905580850154908801556005840154600588015560068401546006880155546007870155600880870193015416908254161790555491015538808080808080808080806119ff565b8f8f806024927f4e487b7100000000000000000000000000000000000000000000000000000000825252fd5b8f8f60416024927f4e487b7100000000000000000000000000000000000000000000000000000000835252fd5b9080929950813d8311611b53575b611b3e81836136c0565b81010312611b4f5751963880611986565b8c80fd5b503d611b34565b8e8b51903d90823e3d90fd5b8a86517f21559a02000000000000000000000000000000000000000000000000000000008152fd5b8680fd5b50903461059d57807ffffffffffffffffffffffffffffffffffffffffffffffffffffffffffffffffc36011261059d57506008546201518090818104620afa6c019262023ab1938481069361016d948562023ab082146105b48304618eac84048401030304956064870490878060021c9102010390039586600502600201609990049160098311600c028303600301950692610e10968785069551988998603c880697603c900496049461f4ff0261030101600b1c9003600101926003881092046101900201019461059995879260a094919796959260c0850198855260208501526040840152606083015260808201520152565b50346103f757817ffffffffffffffffffffffffffffffffffffffffffffffffffffffffffffffffc3601126103f7576020906008549051908152f35b8284346103f75760607ffffffffffffffffffffffffffffffffffffffffffffffffffffffffffffffffc3601126103f7573573ffffffffffffffffffffffffffffffffffffffff80821682036104a05760443590811681036104a057611d2c9160243590613f79565b80f35b5082346104a05760207ffffffffffffffffffffffffffffffffffffffffffffffffffffffffffffffffc3601126104a057359073ffffffffffffffffffffffffffffffffffffffff9081831690818403610fe4577f2c9ff116977c5d1586a6849036dd6d48801ca839d7e67544f7ea263e1935109e93611a4991611db1614301565b611db9614a14565b600e54937fffffffffffffffffffffffff0000000000000000000000000000000000000000851617600e5551938493168390602090939293604083019473ffffffffffffffffffffffffffffffffffffffff809216845216910152565b5082346104a057817ffffffffffffffffffffffffffffffffffffffffffffffffffffffffffffffffc3601126104a057803573ffffffffffffffffffffffffffffffffffffffff90818116809103610fe457602435908282168092036117ec5794849161014096825284602052828220908252602052209060ff825416936001830154938260028501541690836003860154169085015490600586015492600687015494600960078901549760088a0154169801549881519a15158b5260208b01528901526060880152608087015260a086015260c085015260e0840152610100830152610120820152f35b50346103f757817ffffffffffffffffffffffffffffffffffffffffffffffffffffffffffffffffc3601126103f757602090610898621281fb610893600d5442613811565b50346103f757817ffffffffffffffffffffffffffffffffffffffffffffffffffffffffffffffffc3601126103f75760209051609c8152f35b50346103f757817ffffffffffffffffffffffffffffffffffffffffffffffffffffffffffffffffc3601126103f75761059990611fbb613e73565b9551948552602085019390935260408401919091526060830152608082015260a081019190915290819060c0820190565b50903461059d57807ffffffffffffffffffffffffffffffffffffffffffffffffffffffffffffffffc36011261059d5760015480612031575060209250905b51908152f35b7fffffffffffffffffffffffffffffffffffffffffffffffffffffffffffffffff81019081116120a757612086907f0000000000000000000000000000000000000000000000000000000000000000906138dd565b90621281fb918281029281840414901517156103cb5750602092509061202b565b6024826011867f4e487b7100000000000000000000000000000000000000000000000000000000835252fd5b50346103f757817ffffffffffffffffffffffffffffffffffffffffffffffffffffffffffffffffc3601126103f75780516105999161211281836136c0565b600582527f322e302e3000000000000000000000000000000000000000000000000000000060208301525191829182613730565b50346103f757817ffffffffffffffffffffffffffffffffffffffffffffffffffffffffffffffffc3601126103f7576020906002549051908152f35b5082346104a057827ffffffffffffffffffffffffffffffffffffffffffffffffffffffffffffffffc3601126104a0576121c5621281fb610893600d5442613811565b906001548452600360205260028385200154906003848620015494837fffffffffffffffffffffffffffffffffffffffffffffffffffffffffffffffff048311840261222457602085610898670de0b6b3a76400008688020489614b83565b63bac65e5b9052601cfd5b50346103f75760607ffffffffffffffffffffffffffffffffffffffffffffffffffffffffffffffffc3601126103f75782359173ffffffffffffffffffffffffffffffffffffffff8084168085036104a05760243591821515830361236657604435928184168403610fe45784549760ff891615610fbd5750917f1c4f94f28cc9152354d4b98b8614b28c6c828a98d88228fa9577c7b9475e120c849261231460019661230d60209c977fffffffffffffffffffffffffffffffffffffffffffffffffffffffffffffff008099168b55612307614301565b8c613cf7565b809b61451f565b988654885260038b5260038989200161232e8b8254613b8f565b9055885173ffffffffffffffffffffffffffffffffffffffff959095168552602085018a90521692604090a382541617905551908152f35b8380fd5b50346103f757817ffffffffffffffffffffffffffffffffffffffffffffffffffffffffffffffffc3601126103f757819060015483905b808211156123b3576020848451908152f35b90926123d06123d691858752600380602052858820015490613b8f565b93613dff565b906123a1565b50346103f757817ffffffffffffffffffffffffffffffffffffffffffffffffffffffffffffffffc3601126103f7576020905173ffffffffffffffffffffffffffffffffffffffff7f0000000000000000000000000000000000000000000000000000000000000000168152f35b50346103f757817ffffffffffffffffffffffffffffffffffffffffffffffffffffffffffffffffc3601126103f7576112686001547f0000000000000000000000000000000000000000000000000000000000000000906138dd565b508290346104a0576020807ffffffffffffffffffffffffffffffffffffffffffffffffffffffffffffffffc360112612366576124e1613a3d565b506124ea613a3d565b508151907f1ad4c8c300000000000000000000000000000000000000000000000000000000825283358483015273ffffffffffffffffffffffffffffffffffffffff60a083602481847f0000000000000000000000000000000000000000000000000000000000000000165afa92831561273d57869087946126b9575b509361028096819461262c94846125aa956126b79916998a85528083528585208580528352612597868620613ad7565b9a85528252848420921683525220613ad7565b915180948051151582526020810151602083015273ffffffffffffffffffffffffffffffffffffffff8060408301511660408401528060608301511660608401526080820151608084015260a082015160a084015260c082015160c084015260e082015160e08401526101009081830151169083015261012080910151910152565b805115156101408401526020810151610160840152604081015173ffffffffffffffffffffffffffffffffffffffff908116610180850152606082015181166101a085015260808201516101c085015260a08201516101e085015260c082015161020085015260e0820151610220850152610100820151166102408401526101200151610260830152565bf35b93505060a0833d8211612735575b816126d460a093836136c0565b810103126117ec578251801515036117ec57818301516affffffffffffffffffffff8116036117ec57612708848401613b69565b608061271660608601613b69565b9401516bffffffffffffffffffffffff811603611b8e57610280612567565b3d91506126c7565b84513d88823e3d90fd5b5091346103f757827ffffffffffffffffffffffffffffffffffffffffffffffffffffffffffffffffc3601126103f757803573ffffffffffffffffffffffffffffffffffffffff9182821692838303610fe45760243580151581036117ec576127c0906127b2614301565b6127ba6149be565b84613cf7565b9385528160205285852090841685526020528484209060ff8254161561285a575060080180547fffffffffffffffffffffffff0000000000000000000000000000000000000000169055925173ffffffffffffffffffffffffffffffffffffffff938416815292166020830152907f187f609dc1b45f615ecf16c1fcde5d69c367a25598a0cf014c8daa1285d204f0908060408101611a49565b85517f520f832f000000000000000000000000000000000000000000000000000000008152fd5b5082346104a057827ffffffffffffffffffffffffffffffffffffffffffffffffffffffffffffffffc3601126104a05782549160ff83161561047a57836001847fffffffffffffffffffffffffffffffffffffffffffffffffffffffffffffff0080911683556128ef614301565b6104716149a4565b50346103f757807ffffffffffffffffffffffffffffffffffffffffffffffffffffffffffffffffc3601126103f75761126860243584356138dd565b50346103f757817ffffffffffffffffffffffffffffffffffffffffffffffffffffffffffffffffc3601126103f7576020906009549051908152f35b823461059d57807ffffffffffffffffffffffffffffffffffffffffffffffffffffffffffffffffc36011261059d576129a6614301565b6129ae614a14565b611d2c614af7565b50346103f757817ffffffffffffffffffffffffffffffffffffffffffffffffffffffffffffffffc3601126103f757602090610898613e40565b50346103f757817ffffffffffffffffffffffffffffffffffffffffffffffffffffffffffffffffc3601126103f757602090600c549051908152f35b5082346104a057827ffffffffffffffffffffffffffffffffffffffffffffffffffffffffffffffffc3601126104a05782549160ff83161561047a57836001847fffffffffffffffffffffffffffffffffffffffffffffffffffffffffffffff008091168355610471614301565b50346103f75760607ffffffffffffffffffffffffffffffffffffffffffffffffffffffffffffffffc3601126103f757823573ffffffffffffffffffffffffffffffffffffffff938482168092036123665760243594808616809603610fe457604435908082168092036117ec579160649184938695885282602052858820898952602052610100612b2d878a20613ad7565b01511690855198899586947fb75942c0000000000000000000000000000000000000000000000000000000008652850152602484015260448301525afa928315612be757828094612ba4575b50505173ffffffffffffffffffffffffffffffffffffffff9190911681526020810191909152604090f35b91935091508282813d8311612be0575b612bbe81836136c0565b8101031261059d57506105996020612bd583613b69565b920151929038612b79565b503d612bb4565b5051903d90823e3d90fd5b50346103f757817ffffffffffffffffffffffffffffffffffffffffffffffffffffffffffffffffc3601126103f75780916001548152600360205220600501546201518090818104620afa6c019262023ab1938481069361016d948562023ab082146105b48304618eac84048401030304956064870490878060021c9102010390039586600502600201609990049160098311600c028303600301950692610e10968785069551988998603c880697603c900496049461f4ff0261030101600b1c9003600101926003881092046101900201019461059995879260a094919796959260c0850198855260208501526040840152606083015260808201520152565b50346103f757817ffffffffffffffffffffffffffffffffffffffffffffffffffffffffffffffffc3601126103f75760209051662386f26fc100008152f35b50903461059d57817ffffffffffffffffffffffffffffffffffffffffffffffffffffffffffffffffc36011261059d575061089860209260243590356138dd565b50346103f757817ffffffffffffffffffffffffffffffffffffffffffffffffffffffffffffffffc3601126103f75760209051621281fb8152f35b50346103f75760607ffffffffffffffffffffffffffffffffffffffffffffffffffffffffffffffffc3601126103f757823573ffffffffffffffffffffffffffffffffffffffff9384821692838303610fe457602435956044358015158103611b8e57612e19614301565b612e216149be565b15612f865781517fd8dfeb450000000000000000000000000000000000000000000000000000000081526020818581895afa908115612f7c578791612f43575b50945b86528260205281862090851686526020528085209160ff83541615612f1c575094817f565fcece9a598bb08d13f5964b75addeb6c15f8401114d49b330dada02ef648c9596826007612ede600982611a4998019584875497612ed182612ecc8b600b54613811565b613b8f565b600b555501546002613a8c565b50015551948594859092606092959493608083019673ffffffffffffffffffffffffffffffffffffffff809216845216602083015260408201520152565b90517f520f832f000000000000000000000000000000000000000000000000000000008152fd5b90506020813d8211612f74575b81612f5d602093836136c0565b81010312611b8e57612f6e90613b69565b38612e61565b3d9150612f50565b83513d89823e3d90fd5b8594612e64565b50346103f757817ffffffffffffffffffffffffffffffffffffffffffffffffffffffffffffffffc3601126103f757602090600a549051908152f35b5082346104a057602091827ffffffffffffffffffffffffffffffffffffffffffffffffffffffffffffffffc3601126123665781359273ffffffffffffffffffffffffffffffffffffffff8416928385036117ec57613026614301565b61302e614a14565b6370a0823186523082528582806024601c895afa601f3d11168351029586613089575b505050907fee2522ca264e96c7cef76269664e2a4cea70ad76b78ee5b01d0587798a0a72d6916001549082519586528501523393a380f35b906044601682869433601a528a603a5269a9059cbb00000000000082525af13d1560018851141716156130e45750603a8590527fee2522ca264e96c7cef76269664e2a4cea70ad76b78ee5b01d0587798a0a72d68587613051565b6390b8ec188652601cfd5b50346103f757817ffffffffffffffffffffffffffffffffffffffffffffffffffffffffffffffffc3601126103f75760209051630b4735008152f35b50346103f757817ffffffffffffffffffffffffffffffffffffffffffffffffffffffffffffffffc3601126103f7576001546001810180911161319357611268907f0000000000000000000000000000000000000000000000000000000000000000906138dd565b6024836011867f4e487b7100000000000000000000000000000000000000000000000000000000835252fd5b50903461059d5760207ffffffffffffffffffffffffffffffffffffffffffffffffffffffffffffffffc36011261059d57506126b761321561320f61014094613206613a3d565b50356002613a8c565b50613ad7565b915180928051151582526020810151602083015273ffffffffffffffffffffffffffffffffffffffff8060408301511660408401528060608301511660608401526080820151608084015260a082015160a084015260c082015160c084015260e082015160e08401526101009081830151169083015261012080910151910152565b50346103f757817ffffffffffffffffffffffffffffffffffffffffffffffffffffffffffffffffc3601126103f75760209062015180610bac42600854613811565b50346103f757817ffffffffffffffffffffffffffffffffffffffffffffffffffffffffffffffffc3601126103f757602090600b549051908152f35b50346103f757817ffffffffffffffffffffffffffffffffffffffffffffffffffffffffffffffffc3601126103f757602090517f00000000000000000000000000000000000000000000000000000000000000008152f35b50903461059d5760207ffffffffffffffffffffffffffffffffffffffffffffffffffffffffffffffffc36011261059d5781610599918435815260036020522091825492600181015494600282015460056003840154928401549301549351968796879260a094919796959260c0850198855260208501526040840152606083015260808201520152565b508290346104a05760607ffffffffffffffffffffffffffffffffffffffffffffffffffffffffffffffffc3601126104a05781359073ffffffffffffffffffffffffffffffffffffffff808316938484036117ec57602435938415158503611b8e576044359483861680960361352c5761348191613474614301565b61347c6149be565b613cf7565b91858752816020528387209216918287526020528286209060ff82541615613505575060080180547fffffffffffffffffffffffff00000000000000000000000000000000000000001684179055815193845260208401528201527f755d52111eed94748d2bb23652ca518a2fb5ae59c7ccc52b553930263dd1a8fe90606090a180f35b83517f520f832f000000000000000000000000000000000000000000000000000000008152fd5b8780fd5b50346103f757817ffffffffffffffffffffffffffffffffffffffffffffffffffffffffffffffffc3601126103f7576020906108986008544290613811565b929390503461236657837ffffffffffffffffffffffffffffffffffffffffffffffffffffffffffffffffc36011261236657600654600181811c91869082811680156136b6575b602095868610821461368a575084885290811561364a57506001146135f1575b61059986866135e7828b03836136c0565b5191829182613730565b929550600683527ff652222313e28459528d920b65115c16c04f3efc82aaedc97be59f3f377c0d3f5b8284106136375750505082610599946135e79282010194386135d6565b805486850188015292860192810161361a565b7fffffffffffffffffffffffffffffffffffffffffffffffffffffffffffffff001687860152505050151560051b83010192506135e782610599386135d6565b8360226024927f4e487b7100000000000000000000000000000000000000000000000000000000835252fd5b93607f16936135b6565b90601f7fffffffffffffffffffffffffffffffffffffffffffffffffffffffffffffffe0910116810190811067ffffffffffffffff82111761370157604052565b7f4e487b7100000000000000000000000000000000000000000000000000000000600052604160045260246000fd5b60208082528251818301819052939260005b858110613782575050507fffffffffffffffffffffffffffffffffffffffffffffffffffffffffffffffe0601f8460006040809697860101520116010190565b818101830151848201604001528201613742565b818102929181159184041417156137a957565b7f4e487b7100000000000000000000000000000000000000000000000000000000600052601160045260246000fd5b81156137e2570490565b7f4e487b7100000000000000000000000000000000000000000000000000000000600052601260045260246000fd5b919082039182116137a957565b609c03609c81116137a957670de0b6b3a764000060009182905b80821061388c575050670de0b6b3a76400000390670de0b6b3a7640000821161385f575090565b807f4e487b7100000000000000000000000000000000000000000000000000000000602492526011600452fd5b9091670dbd2fc137a30000907812a21131081afaf01ad7d1536eab728fd168d79abc89b12c5f811182026138d057670de0b6b3a76400009102049160010190613838565b63bac65e5b85526004601cfd5b906000916138ea8361381e565b83908085038116908181049160019586938483808b030401906002808260030218808302820302808302820302808302820302808302820302808302820302809202900302946139a6575b50505050509190835b81851061395257505050621281fb91500490565b909192670dbd2fc137a30000907812a21131081afaf01ad7d1536eab728fd168d79abc89b12c5f811182026139995794840194670de0b6b3a764000091020492919061393e565b63bac65e5b83526004601cfd5b909192939450662386f26fc1000093848302947fffffffffffffffffffffffffffffffffffffffffffffffffffffffffffffffff8185099386851087018086039514613a185784831115613a0b57099184831190030292030417023880808080613935565b63ae47f7028b526004601cfd5b505094505050508115613a3057043880808080613935565b63ae47f70285526004601cfd5b60405190613a4d610140836136c0565b816101206000918281528260208201528260408201528260608201528260808201528260a08201528260c08201528260e0820152826101008201520152565b8054821015613aa857600052600a602060002091020190600090565b7f4e487b7100000000000000000000000000000000000000000000000000000000600052603260045260246000fd5b90604051613ae7610140826136c0565b6101206009829460ff815416151584526001810154602085015273ffffffffffffffffffffffffffffffffffffffff80600283015416604086015280600383015416606086015260048201546080860152600582015460a0860152600682015460c0860152600782015460e08601526008820154166101008501520154910152565b519073ffffffffffffffffffffffffffffffffffffffff82168203613b8a57565b600080fd5b919082018092116137a957565b818103929160001380158285131691841216176137a957565b909173ffffffffffffffffffffffffffffffffffffffff80921660009181835260209360048552604095818786209116908186528652613bf6878620613ad7565b9385526005865286852090855285528584209116835283526001848320613c1f865196876136c0565b80548652015492840192835260a08101519160808201519160c081015180421180613cee575b613c73575b50505050613c6769d3c21bcecceda100000091613c709451613796565b04905190613b9c565b90565b613ca79160e0613c95613c8c613c9e949a999a42613811565b60095490613796565b91015190613796565b600b54906137d8565b9069d3c21bcecceda10000009182810292818404149015171561385f575092613ce669d3c21bcecceda1000000936109d9613c6794613c7098976137d8565b928195613c4a565b50831515613c45565b9060009015613d995750602073ffffffffffffffffffffffffffffffffffffffff916004604051809481937fd8dfeb45000000000000000000000000000000000000000000000000000000008352165afa908115613d8d57600091613d5a575090565b906020823d8211613d85575b81613d73602093836136c0565b8101031261059d5750613c7090613b69565b3d9150613d66565b6040513d6000823e3d90fd5b905090565b90815467ffffffffffffffff811161370157604051926020613dc5818460051b01866136c0565b82855260009182528082208186015b848410613de2575050505050565b600a83600192613df185613ad7565b815201920193019290613dd4565b7fffffffffffffffffffffffffffffffffffffffffffffffffffffffffffffffff81146137a95760010190565b8051821015613aa85760209160051b010190565b600154609b8114613e6d57600052600360205262015180613e6942600560406000200154613811565b0490565b50600090565b6001548015613f48577fffffffffffffffffffffffffffffffffffffffffffffffffffffffffffffffff81019081116137a9576000526003602052600460406000200154906201518091620afa6c838204019162023ab19182840692600161016d948562023ab082146105b48304618eac84048401030304956064870490878060021c91020103900361030161f4ff60996002846005020104986003600c60098c11028b03019a8b970698610190610e10976003898d069a10930402010199980201600b1c900301930491603c808304920690565b50600090600090600090600090600090600090565b919091600083820193841291129080158216911516176137a957565b92919073ffffffffffffffffffffffffffffffffffffffff809416918215801561419f575b61419857613fac8133614245565b90600095338752600560205260409281848920931692838952602052838820868952602052838820613fdf815487613b9c565b90600583015490818302917f800000000000000000000000000000000000000000000000000000000000000081148c85121661416b57838305148315171561413e579061404469d3c21bcecceda10000006001848b6008989796550192058254613f5d565b905561405560048301918254613f5d565b905501541680614096575b507feac61de046affca7fe9ad670a0122f505f4d6f907f7863e84ca5ca89028b17879293949550815193845260208401523392a3565b8087913b156103f757819060c48551809481937f250939ce0000000000000000000000000000000000000000000000000000000083523360048401528760248401528a60448401528a60648401528160848401528960a48401525af18015612f7c57967feac61de046affca7fe9ad670a0122f505f4d6f907f7863e84ca5ca89028b17879495969761412e575b508695949350614060565b614137916136c0565b3880614123565b60248b7f4e487b710000000000000000000000000000000000000000000000000000000081526011600452fd5b60248c7f4e487b710000000000000000000000000000000000000000000000000000000081526011600452fd5b5050509050565b506040517f5b068af8000000000000000000000000000000000000000000000000000000008152602081600481897f0000000000000000000000000000000000000000000000000000000000000000165afa8015613d8d57869160009161420a575b50168314613f9e565b91506020823d821161423d575b81614224602093836136c0565b8101031261059d57506142378691613b69565b38614201565b3d9150614217565b919073ffffffffffffffffffffffffffffffffffffffff80600094168452600460205260408420911683526020526040822091600683019081549081421161428c57505050565b600485015491826142a0575b505050429055565b613c9e6142b56142c092600954904203613796565b600788015490613796565b9069d3c21bcecceda10000009182810292818404149015171561385f5750906142e8916137d8565b6142f760058501918254613b8f565b9055388080614298565b614314600d54621281fb91829142613811565b0461431c5750565b9060015460018101908181116137a957609c8210156144945742600d556009546143667f0000000000000000000000000000000000000000000000000000000000000000846138dd565b6009556000948386526003602052604086209042600483015580420180421161446757600583015584825560095480600184015581810291818304149015171561443a57956003827fcc53a96dddb8d3b8710c4932d9e90652a4eaef0bf4c37a13dc4d806e1b54cb4d979860026144349695015501556144067f0000000000000000000000000000000000000000000000000000000000000000856138dd565b600a558360015560095490604051948594859094939260609260808301968352602083015260408201520152565b0390a15b565b6024877f4e487b710000000000000000000000000000000000000000000000000000000081526011600452fd5b6024887f4e487b710000000000000000000000000000000000000000000000000000000081526011600452fd5b505090506144385b60ff600e5460a01c16156144f0577f3448d68e439b81df30dbd68606f415f65c9eabaaef0aca1ffc0368cc3954c6dc60806007546008546001549060405192338452602084015260408301526060820152a1565b7f4e487b7100000000000000000000000000000000000000000000000000000000600052600160045260246000fd5b929161452b8285614245565b9360009273ffffffffffffffffffffffffffffffffffffffff8092168085526005602052604092808487209316928387526020528386203387526020528386209069d3c21bcecceda1000000614587835460058c015490613796565b0460018301996145988b5483613b9c565b9189831261471557908391839c558261465d575b600801541692836145c3575b505050505050505050565b5491833b15614659579288959492869260c49589519a8b9889977f250939ce00000000000000000000000000000000000000000000000000000000895260048901526024880152336044880152166064860152608485015260a48401525af1908115614650575061463b575b808080808080806145b8565b6146468280926136c0565b61059d578061462f565b513d84823e3d90fd5b8880fd5b907f000000000000000000000000000000000000000000000000000000000000000016803b156147115787517f40c10f1900000000000000000000000000000000000000000000000000000000815273ffffffffffffffffffffffffffffffffffffffff8a16600482015260248101849052908a908290604490829084905af18015614707576146f0575b5082906145ac565b896146ff85939b6008936136c0565b9991506146e8565b88513d8c823e3d90fd5b8980fd5b600488517f7a043e83000000000000000000000000000000000000000000000000000000008152fd5b6147486002613d9e565b80519060005b82811061479a57505060607f43604600d5d5b743877b9625896fea0414a17136bbe657753a96dc6f80ede1b9916147836147e4565b6001546040519182523360208301526040820152a1565b6001906147dd73ffffffffffffffffffffffffffffffffffffffff8060406147c28588613e2c565b510151169060606147d38588613e2c565b5101511690614245565b500161474e565b6147f3610c31600c5442613811565b80156149a15742600c55604051907f5b068af800000000000000000000000000000000000000000000000000000000825273ffffffffffffffffffffffffffffffffffffffff602083600481847f0000000000000000000000000000000000000000000000000000000000000000165afa928315613d8d57600093614966575b507f00000000000000000000000000000000000000000000000000000000000000001691823b15613b8a576040517f40c10f1900000000000000000000000000000000000000000000000000000000815273ffffffffffffffffffffffffffffffffffffffff8216600482015260248101839052926000908490604490829084905af1928315613d8d577f8c7c728114c112045e2034993bddd9085d8389598519c107b239314593fe87a593614955575b506040805173ffffffffffffffffffffffffffffffffffffffff909216825260208201929092529081908101614434565b6000614960916136c0565b38614924565b90926020823d8211614999575b81614980602093836136c0565b8101031261059d575061499290613b69565b9138614873565b3d9150614973565b50565b6149ac61473e565b609c600154106144385761443861449c565b600e5473ffffffffffffffffffffffffffffffffffffffff168015614a0f5733036149e557565b60046040517fde192719000000000000000000000000000000000000000000000000000000008152fd5b506144385b6040517ff851a44000000000000000000000000000000000000000000000000000000000815273ffffffffffffffffffffffffffffffffffffffff90602081600481857f0000000000000000000000000000000000000000000000000000000000000000165afa908115613d8d57600091614abe575b50163303614a9457565b60046040517f6ef4c9a4000000000000000000000000000000000000000000000000000000008152fd5b906020823d8211614aef575b81614ad7602093836136c0565b8101031261059d5750614ae990613b69565b38614a8a565b3d9150614aca565b600e5460ff8160a01c166149a1576060740100000000000000000000000000000000000000007fffffffffffffffffffffff00ffffffffffffffffffffffffffffffffffffffff7f1b3587203e8359719df4287c466107760e0f3ed9b52697df913d0a18877eca2b93161780600e5560ff6040519142835233602084015260a01c1615156040820152a1565b670de0b6b3a7640000907812725dd1d243aba0e75fe645cc4873f9e65afe688c928e1f218111820215830215614bb857020490565b637c5f487d6000526004601cfdfea164736f6c6343000811000a",
  "linkReferences": {},
  "deployedLinkReferences": {}
}