{
  "_format": "hh-sol-artifact-1",
  "contractName": "TokenVesting",
  "sourceName": "contracts/CygnusTokenVesting.sol",
  "abi": [
    {
      "inputs": [
        {
          "internalType": "address",
          "name": "token_",
          "type": "address"
        }
      ],
      "stateMutability": "nonpayable",
      "type": "constructor"
    },
    {
      "inputs": [],
      "name": "ReentrantCall",
      "type": "error"
    },
    {
      "anonymous": false,
      "inputs": [
        {
          "indexed": true,
          "internalType": "address",
          "name": "user",
          "type": "address"
        },
        {
          "indexed": true,
          "internalType": "address",
          "name": "newOwner",
          "type": "address"
        }
      ],
      "name": "OwnershipTransferred",
      "type": "event"
    },
    {
      "stateMutability": "payable",
      "type": "fallback"
    },
    {
      "inputs": [
        {
          "internalType": "address",
          "name": "holder",
          "type": "address"
        }
      ],
      "name": "computeNextVestingScheduleIdForHolder",
      "outputs": [
        {
          "internalType": "bytes32",
          "name": "",
          "type": "bytes32"
        }
      ],
      "stateMutability": "view",
      "type": "function"
    },
    {
      "inputs": [
        {
          "internalType": "bytes32",
          "name": "vestingScheduleId",
          "type": "bytes32"
        }
      ],
      "name": "computeReleasableAmount",
      "outputs": [
        {
          "internalType": "uint256",
          "name": "",
          "type": "uint256"
        }
      ],
      "stateMutability": "view",
      "type": "function"
    },
    {
      "inputs": [
        {
          "internalType": "address",
          "name": "holder",
          "type": "address"
        },
        {
          "internalType": "uint256",
          "name": "index",
          "type": "uint256"
        }
      ],
      "name": "computeVestingScheduleIdForAddressAndIndex",
      "outputs": [
        {
          "internalType": "bytes32",
          "name": "",
          "type": "bytes32"
        }
      ],
      "stateMutability": "pure",
      "type": "function"
    },
    {
      "inputs": [
        {
          "internalType": "address",
          "name": "_beneficiary",
          "type": "address"
        },
        {
          "internalType": "uint256",
          "name": "_start",
          "type": "uint256"
        },
        {
          "internalType": "uint256",
          "name": "_cliff",
          "type": "uint256"
        },
        {
          "internalType": "uint256",
          "name": "_duration",
          "type": "uint256"
        },
        {
          "internalType": "uint256",
          "name": "_slicePeriodSeconds",
          "type": "uint256"
        },
        {
          "internalType": "bool",
          "name": "_revocable",
          "type": "bool"
        },
        {
          "internalType": "uint256",
          "name": "_amount",
          "type": "uint256"
        }
      ],
      "name": "createVestingSchedule",
      "outputs": [],
      "stateMutability": "nonpayable",
      "type": "function"
    },
    {
      "inputs": [
        {
          "internalType": "address",
          "name": "holder",
          "type": "address"
        }
      ],
      "name": "getLastVestingScheduleForHolder",
      "outputs": [
        {
          "components": [
            {
              "internalType": "bool",
              "name": "initialized",
              "type": "bool"
            },
            {
              "internalType": "address",
              "name": "beneficiary",
              "type": "address"
            },
            {
              "internalType": "uint256",
              "name": "cliff",
              "type": "uint256"
            },
            {
              "internalType": "uint256",
              "name": "start",
              "type": "uint256"
            },
            {
              "internalType": "uint256",
              "name": "duration",
              "type": "uint256"
            },
            {
              "internalType": "uint256",
              "name": "slicePeriodSeconds",
              "type": "uint256"
            },
            {
              "internalType": "bool",
              "name": "revocable",
              "type": "bool"
            },
            {
              "internalType": "uint256",
              "name": "amountTotal",
              "type": "uint256"
            },
            {
              "internalType": "uint256",
              "name": "released",
              "type": "uint256"
            },
            {
              "internalType": "bool",
              "name": "revoked",
              "type": "bool"
            }
          ],
          "internalType": "struct TokenVesting.VestingSchedule",
          "name": "",
          "type": "tuple"
        }
      ],
      "stateMutability": "view",
      "type": "function"
    },
    {
      "inputs": [],
      "name": "getToken",
      "outputs": [
        {
          "internalType": "address",
          "name": "",
          "type": "address"
        }
      ],
      "stateMutability": "view",
      "type": "function"
    },
    {
      "inputs": [
        {
          "internalType": "uint256",
          "name": "index",
          "type": "uint256"
        }
      ],
      "name": "getVestingIdAtIndex",
      "outputs": [
        {
          "internalType": "bytes32",
          "name": "",
          "type": "bytes32"
        }
      ],
      "stateMutability": "view",
      "type": "function"
    },
    {
      "inputs": [
        {
          "internalType": "bytes32",
          "name": "vestingScheduleId",
          "type": "bytes32"
        }
      ],
      "name": "getVestingSchedule",
      "outputs": [
        {
          "components": [
            {
              "internalType": "bool",
              "name": "initialized",
              "type": "bool"
            },
            {
              "internalType": "address",
              "name": "beneficiary",
              "type": "address"
            },
            {
              "internalType": "uint256",
              "name": "cliff",
              "type": "uint256"
            },
            {
              "internalType": "uint256",
              "name": "start",
              "type": "uint256"
            },
            {
              "internalType": "uint256",
              "name": "duration",
              "type": "uint256"
            },
            {
              "internalType": "uint256",
              "name": "slicePeriodSeconds",
              "type": "uint256"
            },
            {
              "internalType": "bool",
              "name": "revocable",
              "type": "bool"
            },
            {
              "internalType": "uint256",
              "name": "amountTotal",
              "type": "uint256"
            },
            {
              "internalType": "uint256",
              "name": "released",
              "type": "uint256"
            },
            {
              "internalType": "bool",
              "name": "revoked",
              "type": "bool"
            }
          ],
          "internalType": "struct TokenVesting.VestingSchedule",
          "name": "",
          "type": "tuple"
        }
      ],
      "stateMutability": "view",
      "type": "function"
    },
    {
      "inputs": [
        {
          "internalType": "address",
          "name": "holder",
          "type": "address"
        },
        {
          "internalType": "uint256",
          "name": "index",
          "type": "uint256"
        }
      ],
      "name": "getVestingScheduleByAddressAndIndex",
      "outputs": [
        {
          "components": [
            {
              "internalType": "bool",
              "name": "initialized",
              "type": "bool"
            },
            {
              "internalType": "address",
              "name": "beneficiary",
              "type": "address"
            },
            {
              "internalType": "uint256",
              "name": "cliff",
              "type": "uint256"
            },
            {
              "internalType": "uint256",
              "name": "start",
              "type": "uint256"
            },
            {
              "internalType": "uint256",
              "name": "duration",
              "type": "uint256"
            },
            {
              "internalType": "uint256",
              "name": "slicePeriodSeconds",
              "type": "uint256"
            },
            {
              "internalType": "bool",
              "name": "revocable",
              "type": "bool"
            },
            {
              "internalType": "uint256",
              "name": "amountTotal",
              "type": "uint256"
            },
            {
              "internalType": "uint256",
              "name": "released",
              "type": "uint256"
            },
            {
              "internalType": "bool",
              "name": "revoked",
              "type": "bool"
            }
          ],
          "internalType": "struct TokenVesting.VestingSchedule",
          "name": "",
          "type": "tuple"
        }
      ],
      "stateMutability": "view",
      "type": "function"
    },
    {
      "inputs": [],
      "name": "getVestingSchedulesCount",
      "outputs": [
        {
          "internalType": "uint256",
          "name": "",
          "type": "uint256"
        }
      ],
      "stateMutability": "view",
      "type": "function"
    },
    {
      "inputs": [
        {
          "internalType": "address",
          "name": "_beneficiary",
          "type": "address"
        }
      ],
      "name": "getVestingSchedulesCountByBeneficiary",
      "outputs": [
        {
          "internalType": "uint256",
          "name": "",
          "type": "uint256"
        }
      ],
      "stateMutability": "view",
      "type": "function"
    },
    {
      "inputs": [],
      "name": "getVestingSchedulesTotalAmount",
      "outputs": [
        {
          "internalType": "uint256",
          "name": "",
          "type": "uint256"
        }
      ],
      "stateMutability": "view",
      "type": "function"
    },
    {
      "inputs": [],
      "name": "getWithdrawableAmount",
      "outputs": [
        {
          "internalType": "uint256",
          "name": "",
          "type": "uint256"
        }
      ],
      "stateMutability": "view",
      "type": "function"
    },
    {
      "inputs": [],
      "name": "owner",
      "outputs": [
        {
          "internalType": "address",
          "name": "",
          "type": "address"
        }
      ],
      "stateMutability": "view",
      "type": "function"
    },
    {
      "inputs": [
        {
          "internalType": "bytes32",
          "name": "vestingScheduleId",
          "type": "bytes32"
        },
        {
          "internalType": "uint256",
          "name": "amount",
          "type": "uint256"
        }
      ],
      "name": "release",
      "outputs": [],
      "stateMutability": "nonpayable",
      "type": "function"
    },
    {
      "inputs": [
        {
          "internalType": "bytes32",
          "name": "vestingScheduleId",
          "type": "bytes32"
        }
      ],
      "name": "revoke",
      "outputs": [],
      "stateMutability": "nonpayable",
      "type": "function"
    },
    {
      "inputs": [
        {
          "internalType": "address",
          "name": "newOwner",
          "type": "address"
        }
      ],
      "name": "transferOwnership",
      "outputs": [],
      "stateMutability": "nonpayable",
      "type": "function"
    },
    {
      "inputs": [
        {
          "internalType": "uint256",
          "name": "amount",
          "type": "uint256"
        }
      ],
      "name": "withdraw",
      "outputs": [],
      "stateMutability": "nonpayable",
      "type": "function"
    },
    {
      "stateMutability": "payable",
      "type": "receive"
    }
  ],
  "bytecode": "0x60a060405234801561001057600080fd5b5060405161171838038061171883398101604081905261002f916100ab565b600080546001600160a01b031916339081178255604051909182917f8be0079c531659141344cd1fd0a4f28419497f9722a3daafe3b4186f6b6457e0908290a3506000805460ff60a01b1916600160a01b1790556001600160a01b03811661009657600080fd5b60601b6001600160601b0319166080526100d9565b6000602082840312156100bc578081fd5b81516001600160a01b03811681146100d2578182fd5b9392505050565b60805160601c61160c61010c6000396000818161015d015281816108a101528181610b470152610ccd015261160c6000f3fe6080604052600436106101015760003560e01c80638da5cb5b1161008f578063ea1bb3d511610061578063ea1bb3d5146102e2578063f2fde38b14610302578063f51321d714610322578063f7c469f014610342578063f9079b371461036257005b80638da5cb5b1461026d57806390be10cc1461028d5780639ef346b4146102a2578063b75c7dc6146102c257005b806348deb471116100d357806348deb471146101b55780635a7bb69a146101ca57806366afd8ef146102005780637e913dc6146102205780638af104da1461024d57005b8063130836171461010a57806317e289e91461012e57806321df0da71461014e5780632e1a7d4d1461019557005b3661010857005b005b34801561011657600080fd5b506001545b6040519081526020015b60405180910390f35b34801561013a57600080fd5b5061010861014936600461140c565b610382565b34801561015a57600080fd5b507f00000000000000000000000000000000000000000000000000000000000000005b6040516001600160a01b039091168152602001610125565b3480156101a157600080fd5b506101086101b0366004611476565b6107b2565b3480156101c157600080fd5b5060035461011b565b3480156101d657600080fd5b5061011b6101e53660046113c9565b6001600160a01b031660009081526004602052604090205490565b34801561020c57600080fd5b5061010861021b36600461148e565b6108dd565b34801561022c57600080fd5b5061024061023b3660046113c9565b610b8a565b60405161012591906114c7565b34801561025957600080fd5b5061011b6102683660046113e3565b610c62565b34801561027957600080fd5b5060005461017d906001600160a01b031681565b34801561029957600080fd5b5061011b610ca9565b3480156102ae57600080fd5b506102406102bd366004611476565b610d56565b3480156102ce57600080fd5b506101086102dd366004611476565b610dfd565b3480156102ee57600080fd5b5061011b6102fd366004611476565b610fd4565b34801561030e57600080fd5b5061010861031d3660046113c9565b6110b9565b34801561032e57600080fd5b5061024061033d3660046113e3565b61115a565b34801561034e57600080fd5b5061011b61035d3660046113c9565b611176565b34801561036e57600080fd5b5061011b61037d366004611476565b6111a0565b6000546001600160a01b031633146103d05760405162461bcd60e51b815260206004820152600c60248201526b15539055551213d49256915160a21b60448201526064015b60405180910390fd5b806103d9610ca9565b10156104605760405162461bcd60e51b815260206004820152604a60248201527f546f6b656e56657374696e673a2063616e6e6f7420637265617465207665737460448201527f696e67207363686564756c652062656361757365206e6f742073756666696369606482015269656e7420746f6b656e7360b01b608482015260a4016103c7565b600084116104bb5760405162461bcd60e51b815260206004820152602260248201527f546f6b656e56657374696e673a206475726174696f6e206d757374206265203e604482015261020360f41b60648201526084016103c7565b6000811161050b5760405162461bcd60e51b815260206004820181905260248201527f546f6b656e56657374696e673a20616d6f756e74206d757374206265203e203060448201526064016103c7565b60018310156105725760405162461bcd60e51b815260206004820152602d60248201527f546f6b656e56657374696e673a20736c696365506572696f645365636f6e647360448201526c206d757374206265203e3d203160981b60648201526084016103c7565b848410156105d25760405162461bcd60e51b815260206004820152602760248201527f546f6b656e56657374696e673a206475726174696f6e206d757374206265203e6044820152661e9031b634b33360c91b60648201526084016103c7565b60006105dd88611176565b905060006105eb8789611552565b90506040518061014001604052806001151581526020018a6001600160a01b03168152602001828152602001898152602001878152602001868152602001851515815260200184815260200160008152602001600015158152506002600084815260200190815260200160002060008201518160000160006101000a81548160ff02191690831515021790555060208201518160000160016101000a8154816001600160a01b0302191690836001600160a01b0316021790555060408201518160010155606082015181600201556080820151816003015560a0820151816004015560c08201518160050160006101000a81548160ff02191690831515021790555060e0820151816006015561010082015181600701556101208201518160080160006101000a81548160ff021916908315150217905550905050826003546107349190611552565b6003556001805480820182557fb10e2d527612073b26eecdfd717e6a320cf44b4afac2b0732d9fcbe2b7fa0cf6018390556001600160a01b038a166000908152600460205260409020549061078a908290611552565b6001600160a01b03909a16600090815260046020526040902099909955505050505050505050565b600054600160a01b900460ff166107dc576040516306fda65d60e31b815260040160405180910390fd5b6000805460ff60a01b1981169091556001600160a01b031633146108315760405162461bcd60e51b815260206004820152600c60248201526b15539055551213d49256915160a21b60448201526064016103c7565b8061083a610ca9565b101561089c5760405162461bcd60e51b815260206004820152602b60248201527f546f6b656e56657374696e673a206e6f7420656e6f756768207769746864726160448201526a7761626c652066756e647360a81b60648201526084016103c7565b6108c77f00000000000000000000000000000000000000000000000000000000000000003383611236565b506000805460ff60a01b1916600160a01b179055565b600054600160a01b900460ff16610907576040516306fda65d60e31b815260040160405180910390fd5b6000805460ff60a01b1916815582815260026020526040902054829060ff1661092f57600080fd5b60008181526002602052604090206008015460ff161561094e57600080fd5b6000838152600260205260408120805491549091336001600160a01b0361010090920482168114929091161481806109835750805b610a005760405162461bcd60e51b815260206004820152604260248201527f546f6b656e56657374696e673a206f6e6c792062656e6566696369617279206160448201527f6e64206f776e65722063616e2072656c656173652076657374656420746f6b656064820152616e7360f01b608482015260a4016103c7565b6040805161014081018252845460ff808216151583526001600160a01b03610100928390041660208401526001870154938301939093526002860154606083015260038601546080830152600486015460a083015260058601548316151560c0830152600686015460e083015260078601549082015260088501549091161515610120820152600090610a929061127f565b905085811015610b0a5760405162461bcd60e51b815260206004820152603d60248201527f546f6b656e56657374696e673a2063616e6e6f742072656c6561736520746f6b60448201527f656e732c206e6f7420656e6f7567682076657374656420746f6b656e7300000060648201526084016103c7565b858460070154610b1a9190611552565b600785015583546003546101009091046001600160a01b031690610b3f9088906115a9565b600355610b6d7f00000000000000000000000000000000000000000000000000000000000000008289611236565b50506000805460ff60a01b1916600160a01b179055505050505050565b610b9261134b565b6001600160a01b03821660009081526004602052604081205460029190610bc1908590610268906001906115a9565b81526020808201929092526040908101600020815161014081018352815460ff808216151583526001600160a01b036101009283900416958301959095526001830154938201939093526002820154606082015260038201546080820152600482015460a082015260058201548416151560c0820152600682015460e082015260078201549281019290925260080154909116151561012082015292915050565b6040516bffffffffffffffffffffffff19606084901b1660208201526034810182905260009060540160405160208183030381529060405280519060200120905092915050565b6003546040516370a0823160e01b8152306004820152600091906001600160a01b037f000000000000000000000000000000000000000000000000000000000000000016906370a082319060240160206040518083038186803b158015610d0f57600080fd5b505afa158015610d23573d6000803e3d6000fd5b505050506040513d601f19601f82011682018060405250810190610d4791906114af565b610d5191906115a9565b905090565b610d5e61134b565b50600090815260026020818152604092839020835161014081018552815460ff808216151583526001600160a01b0361010092839004169483019490945260018301549582019590955292810154606084015260038101546080840152600481015460a084015260058101548216151560c0840152600681015460e0840152600781015493830193909352600890920154909116151561012082015290565b6000546001600160a01b03163314610e465760405162461bcd60e51b815260206004820152600c60248201526b15539055551213d49256915160a21b60448201526064016103c7565b600081815260026020526040902054819060ff16610e6357600080fd5b60008181526002602052604090206008015460ff1615610e8257600080fd5b6000828152600260205260409020600581015460ff16610ef35760405162461bcd60e51b815260206004820152602660248201527f546f6b656e56657374696e673a2076657374696e67206973206e6f74207265766044820152656f6361626c6560d01b60648201526084016103c7565b6040805161014081018252825460ff808216151583526001600160a01b03610100928390041660208401526001850154938301939093526002840154606083015260038401546080830152600484015460a083015260058401548316151560c0830152600684015460e083015260078401549082015260088301549091161515610120820152600090610f859061127f565b90508015610f9757610f9784826108dd565b600082600701548360060154610fad91906115a9565b905080600354610fbd91906115a9565b6003555050600801805460ff191660011790555050565b600081815260026020526040812054829060ff16610ff157600080fd5b60008181526002602052604090206008015460ff161561101057600080fd5b600083815260026020818152604092839020835161014081018552815460ff808216151583526001600160a01b0361010092839004169483019490945260018301549582019590955292810154606084015260038101546080840152600481015460a084015260058101548216151560c0840152600681015460e084015260078101549383019390935260088301541615156101208201526110b19061127f565b949350505050565b6000546001600160a01b031633146111025760405162461bcd60e51b815260206004820152600c60248201526b15539055551213d49256915160a21b60448201526064016103c7565b6000805473ffffffffffffffffffffffffffffffffffffffff19166001600160a01b0383169081178255604051909133917f8be0079c531659141344cd1fd0a4f28419497f9722a3daafe3b4186f6b6457e09190a350565b61116261134b565b61116f6102bd8484610c62565b9392505050565b6001600160a01b03811660009081526004602052604081205461119a908390610c62565b92915050565b60006111ab60015490565b82106112035760405162461bcd60e51b815260206004820152602160248201527f546f6b656e56657374696e673a20696e646578206f7574206f6620626f756e646044820152607360f81b60648201526084016103c7565b6001828154811061122457634e487b7160e01b600052603260045260246000fd5b90600052602060002001549050919050565b81601a5280603a5269a9059cbb00000000000060005260206000604460166000875af13d156001600051141716611275576390b8ec186000526004601cfd5b6000603a52505050565b6040810151600090429081108061129857508261012001515b156112a65750600092915050565b826080015183606001516112ba9190611552565b81106112d5578261010001518360e0015161116f91906115a9565b60008360600151826112e791906115a9565b60a085015190915060006112fb828461156a565b90506000611309838361158a565b905060008760800151828960e00151611322919061158a565b61132c919061156a565b90508761010001518161133f91906115a9565b98975050505050505050565b60405180610140016040528060001515815260200160006001600160a01b031681526020016000815260200160008152602001600081526020016000815260200160001515815260200160008152602001600081526020016000151581525090565b80356001600160a01b03811681146113c457600080fd5b919050565b6000602082840312156113da578081fd5b61116f826113ad565b600080604083850312156113f5578081fd5b6113fe836113ad565b946020939093013593505050565b600080600080600080600060e0888a031215611426578283fd5b61142f886113ad565b96506020880135955060408801359450606088013593506080880135925060a0880135801515811461145f578283fd5b8092505060c0880135905092959891949750929550565b600060208284031215611487578081fd5b5035919050565b600080604083850312156114a0578182fd5b50508035926020909101359150565b6000602082840312156114c0578081fd5b5051919050565b815115158152610140810160208301516114ec60208401826001600160a01b03169052565b5060408301516040830152606083015160608301526080830151608083015260a083015160a083015260c083015161152860c084018215159052565b5060e083810151908301526101008084015190830152610120928301511515929091019190915290565b60008219821115611565576115656115c0565b500190565b60008261158557634e487b7160e01b81526012600452602481fd5b500490565b60008160001904831182151516156115a4576115a46115c0565b500290565b6000828210156115bb576115bb6115c0565b500390565b634e487b7160e01b600052601160045260246000fdfea26469706673582212208d2e3a98058bfddd19d9a24ea8e53ec71d9bcfdd5fba919cdd1f11d972cbd5ae64736f6c63430008040033",
  "linkReferences": {},
  "deployedLinkReferences": {}
}