{
  "_format": "hh-sol-artifact-1",
  "contractName": "CygnusDAO",
  "sourceName": "contracts/cygnus-token/CygnusDAO.sol",
  "abi": [
    {
      "inputs": [
        {
          "internalType": "string",
          "name": "_name",
          "type": "string"
        },
        {
          "internalType": "string",
          "name": "_symbol",
          "type": "string"
        },
        {
          "internalType": "address",
          "name": "_lzEndpoint",
          "type": "address"
        }
      ],
      "stateMutability": "nonpayable",
      "type": "constructor"
    },
    {
      "inputs": [],
      "name": "CantTeleportZero",
      "type": "error"
    },
    {
      "inputs": [],
      "name": "ExceedsCairoMax",
      "type": "error"
    },
    {
      "inputs": [],
      "name": "ExceedsSupplyCap",
      "type": "error"
    },
    {
      "inputs": [],
      "name": "InvalidL2Recipient",
      "type": "error"
    },
    {
      "inputs": [],
      "name": "OnlyPillars",
      "type": "error"
    },
    {
      "inputs": [],
      "name": "PillarsAlreadySet",
      "type": "error"
    },
    {
      "inputs": [],
      "name": "RecipientIsZero",
      "type": "error"
    },
    {
      "inputs": [],
      "name": "StarknetCygAlreadySet",
      "type": "error"
    },
    {
      "inputs": [],
      "name": "Uint128Overflow",
      "type": "error"
    },
    {
      "anonymous": false,
      "inputs": [
        {
          "indexed": true,
          "internalType": "address",
          "name": "owner",
          "type": "address"
        },
        {
          "indexed": true,
          "internalType": "address",
          "name": "spender",
          "type": "address"
        },
        {
          "indexed": false,
          "internalType": "uint256",
          "name": "value",
          "type": "uint256"
        }
      ],
      "name": "Approval",
      "type": "event"
    },
    {
      "anonymous": false,
      "inputs": [
        {
          "indexed": false,
          "internalType": "uint16",
          "name": "_srcChainId",
          "type": "uint16"
        },
        {
          "indexed": false,
          "internalType": "bytes",
          "name": "_srcAddress",
          "type": "bytes"
        },
        {
          "indexed": false,
          "internalType": "uint64",
          "name": "_nonce",
          "type": "uint64"
        },
        {
          "indexed": false,
          "internalType": "bytes",
          "name": "_payload",
          "type": "bytes"
        },
        {
          "indexed": false,
          "internalType": "bytes",
          "name": "_reason",
          "type": "bytes"
        }
      ],
      "name": "MessageFailed",
      "type": "event"
    },
    {
      "anonymous": false,
      "inputs": [
        {
          "indexed": false,
          "internalType": "address",
          "name": "oldMinter",
          "type": "address"
        },
        {
          "indexed": false,
          "internalType": "address",
          "name": "newMinter",
          "type": "address"
        }
      ],
      "name": "NewCYGMinter",
      "type": "event"
    },
    {
      "anonymous": false,
      "inputs": [
        {
          "indexed": false,
          "internalType": "uint256",
          "name": "oldCygStarknet",
          "type": "uint256"
        },
        {
          "indexed": false,
          "internalType": "uint256",
          "name": "newCygStarknet",
          "type": "uint256"
        }
      ],
      "name": "NewCYGStarknet",
      "type": "event"
    },
    {
      "anonymous": false,
      "inputs": [
        {
          "indexed": true,
          "internalType": "address",
          "name": "previousOwner",
          "type": "address"
        },
        {
          "indexed": true,
          "internalType": "address",
          "name": "newOwner",
          "type": "address"
        }
      ],
      "name": "OwnershipTransferred",
      "type": "event"
    },
    {
      "anonymous": false,
      "inputs": [
        {
          "indexed": true,
          "internalType": "uint16",
          "name": "_srcChainId",
          "type": "uint16"
        },
        {
          "indexed": true,
          "internalType": "address",
          "name": "_to",
          "type": "address"
        },
        {
          "indexed": false,
          "internalType": "uint256",
          "name": "_amount",
          "type": "uint256"
        }
      ],
      "name": "ReceiveFromChain",
      "type": "event"
    },
    {
      "anonymous": false,
      "inputs": [
        {
          "indexed": false,
          "internalType": "uint16",
          "name": "_srcChainId",
          "type": "uint16"
        },
        {
          "indexed": false,
          "internalType": "bytes",
          "name": "_srcAddress",
          "type": "bytes"
        },
        {
          "indexed": false,
          "internalType": "uint64",
          "name": "_nonce",
          "type": "uint64"
        },
        {
          "indexed": false,
          "internalType": "bytes32",
          "name": "_payloadHash",
          "type": "bytes32"
        }
      ],
      "name": "RetryMessageSuccess",
      "type": "event"
    },
    {
      "anonymous": false,
      "inputs": [
        {
          "indexed": true,
          "internalType": "uint16",
          "name": "_dstChainId",
          "type": "uint16"
        },
        {
          "indexed": true,
          "internalType": "address",
          "name": "_from",
          "type": "address"
        },
        {
          "indexed": false,
          "internalType": "bytes",
          "name": "_toAddress",
          "type": "bytes"
        },
        {
          "indexed": false,
          "internalType": "uint256",
          "name": "_amount",
          "type": "uint256"
        }
      ],
      "name": "SendToChain",
      "type": "event"
    },
    {
      "anonymous": false,
      "inputs": [
        {
          "indexed": false,
          "internalType": "uint16",
          "name": "_dstChainId",
          "type": "uint16"
        },
        {
          "indexed": false,
          "internalType": "uint16",
          "name": "_type",
          "type": "uint16"
        },
        {
          "indexed": false,
          "internalType": "uint256",
          "name": "_minDstGas",
          "type": "uint256"
        }
      ],
      "name": "SetMinDstGas",
      "type": "event"
    },
    {
      "anonymous": false,
      "inputs": [
        {
          "indexed": false,
          "internalType": "address",
          "name": "precrime",
          "type": "address"
        }
      ],
      "name": "SetPrecrime",
      "type": "event"
    },
    {
      "anonymous": false,
      "inputs": [
        {
          "indexed": false,
          "internalType": "uint16",
          "name": "_remoteChainId",
          "type": "uint16"
        },
        {
          "indexed": false,
          "internalType": "bytes",
          "name": "_path",
          "type": "bytes"
        }
      ],
      "name": "SetTrustedRemote",
      "type": "event"
    },
    {
      "anonymous": false,
      "inputs": [
        {
          "indexed": false,
          "internalType": "uint16",
          "name": "_remoteChainId",
          "type": "uint16"
        },
        {
          "indexed": false,
          "internalType": "bytes",
          "name": "_remoteAddress",
          "type": "bytes"
        }
      ],
      "name": "SetTrustedRemoteAddress",
      "type": "event"
    },
    {
      "anonymous": false,
      "inputs": [
        {
          "indexed": false,
          "internalType": "bool",
          "name": "_useCustomAdapterParams",
          "type": "bool"
        }
      ],
      "name": "SetUseCustomAdapterParams",
      "type": "event"
    },
    {
      "anonymous": false,
      "inputs": [
        {
          "indexed": false,
          "internalType": "address",
          "name": "sender",
          "type": "address"
        },
        {
          "indexed": false,
          "internalType": "address",
          "name": "recipient",
          "type": "address"
        },
        {
          "indexed": false,
          "internalType": "uint256",
          "name": "amount",
          "type": "uint256"
        },
        {
          "indexed": false,
          "internalType": "bytes32",
          "name": "messageHash",
          "type": "bytes32"
        }
      ],
      "name": "TeleportToEthereum",
      "type": "event"
    },
    {
      "anonymous": false,
      "inputs": [
        {
          "indexed": false,
          "internalType": "address",
          "name": "sender",
          "type": "address"
        },
        {
          "indexed": false,
          "internalType": "uint256",
          "name": "recipient",
          "type": "uint256"
        },
        {
          "indexed": false,
          "internalType": "uint256",
          "name": "amount",
          "type": "uint256"
        },
        {
          "indexed": false,
          "internalType": "uint256",
          "name": "fee",
          "type": "uint256"
        },
        {
          "indexed": false,
          "internalType": "bytes32",
          "name": "messageHash",
          "type": "bytes32"
        }
      ],
      "name": "TeleportToStarknet",
      "type": "event"
    },
    {
      "anonymous": false,
      "inputs": [
        {
          "indexed": true,
          "internalType": "address",
          "name": "from",
          "type": "address"
        },
        {
          "indexed": true,
          "internalType": "address",
          "name": "to",
          "type": "address"
        },
        {
          "indexed": false,
          "internalType": "uint256",
          "name": "value",
          "type": "uint256"
        }
      ],
      "name": "Transfer",
      "type": "event"
    },
    {
      "inputs": [],
      "name": "CAP",
      "outputs": [
        {
          "internalType": "uint256",
          "name": "",
          "type": "uint256"
        }
      ],
      "stateMutability": "view",
      "type": "function"
    },
    {
      "inputs": [],
      "name": "DEFAULT_PAYLOAD_SIZE_LIMIT",
      "outputs": [
        {
          "internalType": "uint256",
          "name": "",
          "type": "uint256"
        }
      ],
      "stateMutability": "view",
      "type": "function"
    },
    {
      "inputs": [],
      "name": "NO_EXTRA_GAS",
      "outputs": [
        {
          "internalType": "uint256",
          "name": "",
          "type": "uint256"
        }
      ],
      "stateMutability": "view",
      "type": "function"
    },
    {
      "inputs": [],
      "name": "PT_SEND",
      "outputs": [
        {
          "internalType": "uint16",
          "name": "",
          "type": "uint16"
        }
      ],
      "stateMutability": "view",
      "type": "function"
    },
    {
      "inputs": [],
      "name": "STARKNET_CORE",
      "outputs": [
        {
          "internalType": "contract IStarknetCore",
          "name": "",
          "type": "address"
        }
      ],
      "stateMutability": "view",
      "type": "function"
    },
    {
      "inputs": [],
      "name": "STARKNET_MAX",
      "outputs": [
        {
          "internalType": "uint256",
          "name": "",
          "type": "uint256"
        }
      ],
      "stateMutability": "view",
      "type": "function"
    },
    {
      "inputs": [],
      "name": "TELEPORT_TO_ETHEREUM",
      "outputs": [
        {
          "internalType": "uint256",
          "name": "",
          "type": "uint256"
        }
      ],
      "stateMutability": "view",
      "type": "function"
    },
    {
      "inputs": [],
      "name": "TELEPORT_TO_STARKNET",
      "outputs": [
        {
          "internalType": "uint256",
          "name": "",
          "type": "uint256"
        }
      ],
      "stateMutability": "view",
      "type": "function"
    },
    {
      "inputs": [],
      "name": "T_T",
      "outputs": [
        {
          "internalType": "uint256",
          "name": "",
          "type": "uint256"
        }
      ],
      "stateMutability": "view",
      "type": "function"
    },
    {
      "inputs": [
        {
          "internalType": "address",
          "name": "owner",
          "type": "address"
        },
        {
          "internalType": "address",
          "name": "spender",
          "type": "address"
        }
      ],
      "name": "allowance",
      "outputs": [
        {
          "internalType": "uint256",
          "name": "",
          "type": "uint256"
        }
      ],
      "stateMutability": "view",
      "type": "function"
    },
    {
      "inputs": [
        {
          "internalType": "address",
          "name": "spender",
          "type": "address"
        },
        {
          "internalType": "uint256",
          "name": "amount",
          "type": "uint256"
        }
      ],
      "name": "approve",
      "outputs": [
        {
          "internalType": "bool",
          "name": "",
          "type": "bool"
        }
      ],
      "stateMutability": "nonpayable",
      "type": "function"
    },
    {
      "inputs": [
        {
          "internalType": "address",
          "name": "account",
          "type": "address"
        }
      ],
      "name": "balanceOf",
      "outputs": [
        {
          "internalType": "uint256",
          "name": "",
          "type": "uint256"
        }
      ],
      "stateMutability": "view",
      "type": "function"
    },
    {
      "inputs": [],
      "name": "circulatingSupply",
      "outputs": [
        {
          "internalType": "uint256",
          "name": "",
          "type": "uint256"
        }
      ],
      "stateMutability": "view",
      "type": "function"
    },
    {
      "inputs": [],
      "name": "cygTokenStarknet",
      "outputs": [
        {
          "internalType": "uint256",
          "name": "",
          "type": "uint256"
        }
      ],
      "stateMutability": "view",
      "type": "function"
    },
    {
      "inputs": [],
      "name": "decimals",
      "outputs": [
        {
          "internalType": "uint8",
          "name": "",
          "type": "uint8"
        }
      ],
      "stateMutability": "view",
      "type": "function"
    },
    {
      "inputs": [
        {
          "internalType": "address",
          "name": "spender",
          "type": "address"
        },
        {
          "internalType": "uint256",
          "name": "subtractedValue",
          "type": "uint256"
        }
      ],
      "name": "decreaseAllowance",
      "outputs": [
        {
          "internalType": "bool",
          "name": "",
          "type": "bool"
        }
      ],
      "stateMutability": "nonpayable",
      "type": "function"
    },
    {
      "inputs": [
        {
          "internalType": "uint16",
          "name": "_dstChainId",
          "type": "uint16"
        },
        {
          "internalType": "bytes",
          "name": "_toAddress",
          "type": "bytes"
        },
        {
          "internalType": "uint256",
          "name": "_amount",
          "type": "uint256"
        },
        {
          "internalType": "bool",
          "name": "_useZro",
          "type": "bool"
        },
        {
          "internalType": "bytes",
          "name": "_adapterParams",
          "type": "bytes"
        }
      ],
      "name": "estimateSendFee",
      "outputs": [
        {
          "internalType": "uint256",
          "name": "nativeFee",
          "type": "uint256"
        },
        {
          "internalType": "uint256",
          "name": "zroFee",
          "type": "uint256"
        }
      ],
      "stateMutability": "view",
      "type": "function"
    },
    {
      "inputs": [
        {
          "internalType": "uint16",
          "name": "",
          "type": "uint16"
        },
        {
          "internalType": "bytes",
          "name": "",
          "type": "bytes"
        },
        {
          "internalType": "uint64",
          "name": "",
          "type": "uint64"
        }
      ],
      "name": "failedMessages",
      "outputs": [
        {
          "internalType": "bytes32",
          "name": "",
          "type": "bytes32"
        }
      ],
      "stateMutability": "view",
      "type": "function"
    },
    {
      "inputs": [
        {
          "internalType": "uint16",
          "name": "_srcChainId",
          "type": "uint16"
        },
        {
          "internalType": "bytes",
          "name": "_srcAddress",
          "type": "bytes"
        }
      ],
      "name": "forceResumeReceive",
      "outputs": [],
      "stateMutability": "nonpayable",
      "type": "function"
    },
    {
      "inputs": [
        {
          "internalType": "uint16",
          "name": "_version",
          "type": "uint16"
        },
        {
          "internalType": "uint16",
          "name": "_chainId",
          "type": "uint16"
        },
        {
          "internalType": "address",
          "name": "",
          "type": "address"
        },
        {
          "internalType": "uint256",
          "name": "_configType",
          "type": "uint256"
        }
      ],
      "name": "getConfig",
      "outputs": [
        {
          "internalType": "bytes",
          "name": "",
          "type": "bytes"
        }
      ],
      "stateMutability": "view",
      "type": "function"
    },
    {
      "inputs": [
        {
          "internalType": "address",
          "name": "recipient",
          "type": "address"
        },
        {
          "internalType": "uint128",
          "name": "amount",
          "type": "uint128"
        }
      ],
      "name": "getL2MessageHash",
      "outputs": [
        {
          "internalType": "bytes32",
          "name": "messageHash",
          "type": "bytes32"
        },
        {
          "internalType": "bool",
          "name": "ready",
          "type": "bool"
        }
      ],
      "stateMutability": "view",
      "type": "function"
    },
    {
      "inputs": [
        {
          "internalType": "uint16",
          "name": "_remoteChainId",
          "type": "uint16"
        }
      ],
      "name": "getTrustedRemoteAddress",
      "outputs": [
        {
          "internalType": "bytes",
          "name": "",
          "type": "bytes"
        }
      ],
      "stateMutability": "view",
      "type": "function"
    },
    {
      "inputs": [
        {
          "internalType": "address",
          "name": "spender",
          "type": "address"
        },
        {
          "internalType": "uint256",
          "name": "addedValue",
          "type": "uint256"
        }
      ],
      "name": "increaseAllowance",
      "outputs": [
        {
          "internalType": "bool",
          "name": "",
          "type": "bool"
        }
      ],
      "stateMutability": "nonpayable",
      "type": "function"
    },
    {
      "inputs": [
        {
          "internalType": "uint16",
          "name": "_srcChainId",
          "type": "uint16"
        },
        {
          "internalType": "bytes",
          "name": "_srcAddress",
          "type": "bytes"
        }
      ],
      "name": "isTrustedRemote",
      "outputs": [
        {
          "internalType": "bool",
          "name": "",
          "type": "bool"
        }
      ],
      "stateMutability": "view",
      "type": "function"
    },
    {
      "inputs": [],
      "name": "lzEndpoint",
      "outputs": [
        {
          "internalType": "contract ILayerZeroEndpoint",
          "name": "",
          "type": "address"
        }
      ],
      "stateMutability": "view",
      "type": "function"
    },
    {
      "inputs": [
        {
          "internalType": "uint16",
          "name": "_srcChainId",
          "type": "uint16"
        },
        {
          "internalType": "bytes",
          "name": "_srcAddress",
          "type": "bytes"
        },
        {
          "internalType": "uint64",
          "name": "_nonce",
          "type": "uint64"
        },
        {
          "internalType": "bytes",
          "name": "_payload",
          "type": "bytes"
        }
      ],
      "name": "lzReceive",
      "outputs": [],
      "stateMutability": "nonpayable",
      "type": "function"
    },
    {
      "inputs": [
        {
          "internalType": "uint16",
          "name": "",
          "type": "uint16"
        },
        {
          "internalType": "uint16",
          "name": "",
          "type": "uint16"
        }
      ],
      "name": "minDstGasLookup",
      "outputs": [
        {
          "internalType": "uint256",
          "name": "",
          "type": "uint256"
        }
      ],
      "stateMutability": "view",
      "type": "function"
    },
    {
      "inputs": [
        {
          "internalType": "address",
          "name": "to",
          "type": "address"
        },
        {
          "internalType": "uint256",
          "name": "amount",
          "type": "uint256"
        }
      ],
      "name": "mint",
      "outputs": [],
      "stateMutability": "nonpayable",
      "type": "function"
    },
    {
      "inputs": [],
      "name": "name",
      "outputs": [
        {
          "internalType": "string",
          "name": "",
          "type": "string"
        }
      ],
      "stateMutability": "view",
      "type": "function"
    },
    {
      "inputs": [
        {
          "internalType": "uint16",
          "name": "_srcChainId",
          "type": "uint16"
        },
        {
          "internalType": "bytes",
          "name": "_srcAddress",
          "type": "bytes"
        },
        {
          "internalType": "uint64",
          "name": "_nonce",
          "type": "uint64"
        },
        {
          "internalType": "bytes",
          "name": "_payload",
          "type": "bytes"
        }
      ],
      "name": "nonblockingLzReceive",
      "outputs": [],
      "stateMutability": "nonpayable",
      "type": "function"
    },
    {
      "inputs": [],
      "name": "owner",
      "outputs": [
        {
          "internalType": "address",
          "name": "",
          "type": "address"
        }
      ],
      "stateMutability": "view",
      "type": "function"
    },
    {
      "inputs": [
        {
          "internalType": "uint16",
          "name": "",
          "type": "uint16"
        }
      ],
      "name": "payloadSizeLimitLookup",
      "outputs": [
        {
          "internalType": "uint256",
          "name": "",
          "type": "uint256"
        }
      ],
      "stateMutability": "view",
      "type": "function"
    },
    {
      "inputs": [],
      "name": "pillarsOfCreation",
      "outputs": [
        {
          "internalType": "address",
          "name": "",
          "type": "address"
        }
      ],
      "stateMutability": "view",
      "type": "function"
    },
    {
      "inputs": [],
      "name": "precrime",
      "outputs": [
        {
          "internalType": "address",
          "name": "",
          "type": "address"
        }
      ],
      "stateMutability": "view",
      "type": "function"
    },
    {
      "inputs": [],
      "name": "renounceOwnership",
      "outputs": [],
      "stateMutability": "nonpayable",
      "type": "function"
    },
    {
      "inputs": [
        {
          "internalType": "uint16",
          "name": "_srcChainId",
          "type": "uint16"
        },
        {
          "internalType": "bytes",
          "name": "_srcAddress",
          "type": "bytes"
        },
        {
          "internalType": "uint64",
          "name": "_nonce",
          "type": "uint64"
        },
        {
          "internalType": "bytes",
          "name": "_payload",
          "type": "bytes"
        }
      ],
      "name": "retryMessage",
      "outputs": [],
      "stateMutability": "payable",
      "type": "function"
    },
    {
      "inputs": [
        {
          "internalType": "address",
          "name": "_from",
          "type": "address"
        },
        {
          "internalType": "uint16",
          "name": "_dstChainId",
          "type": "uint16"
        },
        {
          "internalType": "bytes",
          "name": "_toAddress",
          "type": "bytes"
        },
        {
          "internalType": "uint256",
          "name": "_amount",
          "type": "uint256"
        },
        {
          "internalType": "address payable",
          "name": "_refundAddress",
          "type": "address"
        },
        {
          "internalType": "address",
          "name": "_zroPaymentAddress",
          "type": "address"
        },
        {
          "internalType": "bytes",
          "name": "_adapterParams",
          "type": "bytes"
        }
      ],
      "name": "sendFrom",
      "outputs": [],
      "stateMutability": "payable",
      "type": "function"
    },
    {
      "inputs": [
        {
          "internalType": "uint16",
          "name": "_version",
          "type": "uint16"
        },
        {
          "internalType": "uint16",
          "name": "_chainId",
          "type": "uint16"
        },
        {
          "internalType": "uint256",
          "name": "_configType",
          "type": "uint256"
        },
        {
          "internalType": "bytes",
          "name": "_config",
          "type": "bytes"
        }
      ],
      "name": "setConfig",
      "outputs": [],
      "stateMutability": "nonpayable",
      "type": "function"
    },
    {
      "inputs": [
        {
          "internalType": "uint256",
          "name": "_cygToken",
          "type": "uint256"
        }
      ],
      "name": "setCygTokenStarknet",
      "outputs": [],
      "stateMutability": "nonpayable",
      "type": "function"
    },
    {
      "inputs": [
        {
          "internalType": "uint16",
          "name": "_dstChainId",
          "type": "uint16"
        },
        {
          "internalType": "uint16",
          "name": "_packetType",
          "type": "uint16"
        },
        {
          "internalType": "uint256",
          "name": "_minGas",
          "type": "uint256"
        }
      ],
      "name": "setMinDstGas",
      "outputs": [],
      "stateMutability": "nonpayable",
      "type": "function"
    },
    {
      "inputs": [
        {
          "internalType": "uint16",
          "name": "_dstChainId",
          "type": "uint16"
        },
        {
          "internalType": "uint256",
          "name": "_size",
          "type": "uint256"
        }
      ],
      "name": "setPayloadSizeLimit",
      "outputs": [],
      "stateMutability": "nonpayable",
      "type": "function"
    },
    {
      "inputs": [
        {
          "internalType": "address",
          "name": "_pillars",
          "type": "address"
        }
      ],
      "name": "setPillarsOfCreation",
      "outputs": [],
      "stateMutability": "nonpayable",
      "type": "function"
    },
    {
      "inputs": [
        {
          "internalType": "address",
          "name": "_precrime",
          "type": "address"
        }
      ],
      "name": "setPrecrime",
      "outputs": [],
      "stateMutability": "nonpayable",
      "type": "function"
    },
    {
      "inputs": [
        {
          "internalType": "uint16",
          "name": "_version",
          "type": "uint16"
        }
      ],
      "name": "setReceiveVersion",
      "outputs": [],
      "stateMutability": "nonpayable",
      "type": "function"
    },
    {
      "inputs": [
        {
          "internalType": "uint16",
          "name": "_version",
          "type": "uint16"
        }
      ],
      "name": "setSendVersion",
      "outputs": [],
      "stateMutability": "nonpayable",
      "type": "function"
    },
    {
      "inputs": [
        {
          "internalType": "uint16",
          "name": "_remoteChainId",
          "type": "uint16"
        },
        {
          "internalType": "bytes",
          "name": "_path",
          "type": "bytes"
        }
      ],
      "name": "setTrustedRemote",
      "outputs": [],
      "stateMutability": "nonpayable",
      "type": "function"
    },
    {
      "inputs": [
        {
          "internalType": "uint16",
          "name": "_remoteChainId",
          "type": "uint16"
        },
        {
          "internalType": "bytes",
          "name": "_remoteAddress",
          "type": "bytes"
        }
      ],
      "name": "setTrustedRemoteAddress",
      "outputs": [],
      "stateMutability": "nonpayable",
      "type": "function"
    },
    {
      "inputs": [
        {
          "internalType": "bool",
          "name": "_useCustomAdapterParams",
          "type": "bool"
        }
      ],
      "name": "setUseCustomAdapterParams",
      "outputs": [],
      "stateMutability": "nonpayable",
      "type": "function"
    },
    {
      "inputs": [
        {
          "internalType": "bytes4",
          "name": "interfaceId",
          "type": "bytes4"
        }
      ],
      "name": "supportsInterface",
      "outputs": [
        {
          "internalType": "bool",
          "name": "",
          "type": "bool"
        }
      ],
      "stateMutability": "view",
      "type": "function"
    },
    {
      "inputs": [],
      "name": "symbol",
      "outputs": [
        {
          "internalType": "string",
          "name": "",
          "type": "string"
        }
      ],
      "stateMutability": "view",
      "type": "function"
    },
    {
      "inputs": [
        {
          "internalType": "address",
          "name": "recipient",
          "type": "address"
        },
        {
          "internalType": "uint128",
          "name": "amount",
          "type": "uint128"
        }
      ],
      "name": "teleportToEthereum",
      "outputs": [],
      "stateMutability": "payable",
      "type": "function"
    },
    {
      "inputs": [
        {
          "internalType": "uint256",
          "name": "recipient",
          "type": "uint256"
        },
        {
          "internalType": "uint128",
          "name": "amount",
          "type": "uint128"
        }
      ],
      "name": "teleportToStarknet",
      "outputs": [],
      "stateMutability": "payable",
      "type": "function"
    },
    {
      "inputs": [],
      "name": "token",
      "outputs": [
        {
          "internalType": "address",
          "name": "",
          "type": "address"
        }
      ],
      "stateMutability": "view",
      "type": "function"
    },
    {
      "inputs": [],
      "name": "totalMinted",
      "outputs": [
        {
          "internalType": "uint256",
          "name": "",
          "type": "uint256"
        }
      ],
      "stateMutability": "view",
      "type": "function"
    },
    {
      "inputs": [],
      "name": "totalSupply",
      "outputs": [
        {
          "internalType": "uint256",
          "name": "",
          "type": "uint256"
        }
      ],
      "stateMutability": "view",
      "type": "function"
    },
    {
      "inputs": [
        {
          "internalType": "address",
          "name": "to",
          "type": "address"
        },
        {
          "internalType": "uint256",
          "name": "amount",
          "type": "uint256"
        }
      ],
      "name": "transfer",
      "outputs": [
        {
          "internalType": "bool",
          "name": "",
          "type": "bool"
        }
      ],
      "stateMutability": "nonpayable",
      "type": "function"
    },
    {
      "inputs": [
        {
          "internalType": "address",
          "name": "from",
          "type": "address"
        },
        {
          "internalType": "address",
          "name": "to",
          "type": "address"
        },
        {
          "internalType": "uint256",
          "name": "amount",
          "type": "uint256"
        }
      ],
      "name": "transferFrom",
      "outputs": [
        {
          "internalType": "bool",
          "name": "",
          "type": "bool"
        }
      ],
      "stateMutability": "nonpayable",
      "type": "function"
    },
    {
      "inputs": [
        {
          "internalType": "address",
          "name": "newOwner",
          "type": "address"
        }
      ],
      "name": "transferOwnership",
      "outputs": [],
      "stateMutability": "nonpayable",
      "type": "function"
    },
    {
      "inputs": [
        {
          "internalType": "uint16",
          "name": "",
          "type": "uint16"
        }
      ],
      "name": "trustedRemoteLookup",
      "outputs": [
        {
          "internalType": "bytes",
          "name": "",
          "type": "bytes"
        }
      ],
      "stateMutability": "view",
      "type": "function"
    },
    {
      "inputs": [],
      "name": "useCustomAdapterParams",
      "outputs": [
        {
          "internalType": "bool",
          "name": "",
          "type": "bool"
        }
      ],
      "stateMutability": "view",
      "type": "function"
    }
  ],
  "bytecode": "0x604060a08152346200048157620050f5803803806200001e8162000486565b9283398101606082820312620004815781516001600160401b03919082811162000481578162000050918501620004c2565b60209182850151848111620004815786916200006e918701620004c2565b9401516001600160a01b03939084811690819003620004815760008054336001600160a01b03198216811783559196167f8be0079c531659141344cd1fd0a4f28419497f9722a3daafe3b4186f6b6457e08780a36080528151948186116200038857600a54956001938488811c9816801562000476575b8689101462000462578190601f988981116200040e575b508690898311600114620003a85788926200039c575b5050600019600383901b1c191690841b17600a555b80519182116200038857600b548381811c911680156200037d575b85821014620003695786811162000320575b508390868311600114620002ba579282939183928794620002ae575b50501b916000199060031b1c191617600b555b600d54926934f086f3b33b68400000938481018091116200029a57600d5533156200025857506009548381018091116200024457907fddf252ad1be2c89b69c2b068fc378daa952ba7f163c4a11628f55a4df523b3ef916009553383526007815284832084815401905584519384523393a351614bc0908162000535823960805181818161058501528181610a4501528181610be8015281816112fb0152818161285a01528181612b240152818161343401528181613ad40152613cf80152f35b634e487b7160e01b83526011600452602483fd5b6064925084519162461bcd60e51b8352600483015260248201527f45524332303a206d696e7420746f20746865207a65726f2061646472657373006044820152fd5b634e487b7160e01b84526011600452602484fd5b01519250388062000170565b600b8652848620919083601f198116885b8888838310620003085750505010620002ee575b505050811b01600b5562000183565b015160001960f88460031b161c19169055388080620002df565b868601518855909601959485019487935001620002cb565b600b86528486208780850160051c8201928786106200035f575b0160051c019084905b8281106200035357505062000154565b87815501849062000343565b925081926200033a565b634e487b7160e01b86526022600452602486fd5b90607f169062000142565b634e487b7160e01b85526041600452602485fd5b01519050388062000112565b600a89528789208794509190601f1984168a5b8a828210620003f75750508411620003dd575b505050811b01600a5562000127565b015160001960f88460031b161c19169055388080620003ce565b8385015186558a97909501949384019301620003bb565b909150600a88528688208980850160051c82019289861062000458575b918891869594930160051c01915b82811062000449575050620000fc565b8a815585945088910162000439565b925081926200042b565b634e487b7160e01b87526022600452602487fd5b97607f1697620000e5565b600080fd5b6040519190601f01601f191682016001600160401b03811183821017620004ac57604052565b634e487b7160e01b600052604160045260246000fd5b919080601f84011215620004815782516001600160401b038111620004ac57602090620004f8601f8201601f1916830162000486565b92818452828287010111620004815760005b8181106200052057508260009394955001015290565b85810183015184820184015282016200050a56fe60806040526004361015610013575b600080fd5b60003560e01c80621d3567146104af5780622daf80146104a657806301ffc9a71461049d57806304c607fd1461049457806306fdde031461048b57806307e0db1714610482578063095ea7b3146104795780630df374831461047057806310ddb1371461046757806318160ddd1461039857806323b872dd1461045e5780632a205e3d14610455578063313ce5671461044c5780633671543914610443578063395093511461043a5780633d008497146104315780633d8b38f6146104285780633f1f4fa41461041f57806340c10f191461041657806342d65a8d1461040d57806344770515146104045780634c42899a1461040457806351905636146103fb578063525f4b2c146103f25780635b8c41e6146103e9578063628fadb3146103e057806366ad5c8a146103d757806370a08231146103ce578063715018a6146103c55780637533d788146103bc5780637a25c916146103b35780638cfd8f5c146103aa5780638da5cb5b146103a15780639358928b14610398578063950c8a741461038f57806395d89b41146103865780639f38369a1461037d578063a2309ff814610374578063a457c2d71461036b578063a6c3d16514610362578063a9059cbb14610359578063b353aaa714610350578063b5d2847f14610347578063b672acd31461033e578063b6efb02a14610335578063baf3292d1461032c578063c3208a8b14610323578063c44618341461031a578063cbed8b9c14610311578063d1deba1f14610308578063dd62ed3e146102ff578063df2a5b3b146102f6578063eab45d9c146102ed578063eb8d72b7146102e4578063ec81b483146102db578063ed629c5c146102d2578063f2fde38b146102c9578063f4e8aaff146102c0578063f5ecbdbc146102b75763fc0c546a146102af57600080fd5b61000e6134a1565b5061000e61337a565b5061000e613327565b5061000e6131ed565b5061000e6131ab565b5061000e613166565b5061000e612fb0565b5061000e612f11565b5061000e612de4565b5061000e612d4f565b5061000e612bdd565b5061000e612a9b565b5061000e612a5f565b5061000e612a13565b5061000e612963565b5061000e612915565b5061000e6128bb565b5061000e61287e565b5061000e61280e565b5061000e6127c5565b5061000e6125b5565b5061000e612499565b5061000e61245c565b5061000e612371565b5061000e61232c565b5061000e6122d9565b5061000e610c58565b5061000e612286565b5061000e61220c565b5061000e611f93565b5061000e611f31565b5061000e611d6e565b5061000e611d04565b5061000e611ae9565b5061000e611953565b5061000e611877565b5061000e6116a5565b5061000e6113b0565b5061000e611375565b5061000e6112cb565b5061000e6111df565b5061000e611187565b5061000e61112f565b5061000e61109e565b5061000e611006565b5061000e610df1565b5061000e610d99565b5061000e610cf4565b5061000e610c95565b5061000e610b8a565b5061000e610b2c565b5061000e610ad8565b5061000e6109e7565b5061000e610983565b5061000e61081b565b5061000e6106fa565b5061000e6106a1565b5061000e610558565b61ffff81160361000e57565b9181601f8401121561000e5782359167ffffffffffffffff831161000e576020838186019501011161000e57565b9060808282031261000e578135610508816104b8565b9267ffffffffffffffff90602084013582811161000e578361052b9186016104c4565b949094936040820135848116810361000e5793606083013590811161000e5761055492016104c4565b9091565b503461000e576105693660046104f2565b919294939073ffffffffffffffffffffffffffffffffffffffff7f0000000000000000000000000000000000000000000000000000000000000000163303610638576105fb61060392610609976105f46105da6105d58a60019061ffff16600052602052604060002090565b611f14565b805190818414918261062e575b508161060b575b506134db565b369161181a565b92369161181a565b926136ce565b005b905061061836848661181a565b60208151910120906020815191012014386105ee565b15159150386105e7565b60646040517f08c379a000000000000000000000000000000000000000000000000000000000815260206004820152601e60248201527f4c7a4170703a20696e76616c696420656e64706f696e742063616c6c657200006044820152fd5b600091031261000e57565b503461000e5760007ffffffffffffffffffffffffffffffffffffffffffffffffffffffffffffffffc36011261000e5760206040517eca82aa394a9c50477a85ba3ec97709f084ea91f935210beb4332b6a67c43f48152f35b503461000e5760207ffffffffffffffffffffffffffffffffffffffffffffffffffffffffffffffffc36011261000e576004357fffffffff00000000000000000000000000000000000000000000000000000000811680910361000e5780602091159081156107d3575b8115610776575b506040519015158152f35b7f14e4ceea000000000000000000000000000000000000000000000000000000008114915081156107a9575b503861076b565b7f01ffc9a700000000000000000000000000000000000000000000000000000000915014386107a2565b7f36372b070000000000000000000000000000000000000000000000000000000081149150610764565b73ffffffffffffffffffffffffffffffffffffffff81160361000e57565b503461000e5760207ffffffffffffffffffffffffffffffffffffffffffffffffffffffffffffffffc36011261000e57600435610857816107fd565b61085f61411e565b600c549073ffffffffffffffffffffffffffffffffffffffff9081831690816108df577f032dd6d314014d1687cb594ce0eca25af20c21d064e9967c9455662f4d87307d936040937fffffffffffffffffffffffff000000000000000000000000000000000000000092169182911617600c5582519182526020820152a1005b60046040517f76d853bd000000000000000000000000000000000000000000000000000000008152fd5b60005b83811061091c5750506000910152565b818101518382015260200161090c565b907fffffffffffffffffffffffffffffffffffffffffffffffffffffffffffffffe0601f60209361096881518092818752878088019101610909565b0116010190565b90602061098092818152019061092c565b90565b503461000e5760007ffffffffffffffffffffffffffffffffffffffffffffffffffffffffffffffffc36011261000e576109e36040516109cf816109c881600a611e5f565b0382611783565b60405191829160208352602083019061092c565b0390f35b503461000e57600060207ffffffffffffffffffffffffffffffffffffffffffffffffffffffffffffffffc360112610ad557600435610a25816104b8565b610a2d61411e565b8173ffffffffffffffffffffffffffffffffffffffff7f00000000000000000000000000000000000000000000000000000000000000001691823b15610ad15761ffff602483928360405196879485937f07e0db170000000000000000000000000000000000000000000000000000000085521660048401525af18015610ac4575b610ab65780f35b610abf91611783565b388180f35b610acc6135ce565b610aaf565b5080fd5b80fd5b503461000e5760407ffffffffffffffffffffffffffffffffffffffffffffffffffffffffffffffffc36011261000e57610b21600435610b17816107fd565b60243590336146b8565b602060405160018152f35b503461000e5760407ffffffffffffffffffffffffffffffffffffffffffffffffffffffffffffffffc36011261000e5761ffff600435610b6b816104b8565b610b7361411e565b166000526003602052602435604060002055600080f35b503461000e57600060207ffffffffffffffffffffffffffffffffffffffffffffffffffffffffffffffffc360112610ad557600435610bc8816104b8565b610bd061411e565b8173ffffffffffffffffffffffffffffffffffffffff7f00000000000000000000000000000000000000000000000000000000000000001691823b15610ad15761ffff602483928360405196879485937f10ddb1370000000000000000000000000000000000000000000000000000000085521660048401525af18015610ac457610ab65780f35b503461000e5760007ffffffffffffffffffffffffffffffffffffffffffffffffffffffffffffffffc36011261000e576020600954604051908152f35b503461000e5760607ffffffffffffffffffffffffffffffffffffffffffffffffffffffffffffffffc36011261000e57610b21600435610cd4816107fd565b602435610ce0816107fd565b60443591610cef833383614873565b6142b3565b503461000e5760a07ffffffffffffffffffffffffffffffffffffffffffffffffffffffffffffffffc36011261000e57600435610d30816104b8565b67ffffffffffffffff9060243582811161000e57610d529036906004016104c4565b9160643590811515820361000e5760843594851161000e57610d7b610d879536906004016104c4565b94909360443592613a22565b60408051928352602083019190915290f35b503461000e5760007ffffffffffffffffffffffffffffffffffffffffffffffffffffffffffffffffc36011261000e57602060405160128152f35b35906fffffffffffffffffffffffffffffffff8216820361000e57565b5060407ffffffffffffffffffffffffffffffffffffffffffffffffffffffffffffffffc36011261000e57600435610e296024610dd4565b906fffffffffffffffffffffffffffffffff8216918215610fdc57610f9c7f75387c78805588443c063166d08fa3a823b2ab31322a2e3c7fcfd509b9b5f5d393610e7284614ae7565b610ebf610e7f6003614990565b91714920616d2074680000000000000000000000610e9e6000856149df565b5285610eab6001856149df565b5280610eb86002856149df565b5233614597565b60207eca82aa394a9c50477a85ba3ec97709f084ea91f935210beb4332b6a67c43f4600e54610f1b60405194859384937f3e3aa6c500000000000000000000000000000000000000000000000000000000855260048501614acb565b03813473c662c410c0ecf747543f5ba90660f6abebd9c8c45af1908115610fcf575b600091610fa1575b5060405193849334913386916080936fffffffffffffffffffffffffffffffff91979695929773ffffffffffffffffffffffffffffffffffffffff60a0860199168552602085015216604083015260608201520152565b0390a1005b610fc2915060203d8111610fc8575b610fba8183611783565b810190614a88565b38610f45565b503d610fb0565b610fd76135ce565b610f3d565b60046040517fb2739155000000000000000000000000000000000000000000000000000000008152fd5b503461000e5760407ffffffffffffffffffffffffffffffffffffffffffffffffffffffffffffffffc36011261000e57610b21600435611045816107fd565b33600052600860205261107c8160406000209073ffffffffffffffffffffffffffffffffffffffff16600052602052604060002090565b54906024358201809211611091575b336146b8565b611099613689565b61108b565b503461000e5760007ffffffffffffffffffffffffffffffffffffffffffffffffffffffffffffffffc36011261000e5760206040517f03d1bc017185460515029ea53aa632a4eb656e28ba51b4330645d15b6898626a8152f35b91909160408184031261000e578035611110816104b8565b92602082013567ffffffffffffffff811161000e5761055492016104c4565b503461000e57602061ffff6111786111483660046110f8565b93909116600052600184526109c861116a604060002060405192838092611e5f565b84815191012092369161181a565b82815191012014604051908152f35b503461000e5760207ffffffffffffffffffffffffffffffffffffffffffffffffffffffffffffffffc36011261000e5761ffff6004356111c6816104b8565b1660005260036020526020604060002054604051908152f35b503461000e5760407ffffffffffffffffffffffffffffffffffffffffffffffffffffffffffffffffc36011261000e5760043561121b816107fd565b60243573ffffffffffffffffffffffffffffffffffffffff600c541633036112a157600d5491818301809311611294575b6a0422ca8b0a00a425000000831161126a5761060992600d55614433565b60046040517f62aef310000000000000000000000000000000000000000000000000000000008152fd5b61129c613689565b61124c565b60046040517fdfc8fda8000000000000000000000000000000000000000000000000000000008152fd5b503461000e576112dc3660046110f8565b6112e461411e565b73ffffffffffffffffffffffffffffffffffffffff7f00000000000000000000000000000000000000000000000000000000000000001691823b1561000e5761136493604051938480927f42d65a8d000000000000000000000000000000000000000000000000000000008252816000988997889788946004850161361a565b03925af18015610ac457610ab65780f35b503461000e5760007ffffffffffffffffffffffffffffffffffffffffffffffffffffffffffffffffc36011261000e57602060405160008152f35b5060e07ffffffffffffffffffffffffffffffffffffffffffffffffffffffffffffffffc36011261000e576004356113e7816107fd565b602435906113f4826104b8565b67ffffffffffffffff60443581811161000e576114159036906004016104c4565b91909260843591611425836107fd565b60a43593611432856107fd565b60c43591821161000e5761145a6114506114629336906004016104c4565b979092369161181a565b95369161181a565b9160ff600654166000146115d7576022835110611579577f39a4c66499bcf4b56d79f0dde8ed7a9d4925a0df55825206b2b8531e202be0d0936115616115749285611506602273ffffffffffffffffffffffffffffffffffffffff98015161ffff8c1660005260026020526114f360006114ed81604081209061ffff16600052602052604060002090565b54613ed1565b906114ff821515613ede565b1015613f43565b61151260643587613e9e565b9384926115598b61152d604051968792600060208501613bfa565b037fffffffffffffffffffffffffffffffffffffffffffffffffffffffffffffffe08101865285611783565b34938c613c9b565b61ffff6040519485941697169583613c20565b0390a3005b60646040517f08c379a000000000000000000000000000000000000000000000000000000000815260206004820152601c60248201527f4c7a4170703a20696e76616c69642061646170746572506172616d73000000006044820152fd5b8251611621577f39a4c66499bcf4b56d79f0dde8ed7a9d4925a0df55825206b2b8531e202be0d0936115616115749273ffffffffffffffffffffffffffffffffffffffff95611506565b60846040517f08c379a000000000000000000000000000000000000000000000000000000000815260206004820152602660248201527f4f4654436f72653a205f61646170746572506172616d73206d7573742062652060448201527f656d7074792e00000000000000000000000000000000000000000000000000006064820152fd5b503461000e5760207ffffffffffffffffffffffffffffffffffffffffffffffffffffffffffffffffc36011261000e576004356116e061411e565b600e54908161172957600e8190556040805192835260208301919091527f0ea9c1faf061225cb55723c374ce38f827cb738e811eae4379c27afc674baba6919081908101610f9c565b60046040517fb9514f3e000000000000000000000000000000000000000000000000000000008152fd5b507f4e487b7100000000000000000000000000000000000000000000000000000000600052604160045260246000fd5b90601f7fffffffffffffffffffffffffffffffffffffffffffffffffffffffffffffffe0910116810190811067ffffffffffffffff8211176117c457604052565b6117cc611753565b604052565b7fffffffffffffffffffffffffffffffffffffffffffffffffffffffffffffffe0601f60209267ffffffffffffffff811161180d575b01160190565b611815611753565b611807565b929192611826826117d1565b916118346040519384611783565b82948184528183011161000e578281602093846000960137010152565b60209061186b928260405194838680955193849201610909565b82019081520301902090565b503461000e5760607ffffffffffffffffffffffffffffffffffffffffffffffffffffffffffffffffc36011261000e576004356118b3816104b8565b67ffffffffffffffff60243581811161000e573660238201121561000e576118e590369060248160040135910161181a565b91604435918216820361000e5761193a611943926119216109e39561191b60009560059061ffff16600052602052604060002090565b90611851565b9067ffffffffffffffff16600052602052604060002090565b549060031b1c90565b6040519081529081906020820190565b503461000e5760407ffffffffffffffffffffffffffffffffffffffffffffffffffffffffffffffffc36011261000e5760043561198f816107fd565b6fffffffffffffffffffffffffffffffff6119aa6024610dd4565b73ffffffffffffffffffffffffffffffffffffffff6119c96003614990565b93714920616d20746800000000000000000000006119e86000876149df565b52166119f56001856149df565b5216611a026002836149df565b52600e5490611a4e8151611a226040519384926020840196309088614a22565b037fffffffffffffffffffffffffffffffffffffffffffffffffffffffffffffffe08101835282611783565b5190206040517fa46efaf30000000000000000000000000000000000000000000000000000000081526004810182905260208160248173c662c410c0ecf747543f5ba90660f6abebd9c8c45afa908115611adc575b600091611abe575b5060408051928352901515602083015290f35b611ad6915060203d8111610fc857610fba8183611783565b38611aab565b611ae46135ce565b611aa3565b503461000e57611afa3660046104f2565b915091303303611c8057611b1b93611b1391369161181a565b50369161181a565b60208082019061ffff918281511615600014611c2257835184019060608583031261000e57611b4a90516104b8565b60408401519067ffffffffffffffff821161000e576060918380611b72930191870101613566565b930151926014815110611bc457015160601c927fbf551ec93859b170f9b2141bd9298bf3f64322c6f7beb2543a0cb669834118bf9190611bb28486614433565b60405193845216918060208101611574565b606482604051907f08c379a00000000000000000000000000000000000000000000000000000000082526004820152601560248201527f746f416464726573735f6f75744f66426f756e647300000000000000000000006044820152fd5b606482604051907f08c379a00000000000000000000000000000000000000000000000000000000082526004820152601c60248201527f4f4654436f72653a20756e6b6e6f776e207061636b65742074797065000000006044820152fd5b60846040517f08c379a000000000000000000000000000000000000000000000000000000000815260206004820152602660248201527f4e6f6e626c6f636b696e674c7a4170703a2063616c6c6572206d75737420626560448201527f204c7a41707000000000000000000000000000000000000000000000000000006064820152fd5b503461000e5760207ffffffffffffffffffffffffffffffffffffffffffffffffffffffffffffffffc36011261000e5773ffffffffffffffffffffffffffffffffffffffff600435611d55816107fd565b1660005260076020526020604060002054604051908152f35b503461000e576000807ffffffffffffffffffffffffffffffffffffffffffffffffffffffffffffffffc360112610ad557611da761411e565b8073ffffffffffffffffffffffffffffffffffffffff81547fffffffffffffffffffffffff000000000000000000000000000000000000000081168355167f8be0079c531659141344cd1fd0a4f28419497f9722a3daafe3b4186f6b6457e08280a380f35b90600182811c92168015611e55575b6020831014611e2657565b7f4e487b7100000000000000000000000000000000000000000000000000000000600052602260045260246000fd5b91607f1691611e1b565b9060009291805491611e7083611e0c565b918282526001938481169081600014611ed25750600114611e92575b50505050565b90919394506000526020928360002092846000945b838610611ebe575050505001019038808080611e8c565b805485870183015294019385908201611ea7565b91505060209495507fffffffffffffffffffffffffffffffffffffffffffffffffffffffffffffff009193501683830152151560051b01019038808080611e8c565b90611f2f611f289260405193848092611e5f565b0383611783565b565b503461000e5760207ffffffffffffffffffffffffffffffffffffffffffffffffffffffffffffffffc36011261000e5761ffff600435611f70816104b8565b1660005260016020526109e36109c86109cf604060002060405192838092611e5f565b5060407ffffffffffffffffffffffffffffffffffffffffffffffffffffffffffffffffc36011261000e57600435611fca816107fd565b611fd46024610dd4565b6fffffffffffffffffffffffffffffffff8116918215610fdc57610f9c7fe29d3de91aa5368be7383cbe2d3745a1b785343283f19aeeeed44f0832f8133a9361201d6003614990565b714920616d207468000000000000000000000061203b6000836149df565b5273ffffffffffffffffffffffffffffffffffffffff841661205e6001836149df565b528161206b6002836149df565b52600e5490604051927f2c9dd5c0000000000000000000000000000000000000000000000000000000008452836120a88360209560048401614b9c565b0390838573c662c410c0ecf747543f5ba90660f6abebd9c8c493816000865af19485156121ff575b6000956121d2575b509183916120e96121439489614433565b7f03d1bc017185460515029ea53aa632a4eb656e28ba51b4330645d15b6898626a600e54604051958694859384937f3e3aa6c500000000000000000000000000000000000000000000000000000000855260048501614acb565b039134905af180156121c5575b6121a7575b50506040519384933385906060929594936fffffffffffffffffffffffffffffffff91608084019773ffffffffffffffffffffffffffffffffffffffff80921685521660208401521660408201520152565b816121bd92903d10610fc857610fba8183611783565b503880612155565b6121cd6135ce565b612150565b61214393919550916120e96121f48694853d8711610fc857610fba8183611783565b9692945050916120d8565b6122076135ce565b6120d0565b503461000e5760407ffffffffffffffffffffffffffffffffffffffffffffffffffffffffffffffffc36011261000e57602061227d60043561224d816104b8565b61ffff6024359161225d836104b8565b166000526002835260406000209061ffff16600052602052604060002090565b54604051908152f35b503461000e5760007ffffffffffffffffffffffffffffffffffffffffffffffffffffffffffffffffc36011261000e57602073ffffffffffffffffffffffffffffffffffffffff60005416604051908152f35b503461000e5760007ffffffffffffffffffffffffffffffffffffffffffffffffffffffffffffffffc36011261000e57602073ffffffffffffffffffffffffffffffffffffffff60045416604051908152f35b503461000e5760007ffffffffffffffffffffffffffffffffffffffffffffffffffffffffffffffffc36011261000e576109e36040516109cf816109c881600b611e5f565b503461000e5760207ffffffffffffffffffffffffffffffffffffffffffffffffffffffffffffffffc36011261000e5761ffff6004356123b0816104b8565b1660005260016020526109c86123d0604060002060405192838092611e5f565b8051156123fe576123f28160006123ec60146109e395516136b9565b91614072565b6040519182918261096f565b60646040517f08c379a000000000000000000000000000000000000000000000000000000000815260206004820152601d60248201527f4c7a4170703a206e6f20747275737465642070617468207265636f72640000006044820152fd5b503461000e5760007ffffffffffffffffffffffffffffffffffffffffffffffffffffffffffffffffc36011261000e576020600d54604051908152f35b503461000e5760407ffffffffffffffffffffffffffffffffffffffffffffffffffffffffffffffffc36011261000e576004356124d5816107fd565b602435903360005260086020526125108160406000209073ffffffffffffffffffffffffffffffffffffffff16600052602052604060002090565b549180831061253157612525920390336146b8565b60405160018152602090f35b60846040517f08c379a000000000000000000000000000000000000000000000000000000000815260206004820152602560248201527f45524332303a2064656372656173656420616c6c6f77616e63652062656c6f7760448201527f207a65726f0000000000000000000000000000000000000000000000000000006064820152fd5b503461000e576125c63660046110f8565b906125cf61411e565b604051926020928083858701376125fb6034868381013060601b88820152036014810188520186611783565b60009361ffff83168552600190818152604086209187519167ffffffffffffffff83116127b8575b612637836126318654611e0c565b86613635565b80601f84116001146126e657509082806126b5969594938a9b7f8c0400cfe2d1199b1a725c78960bcc2a344d869b80590d0f2bd005db15a572ce9b936126bb575b50507fffffffffffffffffffffffffffffffffffffffffffffffffffffffffffffffff91921b9260031b1c19161790555b6040519384938461361a565b0390a180f35b015191507fffffffffffffffffffffffffffffffffffffffffffffffffffffffffffffffff38612678565b919394987fffffffffffffffffffffffffffffffffffffffffffffffffffffffffffffffe0841661271c87600052602060002090565b938a905b8282106127a1575050917f8c0400cfe2d1199b1a725c78960bcc2a344d869b80590d0f2bd005db15a572ce999a959391856126b59896941061276a575b505050811b0190556126a9565b01517fffffffffffffffffffffffffffffffffffffffffffffffffffffffffffffffff60f88460031b161c1916905538808061275d565b808886978294978701518155019601940190612720565b6127c0611753565b612623565b503461000e5760407ffffffffffffffffffffffffffffffffffffffffffffffffffffffffffffffffc36011261000e57610b21600435612804816107fd565b60243590336142b3565b503461000e5760007ffffffffffffffffffffffffffffffffffffffffffffffffffffffffffffffffc36011261000e57602060405173ffffffffffffffffffffffffffffffffffffffff7f0000000000000000000000000000000000000000000000000000000000000000168152f35b503461000e5760007ffffffffffffffffffffffffffffffffffffffffffffffffffffffffffffffffc36011261000e576020600e54604051908152f35b503461000e5760007ffffffffffffffffffffffffffffffffffffffffffffffffffffffffffffffffc36011261000e5760206040517f08000000000000110000000000000000000000000000000000000000000000018152f35b503461000e5760007ffffffffffffffffffffffffffffffffffffffffffffffffffffffffffffffffc36011261000e57602060405173c662c410c0ecf747543f5ba90660f6abebd9c8c48152f35b503461000e5760207ffffffffffffffffffffffffffffffffffffffffffffffffffffffffffffffffc36011261000e577f5db758e995a17ec1ad84bdef7e8c3293a0bd6179bcce400dff5d4c3d87db726b602073ffffffffffffffffffffffffffffffffffffffff6004356129d7816107fd565b6129df61411e565b16807fffffffffffffffffffffffff00000000000000000000000000000000000000006004541617600455604051908152a1005b503461000e5760007ffffffffffffffffffffffffffffffffffffffffffffffffffffffffffffffffc36011261000e576020604051714920616d20746800000000000000000000008152f35b503461000e5760007ffffffffffffffffffffffffffffffffffffffffffffffffffffffffffffffffc36011261000e5760206040516127108152f35b503461000e5760807ffffffffffffffffffffffffffffffffffffffffffffffffffffffffffffffffc36011261000e57600435612ad7816104b8565b602435612ae3816104b8565b60643567ffffffffffffffff811161000e57612b039036906004016104c4565b9092612b0d61411e565b73ffffffffffffffffffffffffffffffffffffffff7f00000000000000000000000000000000000000000000000000000000000000001690813b1561000e5760008094612baa604051978896879586947fcbed8b9c00000000000000000000000000000000000000000000000000000000865261ffff809216600487015216602485015260443560448501526080606485015260848401916135db565b03925af18015612bd0575b612bbb57005b80612bca600061060993611783565b80610696565b612bd86135ce565b612bb5565b50612be93660046104f2565b9161ffff86949296166000526005602052612c3181604060002060206040518092878b8337878201908152030190209067ffffffffffffffff16600052602052604060002090565b54918215612ccb577fc264d91f3adc5588250e1551f547752ca0cfa8f6b530d243b9f9f4cab10ea8e596610f9c94612cbf91612cb9916000612cad876119218d89612ca78f612c928f612c85368c8e61181a565b60208151910120146138f5565b60059061ffff16600052602052604060002090565b916138dc565b55611b1336868c61181a565b86613b4f565b60405195869586613980565b60846040517f08c379a000000000000000000000000000000000000000000000000000000000815260206004820152602360248201527f4e6f6e626c6f636b696e674c7a4170703a206e6f2073746f726564206d65737360448201527f61676500000000000000000000000000000000000000000000000000000000006064820152fd5b503461000e5760407ffffffffffffffffffffffffffffffffffffffffffffffffffffffffffffffffc36011261000e57602061227d600435612d90816107fd565b73ffffffffffffffffffffffffffffffffffffffff60243591612db2836107fd565b166000526008835260406000209073ffffffffffffffffffffffffffffffffffffffff16600052602052604060002090565b503461000e5760607ffffffffffffffffffffffffffffffffffffffffffffffffffffffffffffffffc36011261000e57600435612e20816104b8565b602435612e2c816104b8565b60443591612e3861411e565b8215612eb357610f9c7f9d5c7c0b934da8fefa9c7760c98383778a12dfbfc0c3b3106518f43fb9508ac09361ffff8316600052600260205280612e8d8560406000209061ffff16600052602052604060002090565b556040519384938460409194939294606082019561ffff80921683521660208201520152565b60646040517f08c379a000000000000000000000000000000000000000000000000000000000815260206004820152601560248201527f4c7a4170703a20696e76616c6964206d696e47617300000000000000000000006044820152fd5b503461000e5760207ffffffffffffffffffffffffffffffffffffffffffffffffffffffffffffffffc36011261000e5760043580151580910361000e5760207f1584ad594a70cbe1e6515592e1272a987d922b097ead875069cebe8b40c004a491612f7a61411e565b7fffffffffffffffffffffffffffffffffffffffffffffffffffffffffffffff006006541660ff821617600655604051908152a1005b503461000e57612fc13660046110f8565b9190612fcb61411e565b60009161ffff811683526001602090808252604085209167ffffffffffffffff8711613159575b613006876130008554611e0c565b85613635565b8590601f881160011461308b57509186808798936126b5957ffa41487ad5d6728f0b19276fa1eddc16558578f5109fc39d2dc33c3230470dab9993613080575b501b907fffffffffffffffffffffffffffffffffffffffffffffffffffffffffffffffff8460031b1c19161790556040519384938461361a565b880135925038613046565b907fffffffffffffffffffffffffffffffffffffffffffffffffffffffffffffffe088166130be85600052602060002090565b9288905b828210613142575050918893917ffa41487ad5d6728f0b19276fa1eddc16558578f5109fc39d2dc33c3230470dab98996126b596941061310a575b505082811b0190556126a9565b7fffffffffffffffffffffffffffffffffffffffffffffffffffffffffffffffff60f88660031b161c199088013516905538806130fd565b808685968294968c013581550195019301906130c2565b613161611753565b612ff2565b503461000e5760007ffffffffffffffffffffffffffffffffffffffffffffffffffffffffffffffffc36011261000e5760206040516a0422ca8b0a00a4250000008152f35b503461000e5760007ffffffffffffffffffffffffffffffffffffffffffffffffffffffffffffffffc36011261000e57602060ff600654166040519015158152f35b503461000e5760207ffffffffffffffffffffffffffffffffffffffffffffffffffffffffffffffffc36011261000e57600435613229816107fd565b61323161411e565b73ffffffffffffffffffffffffffffffffffffffff80911680156132a3576000918254827fffffffffffffffffffffffff00000000000000000000000000000000000000008216178455167f8be0079c531659141344cd1fd0a4f28419497f9722a3daafe3b4186f6b6457e08380a380f35b60846040517f08c379a000000000000000000000000000000000000000000000000000000000815260206004820152602660248201527f4f776e61626c653a206e6577206f776e657220697320746865207a65726f206160448201527f64647265737300000000000000000000000000000000000000000000000000006064820152fd5b503461000e5760007ffffffffffffffffffffffffffffffffffffffffffffffffffffffffffffffffc36011261000e57602073ffffffffffffffffffffffffffffffffffffffff600c5416604051908152f35b503461000e5760807ffffffffffffffffffffffffffffffffffffffffffffffffffffffffffffffffc36011261000e576109e36004356133b9816104b8565b602435906133c6826104b8565b6133d16044356107fd565b604051917ff5ecbdbc00000000000000000000000000000000000000000000000000000000835261ffff8092166004840152166024820152306044820152606435606482015260008160848173ffffffffffffffffffffffffffffffffffffffff7f0000000000000000000000000000000000000000000000000000000000000000165afa908115613494575b600091613473575b506040519182918261096f565b61348e913d8091833e6134868183611783565b8101906135a8565b38613466565b61349c6135ce565b61345e565b503461000e5760007ffffffffffffffffffffffffffffffffffffffffffffffffffffffffffffffffc36011261000e576020604051308152f35b156134e257565b60846040517f08c379a000000000000000000000000000000000000000000000000000000000815260206004820152602660248201527f4c7a4170703a20696e76616c696420736f757263652073656e64696e6720636f60448201527f6e747261637400000000000000000000000000000000000000000000000000006064820152fd5b81601f8201121561000e57805161357c816117d1565b9261358a6040519485611783565b8184526020828401011161000e576109809160208085019101610909565b9060208282031261000e57815167ffffffffffffffff811161000e576109809201613566565b506040513d6000823e3d90fd5b601f82602094937fffffffffffffffffffffffffffffffffffffffffffffffffffffffffffffffe0938186528686013760008582860101520116010190565b60409061ffff610980959316815281602082015201916135db565b90601f811161364357505050565b600091825260208220906020601f850160051c8301941061367f575b601f0160051c01915b82811061367457505050565b818155600101613668565b909250829061365f565b507f4e487b7100000000000000000000000000000000000000000000000000000000600052601160045260246000fd5b919082039182116136c657565b611f2f613689565b9290915a926040519360208501907f66ad5c8a00000000000000000000000000000000000000000000000000000000825261ffff87166024870152608060448701528561376161372160a483018661092c565b67ffffffffffffffff871660648401527fffffffffffffffffffffffffffffffffffffffffffffffffffffffffffffffdc8382030160848401528761092c565b03916137937fffffffffffffffffffffffffffffffffffffffffffffffffffffffffffffffe093848101895288611783565b6000918291826137a360966117d1565b996137b16040519b8c611783565b60968b526137bf60966117d1565b60208c01970136883751923090f1903d9060968211613800575b6000908288523e156137ed575b5050505050565b6137f694613809565b38808080806137e6565b609691506137d9565b91936138c97fe183f33de2837795525b4792ca4cd60535bd77c53b7e7030060bfcf5734d6b0c956138d7939561ffff8151602083012096169586600052600560205261388f8361386d60208b60406000208260405194838680955193849201610909565b8201908152030190209067ffffffffffffffff16600052602052604060002090565b5567ffffffffffffffff6138b5604051988998895260a060208a015260a089019061092c565b92166040870152858203606087015261092c565b90838203608085015261092c565b0390a1565b6020919283604051948593843782019081520301902090565b156138fc57565b60846040517f08c379a000000000000000000000000000000000000000000000000000000000815260206004820152602160248201527f4e6f6e626c6f636b696e674c7a4170703a20696e76616c6964207061796c6f6160448201527f64000000000000000000000000000000000000000000000000000000000000006064820152fd5b916139ad9060609461ffff67ffffffffffffffff94999897991685526080602086015260808501916135db565b951660408201520152565b919082604091031261000e576020825192015190565b919273ffffffffffffffffffffffffffffffffffffffff6109809795969461ffff613a0d9416855216602084015260a0604084015260a083019061092c565b931515606082015260808185039101526135db565b919495613abb9193949796613a866040978897613a5489519889936000602086015260608c86015260808501916135db565b906060830152037fffffffffffffffffffffffffffffffffffffffffffffffffffffffffffffffe08101875286611783565b855198899586957f40a7bb100000000000000000000000000000000000000000000000000000000087523090600488016139ce565b038173ffffffffffffffffffffffffffffffffffffffff7f0000000000000000000000000000000000000000000000000000000000000000165afa928315613b42575b6000918294613b0e575b50509190565b613b3293945080919250903d10613b3b575b613b2a8183611783565b8101906139b8565b91903880613b08565b503d613b20565b613b4a6135ce565b613afe565b9060208082019061ffff918281511615600014611c2257835184019060608583031261000e57613b7f90516104b8565b60408401519067ffffffffffffffff821161000e576060918380613ba7930191870101613566565b930151926014815110611bc457015160601c927fbf551ec93859b170f9b2141bd9298bf3f64322c6f7beb2543a0cb669834118bf9190613be78486614433565b604051938452169180602081015b0390a3565b939291613c1b9061ffff60409316865260606020870152606086019061092c565b930152565b929190613c1b60209160408652604086019061092c565b92613c5c61098097959361ffff613c6a9416865260c0602087015260c086019061092c565b90848203604086015261092c565b9373ffffffffffffffffffffffffffffffffffffffff809216606084015216608082015260a081840391015261092c565b939594613cc8909391929360009561ffff811687526001602052613ccf6040882060405194858092611e5f565b0384611783565b825115613d9157613ce1855182613e15565b73ffffffffffffffffffffffffffffffffffffffff7f00000000000000000000000000000000000000000000000000000000000000001693843b15613d8d57879899613d6091604099989951998a98899788967fc580310000000000000000000000000000000000000000000000000000000000885260048801613c37565b03925af18015613d80575b613d73575050565b612bca611f2f9282611783565b613d886135ce565b613d6b565b8780fd5b60846040517f08c379a000000000000000000000000000000000000000000000000000000000815260206004820152603060248201527f4c7a4170703a2064657374696e6174696f6e20636861696e206973206e6f742060448201527f61207472757374656420736f75726365000000000000000000000000000000006064820152fd5b61ffff166000526003602052604060002054908115613e94575b11613e3657565b60646040517f08c379a000000000000000000000000000000000000000000000000000000000815260206004820152602060248201527f4c7a4170703a207061796c6f61642073697a6520697320746f6f206c617267656044820152fd5b6127109150613e2f565b81610980913373ffffffffffffffffffffffffffffffffffffffff8216031561459757613ecc823383614873565b614597565b919082018092116136c657565b15613ee557565b60646040517f08c379a000000000000000000000000000000000000000000000000000000000815260206004820152601a60248201527f4c7a4170703a206d696e4761734c696d6974206e6f74207365740000000000006044820152fd5b15613f4a57565b60646040517f08c379a000000000000000000000000000000000000000000000000000000000815260206004820152601b60248201527f4c7a4170703a20676173206c696d697420697320746f6f206c6f7700000000006044820152fd5b15613faf57565b60646040517f08c379a000000000000000000000000000000000000000000000000000000000815260206004820152600e60248201527f736c6963655f6f766572666c6f770000000000000000000000000000000000006044820152fd5b1561401457565b60646040517f08c379a000000000000000000000000000000000000000000000000000000000815260206004820152601160248201527f736c6963655f6f75744f66426f756e64730000000000000000000000000000006044820152fd5b9161408981614082601f82613ed1565b1015613fa8565b61409f83516140988385613ed1565b111561400d565b806140b857505050604051600081526020810160405290565b60405192601f821692831560051b80858701019484860193010101905b80841061410b5750508252601f017fffffffffffffffffffffffffffffffffffffffffffffffffffffffffffffffe01660405290565b90928351815260208091019301906140d5565b73ffffffffffffffffffffffffffffffffffffffff60005416330361413f57565b60646040517f08c379a000000000000000000000000000000000000000000000000000000000815260206004820152602060248201527f4f776e61626c653a2063616c6c6572206973206e6f7420746865206f776e65726044820152fd5b156141a457565b60846040517f08c379a000000000000000000000000000000000000000000000000000000000815260206004820152602360248201527f45524332303a207472616e7366657220746f20746865207a65726f206164647260448201527f65737300000000000000000000000000000000000000000000000000000000006064820152fd5b1561422f57565b60846040517f08c379a000000000000000000000000000000000000000000000000000000000815260206004820152602660248201527f45524332303a207472616e7366657220616d6f756e742065786365656473206260448201527f616c616e636500000000000000000000000000000000000000000000000000006064820152fd5b919073ffffffffffffffffffffffffffffffffffffffff908184169283156143af57614399827fddf252ad1be2c89b69c2b068fc378daa952ba7f163c4a11628f55a4df523b3ef94613bf594169661430c88151561419d565b6143718461433b8360079073ffffffffffffffffffffffffffffffffffffffff16600052602052604060002090565b5461434882821015614228565b039160079073ffffffffffffffffffffffffffffffffffffffff16600052602052604060002090565b5560079073ffffffffffffffffffffffffffffffffffffffff16600052602052604060002090565b8054820190556040519081529081906020820190565b60846040517f08c379a000000000000000000000000000000000000000000000000000000000815260206004820152602560248201527f45524332303a207472616e736665722066726f6d20746865207a65726f20616460448201527f64726573730000000000000000000000000000000000000000000000000000006064820152fd5b73ffffffffffffffffffffffffffffffffffffffff169081156144ae577fddf252ad1be2c89b69c2b068fc378daa952ba7f163c4a11628f55a4df523b3ef60206000926009548181018091116144a1575b6009558484526007825260408420818154019055604051908152a3565b6144a9613689565b614484565b60646040517f08c379a000000000000000000000000000000000000000000000000000000000815260206004820152601f60248201527f45524332303a206d696e7420746f20746865207a65726f2061646472657373006044820152fd5b1561451357565b60846040517f08c379a000000000000000000000000000000000000000000000000000000000815260206004820152602260248201527f45524332303a206275726e20616d6f756e7420657863656564732062616c616e60448201527f63650000000000000000000000000000000000000000000000000000000000006064820152fd5b9073ffffffffffffffffffffffffffffffffffffffff821690811561463457613bf5818461461a7fddf252ad1be2c89b69c2b068fc378daa952ba7f163c4a11628f55a4df523b3ef9461460d60009860079073ffffffffffffffffffffffffffffffffffffffff16600052602052604060002090565b546143488282101561450c565b558060095403600955604051918291829190602083019252565b60846040517f08c379a000000000000000000000000000000000000000000000000000000000815260206004820152602160248201527f45524332303a206275726e2066726f6d20746865207a65726f2061646472657360448201527f73000000000000000000000000000000000000000000000000000000000000006064820152fd5b9073ffffffffffffffffffffffffffffffffffffffff918281169283156147f057821693841561476c578061475b7f8c5be1e5ebec7d5bd14f71427d1e84f3dd0314c0f7b2291e5b200ac8c7c3b92594614736613bf59560089073ffffffffffffffffffffffffffffffffffffffff16600052602052604060002090565b9073ffffffffffffffffffffffffffffffffffffffff16600052602052604060002090565b556040519081529081906020820190565b60846040517f08c379a000000000000000000000000000000000000000000000000000000000815260206004820152602260248201527f45524332303a20617070726f766520746f20746865207a65726f20616464726560448201527f73730000000000000000000000000000000000000000000000000000000000006064820152fd5b60846040517f08c379a0000000000000000000000000000000000000000000000000000000008152602060048201526024808201527f45524332303a20617070726f76652066726f6d20746865207a65726f2061646460448201527f72657373000000000000000000000000000000000000000000000000000000006064820152fd5b9073ffffffffffffffffffffffffffffffffffffffff821660005260086020526148c18160406000209073ffffffffffffffffffffffffffffffffffffffff16600052602052604060002090565b54927fffffffffffffffffffffffffffffffffffffffffffffffffffffffffffffffff84036148f05750505050565b80841061490b576149029303916146b8565b38808080611e8c565b60646040517f08c379a000000000000000000000000000000000000000000000000000000000815260206004820152601d60248201527f45524332303a20696e73756666696369656e7420616c6c6f77616e63650000006044820152fd5b60209067ffffffffffffffff8111614983575b60051b0190565b61498b611753565b61497c565b9061499a82614969565b6149a76040519182611783565b8281527fffffffffffffffffffffffffffffffffffffffffffffffffffffffffffffffe06149d58294614969565b0190602036910137565b80518210156149f35760209160051b010190565b7f4e487b7100000000000000000000000000000000000000000000000000000000600052603260045260246000fd5b90926054929382527fffffffffffffffffffffffffffffffffffffffff00000000000000000000000060209460601b16848301526034820152018183519193019160005b828110614a74575050505090565b835185529381019392810192600101614a66565b9081602091031261000e575190565b90815180825260208080930193019160005b828110614ab7575050505090565b835185529381019392810192600101614aa9565b6109809392606092825260208201528160408201520190614a97565b7f0800000000000011000000000000000000000000000000000000000000000001811115614b395760046040517f40bcd5a5000000000000000000000000000000000000000000000000000000008152fd5b80614b685760046040517fb05313bb000000000000000000000000000000000000000000000000000000008152fd5b600e5414614b7257565b60046040517fd15e5167000000000000000000000000000000000000000000000000000000008152fd5b604090610980939281528160208201520190614a9756fea164736f6c6343000811000a",
  "linkReferences": {},
  "deployedLinkReferences": {}
}