{
  "_format": "hh-sol-artifact-1",
  "contractName": "CygnusComplexRewarder",
  "sourceName": "contracts/cygnus-token/CygnusComplexRewarder.sol",
  "abi": [
    {
      "inputs": [
        {
          "internalType": "contract IHangar18",
          "name": "_hangar18",
          "type": "address"
        },
        {
          "internalType": "address",
          "name": "_rewardToken",
          "type": "address"
        },
        {
          "internalType": "uint256",
          "name": "_totalRewards",
          "type": "uint256"
        }
      ],
      "stateMutability": "nonpayable",
      "type": "constructor"
    },
    {
      "inputs": [
        {
          "internalType": "address",
          "name": "token",
          "type": "address"
        },
        {
          "internalType": "address",
          "name": "underlying",
          "type": "address"
        }
      ],
      "name": "CygnusComplexRewarder__CantSweepUnderlying",
      "type": "error"
    },
    {
      "inputs": [
        {
          "internalType": "uint256",
          "name": "max",
          "type": "uint256"
        },
        {
          "internalType": "uint256",
          "name": "value",
          "type": "uint256"
        }
      ],
      "name": "CygnusComplexRewarder__CygPerBlockExceedsLimit",
      "type": "error"
    },
    {
      "inputs": [
        {
          "internalType": "address",
          "name": "admin",
          "type": "address"
        },
        {
          "internalType": "address",
          "name": "sender",
          "type": "address"
        }
      ],
      "name": "CygnusComplexRewarder__MsgSenderNotAdmin",
      "type": "error"
    },
    {
      "inputs": [
        {
          "internalType": "address",
          "name": "borrowable",
          "type": "address"
        },
        {
          "internalType": "address",
          "name": "sender",
          "type": "address"
        }
      ],
      "name": "CygnusComplexRewarder__MsgSenderNotBorrowable",
      "type": "error"
    },
    {
      "inputs": [
        {
          "internalType": "address",
          "name": "sender",
          "type": "address"
        },
        {
          "internalType": "address",
          "name": "origin",
          "type": "address"
        }
      ],
      "name": "CygnusComplexRewarder__OnlyEOAAllowed",
      "type": "error"
    },
    {
      "inputs": [
        {
          "internalType": "uint256",
          "name": "shuttleId",
          "type": "uint256"
        },
        {
          "internalType": "address",
          "name": "borrowable",
          "type": "address"
        }
      ],
      "name": "CygnusComplexRewarder__ShuttleAlreadyInitialized",
      "type": "error"
    },
    {
      "inputs": [
        {
          "internalType": "uint256",
          "name": "shuttleId",
          "type": "uint256"
        },
        {
          "internalType": "address",
          "name": "borrowable",
          "type": "address"
        }
      ],
      "name": "CygnusComplexRewarder__ShuttleNotInitialized",
      "type": "error"
    },
    {
      "inputs": [],
      "name": "ReentrantCall",
      "type": "error"
    },
    {
      "anonymous": false,
      "inputs": [
        {
          "indexed": false,
          "internalType": "uint256",
          "name": "shuttlesLength",
          "type": "uint256"
        },
        {
          "indexed": false,
          "internalType": "address",
          "name": "sender",
          "type": "address"
        },
        {
          "indexed": false,
          "internalType": "uint256",
          "name": "epoch",
          "type": "uint256"
        }
      ],
      "name": "AccelerateTheUniverse",
      "type": "event"
    },
    {
      "anonymous": false,
      "inputs": [
        {
          "indexed": true,
          "internalType": "address",
          "name": "borrowable",
          "type": "address"
        },
        {
          "indexed": true,
          "internalType": "uint256",
          "name": "epoch",
          "type": "uint256"
        },
        {
          "indexed": false,
          "internalType": "address",
          "name": "sender",
          "type": "address"
        },
        {
          "indexed": false,
          "internalType": "uint256",
          "name": "reward",
          "type": "uint256"
        }
      ],
      "name": "CollectReward",
      "type": "event"
    },
    {
      "anonymous": false,
      "inputs": [
        {
          "indexed": false,
          "internalType": "uint256",
          "name": "lastRewardRate",
          "type": "uint256"
        },
        {
          "indexed": false,
          "internalType": "uint256",
          "name": "newRewardRate",
          "type": "uint256"
        }
      ],
      "name": "NewCygPerBlock",
      "type": "event"
    },
    {
      "anonymous": false,
      "inputs": [
        {
          "indexed": false,
          "internalType": "uint256",
          "name": "previousEpoch",
          "type": "uint256"
        },
        {
          "indexed": false,
          "internalType": "uint256",
          "name": "newEpoch",
          "type": "uint256"
        },
        {
          "indexed": false,
          "internalType": "uint256",
          "name": "_oldCygPerBlock",
          "type": "uint256"
        },
        {
          "indexed": false,
          "internalType": "uint256",
          "name": "_newCygPerBlock",
          "type": "uint256"
        }
      ],
      "name": "NewEpoch",
      "type": "event"
    },
    {
      "anonymous": false,
      "inputs": [
        {
          "indexed": true,
          "internalType": "uint256",
          "name": "shuttleId",
          "type": "uint256"
        },
        {
          "indexed": false,
          "internalType": "address",
          "name": "borrowable",
          "type": "address"
        },
        {
          "indexed": false,
          "internalType": "uint256",
          "name": "oldAllocPoint",
          "type": "uint256"
        },
        {
          "indexed": false,
          "internalType": "uint256",
          "name": "newAllocPoint",
          "type": "uint256"
        }
      ],
      "name": "NewShuttleAllocPoint",
      "type": "event"
    },
    {
      "anonymous": false,
      "inputs": [
        {
          "indexed": true,
          "internalType": "uint256",
          "name": "shuttleId",
          "type": "uint256"
        },
        {
          "indexed": true,
          "internalType": "address",
          "name": "borrowable",
          "type": "address"
        },
        {
          "indexed": false,
          "internalType": "uint256",
          "name": "allocPoints",
          "type": "uint256"
        }
      ],
      "name": "NewShuttleReward",
      "type": "event"
    },
    {
      "anonymous": false,
      "inputs": [
        {
          "indexed": true,
          "internalType": "uint256",
          "name": "shuttleId",
          "type": "uint256"
        },
        {
          "indexed": false,
          "internalType": "address",
          "name": "borrowable",
          "type": "address"
        },
        {
          "indexed": false,
          "internalType": "uint256",
          "name": "oldAllocPoint",
          "type": "uint256"
        },
        {
          "indexed": false,
          "internalType": "uint256",
          "name": "currentEpoch",
          "type": "uint256"
        }
      ],
      "name": "RemoveShuttleReward",
      "type": "event"
    },
    {
      "anonymous": false,
      "inputs": [
        {
          "indexed": false,
          "internalType": "address",
          "name": "sender",
          "type": "address"
        },
        {
          "indexed": false,
          "internalType": "uint256",
          "name": "_birth",
          "type": "uint256"
        },
        {
          "indexed": false,
          "internalType": "uint256",
          "name": "_death",
          "type": "uint256"
        },
        {
          "indexed": false,
          "internalType": "uint256",
          "name": "timestamp",
          "type": "uint256"
        }
      ],
      "name": "Supernova",
      "type": "event"
    },
    {
      "anonymous": false,
      "inputs": [
        {
          "indexed": true,
          "internalType": "address",
          "name": "token",
          "type": "address"
        },
        {
          "indexed": true,
          "internalType": "address",
          "name": "sender",
          "type": "address"
        },
        {
          "indexed": false,
          "internalType": "uint256",
          "name": "amount",
          "type": "uint256"
        },
        {
          "indexed": false,
          "internalType": "uint256",
          "name": "currentEpoch",
          "type": "uint256"
        }
      ],
      "name": "SweepToken",
      "type": "event"
    },
    {
      "anonymous": false,
      "inputs": [
        {
          "indexed": true,
          "internalType": "address",
          "name": "borrowable",
          "type": "address"
        },
        {
          "indexed": true,
          "internalType": "address",
          "name": "borrower",
          "type": "address"
        },
        {
          "indexed": false,
          "internalType": "uint256",
          "name": "borrowBalance",
          "type": "uint256"
        },
        {
          "indexed": false,
          "internalType": "uint256",
          "name": "borrowIndex",
          "type": "uint256"
        }
      ],
      "name": "TrackShuttle",
      "type": "event"
    },
    {
      "anonymous": false,
      "inputs": [
        {
          "indexed": true,
          "internalType": "address",
          "name": "borrowable",
          "type": "address"
        },
        {
          "indexed": false,
          "internalType": "uint256",
          "name": "lastRewardTime",
          "type": "uint256"
        },
        {
          "indexed": false,
          "internalType": "uint256",
          "name": "totalShares",
          "type": "uint256"
        },
        {
          "indexed": false,
          "internalType": "uint256",
          "name": "accRewardPerShare",
          "type": "uint256"
        }
      ],
      "name": "UpdateShuttle",
      "type": "event"
    },
    {
      "inputs": [],
      "name": "ACC_PRECISION",
      "outputs": [
        {
          "internalType": "uint256",
          "name": "",
          "type": "uint256"
        }
      ],
      "stateMutability": "view",
      "type": "function"
    },
    {
      "inputs": [],
      "name": "BLOCKS_PER_EPOCH",
      "outputs": [
        {
          "internalType": "uint256",
          "name": "",
          "type": "uint256"
        }
      ],
      "stateMutability": "view",
      "type": "function"
    },
    {
      "inputs": [],
      "name": "BLOCKS_PER_YEAR",
      "outputs": [
        {
          "internalType": "uint256",
          "name": "",
          "type": "uint256"
        }
      ],
      "stateMutability": "view",
      "type": "function"
    },
    {
      "inputs": [],
      "name": "DURATION",
      "outputs": [
        {
          "internalType": "uint256",
          "name": "",
          "type": "uint256"
        }
      ],
      "stateMutability": "view",
      "type": "function"
    },
    {
      "inputs": [],
      "name": "MAX_CYG_PER_BLOCK",
      "outputs": [
        {
          "internalType": "uint256",
          "name": "",
          "type": "uint256"
        }
      ],
      "stateMutability": "view",
      "type": "function"
    },
    {
      "inputs": [],
      "name": "REDUCTION_FACTOR_PER_EPOCH",
      "outputs": [
        {
          "internalType": "uint256",
          "name": "",
          "type": "uint256"
        }
      ],
      "stateMutability": "view",
      "type": "function"
    },
    {
      "inputs": [],
      "name": "SHARES_PRECISION",
      "outputs": [
        {
          "internalType": "uint256",
          "name": "",
          "type": "uint256"
        }
      ],
      "stateMutability": "view",
      "type": "function"
    },
    {
      "inputs": [],
      "name": "TOTAL_EPOCHS",
      "outputs": [
        {
          "internalType": "uint256",
          "name": "",
          "type": "uint256"
        }
      ],
      "stateMutability": "view",
      "type": "function"
    },
    {
      "inputs": [],
      "name": "accelerateTheUniverse",
      "outputs": [],
      "stateMutability": "nonpayable",
      "type": "function"
    },
    {
      "inputs": [
        {
          "internalType": "uint256",
          "name": "shuttleId",
          "type": "uint256"
        },
        {
          "internalType": "uint256",
          "name": "allocPoint",
          "type": "uint256"
        }
      ],
      "name": "adjustShuttleRewards",
      "outputs": [],
      "stateMutability": "nonpayable",
      "type": "function"
    },
    {
      "inputs": [],
      "name": "advanceEpoch",
      "outputs": [],
      "stateMutability": "nonpayable",
      "type": "function"
    },
    {
      "inputs": [
        {
          "internalType": "uint256",
          "name": "",
          "type": "uint256"
        }
      ],
      "name": "allShuttles",
      "outputs": [
        {
          "internalType": "address",
          "name": "",
          "type": "address"
        }
      ],
      "stateMutability": "view",
      "type": "function"
    },
    {
      "inputs": [],
      "name": "birth",
      "outputs": [
        {
          "internalType": "uint256",
          "name": "",
          "type": "uint256"
        }
      ],
      "stateMutability": "view",
      "type": "function"
    },
    {
      "inputs": [],
      "name": "blocksThisEpoch",
      "outputs": [
        {
          "internalType": "uint256",
          "name": "",
          "type": "uint256"
        }
      ],
      "stateMutability": "view",
      "type": "function"
    },
    {
      "inputs": [],
      "name": "blocksUntilNextEpoch",
      "outputs": [
        {
          "internalType": "uint256",
          "name": "",
          "type": "uint256"
        }
      ],
      "stateMutability": "view",
      "type": "function"
    },
    {
      "inputs": [],
      "name": "blocksUntilSupernova",
      "outputs": [
        {
          "internalType": "uint256",
          "name": "",
          "type": "uint256"
        }
      ],
      "stateMutability": "view",
      "type": "function"
    },
    {
      "inputs": [
        {
          "internalType": "uint256",
          "name": "epoch",
          "type": "uint256"
        }
      ],
      "name": "calculateCygPerBlock",
      "outputs": [
        {
          "internalType": "uint256",
          "name": "rewardRate",
          "type": "uint256"
        }
      ],
      "stateMutability": "view",
      "type": "function"
    },
    {
      "inputs": [
        {
          "internalType": "uint256",
          "name": "epoch",
          "type": "uint256"
        }
      ],
      "name": "calculateEpochRewards",
      "outputs": [
        {
          "internalType": "uint256",
          "name": "rewards",
          "type": "uint256"
        }
      ],
      "stateMutability": "view",
      "type": "function"
    },
    {
      "inputs": [
        {
          "internalType": "address",
          "name": "borrowable",
          "type": "address"
        },
        {
          "internalType": "address",
          "name": "to",
          "type": "address"
        }
      ],
      "name": "collect",
      "outputs": [],
      "stateMutability": "nonpayable",
      "type": "function"
    },
    {
      "inputs": [
        {
          "internalType": "address",
          "name": "to",
          "type": "address"
        }
      ],
      "name": "collectAll",
      "outputs": [],
      "stateMutability": "nonpayable",
      "type": "function"
    },
    {
      "inputs": [],
      "name": "currentEpochRewards",
      "outputs": [
        {
          "internalType": "uint256",
          "name": "",
          "type": "uint256"
        }
      ],
      "stateMutability": "view",
      "type": "function"
    },
    {
      "inputs": [],
      "name": "cygPerBlock",
      "outputs": [
        {
          "internalType": "uint256",
          "name": "",
          "type": "uint256"
        }
      ],
      "stateMutability": "view",
      "type": "function"
    },
    {
      "inputs": [],
      "name": "cygToken",
      "outputs": [
        {
          "internalType": "address",
          "name": "",
          "type": "address"
        }
      ],
      "stateMutability": "view",
      "type": "function"
    },
    {
      "inputs": [],
      "name": "death",
      "outputs": [
        {
          "internalType": "uint256",
          "name": "",
          "type": "uint256"
        }
      ],
      "stateMutability": "view",
      "type": "function"
    },
    {
      "inputs": [],
      "name": "dripDAOCyg",
      "outputs": [],
      "stateMutability": "nonpayable",
      "type": "function"
    },
    {
      "inputs": [
        {
          "internalType": "uint256",
          "name": "epoch",
          "type": "uint256"
        }
      ],
      "name": "emissionsCurve",
      "outputs": [
        {
          "internalType": "uint256",
          "name": "",
          "type": "uint256"
        }
      ],
      "stateMutability": "pure",
      "type": "function"
    },
    {
      "inputs": [],
      "name": "epochProgression",
      "outputs": [
        {
          "internalType": "uint256",
          "name": "",
          "type": "uint256"
        }
      ],
      "stateMutability": "view",
      "type": "function"
    },
    {
      "inputs": [],
      "name": "epochRewardsPacing",
      "outputs": [
        {
          "internalType": "uint256",
          "name": "",
          "type": "uint256"
        }
      ],
      "stateMutability": "view",
      "type": "function"
    },
    {
      "inputs": [],
      "name": "getBlockTimestamp",
      "outputs": [
        {
          "internalType": "uint256",
          "name": "",
          "type": "uint256"
        }
      ],
      "stateMutability": "view",
      "type": "function"
    },
    {
      "inputs": [],
      "name": "getCurrentEpoch",
      "outputs": [
        {
          "internalType": "uint256",
          "name": "currentEpoch",
          "type": "uint256"
        }
      ],
      "stateMutability": "view",
      "type": "function"
    },
    {
      "inputs": [
        {
          "internalType": "uint256",
          "name": "",
          "type": "uint256"
        }
      ],
      "name": "getEpochInfo",
      "outputs": [
        {
          "internalType": "uint256",
          "name": "epoch",
          "type": "uint256"
        },
        {
          "internalType": "uint256",
          "name": "cygPerBlock",
          "type": "uint256"
        },
        {
          "internalType": "uint256",
          "name": "totalRewards",
          "type": "uint256"
        },
        {
          "internalType": "uint256",
          "name": "totalClaimed",
          "type": "uint256"
        },
        {
          "internalType": "uint256",
          "name": "start",
          "type": "uint256"
        },
        {
          "internalType": "uint256",
          "name": "end",
          "type": "uint256"
        }
      ],
      "stateMutability": "view",
      "type": "function"
    },
    {
      "inputs": [
        {
          "internalType": "address",
          "name": "",
          "type": "address"
        }
      ],
      "name": "getShuttleInfo",
      "outputs": [
        {
          "internalType": "bool",
          "name": "active",
          "type": "bool"
        },
        {
          "internalType": "uint256",
          "name": "shuttleId",
          "type": "uint256"
        },
        {
          "internalType": "uint256",
          "name": "totalShares",
          "type": "uint256"
        },
        {
          "internalType": "uint256",
          "name": "accRewardPerShare",
          "type": "uint256"
        },
        {
          "internalType": "uint256",
          "name": "lastRewardTime",
          "type": "uint256"
        },
        {
          "internalType": "uint256",
          "name": "allocPoint",
          "type": "uint256"
        }
      ],
      "stateMutability": "view",
      "type": "function"
    },
    {
      "inputs": [
        {
          "internalType": "address",
          "name": "",
          "type": "address"
        },
        {
          "internalType": "address",
          "name": "",
          "type": "address"
        }
      ],
      "name": "getUserInfo",
      "outputs": [
        {
          "internalType": "uint256",
          "name": "shares",
          "type": "uint256"
        },
        {
          "internalType": "int256",
          "name": "rewardDebt",
          "type": "int256"
        }
      ],
      "stateMutability": "view",
      "type": "function"
    },
    {
      "inputs": [],
      "name": "hangar18",
      "outputs": [
        {
          "internalType": "contract IHangar18",
          "name": "",
          "type": "address"
        }
      ],
      "stateMutability": "view",
      "type": "function"
    },
    {
      "inputs": [
        {
          "internalType": "uint256",
          "name": "shuttleId",
          "type": "uint256"
        },
        {
          "internalType": "uint256",
          "name": "allocPoint",
          "type": "uint256"
        }
      ],
      "name": "initializeShuttleRewards",
      "outputs": [],
      "stateMutability": "nonpayable",
      "type": "function"
    },
    {
      "inputs": [],
      "name": "lastEpochTime",
      "outputs": [
        {
          "internalType": "uint256",
          "name": "",
          "type": "uint256"
        }
      ],
      "stateMutability": "view",
      "type": "function"
    },
    {
      "inputs": [],
      "name": "name",
      "outputs": [
        {
          "internalType": "string",
          "name": "",
          "type": "string"
        }
      ],
      "stateMutability": "view",
      "type": "function"
    },
    {
      "inputs": [],
      "name": "nextEpochRewards",
      "outputs": [
        {
          "internalType": "uint256",
          "name": "",
          "type": "uint256"
        }
      ],
      "stateMutability": "view",
      "type": "function"
    },
    {
      "inputs": [
        {
          "internalType": "address",
          "name": "borrowable",
          "type": "address"
        },
        {
          "internalType": "address",
          "name": "borrower",
          "type": "address"
        }
      ],
      "name": "pendingCyg",
      "outputs": [
        {
          "internalType": "uint256",
          "name": "pending",
          "type": "uint256"
        }
      ],
      "stateMutability": "view",
      "type": "function"
    },
    {
      "inputs": [],
      "name": "previousEpochRewards",
      "outputs": [
        {
          "internalType": "uint256",
          "name": "",
          "type": "uint256"
        }
      ],
      "stateMutability": "view",
      "type": "function"
    },
    {
      "inputs": [
        {
          "internalType": "uint256",
          "name": "_cygPerBlock",
          "type": "uint256"
        }
      ],
      "name": "setCygPerBlock",
      "outputs": [],
      "stateMutability": "nonpayable",
      "type": "function"
    },
    {
      "inputs": [],
      "name": "shuttlesLength",
      "outputs": [
        {
          "internalType": "uint256",
          "name": "",
          "type": "uint256"
        }
      ],
      "stateMutability": "view",
      "type": "function"
    },
    {
      "inputs": [],
      "name": "supernova",
      "outputs": [],
      "stateMutability": "nonpayable",
      "type": "function"
    },
    {
      "inputs": [
        {
          "internalType": "address",
          "name": "token",
          "type": "address"
        }
      ],
      "name": "sweepToken",
      "outputs": [],
      "stateMutability": "nonpayable",
      "type": "function"
    },
    {
      "inputs": [],
      "name": "totalAllocPoint",
      "outputs": [
        {
          "internalType": "uint256",
          "name": "",
          "type": "uint256"
        }
      ],
      "stateMutability": "view",
      "type": "function"
    },
    {
      "inputs": [],
      "name": "totalCygClaimed",
      "outputs": [
        {
          "internalType": "uint256",
          "name": "claimed",
          "type": "uint256"
        }
      ],
      "stateMutability": "view",
      "type": "function"
    },
    {
      "inputs": [],
      "name": "totalCygRewards",
      "outputs": [
        {
          "internalType": "uint256",
          "name": "",
          "type": "uint256"
        }
      ],
      "stateMutability": "view",
      "type": "function"
    },
    {
      "inputs": [],
      "name": "totalProgression",
      "outputs": [
        {
          "internalType": "uint256",
          "name": "",
          "type": "uint256"
        }
      ],
      "stateMutability": "view",
      "type": "function"
    },
    {
      "inputs": [
        {
          "internalType": "address",
          "name": "borrower",
          "type": "address"
        },
        {
          "internalType": "uint256",
          "name": "borrowBalance",
          "type": "uint256"
        },
        {
          "internalType": "uint256",
          "name": "borrowIndex",
          "type": "uint256"
        }
      ],
      "name": "trackBorrower",
      "outputs": [],
      "stateMutability": "nonpayable",
      "type": "function"
    },
    {
      "inputs": [
        {
          "internalType": "address",
          "name": "borrowable",
          "type": "address"
        }
      ],
      "name": "updateShuttle",
      "outputs": [],
      "stateMutability": "nonpayable",
      "type": "function"
    },
    {
      "inputs": [],
      "name": "version",
      "outputs": [
        {
          "internalType": "string",
          "name": "",
          "type": "string"
        }
      ],
      "stateMutability": "view",
      "type": "function"
    }
  ],
  "bytecode": "0x60406101208152346200042c57620031179060608238039283620000238162000431565b9485928339810103126200042c578151916001600160a01b039081841684036200042c57602081015191821682036200042c578201519260016000928160ff1985541617845561010095865283928493855b80156200023e575050622819a0809404918260055567069789fbbc4f800080841162000221575060e052608052426007554260a052630784ce0042018042116200020d5760c052824201918242116200020d578382029382850414821517156200020d577fcc53a96dddb8d3b8710c4932d9e90652a4eaef0bf4c37a13dc4d806e1b54cb4d9492608094926005926200010f60c062000431565b948686526020860192835289860190815260608601918783528887019342855260a0880195865288805260026020528b892097518855519087015551600286015551600385015551600484015551910155600554845191808352806020840152858301526060820152a151612c8391826200049483396080518281816104e60152818161096b01528181610d90015281816125360152612a6d015260a0518281816106ee01528181610b050152818161219f0152612591015260c051828181611189015281816112590152818161217001526125b7015260e051828181611713015281816119e5015261292b01525181818161084b01526122d40152f35b634e487b7160e01b85526011600452602485fd5b6044908489519163c3af7cc760e01b835260048301526024820152fd5b909450875194808603958611620002ec576030958287039687116200041857670de0b6b3a76400009688905b808210620003bd57505086670de0b6b3a764000003670de0b6b3a76400008111620003a957869089986658d15e1762800093848102600019868309958482881083018089039814918882111594099682881190039682039562000300575b50505050505050858101809111620002ec57620002e690916200046d565b62000075565b634e487b7160e01b87526011600452602487fd5b909192939495969b506200037857506200036b57670de0b6b3a763ffff190181168091046002808260030218808302820302808302820302808302820302808302820302808302820302809202900302928782808c03040102910417029438808080808080620002c8565b63ae47f7028a526004601cfd5b935050909250670de0b6b3a7640000146200039c57049438808080808080620002c8565b63ae47f70288526004601cfd5b634e487b7160e01b89526011600452602489fd5b9097670d87e55590018000907812eb73eae4c8b0077db7b119a3928413fff44d230654ac05ac811182026200040b576200040491670de0b6b3a7640000910204986200046d565b906200026a565b63bac65e5b8b526004601cfd5b634e487b7160e01b88526011600452602488fd5b600080fd5b6040519190601f01601f191682016001600160401b038111838210176200045757604052565b634e487b7160e01b600052604160045260246000fd5b60001981146200047d5760010190565b634e487b7160e01b600052601160045260246000fdfe608060408181526004918236101561001657600080fd5b600090813560e01c90816301bac4c614611e5c5750806304b3182e14611de657806306fdde0314611d77578063135022c214611cfb578063151e510e14611c5b57806317caf6f114611c1e5780631ad4c8c314611baf5780631bafed5214611b375780631be0528914611afa5780631be195601461194a5780631f3adc0f1461190e57806328419d62146118ce57806332fcd966146118805780633cf80e6c1461180a5780634a91f2b11461178c5780634f3d90b1146117375780634f573686146116c85780634fcc55751461164f5780635104517f1461159d5780635303654f146114f857806353cde488146114bb5780635493b5d61461147e57806354fd4d501461140b57806358322a8e146113425780635de7fcd0146112fc5780635f15c3c9146112c25780636673fd971461127c5780636fa422611461122357806372e127cb146111e6578063796b89b9146111ad5780637c4941ec1461115057806382ebcd3214610f8357806389c614b814610f4657806393c3677b14610cd05780639e81b63414610c90578063a12ef25e14610be3578063ac9462f514610ba4578063b97dd9e214610b69578063c1f1e5ae14610b28578063c81ba8f014610acf578063cb87f7f3146108ab578063d37db1d21461086e578063d4f7286b14610815578063d657c9e714610718578063d797c4c3146106ae578063d98320d51461050a578063e8a24e1d1461049b578063f2801fe714610418578063f2b128a414610326578063f6503e6c1461029b5763fd59c2991461025557600080fd5b346102985760207ffffffffffffffffffffffffffffffffffffffffffffffffffffffffffffffffc3601126102985750610291602092356122cc565b9051908152f35b80fd5b5090346103225760207ffffffffffffffffffffffffffffffffffffffffffffffffffffffffffffffffc360112610322576102d683356122cc565b91622819a0928381029381850414901517156102f6576020838351908152f35b806011857f4e487b71000000000000000000000000000000000000000000000000000000006024945252fd5b5080fd5b5091903461041457827ffffffffffffffffffffffffffffffffffffffffffffffffffffffffffffffffc3601126104145782549160ff8316156103ed5750907f43604600d5d5b743877b9625896fea0414a17136bbe657753a96dc6f80ede1b960606001937fffffffffffffffffffffffffffffffffffffffffffffffffffffffffffffff0080941686556103b9612367565b6103c16126c8565b8454906103cc61216e565b908051928352336020840152820152a16103e46126c8565b82541617815580f35b90517f37ed32e8000000000000000000000000000000000000000000000000000000008152fd5b8280fd5b503461029857817ffffffffffffffffffffffffffffffffffffffffffffffffffffffffffffffffc3601126102985782359273ffffffffffffffffffffffffffffffffffffffff90818516809503610414576024359182168092036104145783948352602052828220908252602052206001815491015482519182526020820152f35b50903461032257817ffffffffffffffffffffffffffffffffffffffffffffffffffffffffffffffffc360112610322576020905173ffffffffffffffffffffffffffffffffffffffff7f0000000000000000000000000000000000000000000000000000000000000000168152f35b5090346103225760607ffffffffffffffffffffffffffffffffffffffffffffffffffffffffffffffffc3601126103225782359073ffffffffffffffffffffffffffffffffffffffff8216809203610414576024359060443561056c3361271c565b3386528660205282862085875260205282862090610598836c0100000000000000000000000087612b77565b6105a383548261234e565b92600383015491828502927f800000000000000000000000000000000000000000000000000000000000000081148b871216610682578584051485151715610656579261064492610639740100000000000000000000000000000000000000006001857f0480311339e24867c20766d1e5f3a5c61350017b8692491973d84cf032d60f359b9a9998600297550192058254612966565b905501918254612966565b9055815193845260208401523392a380f35b60248a60118d7f4e487b7100000000000000000000000000000000000000000000000000000000835252fd5b60248b60118e7f4e487b7100000000000000000000000000000000000000000000000000000000835252fd5b50903461032257817ffffffffffffffffffffffffffffffffffffffffffffffffffffffffffffffffc36011261032257602090610291630784ce006107137f000000000000000000000000000000000000000000000000000000000000000042612161565b612b34565b509190346104145760207ffffffffffffffffffffffffffffffffffffffffffffffffffffffffffffffffc3601126104145781359173ffffffffffffffffffffffffffffffffffffffff9081841684036108115784549260ff8416156107eb5750507fffffffffffffffffffffffffffffffffffffffffffffffffffffffffffffff0080921684556107a8612367565b6001926107b48461264f565b9182519285875b8581106107cd578882886103e46126c8565b6107e385856107dc84876126b4565b5116612831565b0186906107bb565b517f37ed32e8000000000000000000000000000000000000000000000000000000008152fd5b8480fd5b50903461032257817ffffffffffffffffffffffffffffffffffffffffffffffffffffffffffffffffc36011261032257602090517f00000000000000000000000000000000000000000000000000000000000000008152f35b50903461032257817ffffffffffffffffffffffffffffffffffffffffffffffffffffffffffffffffc36011261032257602090516301e133808152f35b50903461032257807ffffffffffffffffffffffffffffffffffffffffffffffffffffffffffffffffc3601126103225782359260243583549260ff841615610aa7577fffffffffffffffffffffffffffffffffffffffffffffffffffffffffffffff00809416855561091b612367565b610923612a29565b80517f1ad4c8c3000000000000000000000000000000000000000000000000000000008152868482015273ffffffffffffffffffffffffffffffffffffffff60a082602481847f0000000000000000000000000000000000000000000000000000000000000000165afa918215610a9d578792610a68575b5081169384875260036020528287209160ff83541615610a1757876001888b7f9436a68f01cf8a4f756c053a98d6d88cdbd763a2d8ad77273779d054e2b82eef60608b8b8b60058c01828154916109fd826109f885600654612161565b6122bf565b6006555581519384526020840152820152a26103e46126c8565b83517f316e864300000000000000000000000000000000000000000000000000000000815291820189815273ffffffffffffffffffffffffffffffffffffffff909116602082015281906040010390fd5b610a8a91925060a03d8111610a96575b610a828183611f7f565b8101906129c2565b5050915050903861099b565b503d610a78565b83513d89823e3d90fd5b9050517f37ed32e8000000000000000000000000000000000000000000000000000000008152fd5b50903461032257817ffffffffffffffffffffffffffffffffffffffffffffffffffffffffffffffffc36011261032257602090517f00000000000000000000000000000000000000000000000000000000000000008152f35b50903461032257817ffffffffffffffffffffffffffffffffffffffffffffffffffffffffffffffffc360112610322576020905167069789fbbc4f80008152f35b50903461032257817ffffffffffffffffffffffffffffffffffffffffffffffffffffffffffffffffc3601126103225760209061029161216e565b50903461032257817ffffffffffffffffffffffffffffffffffffffffffffffffffffffffffffffffc3601126103225760209061029160075442612161565b50913461041457817ffffffffffffffffffffffffffffffffffffffffffffffffffffffffffffffffc36011261041457803573ffffffffffffffffffffffffffffffffffffffff9182821682036108115760243592831683036108115784549360ff8516156107eb5785600186610c8887877fffffffffffffffffffffffffffffffffffffffffffffffffffffffffffffff008094168655610c83612367565b612831565b6103e46126c8565b50903461032257817ffffffffffffffffffffffffffffffffffffffffffffffffffffffffffffffffc360112610322576102d6610ccb61216e565b6122cc565b50913461041457817ffffffffffffffffffffffffffffffffffffffffffffffffffffffffffffffffc36011261041457825490803560243560ff841615610f1e577fffffffffffffffffffffffffffffffffffffffffffffffffffffffffffffff008094168655610d3f612367565b610d47612a29565b8451947f1ad4c8c3000000000000000000000000000000000000000000000000000000008652828487015273ffffffffffffffffffffffffffffffffffffffff60a087602481847f0000000000000000000000000000000000000000000000000000000000000000165afa968715610f14578897610eef575b508087169485895260036020528289206001988960ff835416151514610e9d575060058591610df1836006546122bf565b6006558a8a825416178155878b820155015587549068010000000000000000821015610e715750917f68bea3f037520d478c14fd27a27947249aade51810b62999af0776bbd0097b96939186610e4e858b602097018c558b61209f565b909283549160031b90811b9283911b1691191617905551908152a36103e46126c8565b8960416024927f4e487b7100000000000000000000000000000000000000000000000000000000835252fd5b84517fc5b4745600000000000000000000000000000000000000000000000000000000815280840188815273ffffffffffffffffffffffffffffffffffffffff90921660208301529081906040010390fd5b610f0891975060a03d8111610a9657610a828183611f7f565b50509150509538610dc0565b82513d8a823e3d90fd5b8285517f37ed32e8000000000000000000000000000000000000000000000000000000008152fd5b50903461032257817ffffffffffffffffffffffffffffffffffffffffffffffffffffffffffffffffc360112610322576020906007549051908152f35b503461029857817ffffffffffffffffffffffffffffffffffffffffffffffffffffffffffffffffc36011261029857823573ffffffffffffffffffffffffffffffffffffffff80821680920361041457602435908116809103610414578183526020946003865284842090855194610ffc60c087611f7f565b60ff835416151586526001830154888701526002830154938787019485526003840154956060880196875260a06005858701549660808b01978852015498019788528252828952878220908252885286812095600188519761105e8a8a611f7f565b80548952015495898801968752519451935180421180611147575b61109a575b89896102918961108f8a8d516120e6565b60a01c90519061234e565b6110cb916110ba6110b16110c2939a999a42612161565b600554906120e6565b9051906120e6565b60065490612128565b918260a01b9280840474010000000000000000000000000000000000000000149015171561111b57505061108f9261110b61029196959361111193612128565b906122bf565b918194388061107e565b9060116024927f4e487b7100000000000000000000000000000000000000000000000000000000835252fd5b50841515611079565b50903461032257817ffffffffffffffffffffffffffffffffffffffffffffffffffffffffffffffffc36011261032257602090610291427f0000000000000000000000000000000000000000000000000000000000000000612161565b50903461032257817ffffffffffffffffffffffffffffffffffffffffffffffffffffffffffffffffc3601126103225760209051428152f35b50346102985760207ffffffffffffffffffffffffffffffffffffffffffffffffffffffffffffffffc3601126102985750610291602092356121fa565b50903461032257817ffffffffffffffffffffffffffffffffffffffffffffffffffffffffffffffffc36011261032257602090517f00000000000000000000000000000000000000000000000000000000000000008152f35b50903461032257817ffffffffffffffffffffffffffffffffffffffffffffffffffffffffffffffffc36011261032257602090610291622819a061071360075442612161565b50903461032257817ffffffffffffffffffffffffffffffffffffffffffffffffffffffffffffffffc360112610322576020905160308152f35b50903461032257817ffffffffffffffffffffffffffffffffffffffffffffffffffffffffffffffffc36011261032257602090516c010000000000000000000000008152f35b503461029857807ffffffffffffffffffffffffffffffffffffffffffffffffffffffffffffffffc3601126102985761137961216e565b8061138b575060209250905b51908152f35b7fffffffffffffffffffffffffffffffffffffffffffffffffffffffffffffffff81019081116113df576113be906122cc565b90622819a0918281029281840414901517156102f657506020925090611385565b6024826011867f4e487b7100000000000000000000000000000000000000000000000000000000835252fd5b50903461032257817ffffffffffffffffffffffffffffffffffffffffffffffffffffffffffffffffc3601126103225761147a906114496005611fef565b907f312e302e3000000000000000000000000000000000000000000000000000000060208301525191829182612039565b0390f35b50903461032257817ffffffffffffffffffffffffffffffffffffffffffffffffffffffffffffffffc360112610322576020906005549051908152f35b50903461032257817ffffffffffffffffffffffffffffffffffffffffffffffffffffffffffffffffc360112610322576020906001549051908152f35b5091346104145760207ffffffffffffffffffffffffffffffffffffffffffffffffffffffffffffffffc3601126104145780359073ffffffffffffffffffffffffffffffffffffffff821682036115995783549260ff8416156107eb5784600185611590867fffffffffffffffffffffffffffffffffffffffffffffffffffffffffffffff00809316855561158b612367565b61271c565b506103e46126c8565b8380fd5b50913461041457827ffffffffffffffffffffffffffffffffffffffffffffffffffffffffffffffffc360112610414576115e0622819a061071360075442612161565b906115e961216e565b8452600260205260028385200154906003848620015494837fffffffffffffffffffffffffffffffffffffffffffffffffffffffffffffffff048311840261164457602085610291670de0b6b3a76400008688020489612b34565b63bac65e5b9052601cfd5b50903461032257817ffffffffffffffffffffffffffffffffffffffffffffffffffffffffffffffffc36011261032257819061168961216e565b83905b8082111561169e576020848451908152f35b90926116bc6116c291858752600260205260038588200154906122bf565b936121cd565b9061168c565b50903461032257817ffffffffffffffffffffffffffffffffffffffffffffffffffffffffffffffffc360112610322576020905173ffffffffffffffffffffffffffffffffffffffff7f0000000000000000000000000000000000000000000000000000000000000000168152f35b50903461032257817ffffffffffffffffffffffffffffffffffffffffffffffffffffffffffffffffc3601126103225761177360075442612161565b91622819a09283039283116102f6576020838351908152f35b50913461041457827ffffffffffffffffffffffffffffffffffffffffffffffffffffffffffffffffc3601126104145782549160ff8316156107eb57836001847fffffffffffffffffffffffffffffffffffffffffffffffffffffffffffffff0080911683556117fa612982565b611802612367565b610c886124e3565b50913461041457827ffffffffffffffffffffffffffffffffffffffffffffffffffffffffffffffffc3601126104145782549160ff8316156107eb57836001847fffffffffffffffffffffffffffffffffffffffffffffffffffffffffffffff008091168355611878612982565b610c88612367565b50903461032257817ffffffffffffffffffffffffffffffffffffffffffffffffffffffffffffffffc3601126103225760209051740100000000000000000000000000000000000000008152f35b50903461032257817ffffffffffffffffffffffffffffffffffffffffffffffffffffffffffffffffc36011261032257602090516658d15e176280008152f35b50903461032257817ffffffffffffffffffffffffffffffffffffffffffffffffffffffffffffffffc3601126103225760209051622819a08152f35b50823461032257602090817ffffffffffffffffffffffffffffffffffffffffffffffffffffffffffffffffc3601126104145780359373ffffffffffffffffffffffffffffffffffffffff9283861692838703611af65785549460ff861615611ace577fffffffffffffffffffffffffffffffffffffffffffffffffffffffffffffff0080961687556119db612367565b6119e3612a29565b7f00000000000000000000000000000000000000000000000000000000000000009081168514611a7957866001878a887fee2522ca264e96c7cef76269664e2a4cea70ad76b78ee5b01d0587798a0a72d689896370a082318852308152611a5d81806024601c895afa601f3d111682510280963390612c33565b611a6561216e565b9082519586528501523393a36103e46126c8565b83517fef52f72d00000000000000000000000000000000000000000000000000000000815273ffffffffffffffffffffffffffffffffffffffff808a1693820193845290911660208301529081906040010390fd5b5082517f37ed32e8000000000000000000000000000000000000000000000000000000008152fd5b8580fd5b50903461032257817ffffffffffffffffffffffffffffffffffffffffffffffffffffffffffffffffc3601126103225760209051630784ce008152f35b50903461032257817ffffffffffffffffffffffffffffffffffffffffffffffffffffffffffffffffc36011261032257611b6f61216e565b60018101809111611b83576102d6906122cc565b6024836011867f4e487b7100000000000000000000000000000000000000000000000000000000835252fd5b5091346104145760207ffffffffffffffffffffffffffffffffffffffffffffffffffffffffffffffffc360112610414573591600154831015610298575073ffffffffffffffffffffffffffffffffffffffff611c0f602093600161209f565b92905490519260031b1c168152f35b50903461032257817ffffffffffffffffffffffffffffffffffffffffffffffffffffffffffffffffc360112610322576020906006549051908152f35b509190346104145760207ffffffffffffffffffffffffffffffffffffffffffffffffffffffffffffffffc36011261041457813573ffffffffffffffffffffffffffffffffffffffff81168091036115995783829160c0955260036020522060ff815416926001820154926002830154906005600385015493850154940154948151961515875260208701528501526060840152608083015260a0820152f35b509190346104145760207ffffffffffffffffffffffffffffffffffffffffffffffffffffffffffffffffc360112610414578060c09383358152600260205220805492600182015492600283015490600560038501549385015494015494815196875260208701528501526060840152608083015260a0820152f35b50903461032257817ffffffffffffffffffffffffffffffffffffffffffffffffffffffffffffffffc3601126103225761147a90611db5601b611fef565b907f4379676e757344414f3a20436f6d706c6578205265776172646572000000000060208301525191829182612039565b50913461041457827ffffffffffffffffffffffffffffffffffffffffffffffffffffffffffffffffc3601126104145782549160ff8316156107eb57836001847fffffffffffffffffffffffffffffffffffffffffffffffffffffffffffffff008091168355611e54612367565b610c88612a29565b905083346104145760207ffffffffffffffffffffffffffffffffffffffffffffffffffffffffffffffffc3601126104145780359083549260ff841615611f5a57507fffffffffffffffffffffffffffffffffffffffffffffffffffffffffffffff008093168455611ecc612367565b611ed4612a29565b67069789fbbc4f8000808311611f2657846001857f3ea86743bc8b6977a0693f6611ad7256d6ec1e3f996c6cba22e146152959ddff8987600554908060055582519182526020820152a16103e46126c8565b916044928651927fc3af7cc70000000000000000000000000000000000000000000000000000000084528301526024820152fd5b7f37ed32e8000000000000000000000000000000000000000000000000000000008152fd5b90601f7fffffffffffffffffffffffffffffffffffffffffffffffffffffffffffffffe0910116810190811067ffffffffffffffff821117611fc057604052565b7f4e487b7100000000000000000000000000000000000000000000000000000000600052604160045260246000fd5b9067ffffffffffffffff8211611fc0576040519161203560207fffffffffffffffffffffffffffffffffffffffffffffffffffffffffffffffe0601f8401160184611f7f565b8252565b60208082528251818301819052939260005b85811061208b575050507fffffffffffffffffffffffffffffffffffffffffffffffffffffffffffffffe0601f8460006040809697860101520116010190565b81810183015184820160400152820161204b565b80548210156120b75760005260206000200190600090565b7f4e487b7100000000000000000000000000000000000000000000000000000000600052603260045260246000fd5b818102929181159184041417156120f957565b7f4e487b7100000000000000000000000000000000000000000000000000000000600052601160045260246000fd5b8115612132570490565b7f4e487b7100000000000000000000000000000000000000000000000000000000600052601260045260246000fd5b919082039182116120f957565b7f00000000000000000000000000000000000000000000000000000000000000004210156121c857622819a06121c47f000000000000000000000000000000000000000000000000000000000000000042612161565b0490565b603090565b7fffffffffffffffffffffffffffffffffffffffffffffffffffffffffffffffff81146120f95760010190565b603003603081116120f957670de0b6b3a764000060009182905b808210612268575050670de0b6b3a76400000390670de0b6b3a7640000821161223b575090565b807f4e487b7100000000000000000000000000000000000000000000000000000000602492526011600452fd5b9091670d87e55590018000907812eb73eae4c8b0077db7b119a3928413fff44d230654ac05ac811182026122b2576122ac91670de0b6b3a7640000910204926121cd565b90612214565b63bac65e5b85526004601cfd5b919082018092116120f957565b6000908190827f00000000000000000000000000000000000000000000000000000000000000005b8282111561230957505050622819a091500490565b9091925061234461233e6123376123208785612161565b6658d15e17628000612331876121fa565b91612b77565b80966122bf565b926121cd565b90939291936122f4565b818103929160001380158285131691841216176120f957565b61237a600754622819a091829142612161565b046123825750565b61238a61216e565b60308110156124b35760055461239f826122cc565b6005554260075560009282845260026020526040842042600482015581420180421161248657600582015583815560055480600183015582810292818404149015171561245957600201557fffffffffffffffffffffffffffffffffffffffffffffffffffffffffffffffff82019282841161223b5750916080917fcc53a96dddb8d3b8710c4932d9e90652a4eaef0bf4c37a13dc4d806e1b54cb4d9360055491604051938452602084015260408301526060820152a15b565b6024857f4e487b710000000000000000000000000000000000000000000000000000000081526011600452fd5b6024867f4e487b710000000000000000000000000000000000000000000000000000000081526011600452fd5b50506124576124e3565b519073ffffffffffffffffffffffffffffffffffffffff821682036124de57565b600080fd5b6124eb61216e565b6030811061264c576040517ff851a44000000000000000000000000000000000000000000000000000000000815260208160048173ffffffffffffffffffffffffffffffffffffffff7f0000000000000000000000000000000000000000000000000000000000000000165afa8015612640576125e3575b5060807f3448d68e439b81df30dbd68606f415f65c9eabaaef0aca1ffc0368cc3954c6dc91604051903382527f000000000000000000000000000000000000000000000000000000000000000060208301527f000000000000000000000000000000000000000000000000000000000000000060408301526060820152a1565b6020813d8211612638575b816125fb60209383611f7f565b810103126124de577f3448d68e439b81df30dbd68606f415f65c9eabaaef0aca1ffc0368cc3954c6dc916126306080926124bd565b509150612563565b3d91506125ee565b6040513d6000823e3d90fd5b50565b9060405191828154918282526020928383019160005283600020936000905b8282106126845750505061245792500383611f7f565b855473ffffffffffffffffffffffffffffffffffffffff168452600195860195889550938101939091019061266e565b80518210156120b75760209160051b010190565b6001546126d5600161264f565b60005b8281106126e457505050565b8061271173ffffffffffffffffffffffffffffffffffffffff61270a61271794866126b4565b511661271c565b506121cd565b6126d8565b73ffffffffffffffffffffffffffffffffffffffff169081600052600360205260406000209160048301805480421161275457505050565b600285015490816127a2575b506060907f76e5c786dd7c9c1cd87203f33dbc49d953ff07b99de74baa864f04a0e3b6aa1c9242905560038601546040519142835260208301526040820152a2565b6110c26127b76127c2926005549042036120e6565b6005880154906120e6565b908160a01b918083047401000000000000000000000000000000000000000014901517156120f9577f76e5c786dd7c9c1cd87203f33dbc49d953ff07b99de74baa864f04a0e3b6aa1c9261281882606094612128565b612827600389019182546122bf565b9055925090612760565b61283a8161271c565b9173ffffffffffffffffffffffffffffffffffffffff604092835161286060c082611f7f565b60ff865416151581526001860154602082015260028601548582015260a06005600388015497606084019889526004810154608085015201549101521691600093838552600460205281852033865260205260016128c58387209283549051906120e6565b60a01c9101906128d682548261234e565b91821561295d577fbc96baf3023d0b9ea3a899e000f15d5f0f7a8b064774c1eed6b4cc63fcbd1b199461294f9284925560038561291161216e565b998a8152600260205220016129278382546122bf565b90557f0000000000000000000000000000000000000000000000000000000000000000612c33565b8151903382526020820152a3565b50505050505050565b919091600083820193841291129080158216911516176120f957565b32330361298b57565b6040517f3e1eb266000000000000000000000000000000000000000000000000000000008152336004820152326024820152604490fd5b908160a09103126124de57805180151581036124de579160208201516affffffffffffffffffffff811681036124de57916129ff604082016124bd565b916080612a0e606084016124bd565b9201516bffffffffffffffffffffffff811681036124de5790565b6040517ff851a44000000000000000000000000000000000000000000000000000000000815273ffffffffffffffffffffffffffffffffffffffff602082600481847f0000000000000000000000000000000000000000000000000000000000000000165afa91821561264057600092612af9575b5081163303612aaa5750565b6040517f5113afbd00000000000000000000000000000000000000000000000000000000815273ffffffffffffffffffffffffffffffffffffffff919091166004820152336024820152604490fd5b90916020823d8211612b2c575b81612b1360209383611f7f565b810103126102985750612b25906124bd565b9038612a9e565b3d9150612b06565b670de0b6b3a7640000907812725dd1d243aba0e75fe645cc4873f9e65afe688c928e1f218111820215830215612b6957020490565b637c5f487d6000526004601cfd5b91600092828102927fffffffffffffffffffffffffffffffffffffffffffffffffffffffffffffffff8183099184831085018084039314612c175782841115612c0a57908391099060018386038416808080960460028082600302188083028203028083028203028083028203028083028203028083028203028092029003029703040190848311900302920304170290565b63ae47f70286526004601cfd5b505050918215612c2657500490565b63ae47f70290526004601cfd5b601692602092601a52603a52604460009384809369a9059cbb00000000000082525af13d156001835114171615612c6957603a52565b6390b8ec1890526004601cfdfea164736f6c6343000811000a",
  "linkReferences": {},
  "deployedLinkReferences": {}
}