{
  "_format": "hh-sol-artifact-1",
  "contractName": "CygnusComplexRewarder",
  "sourceName": "contracts/cygnus-token/CygnusComplexRewarder.sol",
  "abi": [
    {
      "inputs": [
        {
          "internalType": "contract IHangar18",
          "name": "_hangar18",
          "type": "address"
        },
        {
          "internalType": "address",
          "name": "_rewardToken",
          "type": "address"
        },
        {
          "internalType": "uint256",
          "name": "_totalRewards",
          "type": "uint256"
        }
      ],
      "stateMutability": "nonpayable",
      "type": "constructor"
    },
    {
      "inputs": [
        {
          "internalType": "address",
          "name": "token",
          "type": "address"
        },
        {
          "internalType": "address",
          "name": "underlying",
          "type": "address"
        }
      ],
      "name": "CygnusComplexRewarder__CantSweepUnderlying",
      "type": "error"
    },
    {
      "inputs": [
        {
          "internalType": "uint256",
          "name": "max",
          "type": "uint256"
        },
        {
          "internalType": "uint256",
          "name": "value",
          "type": "uint256"
        }
      ],
      "name": "CygnusComplexRewarder__CygPerBlockExceedsLimit",
      "type": "error"
    },
    {
      "inputs": [],
      "name": "CygnusComplexRewarder__InvalidTotalWeight",
      "type": "error"
    },
    {
      "inputs": [
        {
          "internalType": "address",
          "name": "admin",
          "type": "address"
        },
        {
          "internalType": "address",
          "name": "sender",
          "type": "address"
        }
      ],
      "name": "CygnusComplexRewarder__MsgSenderNotAdmin",
      "type": "error"
    },
    {
      "inputs": [
        {
          "internalType": "address",
          "name": "borrowable",
          "type": "address"
        },
        {
          "internalType": "address",
          "name": "sender",
          "type": "address"
        }
      ],
      "name": "CygnusComplexRewarder__MsgSenderNotBorrowable",
      "type": "error"
    },
    {
      "inputs": [
        {
          "internalType": "address",
          "name": "sender",
          "type": "address"
        },
        {
          "internalType": "address",
          "name": "origin",
          "type": "address"
        }
      ],
      "name": "CygnusComplexRewarder__OnlyEOAAllowed",
      "type": "error"
    },
    {
      "inputs": [
        {
          "internalType": "uint256",
          "name": "shuttleId",
          "type": "uint256"
        },
        {
          "internalType": "address",
          "name": "borrowable",
          "type": "address"
        }
      ],
      "name": "CygnusComplexRewarder__ShuttleAlreadyInitialized",
      "type": "error"
    },
    {
      "inputs": [
        {
          "internalType": "uint256",
          "name": "shuttleId",
          "type": "uint256"
        },
        {
          "internalType": "address",
          "name": "borrowable",
          "type": "address"
        }
      ],
      "name": "CygnusComplexRewarder__ShuttleNotInitialized",
      "type": "error"
    },
    {
      "inputs": [],
      "name": "ReentrantCall",
      "type": "error"
    },
    {
      "anonymous": false,
      "inputs": [
        {
          "indexed": false,
          "internalType": "uint256",
          "name": "shuttlesLength",
          "type": "uint256"
        },
        {
          "indexed": false,
          "internalType": "address",
          "name": "sender",
          "type": "address"
        },
        {
          "indexed": false,
          "internalType": "uint256",
          "name": "epoch",
          "type": "uint256"
        }
      ],
      "name": "AccelerateTheUniverse",
      "type": "event"
    },
    {
      "anonymous": false,
      "inputs": [
        {
          "indexed": true,
          "internalType": "address",
          "name": "borrowable",
          "type": "address"
        },
        {
          "indexed": true,
          "internalType": "uint256",
          "name": "epoch",
          "type": "uint256"
        },
        {
          "indexed": false,
          "internalType": "address",
          "name": "sender",
          "type": "address"
        },
        {
          "indexed": false,
          "internalType": "uint256",
          "name": "reward",
          "type": "uint256"
        }
      ],
      "name": "CollectReward",
      "type": "event"
    },
    {
      "anonymous": false,
      "inputs": [
        {
          "indexed": false,
          "internalType": "uint256",
          "name": "lastRewardRate",
          "type": "uint256"
        },
        {
          "indexed": false,
          "internalType": "uint256",
          "name": "newRewardRate",
          "type": "uint256"
        }
      ],
      "name": "NewCygPerBlock",
      "type": "event"
    },
    {
      "anonymous": false,
      "inputs": [
        {
          "indexed": false,
          "internalType": "uint256",
          "name": "previousEpoch",
          "type": "uint256"
        },
        {
          "indexed": false,
          "internalType": "uint256",
          "name": "newEpoch",
          "type": "uint256"
        },
        {
          "indexed": false,
          "internalType": "uint256",
          "name": "_oldCygPerBlock",
          "type": "uint256"
        },
        {
          "indexed": false,
          "internalType": "uint256",
          "name": "_newCygPerBlock",
          "type": "uint256"
        }
      ],
      "name": "NewEpoch",
      "type": "event"
    },
    {
      "anonymous": false,
      "inputs": [
        {
          "indexed": true,
          "internalType": "uint256",
          "name": "shuttleId",
          "type": "uint256"
        },
        {
          "indexed": false,
          "internalType": "address",
          "name": "borrowable",
          "type": "address"
        },
        {
          "indexed": false,
          "internalType": "uint256",
          "name": "oldAllocPoint",
          "type": "uint256"
        },
        {
          "indexed": false,
          "internalType": "uint256",
          "name": "newAllocPoint",
          "type": "uint256"
        }
      ],
      "name": "NewShuttleAllocPoint",
      "type": "event"
    },
    {
      "anonymous": false,
      "inputs": [
        {
          "indexed": true,
          "internalType": "uint256",
          "name": "shuttleId",
          "type": "uint256"
        },
        {
          "indexed": true,
          "internalType": "address",
          "name": "borrowable",
          "type": "address"
        },
        {
          "indexed": false,
          "internalType": "uint256",
          "name": "allocPoints",
          "type": "uint256"
        }
      ],
      "name": "NewShuttleReward",
      "type": "event"
    },
    {
      "anonymous": false,
      "inputs": [
        {
          "indexed": true,
          "internalType": "uint256",
          "name": "shuttleId",
          "type": "uint256"
        },
        {
          "indexed": false,
          "internalType": "address",
          "name": "borrowable",
          "type": "address"
        },
        {
          "indexed": false,
          "internalType": "uint256",
          "name": "oldAllocPoint",
          "type": "uint256"
        },
        {
          "indexed": false,
          "internalType": "uint256",
          "name": "currentEpoch",
          "type": "uint256"
        }
      ],
      "name": "RemoveShuttleReward",
      "type": "event"
    },
    {
      "anonymous": false,
      "inputs": [
        {
          "indexed": false,
          "internalType": "address",
          "name": "sender",
          "type": "address"
        },
        {
          "indexed": false,
          "internalType": "uint256",
          "name": "_birth",
          "type": "uint256"
        },
        {
          "indexed": false,
          "internalType": "uint256",
          "name": "_death",
          "type": "uint256"
        },
        {
          "indexed": false,
          "internalType": "uint256",
          "name": "timestamp",
          "type": "uint256"
        }
      ],
      "name": "Supernova",
      "type": "event"
    },
    {
      "anonymous": false,
      "inputs": [
        {
          "indexed": true,
          "internalType": "address",
          "name": "token",
          "type": "address"
        },
        {
          "indexed": true,
          "internalType": "address",
          "name": "sender",
          "type": "address"
        },
        {
          "indexed": false,
          "internalType": "uint256",
          "name": "amount",
          "type": "uint256"
        },
        {
          "indexed": false,
          "internalType": "uint256",
          "name": "currentEpoch",
          "type": "uint256"
        }
      ],
      "name": "SweepToken",
      "type": "event"
    },
    {
      "anonymous": false,
      "inputs": [
        {
          "indexed": true,
          "internalType": "address",
          "name": "borrowable",
          "type": "address"
        },
        {
          "indexed": true,
          "internalType": "address",
          "name": "account",
          "type": "address"
        },
        {
          "indexed": false,
          "internalType": "uint256",
          "name": "balance",
          "type": "uint256"
        },
        {
          "indexed": false,
          "internalType": "uint256",
          "name": "adjustmentFactor",
          "type": "uint256"
        },
        {
          "indexed": false,
          "internalType": "enum ICygnusComplexRewarder.Position",
          "name": "position",
          "type": "uint8"
        }
      ],
      "name": "TrackRewards",
      "type": "event"
    },
    {
      "anonymous": false,
      "inputs": [
        {
          "indexed": true,
          "internalType": "address",
          "name": "borrowable",
          "type": "address"
        },
        {
          "indexed": false,
          "internalType": "uint256",
          "name": "lastRewardTime",
          "type": "uint256"
        },
        {
          "indexed": false,
          "internalType": "uint256",
          "name": "totalShares",
          "type": "uint256"
        },
        {
          "indexed": false,
          "internalType": "uint256",
          "name": "accRewardPerShare",
          "type": "uint256"
        }
      ],
      "name": "UpdateShuttle",
      "type": "event"
    },
    {
      "inputs": [],
      "name": "ACC_PRECISION",
      "outputs": [
        {
          "internalType": "uint256",
          "name": "",
          "type": "uint256"
        }
      ],
      "stateMutability": "view",
      "type": "function"
    },
    {
      "inputs": [],
      "name": "BLOCKS_PER_EPOCH",
      "outputs": [
        {
          "internalType": "uint256",
          "name": "",
          "type": "uint256"
        }
      ],
      "stateMutability": "view",
      "type": "function"
    },
    {
      "inputs": [],
      "name": "BLOCKS_PER_YEAR",
      "outputs": [
        {
          "internalType": "uint256",
          "name": "",
          "type": "uint256"
        }
      ],
      "stateMutability": "view",
      "type": "function"
    },
    {
      "inputs": [],
      "name": "DURATION",
      "outputs": [
        {
          "internalType": "uint256",
          "name": "",
          "type": "uint256"
        }
      ],
      "stateMutability": "view",
      "type": "function"
    },
    {
      "inputs": [],
      "name": "MAX_CYG_PER_BLOCK",
      "outputs": [
        {
          "internalType": "uint256",
          "name": "",
          "type": "uint256"
        }
      ],
      "stateMutability": "view",
      "type": "function"
    },
    {
      "inputs": [],
      "name": "REDUCTION_FACTOR_PER_EPOCH",
      "outputs": [
        {
          "internalType": "uint256",
          "name": "",
          "type": "uint256"
        }
      ],
      "stateMutability": "view",
      "type": "function"
    },
    {
      "inputs": [],
      "name": "SHARES_PRECISION",
      "outputs": [
        {
          "internalType": "uint256",
          "name": "",
          "type": "uint256"
        }
      ],
      "stateMutability": "view",
      "type": "function"
    },
    {
      "inputs": [],
      "name": "TOTAL_EPOCHS",
      "outputs": [
        {
          "internalType": "uint256",
          "name": "",
          "type": "uint256"
        }
      ],
      "stateMutability": "view",
      "type": "function"
    },
    {
      "inputs": [],
      "name": "accelerateTheUniverse",
      "outputs": [],
      "stateMutability": "nonpayable",
      "type": "function"
    },
    {
      "inputs": [
        {
          "internalType": "uint256",
          "name": "shuttleId",
          "type": "uint256"
        },
        {
          "internalType": "uint256",
          "name": "allocPoint",
          "type": "uint256"
        }
      ],
      "name": "adjustShuttleRewards",
      "outputs": [],
      "stateMutability": "nonpayable",
      "type": "function"
    },
    {
      "inputs": [],
      "name": "advanceEpoch",
      "outputs": [],
      "stateMutability": "nonpayable",
      "type": "function"
    },
    {
      "inputs": [
        {
          "internalType": "uint256",
          "name": "",
          "type": "uint256"
        }
      ],
      "name": "allShuttles",
      "outputs": [
        {
          "internalType": "address",
          "name": "",
          "type": "address"
        }
      ],
      "stateMutability": "view",
      "type": "function"
    },
    {
      "inputs": [],
      "name": "birth",
      "outputs": [
        {
          "internalType": "uint256",
          "name": "",
          "type": "uint256"
        }
      ],
      "stateMutability": "view",
      "type": "function"
    },
    {
      "inputs": [],
      "name": "blocksThisEpoch",
      "outputs": [
        {
          "internalType": "uint256",
          "name": "",
          "type": "uint256"
        }
      ],
      "stateMutability": "view",
      "type": "function"
    },
    {
      "inputs": [],
      "name": "blocksUntilNextEpoch",
      "outputs": [
        {
          "internalType": "uint256",
          "name": "",
          "type": "uint256"
        }
      ],
      "stateMutability": "view",
      "type": "function"
    },
    {
      "inputs": [],
      "name": "blocksUntilSupernova",
      "outputs": [
        {
          "internalType": "uint256",
          "name": "",
          "type": "uint256"
        }
      ],
      "stateMutability": "view",
      "type": "function"
    },
    {
      "inputs": [],
      "name": "borrowRewardsWeight",
      "outputs": [
        {
          "internalType": "uint256",
          "name": "",
          "type": "uint256"
        }
      ],
      "stateMutability": "view",
      "type": "function"
    },
    {
      "inputs": [
        {
          "internalType": "uint256",
          "name": "epoch",
          "type": "uint256"
        }
      ],
      "name": "calculateCygPerBlock",
      "outputs": [
        {
          "internalType": "uint256",
          "name": "rewardRate",
          "type": "uint256"
        }
      ],
      "stateMutability": "view",
      "type": "function"
    },
    {
      "inputs": [
        {
          "internalType": "uint256",
          "name": "epoch",
          "type": "uint256"
        }
      ],
      "name": "calculateEpochRewards",
      "outputs": [
        {
          "internalType": "uint256",
          "name": "rewards",
          "type": "uint256"
        }
      ],
      "stateMutability": "view",
      "type": "function"
    },
    {
      "inputs": [
        {
          "internalType": "address",
          "name": "borrowable",
          "type": "address"
        },
        {
          "internalType": "enum ICygnusComplexRewarder.Position",
          "name": "position",
          "type": "uint8"
        },
        {
          "internalType": "address",
          "name": "to",
          "type": "address"
        }
      ],
      "name": "collect",
      "outputs": [],
      "stateMutability": "nonpayable",
      "type": "function"
    },
    {
      "inputs": [
        {
          "internalType": "enum ICygnusComplexRewarder.Position",
          "name": "position",
          "type": "uint8"
        },
        {
          "internalType": "address",
          "name": "to",
          "type": "address"
        }
      ],
      "name": "collectCygAll",
      "outputs": [],
      "stateMutability": "nonpayable",
      "type": "function"
    },
    {
      "inputs": [],
      "name": "currentEpochRewards",
      "outputs": [
        {
          "internalType": "uint256",
          "name": "",
          "type": "uint256"
        }
      ],
      "stateMutability": "view",
      "type": "function"
    },
    {
      "inputs": [],
      "name": "cygPerBlock",
      "outputs": [
        {
          "internalType": "uint256",
          "name": "",
          "type": "uint256"
        }
      ],
      "stateMutability": "view",
      "type": "function"
    },
    {
      "inputs": [],
      "name": "cygToken",
      "outputs": [
        {
          "internalType": "address",
          "name": "",
          "type": "address"
        }
      ],
      "stateMutability": "view",
      "type": "function"
    },
    {
      "inputs": [],
      "name": "death",
      "outputs": [
        {
          "internalType": "uint256",
          "name": "",
          "type": "uint256"
        }
      ],
      "stateMutability": "view",
      "type": "function"
    },
    {
      "inputs": [],
      "name": "doomSwitch",
      "outputs": [
        {
          "internalType": "bool",
          "name": "",
          "type": "bool"
        }
      ],
      "stateMutability": "view",
      "type": "function"
    },
    {
      "inputs": [
        {
          "internalType": "uint256",
          "name": "epoch",
          "type": "uint256"
        }
      ],
      "name": "emissionsCurve",
      "outputs": [
        {
          "internalType": "uint256",
          "name": "",
          "type": "uint256"
        }
      ],
      "stateMutability": "pure",
      "type": "function"
    },
    {
      "inputs": [],
      "name": "epochProgression",
      "outputs": [
        {
          "internalType": "uint256",
          "name": "",
          "type": "uint256"
        }
      ],
      "stateMutability": "view",
      "type": "function"
    },
    {
      "inputs": [],
      "name": "epochRewardsPacing",
      "outputs": [
        {
          "internalType": "uint256",
          "name": "",
          "type": "uint256"
        }
      ],
      "stateMutability": "view",
      "type": "function"
    },
    {
      "inputs": [],
      "name": "getBlockTimestamp",
      "outputs": [
        {
          "internalType": "uint256",
          "name": "",
          "type": "uint256"
        }
      ],
      "stateMutability": "view",
      "type": "function"
    },
    {
      "inputs": [],
      "name": "getCurrentEpoch",
      "outputs": [
        {
          "internalType": "uint256",
          "name": "currentEpoch",
          "type": "uint256"
        }
      ],
      "stateMutability": "view",
      "type": "function"
    },
    {
      "inputs": [
        {
          "internalType": "uint256",
          "name": "",
          "type": "uint256"
        }
      ],
      "name": "getEpochInfo",
      "outputs": [
        {
          "internalType": "uint256",
          "name": "epoch",
          "type": "uint256"
        },
        {
          "internalType": "uint256",
          "name": "cygPerBlock",
          "type": "uint256"
        },
        {
          "internalType": "uint256",
          "name": "totalRewards",
          "type": "uint256"
        },
        {
          "internalType": "uint256",
          "name": "totalClaimed",
          "type": "uint256"
        },
        {
          "internalType": "uint256",
          "name": "start",
          "type": "uint256"
        },
        {
          "internalType": "uint256",
          "name": "end",
          "type": "uint256"
        }
      ],
      "stateMutability": "view",
      "type": "function"
    },
    {
      "inputs": [],
      "name": "getRewardWeights",
      "outputs": [
        {
          "internalType": "uint256",
          "name": "borrowers",
          "type": "uint256"
        },
        {
          "internalType": "uint256",
          "name": "lenders",
          "type": "uint256"
        }
      ],
      "stateMutability": "view",
      "type": "function"
    },
    {
      "inputs": [
        {
          "internalType": "address",
          "name": "",
          "type": "address"
        },
        {
          "internalType": "enum ICygnusComplexRewarder.Position",
          "name": "",
          "type": "uint8"
        }
      ],
      "name": "getShuttleInfo",
      "outputs": [
        {
          "internalType": "bool",
          "name": "active",
          "type": "bool"
        },
        {
          "internalType": "uint256",
          "name": "shuttleId",
          "type": "uint256"
        },
        {
          "internalType": "uint256",
          "name": "totalShares",
          "type": "uint256"
        },
        {
          "internalType": "uint256",
          "name": "accRewardPerShare",
          "type": "uint256"
        },
        {
          "internalType": "uint256",
          "name": "lastRewardTime",
          "type": "uint256"
        },
        {
          "internalType": "uint256",
          "name": "allocPoint",
          "type": "uint256"
        },
        {
          "internalType": "address",
          "name": "bonusRewarder",
          "type": "address"
        }
      ],
      "stateMutability": "view",
      "type": "function"
    },
    {
      "inputs": [
        {
          "internalType": "address",
          "name": "",
          "type": "address"
        },
        {
          "internalType": "enum ICygnusComplexRewarder.Position",
          "name": "",
          "type": "uint8"
        },
        {
          "internalType": "address",
          "name": "",
          "type": "address"
        }
      ],
      "name": "getUserInfo",
      "outputs": [
        {
          "internalType": "uint256",
          "name": "shares",
          "type": "uint256"
        },
        {
          "internalType": "int256",
          "name": "rewardDebt",
          "type": "int256"
        }
      ],
      "stateMutability": "view",
      "type": "function"
    },
    {
      "inputs": [],
      "name": "hangar18",
      "outputs": [
        {
          "internalType": "contract IHangar18",
          "name": "",
          "type": "address"
        }
      ],
      "stateMutability": "view",
      "type": "function"
    },
    {
      "inputs": [
        {
          "internalType": "uint256",
          "name": "shuttleId",
          "type": "uint256"
        },
        {
          "internalType": "uint256",
          "name": "allocPoint",
          "type": "uint256"
        }
      ],
      "name": "initializeShuttleRewards",
      "outputs": [],
      "stateMutability": "nonpayable",
      "type": "function"
    },
    {
      "inputs": [],
      "name": "lastEpochTime",
      "outputs": [
        {
          "internalType": "uint256",
          "name": "",
          "type": "uint256"
        }
      ],
      "stateMutability": "view",
      "type": "function"
    },
    {
      "inputs": [],
      "name": "name",
      "outputs": [
        {
          "internalType": "string",
          "name": "",
          "type": "string"
        }
      ],
      "stateMutability": "view",
      "type": "function"
    },
    {
      "inputs": [],
      "name": "nextEpochRewards",
      "outputs": [
        {
          "internalType": "uint256",
          "name": "",
          "type": "uint256"
        }
      ],
      "stateMutability": "view",
      "type": "function"
    },
    {
      "inputs": [
        {
          "internalType": "address",
          "name": "borrowable",
          "type": "address"
        },
        {
          "internalType": "enum ICygnusComplexRewarder.Position",
          "name": "position",
          "type": "uint8"
        },
        {
          "internalType": "address",
          "name": "borrower",
          "type": "address"
        }
      ],
      "name": "pendingCyg",
      "outputs": [
        {
          "internalType": "uint256",
          "name": "pending",
          "type": "uint256"
        }
      ],
      "stateMutability": "view",
      "type": "function"
    },
    {
      "inputs": [],
      "name": "previousEpochRewards",
      "outputs": [
        {
          "internalType": "uint256",
          "name": "",
          "type": "uint256"
        }
      ],
      "stateMutability": "view",
      "type": "function"
    },
    {
      "inputs": [
        {
          "internalType": "uint256",
          "name": "shuttleId",
          "type": "uint256"
        },
        {
          "internalType": "address",
          "name": "bonusRewarder",
          "type": "address"
        }
      ],
      "name": "setBonusRewarder",
      "outputs": [],
      "stateMutability": "nonpayable",
      "type": "function"
    },
    {
      "inputs": [
        {
          "internalType": "uint256",
          "name": "_cygPerBlock",
          "type": "uint256"
        }
      ],
      "name": "setCygPerBlock",
      "outputs": [],
      "stateMutability": "nonpayable",
      "type": "function"
    },
    {
      "inputs": [],
      "name": "setDoomSwitch",
      "outputs": [],
      "stateMutability": "nonpayable",
      "type": "function"
    },
    {
      "inputs": [
        {
          "internalType": "uint256",
          "name": "_borrowRewardsWeight",
          "type": "uint256"
        }
      ],
      "name": "setRewardWeights",
      "outputs": [],
      "stateMutability": "nonpayable",
      "type": "function"
    },
    {
      "inputs": [],
      "name": "shuttlesLength",
      "outputs": [
        {
          "internalType": "uint256",
          "name": "",
          "type": "uint256"
        }
      ],
      "stateMutability": "view",
      "type": "function"
    },
    {
      "inputs": [],
      "name": "supernova",
      "outputs": [],
      "stateMutability": "nonpayable",
      "type": "function"
    },
    {
      "inputs": [
        {
          "internalType": "address",
          "name": "token",
          "type": "address"
        }
      ],
      "name": "sweepToken",
      "outputs": [],
      "stateMutability": "nonpayable",
      "type": "function"
    },
    {
      "inputs": [],
      "name": "totalAllocPoint",
      "outputs": [
        {
          "internalType": "uint256",
          "name": "",
          "type": "uint256"
        }
      ],
      "stateMutability": "view",
      "type": "function"
    },
    {
      "inputs": [],
      "name": "totalCygClaimed",
      "outputs": [
        {
          "internalType": "uint256",
          "name": "claimed",
          "type": "uint256"
        }
      ],
      "stateMutability": "view",
      "type": "function"
    },
    {
      "inputs": [],
      "name": "totalCygRewards",
      "outputs": [
        {
          "internalType": "uint256",
          "name": "",
          "type": "uint256"
        }
      ],
      "stateMutability": "view",
      "type": "function"
    },
    {
      "inputs": [],
      "name": "totalProgression",
      "outputs": [
        {
          "internalType": "uint256",
          "name": "",
          "type": "uint256"
        }
      ],
      "stateMutability": "view",
      "type": "function"
    },
    {
      "inputs": [
        {
          "internalType": "address",
          "name": "account",
          "type": "address"
        },
        {
          "internalType": "uint256",
          "name": "balance",
          "type": "uint256"
        },
        {
          "internalType": "uint256",
          "name": "adjustmentFactor",
          "type": "uint256"
        },
        {
          "internalType": "enum ICygnusComplexRewarder.Position",
          "name": "position",
          "type": "uint8"
        }
      ],
      "name": "trackRewards",
      "outputs": [],
      "stateMutability": "nonpayable",
      "type": "function"
    },
    {
      "inputs": [
        {
          "internalType": "address",
          "name": "borrowable",
          "type": "address"
        }
      ],
      "name": "updateShuttle",
      "outputs": [],
      "stateMutability": "nonpayable",
      "type": "function"
    },
    {
      "inputs": [],
      "name": "version",
      "outputs": [
        {
          "internalType": "string",
          "name": "",
          "type": "string"
        }
      ],
      "stateMutability": "view",
      "type": "function"
    }
  ],
  "bytecode": "0x60406101208152346200043f576200369a908138039182620000218162000444565b93849283396060938491810103126200043f578051926001600160a01b039182851685036200043f57602081015192831683036200043f578301519360016000938160ff19865416178555670b1a2bc2ec50000060085561010096875284928593865b80156200025357505062140cd0809404918260055567069789fbbc4f800080841162000236575060e052608052426007554260a052630784ce004201804211620002225760c0528242019182421162000222578382029382850414821517156200022257608094927fcc53a96dddb8d3b8710c4932d9e90652a4eaef0bf4c37a13dc4d806e1b54cb4d9694926005926200011f60c062000444565b94878652602086019283528a8601908152868601918883528987019342855260a0880195865289805260026020528c8a20975188555190870155516002860155516003850155516004840155519101556005549085519280845280602085015286840152820152a1516131f39182620004a783396080518281816104d80152818161070201528181610cb501528181610f86015281816128100152612fd7015260a0518281816105ab015281816108b40152818161246f015261286f015260c05182818161112d015281816111fd015281816124400152612895015260e0518281816117ff01528181611ca80152612c1a01525181818161060b01526125a40152f35b634e487b7160e01b86526011600452602486fd5b604490848a519163c3af7cc760e01b835260048301526024820152fd5b909450885194808603958611620002ff57818703958787116200042b57670de0b6b3a76400009689905b808210620003d057505086670de0b6b3a764000003670de0b6b3a76400008111620003bc5786908a986658d15e1762800093848102600019868309958482881083018089039814918882111594099682881190039682039562000313575b50505050505050858101809111620002ff57620002f9909162000480565b62000084565b634e487b7160e01b88526011600452602488fd5b909192939495969b506200038b57506200037e57670de0b6b3a763ffff190181168091046002808260030218808302820302808302820302808302820302808302820302808302820302809202900302928782808d03040102910417029438808080808080620002db565b63ae47f7028b526004601cfd5b935050909250670de0b6b3a764000014620003af57049438808080808080620002db565b63ae47f70289526004601cfd5b634e487b7160e01b8a52601160045260248afd5b9097670d87e55590018000907812eb73eae4c8b0077db7b119a3928413fff44d230654ac05ac811182026200041e576200041791670de0b6b3a76400009102049862000480565b906200027d565b63bac65e5b8c526004601cfd5b634e487b7160e01b89526011600452602489fd5b600080fd5b6040519190601f01601f191682016001600160401b038111838210176200046a57604052565b634e487b7160e01b600052604160045260246000fd5b6000198114620004905760010190565b634e487b7160e01b600052601160045260246000fdfe6040608081526004908136101561001557600080fd5b6000803560e01c806301bac4c6146120e557806304d4e9bd1461208f57806306fdde03146120205780630bfc4af914611fc6578063135022c214611f4a57806317caf6f114611f0d5780631ad4c8c314611e9e5780631bafed5214611e265780631be0528914611de95780631be1956014611c055780631d5e8e5014611a465780631f3adc0f14611a0a57806328419d62146119ca57806332fcd9661461197c5780633cf80e6c146118fe5780634a91f2b1146118785780634f3d90b1146118235780634f573686146117b45780634fcc55751461173b5780635104517f146116c75780635303654f1461160957806353cde488146115cc5780635493b5d61461158f57806354fd4d501461151c57806358322a8e146114535780635ccb14ac146113ca5780635d8beace1461135b5780635de7fcd0146113155780635f15c3c9146112db57806361480eec146112665780636673fd97146112205780636fa42261146111c757806372e127cb1461118a578063796b89b9146111515780637c4941ec146110f457806389c614b8146110b75780638ecf3b4514610eb257806393c3677b14610bed5780639d3bbe6e14610b255780639e81b63414610ae5578063abfdf70a14610aa8578063ac9462f514610a69578063b97dd9e214610a2e578063bb014b8214610918578063c1f1e5ae146108d7578063c81ba8f01461087e578063cb87f7f31461066b578063d37db1d21461062e578063d4f7286b146105d5578063d797c4c31461056b578063e6c5b8ea146104fc578063e8a24e1d1461048d578063f126d9641461044b578063f2b128a414610359578063f6503e6c146102ce5763fd59c2991461028857600080fd5b346102cb5760207ffffffffffffffffffffffffffffffffffffffffffffffffffffffffffffffffc3601126102cb57506102c46020923561259c565b9051908152f35b80fd5b5090346103555760207ffffffffffffffffffffffffffffffffffffffffffffffffffffffffffffffffc36011261035557610309833561259c565b9162140cd092838102938185041490151715610329576020838351908152f35b806011857f4e487b71000000000000000000000000000000000000000000000000000000006024945252fd5b5080fd5b5091903461044757827ffffffffffffffffffffffffffffffffffffffffffffffffffffffffffffffffc3601126104475782549160ff8316156104205750907f43604600d5d5b743877b9625896fea0414a17136bbe657753a96dc6f80ede1b960606001937fffffffffffffffffffffffffffffffffffffffffffffffffffffffffffffff0080941686556103ec612eec565b6103f4612637565b6103fc6129d9565b84549061040761243e565b908051928352336020840152820152a182541617815580f35b90517f37ed32e8000000000000000000000000000000000000000000000000000000008152fd5b8280fd5b50903461035557817ffffffffffffffffffffffffffffffffffffffffffffffffffffffffffffffffc3601126103555760209060ff6009541690519015158152f35b50903461035557817ffffffffffffffffffffffffffffffffffffffffffffffffffffffffffffffffc360112610355576020905173ffffffffffffffffffffffffffffffffffffffff7f0000000000000000000000000000000000000000000000000000000000000000168152f35b5082346103555760807ffffffffffffffffffffffffffffffffffffffffffffffffffffffffffffffffc360112610355573573ffffffffffffffffffffffffffffffffffffffff8116810361035557606435600281101561044757610568916044359060243590612d2e565b80f35b50903461035557817ffffffffffffffffffffffffffffffffffffffffffffffffffffffffffffffffc360112610355576020906102c4630784ce006105d07f000000000000000000000000000000000000000000000000000000000000000042612431565b6130e7565b50903461035557817ffffffffffffffffffffffffffffffffffffffffffffffffffffffffffffffffc36011261035557602090517f00000000000000000000000000000000000000000000000000000000000000008152f35b50903461035557817ffffffffffffffffffffffffffffffffffffffffffffffffffffffffffffffffc36011261035557602090516301e133808152f35b50913461044757817ffffffffffffffffffffffffffffffffffffffffffffffffffffffffffffffffc36011261044757803591602435906106aa612637565b6106b26129d9565b6106ba612f93565b80517f1ad4c8c3000000000000000000000000000000000000000000000000000000008152848482015273ffffffffffffffffffffffffffffffffffffffff60a082602481847f0000000000000000000000000000000000000000000000000000000000000000165afa91821561087457879261083f575b50811693848752600360205261074b6001848920612328565b9160ff835416156107ee5750509183916060937f9436a68f01cf8a4f756c053a98d6d88cdbd763a2d8ad77273779d054e2b82eef9588526003602052600561079589848120612328565b9101906107db6107ad6005845493019283549061258f565b926107c3866107be86600654612431565b61258f565b6006556107d26008548761309e565b80915585612431565b905581519384526020840152820152a280f35b83517f316e864300000000000000000000000000000000000000000000000000000000815291820187815273ffffffffffffffffffffffffffffffffffffffff909116602082015281906040010390fd5b61086191925060a03d811161086d575b61085981836121af565b810190612f2c565b50509150509038610732565b503d61084f565b83513d89823e3d90fd5b50903461035557817ffffffffffffffffffffffffffffffffffffffffffffffffffffffffffffffffc36011261035557602090517f00000000000000000000000000000000000000000000000000000000000000008152f35b50903461035557817ffffffffffffffffffffffffffffffffffffffffffffffffffffffffffffffffc360112610355576020905167069789fbbc4f80008152f35b5091903461044757807ffffffffffffffffffffffffffffffffffffffffffffffffffffffffffffffffc360112610447578135916002831015610a2a5760243573ffffffffffffffffffffffffffffffffffffffff918282168203610a265785549360ff851615610a005750507fffffffffffffffffffffffffffffffffffffffffffffffffffffffffffffff0080931685556109b3612637565b6109bb6129d9565b6001936109c785612960565b9283519386885b8681106109e15789828982541617815580f35b6109f88686866109f185886129c5565b5116612b65565b0187906109ce565b517f37ed32e8000000000000000000000000000000000000000000000000000000008152fd5b8580fd5b8380fd5b50903461035557817ffffffffffffffffffffffffffffffffffffffffffffffffffffffffffffffffc360112610355576020906102c461243e565b50903461035557817ffffffffffffffffffffffffffffffffffffffffffffffffffffffffffffffffc360112610355576020906102c460075442612431565b50903461035557817ffffffffffffffffffffffffffffffffffffffffffffffffffffffffffffffffc360112610355576020906008549051908152f35b50903461035557817ffffffffffffffffffffffffffffffffffffffffffffffffffffffffffffffffc36011261035557610309610b2061243e565b61259c565b5091903461044757807ffffffffffffffffffffffffffffffffffffffffffffffffffffffffffffffffc36011261044757813573ffffffffffffffffffffffffffffffffffffffff90818116809103610be957602435906002821015610a2657908386610b9b9360e09852600360205220612328565b9060ff82541693600183015493600284015490600385015492850154936006600587015496015416958151971515885260208801528601526060850152608084015260a083015260c0820152f35b8480fd5b50913461044757817ffffffffffffffffffffffffffffffffffffffffffffffffffffffffffffffffc36011261044757825490803560243560ff841615610e8a577fffffffffffffffffffffffffffffffffffffffffffffffffffffffffffffff008094168655610c5c612637565b610c646129d9565b610c6c612f93565b8451947f1ad4c8c3000000000000000000000000000000000000000000000000000000008652828487015273ffffffffffffffffffffffffffffffffffffffff60a087602481847f0000000000000000000000000000000000000000000000000000000000000000165afa968715610e80578897610e5b575b50808716948589526003602052600197610d0189858c20612328565b908960ff835416151514610e095750868a5260036020526005610d6b81610d2a8d888120612328565b93610d378960065461258f565b6006558c8c8254161781558c8c865416178555898d820155898d860155610d606008548a61309e565b918291015587612431565b91015587549068010000000000000000821015610ddd5750917f68bea3f037520d478c14fd27a27947249aade51810b62999af0776bbd0097b96939186610db9858b602097018c558b61236f565b909283549160031b90811b9283911b1691191617905551908152a382541617815580f35b8960416024927f4e487b7100000000000000000000000000000000000000000000000000000000835252fd5b84517fc5b4745600000000000000000000000000000000000000000000000000000000815280840188815273ffffffffffffffffffffffffffffffffffffffff90921660208301529081906040010390fd5b610e7491975060a03d811161086d5761085981836121af565b50509150509538610ce5565b82513d8a823e3d90fd5b8285517f37ed32e8000000000000000000000000000000000000000000000000000000008152fd5b50823461035557827ffffffffffffffffffffffffffffffffffffffffffffffffffffffffffffffffc3601126103555780356024359073ffffffffffffffffffffffffffffffffffffffff92838316809303610be95784549360ff85161561108f577fffffffffffffffffffffffffffffffffffffffffffffffffffffffffffffff008095168655610f42612637565b610f4a6129d9565b610f52612f93565b8651907f1ad4c8c3000000000000000000000000000000000000000000000000000000008252838383015260a082602481847f0000000000000000000000000000000000000000000000000000000000000000165afa918215611085578792611060575b50811686526003602052610fcd6001888820612328565b9660ff88541615611011576006880180547fffffffffffffffffffffffff000000000000000000000000000000000000000016861790558654861660011787558680f35b517f316e864300000000000000000000000000000000000000000000000000000000815291820192835273ffffffffffffffffffffffffffffffffffffffff1660208301529081906040010390fd5b61107991925060a03d811161086d5761085981836121af565b50509150509088610fb6565b88513d89823e3d90fd5b5085517f37ed32e8000000000000000000000000000000000000000000000000000000008152fd5b50903461035557817ffffffffffffffffffffffffffffffffffffffffffffffffffffffffffffffffc360112610355576020906007549051908152f35b50903461035557817ffffffffffffffffffffffffffffffffffffffffffffffffffffffffffffffffc360112610355576020906102c4427f0000000000000000000000000000000000000000000000000000000000000000612431565b50903461035557817ffffffffffffffffffffffffffffffffffffffffffffffffffffffffffffffffc3601126103555760209051428152f35b50346102cb5760207ffffffffffffffffffffffffffffffffffffffffffffffffffffffffffffffffc3601126102cb57506102c4602092356124ca565b50903461035557817ffffffffffffffffffffffffffffffffffffffffffffffffffffffffffffffffc36011261035557602090517f00000000000000000000000000000000000000000000000000000000000000008152f35b50903461035557817ffffffffffffffffffffffffffffffffffffffffffffffffffffffffffffffffc360112610355576020906102c462140cd06105d060075442612431565b50346102cb57807ffffffffffffffffffffffffffffffffffffffffffffffffffffffffffffffffc3601126102cb5761129d612637565b6112a56129d9565b6112ad612f93565b60017fffffffffffffffffffffffffffffffffffffffffffffffffffffffffffffff00600954161760095580f35b50903461035557817ffffffffffffffffffffffffffffffffffffffffffffffffffffffffffffffffc360112610355576020905160608152f35b50903461035557817ffffffffffffffffffffffffffffffffffffffffffffffffffffffffffffffffc36011261035557602090516c010000000000000000000000008152f35b5091346104475761136c36826122f5565b9285929192549460ff861615610a0057866001876113c18888887fffffffffffffffffffffffffffffffffffffffffffffffffffffffffffffff0080951687556113b4612637565b6113bc6129d9565b612b65565b82541617815580f35b5091346104475760207ffffffffffffffffffffffffffffffffffffffffffffffffffffffffffffffffc36011261044757803591611406612637565b61140e6129d9565b611416612f93565b670de0b6b3a7640000831161142d57505060085580f35b517fa23de17f000000000000000000000000000000000000000000000000000000008152fd5b50346102cb57807ffffffffffffffffffffffffffffffffffffffffffffffffffffffffffffffffc3601126102cb5761148a61243e565b8061149c575060209250905b51908152f35b7fffffffffffffffffffffffffffffffffffffffffffffffffffffffffffffffff81019081116114f0576114cf9061259c565b9062140cd09182810292818404149015171561032957506020925090611496565b6024826011867f4e487b7100000000000000000000000000000000000000000000000000000000835252fd5b50903461035557817ffffffffffffffffffffffffffffffffffffffffffffffffffffffffffffffffc3601126103555761158b9061155a600561221f565b907f312e302e3000000000000000000000000000000000000000000000000000000060208301525191829182612269565b0390f35b50903461035557817ffffffffffffffffffffffffffffffffffffffffffffffffffffffffffffffffc360112610355576020906005549051908152f35b50903461035557817ffffffffffffffffffffffffffffffffffffffffffffffffffffffffffffffffc360112610355576020906001549051908152f35b5091346104475760207ffffffffffffffffffffffffffffffffffffffffffffffffffffffffffffffffc3601126104475780359073ffffffffffffffffffffffffffffffffffffffff82168203610a2a5783549260ff841615610a0057846001856116bd83877fffffffffffffffffffffffffffffffffffffffffffffffffffffffffffffff00809416825561169d612eec565b6116a5612637565b6116ad6129d9565b6116b78582612a44565b50612a44565b5082541617815580f35b50903461035557817ffffffffffffffffffffffffffffffffffffffffffffffffffffffffffffffffc360112610355576102c460209261173561171362140cd06105d060075442612431565b61171b61243e565b83526002865260038560028186200154942001549261309e565b906130e7565b50903461035557817ffffffffffffffffffffffffffffffffffffffffffffffffffffffffffffffffc36011261035557819061177561243e565b83905b8082111561178a576020848451908152f35b90926117a86117ae918587526002602052600385882001549061258f565b9361249d565b90611778565b50903461035557817ffffffffffffffffffffffffffffffffffffffffffffffffffffffffffffffffc360112610355576020905173ffffffffffffffffffffffffffffffffffffffff7f0000000000000000000000000000000000000000000000000000000000000000168152f35b50903461035557817ffffffffffffffffffffffffffffffffffffffffffffffffffffffffffffffffc3601126103555761185f60075442612431565b9162140cd0928303928311610329576020838351908152f35b50913461044757827ffffffffffffffffffffffffffffffffffffffffffffffffffffffffffffffffc3601126104475782549160ff831615610a0057836001847fffffffffffffffffffffffffffffffffffffffffffffffffffffffffffffff0080911683556118e6612eec565b6118ee612637565b6118f66129d9565b6113c16127ae565b50913461044757827ffffffffffffffffffffffffffffffffffffffffffffffffffffffffffffffffc3601126104475782549160ff831615610a0057836001847fffffffffffffffffffffffffffffffffffffffffffffffffffffffffffffff00809116835561196c612eec565b611974612637565b6113c16129d9565b50903461035557817ffffffffffffffffffffffffffffffffffffffffffffffffffffffffffffffffc3601126103555760209051740100000000000000000000000000000000000000008152f35b50903461035557817ffffffffffffffffffffffffffffffffffffffffffffffffffffffffffffffffc36011261035557602090516658d15e176280008152f35b50903461035557817ffffffffffffffffffffffffffffffffffffffffffffffffffffffffffffffffc360112610355576020905162140cd08152f35b50913461044757611a5736826122f5565b929173ffffffffffffffffffffffffffffffffffffffff80911692838752602096600388528387822090611a8a91612328565b95875193611a9960e0866121af565b875460ff161515855260018801548a86015260028801549589860196875260038901549760608701988952858a015496608081019788528360058c01549b60a083019c8d5260060154169060c001528452848b5289842090611afa91612328565b91168252885286812095875196611b1189896121af565b805488526001015495898801968752519451935180421180611bfc575b611b4f575b89896102c489611b448a8d516123b6565b60a01c90519061261e565b611b8091611b6f611b66611b77939a999a42612431565b600554906123b6565b9051906123b6565b600654906123f8565b918260a01b92808404740100000000000000000000000000000000000000001490151715611bd0575050611b4492611bc06102c4969593611bc6936123f8565b9061258f565b9181943880611b33565b9060116024927f4e487b7100000000000000000000000000000000000000000000000000000000835252fd5b50841515611b2e565b50823461035557602090817ffffffffffffffffffffffffffffffffffffffffffffffffffffffffffffffffc3601126104475780359073ffffffffffffffffffffffffffffffffffffffff9283831691828403610a265785549460ff861615611dc1577fffffffffffffffffffffffffffffffffffffffffffffffffffffffffffffff008096168755611c96612637565b611c9e6129d9565b611ca6612f93565b7f00000000000000000000000000000000000000000000000000000000000000009081168414611d6c57506370a0823186523082528186604460168284806024601c8c5afa601f3d11168551029833601a5289603a5269a9059cbb00000000000082525af13d156001885114171615611d61575084957fee2522ca264e96c7cef76269664e2a4cea70ad76b78ee5b01d0587798a0a72d691600196603a52611d4c61243e565b9082519586528501523393a382541617815580f35b6390b8ec188652601cfd5b87517fef52f72d00000000000000000000000000000000000000000000000000000000815273ffffffffffffffffffffffffffffffffffffffff80871693820193845290911660208301529081906040010390fd5b5086517f37ed32e8000000000000000000000000000000000000000000000000000000008152fd5b50903461035557817ffffffffffffffffffffffffffffffffffffffffffffffffffffffffffffffffc3601126103555760209051630784ce008152f35b50903461035557817ffffffffffffffffffffffffffffffffffffffffffffffffffffffffffffffffc36011261035557611e5e61243e565b60018101809111611e72576103099061259c565b6024836011867f4e487b7100000000000000000000000000000000000000000000000000000000835252fd5b5091346104475760207ffffffffffffffffffffffffffffffffffffffffffffffffffffffffffffffffc3601126104475735916001548310156102cb575073ffffffffffffffffffffffffffffffffffffffff611efe602093600161236f565b92905490519260031b1c168152f35b50903461035557817ffffffffffffffffffffffffffffffffffffffffffffffffffffffffffffffffc360112610355576020906006549051908152f35b509190346104475760207ffffffffffffffffffffffffffffffffffffffffffffffffffffffffffffffffc360112610447578060c09383358152600260205220805492600182015492600283015490600560038501549385015494015494815196875260208701528501526060840152608083015260a0820152f35b50913461044757916120058293611fdd36826122f5565b93919273ffffffffffffffffffffffffffffffffffffffff8094168652602052858520612328565b91168252602052206001815491015482519182526020820152f35b50903461035557817ffffffffffffffffffffffffffffffffffffffffffffffffffffffffffffffffc3601126103555761158b9061205e601b61221f565b907f4379676e757344414f3a20436f6d706c6578205265776172646572000000000060208301525191829182612269565b50823461035557817ffffffffffffffffffffffffffffffffffffffffffffffffffffffffffffffffc3601126103555760085491670de0b6b3a764000091838303928311611bd057505082519182526020820152f35b5091346104475760207ffffffffffffffffffffffffffffffffffffffffffffffffffffffffffffffffc36011261044757803590612121612637565b6121296129d9565b612131612f93565b67069789fbbc4f800080831161217b57847f3ea86743bc8b6977a0693f6611ad7256d6ec1e3f996c6cba22e146152959ddff8585600554908060055582519182526020820152a180f35b916044928451927fc3af7cc70000000000000000000000000000000000000000000000000000000084528301526024820152fd5b90601f7fffffffffffffffffffffffffffffffffffffffffffffffffffffffffffffffe0910116810190811067ffffffffffffffff8211176121f057604052565b7f4e487b7100000000000000000000000000000000000000000000000000000000600052604160045260246000fd5b9067ffffffffffffffff82116121f0576040519161226560207fffffffffffffffffffffffffffffffffffffffffffffffffffffffffffffffe0601f84011601846121af565b8252565b60208082528251818301819052939260005b8581106122bb575050507fffffffffffffffffffffffffffffffffffffffffffffffffffffffffffffffe0601f8460006040809697860101520116010190565b81810183015184820160400152820161227b565b359073ffffffffffffffffffffffffffffffffffffffff821682036122f057565b600080fd5b908160609103126122f057612309816122cf565b91602082013560028110156122f05760406123259193016122cf565b90565b90600281101561234057600052602052604060002090565b7f4e487b7100000000000000000000000000000000000000000000000000000000600052602160045260246000fd5b80548210156123875760005260206000200190600090565b7f4e487b7100000000000000000000000000000000000000000000000000000000600052603260045260246000fd5b818102929181159184041417156123c957565b7f4e487b7100000000000000000000000000000000000000000000000000000000600052601160045260246000fd5b8115612402570490565b7f4e487b7100000000000000000000000000000000000000000000000000000000600052601260045260246000fd5b919082039182116123c957565b7f00000000000000000000000000000000000000000000000000000000000000004210156124985762140cd06124947f000000000000000000000000000000000000000000000000000000000000000042612431565b0490565b606090565b7fffffffffffffffffffffffffffffffffffffffffffffffffffffffffffffffff81146123c95760010190565b606003606081116123c957670de0b6b3a764000060009182905b808210612538575050670de0b6b3a76400000390670de0b6b3a7640000821161250b575090565b807f4e487b7100000000000000000000000000000000000000000000000000000000602492526011600452fd5b9091670d87e55590018000907812eb73eae4c8b0077db7b119a3928413fff44d230654ac05ac811182026125825761257c91670de0b6b3a76400009102049261249d565b906124e4565b63bac65e5b85526004601cfd5b919082018092116123c957565b6000908190827f00000000000000000000000000000000000000000000000000000000000000005b828211156125d95750505062140cd091500490565b9091925061261461260e6126076125f08785612431565b6658d15e17628000612601876124ca565b9161312a565b809661258f565b9261249d565b90939291936125c4565b818103929160001380158285131691841216176123c957565b61264a60075462140cd091829142612431565b046126525750565b61265a61243e565b60608110156127835760055461266f8261259c565b6005554260075560009282845260026020526040842042600482015581420180421161275657600582015583815560055480600183015582810292818404149015171561272957600201557fffffffffffffffffffffffffffffffffffffffffffffffffffffffffffffffff82019282841161250b5750916080917fcc53a96dddb8d3b8710c4932d9e90652a4eaef0bf4c37a13dc4d806e1b54cb4d9360055491604051938452602084015260408301526060820152a15b565b6024857f4e487b710000000000000000000000000000000000000000000000000000000081526011600452fd5b6024867f4e487b710000000000000000000000000000000000000000000000000000000081526011600452fd5b50506127276127ae565b519073ffffffffffffffffffffffffffffffffffffffff821682036122f057565b6127b661243e565b906060821061295c575060ff600954161561292d576040517ff851a44000000000000000000000000000000000000000000000000000000000815273ffffffffffffffffffffffffffffffffffffffff91602082600481867f0000000000000000000000000000000000000000000000000000000000000000165afa918215612921576000926128c2575b5060807f3448d68e439b81df30dbd68606f415f65c9eabaaef0aca1ffc0368cc3954c6dc91604051903382527f000000000000000000000000000000000000000000000000000000000000000060208301527f000000000000000000000000000000000000000000000000000000000000000060408301526060820152a116ff5b90916020823d8211612919575b816128dc602093836121af565b810103126102cb575060806129117f3448d68e439b81df30dbd68606f415f65c9eabaaef0aca1ffc0368cc3954c6dc9261278d565b929150612841565b3d91506128cf565b6040513d6000823e3d90fd5b7f4e487b7100000000000000000000000000000000000000000000000000000000600052600160045260246000fd5b9050565b9060405191828154918282526020928383019160005283600020936000905b82821061299557505050612727925003836121af565b855473ffffffffffffffffffffffffffffffffffffffff168452600195860195889550938101939091019061297f565b80518210156123875760209160051b010190565b60018054906129e781612960565b90600091825b8481106129fb575050505050565b612a3f90612a398573ffffffffffffffffffffffffffffffffffffffff612a2e8782612a27878a6129c5565b5116612a44565b50612a2784876129c5565b5061249d565b6129ed565b73ffffffffffffffffffffffffffffffffffffffff612a759193929316928360005260036020526040600020612328565b91600483018054804211612a8857505050565b60028501549081612ad6575b506060907f76e5c786dd7c9c1cd87203f33dbc49d953ff07b99de74baa864f04a0e3b6aa1c9242905560038601546040519142835260208301526040820152a2565b611b77612aeb612af6926005549042036123b6565b6005880154906123b6565b908160a01b918083047401000000000000000000000000000000000000000014901517156123c9577f76e5c786dd7c9c1cd87203f33dbc49d953ff07b99de74baa864f04a0e3b6aa1c92612b4c826060946123f8565b612b5b6003890191825461258f565b9055925090612a94565b9190612b718184612a44565b9073ffffffffffffffffffffffffffffffffffffffff809416926000908482526004602052612ba4604093848420612328565b3383526020526001612bc08484209560038754910154906123b6565b60a01c940193612bd185548261261e565b948515612d085755612be161243e565b958683526002602052600384842001612bfb86825461258f565b90558683526002602052600384842001546002858520015410610447577f00000000000000000000000000000000000000000000000000000000000000001690813b156104475783517f40c10f1900000000000000000000000000000000000000000000000000000000815273ffffffffffffffffffffffffffffffffffffffff91909116600482015260248101859052919081908390604490829084905af18015612cfc5791612ce793917fbc96baf3023d0b9ea3a899e000f15d5f0f7a8b064774c1eed6b4cc63fcbd1b199593612cec575b50505133815260208101919091529081906040820190565b0390a3565b612cf5916121af565b3880612ccf565b508251903d90823e3d90fd5b5050505050505050565b919091600083820193841291129080158216911516176123c957565b73ffffffffffffffffffffffffffffffffffffffff169290918315612ee657612d578233612a44565b906000913383526004602052612d708460408520612328565b8684526020526040832090612d93836c010000000000000000000000008861312a565b612d9e83548261261e565b92600383015491828502927f8000000000000000000000000000000000000000000000000000000000000000811488871216612eb9578584051485151715612e8c5791612e1074010000000000000000000000000000000000000000600184600296612e1b9896550192058254612d12565b905501918254612d12565b905560405193845260208401526002821015612e5f575060408201527f9776a1047fd3e7459fcc529a4fcc441af3c74bab1415fbdb0d2e70990f545e3f60603392a3565b807f4e487b7100000000000000000000000000000000000000000000000000000000602492526021600452fd5b6024877f4e487b710000000000000000000000000000000000000000000000000000000081526011600452fd5b6024887f4e487b710000000000000000000000000000000000000000000000000000000081526011600452fd5b50505050565b323303612ef557565b6040517f3e1eb266000000000000000000000000000000000000000000000000000000008152336004820152326024820152604490fd5b908160a09103126122f057805180151581036122f0579160208201516affffffffffffffffffffff811681036122f05791612f696040820161278d565b916080612f786060840161278d565b9201516bffffffffffffffffffffffff811681036122f05790565b6040517ff851a44000000000000000000000000000000000000000000000000000000000815273ffffffffffffffffffffffffffffffffffffffff602082600481847f0000000000000000000000000000000000000000000000000000000000000000165afa91821561292157600092613063575b50811633036130145750565b6040517f5113afbd00000000000000000000000000000000000000000000000000000000815273ffffffffffffffffffffffffffffffffffffffff919091166004820152336024820152604490fd5b90916020823d8211613096575b8161307d602093836121af565b810103126102cb575061308f9061278d565b9038613008565b3d9150613070565b90807fffffffffffffffffffffffffffffffffffffffffffffffffffffffffffffffff04821181026130d957670de0b6b3a764000091020490565b63bac65e5b6000526004601cfd5b670de0b6b3a7640000907812725dd1d243aba0e75fe645cc4873f9e65afe688c928e1f21811182021583021561311c57020490565b637c5f487d6000526004601cfd5b91600092828102927fffffffffffffffffffffffffffffffffffffffffffffffffffffffffffffffff81830991848310850180840393146131ca57828411156131bd57908391099060018386038416808080960460028082600302188083028203028083028203028083028203028083028203028083028203028092029003029703040190848311900302920304170290565b63ae47f70286526004601cfd5b5050509182156131d957500490565b63ae47f70290526004601cfdfea164736f6c6343000811000a",
  "linkReferences": {},
  "deployedLinkReferences": {}
}